{
	"contracts/RewardPoolFactory.sol": {
		"RewardPoolFactory": {
			"abi": [
				{
					"inputs": [
						{
							"internalType": "address",
							"name": "_timeMarketAddress",
							"type": "address"
						}
					],
					"name": "createRewardPool",
					"outputs": [
						{
							"internalType": "address",
							"name": "hat",
							"type": "address"
						}
					],
					"stateMutability": "nonpayable",
					"type": "function"
				},
				{
					"inputs": [
						{
							"internalType": "address",
							"name": "_timeMarketAddress",
							"type": "address"
						}
					],
					"name": "getIfCreateRewardPool",
					"outputs": [
						{
							"internalType": "bool",
							"name": "",
							"type": "bool"
						}
					],
					"stateMutability": "view",
					"type": "function"
				},
				{
					"inputs": [
						{
							"internalType": "address",
							"name": "_timeMarketAddress",
							"type": "address"
						}
					],
					"name": "getPoolAddress",
					"outputs": [
						{
							"internalType": "address",
							"name": "",
							"type": "address"
						}
					],
					"stateMutability": "view",
					"type": "function"
				}
			],
			"devdoc": {
				"kind": "dev",
				"methods": {},
				"version": 1
			},
			"evm": {
				"assembly": "    /* \"contracts/RewardPoolFactory.sol\":86:1261  contract RewardPoolFactory{... */\n  mstore(0x40, 0x80)\n  callvalue\n  dup1\n  iszero\n  tag_1\n  jumpi\n  0x00\n  dup1\n  revert\ntag_1:\n  pop\n  dataSize(sub_0)\n  dup1\n  dataOffset(sub_0)\n  0x00\n  codecopy\n  0x00\n  return\nstop\n\nsub_0: assembly {\n        /* \"contracts/RewardPoolFactory.sol\":86:1261  contract RewardPoolFactory{... */\n      mstore(0x40, 0x80)\n      callvalue\n      dup1\n      iszero\n      tag_1\n      jumpi\n      0x00\n      dup1\n      revert\n    tag_1:\n      pop\n      jumpi(tag_2, lt(calldatasize, 0x04))\n      shr(0xe0, calldataload(0x00))\n      dup1\n      0x1228cbee\n      eq\n      tag_3\n      jumpi\n      dup1\n      0xf3a914f7\n      eq\n      tag_4\n      jumpi\n      dup1\n      0xf7bdec0a\n      eq\n      tag_5\n      jumpi\n    tag_2:\n      0x00\n      dup1\n      revert\n        /* \"contracts/RewardPoolFactory.sol\":898:1045  function getPoolAddress(address _timeMarketAddress)external view returns(address){... */\n    tag_3:\n      tag_6\n      0x04\n      dup1\n      calldatasize\n      sub\n      dup2\n      add\n      swap1\n      tag_7\n      swap2\n      swap1\n      tag_8\n      jump\t// in\n    tag_7:\n      tag_9\n      jump\t// in\n    tag_6:\n      mload(0x40)\n      tag_10\n      swap2\n      swap1\n      tag_11\n      jump\t// in\n    tag_10:\n      mload(0x40)\n      dup1\n      swap2\n      sub\n      swap1\n      return\n        /* \"contracts/RewardPoolFactory.sol\":380:853  function createRewardPool(address _timeMarketAddress)external returns(address hat){... */\n    tag_4:\n      tag_12\n      0x04\n      dup1\n      calldatasize\n      sub\n      dup2\n      add\n      swap1\n      tag_13\n      swap2\n      swap1\n      tag_8\n      jump\t// in\n    tag_13:\n      tag_14\n      jump\t// in\n    tag_12:\n      mload(0x40)\n      tag_15\n      swap2\n      swap1\n      tag_11\n      jump\t// in\n    tag_15:\n      mload(0x40)\n      dup1\n      swap2\n      sub\n      swap1\n      return\n        /* \"contracts/RewardPoolFactory.sol\":1114:1258  function getIfCreateRewardPool(address _timeMarketAddress)external view returns(bool){... */\n    tag_5:\n      tag_16\n      0x04\n      dup1\n      calldatasize\n      sub\n      dup2\n      add\n      swap1\n      tag_17\n      swap2\n      swap1\n      tag_8\n      jump\t// in\n    tag_17:\n      tag_18\n      jump\t// in\n    tag_16:\n      mload(0x40)\n      tag_19\n      swap2\n      swap1\n      tag_20\n      jump\t// in\n    tag_19:\n      mload(0x40)\n      dup1\n      swap2\n      sub\n      swap1\n      return\n        /* \"contracts/RewardPoolFactory.sol\":898:1045  function getPoolAddress(address _timeMarketAddress)external view returns(address){... */\n    tag_9:\n        /* \"contracts/RewardPoolFactory.sol\":971:978  address */\n      0x00\n        /* \"contracts/RewardPoolFactory.sol\":997:1017  getRewardPoolAddress */\n      dup1\n        /* \"contracts/RewardPoolFactory.sol\":997:1037  getRewardPoolAddress[_timeMarketAddress] */\n      0x00\n        /* \"contracts/RewardPoolFactory.sol\":1018:1036  _timeMarketAddress */\n      dup4\n        /* \"contracts/RewardPoolFactory.sol\":997:1037  getRewardPoolAddress[_timeMarketAddress] */\n      0xffffffffffffffffffffffffffffffffffffffff\n      and\n      0xffffffffffffffffffffffffffffffffffffffff\n      and\n      dup2\n      mstore\n      0x20\n      add\n      swap1\n      dup2\n      mstore\n      0x20\n      add\n      0x00\n      keccak256\n      0x00\n      swap1\n      sload\n      swap1\n      0x0100\n      exp\n      swap1\n      div\n      0xffffffffffffffffffffffffffffffffffffffff\n      and\n        /* \"contracts/RewardPoolFactory.sol\":990:1037  return getRewardPoolAddress[_timeMarketAddress] */\n      swap1\n      pop\n        /* \"contracts/RewardPoolFactory.sol\":898:1045  function getPoolAddress(address _timeMarketAddress)external view returns(address){... */\n      swap2\n      swap1\n      pop\n      jump\t// out\n        /* \"contracts/RewardPoolFactory.sol\":380:853  function createRewardPool(address _timeMarketAddress)external returns(address hat){... */\n    tag_14:\n        /* \"contracts/RewardPoolFactory.sol\":450:461  address hat */\n      0x00\n        /* \"contracts/RewardPoolFactory.sol\":516:521  false */\n      dup1\n        /* \"contracts/RewardPoolFactory.sol\":481:521  AlreadyCreate[_timeMarketAddress]==false */\n      iszero\n      iszero\n        /* \"contracts/RewardPoolFactory.sol\":481:494  AlreadyCreate */\n      0x01\n        /* \"contracts/RewardPoolFactory.sol\":481:514  AlreadyCreate[_timeMarketAddress] */\n      0x00\n        /* \"contracts/RewardPoolFactory.sol\":495:513  _timeMarketAddress */\n      dup5\n        /* \"contracts/RewardPoolFactory.sol\":481:514  AlreadyCreate[_timeMarketAddress] */\n      0xffffffffffffffffffffffffffffffffffffffff\n      and\n      0xffffffffffffffffffffffffffffffffffffffff\n      and\n      dup2\n      mstore\n      0x20\n      add\n      swap1\n      dup2\n      mstore\n      0x20\n      add\n      0x00\n      keccak256\n      0x00\n      swap1\n      sload\n      swap1\n      0x0100\n      exp\n      swap1\n      div\n      0xff\n      and\n        /* \"contracts/RewardPoolFactory.sol\":481:521  AlreadyCreate[_timeMarketAddress]==false */\n      iszero\n      iszero\n      eq\n        /* \"contracts/RewardPoolFactory.sol\":473:538  require(AlreadyCreate[_timeMarketAddress]==false,\"Alrady create\") */\n      tag_23\n      jumpi\n      mload(0x40)\n      0x08c379a000000000000000000000000000000000000000000000000000000000\n      dup2\n      mstore\n      0x04\n      add\n      tag_24\n      swap1\n      tag_25\n      jump\t// in\n    tag_24:\n      mload(0x40)\n      dup1\n      swap2\n      sub\n      swap1\n      revert\n    tag_23:\n        /* \"contracts/RewardPoolFactory.sol\":641:659  _timeMarketAddress */\n      dup2\n        /* \"contracts/RewardPoolFactory.sol\":678:693  block.timestamp */\n      timestamp\n        /* \"contracts/RewardPoolFactory.sol\":606:708  abi.encodePacked(... */\n      add(0x20, mload(0x40))\n      tag_26\n      swap3\n      swap2\n      swap1\n      tag_27\n      jump\t// in\n    tag_26:\n      mload(0x40)\n      0x20\n      dup2\n      dup4\n      sub\n      sub\n      dup2\n      mstore\n      swap1\n      0x40\n      mstore\n        /* \"contracts/RewardPoolFactory.sol\":596:709  keccak256(abi.encodePacked(... */\n      dup1\n      mload\n      swap1\n      0x20\n      add\n      keccak256\n        /* \"contracts/RewardPoolFactory.sol\":711:729  _timeMarketAddress */\n      dup3\n        /* \"contracts/RewardPoolFactory.sol\":575:730  new RewardPool{salt: keccak256(abi.encodePacked(... */\n      mload(0x40)\n      tag_28\n      swap1\n      tag_29\n      jump\t// in\n    tag_28:\n      tag_30\n      swap2\n      swap1\n      tag_11\n      jump\t// in\n    tag_30:\n      dup2\n      swap1\n      mload(0x40)\n      dup1\n      swap2\n      sub\n      swap1\n      0x00\n      create2\n      swap1\n      pop\n      dup1\n      iszero\n      dup1\n      iszero\n      tag_31\n      jumpi\n      returndatasize\n      0x00\n      dup1\n      returndatacopy\n      revert(0x00, returndatasize)\n    tag_31:\n      pop\n        /* \"contracts/RewardPoolFactory.sol\":549:741  hat=address(... */\n      swap1\n      pop\n        /* \"contracts/RewardPoolFactory.sol\":793:796  hat */\n      dup1\n        /* \"contracts/RewardPoolFactory.sol\":752:772  getRewardPoolAddress */\n      0x00\n        /* \"contracts/RewardPoolFactory.sol\":752:792  getRewardPoolAddress[_timeMarketAddress] */\n      dup1\n        /* \"contracts/RewardPoolFactory.sol\":773:791  _timeMarketAddress */\n      dup5\n        /* \"contracts/RewardPoolFactory.sol\":752:792  getRewardPoolAddress[_timeMarketAddress] */\n      0xffffffffffffffffffffffffffffffffffffffff\n      and\n      0xffffffffffffffffffffffffffffffffffffffff\n      and\n      dup2\n      mstore\n      0x20\n      add\n      swap1\n      dup2\n      mstore\n      0x20\n      add\n      0x00\n      keccak256\n      0x00\n        /* \"contracts/RewardPoolFactory.sol\":752:796  getRewardPoolAddress[_timeMarketAddress]=hat */\n      0x0100\n      exp\n      dup2\n      sload\n      dup2\n      0xffffffffffffffffffffffffffffffffffffffff\n      mul\n      not\n      and\n      swap1\n      dup4\n      0xffffffffffffffffffffffffffffffffffffffff\n      and\n      mul\n      or\n      swap1\n      sstore\n      pop\n        /* \"contracts/RewardPoolFactory.sol\":841:845  true */\n      0x01\n        /* \"contracts/RewardPoolFactory.sol\":807:820  AlreadyCreate */\n      dup1\n        /* \"contracts/RewardPoolFactory.sol\":807:840  AlreadyCreate[_timeMarketAddress] */\n      0x00\n        /* \"contracts/RewardPoolFactory.sol\":821:839  _timeMarketAddress */\n      dup5\n        /* \"contracts/RewardPoolFactory.sol\":807:840  AlreadyCreate[_timeMarketAddress] */\n      0xffffffffffffffffffffffffffffffffffffffff\n      and\n      0xffffffffffffffffffffffffffffffffffffffff\n      and\n      dup2\n      mstore\n      0x20\n      add\n      swap1\n      dup2\n      mstore\n      0x20\n      add\n      0x00\n      keccak256\n      0x00\n        /* \"contracts/RewardPoolFactory.sol\":807:845  AlreadyCreate[_timeMarketAddress]=true */\n      0x0100\n      exp\n      dup2\n      sload\n      dup2\n      0xff\n      mul\n      not\n      and\n      swap1\n      dup4\n      iszero\n      iszero\n      mul\n      or\n      swap1\n      sstore\n      pop\n        /* \"contracts/RewardPoolFactory.sol\":380:853  function createRewardPool(address _timeMarketAddress)external returns(address hat){... */\n      swap2\n      swap1\n      pop\n      jump\t// out\n        /* \"contracts/RewardPoolFactory.sol\":1114:1258  function getIfCreateRewardPool(address _timeMarketAddress)external view returns(bool){... */\n    tag_18:\n        /* \"contracts/RewardPoolFactory.sol\":1194:1198  bool */\n      0x00\n        /* \"contracts/RewardPoolFactory.sol\":1217:1230  AlreadyCreate */\n      0x01\n        /* \"contracts/RewardPoolFactory.sol\":1217:1250  AlreadyCreate[_timeMarketAddress] */\n      0x00\n        /* \"contracts/RewardPoolFactory.sol\":1231:1249  _timeMarketAddress */\n      dup4\n        /* \"contracts/RewardPoolFactory.sol\":1217:1250  AlreadyCreate[_timeMarketAddress] */\n      0xffffffffffffffffffffffffffffffffffffffff\n      and\n      0xffffffffffffffffffffffffffffffffffffffff\n      and\n      dup2\n      mstore\n      0x20\n      add\n      swap1\n      dup2\n      mstore\n      0x20\n      add\n      0x00\n      keccak256\n      0x00\n      swap1\n      sload\n      swap1\n      0x0100\n      exp\n      swap1\n      div\n      0xff\n      and\n        /* \"contracts/RewardPoolFactory.sol\":1210:1250  return AlreadyCreate[_timeMarketAddress] */\n      swap1\n      pop\n        /* \"contracts/RewardPoolFactory.sol\":1114:1258  function getIfCreateRewardPool(address _timeMarketAddress)external view returns(bool){... */\n      swap2\n      swap1\n      pop\n      jump\t// out\n    tag_29:\n      dataSize(sub_0)\n      dup1\n      dataOffset(sub_0)\n      dup4\n      codecopy\n      add\n      swap1\n      jump\t// out\n        /* \"#utility.yul\":88:205   */\n    tag_34:\n        /* \"#utility.yul\":197:198   */\n      0x00\n        /* \"#utility.yul\":194:195   */\n      dup1\n        /* \"#utility.yul\":187:199   */\n      revert\n        /* \"#utility.yul\":334:460   */\n    tag_36:\n        /* \"#utility.yul\":371:378   */\n      0x00\n        /* \"#utility.yul\":411:453   */\n      0xffffffffffffffffffffffffffffffffffffffff\n        /* \"#utility.yul\":404:409   */\n      dup3\n        /* \"#utility.yul\":400:454   */\n      and\n        /* \"#utility.yul\":389:454   */\n      swap1\n      pop\n        /* \"#utility.yul\":334:460   */\n      swap2\n      swap1\n      pop\n      jump\t// out\n        /* \"#utility.yul\":466:562   */\n    tag_37:\n        /* \"#utility.yul\":503:510   */\n      0x00\n        /* \"#utility.yul\":532:556   */\n      tag_59\n        /* \"#utility.yul\":550:555   */\n      dup3\n        /* \"#utility.yul\":532:556   */\n      tag_36\n      jump\t// in\n    tag_59:\n        /* \"#utility.yul\":521:556   */\n      swap1\n      pop\n        /* \"#utility.yul\":466:562   */\n      swap2\n      swap1\n      pop\n      jump\t// out\n        /* \"#utility.yul\":568:690   */\n    tag_38:\n        /* \"#utility.yul\":641:665   */\n      tag_61\n        /* \"#utility.yul\":659:664   */\n      dup2\n        /* \"#utility.yul\":641:665   */\n      tag_37\n      jump\t// in\n    tag_61:\n        /* \"#utility.yul\":634:639   */\n      dup2\n        /* \"#utility.yul\":631:666   */\n      eq\n        /* \"#utility.yul\":621:684   */\n      tag_62\n      jumpi\n        /* \"#utility.yul\":680:681   */\n      0x00\n        /* \"#utility.yul\":677:678   */\n      dup1\n        /* \"#utility.yul\":670:682   */\n      revert\n        /* \"#utility.yul\":621:684   */\n    tag_62:\n        /* \"#utility.yul\":568:690   */\n      pop\n      jump\t// out\n        /* \"#utility.yul\":696:835   */\n    tag_39:\n        /* \"#utility.yul\":742:747   */\n      0x00\n        /* \"#utility.yul\":780:786   */\n      dup2\n        /* \"#utility.yul\":767:787   */\n      calldataload\n        /* \"#utility.yul\":758:787   */\n      swap1\n      pop\n        /* \"#utility.yul\":796:829   */\n      tag_64\n        /* \"#utility.yul\":823:828   */\n      dup2\n        /* \"#utility.yul\":796:829   */\n      tag_38\n      jump\t// in\n    tag_64:\n        /* \"#utility.yul\":696:835   */\n      swap3\n      swap2\n      pop\n      pop\n      jump\t// out\n        /* \"#utility.yul\":841:1170   */\n    tag_8:\n        /* \"#utility.yul\":900:906   */\n      0x00\n        /* \"#utility.yul\":949:951   */\n      0x20\n        /* \"#utility.yul\":937:946   */\n      dup3\n        /* \"#utility.yul\":928:935   */\n      dup5\n        /* \"#utility.yul\":924:947   */\n      sub\n        /* \"#utility.yul\":920:952   */\n      slt\n        /* \"#utility.yul\":917:1036   */\n      iszero\n      tag_66\n      jumpi\n        /* \"#utility.yul\":955:1034   */\n      tag_67\n      tag_34\n      jump\t// in\n    tag_67:\n        /* \"#utility.yul\":917:1036   */\n    tag_66:\n        /* \"#utility.yul\":1075:1076   */\n      0x00\n        /* \"#utility.yul\":1100:1153   */\n      tag_68\n        /* \"#utility.yul\":1145:1152   */\n      dup5\n        /* \"#utility.yul\":1136:1142   */\n      dup3\n        /* \"#utility.yul\":1125:1134   */\n      dup6\n        /* \"#utility.yul\":1121:1143   */\n      add\n        /* \"#utility.yul\":1100:1153   */\n      tag_39\n      jump\t// in\n    tag_68:\n        /* \"#utility.yul\":1090:1153   */\n      swap2\n      pop\n        /* \"#utility.yul\":1046:1163   */\n      pop\n        /* \"#utility.yul\":841:1170   */\n      swap3\n      swap2\n      pop\n      pop\n      jump\t// out\n        /* \"#utility.yul\":1176:1294   */\n    tag_40:\n        /* \"#utility.yul\":1263:1287   */\n      tag_70\n        /* \"#utility.yul\":1281:1286   */\n      dup2\n        /* \"#utility.yul\":1263:1287   */\n      tag_37\n      jump\t// in\n    tag_70:\n        /* \"#utility.yul\":1258:1261   */\n      dup3\n        /* \"#utility.yul\":1251:1288   */\n      mstore\n        /* \"#utility.yul\":1176:1294   */\n      pop\n      pop\n      jump\t// out\n        /* \"#utility.yul\":1300:1522   */\n    tag_11:\n        /* \"#utility.yul\":1393:1397   */\n      0x00\n        /* \"#utility.yul\":1431:1433   */\n      0x20\n        /* \"#utility.yul\":1420:1429   */\n      dup3\n        /* \"#utility.yul\":1416:1434   */\n      add\n        /* \"#utility.yul\":1408:1434   */\n      swap1\n      pop\n        /* \"#utility.yul\":1444:1515   */\n      tag_72\n        /* \"#utility.yul\":1512:1513   */\n      0x00\n        /* \"#utility.yul\":1501:1510   */\n      dup4\n        /* \"#utility.yul\":1497:1514   */\n      add\n        /* \"#utility.yul\":1488:1494   */\n      dup5\n        /* \"#utility.yul\":1444:1515   */\n      tag_40\n      jump\t// in\n    tag_72:\n        /* \"#utility.yul\":1300:1522   */\n      swap3\n      swap2\n      pop\n      pop\n      jump\t// out\n        /* \"#utility.yul\":1528:1618   */\n    tag_41:\n        /* \"#utility.yul\":1562:1569   */\n      0x00\n        /* \"#utility.yul\":1605:1610   */\n      dup2\n        /* \"#utility.yul\":1598:1611   */\n      iszero\n        /* \"#utility.yul\":1591:1612   */\n      iszero\n        /* \"#utility.yul\":1580:1612   */\n      swap1\n      pop\n        /* \"#utility.yul\":1528:1618   */\n      swap2\n      swap1\n      pop\n      jump\t// out\n        /* \"#utility.yul\":1624:1733   */\n    tag_42:\n        /* \"#utility.yul\":1705:1726   */\n      tag_75\n        /* \"#utility.yul\":1720:1725   */\n      dup2\n        /* \"#utility.yul\":1705:1726   */\n      tag_41\n      jump\t// in\n    tag_75:\n        /* \"#utility.yul\":1700:1703   */\n      dup3\n        /* \"#utility.yul\":1693:1727   */\n      mstore\n        /* \"#utility.yul\":1624:1733   */\n      pop\n      pop\n      jump\t// out\n        /* \"#utility.yul\":1739:1949   */\n    tag_20:\n        /* \"#utility.yul\":1826:1830   */\n      0x00\n        /* \"#utility.yul\":1864:1866   */\n      0x20\n        /* \"#utility.yul\":1853:1862   */\n      dup3\n        /* \"#utility.yul\":1849:1867   */\n      add\n        /* \"#utility.yul\":1841:1867   */\n      swap1\n      pop\n        /* \"#utility.yul\":1877:1942   */\n      tag_77\n        /* \"#utility.yul\":1939:1940   */\n      0x00\n        /* \"#utility.yul\":1928:1937   */\n      dup4\n        /* \"#utility.yul\":1924:1941   */\n      add\n        /* \"#utility.yul\":1915:1921   */\n      dup5\n        /* \"#utility.yul\":1877:1942   */\n      tag_42\n      jump\t// in\n    tag_77:\n        /* \"#utility.yul\":1739:1949   */\n      swap3\n      swap2\n      pop\n      pop\n      jump\t// out\n        /* \"#utility.yul\":1955:2124   */\n    tag_43:\n        /* \"#utility.yul\":2039:2050   */\n      0x00\n        /* \"#utility.yul\":2073:2079   */\n      dup3\n        /* \"#utility.yul\":2068:2071   */\n      dup3\n        /* \"#utility.yul\":2061:2080   */\n      mstore\n        /* \"#utility.yul\":2113:2117   */\n      0x20\n        /* \"#utility.yul\":2108:2111   */\n      dup3\n        /* \"#utility.yul\":2104:2118   */\n      add\n        /* \"#utility.yul\":2089:2118   */\n      swap1\n      pop\n        /* \"#utility.yul\":1955:2124   */\n      swap3\n      swap2\n      pop\n      pop\n      jump\t// out\n        /* \"#utility.yul\":2130:2293   */\n    tag_44:\n        /* \"#utility.yul\":2270:2285   */\n      0x416c726164792063726561746500000000000000000000000000000000000000\n        /* \"#utility.yul\":2266:2267   */\n      0x00\n        /* \"#utility.yul\":2258:2264   */\n      dup3\n        /* \"#utility.yul\":2254:2268   */\n      add\n        /* \"#utility.yul\":2247:2286   */\n      mstore\n        /* \"#utility.yul\":2130:2293   */\n      pop\n      jump\t// out\n        /* \"#utility.yul\":2299:2665   */\n    tag_45:\n        /* \"#utility.yul\":2441:2444   */\n      0x00\n        /* \"#utility.yul\":2462:2529   */\n      tag_81\n        /* \"#utility.yul\":2526:2528   */\n      0x0d\n        /* \"#utility.yul\":2521:2524   */\n      dup4\n        /* \"#utility.yul\":2462:2529   */\n      tag_43\n      jump\t// in\n    tag_81:\n        /* \"#utility.yul\":2455:2529   */\n      swap2\n      pop\n        /* \"#utility.yul\":2538:2631   */\n      tag_82\n        /* \"#utility.yul\":2627:2630   */\n      dup3\n        /* \"#utility.yul\":2538:2631   */\n      tag_44\n      jump\t// in\n    tag_82:\n        /* \"#utility.yul\":2656:2658   */\n      0x20\n        /* \"#utility.yul\":2651:2654   */\n      dup3\n        /* \"#utility.yul\":2647:2659   */\n      add\n        /* \"#utility.yul\":2640:2659   */\n      swap1\n      pop\n        /* \"#utility.yul\":2299:2665   */\n      swap2\n      swap1\n      pop\n      jump\t// out\n        /* \"#utility.yul\":2671:3090   */\n    tag_25:\n        /* \"#utility.yul\":2837:2841   */\n      0x00\n        /* \"#utility.yul\":2875:2877   */\n      0x20\n        /* \"#utility.yul\":2864:2873   */\n      dup3\n        /* \"#utility.yul\":2860:2878   */\n      add\n        /* \"#utility.yul\":2852:2878   */\n      swap1\n      pop\n        /* \"#utility.yul\":2924:2933   */\n      dup2\n        /* \"#utility.yul\":2918:2922   */\n      dup2\n        /* \"#utility.yul\":2914:2934   */\n      sub\n        /* \"#utility.yul\":2910:2911   */\n      0x00\n        /* \"#utility.yul\":2899:2908   */\n      dup4\n        /* \"#utility.yul\":2895:2912   */\n      add\n        /* \"#utility.yul\":2888:2935   */\n      mstore\n        /* \"#utility.yul\":2952:3083   */\n      tag_84\n        /* \"#utility.yul\":3078:3082   */\n      dup2\n        /* \"#utility.yul\":2952:3083   */\n      tag_45\n      jump\t// in\n    tag_84:\n        /* \"#utility.yul\":2944:3083   */\n      swap1\n      pop\n        /* \"#utility.yul\":2671:3090   */\n      swap2\n      swap1\n      pop\n      jump\t// out\n        /* \"#utility.yul\":3096:3190   */\n    tag_46:\n        /* \"#utility.yul\":3129:3137   */\n      0x00\n        /* \"#utility.yul\":3177:3182   */\n      dup2\n        /* \"#utility.yul\":3173:3175   */\n      0x60\n        /* \"#utility.yul\":3169:3183   */\n      shl\n        /* \"#utility.yul\":3148:3183   */\n      swap1\n      pop\n        /* \"#utility.yul\":3096:3190   */\n      swap2\n      swap1\n      pop\n      jump\t// out\n        /* \"#utility.yul\":3196:3290   */\n    tag_47:\n        /* \"#utility.yul\":3235:3242   */\n      0x00\n        /* \"#utility.yul\":3264:3284   */\n      tag_87\n        /* \"#utility.yul\":3278:3283   */\n      dup3\n        /* \"#utility.yul\":3264:3284   */\n      tag_46\n      jump\t// in\n    tag_87:\n        /* \"#utility.yul\":3253:3284   */\n      swap1\n      pop\n        /* \"#utility.yul\":3196:3290   */\n      swap2\n      swap1\n      pop\n      jump\t// out\n        /* \"#utility.yul\":3296:3396   */\n    tag_48:\n        /* \"#utility.yul\":3335:3342   */\n      0x00\n        /* \"#utility.yul\":3364:3390   */\n      tag_89\n        /* \"#utility.yul\":3384:3389   */\n      dup3\n        /* \"#utility.yul\":3364:3390   */\n      tag_47\n      jump\t// in\n    tag_89:\n        /* \"#utility.yul\":3353:3390   */\n      swap1\n      pop\n        /* \"#utility.yul\":3296:3396   */\n      swap2\n      swap1\n      pop\n      jump\t// out\n        /* \"#utility.yul\":3402:3559   */\n    tag_49:\n        /* \"#utility.yul\":3507:3552   */\n      tag_91\n        /* \"#utility.yul\":3527:3551   */\n      tag_92\n        /* \"#utility.yul\":3545:3550   */\n      dup3\n        /* \"#utility.yul\":3527:3551   */\n      tag_37\n      jump\t// in\n    tag_92:\n        /* \"#utility.yul\":3507:3552   */\n      tag_48\n      jump\t// in\n    tag_91:\n        /* \"#utility.yul\":3502:3505   */\n      dup3\n        /* \"#utility.yul\":3495:3553   */\n      mstore\n        /* \"#utility.yul\":3402:3559   */\n      pop\n      pop\n      jump\t// out\n        /* \"#utility.yul\":3565:3642   */\n    tag_50:\n        /* \"#utility.yul\":3602:3609   */\n      0x00\n        /* \"#utility.yul\":3631:3636   */\n      dup2\n        /* \"#utility.yul\":3620:3636   */\n      swap1\n      pop\n        /* \"#utility.yul\":3565:3642   */\n      swap2\n      swap1\n      pop\n      jump\t// out\n        /* \"#utility.yul\":3648:3727   */\n    tag_51:\n        /* \"#utility.yul\":3687:3694   */\n      0x00\n        /* \"#utility.yul\":3716:3721   */\n      dup2\n        /* \"#utility.yul\":3705:3721   */\n      swap1\n      pop\n        /* \"#utility.yul\":3648:3727   */\n      swap2\n      swap1\n      pop\n      jump\t// out\n        /* \"#utility.yul\":3733:3890   */\n    tag_52:\n        /* \"#utility.yul\":3838:3883   */\n      tag_96\n        /* \"#utility.yul\":3858:3882   */\n      tag_97\n        /* \"#utility.yul\":3876:3881   */\n      dup3\n        /* \"#utility.yul\":3858:3882   */\n      tag_50\n      jump\t// in\n    tag_97:\n        /* \"#utility.yul\":3838:3883   */\n      tag_51\n      jump\t// in\n    tag_96:\n        /* \"#utility.yul\":3833:3836   */\n      dup3\n        /* \"#utility.yul\":3826:3884   */\n      mstore\n        /* \"#utility.yul\":3733:3890   */\n      pop\n      pop\n      jump\t// out\n        /* \"#utility.yul\":3896:4293   */\n    tag_27:\n        /* \"#utility.yul\":4036:4039   */\n      0x00\n        /* \"#utility.yul\":4051:4126   */\n      tag_99\n        /* \"#utility.yul\":4122:4125   */\n      dup3\n        /* \"#utility.yul\":4113:4119   */\n      dup6\n        /* \"#utility.yul\":4051:4126   */\n      tag_49\n      jump\t// in\n    tag_99:\n        /* \"#utility.yul\":4151:4153   */\n      0x14\n        /* \"#utility.yul\":4146:4149   */\n      dup3\n        /* \"#utility.yul\":4142:4154   */\n      add\n        /* \"#utility.yul\":4135:4154   */\n      swap2\n      pop\n        /* \"#utility.yul\":4164:4239   */\n      tag_100\n        /* \"#utility.yul\":4235:4238   */\n      dup3\n        /* \"#utility.yul\":4226:4232   */\n      dup5\n        /* \"#utility.yul\":4164:4239   */\n      tag_52\n      jump\t// in\n    tag_100:\n        /* \"#utility.yul\":4264:4266   */\n      0x20\n        /* \"#utility.yul\":4259:4262   */\n      dup3\n        /* \"#utility.yul\":4255:4267   */\n      add\n        /* \"#utility.yul\":4248:4267   */\n      swap2\n      pop\n        /* \"#utility.yul\":4284:4287   */\n      dup2\n        /* \"#utility.yul\":4277:4287   */\n      swap1\n      pop\n        /* \"#utility.yul\":3896:4293   */\n      swap4\n      swap3\n      pop\n      pop\n      pop\n      jump\t// out\n    stop\n\n    sub_0: assembly {\n            /* \"contracts/RewardPool.sol\":181:1752  contract RewardPool is IRewardPool{... */\n          mstore(0x40, 0x80)\n            /* \"contracts/RewardPool.sol\":300:373  constructor(address _timeMarket){... */\n          callvalue\n          dup1\n          iszero\n          tag_1\n          jumpi\n          0x00\n          dup1\n          revert\n        tag_1:\n          pop\n          mload(0x40)\n          sub(codesize, bytecodeSize)\n          dup1\n          bytecodeSize\n          dup4\n          codecopy\n          dup2\n          dup2\n          add\n          0x40\n          mstore\n          dup2\n          add\n          swap1\n          tag_2\n          swap2\n          swap1\n          tag_3\n          jump\t// in\n        tag_2:\n            /* \"contracts/RewardPool.sol\":354:365  _timeMarket */\n          dup1\n            /* \"contracts/RewardPool.sol\":343:353  timeMarket */\n          0x00\n          dup1\n            /* \"contracts/RewardPool.sol\":343:365  timeMarket=_timeMarket */\n          0x0100\n          exp\n          dup2\n          sload\n          dup2\n          0xffffffffffffffffffffffffffffffffffffffff\n          mul\n          not\n          and\n          swap1\n          dup4\n          0xffffffffffffffffffffffffffffffffffffffff\n          and\n          mul\n          or\n          swap1\n          sstore\n          pop\n            /* \"contracts/RewardPool.sol\":300:373  constructor(address _timeMarket){... */\n          pop\n            /* \"contracts/RewardPool.sol\":181:1752  contract RewardPool is IRewardPool{... */\n          jump(tag_6)\n            /* \"#utility.yul\":88:205   */\n        tag_8:\n            /* \"#utility.yul\":197:198   */\n          0x00\n            /* \"#utility.yul\":194:195   */\n          dup1\n            /* \"#utility.yul\":187:199   */\n          revert\n            /* \"#utility.yul\":334:460   */\n        tag_10:\n            /* \"#utility.yul\":371:378   */\n          0x00\n            /* \"#utility.yul\":411:453   */\n          0xffffffffffffffffffffffffffffffffffffffff\n            /* \"#utility.yul\":404:409   */\n          dup3\n            /* \"#utility.yul\":400:454   */\n          and\n            /* \"#utility.yul\":389:454   */\n          swap1\n          pop\n            /* \"#utility.yul\":334:460   */\n          swap2\n          swap1\n          pop\n          jump\t// out\n            /* \"#utility.yul\":466:562   */\n        tag_11:\n            /* \"#utility.yul\":503:510   */\n          0x00\n            /* \"#utility.yul\":532:556   */\n          tag_20\n            /* \"#utility.yul\":550:555   */\n          dup3\n            /* \"#utility.yul\":532:556   */\n          tag_10\n          jump\t// in\n        tag_20:\n            /* \"#utility.yul\":521:556   */\n          swap1\n          pop\n            /* \"#utility.yul\":466:562   */\n          swap2\n          swap1\n          pop\n          jump\t// out\n            /* \"#utility.yul\":568:690   */\n        tag_12:\n            /* \"#utility.yul\":641:665   */\n          tag_22\n            /* \"#utility.yul\":659:664   */\n          dup2\n            /* \"#utility.yul\":641:665   */\n          tag_11\n          jump\t// in\n        tag_22:\n            /* \"#utility.yul\":634:639   */\n          dup2\n            /* \"#utility.yul\":631:666   */\n          eq\n            /* \"#utility.yul\":621:684   */\n          tag_23\n          jumpi\n            /* \"#utility.yul\":680:681   */\n          0x00\n            /* \"#utility.yul\":677:678   */\n          dup1\n            /* \"#utility.yul\":670:682   */\n          revert\n            /* \"#utility.yul\":621:684   */\n        tag_23:\n            /* \"#utility.yul\":568:690   */\n          pop\n          jump\t// out\n            /* \"#utility.yul\":696:839   */\n        tag_13:\n            /* \"#utility.yul\":753:758   */\n          0x00\n            /* \"#utility.yul\":784:790   */\n          dup2\n            /* \"#utility.yul\":778:791   */\n          mload\n            /* \"#utility.yul\":769:791   */\n          swap1\n          pop\n            /* \"#utility.yul\":800:833   */\n          tag_25\n            /* \"#utility.yul\":827:832   */\n          dup2\n            /* \"#utility.yul\":800:833   */\n          tag_12\n          jump\t// in\n        tag_25:\n            /* \"#utility.yul\":696:839   */\n          swap3\n          swap2\n          pop\n          pop\n          jump\t// out\n            /* \"#utility.yul\":845:1196   */\n        tag_3:\n            /* \"#utility.yul\":915:921   */\n          0x00\n            /* \"#utility.yul\":964:966   */\n          0x20\n            /* \"#utility.yul\":952:961   */\n          dup3\n            /* \"#utility.yul\":943:950   */\n          dup5\n            /* \"#utility.yul\":939:962   */\n          sub\n            /* \"#utility.yul\":935:967   */\n          slt\n            /* \"#utility.yul\":932:1051   */\n          iszero\n          tag_27\n          jumpi\n            /* \"#utility.yul\":970:1049   */\n          tag_28\n          tag_8\n          jump\t// in\n        tag_28:\n            /* \"#utility.yul\":932:1051   */\n        tag_27:\n            /* \"#utility.yul\":1090:1091   */\n          0x00\n            /* \"#utility.yul\":1115:1179   */\n          tag_29\n            /* \"#utility.yul\":1171:1178   */\n          dup5\n            /* \"#utility.yul\":1162:1168   */\n          dup3\n            /* \"#utility.yul\":1151:1160   */\n          dup6\n            /* \"#utility.yul\":1147:1169   */\n          add\n            /* \"#utility.yul\":1115:1179   */\n          tag_13\n          jump\t// in\n        tag_29:\n            /* \"#utility.yul\":1105:1179   */\n          swap2\n          pop\n            /* \"#utility.yul\":1061:1189   */\n          pop\n            /* \"#utility.yul\":845:1196   */\n          swap3\n          swap2\n          pop\n          pop\n          jump\t// out\n            /* \"contracts/RewardPool.sol\":181:1752  contract RewardPool is IRewardPool{... */\n        tag_6:\n          dataSize(sub_0)\n          dup1\n          dataOffset(sub_0)\n          0x00\n          codecopy\n          0x00\n          return\n        stop\n\n        sub_0: assembly {\n                /* \"contracts/RewardPool.sol\":181:1752  contract RewardPool is IRewardPool{... */\n              mstore(0x40, 0x80)\n              callvalue\n              dup1\n              iszero\n              tag_1\n              jumpi\n              0x00\n              dup1\n              revert\n            tag_1:\n              pop\n              jumpi(tag_2, lt(calldatasize, 0x04))\n              shr(0xe0, calldataload(0x00))\n              dup1\n              0x02550e4d\n              eq\n              tag_3\n              jumpi\n              dup1\n              0x775a25e3\n              eq\n              tag_4\n              jumpi\n              dup1\n              0xaf32b7a1\n              eq\n              tag_5\n              jumpi\n              dup1\n              0xb86e321c\n              eq\n              tag_6\n              jumpi\n            tag_2:\n              0x00\n              dup1\n              revert\n                /* \"contracts/RewardPool.sol\":995:1411  function profit(address stableAddress)public view returns(uint256 userEarn){... */\n            tag_3:\n              tag_7\n              0x04\n              dup1\n              calldatasize\n              sub\n              dup2\n              add\n              swap1\n              tag_8\n              swap2\n              swap1\n              tag_9\n              jump\t// in\n            tag_8:\n              tag_10\n              jump\t// in\n            tag_7:\n              mload(0x40)\n              tag_11\n              swap2\n              swap1\n              tag_12\n              jump\t// in\n            tag_11:\n              mload(0x40)\n              dup1\n              swap2\n              sub\n              swap1\n              return\n                /* \"contracts/RewardPool.sol\":1447:1560  function getTotal()public view returns(uint256){... */\n            tag_4:\n              tag_13\n              tag_14\n              jump\t// in\n            tag_13:\n              mload(0x40)\n              tag_15\n              swap2\n              swap1\n              tag_12\n              jump\t// in\n            tag_15:\n              mload(0x40)\n              dup1\n              swap2\n              sub\n              swap1\n              return\n                /* \"contracts/RewardPool.sol\":1608:1749  function getTFERC20Amount(address userAddress)public view returns(uint256){... */\n            tag_5:\n              tag_16\n              0x04\n              dup1\n              calldatasize\n              sub\n              dup2\n              add\n              swap1\n              tag_17\n              swap2\n              swap1\n              tag_9\n              jump\t// in\n            tag_17:\n              tag_18\n              jump\t// in\n            tag_16:\n              mload(0x40)\n              tag_19\n              swap2\n              swap1\n              tag_12\n              jump\t// in\n            tag_19:\n              mload(0x40)\n              dup1\n              swap2\n              sub\n              swap1\n              return\n                /* \"contracts/RewardPool.sol\":485:958  function withdrawReward(address stableAddress)external{... */\n            tag_6:\n              tag_20\n              0x04\n              dup1\n              calldatasize\n              sub\n              dup2\n              add\n              swap1\n              tag_21\n              swap2\n              swap1\n              tag_9\n              jump\t// in\n            tag_21:\n              tag_22\n              jump\t// in\n            tag_20:\n              stop\n                /* \"contracts/RewardPool.sol\":995:1411  function profit(address stableAddress)public view returns(uint256 userEarn){... */\n            tag_10:\n                /* \"contracts/RewardPool.sol\":1053:1069  uint256 userEarn */\n              0x00\n                /* \"contracts/RewardPool.sol\":1081:1101  uint256 stableAmount */\n              dup1\n                /* \"contracts/RewardPool.sol\":1109:1122  stableAddress */\n              dup3\n                /* \"contracts/RewardPool.sol\":1102:1133  IERC20(stableAddress).balanceOf */\n              0xffffffffffffffffffffffffffffffffffffffff\n              and\n              0x70a08231\n                /* \"contracts/RewardPool.sol\":1142:1146  this */\n              address\n                /* \"contracts/RewardPool.sol\":1102:1148  IERC20(stableAddress).balanceOf(address(this)) */\n              mload(0x40)\n              dup3\n              0xffffffff\n              and\n              0xe0\n              shl\n              dup2\n              mstore\n              0x04\n              add\n              tag_24\n              swap2\n              swap1\n              tag_25\n              jump\t// in\n            tag_24:\n              0x20\n              mload(0x40)\n              dup1\n              dup4\n              sub\n              dup2\n              dup7\n              gas\n              staticcall\n              iszero\n              dup1\n              iszero\n              tag_27\n              jumpi\n              returndatasize\n              0x00\n              dup1\n              returndatacopy\n              revert(0x00, returndatasize)\n            tag_27:\n              pop\n              pop\n              pop\n              pop\n              mload(0x40)\n              returndatasize\n              not(0x1f)\n              0x1f\n              dup3\n              add\n              and\n              dup3\n              add\n              dup1\n              0x40\n              mstore\n              pop\n              dup2\n              add\n              swap1\n              tag_28\n              swap2\n              swap1\n              tag_29\n              jump\t// in\n            tag_28:\n                /* \"contracts/RewardPool.sol\":1081:1148  uint256 stableAmount=IERC20(stableAddress).balanceOf(address(this)) */\n              swap1\n              pop\n                /* \"contracts/RewardPool.sol\":1159:1187  uint256 personlTFERC20Amount */\n              0x00\n                /* \"contracts/RewardPool.sol\":1188:1216  getTFERC20Amount(msg.sender) */\n              tag_30\n                /* \"contracts/RewardPool.sol\":1205:1215  msg.sender */\n              caller\n                /* \"contracts/RewardPool.sol\":1188:1204  getTFERC20Amount */\n              tag_18\n                /* \"contracts/RewardPool.sol\":1188:1216  getTFERC20Amount(msg.sender) */\n              jump\t// in\n            tag_30:\n                /* \"contracts/RewardPool.sol\":1159:1216  uint256 personlTFERC20Amount=getTFERC20Amount(msg.sender) */\n              swap1\n              pop\n                /* \"contracts/RewardPool.sol\":1230:1244  userIfWithdraw */\n              0x01\n                /* \"contracts/RewardPool.sol\":1230:1256  userIfWithdraw[msg.sender] */\n              0x00\n                /* \"contracts/RewardPool.sol\":1245:1255  msg.sender */\n              caller\n                /* \"contracts/RewardPool.sol\":1230:1256  userIfWithdraw[msg.sender] */\n              0xffffffffffffffffffffffffffffffffffffffff\n              and\n              0xffffffffffffffffffffffffffffffffffffffff\n              and\n              dup2\n              mstore\n              0x20\n              add\n              swap1\n              dup2\n              mstore\n              0x20\n              add\n              0x00\n              keccak256\n              0x00\n              swap1\n              sload\n              swap1\n              0x0100\n              exp\n              swap1\n              div\n              0xff\n              and\n                /* \"contracts/RewardPool.sol\":1227:1284  if(userIfWithdraw[msg.sender]){revert AlreadyWithdraw();} */\n              iszero\n              tag_31\n              jumpi\n                /* \"contracts/RewardPool.sol\":1265:1282  AlreadyWithdraw() */\n              mload(0x40)\n              0xa727014000000000000000000000000000000000000000000000000000000000\n              dup2\n              mstore\n              0x04\n              add\n              mload(0x40)\n              dup1\n              swap2\n              sub\n              swap1\n              revert\n                /* \"contracts/RewardPool.sol\":1227:1284  if(userIfWithdraw[msg.sender]){revert AlreadyWithdraw();} */\n            tag_31:\n                /* \"contracts/RewardPool.sol\":1391:1403  stableAmount */\n              dup2\n                /* \"contracts/RewardPool.sol\":1380:1390  getTotal() */\n              tag_32\n                /* \"contracts/RewardPool.sol\":1380:1388  getTotal */\n              tag_14\n                /* \"contracts/RewardPool.sol\":1380:1390  getTotal() */\n              jump\t// in\n            tag_32:\n                /* \"contracts/RewardPool.sol\":1359:1379  personlTFERC20Amount */\n              dup3\n                /* \"contracts/RewardPool.sol\":1359:1390  personlTFERC20Amount/getTotal() */\n              tag_33\n              swap2\n              swap1\n              tag_34\n              jump\t// in\n            tag_33:\n                /* \"contracts/RewardPool.sol\":1359:1403  personlTFERC20Amount/getTotal()*stableAmount */\n              tag_35\n              swap2\n              swap1\n              tag_36\n              jump\t// in\n            tag_35:\n                /* \"contracts/RewardPool.sol\":1348:1403  userEarn = personlTFERC20Amount/getTotal()*stableAmount */\n              swap3\n              pop\n                /* \"contracts/RewardPool.sol\":1070:1411  {... */\n              pop\n              pop\n                /* \"contracts/RewardPool.sol\":995:1411  function profit(address stableAddress)public view returns(uint256 userEarn){... */\n              swap2\n              swap1\n              pop\n              jump\t// out\n                /* \"contracts/RewardPool.sol\":1447:1560  function getTotal()public view returns(uint256){... */\n            tag_14:\n                /* \"contracts/RewardPool.sol\":1486:1493  uint256 */\n              0x00\n                /* \"contracts/RewardPool.sol\":1527:1537  timeMarket */\n              dup1\n              0x00\n              swap1\n              sload\n              swap1\n              0x0100\n              exp\n              swap1\n              div\n              0xffffffffffffffffffffffffffffffffffffffff\n              and\n                /* \"contracts/RewardPool.sol\":1512:1550  IERC20Metadata(timeMarket).totalSupply */\n              0xffffffffffffffffffffffffffffffffffffffff\n              and\n              0x18160ddd\n                /* \"contracts/RewardPool.sol\":1512:1552  IERC20Metadata(timeMarket).totalSupply() */\n              mload(0x40)\n              dup2\n              0xffffffff\n              and\n              0xe0\n              shl\n              dup2\n              mstore\n              0x04\n              add\n              0x20\n              mload(0x40)\n              dup1\n              dup4\n              sub\n              dup2\n              dup7\n              gas\n              staticcall\n              iszero\n              dup1\n              iszero\n              tag_39\n              jumpi\n              returndatasize\n              0x00\n              dup1\n              returndatacopy\n              revert(0x00, returndatasize)\n            tag_39:\n              pop\n              pop\n              pop\n              pop\n              mload(0x40)\n              returndatasize\n              not(0x1f)\n              0x1f\n              dup3\n              add\n              and\n              dup3\n              add\n              dup1\n              0x40\n              mstore\n              pop\n              dup2\n              add\n              swap1\n              tag_40\n              swap2\n              swap1\n              tag_29\n              jump\t// in\n            tag_40:\n                /* \"contracts/RewardPool.sol\":1505:1552  return IERC20Metadata(timeMarket).totalSupply() */\n              swap1\n              pop\n                /* \"contracts/RewardPool.sol\":1447:1560  function getTotal()public view returns(uint256){... */\n              swap1\n              jump\t// out\n                /* \"contracts/RewardPool.sol\":1608:1749  function getTFERC20Amount(address userAddress)public view returns(uint256){... */\n            tag_18:\n                /* \"contracts/RewardPool.sol\":1674:1681  uint256 */\n              0x00\n                /* \"contracts/RewardPool.sol\":1707:1717  timeMarket */\n              dup1\n              0x00\n              swap1\n              sload\n              swap1\n              0x0100\n              exp\n              swap1\n              div\n              0xffffffffffffffffffffffffffffffffffffffff\n              and\n                /* \"contracts/RewardPool.sol\":1700:1728  IERC20(timeMarket).balanceOf */\n              0xffffffffffffffffffffffffffffffffffffffff\n              and\n              0x70a08231\n                /* \"contracts/RewardPool.sol\":1729:1740  userAddress */\n              dup4\n                /* \"contracts/RewardPool.sol\":1700:1741  IERC20(timeMarket).balanceOf(userAddress) */\n              mload(0x40)\n              dup3\n              0xffffffff\n              and\n              0xe0\n              shl\n              dup2\n              mstore\n              0x04\n              add\n              tag_42\n              swap2\n              swap1\n              tag_25\n              jump\t// in\n            tag_42:\n              0x20\n              mload(0x40)\n              dup1\n              dup4\n              sub\n              dup2\n              dup7\n              gas\n              staticcall\n              iszero\n              dup1\n              iszero\n              tag_44\n              jumpi\n              returndatasize\n              0x00\n              dup1\n              returndatacopy\n              revert(0x00, returndatasize)\n            tag_44:\n              pop\n              pop\n              pop\n              pop\n              mload(0x40)\n              returndatasize\n              not(0x1f)\n              0x1f\n              dup3\n              add\n              and\n              dup3\n              add\n              dup1\n              0x40\n              mstore\n              pop\n              dup2\n              add\n              swap1\n              tag_45\n              swap2\n              swap1\n              tag_29\n              jump\t// in\n            tag_45:\n                /* \"contracts/RewardPool.sol\":1693:1741  return IERC20(timeMarket).balanceOf(userAddress) */\n              swap1\n              pop\n                /* \"contracts/RewardPool.sol\":1608:1749  function getTFERC20Amount(address userAddress)public view returns(uint256){... */\n              swap2\n              swap1\n              pop\n              jump\t// out\n                /* \"contracts/RewardPool.sol\":485:958  function withdrawReward(address stableAddress)external{... */\n            tag_22:\n                /* \"contracts/RewardPool.sol\":550:578  uint256 personlTFERC20Amount */\n              0x00\n                /* \"contracts/RewardPool.sol\":579:607  getTFERC20Amount(msg.sender) */\n              tag_47\n                /* \"contracts/RewardPool.sol\":596:606  msg.sender */\n              caller\n                /* \"contracts/RewardPool.sol\":579:595  getTFERC20Amount */\n              tag_18\n                /* \"contracts/RewardPool.sol\":579:607  getTFERC20Amount(msg.sender) */\n              jump\t// in\n            tag_47:\n                /* \"contracts/RewardPool.sol\":550:607  uint256 personlTFERC20Amount=getTFERC20Amount(msg.sender) */\n              swap1\n              pop\n                /* \"contracts/RewardPool.sol\":642:643  0 */\n              0x00\n                /* \"contracts/RewardPool.sol\":621:641  personlTFERC20Amount */\n              dup2\n                /* \"contracts/RewardPool.sol\":621:643  personlTFERC20Amount>0 */\n              gt\n                /* \"contracts/RewardPool.sol\":618:665  if(personlTFERC20Amount>0){revert NoTFERC20();} */\n              iszero\n              tag_48\n              jumpi\n                /* \"contracts/RewardPool.sol\":652:663  NoTFERC20() */\n              mload(0x40)\n              0x5695054900000000000000000000000000000000000000000000000000000000\n              dup2\n              mstore\n              0x04\n              add\n              mload(0x40)\n              dup1\n              swap2\n              sub\n              swap1\n              revert\n                /* \"contracts/RewardPool.sol\":618:665  if(personlTFERC20Amount>0){revert NoTFERC20();} */\n            tag_48:\n                /* \"contracts/RewardPool.sol\":675:693  uint256 userProfit */\n              0x00\n                /* \"contracts/RewardPool.sol\":694:715  profit(stableAddress) */\n              tag_49\n                /* \"contracts/RewardPool.sol\":701:714  stableAddress */\n              dup4\n                /* \"contracts/RewardPool.sol\":694:700  profit */\n              tag_10\n                /* \"contracts/RewardPool.sol\":694:715  profit(stableAddress) */\n              jump\t// in\n            tag_49:\n                /* \"contracts/RewardPool.sol\":675:715  uint256 userProfit=profit(stableAddress) */\n              swap1\n              pop\n                /* \"contracts/RewardPool.sol\":776:840  IERC20(timeMarket).safeTransfer(address(0),personlTFERC20Amount) */\n              tag_50\n                /* \"contracts/RewardPool.sol\":816:817  0 */\n              0x00\n                /* \"contracts/RewardPool.sol\":819:839  personlTFERC20Amount */\n              dup4\n                /* \"contracts/RewardPool.sol\":783:793  timeMarket */\n              0x00\n              dup1\n              sload\n              swap1\n              0x0100\n              exp\n              swap1\n              div\n              0xffffffffffffffffffffffffffffffffffffffff\n              and\n                /* \"contracts/RewardPool.sol\":776:807  IERC20(timeMarket).safeTransfer */\n              0xffffffffffffffffffffffffffffffffffffffff\n              and\n              tag_51\n              swap1\n                /* \"contracts/RewardPool.sol\":776:840  IERC20(timeMarket).safeTransfer(address(0),personlTFERC20Amount) */\n              swap3\n              swap2\n              swap1\n              0xffffffff\n              and\n              jump\t// in\n            tag_50:\n                /* \"contracts/RewardPool.sol\":851:908  IERC20(stableAddress).safeTransfer(msg.sender,userProfit) */\n              tag_52\n                /* \"contracts/RewardPool.sol\":886:896  msg.sender */\n              caller\n                /* \"contracts/RewardPool.sol\":897:907  userProfit */\n              dup3\n                /* \"contracts/RewardPool.sol\":858:871  stableAddress */\n              dup6\n                /* \"contracts/RewardPool.sol\":851:885  IERC20(stableAddress).safeTransfer */\n              0xffffffffffffffffffffffffffffffffffffffff\n              and\n              tag_51\n              swap1\n                /* \"contracts/RewardPool.sol\":851:908  IERC20(stableAddress).safeTransfer(msg.sender,userProfit) */\n              swap3\n              swap2\n              swap1\n              0xffffffff\n              and\n              jump\t// in\n            tag_52:\n                /* \"contracts/RewardPool.sol\":946:950  true */\n              0x01\n                /* \"contracts/RewardPool.sol\":919:933  userIfWithdraw */\n              dup1\n                /* \"contracts/RewardPool.sol\":919:945  userIfWithdraw[msg.sender] */\n              0x00\n                /* \"contracts/RewardPool.sol\":934:944  msg.sender */\n              caller\n                /* \"contracts/RewardPool.sol\":919:945  userIfWithdraw[msg.sender] */\n              0xffffffffffffffffffffffffffffffffffffffff\n              and\n              0xffffffffffffffffffffffffffffffffffffffff\n              and\n              dup2\n              mstore\n              0x20\n              add\n              swap1\n              dup2\n              mstore\n              0x20\n              add\n              0x00\n              keccak256\n              0x00\n                /* \"contracts/RewardPool.sol\":919:950  userIfWithdraw[msg.sender]=true */\n              0x0100\n              exp\n              dup2\n              sload\n              dup2\n              0xff\n              mul\n              not\n              and\n              swap1\n              dup4\n              iszero\n              iszero\n              mul\n              or\n              swap1\n              sstore\n              pop\n                /* \"contracts/RewardPool.sol\":539:958  {... */\n              pop\n              pop\n                /* \"contracts/RewardPool.sol\":485:958  function withdrawReward(address stableAddress)external{... */\n              pop\n              jump\t// out\n                /* \"libraries/SafeERC20.sol\":1025:1202  function safeTransfer(IERC20 token, address to, uint256 value) internal {... */\n            tag_51:\n                /* \"libraries/SafeERC20.sol\":1108:1194  _callOptionalReturn(token, abi.encodeWithSelector(token.transfer.selector, to, value)) */\n              tag_54\n                /* \"libraries/SafeERC20.sol\":1128:1133  token */\n              dup4\n                /* \"libraries/SafeERC20.sol\":1158:1181  token.transfer.selector */\n              shl(0xe0, 0xa9059cbb)\n                /* \"libraries/SafeERC20.sol\":1183:1185  to */\n              dup5\n                /* \"libraries/SafeERC20.sol\":1187:1192  value */\n              dup5\n                /* \"libraries/SafeERC20.sol\":1135:1193  abi.encodeWithSelector(token.transfer.selector, to, value) */\n              add(0x24, mload(0x40))\n              tag_55\n              swap3\n              swap2\n              swap1\n              tag_56\n              jump\t// in\n            tag_55:\n              mload(0x40)\n              0x20\n              dup2\n              dup4\n              sub\n              sub\n              dup2\n              mstore\n              swap1\n              0x40\n              mstore\n              swap1\n              not(0xffffffffffffffffffffffffffffffffffffffffffffffffffffffff)\n              and\n              0x20\n              dup3\n              add\n              dup1\n              mload\n              0xffffffffffffffffffffffffffffffffffffffffffffffffffffffff\n              dup4\n              dup2\n              dup4\n              and\n              or\n              dup4\n              mstore\n              pop\n              pop\n              pop\n              pop\n                /* \"libraries/SafeERC20.sol\":1108:1127  _callOptionalReturn */\n              tag_57\n                /* \"libraries/SafeERC20.sol\":1108:1194  _callOptionalReturn(token, abi.encodeWithSelector(token.transfer.selector, to, value)) */\n              jump\t// in\n            tag_54:\n                /* \"libraries/SafeERC20.sol\":1025:1202  function safeTransfer(IERC20 token, address to, uint256 value) internal {... */\n              pop\n              pop\n              pop\n              jump\t// out\n                /* \"libraries/SafeERC20.sol\":5371:6020  function _callOptionalReturn(IERC20 token, bytes memory data) private {... */\n            tag_57:\n                /* \"libraries/SafeERC20.sol\":5795:5818  bytes memory returndata */\n              0x00\n                /* \"libraries/SafeERC20.sol\":5821:5890  address(token).functionCall(data, \"SafeERC20: low-level call failed\") */\n              tag_59\n                /* \"libraries/SafeERC20.sol\":5849:5853  data */\n              dup3\n                /* \"libraries/SafeERC20.sol\":5821:5890  address(token).functionCall(data, \"SafeERC20: low-level call failed\") */\n              mload(0x40)\n              dup1\n              0x40\n              add\n              0x40\n              mstore\n              dup1\n              0x20\n              dup2\n              mstore\n              0x20\n              add\n              0x5361666545524332303a206c6f772d6c6576656c2063616c6c206661696c6564\n              dup2\n              mstore\n              pop\n                /* \"libraries/SafeERC20.sol\":5829:5834  token */\n              dup6\n                /* \"libraries/SafeERC20.sol\":5821:5848  address(token).functionCall */\n              0xffffffffffffffffffffffffffffffffffffffff\n              and\n              tag_60\n              swap1\n                /* \"libraries/SafeERC20.sol\":5821:5890  address(token).functionCall(data, \"SafeERC20: low-level call failed\") */\n              swap3\n              swap2\n              swap1\n              0xffffffff\n              and\n              jump\t// in\n            tag_59:\n                /* \"libraries/SafeERC20.sol\":5795:5890  bytes memory returndata = address(token).functionCall(data, \"SafeERC20: low-level call failed\") */\n              swap1\n              pop\n                /* \"libraries/SafeERC20.sol\":5930:5931  0 */\n              0x00\n                /* \"libraries/SafeERC20.sol\":5909:5919  returndata */\n              dup2\n                /* \"libraries/SafeERC20.sol\":5909:5926  returndata.length */\n              mload\n                /* \"libraries/SafeERC20.sol\":5909:5931  returndata.length == 0 */\n              eq\n                /* \"libraries/SafeERC20.sol\":5909:5965  returndata.length == 0 || abi.decode(returndata, (bool)) */\n              dup1\n              tag_61\n              jumpi\n              pop\n                /* \"libraries/SafeERC20.sol\":5946:5956  returndata */\n              dup1\n                /* \"libraries/SafeERC20.sol\":5935:5965  abi.decode(returndata, (bool)) */\n              dup1\n              0x20\n              add\n              swap1\n              mload\n              dup2\n              add\n              swap1\n              tag_62\n              swap2\n              swap1\n              tag_63\n              jump\t// in\n            tag_62:\n                /* \"libraries/SafeERC20.sol\":5909:5965  returndata.length == 0 || abi.decode(returndata, (bool)) */\n            tag_61:\n                /* \"libraries/SafeERC20.sol\":5901:6012  require(returndata.length == 0 || abi.decode(returndata, (bool)), \"SafeERC20: ERC20 operation did not succeed\") */\n              tag_64\n              jumpi\n              mload(0x40)\n              0x08c379a000000000000000000000000000000000000000000000000000000000\n              dup2\n              mstore\n              0x04\n              add\n              tag_65\n              swap1\n              tag_66\n              jump\t// in\n            tag_65:\n              mload(0x40)\n              dup1\n              swap2\n              sub\n              swap1\n              revert\n            tag_64:\n                /* \"libraries/SafeERC20.sol\":5441:6020  {... */\n              pop\n                /* \"libraries/SafeERC20.sol\":5371:6020  function _callOptionalReturn(IERC20 token, bytes memory data) private {... */\n              pop\n              pop\n              jump\t// out\n                /* \"libraries/Address.sol\":4207:4436  function functionCall(... */\n            tag_60:\n                /* \"libraries/Address.sol\":4344:4356  bytes memory */\n              0x60\n                /* \"libraries/Address.sol\":4376:4428  functionCallWithValue(target, data, 0, errorMessage) */\n              tag_68\n                /* \"libraries/Address.sol\":4398:4404  target */\n              dup5\n                /* \"libraries/Address.sol\":4406:4410  data */\n              dup5\n                /* \"libraries/Address.sol\":4412:4413  0 */\n              0x00\n                /* \"libraries/Address.sol\":4415:4427  errorMessage */\n              dup6\n                /* \"libraries/Address.sol\":4376:4397  functionCallWithValue */\n              tag_69\n                /* \"libraries/Address.sol\":4376:4428  functionCallWithValue(target, data, 0, errorMessage) */\n              jump\t// in\n            tag_68:\n                /* \"libraries/Address.sol\":4369:4428  return functionCallWithValue(target, data, 0, errorMessage) */\n              swap1\n              pop\n                /* \"libraries/Address.sol\":4207:4436  function functionCall(... */\n              swap4\n              swap3\n              pop\n              pop\n              pop\n              jump\t// out\n                /* \"libraries/Address.sol\":5293:5748  function functionCallWithValue(... */\n            tag_69:\n                /* \"libraries/Address.sol\":5463:5475  bytes memory */\n              0x60\n                /* \"libraries/Address.sol\":5521:5526  value */\n              dup3\n                /* \"libraries/Address.sol\":5496:5517  address(this).balance */\n              selfbalance\n                /* \"libraries/Address.sol\":5496:5526  address(this).balance >= value */\n              lt\n              iszero\n                /* \"libraries/Address.sol\":5488:5569  require(address(this).balance >= value, \"Address: insufficient balance for call\") */\n              tag_71\n              jumpi\n              mload(0x40)\n              0x08c379a000000000000000000000000000000000000000000000000000000000\n              dup2\n              mstore\n              0x04\n              add\n              tag_72\n              swap1\n              tag_73\n              jump\t// in\n            tag_72:\n              mload(0x40)\n              dup1\n              swap2\n              sub\n              swap1\n              revert\n            tag_71:\n                /* \"libraries/Address.sol\":5581:5593  bool success */\n              0x00\n                /* \"libraries/Address.sol\":5595:5618  bytes memory returndata */\n              dup1\n                /* \"libraries/Address.sol\":5622:5628  target */\n              dup7\n                /* \"libraries/Address.sol\":5622:5633  target.call */\n              0xffffffffffffffffffffffffffffffffffffffff\n              and\n                /* \"libraries/Address.sol\":5641:5646  value */\n              dup6\n                /* \"libraries/Address.sol\":5648:5652  data */\n              dup8\n                /* \"libraries/Address.sol\":5622:5653  target.call{value: value}(data) */\n              mload(0x40)\n              tag_74\n              swap2\n              swap1\n              tag_75\n              jump\t// in\n            tag_74:\n              0x00\n              mload(0x40)\n              dup1\n              dup4\n              sub\n              dup2\n              dup6\n              dup8\n              gas\n              call\n              swap3\n              pop\n              pop\n              pop\n              returndatasize\n              dup1\n              0x00\n              dup2\n              eq\n              tag_78\n              jumpi\n              mload(0x40)\n              swap2\n              pop\n              and(add(returndatasize, 0x3f), not(0x1f))\n              dup3\n              add\n              0x40\n              mstore\n              returndatasize\n              dup3\n              mstore\n              returndatasize\n              0x00\n              0x20\n              dup5\n              add\n              returndatacopy\n              jump(tag_77)\n            tag_78:\n              0x60\n              swap2\n              pop\n            tag_77:\n              pop\n                /* \"libraries/Address.sol\":5580:5653  (bool success, bytes memory returndata) = target.call{value: value}(data) */\n              swap2\n              pop\n              swap2\n              pop\n                /* \"libraries/Address.sol\":5671:5740  verifyCallResultFromTarget(target, success, returndata, errorMessage) */\n              tag_79\n                /* \"libraries/Address.sol\":5698:5704  target */\n              dup8\n                /* \"libraries/Address.sol\":5706:5713  success */\n              dup4\n                /* \"libraries/Address.sol\":5715:5725  returndata */\n              dup4\n                /* \"libraries/Address.sol\":5727:5739  errorMessage */\n              dup8\n                /* \"libraries/Address.sol\":5671:5697  verifyCallResultFromTarget */\n              tag_80\n                /* \"libraries/Address.sol\":5671:5740  verifyCallResultFromTarget(target, success, returndata, errorMessage) */\n              jump\t// in\n            tag_79:\n                /* \"libraries/Address.sol\":5664:5740  return verifyCallResultFromTarget(target, success, returndata, errorMessage) */\n              swap3\n              pop\n              pop\n              pop\n                /* \"libraries/Address.sol\":5293:5748  function functionCallWithValue(... */\n              swap5\n              swap4\n              pop\n              pop\n              pop\n              pop\n              jump\t// out\n                /* \"libraries/Address.sol\":7866:8510  function verifyCallResultFromTarget(... */\n            tag_80:\n                /* \"libraries/Address.sol\":8051:8063  bytes memory */\n              0x60\n                /* \"libraries/Address.sol\":8080:8087  success */\n              dup4\n                /* \"libraries/Address.sol\":8076:8503  if (success) {... */\n              iszero\n              tag_82\n              jumpi\n                /* \"libraries/Address.sol\":8129:8130  0 */\n              0x00\n                /* \"libraries/Address.sol\":8108:8118  returndata */\n              dup4\n                /* \"libraries/Address.sol\":8108:8125  returndata.length */\n              mload\n                /* \"libraries/Address.sol\":8108:8130  returndata.length == 0 */\n              sub\n                /* \"libraries/Address.sol\":8104:8394  if (returndata.length == 0) {... */\n              tag_83\n              jumpi\n                /* \"libraries/Address.sol\":8326:8344  isContract(target) */\n              tag_84\n                /* \"libraries/Address.sol\":8337:8343  target */\n              dup6\n                /* \"libraries/Address.sol\":8326:8336  isContract */\n              tag_85\n                /* \"libraries/Address.sol\":8326:8344  isContract(target) */\n              jump\t// in\n            tag_84:\n                /* \"libraries/Address.sol\":8318:8378  require(isContract(target), \"Address: call to non-contract\") */\n              tag_86\n              jumpi\n              mload(0x40)\n              0x08c379a000000000000000000000000000000000000000000000000000000000\n              dup2\n              mstore\n              0x04\n              add\n              tag_87\n              swap1\n              tag_88\n              jump\t// in\n            tag_87:\n              mload(0x40)\n              dup1\n              swap2\n              sub\n              swap1\n              revert\n            tag_86:\n                /* \"libraries/Address.sol\":8104:8394  if (returndata.length == 0) {... */\n            tag_83:\n                /* \"libraries/Address.sol\":8415:8425  returndata */\n              dup3\n                /* \"libraries/Address.sol\":8408:8425  return returndata */\n              swap1\n              pop\n              jump(tag_81)\n                /* \"libraries/Address.sol\":8076:8503  if (success) {... */\n            tag_82:\n                /* \"libraries/Address.sol\":8458:8491  _revert(returndata, errorMessage) */\n              tag_90\n                /* \"libraries/Address.sol\":8466:8476  returndata */\n              dup4\n                /* \"libraries/Address.sol\":8478:8490  errorMessage */\n              dup4\n                /* \"libraries/Address.sol\":8458:8465  _revert */\n              tag_91\n                /* \"libraries/Address.sol\":8458:8491  _revert(returndata, errorMessage) */\n              jump\t// in\n            tag_90:\n                /* \"libraries/Address.sol\":7866:8510  function verifyCallResultFromTarget(... */\n            tag_81:\n              swap5\n              swap4\n              pop\n              pop\n              pop\n              pop\n              jump\t// out\n                /* \"libraries/Address.sol\":1452:1778  function isContract(address account) internal view returns (bool) {... */\n            tag_85:\n                /* \"libraries/Address.sol\":1512:1516  bool */\n              0x00\n                /* \"libraries/Address.sol\":1769:1770  0 */\n              dup1\n                /* \"libraries/Address.sol\":1747:1754  account */\n              dup3\n                /* \"libraries/Address.sol\":1747:1766  account.code.length */\n              0xffffffffffffffffffffffffffffffffffffffff\n              and\n              extcodesize\n                /* \"libraries/Address.sol\":1747:1770  account.code.length > 0 */\n              gt\n                /* \"libraries/Address.sol\":1740:1770  return account.code.length > 0 */\n              swap1\n              pop\n                /* \"libraries/Address.sol\":1452:1778  function isContract(address account) internal view returns (bool) {... */\n              swap2\n              swap1\n              pop\n              jump\t// out\n                /* \"libraries/Address.sol\":9052:9604  function _revert(bytes memory returndata, string memory errorMessage) private pure {... */\n            tag_91:\n                /* \"libraries/Address.sol\":9233:9234  0 */\n              0x00\n                /* \"libraries/Address.sol\":9213:9223  returndata */\n              dup3\n                /* \"libraries/Address.sol\":9213:9230  returndata.length */\n              mload\n                /* \"libraries/Address.sol\":9213:9234  returndata.length > 0 */\n              gt\n                /* \"libraries/Address.sol\":9209:9597  if (returndata.length > 0) {... */\n              iszero\n              tag_94\n              jumpi\n                /* \"libraries/Address.sol\":9445:9455  returndata */\n              dup2\n                /* \"libraries/Address.sol\":9439:9456  mload(returndata) */\n              mload\n                /* \"libraries/Address.sol\":9502:9517  returndata_size */\n              dup1\n                /* \"libraries/Address.sol\":9489:9499  returndata */\n              dup4\n                /* \"libraries/Address.sol\":9485:9487  32 */\n              0x20\n                /* \"libraries/Address.sol\":9481:9500  add(32, returndata) */\n              add\n                /* \"libraries/Address.sol\":9474:9518  revert(add(32, returndata), returndata_size) */\n              revert\n                /* \"libraries/Address.sol\":9209:9597  if (returndata.length > 0) {... */\n            tag_94:\n                /* \"libraries/Address.sol\":9572:9584  errorMessage */\n              dup1\n                /* \"libraries/Address.sol\":9565:9585  revert(errorMessage) */\n              mload(0x40)\n              0x08c379a000000000000000000000000000000000000000000000000000000000\n              dup2\n              mstore\n              0x04\n              add\n              tag_96\n              swap2\n              swap1\n              tag_97\n              jump\t// in\n            tag_96:\n              mload(0x40)\n              dup1\n              swap2\n              sub\n              swap1\n              revert\n                /* \"#utility.yul\":88:205   */\n            tag_99:\n                /* \"#utility.yul\":197:198   */\n              0x00\n                /* \"#utility.yul\":194:195   */\n              dup1\n                /* \"#utility.yul\":187:199   */\n              revert\n                /* \"#utility.yul\":334:460   */\n            tag_101:\n                /* \"#utility.yul\":371:378   */\n              0x00\n                /* \"#utility.yul\":411:453   */\n              0xffffffffffffffffffffffffffffffffffffffff\n                /* \"#utility.yul\":404:409   */\n              dup3\n                /* \"#utility.yul\":400:454   */\n              and\n                /* \"#utility.yul\":389:454   */\n              swap1\n              pop\n                /* \"#utility.yul\":334:460   */\n              swap2\n              swap1\n              pop\n              jump\t// out\n                /* \"#utility.yul\":466:562   */\n            tag_102:\n                /* \"#utility.yul\":503:510   */\n              0x00\n                /* \"#utility.yul\":532:556   */\n              tag_135\n                /* \"#utility.yul\":550:555   */\n              dup3\n                /* \"#utility.yul\":532:556   */\n              tag_101\n              jump\t// in\n            tag_135:\n                /* \"#utility.yul\":521:556   */\n              swap1\n              pop\n                /* \"#utility.yul\":466:562   */\n              swap2\n              swap1\n              pop\n              jump\t// out\n                /* \"#utility.yul\":568:690   */\n            tag_103:\n                /* \"#utility.yul\":641:665   */\n              tag_137\n                /* \"#utility.yul\":659:664   */\n              dup2\n                /* \"#utility.yul\":641:665   */\n              tag_102\n              jump\t// in\n            tag_137:\n                /* \"#utility.yul\":634:639   */\n              dup2\n                /* \"#utility.yul\":631:666   */\n              eq\n                /* \"#utility.yul\":621:684   */\n              tag_138\n              jumpi\n                /* \"#utility.yul\":680:681   */\n              0x00\n                /* \"#utility.yul\":677:678   */\n              dup1\n                /* \"#utility.yul\":670:682   */\n              revert\n                /* \"#utility.yul\":621:684   */\n            tag_138:\n                /* \"#utility.yul\":568:690   */\n              pop\n              jump\t// out\n                /* \"#utility.yul\":696:835   */\n            tag_104:\n                /* \"#utility.yul\":742:747   */\n              0x00\n                /* \"#utility.yul\":780:786   */\n              dup2\n                /* \"#utility.yul\":767:787   */\n              calldataload\n                /* \"#utility.yul\":758:787   */\n              swap1\n              pop\n                /* \"#utility.yul\":796:829   */\n              tag_140\n                /* \"#utility.yul\":823:828   */\n              dup2\n                /* \"#utility.yul\":796:829   */\n              tag_103\n              jump\t// in\n            tag_140:\n                /* \"#utility.yul\":696:835   */\n              swap3\n              swap2\n              pop\n              pop\n              jump\t// out\n                /* \"#utility.yul\":841:1170   */\n            tag_9:\n                /* \"#utility.yul\":900:906   */\n              0x00\n                /* \"#utility.yul\":949:951   */\n              0x20\n                /* \"#utility.yul\":937:946   */\n              dup3\n                /* \"#utility.yul\":928:935   */\n              dup5\n                /* \"#utility.yul\":924:947   */\n              sub\n                /* \"#utility.yul\":920:952   */\n              slt\n                /* \"#utility.yul\":917:1036   */\n              iszero\n              tag_142\n              jumpi\n                /* \"#utility.yul\":955:1034   */\n              tag_143\n              tag_99\n              jump\t// in\n            tag_143:\n                /* \"#utility.yul\":917:1036   */\n            tag_142:\n                /* \"#utility.yul\":1075:1076   */\n              0x00\n                /* \"#utility.yul\":1100:1153   */\n              tag_144\n                /* \"#utility.yul\":1145:1152   */\n              dup5\n                /* \"#utility.yul\":1136:1142   */\n              dup3\n                /* \"#utility.yul\":1125:1134   */\n              dup6\n                /* \"#utility.yul\":1121:1143   */\n              add\n                /* \"#utility.yul\":1100:1153   */\n              tag_104\n              jump\t// in\n            tag_144:\n                /* \"#utility.yul\":1090:1153   */\n              swap2\n              pop\n                /* \"#utility.yul\":1046:1163   */\n              pop\n                /* \"#utility.yul\":841:1170   */\n              swap3\n              swap2\n              pop\n              pop\n              jump\t// out\n                /* \"#utility.yul\":1176:1253   */\n            tag_105:\n                /* \"#utility.yul\":1213:1220   */\n              0x00\n                /* \"#utility.yul\":1242:1247   */\n              dup2\n                /* \"#utility.yul\":1231:1247   */\n              swap1\n              pop\n                /* \"#utility.yul\":1176:1253   */\n              swap2\n              swap1\n              pop\n              jump\t// out\n                /* \"#utility.yul\":1259:1377   */\n            tag_106:\n                /* \"#utility.yul\":1346:1370   */\n              tag_147\n                /* \"#utility.yul\":1364:1369   */\n              dup2\n                /* \"#utility.yul\":1346:1370   */\n              tag_105\n              jump\t// in\n            tag_147:\n                /* \"#utility.yul\":1341:1344   */\n              dup3\n                /* \"#utility.yul\":1334:1371   */\n              mstore\n                /* \"#utility.yul\":1259:1377   */\n              pop\n              pop\n              jump\t// out\n                /* \"#utility.yul\":1383:1605   */\n            tag_12:\n                /* \"#utility.yul\":1476:1480   */\n              0x00\n                /* \"#utility.yul\":1514:1516   */\n              0x20\n                /* \"#utility.yul\":1503:1512   */\n              dup3\n                /* \"#utility.yul\":1499:1517   */\n              add\n                /* \"#utility.yul\":1491:1517   */\n              swap1\n              pop\n                /* \"#utility.yul\":1527:1598   */\n              tag_149\n                /* \"#utility.yul\":1595:1596   */\n              0x00\n                /* \"#utility.yul\":1584:1593   */\n              dup4\n                /* \"#utility.yul\":1580:1597   */\n              add\n                /* \"#utility.yul\":1571:1577   */\n              dup5\n                /* \"#utility.yul\":1527:1598   */\n              tag_106\n              jump\t// in\n            tag_149:\n                /* \"#utility.yul\":1383:1605   */\n              swap3\n              swap2\n              pop\n              pop\n              jump\t// out\n                /* \"#utility.yul\":1611:1729   */\n            tag_107:\n                /* \"#utility.yul\":1698:1722   */\n              tag_151\n                /* \"#utility.yul\":1716:1721   */\n              dup2\n                /* \"#utility.yul\":1698:1722   */\n              tag_102\n              jump\t// in\n            tag_151:\n                /* \"#utility.yul\":1693:1696   */\n              dup3\n                /* \"#utility.yul\":1686:1723   */\n              mstore\n                /* \"#utility.yul\":1611:1729   */\n              pop\n              pop\n              jump\t// out\n                /* \"#utility.yul\":1735:1957   */\n            tag_25:\n                /* \"#utility.yul\":1828:1832   */\n              0x00\n                /* \"#utility.yul\":1866:1868   */\n              0x20\n                /* \"#utility.yul\":1855:1864   */\n              dup3\n                /* \"#utility.yul\":1851:1869   */\n              add\n                /* \"#utility.yul\":1843:1869   */\n              swap1\n              pop\n                /* \"#utility.yul\":1879:1950   */\n              tag_153\n                /* \"#utility.yul\":1947:1948   */\n              0x00\n                /* \"#utility.yul\":1936:1945   */\n              dup4\n                /* \"#utility.yul\":1932:1949   */\n              add\n                /* \"#utility.yul\":1923:1929   */\n              dup5\n                /* \"#utility.yul\":1879:1950   */\n              tag_107\n              jump\t// in\n            tag_153:\n                /* \"#utility.yul\":1735:1957   */\n              swap3\n              swap2\n              pop\n              pop\n              jump\t// out\n                /* \"#utility.yul\":1963:2085   */\n            tag_108:\n                /* \"#utility.yul\":2036:2060   */\n              tag_155\n                /* \"#utility.yul\":2054:2059   */\n              dup2\n                /* \"#utility.yul\":2036:2060   */\n              tag_105\n              jump\t// in\n            tag_155:\n                /* \"#utility.yul\":2029:2034   */\n              dup2\n                /* \"#utility.yul\":2026:2061   */\n              eq\n                /* \"#utility.yul\":2016:2079   */\n              tag_156\n              jumpi\n                /* \"#utility.yul\":2075:2076   */\n              0x00\n                /* \"#utility.yul\":2072:2073   */\n              dup1\n                /* \"#utility.yul\":2065:2077   */\n              revert\n                /* \"#utility.yul\":2016:2079   */\n            tag_156:\n                /* \"#utility.yul\":1963:2085   */\n              pop\n              jump\t// out\n                /* \"#utility.yul\":2091:2234   */\n            tag_109:\n                /* \"#utility.yul\":2148:2153   */\n              0x00\n                /* \"#utility.yul\":2179:2185   */\n              dup2\n                /* \"#utility.yul\":2173:2186   */\n              mload\n                /* \"#utility.yul\":2164:2186   */\n              swap1\n              pop\n                /* \"#utility.yul\":2195:2228   */\n              tag_158\n                /* \"#utility.yul\":2222:2227   */\n              dup2\n                /* \"#utility.yul\":2195:2228   */\n              tag_108\n              jump\t// in\n            tag_158:\n                /* \"#utility.yul\":2091:2234   */\n              swap3\n              swap2\n              pop\n              pop\n              jump\t// out\n                /* \"#utility.yul\":2240:2591   */\n            tag_29:\n                /* \"#utility.yul\":2310:2316   */\n              0x00\n                /* \"#utility.yul\":2359:2361   */\n              0x20\n                /* \"#utility.yul\":2347:2356   */\n              dup3\n                /* \"#utility.yul\":2338:2345   */\n              dup5\n                /* \"#utility.yul\":2334:2357   */\n              sub\n                /* \"#utility.yul\":2330:2362   */\n              slt\n                /* \"#utility.yul\":2327:2446   */\n              iszero\n              tag_160\n              jumpi\n                /* \"#utility.yul\":2365:2444   */\n              tag_161\n              tag_99\n              jump\t// in\n            tag_161:\n                /* \"#utility.yul\":2327:2446   */\n            tag_160:\n                /* \"#utility.yul\":2485:2486   */\n              0x00\n                /* \"#utility.yul\":2510:2574   */\n              tag_162\n                /* \"#utility.yul\":2566:2573   */\n              dup5\n                /* \"#utility.yul\":2557:2563   */\n              dup3\n                /* \"#utility.yul\":2546:2555   */\n              dup6\n                /* \"#utility.yul\":2542:2564   */\n              add\n                /* \"#utility.yul\":2510:2574   */\n              tag_109\n              jump\t// in\n            tag_162:\n                /* \"#utility.yul\":2500:2574   */\n              swap2\n              pop\n                /* \"#utility.yul\":2456:2584   */\n              pop\n                /* \"#utility.yul\":2240:2591   */\n              swap3\n              swap2\n              pop\n              pop\n              jump\t// out\n                /* \"#utility.yul\":2597:2777   */\n            tag_110:\n                /* \"#utility.yul\":2645:2722   */\n              0x4e487b7100000000000000000000000000000000000000000000000000000000\n                /* \"#utility.yul\":2642:2643   */\n              0x00\n                /* \"#utility.yul\":2635:2723   */\n              mstore\n                /* \"#utility.yul\":2742:2746   */\n              0x12\n                /* \"#utility.yul\":2739:2740   */\n              0x04\n                /* \"#utility.yul\":2732:2747   */\n              mstore\n                /* \"#utility.yul\":2766:2770   */\n              0x24\n                /* \"#utility.yul\":2763:2764   */\n              0x00\n                /* \"#utility.yul\":2756:2771   */\n              revert\n                /* \"#utility.yul\":2783:2963   */\n            tag_111:\n                /* \"#utility.yul\":2831:2908   */\n              0x4e487b7100000000000000000000000000000000000000000000000000000000\n                /* \"#utility.yul\":2828:2829   */\n              0x00\n                /* \"#utility.yul\":2821:2909   */\n              mstore\n                /* \"#utility.yul\":2928:2932   */\n              0x11\n                /* \"#utility.yul\":2925:2926   */\n              0x04\n                /* \"#utility.yul\":2918:2933   */\n              mstore\n                /* \"#utility.yul\":2952:2956   */\n              0x24\n                /* \"#utility.yul\":2949:2950   */\n              0x00\n                /* \"#utility.yul\":2942:2957   */\n              revert\n                /* \"#utility.yul\":2969:3154   */\n            tag_34:\n                /* \"#utility.yul\":3009:3010   */\n              0x00\n                /* \"#utility.yul\":3026:3046   */\n              tag_166\n                /* \"#utility.yul\":3044:3045   */\n              dup3\n                /* \"#utility.yul\":3026:3046   */\n              tag_105\n              jump\t// in\n            tag_166:\n                /* \"#utility.yul\":3021:3046   */\n              swap2\n              pop\n                /* \"#utility.yul\":3060:3080   */\n              tag_167\n                /* \"#utility.yul\":3078:3079   */\n              dup4\n                /* \"#utility.yul\":3060:3080   */\n              tag_105\n              jump\t// in\n            tag_167:\n                /* \"#utility.yul\":3055:3080   */\n              swap3\n              pop\n                /* \"#utility.yul\":3099:3100   */\n              dup3\n                /* \"#utility.yul\":3089:3124   */\n              tag_168\n              jumpi\n                /* \"#utility.yul\":3104:3122   */\n              tag_169\n              tag_110\n              jump\t// in\n            tag_169:\n                /* \"#utility.yul\":3089:3124   */\n            tag_168:\n                /* \"#utility.yul\":3146:3147   */\n              dup3\n                /* \"#utility.yul\":3143:3144   */\n              dup3\n                /* \"#utility.yul\":3139:3148   */\n              div\n                /* \"#utility.yul\":3134:3148   */\n              swap1\n              pop\n                /* \"#utility.yul\":2969:3154   */\n              swap3\n              swap2\n              pop\n              pop\n              jump\t// out\n                /* \"#utility.yul\":3160:3570   */\n            tag_36:\n                /* \"#utility.yul\":3200:3207   */\n              0x00\n                /* \"#utility.yul\":3223:3243   */\n              tag_171\n                /* \"#utility.yul\":3241:3242   */\n              dup3\n                /* \"#utility.yul\":3223:3243   */\n              tag_105\n              jump\t// in\n            tag_171:\n                /* \"#utility.yul\":3218:3243   */\n              swap2\n              pop\n                /* \"#utility.yul\":3257:3277   */\n              tag_172\n                /* \"#utility.yul\":3275:3276   */\n              dup4\n                /* \"#utility.yul\":3257:3277   */\n              tag_105\n              jump\t// in\n            tag_172:\n                /* \"#utility.yul\":3252:3277   */\n              swap3\n              pop\n                /* \"#utility.yul\":3312:3313   */\n              dup3\n                /* \"#utility.yul\":3309:3310   */\n              dup3\n                /* \"#utility.yul\":3305:3314   */\n              mul\n                /* \"#utility.yul\":3334:3364   */\n              tag_173\n                /* \"#utility.yul\":3352:3363   */\n              dup2\n                /* \"#utility.yul\":3334:3364   */\n              tag_105\n              jump\t// in\n            tag_173:\n                /* \"#utility.yul\":3323:3364   */\n              swap2\n              pop\n                /* \"#utility.yul\":3513:3514   */\n              dup3\n                /* \"#utility.yul\":3504:3511   */\n              dup3\n                /* \"#utility.yul\":3500:3515   */\n              div\n                /* \"#utility.yul\":3497:3498   */\n              dup5\n                /* \"#utility.yul\":3494:3516   */\n              eq\n                /* \"#utility.yul\":3474:3475   */\n              dup4\n                /* \"#utility.yul\":3467:3476   */\n              iszero\n                /* \"#utility.yul\":3447:3530   */\n              or\n                /* \"#utility.yul\":3424:3563   */\n              tag_174\n              jumpi\n                /* \"#utility.yul\":3543:3561   */\n              tag_175\n              tag_111\n              jump\t// in\n            tag_175:\n                /* \"#utility.yul\":3424:3563   */\n            tag_174:\n                /* \"#utility.yul\":3208:3570   */\n              pop\n                /* \"#utility.yul\":3160:3570   */\n              swap3\n              swap2\n              pop\n              pop\n              jump\t// out\n                /* \"#utility.yul\":3576:3908   */\n            tag_56:\n                /* \"#utility.yul\":3697:3701   */\n              0x00\n                /* \"#utility.yul\":3735:3737   */\n              0x40\n                /* \"#utility.yul\":3724:3733   */\n              dup3\n                /* \"#utility.yul\":3720:3738   */\n              add\n                /* \"#utility.yul\":3712:3738   */\n              swap1\n              pop\n                /* \"#utility.yul\":3748:3819   */\n              tag_177\n                /* \"#utility.yul\":3816:3817   */\n              0x00\n                /* \"#utility.yul\":3805:3814   */\n              dup4\n                /* \"#utility.yul\":3801:3818   */\n              add\n                /* \"#utility.yul\":3792:3798   */\n              dup6\n                /* \"#utility.yul\":3748:3819   */\n              tag_107\n              jump\t// in\n            tag_177:\n                /* \"#utility.yul\":3829:3901   */\n              tag_178\n                /* \"#utility.yul\":3897:3899   */\n              0x20\n                /* \"#utility.yul\":3886:3895   */\n              dup4\n                /* \"#utility.yul\":3882:3900   */\n              add\n                /* \"#utility.yul\":3873:3879   */\n              dup5\n                /* \"#utility.yul\":3829:3901   */\n              tag_106\n              jump\t// in\n            tag_178:\n                /* \"#utility.yul\":3576:3908   */\n              swap4\n              swap3\n              pop\n              pop\n              pop\n              jump\t// out\n                /* \"#utility.yul\":3914:4004   */\n            tag_112:\n                /* \"#utility.yul\":3948:3955   */\n              0x00\n                /* \"#utility.yul\":3991:3996   */\n              dup2\n                /* \"#utility.yul\":3984:3997   */\n              iszero\n                /* \"#utility.yul\":3977:3998   */\n              iszero\n                /* \"#utility.yul\":3966:3998   */\n              swap1\n              pop\n                /* \"#utility.yul\":3914:4004   */\n              swap2\n              swap1\n              pop\n              jump\t// out\n                /* \"#utility.yul\":4010:4126   */\n            tag_113:\n                /* \"#utility.yul\":4080:4101   */\n              tag_181\n                /* \"#utility.yul\":4095:4100   */\n              dup2\n                /* \"#utility.yul\":4080:4101   */\n              tag_112\n              jump\t// in\n            tag_181:\n                /* \"#utility.yul\":4073:4078   */\n              dup2\n                /* \"#utility.yul\":4070:4102   */\n              eq\n                /* \"#utility.yul\":4060:4120   */\n              tag_182\n              jumpi\n                /* \"#utility.yul\":4116:4117   */\n              0x00\n                /* \"#utility.yul\":4113:4114   */\n              dup1\n                /* \"#utility.yul\":4106:4118   */\n              revert\n                /* \"#utility.yul\":4060:4120   */\n            tag_182:\n                /* \"#utility.yul\":4010:4126   */\n              pop\n              jump\t// out\n                /* \"#utility.yul\":4132:4269   */\n            tag_114:\n                /* \"#utility.yul\":4186:4191   */\n              0x00\n                /* \"#utility.yul\":4217:4223   */\n              dup2\n                /* \"#utility.yul\":4211:4224   */\n              mload\n                /* \"#utility.yul\":4202:4224   */\n              swap1\n              pop\n                /* \"#utility.yul\":4233:4263   */\n              tag_184\n                /* \"#utility.yul\":4257:4262   */\n              dup2\n                /* \"#utility.yul\":4233:4263   */\n              tag_113\n              jump\t// in\n            tag_184:\n                /* \"#utility.yul\":4132:4269   */\n              swap3\n              swap2\n              pop\n              pop\n              jump\t// out\n                /* \"#utility.yul\":4275:4620   */\n            tag_63:\n                /* \"#utility.yul\":4342:4348   */\n              0x00\n                /* \"#utility.yul\":4391:4393   */\n              0x20\n                /* \"#utility.yul\":4379:4388   */\n              dup3\n                /* \"#utility.yul\":4370:4377   */\n              dup5\n                /* \"#utility.yul\":4366:4389   */\n              sub\n                /* \"#utility.yul\":4362:4394   */\n              slt\n                /* \"#utility.yul\":4359:4478   */\n              iszero\n              tag_186\n              jumpi\n                /* \"#utility.yul\":4397:4476   */\n              tag_187\n              tag_99\n              jump\t// in\n            tag_187:\n                /* \"#utility.yul\":4359:4478   */\n            tag_186:\n                /* \"#utility.yul\":4517:4518   */\n              0x00\n                /* \"#utility.yul\":4542:4603   */\n              tag_188\n                /* \"#utility.yul\":4595:4602   */\n              dup5\n                /* \"#utility.yul\":4586:4592   */\n              dup3\n                /* \"#utility.yul\":4575:4584   */\n              dup6\n                /* \"#utility.yul\":4571:4593   */\n              add\n                /* \"#utility.yul\":4542:4603   */\n              tag_114\n              jump\t// in\n            tag_188:\n                /* \"#utility.yul\":4532:4603   */\n              swap2\n              pop\n                /* \"#utility.yul\":4488:4613   */\n              pop\n                /* \"#utility.yul\":4275:4620   */\n              swap3\n              swap2\n              pop\n              pop\n              jump\t// out\n                /* \"#utility.yul\":4626:4795   */\n            tag_115:\n                /* \"#utility.yul\":4710:4721   */\n              0x00\n                /* \"#utility.yul\":4744:4750   */\n              dup3\n                /* \"#utility.yul\":4739:4742   */\n              dup3\n                /* \"#utility.yul\":4732:4751   */\n              mstore\n                /* \"#utility.yul\":4784:4788   */\n              0x20\n                /* \"#utility.yul\":4779:4782   */\n              dup3\n                /* \"#utility.yul\":4775:4789   */\n              add\n                /* \"#utility.yul\":4760:4789   */\n              swap1\n              pop\n                /* \"#utility.yul\":4626:4795   */\n              swap3\n              swap2\n              pop\n              pop\n              jump\t// out\n                /* \"#utility.yul\":4801:5030   */\n            tag_116:\n                /* \"#utility.yul\":4941:4975   */\n              0x5361666545524332303a204552433230206f7065726174696f6e20646964206e\n                /* \"#utility.yul\":4937:4938   */\n              0x00\n                /* \"#utility.yul\":4929:4935   */\n              dup3\n                /* \"#utility.yul\":4925:4939   */\n              add\n                /* \"#utility.yul\":4918:4976   */\n              mstore\n                /* \"#utility.yul\":5010:5022   */\n              0x6f74207375636365656400000000000000000000000000000000000000000000\n                /* \"#utility.yul\":5005:5007   */\n              0x20\n                /* \"#utility.yul\":4997:5003   */\n              dup3\n                /* \"#utility.yul\":4993:5008   */\n              add\n                /* \"#utility.yul\":4986:5023   */\n              mstore\n                /* \"#utility.yul\":4801:5030   */\n              pop\n              jump\t// out\n                /* \"#utility.yul\":5036:5402   */\n            tag_117:\n                /* \"#utility.yul\":5178:5181   */\n              0x00\n                /* \"#utility.yul\":5199:5266   */\n              tag_192\n                /* \"#utility.yul\":5263:5265   */\n              0x2a\n                /* \"#utility.yul\":5258:5261   */\n              dup4\n                /* \"#utility.yul\":5199:5266   */\n              tag_115\n              jump\t// in\n            tag_192:\n                /* \"#utility.yul\":5192:5266   */\n              swap2\n              pop\n                /* \"#utility.yul\":5275:5368   */\n              tag_193\n                /* \"#utility.yul\":5364:5367   */\n              dup3\n                /* \"#utility.yul\":5275:5368   */\n              tag_116\n              jump\t// in\n            tag_193:\n                /* \"#utility.yul\":5393:5395   */\n              0x40\n                /* \"#utility.yul\":5388:5391   */\n              dup3\n                /* \"#utility.yul\":5384:5396   */\n              add\n                /* \"#utility.yul\":5377:5396   */\n              swap1\n              pop\n                /* \"#utility.yul\":5036:5402   */\n              swap2\n              swap1\n              pop\n              jump\t// out\n                /* \"#utility.yul\":5408:5827   */\n            tag_66:\n                /* \"#utility.yul\":5574:5578   */\n              0x00\n                /* \"#utility.yul\":5612:5614   */\n              0x20\n                /* \"#utility.yul\":5601:5610   */\n              dup3\n                /* \"#utility.yul\":5597:5615   */\n              add\n                /* \"#utility.yul\":5589:5615   */\n              swap1\n              pop\n                /* \"#utility.yul\":5661:5670   */\n              dup2\n                /* \"#utility.yul\":5655:5659   */\n              dup2\n                /* \"#utility.yul\":5651:5671   */\n              sub\n                /* \"#utility.yul\":5647:5648   */\n              0x00\n                /* \"#utility.yul\":5636:5645   */\n              dup4\n                /* \"#utility.yul\":5632:5649   */\n              add\n                /* \"#utility.yul\":5625:5672   */\n              mstore\n                /* \"#utility.yul\":5689:5820   */\n              tag_195\n                /* \"#utility.yul\":5815:5819   */\n              dup2\n                /* \"#utility.yul\":5689:5820   */\n              tag_117\n              jump\t// in\n            tag_195:\n                /* \"#utility.yul\":5681:5820   */\n              swap1\n              pop\n                /* \"#utility.yul\":5408:5827   */\n              swap2\n              swap1\n              pop\n              jump\t// out\n                /* \"#utility.yul\":5833:6058   */\n            tag_118:\n                /* \"#utility.yul\":5973:6007   */\n              0x416464726573733a20696e73756666696369656e742062616c616e636520666f\n                /* \"#utility.yul\":5969:5970   */\n              0x00\n                /* \"#utility.yul\":5961:5967   */\n              dup3\n                /* \"#utility.yul\":5957:5971   */\n              add\n                /* \"#utility.yul\":5950:6008   */\n              mstore\n                /* \"#utility.yul\":6042:6050   */\n              0x722063616c6c0000000000000000000000000000000000000000000000000000\n                /* \"#utility.yul\":6037:6039   */\n              0x20\n                /* \"#utility.yul\":6029:6035   */\n              dup3\n                /* \"#utility.yul\":6025:6040   */\n              add\n                /* \"#utility.yul\":6018:6051   */\n              mstore\n                /* \"#utility.yul\":5833:6058   */\n              pop\n              jump\t// out\n                /* \"#utility.yul\":6064:6430   */\n            tag_119:\n                /* \"#utility.yul\":6206:6209   */\n              0x00\n                /* \"#utility.yul\":6227:6294   */\n              tag_198\n                /* \"#utility.yul\":6291:6293   */\n              0x26\n                /* \"#utility.yul\":6286:6289   */\n              dup4\n                /* \"#utility.yul\":6227:6294   */\n              tag_115\n              jump\t// in\n            tag_198:\n                /* \"#utility.yul\":6220:6294   */\n              swap2\n              pop\n                /* \"#utility.yul\":6303:6396   */\n              tag_199\n                /* \"#utility.yul\":6392:6395   */\n              dup3\n                /* \"#utility.yul\":6303:6396   */\n              tag_118\n              jump\t// in\n            tag_199:\n                /* \"#utility.yul\":6421:6423   */\n              0x40\n                /* \"#utility.yul\":6416:6419   */\n              dup3\n                /* \"#utility.yul\":6412:6424   */\n              add\n                /* \"#utility.yul\":6405:6424   */\n              swap1\n              pop\n                /* \"#utility.yul\":6064:6430   */\n              swap2\n              swap1\n              pop\n              jump\t// out\n                /* \"#utility.yul\":6436:6855   */\n            tag_73:\n                /* \"#utility.yul\":6602:6606   */\n              0x00\n                /* \"#utility.yul\":6640:6642   */\n              0x20\n                /* \"#utility.yul\":6629:6638   */\n              dup3\n                /* \"#utility.yul\":6625:6643   */\n              add\n                /* \"#utility.yul\":6617:6643   */\n              swap1\n              pop\n                /* \"#utility.yul\":6689:6698   */\n              dup2\n                /* \"#utility.yul\":6683:6687   */\n              dup2\n                /* \"#utility.yul\":6679:6699   */\n              sub\n                /* \"#utility.yul\":6675:6676   */\n              0x00\n                /* \"#utility.yul\":6664:6673   */\n              dup4\n                /* \"#utility.yul\":6660:6677   */\n              add\n                /* \"#utility.yul\":6653:6700   */\n              mstore\n                /* \"#utility.yul\":6717:6848   */\n              tag_201\n                /* \"#utility.yul\":6843:6847   */\n              dup2\n                /* \"#utility.yul\":6717:6848   */\n              tag_119\n              jump\t// in\n            tag_201:\n                /* \"#utility.yul\":6709:6848   */\n              swap1\n              pop\n                /* \"#utility.yul\":6436:6855   */\n              swap2\n              swap1\n              pop\n              jump\t// out\n                /* \"#utility.yul\":6861:6959   */\n            tag_120:\n                /* \"#utility.yul\":6912:6918   */\n              0x00\n                /* \"#utility.yul\":6946:6951   */\n              dup2\n                /* \"#utility.yul\":6940:6952   */\n              mload\n                /* \"#utility.yul\":6930:6952   */\n              swap1\n              pop\n                /* \"#utility.yul\":6861:6959   */\n              swap2\n              swap1\n              pop\n              jump\t// out\n                /* \"#utility.yul\":6965:7112   */\n            tag_121:\n                /* \"#utility.yul\":7066:7077   */\n              0x00\n                /* \"#utility.yul\":7103:7106   */\n              dup2\n                /* \"#utility.yul\":7088:7106   */\n              swap1\n              pop\n                /* \"#utility.yul\":6965:7112   */\n              swap3\n              swap2\n              pop\n              pop\n              jump\t// out\n                /* \"#utility.yul\":7118:7364   */\n            tag_122:\n                /* \"#utility.yul\":7199:7200   */\n              0x00\n                /* \"#utility.yul\":7209:7322   */\n            tag_205:\n                /* \"#utility.yul\":7223:7229   */\n              dup4\n                /* \"#utility.yul\":7220:7221   */\n              dup2\n                /* \"#utility.yul\":7217:7230   */\n              lt\n                /* \"#utility.yul\":7209:7322   */\n              iszero\n              tag_207\n              jumpi\n                /* \"#utility.yul\":7308:7309   */\n              dup1\n                /* \"#utility.yul\":7303:7306   */\n              dup3\n                /* \"#utility.yul\":7299:7310   */\n              add\n                /* \"#utility.yul\":7293:7311   */\n              mload\n                /* \"#utility.yul\":7289:7290   */\n              dup2\n                /* \"#utility.yul\":7284:7287   */\n              dup5\n                /* \"#utility.yul\":7280:7291   */\n              add\n                /* \"#utility.yul\":7273:7312   */\n              mstore\n                /* \"#utility.yul\":7245:7247   */\n              0x20\n                /* \"#utility.yul\":7242:7243   */\n              dup2\n                /* \"#utility.yul\":7238:7248   */\n              add\n                /* \"#utility.yul\":7233:7248   */\n              swap1\n              pop\n                /* \"#utility.yul\":7209:7322   */\n              jump(tag_205)\n            tag_207:\n                /* \"#utility.yul\":7356:7357   */\n              0x00\n                /* \"#utility.yul\":7347:7353   */\n              dup5\n                /* \"#utility.yul\":7342:7345   */\n              dup5\n                /* \"#utility.yul\":7338:7354   */\n              add\n                /* \"#utility.yul\":7331:7358   */\n              mstore\n                /* \"#utility.yul\":7180:7364   */\n              pop\n                /* \"#utility.yul\":7118:7364   */\n              pop\n              pop\n              pop\n              jump\t// out\n                /* \"#utility.yul\":7370:7756   */\n            tag_123:\n                /* \"#utility.yul\":7474:7477   */\n              0x00\n                /* \"#utility.yul\":7502:7540   */\n              tag_209\n                /* \"#utility.yul\":7534:7539   */\n              dup3\n                /* \"#utility.yul\":7502:7540   */\n              tag_120\n              jump\t// in\n            tag_209:\n                /* \"#utility.yul\":7556:7644   */\n              tag_210\n                /* \"#utility.yul\":7637:7643   */\n              dup2\n                /* \"#utility.yul\":7632:7635   */\n              dup6\n                /* \"#utility.yul\":7556:7644   */\n              tag_121\n              jump\t// in\n            tag_210:\n                /* \"#utility.yul\":7549:7644   */\n              swap4\n              pop\n                /* \"#utility.yul\":7653:7718   */\n              tag_211\n                /* \"#utility.yul\":7711:7717   */\n              dup2\n                /* \"#utility.yul\":7706:7709   */\n              dup6\n                /* \"#utility.yul\":7699:7703   */\n              0x20\n                /* \"#utility.yul\":7692:7697   */\n              dup7\n                /* \"#utility.yul\":7688:7704   */\n              add\n                /* \"#utility.yul\":7653:7718   */\n              tag_122\n              jump\t// in\n            tag_211:\n                /* \"#utility.yul\":7743:7749   */\n              dup1\n                /* \"#utility.yul\":7738:7741   */\n              dup5\n                /* \"#utility.yul\":7734:7750   */\n              add\n                /* \"#utility.yul\":7727:7750   */\n              swap2\n              pop\n                /* \"#utility.yul\":7478:7756   */\n              pop\n                /* \"#utility.yul\":7370:7756   */\n              swap3\n              swap2\n              pop\n              pop\n              jump\t// out\n                /* \"#utility.yul\":7762:8033   */\n            tag_75:\n                /* \"#utility.yul\":7892:7895   */\n              0x00\n                /* \"#utility.yul\":7914:8007   */\n              tag_213\n                /* \"#utility.yul\":8003:8006   */\n              dup3\n                /* \"#utility.yul\":7994:8000   */\n              dup5\n                /* \"#utility.yul\":7914:8007   */\n              tag_123\n              jump\t// in\n            tag_213:\n                /* \"#utility.yul\":7907:8007   */\n              swap2\n              pop\n                /* \"#utility.yul\":8024:8027   */\n              dup2\n                /* \"#utility.yul\":8017:8027   */\n              swap1\n              pop\n                /* \"#utility.yul\":7762:8033   */\n              swap3\n              swap2\n              pop\n              pop\n              jump\t// out\n                /* \"#utility.yul\":8039:8218   */\n            tag_124:\n                /* \"#utility.yul\":8179:8210   */\n              0x416464726573733a2063616c6c20746f206e6f6e2d636f6e7472616374000000\n                /* \"#utility.yul\":8175:8176   */\n              0x00\n                /* \"#utility.yul\":8167:8173   */\n              dup3\n                /* \"#utility.yul\":8163:8177   */\n              add\n                /* \"#utility.yul\":8156:8211   */\n              mstore\n                /* \"#utility.yul\":8039:8218   */\n              pop\n              jump\t// out\n                /* \"#utility.yul\":8224:8590   */\n            tag_125:\n                /* \"#utility.yul\":8366:8369   */\n              0x00\n                /* \"#utility.yul\":8387:8454   */\n              tag_216\n                /* \"#utility.yul\":8451:8453   */\n              0x1d\n                /* \"#utility.yul\":8446:8449   */\n              dup4\n                /* \"#utility.yul\":8387:8454   */\n              tag_115\n              jump\t// in\n            tag_216:\n                /* \"#utility.yul\":8380:8454   */\n              swap2\n              pop\n                /* \"#utility.yul\":8463:8556   */\n              tag_217\n                /* \"#utility.yul\":8552:8555   */\n              dup3\n                /* \"#utility.yul\":8463:8556   */\n              tag_124\n              jump\t// in\n            tag_217:\n                /* \"#utility.yul\":8581:8583   */\n              0x20\n                /* \"#utility.yul\":8576:8579   */\n              dup3\n                /* \"#utility.yul\":8572:8584   */\n              add\n                /* \"#utility.yul\":8565:8584   */\n              swap1\n              pop\n                /* \"#utility.yul\":8224:8590   */\n              swap2\n              swap1\n              pop\n              jump\t// out\n                /* \"#utility.yul\":8596:9015   */\n            tag_88:\n                /* \"#utility.yul\":8762:8766   */\n              0x00\n                /* \"#utility.yul\":8800:8802   */\n              0x20\n                /* \"#utility.yul\":8789:8798   */\n              dup3\n                /* \"#utility.yul\":8785:8803   */\n              add\n                /* \"#utility.yul\":8777:8803   */\n              swap1\n              pop\n                /* \"#utility.yul\":8849:8858   */\n              dup2\n                /* \"#utility.yul\":8843:8847   */\n              dup2\n                /* \"#utility.yul\":8839:8859   */\n              sub\n                /* \"#utility.yul\":8835:8836   */\n              0x00\n                /* \"#utility.yul\":8824:8833   */\n              dup4\n                /* \"#utility.yul\":8820:8837   */\n              add\n                /* \"#utility.yul\":8813:8860   */\n              mstore\n                /* \"#utility.yul\":8877:9008   */\n              tag_219\n                /* \"#utility.yul\":9003:9007   */\n              dup2\n                /* \"#utility.yul\":8877:9008   */\n              tag_125\n              jump\t// in\n            tag_219:\n                /* \"#utility.yul\":8869:9008   */\n              swap1\n              pop\n                /* \"#utility.yul\":8596:9015   */\n              swap2\n              swap1\n              pop\n              jump\t// out\n                /* \"#utility.yul\":9021:9120   */\n            tag_126:\n                /* \"#utility.yul\":9073:9079   */\n              0x00\n                /* \"#utility.yul\":9107:9112   */\n              dup2\n                /* \"#utility.yul\":9101:9113   */\n              mload\n                /* \"#utility.yul\":9091:9113   */\n              swap1\n              pop\n                /* \"#utility.yul\":9021:9120   */\n              swap2\n              swap1\n              pop\n              jump\t// out\n                /* \"#utility.yul\":9126:9228   */\n            tag_127:\n                /* \"#utility.yul\":9167:9173   */\n              0x00\n                /* \"#utility.yul\":9218:9220   */\n              0x1f\n                /* \"#utility.yul\":9214:9221   */\n              not\n                /* \"#utility.yul\":9209:9211   */\n              0x1f\n                /* \"#utility.yul\":9202:9207   */\n              dup4\n                /* \"#utility.yul\":9198:9212   */\n              add\n                /* \"#utility.yul\":9194:9222   */\n              and\n                /* \"#utility.yul\":9184:9222   */\n              swap1\n              pop\n                /* \"#utility.yul\":9126:9228   */\n              swap2\n              swap1\n              pop\n              jump\t// out\n                /* \"#utility.yul\":9234:9611   */\n            tag_128:\n                /* \"#utility.yul\":9322:9325   */\n              0x00\n                /* \"#utility.yul\":9350:9389   */\n              tag_223\n                /* \"#utility.yul\":9383:9388   */\n              dup3\n                /* \"#utility.yul\":9350:9389   */\n              tag_126\n              jump\t// in\n            tag_223:\n                /* \"#utility.yul\":9405:9476   */\n              tag_224\n                /* \"#utility.yul\":9469:9475   */\n              dup2\n                /* \"#utility.yul\":9464:9467   */\n              dup6\n                /* \"#utility.yul\":9405:9476   */\n              tag_115\n              jump\t// in\n            tag_224:\n                /* \"#utility.yul\":9398:9476   */\n              swap4\n              pop\n                /* \"#utility.yul\":9485:9550   */\n              tag_225\n                /* \"#utility.yul\":9543:9549   */\n              dup2\n                /* \"#utility.yul\":9538:9541   */\n              dup6\n                /* \"#utility.yul\":9531:9535   */\n              0x20\n                /* \"#utility.yul\":9524:9529   */\n              dup7\n                /* \"#utility.yul\":9520:9536   */\n              add\n                /* \"#utility.yul\":9485:9550   */\n              tag_122\n              jump\t// in\n            tag_225:\n                /* \"#utility.yul\":9575:9604   */\n              tag_226\n                /* \"#utility.yul\":9597:9603   */\n              dup2\n                /* \"#utility.yul\":9575:9604   */\n              tag_127\n              jump\t// in\n            tag_226:\n                /* \"#utility.yul\":9570:9573   */\n              dup5\n                /* \"#utility.yul\":9566:9605   */\n              add\n                /* \"#utility.yul\":9559:9605   */\n              swap2\n              pop\n                /* \"#utility.yul\":9326:9611   */\n              pop\n                /* \"#utility.yul\":9234:9611   */\n              swap3\n              swap2\n              pop\n              pop\n              jump\t// out\n                /* \"#utility.yul\":9617:9930   */\n            tag_97:\n                /* \"#utility.yul\":9730:9734   */\n              0x00\n                /* \"#utility.yul\":9768:9770   */\n              0x20\n                /* \"#utility.yul\":9757:9766   */\n              dup3\n                /* \"#utility.yul\":9753:9771   */\n              add\n                /* \"#utility.yul\":9745:9771   */\n              swap1\n              pop\n                /* \"#utility.yul\":9817:9826   */\n              dup2\n                /* \"#utility.yul\":9811:9815   */\n              dup2\n                /* \"#utility.yul\":9807:9827   */\n              sub\n                /* \"#utility.yul\":9803:9804   */\n              0x00\n                /* \"#utility.yul\":9792:9801   */\n              dup4\n                /* \"#utility.yul\":9788:9805   */\n              add\n                /* \"#utility.yul\":9781:9828   */\n              mstore\n                /* \"#utility.yul\":9845:9923   */\n              tag_228\n                /* \"#utility.yul\":9918:9922   */\n              dup2\n                /* \"#utility.yul\":9909:9915   */\n              dup5\n                /* \"#utility.yul\":9845:9923   */\n              tag_128\n              jump\t// in\n            tag_228:\n                /* \"#utility.yul\":9837:9923   */\n              swap1\n              pop\n                /* \"#utility.yul\":9617:9930   */\n              swap3\n              swap2\n              pop\n              pop\n              jump\t// out\n\n            auxdata: 0xa2646970667358221220207c7f0073e0c806d7d72cc4dcd41c3c1f19daa5ff7357c963fa30fed699caf164736f6c63430008120033\n        }\n    }\n\n    auxdata: 0xa2646970667358221220563a6a737b105983b8106a470f2846f12807bfb486ec4b6f2c91f87f960cf1e464736f6c63430008120033\n}\n",
				"bytecode": {
					"linkReferences": {},
					"object": "608060405234801561001057600080fd5b506113e6806100206000396000f3fe608060405234801561001057600080fd5b50600436106100415760003560e01c80631228cbee14610046578063f3a914f714610076578063f7bdec0a146100a6575b600080fd5b610060600480360381019061005b91906103d4565b6100d6565b60405161006d9190610410565b60405180910390f35b610090600480360381019061008b91906103d4565b61013e565b60405161009d9190610410565b60405180910390f35b6100c060048036038101906100bb91906103d4565b61030e565b6040516100cd9190610446565b60405180910390f35b60008060008373ffffffffffffffffffffffffffffffffffffffff1673ffffffffffffffffffffffffffffffffffffffff16815260200190815260200160002060009054906101000a900473ffffffffffffffffffffffffffffffffffffffff169050919050565b6000801515600160008473ffffffffffffffffffffffffffffffffffffffff1673ffffffffffffffffffffffffffffffffffffffff16815260200190815260200160002060009054906101000a900460ff161515146101d2576040517f08c379a00000000000000000000000000000000000000000000000000000000081526004016101c9906104be565b60405180910390fd5b81426040516020016101e5929190610551565b604051602081830303815290604052805190602001208260405161020890610364565b6102129190610410565b8190604051809103906000f5905080158015610232573d6000803e3d6000fd5b509050806000808473ffffffffffffffffffffffffffffffffffffffff1673ffffffffffffffffffffffffffffffffffffffff16815260200190815260200160002060006101000a81548173ffffffffffffffffffffffffffffffffffffffff021916908373ffffffffffffffffffffffffffffffffffffffff16021790555060018060008473ffffffffffffffffffffffffffffffffffffffff1673ffffffffffffffffffffffffffffffffffffffff16815260200190815260200160002060006101000a81548160ff021916908315150217905550919050565b6000600160008373ffffffffffffffffffffffffffffffffffffffff1673ffffffffffffffffffffffffffffffffffffffff16815260200190815260200160002060009054906101000a900460ff169050919050565b610e338061057e83390190565b600080fd5b600073ffffffffffffffffffffffffffffffffffffffff82169050919050565b60006103a182610376565b9050919050565b6103b181610396565b81146103bc57600080fd5b50565b6000813590506103ce816103a8565b92915050565b6000602082840312156103ea576103e9610371565b5b60006103f8848285016103bf565b91505092915050565b61040a81610396565b82525050565b60006020820190506104256000830184610401565b92915050565b60008115159050919050565b6104408161042b565b82525050565b600060208201905061045b6000830184610437565b92915050565b600082825260208201905092915050565b7f416c726164792063726561746500000000000000000000000000000000000000600082015250565b60006104a8600d83610461565b91506104b382610472565b602082019050919050565b600060208201905081810360008301526104d78161049b565b9050919050565b60008160601b9050919050565b60006104f6826104de565b9050919050565b6000610508826104eb565b9050919050565b61052061051b82610396565b6104fd565b82525050565b6000819050919050565b6000819050919050565b61054b61054682610526565b610530565b82525050565b600061055d828561050f565b60148201915061056d828461053a565b602082019150819050939250505056fe608060405234801561001057600080fd5b50604051610e33380380610e33833981810160405281019061003291906100db565b806000806101000a81548173ffffffffffffffffffffffffffffffffffffffff021916908373ffffffffffffffffffffffffffffffffffffffff16021790555050610108565b600080fd5b600073ffffffffffffffffffffffffffffffffffffffff82169050919050565b60006100a88261007d565b9050919050565b6100b88161009d565b81146100c357600080fd5b50565b6000815190506100d5816100af565b92915050565b6000602082840312156100f1576100f0610078565b5b60006100ff848285016100c6565b91505092915050565b610d1c806101176000396000f3fe608060405234801561001057600080fd5b506004361061004c5760003560e01c806302550e4d14610051578063775a25e314610081578063af32b7a11461009f578063b86e321c146100cf575b600080fd5b61006b60048036038101906100669190610803565b6100eb565b6040516100789190610849565b60405180910390f35b610089610222565b6040516100969190610849565b60405180910390f35b6100b960048036038101906100b49190610803565b6102b9565b6040516100c69190610849565b60405180910390f35b6100e960048036038101906100e49190610803565b61035d565b005b6000808273ffffffffffffffffffffffffffffffffffffffff166370a08231306040518263ffffffff1660e01b81526004016101279190610873565b602060405180830381865afa158015610144573d6000803e3d6000fd5b505050506040513d601f19601f8201168201806040525081019061016891906108ba565b90506000610175336102b9565b9050600160003373ffffffffffffffffffffffffffffffffffffffff1673ffffffffffffffffffffffffffffffffffffffff16815260200190815260200160002060009054906101000a900460ff16156101fb576040517fa727014000000000000000000000000000000000000000000000000000000000815260040160405180910390fd5b81610204610222565b8261020f9190610945565b6102199190610976565b92505050919050565b60008060009054906101000a900473ffffffffffffffffffffffffffffffffffffffff1673ffffffffffffffffffffffffffffffffffffffff166318160ddd6040518163ffffffff1660e01b8152600401602060405180830381865afa158015610290573d6000803e3d6000fd5b505050506040513d601f19601f820116820180604052508101906102b491906108ba565b905090565b60008060009054906101000a900473ffffffffffffffffffffffffffffffffffffffff1673ffffffffffffffffffffffffffffffffffffffff166370a08231836040518263ffffffff1660e01b81526004016103159190610873565b602060405180830381865afa158015610332573d6000803e3d6000fd5b505050506040513d601f19601f8201168201806040525081019061035691906108ba565b9050919050565b6000610368336102b9565b905060008111156103a5576040517f5695054900000000000000000000000000000000000000000000000000000000815260040160405180910390fd5b60006103b0836100eb565b90506103fe60008360008054906101000a900473ffffffffffffffffffffffffffffffffffffffff1673ffffffffffffffffffffffffffffffffffffffff166104859092919063ffffffff16565b61042933828573ffffffffffffffffffffffffffffffffffffffff166104859092919063ffffffff16565b60018060003373ffffffffffffffffffffffffffffffffffffffff1673ffffffffffffffffffffffffffffffffffffffff16815260200190815260200160002060006101000a81548160ff021916908315150217905550505050565b6105068363a9059cbb60e01b84846040516024016104a49291906109b8565b604051602081830303815290604052907bffffffffffffffffffffffffffffffffffffffffffffffffffffffff19166020820180517bffffffffffffffffffffffffffffffffffffffffffffffffffffffff838183161783525050505061050b565b505050565b600061056d826040518060400160405280602081526020017f5361666545524332303a206c6f772d6c6576656c2063616c6c206661696c65648152508573ffffffffffffffffffffffffffffffffffffffff166105d39092919063ffffffff16565b905060008151148061058f57508080602001905181019061058e9190610a19565b5b6105ce576040517f08c379a00000000000000000000000000000000000000000000000000000000081526004016105c590610ac9565b60405180910390fd5b505050565b60606105e284846000856105eb565b90509392505050565b606082471015610630576040517f08c379a000000000000000000000000000000000000000000000000000000000815260040161062790610b5b565b60405180910390fd5b6000808673ffffffffffffffffffffffffffffffffffffffff1685876040516106599190610bec565b60006040518083038185875af1925050503d8060008114610696576040519150601f19603f3d011682016040523d82523d6000602084013e61069b565b606091505b50915091506106ac878383876106b8565b92505050949350505050565b6060831561071a576000835103610712576106d28561072d565b610711576040517f08c379a000000000000000000000000000000000000000000000000000000000815260040161070890610c4f565b60405180910390fd5b5b829050610725565b6107248383610750565b5b949350505050565b6000808273ffffffffffffffffffffffffffffffffffffffff163b119050919050565b6000825111156107635781518083602001fd5b806040517f08c379a00000000000000000000000000000000000000000000000000000000081526004016107979190610cc4565b60405180910390fd5b600080fd5b600073ffffffffffffffffffffffffffffffffffffffff82169050919050565b60006107d0826107a5565b9050919050565b6107e0816107c5565b81146107eb57600080fd5b50565b6000813590506107fd816107d7565b92915050565b600060208284031215610819576108186107a0565b5b6000610827848285016107ee565b91505092915050565b6000819050919050565b61084381610830565b82525050565b600060208201905061085e600083018461083a565b92915050565b61086d816107c5565b82525050565b60006020820190506108886000830184610864565b92915050565b61089781610830565b81146108a257600080fd5b50565b6000815190506108b48161088e565b92915050565b6000602082840312156108d0576108cf6107a0565b5b60006108de848285016108a5565b91505092915050565b7f4e487b7100000000000000000000000000000000000000000000000000000000600052601260045260246000fd5b7f4e487b7100000000000000000000000000000000000000000000000000000000600052601160045260246000fd5b600061095082610830565b915061095b83610830565b92508261096b5761096a6108e7565b5b828204905092915050565b600061098182610830565b915061098c83610830565b925082820261099a81610830565b915082820484148315176109b1576109b0610916565b5b5092915050565b60006040820190506109cd6000830185610864565b6109da602083018461083a565b9392505050565b60008115159050919050565b6109f6816109e1565b8114610a0157600080fd5b50565b600081519050610a13816109ed565b92915050565b600060208284031215610a2f57610a2e6107a0565b5b6000610a3d84828501610a04565b91505092915050565b600082825260208201905092915050565b7f5361666545524332303a204552433230206f7065726174696f6e20646964206e60008201527f6f74207375636365656400000000000000000000000000000000000000000000602082015250565b6000610ab3602a83610a46565b9150610abe82610a57565b604082019050919050565b60006020820190508181036000830152610ae281610aa6565b9050919050565b7f416464726573733a20696e73756666696369656e742062616c616e636520666f60008201527f722063616c6c0000000000000000000000000000000000000000000000000000602082015250565b6000610b45602683610a46565b9150610b5082610ae9565b604082019050919050565b60006020820190508181036000830152610b7481610b38565b9050919050565b600081519050919050565b600081905092915050565b60005b83811015610baf578082015181840152602081019050610b94565b60008484015250505050565b6000610bc682610b7b565b610bd08185610b86565b9350610be0818560208601610b91565b80840191505092915050565b6000610bf88284610bbb565b915081905092915050565b7f416464726573733a2063616c6c20746f206e6f6e2d636f6e7472616374000000600082015250565b6000610c39601d83610a46565b9150610c4482610c03565b602082019050919050565b60006020820190508181036000830152610c6881610c2c565b9050919050565b600081519050919050565b6000601f19601f8301169050919050565b6000610c9682610c6f565b610ca08185610a46565b9350610cb0818560208601610b91565b610cb981610c7a565b840191505092915050565b60006020820190508181036000830152610cde8184610c8b565b90509291505056fea2646970667358221220207c7f0073e0c806d7d72cc4dcd41c3c1f19daa5ff7357c963fa30fed699caf164736f6c63430008120033a2646970667358221220563a6a737b105983b8106a470f2846f12807bfb486ec4b6f2c91f87f960cf1e464736f6c63430008120033",
					"opcodes": "PUSH1 0x80 PUSH1 0x40 MSTORE CALLVALUE DUP1 ISZERO PUSH2 0x10 JUMPI PUSH1 0x0 DUP1 REVERT JUMPDEST POP PUSH2 0x13E6 DUP1 PUSH2 0x20 PUSH1 0x0 CODECOPY PUSH1 0x0 RETURN INVALID PUSH1 0x80 PUSH1 0x40 MSTORE CALLVALUE DUP1 ISZERO PUSH2 0x10 JUMPI PUSH1 0x0 DUP1 REVERT JUMPDEST POP PUSH1 0x4 CALLDATASIZE LT PUSH2 0x41 JUMPI PUSH1 0x0 CALLDATALOAD PUSH1 0xE0 SHR DUP1 PUSH4 0x1228CBEE EQ PUSH2 0x46 JUMPI DUP1 PUSH4 0xF3A914F7 EQ PUSH2 0x76 JUMPI DUP1 PUSH4 0xF7BDEC0A EQ PUSH2 0xA6 JUMPI JUMPDEST PUSH1 0x0 DUP1 REVERT JUMPDEST PUSH2 0x60 PUSH1 0x4 DUP1 CALLDATASIZE SUB DUP2 ADD SWAP1 PUSH2 0x5B SWAP2 SWAP1 PUSH2 0x3D4 JUMP JUMPDEST PUSH2 0xD6 JUMP JUMPDEST PUSH1 0x40 MLOAD PUSH2 0x6D SWAP2 SWAP1 PUSH2 0x410 JUMP JUMPDEST PUSH1 0x40 MLOAD DUP1 SWAP2 SUB SWAP1 RETURN JUMPDEST PUSH2 0x90 PUSH1 0x4 DUP1 CALLDATASIZE SUB DUP2 ADD SWAP1 PUSH2 0x8B SWAP2 SWAP1 PUSH2 0x3D4 JUMP JUMPDEST PUSH2 0x13E JUMP JUMPDEST PUSH1 0x40 MLOAD PUSH2 0x9D SWAP2 SWAP1 PUSH2 0x410 JUMP JUMPDEST PUSH1 0x40 MLOAD DUP1 SWAP2 SUB SWAP1 RETURN JUMPDEST PUSH2 0xC0 PUSH1 0x4 DUP1 CALLDATASIZE SUB DUP2 ADD SWAP1 PUSH2 0xBB SWAP2 SWAP1 PUSH2 0x3D4 JUMP JUMPDEST PUSH2 0x30E JUMP JUMPDEST PUSH1 0x40 MLOAD PUSH2 0xCD SWAP2 SWAP1 PUSH2 0x446 JUMP JUMPDEST PUSH1 0x40 MLOAD DUP1 SWAP2 SUB SWAP1 RETURN JUMPDEST PUSH1 0x0 DUP1 PUSH1 0x0 DUP4 PUSH20 0xFFFFFFFFFFFFFFFFFFFFFFFFFFFFFFFFFFFFFFFF AND PUSH20 0xFFFFFFFFFFFFFFFFFFFFFFFFFFFFFFFFFFFFFFFF AND DUP2 MSTORE PUSH1 0x20 ADD SWAP1 DUP2 MSTORE PUSH1 0x20 ADD PUSH1 0x0 KECCAK256 PUSH1 0x0 SWAP1 SLOAD SWAP1 PUSH2 0x100 EXP SWAP1 DIV PUSH20 0xFFFFFFFFFFFFFFFFFFFFFFFFFFFFFFFFFFFFFFFF AND SWAP1 POP SWAP2 SWAP1 POP JUMP JUMPDEST PUSH1 0x0 DUP1 ISZERO ISZERO PUSH1 0x1 PUSH1 0x0 DUP5 PUSH20 0xFFFFFFFFFFFFFFFFFFFFFFFFFFFFFFFFFFFFFFFF AND PUSH20 0xFFFFFFFFFFFFFFFFFFFFFFFFFFFFFFFFFFFFFFFF AND DUP2 MSTORE PUSH1 0x20 ADD SWAP1 DUP2 MSTORE PUSH1 0x20 ADD PUSH1 0x0 KECCAK256 PUSH1 0x0 SWAP1 SLOAD SWAP1 PUSH2 0x100 EXP SWAP1 DIV PUSH1 0xFF AND ISZERO ISZERO EQ PUSH2 0x1D2 JUMPI PUSH1 0x40 MLOAD PUSH32 0x8C379A000000000000000000000000000000000000000000000000000000000 DUP2 MSTORE PUSH1 0x4 ADD PUSH2 0x1C9 SWAP1 PUSH2 0x4BE JUMP JUMPDEST PUSH1 0x40 MLOAD DUP1 SWAP2 SUB SWAP1 REVERT JUMPDEST DUP2 TIMESTAMP PUSH1 0x40 MLOAD PUSH1 0x20 ADD PUSH2 0x1E5 SWAP3 SWAP2 SWAP1 PUSH2 0x551 JUMP JUMPDEST PUSH1 0x40 MLOAD PUSH1 0x20 DUP2 DUP4 SUB SUB DUP2 MSTORE SWAP1 PUSH1 0x40 MSTORE DUP1 MLOAD SWAP1 PUSH1 0x20 ADD KECCAK256 DUP3 PUSH1 0x40 MLOAD PUSH2 0x208 SWAP1 PUSH2 0x364 JUMP JUMPDEST PUSH2 0x212 SWAP2 SWAP1 PUSH2 0x410 JUMP JUMPDEST DUP2 SWAP1 PUSH1 0x40 MLOAD DUP1 SWAP2 SUB SWAP1 PUSH1 0x0 CREATE2 SWAP1 POP DUP1 ISZERO DUP1 ISZERO PUSH2 0x232 JUMPI RETURNDATASIZE PUSH1 0x0 DUP1 RETURNDATACOPY RETURNDATASIZE PUSH1 0x0 REVERT JUMPDEST POP SWAP1 POP DUP1 PUSH1 0x0 DUP1 DUP5 PUSH20 0xFFFFFFFFFFFFFFFFFFFFFFFFFFFFFFFFFFFFFFFF AND PUSH20 0xFFFFFFFFFFFFFFFFFFFFFFFFFFFFFFFFFFFFFFFF AND DUP2 MSTORE PUSH1 0x20 ADD SWAP1 DUP2 MSTORE PUSH1 0x20 ADD PUSH1 0x0 KECCAK256 PUSH1 0x0 PUSH2 0x100 EXP DUP2 SLOAD DUP2 PUSH20 0xFFFFFFFFFFFFFFFFFFFFFFFFFFFFFFFFFFFFFFFF MUL NOT AND SWAP1 DUP4 PUSH20 0xFFFFFFFFFFFFFFFFFFFFFFFFFFFFFFFFFFFFFFFF AND MUL OR SWAP1 SSTORE POP PUSH1 0x1 DUP1 PUSH1 0x0 DUP5 PUSH20 0xFFFFFFFFFFFFFFFFFFFFFFFFFFFFFFFFFFFFFFFF AND PUSH20 0xFFFFFFFFFFFFFFFFFFFFFFFFFFFFFFFFFFFFFFFF AND DUP2 MSTORE PUSH1 0x20 ADD SWAP1 DUP2 MSTORE PUSH1 0x20 ADD PUSH1 0x0 KECCAK256 PUSH1 0x0 PUSH2 0x100 EXP DUP2 SLOAD DUP2 PUSH1 0xFF MUL NOT AND SWAP1 DUP4 ISZERO ISZERO MUL OR SWAP1 SSTORE POP SWAP2 SWAP1 POP JUMP JUMPDEST PUSH1 0x0 PUSH1 0x1 PUSH1 0x0 DUP4 PUSH20 0xFFFFFFFFFFFFFFFFFFFFFFFFFFFFFFFFFFFFFFFF AND PUSH20 0xFFFFFFFFFFFFFFFFFFFFFFFFFFFFFFFFFFFFFFFF AND DUP2 MSTORE PUSH1 0x20 ADD SWAP1 DUP2 MSTORE PUSH1 0x20 ADD PUSH1 0x0 KECCAK256 PUSH1 0x0 SWAP1 SLOAD SWAP1 PUSH2 0x100 EXP SWAP1 DIV PUSH1 0xFF AND SWAP1 POP SWAP2 SWAP1 POP JUMP JUMPDEST PUSH2 0xE33 DUP1 PUSH2 0x57E DUP4 CODECOPY ADD SWAP1 JUMP JUMPDEST PUSH1 0x0 DUP1 REVERT JUMPDEST PUSH1 0x0 PUSH20 0xFFFFFFFFFFFFFFFFFFFFFFFFFFFFFFFFFFFFFFFF DUP3 AND SWAP1 POP SWAP2 SWAP1 POP JUMP JUMPDEST PUSH1 0x0 PUSH2 0x3A1 DUP3 PUSH2 0x376 JUMP JUMPDEST SWAP1 POP SWAP2 SWAP1 POP JUMP JUMPDEST PUSH2 0x3B1 DUP2 PUSH2 0x396 JUMP JUMPDEST DUP2 EQ PUSH2 0x3BC JUMPI PUSH1 0x0 DUP1 REVERT JUMPDEST POP JUMP JUMPDEST PUSH1 0x0 DUP2 CALLDATALOAD SWAP1 POP PUSH2 0x3CE DUP2 PUSH2 0x3A8 JUMP JUMPDEST SWAP3 SWAP2 POP POP JUMP JUMPDEST PUSH1 0x0 PUSH1 0x20 DUP3 DUP5 SUB SLT ISZERO PUSH2 0x3EA JUMPI PUSH2 0x3E9 PUSH2 0x371 JUMP JUMPDEST JUMPDEST PUSH1 0x0 PUSH2 0x3F8 DUP5 DUP3 DUP6 ADD PUSH2 0x3BF JUMP JUMPDEST SWAP2 POP POP SWAP3 SWAP2 POP POP JUMP JUMPDEST PUSH2 0x40A DUP2 PUSH2 0x396 JUMP JUMPDEST DUP3 MSTORE POP POP JUMP JUMPDEST PUSH1 0x0 PUSH1 0x20 DUP3 ADD SWAP1 POP PUSH2 0x425 PUSH1 0x0 DUP4 ADD DUP5 PUSH2 0x401 JUMP JUMPDEST SWAP3 SWAP2 POP POP JUMP JUMPDEST PUSH1 0x0 DUP2 ISZERO ISZERO SWAP1 POP SWAP2 SWAP1 POP JUMP JUMPDEST PUSH2 0x440 DUP2 PUSH2 0x42B JUMP JUMPDEST DUP3 MSTORE POP POP JUMP JUMPDEST PUSH1 0x0 PUSH1 0x20 DUP3 ADD SWAP1 POP PUSH2 0x45B PUSH1 0x0 DUP4 ADD DUP5 PUSH2 0x437 JUMP JUMPDEST SWAP3 SWAP2 POP POP JUMP JUMPDEST PUSH1 0x0 DUP3 DUP3 MSTORE PUSH1 0x20 DUP3 ADD SWAP1 POP SWAP3 SWAP2 POP POP JUMP JUMPDEST PUSH32 0x416C726164792063726561746500000000000000000000000000000000000000 PUSH1 0x0 DUP3 ADD MSTORE POP JUMP JUMPDEST PUSH1 0x0 PUSH2 0x4A8 PUSH1 0xD DUP4 PUSH2 0x461 JUMP JUMPDEST SWAP2 POP PUSH2 0x4B3 DUP3 PUSH2 0x472 JUMP JUMPDEST PUSH1 0x20 DUP3 ADD SWAP1 POP SWAP2 SWAP1 POP JUMP JUMPDEST PUSH1 0x0 PUSH1 0x20 DUP3 ADD SWAP1 POP DUP2 DUP2 SUB PUSH1 0x0 DUP4 ADD MSTORE PUSH2 0x4D7 DUP2 PUSH2 0x49B JUMP JUMPDEST SWAP1 POP SWAP2 SWAP1 POP JUMP JUMPDEST PUSH1 0x0 DUP2 PUSH1 0x60 SHL SWAP1 POP SWAP2 SWAP1 POP JUMP JUMPDEST PUSH1 0x0 PUSH2 0x4F6 DUP3 PUSH2 0x4DE JUMP JUMPDEST SWAP1 POP SWAP2 SWAP1 POP JUMP JUMPDEST PUSH1 0x0 PUSH2 0x508 DUP3 PUSH2 0x4EB JUMP JUMPDEST SWAP1 POP SWAP2 SWAP1 POP JUMP JUMPDEST PUSH2 0x520 PUSH2 0x51B DUP3 PUSH2 0x396 JUMP JUMPDEST PUSH2 0x4FD JUMP JUMPDEST DUP3 MSTORE POP POP JUMP JUMPDEST PUSH1 0x0 DUP2 SWAP1 POP SWAP2 SWAP1 POP JUMP JUMPDEST PUSH1 0x0 DUP2 SWAP1 POP SWAP2 SWAP1 POP JUMP JUMPDEST PUSH2 0x54B PUSH2 0x546 DUP3 PUSH2 0x526 JUMP JUMPDEST PUSH2 0x530 JUMP JUMPDEST DUP3 MSTORE POP POP JUMP JUMPDEST PUSH1 0x0 PUSH2 0x55D DUP3 DUP6 PUSH2 0x50F JUMP JUMPDEST PUSH1 0x14 DUP3 ADD SWAP2 POP PUSH2 0x56D DUP3 DUP5 PUSH2 0x53A JUMP JUMPDEST PUSH1 0x20 DUP3 ADD SWAP2 POP DUP2 SWAP1 POP SWAP4 SWAP3 POP POP POP JUMP INVALID PUSH1 0x80 PUSH1 0x40 MSTORE CALLVALUE DUP1 ISZERO PUSH2 0x10 JUMPI PUSH1 0x0 DUP1 REVERT JUMPDEST POP PUSH1 0x40 MLOAD PUSH2 0xE33 CODESIZE SUB DUP1 PUSH2 0xE33 DUP4 CODECOPY DUP2 DUP2 ADD PUSH1 0x40 MSTORE DUP2 ADD SWAP1 PUSH2 0x32 SWAP2 SWAP1 PUSH2 0xDB JUMP JUMPDEST DUP1 PUSH1 0x0 DUP1 PUSH2 0x100 EXP DUP2 SLOAD DUP2 PUSH20 0xFFFFFFFFFFFFFFFFFFFFFFFFFFFFFFFFFFFFFFFF MUL NOT AND SWAP1 DUP4 PUSH20 0xFFFFFFFFFFFFFFFFFFFFFFFFFFFFFFFFFFFFFFFF AND MUL OR SWAP1 SSTORE POP POP PUSH2 0x108 JUMP JUMPDEST PUSH1 0x0 DUP1 REVERT JUMPDEST PUSH1 0x0 PUSH20 0xFFFFFFFFFFFFFFFFFFFFFFFFFFFFFFFFFFFFFFFF DUP3 AND SWAP1 POP SWAP2 SWAP1 POP JUMP JUMPDEST PUSH1 0x0 PUSH2 0xA8 DUP3 PUSH2 0x7D JUMP JUMPDEST SWAP1 POP SWAP2 SWAP1 POP JUMP JUMPDEST PUSH2 0xB8 DUP2 PUSH2 0x9D JUMP JUMPDEST DUP2 EQ PUSH2 0xC3 JUMPI PUSH1 0x0 DUP1 REVERT JUMPDEST POP JUMP JUMPDEST PUSH1 0x0 DUP2 MLOAD SWAP1 POP PUSH2 0xD5 DUP2 PUSH2 0xAF JUMP JUMPDEST SWAP3 SWAP2 POP POP JUMP JUMPDEST PUSH1 0x0 PUSH1 0x20 DUP3 DUP5 SUB SLT ISZERO PUSH2 0xF1 JUMPI PUSH2 0xF0 PUSH2 0x78 JUMP JUMPDEST JUMPDEST PUSH1 0x0 PUSH2 0xFF DUP5 DUP3 DUP6 ADD PUSH2 0xC6 JUMP JUMPDEST SWAP2 POP POP SWAP3 SWAP2 POP POP JUMP JUMPDEST PUSH2 0xD1C DUP1 PUSH2 0x117 PUSH1 0x0 CODECOPY PUSH1 0x0 RETURN INVALID PUSH1 0x80 PUSH1 0x40 MSTORE CALLVALUE DUP1 ISZERO PUSH2 0x10 JUMPI PUSH1 0x0 DUP1 REVERT JUMPDEST POP PUSH1 0x4 CALLDATASIZE LT PUSH2 0x4C JUMPI PUSH1 0x0 CALLDATALOAD PUSH1 0xE0 SHR DUP1 PUSH4 0x2550E4D EQ PUSH2 0x51 JUMPI DUP1 PUSH4 0x775A25E3 EQ PUSH2 0x81 JUMPI DUP1 PUSH4 0xAF32B7A1 EQ PUSH2 0x9F JUMPI DUP1 PUSH4 0xB86E321C EQ PUSH2 0xCF JUMPI JUMPDEST PUSH1 0x0 DUP1 REVERT JUMPDEST PUSH2 0x6B PUSH1 0x4 DUP1 CALLDATASIZE SUB DUP2 ADD SWAP1 PUSH2 0x66 SWAP2 SWAP1 PUSH2 0x803 JUMP JUMPDEST PUSH2 0xEB JUMP JUMPDEST PUSH1 0x40 MLOAD PUSH2 0x78 SWAP2 SWAP1 PUSH2 0x849 JUMP JUMPDEST PUSH1 0x40 MLOAD DUP1 SWAP2 SUB SWAP1 RETURN JUMPDEST PUSH2 0x89 PUSH2 0x222 JUMP JUMPDEST PUSH1 0x40 MLOAD PUSH2 0x96 SWAP2 SWAP1 PUSH2 0x849 JUMP JUMPDEST PUSH1 0x40 MLOAD DUP1 SWAP2 SUB SWAP1 RETURN JUMPDEST PUSH2 0xB9 PUSH1 0x4 DUP1 CALLDATASIZE SUB DUP2 ADD SWAP1 PUSH2 0xB4 SWAP2 SWAP1 PUSH2 0x803 JUMP JUMPDEST PUSH2 0x2B9 JUMP JUMPDEST PUSH1 0x40 MLOAD PUSH2 0xC6 SWAP2 SWAP1 PUSH2 0x849 JUMP JUMPDEST PUSH1 0x40 MLOAD DUP1 SWAP2 SUB SWAP1 RETURN JUMPDEST PUSH2 0xE9 PUSH1 0x4 DUP1 CALLDATASIZE SUB DUP2 ADD SWAP1 PUSH2 0xE4 SWAP2 SWAP1 PUSH2 0x803 JUMP JUMPDEST PUSH2 0x35D JUMP JUMPDEST STOP JUMPDEST PUSH1 0x0 DUP1 DUP3 PUSH20 0xFFFFFFFFFFFFFFFFFFFFFFFFFFFFFFFFFFFFFFFF AND PUSH4 0x70A08231 ADDRESS PUSH1 0x40 MLOAD DUP3 PUSH4 0xFFFFFFFF AND PUSH1 0xE0 SHL DUP2 MSTORE PUSH1 0x4 ADD PUSH2 0x127 SWAP2 SWAP1 PUSH2 0x873 JUMP JUMPDEST PUSH1 0x20 PUSH1 0x40 MLOAD DUP1 DUP4 SUB DUP2 DUP7 GAS STATICCALL ISZERO DUP1 ISZERO PUSH2 0x144 JUMPI RETURNDATASIZE PUSH1 0x0 DUP1 RETURNDATACOPY RETURNDATASIZE PUSH1 0x0 REVERT JUMPDEST POP POP POP POP PUSH1 0x40 MLOAD RETURNDATASIZE PUSH1 0x1F NOT PUSH1 0x1F DUP3 ADD AND DUP3 ADD DUP1 PUSH1 0x40 MSTORE POP DUP2 ADD SWAP1 PUSH2 0x168 SWAP2 SWAP1 PUSH2 0x8BA JUMP JUMPDEST SWAP1 POP PUSH1 0x0 PUSH2 0x175 CALLER PUSH2 0x2B9 JUMP JUMPDEST SWAP1 POP PUSH1 0x1 PUSH1 0x0 CALLER PUSH20 0xFFFFFFFFFFFFFFFFFFFFFFFFFFFFFFFFFFFFFFFF AND PUSH20 0xFFFFFFFFFFFFFFFFFFFFFFFFFFFFFFFFFFFFFFFF AND DUP2 MSTORE PUSH1 0x20 ADD SWAP1 DUP2 MSTORE PUSH1 0x20 ADD PUSH1 0x0 KECCAK256 PUSH1 0x0 SWAP1 SLOAD SWAP1 PUSH2 0x100 EXP SWAP1 DIV PUSH1 0xFF AND ISZERO PUSH2 0x1FB JUMPI PUSH1 0x40 MLOAD PUSH32 0xA727014000000000000000000000000000000000000000000000000000000000 DUP2 MSTORE PUSH1 0x4 ADD PUSH1 0x40 MLOAD DUP1 SWAP2 SUB SWAP1 REVERT JUMPDEST DUP2 PUSH2 0x204 PUSH2 0x222 JUMP JUMPDEST DUP3 PUSH2 0x20F SWAP2 SWAP1 PUSH2 0x945 JUMP JUMPDEST PUSH2 0x219 SWAP2 SWAP1 PUSH2 0x976 JUMP JUMPDEST SWAP3 POP POP POP SWAP2 SWAP1 POP JUMP JUMPDEST PUSH1 0x0 DUP1 PUSH1 0x0 SWAP1 SLOAD SWAP1 PUSH2 0x100 EXP SWAP1 DIV PUSH20 0xFFFFFFFFFFFFFFFFFFFFFFFFFFFFFFFFFFFFFFFF AND PUSH20 0xFFFFFFFFFFFFFFFFFFFFFFFFFFFFFFFFFFFFFFFF AND PUSH4 0x18160DDD PUSH1 0x40 MLOAD DUP2 PUSH4 0xFFFFFFFF AND PUSH1 0xE0 SHL DUP2 MSTORE PUSH1 0x4 ADD PUSH1 0x20 PUSH1 0x40 MLOAD DUP1 DUP4 SUB DUP2 DUP7 GAS STATICCALL ISZERO DUP1 ISZERO PUSH2 0x290 JUMPI RETURNDATASIZE PUSH1 0x0 DUP1 RETURNDATACOPY RETURNDATASIZE PUSH1 0x0 REVERT JUMPDEST POP POP POP POP PUSH1 0x40 MLOAD RETURNDATASIZE PUSH1 0x1F NOT PUSH1 0x1F DUP3 ADD AND DUP3 ADD DUP1 PUSH1 0x40 MSTORE POP DUP2 ADD SWAP1 PUSH2 0x2B4 SWAP2 SWAP1 PUSH2 0x8BA JUMP JUMPDEST SWAP1 POP SWAP1 JUMP JUMPDEST PUSH1 0x0 DUP1 PUSH1 0x0 SWAP1 SLOAD SWAP1 PUSH2 0x100 EXP SWAP1 DIV PUSH20 0xFFFFFFFFFFFFFFFFFFFFFFFFFFFFFFFFFFFFFFFF AND PUSH20 0xFFFFFFFFFFFFFFFFFFFFFFFFFFFFFFFFFFFFFFFF AND PUSH4 0x70A08231 DUP4 PUSH1 0x40 MLOAD DUP3 PUSH4 0xFFFFFFFF AND PUSH1 0xE0 SHL DUP2 MSTORE PUSH1 0x4 ADD PUSH2 0x315 SWAP2 SWAP1 PUSH2 0x873 JUMP JUMPDEST PUSH1 0x20 PUSH1 0x40 MLOAD DUP1 DUP4 SUB DUP2 DUP7 GAS STATICCALL ISZERO DUP1 ISZERO PUSH2 0x332 JUMPI RETURNDATASIZE PUSH1 0x0 DUP1 RETURNDATACOPY RETURNDATASIZE PUSH1 0x0 REVERT JUMPDEST POP POP POP POP PUSH1 0x40 MLOAD RETURNDATASIZE PUSH1 0x1F NOT PUSH1 0x1F DUP3 ADD AND DUP3 ADD DUP1 PUSH1 0x40 MSTORE POP DUP2 ADD SWAP1 PUSH2 0x356 SWAP2 SWAP1 PUSH2 0x8BA JUMP JUMPDEST SWAP1 POP SWAP2 SWAP1 POP JUMP JUMPDEST PUSH1 0x0 PUSH2 0x368 CALLER PUSH2 0x2B9 JUMP JUMPDEST SWAP1 POP PUSH1 0x0 DUP2 GT ISZERO PUSH2 0x3A5 JUMPI PUSH1 0x40 MLOAD PUSH32 0x5695054900000000000000000000000000000000000000000000000000000000 DUP2 MSTORE PUSH1 0x4 ADD PUSH1 0x40 MLOAD DUP1 SWAP2 SUB SWAP1 REVERT JUMPDEST PUSH1 0x0 PUSH2 0x3B0 DUP4 PUSH2 0xEB JUMP JUMPDEST SWAP1 POP PUSH2 0x3FE PUSH1 0x0 DUP4 PUSH1 0x0 DUP1 SLOAD SWAP1 PUSH2 0x100 EXP SWAP1 DIV PUSH20 0xFFFFFFFFFFFFFFFFFFFFFFFFFFFFFFFFFFFFFFFF AND PUSH20 0xFFFFFFFFFFFFFFFFFFFFFFFFFFFFFFFFFFFFFFFF AND PUSH2 0x485 SWAP1 SWAP3 SWAP2 SWAP1 PUSH4 0xFFFFFFFF AND JUMP JUMPDEST PUSH2 0x429 CALLER DUP3 DUP6 PUSH20 0xFFFFFFFFFFFFFFFFFFFFFFFFFFFFFFFFFFFFFFFF AND PUSH2 0x485 SWAP1 SWAP3 SWAP2 SWAP1 PUSH4 0xFFFFFFFF AND JUMP JUMPDEST PUSH1 0x1 DUP1 PUSH1 0x0 CALLER PUSH20 0xFFFFFFFFFFFFFFFFFFFFFFFFFFFFFFFFFFFFFFFF AND PUSH20 0xFFFFFFFFFFFFFFFFFFFFFFFFFFFFFFFFFFFFFFFF AND DUP2 MSTORE PUSH1 0x20 ADD SWAP1 DUP2 MSTORE PUSH1 0x20 ADD PUSH1 0x0 KECCAK256 PUSH1 0x0 PUSH2 0x100 EXP DUP2 SLOAD DUP2 PUSH1 0xFF MUL NOT AND SWAP1 DUP4 ISZERO ISZERO MUL OR SWAP1 SSTORE POP POP POP POP JUMP JUMPDEST PUSH2 0x506 DUP4 PUSH4 0xA9059CBB PUSH1 0xE0 SHL DUP5 DUP5 PUSH1 0x40 MLOAD PUSH1 0x24 ADD PUSH2 0x4A4 SWAP3 SWAP2 SWAP1 PUSH2 0x9B8 JUMP JUMPDEST PUSH1 0x40 MLOAD PUSH1 0x20 DUP2 DUP4 SUB SUB DUP2 MSTORE SWAP1 PUSH1 0x40 MSTORE SWAP1 PUSH28 0xFFFFFFFFFFFFFFFFFFFFFFFFFFFFFFFFFFFFFFFFFFFFFFFFFFFFFFFF NOT AND PUSH1 0x20 DUP3 ADD DUP1 MLOAD PUSH28 0xFFFFFFFFFFFFFFFFFFFFFFFFFFFFFFFFFFFFFFFFFFFFFFFFFFFFFFFF DUP4 DUP2 DUP4 AND OR DUP4 MSTORE POP POP POP POP PUSH2 0x50B JUMP JUMPDEST POP POP POP JUMP JUMPDEST PUSH1 0x0 PUSH2 0x56D DUP3 PUSH1 0x40 MLOAD DUP1 PUSH1 0x40 ADD PUSH1 0x40 MSTORE DUP1 PUSH1 0x20 DUP2 MSTORE PUSH1 0x20 ADD PUSH32 0x5361666545524332303A206C6F772D6C6576656C2063616C6C206661696C6564 DUP2 MSTORE POP DUP6 PUSH20 0xFFFFFFFFFFFFFFFFFFFFFFFFFFFFFFFFFFFFFFFF AND PUSH2 0x5D3 SWAP1 SWAP3 SWAP2 SWAP1 PUSH4 0xFFFFFFFF AND JUMP JUMPDEST SWAP1 POP PUSH1 0x0 DUP2 MLOAD EQ DUP1 PUSH2 0x58F JUMPI POP DUP1 DUP1 PUSH1 0x20 ADD SWAP1 MLOAD DUP2 ADD SWAP1 PUSH2 0x58E SWAP2 SWAP1 PUSH2 0xA19 JUMP JUMPDEST JUMPDEST PUSH2 0x5CE JUMPI PUSH1 0x40 MLOAD PUSH32 0x8C379A000000000000000000000000000000000000000000000000000000000 DUP2 MSTORE PUSH1 0x4 ADD PUSH2 0x5C5 SWAP1 PUSH2 0xAC9 JUMP JUMPDEST PUSH1 0x40 MLOAD DUP1 SWAP2 SUB SWAP1 REVERT JUMPDEST POP POP POP JUMP JUMPDEST PUSH1 0x60 PUSH2 0x5E2 DUP5 DUP5 PUSH1 0x0 DUP6 PUSH2 0x5EB JUMP JUMPDEST SWAP1 POP SWAP4 SWAP3 POP POP POP JUMP JUMPDEST PUSH1 0x60 DUP3 SELFBALANCE LT ISZERO PUSH2 0x630 JUMPI PUSH1 0x40 MLOAD PUSH32 0x8C379A000000000000000000000000000000000000000000000000000000000 DUP2 MSTORE PUSH1 0x4 ADD PUSH2 0x627 SWAP1 PUSH2 0xB5B JUMP JUMPDEST PUSH1 0x40 MLOAD DUP1 SWAP2 SUB SWAP1 REVERT JUMPDEST PUSH1 0x0 DUP1 DUP7 PUSH20 0xFFFFFFFFFFFFFFFFFFFFFFFFFFFFFFFFFFFFFFFF AND DUP6 DUP8 PUSH1 0x40 MLOAD PUSH2 0x659 SWAP2 SWAP1 PUSH2 0xBEC JUMP JUMPDEST PUSH1 0x0 PUSH1 0x40 MLOAD DUP1 DUP4 SUB DUP2 DUP6 DUP8 GAS CALL SWAP3 POP POP POP RETURNDATASIZE DUP1 PUSH1 0x0 DUP2 EQ PUSH2 0x696 JUMPI PUSH1 0x40 MLOAD SWAP2 POP PUSH1 0x1F NOT PUSH1 0x3F RETURNDATASIZE ADD AND DUP3 ADD PUSH1 0x40 MSTORE RETURNDATASIZE DUP3 MSTORE RETURNDATASIZE PUSH1 0x0 PUSH1 0x20 DUP5 ADD RETURNDATACOPY PUSH2 0x69B JUMP JUMPDEST PUSH1 0x60 SWAP2 POP JUMPDEST POP SWAP2 POP SWAP2 POP PUSH2 0x6AC DUP8 DUP4 DUP4 DUP8 PUSH2 0x6B8 JUMP JUMPDEST SWAP3 POP POP POP SWAP5 SWAP4 POP POP POP POP JUMP JUMPDEST PUSH1 0x60 DUP4 ISZERO PUSH2 0x71A JUMPI PUSH1 0x0 DUP4 MLOAD SUB PUSH2 0x712 JUMPI PUSH2 0x6D2 DUP6 PUSH2 0x72D JUMP JUMPDEST PUSH2 0x711 JUMPI PUSH1 0x40 MLOAD PUSH32 0x8C379A000000000000000000000000000000000000000000000000000000000 DUP2 MSTORE PUSH1 0x4 ADD PUSH2 0x708 SWAP1 PUSH2 0xC4F JUMP JUMPDEST PUSH1 0x40 MLOAD DUP1 SWAP2 SUB SWAP1 REVERT JUMPDEST JUMPDEST DUP3 SWAP1 POP PUSH2 0x725 JUMP JUMPDEST PUSH2 0x724 DUP4 DUP4 PUSH2 0x750 JUMP JUMPDEST JUMPDEST SWAP5 SWAP4 POP POP POP POP JUMP JUMPDEST PUSH1 0x0 DUP1 DUP3 PUSH20 0xFFFFFFFFFFFFFFFFFFFFFFFFFFFFFFFFFFFFFFFF AND EXTCODESIZE GT SWAP1 POP SWAP2 SWAP1 POP JUMP JUMPDEST PUSH1 0x0 DUP3 MLOAD GT ISZERO PUSH2 0x763 JUMPI DUP2 MLOAD DUP1 DUP4 PUSH1 0x20 ADD REVERT JUMPDEST DUP1 PUSH1 0x40 MLOAD PUSH32 0x8C379A000000000000000000000000000000000000000000000000000000000 DUP2 MSTORE PUSH1 0x4 ADD PUSH2 0x797 SWAP2 SWAP1 PUSH2 0xCC4 JUMP JUMPDEST PUSH1 0x40 MLOAD DUP1 SWAP2 SUB SWAP1 REVERT JUMPDEST PUSH1 0x0 DUP1 REVERT JUMPDEST PUSH1 0x0 PUSH20 0xFFFFFFFFFFFFFFFFFFFFFFFFFFFFFFFFFFFFFFFF DUP3 AND SWAP1 POP SWAP2 SWAP1 POP JUMP JUMPDEST PUSH1 0x0 PUSH2 0x7D0 DUP3 PUSH2 0x7A5 JUMP JUMPDEST SWAP1 POP SWAP2 SWAP1 POP JUMP JUMPDEST PUSH2 0x7E0 DUP2 PUSH2 0x7C5 JUMP JUMPDEST DUP2 EQ PUSH2 0x7EB JUMPI PUSH1 0x0 DUP1 REVERT JUMPDEST POP JUMP JUMPDEST PUSH1 0x0 DUP2 CALLDATALOAD SWAP1 POP PUSH2 0x7FD DUP2 PUSH2 0x7D7 JUMP JUMPDEST SWAP3 SWAP2 POP POP JUMP JUMPDEST PUSH1 0x0 PUSH1 0x20 DUP3 DUP5 SUB SLT ISZERO PUSH2 0x819 JUMPI PUSH2 0x818 PUSH2 0x7A0 JUMP JUMPDEST JUMPDEST PUSH1 0x0 PUSH2 0x827 DUP5 DUP3 DUP6 ADD PUSH2 0x7EE JUMP JUMPDEST SWAP2 POP POP SWAP3 SWAP2 POP POP JUMP JUMPDEST PUSH1 0x0 DUP2 SWAP1 POP SWAP2 SWAP1 POP JUMP JUMPDEST PUSH2 0x843 DUP2 PUSH2 0x830 JUMP JUMPDEST DUP3 MSTORE POP POP JUMP JUMPDEST PUSH1 0x0 PUSH1 0x20 DUP3 ADD SWAP1 POP PUSH2 0x85E PUSH1 0x0 DUP4 ADD DUP5 PUSH2 0x83A JUMP JUMPDEST SWAP3 SWAP2 POP POP JUMP JUMPDEST PUSH2 0x86D DUP2 PUSH2 0x7C5 JUMP JUMPDEST DUP3 MSTORE POP POP JUMP JUMPDEST PUSH1 0x0 PUSH1 0x20 DUP3 ADD SWAP1 POP PUSH2 0x888 PUSH1 0x0 DUP4 ADD DUP5 PUSH2 0x864 JUMP JUMPDEST SWAP3 SWAP2 POP POP JUMP JUMPDEST PUSH2 0x897 DUP2 PUSH2 0x830 JUMP JUMPDEST DUP2 EQ PUSH2 0x8A2 JUMPI PUSH1 0x0 DUP1 REVERT JUMPDEST POP JUMP JUMPDEST PUSH1 0x0 DUP2 MLOAD SWAP1 POP PUSH2 0x8B4 DUP2 PUSH2 0x88E JUMP JUMPDEST SWAP3 SWAP2 POP POP JUMP JUMPDEST PUSH1 0x0 PUSH1 0x20 DUP3 DUP5 SUB SLT ISZERO PUSH2 0x8D0 JUMPI PUSH2 0x8CF PUSH2 0x7A0 JUMP JUMPDEST JUMPDEST PUSH1 0x0 PUSH2 0x8DE DUP5 DUP3 DUP6 ADD PUSH2 0x8A5 JUMP JUMPDEST SWAP2 POP POP SWAP3 SWAP2 POP POP JUMP JUMPDEST PUSH32 0x4E487B7100000000000000000000000000000000000000000000000000000000 PUSH1 0x0 MSTORE PUSH1 0x12 PUSH1 0x4 MSTORE PUSH1 0x24 PUSH1 0x0 REVERT JUMPDEST PUSH32 0x4E487B7100000000000000000000000000000000000000000000000000000000 PUSH1 0x0 MSTORE PUSH1 0x11 PUSH1 0x4 MSTORE PUSH1 0x24 PUSH1 0x0 REVERT JUMPDEST PUSH1 0x0 PUSH2 0x950 DUP3 PUSH2 0x830 JUMP JUMPDEST SWAP2 POP PUSH2 0x95B DUP4 PUSH2 0x830 JUMP JUMPDEST SWAP3 POP DUP3 PUSH2 0x96B JUMPI PUSH2 0x96A PUSH2 0x8E7 JUMP JUMPDEST JUMPDEST DUP3 DUP3 DIV SWAP1 POP SWAP3 SWAP2 POP POP JUMP JUMPDEST PUSH1 0x0 PUSH2 0x981 DUP3 PUSH2 0x830 JUMP JUMPDEST SWAP2 POP PUSH2 0x98C DUP4 PUSH2 0x830 JUMP JUMPDEST SWAP3 POP DUP3 DUP3 MUL PUSH2 0x99A DUP2 PUSH2 0x830 JUMP JUMPDEST SWAP2 POP DUP3 DUP3 DIV DUP5 EQ DUP4 ISZERO OR PUSH2 0x9B1 JUMPI PUSH2 0x9B0 PUSH2 0x916 JUMP JUMPDEST JUMPDEST POP SWAP3 SWAP2 POP POP JUMP JUMPDEST PUSH1 0x0 PUSH1 0x40 DUP3 ADD SWAP1 POP PUSH2 0x9CD PUSH1 0x0 DUP4 ADD DUP6 PUSH2 0x864 JUMP JUMPDEST PUSH2 0x9DA PUSH1 0x20 DUP4 ADD DUP5 PUSH2 0x83A JUMP JUMPDEST SWAP4 SWAP3 POP POP POP JUMP JUMPDEST PUSH1 0x0 DUP2 ISZERO ISZERO SWAP1 POP SWAP2 SWAP1 POP JUMP JUMPDEST PUSH2 0x9F6 DUP2 PUSH2 0x9E1 JUMP JUMPDEST DUP2 EQ PUSH2 0xA01 JUMPI PUSH1 0x0 DUP1 REVERT JUMPDEST POP JUMP JUMPDEST PUSH1 0x0 DUP2 MLOAD SWAP1 POP PUSH2 0xA13 DUP2 PUSH2 0x9ED JUMP JUMPDEST SWAP3 SWAP2 POP POP JUMP JUMPDEST PUSH1 0x0 PUSH1 0x20 DUP3 DUP5 SUB SLT ISZERO PUSH2 0xA2F JUMPI PUSH2 0xA2E PUSH2 0x7A0 JUMP JUMPDEST JUMPDEST PUSH1 0x0 PUSH2 0xA3D DUP5 DUP3 DUP6 ADD PUSH2 0xA04 JUMP JUMPDEST SWAP2 POP POP SWAP3 SWAP2 POP POP JUMP JUMPDEST PUSH1 0x0 DUP3 DUP3 MSTORE PUSH1 0x20 DUP3 ADD SWAP1 POP SWAP3 SWAP2 POP POP JUMP JUMPDEST PUSH32 0x5361666545524332303A204552433230206F7065726174696F6E20646964206E PUSH1 0x0 DUP3 ADD MSTORE PUSH32 0x6F74207375636365656400000000000000000000000000000000000000000000 PUSH1 0x20 DUP3 ADD MSTORE POP JUMP JUMPDEST PUSH1 0x0 PUSH2 0xAB3 PUSH1 0x2A DUP4 PUSH2 0xA46 JUMP JUMPDEST SWAP2 POP PUSH2 0xABE DUP3 PUSH2 0xA57 JUMP JUMPDEST PUSH1 0x40 DUP3 ADD SWAP1 POP SWAP2 SWAP1 POP JUMP JUMPDEST PUSH1 0x0 PUSH1 0x20 DUP3 ADD SWAP1 POP DUP2 DUP2 SUB PUSH1 0x0 DUP4 ADD MSTORE PUSH2 0xAE2 DUP2 PUSH2 0xAA6 JUMP JUMPDEST SWAP1 POP SWAP2 SWAP1 POP JUMP JUMPDEST PUSH32 0x416464726573733A20696E73756666696369656E742062616C616E636520666F PUSH1 0x0 DUP3 ADD MSTORE PUSH32 0x722063616C6C0000000000000000000000000000000000000000000000000000 PUSH1 0x20 DUP3 ADD MSTORE POP JUMP JUMPDEST PUSH1 0x0 PUSH2 0xB45 PUSH1 0x26 DUP4 PUSH2 0xA46 JUMP JUMPDEST SWAP2 POP PUSH2 0xB50 DUP3 PUSH2 0xAE9 JUMP JUMPDEST PUSH1 0x40 DUP3 ADD SWAP1 POP SWAP2 SWAP1 POP JUMP JUMPDEST PUSH1 0x0 PUSH1 0x20 DUP3 ADD SWAP1 POP DUP2 DUP2 SUB PUSH1 0x0 DUP4 ADD MSTORE PUSH2 0xB74 DUP2 PUSH2 0xB38 JUMP JUMPDEST SWAP1 POP SWAP2 SWAP1 POP JUMP JUMPDEST PUSH1 0x0 DUP2 MLOAD SWAP1 POP SWAP2 SWAP1 POP JUMP JUMPDEST PUSH1 0x0 DUP2 SWAP1 POP SWAP3 SWAP2 POP POP JUMP JUMPDEST PUSH1 0x0 JUMPDEST DUP4 DUP2 LT ISZERO PUSH2 0xBAF JUMPI DUP1 DUP3 ADD MLOAD DUP2 DUP5 ADD MSTORE PUSH1 0x20 DUP2 ADD SWAP1 POP PUSH2 0xB94 JUMP JUMPDEST PUSH1 0x0 DUP5 DUP5 ADD MSTORE POP POP POP POP JUMP JUMPDEST PUSH1 0x0 PUSH2 0xBC6 DUP3 PUSH2 0xB7B JUMP JUMPDEST PUSH2 0xBD0 DUP2 DUP6 PUSH2 0xB86 JUMP JUMPDEST SWAP4 POP PUSH2 0xBE0 DUP2 DUP6 PUSH1 0x20 DUP7 ADD PUSH2 0xB91 JUMP JUMPDEST DUP1 DUP5 ADD SWAP2 POP POP SWAP3 SWAP2 POP POP JUMP JUMPDEST PUSH1 0x0 PUSH2 0xBF8 DUP3 DUP5 PUSH2 0xBBB JUMP JUMPDEST SWAP2 POP DUP2 SWAP1 POP SWAP3 SWAP2 POP POP JUMP JUMPDEST PUSH32 0x416464726573733A2063616C6C20746F206E6F6E2D636F6E7472616374000000 PUSH1 0x0 DUP3 ADD MSTORE POP JUMP JUMPDEST PUSH1 0x0 PUSH2 0xC39 PUSH1 0x1D DUP4 PUSH2 0xA46 JUMP JUMPDEST SWAP2 POP PUSH2 0xC44 DUP3 PUSH2 0xC03 JUMP JUMPDEST PUSH1 0x20 DUP3 ADD SWAP1 POP SWAP2 SWAP1 POP JUMP JUMPDEST PUSH1 0x0 PUSH1 0x20 DUP3 ADD SWAP1 POP DUP2 DUP2 SUB PUSH1 0x0 DUP4 ADD MSTORE PUSH2 0xC68 DUP2 PUSH2 0xC2C JUMP JUMPDEST SWAP1 POP SWAP2 SWAP1 POP JUMP JUMPDEST PUSH1 0x0 DUP2 MLOAD SWAP1 POP SWAP2 SWAP1 POP JUMP JUMPDEST PUSH1 0x0 PUSH1 0x1F NOT PUSH1 0x1F DUP4 ADD AND SWAP1 POP SWAP2 SWAP1 POP JUMP JUMPDEST PUSH1 0x0 PUSH2 0xC96 DUP3 PUSH2 0xC6F JUMP JUMPDEST PUSH2 0xCA0 DUP2 DUP6 PUSH2 0xA46 JUMP JUMPDEST SWAP4 POP PUSH2 0xCB0 DUP2 DUP6 PUSH1 0x20 DUP7 ADD PUSH2 0xB91 JUMP JUMPDEST PUSH2 0xCB9 DUP2 PUSH2 0xC7A JUMP JUMPDEST DUP5 ADD SWAP2 POP POP SWAP3 SWAP2 POP POP JUMP JUMPDEST PUSH1 0x0 PUSH1 0x20 DUP3 ADD SWAP1 POP DUP2 DUP2 SUB PUSH1 0x0 DUP4 ADD MSTORE PUSH2 0xCDE DUP2 DUP5 PUSH2 0xC8B JUMP JUMPDEST SWAP1 POP SWAP3 SWAP2 POP POP JUMP INVALID LOG2 PUSH5 0x6970667358 0x22 SLT KECCAK256 KECCAK256 PUSH29 0x7F0073E0C806D7D72CC4DCD41C3C1F19DAA5FF7357C963FA30FED699CA CALL PUSH5 0x736F6C6343 STOP ADDMOD SLT STOP CALLER LOG2 PUSH5 0x6970667358 0x22 SLT KECCAK256 JUMP GASPRICE PUSH11 0x737B105983B8106A470F28 CHAINID CALL 0x28 SMOD 0xBF 0xB4 DUP7 0xEC 0x4B PUSH16 0x2C91F87F960CF1E464736F6C63430008 SLT STOP CALLER "
				},
				"gasEstimates": {
					"creation": {
						"codeDepositCost": "1018800",
						"executionCost": "1061",
						"totalCost": "1019861"
					},
					"external": {
						"createRewardPool(address)": "infinite",
						"getIfCreateRewardPool(address)": "2905",
						"getPoolAddress(address)": "infinite"
					}
				},
				"methodIdentifiers": {
					"createRewardPool(address)": "f3a914f7",
					"getIfCreateRewardPool(address)": "f7bdec0a",
					"getPoolAddress(address)": "1228cbee"
				}
			},
			"storageLayout": {
				"storage": [
					{
						"astId": 160,
						"contract": "contracts/RewardPoolFactory.sol:RewardPoolFactory",
						"label": "getRewardPoolAddress",
						"offset": 0,
						"slot": "0",
						"type": "t_mapping(t_address,t_address)"
					},
					{
						"astId": 164,
						"contract": "contracts/RewardPoolFactory.sol:RewardPoolFactory",
						"label": "AlreadyCreate",
						"offset": 0,
						"slot": "1",
						"type": "t_mapping(t_address,t_bool)"
					}
				],
				"types": {
					"t_address": {
						"encoding": "inplace",
						"label": "address",
						"numberOfBytes": "20"
					},
					"t_bool": {
						"encoding": "inplace",
						"label": "bool",
						"numberOfBytes": "1"
					},
					"t_mapping(t_address,t_address)": {
						"encoding": "mapping",
						"key": "t_address",
						"label": "mapping(address => address)",
						"numberOfBytes": "32",
						"value": "t_address"
					},
					"t_mapping(t_address,t_bool)": {
						"encoding": "mapping",
						"key": "t_address",
						"label": "mapping(address => bool)",
						"numberOfBytes": "32",
						"value": "t_bool"
					}
				}
			},
			"userdoc": {
				"kind": "user",
				"methods": {},
				"version": 1
			}
		}
	}
}