{
	"contracts/TimeERC721.sol": {
		"TimeERC721": {
			"abi": [
				{
					"inputs": [
						{
							"internalType": "string",
							"name": "name_",
							"type": "string"
						},
						{
							"internalType": "string",
							"name": "symbol_",
							"type": "string"
						}
					],
					"stateMutability": "nonpayable",
					"type": "constructor"
				},
				{
					"anonymous": false,
					"inputs": [
						{
							"indexed": true,
							"internalType": "address",
							"name": "owner",
							"type": "address"
						},
						{
							"indexed": true,
							"internalType": "address",
							"name": "approved",
							"type": "address"
						},
						{
							"indexed": true,
							"internalType": "uint256",
							"name": "tokenId",
							"type": "uint256"
						}
					],
					"name": "Approval",
					"type": "event"
				},
				{
					"anonymous": false,
					"inputs": [
						{
							"indexed": true,
							"internalType": "address",
							"name": "owner",
							"type": "address"
						},
						{
							"indexed": true,
							"internalType": "address",
							"name": "operator",
							"type": "address"
						},
						{
							"indexed": false,
							"internalType": "bool",
							"name": "approved",
							"type": "bool"
						}
					],
					"name": "ApprovalForAll",
					"type": "event"
				},
				{
					"anonymous": false,
					"inputs": [
						{
							"indexed": true,
							"internalType": "address",
							"name": "previousOwner",
							"type": "address"
						},
						{
							"indexed": true,
							"internalType": "address",
							"name": "newOwner",
							"type": "address"
						}
					],
					"name": "OwnershipTransferred",
					"type": "event"
				},
				{
					"anonymous": false,
					"inputs": [
						{
							"indexed": true,
							"internalType": "address",
							"name": "from",
							"type": "address"
						},
						{
							"indexed": true,
							"internalType": "address",
							"name": "to",
							"type": "address"
						},
						{
							"indexed": true,
							"internalType": "uint256",
							"name": "tokenId",
							"type": "uint256"
						}
					],
					"name": "Transfer",
					"type": "event"
				},
				{
					"inputs": [
						{
							"internalType": "address",
							"name": "to",
							"type": "address"
						},
						{
							"internalType": "uint256",
							"name": "tokenId",
							"type": "uint256"
						}
					],
					"name": "approve",
					"outputs": [],
					"stateMutability": "nonpayable",
					"type": "function"
				},
				{
					"inputs": [
						{
							"internalType": "address",
							"name": "owner",
							"type": "address"
						}
					],
					"name": "balanceOf",
					"outputs": [
						{
							"internalType": "uint256",
							"name": "",
							"type": "uint256"
						}
					],
					"stateMutability": "view",
					"type": "function"
				},
				{
					"inputs": [
						{
							"internalType": "uint256",
							"name": "tokenId",
							"type": "uint256"
						}
					],
					"name": "getApproved",
					"outputs": [
						{
							"internalType": "address",
							"name": "",
							"type": "address"
						}
					],
					"stateMutability": "view",
					"type": "function"
				},
				{
					"inputs": [
						{
							"internalType": "address",
							"name": "owner",
							"type": "address"
						},
						{
							"internalType": "address",
							"name": "operator",
							"type": "address"
						}
					],
					"name": "isApprovedForAll",
					"outputs": [
						{
							"internalType": "bool",
							"name": "",
							"type": "bool"
						}
					],
					"stateMutability": "view",
					"type": "function"
				},
				{
					"inputs": [],
					"name": "name",
					"outputs": [
						{
							"internalType": "string",
							"name": "",
							"type": "string"
						}
					],
					"stateMutability": "view",
					"type": "function"
				},
				{
					"inputs": [],
					"name": "owner",
					"outputs": [
						{
							"internalType": "address",
							"name": "",
							"type": "address"
						}
					],
					"stateMutability": "view",
					"type": "function"
				},
				{
					"inputs": [
						{
							"internalType": "uint256",
							"name": "tokenId",
							"type": "uint256"
						}
					],
					"name": "ownerOf",
					"outputs": [
						{
							"internalType": "address",
							"name": "",
							"type": "address"
						}
					],
					"stateMutability": "view",
					"type": "function"
				},
				{
					"inputs": [],
					"name": "renounceOwnership",
					"outputs": [],
					"stateMutability": "nonpayable",
					"type": "function"
				},
				{
					"inputs": [
						{
							"internalType": "address",
							"name": "from",
							"type": "address"
						},
						{
							"internalType": "address",
							"name": "to",
							"type": "address"
						},
						{
							"internalType": "uint256",
							"name": "tokenId",
							"type": "uint256"
						}
					],
					"name": "safeTransferFrom",
					"outputs": [],
					"stateMutability": "nonpayable",
					"type": "function"
				},
				{
					"inputs": [
						{
							"internalType": "address",
							"name": "from",
							"type": "address"
						},
						{
							"internalType": "address",
							"name": "to",
							"type": "address"
						},
						{
							"internalType": "uint256",
							"name": "tokenId",
							"type": "uint256"
						},
						{
							"internalType": "bytes",
							"name": "data",
							"type": "bytes"
						}
					],
					"name": "safeTransferFrom",
					"outputs": [],
					"stateMutability": "nonpayable",
					"type": "function"
				},
				{
					"inputs": [
						{
							"internalType": "address",
							"name": "operator",
							"type": "address"
						},
						{
							"internalType": "bool",
							"name": "approved",
							"type": "bool"
						}
					],
					"name": "setApprovalForAll",
					"outputs": [],
					"stateMutability": "nonpayable",
					"type": "function"
				},
				{
					"inputs": [
						{
							"internalType": "bytes4",
							"name": "interfaceId",
							"type": "bytes4"
						}
					],
					"name": "supportsInterface",
					"outputs": [
						{
							"internalType": "bool",
							"name": "",
							"type": "bool"
						}
					],
					"stateMutability": "view",
					"type": "function"
				},
				{
					"inputs": [],
					"name": "symbol",
					"outputs": [
						{
							"internalType": "string",
							"name": "",
							"type": "string"
						}
					],
					"stateMutability": "view",
					"type": "function"
				},
				{
					"inputs": [
						{
							"internalType": "uint256",
							"name": "tokenId",
							"type": "uint256"
						}
					],
					"name": "tokenURI",
					"outputs": [
						{
							"internalType": "string",
							"name": "",
							"type": "string"
						}
					],
					"stateMutability": "view",
					"type": "function"
				},
				{
					"inputs": [
						{
							"internalType": "address",
							"name": "from",
							"type": "address"
						},
						{
							"internalType": "address",
							"name": "to",
							"type": "address"
						},
						{
							"internalType": "uint256",
							"name": "tokenId",
							"type": "uint256"
						}
					],
					"name": "transferFrom",
					"outputs": [],
					"stateMutability": "nonpayable",
					"type": "function"
				},
				{
					"inputs": [
						{
							"internalType": "address",
							"name": "newOwner",
							"type": "address"
						}
					],
					"name": "transferOwnership",
					"outputs": [],
					"stateMutability": "nonpayable",
					"type": "function"
				}
			],
			"devdoc": {
				"kind": "dev",
				"methods": {
					"approve(address,uint256)": {
						"details": "See {IERC721-approve}."
					},
					"balanceOf(address)": {
						"details": "See {IERC721-balanceOf}."
					},
					"constructor": {
						"details": "Initializes the contract by setting a `name` and a `symbol` to the token collection."
					},
					"getApproved(uint256)": {
						"details": "See {IERC721-getApproved}."
					},
					"isApprovedForAll(address,address)": {
						"details": "See {IERC721-isApprovedForAll}."
					},
					"name()": {
						"details": "See {IERC721Metadata-name}."
					},
					"owner()": {
						"details": "Returns the address of the current owner."
					},
					"ownerOf(uint256)": {
						"details": "See {IERC721-ownerOf}."
					},
					"renounceOwnership()": {
						"details": "Leaves the contract without owner. It will not be possible to call `onlyOwner` functions. Can only be called by the current owner. NOTE: Renouncing ownership will leave the contract without an owner, thereby disabling any functionality that is only available to the owner."
					},
					"safeTransferFrom(address,address,uint256)": {
						"details": "See {IERC721-safeTransferFrom}."
					},
					"safeTransferFrom(address,address,uint256,bytes)": {
						"details": "See {IERC721-safeTransferFrom}."
					},
					"setApprovalForAll(address,bool)": {
						"details": "See {IERC721-setApprovalForAll}."
					},
					"supportsInterface(bytes4)": {
						"details": "See {IERC165-supportsInterface}."
					},
					"symbol()": {
						"details": "See {IERC721Metadata-symbol}."
					},
					"tokenURI(uint256)": {
						"details": "See {IERC721Metadata-tokenURI}."
					},
					"transferFrom(address,address,uint256)": {
						"details": "See {IERC721-transferFrom}."
					},
					"transferOwnership(address)": {
						"details": "Transfers ownership of the contract to a new account (`newOwner`). Can only be called by the current owner."
					}
				},
				"version": 1
			},
			"evm": {
				"assembly": "    /* \"contracts/TimeERC721.sol\":334:16954  contract TimeERC721 is Context, ERC165, IERC721, IERC721Metadata, Ownable{... */\n  mstore(0x40, 0x80)\n    /* \"contracts/TimeERC721.sol\":1133:1249  constructor(string memory name_, string memory symbol_) {... */\n  callvalue\n  dup1\n  iszero\n  tag_1\n  jumpi\n  0x00\n  dup1\n  revert\ntag_1:\n  pop\n  mload(0x40)\n  sub(codesize, bytecodeSize)\n  dup1\n  bytecodeSize\n  dup4\n  codecopy\n  dup2\n  dup2\n  add\n  0x40\n  mstore\n  dup2\n  add\n  swap1\n  tag_2\n  swap2\n  swap1\n  tag_3\n  jump\t// in\ntag_2:\n    /* \"contracts/Ownable.sol\":957:989  _transferOwnership(_msgSender()) */\n  tag_7\n    /* \"contracts/Ownable.sol\":976:988  _msgSender() */\n  tag_8\n    /* \"contracts/Ownable.sol\":976:986  _msgSender */\n  shl(0x20, tag_9)\n    /* \"contracts/Ownable.sol\":976:988  _msgSender() */\n  0x20\n  shr\n  jump\t// in\ntag_8:\n    /* \"contracts/Ownable.sol\":957:975  _transferOwnership */\n  shl(0x20, tag_10)\n    /* \"contracts/Ownable.sol\":957:989  _transferOwnership(_msgSender()) */\n  0x20\n  shr\n  jump\t// in\ntag_7:\n    /* \"contracts/TimeERC721.sol\":1208:1213  name_ */\n  dup2\n    /* \"contracts/TimeERC721.sol\":1200:1205  _name */\n  0x01\n    /* \"contracts/TimeERC721.sol\":1200:1213  _name = name_ */\n  swap1\n  dup1\n  mload\n  swap1\n  0x20\n  add\n  swap1\n  tag_12\n  swap3\n  swap2\n  swap1\n  tag_13\n  jump\t// in\ntag_12:\n  pop\n    /* \"contracts/TimeERC721.sol\":1234:1241  symbol_ */\n  dup1\n    /* \"contracts/TimeERC721.sol\":1224:1231  _symbol */\n  0x02\n    /* \"contracts/TimeERC721.sol\":1224:1241  _symbol = symbol_ */\n  swap1\n  dup1\n  mload\n  swap1\n  0x20\n  add\n  swap1\n  tag_14\n  swap3\n  swap2\n  swap1\n  tag_13\n  jump\t// in\ntag_14:\n  pop\n    /* \"contracts/TimeERC721.sol\":1133:1249  constructor(string memory name_, string memory symbol_) {... */\n  pop\n  pop\n    /* \"contracts/TimeERC721.sol\":334:16954  contract TimeERC721 is Context, ERC165, IERC721, IERC721Metadata, Ownable{... */\n  jump(tag_15)\n    /* \"contracts/Context.sol\":671:769  function _msgSender() internal view virtual returns (address) {... */\ntag_9:\n    /* \"contracts/Context.sol\":724:731  address */\n  0x00\n    /* \"contracts/Context.sol\":751:761  msg.sender */\n  caller\n    /* \"contracts/Context.sol\":744:761  return msg.sender */\n  swap1\n  pop\n    /* \"contracts/Context.sol\":671:769  function _msgSender() internal view virtual returns (address) {... */\n  swap1\n  jump\t// out\n    /* \"contracts/Ownable.sol\":2496:2687  function _transferOwnership(address newOwner) internal virtual {... */\ntag_10:\n    /* \"contracts/Ownable.sol\":2570:2586  address oldOwner */\n  0x00\n    /* \"contracts/Ownable.sol\":2589:2595  _owner */\n  dup1\n  0x00\n  swap1\n  sload\n  swap1\n  0x0100\n  exp\n  swap1\n  div\n  0xffffffffffffffffffffffffffffffffffffffff\n  and\n    /* \"contracts/Ownable.sol\":2570:2595  address oldOwner = _owner */\n  swap1\n  pop\n    /* \"contracts/Ownable.sol\":2615:2623  newOwner */\n  dup2\n    /* \"contracts/Ownable.sol\":2606:2612  _owner */\n  0x00\n  dup1\n    /* \"contracts/Ownable.sol\":2606:2623  _owner = newOwner */\n  0x0100\n  exp\n  dup2\n  sload\n  dup2\n  0xffffffffffffffffffffffffffffffffffffffff\n  mul\n  not\n  and\n  swap1\n  dup4\n  0xffffffffffffffffffffffffffffffffffffffff\n  and\n  mul\n  or\n  swap1\n  sstore\n  pop\n    /* \"contracts/Ownable.sol\":2670:2678  newOwner */\n  dup2\n    /* \"contracts/Ownable.sol\":2639:2679  OwnershipTransferred(oldOwner, newOwner) */\n  0xffffffffffffffffffffffffffffffffffffffff\n  and\n    /* \"contracts/Ownable.sol\":2660:2668  oldOwner */\n  dup2\n    /* \"contracts/Ownable.sol\":2639:2679  OwnershipTransferred(oldOwner, newOwner) */\n  0xffffffffffffffffffffffffffffffffffffffff\n  and\n  0x8be0079c531659141344cd1fd0a4f28419497f9722a3daafe3b4186f6b6457e0\n  mload(0x40)\n  mload(0x40)\n  dup1\n  swap2\n  sub\n  swap1\n  log3\n    /* \"contracts/Ownable.sol\":2559:2687  {... */\n  pop\n    /* \"contracts/Ownable.sol\":2496:2687  function _transferOwnership(address newOwner) internal virtual {... */\n  pop\n  jump\t// out\n    /* \"contracts/TimeERC721.sol\":334:16954  contract TimeERC721 is Context, ERC165, IERC721, IERC721Metadata, Ownable{... */\ntag_13:\n  dup3\n  dup1\n  sload\n  tag_18\n  swap1\n  tag_19\n  jump\t// in\ntag_18:\n  swap1\n  0x00\n  mstore\n  keccak256(0x00, 0x20)\n  swap1\n  0x1f\n  add\n  0x20\n  swap1\n  div\n  dup2\n  add\n  swap3\n  dup3\n  tag_21\n  jumpi\n  0x00\n  dup6\n  sstore\n  jump(tag_20)\ntag_21:\n  dup3\n  0x1f\n  lt\n  tag_22\n  jumpi\n  dup1\n  mload\n  not(0xff)\n  and\n  dup4\n  dup1\n  add\n  or\n  dup6\n  sstore\n  jump(tag_20)\ntag_22:\n  dup3\n  dup1\n  add\n  0x01\n  add\n  dup6\n  sstore\n  dup3\n  iszero\n  tag_20\n  jumpi\n  swap2\n  dup3\n  add\ntag_23:\n  dup3\n  dup2\n  gt\n  iszero\n  tag_24\n  jumpi\n  dup3\n  mload\n  dup3\n  sstore\n  swap2\n  0x20\n  add\n  swap2\n  swap1\n  0x01\n  add\n  swap1\n  jump(tag_23)\ntag_24:\ntag_20:\n  pop\n  swap1\n  pop\n  tag_25\n  swap2\n  swap1\n  tag_26\n  jump\t// in\ntag_25:\n  pop\n  swap1\n  jump\t// out\ntag_26:\ntag_27:\n  dup1\n  dup3\n  gt\n  iszero\n  tag_28\n  jumpi\n  0x00\n  dup2\n  0x00\n  swap1\n  sstore\n  pop\n  0x01\n  add\n  jump(tag_27)\ntag_28:\n  pop\n  swap1\n  jump\t// out\n    /* \"#utility.yul\":7:82   */\ntag_29:\n    /* \"#utility.yul\":40:46   */\n  0x00\n    /* \"#utility.yul\":73:75   */\n  0x40\n    /* \"#utility.yul\":67:76   */\n  mload\n    /* \"#utility.yul\":57:76   */\n  swap1\n  pop\n    /* \"#utility.yul\":7:82   */\n  swap1\n  jump\t// out\n    /* \"#utility.yul\":88:205   */\ntag_30:\n    /* \"#utility.yul\":197:198   */\n  0x00\n    /* \"#utility.yul\":194:195   */\n  dup1\n    /* \"#utility.yul\":187:199   */\n  revert\n    /* \"#utility.yul\":211:328   */\ntag_31:\n    /* \"#utility.yul\":320:321   */\n  0x00\n    /* \"#utility.yul\":317:318   */\n  dup1\n    /* \"#utility.yul\":310:322   */\n  revert\n    /* \"#utility.yul\":334:451   */\ntag_32:\n    /* \"#utility.yul\":443:444   */\n  0x00\n    /* \"#utility.yul\":440:441   */\n  dup1\n    /* \"#utility.yul\":433:445   */\n  revert\n    /* \"#utility.yul\":457:574   */\ntag_33:\n    /* \"#utility.yul\":566:567   */\n  0x00\n    /* \"#utility.yul\":563:564   */\n  dup1\n    /* \"#utility.yul\":556:568   */\n  revert\n    /* \"#utility.yul\":580:682   */\ntag_34:\n    /* \"#utility.yul\":621:627   */\n  0x00\n    /* \"#utility.yul\":672:674   */\n  0x1f\n    /* \"#utility.yul\":668:675   */\n  not\n    /* \"#utility.yul\":663:665   */\n  0x1f\n    /* \"#utility.yul\":656:661   */\n  dup4\n    /* \"#utility.yul\":652:666   */\n  add\n    /* \"#utility.yul\":648:676   */\n  and\n    /* \"#utility.yul\":638:676   */\n  swap1\n  pop\n    /* \"#utility.yul\":580:682   */\n  swap2\n  swap1\n  pop\n  jump\t// out\n    /* \"#utility.yul\":688:868   */\ntag_35:\n    /* \"#utility.yul\":736:813   */\n  0x4e487b7100000000000000000000000000000000000000000000000000000000\n    /* \"#utility.yul\":733:734   */\n  0x00\n    /* \"#utility.yul\":726:814   */\n  mstore\n    /* \"#utility.yul\":833:837   */\n  0x41\n    /* \"#utility.yul\":830:831   */\n  0x04\n    /* \"#utility.yul\":823:838   */\n  mstore\n    /* \"#utility.yul\":857:861   */\n  0x24\n    /* \"#utility.yul\":854:855   */\n  0x00\n    /* \"#utility.yul\":847:862   */\n  revert\n    /* \"#utility.yul\":874:1155   */\ntag_36:\n    /* \"#utility.yul\":957:984   */\n  tag_52\n    /* \"#utility.yul\":979:983   */\n  dup3\n    /* \"#utility.yul\":957:984   */\n  tag_34\n  jump\t// in\ntag_52:\n    /* \"#utility.yul\":949:955   */\n  dup2\n    /* \"#utility.yul\":945:985   */\n  add\n    /* \"#utility.yul\":1087:1093   */\n  dup2\n    /* \"#utility.yul\":1075:1085   */\n  dup2\n    /* \"#utility.yul\":1072:1094   */\n  lt\n    /* \"#utility.yul\":1051:1069   */\n  0xffffffffffffffff\n    /* \"#utility.yul\":1039:1049   */\n  dup3\n    /* \"#utility.yul\":1036:1070   */\n  gt\n    /* \"#utility.yul\":1033:1095   */\n  or\n    /* \"#utility.yul\":1030:1118   */\n  iszero\n  tag_53\n  jumpi\n    /* \"#utility.yul\":1098:1116   */\n  tag_54\n  tag_35\n  jump\t// in\ntag_54:\n    /* \"#utility.yul\":1030:1118   */\ntag_53:\n    /* \"#utility.yul\":1138:1148   */\n  dup1\n    /* \"#utility.yul\":1134:1136   */\n  0x40\n    /* \"#utility.yul\":1127:1149   */\n  mstore\n    /* \"#utility.yul\":917:1155   */\n  pop\n    /* \"#utility.yul\":874:1155   */\n  pop\n  pop\n  jump\t// out\n    /* \"#utility.yul\":1161:1290   */\ntag_37:\n    /* \"#utility.yul\":1195:1201   */\n  0x00\n    /* \"#utility.yul\":1222:1242   */\n  tag_56\n  tag_29\n  jump\t// in\ntag_56:\n    /* \"#utility.yul\":1212:1242   */\n  swap1\n  pop\n    /* \"#utility.yul\":1251:1284   */\n  tag_57\n    /* \"#utility.yul\":1279:1283   */\n  dup3\n    /* \"#utility.yul\":1271:1277   */\n  dup3\n    /* \"#utility.yul\":1251:1284   */\n  tag_36\n  jump\t// in\ntag_57:\n    /* \"#utility.yul\":1161:1290   */\n  swap2\n  swap1\n  pop\n  jump\t// out\n    /* \"#utility.yul\":1296:1604   */\ntag_38:\n    /* \"#utility.yul\":1358:1362   */\n  0x00\n    /* \"#utility.yul\":1448:1466   */\n  0xffffffffffffffff\n    /* \"#utility.yul\":1440:1446   */\n  dup3\n    /* \"#utility.yul\":1437:1467   */\n  gt\n    /* \"#utility.yul\":1434:1490   */\n  iszero\n  tag_59\n  jumpi\n    /* \"#utility.yul\":1470:1488   */\n  tag_60\n  tag_35\n  jump\t// in\ntag_60:\n    /* \"#utility.yul\":1434:1490   */\ntag_59:\n    /* \"#utility.yul\":1508:1537   */\n  tag_61\n    /* \"#utility.yul\":1530:1536   */\n  dup3\n    /* \"#utility.yul\":1508:1537   */\n  tag_34\n  jump\t// in\ntag_61:\n    /* \"#utility.yul\":1500:1537   */\n  swap1\n  pop\n    /* \"#utility.yul\":1592:1596   */\n  0x20\n    /* \"#utility.yul\":1586:1590   */\n  dup2\n    /* \"#utility.yul\":1582:1597   */\n  add\n    /* \"#utility.yul\":1574:1597   */\n  swap1\n  pop\n    /* \"#utility.yul\":1296:1604   */\n  swap2\n  swap1\n  pop\n  jump\t// out\n    /* \"#utility.yul\":1610:1917   */\ntag_39:\n    /* \"#utility.yul\":1678:1679   */\n  0x00\n    /* \"#utility.yul\":1688:1801   */\ntag_63:\n    /* \"#utility.yul\":1702:1708   */\n  dup4\n    /* \"#utility.yul\":1699:1700   */\n  dup2\n    /* \"#utility.yul\":1696:1709   */\n  lt\n    /* \"#utility.yul\":1688:1801   */\n  iszero\n  tag_65\n  jumpi\n    /* \"#utility.yul\":1787:1788   */\n  dup1\n    /* \"#utility.yul\":1782:1785   */\n  dup3\n    /* \"#utility.yul\":1778:1789   */\n  add\n    /* \"#utility.yul\":1772:1790   */\n  mload\n    /* \"#utility.yul\":1768:1769   */\n  dup2\n    /* \"#utility.yul\":1763:1766   */\n  dup5\n    /* \"#utility.yul\":1759:1770   */\n  add\n    /* \"#utility.yul\":1752:1791   */\n  mstore\n    /* \"#utility.yul\":1724:1726   */\n  0x20\n    /* \"#utility.yul\":1721:1722   */\n  dup2\n    /* \"#utility.yul\":1717:1727   */\n  add\n    /* \"#utility.yul\":1712:1727   */\n  swap1\n  pop\n    /* \"#utility.yul\":1688:1801   */\n  jump(tag_63)\ntag_65:\n    /* \"#utility.yul\":1819:1825   */\n  dup4\n    /* \"#utility.yul\":1816:1817   */\n  dup2\n    /* \"#utility.yul\":1813:1826   */\n  gt\n    /* \"#utility.yul\":1810:1911   */\n  iszero\n  tag_66\n  jumpi\n    /* \"#utility.yul\":1899:1900   */\n  0x00\n    /* \"#utility.yul\":1890:1896   */\n  dup5\n    /* \"#utility.yul\":1885:1888   */\n  dup5\n    /* \"#utility.yul\":1881:1897   */\n  add\n    /* \"#utility.yul\":1874:1901   */\n  mstore\n    /* \"#utility.yul\":1810:1911   */\ntag_66:\n    /* \"#utility.yul\":1659:1917   */\n  pop\n    /* \"#utility.yul\":1610:1917   */\n  pop\n  pop\n  pop\n  jump\t// out\n    /* \"#utility.yul\":1923:2344   */\ntag_40:\n    /* \"#utility.yul\":2012:2017   */\n  0x00\n    /* \"#utility.yul\":2037:2103   */\n  tag_68\n    /* \"#utility.yul\":2053:2102   */\n  tag_69\n    /* \"#utility.yul\":2095:2101   */\n  dup5\n    /* \"#utility.yul\":2053:2102   */\n  tag_38\n  jump\t// in\ntag_69:\n    /* \"#utility.yul\":2037:2103   */\n  tag_37\n  jump\t// in\ntag_68:\n    /* \"#utility.yul\":2028:2103   */\n  swap1\n  pop\n    /* \"#utility.yul\":2126:2132   */\n  dup3\n    /* \"#utility.yul\":2119:2124   */\n  dup2\n    /* \"#utility.yul\":2112:2133   */\n  mstore\n    /* \"#utility.yul\":2164:2168   */\n  0x20\n    /* \"#utility.yul\":2157:2162   */\n  dup2\n    /* \"#utility.yul\":2153:2169   */\n  add\n    /* \"#utility.yul\":2202:2205   */\n  dup5\n    /* \"#utility.yul\":2193:2199   */\n  dup5\n    /* \"#utility.yul\":2188:2191   */\n  dup5\n    /* \"#utility.yul\":2184:2200   */\n  add\n    /* \"#utility.yul\":2181:2206   */\n  gt\n    /* \"#utility.yul\":2178:2290   */\n  iszero\n  tag_70\n  jumpi\n    /* \"#utility.yul\":2209:2288   */\n  tag_71\n  tag_33\n  jump\t// in\ntag_71:\n    /* \"#utility.yul\":2178:2290   */\ntag_70:\n    /* \"#utility.yul\":2299:2338   */\n  tag_72\n    /* \"#utility.yul\":2331:2337   */\n  dup5\n    /* \"#utility.yul\":2326:2329   */\n  dup3\n    /* \"#utility.yul\":2321:2324   */\n  dup6\n    /* \"#utility.yul\":2299:2338   */\n  tag_39\n  jump\t// in\ntag_72:\n    /* \"#utility.yul\":2018:2344   */\n  pop\n    /* \"#utility.yul\":1923:2344   */\n  swap4\n  swap3\n  pop\n  pop\n  pop\n  jump\t// out\n    /* \"#utility.yul\":2364:2719   */\ntag_41:\n    /* \"#utility.yul\":2431:2436   */\n  0x00\n    /* \"#utility.yul\":2480:2483   */\n  dup3\n    /* \"#utility.yul\":2473:2477   */\n  0x1f\n    /* \"#utility.yul\":2465:2471   */\n  dup4\n    /* \"#utility.yul\":2461:2478   */\n  add\n    /* \"#utility.yul\":2457:2484   */\n  slt\n    /* \"#utility.yul\":2447:2569   */\n  tag_74\n  jumpi\n    /* \"#utility.yul\":2488:2567   */\n  tag_75\n  tag_32\n  jump\t// in\ntag_75:\n    /* \"#utility.yul\":2447:2569   */\ntag_74:\n    /* \"#utility.yul\":2598:2604   */\n  dup2\n    /* \"#utility.yul\":2592:2605   */\n  mload\n    /* \"#utility.yul\":2623:2713   */\n  tag_76\n    /* \"#utility.yul\":2709:2712   */\n  dup5\n    /* \"#utility.yul\":2701:2707   */\n  dup3\n    /* \"#utility.yul\":2694:2698   */\n  0x20\n    /* \"#utility.yul\":2686:2692   */\n  dup7\n    /* \"#utility.yul\":2682:2699   */\n  add\n    /* \"#utility.yul\":2623:2713   */\n  tag_40\n  jump\t// in\ntag_76:\n    /* \"#utility.yul\":2614:2713   */\n  swap2\n  pop\n    /* \"#utility.yul\":2437:2719   */\n  pop\n    /* \"#utility.yul\":2364:2719   */\n  swap3\n  swap2\n  pop\n  pop\n  jump\t// out\n    /* \"#utility.yul\":2725:3578   */\ntag_3:\n    /* \"#utility.yul\":2824:2830   */\n  0x00\n    /* \"#utility.yul\":2832:2838   */\n  dup1\n    /* \"#utility.yul\":2881:2883   */\n  0x40\n    /* \"#utility.yul\":2869:2878   */\n  dup4\n    /* \"#utility.yul\":2860:2867   */\n  dup6\n    /* \"#utility.yul\":2856:2879   */\n  sub\n    /* \"#utility.yul\":2852:2884   */\n  slt\n    /* \"#utility.yul\":2849:2968   */\n  iszero\n  tag_78\n  jumpi\n    /* \"#utility.yul\":2887:2966   */\n  tag_79\n  tag_30\n  jump\t// in\ntag_79:\n    /* \"#utility.yul\":2849:2968   */\ntag_78:\n    /* \"#utility.yul\":3028:3029   */\n  0x00\n    /* \"#utility.yul\":3017:3026   */\n  dup4\n    /* \"#utility.yul\":3013:3030   */\n  add\n    /* \"#utility.yul\":3007:3031   */\n  mload\n    /* \"#utility.yul\":3058:3076   */\n  0xffffffffffffffff\n    /* \"#utility.yul\":3050:3056   */\n  dup2\n    /* \"#utility.yul\":3047:3077   */\n  gt\n    /* \"#utility.yul\":3044:3161   */\n  iszero\n  tag_80\n  jumpi\n    /* \"#utility.yul\":3080:3159   */\n  tag_81\n  tag_31\n  jump\t// in\ntag_81:\n    /* \"#utility.yul\":3044:3161   */\ntag_80:\n    /* \"#utility.yul\":3185:3259   */\n  tag_82\n    /* \"#utility.yul\":3251:3258   */\n  dup6\n    /* \"#utility.yul\":3242:3248   */\n  dup3\n    /* \"#utility.yul\":3231:3240   */\n  dup7\n    /* \"#utility.yul\":3227:3249   */\n  add\n    /* \"#utility.yul\":3185:3259   */\n  tag_41\n  jump\t// in\ntag_82:\n    /* \"#utility.yul\":3175:3259   */\n  swap3\n  pop\n    /* \"#utility.yul\":2978:3269   */\n  pop\n    /* \"#utility.yul\":3329:3331   */\n  0x20\n    /* \"#utility.yul\":3318:3327   */\n  dup4\n    /* \"#utility.yul\":3314:3332   */\n  add\n    /* \"#utility.yul\":3308:3333   */\n  mload\n    /* \"#utility.yul\":3360:3378   */\n  0xffffffffffffffff\n    /* \"#utility.yul\":3352:3358   */\n  dup2\n    /* \"#utility.yul\":3349:3379   */\n  gt\n    /* \"#utility.yul\":3346:3463   */\n  iszero\n  tag_83\n  jumpi\n    /* \"#utility.yul\":3382:3461   */\n  tag_84\n  tag_31\n  jump\t// in\ntag_84:\n    /* \"#utility.yul\":3346:3463   */\ntag_83:\n    /* \"#utility.yul\":3487:3561   */\n  tag_85\n    /* \"#utility.yul\":3553:3560   */\n  dup6\n    /* \"#utility.yul\":3544:3550   */\n  dup3\n    /* \"#utility.yul\":3533:3542   */\n  dup7\n    /* \"#utility.yul\":3529:3551   */\n  add\n    /* \"#utility.yul\":3487:3561   */\n  tag_41\n  jump\t// in\ntag_85:\n    /* \"#utility.yul\":3477:3561   */\n  swap2\n  pop\n    /* \"#utility.yul\":3279:3571   */\n  pop\n    /* \"#utility.yul\":2725:3578   */\n  swap3\n  pop\n  swap3\n  swap1\n  pop\n  jump\t// out\n    /* \"#utility.yul\":3584:3764   */\ntag_42:\n    /* \"#utility.yul\":3632:3709   */\n  0x4e487b7100000000000000000000000000000000000000000000000000000000\n    /* \"#utility.yul\":3629:3630   */\n  0x00\n    /* \"#utility.yul\":3622:3710   */\n  mstore\n    /* \"#utility.yul\":3729:3733   */\n  0x22\n    /* \"#utility.yul\":3726:3727   */\n  0x04\n    /* \"#utility.yul\":3719:3734   */\n  mstore\n    /* \"#utility.yul\":3753:3757   */\n  0x24\n    /* \"#utility.yul\":3750:3751   */\n  0x00\n    /* \"#utility.yul\":3743:3758   */\n  revert\n    /* \"#utility.yul\":3770:4090   */\ntag_19:\n    /* \"#utility.yul\":3814:3820   */\n  0x00\n    /* \"#utility.yul\":3851:3852   */\n  0x02\n    /* \"#utility.yul\":3845:3849   */\n  dup3\n    /* \"#utility.yul\":3841:3853   */\n  div\n    /* \"#utility.yul\":3831:3853   */\n  swap1\n  pop\n    /* \"#utility.yul\":3898:3899   */\n  0x01\n    /* \"#utility.yul\":3892:3896   */\n  dup3\n    /* \"#utility.yul\":3888:3900   */\n  and\n    /* \"#utility.yul\":3919:3937   */\n  dup1\n    /* \"#utility.yul\":3909:3990   */\n  tag_88\n  jumpi\n    /* \"#utility.yul\":3975:3979   */\n  0x7f\n    /* \"#utility.yul\":3967:3973   */\n  dup3\n    /* \"#utility.yul\":3963:3980   */\n  and\n    /* \"#utility.yul\":3953:3980   */\n  swap2\n  pop\n    /* \"#utility.yul\":3909:3990   */\ntag_88:\n    /* \"#utility.yul\":4037:4039   */\n  0x20\n    /* \"#utility.yul\":4029:4035   */\n  dup3\n    /* \"#utility.yul\":4026:4040   */\n  lt\n    /* \"#utility.yul\":4006:4024   */\n  dup2\n    /* \"#utility.yul\":4003:4041   */\n  eq\n    /* \"#utility.yul\":4000:4084   */\n  iszero\n  tag_89\n  jumpi\n    /* \"#utility.yul\":4056:4074   */\n  tag_90\n  tag_42\n  jump\t// in\ntag_90:\n    /* \"#utility.yul\":4000:4084   */\ntag_89:\n    /* \"#utility.yul\":3821:4090   */\n  pop\n    /* \"#utility.yul\":3770:4090   */\n  swap2\n  swap1\n  pop\n  jump\t// out\n    /* \"contracts/TimeERC721.sol\":334:16954  contract TimeERC721 is Context, ERC165, IERC721, IERC721Metadata, Ownable{... */\ntag_15:\n  dataSize(sub_0)\n  dup1\n  dataOffset(sub_0)\n  0x00\n  codecopy\n  0x00\n  return\nstop\n\nsub_0: assembly {\n        /* \"contracts/TimeERC721.sol\":334:16954  contract TimeERC721 is Context, ERC165, IERC721, IERC721Metadata, Ownable{... */\n      mstore(0x40, 0x80)\n      callvalue\n      dup1\n      iszero\n      tag_1\n      jumpi\n      0x00\n      dup1\n      revert\n    tag_1:\n      pop\n      jumpi(tag_2, lt(calldatasize, 0x04))\n      shr(0xe0, calldataload(0x00))\n      dup1\n      0x715018a6\n      gt\n      tag_19\n      jumpi\n      dup1\n      0xb88d4fde\n      gt\n      tag_20\n      jumpi\n      dup1\n      0xb88d4fde\n      eq\n      tag_15\n      jumpi\n      dup1\n      0xc87b56dd\n      eq\n      tag_16\n      jumpi\n      dup1\n      0xe985e9c5\n      eq\n      tag_17\n      jumpi\n      dup1\n      0xf2fde38b\n      eq\n      tag_18\n      jumpi\n      jump(tag_2)\n    tag_20:\n      dup1\n      0x715018a6\n      eq\n      tag_11\n      jumpi\n      dup1\n      0x8da5cb5b\n      eq\n      tag_12\n      jumpi\n      dup1\n      0x95d89b41\n      eq\n      tag_13\n      jumpi\n      dup1\n      0xa22cb465\n      eq\n      tag_14\n      jumpi\n      jump(tag_2)\n    tag_19:\n      dup1\n      0x23b872dd\n      gt\n      tag_21\n      jumpi\n      dup1\n      0x23b872dd\n      eq\n      tag_7\n      jumpi\n      dup1\n      0x42842e0e\n      eq\n      tag_8\n      jumpi\n      dup1\n      0x6352211e\n      eq\n      tag_9\n      jumpi\n      dup1\n      0x70a08231\n      eq\n      tag_10\n      jumpi\n      jump(tag_2)\n    tag_21:\n      dup1\n      0x01ffc9a7\n      eq\n      tag_3\n      jumpi\n      dup1\n      0x06fdde03\n      eq\n      tag_4\n      jumpi\n      dup1\n      0x081812fc\n      eq\n      tag_5\n      jumpi\n      dup1\n      0x095ea7b3\n      eq\n      tag_6\n      jumpi\n    tag_2:\n      0x00\n      dup1\n      revert\n        /* \"contracts/TimeERC721.sol\":1321:1618  function supportsInterface(bytes4 interfaceId) public view override(ERC165, IERC165) returns (bool) {... */\n    tag_3:\n      tag_22\n      0x04\n      dup1\n      calldatasize\n      sub\n      dup2\n      add\n      swap1\n      tag_23\n      swap2\n      swap1\n      tag_24\n      jump\t// in\n    tag_23:\n      tag_25\n      jump\t// in\n    tag_22:\n      mload(0x40)\n      tag_26\n      swap2\n      swap1\n      tag_27\n      jump\t// in\n    tag_26:\n      mload(0x40)\n      dup1\n      swap2\n      sub\n      swap1\n      return\n        /* \"contracts/TimeERC721.sol\":2205:2297  function name() public view override returns (string memory) {... */\n    tag_4:\n      tag_28\n      tag_29\n      jump\t// in\n    tag_28:\n      mload(0x40)\n      tag_30\n      swap2\n      swap1\n      tag_31\n      jump\t// in\n    tag_30:\n      mload(0x40)\n      dup1\n      swap2\n      sub\n      swap1\n      return\n        /* \"contracts/TimeERC721.sol\":3681:3844  function getApproved(uint256 tokenId) public view override returns (address) {... */\n    tag_5:\n      tag_32\n      0x04\n      dup1\n      calldatasize\n      sub\n      dup2\n      add\n      swap1\n      tag_33\n      swap2\n      swap1\n      tag_34\n      jump\t// in\n    tag_33:\n      tag_35\n      jump\t// in\n    tag_32:\n      mload(0x40)\n      tag_36\n      swap2\n      swap1\n      tag_37\n      jump\t// in\n    tag_36:\n      mload(0x40)\n      dup1\n      swap2\n      sub\n      swap1\n      return\n        /* \"contracts/TimeERC721.sol\":3203:3615  function approve(address to, uint256 tokenId) public override {... */\n    tag_6:\n      tag_38\n      0x04\n      dup1\n      calldatasize\n      sub\n      dup2\n      add\n      swap1\n      tag_39\n      swap2\n      swap1\n      tag_40\n      jump\t// in\n    tag_39:\n      tag_41\n      jump\t// in\n    tag_38:\n      stop\n        /* \"contracts/TimeERC721.sol\":4357:4650  function transferFrom(address from, address to, uint256 tokenId) public override {... */\n    tag_7:\n      tag_42\n      0x04\n      dup1\n      calldatasize\n      sub\n      dup2\n      add\n      swap1\n      tag_43\n      swap2\n      swap1\n      tag_44\n      jump\t// in\n    tag_43:\n      tag_45\n      jump\t// in\n    tag_42:\n      stop\n        /* \"contracts/TimeERC721.sol\":4721:4864  function safeTransferFrom(address from, address to, uint256 tokenId) public override {... */\n    tag_8:\n      tag_46\n      0x04\n      dup1\n      calldatasize\n      sub\n      dup2\n      add\n      swap1\n      tag_47\n      swap2\n      swap1\n      tag_44\n      jump\t// in\n    tag_47:\n      tag_48\n      jump\t// in\n    tag_46:\n      stop\n        /* \"contracts/TimeERC721.sol\":1922:2138  function ownerOf(uint256 tokenId) public view  override returns (address) {... */\n    tag_9:\n      tag_49\n      0x04\n      dup1\n      calldatasize\n      sub\n      dup2\n      add\n      swap1\n      tag_50\n      swap2\n      swap1\n      tag_34\n      jump\t// in\n    tag_50:\n      tag_51\n      jump\t// in\n    tag_49:\n      mload(0x40)\n      tag_52\n      swap2\n      swap1\n      tag_37\n      jump\t// in\n    tag_52:\n      mload(0x40)\n      dup1\n      swap2\n      sub\n      swap1\n      return\n        /* \"contracts/TimeERC721.sol\":1682:1860  function balanceOf(address owner) public view override returns (uint256) {... */\n    tag_10:\n      tag_53\n      0x04\n      dup1\n      calldatasize\n      sub\n      dup2\n      add\n      swap1\n      tag_54\n      swap2\n      swap1\n      tag_55\n      jump\t// in\n    tag_54:\n      tag_56\n      jump\t// in\n    tag_53:\n      mload(0x40)\n      tag_57\n      swap2\n      swap1\n      tag_58\n      jump\t// in\n    tag_57:\n      mload(0x40)\n      dup1\n      swap2\n      sub\n      swap1\n      return\n        /* \"contracts/Ownable.sol\":1877:1980  function renounceOwnership() public virtual onlyOwner {... */\n    tag_11:\n      tag_59\n      tag_60\n      jump\t// in\n    tag_59:\n      stop\n        /* \"contracts/Ownable.sol\":1236:1323  function owner() public view virtual returns (address) {... */\n    tag_12:\n      tag_61\n      tag_62\n      jump\t// in\n    tag_61:\n      mload(0x40)\n      tag_63\n      swap2\n      swap1\n      tag_37\n      jump\t// in\n    tag_63:\n      mload(0x40)\n      dup1\n      swap2\n      sub\n      swap1\n      return\n        /* \"contracts/TimeERC721.sol\":2366:2462  function symbol() public view override returns (string memory) {... */\n    tag_13:\n      tag_64\n      tag_65\n      jump\t// in\n    tag_64:\n      mload(0x40)\n      tag_66\n      swap2\n      swap1\n      tag_31\n      jump\t// in\n    tag_66:\n      mload(0x40)\n      dup1\n      swap2\n      sub\n      swap1\n      return\n        /* \"contracts/TimeERC721.sol\":3916:4063  function setApprovalForAll(address operator, bool approved) public override {... */\n    tag_14:\n      tag_67\n      0x04\n      dup1\n      calldatasize\n      sub\n      dup2\n      add\n      swap1\n      tag_68\n      swap2\n      swap1\n      tag_69\n      jump\t// in\n    tag_68:\n      tag_70\n      jump\t// in\n    tag_67:\n      stop\n        /* \"contracts/TimeERC721.sol\":4935:5206  function safeTransferFrom(address from, address to, uint256 tokenId, bytes memory data) public override {... */\n    tag_15:\n      tag_71\n      0x04\n      dup1\n      calldatasize\n      sub\n      dup2\n      add\n      swap1\n      tag_72\n      swap2\n      swap1\n      tag_73\n      jump\t// in\n    tag_72:\n      tag_74\n      jump\t// in\n    tag_71:\n      stop\n        /* \"contracts/TimeERC721.sol\":2533:2806  function tokenURI(uint256 tokenId) public view override returns (string memory) {... */\n    tag_16:\n      tag_75\n      0x04\n      dup1\n      calldatasize\n      sub\n      dup2\n      add\n      swap1\n      tag_76\n      swap2\n      swap1\n      tag_34\n      jump\t// in\n    tag_76:\n      tag_77\n      jump\t// in\n    tag_75:\n      mload(0x40)\n      tag_78\n      swap2\n      swap1\n      tag_31\n      jump\t// in\n    tag_78:\n      mload(0x40)\n      dup1\n      swap2\n      sub\n      swap1\n      return\n        /* \"contracts/TimeERC721.sol\":4134:4290  function isApprovedForAll(address owner, address operator) public view override returns (bool) {... */\n    tag_17:\n      tag_79\n      0x04\n      dup1\n      calldatasize\n      sub\n      dup2\n      add\n      swap1\n      tag_80\n      swap2\n      swap1\n      tag_81\n      jump\t// in\n    tag_80:\n      tag_82\n      jump\t// in\n    tag_79:\n      mload(0x40)\n      tag_83\n      swap2\n      swap1\n      tag_27\n      jump\t// in\n    tag_83:\n      mload(0x40)\n      dup1\n      swap2\n      sub\n      swap1\n      return\n        /* \"contracts/Ownable.sol\":2135:2336  function transferOwnership(address newOwner) public virtual onlyOwner {... */\n    tag_18:\n      tag_84\n      0x04\n      dup1\n      calldatasize\n      sub\n      dup2\n      add\n      swap1\n      tag_85\n      swap2\n      swap1\n      tag_55\n      jump\t// in\n    tag_85:\n      tag_86\n      jump\t// in\n    tag_84:\n      stop\n        /* \"contracts/TimeERC721.sol\":1321:1618  function supportsInterface(bytes4 interfaceId) public view override(ERC165, IERC165) returns (bool) {... */\n    tag_25:\n        /* \"contracts/TimeERC721.sol\":1415:1419  bool */\n      0x00\n        /* \"contracts/TimeERC721.sol\":1467:1492  type(IERC721).interfaceId */\n      0x80ac58cd00000000000000000000000000000000000000000000000000000000\n        /* \"contracts/TimeERC721.sol\":1452:1492  interfaceId == type(IERC721).interfaceId */\n      not(0xffffffffffffffffffffffffffffffffffffffffffffffffffffffff)\n      and\n        /* \"contracts/TimeERC721.sol\":1452:1463  interfaceId */\n      dup3\n        /* \"contracts/TimeERC721.sol\":1452:1492  interfaceId == type(IERC721).interfaceId */\n      not(0xffffffffffffffffffffffffffffffffffffffffffffffffffffffff)\n      and\n      eq\n        /* \"contracts/TimeERC721.sol\":1452:1557  interfaceId == type(IERC721).interfaceId ||... */\n      dup1\n      tag_88\n      jumpi\n      pop\n        /* \"contracts/TimeERC721.sol\":1524:1557  type(IERC721Metadata).interfaceId */\n      0x5b5e139f00000000000000000000000000000000000000000000000000000000\n        /* \"contracts/TimeERC721.sol\":1509:1557  interfaceId == type(IERC721Metadata).interfaceId */\n      not(0xffffffffffffffffffffffffffffffffffffffffffffffffffffffff)\n      and\n        /* \"contracts/TimeERC721.sol\":1509:1520  interfaceId */\n      dup3\n        /* \"contracts/TimeERC721.sol\":1509:1557  interfaceId == type(IERC721Metadata).interfaceId */\n      not(0xffffffffffffffffffffffffffffffffffffffffffffffffffffffff)\n      and\n      eq\n        /* \"contracts/TimeERC721.sol\":1452:1557  interfaceId == type(IERC721).interfaceId ||... */\n    tag_88:\n        /* \"contracts/TimeERC721.sol\":1452:1610  interfaceId == type(IERC721).interfaceId ||... */\n      dup1\n      tag_89\n      jumpi\n      pop\n        /* \"contracts/TimeERC721.sol\":1574:1610  super.supportsInterface(interfaceId) */\n      tag_90\n        /* \"contracts/TimeERC721.sol\":1598:1609  interfaceId */\n      dup3\n        /* \"contracts/TimeERC721.sol\":1574:1597  super.supportsInterface */\n      tag_91\n        /* \"contracts/TimeERC721.sol\":1574:1610  super.supportsInterface(interfaceId) */\n      jump\t// in\n    tag_90:\n        /* \"contracts/TimeERC721.sol\":1452:1610  interfaceId == type(IERC721).interfaceId ||... */\n    tag_89:\n        /* \"contracts/TimeERC721.sol\":1432:1610  return... */\n      swap1\n      pop\n        /* \"contracts/TimeERC721.sol\":1321:1618  function supportsInterface(bytes4 interfaceId) public view override(ERC165, IERC165) returns (bool) {... */\n      swap2\n      swap1\n      pop\n      jump\t// out\n        /* \"contracts/TimeERC721.sol\":2205:2297  function name() public view override returns (string memory) {... */\n    tag_29:\n        /* \"contracts/TimeERC721.sol\":2251:2264  string memory */\n      0x60\n        /* \"contracts/TimeERC721.sol\":2284:2289  _name */\n      0x01\n        /* \"contracts/TimeERC721.sol\":2277:2289  return _name */\n      dup1\n      sload\n      tag_93\n      swap1\n      tag_94\n      jump\t// in\n    tag_93:\n      dup1\n      0x1f\n      add\n      0x20\n      dup1\n      swap2\n      div\n      mul\n      0x20\n      add\n      mload(0x40)\n      swap1\n      dup2\n      add\n      0x40\n      mstore\n      dup1\n      swap3\n      swap2\n      swap1\n      dup2\n      dup2\n      mstore\n      0x20\n      add\n      dup3\n      dup1\n      sload\n      tag_95\n      swap1\n      tag_94\n      jump\t// in\n    tag_95:\n      dup1\n      iszero\n      tag_96\n      jumpi\n      dup1\n      0x1f\n      lt\n      tag_97\n      jumpi\n      0x0100\n      dup1\n      dup4\n      sload\n      div\n      mul\n      dup4\n      mstore\n      swap2\n      0x20\n      add\n      swap2\n      jump(tag_96)\n    tag_97:\n      dup3\n      add\n      swap2\n      swap1\n      0x00\n      mstore\n      keccak256(0x00, 0x20)\n      swap1\n    tag_98:\n      dup2\n      sload\n      dup2\n      mstore\n      swap1\n      0x01\n      add\n      swap1\n      0x20\n      add\n      dup1\n      dup4\n      gt\n      tag_98\n      jumpi\n      dup3\n      swap1\n      sub\n      0x1f\n      and\n      dup3\n      add\n      swap2\n    tag_96:\n      pop\n      pop\n      pop\n      pop\n      pop\n      swap1\n      pop\n        /* \"contracts/TimeERC721.sol\":2205:2297  function name() public view override returns (string memory) {... */\n      swap1\n      jump\t// out\n        /* \"contracts/TimeERC721.sol\":3681:3844  function getApproved(uint256 tokenId) public view override returns (address) {... */\n    tag_35:\n        /* \"contracts/TimeERC721.sol\":3749:3756  address */\n      0x00\n        /* \"contracts/TimeERC721.sol\":3769:3792  _requireMinted(tokenId) */\n      tag_100\n        /* \"contracts/TimeERC721.sol\":3784:3791  tokenId */\n      dup3\n        /* \"contracts/TimeERC721.sol\":3769:3783  _requireMinted */\n      tag_101\n        /* \"contracts/TimeERC721.sol\":3769:3792  _requireMinted(tokenId) */\n      jump\t// in\n    tag_100:\n        /* \"contracts/TimeERC721.sol\":3812:3827  _tokenApprovals */\n      0x05\n        /* \"contracts/TimeERC721.sol\":3812:3836  _tokenApprovals[tokenId] */\n      0x00\n        /* \"contracts/TimeERC721.sol\":3828:3835  tokenId */\n      dup4\n        /* \"contracts/TimeERC721.sol\":3812:3836  _tokenApprovals[tokenId] */\n      dup2\n      mstore\n      0x20\n      add\n      swap1\n      dup2\n      mstore\n      0x20\n      add\n      0x00\n      keccak256\n      0x00\n      swap1\n      sload\n      swap1\n      0x0100\n      exp\n      swap1\n      div\n      0xffffffffffffffffffffffffffffffffffffffff\n      and\n        /* \"contracts/TimeERC721.sol\":3805:3836  return _tokenApprovals[tokenId] */\n      swap1\n      pop\n        /* \"contracts/TimeERC721.sol\":3681:3844  function getApproved(uint256 tokenId) public view override returns (address) {... */\n      swap2\n      swap1\n      pop\n      jump\t// out\n        /* \"contracts/TimeERC721.sol\":3203:3615  function approve(address to, uint256 tokenId) public override {... */\n    tag_41:\n        /* \"contracts/TimeERC721.sol\":3276:3289  address owner */\n      0x00\n        /* \"contracts/TimeERC721.sol\":3292:3319  TimeERC721.ownerOf(tokenId) */\n      tag_103\n        /* \"contracts/TimeERC721.sol\":3311:3318  tokenId */\n      dup3\n        /* \"contracts/TimeERC721.sol\":3292:3310  TimeERC721.ownerOf */\n      tag_51\n        /* \"contracts/TimeERC721.sol\":3292:3319  TimeERC721.ownerOf(tokenId) */\n      jump\t// in\n    tag_103:\n        /* \"contracts/TimeERC721.sol\":3276:3319  address owner = TimeERC721.ownerOf(tokenId) */\n      swap1\n      pop\n        /* \"contracts/TimeERC721.sol\":3344:3349  owner */\n      dup1\n        /* \"contracts/TimeERC721.sol\":3338:3349  to != owner */\n      0xffffffffffffffffffffffffffffffffffffffff\n      and\n        /* \"contracts/TimeERC721.sol\":3338:3340  to */\n      dup4\n        /* \"contracts/TimeERC721.sol\":3338:3349  to != owner */\n      0xffffffffffffffffffffffffffffffffffffffff\n      and\n      eq\n      iszero\n        /* \"contracts/TimeERC721.sol\":3330:3387  require(to != owner, \"ERC721: approval to current owner\") */\n      tag_104\n      jumpi\n      mload(0x40)\n      0x08c379a000000000000000000000000000000000000000000000000000000000\n      dup2\n      mstore\n      0x04\n      add\n      tag_105\n      swap1\n      tag_106\n      jump\t// in\n    tag_105:\n      mload(0x40)\n      dup1\n      swap2\n      sub\n      swap1\n      revert\n    tag_104:\n        /* \"contracts/TimeERC721.sol\":3438:3443  owner */\n      dup1\n        /* \"contracts/TimeERC721.sol\":3422:3443  _msgSender() == owner */\n      0xffffffffffffffffffffffffffffffffffffffff\n      and\n        /* \"contracts/TimeERC721.sol\":3422:3434  _msgSender() */\n      tag_107\n        /* \"contracts/TimeERC721.sol\":3422:3432  _msgSender */\n      tag_108\n        /* \"contracts/TimeERC721.sol\":3422:3434  _msgSender() */\n      jump\t// in\n    tag_107:\n        /* \"contracts/TimeERC721.sol\":3422:3443  _msgSender() == owner */\n      0xffffffffffffffffffffffffffffffffffffffff\n      and\n      eq\n        /* \"contracts/TimeERC721.sol\":3422:3484  _msgSender() == owner || isApprovedForAll(owner, _msgSender()) */\n      dup1\n      tag_109\n      jumpi\n      pop\n        /* \"contracts/TimeERC721.sol\":3447:3484  isApprovedForAll(owner, _msgSender()) */\n      tag_110\n        /* \"contracts/TimeERC721.sol\":3464:3469  owner */\n      dup2\n        /* \"contracts/TimeERC721.sol\":3471:3483  _msgSender() */\n      tag_111\n        /* \"contracts/TimeERC721.sol\":3471:3481  _msgSender */\n      tag_108\n        /* \"contracts/TimeERC721.sol\":3471:3483  _msgSender() */\n      jump\t// in\n    tag_111:\n        /* \"contracts/TimeERC721.sol\":3447:3463  isApprovedForAll */\n      tag_82\n        /* \"contracts/TimeERC721.sol\":3447:3484  isApprovedForAll(owner, _msgSender()) */\n      jump\t// in\n    tag_110:\n        /* \"contracts/TimeERC721.sol\":3422:3484  _msgSender() == owner || isApprovedForAll(owner, _msgSender()) */\n    tag_109:\n        /* \"contracts/TimeERC721.sol\":3400:3573  require(... */\n      tag_112\n      jumpi\n      mload(0x40)\n      0x08c379a000000000000000000000000000000000000000000000000000000000\n      dup2\n      mstore\n      0x04\n      add\n      tag_113\n      swap1\n      tag_114\n      jump\t// in\n    tag_113:\n      mload(0x40)\n      dup1\n      swap2\n      sub\n      swap1\n      revert\n    tag_112:\n        /* \"contracts/TimeERC721.sol\":3586:3607  _approve(to, tokenId) */\n      tag_115\n        /* \"contracts/TimeERC721.sol\":3595:3597  to */\n      dup4\n        /* \"contracts/TimeERC721.sol\":3599:3606  tokenId */\n      dup4\n        /* \"contracts/TimeERC721.sol\":3586:3594  _approve */\n      tag_116\n        /* \"contracts/TimeERC721.sol\":3586:3607  _approve(to, tokenId) */\n      jump\t// in\n    tag_115:\n        /* \"contracts/TimeERC721.sol\":3265:3615  {... */\n      pop\n        /* \"contracts/TimeERC721.sol\":3203:3615  function approve(address to, uint256 tokenId) public override {... */\n      pop\n      pop\n      jump\t// out\n        /* \"contracts/TimeERC721.sol\":4357:4650  function transferFrom(address from, address to, uint256 tokenId) public override {... */\n    tag_45:\n        /* \"contracts/TimeERC721.sol\":4510:4551  _isApprovedOrOwner(_msgSender(), tokenId) */\n      tag_118\n        /* \"contracts/TimeERC721.sol\":4529:4541  _msgSender() */\n      tag_119\n        /* \"contracts/TimeERC721.sol\":4529:4539  _msgSender */\n      tag_108\n        /* \"contracts/TimeERC721.sol\":4529:4541  _msgSender() */\n      jump\t// in\n    tag_119:\n        /* \"contracts/TimeERC721.sol\":4543:4550  tokenId */\n      dup3\n        /* \"contracts/TimeERC721.sol\":4510:4528  _isApprovedOrOwner */\n      tag_120\n        /* \"contracts/TimeERC721.sol\":4510:4551  _isApprovedOrOwner(_msgSender(), tokenId) */\n      jump\t// in\n    tag_118:\n        /* \"contracts/TimeERC721.sol\":4502:4601  require(_isApprovedOrOwner(_msgSender(), tokenId), \"ERC721: caller is not token owner or approved\") */\n      tag_121\n      jumpi\n      mload(0x40)\n      0x08c379a000000000000000000000000000000000000000000000000000000000\n      dup2\n      mstore\n      0x04\n      add\n      tag_122\n      swap1\n      tag_123\n      jump\t// in\n    tag_122:\n      mload(0x40)\n      dup1\n      swap2\n      sub\n      swap1\n      revert\n    tag_121:\n        /* \"contracts/TimeERC721.sol\":4614:4642  _transfer(from, to, tokenId) */\n      tag_124\n        /* \"contracts/TimeERC721.sol\":4624:4628  from */\n      dup4\n        /* \"contracts/TimeERC721.sol\":4630:4632  to */\n      dup4\n        /* \"contracts/TimeERC721.sol\":4634:4641  tokenId */\n      dup4\n        /* \"contracts/TimeERC721.sol\":4614:4623  _transfer */\n      tag_125\n        /* \"contracts/TimeERC721.sol\":4614:4642  _transfer(from, to, tokenId) */\n      jump\t// in\n    tag_124:\n        /* \"contracts/TimeERC721.sol\":4357:4650  function transferFrom(address from, address to, uint256 tokenId) public override {... */\n      pop\n      pop\n      pop\n      jump\t// out\n        /* \"contracts/TimeERC721.sol\":4721:4864  function safeTransferFrom(address from, address to, uint256 tokenId) public override {... */\n    tag_48:\n        /* \"contracts/TimeERC721.sol\":4817:4856  safeTransferFrom(from, to, tokenId, \"\") */\n      tag_127\n        /* \"contracts/TimeERC721.sol\":4834:4838  from */\n      dup4\n        /* \"contracts/TimeERC721.sol\":4840:4842  to */\n      dup4\n        /* \"contracts/TimeERC721.sol\":4844:4851  tokenId */\n      dup4\n        /* \"contracts/TimeERC721.sol\":4817:4856  safeTransferFrom(from, to, tokenId, \"\") */\n      mload(0x40)\n      dup1\n      0x20\n      add\n      0x40\n      mstore\n      dup1\n      0x00\n      dup2\n      mstore\n      pop\n        /* \"contracts/TimeERC721.sol\":4817:4833  safeTransferFrom */\n      tag_74\n        /* \"contracts/TimeERC721.sol\":4817:4856  safeTransferFrom(from, to, tokenId, \"\") */\n      jump\t// in\n    tag_127:\n        /* \"contracts/TimeERC721.sol\":4721:4864  function safeTransferFrom(address from, address to, uint256 tokenId) public override {... */\n      pop\n      pop\n      pop\n      jump\t// out\n        /* \"contracts/TimeERC721.sol\":1922:2138  function ownerOf(uint256 tokenId) public view  override returns (address) {... */\n    tag_51:\n        /* \"contracts/TimeERC721.sol\":1987:1994  address */\n      0x00\n        /* \"contracts/TimeERC721.sol\":2007:2020  address owner */\n      dup1\n        /* \"contracts/TimeERC721.sol\":2023:2040  _ownerOf(tokenId) */\n      tag_129\n        /* \"contracts/TimeERC721.sol\":2032:2039  tokenId */\n      dup4\n        /* \"contracts/TimeERC721.sol\":2023:2031  _ownerOf */\n      tag_130\n        /* \"contracts/TimeERC721.sol\":2023:2040  _ownerOf(tokenId) */\n      jump\t// in\n    tag_129:\n        /* \"contracts/TimeERC721.sol\":2007:2040  address owner = _ownerOf(tokenId) */\n      swap1\n      pop\n        /* \"contracts/TimeERC721.sol\":2076:2077  0 */\n      0x00\n        /* \"contracts/TimeERC721.sol\":2059:2078  owner != address(0) */\n      0xffffffffffffffffffffffffffffffffffffffff\n      and\n        /* \"contracts/TimeERC721.sol\":2059:2064  owner */\n      dup2\n        /* \"contracts/TimeERC721.sol\":2059:2078  owner != address(0) */\n      0xffffffffffffffffffffffffffffffffffffffff\n      and\n      eq\n      iszero\n        /* \"contracts/TimeERC721.sol\":2051:2107  require(owner != address(0), \"ERC721: invalid token ID\") */\n      tag_131\n      jumpi\n      mload(0x40)\n      0x08c379a000000000000000000000000000000000000000000000000000000000\n      dup2\n      mstore\n      0x04\n      add\n      tag_132\n      swap1\n      tag_133\n      jump\t// in\n    tag_132:\n      mload(0x40)\n      dup1\n      swap2\n      sub\n      swap1\n      revert\n    tag_131:\n        /* \"contracts/TimeERC721.sol\":2125:2130  owner */\n      dup1\n        /* \"contracts/TimeERC721.sol\":2118:2130  return owner */\n      swap2\n      pop\n      pop\n        /* \"contracts/TimeERC721.sol\":1922:2138  function ownerOf(uint256 tokenId) public view  override returns (address) {... */\n      swap2\n      swap1\n      pop\n      jump\t// out\n        /* \"contracts/TimeERC721.sol\":1682:1860  function balanceOf(address owner) public view override returns (uint256) {... */\n    tag_56:\n        /* \"contracts/TimeERC721.sol\":1746:1753  uint256 */\n      0x00\n        /* \"contracts/TimeERC721.sol\":1791:1792  0 */\n      dup1\n        /* \"contracts/TimeERC721.sol\":1774:1793  owner != address(0) */\n      0xffffffffffffffffffffffffffffffffffffffff\n      and\n        /* \"contracts/TimeERC721.sol\":1774:1779  owner */\n      dup3\n        /* \"contracts/TimeERC721.sol\":1774:1793  owner != address(0) */\n      0xffffffffffffffffffffffffffffffffffffffff\n      and\n      eq\n      iszero\n        /* \"contracts/TimeERC721.sol\":1766:1818  require(owner != address(0), \"ERC721: address zero\") */\n      tag_135\n      jumpi\n      mload(0x40)\n      0x08c379a000000000000000000000000000000000000000000000000000000000\n      dup2\n      mstore\n      0x04\n      add\n      tag_136\n      swap1\n      tag_137\n      jump\t// in\n    tag_136:\n      mload(0x40)\n      dup1\n      swap2\n      sub\n      swap1\n      revert\n    tag_135:\n        /* \"contracts/TimeERC721.sol\":1836:1845  _balances */\n      0x04\n        /* \"contracts/TimeERC721.sol\":1836:1852  _balances[owner] */\n      0x00\n        /* \"contracts/TimeERC721.sol\":1846:1851  owner */\n      dup4\n        /* \"contracts/TimeERC721.sol\":1836:1852  _balances[owner] */\n      0xffffffffffffffffffffffffffffffffffffffff\n      and\n      0xffffffffffffffffffffffffffffffffffffffff\n      and\n      dup2\n      mstore\n      0x20\n      add\n      swap1\n      dup2\n      mstore\n      0x20\n      add\n      0x00\n      keccak256\n      sload\n        /* \"contracts/TimeERC721.sol\":1829:1852  return _balances[owner] */\n      swap1\n      pop\n        /* \"contracts/TimeERC721.sol\":1682:1860  function balanceOf(address owner) public view override returns (uint256) {... */\n      swap2\n      swap1\n      pop\n      jump\t// out\n        /* \"contracts/Ownable.sol\":1877:1980  function renounceOwnership() public virtual onlyOwner {... */\n    tag_60:\n        /* \"contracts/Ownable.sol\":1122:1135  _checkOwner() */\n      tag_139\n        /* \"contracts/Ownable.sol\":1122:1133  _checkOwner */\n      tag_140\n        /* \"contracts/Ownable.sol\":1122:1135  _checkOwner() */\n      jump\t// in\n    tag_139:\n        /* \"contracts/Ownable.sol\":1942:1972  _transferOwnership(address(0)) */\n      tag_142\n        /* \"contracts/Ownable.sol\":1969:1970  0 */\n      0x00\n        /* \"contracts/Ownable.sol\":1942:1960  _transferOwnership */\n      tag_143\n        /* \"contracts/Ownable.sol\":1942:1972  _transferOwnership(address(0)) */\n      jump\t// in\n    tag_142:\n        /* \"contracts/Ownable.sol\":1877:1980  function renounceOwnership() public virtual onlyOwner {... */\n      jump\t// out\n        /* \"contracts/Ownable.sol\":1236:1323  function owner() public view virtual returns (address) {... */\n    tag_62:\n        /* \"contracts/Ownable.sol\":1282:1289  address */\n      0x00\n        /* \"contracts/Ownable.sol\":1309:1315  _owner */\n      dup1\n      0x00\n      swap1\n      sload\n      swap1\n      0x0100\n      exp\n      swap1\n      div\n      0xffffffffffffffffffffffffffffffffffffffff\n      and\n        /* \"contracts/Ownable.sol\":1302:1315  return _owner */\n      swap1\n      pop\n        /* \"contracts/Ownable.sol\":1236:1323  function owner() public view virtual returns (address) {... */\n      swap1\n      jump\t// out\n        /* \"contracts/TimeERC721.sol\":2366:2462  function symbol() public view override returns (string memory) {... */\n    tag_65:\n        /* \"contracts/TimeERC721.sol\":2414:2427  string memory */\n      0x60\n        /* \"contracts/TimeERC721.sol\":2447:2454  _symbol */\n      0x02\n        /* \"contracts/TimeERC721.sol\":2440:2454  return _symbol */\n      dup1\n      sload\n      tag_146\n      swap1\n      tag_94\n      jump\t// in\n    tag_146:\n      dup1\n      0x1f\n      add\n      0x20\n      dup1\n      swap2\n      div\n      mul\n      0x20\n      add\n      mload(0x40)\n      swap1\n      dup2\n      add\n      0x40\n      mstore\n      dup1\n      swap3\n      swap2\n      swap1\n      dup2\n      dup2\n      mstore\n      0x20\n      add\n      dup3\n      dup1\n      sload\n      tag_147\n      swap1\n      tag_94\n      jump\t// in\n    tag_147:\n      dup1\n      iszero\n      tag_148\n      jumpi\n      dup1\n      0x1f\n      lt\n      tag_149\n      jumpi\n      0x0100\n      dup1\n      dup4\n      sload\n      div\n      mul\n      dup4\n      mstore\n      swap2\n      0x20\n      add\n      swap2\n      jump(tag_148)\n    tag_149:\n      dup3\n      add\n      swap2\n      swap1\n      0x00\n      mstore\n      keccak256(0x00, 0x20)\n      swap1\n    tag_150:\n      dup2\n      sload\n      dup2\n      mstore\n      swap1\n      0x01\n      add\n      swap1\n      0x20\n      add\n      dup1\n      dup4\n      gt\n      tag_150\n      jumpi\n      dup3\n      swap1\n      sub\n      0x1f\n      and\n      dup3\n      add\n      swap2\n    tag_148:\n      pop\n      pop\n      pop\n      pop\n      pop\n      swap1\n      pop\n        /* \"contracts/TimeERC721.sol\":2366:2462  function symbol() public view override returns (string memory) {... */\n      swap1\n      jump\t// out\n        /* \"contracts/TimeERC721.sol\":3916:4063  function setApprovalForAll(address operator, bool approved) public override {... */\n    tag_70:\n        /* \"contracts/TimeERC721.sol\":4003:4055  _setApprovalForAll(_msgSender(), operator, approved) */\n      tag_152\n        /* \"contracts/TimeERC721.sol\":4022:4034  _msgSender() */\n      tag_153\n        /* \"contracts/TimeERC721.sol\":4022:4032  _msgSender */\n      tag_108\n        /* \"contracts/TimeERC721.sol\":4022:4034  _msgSender() */\n      jump\t// in\n    tag_153:\n        /* \"contracts/TimeERC721.sol\":4036:4044  operator */\n      dup4\n        /* \"contracts/TimeERC721.sol\":4046:4054  approved */\n      dup4\n        /* \"contracts/TimeERC721.sol\":4003:4021  _setApprovalForAll */\n      tag_154\n        /* \"contracts/TimeERC721.sol\":4003:4055  _setApprovalForAll(_msgSender(), operator, approved) */\n      jump\t// in\n    tag_152:\n        /* \"contracts/TimeERC721.sol\":3916:4063  function setApprovalForAll(address operator, bool approved) public override {... */\n      pop\n      pop\n      jump\t// out\n        /* \"contracts/TimeERC721.sol\":4935:5206  function safeTransferFrom(address from, address to, uint256 tokenId, bytes memory data) public override {... */\n    tag_74:\n        /* \"contracts/TimeERC721.sol\":5058:5099  _isApprovedOrOwner(_msgSender(), tokenId) */\n      tag_156\n        /* \"contracts/TimeERC721.sol\":5077:5089  _msgSender() */\n      tag_157\n        /* \"contracts/TimeERC721.sol\":5077:5087  _msgSender */\n      tag_108\n        /* \"contracts/TimeERC721.sol\":5077:5089  _msgSender() */\n      jump\t// in\n    tag_157:\n        /* \"contracts/TimeERC721.sol\":5091:5098  tokenId */\n      dup4\n        /* \"contracts/TimeERC721.sol\":5058:5076  _isApprovedOrOwner */\n      tag_120\n        /* \"contracts/TimeERC721.sol\":5058:5099  _isApprovedOrOwner(_msgSender(), tokenId) */\n      jump\t// in\n    tag_156:\n        /* \"contracts/TimeERC721.sol\":5050:5149  require(_isApprovedOrOwner(_msgSender(), tokenId), \"ERC721: caller is not token owner or approved\") */\n      tag_158\n      jumpi\n      mload(0x40)\n      0x08c379a000000000000000000000000000000000000000000000000000000000\n      dup2\n      mstore\n      0x04\n      add\n      tag_159\n      swap1\n      tag_123\n      jump\t// in\n    tag_159:\n      mload(0x40)\n      dup1\n      swap2\n      sub\n      swap1\n      revert\n    tag_158:\n        /* \"contracts/TimeERC721.sol\":5160:5198  _safeTransfer(from, to, tokenId, data) */\n      tag_160\n        /* \"contracts/TimeERC721.sol\":5174:5178  from */\n      dup5\n        /* \"contracts/TimeERC721.sol\":5180:5182  to */\n      dup5\n        /* \"contracts/TimeERC721.sol\":5184:5191  tokenId */\n      dup5\n        /* \"contracts/TimeERC721.sol\":5193:5197  data */\n      dup5\n        /* \"contracts/TimeERC721.sol\":5160:5173  _safeTransfer */\n      tag_161\n        /* \"contracts/TimeERC721.sol\":5160:5198  _safeTransfer(from, to, tokenId, data) */\n      jump\t// in\n    tag_160:\n        /* \"contracts/TimeERC721.sol\":4935:5206  function safeTransferFrom(address from, address to, uint256 tokenId, bytes memory data) public override {... */\n      pop\n      pop\n      pop\n      pop\n      jump\t// out\n        /* \"contracts/TimeERC721.sol\":2533:2806  function tokenURI(uint256 tokenId) public view override returns (string memory) {... */\n    tag_77:\n        /* \"contracts/TimeERC721.sol\":2598:2611  string memory */\n      0x60\n        /* \"contracts/TimeERC721.sol\":2624:2647  _requireMinted(tokenId) */\n      tag_163\n        /* \"contracts/TimeERC721.sol\":2639:2646  tokenId */\n      dup3\n        /* \"contracts/TimeERC721.sol\":2624:2638  _requireMinted */\n      tag_101\n        /* \"contracts/TimeERC721.sol\":2624:2647  _requireMinted(tokenId) */\n      jump\t// in\n    tag_163:\n        /* \"contracts/TimeERC721.sol\":2660:2681  string memory baseURI */\n      0x00\n        /* \"contracts/TimeERC721.sol\":2684:2694  _baseURI() */\n      tag_164\n        /* \"contracts/TimeERC721.sol\":2684:2692  _baseURI */\n      tag_165\n        /* \"contracts/TimeERC721.sol\":2684:2694  _baseURI() */\n      jump\t// in\n    tag_164:\n        /* \"contracts/TimeERC721.sol\":2660:2694  string memory baseURI = _baseURI() */\n      swap1\n      pop\n        /* \"contracts/TimeERC721.sol\":2736:2737  0 */\n      0x00\n        /* \"contracts/TimeERC721.sol\":2718:2725  baseURI */\n      dup2\n        /* \"contracts/TimeERC721.sol\":2712:2733  bytes(baseURI).length */\n      mload\n        /* \"contracts/TimeERC721.sol\":2712:2737  bytes(baseURI).length > 0 */\n      gt\n        /* \"contracts/TimeERC721.sol\":2712:2798  bytes(baseURI).length > 0 ? string(abi.encodePacked(baseURI, tokenId.toString())) : \"\" */\n      tag_166\n      jumpi\n      mload(0x40)\n      dup1\n      0x20\n      add\n      0x40\n      mstore\n      dup1\n      0x00\n      dup2\n      mstore\n      pop\n      jump(tag_167)\n    tag_166:\n        /* \"contracts/TimeERC721.sol\":2764:2771  baseURI */\n      dup1\n        /* \"contracts/TimeERC721.sol\":2773:2791  tokenId.toString() */\n      tag_168\n        /* \"contracts/TimeERC721.sol\":2773:2780  tokenId */\n      dup5\n        /* \"contracts/TimeERC721.sol\":2773:2789  tokenId.toString */\n      tag_169\n        /* \"contracts/TimeERC721.sol\":2773:2791  tokenId.toString() */\n      jump\t// in\n    tag_168:\n        /* \"contracts/TimeERC721.sol\":2747:2792  abi.encodePacked(baseURI, tokenId.toString()) */\n      add(0x20, mload(0x40))\n      tag_170\n      swap3\n      swap2\n      swap1\n      tag_171\n      jump\t// in\n    tag_170:\n      mload(0x40)\n      0x20\n      dup2\n      dup4\n      sub\n      sub\n      dup2\n      mstore\n      swap1\n      0x40\n      mstore\n        /* \"contracts/TimeERC721.sol\":2712:2798  bytes(baseURI).length > 0 ? string(abi.encodePacked(baseURI, tokenId.toString())) : \"\" */\n    tag_167:\n        /* \"contracts/TimeERC721.sol\":2705:2798  return bytes(baseURI).length > 0 ? string(abi.encodePacked(baseURI, tokenId.toString())) : \"\" */\n      swap2\n      pop\n      pop\n        /* \"contracts/TimeERC721.sol\":2533:2806  function tokenURI(uint256 tokenId) public view override returns (string memory) {... */\n      swap2\n      swap1\n      pop\n      jump\t// out\n        /* \"contracts/TimeERC721.sol\":4134:4290  function isApprovedForAll(address owner, address operator) public view override returns (bool) {... */\n    tag_82:\n        /* \"contracts/TimeERC721.sol\":4223:4227  bool */\n      0x00\n        /* \"contracts/TimeERC721.sol\":4247:4265  _operatorApprovals */\n      0x06\n        /* \"contracts/TimeERC721.sol\":4247:4272  _operatorApprovals[owner] */\n      0x00\n        /* \"contracts/TimeERC721.sol\":4266:4271  owner */\n      dup5\n        /* \"contracts/TimeERC721.sol\":4247:4272  _operatorApprovals[owner] */\n      0xffffffffffffffffffffffffffffffffffffffff\n      and\n      0xffffffffffffffffffffffffffffffffffffffff\n      and\n      dup2\n      mstore\n      0x20\n      add\n      swap1\n      dup2\n      mstore\n      0x20\n      add\n      0x00\n      keccak256\n        /* \"contracts/TimeERC721.sol\":4247:4282  _operatorApprovals[owner][operator] */\n      0x00\n        /* \"contracts/TimeERC721.sol\":4273:4281  operator */\n      dup4\n        /* \"contracts/TimeERC721.sol\":4247:4282  _operatorApprovals[owner][operator] */\n      0xffffffffffffffffffffffffffffffffffffffff\n      and\n      0xffffffffffffffffffffffffffffffffffffffff\n      and\n      dup2\n      mstore\n      0x20\n      add\n      swap1\n      dup2\n      mstore\n      0x20\n      add\n      0x00\n      keccak256\n      0x00\n      swap1\n      sload\n      swap1\n      0x0100\n      exp\n      swap1\n      div\n      0xff\n      and\n        /* \"contracts/TimeERC721.sol\":4240:4282  return _operatorApprovals[owner][operator] */\n      swap1\n      pop\n        /* \"contracts/TimeERC721.sol\":4134:4290  function isApprovedForAll(address owner, address operator) public view override returns (bool) {... */\n      swap3\n      swap2\n      pop\n      pop\n      jump\t// out\n        /* \"contracts/Ownable.sol\":2135:2336  function transferOwnership(address newOwner) public virtual onlyOwner {... */\n    tag_86:\n        /* \"contracts/Ownable.sol\":1122:1135  _checkOwner() */\n      tag_174\n        /* \"contracts/Ownable.sol\":1122:1133  _checkOwner */\n      tag_140\n        /* \"contracts/Ownable.sol\":1122:1135  _checkOwner() */\n      jump\t// in\n    tag_174:\n        /* \"contracts/Ownable.sol\":2244:2245  0 */\n      0x00\n        /* \"contracts/Ownable.sol\":2224:2246  newOwner != address(0) */\n      0xffffffffffffffffffffffffffffffffffffffff\n      and\n        /* \"contracts/Ownable.sol\":2224:2232  newOwner */\n      dup2\n        /* \"contracts/Ownable.sol\":2224:2246  newOwner != address(0) */\n      0xffffffffffffffffffffffffffffffffffffffff\n      and\n      eq\n      iszero\n        /* \"contracts/Ownable.sol\":2216:2289  require(newOwner != address(0), \"Ownable: new owner is the zero address\") */\n      tag_176\n      jumpi\n      mload(0x40)\n      0x08c379a000000000000000000000000000000000000000000000000000000000\n      dup2\n      mstore\n      0x04\n      add\n      tag_177\n      swap1\n      tag_178\n      jump\t// in\n    tag_177:\n      mload(0x40)\n      dup1\n      swap2\n      sub\n      swap1\n      revert\n    tag_176:\n        /* \"contracts/Ownable.sol\":2300:2328  _transferOwnership(newOwner) */\n      tag_179\n        /* \"contracts/Ownable.sol\":2319:2327  newOwner */\n      dup2\n        /* \"contracts/Ownable.sol\":2300:2318  _transferOwnership */\n      tag_143\n        /* \"contracts/Ownable.sol\":2300:2328  _transferOwnership(newOwner) */\n      jump\t// in\n    tag_179:\n        /* \"contracts/Ownable.sol\":2135:2336  function transferOwnership(address newOwner) public virtual onlyOwner {... */\n      pop\n      jump\t// out\n        /* \"contracts/ERC165.sol\":866:1023  function supportsInterface(bytes4 interfaceId) public view virtual override returns (bool) {... */\n    tag_91:\n        /* \"contracts/ERC165.sol\":951:955  bool */\n      0x00\n        /* \"contracts/ERC165.sol\":990:1015  type(IERC165).interfaceId */\n      0x01ffc9a700000000000000000000000000000000000000000000000000000000\n        /* \"contracts/ERC165.sol\":975:1015  interfaceId == type(IERC165).interfaceId */\n      not(0xffffffffffffffffffffffffffffffffffffffffffffffffffffffff)\n      and\n        /* \"contracts/ERC165.sol\":975:986  interfaceId */\n      dup3\n        /* \"contracts/ERC165.sol\":975:1015  interfaceId == type(IERC165).interfaceId */\n      not(0xffffffffffffffffffffffffffffffffffffffffffffffffffffffff)\n      and\n      eq\n        /* \"contracts/ERC165.sol\":968:1015  return interfaceId == type(IERC165).interfaceId */\n      swap1\n      pop\n        /* \"contracts/ERC165.sol\":866:1023  function supportsInterface(bytes4 interfaceId) public view virtual override returns (bool) {... */\n      swap2\n      swap1\n      pop\n      jump\t// out\n        /* \"contracts/TimeERC721.sol\":13132:13259  function _requireMinted(uint256 tokenId) internal view {... */\n    tag_101:\n        /* \"contracts/TimeERC721.sol\":13206:13222  _exists(tokenId) */\n      tag_182\n        /* \"contracts/TimeERC721.sol\":13214:13221  tokenId */\n      dup2\n        /* \"contracts/TimeERC721.sol\":13206:13213  _exists */\n      tag_183\n        /* \"contracts/TimeERC721.sol\":13206:13222  _exists(tokenId) */\n      jump\t// in\n    tag_182:\n        /* \"contracts/TimeERC721.sol\":13198:13251  require(_exists(tokenId), \"ERC721: invalid token ID\") */\n      tag_184\n      jumpi\n      mload(0x40)\n      0x08c379a000000000000000000000000000000000000000000000000000000000\n      dup2\n      mstore\n      0x04\n      add\n      tag_185\n      swap1\n      tag_133\n      jump\t// in\n    tag_185:\n      mload(0x40)\n      dup1\n      swap2\n      sub\n      swap1\n      revert\n    tag_184:\n        /* \"contracts/TimeERC721.sol\":13132:13259  function _requireMinted(uint256 tokenId) internal view {... */\n      pop\n      jump\t// out\n        /* \"contracts/Context.sol\":671:769  function _msgSender() internal view virtual returns (address) {... */\n    tag_108:\n        /* \"contracts/Context.sol\":724:731  address */\n      0x00\n        /* \"contracts/Context.sol\":751:761  msg.sender */\n      caller\n        /* \"contracts/Context.sol\":744:761  return msg.sender */\n      swap1\n      pop\n        /* \"contracts/Context.sol\":671:769  function _msgSender() internal view virtual returns (address) {... */\n      swap1\n      jump\t// out\n        /* \"contracts/TimeERC721.sol\":12457:12627  function _approve(address to, uint256 tokenId) internal {... */\n    tag_116:\n        /* \"contracts/TimeERC721.sol\":12551:12553  to */\n      dup2\n        /* \"contracts/TimeERC721.sol\":12524:12539  _tokenApprovals */\n      0x05\n        /* \"contracts/TimeERC721.sol\":12524:12548  _tokenApprovals[tokenId] */\n      0x00\n        /* \"contracts/TimeERC721.sol\":12540:12547  tokenId */\n      dup4\n        /* \"contracts/TimeERC721.sol\":12524:12548  _tokenApprovals[tokenId] */\n      dup2\n      mstore\n      0x20\n      add\n      swap1\n      dup2\n      mstore\n      0x20\n      add\n      0x00\n      keccak256\n      0x00\n        /* \"contracts/TimeERC721.sol\":12524:12553  _tokenApprovals[tokenId] = to */\n      0x0100\n      exp\n      dup2\n      sload\n      dup2\n      0xffffffffffffffffffffffffffffffffffffffff\n      mul\n      not\n      and\n      swap1\n      dup4\n      0xffffffffffffffffffffffffffffffffffffffff\n      and\n      mul\n      or\n      swap1\n      sstore\n      pop\n        /* \"contracts/TimeERC721.sol\":12611:12618  tokenId */\n      dup1\n        /* \"contracts/TimeERC721.sol\":12607:12609  to */\n      dup3\n        /* \"contracts/TimeERC721.sol\":12569:12619  Approval(TimeERC721.ownerOf(tokenId), to, tokenId) */\n      0xffffffffffffffffffffffffffffffffffffffff\n      and\n        /* \"contracts/TimeERC721.sol\":12578:12605  TimeERC721.ownerOf(tokenId) */\n      tag_188\n        /* \"contracts/TimeERC721.sol\":12597:12604  tokenId */\n      dup4\n        /* \"contracts/TimeERC721.sol\":12578:12596  TimeERC721.ownerOf */\n      tag_51\n        /* \"contracts/TimeERC721.sol\":12578:12605  TimeERC721.ownerOf(tokenId) */\n      jump\t// in\n    tag_188:\n        /* \"contracts/TimeERC721.sol\":12569:12619  Approval(TimeERC721.ownerOf(tokenId), to, tokenId) */\n      0xffffffffffffffffffffffffffffffffffffffff\n      and\n      0x8c5be1e5ebec7d5bd14f71427d1e84f3dd0314c0f7b2291e5b200ac8c7c3b925\n      mload(0x40)\n      mload(0x40)\n      dup1\n      swap2\n      sub\n      swap1\n      log4\n        /* \"contracts/TimeERC721.sol\":12457:12627  function _approve(address to, uint256 tokenId) internal {... */\n      pop\n      pop\n      jump\t// out\n        /* \"contracts/TimeERC721.sol\":7172:7432  function _isApprovedOrOwner(address spender, uint256 tokenId) internal view returns (bool) {... */\n    tag_120:\n        /* \"contracts/TimeERC721.sol\":7257:7261  bool */\n      0x00\n        /* \"contracts/TimeERC721.sol\":7274:7287  address owner */\n      dup1\n        /* \"contracts/TimeERC721.sol\":7290:7317  TimeERC721.ownerOf(tokenId) */\n      tag_190\n        /* \"contracts/TimeERC721.sol\":7309:7316  tokenId */\n      dup4\n        /* \"contracts/TimeERC721.sol\":7290:7308  TimeERC721.ownerOf */\n      tag_51\n        /* \"contracts/TimeERC721.sol\":7290:7317  TimeERC721.ownerOf(tokenId) */\n      jump\t// in\n    tag_190:\n        /* \"contracts/TimeERC721.sol\":7274:7317  address owner = TimeERC721.ownerOf(tokenId) */\n      swap1\n      pop\n        /* \"contracts/TimeERC721.sol\":7347:7352  owner */\n      dup1\n        /* \"contracts/TimeERC721.sol\":7336:7352  spender == owner */\n      0xffffffffffffffffffffffffffffffffffffffff\n      and\n        /* \"contracts/TimeERC721.sol\":7336:7343  spender */\n      dup5\n        /* \"contracts/TimeERC721.sol\":7336:7352  spender == owner */\n      0xffffffffffffffffffffffffffffffffffffffff\n      and\n      eq\n        /* \"contracts/TimeERC721.sol\":7336:7388  spender == owner || isApprovedForAll(owner, spender) */\n      dup1\n      tag_191\n      jumpi\n      pop\n        /* \"contracts/TimeERC721.sol\":7356:7388  isApprovedForAll(owner, spender) */\n      tag_192\n        /* \"contracts/TimeERC721.sol\":7373:7378  owner */\n      dup2\n        /* \"contracts/TimeERC721.sol\":7380:7387  spender */\n      dup6\n        /* \"contracts/TimeERC721.sol\":7356:7372  isApprovedForAll */\n      tag_82\n        /* \"contracts/TimeERC721.sol\":7356:7388  isApprovedForAll(owner, spender) */\n      jump\t// in\n    tag_192:\n        /* \"contracts/TimeERC721.sol\":7336:7388  spender == owner || isApprovedForAll(owner, spender) */\n    tag_191:\n        /* \"contracts/TimeERC721.sol\":7336:7423  spender == owner || isApprovedForAll(owner, spender) || getApproved(tokenId) == spender */\n      dup1\n      tag_193\n      jumpi\n      pop\n        /* \"contracts/TimeERC721.sol\":7416:7423  spender */\n      dup4\n        /* \"contracts/TimeERC721.sol\":7392:7423  getApproved(tokenId) == spender */\n      0xffffffffffffffffffffffffffffffffffffffff\n      and\n        /* \"contracts/TimeERC721.sol\":7392:7412  getApproved(tokenId) */\n      tag_194\n        /* \"contracts/TimeERC721.sol\":7404:7411  tokenId */\n      dup5\n        /* \"contracts/TimeERC721.sol\":7392:7403  getApproved */\n      tag_35\n        /* \"contracts/TimeERC721.sol\":7392:7412  getApproved(tokenId) */\n      jump\t// in\n    tag_194:\n        /* \"contracts/TimeERC721.sol\":7392:7423  getApproved(tokenId) == spender */\n      0xffffffffffffffffffffffffffffffffffffffff\n      and\n      eq\n        /* \"contracts/TimeERC721.sol\":7336:7423  spender == owner || isApprovedForAll(owner, spender) || getApproved(tokenId) == spender */\n    tag_193:\n        /* \"contracts/TimeERC721.sol\":7328:7424  return (spender == owner || isApprovedForAll(owner, spender) || getApproved(tokenId) == spender) */\n      swap2\n      pop\n      pop\n        /* \"contracts/TimeERC721.sol\":7172:7432  function _isApprovedOrOwner(address spender, uint256 tokenId) internal view returns (bool) {... */\n      swap3\n      swap2\n      pop\n      pop\n      jump\t// out\n        /* \"contracts/TimeERC721.sol\":11109:12338  function _transfer(address from, address to, uint256 tokenId) internal {... */\n    tag_125:\n        /* \"contracts/TimeERC721.sol\":11230:11234  from */\n      dup3\n        /* \"contracts/TimeERC721.sol\":11199:11234  TimeERC721.ownerOf(tokenId) == from */\n      0xffffffffffffffffffffffffffffffffffffffff\n      and\n        /* \"contracts/TimeERC721.sol\":11199:11226  TimeERC721.ownerOf(tokenId) */\n      tag_196\n        /* \"contracts/TimeERC721.sol\":11218:11225  tokenId */\n      dup3\n        /* \"contracts/TimeERC721.sol\":11199:11217  TimeERC721.ownerOf */\n      tag_51\n        /* \"contracts/TimeERC721.sol\":11199:11226  TimeERC721.ownerOf(tokenId) */\n      jump\t// in\n    tag_196:\n        /* \"contracts/TimeERC721.sol\":11199:11234  TimeERC721.ownerOf(tokenId) == from */\n      0xffffffffffffffffffffffffffffffffffffffff\n      and\n      eq\n        /* \"contracts/TimeERC721.sol\":11191:11276  require(TimeERC721.ownerOf(tokenId) == from, \"ERC721: transfer from incorrect owner\") */\n      tag_197\n      jumpi\n      mload(0x40)\n      0x08c379a000000000000000000000000000000000000000000000000000000000\n      dup2\n      mstore\n      0x04\n      add\n      tag_198\n      swap1\n      tag_199\n      jump\t// in\n    tag_198:\n      mload(0x40)\n      dup1\n      swap2\n      sub\n      swap1\n      revert\n    tag_197:\n        /* \"contracts/TimeERC721.sol\":11309:11310  0 */\n      0x00\n        /* \"contracts/TimeERC721.sol\":11295:11311  to != address(0) */\n      0xffffffffffffffffffffffffffffffffffffffff\n      and\n        /* \"contracts/TimeERC721.sol\":11295:11297  to */\n      dup3\n        /* \"contracts/TimeERC721.sol\":11295:11311  to != address(0) */\n      0xffffffffffffffffffffffffffffffffffffffff\n      and\n      eq\n      iszero\n        /* \"contracts/TimeERC721.sol\":11287:11352  require(to != address(0), \"ERC721: transfer to the zero address\") */\n      tag_200\n      jumpi\n      mload(0x40)\n      0x08c379a000000000000000000000000000000000000000000000000000000000\n      dup2\n      mstore\n      0x04\n      add\n      tag_201\n      swap1\n      tag_202\n      jump\t// in\n    tag_201:\n      mload(0x40)\n      dup1\n      swap2\n      sub\n      swap1\n      revert\n    tag_200:\n        /* \"contracts/TimeERC721.sol\":11365:11407  _beforeTokenTransfer(from, to, tokenId, 1) */\n      tag_203\n        /* \"contracts/TimeERC721.sol\":11386:11390  from */\n      dup4\n        /* \"contracts/TimeERC721.sol\":11392:11394  to */\n      dup4\n        /* \"contracts/TimeERC721.sol\":11396:11403  tokenId */\n      dup4\n        /* \"contracts/TimeERC721.sol\":11405:11406  1 */\n      0x01\n        /* \"contracts/TimeERC721.sol\":11365:11385  _beforeTokenTransfer */\n      tag_204\n        /* \"contracts/TimeERC721.sol\":11365:11407  _beforeTokenTransfer(from, to, tokenId, 1) */\n      jump\t// in\n    tag_203:\n        /* \"contracts/TimeERC721.sol\":11541:11545  from */\n      dup3\n        /* \"contracts/TimeERC721.sol\":11510:11545  TimeERC721.ownerOf(tokenId) == from */\n      0xffffffffffffffffffffffffffffffffffffffff\n      and\n        /* \"contracts/TimeERC721.sol\":11510:11537  TimeERC721.ownerOf(tokenId) */\n      tag_205\n        /* \"contracts/TimeERC721.sol\":11529:11536  tokenId */\n      dup3\n        /* \"contracts/TimeERC721.sol\":11510:11528  TimeERC721.ownerOf */\n      tag_51\n        /* \"contracts/TimeERC721.sol\":11510:11537  TimeERC721.ownerOf(tokenId) */\n      jump\t// in\n    tag_205:\n        /* \"contracts/TimeERC721.sol\":11510:11545  TimeERC721.ownerOf(tokenId) == from */\n      0xffffffffffffffffffffffffffffffffffffffff\n      and\n      eq\n        /* \"contracts/TimeERC721.sol\":11502:11587  require(TimeERC721.ownerOf(tokenId) == from, \"ERC721: transfer from incorrect owner\") */\n      tag_206\n      jumpi\n      mload(0x40)\n      0x08c379a000000000000000000000000000000000000000000000000000000000\n      dup2\n      mstore\n      0x04\n      add\n      tag_207\n      swap1\n      tag_199\n      jump\t// in\n    tag_207:\n      mload(0x40)\n      dup1\n      swap2\n      sub\n      swap1\n      revert\n    tag_206:\n        /* \"contracts/TimeERC721.sol\":11659:11674  _tokenApprovals */\n      0x05\n        /* \"contracts/TimeERC721.sol\":11659:11683  _tokenApprovals[tokenId] */\n      0x00\n        /* \"contracts/TimeERC721.sol\":11675:11682  tokenId */\n      dup3\n        /* \"contracts/TimeERC721.sol\":11659:11683  _tokenApprovals[tokenId] */\n      dup2\n      mstore\n      0x20\n      add\n      swap1\n      dup2\n      mstore\n      0x20\n      add\n      0x00\n      keccak256\n      0x00\n        /* \"contracts/TimeERC721.sol\":11652:11683  delete _tokenApprovals[tokenId] */\n      0x0100\n      exp\n      dup2\n      sload\n      swap1\n      0xffffffffffffffffffffffffffffffffffffffff\n      mul\n      not\n      and\n      swap1\n      sstore\n        /* \"contracts/TimeERC721.sol\":12154:12155  1 */\n      0x01\n        /* \"contracts/TimeERC721.sol\":12135:12144  _balances */\n      0x04\n        /* \"contracts/TimeERC721.sol\":12135:12150  _balances[from] */\n      0x00\n        /* \"contracts/TimeERC721.sol\":12145:12149  from */\n      dup6\n        /* \"contracts/TimeERC721.sol\":12135:12150  _balances[from] */\n      0xffffffffffffffffffffffffffffffffffffffff\n      and\n      0xffffffffffffffffffffffffffffffffffffffff\n      and\n      dup2\n      mstore\n      0x20\n      add\n      swap1\n      dup2\n      mstore\n      0x20\n      add\n      0x00\n      keccak256\n      0x00\n        /* \"contracts/TimeERC721.sol\":12135:12155  _balances[from] -= 1 */\n      dup3\n      dup3\n      sload\n      sub\n      swap3\n      pop\n      pop\n      dup2\n      swap1\n      sstore\n      pop\n        /* \"contracts/TimeERC721.sol\":12187:12188  1 */\n      0x01\n        /* \"contracts/TimeERC721.sol\":12170:12179  _balances */\n      0x04\n        /* \"contracts/TimeERC721.sol\":12170:12183  _balances[to] */\n      0x00\n        /* \"contracts/TimeERC721.sol\":12180:12182  to */\n      dup5\n        /* \"contracts/TimeERC721.sol\":12170:12183  _balances[to] */\n      0xffffffffffffffffffffffffffffffffffffffff\n      and\n      0xffffffffffffffffffffffffffffffffffffffff\n      and\n      dup2\n      mstore\n      0x20\n      add\n      swap1\n      dup2\n      mstore\n      0x20\n      add\n      0x00\n      keccak256\n      0x00\n        /* \"contracts/TimeERC721.sol\":12170:12188  _balances[to] += 1 */\n      dup3\n      dup3\n      sload\n      add\n      swap3\n      pop\n      pop\n      dup2\n      swap1\n      sstore\n      pop\n        /* \"contracts/TimeERC721.sol\":12229:12231  to */\n      dup2\n        /* \"contracts/TimeERC721.sol\":12210:12217  _owners */\n      0x03\n        /* \"contracts/TimeERC721.sol\":12210:12226  _owners[tokenId] */\n      0x00\n        /* \"contracts/TimeERC721.sol\":12218:12225  tokenId */\n      dup4\n        /* \"contracts/TimeERC721.sol\":12210:12226  _owners[tokenId] */\n      dup2\n      mstore\n      0x20\n      add\n      swap1\n      dup2\n      mstore\n      0x20\n      add\n      0x00\n      keccak256\n      0x00\n        /* \"contracts/TimeERC721.sol\":12210:12231  _owners[tokenId] = to */\n      0x0100\n      exp\n      dup2\n      sload\n      dup2\n      0xffffffffffffffffffffffffffffffffffffffff\n      mul\n      not\n      and\n      swap1\n      dup4\n      0xffffffffffffffffffffffffffffffffffffffff\n      and\n      mul\n      or\n      swap1\n      sstore\n      pop\n        /* \"contracts/TimeERC721.sol\":12268:12275  tokenId */\n      dup1\n        /* \"contracts/TimeERC721.sol\":12264:12266  to */\n      dup3\n        /* \"contracts/TimeERC721.sol\":12249:12276  Transfer(from, to, tokenId) */\n      0xffffffffffffffffffffffffffffffffffffffff\n      and\n        /* \"contracts/TimeERC721.sol\":12258:12262  from */\n      dup5\n        /* \"contracts/TimeERC721.sol\":12249:12276  Transfer(from, to, tokenId) */\n      0xffffffffffffffffffffffffffffffffffffffff\n      and\n      0xddf252ad1be2c89b69c2b068fc378daa952ba7f163c4a11628f55a4df523b3ef\n      mload(0x40)\n      mload(0x40)\n      dup1\n      swap2\n      sub\n      swap1\n      log4\n        /* \"contracts/TimeERC721.sol\":12289:12330  _afterTokenTransfer(from, to, tokenId, 1) */\n      tag_208\n        /* \"contracts/TimeERC721.sol\":12309:12313  from */\n      dup4\n        /* \"contracts/TimeERC721.sol\":12315:12317  to */\n      dup4\n        /* \"contracts/TimeERC721.sol\":12319:12326  tokenId */\n      dup4\n        /* \"contracts/TimeERC721.sol\":12328:12329  1 */\n      0x01\n        /* \"contracts/TimeERC721.sol\":12289:12308  _afterTokenTransfer */\n      tag_209\n        /* \"contracts/TimeERC721.sol\":12289:12330  _afterTokenTransfer(from, to, tokenId, 1) */\n      jump\t// in\n    tag_208:\n        /* \"contracts/TimeERC721.sol\":11109:12338  function _transfer(address from, address to, uint256 tokenId) internal {... */\n      pop\n      pop\n      pop\n      jump\t// out\n        /* \"contracts/TimeERC721.sol\":6463:6572  function _ownerOf(uint256 tokenId) internal view returns (address) {... */\n    tag_130:\n        /* \"contracts/TimeERC721.sol\":6521:6528  address */\n      0x00\n        /* \"contracts/TimeERC721.sol\":6548:6555  _owners */\n      0x03\n        /* \"contracts/TimeERC721.sol\":6548:6564  _owners[tokenId] */\n      0x00\n        /* \"contracts/TimeERC721.sol\":6556:6563  tokenId */\n      dup4\n        /* \"contracts/TimeERC721.sol\":6548:6564  _owners[tokenId] */\n      dup2\n      mstore\n      0x20\n      add\n      swap1\n      dup2\n      mstore\n      0x20\n      add\n      0x00\n      keccak256\n      0x00\n      swap1\n      sload\n      swap1\n      0x0100\n      exp\n      swap1\n      div\n      0xffffffffffffffffffffffffffffffffffffffff\n      and\n        /* \"contracts/TimeERC721.sol\":6541:6564  return _owners[tokenId] */\n      swap1\n      pop\n        /* \"contracts/TimeERC721.sol\":6463:6572  function _ownerOf(uint256 tokenId) internal view returns (address) {... */\n      swap2\n      swap1\n      pop\n      jump\t// out\n        /* \"contracts/Ownable.sol\":1401:1533  function _checkOwner() internal view virtual {... */\n    tag_140:\n        /* \"contracts/Ownable.sol\":1476:1488  _msgSender() */\n      tag_212\n        /* \"contracts/Ownable.sol\":1476:1486  _msgSender */\n      tag_108\n        /* \"contracts/Ownable.sol\":1476:1488  _msgSender() */\n      jump\t// in\n    tag_212:\n        /* \"contracts/Ownable.sol\":1465:1488  owner() == _msgSender() */\n      0xffffffffffffffffffffffffffffffffffffffff\n      and\n        /* \"contracts/Ownable.sol\":1465:1472  owner() */\n      tag_213\n        /* \"contracts/Ownable.sol\":1465:1470  owner */\n      tag_62\n        /* \"contracts/Ownable.sol\":1465:1472  owner() */\n      jump\t// in\n    tag_213:\n        /* \"contracts/Ownable.sol\":1465:1488  owner() == _msgSender() */\n      0xffffffffffffffffffffffffffffffffffffffff\n      and\n      eq\n        /* \"contracts/Ownable.sol\":1457:1525  require(owner() == _msgSender(), \"Ownable: caller is not the owner\") */\n      tag_214\n      jumpi\n      mload(0x40)\n      0x08c379a000000000000000000000000000000000000000000000000000000000\n      dup2\n      mstore\n      0x04\n      add\n      tag_215\n      swap1\n      tag_216\n      jump\t// in\n    tag_215:\n      mload(0x40)\n      dup1\n      swap2\n      sub\n      swap1\n      revert\n    tag_214:\n        /* \"contracts/Ownable.sol\":1401:1533  function _checkOwner() internal view virtual {... */\n      jump\t// out\n        /* \"contracts/Ownable.sol\":2496:2687  function _transferOwnership(address newOwner) internal virtual {... */\n    tag_143:\n        /* \"contracts/Ownable.sol\":2570:2586  address oldOwner */\n      0x00\n        /* \"contracts/Ownable.sol\":2589:2595  _owner */\n      dup1\n      0x00\n      swap1\n      sload\n      swap1\n      0x0100\n      exp\n      swap1\n      div\n      0xffffffffffffffffffffffffffffffffffffffff\n      and\n        /* \"contracts/Ownable.sol\":2570:2595  address oldOwner = _owner */\n      swap1\n      pop\n        /* \"contracts/Ownable.sol\":2615:2623  newOwner */\n      dup2\n        /* \"contracts/Ownable.sol\":2606:2612  _owner */\n      0x00\n      dup1\n        /* \"contracts/Ownable.sol\":2606:2623  _owner = newOwner */\n      0x0100\n      exp\n      dup2\n      sload\n      dup2\n      0xffffffffffffffffffffffffffffffffffffffff\n      mul\n      not\n      and\n      swap1\n      dup4\n      0xffffffffffffffffffffffffffffffffffffffff\n      and\n      mul\n      or\n      swap1\n      sstore\n      pop\n        /* \"contracts/Ownable.sol\":2670:2678  newOwner */\n      dup2\n        /* \"contracts/Ownable.sol\":2639:2679  OwnershipTransferred(oldOwner, newOwner) */\n      0xffffffffffffffffffffffffffffffffffffffff\n      and\n        /* \"contracts/Ownable.sol\":2660:2668  oldOwner */\n      dup2\n        /* \"contracts/Ownable.sol\":2639:2679  OwnershipTransferred(oldOwner, newOwner) */\n      0xffffffffffffffffffffffffffffffffffffffff\n      and\n      0x8be0079c531659141344cd1fd0a4f28419497f9722a3daafe3b4186f6b6457e0\n      mload(0x40)\n      mload(0x40)\n      dup1\n      swap2\n      sub\n      swap1\n      log3\n        /* \"contracts/Ownable.sol\":2559:2687  {... */\n      pop\n        /* \"contracts/Ownable.sol\":2496:2687  function _transferOwnership(address newOwner) internal virtual {... */\n      pop\n      jump\t// out\n        /* \"contracts/TimeERC721.sol\":12770:13043  function _setApprovalForAll(address owner, address operator, bool approved) internal {... */\n    tag_154:\n        /* \"contracts/TimeERC721.sol\":12883:12891  operator */\n      dup2\n        /* \"contracts/TimeERC721.sol\":12874:12891  owner != operator */\n      0xffffffffffffffffffffffffffffffffffffffff\n      and\n        /* \"contracts/TimeERC721.sol\":12874:12879  owner */\n      dup4\n        /* \"contracts/TimeERC721.sol\":12874:12891  owner != operator */\n      0xffffffffffffffffffffffffffffffffffffffff\n      and\n      eq\n      iszero\n        /* \"contracts/TimeERC721.sol\":12866:12921  require(owner != operator, \"ERC721: approve to caller\") */\n      tag_219\n      jumpi\n      mload(0x40)\n      0x08c379a000000000000000000000000000000000000000000000000000000000\n      dup2\n      mstore\n      0x04\n      add\n      tag_220\n      swap1\n      tag_221\n      jump\t// in\n    tag_220:\n      mload(0x40)\n      dup1\n      swap2\n      sub\n      swap1\n      revert\n    tag_219:\n        /* \"contracts/TimeERC721.sol\":12970:12978  approved */\n      dup1\n        /* \"contracts/TimeERC721.sol\":12932:12950  _operatorApprovals */\n      0x06\n        /* \"contracts/TimeERC721.sol\":12932:12957  _operatorApprovals[owner] */\n      0x00\n        /* \"contracts/TimeERC721.sol\":12951:12956  owner */\n      dup6\n        /* \"contracts/TimeERC721.sol\":12932:12957  _operatorApprovals[owner] */\n      0xffffffffffffffffffffffffffffffffffffffff\n      and\n      0xffffffffffffffffffffffffffffffffffffffff\n      and\n      dup2\n      mstore\n      0x20\n      add\n      swap1\n      dup2\n      mstore\n      0x20\n      add\n      0x00\n      keccak256\n        /* \"contracts/TimeERC721.sol\":12932:12967  _operatorApprovals[owner][operator] */\n      0x00\n        /* \"contracts/TimeERC721.sol\":12958:12966  operator */\n      dup5\n        /* \"contracts/TimeERC721.sol\":12932:12967  _operatorApprovals[owner][operator] */\n      0xffffffffffffffffffffffffffffffffffffffff\n      and\n      0xffffffffffffffffffffffffffffffffffffffff\n      and\n      dup2\n      mstore\n      0x20\n      add\n      swap1\n      dup2\n      mstore\n      0x20\n      add\n      0x00\n      keccak256\n      0x00\n        /* \"contracts/TimeERC721.sol\":12932:12978  _operatorApprovals[owner][operator] = approved */\n      0x0100\n      exp\n      dup2\n      sload\n      dup2\n      0xff\n      mul\n      not\n      and\n      swap1\n      dup4\n      iszero\n      iszero\n      mul\n      or\n      swap1\n      sstore\n      pop\n        /* \"contracts/TimeERC721.sol\":13016:13024  operator */\n      dup2\n        /* \"contracts/TimeERC721.sol\":12994:13035  ApprovalForAll(owner, operator, approved) */\n      0xffffffffffffffffffffffffffffffffffffffff\n      and\n        /* \"contracts/TimeERC721.sol\":13009:13014  owner */\n      dup4\n        /* \"contracts/TimeERC721.sol\":12994:13035  ApprovalForAll(owner, operator, approved) */\n      0xffffffffffffffffffffffffffffffffffffffff\n      and\n      0x17307eab39ab6107e8899845ad3d59bd9653f200f220920489ca2b5937696c31\n        /* \"contracts/TimeERC721.sol\":13026:13034  approved */\n      dup4\n        /* \"contracts/TimeERC721.sol\":12994:13035  ApprovalForAll(owner, operator, approved) */\n      mload(0x40)\n      tag_222\n      swap2\n      swap1\n      tag_27\n      jump\t// in\n    tag_222:\n      mload(0x40)\n      dup1\n      swap2\n      sub\n      swap1\n      log3\n        /* \"contracts/TimeERC721.sol\":12770:13043  function _setApprovalForAll(address owner, address operator, bool approved) internal {... */\n      pop\n      pop\n      pop\n      jump\t// out\n        /* \"contracts/TimeERC721.sol\":6087:6349  function _safeTransfer(address from, address to, uint256 tokenId, bytes memory data) internal {... */\n    tag_161:\n        /* \"contracts/TimeERC721.sol\":6192:6220  _transfer(from, to, tokenId) */\n      tag_224\n        /* \"contracts/TimeERC721.sol\":6202:6206  from */\n      dup5\n        /* \"contracts/TimeERC721.sol\":6208:6210  to */\n      dup5\n        /* \"contracts/TimeERC721.sol\":6212:6219  tokenId */\n      dup5\n        /* \"contracts/TimeERC721.sol\":6192:6201  _transfer */\n      tag_125\n        /* \"contracts/TimeERC721.sol\":6192:6220  _transfer(from, to, tokenId) */\n      jump\t// in\n    tag_224:\n        /* \"contracts/TimeERC721.sol\":6239:6286  _checkOnERC721Received(from, to, tokenId, data) */\n      tag_225\n        /* \"contracts/TimeERC721.sol\":6262:6266  from */\n      dup5\n        /* \"contracts/TimeERC721.sol\":6268:6270  to */\n      dup5\n        /* \"contracts/TimeERC721.sol\":6272:6279  tokenId */\n      dup5\n        /* \"contracts/TimeERC721.sol\":6281:6285  data */\n      dup5\n        /* \"contracts/TimeERC721.sol\":6239:6261  _checkOnERC721Received */\n      tag_226\n        /* \"contracts/TimeERC721.sol\":6239:6286  _checkOnERC721Received(from, to, tokenId, data) */\n      jump\t// in\n    tag_225:\n        /* \"contracts/TimeERC721.sol\":6231:6341  require(_checkOnERC721Received(from, to, tokenId, data), \"ERC721: transfer to non ERC721Receiver implementer\") */\n      tag_227\n      jumpi\n      mload(0x40)\n      0x08c379a000000000000000000000000000000000000000000000000000000000\n      dup2\n      mstore\n      0x04\n      add\n      tag_228\n      swap1\n      tag_229\n      jump\t// in\n    tag_228:\n      mload(0x40)\n      dup1\n      swap2\n      sub\n      swap1\n      revert\n    tag_227:\n        /* \"contracts/TimeERC721.sol\":6087:6349  function _safeTransfer(address from, address to, uint256 tokenId, bytes memory data) internal {... */\n      pop\n      pop\n      pop\n      pop\n      jump\t// out\n        /* \"contracts/TimeERC721.sol\":3055:3141  function _baseURI() internal view returns (string memory) {... */\n    tag_165:\n        /* \"contracts/TimeERC721.sol\":3098:3111  string memory */\n      0x60\n        /* \"contracts/TimeERC721.sol\":3124:3133  return \"\" */\n      mload(0x40)\n      dup1\n      0x20\n      add\n      0x40\n      mstore\n      dup1\n      0x00\n      dup2\n      mstore\n      pop\n      swap1\n      pop\n        /* \"contracts/TimeERC721.sol\":3055:3141  function _baseURI() internal view returns (string memory) {... */\n      swap1\n      jump\t// out\n        /* \"libraries/Strings.sol\":455:1171  function toString(uint256 value) internal pure returns (string memory) {... */\n    tag_169:\n        /* \"libraries/Strings.sol\":511:524  string memory */\n      0x60\n        /* \"libraries/Strings.sol\":562:576  uint256 length */\n      0x00\n        /* \"libraries/Strings.sol\":599:600  1 */\n      0x01\n        /* \"libraries/Strings.sol\":579:596  Math.log10(value) */\n      tag_232\n        /* \"libraries/Strings.sol\":590:595  value */\n      dup5\n        /* \"libraries/Strings.sol\":579:589  Math.log10 */\n      tag_233\n        /* \"libraries/Strings.sol\":579:596  Math.log10(value) */\n      jump\t// in\n    tag_232:\n        /* \"libraries/Strings.sol\":579:600  Math.log10(value) + 1 */\n      add\n        /* \"libraries/Strings.sol\":562:600  uint256 length = Math.log10(value) + 1 */\n      swap1\n      pop\n        /* \"libraries/Strings.sol\":615:635  string memory buffer */\n      0x00\n        /* \"libraries/Strings.sol\":649:655  length */\n      dup2\n        /* \"libraries/Strings.sol\":638:656  new string(length) */\n      0xffffffffffffffff\n      dup2\n      gt\n      iszero\n      tag_234\n      jumpi\n      tag_235\n      tag_236\n      jump\t// in\n    tag_235:\n    tag_234:\n      mload(0x40)\n      swap1\n      dup1\n      dup3\n      mstore\n      dup1\n      0x1f\n      add\n      not(0x1f)\n      and\n      0x20\n      add\n      dup3\n      add\n      0x40\n      mstore\n      dup1\n      iszero\n      tag_237\n      jumpi\n      dup2\n      0x20\n      add\n      0x01\n      dup3\n      mul\n      dup1\n      calldatasize\n      dup4\n      calldatacopy\n      dup1\n      dup3\n      add\n      swap2\n      pop\n      pop\n      swap1\n      pop\n    tag_237:\n      pop\n        /* \"libraries/Strings.sol\":615:656  string memory buffer = new string(length) */\n      swap1\n      pop\n        /* \"libraries/Strings.sol\":671:682  uint256 ptr */\n      0x00\n        /* \"libraries/Strings.sol\":800:806  length */\n      dup3\n        /* \"libraries/Strings.sol\":796:798  32 */\n      0x20\n        /* \"libraries/Strings.sol\":792:807  add(32, length) */\n      add\n        /* \"libraries/Strings.sol\":784:790  buffer */\n      dup3\n        /* \"libraries/Strings.sol\":780:808  add(buffer, add(32, length)) */\n      add\n        /* \"libraries/Strings.sol\":773:808  ptr := add(buffer, add(32, length)) */\n      swap1\n      pop\n        /* \"libraries/Strings.sol\":837:1125  while (true) {... */\n    tag_238:\n        /* \"libraries/Strings.sol\":844:848  true */\n      0x01\n        /* \"libraries/Strings.sol\":837:1125  while (true) {... */\n      iszero\n      tag_239\n      jumpi\n        /* \"libraries/Strings.sol\":869:874  ptr-- */\n      dup1\n      dup1\n      0x01\n      swap1\n      sub\n      swap2\n      pop\n      pop\n        /* \"libraries/Strings.sol\":1011:1019  _SYMBOLS */\n      0x3031323334353637383961626364656600000000000000000000000000000000\n        /* \"libraries/Strings.sol\":1006:1008  10 */\n      0x0a\n        /* \"libraries/Strings.sol\":999:1004  value */\n      dup7\n        /* \"libraries/Strings.sol\":995:1009  mod(value, 10) */\n      mod\n        /* \"libraries/Strings.sol\":990:1020  byte(mod(value, 10), _SYMBOLS) */\n      byte\n        /* \"libraries/Strings.sol\":985:988  ptr */\n      dup2\n        /* \"libraries/Strings.sol\":977:1021  mstore8(ptr, byte(mod(value, 10), _SYMBOLS)) */\n      mstore8\n        /* \"libraries/Strings.sol\":1067:1069  10 */\n      0x0a\n        /* \"libraries/Strings.sol\":1058:1069  value /= 10 */\n      dup6\n      dup2\n      tag_240\n      jumpi\n      tag_241\n      tag_242\n      jump\t// in\n    tag_241:\n    tag_240:\n      div\n      swap5\n      pop\n        /* \"libraries/Strings.sol\":1101:1102  0 */\n      0x00\n        /* \"libraries/Strings.sol\":1092:1097  value */\n      dup6\n        /* \"libraries/Strings.sol\":1092:1102  value == 0 */\n      eq\n        /* \"libraries/Strings.sol\":1088:1109  if (value == 0) break */\n      iszero\n      tag_243\n      jumpi\n        /* \"libraries/Strings.sol\":1104:1109  break */\n      jump(tag_239)\n        /* \"libraries/Strings.sol\":1088:1109  if (value == 0) break */\n    tag_243:\n        /* \"libraries/Strings.sol\":837:1125  while (true) {... */\n      jump(tag_238)\n    tag_239:\n        /* \"libraries/Strings.sol\":1146:1152  buffer */\n      dup2\n        /* \"libraries/Strings.sol\":1139:1152  return buffer */\n      swap4\n      pop\n      pop\n      pop\n      pop\n        /* \"libraries/Strings.sol\":455:1171  function toString(uint256 value) internal pure returns (string memory) {... */\n      swap2\n      swap1\n      pop\n      jump\t// out\n        /* \"contracts/TimeERC721.sol\":6885:7005  function _exists(uint256 tokenId) internal view returns (bool) {... */\n    tag_183:\n        /* \"contracts/TimeERC721.sol\":6942:6946  bool */\n      0x00\n        /* \"contracts/TimeERC721.sol\":6995:6996  0 */\n      dup1\n        /* \"contracts/TimeERC721.sol\":6966:6997  _ownerOf(tokenId) != address(0) */\n      0xffffffffffffffffffffffffffffffffffffffff\n      and\n        /* \"contracts/TimeERC721.sol\":6966:6983  _ownerOf(tokenId) */\n      tag_245\n        /* \"contracts/TimeERC721.sol\":6975:6982  tokenId */\n      dup4\n        /* \"contracts/TimeERC721.sol\":6966:6974  _ownerOf */\n      tag_130\n        /* \"contracts/TimeERC721.sol\":6966:6983  _ownerOf(tokenId) */\n      jump\t// in\n    tag_245:\n        /* \"contracts/TimeERC721.sol\":6966:6997  _ownerOf(tokenId) != address(0) */\n      0xffffffffffffffffffffffffffffffffffffffff\n      and\n      eq\n      iszero\n        /* \"contracts/TimeERC721.sol\":6959:6997  return _ownerOf(tokenId) != address(0) */\n      swap1\n      pop\n        /* \"contracts/TimeERC721.sol\":6885:7005  function _exists(uint256 tokenId) internal view returns (bool) {... */\n      swap2\n      swap1\n      pop\n      jump\t// out\n        /* \"contracts/TimeERC721.sol\":15408:15516  function _beforeTokenTransfer(address from, address to, uint256 firstTokenId, uint256 batchSize) internal {} */\n    tag_204:\n      pop\n      pop\n      pop\n      pop\n      jump\t// out\n        /* \"contracts/TimeERC721.sol\":16238:16345  function _afterTokenTransfer(address from, address to, uint256 firstTokenId, uint256 batchSize) internal {} */\n    tag_209:\n      pop\n      pop\n      pop\n      pop\n      jump\t// out\n        /* \"contracts/TimeERC721.sol\":13823:14676  function _checkOnERC721Received(... */\n    tag_226:\n        /* \"contracts/TimeERC721.sol\":13977:13981  bool */\n      0x00\n        /* \"contracts/TimeERC721.sol\":13998:14013  to.isContract() */\n      tag_249\n        /* \"contracts/TimeERC721.sol\":13998:14000  to */\n      dup5\n        /* \"contracts/TimeERC721.sol\":13998:14011  to.isContract */\n      0xffffffffffffffffffffffffffffffffffffffff\n      and\n      tag_250\n        /* \"contracts/TimeERC721.sol\":13998:14013  to.isContract() */\n      jump\t// in\n    tag_249:\n        /* \"contracts/TimeERC721.sol\":13994:14669  if (to.isContract()) {... */\n      iszero\n      tag_251\n      jumpi\n        /* \"contracts/TimeERC721.sol\":14050:14052  to */\n      dup4\n        /* \"contracts/TimeERC721.sol\":14034:14070  IERC721Receiver(to).onERC721Received */\n      0xffffffffffffffffffffffffffffffffffffffff\n      and\n      0x150b7a02\n        /* \"contracts/TimeERC721.sol\":14071:14083  _msgSender() */\n      tag_252\n        /* \"contracts/TimeERC721.sol\":14071:14081  _msgSender */\n      tag_108\n        /* \"contracts/TimeERC721.sol\":14071:14083  _msgSender() */\n      jump\t// in\n    tag_252:\n        /* \"contracts/TimeERC721.sol\":14085:14089  from */\n      dup8\n        /* \"contracts/TimeERC721.sol\":14091:14098  tokenId */\n      dup7\n        /* \"contracts/TimeERC721.sol\":14100:14104  data */\n      dup7\n        /* \"contracts/TimeERC721.sol\":14034:14105  IERC721Receiver(to).onERC721Received(_msgSender(), from, tokenId, data) */\n      mload(0x40)\n      dup6\n      0xffffffff\n      and\n      0xe0\n      shl\n      dup2\n      mstore\n      0x04\n      add\n      tag_253\n      swap5\n      swap4\n      swap3\n      swap2\n      swap1\n      tag_254\n      jump\t// in\n    tag_253:\n      0x20\n      mload(0x40)\n      dup1\n      dup4\n      sub\n      dup2\n      0x00\n      dup8\n      dup1\n      extcodesize\n      iszero\n      dup1\n      iszero\n      tag_255\n      jumpi\n      0x00\n      dup1\n      revert\n    tag_255:\n      pop\n      gas\n      call\n      swap3\n      pop\n      pop\n      pop\n      dup1\n      iszero\n      tag_256\n      jumpi\n      pop\n      mload(0x40)\n      returndatasize\n      not(0x1f)\n      0x1f\n      dup3\n      add\n      and\n      dup3\n      add\n      dup1\n      0x40\n      mstore\n      pop\n      dup2\n      add\n      swap1\n      tag_257\n      swap2\n      swap1\n      tag_258\n      jump\t// in\n    tag_257:\n      0x01\n    tag_256:\n        /* \"contracts/TimeERC721.sol\":14030:14614  try IERC721Receiver(to).onERC721Received(_msgSender(), from, tokenId, data) returns (bytes4 retval) {... */\n      tag_259\n      jumpi\n      returndatasize\n      dup1\n      0x00\n      dup2\n      eq\n      tag_264\n      jumpi\n      mload(0x40)\n      swap2\n      pop\n      and(add(returndatasize, 0x3f), not(0x1f))\n      dup3\n      add\n      0x40\n      mstore\n      returndatasize\n      dup3\n      mstore\n      returndatasize\n      0x00\n      0x20\n      dup5\n      add\n      returndatacopy\n      jump(tag_263)\n    tag_264:\n      0x60\n      swap2\n      pop\n    tag_263:\n      pop\n        /* \"contracts/TimeERC721.sol\":14292:14293  0 */\n      0x00\n        /* \"contracts/TimeERC721.sol\":14275:14281  reason */\n      dup2\n        /* \"contracts/TimeERC721.sol\":14275:14288  reason.length */\n      mload\n        /* \"contracts/TimeERC721.sol\":14275:14293  reason.length == 0 */\n      eq\n        /* \"contracts/TimeERC721.sol\":14271:14599  if (reason.length == 0) {... */\n      iszero\n      tag_265\n      jumpi\n        /* \"contracts/TimeERC721.sol\":14318:14378  revert(\"ERC721: transfer to non ERC721Receiver implementer\") */\n      mload(0x40)\n      0x08c379a000000000000000000000000000000000000000000000000000000000\n      dup2\n      mstore\n      0x04\n      add\n      tag_266\n      swap1\n      tag_229\n      jump\t// in\n    tag_266:\n      mload(0x40)\n      dup1\n      swap2\n      sub\n      swap1\n      revert\n        /* \"contracts/TimeERC721.sol\":14271:14599  if (reason.length == 0) {... */\n    tag_265:\n        /* \"contracts/TimeERC721.sol\":14549:14555  reason */\n      dup1\n        /* \"contracts/TimeERC721.sol\":14543:14556  mload(reason) */\n      mload\n        /* \"contracts/TimeERC721.sol\":14534:14540  reason */\n      dup2\n        /* \"contracts/TimeERC721.sol\":14530:14532  32 */\n      0x20\n        /* \"contracts/TimeERC721.sol\":14526:14541  add(32, reason) */\n      add\n        /* \"contracts/TimeERC721.sol\":14519:14557  revert(add(32, reason), mload(reason)) */\n      revert\n        /* \"contracts/TimeERC721.sol\":14030:14614  try IERC721Receiver(to).onERC721Received(_msgSender(), from, tokenId, data) returns (bytes4 retval) {... */\n    tag_259:\n        /* \"contracts/TimeERC721.sol\":14166:14207  IERC721Receiver.onERC721Received.selector */\n      shl(0xe0, 0x150b7a02)\n        /* \"contracts/TimeERC721.sol\":14156:14207  retval == IERC721Receiver.onERC721Received.selector */\n      not(0xffffffffffffffffffffffffffffffffffffffffffffffffffffffff)\n      and\n        /* \"contracts/TimeERC721.sol\":14156:14162  retval */\n      dup2\n        /* \"contracts/TimeERC721.sol\":14156:14207  retval == IERC721Receiver.onERC721Received.selector */\n      not(0xffffffffffffffffffffffffffffffffffffffffffffffffffffffff)\n      and\n      eq\n        /* \"contracts/TimeERC721.sol\":14149:14207  return retval == IERC721Receiver.onERC721Received.selector */\n      swap2\n      pop\n      pop\n      jump(tag_248)\n        /* \"contracts/TimeERC721.sol\":13994:14669  if (to.isContract()) {... */\n    tag_251:\n        /* \"contracts/TimeERC721.sol\":14653:14657  true */\n      0x01\n        /* \"contracts/TimeERC721.sol\":14646:14657  return true */\n      swap1\n      pop\n        /* \"contracts/TimeERC721.sol\":13823:14676  function _checkOnERC721Received(... */\n    tag_248:\n      swap5\n      swap4\n      pop\n      pop\n      pop\n      pop\n      jump\t// out\n        /* \"libraries/Math.sol\":10390:11338  function log10(uint256 value) internal pure returns (uint256) {... */\n    tag_233:\n        /* \"libraries/Math.sol\":10443:10450  uint256 */\n      0x00\n        /* \"libraries/Math.sol\":10463:10477  uint256 result */\n      dup1\n        /* \"libraries/Math.sol\":10480:10481  0 */\n      0x00\n        /* \"libraries/Math.sol\":10463:10481  uint256 result = 0 */\n      swap1\n      pop\n        /* \"libraries/Math.sol\":10530:10538  10 ** 64 */\n      0x184f03e93ff9f4daa797ed6e38ed64bf6a1f010000000000000000\n        /* \"libraries/Math.sol\":10521:10526  value */\n      dup4\n        /* \"libraries/Math.sol\":10521:10538  value >= 10 ** 64 */\n      lt\n        /* \"libraries/Math.sol\":10517:10623  if (value >= 10 ** 64) {... */\n      tag_271\n      jumpi\n        /* \"libraries/Math.sol\":10568:10576  10 ** 64 */\n      0x184f03e93ff9f4daa797ed6e38ed64bf6a1f010000000000000000\n        /* \"libraries/Math.sol\":10559:10576  value /= 10 ** 64 */\n      dup4\n      dup2\n      tag_272\n      jumpi\n      tag_273\n      tag_242\n      jump\t// in\n    tag_273:\n    tag_272:\n      div\n      swap3\n      pop\n        /* \"libraries/Math.sol\":10605:10607  64 */\n      0x40\n        /* \"libraries/Math.sol\":10595:10607  result += 64 */\n      dup2\n      add\n      swap1\n      pop\n        /* \"libraries/Math.sol\":10517:10623  if (value >= 10 ** 64) {... */\n    tag_271:\n        /* \"libraries/Math.sol\":10650:10658  10 ** 32 */\n      0x04ee2d6d415b85acef8100000000\n        /* \"libraries/Math.sol\":10641:10646  value */\n      dup4\n        /* \"libraries/Math.sol\":10641:10658  value >= 10 ** 32 */\n      lt\n        /* \"libraries/Math.sol\":10637:10743  if (value >= 10 ** 32) {... */\n      tag_274\n      jumpi\n        /* \"libraries/Math.sol\":10688:10696  10 ** 32 */\n      0x04ee2d6d415b85acef8100000000\n        /* \"libraries/Math.sol\":10679:10696  value /= 10 ** 32 */\n      dup4\n      dup2\n      tag_275\n      jumpi\n      tag_276\n      tag_242\n      jump\t// in\n    tag_276:\n    tag_275:\n      div\n      swap3\n      pop\n        /* \"libraries/Math.sol\":10725:10727  32 */\n      0x20\n        /* \"libraries/Math.sol\":10715:10727  result += 32 */\n      dup2\n      add\n      swap1\n      pop\n        /* \"libraries/Math.sol\":10637:10743  if (value >= 10 ** 32) {... */\n    tag_274:\n        /* \"libraries/Math.sol\":10770:10778  10 ** 16 */\n      0x2386f26fc10000\n        /* \"libraries/Math.sol\":10761:10766  value */\n      dup4\n        /* \"libraries/Math.sol\":10761:10778  value >= 10 ** 16 */\n      lt\n        /* \"libraries/Math.sol\":10757:10863  if (value >= 10 ** 16) {... */\n      tag_277\n      jumpi\n        /* \"libraries/Math.sol\":10808:10816  10 ** 16 */\n      0x2386f26fc10000\n        /* \"libraries/Math.sol\":10799:10816  value /= 10 ** 16 */\n      dup4\n      dup2\n      tag_278\n      jumpi\n      tag_279\n      tag_242\n      jump\t// in\n    tag_279:\n    tag_278:\n      div\n      swap3\n      pop\n        /* \"libraries/Math.sol\":10845:10847  16 */\n      0x10\n        /* \"libraries/Math.sol\":10835:10847  result += 16 */\n      dup2\n      add\n      swap1\n      pop\n        /* \"libraries/Math.sol\":10757:10863  if (value >= 10 ** 16) {... */\n    tag_277:\n        /* \"libraries/Math.sol\":10890:10897  10 ** 8 */\n      0x05f5e100\n        /* \"libraries/Math.sol\":10881:10886  value */\n      dup4\n        /* \"libraries/Math.sol\":10881:10897  value >= 10 ** 8 */\n      lt\n        /* \"libraries/Math.sol\":10877:10980  if (value >= 10 ** 8) {... */\n      tag_280\n      jumpi\n        /* \"libraries/Math.sol\":10927:10934  10 ** 8 */\n      0x05f5e100\n        /* \"libraries/Math.sol\":10918:10934  value /= 10 ** 8 */\n      dup4\n      dup2\n      tag_281\n      jumpi\n      tag_282\n      tag_242\n      jump\t// in\n    tag_282:\n    tag_281:\n      div\n      swap3\n      pop\n        /* \"libraries/Math.sol\":10963:10964  8 */\n      0x08\n        /* \"libraries/Math.sol\":10953:10964  result += 8 */\n      dup2\n      add\n      swap1\n      pop\n        /* \"libraries/Math.sol\":10877:10980  if (value >= 10 ** 8) {... */\n    tag_280:\n        /* \"libraries/Math.sol\":11007:11014  10 ** 4 */\n      0x2710\n        /* \"libraries/Math.sol\":10998:11003  value */\n      dup4\n        /* \"libraries/Math.sol\":10998:11014  value >= 10 ** 4 */\n      lt\n        /* \"libraries/Math.sol\":10994:11097  if (value >= 10 ** 4) {... */\n      tag_283\n      jumpi\n        /* \"libraries/Math.sol\":11044:11051  10 ** 4 */\n      0x2710\n        /* \"libraries/Math.sol\":11035:11051  value /= 10 ** 4 */\n      dup4\n      dup2\n      tag_284\n      jumpi\n      tag_285\n      tag_242\n      jump\t// in\n    tag_285:\n    tag_284:\n      div\n      swap3\n      pop\n        /* \"libraries/Math.sol\":11080:11081  4 */\n      0x04\n        /* \"libraries/Math.sol\":11070:11081  result += 4 */\n      dup2\n      add\n      swap1\n      pop\n        /* \"libraries/Math.sol\":10994:11097  if (value >= 10 ** 4) {... */\n    tag_283:\n        /* \"libraries/Math.sol\":11124:11131  10 ** 2 */\n      0x64\n        /* \"libraries/Math.sol\":11115:11120  value */\n      dup4\n        /* \"libraries/Math.sol\":11115:11131  value >= 10 ** 2 */\n      lt\n        /* \"libraries/Math.sol\":11111:11214  if (value >= 10 ** 2) {... */\n      tag_286\n      jumpi\n        /* \"libraries/Math.sol\":11161:11168  10 ** 2 */\n      0x64\n        /* \"libraries/Math.sol\":11152:11168  value /= 10 ** 2 */\n      dup4\n      dup2\n      tag_287\n      jumpi\n      tag_288\n      tag_242\n      jump\t// in\n    tag_288:\n    tag_287:\n      div\n      swap3\n      pop\n        /* \"libraries/Math.sol\":11197:11198  2 */\n      0x02\n        /* \"libraries/Math.sol\":11187:11198  result += 2 */\n      dup2\n      add\n      swap1\n      pop\n        /* \"libraries/Math.sol\":11111:11214  if (value >= 10 ** 2) {... */\n    tag_286:\n        /* \"libraries/Math.sol\":11241:11248  10 ** 1 */\n      0x0a\n        /* \"libraries/Math.sol\":11232:11237  value */\n      dup4\n        /* \"libraries/Math.sol\":11232:11248  value >= 10 ** 1 */\n      lt\n        /* \"libraries/Math.sol\":11228:11296  if (value >= 10 ** 1) {... */\n      tag_289\n      jumpi\n        /* \"libraries/Math.sol\":11279:11280  1 */\n      0x01\n        /* \"libraries/Math.sol\":11269:11280  result += 1 */\n      dup2\n      add\n      swap1\n      pop\n        /* \"libraries/Math.sol\":11228:11296  if (value >= 10 ** 1) {... */\n    tag_289:\n        /* \"libraries/Math.sol\":11324:11330  result */\n      dup1\n        /* \"libraries/Math.sol\":11317:11330  return result */\n      swap2\n      pop\n      pop\n        /* \"libraries/Math.sol\":10390:11338  function log10(uint256 value) internal pure returns (uint256) {... */\n      swap2\n      swap1\n      pop\n      jump\t// out\n        /* \"libraries/Address.sol\":1452:1778  function isContract(address account) internal view returns (bool) {... */\n    tag_250:\n        /* \"libraries/Address.sol\":1512:1516  bool */\n      0x00\n        /* \"libraries/Address.sol\":1769:1770  0 */\n      dup1\n        /* \"libraries/Address.sol\":1747:1754  account */\n      dup3\n        /* \"libraries/Address.sol\":1747:1766  account.code.length */\n      0xffffffffffffffffffffffffffffffffffffffff\n      and\n      extcodesize\n        /* \"libraries/Address.sol\":1747:1770  account.code.length > 0 */\n      gt\n        /* \"libraries/Address.sol\":1740:1770  return account.code.length > 0 */\n      swap1\n      pop\n        /* \"libraries/Address.sol\":1452:1778  function isContract(address account) internal view returns (bool) {... */\n      swap2\n      swap1\n      pop\n      jump\t// out\n        /* \"#utility.yul\":7:82   */\n    tag_291:\n        /* \"#utility.yul\":40:46   */\n      0x00\n        /* \"#utility.yul\":73:75   */\n      0x40\n        /* \"#utility.yul\":67:76   */\n      mload\n        /* \"#utility.yul\":57:76   */\n      swap1\n      pop\n        /* \"#utility.yul\":7:82   */\n      swap1\n      jump\t// out\n        /* \"#utility.yul\":88:205   */\n    tag_292:\n        /* \"#utility.yul\":197:198   */\n      0x00\n        /* \"#utility.yul\":194:195   */\n      dup1\n        /* \"#utility.yul\":187:199   */\n      revert\n        /* \"#utility.yul\":211:328   */\n    tag_293:\n        /* \"#utility.yul\":320:321   */\n      0x00\n        /* \"#utility.yul\":317:318   */\n      dup1\n        /* \"#utility.yul\":310:322   */\n      revert\n        /* \"#utility.yul\":334:483   */\n    tag_294:\n        /* \"#utility.yul\":370:377   */\n      0x00\n        /* \"#utility.yul\":410:476   */\n      0xffffffff00000000000000000000000000000000000000000000000000000000\n        /* \"#utility.yul\":403:408   */\n      dup3\n        /* \"#utility.yul\":399:477   */\n      and\n        /* \"#utility.yul\":388:477   */\n      swap1\n      pop\n        /* \"#utility.yul\":334:483   */\n      swap2\n      swap1\n      pop\n      jump\t// out\n        /* \"#utility.yul\":489:609   */\n    tag_295:\n        /* \"#utility.yul\":561:584   */\n      tag_358\n        /* \"#utility.yul\":578:583   */\n      dup2\n        /* \"#utility.yul\":561:584   */\n      tag_294\n      jump\t// in\n    tag_358:\n        /* \"#utility.yul\":554:559   */\n      dup2\n        /* \"#utility.yul\":551:585   */\n      eq\n        /* \"#utility.yul\":541:603   */\n      tag_359\n      jumpi\n        /* \"#utility.yul\":599:600   */\n      0x00\n        /* \"#utility.yul\":596:597   */\n      dup1\n        /* \"#utility.yul\":589:601   */\n      revert\n        /* \"#utility.yul\":541:603   */\n    tag_359:\n        /* \"#utility.yul\":489:609   */\n      pop\n      jump\t// out\n        /* \"#utility.yul\":615:752   */\n    tag_296:\n        /* \"#utility.yul\":660:665   */\n      0x00\n        /* \"#utility.yul\":698:704   */\n      dup2\n        /* \"#utility.yul\":685:705   */\n      calldataload\n        /* \"#utility.yul\":676:705   */\n      swap1\n      pop\n        /* \"#utility.yul\":714:746   */\n      tag_361\n        /* \"#utility.yul\":740:745   */\n      dup2\n        /* \"#utility.yul\":714:746   */\n      tag_295\n      jump\t// in\n    tag_361:\n        /* \"#utility.yul\":615:752   */\n      swap3\n      swap2\n      pop\n      pop\n      jump\t// out\n        /* \"#utility.yul\":758:1085   */\n    tag_24:\n        /* \"#utility.yul\":816:822   */\n      0x00\n        /* \"#utility.yul\":865:867   */\n      0x20\n        /* \"#utility.yul\":853:862   */\n      dup3\n        /* \"#utility.yul\":844:851   */\n      dup5\n        /* \"#utility.yul\":840:863   */\n      sub\n        /* \"#utility.yul\":836:868   */\n      slt\n        /* \"#utility.yul\":833:952   */\n      iszero\n      tag_363\n      jumpi\n        /* \"#utility.yul\":871:950   */\n      tag_364\n      tag_292\n      jump\t// in\n    tag_364:\n        /* \"#utility.yul\":833:952   */\n    tag_363:\n        /* \"#utility.yul\":991:992   */\n      0x00\n        /* \"#utility.yul\":1016:1068   */\n      tag_365\n        /* \"#utility.yul\":1060:1067   */\n      dup5\n        /* \"#utility.yul\":1051:1057   */\n      dup3\n        /* \"#utility.yul\":1040:1049   */\n      dup6\n        /* \"#utility.yul\":1036:1058   */\n      add\n        /* \"#utility.yul\":1016:1068   */\n      tag_296\n      jump\t// in\n    tag_365:\n        /* \"#utility.yul\":1006:1068   */\n      swap2\n      pop\n        /* \"#utility.yul\":962:1078   */\n      pop\n        /* \"#utility.yul\":758:1085   */\n      swap3\n      swap2\n      pop\n      pop\n      jump\t// out\n        /* \"#utility.yul\":1091:1181   */\n    tag_297:\n        /* \"#utility.yul\":1125:1132   */\n      0x00\n        /* \"#utility.yul\":1168:1173   */\n      dup2\n        /* \"#utility.yul\":1161:1174   */\n      iszero\n        /* \"#utility.yul\":1154:1175   */\n      iszero\n        /* \"#utility.yul\":1143:1175   */\n      swap1\n      pop\n        /* \"#utility.yul\":1091:1181   */\n      swap2\n      swap1\n      pop\n      jump\t// out\n        /* \"#utility.yul\":1187:1296   */\n    tag_298:\n        /* \"#utility.yul\":1268:1289   */\n      tag_368\n        /* \"#utility.yul\":1283:1288   */\n      dup2\n        /* \"#utility.yul\":1268:1289   */\n      tag_297\n      jump\t// in\n    tag_368:\n        /* \"#utility.yul\":1263:1266   */\n      dup3\n        /* \"#utility.yul\":1256:1290   */\n      mstore\n        /* \"#utility.yul\":1187:1296   */\n      pop\n      pop\n      jump\t// out\n        /* \"#utility.yul\":1302:1512   */\n    tag_27:\n        /* \"#utility.yul\":1389:1393   */\n      0x00\n        /* \"#utility.yul\":1427:1429   */\n      0x20\n        /* \"#utility.yul\":1416:1425   */\n      dup3\n        /* \"#utility.yul\":1412:1430   */\n      add\n        /* \"#utility.yul\":1404:1430   */\n      swap1\n      pop\n        /* \"#utility.yul\":1440:1505   */\n      tag_370\n        /* \"#utility.yul\":1502:1503   */\n      0x00\n        /* \"#utility.yul\":1491:1500   */\n      dup4\n        /* \"#utility.yul\":1487:1504   */\n      add\n        /* \"#utility.yul\":1478:1484   */\n      dup5\n        /* \"#utility.yul\":1440:1505   */\n      tag_298\n      jump\t// in\n    tag_370:\n        /* \"#utility.yul\":1302:1512   */\n      swap3\n      swap2\n      pop\n      pop\n      jump\t// out\n        /* \"#utility.yul\":1518:1617   */\n    tag_299:\n        /* \"#utility.yul\":1570:1576   */\n      0x00\n        /* \"#utility.yul\":1604:1609   */\n      dup2\n        /* \"#utility.yul\":1598:1610   */\n      mload\n        /* \"#utility.yul\":1588:1610   */\n      swap1\n      pop\n        /* \"#utility.yul\":1518:1617   */\n      swap2\n      swap1\n      pop\n      jump\t// out\n        /* \"#utility.yul\":1623:1792   */\n    tag_300:\n        /* \"#utility.yul\":1707:1718   */\n      0x00\n        /* \"#utility.yul\":1741:1747   */\n      dup3\n        /* \"#utility.yul\":1736:1739   */\n      dup3\n        /* \"#utility.yul\":1729:1748   */\n      mstore\n        /* \"#utility.yul\":1781:1785   */\n      0x20\n        /* \"#utility.yul\":1776:1779   */\n      dup3\n        /* \"#utility.yul\":1772:1786   */\n      add\n        /* \"#utility.yul\":1757:1786   */\n      swap1\n      pop\n        /* \"#utility.yul\":1623:1792   */\n      swap3\n      swap2\n      pop\n      pop\n      jump\t// out\n        /* \"#utility.yul\":1798:2105   */\n    tag_301:\n        /* \"#utility.yul\":1866:1867   */\n      0x00\n        /* \"#utility.yul\":1876:1989   */\n    tag_374:\n        /* \"#utility.yul\":1890:1896   */\n      dup4\n        /* \"#utility.yul\":1887:1888   */\n      dup2\n        /* \"#utility.yul\":1884:1897   */\n      lt\n        /* \"#utility.yul\":1876:1989   */\n      iszero\n      tag_376\n      jumpi\n        /* \"#utility.yul\":1975:1976   */\n      dup1\n        /* \"#utility.yul\":1970:1973   */\n      dup3\n        /* \"#utility.yul\":1966:1977   */\n      add\n        /* \"#utility.yul\":1960:1978   */\n      mload\n        /* \"#utility.yul\":1956:1957   */\n      dup2\n        /* \"#utility.yul\":1951:1954   */\n      dup5\n        /* \"#utility.yul\":1947:1958   */\n      add\n        /* \"#utility.yul\":1940:1979   */\n      mstore\n        /* \"#utility.yul\":1912:1914   */\n      0x20\n        /* \"#utility.yul\":1909:1910   */\n      dup2\n        /* \"#utility.yul\":1905:1915   */\n      add\n        /* \"#utility.yul\":1900:1915   */\n      swap1\n      pop\n        /* \"#utility.yul\":1876:1989   */\n      jump(tag_374)\n    tag_376:\n        /* \"#utility.yul\":2007:2013   */\n      dup4\n        /* \"#utility.yul\":2004:2005   */\n      dup2\n        /* \"#utility.yul\":2001:2014   */\n      gt\n        /* \"#utility.yul\":1998:2099   */\n      iszero\n      tag_377\n      jumpi\n        /* \"#utility.yul\":2087:2088   */\n      0x00\n        /* \"#utility.yul\":2078:2084   */\n      dup5\n        /* \"#utility.yul\":2073:2076   */\n      dup5\n        /* \"#utility.yul\":2069:2085   */\n      add\n        /* \"#utility.yul\":2062:2089   */\n      mstore\n        /* \"#utility.yul\":1998:2099   */\n    tag_377:\n        /* \"#utility.yul\":1847:2105   */\n      pop\n        /* \"#utility.yul\":1798:2105   */\n      pop\n      pop\n      pop\n      jump\t// out\n        /* \"#utility.yul\":2111:2213   */\n    tag_302:\n        /* \"#utility.yul\":2152:2158   */\n      0x00\n        /* \"#utility.yul\":2203:2205   */\n      0x1f\n        /* \"#utility.yul\":2199:2206   */\n      not\n        /* \"#utility.yul\":2194:2196   */\n      0x1f\n        /* \"#utility.yul\":2187:2192   */\n      dup4\n        /* \"#utility.yul\":2183:2197   */\n      add\n        /* \"#utility.yul\":2179:2207   */\n      and\n        /* \"#utility.yul\":2169:2207   */\n      swap1\n      pop\n        /* \"#utility.yul\":2111:2213   */\n      swap2\n      swap1\n      pop\n      jump\t// out\n        /* \"#utility.yul\":2219:2583   */\n    tag_303:\n        /* \"#utility.yul\":2307:2310   */\n      0x00\n        /* \"#utility.yul\":2335:2374   */\n      tag_380\n        /* \"#utility.yul\":2368:2373   */\n      dup3\n        /* \"#utility.yul\":2335:2374   */\n      tag_299\n      jump\t// in\n    tag_380:\n        /* \"#utility.yul\":2390:2461   */\n      tag_381\n        /* \"#utility.yul\":2454:2460   */\n      dup2\n        /* \"#utility.yul\":2449:2452   */\n      dup6\n        /* \"#utility.yul\":2390:2461   */\n      tag_300\n      jump\t// in\n    tag_381:\n        /* \"#utility.yul\":2383:2461   */\n      swap4\n      pop\n        /* \"#utility.yul\":2470:2522   */\n      tag_382\n        /* \"#utility.yul\":2515:2521   */\n      dup2\n        /* \"#utility.yul\":2510:2513   */\n      dup6\n        /* \"#utility.yul\":2503:2507   */\n      0x20\n        /* \"#utility.yul\":2496:2501   */\n      dup7\n        /* \"#utility.yul\":2492:2508   */\n      add\n        /* \"#utility.yul\":2470:2522   */\n      tag_301\n      jump\t// in\n    tag_382:\n        /* \"#utility.yul\":2547:2576   */\n      tag_383\n        /* \"#utility.yul\":2569:2575   */\n      dup2\n        /* \"#utility.yul\":2547:2576   */\n      tag_302\n      jump\t// in\n    tag_383:\n        /* \"#utility.yul\":2542:2545   */\n      dup5\n        /* \"#utility.yul\":2538:2577   */\n      add\n        /* \"#utility.yul\":2531:2577   */\n      swap2\n      pop\n        /* \"#utility.yul\":2311:2583   */\n      pop\n        /* \"#utility.yul\":2219:2583   */\n      swap3\n      swap2\n      pop\n      pop\n      jump\t// out\n        /* \"#utility.yul\":2589:2902   */\n    tag_31:\n        /* \"#utility.yul\":2702:2706   */\n      0x00\n        /* \"#utility.yul\":2740:2742   */\n      0x20\n        /* \"#utility.yul\":2729:2738   */\n      dup3\n        /* \"#utility.yul\":2725:2743   */\n      add\n        /* \"#utility.yul\":2717:2743   */\n      swap1\n      pop\n        /* \"#utility.yul\":2789:2798   */\n      dup2\n        /* \"#utility.yul\":2783:2787   */\n      dup2\n        /* \"#utility.yul\":2779:2799   */\n      sub\n        /* \"#utility.yul\":2775:2776   */\n      0x00\n        /* \"#utility.yul\":2764:2773   */\n      dup4\n        /* \"#utility.yul\":2760:2777   */\n      add\n        /* \"#utility.yul\":2753:2800   */\n      mstore\n        /* \"#utility.yul\":2817:2895   */\n      tag_385\n        /* \"#utility.yul\":2890:2894   */\n      dup2\n        /* \"#utility.yul\":2881:2887   */\n      dup5\n        /* \"#utility.yul\":2817:2895   */\n      tag_303\n      jump\t// in\n    tag_385:\n        /* \"#utility.yul\":2809:2895   */\n      swap1\n      pop\n        /* \"#utility.yul\":2589:2902   */\n      swap3\n      swap2\n      pop\n      pop\n      jump\t// out\n        /* \"#utility.yul\":2908:2985   */\n    tag_304:\n        /* \"#utility.yul\":2945:2952   */\n      0x00\n        /* \"#utility.yul\":2974:2979   */\n      dup2\n        /* \"#utility.yul\":2963:2979   */\n      swap1\n      pop\n        /* \"#utility.yul\":2908:2985   */\n      swap2\n      swap1\n      pop\n      jump\t// out\n        /* \"#utility.yul\":2991:3113   */\n    tag_305:\n        /* \"#utility.yul\":3064:3088   */\n      tag_388\n        /* \"#utility.yul\":3082:3087   */\n      dup2\n        /* \"#utility.yul\":3064:3088   */\n      tag_304\n      jump\t// in\n    tag_388:\n        /* \"#utility.yul\":3057:3062   */\n      dup2\n        /* \"#utility.yul\":3054:3089   */\n      eq\n        /* \"#utility.yul\":3044:3107   */\n      tag_389\n      jumpi\n        /* \"#utility.yul\":3103:3104   */\n      0x00\n        /* \"#utility.yul\":3100:3101   */\n      dup1\n        /* \"#utility.yul\":3093:3105   */\n      revert\n        /* \"#utility.yul\":3044:3107   */\n    tag_389:\n        /* \"#utility.yul\":2991:3113   */\n      pop\n      jump\t// out\n        /* \"#utility.yul\":3119:3258   */\n    tag_306:\n        /* \"#utility.yul\":3165:3170   */\n      0x00\n        /* \"#utility.yul\":3203:3209   */\n      dup2\n        /* \"#utility.yul\":3190:3210   */\n      calldataload\n        /* \"#utility.yul\":3181:3210   */\n      swap1\n      pop\n        /* \"#utility.yul\":3219:3252   */\n      tag_391\n        /* \"#utility.yul\":3246:3251   */\n      dup2\n        /* \"#utility.yul\":3219:3252   */\n      tag_305\n      jump\t// in\n    tag_391:\n        /* \"#utility.yul\":3119:3258   */\n      swap3\n      swap2\n      pop\n      pop\n      jump\t// out\n        /* \"#utility.yul\":3264:3593   */\n    tag_34:\n        /* \"#utility.yul\":3323:3329   */\n      0x00\n        /* \"#utility.yul\":3372:3374   */\n      0x20\n        /* \"#utility.yul\":3360:3369   */\n      dup3\n        /* \"#utility.yul\":3351:3358   */\n      dup5\n        /* \"#utility.yul\":3347:3370   */\n      sub\n        /* \"#utility.yul\":3343:3375   */\n      slt\n        /* \"#utility.yul\":3340:3459   */\n      iszero\n      tag_393\n      jumpi\n        /* \"#utility.yul\":3378:3457   */\n      tag_394\n      tag_292\n      jump\t// in\n    tag_394:\n        /* \"#utility.yul\":3340:3459   */\n    tag_393:\n        /* \"#utility.yul\":3498:3499   */\n      0x00\n        /* \"#utility.yul\":3523:3576   */\n      tag_395\n        /* \"#utility.yul\":3568:3575   */\n      dup5\n        /* \"#utility.yul\":3559:3565   */\n      dup3\n        /* \"#utility.yul\":3548:3557   */\n      dup6\n        /* \"#utility.yul\":3544:3566   */\n      add\n        /* \"#utility.yul\":3523:3576   */\n      tag_306\n      jump\t// in\n    tag_395:\n        /* \"#utility.yul\":3513:3576   */\n      swap2\n      pop\n        /* \"#utility.yul\":3469:3586   */\n      pop\n        /* \"#utility.yul\":3264:3593   */\n      swap3\n      swap2\n      pop\n      pop\n      jump\t// out\n        /* \"#utility.yul\":3599:3725   */\n    tag_307:\n        /* \"#utility.yul\":3636:3643   */\n      0x00\n        /* \"#utility.yul\":3676:3718   */\n      0xffffffffffffffffffffffffffffffffffffffff\n        /* \"#utility.yul\":3669:3674   */\n      dup3\n        /* \"#utility.yul\":3665:3719   */\n      and\n        /* \"#utility.yul\":3654:3719   */\n      swap1\n      pop\n        /* \"#utility.yul\":3599:3725   */\n      swap2\n      swap1\n      pop\n      jump\t// out\n        /* \"#utility.yul\":3731:3827   */\n    tag_308:\n        /* \"#utility.yul\":3768:3775   */\n      0x00\n        /* \"#utility.yul\":3797:3821   */\n      tag_398\n        /* \"#utility.yul\":3815:3820   */\n      dup3\n        /* \"#utility.yul\":3797:3821   */\n      tag_307\n      jump\t// in\n    tag_398:\n        /* \"#utility.yul\":3786:3821   */\n      swap1\n      pop\n        /* \"#utility.yul\":3731:3827   */\n      swap2\n      swap1\n      pop\n      jump\t// out\n        /* \"#utility.yul\":3833:3951   */\n    tag_309:\n        /* \"#utility.yul\":3920:3944   */\n      tag_400\n        /* \"#utility.yul\":3938:3943   */\n      dup2\n        /* \"#utility.yul\":3920:3944   */\n      tag_308\n      jump\t// in\n    tag_400:\n        /* \"#utility.yul\":3915:3918   */\n      dup3\n        /* \"#utility.yul\":3908:3945   */\n      mstore\n        /* \"#utility.yul\":3833:3951   */\n      pop\n      pop\n      jump\t// out\n        /* \"#utility.yul\":3957:4179   */\n    tag_37:\n        /* \"#utility.yul\":4050:4054   */\n      0x00\n        /* \"#utility.yul\":4088:4090   */\n      0x20\n        /* \"#utility.yul\":4077:4086   */\n      dup3\n        /* \"#utility.yul\":4073:4091   */\n      add\n        /* \"#utility.yul\":4065:4091   */\n      swap1\n      pop\n        /* \"#utility.yul\":4101:4172   */\n      tag_402\n        /* \"#utility.yul\":4169:4170   */\n      0x00\n        /* \"#utility.yul\":4158:4167   */\n      dup4\n        /* \"#utility.yul\":4154:4171   */\n      add\n        /* \"#utility.yul\":4145:4151   */\n      dup5\n        /* \"#utility.yul\":4101:4172   */\n      tag_309\n      jump\t// in\n    tag_402:\n        /* \"#utility.yul\":3957:4179   */\n      swap3\n      swap2\n      pop\n      pop\n      jump\t// out\n        /* \"#utility.yul\":4185:4307   */\n    tag_310:\n        /* \"#utility.yul\":4258:4282   */\n      tag_404\n        /* \"#utility.yul\":4276:4281   */\n      dup2\n        /* \"#utility.yul\":4258:4282   */\n      tag_308\n      jump\t// in\n    tag_404:\n        /* \"#utility.yul\":4251:4256   */\n      dup2\n        /* \"#utility.yul\":4248:4283   */\n      eq\n        /* \"#utility.yul\":4238:4301   */\n      tag_405\n      jumpi\n        /* \"#utility.yul\":4297:4298   */\n      0x00\n        /* \"#utility.yul\":4294:4295   */\n      dup1\n        /* \"#utility.yul\":4287:4299   */\n      revert\n        /* \"#utility.yul\":4238:4301   */\n    tag_405:\n        /* \"#utility.yul\":4185:4307   */\n      pop\n      jump\t// out\n        /* \"#utility.yul\":4313:4452   */\n    tag_311:\n        /* \"#utility.yul\":4359:4364   */\n      0x00\n        /* \"#utility.yul\":4397:4403   */\n      dup2\n        /* \"#utility.yul\":4384:4404   */\n      calldataload\n        /* \"#utility.yul\":4375:4404   */\n      swap1\n      pop\n        /* \"#utility.yul\":4413:4446   */\n      tag_407\n        /* \"#utility.yul\":4440:4445   */\n      dup2\n        /* \"#utility.yul\":4413:4446   */\n      tag_310\n      jump\t// in\n    tag_407:\n        /* \"#utility.yul\":4313:4452   */\n      swap3\n      swap2\n      pop\n      pop\n      jump\t// out\n        /* \"#utility.yul\":4458:4932   */\n    tag_40:\n        /* \"#utility.yul\":4526:4532   */\n      0x00\n        /* \"#utility.yul\":4534:4540   */\n      dup1\n        /* \"#utility.yul\":4583:4585   */\n      0x40\n        /* \"#utility.yul\":4571:4580   */\n      dup4\n        /* \"#utility.yul\":4562:4569   */\n      dup6\n        /* \"#utility.yul\":4558:4581   */\n      sub\n        /* \"#utility.yul\":4554:4586   */\n      slt\n        /* \"#utility.yul\":4551:4670   */\n      iszero\n      tag_409\n      jumpi\n        /* \"#utility.yul\":4589:4668   */\n      tag_410\n      tag_292\n      jump\t// in\n    tag_410:\n        /* \"#utility.yul\":4551:4670   */\n    tag_409:\n        /* \"#utility.yul\":4709:4710   */\n      0x00\n        /* \"#utility.yul\":4734:4787   */\n      tag_411\n        /* \"#utility.yul\":4779:4786   */\n      dup6\n        /* \"#utility.yul\":4770:4776   */\n      dup3\n        /* \"#utility.yul\":4759:4768   */\n      dup7\n        /* \"#utility.yul\":4755:4777   */\n      add\n        /* \"#utility.yul\":4734:4787   */\n      tag_311\n      jump\t// in\n    tag_411:\n        /* \"#utility.yul\":4724:4787   */\n      swap3\n      pop\n        /* \"#utility.yul\":4680:4797   */\n      pop\n        /* \"#utility.yul\":4836:4838   */\n      0x20\n        /* \"#utility.yul\":4862:4915   */\n      tag_412\n        /* \"#utility.yul\":4907:4914   */\n      dup6\n        /* \"#utility.yul\":4898:4904   */\n      dup3\n        /* \"#utility.yul\":4887:4896   */\n      dup7\n        /* \"#utility.yul\":4883:4905   */\n      add\n        /* \"#utility.yul\":4862:4915   */\n      tag_306\n      jump\t// in\n    tag_412:\n        /* \"#utility.yul\":4852:4915   */\n      swap2\n      pop\n        /* \"#utility.yul\":4807:4925   */\n      pop\n        /* \"#utility.yul\":4458:4932   */\n      swap3\n      pop\n      swap3\n      swap1\n      pop\n      jump\t// out\n        /* \"#utility.yul\":4938:5557   */\n    tag_44:\n        /* \"#utility.yul\":5015:5021   */\n      0x00\n        /* \"#utility.yul\":5023:5029   */\n      dup1\n        /* \"#utility.yul\":5031:5037   */\n      0x00\n        /* \"#utility.yul\":5080:5082   */\n      0x60\n        /* \"#utility.yul\":5068:5077   */\n      dup5\n        /* \"#utility.yul\":5059:5066   */\n      dup7\n        /* \"#utility.yul\":5055:5078   */\n      sub\n        /* \"#utility.yul\":5051:5083   */\n      slt\n        /* \"#utility.yul\":5048:5167   */\n      iszero\n      tag_414\n      jumpi\n        /* \"#utility.yul\":5086:5165   */\n      tag_415\n      tag_292\n      jump\t// in\n    tag_415:\n        /* \"#utility.yul\":5048:5167   */\n    tag_414:\n        /* \"#utility.yul\":5206:5207   */\n      0x00\n        /* \"#utility.yul\":5231:5284   */\n      tag_416\n        /* \"#utility.yul\":5276:5283   */\n      dup7\n        /* \"#utility.yul\":5267:5273   */\n      dup3\n        /* \"#utility.yul\":5256:5265   */\n      dup8\n        /* \"#utility.yul\":5252:5274   */\n      add\n        /* \"#utility.yul\":5231:5284   */\n      tag_311\n      jump\t// in\n    tag_416:\n        /* \"#utility.yul\":5221:5284   */\n      swap4\n      pop\n        /* \"#utility.yul\":5177:5294   */\n      pop\n        /* \"#utility.yul\":5333:5335   */\n      0x20\n        /* \"#utility.yul\":5359:5412   */\n      tag_417\n        /* \"#utility.yul\":5404:5411   */\n      dup7\n        /* \"#utility.yul\":5395:5401   */\n      dup3\n        /* \"#utility.yul\":5384:5393   */\n      dup8\n        /* \"#utility.yul\":5380:5402   */\n      add\n        /* \"#utility.yul\":5359:5412   */\n      tag_311\n      jump\t// in\n    tag_417:\n        /* \"#utility.yul\":5349:5412   */\n      swap3\n      pop\n        /* \"#utility.yul\":5304:5422   */\n      pop\n        /* \"#utility.yul\":5461:5463   */\n      0x40\n        /* \"#utility.yul\":5487:5540   */\n      tag_418\n        /* \"#utility.yul\":5532:5539   */\n      dup7\n        /* \"#utility.yul\":5523:5529   */\n      dup3\n        /* \"#utility.yul\":5512:5521   */\n      dup8\n        /* \"#utility.yul\":5508:5530   */\n      add\n        /* \"#utility.yul\":5487:5540   */\n      tag_306\n      jump\t// in\n    tag_418:\n        /* \"#utility.yul\":5477:5540   */\n      swap2\n      pop\n        /* \"#utility.yul\":5432:5550   */\n      pop\n        /* \"#utility.yul\":4938:5557   */\n      swap3\n      pop\n      swap3\n      pop\n      swap3\n      jump\t// out\n        /* \"#utility.yul\":5563:5892   */\n    tag_55:\n        /* \"#utility.yul\":5622:5628   */\n      0x00\n        /* \"#utility.yul\":5671:5673   */\n      0x20\n        /* \"#utility.yul\":5659:5668   */\n      dup3\n        /* \"#utility.yul\":5650:5657   */\n      dup5\n        /* \"#utility.yul\":5646:5669   */\n      sub\n        /* \"#utility.yul\":5642:5674   */\n      slt\n        /* \"#utility.yul\":5639:5758   */\n      iszero\n      tag_420\n      jumpi\n        /* \"#utility.yul\":5677:5756   */\n      tag_421\n      tag_292\n      jump\t// in\n    tag_421:\n        /* \"#utility.yul\":5639:5758   */\n    tag_420:\n        /* \"#utility.yul\":5797:5798   */\n      0x00\n        /* \"#utility.yul\":5822:5875   */\n      tag_422\n        /* \"#utility.yul\":5867:5874   */\n      dup5\n        /* \"#utility.yul\":5858:5864   */\n      dup3\n        /* \"#utility.yul\":5847:5856   */\n      dup6\n        /* \"#utility.yul\":5843:5865   */\n      add\n        /* \"#utility.yul\":5822:5875   */\n      tag_311\n      jump\t// in\n    tag_422:\n        /* \"#utility.yul\":5812:5875   */\n      swap2\n      pop\n        /* \"#utility.yul\":5768:5885   */\n      pop\n        /* \"#utility.yul\":5563:5892   */\n      swap3\n      swap2\n      pop\n      pop\n      jump\t// out\n        /* \"#utility.yul\":5898:6016   */\n    tag_312:\n        /* \"#utility.yul\":5985:6009   */\n      tag_424\n        /* \"#utility.yul\":6003:6008   */\n      dup2\n        /* \"#utility.yul\":5985:6009   */\n      tag_304\n      jump\t// in\n    tag_424:\n        /* \"#utility.yul\":5980:5983   */\n      dup3\n        /* \"#utility.yul\":5973:6010   */\n      mstore\n        /* \"#utility.yul\":5898:6016   */\n      pop\n      pop\n      jump\t// out\n        /* \"#utility.yul\":6022:6244   */\n    tag_58:\n        /* \"#utility.yul\":6115:6119   */\n      0x00\n        /* \"#utility.yul\":6153:6155   */\n      0x20\n        /* \"#utility.yul\":6142:6151   */\n      dup3\n        /* \"#utility.yul\":6138:6156   */\n      add\n        /* \"#utility.yul\":6130:6156   */\n      swap1\n      pop\n        /* \"#utility.yul\":6166:6237   */\n      tag_426\n        /* \"#utility.yul\":6234:6235   */\n      0x00\n        /* \"#utility.yul\":6223:6232   */\n      dup4\n        /* \"#utility.yul\":6219:6236   */\n      add\n        /* \"#utility.yul\":6210:6216   */\n      dup5\n        /* \"#utility.yul\":6166:6237   */\n      tag_312\n      jump\t// in\n    tag_426:\n        /* \"#utility.yul\":6022:6244   */\n      swap3\n      swap2\n      pop\n      pop\n      jump\t// out\n        /* \"#utility.yul\":6250:6366   */\n    tag_313:\n        /* \"#utility.yul\":6320:6341   */\n      tag_428\n        /* \"#utility.yul\":6335:6340   */\n      dup2\n        /* \"#utility.yul\":6320:6341   */\n      tag_297\n      jump\t// in\n    tag_428:\n        /* \"#utility.yul\":6313:6318   */\n      dup2\n        /* \"#utility.yul\":6310:6342   */\n      eq\n        /* \"#utility.yul\":6300:6360   */\n      tag_429\n      jumpi\n        /* \"#utility.yul\":6356:6357   */\n      0x00\n        /* \"#utility.yul\":6353:6354   */\n      dup1\n        /* \"#utility.yul\":6346:6358   */\n      revert\n        /* \"#utility.yul\":6300:6360   */\n    tag_429:\n        /* \"#utility.yul\":6250:6366   */\n      pop\n      jump\t// out\n        /* \"#utility.yul\":6372:6505   */\n    tag_314:\n        /* \"#utility.yul\":6415:6420   */\n      0x00\n        /* \"#utility.yul\":6453:6459   */\n      dup2\n        /* \"#utility.yul\":6440:6460   */\n      calldataload\n        /* \"#utility.yul\":6431:6460   */\n      swap1\n      pop\n        /* \"#utility.yul\":6469:6499   */\n      tag_431\n        /* \"#utility.yul\":6493:6498   */\n      dup2\n        /* \"#utility.yul\":6469:6499   */\n      tag_313\n      jump\t// in\n    tag_431:\n        /* \"#utility.yul\":6372:6505   */\n      swap3\n      swap2\n      pop\n      pop\n      jump\t// out\n        /* \"#utility.yul\":6511:6979   */\n    tag_69:\n        /* \"#utility.yul\":6576:6582   */\n      0x00\n        /* \"#utility.yul\":6584:6590   */\n      dup1\n        /* \"#utility.yul\":6633:6635   */\n      0x40\n        /* \"#utility.yul\":6621:6630   */\n      dup4\n        /* \"#utility.yul\":6612:6619   */\n      dup6\n        /* \"#utility.yul\":6608:6631   */\n      sub\n        /* \"#utility.yul\":6604:6636   */\n      slt\n        /* \"#utility.yul\":6601:6720   */\n      iszero\n      tag_433\n      jumpi\n        /* \"#utility.yul\":6639:6718   */\n      tag_434\n      tag_292\n      jump\t// in\n    tag_434:\n        /* \"#utility.yul\":6601:6720   */\n    tag_433:\n        /* \"#utility.yul\":6759:6760   */\n      0x00\n        /* \"#utility.yul\":6784:6837   */\n      tag_435\n        /* \"#utility.yul\":6829:6836   */\n      dup6\n        /* \"#utility.yul\":6820:6826   */\n      dup3\n        /* \"#utility.yul\":6809:6818   */\n      dup7\n        /* \"#utility.yul\":6805:6827   */\n      add\n        /* \"#utility.yul\":6784:6837   */\n      tag_311\n      jump\t// in\n    tag_435:\n        /* \"#utility.yul\":6774:6837   */\n      swap3\n      pop\n        /* \"#utility.yul\":6730:6847   */\n      pop\n        /* \"#utility.yul\":6886:6888   */\n      0x20\n        /* \"#utility.yul\":6912:6962   */\n      tag_436\n        /* \"#utility.yul\":6954:6961   */\n      dup6\n        /* \"#utility.yul\":6945:6951   */\n      dup3\n        /* \"#utility.yul\":6934:6943   */\n      dup7\n        /* \"#utility.yul\":6930:6952   */\n      add\n        /* \"#utility.yul\":6912:6962   */\n      tag_314\n      jump\t// in\n    tag_436:\n        /* \"#utility.yul\":6902:6962   */\n      swap2\n      pop\n        /* \"#utility.yul\":6857:6972   */\n      pop\n        /* \"#utility.yul\":6511:6979   */\n      swap3\n      pop\n      swap3\n      swap1\n      pop\n      jump\t// out\n        /* \"#utility.yul\":6985:7102   */\n    tag_315:\n        /* \"#utility.yul\":7094:7095   */\n      0x00\n        /* \"#utility.yul\":7091:7092   */\n      dup1\n        /* \"#utility.yul\":7084:7096   */\n      revert\n        /* \"#utility.yul\":7108:7225   */\n    tag_316:\n        /* \"#utility.yul\":7217:7218   */\n      0x00\n        /* \"#utility.yul\":7214:7215   */\n      dup1\n        /* \"#utility.yul\":7207:7219   */\n      revert\n        /* \"#utility.yul\":7231:7411   */\n    tag_236:\n        /* \"#utility.yul\":7279:7356   */\n      0x4e487b7100000000000000000000000000000000000000000000000000000000\n        /* \"#utility.yul\":7276:7277   */\n      0x00\n        /* \"#utility.yul\":7269:7357   */\n      mstore\n        /* \"#utility.yul\":7376:7380   */\n      0x41\n        /* \"#utility.yul\":7373:7374   */\n      0x04\n        /* \"#utility.yul\":7366:7381   */\n      mstore\n        /* \"#utility.yul\":7400:7404   */\n      0x24\n        /* \"#utility.yul\":7397:7398   */\n      0x00\n        /* \"#utility.yul\":7390:7405   */\n      revert\n        /* \"#utility.yul\":7417:7698   */\n    tag_317:\n        /* \"#utility.yul\":7500:7527   */\n      tag_441\n        /* \"#utility.yul\":7522:7526   */\n      dup3\n        /* \"#utility.yul\":7500:7527   */\n      tag_302\n      jump\t// in\n    tag_441:\n        /* \"#utility.yul\":7492:7498   */\n      dup2\n        /* \"#utility.yul\":7488:7528   */\n      add\n        /* \"#utility.yul\":7630:7636   */\n      dup2\n        /* \"#utility.yul\":7618:7628   */\n      dup2\n        /* \"#utility.yul\":7615:7637   */\n      lt\n        /* \"#utility.yul\":7594:7612   */\n      0xffffffffffffffff\n        /* \"#utility.yul\":7582:7592   */\n      dup3\n        /* \"#utility.yul\":7579:7613   */\n      gt\n        /* \"#utility.yul\":7576:7638   */\n      or\n        /* \"#utility.yul\":7573:7661   */\n      iszero\n      tag_442\n      jumpi\n        /* \"#utility.yul\":7641:7659   */\n      tag_443\n      tag_236\n      jump\t// in\n    tag_443:\n        /* \"#utility.yul\":7573:7661   */\n    tag_442:\n        /* \"#utility.yul\":7681:7691   */\n      dup1\n        /* \"#utility.yul\":7677:7679   */\n      0x40\n        /* \"#utility.yul\":7670:7692   */\n      mstore\n        /* \"#utility.yul\":7460:7698   */\n      pop\n        /* \"#utility.yul\":7417:7698   */\n      pop\n      pop\n      jump\t// out\n        /* \"#utility.yul\":7704:7833   */\n    tag_318:\n        /* \"#utility.yul\":7738:7744   */\n      0x00\n        /* \"#utility.yul\":7765:7785   */\n      tag_445\n      tag_291\n      jump\t// in\n    tag_445:\n        /* \"#utility.yul\":7755:7785   */\n      swap1\n      pop\n        /* \"#utility.yul\":7794:7827   */\n      tag_446\n        /* \"#utility.yul\":7822:7826   */\n      dup3\n        /* \"#utility.yul\":7814:7820   */\n      dup3\n        /* \"#utility.yul\":7794:7827   */\n      tag_317\n      jump\t// in\n    tag_446:\n        /* \"#utility.yul\":7704:7833   */\n      swap2\n      swap1\n      pop\n      jump\t// out\n        /* \"#utility.yul\":7839:8146   */\n    tag_319:\n        /* \"#utility.yul\":7900:7904   */\n      0x00\n        /* \"#utility.yul\":7990:8008   */\n      0xffffffffffffffff\n        /* \"#utility.yul\":7982:7988   */\n      dup3\n        /* \"#utility.yul\":7979:8009   */\n      gt\n        /* \"#utility.yul\":7976:8032   */\n      iszero\n      tag_448\n      jumpi\n        /* \"#utility.yul\":8012:8030   */\n      tag_449\n      tag_236\n      jump\t// in\n    tag_449:\n        /* \"#utility.yul\":7976:8032   */\n    tag_448:\n        /* \"#utility.yul\":8050:8079   */\n      tag_450\n        /* \"#utility.yul\":8072:8078   */\n      dup3\n        /* \"#utility.yul\":8050:8079   */\n      tag_302\n      jump\t// in\n    tag_450:\n        /* \"#utility.yul\":8042:8079   */\n      swap1\n      pop\n        /* \"#utility.yul\":8134:8138   */\n      0x20\n        /* \"#utility.yul\":8128:8132   */\n      dup2\n        /* \"#utility.yul\":8124:8139   */\n      add\n        /* \"#utility.yul\":8116:8139   */\n      swap1\n      pop\n        /* \"#utility.yul\":7839:8146   */\n      swap2\n      swap1\n      pop\n      jump\t// out\n        /* \"#utility.yul\":8152:8306   */\n    tag_320:\n        /* \"#utility.yul\":8236:8242   */\n      dup3\n        /* \"#utility.yul\":8231:8234   */\n      dup2\n        /* \"#utility.yul\":8226:8229   */\n      dup4\n        /* \"#utility.yul\":8213:8243   */\n      calldatacopy\n        /* \"#utility.yul\":8298:8299   */\n      0x00\n        /* \"#utility.yul\":8289:8295   */\n      dup4\n        /* \"#utility.yul\":8284:8287   */\n      dup4\n        /* \"#utility.yul\":8280:8296   */\n      add\n        /* \"#utility.yul\":8273:8300   */\n      mstore\n        /* \"#utility.yul\":8152:8306   */\n      pop\n      pop\n      pop\n      jump\t// out\n        /* \"#utility.yul\":8312:8722   */\n    tag_321:\n        /* \"#utility.yul\":8389:8394   */\n      0x00\n        /* \"#utility.yul\":8414:8479   */\n      tag_453\n        /* \"#utility.yul\":8430:8478   */\n      tag_454\n        /* \"#utility.yul\":8471:8477   */\n      dup5\n        /* \"#utility.yul\":8430:8478   */\n      tag_319\n      jump\t// in\n    tag_454:\n        /* \"#utility.yul\":8414:8479   */\n      tag_318\n      jump\t// in\n    tag_453:\n        /* \"#utility.yul\":8405:8479   */\n      swap1\n      pop\n        /* \"#utility.yul\":8502:8508   */\n      dup3\n        /* \"#utility.yul\":8495:8500   */\n      dup2\n        /* \"#utility.yul\":8488:8509   */\n      mstore\n        /* \"#utility.yul\":8540:8544   */\n      0x20\n        /* \"#utility.yul\":8533:8538   */\n      dup2\n        /* \"#utility.yul\":8529:8545   */\n      add\n        /* \"#utility.yul\":8578:8581   */\n      dup5\n        /* \"#utility.yul\":8569:8575   */\n      dup5\n        /* \"#utility.yul\":8564:8567   */\n      dup5\n        /* \"#utility.yul\":8560:8576   */\n      add\n        /* \"#utility.yul\":8557:8582   */\n      gt\n        /* \"#utility.yul\":8554:8666   */\n      iszero\n      tag_455\n      jumpi\n        /* \"#utility.yul\":8585:8664   */\n      tag_456\n      tag_316\n      jump\t// in\n    tag_456:\n        /* \"#utility.yul\":8554:8666   */\n    tag_455:\n        /* \"#utility.yul\":8675:8716   */\n      tag_457\n        /* \"#utility.yul\":8709:8715   */\n      dup5\n        /* \"#utility.yul\":8704:8707   */\n      dup3\n        /* \"#utility.yul\":8699:8702   */\n      dup6\n        /* \"#utility.yul\":8675:8716   */\n      tag_320\n      jump\t// in\n    tag_457:\n        /* \"#utility.yul\":8395:8722   */\n      pop\n        /* \"#utility.yul\":8312:8722   */\n      swap4\n      swap3\n      pop\n      pop\n      pop\n      jump\t// out\n        /* \"#utility.yul\":8741:9079   */\n    tag_322:\n        /* \"#utility.yul\":8796:8801   */\n      0x00\n        /* \"#utility.yul\":8845:8848   */\n      dup3\n        /* \"#utility.yul\":8838:8842   */\n      0x1f\n        /* \"#utility.yul\":8830:8836   */\n      dup4\n        /* \"#utility.yul\":8826:8843   */\n      add\n        /* \"#utility.yul\":8822:8849   */\n      slt\n        /* \"#utility.yul\":8812:8934   */\n      tag_459\n      jumpi\n        /* \"#utility.yul\":8853:8932   */\n      tag_460\n      tag_315\n      jump\t// in\n    tag_460:\n        /* \"#utility.yul\":8812:8934   */\n    tag_459:\n        /* \"#utility.yul\":8970:8976   */\n      dup2\n        /* \"#utility.yul\":8957:8977   */\n      calldataload\n        /* \"#utility.yul\":8995:9073   */\n      tag_461\n        /* \"#utility.yul\":9069:9072   */\n      dup5\n        /* \"#utility.yul\":9061:9067   */\n      dup3\n        /* \"#utility.yul\":9054:9058   */\n      0x20\n        /* \"#utility.yul\":9046:9052   */\n      dup7\n        /* \"#utility.yul\":9042:9059   */\n      add\n        /* \"#utility.yul\":8995:9073   */\n      tag_321\n      jump\t// in\n    tag_461:\n        /* \"#utility.yul\":8986:9073   */\n      swap2\n      pop\n        /* \"#utility.yul\":8802:9079   */\n      pop\n        /* \"#utility.yul\":8741:9079   */\n      swap3\n      swap2\n      pop\n      pop\n      jump\t// out\n        /* \"#utility.yul\":9085:10028   */\n    tag_73:\n        /* \"#utility.yul\":9180:9186   */\n      0x00\n        /* \"#utility.yul\":9188:9194   */\n      dup1\n        /* \"#utility.yul\":9196:9202   */\n      0x00\n        /* \"#utility.yul\":9204:9210   */\n      dup1\n        /* \"#utility.yul\":9253:9256   */\n      0x80\n        /* \"#utility.yul\":9241:9250   */\n      dup6\n        /* \"#utility.yul\":9232:9239   */\n      dup8\n        /* \"#utility.yul\":9228:9251   */\n      sub\n        /* \"#utility.yul\":9224:9257   */\n      slt\n        /* \"#utility.yul\":9221:9341   */\n      iszero\n      tag_463\n      jumpi\n        /* \"#utility.yul\":9260:9339   */\n      tag_464\n      tag_292\n      jump\t// in\n    tag_464:\n        /* \"#utility.yul\":9221:9341   */\n    tag_463:\n        /* \"#utility.yul\":9380:9381   */\n      0x00\n        /* \"#utility.yul\":9405:9458   */\n      tag_465\n        /* \"#utility.yul\":9450:9457   */\n      dup8\n        /* \"#utility.yul\":9441:9447   */\n      dup3\n        /* \"#utility.yul\":9430:9439   */\n      dup9\n        /* \"#utility.yul\":9426:9448   */\n      add\n        /* \"#utility.yul\":9405:9458   */\n      tag_311\n      jump\t// in\n    tag_465:\n        /* \"#utility.yul\":9395:9458   */\n      swap5\n      pop\n        /* \"#utility.yul\":9351:9468   */\n      pop\n        /* \"#utility.yul\":9507:9509   */\n      0x20\n        /* \"#utility.yul\":9533:9586   */\n      tag_466\n        /* \"#utility.yul\":9578:9585   */\n      dup8\n        /* \"#utility.yul\":9569:9575   */\n      dup3\n        /* \"#utility.yul\":9558:9567   */\n      dup9\n        /* \"#utility.yul\":9554:9576   */\n      add\n        /* \"#utility.yul\":9533:9586   */\n      tag_311\n      jump\t// in\n    tag_466:\n        /* \"#utility.yul\":9523:9586   */\n      swap4\n      pop\n        /* \"#utility.yul\":9478:9596   */\n      pop\n        /* \"#utility.yul\":9635:9637   */\n      0x40\n        /* \"#utility.yul\":9661:9714   */\n      tag_467\n        /* \"#utility.yul\":9706:9713   */\n      dup8\n        /* \"#utility.yul\":9697:9703   */\n      dup3\n        /* \"#utility.yul\":9686:9695   */\n      dup9\n        /* \"#utility.yul\":9682:9704   */\n      add\n        /* \"#utility.yul\":9661:9714   */\n      tag_306\n      jump\t// in\n    tag_467:\n        /* \"#utility.yul\":9651:9714   */\n      swap3\n      pop\n        /* \"#utility.yul\":9606:9724   */\n      pop\n        /* \"#utility.yul\":9791:9793   */\n      0x60\n        /* \"#utility.yul\":9780:9789   */\n      dup6\n        /* \"#utility.yul\":9776:9794   */\n      add\n        /* \"#utility.yul\":9763:9795   */\n      calldataload\n        /* \"#utility.yul\":9822:9840   */\n      0xffffffffffffffff\n        /* \"#utility.yul\":9814:9820   */\n      dup2\n        /* \"#utility.yul\":9811:9841   */\n      gt\n        /* \"#utility.yul\":9808:9925   */\n      iszero\n      tag_468\n      jumpi\n        /* \"#utility.yul\":9844:9923   */\n      tag_469\n      tag_293\n      jump\t// in\n    tag_469:\n        /* \"#utility.yul\":9808:9925   */\n    tag_468:\n        /* \"#utility.yul\":9949:10011   */\n      tag_470\n        /* \"#utility.yul\":10003:10010   */\n      dup8\n        /* \"#utility.yul\":9994:10000   */\n      dup3\n        /* \"#utility.yul\":9983:9992   */\n      dup9\n        /* \"#utility.yul\":9979:10001   */\n      add\n        /* \"#utility.yul\":9949:10011   */\n      tag_322\n      jump\t// in\n    tag_470:\n        /* \"#utility.yul\":9939:10011   */\n      swap2\n      pop\n        /* \"#utility.yul\":9734:10021   */\n      pop\n        /* \"#utility.yul\":9085:10028   */\n      swap3\n      swap6\n      swap2\n      swap5\n      pop\n      swap3\n      pop\n      jump\t// out\n        /* \"#utility.yul\":10034:10508   */\n    tag_81:\n        /* \"#utility.yul\":10102:10108   */\n      0x00\n        /* \"#utility.yul\":10110:10116   */\n      dup1\n        /* \"#utility.yul\":10159:10161   */\n      0x40\n        /* \"#utility.yul\":10147:10156   */\n      dup4\n        /* \"#utility.yul\":10138:10145   */\n      dup6\n        /* \"#utility.yul\":10134:10157   */\n      sub\n        /* \"#utility.yul\":10130:10162   */\n      slt\n        /* \"#utility.yul\":10127:10246   */\n      iszero\n      tag_472\n      jumpi\n        /* \"#utility.yul\":10165:10244   */\n      tag_473\n      tag_292\n      jump\t// in\n    tag_473:\n        /* \"#utility.yul\":10127:10246   */\n    tag_472:\n        /* \"#utility.yul\":10285:10286   */\n      0x00\n        /* \"#utility.yul\":10310:10363   */\n      tag_474\n        /* \"#utility.yul\":10355:10362   */\n      dup6\n        /* \"#utility.yul\":10346:10352   */\n      dup3\n        /* \"#utility.yul\":10335:10344   */\n      dup7\n        /* \"#utility.yul\":10331:10353   */\n      add\n        /* \"#utility.yul\":10310:10363   */\n      tag_311\n      jump\t// in\n    tag_474:\n        /* \"#utility.yul\":10300:10363   */\n      swap3\n      pop\n        /* \"#utility.yul\":10256:10373   */\n      pop\n        /* \"#utility.yul\":10412:10414   */\n      0x20\n        /* \"#utility.yul\":10438:10491   */\n      tag_475\n        /* \"#utility.yul\":10483:10490   */\n      dup6\n        /* \"#utility.yul\":10474:10480   */\n      dup3\n        /* \"#utility.yul\":10463:10472   */\n      dup7\n        /* \"#utility.yul\":10459:10481   */\n      add\n        /* \"#utility.yul\":10438:10491   */\n      tag_311\n      jump\t// in\n    tag_475:\n        /* \"#utility.yul\":10428:10491   */\n      swap2\n      pop\n        /* \"#utility.yul\":10383:10501   */\n      pop\n        /* \"#utility.yul\":10034:10508   */\n      swap3\n      pop\n      swap3\n      swap1\n      pop\n      jump\t// out\n        /* \"#utility.yul\":10514:10694   */\n    tag_323:\n        /* \"#utility.yul\":10562:10639   */\n      0x4e487b7100000000000000000000000000000000000000000000000000000000\n        /* \"#utility.yul\":10559:10560   */\n      0x00\n        /* \"#utility.yul\":10552:10640   */\n      mstore\n        /* \"#utility.yul\":10659:10663   */\n      0x22\n        /* \"#utility.yul\":10656:10657   */\n      0x04\n        /* \"#utility.yul\":10649:10664   */\n      mstore\n        /* \"#utility.yul\":10683:10687   */\n      0x24\n        /* \"#utility.yul\":10680:10681   */\n      0x00\n        /* \"#utility.yul\":10673:10688   */\n      revert\n        /* \"#utility.yul\":10700:11020   */\n    tag_94:\n        /* \"#utility.yul\":10744:10750   */\n      0x00\n        /* \"#utility.yul\":10781:10782   */\n      0x02\n        /* \"#utility.yul\":10775:10779   */\n      dup3\n        /* \"#utility.yul\":10771:10783   */\n      div\n        /* \"#utility.yul\":10761:10783   */\n      swap1\n      pop\n        /* \"#utility.yul\":10828:10829   */\n      0x01\n        /* \"#utility.yul\":10822:10826   */\n      dup3\n        /* \"#utility.yul\":10818:10830   */\n      and\n        /* \"#utility.yul\":10849:10867   */\n      dup1\n        /* \"#utility.yul\":10839:10920   */\n      tag_478\n      jumpi\n        /* \"#utility.yul\":10905:10909   */\n      0x7f\n        /* \"#utility.yul\":10897:10903   */\n      dup3\n        /* \"#utility.yul\":10893:10910   */\n      and\n        /* \"#utility.yul\":10883:10910   */\n      swap2\n      pop\n        /* \"#utility.yul\":10839:10920   */\n    tag_478:\n        /* \"#utility.yul\":10967:10969   */\n      0x20\n        /* \"#utility.yul\":10959:10965   */\n      dup3\n        /* \"#utility.yul\":10956:10970   */\n      lt\n        /* \"#utility.yul\":10936:10954   */\n      dup2\n        /* \"#utility.yul\":10933:10971   */\n      eq\n        /* \"#utility.yul\":10930:11014   */\n      iszero\n      tag_479\n      jumpi\n        /* \"#utility.yul\":10986:11004   */\n      tag_480\n      tag_323\n      jump\t// in\n    tag_480:\n        /* \"#utility.yul\":10930:11014   */\n    tag_479:\n        /* \"#utility.yul\":10751:11020   */\n      pop\n        /* \"#utility.yul\":10700:11020   */\n      swap2\n      swap1\n      pop\n      jump\t// out\n        /* \"#utility.yul\":11026:11246   */\n    tag_324:\n        /* \"#utility.yul\":11166:11200   */\n      0x4552433732313a20617070726f76616c20746f2063757272656e74206f776e65\n        /* \"#utility.yul\":11162:11163   */\n      0x00\n        /* \"#utility.yul\":11154:11160   */\n      dup3\n        /* \"#utility.yul\":11150:11164   */\n      add\n        /* \"#utility.yul\":11143:11201   */\n      mstore\n        /* \"#utility.yul\":11235:11238   */\n      0x7200000000000000000000000000000000000000000000000000000000000000\n        /* \"#utility.yul\":11230:11232   */\n      0x20\n        /* \"#utility.yul\":11222:11228   */\n      dup3\n        /* \"#utility.yul\":11218:11233   */\n      add\n        /* \"#utility.yul\":11211:11239   */\n      mstore\n        /* \"#utility.yul\":11026:11246   */\n      pop\n      jump\t// out\n        /* \"#utility.yul\":11252:11618   */\n    tag_325:\n        /* \"#utility.yul\":11394:11397   */\n      0x00\n        /* \"#utility.yul\":11415:11482   */\n      tag_483\n        /* \"#utility.yul\":11479:11481   */\n      0x21\n        /* \"#utility.yul\":11474:11477   */\n      dup4\n        /* \"#utility.yul\":11415:11482   */\n      tag_300\n      jump\t// in\n    tag_483:\n        /* \"#utility.yul\":11408:11482   */\n      swap2\n      pop\n        /* \"#utility.yul\":11491:11584   */\n      tag_484\n        /* \"#utility.yul\":11580:11583   */\n      dup3\n        /* \"#utility.yul\":11491:11584   */\n      tag_324\n      jump\t// in\n    tag_484:\n        /* \"#utility.yul\":11609:11611   */\n      0x40\n        /* \"#utility.yul\":11604:11607   */\n      dup3\n        /* \"#utility.yul\":11600:11612   */\n      add\n        /* \"#utility.yul\":11593:11612   */\n      swap1\n      pop\n        /* \"#utility.yul\":11252:11618   */\n      swap2\n      swap1\n      pop\n      jump\t// out\n        /* \"#utility.yul\":11624:12043   */\n    tag_106:\n        /* \"#utility.yul\":11790:11794   */\n      0x00\n        /* \"#utility.yul\":11828:11830   */\n      0x20\n        /* \"#utility.yul\":11817:11826   */\n      dup3\n        /* \"#utility.yul\":11813:11831   */\n      add\n        /* \"#utility.yul\":11805:11831   */\n      swap1\n      pop\n        /* \"#utility.yul\":11877:11886   */\n      dup2\n        /* \"#utility.yul\":11871:11875   */\n      dup2\n        /* \"#utility.yul\":11867:11887   */\n      sub\n        /* \"#utility.yul\":11863:11864   */\n      0x00\n        /* \"#utility.yul\":11852:11861   */\n      dup4\n        /* \"#utility.yul\":11848:11865   */\n      add\n        /* \"#utility.yul\":11841:11888   */\n      mstore\n        /* \"#utility.yul\":11905:12036   */\n      tag_486\n        /* \"#utility.yul\":12031:12035   */\n      dup2\n        /* \"#utility.yul\":11905:12036   */\n      tag_325\n      jump\t// in\n    tag_486:\n        /* \"#utility.yul\":11897:12036   */\n      swap1\n      pop\n        /* \"#utility.yul\":11624:12043   */\n      swap2\n      swap1\n      pop\n      jump\t// out\n        /* \"#utility.yul\":12049:12297   */\n    tag_326:\n        /* \"#utility.yul\":12189:12223   */\n      0x4552433732313a20617070726f76652063616c6c6572206973206e6f7420746f\n        /* \"#utility.yul\":12185:12186   */\n      0x00\n        /* \"#utility.yul\":12177:12183   */\n      dup3\n        /* \"#utility.yul\":12173:12187   */\n      add\n        /* \"#utility.yul\":12166:12224   */\n      mstore\n        /* \"#utility.yul\":12258:12289   */\n      0x6b656e206f776e6572206f7220617070726f76656420666f7220616c6c000000\n        /* \"#utility.yul\":12253:12255   */\n      0x20\n        /* \"#utility.yul\":12245:12251   */\n      dup3\n        /* \"#utility.yul\":12241:12256   */\n      add\n        /* \"#utility.yul\":12234:12290   */\n      mstore\n        /* \"#utility.yul\":12049:12297   */\n      pop\n      jump\t// out\n        /* \"#utility.yul\":12303:12669   */\n    tag_327:\n        /* \"#utility.yul\":12445:12448   */\n      0x00\n        /* \"#utility.yul\":12466:12533   */\n      tag_489\n        /* \"#utility.yul\":12530:12532   */\n      0x3d\n        /* \"#utility.yul\":12525:12528   */\n      dup4\n        /* \"#utility.yul\":12466:12533   */\n      tag_300\n      jump\t// in\n    tag_489:\n        /* \"#utility.yul\":12459:12533   */\n      swap2\n      pop\n        /* \"#utility.yul\":12542:12635   */\n      tag_490\n        /* \"#utility.yul\":12631:12634   */\n      dup3\n        /* \"#utility.yul\":12542:12635   */\n      tag_326\n      jump\t// in\n    tag_490:\n        /* \"#utility.yul\":12660:12662   */\n      0x40\n        /* \"#utility.yul\":12655:12658   */\n      dup3\n        /* \"#utility.yul\":12651:12663   */\n      add\n        /* \"#utility.yul\":12644:12663   */\n      swap1\n      pop\n        /* \"#utility.yul\":12303:12669   */\n      swap2\n      swap1\n      pop\n      jump\t// out\n        /* \"#utility.yul\":12675:13094   */\n    tag_114:\n        /* \"#utility.yul\":12841:12845   */\n      0x00\n        /* \"#utility.yul\":12879:12881   */\n      0x20\n        /* \"#utility.yul\":12868:12877   */\n      dup3\n        /* \"#utility.yul\":12864:12882   */\n      add\n        /* \"#utility.yul\":12856:12882   */\n      swap1\n      pop\n        /* \"#utility.yul\":12928:12937   */\n      dup2\n        /* \"#utility.yul\":12922:12926   */\n      dup2\n        /* \"#utility.yul\":12918:12938   */\n      sub\n        /* \"#utility.yul\":12914:12915   */\n      0x00\n        /* \"#utility.yul\":12903:12912   */\n      dup4\n        /* \"#utility.yul\":12899:12916   */\n      add\n        /* \"#utility.yul\":12892:12939   */\n      mstore\n        /* \"#utility.yul\":12956:13087   */\n      tag_492\n        /* \"#utility.yul\":13082:13086   */\n      dup2\n        /* \"#utility.yul\":12956:13087   */\n      tag_327\n      jump\t// in\n    tag_492:\n        /* \"#utility.yul\":12948:13087   */\n      swap1\n      pop\n        /* \"#utility.yul\":12675:13094   */\n      swap2\n      swap1\n      pop\n      jump\t// out\n        /* \"#utility.yul\":13100:13332   */\n    tag_328:\n        /* \"#utility.yul\":13240:13274   */\n      0x4552433732313a2063616c6c6572206973206e6f7420746f6b656e206f776e65\n        /* \"#utility.yul\":13236:13237   */\n      0x00\n        /* \"#utility.yul\":13228:13234   */\n      dup3\n        /* \"#utility.yul\":13224:13238   */\n      add\n        /* \"#utility.yul\":13217:13275   */\n      mstore\n        /* \"#utility.yul\":13309:13324   */\n      0x72206f7220617070726f76656400000000000000000000000000000000000000\n        /* \"#utility.yul\":13304:13306   */\n      0x20\n        /* \"#utility.yul\":13296:13302   */\n      dup3\n        /* \"#utility.yul\":13292:13307   */\n      add\n        /* \"#utility.yul\":13285:13325   */\n      mstore\n        /* \"#utility.yul\":13100:13332   */\n      pop\n      jump\t// out\n        /* \"#utility.yul\":13338:13704   */\n    tag_329:\n        /* \"#utility.yul\":13480:13483   */\n      0x00\n        /* \"#utility.yul\":13501:13568   */\n      tag_495\n        /* \"#utility.yul\":13565:13567   */\n      0x2d\n        /* \"#utility.yul\":13560:13563   */\n      dup4\n        /* \"#utility.yul\":13501:13568   */\n      tag_300\n      jump\t// in\n    tag_495:\n        /* \"#utility.yul\":13494:13568   */\n      swap2\n      pop\n        /* \"#utility.yul\":13577:13670   */\n      tag_496\n        /* \"#utility.yul\":13666:13669   */\n      dup3\n        /* \"#utility.yul\":13577:13670   */\n      tag_328\n      jump\t// in\n    tag_496:\n        /* \"#utility.yul\":13695:13697   */\n      0x40\n        /* \"#utility.yul\":13690:13693   */\n      dup3\n        /* \"#utility.yul\":13686:13698   */\n      add\n        /* \"#utility.yul\":13679:13698   */\n      swap1\n      pop\n        /* \"#utility.yul\":13338:13704   */\n      swap2\n      swap1\n      pop\n      jump\t// out\n        /* \"#utility.yul\":13710:14129   */\n    tag_123:\n        /* \"#utility.yul\":13876:13880   */\n      0x00\n        /* \"#utility.yul\":13914:13916   */\n      0x20\n        /* \"#utility.yul\":13903:13912   */\n      dup3\n        /* \"#utility.yul\":13899:13917   */\n      add\n        /* \"#utility.yul\":13891:13917   */\n      swap1\n      pop\n        /* \"#utility.yul\":13963:13972   */\n      dup2\n        /* \"#utility.yul\":13957:13961   */\n      dup2\n        /* \"#utility.yul\":13953:13973   */\n      sub\n        /* \"#utility.yul\":13949:13950   */\n      0x00\n        /* \"#utility.yul\":13938:13947   */\n      dup4\n        /* \"#utility.yul\":13934:13951   */\n      add\n        /* \"#utility.yul\":13927:13974   */\n      mstore\n        /* \"#utility.yul\":13991:14122   */\n      tag_498\n        /* \"#utility.yul\":14117:14121   */\n      dup2\n        /* \"#utility.yul\":13991:14122   */\n      tag_329\n      jump\t// in\n    tag_498:\n        /* \"#utility.yul\":13983:14122   */\n      swap1\n      pop\n        /* \"#utility.yul\":13710:14129   */\n      swap2\n      swap1\n      pop\n      jump\t// out\n        /* \"#utility.yul\":14135:14309   */\n    tag_330:\n        /* \"#utility.yul\":14275:14301   */\n      0x4552433732313a20696e76616c696420746f6b656e2049440000000000000000\n        /* \"#utility.yul\":14271:14272   */\n      0x00\n        /* \"#utility.yul\":14263:14269   */\n      dup3\n        /* \"#utility.yul\":14259:14273   */\n      add\n        /* \"#utility.yul\":14252:14302   */\n      mstore\n        /* \"#utility.yul\":14135:14309   */\n      pop\n      jump\t// out\n        /* \"#utility.yul\":14315:14681   */\n    tag_331:\n        /* \"#utility.yul\":14457:14460   */\n      0x00\n        /* \"#utility.yul\":14478:14545   */\n      tag_501\n        /* \"#utility.yul\":14542:14544   */\n      0x18\n        /* \"#utility.yul\":14537:14540   */\n      dup4\n        /* \"#utility.yul\":14478:14545   */\n      tag_300\n      jump\t// in\n    tag_501:\n        /* \"#utility.yul\":14471:14545   */\n      swap2\n      pop\n        /* \"#utility.yul\":14554:14647   */\n      tag_502\n        /* \"#utility.yul\":14643:14646   */\n      dup3\n        /* \"#utility.yul\":14554:14647   */\n      tag_330\n      jump\t// in\n    tag_502:\n        /* \"#utility.yul\":14672:14674   */\n      0x20\n        /* \"#utility.yul\":14667:14670   */\n      dup3\n        /* \"#utility.yul\":14663:14675   */\n      add\n        /* \"#utility.yul\":14656:14675   */\n      swap1\n      pop\n        /* \"#utility.yul\":14315:14681   */\n      swap2\n      swap1\n      pop\n      jump\t// out\n        /* \"#utility.yul\":14687:15106   */\n    tag_133:\n        /* \"#utility.yul\":14853:14857   */\n      0x00\n        /* \"#utility.yul\":14891:14893   */\n      0x20\n        /* \"#utility.yul\":14880:14889   */\n      dup3\n        /* \"#utility.yul\":14876:14894   */\n      add\n        /* \"#utility.yul\":14868:14894   */\n      swap1\n      pop\n        /* \"#utility.yul\":14940:14949   */\n      dup2\n        /* \"#utility.yul\":14934:14938   */\n      dup2\n        /* \"#utility.yul\":14930:14950   */\n      sub\n        /* \"#utility.yul\":14926:14927   */\n      0x00\n        /* \"#utility.yul\":14915:14924   */\n      dup4\n        /* \"#utility.yul\":14911:14928   */\n      add\n        /* \"#utility.yul\":14904:14951   */\n      mstore\n        /* \"#utility.yul\":14968:15099   */\n      tag_504\n        /* \"#utility.yul\":15094:15098   */\n      dup2\n        /* \"#utility.yul\":14968:15099   */\n      tag_331\n      jump\t// in\n    tag_504:\n        /* \"#utility.yul\":14960:15099   */\n      swap1\n      pop\n        /* \"#utility.yul\":14687:15106   */\n      swap2\n      swap1\n      pop\n      jump\t// out\n        /* \"#utility.yul\":15112:15282   */\n    tag_332:\n        /* \"#utility.yul\":15252:15274   */\n      0x4552433732313a2061646472657373207a65726f000000000000000000000000\n        /* \"#utility.yul\":15248:15249   */\n      0x00\n        /* \"#utility.yul\":15240:15246   */\n      dup3\n        /* \"#utility.yul\":15236:15250   */\n      add\n        /* \"#utility.yul\":15229:15275   */\n      mstore\n        /* \"#utility.yul\":15112:15282   */\n      pop\n      jump\t// out\n        /* \"#utility.yul\":15288:15654   */\n    tag_333:\n        /* \"#utility.yul\":15430:15433   */\n      0x00\n        /* \"#utility.yul\":15451:15518   */\n      tag_507\n        /* \"#utility.yul\":15515:15517   */\n      0x14\n        /* \"#utility.yul\":15510:15513   */\n      dup4\n        /* \"#utility.yul\":15451:15518   */\n      tag_300\n      jump\t// in\n    tag_507:\n        /* \"#utility.yul\":15444:15518   */\n      swap2\n      pop\n        /* \"#utility.yul\":15527:15620   */\n      tag_508\n        /* \"#utility.yul\":15616:15619   */\n      dup3\n        /* \"#utility.yul\":15527:15620   */\n      tag_332\n      jump\t// in\n    tag_508:\n        /* \"#utility.yul\":15645:15647   */\n      0x20\n        /* \"#utility.yul\":15640:15643   */\n      dup3\n        /* \"#utility.yul\":15636:15648   */\n      add\n        /* \"#utility.yul\":15629:15648   */\n      swap1\n      pop\n        /* \"#utility.yul\":15288:15654   */\n      swap2\n      swap1\n      pop\n      jump\t// out\n        /* \"#utility.yul\":15660:16079   */\n    tag_137:\n        /* \"#utility.yul\":15826:15830   */\n      0x00\n        /* \"#utility.yul\":15864:15866   */\n      0x20\n        /* \"#utility.yul\":15853:15862   */\n      dup3\n        /* \"#utility.yul\":15849:15867   */\n      add\n        /* \"#utility.yul\":15841:15867   */\n      swap1\n      pop\n        /* \"#utility.yul\":15913:15922   */\n      dup2\n        /* \"#utility.yul\":15907:15911   */\n      dup2\n        /* \"#utility.yul\":15903:15923   */\n      sub\n        /* \"#utility.yul\":15899:15900   */\n      0x00\n        /* \"#utility.yul\":15888:15897   */\n      dup4\n        /* \"#utility.yul\":15884:15901   */\n      add\n        /* \"#utility.yul\":15877:15924   */\n      mstore\n        /* \"#utility.yul\":15941:16072   */\n      tag_510\n        /* \"#utility.yul\":16067:16071   */\n      dup2\n        /* \"#utility.yul\":15941:16072   */\n      tag_333\n      jump\t// in\n    tag_510:\n        /* \"#utility.yul\":15933:16072   */\n      swap1\n      pop\n        /* \"#utility.yul\":15660:16079   */\n      swap2\n      swap1\n      pop\n      jump\t// out\n        /* \"#utility.yul\":16085:16233   */\n    tag_334:\n        /* \"#utility.yul\":16187:16198   */\n      0x00\n        /* \"#utility.yul\":16224:16227   */\n      dup2\n        /* \"#utility.yul\":16209:16227   */\n      swap1\n      pop\n        /* \"#utility.yul\":16085:16233   */\n      swap3\n      swap2\n      pop\n      pop\n      jump\t// out\n        /* \"#utility.yul\":16239:16616   */\n    tag_335:\n        /* \"#utility.yul\":16345:16348   */\n      0x00\n        /* \"#utility.yul\":16373:16412   */\n      tag_513\n        /* \"#utility.yul\":16406:16411   */\n      dup3\n        /* \"#utility.yul\":16373:16412   */\n      tag_299\n      jump\t// in\n    tag_513:\n        /* \"#utility.yul\":16428:16517   */\n      tag_514\n        /* \"#utility.yul\":16510:16516   */\n      dup2\n        /* \"#utility.yul\":16505:16508   */\n      dup6\n        /* \"#utility.yul\":16428:16517   */\n      tag_334\n      jump\t// in\n    tag_514:\n        /* \"#utility.yul\":16421:16517   */\n      swap4\n      pop\n        /* \"#utility.yul\":16526:16578   */\n      tag_515\n        /* \"#utility.yul\":16571:16577   */\n      dup2\n        /* \"#utility.yul\":16566:16569   */\n      dup6\n        /* \"#utility.yul\":16559:16563   */\n      0x20\n        /* \"#utility.yul\":16552:16557   */\n      dup7\n        /* \"#utility.yul\":16548:16564   */\n      add\n        /* \"#utility.yul\":16526:16578   */\n      tag_301\n      jump\t// in\n    tag_515:\n        /* \"#utility.yul\":16603:16609   */\n      dup1\n        /* \"#utility.yul\":16598:16601   */\n      dup5\n        /* \"#utility.yul\":16594:16610   */\n      add\n        /* \"#utility.yul\":16587:16610   */\n      swap2\n      pop\n        /* \"#utility.yul\":16349:16616   */\n      pop\n        /* \"#utility.yul\":16239:16616   */\n      swap3\n      swap2\n      pop\n      pop\n      jump\t// out\n        /* \"#utility.yul\":16622:17057   */\n    tag_171:\n        /* \"#utility.yul\":16802:16805   */\n      0x00\n        /* \"#utility.yul\":16824:16919   */\n      tag_517\n        /* \"#utility.yul\":16915:16918   */\n      dup3\n        /* \"#utility.yul\":16906:16912   */\n      dup6\n        /* \"#utility.yul\":16824:16919   */\n      tag_335\n      jump\t// in\n    tag_517:\n        /* \"#utility.yul\":16817:16919   */\n      swap2\n      pop\n        /* \"#utility.yul\":16936:17031   */\n      tag_518\n        /* \"#utility.yul\":17027:17030   */\n      dup3\n        /* \"#utility.yul\":17018:17024   */\n      dup5\n        /* \"#utility.yul\":16936:17031   */\n      tag_335\n      jump\t// in\n    tag_518:\n        /* \"#utility.yul\":16929:17031   */\n      swap2\n      pop\n        /* \"#utility.yul\":17048:17051   */\n      dup2\n        /* \"#utility.yul\":17041:17051   */\n      swap1\n      pop\n        /* \"#utility.yul\":16622:17057   */\n      swap4\n      swap3\n      pop\n      pop\n      pop\n      jump\t// out\n        /* \"#utility.yul\":17063:17288   */\n    tag_336:\n        /* \"#utility.yul\":17203:17237   */\n      0x4f776e61626c653a206e6577206f776e657220697320746865207a65726f2061\n        /* \"#utility.yul\":17199:17200   */\n      0x00\n        /* \"#utility.yul\":17191:17197   */\n      dup3\n        /* \"#utility.yul\":17187:17201   */\n      add\n        /* \"#utility.yul\":17180:17238   */\n      mstore\n        /* \"#utility.yul\":17272:17280   */\n      0x6464726573730000000000000000000000000000000000000000000000000000\n        /* \"#utility.yul\":17267:17269   */\n      0x20\n        /* \"#utility.yul\":17259:17265   */\n      dup3\n        /* \"#utility.yul\":17255:17270   */\n      add\n        /* \"#utility.yul\":17248:17281   */\n      mstore\n        /* \"#utility.yul\":17063:17288   */\n      pop\n      jump\t// out\n        /* \"#utility.yul\":17294:17660   */\n    tag_337:\n        /* \"#utility.yul\":17436:17439   */\n      0x00\n        /* \"#utility.yul\":17457:17524   */\n      tag_521\n        /* \"#utility.yul\":17521:17523   */\n      0x26\n        /* \"#utility.yul\":17516:17519   */\n      dup4\n        /* \"#utility.yul\":17457:17524   */\n      tag_300\n      jump\t// in\n    tag_521:\n        /* \"#utility.yul\":17450:17524   */\n      swap2\n      pop\n        /* \"#utility.yul\":17533:17626   */\n      tag_522\n        /* \"#utility.yul\":17622:17625   */\n      dup3\n        /* \"#utility.yul\":17533:17626   */\n      tag_336\n      jump\t// in\n    tag_522:\n        /* \"#utility.yul\":17651:17653   */\n      0x40\n        /* \"#utility.yul\":17646:17649   */\n      dup3\n        /* \"#utility.yul\":17642:17654   */\n      add\n        /* \"#utility.yul\":17635:17654   */\n      swap1\n      pop\n        /* \"#utility.yul\":17294:17660   */\n      swap2\n      swap1\n      pop\n      jump\t// out\n        /* \"#utility.yul\":17666:18085   */\n    tag_178:\n        /* \"#utility.yul\":17832:17836   */\n      0x00\n        /* \"#utility.yul\":17870:17872   */\n      0x20\n        /* \"#utility.yul\":17859:17868   */\n      dup3\n        /* \"#utility.yul\":17855:17873   */\n      add\n        /* \"#utility.yul\":17847:17873   */\n      swap1\n      pop\n        /* \"#utility.yul\":17919:17928   */\n      dup2\n        /* \"#utility.yul\":17913:17917   */\n      dup2\n        /* \"#utility.yul\":17909:17929   */\n      sub\n        /* \"#utility.yul\":17905:17906   */\n      0x00\n        /* \"#utility.yul\":17894:17903   */\n      dup4\n        /* \"#utility.yul\":17890:17907   */\n      add\n        /* \"#utility.yul\":17883:17930   */\n      mstore\n        /* \"#utility.yul\":17947:18078   */\n      tag_524\n        /* \"#utility.yul\":18073:18077   */\n      dup2\n        /* \"#utility.yul\":17947:18078   */\n      tag_337\n      jump\t// in\n    tag_524:\n        /* \"#utility.yul\":17939:18078   */\n      swap1\n      pop\n        /* \"#utility.yul\":17666:18085   */\n      swap2\n      swap1\n      pop\n      jump\t// out\n        /* \"#utility.yul\":18091:18315   */\n    tag_338:\n        /* \"#utility.yul\":18231:18265   */\n      0x4552433732313a207472616e736665722066726f6d20696e636f727265637420\n        /* \"#utility.yul\":18227:18228   */\n      0x00\n        /* \"#utility.yul\":18219:18225   */\n      dup3\n        /* \"#utility.yul\":18215:18229   */\n      add\n        /* \"#utility.yul\":18208:18266   */\n      mstore\n        /* \"#utility.yul\":18300:18307   */\n      0x6f776e6572000000000000000000000000000000000000000000000000000000\n        /* \"#utility.yul\":18295:18297   */\n      0x20\n        /* \"#utility.yul\":18287:18293   */\n      dup3\n        /* \"#utility.yul\":18283:18298   */\n      add\n        /* \"#utility.yul\":18276:18308   */\n      mstore\n        /* \"#utility.yul\":18091:18315   */\n      pop\n      jump\t// out\n        /* \"#utility.yul\":18321:18687   */\n    tag_339:\n        /* \"#utility.yul\":18463:18466   */\n      0x00\n        /* \"#utility.yul\":18484:18551   */\n      tag_527\n        /* \"#utility.yul\":18548:18550   */\n      0x25\n        /* \"#utility.yul\":18543:18546   */\n      dup4\n        /* \"#utility.yul\":18484:18551   */\n      tag_300\n      jump\t// in\n    tag_527:\n        /* \"#utility.yul\":18477:18551   */\n      swap2\n      pop\n        /* \"#utility.yul\":18560:18653   */\n      tag_528\n        /* \"#utility.yul\":18649:18652   */\n      dup3\n        /* \"#utility.yul\":18560:18653   */\n      tag_338\n      jump\t// in\n    tag_528:\n        /* \"#utility.yul\":18678:18680   */\n      0x40\n        /* \"#utility.yul\":18673:18676   */\n      dup3\n        /* \"#utility.yul\":18669:18681   */\n      add\n        /* \"#utility.yul\":18662:18681   */\n      swap1\n      pop\n        /* \"#utility.yul\":18321:18687   */\n      swap2\n      swap1\n      pop\n      jump\t// out\n        /* \"#utility.yul\":18693:19112   */\n    tag_199:\n        /* \"#utility.yul\":18859:18863   */\n      0x00\n        /* \"#utility.yul\":18897:18899   */\n      0x20\n        /* \"#utility.yul\":18886:18895   */\n      dup3\n        /* \"#utility.yul\":18882:18900   */\n      add\n        /* \"#utility.yul\":18874:18900   */\n      swap1\n      pop\n        /* \"#utility.yul\":18946:18955   */\n      dup2\n        /* \"#utility.yul\":18940:18944   */\n      dup2\n        /* \"#utility.yul\":18936:18956   */\n      sub\n        /* \"#utility.yul\":18932:18933   */\n      0x00\n        /* \"#utility.yul\":18921:18930   */\n      dup4\n        /* \"#utility.yul\":18917:18934   */\n      add\n        /* \"#utility.yul\":18910:18957   */\n      mstore\n        /* \"#utility.yul\":18974:19105   */\n      tag_530\n        /* \"#utility.yul\":19100:19104   */\n      dup2\n        /* \"#utility.yul\":18974:19105   */\n      tag_339\n      jump\t// in\n    tag_530:\n        /* \"#utility.yul\":18966:19105   */\n      swap1\n      pop\n        /* \"#utility.yul\":18693:19112   */\n      swap2\n      swap1\n      pop\n      jump\t// out\n        /* \"#utility.yul\":19118:19341   */\n    tag_340:\n        /* \"#utility.yul\":19258:19292   */\n      0x4552433732313a207472616e7366657220746f20746865207a65726f20616464\n        /* \"#utility.yul\":19254:19255   */\n      0x00\n        /* \"#utility.yul\":19246:19252   */\n      dup3\n        /* \"#utility.yul\":19242:19256   */\n      add\n        /* \"#utility.yul\":19235:19293   */\n      mstore\n        /* \"#utility.yul\":19327:19333   */\n      0x7265737300000000000000000000000000000000000000000000000000000000\n        /* \"#utility.yul\":19322:19324   */\n      0x20\n        /* \"#utility.yul\":19314:19320   */\n      dup3\n        /* \"#utility.yul\":19310:19325   */\n      add\n        /* \"#utility.yul\":19303:19334   */\n      mstore\n        /* \"#utility.yul\":19118:19341   */\n      pop\n      jump\t// out\n        /* \"#utility.yul\":19347:19713   */\n    tag_341:\n        /* \"#utility.yul\":19489:19492   */\n      0x00\n        /* \"#utility.yul\":19510:19577   */\n      tag_533\n        /* \"#utility.yul\":19574:19576   */\n      0x24\n        /* \"#utility.yul\":19569:19572   */\n      dup4\n        /* \"#utility.yul\":19510:19577   */\n      tag_300\n      jump\t// in\n    tag_533:\n        /* \"#utility.yul\":19503:19577   */\n      swap2\n      pop\n        /* \"#utility.yul\":19586:19679   */\n      tag_534\n        /* \"#utility.yul\":19675:19678   */\n      dup3\n        /* \"#utility.yul\":19586:19679   */\n      tag_340\n      jump\t// in\n    tag_534:\n        /* \"#utility.yul\":19704:19706   */\n      0x40\n        /* \"#utility.yul\":19699:19702   */\n      dup3\n        /* \"#utility.yul\":19695:19707   */\n      add\n        /* \"#utility.yul\":19688:19707   */\n      swap1\n      pop\n        /* \"#utility.yul\":19347:19713   */\n      swap2\n      swap1\n      pop\n      jump\t// out\n        /* \"#utility.yul\":19719:20138   */\n    tag_202:\n        /* \"#utility.yul\":19885:19889   */\n      0x00\n        /* \"#utility.yul\":19923:19925   */\n      0x20\n        /* \"#utility.yul\":19912:19921   */\n      dup3\n        /* \"#utility.yul\":19908:19926   */\n      add\n        /* \"#utility.yul\":19900:19926   */\n      swap1\n      pop\n        /* \"#utility.yul\":19972:19981   */\n      dup2\n        /* \"#utility.yul\":19966:19970   */\n      dup2\n        /* \"#utility.yul\":19962:19982   */\n      sub\n        /* \"#utility.yul\":19958:19959   */\n      0x00\n        /* \"#utility.yul\":19947:19956   */\n      dup4\n        /* \"#utility.yul\":19943:19960   */\n      add\n        /* \"#utility.yul\":19936:19983   */\n      mstore\n        /* \"#utility.yul\":20000:20131   */\n      tag_536\n        /* \"#utility.yul\":20126:20130   */\n      dup2\n        /* \"#utility.yul\":20000:20131   */\n      tag_341\n      jump\t// in\n    tag_536:\n        /* \"#utility.yul\":19992:20131   */\n      swap1\n      pop\n        /* \"#utility.yul\":19719:20138   */\n      swap2\n      swap1\n      pop\n      jump\t// out\n        /* \"#utility.yul\":20144:20326   */\n    tag_342:\n        /* \"#utility.yul\":20284:20318   */\n      0x4f776e61626c653a2063616c6c6572206973206e6f7420746865206f776e6572\n        /* \"#utility.yul\":20280:20281   */\n      0x00\n        /* \"#utility.yul\":20272:20278   */\n      dup3\n        /* \"#utility.yul\":20268:20282   */\n      add\n        /* \"#utility.yul\":20261:20319   */\n      mstore\n        /* \"#utility.yul\":20144:20326   */\n      pop\n      jump\t// out\n        /* \"#utility.yul\":20332:20698   */\n    tag_343:\n        /* \"#utility.yul\":20474:20477   */\n      0x00\n        /* \"#utility.yul\":20495:20562   */\n      tag_539\n        /* \"#utility.yul\":20559:20561   */\n      0x20\n        /* \"#utility.yul\":20554:20557   */\n      dup4\n        /* \"#utility.yul\":20495:20562   */\n      tag_300\n      jump\t// in\n    tag_539:\n        /* \"#utility.yul\":20488:20562   */\n      swap2\n      pop\n        /* \"#utility.yul\":20571:20664   */\n      tag_540\n        /* \"#utility.yul\":20660:20663   */\n      dup3\n        /* \"#utility.yul\":20571:20664   */\n      tag_342\n      jump\t// in\n    tag_540:\n        /* \"#utility.yul\":20689:20691   */\n      0x20\n        /* \"#utility.yul\":20684:20687   */\n      dup3\n        /* \"#utility.yul\":20680:20692   */\n      add\n        /* \"#utility.yul\":20673:20692   */\n      swap1\n      pop\n        /* \"#utility.yul\":20332:20698   */\n      swap2\n      swap1\n      pop\n      jump\t// out\n        /* \"#utility.yul\":20704:21123   */\n    tag_216:\n        /* \"#utility.yul\":20870:20874   */\n      0x00\n        /* \"#utility.yul\":20908:20910   */\n      0x20\n        /* \"#utility.yul\":20897:20906   */\n      dup3\n        /* \"#utility.yul\":20893:20911   */\n      add\n        /* \"#utility.yul\":20885:20911   */\n      swap1\n      pop\n        /* \"#utility.yul\":20957:20966   */\n      dup2\n        /* \"#utility.yul\":20951:20955   */\n      dup2\n        /* \"#utility.yul\":20947:20967   */\n      sub\n        /* \"#utility.yul\":20943:20944   */\n      0x00\n        /* \"#utility.yul\":20932:20941   */\n      dup4\n        /* \"#utility.yul\":20928:20945   */\n      add\n        /* \"#utility.yul\":20921:20968   */\n      mstore\n        /* \"#utility.yul\":20985:21116   */\n      tag_542\n        /* \"#utility.yul\":21111:21115   */\n      dup2\n        /* \"#utility.yul\":20985:21116   */\n      tag_343\n      jump\t// in\n    tag_542:\n        /* \"#utility.yul\":20977:21116   */\n      swap1\n      pop\n        /* \"#utility.yul\":20704:21123   */\n      swap2\n      swap1\n      pop\n      jump\t// out\n        /* \"#utility.yul\":21129:21304   */\n    tag_344:\n        /* \"#utility.yul\":21269:21296   */\n      0x4552433732313a20617070726f766520746f2063616c6c657200000000000000\n        /* \"#utility.yul\":21265:21266   */\n      0x00\n        /* \"#utility.yul\":21257:21263   */\n      dup3\n        /* \"#utility.yul\":21253:21267   */\n      add\n        /* \"#utility.yul\":21246:21297   */\n      mstore\n        /* \"#utility.yul\":21129:21304   */\n      pop\n      jump\t// out\n        /* \"#utility.yul\":21310:21676   */\n    tag_345:\n        /* \"#utility.yul\":21452:21455   */\n      0x00\n        /* \"#utility.yul\":21473:21540   */\n      tag_545\n        /* \"#utility.yul\":21537:21539   */\n      0x19\n        /* \"#utility.yul\":21532:21535   */\n      dup4\n        /* \"#utility.yul\":21473:21540   */\n      tag_300\n      jump\t// in\n    tag_545:\n        /* \"#utility.yul\":21466:21540   */\n      swap2\n      pop\n        /* \"#utility.yul\":21549:21642   */\n      tag_546\n        /* \"#utility.yul\":21638:21641   */\n      dup3\n        /* \"#utility.yul\":21549:21642   */\n      tag_344\n      jump\t// in\n    tag_546:\n        /* \"#utility.yul\":21667:21669   */\n      0x20\n        /* \"#utility.yul\":21662:21665   */\n      dup3\n        /* \"#utility.yul\":21658:21670   */\n      add\n        /* \"#utility.yul\":21651:21670   */\n      swap1\n      pop\n        /* \"#utility.yul\":21310:21676   */\n      swap2\n      swap1\n      pop\n      jump\t// out\n        /* \"#utility.yul\":21682:22101   */\n    tag_221:\n        /* \"#utility.yul\":21848:21852   */\n      0x00\n        /* \"#utility.yul\":21886:21888   */\n      0x20\n        /* \"#utility.yul\":21875:21884   */\n      dup3\n        /* \"#utility.yul\":21871:21889   */\n      add\n        /* \"#utility.yul\":21863:21889   */\n      swap1\n      pop\n        /* \"#utility.yul\":21935:21944   */\n      dup2\n        /* \"#utility.yul\":21929:21933   */\n      dup2\n        /* \"#utility.yul\":21925:21945   */\n      sub\n        /* \"#utility.yul\":21921:21922   */\n      0x00\n        /* \"#utility.yul\":21910:21919   */\n      dup4\n        /* \"#utility.yul\":21906:21923   */\n      add\n        /* \"#utility.yul\":21899:21946   */\n      mstore\n        /* \"#utility.yul\":21963:22094   */\n      tag_548\n        /* \"#utility.yul\":22089:22093   */\n      dup2\n        /* \"#utility.yul\":21963:22094   */\n      tag_345\n      jump\t// in\n    tag_548:\n        /* \"#utility.yul\":21955:22094   */\n      swap1\n      pop\n        /* \"#utility.yul\":21682:22101   */\n      swap2\n      swap1\n      pop\n      jump\t// out\n        /* \"#utility.yul\":22107:22344   */\n    tag_346:\n        /* \"#utility.yul\":22247:22281   */\n      0x4552433732313a207472616e7366657220746f206e6f6e204552433732315265\n        /* \"#utility.yul\":22243:22244   */\n      0x00\n        /* \"#utility.yul\":22235:22241   */\n      dup3\n        /* \"#utility.yul\":22231:22245   */\n      add\n        /* \"#utility.yul\":22224:22282   */\n      mstore\n        /* \"#utility.yul\":22316:22336   */\n      0x63656976657220696d706c656d656e7465720000000000000000000000000000\n        /* \"#utility.yul\":22311:22313   */\n      0x20\n        /* \"#utility.yul\":22303:22309   */\n      dup3\n        /* \"#utility.yul\":22299:22314   */\n      add\n        /* \"#utility.yul\":22292:22337   */\n      mstore\n        /* \"#utility.yul\":22107:22344   */\n      pop\n      jump\t// out\n        /* \"#utility.yul\":22350:22716   */\n    tag_347:\n        /* \"#utility.yul\":22492:22495   */\n      0x00\n        /* \"#utility.yul\":22513:22580   */\n      tag_551\n        /* \"#utility.yul\":22577:22579   */\n      0x32\n        /* \"#utility.yul\":22572:22575   */\n      dup4\n        /* \"#utility.yul\":22513:22580   */\n      tag_300\n      jump\t// in\n    tag_551:\n        /* \"#utility.yul\":22506:22580   */\n      swap2\n      pop\n        /* \"#utility.yul\":22589:22682   */\n      tag_552\n        /* \"#utility.yul\":22678:22681   */\n      dup3\n        /* \"#utility.yul\":22589:22682   */\n      tag_346\n      jump\t// in\n    tag_552:\n        /* \"#utility.yul\":22707:22709   */\n      0x40\n        /* \"#utility.yul\":22702:22705   */\n      dup3\n        /* \"#utility.yul\":22698:22710   */\n      add\n        /* \"#utility.yul\":22691:22710   */\n      swap1\n      pop\n        /* \"#utility.yul\":22350:22716   */\n      swap2\n      swap1\n      pop\n      jump\t// out\n        /* \"#utility.yul\":22722:23141   */\n    tag_229:\n        /* \"#utility.yul\":22888:22892   */\n      0x00\n        /* \"#utility.yul\":22926:22928   */\n      0x20\n        /* \"#utility.yul\":22915:22924   */\n      dup3\n        /* \"#utility.yul\":22911:22929   */\n      add\n        /* \"#utility.yul\":22903:22929   */\n      swap1\n      pop\n        /* \"#utility.yul\":22975:22984   */\n      dup2\n        /* \"#utility.yul\":22969:22973   */\n      dup2\n        /* \"#utility.yul\":22965:22985   */\n      sub\n        /* \"#utility.yul\":22961:22962   */\n      0x00\n        /* \"#utility.yul\":22950:22959   */\n      dup4\n        /* \"#utility.yul\":22946:22963   */\n      add\n        /* \"#utility.yul\":22939:22986   */\n      mstore\n        /* \"#utility.yul\":23003:23134   */\n      tag_554\n        /* \"#utility.yul\":23129:23133   */\n      dup2\n        /* \"#utility.yul\":23003:23134   */\n      tag_347\n      jump\t// in\n    tag_554:\n        /* \"#utility.yul\":22995:23134   */\n      swap1\n      pop\n        /* \"#utility.yul\":22722:23141   */\n      swap2\n      swap1\n      pop\n      jump\t// out\n        /* \"#utility.yul\":23147:23327   */\n    tag_242:\n        /* \"#utility.yul\":23195:23272   */\n      0x4e487b7100000000000000000000000000000000000000000000000000000000\n        /* \"#utility.yul\":23192:23193   */\n      0x00\n        /* \"#utility.yul\":23185:23273   */\n      mstore\n        /* \"#utility.yul\":23292:23296   */\n      0x12\n        /* \"#utility.yul\":23289:23290   */\n      0x04\n        /* \"#utility.yul\":23282:23297   */\n      mstore\n        /* \"#utility.yul\":23316:23320   */\n      0x24\n        /* \"#utility.yul\":23313:23314   */\n      0x00\n        /* \"#utility.yul\":23306:23321   */\n      revert\n        /* \"#utility.yul\":23333:23431   */\n    tag_348:\n        /* \"#utility.yul\":23384:23390   */\n      0x00\n        /* \"#utility.yul\":23418:23423   */\n      dup2\n        /* \"#utility.yul\":23412:23424   */\n      mload\n        /* \"#utility.yul\":23402:23424   */\n      swap1\n      pop\n        /* \"#utility.yul\":23333:23431   */\n      swap2\n      swap1\n      pop\n      jump\t// out\n        /* \"#utility.yul\":23437:23605   */\n    tag_349:\n        /* \"#utility.yul\":23520:23531   */\n      0x00\n        /* \"#utility.yul\":23554:23560   */\n      dup3\n        /* \"#utility.yul\":23549:23552   */\n      dup3\n        /* \"#utility.yul\":23542:23561   */\n      mstore\n        /* \"#utility.yul\":23594:23598   */\n      0x20\n        /* \"#utility.yul\":23589:23592   */\n      dup3\n        /* \"#utility.yul\":23585:23599   */\n      add\n        /* \"#utility.yul\":23570:23599   */\n      swap1\n      pop\n        /* \"#utility.yul\":23437:23605   */\n      swap3\n      swap2\n      pop\n      pop\n      jump\t// out\n        /* \"#utility.yul\":23611:23971   */\n    tag_350:\n        /* \"#utility.yul\":23697:23700   */\n      0x00\n        /* \"#utility.yul\":23725:23763   */\n      tag_559\n        /* \"#utility.yul\":23757:23762   */\n      dup3\n        /* \"#utility.yul\":23725:23763   */\n      tag_348\n      jump\t// in\n    tag_559:\n        /* \"#utility.yul\":23779:23849   */\n      tag_560\n        /* \"#utility.yul\":23842:23848   */\n      dup2\n        /* \"#utility.yul\":23837:23840   */\n      dup6\n        /* \"#utility.yul\":23779:23849   */\n      tag_349\n      jump\t// in\n    tag_560:\n        /* \"#utility.yul\":23772:23849   */\n      swap4\n      pop\n        /* \"#utility.yul\":23858:23910   */\n      tag_561\n        /* \"#utility.yul\":23903:23909   */\n      dup2\n        /* \"#utility.yul\":23898:23901   */\n      dup6\n        /* \"#utility.yul\":23891:23895   */\n      0x20\n        /* \"#utility.yul\":23884:23889   */\n      dup7\n        /* \"#utility.yul\":23880:23896   */\n      add\n        /* \"#utility.yul\":23858:23910   */\n      tag_301\n      jump\t// in\n    tag_561:\n        /* \"#utility.yul\":23935:23964   */\n      tag_562\n        /* \"#utility.yul\":23957:23963   */\n      dup2\n        /* \"#utility.yul\":23935:23964   */\n      tag_302\n      jump\t// in\n    tag_562:\n        /* \"#utility.yul\":23930:23933   */\n      dup5\n        /* \"#utility.yul\":23926:23965   */\n      add\n        /* \"#utility.yul\":23919:23965   */\n      swap2\n      pop\n        /* \"#utility.yul\":23701:23971   */\n      pop\n        /* \"#utility.yul\":23611:23971   */\n      swap3\n      swap2\n      pop\n      pop\n      jump\t// out\n        /* \"#utility.yul\":23977:24617   */\n    tag_254:\n        /* \"#utility.yul\":24172:24176   */\n      0x00\n        /* \"#utility.yul\":24210:24213   */\n      0x80\n        /* \"#utility.yul\":24199:24208   */\n      dup3\n        /* \"#utility.yul\":24195:24214   */\n      add\n        /* \"#utility.yul\":24187:24214   */\n      swap1\n      pop\n        /* \"#utility.yul\":24224:24295   */\n      tag_564\n        /* \"#utility.yul\":24292:24293   */\n      0x00\n        /* \"#utility.yul\":24281:24290   */\n      dup4\n        /* \"#utility.yul\":24277:24294   */\n      add\n        /* \"#utility.yul\":24268:24274   */\n      dup8\n        /* \"#utility.yul\":24224:24295   */\n      tag_309\n      jump\t// in\n    tag_564:\n        /* \"#utility.yul\":24305:24377   */\n      tag_565\n        /* \"#utility.yul\":24373:24375   */\n      0x20\n        /* \"#utility.yul\":24362:24371   */\n      dup4\n        /* \"#utility.yul\":24358:24376   */\n      add\n        /* \"#utility.yul\":24349:24355   */\n      dup7\n        /* \"#utility.yul\":24305:24377   */\n      tag_309\n      jump\t// in\n    tag_565:\n        /* \"#utility.yul\":24387:24459   */\n      tag_566\n        /* \"#utility.yul\":24455:24457   */\n      0x40\n        /* \"#utility.yul\":24444:24453   */\n      dup4\n        /* \"#utility.yul\":24440:24458   */\n      add\n        /* \"#utility.yul\":24431:24437   */\n      dup6\n        /* \"#utility.yul\":24387:24459   */\n      tag_312\n      jump\t// in\n    tag_566:\n        /* \"#utility.yul\":24506:24515   */\n      dup2\n        /* \"#utility.yul\":24500:24504   */\n      dup2\n        /* \"#utility.yul\":24496:24516   */\n      sub\n        /* \"#utility.yul\":24491:24493   */\n      0x60\n        /* \"#utility.yul\":24480:24489   */\n      dup4\n        /* \"#utility.yul\":24476:24494   */\n      add\n        /* \"#utility.yul\":24469:24517   */\n      mstore\n        /* \"#utility.yul\":24534:24610   */\n      tag_567\n        /* \"#utility.yul\":24605:24609   */\n      dup2\n        /* \"#utility.yul\":24596:24602   */\n      dup5\n        /* \"#utility.yul\":24534:24610   */\n      tag_350\n      jump\t// in\n    tag_567:\n        /* \"#utility.yul\":24526:24610   */\n      swap1\n      pop\n        /* \"#utility.yul\":23977:24617   */\n      swap6\n      swap5\n      pop\n      pop\n      pop\n      pop\n      pop\n      jump\t// out\n        /* \"#utility.yul\":24623:24764   */\n    tag_351:\n        /* \"#utility.yul\":24679:24684   */\n      0x00\n        /* \"#utility.yul\":24710:24716   */\n      dup2\n        /* \"#utility.yul\":24704:24717   */\n      mload\n        /* \"#utility.yul\":24695:24717   */\n      swap1\n      pop\n        /* \"#utility.yul\":24726:24758   */\n      tag_569\n        /* \"#utility.yul\":24752:24757   */\n      dup2\n        /* \"#utility.yul\":24726:24758   */\n      tag_295\n      jump\t// in\n    tag_569:\n        /* \"#utility.yul\":24623:24764   */\n      swap3\n      swap2\n      pop\n      pop\n      jump\t// out\n        /* \"#utility.yul\":24770:25119   */\n    tag_258:\n        /* \"#utility.yul\":24839:24845   */\n      0x00\n        /* \"#utility.yul\":24888:24890   */\n      0x20\n        /* \"#utility.yul\":24876:24885   */\n      dup3\n        /* \"#utility.yul\":24867:24874   */\n      dup5\n        /* \"#utility.yul\":24863:24886   */\n      sub\n        /* \"#utility.yul\":24859:24891   */\n      slt\n        /* \"#utility.yul\":24856:24975   */\n      iszero\n      tag_571\n      jumpi\n        /* \"#utility.yul\":24894:24973   */\n      tag_572\n      tag_292\n      jump\t// in\n    tag_572:\n        /* \"#utility.yul\":24856:24975   */\n    tag_571:\n        /* \"#utility.yul\":25014:25015   */\n      0x00\n        /* \"#utility.yul\":25039:25102   */\n      tag_573\n        /* \"#utility.yul\":25094:25101   */\n      dup5\n        /* \"#utility.yul\":25085:25091   */\n      dup3\n        /* \"#utility.yul\":25074:25083   */\n      dup6\n        /* \"#utility.yul\":25070:25092   */\n      add\n        /* \"#utility.yul\":25039:25102   */\n      tag_351\n      jump\t// in\n    tag_573:\n        /* \"#utility.yul\":25029:25102   */\n      swap2\n      pop\n        /* \"#utility.yul\":24985:25112   */\n      pop\n        /* \"#utility.yul\":24770:25119   */\n      swap3\n      swap2\n      pop\n      pop\n      jump\t// out\n\n    auxdata: 0xa2646970667358221220f086b1de4397bf00eb6648755a030c368b50ab9b2ac5421b65e56bb20ce0f57d64736f6c63430008090033\n}\n",
				"bytecode": {
					"linkReferences": {},
					"object": "60806040523480156200001157600080fd5b506040516200293d3803806200293d8339818101604052810190620000379190620003aa565b620000576200004b6200009160201b60201c565b6200009960201b60201c565b81600190805190602001906200006f9291906200015d565b508060029080519060200190620000889291906200015d565b50505062000494565b600033905090565b60008060009054906101000a900473ffffffffffffffffffffffffffffffffffffffff169050816000806101000a81548173ffffffffffffffffffffffffffffffffffffffff021916908373ffffffffffffffffffffffffffffffffffffffff1602179055508173ffffffffffffffffffffffffffffffffffffffff168173ffffffffffffffffffffffffffffffffffffffff167f8be0079c531659141344cd1fd0a4f28419497f9722a3daafe3b4186f6b6457e060405160405180910390a35050565b8280546200016b906200045e565b90600052602060002090601f0160209004810192826200018f5760008555620001db565b82601f10620001aa57805160ff1916838001178555620001db565b82800160010185558215620001db579182015b82811115620001da578251825591602001919060010190620001bd565b5b509050620001ea9190620001ee565b5090565b5b8082111562000209576000816000905550600101620001ef565b5090565b6000604051905090565b600080fd5b600080fd5b600080fd5b600080fd5b6000601f19601f8301169050919050565b7f4e487b7100000000000000000000000000000000000000000000000000000000600052604160045260246000fd5b62000276826200022b565b810181811067ffffffffffffffff821117156200029857620002976200023c565b5b80604052505050565b6000620002ad6200020d565b9050620002bb82826200026b565b919050565b600067ffffffffffffffff821115620002de57620002dd6200023c565b5b620002e9826200022b565b9050602081019050919050565b60005b8381101562000316578082015181840152602081019050620002f9565b8381111562000326576000848401525b50505050565b6000620003436200033d84620002c0565b620002a1565b90508281526020810184848401111562000362576200036162000226565b5b6200036f848285620002f6565b509392505050565b600082601f8301126200038f576200038e62000221565b5b8151620003a18482602086016200032c565b91505092915050565b60008060408385031215620003c457620003c362000217565b5b600083015167ffffffffffffffff811115620003e557620003e46200021c565b5b620003f38582860162000377565b925050602083015167ffffffffffffffff8111156200041757620004166200021c565b5b620004258582860162000377565b9150509250929050565b7f4e487b7100000000000000000000000000000000000000000000000000000000600052602260045260246000fd5b600060028204905060018216806200047757607f821691505b602082108114156200048e576200048d6200042f565b5b50919050565b61249980620004a46000396000f3fe608060405234801561001057600080fd5b50600436106101005760003560e01c8063715018a611610097578063b88d4fde11610066578063b88d4fde14610299578063c87b56dd146102b5578063e985e9c5146102e5578063f2fde38b1461031557610100565b8063715018a6146102375780638da5cb5b1461024157806395d89b411461025f578063a22cb4651461027d57610100565b806323b872dd116100d357806323b872dd1461019f57806342842e0e146101bb5780636352211e146101d757806370a082311461020757610100565b806301ffc9a71461010557806306fdde0314610135578063081812fc14610153578063095ea7b314610183575b600080fd5b61011f600480360381019061011a919061178b565b610331565b60405161012c91906117d3565b60405180910390f35b61013d610413565b60405161014a9190611887565b60405180910390f35b61016d600480360381019061016891906118df565b6104a5565b60405161017a919061194d565b60405180910390f35b61019d60048036038101906101989190611994565b6104eb565b005b6101b960048036038101906101b491906119d4565b610603565b005b6101d560048036038101906101d091906119d4565b610663565b005b6101f160048036038101906101ec91906118df565b610683565b6040516101fe919061194d565b60405180910390f35b610221600480360381019061021c9190611a27565b61070a565b60405161022e9190611a63565b60405180910390f35b61023f6107c2565b005b6102496107d6565b604051610256919061194d565b60405180910390f35b6102676107ff565b6040516102749190611887565b60405180910390f35b61029760048036038101906102929190611aaa565b610891565b005b6102b360048036038101906102ae9190611c1f565b6108a7565b005b6102cf60048036038101906102ca91906118df565b610909565b6040516102dc9190611887565b60405180910390f35b6102ff60048036038101906102fa9190611ca2565b610971565b60405161030c91906117d3565b60405180910390f35b61032f600480360381019061032a9190611a27565b610a05565b005b60007f80ac58cd000000000000000000000000000000000000000000000000000000007bffffffffffffffffffffffffffffffffffffffffffffffffffffffff1916827bffffffffffffffffffffffffffffffffffffffffffffffffffffffff191614806103fc57507f5b5e139f000000000000000000000000000000000000000000000000000000007bffffffffffffffffffffffffffffffffffffffffffffffffffffffff1916827bffffffffffffffffffffffffffffffffffffffffffffffffffffffff1916145b8061040c575061040b82610a89565b5b9050919050565b60606001805461042290611d11565b80601f016020809104026020016040519081016040528092919081815260200182805461044e90611d11565b801561049b5780601f106104705761010080835404028352916020019161049b565b820191906000526020600020905b81548152906001019060200180831161047e57829003601f168201915b5050505050905090565b60006104b082610af3565b6005600083815260200190815260200160002060009054906101000a900473ffffffffffffffffffffffffffffffffffffffff169050919050565b60006104f682610683565b90508073ffffffffffffffffffffffffffffffffffffffff168373ffffffffffffffffffffffffffffffffffffffff161415610567576040517f08c379a000000000000000000000000000000000000000000000000000000000815260040161055e90611db5565b60405180910390fd5b8073ffffffffffffffffffffffffffffffffffffffff16610586610b3e565b73ffffffffffffffffffffffffffffffffffffffff1614806105b557506105b4816105af610b3e565b610971565b5b6105f4576040517f08c379a00000000000000000000000000000000000000000000000000000000081526004016105eb90611e47565b60405180910390fd5b6105fe8383610b46565b505050565b61061461060e610b3e565b82610bff565b610653576040517f08c379a000000000000000000000000000000000000000000000000000000000815260040161064a90611ed9565b60405180910390fd5b61065e838383610c94565b505050565b61067e838383604051806020016040528060008152506108a7565b505050565b60008061068f83610f8e565b9050600073ffffffffffffffffffffffffffffffffffffffff168173ffffffffffffffffffffffffffffffffffffffff161415610701576040517f08c379a00000000000000000000000000000000000000000000000000000000081526004016106f890611f45565b60405180910390fd5b80915050919050565b60008073ffffffffffffffffffffffffffffffffffffffff168273ffffffffffffffffffffffffffffffffffffffff16141561077b576040517f08c379a000000000000000000000000000000000000000000000000000000000815260040161077290611fb1565b60405180910390fd5b600460008373ffffffffffffffffffffffffffffffffffffffff1673ffffffffffffffffffffffffffffffffffffffff168152602001908152602001600020549050919050565b6107ca610fcb565b6107d46000611049565b565b60008060009054906101000a900473ffffffffffffffffffffffffffffffffffffffff16905090565b60606002805461080e90611d11565b80601f016020809104026020016040519081016040528092919081815260200182805461083a90611d11565b80156108875780601f1061085c57610100808354040283529160200191610887565b820191906000526020600020905b81548152906001019060200180831161086a57829003601f168201915b5050505050905090565b6108a361089c610b3e565b838361110d565b5050565b6108b86108b2610b3e565b83610bff565b6108f7576040517f08c379a00000000000000000000000000000000000000000000000000000000081526004016108ee90611ed9565b60405180910390fd5b6109038484848461127a565b50505050565b606061091482610af3565b600061091e6112d6565b9050600081511161093e5760405180602001604052806000815250610969565b80610948846112ed565b60405160200161095992919061200d565b6040516020818303038152906040525b915050919050565b6000600660008473ffffffffffffffffffffffffffffffffffffffff1673ffffffffffffffffffffffffffffffffffffffff16815260200190815260200160002060008373ffffffffffffffffffffffffffffffffffffffff1673ffffffffffffffffffffffffffffffffffffffff16815260200190815260200160002060009054906101000a900460ff16905092915050565b610a0d610fcb565b600073ffffffffffffffffffffffffffffffffffffffff168173ffffffffffffffffffffffffffffffffffffffff161415610a7d576040517f08c379a0000000000000000000000000000000000000000000000000000000008152600401610a74906120a3565b60405180910390fd5b610a8681611049565b50565b60007f01ffc9a7000000000000000000000000000000000000000000000000000000007bffffffffffffffffffffffffffffffffffffffffffffffffffffffff1916827bffffffffffffffffffffffffffffffffffffffffffffffffffffffff1916149050919050565b610afc816113c5565b610b3b576040517f08c379a0000000000000000000000000000000000000000000000000000000008152600401610b3290611f45565b60405180910390fd5b50565b600033905090565b816005600083815260200190815260200160002060006101000a81548173ffffffffffffffffffffffffffffffffffffffff021916908373ffffffffffffffffffffffffffffffffffffffff160217905550808273ffffffffffffffffffffffffffffffffffffffff16610bb983610683565b73ffffffffffffffffffffffffffffffffffffffff167f8c5be1e5ebec7d5bd14f71427d1e84f3dd0314c0f7b2291e5b200ac8c7c3b92560405160405180910390a45050565b600080610c0b83610683565b90508073ffffffffffffffffffffffffffffffffffffffff168473ffffffffffffffffffffffffffffffffffffffff161480610c4d5750610c4c8185610971565b5b80610c8b57508373ffffffffffffffffffffffffffffffffffffffff16610c73846104a5565b73ffffffffffffffffffffffffffffffffffffffff16145b91505092915050565b8273ffffffffffffffffffffffffffffffffffffffff16610cb482610683565b73ffffffffffffffffffffffffffffffffffffffff1614610d0a576040517f08c379a0000000000000000000000000000000000000000000000000000000008152600401610d0190612135565b60405180910390fd5b600073ffffffffffffffffffffffffffffffffffffffff168273ffffffffffffffffffffffffffffffffffffffff161415610d7a576040517f08c379a0000000000000000000000000000000000000000000000000000000008152600401610d71906121c7565b60405180910390fd5b610d878383836001611406565b8273ffffffffffffffffffffffffffffffffffffffff16610da782610683565b73ffffffffffffffffffffffffffffffffffffffff1614610dfd576040517f08c379a0000000000000000000000000000000000000000000000000000000008152600401610df490612135565b60405180910390fd5b6005600082815260200190815260200160002060006101000a81549073ffffffffffffffffffffffffffffffffffffffff02191690556001600460008573ffffffffffffffffffffffffffffffffffffffff1673ffffffffffffffffffffffffffffffffffffffff168152602001908152602001600020600082825403925050819055506001600460008473ffffffffffffffffffffffffffffffffffffffff1673ffffffffffffffffffffffffffffffffffffffff16815260200190815260200160002060008282540192505081905550816003600083815260200190815260200160002060006101000a81548173ffffffffffffffffffffffffffffffffffffffff021916908373ffffffffffffffffffffffffffffffffffffffff160217905550808273ffffffffffffffffffffffffffffffffffffffff168473ffffffffffffffffffffffffffffffffffffffff167fddf252ad1be2c89b69c2b068fc378daa952ba7f163c4a11628f55a4df523b3ef60405160405180910390a4610f89838383600161140c565b505050565b60006003600083815260200190815260200160002060009054906101000a900473ffffffffffffffffffffffffffffffffffffffff169050919050565b610fd3610b3e565b73ffffffffffffffffffffffffffffffffffffffff16610ff16107d6565b73ffffffffffffffffffffffffffffffffffffffff1614611047576040517f08c379a000000000000000000000000000000000000000000000000000000000815260040161103e90612233565b60405180910390fd5b565b60008060009054906101000a900473ffffffffffffffffffffffffffffffffffffffff169050816000806101000a81548173ffffffffffffffffffffffffffffffffffffffff021916908373ffffffffffffffffffffffffffffffffffffffff1602179055508173ffffffffffffffffffffffffffffffffffffffff168173ffffffffffffffffffffffffffffffffffffffff167f8be0079c531659141344cd1fd0a4f28419497f9722a3daafe3b4186f6b6457e060405160405180910390a35050565b8173ffffffffffffffffffffffffffffffffffffffff168373ffffffffffffffffffffffffffffffffffffffff16141561117c576040517f08c379a00000000000000000000000000000000000000000000000000000000081526004016111739061229f565b60405180910390fd5b80600660008573ffffffffffffffffffffffffffffffffffffffff1673ffffffffffffffffffffffffffffffffffffffff16815260200190815260200160002060008473ffffffffffffffffffffffffffffffffffffffff1673ffffffffffffffffffffffffffffffffffffffff16815260200190815260200160002060006101000a81548160ff0219169083151502179055508173ffffffffffffffffffffffffffffffffffffffff168373ffffffffffffffffffffffffffffffffffffffff167f17307eab39ab6107e8899845ad3d59bd9653f200f220920489ca2b5937696c318360405161126d91906117d3565b60405180910390a3505050565b611285848484610c94565b61129184848484611412565b6112d0576040517f08c379a00000000000000000000000000000000000000000000000000000000081526004016112c790612331565b60405180910390fd5b50505050565b606060405180602001604052806000815250905090565b6060600060016112fc846115a9565b01905060008167ffffffffffffffff81111561131b5761131a611af4565b5b6040519080825280601f01601f19166020018201604052801561134d5781602001600182028036833780820191505090505b509050600082602001820190505b6001156113ba578080600190039150507f3031323334353637383961626364656600000000000000000000000000000000600a86061a8153600a85816113a4576113a3612351565b5b04945060008514156113b5576113ba565b61135b565b819350505050919050565b60008073ffffffffffffffffffffffffffffffffffffffff166113e783610f8e565b73ffffffffffffffffffffffffffffffffffffffff1614159050919050565b50505050565b50505050565b60006114338473ffffffffffffffffffffffffffffffffffffffff166116fc565b1561159c578373ffffffffffffffffffffffffffffffffffffffff1663150b7a0261145c610b3e565b8786866040518563ffffffff1660e01b815260040161147e94939291906123d5565b602060405180830381600087803b15801561149857600080fd5b505af19250505080156114c957506040513d601f19601f820116820180604052508101906114c69190612436565b60015b61154c573d80600081146114f9576040519150601f19603f3d011682016040523d82523d6000602084013e6114fe565b606091505b50600081511415611544576040517f08c379a000000000000000000000000000000000000000000000000000000000815260040161153b90612331565b60405180910390fd5b805181602001fd5b63150b7a0260e01b7bffffffffffffffffffffffffffffffffffffffffffffffffffffffff1916817bffffffffffffffffffffffffffffffffffffffffffffffffffffffff1916149150506115a1565b600190505b949350505050565b600080600090507a184f03e93ff9f4daa797ed6e38ed64bf6a1f0100000000000000008310611607577a184f03e93ff9f4daa797ed6e38ed64bf6a1f01000000000000000083816115fd576115fc612351565b5b0492506040810190505b6d04ee2d6d415b85acef81000000008310611644576d04ee2d6d415b85acef8100000000838161163a57611639612351565b5b0492506020810190505b662386f26fc10000831061167357662386f26fc10000838161166957611668612351565b5b0492506010810190505b6305f5e100831061169c576305f5e100838161169257611691612351565b5b0492506008810190505b61271083106116c15761271083816116b7576116b6612351565b5b0492506004810190505b606483106116e457606483816116da576116d9612351565b5b0492506002810190505b600a83106116f3576001810190505b80915050919050565b6000808273ffffffffffffffffffffffffffffffffffffffff163b119050919050565b6000604051905090565b600080fd5b600080fd5b60007fffffffff0000000000000000000000000000000000000000000000000000000082169050919050565b61176881611733565b811461177357600080fd5b50565b6000813590506117858161175f565b92915050565b6000602082840312156117a1576117a0611729565b5b60006117af84828501611776565b91505092915050565b60008115159050919050565b6117cd816117b8565b82525050565b60006020820190506117e860008301846117c4565b92915050565b600081519050919050565b600082825260208201905092915050565b60005b8381101561182857808201518184015260208101905061180d565b83811115611837576000848401525b50505050565b6000601f19601f8301169050919050565b6000611859826117ee565b61186381856117f9565b935061187381856020860161180a565b61187c8161183d565b840191505092915050565b600060208201905081810360008301526118a1818461184e565b905092915050565b6000819050919050565b6118bc816118a9565b81146118c757600080fd5b50565b6000813590506118d9816118b3565b92915050565b6000602082840312156118f5576118f4611729565b5b6000611903848285016118ca565b91505092915050565b600073ffffffffffffffffffffffffffffffffffffffff82169050919050565b60006119378261190c565b9050919050565b6119478161192c565b82525050565b6000602082019050611962600083018461193e565b92915050565b6119718161192c565b811461197c57600080fd5b50565b60008135905061198e81611968565b92915050565b600080604083850312156119ab576119aa611729565b5b60006119b98582860161197f565b92505060206119ca858286016118ca565b9150509250929050565b6000806000606084860312156119ed576119ec611729565b5b60006119fb8682870161197f565b9350506020611a0c8682870161197f565b9250506040611a1d868287016118ca565b9150509250925092565b600060208284031215611a3d57611a3c611729565b5b6000611a4b8482850161197f565b91505092915050565b611a5d816118a9565b82525050565b6000602082019050611a786000830184611a54565b92915050565b611a87816117b8565b8114611a9257600080fd5b50565b600081359050611aa481611a7e565b92915050565b60008060408385031215611ac157611ac0611729565b5b6000611acf8582860161197f565b9250506020611ae085828601611a95565b9150509250929050565b600080fd5b600080fd5b7f4e487b7100000000000000000000000000000000000000000000000000000000600052604160045260246000fd5b611b2c8261183d565b810181811067ffffffffffffffff82111715611b4b57611b4a611af4565b5b80604052505050565b6000611b5e61171f565b9050611b6a8282611b23565b919050565b600067ffffffffffffffff821115611b8a57611b89611af4565b5b611b938261183d565b9050602081019050919050565b82818337600083830152505050565b6000611bc2611bbd84611b6f565b611b54565b905082815260208101848484011115611bde57611bdd611aef565b5b611be9848285611ba0565b509392505050565b600082601f830112611c0657611c05611aea565b5b8135611c16848260208601611baf565b91505092915050565b60008060008060808587031215611c3957611c38611729565b5b6000611c478782880161197f565b9450506020611c588782880161197f565b9350506040611c69878288016118ca565b925050606085013567ffffffffffffffff811115611c8a57611c8961172e565b5b611c9687828801611bf1565b91505092959194509250565b60008060408385031215611cb957611cb8611729565b5b6000611cc78582860161197f565b9250506020611cd88582860161197f565b9150509250929050565b7f4e487b7100000000000000000000000000000000000000000000000000000000600052602260045260246000fd5b60006002820490506001821680611d2957607f821691505b60208210811415611d3d57611d3c611ce2565b5b50919050565b7f4552433732313a20617070726f76616c20746f2063757272656e74206f776e6560008201527f7200000000000000000000000000000000000000000000000000000000000000602082015250565b6000611d9f6021836117f9565b9150611daa82611d43565b604082019050919050565b60006020820190508181036000830152611dce81611d92565b9050919050565b7f4552433732313a20617070726f76652063616c6c6572206973206e6f7420746f60008201527f6b656e206f776e6572206f7220617070726f76656420666f7220616c6c000000602082015250565b6000611e31603d836117f9565b9150611e3c82611dd5565b604082019050919050565b60006020820190508181036000830152611e6081611e24565b9050919050565b7f4552433732313a2063616c6c6572206973206e6f7420746f6b656e206f776e6560008201527f72206f7220617070726f76656400000000000000000000000000000000000000602082015250565b6000611ec3602d836117f9565b9150611ece82611e67565b604082019050919050565b60006020820190508181036000830152611ef281611eb6565b9050919050565b7f4552433732313a20696e76616c696420746f6b656e2049440000000000000000600082015250565b6000611f2f6018836117f9565b9150611f3a82611ef9565b602082019050919050565b60006020820190508181036000830152611f5e81611f22565b9050919050565b7f4552433732313a2061646472657373207a65726f000000000000000000000000600082015250565b6000611f9b6014836117f9565b9150611fa682611f65565b602082019050919050565b60006020820190508181036000830152611fca81611f8e565b9050919050565b600081905092915050565b6000611fe7826117ee565b611ff18185611fd1565b935061200181856020860161180a565b80840191505092915050565b60006120198285611fdc565b91506120258284611fdc565b91508190509392505050565b7f4f776e61626c653a206e6577206f776e657220697320746865207a65726f206160008201527f6464726573730000000000000000000000000000000000000000000000000000602082015250565b600061208d6026836117f9565b915061209882612031565b604082019050919050565b600060208201905081810360008301526120bc81612080565b9050919050565b7f4552433732313a207472616e736665722066726f6d20696e636f72726563742060008201527f6f776e6572000000000000000000000000000000000000000000000000000000602082015250565b600061211f6025836117f9565b915061212a826120c3565b604082019050919050565b6000602082019050818103600083015261214e81612112565b9050919050565b7f4552433732313a207472616e7366657220746f20746865207a65726f2061646460008201527f7265737300000000000000000000000000000000000000000000000000000000602082015250565b60006121b16024836117f9565b91506121bc82612155565b604082019050919050565b600060208201905081810360008301526121e0816121a4565b9050919050565b7f4f776e61626c653a2063616c6c6572206973206e6f7420746865206f776e6572600082015250565b600061221d6020836117f9565b9150612228826121e7565b602082019050919050565b6000602082019050818103600083015261224c81612210565b9050919050565b7f4552433732313a20617070726f766520746f2063616c6c657200000000000000600082015250565b60006122896019836117f9565b915061229482612253565b602082019050919050565b600060208201905081810360008301526122b88161227c565b9050919050565b7f4552433732313a207472616e7366657220746f206e6f6e20455243373231526560008201527f63656976657220696d706c656d656e7465720000000000000000000000000000602082015250565b600061231b6032836117f9565b9150612326826122bf565b604082019050919050565b6000602082019050818103600083015261234a8161230e565b9050919050565b7f4e487b7100000000000000000000000000000000000000000000000000000000600052601260045260246000fd5b600081519050919050565b600082825260208201905092915050565b60006123a782612380565b6123b1818561238b565b93506123c181856020860161180a565b6123ca8161183d565b840191505092915050565b60006080820190506123ea600083018761193e565b6123f7602083018661193e565b6124046040830185611a54565b8181036060830152612416818461239c565b905095945050505050565b6000815190506124308161175f565b92915050565b60006020828403121561244c5761244b611729565b5b600061245a84828501612421565b9150509291505056fea2646970667358221220f086b1de4397bf00eb6648755a030c368b50ab9b2ac5421b65e56bb20ce0f57d64736f6c63430008090033",
					"opcodes": "PUSH1 0x80 PUSH1 0x40 MSTORE CALLVALUE DUP1 ISZERO PUSH3 0x11 JUMPI PUSH1 0x0 DUP1 REVERT JUMPDEST POP PUSH1 0x40 MLOAD PUSH3 0x293D CODESIZE SUB DUP1 PUSH3 0x293D DUP4 CODECOPY DUP2 DUP2 ADD PUSH1 0x40 MSTORE DUP2 ADD SWAP1 PUSH3 0x37 SWAP2 SWAP1 PUSH3 0x3AA JUMP JUMPDEST PUSH3 0x57 PUSH3 0x4B PUSH3 0x91 PUSH1 0x20 SHL PUSH1 0x20 SHR JUMP JUMPDEST PUSH3 0x99 PUSH1 0x20 SHL PUSH1 0x20 SHR JUMP JUMPDEST DUP2 PUSH1 0x1 SWAP1 DUP1 MLOAD SWAP1 PUSH1 0x20 ADD SWAP1 PUSH3 0x6F SWAP3 SWAP2 SWAP1 PUSH3 0x15D JUMP JUMPDEST POP DUP1 PUSH1 0x2 SWAP1 DUP1 MLOAD SWAP1 PUSH1 0x20 ADD SWAP1 PUSH3 0x88 SWAP3 SWAP2 SWAP1 PUSH3 0x15D JUMP JUMPDEST POP POP POP PUSH3 0x494 JUMP JUMPDEST PUSH1 0x0 CALLER SWAP1 POP SWAP1 JUMP JUMPDEST PUSH1 0x0 DUP1 PUSH1 0x0 SWAP1 SLOAD SWAP1 PUSH2 0x100 EXP SWAP1 DIV PUSH20 0xFFFFFFFFFFFFFFFFFFFFFFFFFFFFFFFFFFFFFFFF AND SWAP1 POP DUP2 PUSH1 0x0 DUP1 PUSH2 0x100 EXP DUP2 SLOAD DUP2 PUSH20 0xFFFFFFFFFFFFFFFFFFFFFFFFFFFFFFFFFFFFFFFF MUL NOT AND SWAP1 DUP4 PUSH20 0xFFFFFFFFFFFFFFFFFFFFFFFFFFFFFFFFFFFFFFFF AND MUL OR SWAP1 SSTORE POP DUP2 PUSH20 0xFFFFFFFFFFFFFFFFFFFFFFFFFFFFFFFFFFFFFFFF AND DUP2 PUSH20 0xFFFFFFFFFFFFFFFFFFFFFFFFFFFFFFFFFFFFFFFF AND PUSH32 0x8BE0079C531659141344CD1FD0A4F28419497F9722A3DAAFE3B4186F6B6457E0 PUSH1 0x40 MLOAD PUSH1 0x40 MLOAD DUP1 SWAP2 SUB SWAP1 LOG3 POP POP JUMP JUMPDEST DUP3 DUP1 SLOAD PUSH3 0x16B SWAP1 PUSH3 0x45E JUMP JUMPDEST SWAP1 PUSH1 0x0 MSTORE PUSH1 0x20 PUSH1 0x0 KECCAK256 SWAP1 PUSH1 0x1F ADD PUSH1 0x20 SWAP1 DIV DUP2 ADD SWAP3 DUP3 PUSH3 0x18F JUMPI PUSH1 0x0 DUP6 SSTORE PUSH3 0x1DB JUMP JUMPDEST DUP3 PUSH1 0x1F LT PUSH3 0x1AA JUMPI DUP1 MLOAD PUSH1 0xFF NOT AND DUP4 DUP1 ADD OR DUP6 SSTORE PUSH3 0x1DB JUMP JUMPDEST DUP3 DUP1 ADD PUSH1 0x1 ADD DUP6 SSTORE DUP3 ISZERO PUSH3 0x1DB JUMPI SWAP2 DUP3 ADD JUMPDEST DUP3 DUP2 GT ISZERO PUSH3 0x1DA JUMPI DUP3 MLOAD DUP3 SSTORE SWAP2 PUSH1 0x20 ADD SWAP2 SWAP1 PUSH1 0x1 ADD SWAP1 PUSH3 0x1BD JUMP JUMPDEST JUMPDEST POP SWAP1 POP PUSH3 0x1EA SWAP2 SWAP1 PUSH3 0x1EE JUMP JUMPDEST POP SWAP1 JUMP JUMPDEST JUMPDEST DUP1 DUP3 GT ISZERO PUSH3 0x209 JUMPI PUSH1 0x0 DUP2 PUSH1 0x0 SWAP1 SSTORE POP PUSH1 0x1 ADD PUSH3 0x1EF JUMP JUMPDEST POP SWAP1 JUMP JUMPDEST PUSH1 0x0 PUSH1 0x40 MLOAD SWAP1 POP SWAP1 JUMP JUMPDEST PUSH1 0x0 DUP1 REVERT JUMPDEST PUSH1 0x0 DUP1 REVERT JUMPDEST PUSH1 0x0 DUP1 REVERT JUMPDEST PUSH1 0x0 DUP1 REVERT JUMPDEST PUSH1 0x0 PUSH1 0x1F NOT PUSH1 0x1F DUP4 ADD AND SWAP1 POP SWAP2 SWAP1 POP JUMP JUMPDEST PUSH32 0x4E487B7100000000000000000000000000000000000000000000000000000000 PUSH1 0x0 MSTORE PUSH1 0x41 PUSH1 0x4 MSTORE PUSH1 0x24 PUSH1 0x0 REVERT JUMPDEST PUSH3 0x276 DUP3 PUSH3 0x22B JUMP JUMPDEST DUP2 ADD DUP2 DUP2 LT PUSH8 0xFFFFFFFFFFFFFFFF DUP3 GT OR ISZERO PUSH3 0x298 JUMPI PUSH3 0x297 PUSH3 0x23C JUMP JUMPDEST JUMPDEST DUP1 PUSH1 0x40 MSTORE POP POP POP JUMP JUMPDEST PUSH1 0x0 PUSH3 0x2AD PUSH3 0x20D JUMP JUMPDEST SWAP1 POP PUSH3 0x2BB DUP3 DUP3 PUSH3 0x26B JUMP JUMPDEST SWAP2 SWAP1 POP JUMP JUMPDEST PUSH1 0x0 PUSH8 0xFFFFFFFFFFFFFFFF DUP3 GT ISZERO PUSH3 0x2DE JUMPI PUSH3 0x2DD PUSH3 0x23C JUMP JUMPDEST JUMPDEST PUSH3 0x2E9 DUP3 PUSH3 0x22B JUMP JUMPDEST SWAP1 POP PUSH1 0x20 DUP2 ADD SWAP1 POP SWAP2 SWAP1 POP JUMP JUMPDEST PUSH1 0x0 JUMPDEST DUP4 DUP2 LT ISZERO PUSH3 0x316 JUMPI DUP1 DUP3 ADD MLOAD DUP2 DUP5 ADD MSTORE PUSH1 0x20 DUP2 ADD SWAP1 POP PUSH3 0x2F9 JUMP JUMPDEST DUP4 DUP2 GT ISZERO PUSH3 0x326 JUMPI PUSH1 0x0 DUP5 DUP5 ADD MSTORE JUMPDEST POP POP POP POP JUMP JUMPDEST PUSH1 0x0 PUSH3 0x343 PUSH3 0x33D DUP5 PUSH3 0x2C0 JUMP JUMPDEST PUSH3 0x2A1 JUMP JUMPDEST SWAP1 POP DUP3 DUP2 MSTORE PUSH1 0x20 DUP2 ADD DUP5 DUP5 DUP5 ADD GT ISZERO PUSH3 0x362 JUMPI PUSH3 0x361 PUSH3 0x226 JUMP JUMPDEST JUMPDEST PUSH3 0x36F DUP5 DUP3 DUP6 PUSH3 0x2F6 JUMP JUMPDEST POP SWAP4 SWAP3 POP POP POP JUMP JUMPDEST PUSH1 0x0 DUP3 PUSH1 0x1F DUP4 ADD SLT PUSH3 0x38F JUMPI PUSH3 0x38E PUSH3 0x221 JUMP JUMPDEST JUMPDEST DUP2 MLOAD PUSH3 0x3A1 DUP5 DUP3 PUSH1 0x20 DUP7 ADD PUSH3 0x32C JUMP JUMPDEST SWAP2 POP POP SWAP3 SWAP2 POP POP JUMP JUMPDEST PUSH1 0x0 DUP1 PUSH1 0x40 DUP4 DUP6 SUB SLT ISZERO PUSH3 0x3C4 JUMPI PUSH3 0x3C3 PUSH3 0x217 JUMP JUMPDEST JUMPDEST PUSH1 0x0 DUP4 ADD MLOAD PUSH8 0xFFFFFFFFFFFFFFFF DUP2 GT ISZERO PUSH3 0x3E5 JUMPI PUSH3 0x3E4 PUSH3 0x21C JUMP JUMPDEST JUMPDEST PUSH3 0x3F3 DUP6 DUP3 DUP7 ADD PUSH3 0x377 JUMP JUMPDEST SWAP3 POP POP PUSH1 0x20 DUP4 ADD MLOAD PUSH8 0xFFFFFFFFFFFFFFFF DUP2 GT ISZERO PUSH3 0x417 JUMPI PUSH3 0x416 PUSH3 0x21C JUMP JUMPDEST JUMPDEST PUSH3 0x425 DUP6 DUP3 DUP7 ADD PUSH3 0x377 JUMP JUMPDEST SWAP2 POP POP SWAP3 POP SWAP3 SWAP1 POP JUMP JUMPDEST PUSH32 0x4E487B7100000000000000000000000000000000000000000000000000000000 PUSH1 0x0 MSTORE PUSH1 0x22 PUSH1 0x4 MSTORE PUSH1 0x24 PUSH1 0x0 REVERT JUMPDEST PUSH1 0x0 PUSH1 0x2 DUP3 DIV SWAP1 POP PUSH1 0x1 DUP3 AND DUP1 PUSH3 0x477 JUMPI PUSH1 0x7F DUP3 AND SWAP2 POP JUMPDEST PUSH1 0x20 DUP3 LT DUP2 EQ ISZERO PUSH3 0x48E JUMPI PUSH3 0x48D PUSH3 0x42F JUMP JUMPDEST JUMPDEST POP SWAP2 SWAP1 POP JUMP JUMPDEST PUSH2 0x2499 DUP1 PUSH3 0x4A4 PUSH1 0x0 CODECOPY PUSH1 0x0 RETURN INVALID PUSH1 0x80 PUSH1 0x40 MSTORE CALLVALUE DUP1 ISZERO PUSH2 0x10 JUMPI PUSH1 0x0 DUP1 REVERT JUMPDEST POP PUSH1 0x4 CALLDATASIZE LT PUSH2 0x100 JUMPI PUSH1 0x0 CALLDATALOAD PUSH1 0xE0 SHR DUP1 PUSH4 0x715018A6 GT PUSH2 0x97 JUMPI DUP1 PUSH4 0xB88D4FDE GT PUSH2 0x66 JUMPI DUP1 PUSH4 0xB88D4FDE EQ PUSH2 0x299 JUMPI DUP1 PUSH4 0xC87B56DD EQ PUSH2 0x2B5 JUMPI DUP1 PUSH4 0xE985E9C5 EQ PUSH2 0x2E5 JUMPI DUP1 PUSH4 0xF2FDE38B EQ PUSH2 0x315 JUMPI PUSH2 0x100 JUMP JUMPDEST DUP1 PUSH4 0x715018A6 EQ PUSH2 0x237 JUMPI DUP1 PUSH4 0x8DA5CB5B EQ PUSH2 0x241 JUMPI DUP1 PUSH4 0x95D89B41 EQ PUSH2 0x25F JUMPI DUP1 PUSH4 0xA22CB465 EQ PUSH2 0x27D JUMPI PUSH2 0x100 JUMP JUMPDEST DUP1 PUSH4 0x23B872DD GT PUSH2 0xD3 JUMPI DUP1 PUSH4 0x23B872DD EQ PUSH2 0x19F JUMPI DUP1 PUSH4 0x42842E0E EQ PUSH2 0x1BB JUMPI DUP1 PUSH4 0x6352211E EQ PUSH2 0x1D7 JUMPI DUP1 PUSH4 0x70A08231 EQ PUSH2 0x207 JUMPI PUSH2 0x100 JUMP JUMPDEST DUP1 PUSH4 0x1FFC9A7 EQ PUSH2 0x105 JUMPI DUP1 PUSH4 0x6FDDE03 EQ PUSH2 0x135 JUMPI DUP1 PUSH4 0x81812FC EQ PUSH2 0x153 JUMPI DUP1 PUSH4 0x95EA7B3 EQ PUSH2 0x183 JUMPI JUMPDEST PUSH1 0x0 DUP1 REVERT JUMPDEST PUSH2 0x11F PUSH1 0x4 DUP1 CALLDATASIZE SUB DUP2 ADD SWAP1 PUSH2 0x11A SWAP2 SWAP1 PUSH2 0x178B JUMP JUMPDEST PUSH2 0x331 JUMP JUMPDEST PUSH1 0x40 MLOAD PUSH2 0x12C SWAP2 SWAP1 PUSH2 0x17D3 JUMP JUMPDEST PUSH1 0x40 MLOAD DUP1 SWAP2 SUB SWAP1 RETURN JUMPDEST PUSH2 0x13D PUSH2 0x413 JUMP JUMPDEST PUSH1 0x40 MLOAD PUSH2 0x14A SWAP2 SWAP1 PUSH2 0x1887 JUMP JUMPDEST PUSH1 0x40 MLOAD DUP1 SWAP2 SUB SWAP1 RETURN JUMPDEST PUSH2 0x16D PUSH1 0x4 DUP1 CALLDATASIZE SUB DUP2 ADD SWAP1 PUSH2 0x168 SWAP2 SWAP1 PUSH2 0x18DF JUMP JUMPDEST PUSH2 0x4A5 JUMP JUMPDEST PUSH1 0x40 MLOAD PUSH2 0x17A SWAP2 SWAP1 PUSH2 0x194D JUMP JUMPDEST PUSH1 0x40 MLOAD DUP1 SWAP2 SUB SWAP1 RETURN JUMPDEST PUSH2 0x19D PUSH1 0x4 DUP1 CALLDATASIZE SUB DUP2 ADD SWAP1 PUSH2 0x198 SWAP2 SWAP1 PUSH2 0x1994 JUMP JUMPDEST PUSH2 0x4EB JUMP JUMPDEST STOP JUMPDEST PUSH2 0x1B9 PUSH1 0x4 DUP1 CALLDATASIZE SUB DUP2 ADD SWAP1 PUSH2 0x1B4 SWAP2 SWAP1 PUSH2 0x19D4 JUMP JUMPDEST PUSH2 0x603 JUMP JUMPDEST STOP JUMPDEST PUSH2 0x1D5 PUSH1 0x4 DUP1 CALLDATASIZE SUB DUP2 ADD SWAP1 PUSH2 0x1D0 SWAP2 SWAP1 PUSH2 0x19D4 JUMP JUMPDEST PUSH2 0x663 JUMP JUMPDEST STOP JUMPDEST PUSH2 0x1F1 PUSH1 0x4 DUP1 CALLDATASIZE SUB DUP2 ADD SWAP1 PUSH2 0x1EC SWAP2 SWAP1 PUSH2 0x18DF JUMP JUMPDEST PUSH2 0x683 JUMP JUMPDEST PUSH1 0x40 MLOAD PUSH2 0x1FE SWAP2 SWAP1 PUSH2 0x194D JUMP JUMPDEST PUSH1 0x40 MLOAD DUP1 SWAP2 SUB SWAP1 RETURN JUMPDEST PUSH2 0x221 PUSH1 0x4 DUP1 CALLDATASIZE SUB DUP2 ADD SWAP1 PUSH2 0x21C SWAP2 SWAP1 PUSH2 0x1A27 JUMP JUMPDEST PUSH2 0x70A JUMP JUMPDEST PUSH1 0x40 MLOAD PUSH2 0x22E SWAP2 SWAP1 PUSH2 0x1A63 JUMP JUMPDEST PUSH1 0x40 MLOAD DUP1 SWAP2 SUB SWAP1 RETURN JUMPDEST PUSH2 0x23F PUSH2 0x7C2 JUMP JUMPDEST STOP JUMPDEST PUSH2 0x249 PUSH2 0x7D6 JUMP JUMPDEST PUSH1 0x40 MLOAD PUSH2 0x256 SWAP2 SWAP1 PUSH2 0x194D JUMP JUMPDEST PUSH1 0x40 MLOAD DUP1 SWAP2 SUB SWAP1 RETURN JUMPDEST PUSH2 0x267 PUSH2 0x7FF JUMP JUMPDEST PUSH1 0x40 MLOAD PUSH2 0x274 SWAP2 SWAP1 PUSH2 0x1887 JUMP JUMPDEST PUSH1 0x40 MLOAD DUP1 SWAP2 SUB SWAP1 RETURN JUMPDEST PUSH2 0x297 PUSH1 0x4 DUP1 CALLDATASIZE SUB DUP2 ADD SWAP1 PUSH2 0x292 SWAP2 SWAP1 PUSH2 0x1AAA JUMP JUMPDEST PUSH2 0x891 JUMP JUMPDEST STOP JUMPDEST PUSH2 0x2B3 PUSH1 0x4 DUP1 CALLDATASIZE SUB DUP2 ADD SWAP1 PUSH2 0x2AE SWAP2 SWAP1 PUSH2 0x1C1F JUMP JUMPDEST PUSH2 0x8A7 JUMP JUMPDEST STOP JUMPDEST PUSH2 0x2CF PUSH1 0x4 DUP1 CALLDATASIZE SUB DUP2 ADD SWAP1 PUSH2 0x2CA SWAP2 SWAP1 PUSH2 0x18DF JUMP JUMPDEST PUSH2 0x909 JUMP JUMPDEST PUSH1 0x40 MLOAD PUSH2 0x2DC SWAP2 SWAP1 PUSH2 0x1887 JUMP JUMPDEST PUSH1 0x40 MLOAD DUP1 SWAP2 SUB SWAP1 RETURN JUMPDEST PUSH2 0x2FF PUSH1 0x4 DUP1 CALLDATASIZE SUB DUP2 ADD SWAP1 PUSH2 0x2FA SWAP2 SWAP1 PUSH2 0x1CA2 JUMP JUMPDEST PUSH2 0x971 JUMP JUMPDEST PUSH1 0x40 MLOAD PUSH2 0x30C SWAP2 SWAP1 PUSH2 0x17D3 JUMP JUMPDEST PUSH1 0x40 MLOAD DUP1 SWAP2 SUB SWAP1 RETURN JUMPDEST PUSH2 0x32F PUSH1 0x4 DUP1 CALLDATASIZE SUB DUP2 ADD SWAP1 PUSH2 0x32A SWAP2 SWAP1 PUSH2 0x1A27 JUMP JUMPDEST PUSH2 0xA05 JUMP JUMPDEST STOP JUMPDEST PUSH1 0x0 PUSH32 0x80AC58CD00000000000000000000000000000000000000000000000000000000 PUSH28 0xFFFFFFFFFFFFFFFFFFFFFFFFFFFFFFFFFFFFFFFFFFFFFFFFFFFFFFFF NOT AND DUP3 PUSH28 0xFFFFFFFFFFFFFFFFFFFFFFFFFFFFFFFFFFFFFFFFFFFFFFFFFFFFFFFF NOT AND EQ DUP1 PUSH2 0x3FC JUMPI POP PUSH32 0x5B5E139F00000000000000000000000000000000000000000000000000000000 PUSH28 0xFFFFFFFFFFFFFFFFFFFFFFFFFFFFFFFFFFFFFFFFFFFFFFFFFFFFFFFF NOT AND DUP3 PUSH28 0xFFFFFFFFFFFFFFFFFFFFFFFFFFFFFFFFFFFFFFFFFFFFFFFFFFFFFFFF NOT AND EQ JUMPDEST DUP1 PUSH2 0x40C JUMPI POP PUSH2 0x40B DUP3 PUSH2 0xA89 JUMP JUMPDEST JUMPDEST SWAP1 POP SWAP2 SWAP1 POP JUMP JUMPDEST PUSH1 0x60 PUSH1 0x1 DUP1 SLOAD PUSH2 0x422 SWAP1 PUSH2 0x1D11 JUMP JUMPDEST DUP1 PUSH1 0x1F ADD PUSH1 0x20 DUP1 SWAP2 DIV MUL PUSH1 0x20 ADD PUSH1 0x40 MLOAD SWAP1 DUP2 ADD PUSH1 0x40 MSTORE DUP1 SWAP3 SWAP2 SWAP1 DUP2 DUP2 MSTORE PUSH1 0x20 ADD DUP3 DUP1 SLOAD PUSH2 0x44E SWAP1 PUSH2 0x1D11 JUMP JUMPDEST DUP1 ISZERO PUSH2 0x49B JUMPI DUP1 PUSH1 0x1F LT PUSH2 0x470 JUMPI PUSH2 0x100 DUP1 DUP4 SLOAD DIV MUL DUP4 MSTORE SWAP2 PUSH1 0x20 ADD SWAP2 PUSH2 0x49B JUMP JUMPDEST DUP3 ADD SWAP2 SWAP1 PUSH1 0x0 MSTORE PUSH1 0x20 PUSH1 0x0 KECCAK256 SWAP1 JUMPDEST DUP2 SLOAD DUP2 MSTORE SWAP1 PUSH1 0x1 ADD SWAP1 PUSH1 0x20 ADD DUP1 DUP4 GT PUSH2 0x47E JUMPI DUP3 SWAP1 SUB PUSH1 0x1F AND DUP3 ADD SWAP2 JUMPDEST POP POP POP POP POP SWAP1 POP SWAP1 JUMP JUMPDEST PUSH1 0x0 PUSH2 0x4B0 DUP3 PUSH2 0xAF3 JUMP JUMPDEST PUSH1 0x5 PUSH1 0x0 DUP4 DUP2 MSTORE PUSH1 0x20 ADD SWAP1 DUP2 MSTORE PUSH1 0x20 ADD PUSH1 0x0 KECCAK256 PUSH1 0x0 SWAP1 SLOAD SWAP1 PUSH2 0x100 EXP SWAP1 DIV PUSH20 0xFFFFFFFFFFFFFFFFFFFFFFFFFFFFFFFFFFFFFFFF AND SWAP1 POP SWAP2 SWAP1 POP JUMP JUMPDEST PUSH1 0x0 PUSH2 0x4F6 DUP3 PUSH2 0x683 JUMP JUMPDEST SWAP1 POP DUP1 PUSH20 0xFFFFFFFFFFFFFFFFFFFFFFFFFFFFFFFFFFFFFFFF AND DUP4 PUSH20 0xFFFFFFFFFFFFFFFFFFFFFFFFFFFFFFFFFFFFFFFF AND EQ ISZERO PUSH2 0x567 JUMPI PUSH1 0x40 MLOAD PUSH32 0x8C379A000000000000000000000000000000000000000000000000000000000 DUP2 MSTORE PUSH1 0x4 ADD PUSH2 0x55E SWAP1 PUSH2 0x1DB5 JUMP JUMPDEST PUSH1 0x40 MLOAD DUP1 SWAP2 SUB SWAP1 REVERT JUMPDEST DUP1 PUSH20 0xFFFFFFFFFFFFFFFFFFFFFFFFFFFFFFFFFFFFFFFF AND PUSH2 0x586 PUSH2 0xB3E JUMP JUMPDEST PUSH20 0xFFFFFFFFFFFFFFFFFFFFFFFFFFFFFFFFFFFFFFFF AND EQ DUP1 PUSH2 0x5B5 JUMPI POP PUSH2 0x5B4 DUP2 PUSH2 0x5AF PUSH2 0xB3E JUMP JUMPDEST PUSH2 0x971 JUMP JUMPDEST JUMPDEST PUSH2 0x5F4 JUMPI PUSH1 0x40 MLOAD PUSH32 0x8C379A000000000000000000000000000000000000000000000000000000000 DUP2 MSTORE PUSH1 0x4 ADD PUSH2 0x5EB SWAP1 PUSH2 0x1E47 JUMP JUMPDEST PUSH1 0x40 MLOAD DUP1 SWAP2 SUB SWAP1 REVERT JUMPDEST PUSH2 0x5FE DUP4 DUP4 PUSH2 0xB46 JUMP JUMPDEST POP POP POP JUMP JUMPDEST PUSH2 0x614 PUSH2 0x60E PUSH2 0xB3E JUMP JUMPDEST DUP3 PUSH2 0xBFF JUMP JUMPDEST PUSH2 0x653 JUMPI PUSH1 0x40 MLOAD PUSH32 0x8C379A000000000000000000000000000000000000000000000000000000000 DUP2 MSTORE PUSH1 0x4 ADD PUSH2 0x64A SWAP1 PUSH2 0x1ED9 JUMP JUMPDEST PUSH1 0x40 MLOAD DUP1 SWAP2 SUB SWAP1 REVERT JUMPDEST PUSH2 0x65E DUP4 DUP4 DUP4 PUSH2 0xC94 JUMP JUMPDEST POP POP POP JUMP JUMPDEST PUSH2 0x67E DUP4 DUP4 DUP4 PUSH1 0x40 MLOAD DUP1 PUSH1 0x20 ADD PUSH1 0x40 MSTORE DUP1 PUSH1 0x0 DUP2 MSTORE POP PUSH2 0x8A7 JUMP JUMPDEST POP POP POP JUMP JUMPDEST PUSH1 0x0 DUP1 PUSH2 0x68F DUP4 PUSH2 0xF8E JUMP JUMPDEST SWAP1 POP PUSH1 0x0 PUSH20 0xFFFFFFFFFFFFFFFFFFFFFFFFFFFFFFFFFFFFFFFF AND DUP2 PUSH20 0xFFFFFFFFFFFFFFFFFFFFFFFFFFFFFFFFFFFFFFFF AND EQ ISZERO PUSH2 0x701 JUMPI PUSH1 0x40 MLOAD PUSH32 0x8C379A000000000000000000000000000000000000000000000000000000000 DUP2 MSTORE PUSH1 0x4 ADD PUSH2 0x6F8 SWAP1 PUSH2 0x1F45 JUMP JUMPDEST PUSH1 0x40 MLOAD DUP1 SWAP2 SUB SWAP1 REVERT JUMPDEST DUP1 SWAP2 POP POP SWAP2 SWAP1 POP JUMP JUMPDEST PUSH1 0x0 DUP1 PUSH20 0xFFFFFFFFFFFFFFFFFFFFFFFFFFFFFFFFFFFFFFFF AND DUP3 PUSH20 0xFFFFFFFFFFFFFFFFFFFFFFFFFFFFFFFFFFFFFFFF AND EQ ISZERO PUSH2 0x77B JUMPI PUSH1 0x40 MLOAD PUSH32 0x8C379A000000000000000000000000000000000000000000000000000000000 DUP2 MSTORE PUSH1 0x4 ADD PUSH2 0x772 SWAP1 PUSH2 0x1FB1 JUMP JUMPDEST PUSH1 0x40 MLOAD DUP1 SWAP2 SUB SWAP1 REVERT JUMPDEST PUSH1 0x4 PUSH1 0x0 DUP4 PUSH20 0xFFFFFFFFFFFFFFFFFFFFFFFFFFFFFFFFFFFFFFFF AND PUSH20 0xFFFFFFFFFFFFFFFFFFFFFFFFFFFFFFFFFFFFFFFF AND DUP2 MSTORE PUSH1 0x20 ADD SWAP1 DUP2 MSTORE PUSH1 0x20 ADD PUSH1 0x0 KECCAK256 SLOAD SWAP1 POP SWAP2 SWAP1 POP JUMP JUMPDEST PUSH2 0x7CA PUSH2 0xFCB JUMP JUMPDEST PUSH2 0x7D4 PUSH1 0x0 PUSH2 0x1049 JUMP JUMPDEST JUMP JUMPDEST PUSH1 0x0 DUP1 PUSH1 0x0 SWAP1 SLOAD SWAP1 PUSH2 0x100 EXP SWAP1 DIV PUSH20 0xFFFFFFFFFFFFFFFFFFFFFFFFFFFFFFFFFFFFFFFF AND SWAP1 POP SWAP1 JUMP JUMPDEST PUSH1 0x60 PUSH1 0x2 DUP1 SLOAD PUSH2 0x80E SWAP1 PUSH2 0x1D11 JUMP JUMPDEST DUP1 PUSH1 0x1F ADD PUSH1 0x20 DUP1 SWAP2 DIV MUL PUSH1 0x20 ADD PUSH1 0x40 MLOAD SWAP1 DUP2 ADD PUSH1 0x40 MSTORE DUP1 SWAP3 SWAP2 SWAP1 DUP2 DUP2 MSTORE PUSH1 0x20 ADD DUP3 DUP1 SLOAD PUSH2 0x83A SWAP1 PUSH2 0x1D11 JUMP JUMPDEST DUP1 ISZERO PUSH2 0x887 JUMPI DUP1 PUSH1 0x1F LT PUSH2 0x85C JUMPI PUSH2 0x100 DUP1 DUP4 SLOAD DIV MUL DUP4 MSTORE SWAP2 PUSH1 0x20 ADD SWAP2 PUSH2 0x887 JUMP JUMPDEST DUP3 ADD SWAP2 SWAP1 PUSH1 0x0 MSTORE PUSH1 0x20 PUSH1 0x0 KECCAK256 SWAP1 JUMPDEST DUP2 SLOAD DUP2 MSTORE SWAP1 PUSH1 0x1 ADD SWAP1 PUSH1 0x20 ADD DUP1 DUP4 GT PUSH2 0x86A JUMPI DUP3 SWAP1 SUB PUSH1 0x1F AND DUP3 ADD SWAP2 JUMPDEST POP POP POP POP POP SWAP1 POP SWAP1 JUMP JUMPDEST PUSH2 0x8A3 PUSH2 0x89C PUSH2 0xB3E JUMP JUMPDEST DUP4 DUP4 PUSH2 0x110D JUMP JUMPDEST POP POP JUMP JUMPDEST PUSH2 0x8B8 PUSH2 0x8B2 PUSH2 0xB3E JUMP JUMPDEST DUP4 PUSH2 0xBFF JUMP JUMPDEST PUSH2 0x8F7 JUMPI PUSH1 0x40 MLOAD PUSH32 0x8C379A000000000000000000000000000000000000000000000000000000000 DUP2 MSTORE PUSH1 0x4 ADD PUSH2 0x8EE SWAP1 PUSH2 0x1ED9 JUMP JUMPDEST PUSH1 0x40 MLOAD DUP1 SWAP2 SUB SWAP1 REVERT JUMPDEST PUSH2 0x903 DUP5 DUP5 DUP5 DUP5 PUSH2 0x127A JUMP JUMPDEST POP POP POP POP JUMP JUMPDEST PUSH1 0x60 PUSH2 0x914 DUP3 PUSH2 0xAF3 JUMP JUMPDEST PUSH1 0x0 PUSH2 0x91E PUSH2 0x12D6 JUMP JUMPDEST SWAP1 POP PUSH1 0x0 DUP2 MLOAD GT PUSH2 0x93E JUMPI PUSH1 0x40 MLOAD DUP1 PUSH1 0x20 ADD PUSH1 0x40 MSTORE DUP1 PUSH1 0x0 DUP2 MSTORE POP PUSH2 0x969 JUMP JUMPDEST DUP1 PUSH2 0x948 DUP5 PUSH2 0x12ED JUMP JUMPDEST PUSH1 0x40 MLOAD PUSH1 0x20 ADD PUSH2 0x959 SWAP3 SWAP2 SWAP1 PUSH2 0x200D JUMP JUMPDEST PUSH1 0x40 MLOAD PUSH1 0x20 DUP2 DUP4 SUB SUB DUP2 MSTORE SWAP1 PUSH1 0x40 MSTORE JUMPDEST SWAP2 POP POP SWAP2 SWAP1 POP JUMP JUMPDEST PUSH1 0x0 PUSH1 0x6 PUSH1 0x0 DUP5 PUSH20 0xFFFFFFFFFFFFFFFFFFFFFFFFFFFFFFFFFFFFFFFF AND PUSH20 0xFFFFFFFFFFFFFFFFFFFFFFFFFFFFFFFFFFFFFFFF AND DUP2 MSTORE PUSH1 0x20 ADD SWAP1 DUP2 MSTORE PUSH1 0x20 ADD PUSH1 0x0 KECCAK256 PUSH1 0x0 DUP4 PUSH20 0xFFFFFFFFFFFFFFFFFFFFFFFFFFFFFFFFFFFFFFFF AND PUSH20 0xFFFFFFFFFFFFFFFFFFFFFFFFFFFFFFFFFFFFFFFF AND DUP2 MSTORE PUSH1 0x20 ADD SWAP1 DUP2 MSTORE PUSH1 0x20 ADD PUSH1 0x0 KECCAK256 PUSH1 0x0 SWAP1 SLOAD SWAP1 PUSH2 0x100 EXP SWAP1 DIV PUSH1 0xFF AND SWAP1 POP SWAP3 SWAP2 POP POP JUMP JUMPDEST PUSH2 0xA0D PUSH2 0xFCB JUMP JUMPDEST PUSH1 0x0 PUSH20 0xFFFFFFFFFFFFFFFFFFFFFFFFFFFFFFFFFFFFFFFF AND DUP2 PUSH20 0xFFFFFFFFFFFFFFFFFFFFFFFFFFFFFFFFFFFFFFFF AND EQ ISZERO PUSH2 0xA7D JUMPI PUSH1 0x40 MLOAD PUSH32 0x8C379A000000000000000000000000000000000000000000000000000000000 DUP2 MSTORE PUSH1 0x4 ADD PUSH2 0xA74 SWAP1 PUSH2 0x20A3 JUMP JUMPDEST PUSH1 0x40 MLOAD DUP1 SWAP2 SUB SWAP1 REVERT JUMPDEST PUSH2 0xA86 DUP2 PUSH2 0x1049 JUMP JUMPDEST POP JUMP JUMPDEST PUSH1 0x0 PUSH32 0x1FFC9A700000000000000000000000000000000000000000000000000000000 PUSH28 0xFFFFFFFFFFFFFFFFFFFFFFFFFFFFFFFFFFFFFFFFFFFFFFFFFFFFFFFF NOT AND DUP3 PUSH28 0xFFFFFFFFFFFFFFFFFFFFFFFFFFFFFFFFFFFFFFFFFFFFFFFFFFFFFFFF NOT AND EQ SWAP1 POP SWAP2 SWAP1 POP JUMP JUMPDEST PUSH2 0xAFC DUP2 PUSH2 0x13C5 JUMP JUMPDEST PUSH2 0xB3B JUMPI PUSH1 0x40 MLOAD PUSH32 0x8C379A000000000000000000000000000000000000000000000000000000000 DUP2 MSTORE PUSH1 0x4 ADD PUSH2 0xB32 SWAP1 PUSH2 0x1F45 JUMP JUMPDEST PUSH1 0x40 MLOAD DUP1 SWAP2 SUB SWAP1 REVERT JUMPDEST POP JUMP JUMPDEST PUSH1 0x0 CALLER SWAP1 POP SWAP1 JUMP JUMPDEST DUP2 PUSH1 0x5 PUSH1 0x0 DUP4 DUP2 MSTORE PUSH1 0x20 ADD SWAP1 DUP2 MSTORE PUSH1 0x20 ADD PUSH1 0x0 KECCAK256 PUSH1 0x0 PUSH2 0x100 EXP DUP2 SLOAD DUP2 PUSH20 0xFFFFFFFFFFFFFFFFFFFFFFFFFFFFFFFFFFFFFFFF MUL NOT AND SWAP1 DUP4 PUSH20 0xFFFFFFFFFFFFFFFFFFFFFFFFFFFFFFFFFFFFFFFF AND MUL OR SWAP1 SSTORE POP DUP1 DUP3 PUSH20 0xFFFFFFFFFFFFFFFFFFFFFFFFFFFFFFFFFFFFFFFF AND PUSH2 0xBB9 DUP4 PUSH2 0x683 JUMP JUMPDEST PUSH20 0xFFFFFFFFFFFFFFFFFFFFFFFFFFFFFFFFFFFFFFFF AND PUSH32 0x8C5BE1E5EBEC7D5BD14F71427D1E84F3DD0314C0F7B2291E5B200AC8C7C3B925 PUSH1 0x40 MLOAD PUSH1 0x40 MLOAD DUP1 SWAP2 SUB SWAP1 LOG4 POP POP JUMP JUMPDEST PUSH1 0x0 DUP1 PUSH2 0xC0B DUP4 PUSH2 0x683 JUMP JUMPDEST SWAP1 POP DUP1 PUSH20 0xFFFFFFFFFFFFFFFFFFFFFFFFFFFFFFFFFFFFFFFF AND DUP5 PUSH20 0xFFFFFFFFFFFFFFFFFFFFFFFFFFFFFFFFFFFFFFFF AND EQ DUP1 PUSH2 0xC4D JUMPI POP PUSH2 0xC4C DUP2 DUP6 PUSH2 0x971 JUMP JUMPDEST JUMPDEST DUP1 PUSH2 0xC8B JUMPI POP DUP4 PUSH20 0xFFFFFFFFFFFFFFFFFFFFFFFFFFFFFFFFFFFFFFFF AND PUSH2 0xC73 DUP5 PUSH2 0x4A5 JUMP JUMPDEST PUSH20 0xFFFFFFFFFFFFFFFFFFFFFFFFFFFFFFFFFFFFFFFF AND EQ JUMPDEST SWAP2 POP POP SWAP3 SWAP2 POP POP JUMP JUMPDEST DUP3 PUSH20 0xFFFFFFFFFFFFFFFFFFFFFFFFFFFFFFFFFFFFFFFF AND PUSH2 0xCB4 DUP3 PUSH2 0x683 JUMP JUMPDEST PUSH20 0xFFFFFFFFFFFFFFFFFFFFFFFFFFFFFFFFFFFFFFFF AND EQ PUSH2 0xD0A JUMPI PUSH1 0x40 MLOAD PUSH32 0x8C379A000000000000000000000000000000000000000000000000000000000 DUP2 MSTORE PUSH1 0x4 ADD PUSH2 0xD01 SWAP1 PUSH2 0x2135 JUMP JUMPDEST PUSH1 0x40 MLOAD DUP1 SWAP2 SUB SWAP1 REVERT JUMPDEST PUSH1 0x0 PUSH20 0xFFFFFFFFFFFFFFFFFFFFFFFFFFFFFFFFFFFFFFFF AND DUP3 PUSH20 0xFFFFFFFFFFFFFFFFFFFFFFFFFFFFFFFFFFFFFFFF AND EQ ISZERO PUSH2 0xD7A JUMPI PUSH1 0x40 MLOAD PUSH32 0x8C379A000000000000000000000000000000000000000000000000000000000 DUP2 MSTORE PUSH1 0x4 ADD PUSH2 0xD71 SWAP1 PUSH2 0x21C7 JUMP JUMPDEST PUSH1 0x40 MLOAD DUP1 SWAP2 SUB SWAP1 REVERT JUMPDEST PUSH2 0xD87 DUP4 DUP4 DUP4 PUSH1 0x1 PUSH2 0x1406 JUMP JUMPDEST DUP3 PUSH20 0xFFFFFFFFFFFFFFFFFFFFFFFFFFFFFFFFFFFFFFFF AND PUSH2 0xDA7 DUP3 PUSH2 0x683 JUMP JUMPDEST PUSH20 0xFFFFFFFFFFFFFFFFFFFFFFFFFFFFFFFFFFFFFFFF AND EQ PUSH2 0xDFD JUMPI PUSH1 0x40 MLOAD PUSH32 0x8C379A000000000000000000000000000000000000000000000000000000000 DUP2 MSTORE PUSH1 0x4 ADD PUSH2 0xDF4 SWAP1 PUSH2 0x2135 JUMP JUMPDEST PUSH1 0x40 MLOAD DUP1 SWAP2 SUB SWAP1 REVERT JUMPDEST PUSH1 0x5 PUSH1 0x0 DUP3 DUP2 MSTORE PUSH1 0x20 ADD SWAP1 DUP2 MSTORE PUSH1 0x20 ADD PUSH1 0x0 KECCAK256 PUSH1 0x0 PUSH2 0x100 EXP DUP2 SLOAD SWAP1 PUSH20 0xFFFFFFFFFFFFFFFFFFFFFFFFFFFFFFFFFFFFFFFF MUL NOT AND SWAP1 SSTORE PUSH1 0x1 PUSH1 0x4 PUSH1 0x0 DUP6 PUSH20 0xFFFFFFFFFFFFFFFFFFFFFFFFFFFFFFFFFFFFFFFF AND PUSH20 0xFFFFFFFFFFFFFFFFFFFFFFFFFFFFFFFFFFFFFFFF AND DUP2 MSTORE PUSH1 0x20 ADD SWAP1 DUP2 MSTORE PUSH1 0x20 ADD PUSH1 0x0 KECCAK256 PUSH1 0x0 DUP3 DUP3 SLOAD SUB SWAP3 POP POP DUP2 SWAP1 SSTORE POP PUSH1 0x1 PUSH1 0x4 PUSH1 0x0 DUP5 PUSH20 0xFFFFFFFFFFFFFFFFFFFFFFFFFFFFFFFFFFFFFFFF AND PUSH20 0xFFFFFFFFFFFFFFFFFFFFFFFFFFFFFFFFFFFFFFFF AND DUP2 MSTORE PUSH1 0x20 ADD SWAP1 DUP2 MSTORE PUSH1 0x20 ADD PUSH1 0x0 KECCAK256 PUSH1 0x0 DUP3 DUP3 SLOAD ADD SWAP3 POP POP DUP2 SWAP1 SSTORE POP DUP2 PUSH1 0x3 PUSH1 0x0 DUP4 DUP2 MSTORE PUSH1 0x20 ADD SWAP1 DUP2 MSTORE PUSH1 0x20 ADD PUSH1 0x0 KECCAK256 PUSH1 0x0 PUSH2 0x100 EXP DUP2 SLOAD DUP2 PUSH20 0xFFFFFFFFFFFFFFFFFFFFFFFFFFFFFFFFFFFFFFFF MUL NOT AND SWAP1 DUP4 PUSH20 0xFFFFFFFFFFFFFFFFFFFFFFFFFFFFFFFFFFFFFFFF AND MUL OR SWAP1 SSTORE POP DUP1 DUP3 PUSH20 0xFFFFFFFFFFFFFFFFFFFFFFFFFFFFFFFFFFFFFFFF AND DUP5 PUSH20 0xFFFFFFFFFFFFFFFFFFFFFFFFFFFFFFFFFFFFFFFF AND PUSH32 0xDDF252AD1BE2C89B69C2B068FC378DAA952BA7F163C4A11628F55A4DF523B3EF PUSH1 0x40 MLOAD PUSH1 0x40 MLOAD DUP1 SWAP2 SUB SWAP1 LOG4 PUSH2 0xF89 DUP4 DUP4 DUP4 PUSH1 0x1 PUSH2 0x140C JUMP JUMPDEST POP POP POP JUMP JUMPDEST PUSH1 0x0 PUSH1 0x3 PUSH1 0x0 DUP4 DUP2 MSTORE PUSH1 0x20 ADD SWAP1 DUP2 MSTORE PUSH1 0x20 ADD PUSH1 0x0 KECCAK256 PUSH1 0x0 SWAP1 SLOAD SWAP1 PUSH2 0x100 EXP SWAP1 DIV PUSH20 0xFFFFFFFFFFFFFFFFFFFFFFFFFFFFFFFFFFFFFFFF AND SWAP1 POP SWAP2 SWAP1 POP JUMP JUMPDEST PUSH2 0xFD3 PUSH2 0xB3E JUMP JUMPDEST PUSH20 0xFFFFFFFFFFFFFFFFFFFFFFFFFFFFFFFFFFFFFFFF AND PUSH2 0xFF1 PUSH2 0x7D6 JUMP JUMPDEST PUSH20 0xFFFFFFFFFFFFFFFFFFFFFFFFFFFFFFFFFFFFFFFF AND EQ PUSH2 0x1047 JUMPI PUSH1 0x40 MLOAD PUSH32 0x8C379A000000000000000000000000000000000000000000000000000000000 DUP2 MSTORE PUSH1 0x4 ADD PUSH2 0x103E SWAP1 PUSH2 0x2233 JUMP JUMPDEST PUSH1 0x40 MLOAD DUP1 SWAP2 SUB SWAP1 REVERT JUMPDEST JUMP JUMPDEST PUSH1 0x0 DUP1 PUSH1 0x0 SWAP1 SLOAD SWAP1 PUSH2 0x100 EXP SWAP1 DIV PUSH20 0xFFFFFFFFFFFFFFFFFFFFFFFFFFFFFFFFFFFFFFFF AND SWAP1 POP DUP2 PUSH1 0x0 DUP1 PUSH2 0x100 EXP DUP2 SLOAD DUP2 PUSH20 0xFFFFFFFFFFFFFFFFFFFFFFFFFFFFFFFFFFFFFFFF MUL NOT AND SWAP1 DUP4 PUSH20 0xFFFFFFFFFFFFFFFFFFFFFFFFFFFFFFFFFFFFFFFF AND MUL OR SWAP1 SSTORE POP DUP2 PUSH20 0xFFFFFFFFFFFFFFFFFFFFFFFFFFFFFFFFFFFFFFFF AND DUP2 PUSH20 0xFFFFFFFFFFFFFFFFFFFFFFFFFFFFFFFFFFFFFFFF AND PUSH32 0x8BE0079C531659141344CD1FD0A4F28419497F9722A3DAAFE3B4186F6B6457E0 PUSH1 0x40 MLOAD PUSH1 0x40 MLOAD DUP1 SWAP2 SUB SWAP1 LOG3 POP POP JUMP JUMPDEST DUP2 PUSH20 0xFFFFFFFFFFFFFFFFFFFFFFFFFFFFFFFFFFFFFFFF AND DUP4 PUSH20 0xFFFFFFFFFFFFFFFFFFFFFFFFFFFFFFFFFFFFFFFF AND EQ ISZERO PUSH2 0x117C JUMPI PUSH1 0x40 MLOAD PUSH32 0x8C379A000000000000000000000000000000000000000000000000000000000 DUP2 MSTORE PUSH1 0x4 ADD PUSH2 0x1173 SWAP1 PUSH2 0x229F JUMP JUMPDEST PUSH1 0x40 MLOAD DUP1 SWAP2 SUB SWAP1 REVERT JUMPDEST DUP1 PUSH1 0x6 PUSH1 0x0 DUP6 PUSH20 0xFFFFFFFFFFFFFFFFFFFFFFFFFFFFFFFFFFFFFFFF AND PUSH20 0xFFFFFFFFFFFFFFFFFFFFFFFFFFFFFFFFFFFFFFFF AND DUP2 MSTORE PUSH1 0x20 ADD SWAP1 DUP2 MSTORE PUSH1 0x20 ADD PUSH1 0x0 KECCAK256 PUSH1 0x0 DUP5 PUSH20 0xFFFFFFFFFFFFFFFFFFFFFFFFFFFFFFFFFFFFFFFF AND PUSH20 0xFFFFFFFFFFFFFFFFFFFFFFFFFFFFFFFFFFFFFFFF AND DUP2 MSTORE PUSH1 0x20 ADD SWAP1 DUP2 MSTORE PUSH1 0x20 ADD PUSH1 0x0 KECCAK256 PUSH1 0x0 PUSH2 0x100 EXP DUP2 SLOAD DUP2 PUSH1 0xFF MUL NOT AND SWAP1 DUP4 ISZERO ISZERO MUL OR SWAP1 SSTORE POP DUP2 PUSH20 0xFFFFFFFFFFFFFFFFFFFFFFFFFFFFFFFFFFFFFFFF AND DUP4 PUSH20 0xFFFFFFFFFFFFFFFFFFFFFFFFFFFFFFFFFFFFFFFF AND PUSH32 0x17307EAB39AB6107E8899845AD3D59BD9653F200F220920489CA2B5937696C31 DUP4 PUSH1 0x40 MLOAD PUSH2 0x126D SWAP2 SWAP1 PUSH2 0x17D3 JUMP JUMPDEST PUSH1 0x40 MLOAD DUP1 SWAP2 SUB SWAP1 LOG3 POP POP POP JUMP JUMPDEST PUSH2 0x1285 DUP5 DUP5 DUP5 PUSH2 0xC94 JUMP JUMPDEST PUSH2 0x1291 DUP5 DUP5 DUP5 DUP5 PUSH2 0x1412 JUMP JUMPDEST PUSH2 0x12D0 JUMPI PUSH1 0x40 MLOAD PUSH32 0x8C379A000000000000000000000000000000000000000000000000000000000 DUP2 MSTORE PUSH1 0x4 ADD PUSH2 0x12C7 SWAP1 PUSH2 0x2331 JUMP JUMPDEST PUSH1 0x40 MLOAD DUP1 SWAP2 SUB SWAP1 REVERT JUMPDEST POP POP POP POP JUMP JUMPDEST PUSH1 0x60 PUSH1 0x40 MLOAD DUP1 PUSH1 0x20 ADD PUSH1 0x40 MSTORE DUP1 PUSH1 0x0 DUP2 MSTORE POP SWAP1 POP SWAP1 JUMP JUMPDEST PUSH1 0x60 PUSH1 0x0 PUSH1 0x1 PUSH2 0x12FC DUP5 PUSH2 0x15A9 JUMP JUMPDEST ADD SWAP1 POP PUSH1 0x0 DUP2 PUSH8 0xFFFFFFFFFFFFFFFF DUP2 GT ISZERO PUSH2 0x131B JUMPI PUSH2 0x131A PUSH2 0x1AF4 JUMP JUMPDEST JUMPDEST PUSH1 0x40 MLOAD SWAP1 DUP1 DUP3 MSTORE DUP1 PUSH1 0x1F ADD PUSH1 0x1F NOT AND PUSH1 0x20 ADD DUP3 ADD PUSH1 0x40 MSTORE DUP1 ISZERO PUSH2 0x134D JUMPI DUP2 PUSH1 0x20 ADD PUSH1 0x1 DUP3 MUL DUP1 CALLDATASIZE DUP4 CALLDATACOPY DUP1 DUP3 ADD SWAP2 POP POP SWAP1 POP JUMPDEST POP SWAP1 POP PUSH1 0x0 DUP3 PUSH1 0x20 ADD DUP3 ADD SWAP1 POP JUMPDEST PUSH1 0x1 ISZERO PUSH2 0x13BA JUMPI DUP1 DUP1 PUSH1 0x1 SWAP1 SUB SWAP2 POP POP PUSH32 0x3031323334353637383961626364656600000000000000000000000000000000 PUSH1 0xA DUP7 MOD BYTE DUP2 MSTORE8 PUSH1 0xA DUP6 DUP2 PUSH2 0x13A4 JUMPI PUSH2 0x13A3 PUSH2 0x2351 JUMP JUMPDEST JUMPDEST DIV SWAP5 POP PUSH1 0x0 DUP6 EQ ISZERO PUSH2 0x13B5 JUMPI PUSH2 0x13BA JUMP JUMPDEST PUSH2 0x135B JUMP JUMPDEST DUP2 SWAP4 POP POP POP POP SWAP2 SWAP1 POP JUMP JUMPDEST PUSH1 0x0 DUP1 PUSH20 0xFFFFFFFFFFFFFFFFFFFFFFFFFFFFFFFFFFFFFFFF AND PUSH2 0x13E7 DUP4 PUSH2 0xF8E JUMP JUMPDEST PUSH20 0xFFFFFFFFFFFFFFFFFFFFFFFFFFFFFFFFFFFFFFFF AND EQ ISZERO SWAP1 POP SWAP2 SWAP1 POP JUMP JUMPDEST POP POP POP POP JUMP JUMPDEST POP POP POP POP JUMP JUMPDEST PUSH1 0x0 PUSH2 0x1433 DUP5 PUSH20 0xFFFFFFFFFFFFFFFFFFFFFFFFFFFFFFFFFFFFFFFF AND PUSH2 0x16FC JUMP JUMPDEST ISZERO PUSH2 0x159C JUMPI DUP4 PUSH20 0xFFFFFFFFFFFFFFFFFFFFFFFFFFFFFFFFFFFFFFFF AND PUSH4 0x150B7A02 PUSH2 0x145C PUSH2 0xB3E JUMP JUMPDEST DUP8 DUP7 DUP7 PUSH1 0x40 MLOAD DUP6 PUSH4 0xFFFFFFFF AND PUSH1 0xE0 SHL DUP2 MSTORE PUSH1 0x4 ADD PUSH2 0x147E SWAP5 SWAP4 SWAP3 SWAP2 SWAP1 PUSH2 0x23D5 JUMP JUMPDEST PUSH1 0x20 PUSH1 0x40 MLOAD DUP1 DUP4 SUB DUP2 PUSH1 0x0 DUP8 DUP1 EXTCODESIZE ISZERO DUP1 ISZERO PUSH2 0x1498 JUMPI PUSH1 0x0 DUP1 REVERT JUMPDEST POP GAS CALL SWAP3 POP POP POP DUP1 ISZERO PUSH2 0x14C9 JUMPI POP PUSH1 0x40 MLOAD RETURNDATASIZE PUSH1 0x1F NOT PUSH1 0x1F DUP3 ADD AND DUP3 ADD DUP1 PUSH1 0x40 MSTORE POP DUP2 ADD SWAP1 PUSH2 0x14C6 SWAP2 SWAP1 PUSH2 0x2436 JUMP JUMPDEST PUSH1 0x1 JUMPDEST PUSH2 0x154C JUMPI RETURNDATASIZE DUP1 PUSH1 0x0 DUP2 EQ PUSH2 0x14F9 JUMPI PUSH1 0x40 MLOAD SWAP2 POP PUSH1 0x1F NOT PUSH1 0x3F RETURNDATASIZE ADD AND DUP3 ADD PUSH1 0x40 MSTORE RETURNDATASIZE DUP3 MSTORE RETURNDATASIZE PUSH1 0x0 PUSH1 0x20 DUP5 ADD RETURNDATACOPY PUSH2 0x14FE JUMP JUMPDEST PUSH1 0x60 SWAP2 POP JUMPDEST POP PUSH1 0x0 DUP2 MLOAD EQ ISZERO PUSH2 0x1544 JUMPI PUSH1 0x40 MLOAD PUSH32 0x8C379A000000000000000000000000000000000000000000000000000000000 DUP2 MSTORE PUSH1 0x4 ADD PUSH2 0x153B SWAP1 PUSH2 0x2331 JUMP JUMPDEST PUSH1 0x40 MLOAD DUP1 SWAP2 SUB SWAP1 REVERT JUMPDEST DUP1 MLOAD DUP2 PUSH1 0x20 ADD REVERT JUMPDEST PUSH4 0x150B7A02 PUSH1 0xE0 SHL PUSH28 0xFFFFFFFFFFFFFFFFFFFFFFFFFFFFFFFFFFFFFFFFFFFFFFFFFFFFFFFF NOT AND DUP2 PUSH28 0xFFFFFFFFFFFFFFFFFFFFFFFFFFFFFFFFFFFFFFFFFFFFFFFFFFFFFFFF NOT AND EQ SWAP2 POP POP PUSH2 0x15A1 JUMP JUMPDEST PUSH1 0x1 SWAP1 POP JUMPDEST SWAP5 SWAP4 POP POP POP POP JUMP JUMPDEST PUSH1 0x0 DUP1 PUSH1 0x0 SWAP1 POP PUSH27 0x184F03E93FF9F4DAA797ED6E38ED64BF6A1F010000000000000000 DUP4 LT PUSH2 0x1607 JUMPI PUSH27 0x184F03E93FF9F4DAA797ED6E38ED64BF6A1F010000000000000000 DUP4 DUP2 PUSH2 0x15FD JUMPI PUSH2 0x15FC PUSH2 0x2351 JUMP JUMPDEST JUMPDEST DIV SWAP3 POP PUSH1 0x40 DUP2 ADD SWAP1 POP JUMPDEST PUSH14 0x4EE2D6D415B85ACEF8100000000 DUP4 LT PUSH2 0x1644 JUMPI PUSH14 0x4EE2D6D415B85ACEF8100000000 DUP4 DUP2 PUSH2 0x163A JUMPI PUSH2 0x1639 PUSH2 0x2351 JUMP JUMPDEST JUMPDEST DIV SWAP3 POP PUSH1 0x20 DUP2 ADD SWAP1 POP JUMPDEST PUSH7 0x2386F26FC10000 DUP4 LT PUSH2 0x1673 JUMPI PUSH7 0x2386F26FC10000 DUP4 DUP2 PUSH2 0x1669 JUMPI PUSH2 0x1668 PUSH2 0x2351 JUMP JUMPDEST JUMPDEST DIV SWAP3 POP PUSH1 0x10 DUP2 ADD SWAP1 POP JUMPDEST PUSH4 0x5F5E100 DUP4 LT PUSH2 0x169C JUMPI PUSH4 0x5F5E100 DUP4 DUP2 PUSH2 0x1692 JUMPI PUSH2 0x1691 PUSH2 0x2351 JUMP JUMPDEST JUMPDEST DIV SWAP3 POP PUSH1 0x8 DUP2 ADD SWAP1 POP JUMPDEST PUSH2 0x2710 DUP4 LT PUSH2 0x16C1 JUMPI PUSH2 0x2710 DUP4 DUP2 PUSH2 0x16B7 JUMPI PUSH2 0x16B6 PUSH2 0x2351 JUMP JUMPDEST JUMPDEST DIV SWAP3 POP PUSH1 0x4 DUP2 ADD SWAP1 POP JUMPDEST PUSH1 0x64 DUP4 LT PUSH2 0x16E4 JUMPI PUSH1 0x64 DUP4 DUP2 PUSH2 0x16DA JUMPI PUSH2 0x16D9 PUSH2 0x2351 JUMP JUMPDEST JUMPDEST DIV SWAP3 POP PUSH1 0x2 DUP2 ADD SWAP1 POP JUMPDEST PUSH1 0xA DUP4 LT PUSH2 0x16F3 JUMPI PUSH1 0x1 DUP2 ADD SWAP1 POP JUMPDEST DUP1 SWAP2 POP POP SWAP2 SWAP1 POP JUMP JUMPDEST PUSH1 0x0 DUP1 DUP3 PUSH20 0xFFFFFFFFFFFFFFFFFFFFFFFFFFFFFFFFFFFFFFFF AND EXTCODESIZE GT SWAP1 POP SWAP2 SWAP1 POP JUMP JUMPDEST PUSH1 0x0 PUSH1 0x40 MLOAD SWAP1 POP SWAP1 JUMP JUMPDEST PUSH1 0x0 DUP1 REVERT JUMPDEST PUSH1 0x0 DUP1 REVERT JUMPDEST PUSH1 0x0 PUSH32 0xFFFFFFFF00000000000000000000000000000000000000000000000000000000 DUP3 AND SWAP1 POP SWAP2 SWAP1 POP JUMP JUMPDEST PUSH2 0x1768 DUP2 PUSH2 0x1733 JUMP JUMPDEST DUP2 EQ PUSH2 0x1773 JUMPI PUSH1 0x0 DUP1 REVERT JUMPDEST POP JUMP JUMPDEST PUSH1 0x0 DUP2 CALLDATALOAD SWAP1 POP PUSH2 0x1785 DUP2 PUSH2 0x175F JUMP JUMPDEST SWAP3 SWAP2 POP POP JUMP JUMPDEST PUSH1 0x0 PUSH1 0x20 DUP3 DUP5 SUB SLT ISZERO PUSH2 0x17A1 JUMPI PUSH2 0x17A0 PUSH2 0x1729 JUMP JUMPDEST JUMPDEST PUSH1 0x0 PUSH2 0x17AF DUP5 DUP3 DUP6 ADD PUSH2 0x1776 JUMP JUMPDEST SWAP2 POP POP SWAP3 SWAP2 POP POP JUMP JUMPDEST PUSH1 0x0 DUP2 ISZERO ISZERO SWAP1 POP SWAP2 SWAP1 POP JUMP JUMPDEST PUSH2 0x17CD DUP2 PUSH2 0x17B8 JUMP JUMPDEST DUP3 MSTORE POP POP JUMP JUMPDEST PUSH1 0x0 PUSH1 0x20 DUP3 ADD SWAP1 POP PUSH2 0x17E8 PUSH1 0x0 DUP4 ADD DUP5 PUSH2 0x17C4 JUMP JUMPDEST SWAP3 SWAP2 POP POP JUMP JUMPDEST PUSH1 0x0 DUP2 MLOAD SWAP1 POP SWAP2 SWAP1 POP JUMP JUMPDEST PUSH1 0x0 DUP3 DUP3 MSTORE PUSH1 0x20 DUP3 ADD SWAP1 POP SWAP3 SWAP2 POP POP JUMP JUMPDEST PUSH1 0x0 JUMPDEST DUP4 DUP2 LT ISZERO PUSH2 0x1828 JUMPI DUP1 DUP3 ADD MLOAD DUP2 DUP5 ADD MSTORE PUSH1 0x20 DUP2 ADD SWAP1 POP PUSH2 0x180D JUMP JUMPDEST DUP4 DUP2 GT ISZERO PUSH2 0x1837 JUMPI PUSH1 0x0 DUP5 DUP5 ADD MSTORE JUMPDEST POP POP POP POP JUMP JUMPDEST PUSH1 0x0 PUSH1 0x1F NOT PUSH1 0x1F DUP4 ADD AND SWAP1 POP SWAP2 SWAP1 POP JUMP JUMPDEST PUSH1 0x0 PUSH2 0x1859 DUP3 PUSH2 0x17EE JUMP JUMPDEST PUSH2 0x1863 DUP2 DUP6 PUSH2 0x17F9 JUMP JUMPDEST SWAP4 POP PUSH2 0x1873 DUP2 DUP6 PUSH1 0x20 DUP7 ADD PUSH2 0x180A JUMP JUMPDEST PUSH2 0x187C DUP2 PUSH2 0x183D JUMP JUMPDEST DUP5 ADD SWAP2 POP POP SWAP3 SWAP2 POP POP JUMP JUMPDEST PUSH1 0x0 PUSH1 0x20 DUP3 ADD SWAP1 POP DUP2 DUP2 SUB PUSH1 0x0 DUP4 ADD MSTORE PUSH2 0x18A1 DUP2 DUP5 PUSH2 0x184E JUMP JUMPDEST SWAP1 POP SWAP3 SWAP2 POP POP JUMP JUMPDEST PUSH1 0x0 DUP2 SWAP1 POP SWAP2 SWAP1 POP JUMP JUMPDEST PUSH2 0x18BC DUP2 PUSH2 0x18A9 JUMP JUMPDEST DUP2 EQ PUSH2 0x18C7 JUMPI PUSH1 0x0 DUP1 REVERT JUMPDEST POP JUMP JUMPDEST PUSH1 0x0 DUP2 CALLDATALOAD SWAP1 POP PUSH2 0x18D9 DUP2 PUSH2 0x18B3 JUMP JUMPDEST SWAP3 SWAP2 POP POP JUMP JUMPDEST PUSH1 0x0 PUSH1 0x20 DUP3 DUP5 SUB SLT ISZERO PUSH2 0x18F5 JUMPI PUSH2 0x18F4 PUSH2 0x1729 JUMP JUMPDEST JUMPDEST PUSH1 0x0 PUSH2 0x1903 DUP5 DUP3 DUP6 ADD PUSH2 0x18CA JUMP JUMPDEST SWAP2 POP POP SWAP3 SWAP2 POP POP JUMP JUMPDEST PUSH1 0x0 PUSH20 0xFFFFFFFFFFFFFFFFFFFFFFFFFFFFFFFFFFFFFFFF DUP3 AND SWAP1 POP SWAP2 SWAP1 POP JUMP JUMPDEST PUSH1 0x0 PUSH2 0x1937 DUP3 PUSH2 0x190C JUMP JUMPDEST SWAP1 POP SWAP2 SWAP1 POP JUMP JUMPDEST PUSH2 0x1947 DUP2 PUSH2 0x192C JUMP JUMPDEST DUP3 MSTORE POP POP JUMP JUMPDEST PUSH1 0x0 PUSH1 0x20 DUP3 ADD SWAP1 POP PUSH2 0x1962 PUSH1 0x0 DUP4 ADD DUP5 PUSH2 0x193E JUMP JUMPDEST SWAP3 SWAP2 POP POP JUMP JUMPDEST PUSH2 0x1971 DUP2 PUSH2 0x192C JUMP JUMPDEST DUP2 EQ PUSH2 0x197C JUMPI PUSH1 0x0 DUP1 REVERT JUMPDEST POP JUMP JUMPDEST PUSH1 0x0 DUP2 CALLDATALOAD SWAP1 POP PUSH2 0x198E DUP2 PUSH2 0x1968 JUMP JUMPDEST SWAP3 SWAP2 POP POP JUMP JUMPDEST PUSH1 0x0 DUP1 PUSH1 0x40 DUP4 DUP6 SUB SLT ISZERO PUSH2 0x19AB JUMPI PUSH2 0x19AA PUSH2 0x1729 JUMP JUMPDEST JUMPDEST PUSH1 0x0 PUSH2 0x19B9 DUP6 DUP3 DUP7 ADD PUSH2 0x197F JUMP JUMPDEST SWAP3 POP POP PUSH1 0x20 PUSH2 0x19CA DUP6 DUP3 DUP7 ADD PUSH2 0x18CA JUMP JUMPDEST SWAP2 POP POP SWAP3 POP SWAP3 SWAP1 POP JUMP JUMPDEST PUSH1 0x0 DUP1 PUSH1 0x0 PUSH1 0x60 DUP5 DUP7 SUB SLT ISZERO PUSH2 0x19ED JUMPI PUSH2 0x19EC PUSH2 0x1729 JUMP JUMPDEST JUMPDEST PUSH1 0x0 PUSH2 0x19FB DUP7 DUP3 DUP8 ADD PUSH2 0x197F JUMP JUMPDEST SWAP4 POP POP PUSH1 0x20 PUSH2 0x1A0C DUP7 DUP3 DUP8 ADD PUSH2 0x197F JUMP JUMPDEST SWAP3 POP POP PUSH1 0x40 PUSH2 0x1A1D DUP7 DUP3 DUP8 ADD PUSH2 0x18CA JUMP JUMPDEST SWAP2 POP POP SWAP3 POP SWAP3 POP SWAP3 JUMP JUMPDEST PUSH1 0x0 PUSH1 0x20 DUP3 DUP5 SUB SLT ISZERO PUSH2 0x1A3D JUMPI PUSH2 0x1A3C PUSH2 0x1729 JUMP JUMPDEST JUMPDEST PUSH1 0x0 PUSH2 0x1A4B DUP5 DUP3 DUP6 ADD PUSH2 0x197F JUMP JUMPDEST SWAP2 POP POP SWAP3 SWAP2 POP POP JUMP JUMPDEST PUSH2 0x1A5D DUP2 PUSH2 0x18A9 JUMP JUMPDEST DUP3 MSTORE POP POP JUMP JUMPDEST PUSH1 0x0 PUSH1 0x20 DUP3 ADD SWAP1 POP PUSH2 0x1A78 PUSH1 0x0 DUP4 ADD DUP5 PUSH2 0x1A54 JUMP JUMPDEST SWAP3 SWAP2 POP POP JUMP JUMPDEST PUSH2 0x1A87 DUP2 PUSH2 0x17B8 JUMP JUMPDEST DUP2 EQ PUSH2 0x1A92 JUMPI PUSH1 0x0 DUP1 REVERT JUMPDEST POP JUMP JUMPDEST PUSH1 0x0 DUP2 CALLDATALOAD SWAP1 POP PUSH2 0x1AA4 DUP2 PUSH2 0x1A7E JUMP JUMPDEST SWAP3 SWAP2 POP POP JUMP JUMPDEST PUSH1 0x0 DUP1 PUSH1 0x40 DUP4 DUP6 SUB SLT ISZERO PUSH2 0x1AC1 JUMPI PUSH2 0x1AC0 PUSH2 0x1729 JUMP JUMPDEST JUMPDEST PUSH1 0x0 PUSH2 0x1ACF DUP6 DUP3 DUP7 ADD PUSH2 0x197F JUMP JUMPDEST SWAP3 POP POP PUSH1 0x20 PUSH2 0x1AE0 DUP6 DUP3 DUP7 ADD PUSH2 0x1A95 JUMP JUMPDEST SWAP2 POP POP SWAP3 POP SWAP3 SWAP1 POP JUMP JUMPDEST PUSH1 0x0 DUP1 REVERT JUMPDEST PUSH1 0x0 DUP1 REVERT JUMPDEST PUSH32 0x4E487B7100000000000000000000000000000000000000000000000000000000 PUSH1 0x0 MSTORE PUSH1 0x41 PUSH1 0x4 MSTORE PUSH1 0x24 PUSH1 0x0 REVERT JUMPDEST PUSH2 0x1B2C DUP3 PUSH2 0x183D JUMP JUMPDEST DUP2 ADD DUP2 DUP2 LT PUSH8 0xFFFFFFFFFFFFFFFF DUP3 GT OR ISZERO PUSH2 0x1B4B JUMPI PUSH2 0x1B4A PUSH2 0x1AF4 JUMP JUMPDEST JUMPDEST DUP1 PUSH1 0x40 MSTORE POP POP POP JUMP JUMPDEST PUSH1 0x0 PUSH2 0x1B5E PUSH2 0x171F JUMP JUMPDEST SWAP1 POP PUSH2 0x1B6A DUP3 DUP3 PUSH2 0x1B23 JUMP JUMPDEST SWAP2 SWAP1 POP JUMP JUMPDEST PUSH1 0x0 PUSH8 0xFFFFFFFFFFFFFFFF DUP3 GT ISZERO PUSH2 0x1B8A JUMPI PUSH2 0x1B89 PUSH2 0x1AF4 JUMP JUMPDEST JUMPDEST PUSH2 0x1B93 DUP3 PUSH2 0x183D JUMP JUMPDEST SWAP1 POP PUSH1 0x20 DUP2 ADD SWAP1 POP SWAP2 SWAP1 POP JUMP JUMPDEST DUP3 DUP2 DUP4 CALLDATACOPY PUSH1 0x0 DUP4 DUP4 ADD MSTORE POP POP POP JUMP JUMPDEST PUSH1 0x0 PUSH2 0x1BC2 PUSH2 0x1BBD DUP5 PUSH2 0x1B6F JUMP JUMPDEST PUSH2 0x1B54 JUMP JUMPDEST SWAP1 POP DUP3 DUP2 MSTORE PUSH1 0x20 DUP2 ADD DUP5 DUP5 DUP5 ADD GT ISZERO PUSH2 0x1BDE JUMPI PUSH2 0x1BDD PUSH2 0x1AEF JUMP JUMPDEST JUMPDEST PUSH2 0x1BE9 DUP5 DUP3 DUP6 PUSH2 0x1BA0 JUMP JUMPDEST POP SWAP4 SWAP3 POP POP POP JUMP JUMPDEST PUSH1 0x0 DUP3 PUSH1 0x1F DUP4 ADD SLT PUSH2 0x1C06 JUMPI PUSH2 0x1C05 PUSH2 0x1AEA JUMP JUMPDEST JUMPDEST DUP2 CALLDATALOAD PUSH2 0x1C16 DUP5 DUP3 PUSH1 0x20 DUP7 ADD PUSH2 0x1BAF JUMP JUMPDEST SWAP2 POP POP SWAP3 SWAP2 POP POP JUMP JUMPDEST PUSH1 0x0 DUP1 PUSH1 0x0 DUP1 PUSH1 0x80 DUP6 DUP8 SUB SLT ISZERO PUSH2 0x1C39 JUMPI PUSH2 0x1C38 PUSH2 0x1729 JUMP JUMPDEST JUMPDEST PUSH1 0x0 PUSH2 0x1C47 DUP8 DUP3 DUP9 ADD PUSH2 0x197F JUMP JUMPDEST SWAP5 POP POP PUSH1 0x20 PUSH2 0x1C58 DUP8 DUP3 DUP9 ADD PUSH2 0x197F JUMP JUMPDEST SWAP4 POP POP PUSH1 0x40 PUSH2 0x1C69 DUP8 DUP3 DUP9 ADD PUSH2 0x18CA JUMP JUMPDEST SWAP3 POP POP PUSH1 0x60 DUP6 ADD CALLDATALOAD PUSH8 0xFFFFFFFFFFFFFFFF DUP2 GT ISZERO PUSH2 0x1C8A JUMPI PUSH2 0x1C89 PUSH2 0x172E JUMP JUMPDEST JUMPDEST PUSH2 0x1C96 DUP8 DUP3 DUP9 ADD PUSH2 0x1BF1 JUMP JUMPDEST SWAP2 POP POP SWAP3 SWAP6 SWAP2 SWAP5 POP SWAP3 POP JUMP JUMPDEST PUSH1 0x0 DUP1 PUSH1 0x40 DUP4 DUP6 SUB SLT ISZERO PUSH2 0x1CB9 JUMPI PUSH2 0x1CB8 PUSH2 0x1729 JUMP JUMPDEST JUMPDEST PUSH1 0x0 PUSH2 0x1CC7 DUP6 DUP3 DUP7 ADD PUSH2 0x197F JUMP JUMPDEST SWAP3 POP POP PUSH1 0x20 PUSH2 0x1CD8 DUP6 DUP3 DUP7 ADD PUSH2 0x197F JUMP JUMPDEST SWAP2 POP POP SWAP3 POP SWAP3 SWAP1 POP JUMP JUMPDEST PUSH32 0x4E487B7100000000000000000000000000000000000000000000000000000000 PUSH1 0x0 MSTORE PUSH1 0x22 PUSH1 0x4 MSTORE PUSH1 0x24 PUSH1 0x0 REVERT JUMPDEST PUSH1 0x0 PUSH1 0x2 DUP3 DIV SWAP1 POP PUSH1 0x1 DUP3 AND DUP1 PUSH2 0x1D29 JUMPI PUSH1 0x7F DUP3 AND SWAP2 POP JUMPDEST PUSH1 0x20 DUP3 LT DUP2 EQ ISZERO PUSH2 0x1D3D JUMPI PUSH2 0x1D3C PUSH2 0x1CE2 JUMP JUMPDEST JUMPDEST POP SWAP2 SWAP1 POP JUMP JUMPDEST PUSH32 0x4552433732313A20617070726F76616C20746F2063757272656E74206F776E65 PUSH1 0x0 DUP3 ADD MSTORE PUSH32 0x7200000000000000000000000000000000000000000000000000000000000000 PUSH1 0x20 DUP3 ADD MSTORE POP JUMP JUMPDEST PUSH1 0x0 PUSH2 0x1D9F PUSH1 0x21 DUP4 PUSH2 0x17F9 JUMP JUMPDEST SWAP2 POP PUSH2 0x1DAA DUP3 PUSH2 0x1D43 JUMP JUMPDEST PUSH1 0x40 DUP3 ADD SWAP1 POP SWAP2 SWAP1 POP JUMP JUMPDEST PUSH1 0x0 PUSH1 0x20 DUP3 ADD SWAP1 POP DUP2 DUP2 SUB PUSH1 0x0 DUP4 ADD MSTORE PUSH2 0x1DCE DUP2 PUSH2 0x1D92 JUMP JUMPDEST SWAP1 POP SWAP2 SWAP1 POP JUMP JUMPDEST PUSH32 0x4552433732313A20617070726F76652063616C6C6572206973206E6F7420746F PUSH1 0x0 DUP3 ADD MSTORE PUSH32 0x6B656E206F776E6572206F7220617070726F76656420666F7220616C6C000000 PUSH1 0x20 DUP3 ADD MSTORE POP JUMP JUMPDEST PUSH1 0x0 PUSH2 0x1E31 PUSH1 0x3D DUP4 PUSH2 0x17F9 JUMP JUMPDEST SWAP2 POP PUSH2 0x1E3C DUP3 PUSH2 0x1DD5 JUMP JUMPDEST PUSH1 0x40 DUP3 ADD SWAP1 POP SWAP2 SWAP1 POP JUMP JUMPDEST PUSH1 0x0 PUSH1 0x20 DUP3 ADD SWAP1 POP DUP2 DUP2 SUB PUSH1 0x0 DUP4 ADD MSTORE PUSH2 0x1E60 DUP2 PUSH2 0x1E24 JUMP JUMPDEST SWAP1 POP SWAP2 SWAP1 POP JUMP JUMPDEST PUSH32 0x4552433732313A2063616C6C6572206973206E6F7420746F6B656E206F776E65 PUSH1 0x0 DUP3 ADD MSTORE PUSH32 0x72206F7220617070726F76656400000000000000000000000000000000000000 PUSH1 0x20 DUP3 ADD MSTORE POP JUMP JUMPDEST PUSH1 0x0 PUSH2 0x1EC3 PUSH1 0x2D DUP4 PUSH2 0x17F9 JUMP JUMPDEST SWAP2 POP PUSH2 0x1ECE DUP3 PUSH2 0x1E67 JUMP JUMPDEST PUSH1 0x40 DUP3 ADD SWAP1 POP SWAP2 SWAP1 POP JUMP JUMPDEST PUSH1 0x0 PUSH1 0x20 DUP3 ADD SWAP1 POP DUP2 DUP2 SUB PUSH1 0x0 DUP4 ADD MSTORE PUSH2 0x1EF2 DUP2 PUSH2 0x1EB6 JUMP JUMPDEST SWAP1 POP SWAP2 SWAP1 POP JUMP JUMPDEST PUSH32 0x4552433732313A20696E76616C696420746F6B656E2049440000000000000000 PUSH1 0x0 DUP3 ADD MSTORE POP JUMP JUMPDEST PUSH1 0x0 PUSH2 0x1F2F PUSH1 0x18 DUP4 PUSH2 0x17F9 JUMP JUMPDEST SWAP2 POP PUSH2 0x1F3A DUP3 PUSH2 0x1EF9 JUMP JUMPDEST PUSH1 0x20 DUP3 ADD SWAP1 POP SWAP2 SWAP1 POP JUMP JUMPDEST PUSH1 0x0 PUSH1 0x20 DUP3 ADD SWAP1 POP DUP2 DUP2 SUB PUSH1 0x0 DUP4 ADD MSTORE PUSH2 0x1F5E DUP2 PUSH2 0x1F22 JUMP JUMPDEST SWAP1 POP SWAP2 SWAP1 POP JUMP JUMPDEST PUSH32 0x4552433732313A2061646472657373207A65726F000000000000000000000000 PUSH1 0x0 DUP3 ADD MSTORE POP JUMP JUMPDEST PUSH1 0x0 PUSH2 0x1F9B PUSH1 0x14 DUP4 PUSH2 0x17F9 JUMP JUMPDEST SWAP2 POP PUSH2 0x1FA6 DUP3 PUSH2 0x1F65 JUMP JUMPDEST PUSH1 0x20 DUP3 ADD SWAP1 POP SWAP2 SWAP1 POP JUMP JUMPDEST PUSH1 0x0 PUSH1 0x20 DUP3 ADD SWAP1 POP DUP2 DUP2 SUB PUSH1 0x0 DUP4 ADD MSTORE PUSH2 0x1FCA DUP2 PUSH2 0x1F8E JUMP JUMPDEST SWAP1 POP SWAP2 SWAP1 POP JUMP JUMPDEST PUSH1 0x0 DUP2 SWAP1 POP SWAP3 SWAP2 POP POP JUMP JUMPDEST PUSH1 0x0 PUSH2 0x1FE7 DUP3 PUSH2 0x17EE JUMP JUMPDEST PUSH2 0x1FF1 DUP2 DUP6 PUSH2 0x1FD1 JUMP JUMPDEST SWAP4 POP PUSH2 0x2001 DUP2 DUP6 PUSH1 0x20 DUP7 ADD PUSH2 0x180A JUMP JUMPDEST DUP1 DUP5 ADD SWAP2 POP POP SWAP3 SWAP2 POP POP JUMP JUMPDEST PUSH1 0x0 PUSH2 0x2019 DUP3 DUP6 PUSH2 0x1FDC JUMP JUMPDEST SWAP2 POP PUSH2 0x2025 DUP3 DUP5 PUSH2 0x1FDC JUMP JUMPDEST SWAP2 POP DUP2 SWAP1 POP SWAP4 SWAP3 POP POP POP JUMP JUMPDEST PUSH32 0x4F776E61626C653A206E6577206F776E657220697320746865207A65726F2061 PUSH1 0x0 DUP3 ADD MSTORE PUSH32 0x6464726573730000000000000000000000000000000000000000000000000000 PUSH1 0x20 DUP3 ADD MSTORE POP JUMP JUMPDEST PUSH1 0x0 PUSH2 0x208D PUSH1 0x26 DUP4 PUSH2 0x17F9 JUMP JUMPDEST SWAP2 POP PUSH2 0x2098 DUP3 PUSH2 0x2031 JUMP JUMPDEST PUSH1 0x40 DUP3 ADD SWAP1 POP SWAP2 SWAP1 POP JUMP JUMPDEST PUSH1 0x0 PUSH1 0x20 DUP3 ADD SWAP1 POP DUP2 DUP2 SUB PUSH1 0x0 DUP4 ADD MSTORE PUSH2 0x20BC DUP2 PUSH2 0x2080 JUMP JUMPDEST SWAP1 POP SWAP2 SWAP1 POP JUMP JUMPDEST PUSH32 0x4552433732313A207472616E736665722066726F6D20696E636F727265637420 PUSH1 0x0 DUP3 ADD MSTORE PUSH32 0x6F776E6572000000000000000000000000000000000000000000000000000000 PUSH1 0x20 DUP3 ADD MSTORE POP JUMP JUMPDEST PUSH1 0x0 PUSH2 0x211F PUSH1 0x25 DUP4 PUSH2 0x17F9 JUMP JUMPDEST SWAP2 POP PUSH2 0x212A DUP3 PUSH2 0x20C3 JUMP JUMPDEST PUSH1 0x40 DUP3 ADD SWAP1 POP SWAP2 SWAP1 POP JUMP JUMPDEST PUSH1 0x0 PUSH1 0x20 DUP3 ADD SWAP1 POP DUP2 DUP2 SUB PUSH1 0x0 DUP4 ADD MSTORE PUSH2 0x214E DUP2 PUSH2 0x2112 JUMP JUMPDEST SWAP1 POP SWAP2 SWAP1 POP JUMP JUMPDEST PUSH32 0x4552433732313A207472616E7366657220746F20746865207A65726F20616464 PUSH1 0x0 DUP3 ADD MSTORE PUSH32 0x7265737300000000000000000000000000000000000000000000000000000000 PUSH1 0x20 DUP3 ADD MSTORE POP JUMP JUMPDEST PUSH1 0x0 PUSH2 0x21B1 PUSH1 0x24 DUP4 PUSH2 0x17F9 JUMP JUMPDEST SWAP2 POP PUSH2 0x21BC DUP3 PUSH2 0x2155 JUMP JUMPDEST PUSH1 0x40 DUP3 ADD SWAP1 POP SWAP2 SWAP1 POP JUMP JUMPDEST PUSH1 0x0 PUSH1 0x20 DUP3 ADD SWAP1 POP DUP2 DUP2 SUB PUSH1 0x0 DUP4 ADD MSTORE PUSH2 0x21E0 DUP2 PUSH2 0x21A4 JUMP JUMPDEST SWAP1 POP SWAP2 SWAP1 POP JUMP JUMPDEST PUSH32 0x4F776E61626C653A2063616C6C6572206973206E6F7420746865206F776E6572 PUSH1 0x0 DUP3 ADD MSTORE POP JUMP JUMPDEST PUSH1 0x0 PUSH2 0x221D PUSH1 0x20 DUP4 PUSH2 0x17F9 JUMP JUMPDEST SWAP2 POP PUSH2 0x2228 DUP3 PUSH2 0x21E7 JUMP JUMPDEST PUSH1 0x20 DUP3 ADD SWAP1 POP SWAP2 SWAP1 POP JUMP JUMPDEST PUSH1 0x0 PUSH1 0x20 DUP3 ADD SWAP1 POP DUP2 DUP2 SUB PUSH1 0x0 DUP4 ADD MSTORE PUSH2 0x224C DUP2 PUSH2 0x2210 JUMP JUMPDEST SWAP1 POP SWAP2 SWAP1 POP JUMP JUMPDEST PUSH32 0x4552433732313A20617070726F766520746F2063616C6C657200000000000000 PUSH1 0x0 DUP3 ADD MSTORE POP JUMP JUMPDEST PUSH1 0x0 PUSH2 0x2289 PUSH1 0x19 DUP4 PUSH2 0x17F9 JUMP JUMPDEST SWAP2 POP PUSH2 0x2294 DUP3 PUSH2 0x2253 JUMP JUMPDEST PUSH1 0x20 DUP3 ADD SWAP1 POP SWAP2 SWAP1 POP JUMP JUMPDEST PUSH1 0x0 PUSH1 0x20 DUP3 ADD SWAP1 POP DUP2 DUP2 SUB PUSH1 0x0 DUP4 ADD MSTORE PUSH2 0x22B8 DUP2 PUSH2 0x227C JUMP JUMPDEST SWAP1 POP SWAP2 SWAP1 POP JUMP JUMPDEST PUSH32 0x4552433732313A207472616E7366657220746F206E6F6E204552433732315265 PUSH1 0x0 DUP3 ADD MSTORE PUSH32 0x63656976657220696D706C656D656E7465720000000000000000000000000000 PUSH1 0x20 DUP3 ADD MSTORE POP JUMP JUMPDEST PUSH1 0x0 PUSH2 0x231B PUSH1 0x32 DUP4 PUSH2 0x17F9 JUMP JUMPDEST SWAP2 POP PUSH2 0x2326 DUP3 PUSH2 0x22BF JUMP JUMPDEST PUSH1 0x40 DUP3 ADD SWAP1 POP SWAP2 SWAP1 POP JUMP JUMPDEST PUSH1 0x0 PUSH1 0x20 DUP3 ADD SWAP1 POP DUP2 DUP2 SUB PUSH1 0x0 DUP4 ADD MSTORE PUSH2 0x234A DUP2 PUSH2 0x230E JUMP JUMPDEST SWAP1 POP SWAP2 SWAP1 POP JUMP JUMPDEST PUSH32 0x4E487B7100000000000000000000000000000000000000000000000000000000 PUSH1 0x0 MSTORE PUSH1 0x12 PUSH1 0x4 MSTORE PUSH1 0x24 PUSH1 0x0 REVERT JUMPDEST PUSH1 0x0 DUP2 MLOAD SWAP1 POP SWAP2 SWAP1 POP JUMP JUMPDEST PUSH1 0x0 DUP3 DUP3 MSTORE PUSH1 0x20 DUP3 ADD SWAP1 POP SWAP3 SWAP2 POP POP JUMP JUMPDEST PUSH1 0x0 PUSH2 0x23A7 DUP3 PUSH2 0x2380 JUMP JUMPDEST PUSH2 0x23B1 DUP2 DUP6 PUSH2 0x238B JUMP JUMPDEST SWAP4 POP PUSH2 0x23C1 DUP2 DUP6 PUSH1 0x20 DUP7 ADD PUSH2 0x180A JUMP JUMPDEST PUSH2 0x23CA DUP2 PUSH2 0x183D JUMP JUMPDEST DUP5 ADD SWAP2 POP POP SWAP3 SWAP2 POP POP JUMP JUMPDEST PUSH1 0x0 PUSH1 0x80 DUP3 ADD SWAP1 POP PUSH2 0x23EA PUSH1 0x0 DUP4 ADD DUP8 PUSH2 0x193E JUMP JUMPDEST PUSH2 0x23F7 PUSH1 0x20 DUP4 ADD DUP7 PUSH2 0x193E JUMP JUMPDEST PUSH2 0x2404 PUSH1 0x40 DUP4 ADD DUP6 PUSH2 0x1A54 JUMP JUMPDEST DUP2 DUP2 SUB PUSH1 0x60 DUP4 ADD MSTORE PUSH2 0x2416 DUP2 DUP5 PUSH2 0x239C JUMP JUMPDEST SWAP1 POP SWAP6 SWAP5 POP POP POP POP POP JUMP JUMPDEST PUSH1 0x0 DUP2 MLOAD SWAP1 POP PUSH2 0x2430 DUP2 PUSH2 0x175F JUMP JUMPDEST SWAP3 SWAP2 POP POP JUMP JUMPDEST PUSH1 0x0 PUSH1 0x20 DUP3 DUP5 SUB SLT ISZERO PUSH2 0x244C JUMPI PUSH2 0x244B PUSH2 0x1729 JUMP JUMPDEST JUMPDEST PUSH1 0x0 PUSH2 0x245A DUP5 DUP3 DUP6 ADD PUSH2 0x2421 JUMP JUMPDEST SWAP2 POP POP SWAP3 SWAP2 POP POP JUMP INVALID LOG2 PUSH5 0x6970667358 0x22 SLT KECCAK256 CREATE DUP7 0xB1 0xDE NUMBER SWAP8 0xBF STOP 0xEB PUSH7 0x48755A030C368B POP 0xAB SWAP12 0x2A 0xC5 TIMESTAMP SHL PUSH6 0xE56BB20CE0F5 PUSH30 0x64736F6C6343000809003300000000000000000000000000000000000000 "
				},
				"gasEstimates": {
					"creation": {
						"codeDepositCost": "1873800",
						"executionCost": "infinite",
						"totalCost": "infinite"
					},
					"external": {
						"approve(address,uint256)": "infinite",
						"balanceOf(address)": "2968",
						"getApproved(uint256)": "5300",
						"isApprovedForAll(address,address)": "infinite",
						"name()": "infinite",
						"owner()": "2567",
						"ownerOf(uint256)": "3069",
						"renounceOwnership()": "30421",
						"safeTransferFrom(address,address,uint256)": "infinite",
						"safeTransferFrom(address,address,uint256,bytes)": "infinite",
						"setApprovalForAll(address,bool)": "infinite",
						"supportsInterface(bytes4)": "797",
						"symbol()": "infinite",
						"tokenURI(uint256)": "3445",
						"transferFrom(address,address,uint256)": "infinite",
						"transferOwnership(address)": "30835"
					},
					"internal": {
						"__unsafe_increaseBalance(address,uint256)": "infinite",
						"_afterTokenTransfer(address,address,uint256,uint256)": "17",
						"_approve(address,uint256)": "infinite",
						"_baseURI()": "infinite",
						"_beforeTokenTransfer(address,address,uint256,uint256)": "17",
						"_burn(uint256)": "infinite",
						"_checkOnERC721Received(address,address,uint256,bytes memory)": "infinite",
						"_exists(uint256)": "2312",
						"_isApprovedOrOwner(address,uint256)": "infinite",
						"_mint(address,uint256)": "infinite",
						"_ownerOf(uint256)": "2248",
						"_requireMinted(uint256)": "infinite",
						"_safeMint(address,uint256)": "infinite",
						"_safeMint(address,uint256,bytes memory)": "infinite",
						"_safeTransfer(address,address,uint256,bytes memory)": "infinite",
						"_setApprovalForAll(address,address,bool)": "infinite",
						"_transfer(address,address,uint256)": "infinite"
					}
				},
				"methodIdentifiers": {
					"approve(address,uint256)": "095ea7b3",
					"balanceOf(address)": "70a08231",
					"getApproved(uint256)": "081812fc",
					"isApprovedForAll(address,address)": "e985e9c5",
					"name()": "06fdde03",
					"owner()": "8da5cb5b",
					"ownerOf(uint256)": "6352211e",
					"renounceOwnership()": "715018a6",
					"safeTransferFrom(address,address,uint256)": "42842e0e",
					"safeTransferFrom(address,address,uint256,bytes)": "b88d4fde",
					"setApprovalForAll(address,bool)": "a22cb465",
					"supportsInterface(bytes4)": "01ffc9a7",
					"symbol()": "95d89b41",
					"tokenURI(uint256)": "c87b56dd",
					"transferFrom(address,address,uint256)": "23b872dd",
					"transferOwnership(address)": "f2fde38b"
				}
			},
			"storageLayout": {
				"storage": [
					{
						"astId": 61,
						"contract": "contracts/TimeERC721.sol:TimeERC721",
						"label": "_owner",
						"offset": 0,
						"slot": "0",
						"type": "t_address"
					},
					{
						"astId": 194,
						"contract": "contracts/TimeERC721.sol:TimeERC721",
						"label": "_name",
						"offset": 0,
						"slot": "1",
						"type": "t_string_storage"
					},
					{
						"astId": 196,
						"contract": "contracts/TimeERC721.sol:TimeERC721",
						"label": "_symbol",
						"offset": 0,
						"slot": "2",
						"type": "t_string_storage"
					},
					{
						"astId": 200,
						"contract": "contracts/TimeERC721.sol:TimeERC721",
						"label": "_owners",
						"offset": 0,
						"slot": "3",
						"type": "t_mapping(t_uint256,t_address)"
					},
					{
						"astId": 204,
						"contract": "contracts/TimeERC721.sol:TimeERC721",
						"label": "_balances",
						"offset": 0,
						"slot": "4",
						"type": "t_mapping(t_address,t_uint256)"
					},
					{
						"astId": 208,
						"contract": "contracts/TimeERC721.sol:TimeERC721",
						"label": "_tokenApprovals",
						"offset": 0,
						"slot": "5",
						"type": "t_mapping(t_uint256,t_address)"
					},
					{
						"astId": 214,
						"contract": "contracts/TimeERC721.sol:TimeERC721",
						"label": "_operatorApprovals",
						"offset": 0,
						"slot": "6",
						"type": "t_mapping(t_address,t_mapping(t_address,t_bool))"
					}
				],
				"types": {
					"t_address": {
						"encoding": "inplace",
						"label": "address",
						"numberOfBytes": "20"
					},
					"t_bool": {
						"encoding": "inplace",
						"label": "bool",
						"numberOfBytes": "1"
					},
					"t_mapping(t_address,t_bool)": {
						"encoding": "mapping",
						"key": "t_address",
						"label": "mapping(address => bool)",
						"numberOfBytes": "32",
						"value": "t_bool"
					},
					"t_mapping(t_address,t_mapping(t_address,t_bool))": {
						"encoding": "mapping",
						"key": "t_address",
						"label": "mapping(address => mapping(address => bool))",
						"numberOfBytes": "32",
						"value": "t_mapping(t_address,t_bool)"
					},
					"t_mapping(t_address,t_uint256)": {
						"encoding": "mapping",
						"key": "t_address",
						"label": "mapping(address => uint256)",
						"numberOfBytes": "32",
						"value": "t_uint256"
					},
					"t_mapping(t_uint256,t_address)": {
						"encoding": "mapping",
						"key": "t_uint256",
						"label": "mapping(uint256 => address)",
						"numberOfBytes": "32",
						"value": "t_address"
					},
					"t_string_storage": {
						"encoding": "bytes",
						"label": "string",
						"numberOfBytes": "32"
					},
					"t_uint256": {
						"encoding": "inplace",
						"label": "uint256",
						"numberOfBytes": "32"
					}
				}
			},
			"userdoc": {
				"kind": "user",
				"methods": {},
				"version": 1
			}
		}
	}
}