{
	"contracts/TimeMiddle.sol": {
		"TimeMiddle": {
			"abi": [
				{
					"inputs": [],
					"stateMutability": "nonpayable",
					"type": "constructor"
				},
				{
					"inputs": [
						{
							"internalType": "address",
							"name": "newSupervisor",
							"type": "address"
						}
					],
					"name": "addSuperVisor",
					"outputs": [],
					"stateMutability": "nonpayable",
					"type": "function"
				},
				{
					"inputs": [
						{
							"internalType": "uint128",
							"name": "_disputeId",
							"type": "uint128"
						}
					],
					"name": "checkDispute",
					"outputs": [],
					"stateMutability": "nonpayable",
					"type": "function"
				},
				{
					"inputs": [
						{
							"internalType": "address",
							"name": "userAddress",
							"type": "address"
						}
					],
					"name": "checkIfSupervisor",
					"outputs": [
						{
							"internalType": "bool",
							"name": "userState",
							"type": "bool"
						}
					],
					"stateMutability": "view",
					"type": "function"
				},
				{
					"inputs": [
						{
							"internalType": "address",
							"name": "_airdropContract",
							"type": "address"
						},
						{
							"internalType": "string",
							"name": "_disputeThing",
							"type": "string"
						},
						{
							"internalType": "uint128",
							"name": "_disputeId",
							"type": "uint128"
						}
					],
					"name": "createDispute",
					"outputs": [],
					"stateMutability": "nonpayable",
					"type": "function"
				},
				{
					"inputs": [],
					"name": "getAllSupervisor",
					"outputs": [
						{
							"internalType": "address[]",
							"name": "",
							"type": "address[]"
						}
					],
					"stateMutability": "view",
					"type": "function"
				},
				{
					"inputs": [
						{
							"internalType": "address",
							"name": "_airdropContract",
							"type": "address"
						}
					],
					"name": "getClearId",
					"outputs": [
						{
							"internalType": "uint256",
							"name": "",
							"type": "uint256"
						}
					],
					"stateMutability": "view",
					"type": "function"
				},
				{
					"inputs": [
						{
							"internalType": "uint256",
							"name": "_number",
							"type": "uint256"
						},
						{
							"internalType": "address",
							"name": "_airdropContract",
							"type": "address"
						}
					],
					"name": "getClearTime",
					"outputs": [
						{
							"internalType": "uint256",
							"name": "",
							"type": "uint256"
						}
					],
					"stateMutability": "view",
					"type": "function"
				},
				{
					"inputs": [],
					"name": "getFutureTokenAddress",
					"outputs": [
						{
							"internalType": "address",
							"name": "",
							"type": "address"
						}
					],
					"stateMutability": "view",
					"type": "function"
				},
				{
					"inputs": [],
					"name": "getLastNumber",
					"outputs": [
						{
							"internalType": "uint256",
							"name": "",
							"type": "uint256"
						}
					],
					"stateMutability": "view",
					"type": "function"
				},
				{
					"inputs": [
						{
							"internalType": "uint256",
							"name": "_disputeId",
							"type": "uint256"
						}
					],
					"name": "ifPass",
					"outputs": [
						{
							"internalType": "bool",
							"name": "",
							"type": "bool"
						}
					],
					"stateMutability": "view",
					"type": "function"
				},
				{
					"inputs": [
						{
							"internalType": "address",
							"name": "newSupervisor",
							"type": "address"
						}
					],
					"name": "removeSuperVisor",
					"outputs": [],
					"stateMutability": "nonpayable",
					"type": "function"
				},
				{
					"inputs": [
						{
							"internalType": "uint256",
							"name": "_clearTime",
							"type": "uint256"
						},
						{
							"internalType": "address",
							"name": "airdropContract",
							"type": "address"
						},
						{
							"internalType": "address",
							"name": "_futureToken",
							"type": "address"
						}
					],
					"name": "setCleanTime",
					"outputs": [],
					"stateMutability": "nonpayable",
					"type": "function"
				}
			],
			"devdoc": {
				"kind": "dev",
				"methods": {},
				"version": 1
			},
			"evm": {
				"assembly": "    /* \"contracts/TimeMiddle.sol\":58:4458  contract TimeMiddle {... */\n  mstore(0x40, 0x80)\n    /* \"contracts/TimeMiddle.sol\":241:289  constructor(){... */\n  callvalue\n  dup1\n  iszero\n  tag_1\n  jumpi\n  0x00\n  dup1\n  revert\ntag_1:\n  pop\n    /* \"contracts/TimeMiddle.sol\":271:281  msg.sender */\n  caller\n    /* \"contracts/TimeMiddle.sol\":265:270  owner */\n  0x03\n  0x00\n    /* \"contracts/TimeMiddle.sol\":265:281  owner=msg.sender */\n  0x0100\n  exp\n  dup2\n  sload\n  dup2\n  0xffffffffffffffffffffffffffffffffffffffff\n  mul\n  not\n  and\n  swap1\n  dup4\n  0xffffffffffffffffffffffffffffffffffffffff\n  and\n  mul\n  or\n  swap1\n  sstore\n  pop\n    /* \"contracts/TimeMiddle.sol\":58:4458  contract TimeMiddle {... */\n  dataSize(sub_0)\n  dup1\n  dataOffset(sub_0)\n  0x00\n  codecopy\n  0x00\n  return\nstop\n\nsub_0: assembly {\n        /* \"contracts/TimeMiddle.sol\":58:4458  contract TimeMiddle {... */\n      mstore(0x40, 0x80)\n      callvalue\n      dup1\n      iszero\n      tag_1\n      jumpi\n      0x00\n      dup1\n      revert\n    tag_1:\n      pop\n      jumpi(tag_2, lt(calldatasize, 0x04))\n      shr(0xe0, calldataload(0x00))\n      dup1\n      0x5974b4d5\n      gt\n      tag_15\n      jumpi\n      dup1\n      0x5974b4d5\n      eq\n      tag_9\n      jumpi\n      dup1\n      0x66bba4f5\n      eq\n      tag_10\n      jumpi\n      dup1\n      0x682c0fc1\n      eq\n      tag_11\n      jumpi\n      dup1\n      0xa72124b7\n      eq\n      tag_12\n      jumpi\n      dup1\n      0xd7867905\n      eq\n      tag_13\n      jumpi\n      dup1\n      0xe64aa3e8\n      eq\n      tag_14\n      jumpi\n      jump(tag_2)\n    tag_15:\n      dup1\n      0x1049dc34\n      eq\n      tag_3\n      jumpi\n      dup1\n      0x158f2cae\n      eq\n      tag_4\n      jumpi\n      dup1\n      0x1df058f5\n      eq\n      tag_5\n      jumpi\n      dup1\n      0x479c32ec\n      eq\n      tag_6\n      jumpi\n      dup1\n      0x4b6ab77b\n      eq\n      tag_7\n      jumpi\n      dup1\n      0x51dcf3cb\n      eq\n      tag_8\n      jumpi\n    tag_2:\n      0x00\n      dup1\n      revert\n        /* \"contracts/TimeMiddle.sol\":1558:1761  function addSuperVisor(address newSupervisor)external onlyOwner{... */\n    tag_3:\n      tag_16\n      0x04\n      dup1\n      calldatasize\n      sub\n      dup2\n      add\n      swap1\n      tag_17\n      swap2\n      swap1\n      tag_18\n      jump\t// in\n    tag_17:\n      tag_19\n      jump\t// in\n    tag_16:\n      stop\n        /* \"contracts/TimeMiddle.sol\":3092:3310  function ifPass(uint256 _disputeId)public view returns(bool){... */\n    tag_4:\n      tag_20\n      0x04\n      dup1\n      calldatasize\n      sub\n      dup2\n      add\n      swap1\n      tag_21\n      swap2\n      swap1\n      tag_22\n      jump\t// in\n    tag_21:\n      tag_23\n      jump\t// in\n    tag_20:\n      mload(0x40)\n      tag_24\n      swap2\n      swap1\n      tag_25\n      jump\t// in\n    tag_24:\n      mload(0x40)\n      dup1\n      swap2\n      sub\n      swap1\n      return\n        /* \"contracts/TimeMiddle.sol\":2552:3001  function checkDispute(uint128 _disputeId)external{... */\n    tag_5:\n      tag_26\n      0x04\n      dup1\n      calldatasize\n      sub\n      dup2\n      add\n      swap1\n      tag_27\n      swap2\n      swap1\n      tag_28\n      jump\t// in\n    tag_27:\n      tag_29\n      jump\t// in\n    tag_26:\n      stop\n        /* \"contracts/TimeMiddle.sol\":4344:4451  function getAllSupervisor()external view returns(address[] memory){... */\n    tag_6:\n      tag_30\n      tag_31\n      jump\t// in\n    tag_30:\n      mload(0x40)\n      tag_32\n      swap2\n      swap1\n      tag_33\n      jump\t// in\n    tag_32:\n      mload(0x40)\n      dup1\n      swap2\n      sub\n      swap1\n      return\n        /* \"contracts/TimeMiddle.sol\":4036:4172  function getClearId(address _airdropContract)external view returns(uint256){... */\n    tag_7:\n      tag_34\n      0x04\n      dup1\n      calldatasize\n      sub\n      dup2\n      add\n      swap1\n      tag_35\n      swap2\n      swap1\n      tag_18\n      jump\t// in\n    tag_35:\n      tag_36\n      jump\t// in\n    tag_34:\n      mload(0x40)\n      tag_37\n      swap2\n      swap1\n      tag_38\n      jump\t// in\n    tag_37:\n      mload(0x40)\n      dup1\n      swap2\n      sub\n      swap1\n      return\n        /* \"contracts/TimeMiddle.sol\":2164:2518  function createDispute(address _airdropContract,string calldata _disputeThing,uint128 _disputeId)external{... */\n    tag_8:\n      tag_39\n      0x04\n      dup1\n      calldatasize\n      sub\n      dup2\n      add\n      swap1\n      tag_40\n      swap2\n      swap1\n      tag_41\n      jump\t// in\n    tag_40:\n      tag_42\n      jump\t// in\n    tag_39:\n      stop\n        /* \"contracts/TimeMiddle.sol\":1132:1527  function setCleanTime(uint256 _clearTime, address airdropContract, address _futureToken)external onlyOwner{... */\n    tag_9:\n      tag_43\n      0x04\n      dup1\n      calldatasize\n      sub\n      dup2\n      add\n      swap1\n      tag_44\n      swap2\n      swap1\n      tag_45\n      jump\t// in\n    tag_44:\n      tag_46\n      jump\t// in\n    tag_43:\n      stop\n        /* \"contracts/TimeMiddle.sol\":3488:3737  function checkIfSupervisor(address userAddress)public view returns(bool userState){... */\n    tag_10:\n      tag_47\n      0x04\n      dup1\n      calldatasize\n      sub\n      dup2\n      add\n      swap1\n      tag_48\n      swap2\n      swap1\n      tag_18\n      jump\t// in\n    tag_48:\n      tag_49\n      jump\t// in\n    tag_47:\n      mload(0x40)\n      tag_50\n      swap2\n      swap1\n      tag_25\n      jump\t// in\n    tag_50:\n      mload(0x40)\n      dup1\n      swap2\n      sub\n      swap1\n      return\n        /* \"contracts/TimeMiddle.sol\":4221:4307  function getLastNumber()external view returns(uint256){... */\n    tag_11:\n      tag_51\n      tag_52\n      jump\t// in\n    tag_51:\n      mload(0x40)\n      tag_53\n      swap2\n      swap1\n      tag_38\n      jump\t// in\n    tag_53:\n      mload(0x40)\n      dup1\n      swap2\n      sub\n      swap1\n      return\n        /* \"contracts/TimeMiddle.sol\":3349:3448  function getFutureTokenAddress()external view returns(address){... */\n    tag_12:\n      tag_54\n      tag_55\n      jump\t// in\n    tag_54:\n      mload(0x40)\n      tag_56\n      swap2\n      swap1\n      tag_57\n      jump\t// in\n    tag_56:\n      mload(0x40)\n      dup1\n      swap2\n      sub\n      swap1\n      return\n        /* \"contracts/TimeMiddle.sol\":3777:4006  function getClearTime(uint256 _number,address _airdropContract)external view returns(uint256){... */\n    tag_13:\n      tag_58\n      0x04\n      dup1\n      calldatasize\n      sub\n      dup2\n      add\n      swap1\n      tag_59\n      swap2\n      swap1\n      tag_60\n      jump\t// in\n    tag_59:\n      tag_61\n      jump\t// in\n    tag_58:\n      mload(0x40)\n      tag_62\n      swap2\n      swap1\n      tag_38\n      jump\t// in\n    tag_62:\n      mload(0x40)\n      dup1\n      swap2\n      sub\n      swap1\n      return\n        /* \"contracts/TimeMiddle.sol\":1792:2121  function removeSuperVisor(address newSupervisor)external onlyOwner{... */\n    tag_14:\n      tag_63\n      0x04\n      dup1\n      calldatasize\n      sub\n      dup2\n      add\n      swap1\n      tag_64\n      swap2\n      swap1\n      tag_18\n      jump\t// in\n    tag_64:\n      tag_65\n      jump\t// in\n    tag_63:\n      stop\n        /* \"contracts/TimeMiddle.sol\":1558:1761  function addSuperVisor(address newSupervisor)external onlyOwner{... */\n    tag_19:\n        /* \"contracts/TimeMiddle.sol\":1022:1027  owner */\n      0x03\n      0x00\n      swap1\n      sload\n      swap1\n      0x0100\n      exp\n      swap1\n      div\n      0xffffffffffffffffffffffffffffffffffffffff\n      and\n        /* \"contracts/TimeMiddle.sol\":1010:1027  msg.sender==owner */\n      0xffffffffffffffffffffffffffffffffffffffff\n      and\n        /* \"contracts/TimeMiddle.sol\":1010:1020  msg.sender */\n      caller\n        /* \"contracts/TimeMiddle.sol\":1010:1027  msg.sender==owner */\n      0xffffffffffffffffffffffffffffffffffffffff\n      and\n      eq\n        /* \"contracts/TimeMiddle.sol\":1002:1042  require(msg.sender==owner,\"Owner error\") */\n      tag_67\n      jumpi\n      mload(0x40)\n      0x08c379a000000000000000000000000000000000000000000000000000000000\n      dup2\n      mstore\n      0x04\n      add\n      tag_68\n      swap1\n      tag_69\n      jump\t// in\n    tag_68:\n      mload(0x40)\n      dup1\n      swap2\n      sub\n      swap1\n      revert\n    tag_67:\n        /* \"contracts/TimeMiddle.sol\":1674:1678  true */\n      0x01\n        /* \"contracts/TimeMiddle.sol\":1640:1678  checkIfSupervisor(newSupervisor)!=true */\n      iszero\n      iszero\n        /* \"contracts/TimeMiddle.sol\":1640:1672  checkIfSupervisor(newSupervisor) */\n      tag_71\n        /* \"contracts/TimeMiddle.sol\":1658:1671  newSupervisor */\n      dup3\n        /* \"contracts/TimeMiddle.sol\":1640:1657  checkIfSupervisor */\n      tag_49\n        /* \"contracts/TimeMiddle.sol\":1640:1672  checkIfSupervisor(newSupervisor) */\n      jump\t// in\n    tag_71:\n        /* \"contracts/TimeMiddle.sol\":1640:1678  checkIfSupervisor(newSupervisor)!=true */\n      iszero\n      iszero\n      eq\n      iszero\n        /* \"contracts/TimeMiddle.sol\":1632:1679  require(checkIfSupervisor(newSupervisor)!=true) */\n      tag_72\n      jumpi\n      0x00\n      dup1\n      revert\n    tag_72:\n        /* \"contracts/TimeMiddle.sol\":1718:1733  supervisorGroup */\n      0x02\n        /* \"contracts/TimeMiddle.sol\":1739:1752  newSupervisor */\n      dup2\n        /* \"contracts/TimeMiddle.sol\":1718:1753  supervisorGroup.push(newSupervisor) */\n      swap1\n      dup1\n      0x01\n      dup2\n      sload\n      add\n      dup1\n      dup3\n      sstore\n      dup1\n      swap2\n      pop\n      pop\n      0x01\n      swap1\n      sub\n      swap1\n      0x00\n      mstore\n      keccak256(0x00, 0x20)\n      add\n      0x00\n      swap1\n      swap2\n      swap1\n      swap2\n      swap1\n      swap2\n      0x0100\n      exp\n      dup2\n      sload\n      dup2\n      0xffffffffffffffffffffffffffffffffffffffff\n      mul\n      not\n      and\n      swap1\n      dup4\n      0xffffffffffffffffffffffffffffffffffffffff\n      and\n      mul\n      or\n      swap1\n      sstore\n      pop\n        /* \"contracts/TimeMiddle.sol\":1558:1761  function addSuperVisor(address newSupervisor)external onlyOwner{... */\n      pop\n      jump\t// out\n        /* \"contracts/TimeMiddle.sol\":3092:3310  function ifPass(uint256 _disputeId)public view returns(bool){... */\n    tag_23:\n        /* \"contracts/TimeMiddle.sol\":3147:3151  bool */\n      0x00\n        /* \"contracts/TimeMiddle.sol\":3219:3220  1 */\n      0x01\n        /* \"contracts/TimeMiddle.sol\":3217:3218  2 */\n      0x02\n        /* \"contracts/TimeMiddle.sol\":3194:3209  supervisorGroup */\n      dup1\n        /* \"contracts/TimeMiddle.sol\":3194:3216  supervisorGroup.length */\n      dup1\n      sload\n      swap1\n      pop\n        /* \"contracts/TimeMiddle.sol\":3194:3218  supervisorGroup.length/2 */\n      tag_75\n      swap2\n      swap1\n      tag_76\n      jump\t// in\n    tag_75:\n        /* \"contracts/TimeMiddle.sol\":3194:3220  supervisorGroup.length/2+1 */\n      tag_77\n      swap2\n      swap1\n      tag_78\n      jump\t// in\n    tag_77:\n        /* \"contracts/TimeMiddle.sol\":3166:3179  disputeIfPass */\n      0x05\n        /* \"contracts/TimeMiddle.sol\":3166:3191  disputeIfPass[_disputeId] */\n      0x00\n        /* \"contracts/TimeMiddle.sol\":3180:3190  _disputeId */\n      dup5\n        /* \"contracts/TimeMiddle.sol\":3166:3191  disputeIfPass[_disputeId] */\n      dup2\n      mstore\n      0x20\n      add\n      swap1\n      dup2\n      mstore\n      0x20\n      add\n      0x00\n      keccak256\n      sload\n        /* \"contracts/TimeMiddle.sol\":3166:3221  disputeIfPass[_disputeId]>=(supervisorGroup.length/2+1) */\n      lt\n        /* \"contracts/TimeMiddle.sol\":3163:3303  if(disputeIfPass[_disputeId]>=(supervisorGroup.length/2+1)){... */\n      tag_79\n      jumpi\n        /* \"contracts/TimeMiddle.sol\":3244:3248  true */\n      0x01\n        /* \"contracts/TimeMiddle.sol\":3237:3248  return true */\n      swap1\n      pop\n      jump(tag_74)\n        /* \"contracts/TimeMiddle.sol\":3163:3303  if(disputeIfPass[_disputeId]>=(supervisorGroup.length/2+1)){... */\n    tag_79:\n        /* \"contracts/TimeMiddle.sol\":3286:3291  false */\n      0x00\n        /* \"contracts/TimeMiddle.sol\":3279:3291  return false */\n      swap1\n      pop\n        /* \"contracts/TimeMiddle.sol\":3092:3310  function ifPass(uint256 _disputeId)public view returns(bool){... */\n    tag_74:\n      swap2\n      swap1\n      pop\n      jump\t// out\n        /* \"contracts/TimeMiddle.sol\":2552:3001  function checkDispute(uint128 _disputeId)external{... */\n    tag_29:\n        /* \"contracts/TimeMiddle.sol\":2661:2666  false */\n      0x00\n        /* \"contracts/TimeMiddle.sol\":2620:2666  ifVoteDispute[msg.sender][_disputeId] == false */\n      iszero\n      iszero\n        /* \"contracts/TimeMiddle.sol\":2620:2633  ifVoteDispute */\n      0x06\n        /* \"contracts/TimeMiddle.sol\":2620:2645  ifVoteDispute[msg.sender] */\n      0x00\n        /* \"contracts/TimeMiddle.sol\":2634:2644  msg.sender */\n      caller\n        /* \"contracts/TimeMiddle.sol\":2620:2645  ifVoteDispute[msg.sender] */\n      0xffffffffffffffffffffffffffffffffffffffff\n      and\n      0xffffffffffffffffffffffffffffffffffffffff\n      and\n      dup2\n      mstore\n      0x20\n      add\n      swap1\n      dup2\n      mstore\n      0x20\n      add\n      0x00\n      keccak256\n        /* \"contracts/TimeMiddle.sol\":2620:2657  ifVoteDispute[msg.sender][_disputeId] */\n      0x00\n        /* \"contracts/TimeMiddle.sol\":2646:2656  _disputeId */\n      dup4\n        /* \"contracts/TimeMiddle.sol\":2620:2657  ifVoteDispute[msg.sender][_disputeId] */\n      0xffffffffffffffffffffffffffffffff\n      and\n      dup2\n      mstore\n      0x20\n      add\n      swap1\n      dup2\n      mstore\n      0x20\n      add\n      0x00\n      keccak256\n      0x00\n      swap1\n      sload\n      swap1\n      0x0100\n      exp\n      swap1\n      div\n      0xff\n      and\n        /* \"contracts/TimeMiddle.sol\":2620:2666  ifVoteDispute[msg.sender][_disputeId] == false */\n      iszero\n      iszero\n      eq\n        /* \"contracts/TimeMiddle.sol\":2612:2682  require(ifVoteDispute[msg.sender][_disputeId] == false,\"Already vote\") */\n      tag_82\n      jumpi\n      mload(0x40)\n      0x08c379a000000000000000000000000000000000000000000000000000000000\n      dup2\n      mstore\n      0x04\n      add\n      tag_83\n      swap1\n      tag_84\n      jump\t// in\n    tag_83:\n      mload(0x40)\n      dup1\n      swap2\n      sub\n      swap1\n      revert\n    tag_82:\n        /* \"contracts/TimeMiddle.sol\":2740:2769  checkIfSupervisor(msg.sender) */\n      tag_85\n        /* \"contracts/TimeMiddle.sol\":2758:2768  msg.sender */\n      caller\n        /* \"contracts/TimeMiddle.sol\":2740:2757  checkIfSupervisor */\n      tag_49\n        /* \"contracts/TimeMiddle.sol\":2740:2769  checkIfSupervisor(msg.sender) */\n      jump\t// in\n    tag_85:\n        /* \"contracts/TimeMiddle.sol\":2732:2787  require(checkIfSupervisor(msg.sender),\"Not supervisor\") */\n      tag_86\n      jumpi\n      mload(0x40)\n      0x08c379a000000000000000000000000000000000000000000000000000000000\n      dup2\n      mstore\n      0x04\n      add\n      tag_87\n      swap1\n      tag_88\n      jump\t// in\n    tag_87:\n      mload(0x40)\n      dup1\n      swap2\n      sub\n      swap1\n      revert\n    tag_86:\n        /* \"contracts/TimeMiddle.sol\":2845:2850  false */\n      0x00\n        /* \"contracts/TimeMiddle.sol\":2825:2850  ifPass(_disputeId)==false */\n      iszero\n      iszero\n        /* \"contracts/TimeMiddle.sol\":2825:2843  ifPass(_disputeId) */\n      tag_89\n        /* \"contracts/TimeMiddle.sol\":2832:2842  _disputeId */\n      dup3\n        /* \"contracts/TimeMiddle.sol\":2825:2843  ifPass(_disputeId) */\n      0xffffffffffffffffffffffffffffffff\n      and\n        /* \"contracts/TimeMiddle.sol\":2825:2831  ifPass */\n      tag_23\n        /* \"contracts/TimeMiddle.sol\":2825:2843  ifPass(_disputeId) */\n      jump\t// in\n    tag_89:\n        /* \"contracts/TimeMiddle.sol\":2825:2850  ifPass(_disputeId)==false */\n      iszero\n      iszero\n      eq\n        /* \"contracts/TimeMiddle.sol\":2817:2858  require(ifPass(_disputeId)==false,\"Pass\") */\n      tag_90\n      jumpi\n      mload(0x40)\n      0x08c379a000000000000000000000000000000000000000000000000000000000\n      dup2\n      mstore\n      0x04\n      add\n      tag_91\n      swap1\n      tag_92\n      jump\t// in\n    tag_91:\n      mload(0x40)\n      dup1\n      swap2\n      sub\n      swap1\n      revert\n    tag_90:\n        /* \"contracts/TimeMiddle.sol\":2913:2926  disputeIfPass */\n      0x05\n        /* \"contracts/TimeMiddle.sol\":2913:2938  disputeIfPass[_disputeId] */\n      0x00\n        /* \"contracts/TimeMiddle.sol\":2927:2937  _disputeId */\n      dup3\n        /* \"contracts/TimeMiddle.sol\":2913:2938  disputeIfPass[_disputeId] */\n      0xffffffffffffffffffffffffffffffff\n      and\n      dup2\n      mstore\n      0x20\n      add\n      swap1\n      dup2\n      mstore\n      0x20\n      add\n      0x00\n      keccak256\n      0x00\n        /* \"contracts/TimeMiddle.sol\":2913:2940  disputeIfPass[_disputeId]++ */\n      dup2\n      sload\n      dup1\n      swap3\n      swap2\n      swap1\n      tag_93\n      swap1\n      tag_94\n      jump\t// in\n    tag_93:\n      swap2\n      swap1\n      pop\n      sstore\n      pop\n        /* \"contracts/TimeMiddle.sol\":2989:2993  true */\n      0x01\n        /* \"contracts/TimeMiddle.sol\":2951:2964  ifVoteDispute */\n      0x06\n        /* \"contracts/TimeMiddle.sol\":2951:2976  ifVoteDispute[msg.sender] */\n      0x00\n        /* \"contracts/TimeMiddle.sol\":2965:2975  msg.sender */\n      caller\n        /* \"contracts/TimeMiddle.sol\":2951:2976  ifVoteDispute[msg.sender] */\n      0xffffffffffffffffffffffffffffffffffffffff\n      and\n      0xffffffffffffffffffffffffffffffffffffffff\n      and\n      dup2\n      mstore\n      0x20\n      add\n      swap1\n      dup2\n      mstore\n      0x20\n      add\n      0x00\n      keccak256\n        /* \"contracts/TimeMiddle.sol\":2951:2988  ifVoteDispute[msg.sender][_disputeId] */\n      0x00\n        /* \"contracts/TimeMiddle.sol\":2977:2987  _disputeId */\n      dup4\n        /* \"contracts/TimeMiddle.sol\":2951:2988  ifVoteDispute[msg.sender][_disputeId] */\n      0xffffffffffffffffffffffffffffffff\n      and\n      dup2\n      mstore\n      0x20\n      add\n      swap1\n      dup2\n      mstore\n      0x20\n      add\n      0x00\n      keccak256\n      0x00\n        /* \"contracts/TimeMiddle.sol\":2951:2993  ifVoteDispute[msg.sender][_disputeId]=true */\n      0x0100\n      exp\n      dup2\n      sload\n      dup2\n      0xff\n      mul\n      not\n      and\n      swap1\n      dup4\n      iszero\n      iszero\n      mul\n      or\n      swap1\n      sstore\n      pop\n        /* \"contracts/TimeMiddle.sol\":2552:3001  function checkDispute(uint128 _disputeId)external{... */\n      pop\n      jump\t// out\n        /* \"contracts/TimeMiddle.sol\":4344:4451  function getAllSupervisor()external view returns(address[] memory){... */\n    tag_31:\n        /* \"contracts/TimeMiddle.sol\":4393:4409  address[] memory */\n      0x60\n        /* \"contracts/TimeMiddle.sol\":4428:4443  supervisorGroup */\n      0x02\n        /* \"contracts/TimeMiddle.sol\":4421:4443  return supervisorGroup */\n      dup1\n      sload\n      dup1\n      0x20\n      mul\n      0x20\n      add\n      mload(0x40)\n      swap1\n      dup2\n      add\n      0x40\n      mstore\n      dup1\n      swap3\n      swap2\n      swap1\n      dup2\n      dup2\n      mstore\n      0x20\n      add\n      dup3\n      dup1\n      sload\n      dup1\n      iszero\n      tag_96\n      jumpi\n      0x20\n      mul\n      dup3\n      add\n      swap2\n      swap1\n      0x00\n      mstore\n      keccak256(0x00, 0x20)\n      swap1\n    tag_97:\n      dup2\n      0x00\n      swap1\n      sload\n      swap1\n      0x0100\n      exp\n      swap1\n      div\n      0xffffffffffffffffffffffffffffffffffffffff\n      and\n      0xffffffffffffffffffffffffffffffffffffffff\n      and\n      dup2\n      mstore\n      0x20\n      add\n      swap1\n      0x01\n      add\n      swap1\n      dup1\n      dup4\n      gt\n      tag_97\n      jumpi\n    tag_96:\n      pop\n      pop\n      pop\n      pop\n      pop\n      swap1\n      pop\n        /* \"contracts/TimeMiddle.sol\":4344:4451  function getAllSupervisor()external view returns(address[] memory){... */\n      swap1\n      jump\t// out\n        /* \"contracts/TimeMiddle.sol\":4036:4172  function getClearId(address _airdropContract)external view returns(uint256){... */\n    tag_36:\n        /* \"contracts/TimeMiddle.sol\":4103:4110  uint256 */\n      0x00\n        /* \"contracts/TimeMiddle.sol\":4129:4146  contractToClearId */\n      0x08\n        /* \"contracts/TimeMiddle.sol\":4129:4164  contractToClearId[_airdropContract] */\n      0x00\n        /* \"contracts/TimeMiddle.sol\":4147:4163  _airdropContract */\n      dup4\n        /* \"contracts/TimeMiddle.sol\":4129:4164  contractToClearId[_airdropContract] */\n      0xffffffffffffffffffffffffffffffffffffffff\n      and\n      0xffffffffffffffffffffffffffffffffffffffff\n      and\n      dup2\n      mstore\n      0x20\n      add\n      swap1\n      dup2\n      mstore\n      0x20\n      add\n      0x00\n      keccak256\n      sload\n        /* \"contracts/TimeMiddle.sol\":4122:4164  return contractToClearId[_airdropContract] */\n      swap1\n      pop\n        /* \"contracts/TimeMiddle.sol\":4036:4172  function getClearId(address _airdropContract)external view returns(uint256){... */\n      swap2\n      swap1\n      pop\n      jump\t// out\n        /* \"contracts/TimeMiddle.sol\":2164:2518  function createDispute(address _airdropContract,string calldata _disputeThing,uint128 _disputeId)external{... */\n    tag_42:\n        /* \"contracts/TimeMiddle.sol\":2306:2315  clearTime */\n      0x04\n        /* \"contracts/TimeMiddle.sol\":2306:2325  clearTime[number-1] */\n      0x00\n        /* \"contracts/TimeMiddle.sol\":2323:2324  1 */\n      0x01\n        /* \"contracts/TimeMiddle.sol\":2316:2322  number */\n      sload(0x00)\n        /* \"contracts/TimeMiddle.sol\":2316:2324  number-1 */\n      tag_100\n      swap2\n      swap1\n      tag_101\n      jump\t// in\n    tag_100:\n        /* \"contracts/TimeMiddle.sol\":2306:2325  clearTime[number-1] */\n      dup2\n      mstore\n      0x20\n      add\n      swap1\n      dup2\n      mstore\n      0x20\n      add\n      0x00\n      keccak256\n        /* \"contracts/TimeMiddle.sol\":2306:2343  clearTime[number-1][_airdropContract] */\n      0x00\n        /* \"contracts/TimeMiddle.sol\":2326:2342  _airdropContract */\n      dup6\n        /* \"contracts/TimeMiddle.sol\":2306:2343  clearTime[number-1][_airdropContract] */\n      0xffffffffffffffffffffffffffffffffffffffff\n      and\n      0xffffffffffffffffffffffffffffffffffffffff\n      and\n      dup2\n      mstore\n      0x20\n      add\n      swap1\n      dup2\n      mstore\n      0x20\n      add\n      0x00\n      keccak256\n      sload\n        /* \"contracts/TimeMiddle.sol\":2288:2303  block.timestamp */\n      timestamp\n        /* \"contracts/TimeMiddle.sol\":2288:2343  block.timestamp < clearTime[number-1][_airdropContract] */\n      lt\n        /* \"contracts/TimeMiddle.sol\":2280:2357  require(block.timestamp < clearTime[number-1][_airdropContract],\"Not create\") */\n      tag_102\n      jumpi\n      mload(0x40)\n      0x08c379a000000000000000000000000000000000000000000000000000000000\n      dup2\n      mstore\n      0x04\n      add\n      tag_103\n      swap1\n      tag_104\n      jump\t// in\n    tag_103:\n      mload(0x40)\n      dup1\n      swap2\n      sub\n      swap1\n      revert\n    tag_102:\n        /* \"contracts/TimeMiddle.sol\":2437:2445  _dispute */\n      0x09\n        /* \"contracts/TimeMiddle.sol\":2451:2509  dispute(_disputeId,uint128(block.timestamp),_disputeThing) */\n      mload(0x40)\n      dup1\n      0x60\n      add\n      0x40\n      mstore\n      dup1\n        /* \"contracts/TimeMiddle.sol\":2459:2469  _disputeId */\n      dup4\n        /* \"contracts/TimeMiddle.sol\":2451:2509  dispute(_disputeId,uint128(block.timestamp),_disputeThing) */\n      0xffffffffffffffffffffffffffffffff\n      and\n      dup2\n      mstore\n      0x20\n      add\n        /* \"contracts/TimeMiddle.sol\":2478:2493  block.timestamp */\n      timestamp\n        /* \"contracts/TimeMiddle.sol\":2451:2509  dispute(_disputeId,uint128(block.timestamp),_disputeThing) */\n      0xffffffffffffffffffffffffffffffff\n      and\n      dup2\n      mstore\n      0x20\n      add\n        /* \"contracts/TimeMiddle.sol\":2495:2508  _disputeThing */\n      dup6\n      dup6\n        /* \"contracts/TimeMiddle.sol\":2451:2509  dispute(_disputeId,uint128(block.timestamp),_disputeThing) */\n      dup1\n      dup1\n      0x1f\n      add\n      0x20\n      dup1\n      swap2\n      div\n      mul\n      0x20\n      add\n      mload(0x40)\n      swap1\n      dup2\n      add\n      0x40\n      mstore\n      dup1\n      swap4\n      swap3\n      swap2\n      swap1\n      dup2\n      dup2\n      mstore\n      0x20\n      add\n      dup4\n      dup4\n      dup1\n      dup3\n      dup5\n      calldatacopy\n      0x00\n      dup2\n      dup5\n      add\n      mstore\n      not(0x1f)\n      0x1f\n      dup3\n      add\n      and\n      swap1\n      pop\n      dup1\n      dup4\n      add\n      swap3\n      pop\n      pop\n      pop\n      pop\n      pop\n      pop\n      pop\n      dup2\n      mstore\n      pop\n        /* \"contracts/TimeMiddle.sol\":2437:2510  _dispute.push(dispute(_disputeId,uint128(block.timestamp),_disputeThing)) */\n      swap1\n      dup1\n      0x01\n      dup2\n      sload\n      add\n      dup1\n      dup3\n      sstore\n      dup1\n      swap2\n      pop\n      pop\n      0x01\n      swap1\n      sub\n      swap1\n      0x00\n      mstore\n      keccak256(0x00, 0x20)\n      swap1\n      0x02\n      mul\n      add\n      0x00\n      swap1\n      swap2\n      swap1\n      swap2\n      swap1\n      swap2\n      pop\n      0x00\n      dup3\n      add\n      mload\n      dup2\n      0x00\n      add\n      exp(0x0100, 0x00)\n      dup2\n      sload\n      dup2\n      0xffffffffffffffffffffffffffffffff\n      mul\n      not\n      and\n      swap1\n      dup4\n      0xffffffffffffffffffffffffffffffff\n      and\n      mul\n      or\n      swap1\n      sstore\n      pop\n      0x20\n      dup3\n      add\n      mload\n      dup2\n      0x00\n      add\n      exp(0x0100, 0x10)\n      dup2\n      sload\n      dup2\n      0xffffffffffffffffffffffffffffffff\n      mul\n      not\n      and\n      swap1\n      dup4\n      0xffffffffffffffffffffffffffffffff\n      and\n      mul\n      or\n      swap1\n      sstore\n      pop\n      0x40\n      dup3\n      add\n      mload\n      dup2\n      0x01\n      add\n      swap1\n      dup1\n      mload\n      swap1\n      0x20\n      add\n      swap1\n      tag_106\n      swap3\n      swap2\n      swap1\n      tag_107\n      jump\t// in\n    tag_106:\n      pop\n      pop\n      pop\n        /* \"contracts/TimeMiddle.sol\":2164:2518  function createDispute(address _airdropContract,string calldata _disputeThing,uint128 _disputeId)external{... */\n      pop\n      pop\n      pop\n      pop\n      jump\t// out\n        /* \"contracts/TimeMiddle.sol\":1132:1527  function setCleanTime(uint256 _clearTime, address airdropContract, address _futureToken)external onlyOwner{... */\n    tag_46:\n        /* \"contracts/TimeMiddle.sol\":1022:1027  owner */\n      0x03\n      0x00\n      swap1\n      sload\n      swap1\n      0x0100\n      exp\n      swap1\n      div\n      0xffffffffffffffffffffffffffffffffffffffff\n      and\n        /* \"contracts/TimeMiddle.sol\":1010:1027  msg.sender==owner */\n      0xffffffffffffffffffffffffffffffffffffffff\n      and\n        /* \"contracts/TimeMiddle.sol\":1010:1020  msg.sender */\n      caller\n        /* \"contracts/TimeMiddle.sol\":1010:1027  msg.sender==owner */\n      0xffffffffffffffffffffffffffffffffffffffff\n      and\n      eq\n        /* \"contracts/TimeMiddle.sol\":1002:1042  require(msg.sender==owner,\"Owner error\") */\n      tag_109\n      jumpi\n      mload(0x40)\n      0x08c379a000000000000000000000000000000000000000000000000000000000\n      dup2\n      mstore\n      0x04\n      add\n      tag_110\n      swap1\n      tag_69\n      jump\t// in\n    tag_110:\n      mload(0x40)\n      dup1\n      swap2\n      sub\n      swap1\n      revert\n    tag_109:\n        /* \"contracts/TimeMiddle.sol\":1284:1289  false */\n      0x00\n        /* \"contracts/TimeMiddle.sol\":1257:1289  ifHadSet[airdropContract]==false */\n      iszero\n      iszero\n        /* \"contracts/TimeMiddle.sol\":1257:1265  ifHadSet */\n      0x07\n        /* \"contracts/TimeMiddle.sol\":1257:1282  ifHadSet[airdropContract] */\n      0x00\n        /* \"contracts/TimeMiddle.sol\":1266:1281  airdropContract */\n      dup5\n        /* \"contracts/TimeMiddle.sol\":1257:1282  ifHadSet[airdropContract] */\n      0xffffffffffffffffffffffffffffffffffffffff\n      and\n      0xffffffffffffffffffffffffffffffffffffffff\n      and\n      dup2\n      mstore\n      0x20\n      add\n      swap1\n      dup2\n      mstore\n      0x20\n      add\n      0x00\n      keccak256\n      0x00\n      swap1\n      sload\n      swap1\n      0x0100\n      exp\n      swap1\n      div\n      0xff\n      and\n        /* \"contracts/TimeMiddle.sol\":1257:1289  ifHadSet[airdropContract]==false */\n      iszero\n      iszero\n      eq\n        /* \"contracts/TimeMiddle.sol\":1249:1300  require(ifHadSet[airdropContract]==false,\"Had set\") */\n      tag_112\n      jumpi\n      mload(0x40)\n      0x08c379a000000000000000000000000000000000000000000000000000000000\n      dup2\n      mstore\n      0x04\n      add\n      tag_113\n      swap1\n      tag_114\n      jump\t// in\n    tag_113:\n      mload(0x40)\n      dup1\n      swap2\n      sub\n      swap1\n      revert\n    tag_112:\n        /* \"contracts/TimeMiddle.sol\":1362:1372  _clearTime */\n      dup3\n        /* \"contracts/TimeMiddle.sol\":1346:1361  block.timestamp */\n      timestamp\n        /* \"contracts/TimeMiddle.sol\":1346:1372  block.timestamp+_clearTime */\n      tag_115\n      swap2\n      swap1\n      tag_78\n      jump\t// in\n    tag_115:\n        /* \"contracts/TimeMiddle.sol\":1311:1320  clearTime */\n      0x04\n        /* \"contracts/TimeMiddle.sol\":1311:1328  clearTime[number] */\n      0x00\n        /* \"contracts/TimeMiddle.sol\":1321:1327  number */\n      dup1\n      sload\n        /* \"contracts/TimeMiddle.sol\":1311:1328  clearTime[number] */\n      dup2\n      mstore\n      0x20\n      add\n      swap1\n      dup2\n      mstore\n      0x20\n      add\n      0x00\n      keccak256\n        /* \"contracts/TimeMiddle.sol\":1311:1345  clearTime[number][airdropContract] */\n      0x00\n        /* \"contracts/TimeMiddle.sol\":1329:1344  airdropContract */\n      dup5\n        /* \"contracts/TimeMiddle.sol\":1311:1345  clearTime[number][airdropContract] */\n      0xffffffffffffffffffffffffffffffffffffffff\n      and\n      0xffffffffffffffffffffffffffffffffffffffff\n      and\n      dup2\n      mstore\n      0x20\n      add\n      swap1\n      dup2\n      mstore\n      0x20\n      add\n      0x00\n      keccak256\n        /* \"contracts/TimeMiddle.sol\":1311:1372  clearTime[number][airdropContract]=block.timestamp+_clearTime */\n      dup2\n      swap1\n      sstore\n      pop\n        /* \"contracts/TimeMiddle.sol\":1418:1424  number */\n      sload(0x00)\n        /* \"contracts/TimeMiddle.sol\":1383:1400  contractToClearId */\n      0x08\n        /* \"contracts/TimeMiddle.sol\":1383:1417  contractToClearId[airdropContract] */\n      0x00\n        /* \"contracts/TimeMiddle.sol\":1401:1416  airdropContract */\n      dup5\n        /* \"contracts/TimeMiddle.sol\":1383:1417  contractToClearId[airdropContract] */\n      0xffffffffffffffffffffffffffffffffffffffff\n      and\n      0xffffffffffffffffffffffffffffffffffffffff\n      and\n      dup2\n      mstore\n      0x20\n      add\n      swap1\n      dup2\n      mstore\n      0x20\n      add\n      0x00\n      keccak256\n        /* \"contracts/TimeMiddle.sol\":1383:1424  contractToClearId[airdropContract]=number */\n      dup2\n      swap1\n      sstore\n      pop\n        /* \"contracts/TimeMiddle.sol\":1447:1459  _futureToken */\n      dup1\n        /* \"contracts/TimeMiddle.sol\":1435:1446  futureToken */\n      0x01\n      0x00\n        /* \"contracts/TimeMiddle.sol\":1435:1459  futureToken=_futureToken */\n      0x0100\n      exp\n      dup2\n      sload\n      dup2\n      0xffffffffffffffffffffffffffffffffffffffff\n      mul\n      not\n      and\n      swap1\n      dup4\n      0xffffffffffffffffffffffffffffffffffffffff\n      and\n      mul\n      or\n      swap1\n      sstore\n      pop\n        /* \"contracts/TimeMiddle.sol\":1496:1500  true */\n      0x01\n        /* \"contracts/TimeMiddle.sol\":1470:1478  ifHadSet */\n      0x07\n        /* \"contracts/TimeMiddle.sol\":1470:1495  ifHadSet[airdropContract] */\n      0x00\n        /* \"contracts/TimeMiddle.sol\":1479:1494  airdropContract */\n      dup5\n        /* \"contracts/TimeMiddle.sol\":1470:1495  ifHadSet[airdropContract] */\n      0xffffffffffffffffffffffffffffffffffffffff\n      and\n      0xffffffffffffffffffffffffffffffffffffffff\n      and\n      dup2\n      mstore\n      0x20\n      add\n      swap1\n      dup2\n      mstore\n      0x20\n      add\n      0x00\n      keccak256\n      0x00\n        /* \"contracts/TimeMiddle.sol\":1470:1500  ifHadSet[airdropContract]=true */\n      0x0100\n      exp\n      dup2\n      sload\n      dup2\n      0xff\n      mul\n      not\n      and\n      swap1\n      dup4\n      iszero\n      iszero\n      mul\n      or\n      swap1\n      sstore\n      pop\n        /* \"contracts/TimeMiddle.sol\":1511:1517  number */\n      0x00\n      dup1\n        /* \"contracts/TimeMiddle.sol\":1511:1519  number++ */\n      dup2\n      sload\n      dup1\n      swap3\n      swap2\n      swap1\n      tag_116\n      swap1\n      tag_94\n      jump\t// in\n    tag_116:\n      swap2\n      swap1\n      pop\n      sstore\n      pop\n        /* \"contracts/TimeMiddle.sol\":1132:1527  function setCleanTime(uint256 _clearTime, address airdropContract, address _futureToken)external onlyOwner{... */\n      pop\n      pop\n      pop\n      jump\t// out\n        /* \"contracts/TimeMiddle.sol\":3488:3737  function checkIfSupervisor(address userAddress)public view returns(bool userState){... */\n    tag_49:\n        /* \"contracts/TimeMiddle.sol\":3555:3569  bool userState */\n      0x00\n        /* \"contracts/TimeMiddle.sol\":3585:3593  uint16 i */\n      dup1\n        /* \"contracts/TimeMiddle.sol\":3581:3730  for(uint16 i;i<supervisorGroup.length;i++){... */\n    tag_118:\n        /* \"contracts/TimeMiddle.sol\":3596:3611  supervisorGroup */\n      0x02\n        /* \"contracts/TimeMiddle.sol\":3596:3618  supervisorGroup.length */\n      dup1\n      sload\n      swap1\n      pop\n        /* \"contracts/TimeMiddle.sol\":3594:3595  i */\n      dup2\n        /* \"contracts/TimeMiddle.sol\":3594:3618  i<supervisorGroup.length */\n      0xffff\n      and\n      lt\n        /* \"contracts/TimeMiddle.sol\":3581:3730  for(uint16 i;i<supervisorGroup.length;i++){... */\n      iszero\n      tag_119\n      jumpi\n        /* \"contracts/TimeMiddle.sol\":3654:3669  supervisorGroup */\n      0x02\n        /* \"contracts/TimeMiddle.sol\":3670:3671  i */\n      dup2\n        /* \"contracts/TimeMiddle.sol\":3654:3672  supervisorGroup[i] */\n      0xffff\n      and\n      dup2\n      sload\n      dup2\n      lt\n      tag_121\n      jumpi\n      tag_122\n      tag_123\n      jump\t// in\n    tag_122:\n    tag_121:\n      swap1\n      0x00\n      mstore\n      keccak256(0x00, 0x20)\n      add\n      0x00\n      swap1\n      sload\n      swap1\n      0x0100\n      exp\n      swap1\n      div\n      0xffffffffffffffffffffffffffffffffffffffff\n      and\n        /* \"contracts/TimeMiddle.sol\":3641:3672  userAddress==supervisorGroup[i] */\n      0xffffffffffffffffffffffffffffffffffffffff\n      and\n        /* \"contracts/TimeMiddle.sol\":3641:3652  userAddress */\n      dup4\n        /* \"contracts/TimeMiddle.sol\":3641:3672  userAddress==supervisorGroup[i] */\n      0xffffffffffffffffffffffffffffffffffffffff\n      and\n      eq\n        /* \"contracts/TimeMiddle.sol\":3638:3719  if(userAddress==supervisorGroup[i]){... */\n      iszero\n      tag_125\n      jumpi\n        /* \"contracts/TimeMiddle.sol\":3699:3703  true */\n      0x01\n        /* \"contracts/TimeMiddle.sol\":3692:3703  return true */\n      swap2\n      pop\n      pop\n      jump(tag_117)\n        /* \"contracts/TimeMiddle.sol\":3638:3719  if(userAddress==supervisorGroup[i]){... */\n    tag_125:\n        /* \"contracts/TimeMiddle.sol\":3619:3622  i++ */\n      dup1\n      dup1\n      tag_126\n      swap1\n      tag_127\n      jump\t// in\n    tag_126:\n      swap2\n      pop\n      pop\n        /* \"contracts/TimeMiddle.sol\":3581:3730  for(uint16 i;i<supervisorGroup.length;i++){... */\n      jump(tag_118)\n    tag_119:\n      pop\n        /* \"contracts/TimeMiddle.sol\":3488:3737  function checkIfSupervisor(address userAddress)public view returns(bool userState){... */\n    tag_117:\n      swap2\n      swap1\n      pop\n      jump\t// out\n        /* \"contracts/TimeMiddle.sol\":4221:4307  function getLastNumber()external view returns(uint256){... */\n    tag_52:\n        /* \"contracts/TimeMiddle.sol\":4267:4274  uint256 */\n      0x00\n        /* \"contracts/TimeMiddle.sol\":4293:4299  number */\n      dup1\n      sload\n        /* \"contracts/TimeMiddle.sol\":4286:4299  return number */\n      swap1\n      pop\n        /* \"contracts/TimeMiddle.sol\":4221:4307  function getLastNumber()external view returns(uint256){... */\n      swap1\n      jump\t// out\n        /* \"contracts/TimeMiddle.sol\":3349:3448  function getFutureTokenAddress()external view returns(address){... */\n    tag_55:\n        /* \"contracts/TimeMiddle.sol\":3403:3410  address */\n      0x00\n        /* \"contracts/TimeMiddle.sol\":3429:3440  futureToken */\n      0x01\n      0x00\n      swap1\n      sload\n      swap1\n      0x0100\n      exp\n      swap1\n      div\n      0xffffffffffffffffffffffffffffffffffffffff\n      and\n        /* \"contracts/TimeMiddle.sol\":3422:3440  return futureToken */\n      swap1\n      pop\n        /* \"contracts/TimeMiddle.sol\":3349:3448  function getFutureTokenAddress()external view returns(address){... */\n      swap1\n      jump\t// out\n        /* \"contracts/TimeMiddle.sol\":3777:4006  function getClearTime(uint256 _number,address _airdropContract)external view returns(uint256){... */\n    tag_61:\n        /* \"contracts/TimeMiddle.sol\":3862:3869  uint256 */\n      0x00\n        /* \"contracts/TimeMiddle.sol\":3897:3903  number */\n      dup1\n      sload\n        /* \"contracts/TimeMiddle.sol\":3889:3896  _number */\n      dup4\n        /* \"contracts/TimeMiddle.sol\":3889:3903  _number<number */\n      lt\n        /* \"contracts/TimeMiddle.sol\":3881:3919  require(_number<number,\"Number error\") */\n      tag_131\n      jumpi\n      mload(0x40)\n      0x08c379a000000000000000000000000000000000000000000000000000000000\n      dup2\n      mstore\n      0x04\n      add\n      tag_132\n      swap1\n      tag_133\n      jump\t// in\n    tag_132:\n      mload(0x40)\n      dup1\n      swap2\n      sub\n      swap1\n      revert\n    tag_131:\n        /* \"contracts/TimeMiddle.sol\":3962:3971  clearTime */\n      0x04\n        /* \"contracts/TimeMiddle.sol\":3962:3980  clearTime[_number] */\n      0x00\n        /* \"contracts/TimeMiddle.sol\":3972:3979  _number */\n      dup5\n        /* \"contracts/TimeMiddle.sol\":3962:3980  clearTime[_number] */\n      dup2\n      mstore\n      0x20\n      add\n      swap1\n      dup2\n      mstore\n      0x20\n      add\n      0x00\n      keccak256\n        /* \"contracts/TimeMiddle.sol\":3962:3998  clearTime[_number][_airdropContract] */\n      0x00\n        /* \"contracts/TimeMiddle.sol\":3981:3997  _airdropContract */\n      dup4\n        /* \"contracts/TimeMiddle.sol\":3962:3998  clearTime[_number][_airdropContract] */\n      0xffffffffffffffffffffffffffffffffffffffff\n      and\n      0xffffffffffffffffffffffffffffffffffffffff\n      and\n      dup2\n      mstore\n      0x20\n      add\n      swap1\n      dup2\n      mstore\n      0x20\n      add\n      0x00\n      keccak256\n      sload\n        /* \"contracts/TimeMiddle.sol\":3955:3998  return clearTime[_number][_airdropContract] */\n      swap1\n      pop\n        /* \"contracts/TimeMiddle.sol\":3777:4006  function getClearTime(uint256 _number,address _airdropContract)external view returns(uint256){... */\n      swap3\n      swap2\n      pop\n      pop\n      jump\t// out\n        /* \"contracts/TimeMiddle.sol\":1792:2121  function removeSuperVisor(address newSupervisor)external onlyOwner{... */\n    tag_65:\n        /* \"contracts/TimeMiddle.sol\":1022:1027  owner */\n      0x03\n      0x00\n      swap1\n      sload\n      swap1\n      0x0100\n      exp\n      swap1\n      div\n      0xffffffffffffffffffffffffffffffffffffffff\n      and\n        /* \"contracts/TimeMiddle.sol\":1010:1027  msg.sender==owner */\n      0xffffffffffffffffffffffffffffffffffffffff\n      and\n        /* \"contracts/TimeMiddle.sol\":1010:1020  msg.sender */\n      caller\n        /* \"contracts/TimeMiddle.sol\":1010:1027  msg.sender==owner */\n      0xffffffffffffffffffffffffffffffffffffffff\n      and\n      eq\n        /* \"contracts/TimeMiddle.sol\":1002:1042  require(msg.sender==owner,\"Owner error\") */\n      tag_135\n      jumpi\n      mload(0x40)\n      0x08c379a000000000000000000000000000000000000000000000000000000000\n      dup2\n      mstore\n      0x04\n      add\n      tag_136\n      swap1\n      tag_69\n      jump\t// in\n    tag_136:\n      mload(0x40)\n      dup1\n      swap2\n      sub\n      swap1\n      revert\n    tag_135:\n        /* \"contracts/TimeMiddle.sol\":1877:1909  checkIfSupervisor(newSupervisor) */\n      tag_138\n        /* \"contracts/TimeMiddle.sol\":1895:1908  newSupervisor */\n      dup2\n        /* \"contracts/TimeMiddle.sol\":1877:1894  checkIfSupervisor */\n      tag_49\n        /* \"contracts/TimeMiddle.sol\":1877:1909  checkIfSupervisor(newSupervisor) */\n      jump\t// in\n    tag_138:\n        /* \"contracts/TimeMiddle.sol\":1869:1910  require(checkIfSupervisor(newSupervisor)) */\n      tag_139\n      jumpi\n      0x00\n      dup1\n      revert\n    tag_139:\n        /* \"contracts/TimeMiddle.sol\":1953:1961  uint16 a */\n      0x00\n        /* \"contracts/TimeMiddle.sol\":1949:2114  for(uint16 a;a<supervisorGroup.length;a++){... */\n    tag_140:\n        /* \"contracts/TimeMiddle.sol\":1964:1979  supervisorGroup */\n      0x02\n        /* \"contracts/TimeMiddle.sol\":1964:1986  supervisorGroup.length */\n      dup1\n      sload\n      swap1\n      pop\n        /* \"contracts/TimeMiddle.sol\":1962:1963  a */\n      dup2\n        /* \"contracts/TimeMiddle.sol\":1962:1986  a<supervisorGroup.length */\n      0xffff\n      and\n      lt\n        /* \"contracts/TimeMiddle.sol\":1949:2114  for(uint16 a;a<supervisorGroup.length;a++){... */\n      iszero\n      tag_141\n      jumpi\n        /* \"contracts/TimeMiddle.sol\":2024:2039  supervisorGroup */\n      0x02\n        /* \"contracts/TimeMiddle.sol\":2040:2041  a */\n      dup2\n        /* \"contracts/TimeMiddle.sol\":2024:2042  supervisorGroup[a] */\n      0xffff\n      and\n      dup2\n      sload\n      dup2\n      lt\n      tag_143\n      jumpi\n      tag_144\n      tag_123\n      jump\t// in\n    tag_144:\n    tag_143:\n      swap1\n      0x00\n      mstore\n      keccak256(0x00, 0x20)\n      add\n      0x00\n      swap1\n      sload\n      swap1\n      0x0100\n      exp\n      swap1\n      div\n      0xffffffffffffffffffffffffffffffffffffffff\n      and\n        /* \"contracts/TimeMiddle.sol\":2009:2042  newSupervisor==supervisorGroup[a] */\n      0xffffffffffffffffffffffffffffffffffffffff\n      and\n        /* \"contracts/TimeMiddle.sol\":2009:2022  newSupervisor */\n      dup3\n        /* \"contracts/TimeMiddle.sol\":2009:2042  newSupervisor==supervisorGroup[a] */\n      0xffffffffffffffffffffffffffffffffffffffff\n      and\n      eq\n        /* \"contracts/TimeMiddle.sol\":2006:2103  if(newSupervisor==supervisorGroup[a]){... */\n      iszero\n      tag_146\n      jumpi\n        /* \"contracts/TimeMiddle.sol\":2069:2084  supervisorGroup */\n      0x02\n        /* \"contracts/TimeMiddle.sol\":2085:2086  a */\n      dup2\n        /* \"contracts/TimeMiddle.sol\":2069:2087  supervisorGroup[a] */\n      0xffff\n      and\n      dup2\n      sload\n      dup2\n      lt\n      tag_147\n      jumpi\n      tag_148\n      tag_123\n      jump\t// in\n    tag_148:\n    tag_147:\n      swap1\n      0x00\n      mstore\n      keccak256(0x00, 0x20)\n      add\n      0x00\n        /* \"contracts/TimeMiddle.sol\":2062:2087  delete supervisorGroup[a] */\n      0x0100\n      exp\n      dup2\n      sload\n      swap1\n      0xffffffffffffffffffffffffffffffffffffffff\n      mul\n      not\n      and\n      swap1\n      sstore\n        /* \"contracts/TimeMiddle.sol\":2006:2103  if(newSupervisor==supervisorGroup[a]){... */\n    tag_146:\n        /* \"contracts/TimeMiddle.sol\":1987:1990  a++ */\n      dup1\n      dup1\n      tag_150\n      swap1\n      tag_127\n      jump\t// in\n    tag_150:\n      swap2\n      pop\n      pop\n        /* \"contracts/TimeMiddle.sol\":1949:2114  for(uint16 a;a<supervisorGroup.length;a++){... */\n      jump(tag_140)\n    tag_141:\n      pop\n        /* \"contracts/TimeMiddle.sol\":1792:2121  function removeSuperVisor(address newSupervisor)external onlyOwner{... */\n      pop\n      jump\t// out\n    tag_107:\n      dup3\n      dup1\n      sload\n      tag_151\n      swap1\n      tag_152\n      jump\t// in\n    tag_151:\n      swap1\n      0x00\n      mstore\n      keccak256(0x00, 0x20)\n      swap1\n      0x1f\n      add\n      0x20\n      swap1\n      div\n      dup2\n      add\n      swap3\n      dup3\n      tag_154\n      jumpi\n      0x00\n      dup6\n      sstore\n      jump(tag_153)\n    tag_154:\n      dup3\n      0x1f\n      lt\n      tag_155\n      jumpi\n      dup1\n      mload\n      not(0xff)\n      and\n      dup4\n      dup1\n      add\n      or\n      dup6\n      sstore\n      jump(tag_153)\n    tag_155:\n      dup3\n      dup1\n      add\n      0x01\n      add\n      dup6\n      sstore\n      dup3\n      iszero\n      tag_153\n      jumpi\n      swap2\n      dup3\n      add\n    tag_156:\n      dup3\n      dup2\n      gt\n      iszero\n      tag_157\n      jumpi\n      dup3\n      mload\n      dup3\n      sstore\n      swap2\n      0x20\n      add\n      swap2\n      swap1\n      0x01\n      add\n      swap1\n      jump(tag_156)\n    tag_157:\n    tag_153:\n      pop\n      swap1\n      pop\n      tag_158\n      swap2\n      swap1\n      tag_159\n      jump\t// in\n    tag_158:\n      pop\n      swap1\n      jump\t// out\n    tag_159:\n    tag_160:\n      dup1\n      dup3\n      gt\n      iszero\n      tag_161\n      jumpi\n      0x00\n      dup2\n      0x00\n      swap1\n      sstore\n      pop\n      0x01\n      add\n      jump(tag_160)\n    tag_161:\n      pop\n      swap1\n      jump\t// out\n        /* \"#utility.yul\":88:205   */\n    tag_163:\n        /* \"#utility.yul\":197:198   */\n      0x00\n        /* \"#utility.yul\":194:195   */\n      dup1\n        /* \"#utility.yul\":187:199   */\n      revert\n        /* \"#utility.yul\":211:328   */\n    tag_164:\n        /* \"#utility.yul\":320:321   */\n      0x00\n        /* \"#utility.yul\":317:318   */\n      dup1\n        /* \"#utility.yul\":310:322   */\n      revert\n        /* \"#utility.yul\":334:460   */\n    tag_165:\n        /* \"#utility.yul\":371:378   */\n      0x00\n        /* \"#utility.yul\":411:453   */\n      0xffffffffffffffffffffffffffffffffffffffff\n        /* \"#utility.yul\":404:409   */\n      dup3\n        /* \"#utility.yul\":400:454   */\n      and\n        /* \"#utility.yul\":389:454   */\n      swap1\n      pop\n        /* \"#utility.yul\":334:460   */\n      swap2\n      swap1\n      pop\n      jump\t// out\n        /* \"#utility.yul\":466:562   */\n    tag_166:\n        /* \"#utility.yul\":503:510   */\n      0x00\n        /* \"#utility.yul\":532:556   */\n      tag_215\n        /* \"#utility.yul\":550:555   */\n      dup3\n        /* \"#utility.yul\":532:556   */\n      tag_165\n      jump\t// in\n    tag_215:\n        /* \"#utility.yul\":521:556   */\n      swap1\n      pop\n        /* \"#utility.yul\":466:562   */\n      swap2\n      swap1\n      pop\n      jump\t// out\n        /* \"#utility.yul\":568:690   */\n    tag_167:\n        /* \"#utility.yul\":641:665   */\n      tag_217\n        /* \"#utility.yul\":659:664   */\n      dup2\n        /* \"#utility.yul\":641:665   */\n      tag_166\n      jump\t// in\n    tag_217:\n        /* \"#utility.yul\":634:639   */\n      dup2\n        /* \"#utility.yul\":631:666   */\n      eq\n        /* \"#utility.yul\":621:684   */\n      tag_218\n      jumpi\n        /* \"#utility.yul\":680:681   */\n      0x00\n        /* \"#utility.yul\":677:678   */\n      dup1\n        /* \"#utility.yul\":670:682   */\n      revert\n        /* \"#utility.yul\":621:684   */\n    tag_218:\n        /* \"#utility.yul\":568:690   */\n      pop\n      jump\t// out\n        /* \"#utility.yul\":696:835   */\n    tag_168:\n        /* \"#utility.yul\":742:747   */\n      0x00\n        /* \"#utility.yul\":780:786   */\n      dup2\n        /* \"#utility.yul\":767:787   */\n      calldataload\n        /* \"#utility.yul\":758:787   */\n      swap1\n      pop\n        /* \"#utility.yul\":796:829   */\n      tag_220\n        /* \"#utility.yul\":823:828   */\n      dup2\n        /* \"#utility.yul\":796:829   */\n      tag_167\n      jump\t// in\n    tag_220:\n        /* \"#utility.yul\":696:835   */\n      swap3\n      swap2\n      pop\n      pop\n      jump\t// out\n        /* \"#utility.yul\":841:1170   */\n    tag_18:\n        /* \"#utility.yul\":900:906   */\n      0x00\n        /* \"#utility.yul\":949:951   */\n      0x20\n        /* \"#utility.yul\":937:946   */\n      dup3\n        /* \"#utility.yul\":928:935   */\n      dup5\n        /* \"#utility.yul\":924:947   */\n      sub\n        /* \"#utility.yul\":920:952   */\n      slt\n        /* \"#utility.yul\":917:1036   */\n      iszero\n      tag_222\n      jumpi\n        /* \"#utility.yul\":955:1034   */\n      tag_223\n      tag_163\n      jump\t// in\n    tag_223:\n        /* \"#utility.yul\":917:1036   */\n    tag_222:\n        /* \"#utility.yul\":1075:1076   */\n      0x00\n        /* \"#utility.yul\":1100:1153   */\n      tag_224\n        /* \"#utility.yul\":1145:1152   */\n      dup5\n        /* \"#utility.yul\":1136:1142   */\n      dup3\n        /* \"#utility.yul\":1125:1134   */\n      dup6\n        /* \"#utility.yul\":1121:1143   */\n      add\n        /* \"#utility.yul\":1100:1153   */\n      tag_168\n      jump\t// in\n    tag_224:\n        /* \"#utility.yul\":1090:1153   */\n      swap2\n      pop\n        /* \"#utility.yul\":1046:1163   */\n      pop\n        /* \"#utility.yul\":841:1170   */\n      swap3\n      swap2\n      pop\n      pop\n      jump\t// out\n        /* \"#utility.yul\":1176:1253   */\n    tag_169:\n        /* \"#utility.yul\":1213:1220   */\n      0x00\n        /* \"#utility.yul\":1242:1247   */\n      dup2\n        /* \"#utility.yul\":1231:1247   */\n      swap1\n      pop\n        /* \"#utility.yul\":1176:1253   */\n      swap2\n      swap1\n      pop\n      jump\t// out\n        /* \"#utility.yul\":1259:1381   */\n    tag_170:\n        /* \"#utility.yul\":1332:1356   */\n      tag_227\n        /* \"#utility.yul\":1350:1355   */\n      dup2\n        /* \"#utility.yul\":1332:1356   */\n      tag_169\n      jump\t// in\n    tag_227:\n        /* \"#utility.yul\":1325:1330   */\n      dup2\n        /* \"#utility.yul\":1322:1357   */\n      eq\n        /* \"#utility.yul\":1312:1375   */\n      tag_228\n      jumpi\n        /* \"#utility.yul\":1371:1372   */\n      0x00\n        /* \"#utility.yul\":1368:1369   */\n      dup1\n        /* \"#utility.yul\":1361:1373   */\n      revert\n        /* \"#utility.yul\":1312:1375   */\n    tag_228:\n        /* \"#utility.yul\":1259:1381   */\n      pop\n      jump\t// out\n        /* \"#utility.yul\":1387:1526   */\n    tag_171:\n        /* \"#utility.yul\":1433:1438   */\n      0x00\n        /* \"#utility.yul\":1471:1477   */\n      dup2\n        /* \"#utility.yul\":1458:1478   */\n      calldataload\n        /* \"#utility.yul\":1449:1478   */\n      swap1\n      pop\n        /* \"#utility.yul\":1487:1520   */\n      tag_230\n        /* \"#utility.yul\":1514:1519   */\n      dup2\n        /* \"#utility.yul\":1487:1520   */\n      tag_170\n      jump\t// in\n    tag_230:\n        /* \"#utility.yul\":1387:1526   */\n      swap3\n      swap2\n      pop\n      pop\n      jump\t// out\n        /* \"#utility.yul\":1532:1861   */\n    tag_22:\n        /* \"#utility.yul\":1591:1597   */\n      0x00\n        /* \"#utility.yul\":1640:1642   */\n      0x20\n        /* \"#utility.yul\":1628:1637   */\n      dup3\n        /* \"#utility.yul\":1619:1626   */\n      dup5\n        /* \"#utility.yul\":1615:1638   */\n      sub\n        /* \"#utility.yul\":1611:1643   */\n      slt\n        /* \"#utility.yul\":1608:1727   */\n      iszero\n      tag_232\n      jumpi\n        /* \"#utility.yul\":1646:1725   */\n      tag_233\n      tag_163\n      jump\t// in\n    tag_233:\n        /* \"#utility.yul\":1608:1727   */\n    tag_232:\n        /* \"#utility.yul\":1766:1767   */\n      0x00\n        /* \"#utility.yul\":1791:1844   */\n      tag_234\n        /* \"#utility.yul\":1836:1843   */\n      dup5\n        /* \"#utility.yul\":1827:1833   */\n      dup3\n        /* \"#utility.yul\":1816:1825   */\n      dup6\n        /* \"#utility.yul\":1812:1834   */\n      add\n        /* \"#utility.yul\":1791:1844   */\n      tag_171\n      jump\t// in\n    tag_234:\n        /* \"#utility.yul\":1781:1844   */\n      swap2\n      pop\n        /* \"#utility.yul\":1737:1854   */\n      pop\n        /* \"#utility.yul\":1532:1861   */\n      swap3\n      swap2\n      pop\n      pop\n      jump\t// out\n        /* \"#utility.yul\":1867:1957   */\n    tag_172:\n        /* \"#utility.yul\":1901:1908   */\n      0x00\n        /* \"#utility.yul\":1944:1949   */\n      dup2\n        /* \"#utility.yul\":1937:1950   */\n      iszero\n        /* \"#utility.yul\":1930:1951   */\n      iszero\n        /* \"#utility.yul\":1919:1951   */\n      swap1\n      pop\n        /* \"#utility.yul\":1867:1957   */\n      swap2\n      swap1\n      pop\n      jump\t// out\n        /* \"#utility.yul\":1963:2072   */\n    tag_173:\n        /* \"#utility.yul\":2044:2065   */\n      tag_237\n        /* \"#utility.yul\":2059:2064   */\n      dup2\n        /* \"#utility.yul\":2044:2065   */\n      tag_172\n      jump\t// in\n    tag_237:\n        /* \"#utility.yul\":2039:2042   */\n      dup3\n        /* \"#utility.yul\":2032:2066   */\n      mstore\n        /* \"#utility.yul\":1963:2072   */\n      pop\n      pop\n      jump\t// out\n        /* \"#utility.yul\":2078:2288   */\n    tag_25:\n        /* \"#utility.yul\":2165:2169   */\n      0x00\n        /* \"#utility.yul\":2203:2205   */\n      0x20\n        /* \"#utility.yul\":2192:2201   */\n      dup3\n        /* \"#utility.yul\":2188:2206   */\n      add\n        /* \"#utility.yul\":2180:2206   */\n      swap1\n      pop\n        /* \"#utility.yul\":2216:2281   */\n      tag_239\n        /* \"#utility.yul\":2278:2279   */\n      0x00\n        /* \"#utility.yul\":2267:2276   */\n      dup4\n        /* \"#utility.yul\":2263:2280   */\n      add\n        /* \"#utility.yul\":2254:2260   */\n      dup5\n        /* \"#utility.yul\":2216:2281   */\n      tag_173\n      jump\t// in\n    tag_239:\n        /* \"#utility.yul\":2078:2288   */\n      swap3\n      swap2\n      pop\n      pop\n      jump\t// out\n        /* \"#utility.yul\":2294:2412   */\n    tag_174:\n        /* \"#utility.yul\":2331:2338   */\n      0x00\n        /* \"#utility.yul\":2371:2405   */\n      0xffffffffffffffffffffffffffffffff\n        /* \"#utility.yul\":2364:2369   */\n      dup3\n        /* \"#utility.yul\":2360:2406   */\n      and\n        /* \"#utility.yul\":2349:2406   */\n      swap1\n      pop\n        /* \"#utility.yul\":2294:2412   */\n      swap2\n      swap1\n      pop\n      jump\t// out\n        /* \"#utility.yul\":2418:2540   */\n    tag_175:\n        /* \"#utility.yul\":2491:2515   */\n      tag_242\n        /* \"#utility.yul\":2509:2514   */\n      dup2\n        /* \"#utility.yul\":2491:2515   */\n      tag_174\n      jump\t// in\n    tag_242:\n        /* \"#utility.yul\":2484:2489   */\n      dup2\n        /* \"#utility.yul\":2481:2516   */\n      eq\n        /* \"#utility.yul\":2471:2534   */\n      tag_243\n      jumpi\n        /* \"#utility.yul\":2530:2531   */\n      0x00\n        /* \"#utility.yul\":2527:2528   */\n      dup1\n        /* \"#utility.yul\":2520:2532   */\n      revert\n        /* \"#utility.yul\":2471:2534   */\n    tag_243:\n        /* \"#utility.yul\":2418:2540   */\n      pop\n      jump\t// out\n        /* \"#utility.yul\":2546:2685   */\n    tag_176:\n        /* \"#utility.yul\":2592:2597   */\n      0x00\n        /* \"#utility.yul\":2630:2636   */\n      dup2\n        /* \"#utility.yul\":2617:2637   */\n      calldataload\n        /* \"#utility.yul\":2608:2637   */\n      swap1\n      pop\n        /* \"#utility.yul\":2646:2679   */\n      tag_245\n        /* \"#utility.yul\":2673:2678   */\n      dup2\n        /* \"#utility.yul\":2646:2679   */\n      tag_175\n      jump\t// in\n    tag_245:\n        /* \"#utility.yul\":2546:2685   */\n      swap3\n      swap2\n      pop\n      pop\n      jump\t// out\n        /* \"#utility.yul\":2691:3020   */\n    tag_28:\n        /* \"#utility.yul\":2750:2756   */\n      0x00\n        /* \"#utility.yul\":2799:2801   */\n      0x20\n        /* \"#utility.yul\":2787:2796   */\n      dup3\n        /* \"#utility.yul\":2778:2785   */\n      dup5\n        /* \"#utility.yul\":2774:2797   */\n      sub\n        /* \"#utility.yul\":2770:2802   */\n      slt\n        /* \"#utility.yul\":2767:2886   */\n      iszero\n      tag_247\n      jumpi\n        /* \"#utility.yul\":2805:2884   */\n      tag_248\n      tag_163\n      jump\t// in\n    tag_248:\n        /* \"#utility.yul\":2767:2886   */\n    tag_247:\n        /* \"#utility.yul\":2925:2926   */\n      0x00\n        /* \"#utility.yul\":2950:3003   */\n      tag_249\n        /* \"#utility.yul\":2995:3002   */\n      dup5\n        /* \"#utility.yul\":2986:2992   */\n      dup3\n        /* \"#utility.yul\":2975:2984   */\n      dup6\n        /* \"#utility.yul\":2971:2993   */\n      add\n        /* \"#utility.yul\":2950:3003   */\n      tag_176\n      jump\t// in\n    tag_249:\n        /* \"#utility.yul\":2940:3003   */\n      swap2\n      pop\n        /* \"#utility.yul\":2896:3013   */\n      pop\n        /* \"#utility.yul\":2691:3020   */\n      swap3\n      swap2\n      pop\n      pop\n      jump\t// out\n        /* \"#utility.yul\":3026:3140   */\n    tag_177:\n        /* \"#utility.yul\":3093:3099   */\n      0x00\n        /* \"#utility.yul\":3127:3132   */\n      dup2\n        /* \"#utility.yul\":3121:3133   */\n      mload\n        /* \"#utility.yul\":3111:3133   */\n      swap1\n      pop\n        /* \"#utility.yul\":3026:3140   */\n      swap2\n      swap1\n      pop\n      jump\t// out\n        /* \"#utility.yul\":3146:3330   */\n    tag_178:\n        /* \"#utility.yul\":3245:3256   */\n      0x00\n        /* \"#utility.yul\":3279:3285   */\n      dup3\n        /* \"#utility.yul\":3274:3277   */\n      dup3\n        /* \"#utility.yul\":3267:3286   */\n      mstore\n        /* \"#utility.yul\":3319:3323   */\n      0x20\n        /* \"#utility.yul\":3314:3317   */\n      dup3\n        /* \"#utility.yul\":3310:3324   */\n      add\n        /* \"#utility.yul\":3295:3324   */\n      swap1\n      pop\n        /* \"#utility.yul\":3146:3330   */\n      swap3\n      swap2\n      pop\n      pop\n      jump\t// out\n        /* \"#utility.yul\":3336:3468   */\n    tag_179:\n        /* \"#utility.yul\":3403:3407   */\n      0x00\n        /* \"#utility.yul\":3426:3429   */\n      dup2\n        /* \"#utility.yul\":3418:3429   */\n      swap1\n      pop\n        /* \"#utility.yul\":3456:3460   */\n      0x20\n        /* \"#utility.yul\":3451:3454   */\n      dup3\n        /* \"#utility.yul\":3447:3461   */\n      add\n        /* \"#utility.yul\":3439:3461   */\n      swap1\n      pop\n        /* \"#utility.yul\":3336:3468   */\n      swap2\n      swap1\n      pop\n      jump\t// out\n        /* \"#utility.yul\":3474:3582   */\n    tag_180:\n        /* \"#utility.yul\":3551:3575   */\n      tag_254\n        /* \"#utility.yul\":3569:3574   */\n      dup2\n        /* \"#utility.yul\":3551:3575   */\n      tag_166\n      jump\t// in\n    tag_254:\n        /* \"#utility.yul\":3546:3549   */\n      dup3\n        /* \"#utility.yul\":3539:3576   */\n      mstore\n        /* \"#utility.yul\":3474:3582   */\n      pop\n      pop\n      jump\t// out\n        /* \"#utility.yul\":3588:3767   */\n    tag_181:\n        /* \"#utility.yul\":3657:3667   */\n      0x00\n        /* \"#utility.yul\":3678:3724   */\n      tag_256\n        /* \"#utility.yul\":3720:3723   */\n      dup4\n        /* \"#utility.yul\":3712:3718   */\n      dup4\n        /* \"#utility.yul\":3678:3724   */\n      tag_180\n      jump\t// in\n    tag_256:\n        /* \"#utility.yul\":3756:3760   */\n      0x20\n        /* \"#utility.yul\":3751:3754   */\n      dup4\n        /* \"#utility.yul\":3747:3761   */\n      add\n        /* \"#utility.yul\":3733:3761   */\n      swap1\n      pop\n        /* \"#utility.yul\":3588:3767   */\n      swap3\n      swap2\n      pop\n      pop\n      jump\t// out\n        /* \"#utility.yul\":3773:3886   */\n    tag_182:\n        /* \"#utility.yul\":3843:3847   */\n      0x00\n        /* \"#utility.yul\":3875:3879   */\n      0x20\n        /* \"#utility.yul\":3870:3873   */\n      dup3\n        /* \"#utility.yul\":3866:3880   */\n      add\n        /* \"#utility.yul\":3858:3880   */\n      swap1\n      pop\n        /* \"#utility.yul\":3773:3886   */\n      swap2\n      swap1\n      pop\n      jump\t// out\n        /* \"#utility.yul\":3922:4654   */\n    tag_183:\n        /* \"#utility.yul\":4041:4044   */\n      0x00\n        /* \"#utility.yul\":4070:4124   */\n      tag_259\n        /* \"#utility.yul\":4118:4123   */\n      dup3\n        /* \"#utility.yul\":4070:4124   */\n      tag_177\n      jump\t// in\n    tag_259:\n        /* \"#utility.yul\":4140:4226   */\n      tag_260\n        /* \"#utility.yul\":4219:4225   */\n      dup2\n        /* \"#utility.yul\":4214:4217   */\n      dup6\n        /* \"#utility.yul\":4140:4226   */\n      tag_178\n      jump\t// in\n    tag_260:\n        /* \"#utility.yul\":4133:4226   */\n      swap4\n      pop\n        /* \"#utility.yul\":4250:4306   */\n      tag_261\n        /* \"#utility.yul\":4300:4305   */\n      dup4\n        /* \"#utility.yul\":4250:4306   */\n      tag_179\n      jump\t// in\n    tag_261:\n        /* \"#utility.yul\":4329:4336   */\n      dup1\n        /* \"#utility.yul\":4360:4361   */\n      0x00\n        /* \"#utility.yul\":4345:4629   */\n    tag_262:\n        /* \"#utility.yul\":4370:4376   */\n      dup4\n        /* \"#utility.yul\":4367:4368   */\n      dup2\n        /* \"#utility.yul\":4364:4377   */\n      lt\n        /* \"#utility.yul\":4345:4629   */\n      iszero\n      tag_264\n      jumpi\n        /* \"#utility.yul\":4446:4452   */\n      dup2\n        /* \"#utility.yul\":4440:4453   */\n      mload\n        /* \"#utility.yul\":4473:4536   */\n      tag_265\n        /* \"#utility.yul\":4532:4535   */\n      dup9\n        /* \"#utility.yul\":4517:4530   */\n      dup3\n        /* \"#utility.yul\":4473:4536   */\n      tag_181\n      jump\t// in\n    tag_265:\n        /* \"#utility.yul\":4466:4536   */\n      swap8\n      pop\n        /* \"#utility.yul\":4559:4619   */\n      tag_266\n        /* \"#utility.yul\":4612:4618   */\n      dup4\n        /* \"#utility.yul\":4559:4619   */\n      tag_182\n      jump\t// in\n    tag_266:\n        /* \"#utility.yul\":4549:4619   */\n      swap3\n      pop\n        /* \"#utility.yul\":4405:4629   */\n      pop\n        /* \"#utility.yul\":4392:4393   */\n      0x01\n        /* \"#utility.yul\":4389:4390   */\n      dup2\n        /* \"#utility.yul\":4385:4394   */\n      add\n        /* \"#utility.yul\":4380:4394   */\n      swap1\n      pop\n        /* \"#utility.yul\":4345:4629   */\n      jump(tag_262)\n    tag_264:\n        /* \"#utility.yul\":4349:4363   */\n      pop\n        /* \"#utility.yul\":4645:4648   */\n      dup6\n        /* \"#utility.yul\":4638:4648   */\n      swap4\n      pop\n        /* \"#utility.yul\":4046:4654   */\n      pop\n      pop\n      pop\n        /* \"#utility.yul\":3922:4654   */\n      swap3\n      swap2\n      pop\n      pop\n      jump\t// out\n        /* \"#utility.yul\":4660:5033   */\n    tag_33:\n        /* \"#utility.yul\":4803:4807   */\n      0x00\n        /* \"#utility.yul\":4841:4843   */\n      0x20\n        /* \"#utility.yul\":4830:4839   */\n      dup3\n        /* \"#utility.yul\":4826:4844   */\n      add\n        /* \"#utility.yul\":4818:4844   */\n      swap1\n      pop\n        /* \"#utility.yul\":4890:4899   */\n      dup2\n        /* \"#utility.yul\":4884:4888   */\n      dup2\n        /* \"#utility.yul\":4880:4900   */\n      sub\n        /* \"#utility.yul\":4876:4877   */\n      0x00\n        /* \"#utility.yul\":4865:4874   */\n      dup4\n        /* \"#utility.yul\":4861:4878   */\n      add\n        /* \"#utility.yul\":4854:4901   */\n      mstore\n        /* \"#utility.yul\":4918:5026   */\n      tag_268\n        /* \"#utility.yul\":5021:5025   */\n      dup2\n        /* \"#utility.yul\":5012:5018   */\n      dup5\n        /* \"#utility.yul\":4918:5026   */\n      tag_183\n      jump\t// in\n    tag_268:\n        /* \"#utility.yul\":4910:5026   */\n      swap1\n      pop\n        /* \"#utility.yul\":4660:5033   */\n      swap3\n      swap2\n      pop\n      pop\n      jump\t// out\n        /* \"#utility.yul\":5039:5157   */\n    tag_184:\n        /* \"#utility.yul\":5126:5150   */\n      tag_270\n        /* \"#utility.yul\":5144:5149   */\n      dup2\n        /* \"#utility.yul\":5126:5150   */\n      tag_169\n      jump\t// in\n    tag_270:\n        /* \"#utility.yul\":5121:5124   */\n      dup3\n        /* \"#utility.yul\":5114:5151   */\n      mstore\n        /* \"#utility.yul\":5039:5157   */\n      pop\n      pop\n      jump\t// out\n        /* \"#utility.yul\":5163:5385   */\n    tag_38:\n        /* \"#utility.yul\":5256:5260   */\n      0x00\n        /* \"#utility.yul\":5294:5296   */\n      0x20\n        /* \"#utility.yul\":5283:5292   */\n      dup3\n        /* \"#utility.yul\":5279:5297   */\n      add\n        /* \"#utility.yul\":5271:5297   */\n      swap1\n      pop\n        /* \"#utility.yul\":5307:5378   */\n      tag_272\n        /* \"#utility.yul\":5375:5376   */\n      0x00\n        /* \"#utility.yul\":5364:5373   */\n      dup4\n        /* \"#utility.yul\":5360:5377   */\n      add\n        /* \"#utility.yul\":5351:5357   */\n      dup5\n        /* \"#utility.yul\":5307:5378   */\n      tag_184\n      jump\t// in\n    tag_272:\n        /* \"#utility.yul\":5163:5385   */\n      swap3\n      swap2\n      pop\n      pop\n      jump\t// out\n        /* \"#utility.yul\":5391:5508   */\n    tag_185:\n        /* \"#utility.yul\":5500:5501   */\n      0x00\n        /* \"#utility.yul\":5497:5498   */\n      dup1\n        /* \"#utility.yul\":5490:5502   */\n      revert\n        /* \"#utility.yul\":5514:5631   */\n    tag_186:\n        /* \"#utility.yul\":5623:5624   */\n      0x00\n        /* \"#utility.yul\":5620:5621   */\n      dup1\n        /* \"#utility.yul\":5613:5625   */\n      revert\n        /* \"#utility.yul\":5637:5754   */\n    tag_187:\n        /* \"#utility.yul\":5746:5747   */\n      0x00\n        /* \"#utility.yul\":5743:5744   */\n      dup1\n        /* \"#utility.yul\":5736:5748   */\n      revert\n        /* \"#utility.yul\":5774:6327   */\n    tag_188:\n        /* \"#utility.yul\":5832:5840   */\n      0x00\n        /* \"#utility.yul\":5842:5848   */\n      dup1\n        /* \"#utility.yul\":5892:5895   */\n      dup4\n        /* \"#utility.yul\":5885:5889   */\n      0x1f\n        /* \"#utility.yul\":5877:5883   */\n      dup5\n        /* \"#utility.yul\":5873:5890   */\n      add\n        /* \"#utility.yul\":5869:5896   */\n      slt\n        /* \"#utility.yul\":5859:5981   */\n      tag_277\n      jumpi\n        /* \"#utility.yul\":5900:5979   */\n      tag_278\n      tag_185\n      jump\t// in\n    tag_278:\n        /* \"#utility.yul\":5859:5981   */\n    tag_277:\n        /* \"#utility.yul\":6013:6019   */\n      dup3\n        /* \"#utility.yul\":6000:6020   */\n      calldataload\n        /* \"#utility.yul\":5990:6020   */\n      swap1\n      pop\n        /* \"#utility.yul\":6043:6061   */\n      0xffffffffffffffff\n        /* \"#utility.yul\":6035:6041   */\n      dup2\n        /* \"#utility.yul\":6032:6062   */\n      gt\n        /* \"#utility.yul\":6029:6146   */\n      iszero\n      tag_279\n      jumpi\n        /* \"#utility.yul\":6065:6144   */\n      tag_280\n      tag_186\n      jump\t// in\n    tag_280:\n        /* \"#utility.yul\":6029:6146   */\n    tag_279:\n        /* \"#utility.yul\":6179:6183   */\n      0x20\n        /* \"#utility.yul\":6171:6177   */\n      dup4\n        /* \"#utility.yul\":6167:6184   */\n      add\n        /* \"#utility.yul\":6155:6184   */\n      swap2\n      pop\n        /* \"#utility.yul\":6233:6236   */\n      dup4\n        /* \"#utility.yul\":6225:6229   */\n      0x01\n        /* \"#utility.yul\":6217:6223   */\n      dup3\n        /* \"#utility.yul\":6213:6230   */\n      mul\n        /* \"#utility.yul\":6203:6211   */\n      dup4\n        /* \"#utility.yul\":6199:6231   */\n      add\n        /* \"#utility.yul\":6196:6237   */\n      gt\n        /* \"#utility.yul\":6193:6321   */\n      iszero\n      tag_281\n      jumpi\n        /* \"#utility.yul\":6240:6319   */\n      tag_282\n      tag_187\n      jump\t// in\n    tag_282:\n        /* \"#utility.yul\":6193:6321   */\n    tag_281:\n        /* \"#utility.yul\":5774:6327   */\n      swap3\n      pop\n      swap3\n      swap1\n      pop\n      jump\t// out\n        /* \"#utility.yul\":6333:7152   */\n    tag_41:\n        /* \"#utility.yul\":6422:6428   */\n      0x00\n        /* \"#utility.yul\":6430:6436   */\n      dup1\n        /* \"#utility.yul\":6438:6444   */\n      0x00\n        /* \"#utility.yul\":6446:6452   */\n      dup1\n        /* \"#utility.yul\":6495:6497   */\n      0x60\n        /* \"#utility.yul\":6483:6492   */\n      dup6\n        /* \"#utility.yul\":6474:6481   */\n      dup8\n        /* \"#utility.yul\":6470:6493   */\n      sub\n        /* \"#utility.yul\":6466:6498   */\n      slt\n        /* \"#utility.yul\":6463:6582   */\n      iszero\n      tag_284\n      jumpi\n        /* \"#utility.yul\":6501:6580   */\n      tag_285\n      tag_163\n      jump\t// in\n    tag_285:\n        /* \"#utility.yul\":6463:6582   */\n    tag_284:\n        /* \"#utility.yul\":6621:6622   */\n      0x00\n        /* \"#utility.yul\":6646:6699   */\n      tag_286\n        /* \"#utility.yul\":6691:6698   */\n      dup8\n        /* \"#utility.yul\":6682:6688   */\n      dup3\n        /* \"#utility.yul\":6671:6680   */\n      dup9\n        /* \"#utility.yul\":6667:6689   */\n      add\n        /* \"#utility.yul\":6646:6699   */\n      tag_168\n      jump\t// in\n    tag_286:\n        /* \"#utility.yul\":6636:6699   */\n      swap5\n      pop\n        /* \"#utility.yul\":6592:6709   */\n      pop\n        /* \"#utility.yul\":6776:6778   */\n      0x20\n        /* \"#utility.yul\":6765:6774   */\n      dup6\n        /* \"#utility.yul\":6761:6779   */\n      add\n        /* \"#utility.yul\":6748:6780   */\n      calldataload\n        /* \"#utility.yul\":6807:6825   */\n      0xffffffffffffffff\n        /* \"#utility.yul\":6799:6805   */\n      dup2\n        /* \"#utility.yul\":6796:6826   */\n      gt\n        /* \"#utility.yul\":6793:6910   */\n      iszero\n      tag_287\n      jumpi\n        /* \"#utility.yul\":6829:6908   */\n      tag_288\n      tag_164\n      jump\t// in\n    tag_288:\n        /* \"#utility.yul\":6793:6910   */\n    tag_287:\n        /* \"#utility.yul\":6942:7007   */\n      tag_289\n        /* \"#utility.yul\":6999:7006   */\n      dup8\n        /* \"#utility.yul\":6990:6996   */\n      dup3\n        /* \"#utility.yul\":6979:6988   */\n      dup9\n        /* \"#utility.yul\":6975:6997   */\n      add\n        /* \"#utility.yul\":6942:7007   */\n      tag_188\n      jump\t// in\n    tag_289:\n        /* \"#utility.yul\":6924:7007   */\n      swap4\n      pop\n      swap4\n      pop\n        /* \"#utility.yul\":6719:7017   */\n      pop\n        /* \"#utility.yul\":7056:7058   */\n      0x40\n        /* \"#utility.yul\":7082:7135   */\n      tag_290\n        /* \"#utility.yul\":7127:7134   */\n      dup8\n        /* \"#utility.yul\":7118:7124   */\n      dup3\n        /* \"#utility.yul\":7107:7116   */\n      dup9\n        /* \"#utility.yul\":7103:7125   */\n      add\n        /* \"#utility.yul\":7082:7135   */\n      tag_176\n      jump\t// in\n    tag_290:\n        /* \"#utility.yul\":7072:7135   */\n      swap2\n      pop\n        /* \"#utility.yul\":7027:7145   */\n      pop\n        /* \"#utility.yul\":6333:7152   */\n      swap3\n      swap6\n      swap2\n      swap5\n      pop\n      swap3\n      pop\n      jump\t// out\n        /* \"#utility.yul\":7158:7777   */\n    tag_45:\n        /* \"#utility.yul\":7235:7241   */\n      0x00\n        /* \"#utility.yul\":7243:7249   */\n      dup1\n        /* \"#utility.yul\":7251:7257   */\n      0x00\n        /* \"#utility.yul\":7300:7302   */\n      0x60\n        /* \"#utility.yul\":7288:7297   */\n      dup5\n        /* \"#utility.yul\":7279:7286   */\n      dup7\n        /* \"#utility.yul\":7275:7298   */\n      sub\n        /* \"#utility.yul\":7271:7303   */\n      slt\n        /* \"#utility.yul\":7268:7387   */\n      iszero\n      tag_292\n      jumpi\n        /* \"#utility.yul\":7306:7385   */\n      tag_293\n      tag_163\n      jump\t// in\n    tag_293:\n        /* \"#utility.yul\":7268:7387   */\n    tag_292:\n        /* \"#utility.yul\":7426:7427   */\n      0x00\n        /* \"#utility.yul\":7451:7504   */\n      tag_294\n        /* \"#utility.yul\":7496:7503   */\n      dup7\n        /* \"#utility.yul\":7487:7493   */\n      dup3\n        /* \"#utility.yul\":7476:7485   */\n      dup8\n        /* \"#utility.yul\":7472:7494   */\n      add\n        /* \"#utility.yul\":7451:7504   */\n      tag_171\n      jump\t// in\n    tag_294:\n        /* \"#utility.yul\":7441:7504   */\n      swap4\n      pop\n        /* \"#utility.yul\":7397:7514   */\n      pop\n        /* \"#utility.yul\":7553:7555   */\n      0x20\n        /* \"#utility.yul\":7579:7632   */\n      tag_295\n        /* \"#utility.yul\":7624:7631   */\n      dup7\n        /* \"#utility.yul\":7615:7621   */\n      dup3\n        /* \"#utility.yul\":7604:7613   */\n      dup8\n        /* \"#utility.yul\":7600:7622   */\n      add\n        /* \"#utility.yul\":7579:7632   */\n      tag_168\n      jump\t// in\n    tag_295:\n        /* \"#utility.yul\":7569:7632   */\n      swap3\n      pop\n        /* \"#utility.yul\":7524:7642   */\n      pop\n        /* \"#utility.yul\":7681:7683   */\n      0x40\n        /* \"#utility.yul\":7707:7760   */\n      tag_296\n        /* \"#utility.yul\":7752:7759   */\n      dup7\n        /* \"#utility.yul\":7743:7749   */\n      dup3\n        /* \"#utility.yul\":7732:7741   */\n      dup8\n        /* \"#utility.yul\":7728:7750   */\n      add\n        /* \"#utility.yul\":7707:7760   */\n      tag_168\n      jump\t// in\n    tag_296:\n        /* \"#utility.yul\":7697:7760   */\n      swap2\n      pop\n        /* \"#utility.yul\":7652:7770   */\n      pop\n        /* \"#utility.yul\":7158:7777   */\n      swap3\n      pop\n      swap3\n      pop\n      swap3\n      jump\t// out\n        /* \"#utility.yul\":7783:7901   */\n    tag_189:\n        /* \"#utility.yul\":7870:7894   */\n      tag_298\n        /* \"#utility.yul\":7888:7893   */\n      dup2\n        /* \"#utility.yul\":7870:7894   */\n      tag_166\n      jump\t// in\n    tag_298:\n        /* \"#utility.yul\":7865:7868   */\n      dup3\n        /* \"#utility.yul\":7858:7895   */\n      mstore\n        /* \"#utility.yul\":7783:7901   */\n      pop\n      pop\n      jump\t// out\n        /* \"#utility.yul\":7907:8129   */\n    tag_57:\n        /* \"#utility.yul\":8000:8004   */\n      0x00\n        /* \"#utility.yul\":8038:8040   */\n      0x20\n        /* \"#utility.yul\":8027:8036   */\n      dup3\n        /* \"#utility.yul\":8023:8041   */\n      add\n        /* \"#utility.yul\":8015:8041   */\n      swap1\n      pop\n        /* \"#utility.yul\":8051:8122   */\n      tag_300\n        /* \"#utility.yul\":8119:8120   */\n      0x00\n        /* \"#utility.yul\":8108:8117   */\n      dup4\n        /* \"#utility.yul\":8104:8121   */\n      add\n        /* \"#utility.yul\":8095:8101   */\n      dup5\n        /* \"#utility.yul\":8051:8122   */\n      tag_189\n      jump\t// in\n    tag_300:\n        /* \"#utility.yul\":7907:8129   */\n      swap3\n      swap2\n      pop\n      pop\n      jump\t// out\n        /* \"#utility.yul\":8135:8609   */\n    tag_60:\n        /* \"#utility.yul\":8203:8209   */\n      0x00\n        /* \"#utility.yul\":8211:8217   */\n      dup1\n        /* \"#utility.yul\":8260:8262   */\n      0x40\n        /* \"#utility.yul\":8248:8257   */\n      dup4\n        /* \"#utility.yul\":8239:8246   */\n      dup6\n        /* \"#utility.yul\":8235:8258   */\n      sub\n        /* \"#utility.yul\":8231:8263   */\n      slt\n        /* \"#utility.yul\":8228:8347   */\n      iszero\n      tag_302\n      jumpi\n        /* \"#utility.yul\":8266:8345   */\n      tag_303\n      tag_163\n      jump\t// in\n    tag_303:\n        /* \"#utility.yul\":8228:8347   */\n    tag_302:\n        /* \"#utility.yul\":8386:8387   */\n      0x00\n        /* \"#utility.yul\":8411:8464   */\n      tag_304\n        /* \"#utility.yul\":8456:8463   */\n      dup6\n        /* \"#utility.yul\":8447:8453   */\n      dup3\n        /* \"#utility.yul\":8436:8445   */\n      dup7\n        /* \"#utility.yul\":8432:8454   */\n      add\n        /* \"#utility.yul\":8411:8464   */\n      tag_171\n      jump\t// in\n    tag_304:\n        /* \"#utility.yul\":8401:8464   */\n      swap3\n      pop\n        /* \"#utility.yul\":8357:8474   */\n      pop\n        /* \"#utility.yul\":8513:8515   */\n      0x20\n        /* \"#utility.yul\":8539:8592   */\n      tag_305\n        /* \"#utility.yul\":8584:8591   */\n      dup6\n        /* \"#utility.yul\":8575:8581   */\n      dup3\n        /* \"#utility.yul\":8564:8573   */\n      dup7\n        /* \"#utility.yul\":8560:8582   */\n      add\n        /* \"#utility.yul\":8539:8592   */\n      tag_168\n      jump\t// in\n    tag_305:\n        /* \"#utility.yul\":8529:8592   */\n      swap2\n      pop\n        /* \"#utility.yul\":8484:8602   */\n      pop\n        /* \"#utility.yul\":8135:8609   */\n      swap3\n      pop\n      swap3\n      swap1\n      pop\n      jump\t// out\n        /* \"#utility.yul\":8615:8784   */\n    tag_190:\n        /* \"#utility.yul\":8699:8710   */\n      0x00\n        /* \"#utility.yul\":8733:8739   */\n      dup3\n        /* \"#utility.yul\":8728:8731   */\n      dup3\n        /* \"#utility.yul\":8721:8740   */\n      mstore\n        /* \"#utility.yul\":8773:8777   */\n      0x20\n        /* \"#utility.yul\":8768:8771   */\n      dup3\n        /* \"#utility.yul\":8764:8778   */\n      add\n        /* \"#utility.yul\":8749:8778   */\n      swap1\n      pop\n        /* \"#utility.yul\":8615:8784   */\n      swap3\n      swap2\n      pop\n      pop\n      jump\t// out\n        /* \"#utility.yul\":8790:8951   */\n    tag_191:\n        /* \"#utility.yul\":8930:8943   */\n      0x4f776e6572206572726f72000000000000000000000000000000000000000000\n        /* \"#utility.yul\":8926:8927   */\n      0x00\n        /* \"#utility.yul\":8918:8924   */\n      dup3\n        /* \"#utility.yul\":8914:8928   */\n      add\n        /* \"#utility.yul\":8907:8944   */\n      mstore\n        /* \"#utility.yul\":8790:8951   */\n      pop\n      jump\t// out\n        /* \"#utility.yul\":8957:9323   */\n    tag_192:\n        /* \"#utility.yul\":9099:9102   */\n      0x00\n        /* \"#utility.yul\":9120:9187   */\n      tag_309\n        /* \"#utility.yul\":9184:9186   */\n      0x0b\n        /* \"#utility.yul\":9179:9182   */\n      dup4\n        /* \"#utility.yul\":9120:9187   */\n      tag_190\n      jump\t// in\n    tag_309:\n        /* \"#utility.yul\":9113:9187   */\n      swap2\n      pop\n        /* \"#utility.yul\":9196:9289   */\n      tag_310\n        /* \"#utility.yul\":9285:9288   */\n      dup3\n        /* \"#utility.yul\":9196:9289   */\n      tag_191\n      jump\t// in\n    tag_310:\n        /* \"#utility.yul\":9314:9316   */\n      0x20\n        /* \"#utility.yul\":9309:9312   */\n      dup3\n        /* \"#utility.yul\":9305:9317   */\n      add\n        /* \"#utility.yul\":9298:9317   */\n      swap1\n      pop\n        /* \"#utility.yul\":8957:9323   */\n      swap2\n      swap1\n      pop\n      jump\t// out\n        /* \"#utility.yul\":9329:9748   */\n    tag_69:\n        /* \"#utility.yul\":9495:9499   */\n      0x00\n        /* \"#utility.yul\":9533:9535   */\n      0x20\n        /* \"#utility.yul\":9522:9531   */\n      dup3\n        /* \"#utility.yul\":9518:9536   */\n      add\n        /* \"#utility.yul\":9510:9536   */\n      swap1\n      pop\n        /* \"#utility.yul\":9582:9591   */\n      dup2\n        /* \"#utility.yul\":9576:9580   */\n      dup2\n        /* \"#utility.yul\":9572:9592   */\n      sub\n        /* \"#utility.yul\":9568:9569   */\n      0x00\n        /* \"#utility.yul\":9557:9566   */\n      dup4\n        /* \"#utility.yul\":9553:9570   */\n      add\n        /* \"#utility.yul\":9546:9593   */\n      mstore\n        /* \"#utility.yul\":9610:9741   */\n      tag_312\n        /* \"#utility.yul\":9736:9740   */\n      dup2\n        /* \"#utility.yul\":9610:9741   */\n      tag_192\n      jump\t// in\n    tag_312:\n        /* \"#utility.yul\":9602:9741   */\n      swap1\n      pop\n        /* \"#utility.yul\":9329:9748   */\n      swap2\n      swap1\n      pop\n      jump\t// out\n        /* \"#utility.yul\":9754:9934   */\n    tag_193:\n        /* \"#utility.yul\":9802:9879   */\n      0x4e487b7100000000000000000000000000000000000000000000000000000000\n        /* \"#utility.yul\":9799:9800   */\n      0x00\n        /* \"#utility.yul\":9792:9880   */\n      mstore\n        /* \"#utility.yul\":9899:9903   */\n      0x12\n        /* \"#utility.yul\":9896:9897   */\n      0x04\n        /* \"#utility.yul\":9889:9904   */\n      mstore\n        /* \"#utility.yul\":9923:9927   */\n      0x24\n        /* \"#utility.yul\":9920:9921   */\n      0x00\n        /* \"#utility.yul\":9913:9928   */\n      revert\n        /* \"#utility.yul\":9940:10120   */\n    tag_194:\n        /* \"#utility.yul\":9988:10065   */\n      0x4e487b7100000000000000000000000000000000000000000000000000000000\n        /* \"#utility.yul\":9985:9986   */\n      0x00\n        /* \"#utility.yul\":9978:10066   */\n      mstore\n        /* \"#utility.yul\":10085:10089   */\n      0x11\n        /* \"#utility.yul\":10082:10083   */\n      0x04\n        /* \"#utility.yul\":10075:10090   */\n      mstore\n        /* \"#utility.yul\":10109:10113   */\n      0x24\n        /* \"#utility.yul\":10106:10107   */\n      0x00\n        /* \"#utility.yul\":10099:10114   */\n      revert\n        /* \"#utility.yul\":10126:10311   */\n    tag_76:\n        /* \"#utility.yul\":10166:10167   */\n      0x00\n        /* \"#utility.yul\":10183:10203   */\n      tag_316\n        /* \"#utility.yul\":10201:10202   */\n      dup3\n        /* \"#utility.yul\":10183:10203   */\n      tag_169\n      jump\t// in\n    tag_316:\n        /* \"#utility.yul\":10178:10203   */\n      swap2\n      pop\n        /* \"#utility.yul\":10217:10237   */\n      tag_317\n        /* \"#utility.yul\":10235:10236   */\n      dup4\n        /* \"#utility.yul\":10217:10237   */\n      tag_169\n      jump\t// in\n    tag_317:\n        /* \"#utility.yul\":10212:10237   */\n      swap3\n      pop\n        /* \"#utility.yul\":10256:10257   */\n      dup3\n        /* \"#utility.yul\":10246:10281   */\n      tag_318\n      jumpi\n        /* \"#utility.yul\":10261:10279   */\n      tag_319\n      tag_193\n      jump\t// in\n    tag_319:\n        /* \"#utility.yul\":10246:10281   */\n    tag_318:\n        /* \"#utility.yul\":10303:10304   */\n      dup3\n        /* \"#utility.yul\":10300:10301   */\n      dup3\n        /* \"#utility.yul\":10296:10305   */\n      div\n        /* \"#utility.yul\":10291:10305   */\n      swap1\n      pop\n        /* \"#utility.yul\":10126:10311   */\n      swap3\n      swap2\n      pop\n      pop\n      jump\t// out\n        /* \"#utility.yul\":10317:10622   */\n    tag_78:\n        /* \"#utility.yul\":10357:10360   */\n      0x00\n        /* \"#utility.yul\":10376:10396   */\n      tag_321\n        /* \"#utility.yul\":10394:10395   */\n      dup3\n        /* \"#utility.yul\":10376:10396   */\n      tag_169\n      jump\t// in\n    tag_321:\n        /* \"#utility.yul\":10371:10396   */\n      swap2\n      pop\n        /* \"#utility.yul\":10410:10430   */\n      tag_322\n        /* \"#utility.yul\":10428:10429   */\n      dup4\n        /* \"#utility.yul\":10410:10430   */\n      tag_169\n      jump\t// in\n    tag_322:\n        /* \"#utility.yul\":10405:10430   */\n      swap3\n      pop\n        /* \"#utility.yul\":10564:10565   */\n      dup3\n        /* \"#utility.yul\":10496:10562   */\n      0xffffffffffffffffffffffffffffffffffffffffffffffffffffffffffffffff\n        /* \"#utility.yul\":10492:10566   */\n      sub\n        /* \"#utility.yul\":10489:10490   */\n      dup3\n        /* \"#utility.yul\":10486:10567   */\n      gt\n        /* \"#utility.yul\":10483:10590   */\n      iszero\n      tag_323\n      jumpi\n        /* \"#utility.yul\":10570:10588   */\n      tag_324\n      tag_194\n      jump\t// in\n    tag_324:\n        /* \"#utility.yul\":10483:10590   */\n    tag_323:\n        /* \"#utility.yul\":10614:10615   */\n      dup3\n        /* \"#utility.yul\":10611:10612   */\n      dup3\n        /* \"#utility.yul\":10607:10616   */\n      add\n        /* \"#utility.yul\":10600:10616   */\n      swap1\n      pop\n        /* \"#utility.yul\":10317:10622   */\n      swap3\n      swap2\n      pop\n      pop\n      jump\t// out\n        /* \"#utility.yul\":10628:10790   */\n    tag_195:\n        /* \"#utility.yul\":10768:10782   */\n      0x416c726561647920766f74650000000000000000000000000000000000000000\n        /* \"#utility.yul\":10764:10765   */\n      0x00\n        /* \"#utility.yul\":10756:10762   */\n      dup3\n        /* \"#utility.yul\":10752:10766   */\n      add\n        /* \"#utility.yul\":10745:10783   */\n      mstore\n        /* \"#utility.yul\":10628:10790   */\n      pop\n      jump\t// out\n        /* \"#utility.yul\":10796:11162   */\n    tag_196:\n        /* \"#utility.yul\":10938:10941   */\n      0x00\n        /* \"#utility.yul\":10959:11026   */\n      tag_327\n        /* \"#utility.yul\":11023:11025   */\n      0x0c\n        /* \"#utility.yul\":11018:11021   */\n      dup4\n        /* \"#utility.yul\":10959:11026   */\n      tag_190\n      jump\t// in\n    tag_327:\n        /* \"#utility.yul\":10952:11026   */\n      swap2\n      pop\n        /* \"#utility.yul\":11035:11128   */\n      tag_328\n        /* \"#utility.yul\":11124:11127   */\n      dup3\n        /* \"#utility.yul\":11035:11128   */\n      tag_195\n      jump\t// in\n    tag_328:\n        /* \"#utility.yul\":11153:11155   */\n      0x20\n        /* \"#utility.yul\":11148:11151   */\n      dup3\n        /* \"#utility.yul\":11144:11156   */\n      add\n        /* \"#utility.yul\":11137:11156   */\n      swap1\n      pop\n        /* \"#utility.yul\":10796:11162   */\n      swap2\n      swap1\n      pop\n      jump\t// out\n        /* \"#utility.yul\":11168:11587   */\n    tag_84:\n        /* \"#utility.yul\":11334:11338   */\n      0x00\n        /* \"#utility.yul\":11372:11374   */\n      0x20\n        /* \"#utility.yul\":11361:11370   */\n      dup3\n        /* \"#utility.yul\":11357:11375   */\n      add\n        /* \"#utility.yul\":11349:11375   */\n      swap1\n      pop\n        /* \"#utility.yul\":11421:11430   */\n      dup2\n        /* \"#utility.yul\":11415:11419   */\n      dup2\n        /* \"#utility.yul\":11411:11431   */\n      sub\n        /* \"#utility.yul\":11407:11408   */\n      0x00\n        /* \"#utility.yul\":11396:11405   */\n      dup4\n        /* \"#utility.yul\":11392:11409   */\n      add\n        /* \"#utility.yul\":11385:11432   */\n      mstore\n        /* \"#utility.yul\":11449:11580   */\n      tag_330\n        /* \"#utility.yul\":11575:11579   */\n      dup2\n        /* \"#utility.yul\":11449:11580   */\n      tag_196\n      jump\t// in\n    tag_330:\n        /* \"#utility.yul\":11441:11580   */\n      swap1\n      pop\n        /* \"#utility.yul\":11168:11587   */\n      swap2\n      swap1\n      pop\n      jump\t// out\n        /* \"#utility.yul\":11593:11757   */\n    tag_197:\n        /* \"#utility.yul\":11733:11749   */\n      0x4e6f742073757065727669736f72000000000000000000000000000000000000\n        /* \"#utility.yul\":11729:11730   */\n      0x00\n        /* \"#utility.yul\":11721:11727   */\n      dup3\n        /* \"#utility.yul\":11717:11731   */\n      add\n        /* \"#utility.yul\":11710:11750   */\n      mstore\n        /* \"#utility.yul\":11593:11757   */\n      pop\n      jump\t// out\n        /* \"#utility.yul\":11763:12129   */\n    tag_198:\n        /* \"#utility.yul\":11905:11908   */\n      0x00\n        /* \"#utility.yul\":11926:11993   */\n      tag_333\n        /* \"#utility.yul\":11990:11992   */\n      0x0e\n        /* \"#utility.yul\":11985:11988   */\n      dup4\n        /* \"#utility.yul\":11926:11993   */\n      tag_190\n      jump\t// in\n    tag_333:\n        /* \"#utility.yul\":11919:11993   */\n      swap2\n      pop\n        /* \"#utility.yul\":12002:12095   */\n      tag_334\n        /* \"#utility.yul\":12091:12094   */\n      dup3\n        /* \"#utility.yul\":12002:12095   */\n      tag_197\n      jump\t// in\n    tag_334:\n        /* \"#utility.yul\":12120:12122   */\n      0x20\n        /* \"#utility.yul\":12115:12118   */\n      dup3\n        /* \"#utility.yul\":12111:12123   */\n      add\n        /* \"#utility.yul\":12104:12123   */\n      swap1\n      pop\n        /* \"#utility.yul\":11763:12129   */\n      swap2\n      swap1\n      pop\n      jump\t// out\n        /* \"#utility.yul\":12135:12554   */\n    tag_88:\n        /* \"#utility.yul\":12301:12305   */\n      0x00\n        /* \"#utility.yul\":12339:12341   */\n      0x20\n        /* \"#utility.yul\":12328:12337   */\n      dup3\n        /* \"#utility.yul\":12324:12342   */\n      add\n        /* \"#utility.yul\":12316:12342   */\n      swap1\n      pop\n        /* \"#utility.yul\":12388:12397   */\n      dup2\n        /* \"#utility.yul\":12382:12386   */\n      dup2\n        /* \"#utility.yul\":12378:12398   */\n      sub\n        /* \"#utility.yul\":12374:12375   */\n      0x00\n        /* \"#utility.yul\":12363:12372   */\n      dup4\n        /* \"#utility.yul\":12359:12376   */\n      add\n        /* \"#utility.yul\":12352:12399   */\n      mstore\n        /* \"#utility.yul\":12416:12547   */\n      tag_336\n        /* \"#utility.yul\":12542:12546   */\n      dup2\n        /* \"#utility.yul\":12416:12547   */\n      tag_198\n      jump\t// in\n    tag_336:\n        /* \"#utility.yul\":12408:12547   */\n      swap1\n      pop\n        /* \"#utility.yul\":12135:12554   */\n      swap2\n      swap1\n      pop\n      jump\t// out\n        /* \"#utility.yul\":12560:12714   */\n    tag_199:\n        /* \"#utility.yul\":12700:12706   */\n      0x5061737300000000000000000000000000000000000000000000000000000000\n        /* \"#utility.yul\":12696:12697   */\n      0x00\n        /* \"#utility.yul\":12688:12694   */\n      dup3\n        /* \"#utility.yul\":12684:12698   */\n      add\n        /* \"#utility.yul\":12677:12707   */\n      mstore\n        /* \"#utility.yul\":12560:12714   */\n      pop\n      jump\t// out\n        /* \"#utility.yul\":12720:13085   */\n    tag_200:\n        /* \"#utility.yul\":12862:12865   */\n      0x00\n        /* \"#utility.yul\":12883:12949   */\n      tag_339\n        /* \"#utility.yul\":12947:12948   */\n      0x04\n        /* \"#utility.yul\":12942:12945   */\n      dup4\n        /* \"#utility.yul\":12883:12949   */\n      tag_190\n      jump\t// in\n    tag_339:\n        /* \"#utility.yul\":12876:12949   */\n      swap2\n      pop\n        /* \"#utility.yul\":12958:13051   */\n      tag_340\n        /* \"#utility.yul\":13047:13050   */\n      dup3\n        /* \"#utility.yul\":12958:13051   */\n      tag_199\n      jump\t// in\n    tag_340:\n        /* \"#utility.yul\":13076:13078   */\n      0x20\n        /* \"#utility.yul\":13071:13074   */\n      dup3\n        /* \"#utility.yul\":13067:13079   */\n      add\n        /* \"#utility.yul\":13060:13079   */\n      swap1\n      pop\n        /* \"#utility.yul\":12720:13085   */\n      swap2\n      swap1\n      pop\n      jump\t// out\n        /* \"#utility.yul\":13091:13510   */\n    tag_92:\n        /* \"#utility.yul\":13257:13261   */\n      0x00\n        /* \"#utility.yul\":13295:13297   */\n      0x20\n        /* \"#utility.yul\":13284:13293   */\n      dup3\n        /* \"#utility.yul\":13280:13298   */\n      add\n        /* \"#utility.yul\":13272:13298   */\n      swap1\n      pop\n        /* \"#utility.yul\":13344:13353   */\n      dup2\n        /* \"#utility.yul\":13338:13342   */\n      dup2\n        /* \"#utility.yul\":13334:13354   */\n      sub\n        /* \"#utility.yul\":13330:13331   */\n      0x00\n        /* \"#utility.yul\":13319:13328   */\n      dup4\n        /* \"#utility.yul\":13315:13332   */\n      add\n        /* \"#utility.yul\":13308:13355   */\n      mstore\n        /* \"#utility.yul\":13372:13503   */\n      tag_342\n        /* \"#utility.yul\":13498:13502   */\n      dup2\n        /* \"#utility.yul\":13372:13503   */\n      tag_200\n      jump\t// in\n    tag_342:\n        /* \"#utility.yul\":13364:13503   */\n      swap1\n      pop\n        /* \"#utility.yul\":13091:13510   */\n      swap2\n      swap1\n      pop\n      jump\t// out\n        /* \"#utility.yul\":13516:13749   */\n    tag_94:\n        /* \"#utility.yul\":13555:13558   */\n      0x00\n        /* \"#utility.yul\":13578:13602   */\n      tag_344\n        /* \"#utility.yul\":13596:13601   */\n      dup3\n        /* \"#utility.yul\":13578:13602   */\n      tag_169\n      jump\t// in\n    tag_344:\n        /* \"#utility.yul\":13569:13602   */\n      swap2\n      pop\n        /* \"#utility.yul\":13624:13690   */\n      0xffffffffffffffffffffffffffffffffffffffffffffffffffffffffffffffff\n        /* \"#utility.yul\":13617:13622   */\n      dup3\n        /* \"#utility.yul\":13614:13691   */\n      eq\n        /* \"#utility.yul\":13611:13714   */\n      iszero\n      tag_345\n      jumpi\n        /* \"#utility.yul\":13694:13712   */\n      tag_346\n      tag_194\n      jump\t// in\n    tag_346:\n        /* \"#utility.yul\":13611:13714   */\n    tag_345:\n        /* \"#utility.yul\":13741:13742   */\n      0x01\n        /* \"#utility.yul\":13734:13739   */\n      dup3\n        /* \"#utility.yul\":13730:13743   */\n      add\n        /* \"#utility.yul\":13723:13743   */\n      swap1\n      pop\n        /* \"#utility.yul\":13516:13749   */\n      swap2\n      swap1\n      pop\n      jump\t// out\n        /* \"#utility.yul\":13755:13946   */\n    tag_101:\n        /* \"#utility.yul\":13795:13799   */\n      0x00\n        /* \"#utility.yul\":13815:13835   */\n      tag_348\n        /* \"#utility.yul\":13833:13834   */\n      dup3\n        /* \"#utility.yul\":13815:13835   */\n      tag_169\n      jump\t// in\n    tag_348:\n        /* \"#utility.yul\":13810:13835   */\n      swap2\n      pop\n        /* \"#utility.yul\":13849:13869   */\n      tag_349\n        /* \"#utility.yul\":13867:13868   */\n      dup4\n        /* \"#utility.yul\":13849:13869   */\n      tag_169\n      jump\t// in\n    tag_349:\n        /* \"#utility.yul\":13844:13869   */\n      swap3\n      pop\n        /* \"#utility.yul\":13888:13889   */\n      dup3\n        /* \"#utility.yul\":13885:13886   */\n      dup3\n        /* \"#utility.yul\":13882:13890   */\n      lt\n        /* \"#utility.yul\":13879:13913   */\n      iszero\n      tag_350\n      jumpi\n        /* \"#utility.yul\":13893:13911   */\n      tag_351\n      tag_194\n      jump\t// in\n    tag_351:\n        /* \"#utility.yul\":13879:13913   */\n    tag_350:\n        /* \"#utility.yul\":13938:13939   */\n      dup3\n        /* \"#utility.yul\":13935:13936   */\n      dup3\n        /* \"#utility.yul\":13931:13940   */\n      sub\n        /* \"#utility.yul\":13923:13940   */\n      swap1\n      pop\n        /* \"#utility.yul\":13755:13946   */\n      swap3\n      swap2\n      pop\n      pop\n      jump\t// out\n        /* \"#utility.yul\":13952:14112   */\n    tag_201:\n        /* \"#utility.yul\":14092:14104   */\n      0x4e6f742063726561746500000000000000000000000000000000000000000000\n        /* \"#utility.yul\":14088:14089   */\n      0x00\n        /* \"#utility.yul\":14080:14086   */\n      dup3\n        /* \"#utility.yul\":14076:14090   */\n      add\n        /* \"#utility.yul\":14069:14105   */\n      mstore\n        /* \"#utility.yul\":13952:14112   */\n      pop\n      jump\t// out\n        /* \"#utility.yul\":14118:14484   */\n    tag_202:\n        /* \"#utility.yul\":14260:14263   */\n      0x00\n        /* \"#utility.yul\":14281:14348   */\n      tag_354\n        /* \"#utility.yul\":14345:14347   */\n      0x0a\n        /* \"#utility.yul\":14340:14343   */\n      dup4\n        /* \"#utility.yul\":14281:14348   */\n      tag_190\n      jump\t// in\n    tag_354:\n        /* \"#utility.yul\":14274:14348   */\n      swap2\n      pop\n        /* \"#utility.yul\":14357:14450   */\n      tag_355\n        /* \"#utility.yul\":14446:14449   */\n      dup3\n        /* \"#utility.yul\":14357:14450   */\n      tag_201\n      jump\t// in\n    tag_355:\n        /* \"#utility.yul\":14475:14477   */\n      0x20\n        /* \"#utility.yul\":14470:14473   */\n      dup3\n        /* \"#utility.yul\":14466:14478   */\n      add\n        /* \"#utility.yul\":14459:14478   */\n      swap1\n      pop\n        /* \"#utility.yul\":14118:14484   */\n      swap2\n      swap1\n      pop\n      jump\t// out\n        /* \"#utility.yul\":14490:14909   */\n    tag_104:\n        /* \"#utility.yul\":14656:14660   */\n      0x00\n        /* \"#utility.yul\":14694:14696   */\n      0x20\n        /* \"#utility.yul\":14683:14692   */\n      dup3\n        /* \"#utility.yul\":14679:14697   */\n      add\n        /* \"#utility.yul\":14671:14697   */\n      swap1\n      pop\n        /* \"#utility.yul\":14743:14752   */\n      dup2\n        /* \"#utility.yul\":14737:14741   */\n      dup2\n        /* \"#utility.yul\":14733:14753   */\n      sub\n        /* \"#utility.yul\":14729:14730   */\n      0x00\n        /* \"#utility.yul\":14718:14727   */\n      dup4\n        /* \"#utility.yul\":14714:14731   */\n      add\n        /* \"#utility.yul\":14707:14754   */\n      mstore\n        /* \"#utility.yul\":14771:14902   */\n      tag_357\n        /* \"#utility.yul\":14897:14901   */\n      dup2\n        /* \"#utility.yul\":14771:14902   */\n      tag_202\n      jump\t// in\n    tag_357:\n        /* \"#utility.yul\":14763:14902   */\n      swap1\n      pop\n        /* \"#utility.yul\":14490:14909   */\n      swap2\n      swap1\n      pop\n      jump\t// out\n        /* \"#utility.yul\":14915:15072   */\n    tag_203:\n        /* \"#utility.yul\":15055:15064   */\n      0x4861642073657400000000000000000000000000000000000000000000000000\n        /* \"#utility.yul\":15051:15052   */\n      0x00\n        /* \"#utility.yul\":15043:15049   */\n      dup3\n        /* \"#utility.yul\":15039:15053   */\n      add\n        /* \"#utility.yul\":15032:15065   */\n      mstore\n        /* \"#utility.yul\":14915:15072   */\n      pop\n      jump\t// out\n        /* \"#utility.yul\":15078:15443   */\n    tag_204:\n        /* \"#utility.yul\":15220:15223   */\n      0x00\n        /* \"#utility.yul\":15241:15307   */\n      tag_360\n        /* \"#utility.yul\":15305:15306   */\n      0x07\n        /* \"#utility.yul\":15300:15303   */\n      dup4\n        /* \"#utility.yul\":15241:15307   */\n      tag_190\n      jump\t// in\n    tag_360:\n        /* \"#utility.yul\":15234:15307   */\n      swap2\n      pop\n        /* \"#utility.yul\":15316:15409   */\n      tag_361\n        /* \"#utility.yul\":15405:15408   */\n      dup3\n        /* \"#utility.yul\":15316:15409   */\n      tag_203\n      jump\t// in\n    tag_361:\n        /* \"#utility.yul\":15434:15436   */\n      0x20\n        /* \"#utility.yul\":15429:15432   */\n      dup3\n        /* \"#utility.yul\":15425:15437   */\n      add\n        /* \"#utility.yul\":15418:15437   */\n      swap1\n      pop\n        /* \"#utility.yul\":15078:15443   */\n      swap2\n      swap1\n      pop\n      jump\t// out\n        /* \"#utility.yul\":15449:15868   */\n    tag_114:\n        /* \"#utility.yul\":15615:15619   */\n      0x00\n        /* \"#utility.yul\":15653:15655   */\n      0x20\n        /* \"#utility.yul\":15642:15651   */\n      dup3\n        /* \"#utility.yul\":15638:15656   */\n      add\n        /* \"#utility.yul\":15630:15656   */\n      swap1\n      pop\n        /* \"#utility.yul\":15702:15711   */\n      dup2\n        /* \"#utility.yul\":15696:15700   */\n      dup2\n        /* \"#utility.yul\":15692:15712   */\n      sub\n        /* \"#utility.yul\":15688:15689   */\n      0x00\n        /* \"#utility.yul\":15677:15686   */\n      dup4\n        /* \"#utility.yul\":15673:15690   */\n      add\n        /* \"#utility.yul\":15666:15713   */\n      mstore\n        /* \"#utility.yul\":15730:15861   */\n      tag_363\n        /* \"#utility.yul\":15856:15860   */\n      dup2\n        /* \"#utility.yul\":15730:15861   */\n      tag_204\n      jump\t// in\n    tag_363:\n        /* \"#utility.yul\":15722:15861   */\n      swap1\n      pop\n        /* \"#utility.yul\":15449:15868   */\n      swap2\n      swap1\n      pop\n      jump\t// out\n        /* \"#utility.yul\":15874:16054   */\n    tag_123:\n        /* \"#utility.yul\":15922:15999   */\n      0x4e487b7100000000000000000000000000000000000000000000000000000000\n        /* \"#utility.yul\":15919:15920   */\n      0x00\n        /* \"#utility.yul\":15912:16000   */\n      mstore\n        /* \"#utility.yul\":16019:16023   */\n      0x32\n        /* \"#utility.yul\":16016:16017   */\n      0x04\n        /* \"#utility.yul\":16009:16024   */\n      mstore\n        /* \"#utility.yul\":16043:16047   */\n      0x24\n        /* \"#utility.yul\":16040:16041   */\n      0x00\n        /* \"#utility.yul\":16033:16048   */\n      revert\n        /* \"#utility.yul\":16060:16149   */\n    tag_205:\n        /* \"#utility.yul\":16096:16103   */\n      0x00\n        /* \"#utility.yul\":16136:16142   */\n      0xffff\n        /* \"#utility.yul\":16129:16134   */\n      dup3\n        /* \"#utility.yul\":16125:16143   */\n      and\n        /* \"#utility.yul\":16114:16143   */\n      swap1\n      pop\n        /* \"#utility.yul\":16060:16149   */\n      swap2\n      swap1\n      pop\n      jump\t// out\n        /* \"#utility.yul\":16155:16326   */\n    tag_127:\n        /* \"#utility.yul\":16193:16196   */\n      0x00\n        /* \"#utility.yul\":16216:16239   */\n      tag_367\n        /* \"#utility.yul\":16233:16238   */\n      dup3\n        /* \"#utility.yul\":16216:16239   */\n      tag_205\n      jump\t// in\n    tag_367:\n        /* \"#utility.yul\":16207:16239   */\n      swap2\n      pop\n        /* \"#utility.yul\":16261:16267   */\n      0xffff\n        /* \"#utility.yul\":16254:16259   */\n      dup3\n        /* \"#utility.yul\":16251:16268   */\n      eq\n        /* \"#utility.yul\":16248:16291   */\n      iszero\n      tag_368\n      jumpi\n        /* \"#utility.yul\":16271:16289   */\n      tag_369\n      tag_194\n      jump\t// in\n    tag_369:\n        /* \"#utility.yul\":16248:16291   */\n    tag_368:\n        /* \"#utility.yul\":16318:16319   */\n      0x01\n        /* \"#utility.yul\":16311:16316   */\n      dup3\n        /* \"#utility.yul\":16307:16320   */\n      add\n        /* \"#utility.yul\":16300:16320   */\n      swap1\n      pop\n        /* \"#utility.yul\":16155:16326   */\n      swap2\n      swap1\n      pop\n      jump\t// out\n        /* \"#utility.yul\":16332:16494   */\n    tag_206:\n        /* \"#utility.yul\":16472:16486   */\n      0x4e756d626572206572726f720000000000000000000000000000000000000000\n        /* \"#utility.yul\":16468:16469   */\n      0x00\n        /* \"#utility.yul\":16460:16466   */\n      dup3\n        /* \"#utility.yul\":16456:16470   */\n      add\n        /* \"#utility.yul\":16449:16487   */\n      mstore\n        /* \"#utility.yul\":16332:16494   */\n      pop\n      jump\t// out\n        /* \"#utility.yul\":16500:16866   */\n    tag_207:\n        /* \"#utility.yul\":16642:16645   */\n      0x00\n        /* \"#utility.yul\":16663:16730   */\n      tag_372\n        /* \"#utility.yul\":16727:16729   */\n      0x0c\n        /* \"#utility.yul\":16722:16725   */\n      dup4\n        /* \"#utility.yul\":16663:16730   */\n      tag_190\n      jump\t// in\n    tag_372:\n        /* \"#utility.yul\":16656:16730   */\n      swap2\n      pop\n        /* \"#utility.yul\":16739:16832   */\n      tag_373\n        /* \"#utility.yul\":16828:16831   */\n      dup3\n        /* \"#utility.yul\":16739:16832   */\n      tag_206\n      jump\t// in\n    tag_373:\n        /* \"#utility.yul\":16857:16859   */\n      0x20\n        /* \"#utility.yul\":16852:16855   */\n      dup3\n        /* \"#utility.yul\":16848:16860   */\n      add\n        /* \"#utility.yul\":16841:16860   */\n      swap1\n      pop\n        /* \"#utility.yul\":16500:16866   */\n      swap2\n      swap1\n      pop\n      jump\t// out\n        /* \"#utility.yul\":16872:17291   */\n    tag_133:\n        /* \"#utility.yul\":17038:17042   */\n      0x00\n        /* \"#utility.yul\":17076:17078   */\n      0x20\n        /* \"#utility.yul\":17065:17074   */\n      dup3\n        /* \"#utility.yul\":17061:17079   */\n      add\n        /* \"#utility.yul\":17053:17079   */\n      swap1\n      pop\n        /* \"#utility.yul\":17125:17134   */\n      dup2\n        /* \"#utility.yul\":17119:17123   */\n      dup2\n        /* \"#utility.yul\":17115:17135   */\n      sub\n        /* \"#utility.yul\":17111:17112   */\n      0x00\n        /* \"#utility.yul\":17100:17109   */\n      dup4\n        /* \"#utility.yul\":17096:17113   */\n      add\n        /* \"#utility.yul\":17089:17136   */\n      mstore\n        /* \"#utility.yul\":17153:17284   */\n      tag_375\n        /* \"#utility.yul\":17279:17283   */\n      dup2\n        /* \"#utility.yul\":17153:17284   */\n      tag_207\n      jump\t// in\n    tag_375:\n        /* \"#utility.yul\":17145:17284   */\n      swap1\n      pop\n        /* \"#utility.yul\":16872:17291   */\n      swap2\n      swap1\n      pop\n      jump\t// out\n        /* \"#utility.yul\":17297:17477   */\n    tag_208:\n        /* \"#utility.yul\":17345:17422   */\n      0x4e487b7100000000000000000000000000000000000000000000000000000000\n        /* \"#utility.yul\":17342:17343   */\n      0x00\n        /* \"#utility.yul\":17335:17423   */\n      mstore\n        /* \"#utility.yul\":17442:17446   */\n      0x22\n        /* \"#utility.yul\":17439:17440   */\n      0x04\n        /* \"#utility.yul\":17432:17447   */\n      mstore\n        /* \"#utility.yul\":17466:17470   */\n      0x24\n        /* \"#utility.yul\":17463:17464   */\n      0x00\n        /* \"#utility.yul\":17456:17471   */\n      revert\n        /* \"#utility.yul\":17483:17803   */\n    tag_152:\n        /* \"#utility.yul\":17527:17533   */\n      0x00\n        /* \"#utility.yul\":17564:17565   */\n      0x02\n        /* \"#utility.yul\":17558:17562   */\n      dup3\n        /* \"#utility.yul\":17554:17566   */\n      div\n        /* \"#utility.yul\":17544:17566   */\n      swap1\n      pop\n        /* \"#utility.yul\":17611:17612   */\n      0x01\n        /* \"#utility.yul\":17605:17609   */\n      dup3\n        /* \"#utility.yul\":17601:17613   */\n      and\n        /* \"#utility.yul\":17632:17650   */\n      dup1\n        /* \"#utility.yul\":17622:17703   */\n      tag_378\n      jumpi\n        /* \"#utility.yul\":17688:17692   */\n      0x7f\n        /* \"#utility.yul\":17680:17686   */\n      dup3\n        /* \"#utility.yul\":17676:17693   */\n      and\n        /* \"#utility.yul\":17666:17693   */\n      swap2\n      pop\n        /* \"#utility.yul\":17622:17703   */\n    tag_378:\n        /* \"#utility.yul\":17750:17752   */\n      0x20\n        /* \"#utility.yul\":17742:17748   */\n      dup3\n        /* \"#utility.yul\":17739:17753   */\n      lt\n        /* \"#utility.yul\":17719:17737   */\n      dup2\n        /* \"#utility.yul\":17716:17754   */\n      eq\n        /* \"#utility.yul\":17713:17797   */\n      iszero\n      tag_379\n      jumpi\n        /* \"#utility.yul\":17769:17787   */\n      tag_380\n      tag_208\n      jump\t// in\n    tag_380:\n        /* \"#utility.yul\":17713:17797   */\n    tag_379:\n        /* \"#utility.yul\":17534:17803   */\n      pop\n        /* \"#utility.yul\":17483:17803   */\n      swap2\n      swap1\n      pop\n      jump\t// out\n\n    auxdata: 0xa26469706673582212207698016f1fa99a45df4b4da4cb6dd61403a5f6d9626a1b4352c8fe2a142ac0f264736f6c63430008090033\n}\n",
				"bytecode": {
					"linkReferences": {},
					"object": "608060405234801561001057600080fd5b5033600360006101000a81548173ffffffffffffffffffffffffffffffffffffffff021916908373ffffffffffffffffffffffffffffffffffffffff16021790555061186e806100616000396000f3fe608060405234801561001057600080fd5b50600436106100b45760003560e01c80635974b4d5116100715780635974b4d51461018b57806366bba4f5146101a7578063682c0fc1146101d7578063a72124b7146101f5578063d786790514610213578063e64aa3e814610243576100b4565b80631049dc34146100b9578063158f2cae146100d55780631df058f514610105578063479c32ec146101215780634b6ab77b1461013f57806351dcf3cb1461016f575b600080fd5b6100d360048036038101906100ce9190610f2d565b61025f565b005b6100ef60048036038101906100ea9190610f90565b61036f565b6040516100fc9190610fd8565b60405180910390f35b61011f600480360381019061011a919061103b565b6103ba565b005b6101296105d2565b6040516101369190611126565b60405180910390f35b61015960048036038101906101549190610f2d565b610660565b6040516101669190611157565b60405180910390f35b610189600480360381019061018491906111d7565b6106a9565b005b6101a560048036038101906101a0919061124b565b61089a565b005b6101c160048036038101906101bc9190610f2d565b610b19565b6040516101ce9190610fd8565b60405180910390f35b6101df610bc8565b6040516101ec9190611157565b60405180910390f35b6101fd610bd1565b60405161020a91906112ad565b60405180910390f35b61022d600480360381019061022891906112c8565b610bfb565b60405161023a9190611157565b60405180910390f35b61025d60048036038101906102589190610f2d565b610c99565b005b600360009054906101000a900473ffffffffffffffffffffffffffffffffffffffff1673ffffffffffffffffffffffffffffffffffffffff163373ffffffffffffffffffffffffffffffffffffffff16146102ef576040517f08c379a00000000000000000000000000000000000000000000000000000000081526004016102e690611365565b60405180910390fd5b600115156102fc82610b19565b1515141561030957600080fd5b6002819080600181540180825580915050600190039060005260206000200160009091909190916101000a81548173ffffffffffffffffffffffffffffffffffffffff021916908373ffffffffffffffffffffffffffffffffffffffff16021790555050565b600060016002808054905061038491906113e3565b61038e9190611414565b6005600084815260200190815260200160002054106103b057600190506103b5565b600090505b919050565b60001515600660003373ffffffffffffffffffffffffffffffffffffffff1673ffffffffffffffffffffffffffffffffffffffff1681526020019081526020016000206000836fffffffffffffffffffffffffffffffff16815260200190815260200160002060009054906101000a900460ff16151514610470576040517f08c379a0000000000000000000000000000000000000000000000000000000008152600401610467906114b6565b60405180910390fd5b61047933610b19565b6104b8576040517f08c379a00000000000000000000000000000000000000000000000000000000081526004016104af90611522565b60405180910390fd5b600015156104d7826fffffffffffffffffffffffffffffffff1661036f565b151514610519576040517f08c379a00000000000000000000000000000000000000000000000000000000081526004016105109061158e565b60405180910390fd5b60056000826fffffffffffffffffffffffffffffffff168152602001908152602001600020600081548092919061054f906115ae565b91905055506001600660003373ffffffffffffffffffffffffffffffffffffffff1673ffffffffffffffffffffffffffffffffffffffff1681526020019081526020016000206000836fffffffffffffffffffffffffffffffff16815260200190815260200160002060006101000a81548160ff02191690831515021790555050565b6060600280548060200260200160405190810160405280929190818152602001828054801561065657602002820191906000526020600020905b8160009054906101000a900473ffffffffffffffffffffffffffffffffffffffff1673ffffffffffffffffffffffffffffffffffffffff168152602001906001019080831161060c575b5050505050905090565b6000600860008373ffffffffffffffffffffffffffffffffffffffff1673ffffffffffffffffffffffffffffffffffffffff168152602001908152602001600020549050919050565b6004600060016000546106bc91906115f7565b815260200190815260200160002060008573ffffffffffffffffffffffffffffffffffffffff1673ffffffffffffffffffffffffffffffffffffffff168152602001908152602001600020544210610749576040517f08c379a000000000000000000000000000000000000000000000000000000000815260040161074090611677565b60405180910390fd5b60096040518060600160405280836fffffffffffffffffffffffffffffffff168152602001426fffffffffffffffffffffffffffffffff16815260200185858080601f016020809104026020016040519081016040528093929190818152602001838380828437600081840152601f19601f82011690508083019250505050505050815250908060018154018082558091505060019003906000526020600020906002020160009091909190915060008201518160000160006101000a8154816fffffffffffffffffffffffffffffffff02191690836fffffffffffffffffffffffffffffffff16021790555060208201518160000160106101000a8154816fffffffffffffffffffffffffffffffff02191690836fffffffffffffffffffffffffffffffff1602179055506040820151816001019080519060200190610891929190610e22565b50505050505050565b600360009054906101000a900473ffffffffffffffffffffffffffffffffffffffff1673ffffffffffffffffffffffffffffffffffffffff163373ffffffffffffffffffffffffffffffffffffffff161461092a576040517f08c379a000000000000000000000000000000000000000000000000000000000815260040161092190611365565b60405180910390fd5b60001515600760008473ffffffffffffffffffffffffffffffffffffffff1673ffffffffffffffffffffffffffffffffffffffff16815260200190815260200160002060009054906101000a900460ff161515146109bd576040517f08c379a00000000000000000000000000000000000000000000000000000000081526004016109b4906116e3565b60405180910390fd5b82426109c99190611414565b600460008054815260200190815260200160002060008473ffffffffffffffffffffffffffffffffffffffff1673ffffffffffffffffffffffffffffffffffffffff16815260200190815260200160002081905550600054600860008473ffffffffffffffffffffffffffffffffffffffff1673ffffffffffffffffffffffffffffffffffffffff1681526020019081526020016000208190555080600160006101000a81548173ffffffffffffffffffffffffffffffffffffffff021916908373ffffffffffffffffffffffffffffffffffffffff1602179055506001600760008473ffffffffffffffffffffffffffffffffffffffff1673ffffffffffffffffffffffffffffffffffffffff16815260200190815260200160002060006101000a81548160ff021916908315150217905550600080815480929190610b0f906115ae565b9190505550505050565b6000805b6002805490508161ffff161015610bc15760028161ffff1681548110610b4657610b45611703565b5b9060005260206000200160009054906101000a900473ffffffffffffffffffffffffffffffffffffffff1673ffffffffffffffffffffffffffffffffffffffff168373ffffffffffffffffffffffffffffffffffffffff161415610bae576001915050610bc3565b8080610bb990611740565b915050610b1d565b505b919050565b60008054905090565b6000600160009054906101000a900473ffffffffffffffffffffffffffffffffffffffff16905090565b600080548310610c40576040517f08c379a0000000000000000000000000000000000000000000000000000000008152600401610c37906117b7565b60405180910390fd5b6004600084815260200190815260200160002060008373ffffffffffffffffffffffffffffffffffffffff1673ffffffffffffffffffffffffffffffffffffffff16815260200190815260200160002054905092915050565b600360009054906101000a900473ffffffffffffffffffffffffffffffffffffffff1673ffffffffffffffffffffffffffffffffffffffff163373ffffffffffffffffffffffffffffffffffffffff1614610d29576040517f08c379a0000000000000000000000000000000000000000000000000000000008152600401610d2090611365565b60405180910390fd5b610d3281610b19565b610d3b57600080fd5b60005b6002805490508161ffff161015610e1e5760028161ffff1681548110610d6757610d66611703565b5b9060005260206000200160009054906101000a900473ffffffffffffffffffffffffffffffffffffffff1673ffffffffffffffffffffffffffffffffffffffff168273ffffffffffffffffffffffffffffffffffffffff161415610e0b5760028161ffff1681548110610ddd57610ddc611703565b5b9060005260206000200160006101000a81549073ffffffffffffffffffffffffffffffffffffffff02191690555b8080610e1690611740565b915050610d3e565b5050565b828054610e2e90611806565b90600052602060002090601f016020900481019282610e505760008555610e97565b82601f10610e6957805160ff1916838001178555610e97565b82800160010185558215610e97579182015b82811115610e96578251825591602001919060010190610e7b565b5b509050610ea49190610ea8565b5090565b5b80821115610ec1576000816000905550600101610ea9565b5090565b600080fd5b600080fd5b600073ffffffffffffffffffffffffffffffffffffffff82169050919050565b6000610efa82610ecf565b9050919050565b610f0a81610eef565b8114610f1557600080fd5b50565b600081359050610f2781610f01565b92915050565b600060208284031215610f4357610f42610ec5565b5b6000610f5184828501610f18565b91505092915050565b6000819050919050565b610f6d81610f5a565b8114610f7857600080fd5b50565b600081359050610f8a81610f64565b92915050565b600060208284031215610fa657610fa5610ec5565b5b6000610fb484828501610f7b565b91505092915050565b60008115159050919050565b610fd281610fbd565b82525050565b6000602082019050610fed6000830184610fc9565b92915050565b60006fffffffffffffffffffffffffffffffff82169050919050565b61101881610ff3565b811461102357600080fd5b50565b6000813590506110358161100f565b92915050565b60006020828403121561105157611050610ec5565b5b600061105f84828501611026565b91505092915050565b600081519050919050565b600082825260208201905092915050565b6000819050602082019050919050565b61109d81610eef565b82525050565b60006110af8383611094565b60208301905092915050565b6000602082019050919050565b60006110d382611068565b6110dd8185611073565b93506110e883611084565b8060005b8381101561111957815161110088826110a3565b975061110b836110bb565b9250506001810190506110ec565b5085935050505092915050565b6000602082019050818103600083015261114081846110c8565b905092915050565b61115181610f5a565b82525050565b600060208201905061116c6000830184611148565b92915050565b600080fd5b600080fd5b600080fd5b60008083601f84011261119757611196611172565b5b8235905067ffffffffffffffff8111156111b4576111b3611177565b5b6020830191508360018202830111156111d0576111cf61117c565b5b9250929050565b600080600080606085870312156111f1576111f0610ec5565b5b60006111ff87828801610f18565b945050602085013567ffffffffffffffff8111156112205761121f610eca565b5b61122c87828801611181565b9350935050604061123f87828801611026565b91505092959194509250565b60008060006060848603121561126457611263610ec5565b5b600061127286828701610f7b565b935050602061128386828701610f18565b925050604061129486828701610f18565b9150509250925092565b6112a781610eef565b82525050565b60006020820190506112c2600083018461129e565b92915050565b600080604083850312156112df576112de610ec5565b5b60006112ed85828601610f7b565b92505060206112fe85828601610f18565b9150509250929050565b600082825260208201905092915050565b7f4f776e6572206572726f72000000000000000000000000000000000000000000600082015250565b600061134f600b83611308565b915061135a82611319565b602082019050919050565b6000602082019050818103600083015261137e81611342565b9050919050565b7f4e487b7100000000000000000000000000000000000000000000000000000000600052601260045260246000fd5b7f4e487b7100000000000000000000000000000000000000000000000000000000600052601160045260246000fd5b60006113ee82610f5a565b91506113f983610f5a565b92508261140957611408611385565b5b828204905092915050565b600061141f82610f5a565b915061142a83610f5a565b9250827fffffffffffffffffffffffffffffffffffffffffffffffffffffffffffffffff0382111561145f5761145e6113b4565b5b828201905092915050565b7f416c726561647920766f74650000000000000000000000000000000000000000600082015250565b60006114a0600c83611308565b91506114ab8261146a565b602082019050919050565b600060208201905081810360008301526114cf81611493565b9050919050565b7f4e6f742073757065727669736f72000000000000000000000000000000000000600082015250565b600061150c600e83611308565b9150611517826114d6565b602082019050919050565b6000602082019050818103600083015261153b816114ff565b9050919050565b7f5061737300000000000000000000000000000000000000000000000000000000600082015250565b6000611578600483611308565b915061158382611542565b602082019050919050565b600060208201905081810360008301526115a78161156b565b9050919050565b60006115b982610f5a565b91507fffffffffffffffffffffffffffffffffffffffffffffffffffffffffffffffff8214156115ec576115eb6113b4565b5b600182019050919050565b600061160282610f5a565b915061160d83610f5a565b9250828210156116205761161f6113b4565b5b828203905092915050565b7f4e6f742063726561746500000000000000000000000000000000000000000000600082015250565b6000611661600a83611308565b915061166c8261162b565b602082019050919050565b6000602082019050818103600083015261169081611654565b9050919050565b7f4861642073657400000000000000000000000000000000000000000000000000600082015250565b60006116cd600783611308565b91506116d882611697565b602082019050919050565b600060208201905081810360008301526116fc816116c0565b9050919050565b7f4e487b7100000000000000000000000000000000000000000000000000000000600052603260045260246000fd5b600061ffff82169050919050565b600061174b82611732565b915061ffff8214156117605761175f6113b4565b5b600182019050919050565b7f4e756d626572206572726f720000000000000000000000000000000000000000600082015250565b60006117a1600c83611308565b91506117ac8261176b565b602082019050919050565b600060208201905081810360008301526117d081611794565b9050919050565b7f4e487b7100000000000000000000000000000000000000000000000000000000600052602260045260246000fd5b6000600282049050600182168061181e57607f821691505b60208210811415611832576118316117d7565b5b5091905056fea26469706673582212207698016f1fa99a45df4b4da4cb6dd61403a5f6d9626a1b4352c8fe2a142ac0f264736f6c63430008090033",
					"opcodes": "PUSH1 0x80 PUSH1 0x40 MSTORE CALLVALUE DUP1 ISZERO PUSH2 0x10 JUMPI PUSH1 0x0 DUP1 REVERT JUMPDEST POP CALLER PUSH1 0x3 PUSH1 0x0 PUSH2 0x100 EXP DUP2 SLOAD DUP2 PUSH20 0xFFFFFFFFFFFFFFFFFFFFFFFFFFFFFFFFFFFFFFFF MUL NOT AND SWAP1 DUP4 PUSH20 0xFFFFFFFFFFFFFFFFFFFFFFFFFFFFFFFFFFFFFFFF AND MUL OR SWAP1 SSTORE POP PUSH2 0x186E DUP1 PUSH2 0x61 PUSH1 0x0 CODECOPY PUSH1 0x0 RETURN INVALID PUSH1 0x80 PUSH1 0x40 MSTORE CALLVALUE DUP1 ISZERO PUSH2 0x10 JUMPI PUSH1 0x0 DUP1 REVERT JUMPDEST POP PUSH1 0x4 CALLDATASIZE LT PUSH2 0xB4 JUMPI PUSH1 0x0 CALLDATALOAD PUSH1 0xE0 SHR DUP1 PUSH4 0x5974B4D5 GT PUSH2 0x71 JUMPI DUP1 PUSH4 0x5974B4D5 EQ PUSH2 0x18B JUMPI DUP1 PUSH4 0x66BBA4F5 EQ PUSH2 0x1A7 JUMPI DUP1 PUSH4 0x682C0FC1 EQ PUSH2 0x1D7 JUMPI DUP1 PUSH4 0xA72124B7 EQ PUSH2 0x1F5 JUMPI DUP1 PUSH4 0xD7867905 EQ PUSH2 0x213 JUMPI DUP1 PUSH4 0xE64AA3E8 EQ PUSH2 0x243 JUMPI PUSH2 0xB4 JUMP JUMPDEST DUP1 PUSH4 0x1049DC34 EQ PUSH2 0xB9 JUMPI DUP1 PUSH4 0x158F2CAE EQ PUSH2 0xD5 JUMPI DUP1 PUSH4 0x1DF058F5 EQ PUSH2 0x105 JUMPI DUP1 PUSH4 0x479C32EC EQ PUSH2 0x121 JUMPI DUP1 PUSH4 0x4B6AB77B EQ PUSH2 0x13F JUMPI DUP1 PUSH4 0x51DCF3CB EQ PUSH2 0x16F JUMPI JUMPDEST PUSH1 0x0 DUP1 REVERT JUMPDEST PUSH2 0xD3 PUSH1 0x4 DUP1 CALLDATASIZE SUB DUP2 ADD SWAP1 PUSH2 0xCE SWAP2 SWAP1 PUSH2 0xF2D JUMP JUMPDEST PUSH2 0x25F JUMP JUMPDEST STOP JUMPDEST PUSH2 0xEF PUSH1 0x4 DUP1 CALLDATASIZE SUB DUP2 ADD SWAP1 PUSH2 0xEA SWAP2 SWAP1 PUSH2 0xF90 JUMP JUMPDEST PUSH2 0x36F JUMP JUMPDEST PUSH1 0x40 MLOAD PUSH2 0xFC SWAP2 SWAP1 PUSH2 0xFD8 JUMP JUMPDEST PUSH1 0x40 MLOAD DUP1 SWAP2 SUB SWAP1 RETURN JUMPDEST PUSH2 0x11F PUSH1 0x4 DUP1 CALLDATASIZE SUB DUP2 ADD SWAP1 PUSH2 0x11A SWAP2 SWAP1 PUSH2 0x103B JUMP JUMPDEST PUSH2 0x3BA JUMP JUMPDEST STOP JUMPDEST PUSH2 0x129 PUSH2 0x5D2 JUMP JUMPDEST PUSH1 0x40 MLOAD PUSH2 0x136 SWAP2 SWAP1 PUSH2 0x1126 JUMP JUMPDEST PUSH1 0x40 MLOAD DUP1 SWAP2 SUB SWAP1 RETURN JUMPDEST PUSH2 0x159 PUSH1 0x4 DUP1 CALLDATASIZE SUB DUP2 ADD SWAP1 PUSH2 0x154 SWAP2 SWAP1 PUSH2 0xF2D JUMP JUMPDEST PUSH2 0x660 JUMP JUMPDEST PUSH1 0x40 MLOAD PUSH2 0x166 SWAP2 SWAP1 PUSH2 0x1157 JUMP JUMPDEST PUSH1 0x40 MLOAD DUP1 SWAP2 SUB SWAP1 RETURN JUMPDEST PUSH2 0x189 PUSH1 0x4 DUP1 CALLDATASIZE SUB DUP2 ADD SWAP1 PUSH2 0x184 SWAP2 SWAP1 PUSH2 0x11D7 JUMP JUMPDEST PUSH2 0x6A9 JUMP JUMPDEST STOP JUMPDEST PUSH2 0x1A5 PUSH1 0x4 DUP1 CALLDATASIZE SUB DUP2 ADD SWAP1 PUSH2 0x1A0 SWAP2 SWAP1 PUSH2 0x124B JUMP JUMPDEST PUSH2 0x89A JUMP JUMPDEST STOP JUMPDEST PUSH2 0x1C1 PUSH1 0x4 DUP1 CALLDATASIZE SUB DUP2 ADD SWAP1 PUSH2 0x1BC SWAP2 SWAP1 PUSH2 0xF2D JUMP JUMPDEST PUSH2 0xB19 JUMP JUMPDEST PUSH1 0x40 MLOAD PUSH2 0x1CE SWAP2 SWAP1 PUSH2 0xFD8 JUMP JUMPDEST PUSH1 0x40 MLOAD DUP1 SWAP2 SUB SWAP1 RETURN JUMPDEST PUSH2 0x1DF PUSH2 0xBC8 JUMP JUMPDEST PUSH1 0x40 MLOAD PUSH2 0x1EC SWAP2 SWAP1 PUSH2 0x1157 JUMP JUMPDEST PUSH1 0x40 MLOAD DUP1 SWAP2 SUB SWAP1 RETURN JUMPDEST PUSH2 0x1FD PUSH2 0xBD1 JUMP JUMPDEST PUSH1 0x40 MLOAD PUSH2 0x20A SWAP2 SWAP1 PUSH2 0x12AD JUMP JUMPDEST PUSH1 0x40 MLOAD DUP1 SWAP2 SUB SWAP1 RETURN JUMPDEST PUSH2 0x22D PUSH1 0x4 DUP1 CALLDATASIZE SUB DUP2 ADD SWAP1 PUSH2 0x228 SWAP2 SWAP1 PUSH2 0x12C8 JUMP JUMPDEST PUSH2 0xBFB JUMP JUMPDEST PUSH1 0x40 MLOAD PUSH2 0x23A SWAP2 SWAP1 PUSH2 0x1157 JUMP JUMPDEST PUSH1 0x40 MLOAD DUP1 SWAP2 SUB SWAP1 RETURN JUMPDEST PUSH2 0x25D PUSH1 0x4 DUP1 CALLDATASIZE SUB DUP2 ADD SWAP1 PUSH2 0x258 SWAP2 SWAP1 PUSH2 0xF2D JUMP JUMPDEST PUSH2 0xC99 JUMP JUMPDEST STOP JUMPDEST PUSH1 0x3 PUSH1 0x0 SWAP1 SLOAD SWAP1 PUSH2 0x100 EXP SWAP1 DIV PUSH20 0xFFFFFFFFFFFFFFFFFFFFFFFFFFFFFFFFFFFFFFFF AND PUSH20 0xFFFFFFFFFFFFFFFFFFFFFFFFFFFFFFFFFFFFFFFF AND CALLER PUSH20 0xFFFFFFFFFFFFFFFFFFFFFFFFFFFFFFFFFFFFFFFF AND EQ PUSH2 0x2EF JUMPI PUSH1 0x40 MLOAD PUSH32 0x8C379A000000000000000000000000000000000000000000000000000000000 DUP2 MSTORE PUSH1 0x4 ADD PUSH2 0x2E6 SWAP1 PUSH2 0x1365 JUMP JUMPDEST PUSH1 0x40 MLOAD DUP1 SWAP2 SUB SWAP1 REVERT JUMPDEST PUSH1 0x1 ISZERO ISZERO PUSH2 0x2FC DUP3 PUSH2 0xB19 JUMP JUMPDEST ISZERO ISZERO EQ ISZERO PUSH2 0x309 JUMPI PUSH1 0x0 DUP1 REVERT JUMPDEST PUSH1 0x2 DUP2 SWAP1 DUP1 PUSH1 0x1 DUP2 SLOAD ADD DUP1 DUP3 SSTORE DUP1 SWAP2 POP POP PUSH1 0x1 SWAP1 SUB SWAP1 PUSH1 0x0 MSTORE PUSH1 0x20 PUSH1 0x0 KECCAK256 ADD PUSH1 0x0 SWAP1 SWAP2 SWAP1 SWAP2 SWAP1 SWAP2 PUSH2 0x100 EXP DUP2 SLOAD DUP2 PUSH20 0xFFFFFFFFFFFFFFFFFFFFFFFFFFFFFFFFFFFFFFFF MUL NOT AND SWAP1 DUP4 PUSH20 0xFFFFFFFFFFFFFFFFFFFFFFFFFFFFFFFFFFFFFFFF AND MUL OR SWAP1 SSTORE POP POP JUMP JUMPDEST PUSH1 0x0 PUSH1 0x1 PUSH1 0x2 DUP1 DUP1 SLOAD SWAP1 POP PUSH2 0x384 SWAP2 SWAP1 PUSH2 0x13E3 JUMP JUMPDEST PUSH2 0x38E SWAP2 SWAP1 PUSH2 0x1414 JUMP JUMPDEST PUSH1 0x5 PUSH1 0x0 DUP5 DUP2 MSTORE PUSH1 0x20 ADD SWAP1 DUP2 MSTORE PUSH1 0x20 ADD PUSH1 0x0 KECCAK256 SLOAD LT PUSH2 0x3B0 JUMPI PUSH1 0x1 SWAP1 POP PUSH2 0x3B5 JUMP JUMPDEST PUSH1 0x0 SWAP1 POP JUMPDEST SWAP2 SWAP1 POP JUMP JUMPDEST PUSH1 0x0 ISZERO ISZERO PUSH1 0x6 PUSH1 0x0 CALLER PUSH20 0xFFFFFFFFFFFFFFFFFFFFFFFFFFFFFFFFFFFFFFFF AND PUSH20 0xFFFFFFFFFFFFFFFFFFFFFFFFFFFFFFFFFFFFFFFF AND DUP2 MSTORE PUSH1 0x20 ADD SWAP1 DUP2 MSTORE PUSH1 0x20 ADD PUSH1 0x0 KECCAK256 PUSH1 0x0 DUP4 PUSH16 0xFFFFFFFFFFFFFFFFFFFFFFFFFFFFFFFF AND DUP2 MSTORE PUSH1 0x20 ADD SWAP1 DUP2 MSTORE PUSH1 0x20 ADD PUSH1 0x0 KECCAK256 PUSH1 0x0 SWAP1 SLOAD SWAP1 PUSH2 0x100 EXP SWAP1 DIV PUSH1 0xFF AND ISZERO ISZERO EQ PUSH2 0x470 JUMPI PUSH1 0x40 MLOAD PUSH32 0x8C379A000000000000000000000000000000000000000000000000000000000 DUP2 MSTORE PUSH1 0x4 ADD PUSH2 0x467 SWAP1 PUSH2 0x14B6 JUMP JUMPDEST PUSH1 0x40 MLOAD DUP1 SWAP2 SUB SWAP1 REVERT JUMPDEST PUSH2 0x479 CALLER PUSH2 0xB19 JUMP JUMPDEST PUSH2 0x4B8 JUMPI PUSH1 0x40 MLOAD PUSH32 0x8C379A000000000000000000000000000000000000000000000000000000000 DUP2 MSTORE PUSH1 0x4 ADD PUSH2 0x4AF SWAP1 PUSH2 0x1522 JUMP JUMPDEST PUSH1 0x40 MLOAD DUP1 SWAP2 SUB SWAP1 REVERT JUMPDEST PUSH1 0x0 ISZERO ISZERO PUSH2 0x4D7 DUP3 PUSH16 0xFFFFFFFFFFFFFFFFFFFFFFFFFFFFFFFF AND PUSH2 0x36F JUMP JUMPDEST ISZERO ISZERO EQ PUSH2 0x519 JUMPI PUSH1 0x40 MLOAD PUSH32 0x8C379A000000000000000000000000000000000000000000000000000000000 DUP2 MSTORE PUSH1 0x4 ADD PUSH2 0x510 SWAP1 PUSH2 0x158E JUMP JUMPDEST PUSH1 0x40 MLOAD DUP1 SWAP2 SUB SWAP1 REVERT JUMPDEST PUSH1 0x5 PUSH1 0x0 DUP3 PUSH16 0xFFFFFFFFFFFFFFFFFFFFFFFFFFFFFFFF AND DUP2 MSTORE PUSH1 0x20 ADD SWAP1 DUP2 MSTORE PUSH1 0x20 ADD PUSH1 0x0 KECCAK256 PUSH1 0x0 DUP2 SLOAD DUP1 SWAP3 SWAP2 SWAP1 PUSH2 0x54F SWAP1 PUSH2 0x15AE JUMP JUMPDEST SWAP2 SWAP1 POP SSTORE POP PUSH1 0x1 PUSH1 0x6 PUSH1 0x0 CALLER PUSH20 0xFFFFFFFFFFFFFFFFFFFFFFFFFFFFFFFFFFFFFFFF AND PUSH20 0xFFFFFFFFFFFFFFFFFFFFFFFFFFFFFFFFFFFFFFFF AND DUP2 MSTORE PUSH1 0x20 ADD SWAP1 DUP2 MSTORE PUSH1 0x20 ADD PUSH1 0x0 KECCAK256 PUSH1 0x0 DUP4 PUSH16 0xFFFFFFFFFFFFFFFFFFFFFFFFFFFFFFFF AND DUP2 MSTORE PUSH1 0x20 ADD SWAP1 DUP2 MSTORE PUSH1 0x20 ADD PUSH1 0x0 KECCAK256 PUSH1 0x0 PUSH2 0x100 EXP DUP2 SLOAD DUP2 PUSH1 0xFF MUL NOT AND SWAP1 DUP4 ISZERO ISZERO MUL OR SWAP1 SSTORE POP POP JUMP JUMPDEST PUSH1 0x60 PUSH1 0x2 DUP1 SLOAD DUP1 PUSH1 0x20 MUL PUSH1 0x20 ADD PUSH1 0x40 MLOAD SWAP1 DUP2 ADD PUSH1 0x40 MSTORE DUP1 SWAP3 SWAP2 SWAP1 DUP2 DUP2 MSTORE PUSH1 0x20 ADD DUP3 DUP1 SLOAD DUP1 ISZERO PUSH2 0x656 JUMPI PUSH1 0x20 MUL DUP3 ADD SWAP2 SWAP1 PUSH1 0x0 MSTORE PUSH1 0x20 PUSH1 0x0 KECCAK256 SWAP1 JUMPDEST DUP2 PUSH1 0x0 SWAP1 SLOAD SWAP1 PUSH2 0x100 EXP SWAP1 DIV PUSH20 0xFFFFFFFFFFFFFFFFFFFFFFFFFFFFFFFFFFFFFFFF AND PUSH20 0xFFFFFFFFFFFFFFFFFFFFFFFFFFFFFFFFFFFFFFFF AND DUP2 MSTORE PUSH1 0x20 ADD SWAP1 PUSH1 0x1 ADD SWAP1 DUP1 DUP4 GT PUSH2 0x60C JUMPI JUMPDEST POP POP POP POP POP SWAP1 POP SWAP1 JUMP JUMPDEST PUSH1 0x0 PUSH1 0x8 PUSH1 0x0 DUP4 PUSH20 0xFFFFFFFFFFFFFFFFFFFFFFFFFFFFFFFFFFFFFFFF AND PUSH20 0xFFFFFFFFFFFFFFFFFFFFFFFFFFFFFFFFFFFFFFFF AND DUP2 MSTORE PUSH1 0x20 ADD SWAP1 DUP2 MSTORE PUSH1 0x20 ADD PUSH1 0x0 KECCAK256 SLOAD SWAP1 POP SWAP2 SWAP1 POP JUMP JUMPDEST PUSH1 0x4 PUSH1 0x0 PUSH1 0x1 PUSH1 0x0 SLOAD PUSH2 0x6BC SWAP2 SWAP1 PUSH2 0x15F7 JUMP JUMPDEST DUP2 MSTORE PUSH1 0x20 ADD SWAP1 DUP2 MSTORE PUSH1 0x20 ADD PUSH1 0x0 KECCAK256 PUSH1 0x0 DUP6 PUSH20 0xFFFFFFFFFFFFFFFFFFFFFFFFFFFFFFFFFFFFFFFF AND PUSH20 0xFFFFFFFFFFFFFFFFFFFFFFFFFFFFFFFFFFFFFFFF AND DUP2 MSTORE PUSH1 0x20 ADD SWAP1 DUP2 MSTORE PUSH1 0x20 ADD PUSH1 0x0 KECCAK256 SLOAD TIMESTAMP LT PUSH2 0x749 JUMPI PUSH1 0x40 MLOAD PUSH32 0x8C379A000000000000000000000000000000000000000000000000000000000 DUP2 MSTORE PUSH1 0x4 ADD PUSH2 0x740 SWAP1 PUSH2 0x1677 JUMP JUMPDEST PUSH1 0x40 MLOAD DUP1 SWAP2 SUB SWAP1 REVERT JUMPDEST PUSH1 0x9 PUSH1 0x40 MLOAD DUP1 PUSH1 0x60 ADD PUSH1 0x40 MSTORE DUP1 DUP4 PUSH16 0xFFFFFFFFFFFFFFFFFFFFFFFFFFFFFFFF AND DUP2 MSTORE PUSH1 0x20 ADD TIMESTAMP PUSH16 0xFFFFFFFFFFFFFFFFFFFFFFFFFFFFFFFF AND DUP2 MSTORE PUSH1 0x20 ADD DUP6 DUP6 DUP1 DUP1 PUSH1 0x1F ADD PUSH1 0x20 DUP1 SWAP2 DIV MUL PUSH1 0x20 ADD PUSH1 0x40 MLOAD SWAP1 DUP2 ADD PUSH1 0x40 MSTORE DUP1 SWAP4 SWAP3 SWAP2 SWAP1 DUP2 DUP2 MSTORE PUSH1 0x20 ADD DUP4 DUP4 DUP1 DUP3 DUP5 CALLDATACOPY PUSH1 0x0 DUP2 DUP5 ADD MSTORE PUSH1 0x1F NOT PUSH1 0x1F DUP3 ADD AND SWAP1 POP DUP1 DUP4 ADD SWAP3 POP POP POP POP POP POP POP DUP2 MSTORE POP SWAP1 DUP1 PUSH1 0x1 DUP2 SLOAD ADD DUP1 DUP3 SSTORE DUP1 SWAP2 POP POP PUSH1 0x1 SWAP1 SUB SWAP1 PUSH1 0x0 MSTORE PUSH1 0x20 PUSH1 0x0 KECCAK256 SWAP1 PUSH1 0x2 MUL ADD PUSH1 0x0 SWAP1 SWAP2 SWAP1 SWAP2 SWAP1 SWAP2 POP PUSH1 0x0 DUP3 ADD MLOAD DUP2 PUSH1 0x0 ADD PUSH1 0x0 PUSH2 0x100 EXP DUP2 SLOAD DUP2 PUSH16 0xFFFFFFFFFFFFFFFFFFFFFFFFFFFFFFFF MUL NOT AND SWAP1 DUP4 PUSH16 0xFFFFFFFFFFFFFFFFFFFFFFFFFFFFFFFF AND MUL OR SWAP1 SSTORE POP PUSH1 0x20 DUP3 ADD MLOAD DUP2 PUSH1 0x0 ADD PUSH1 0x10 PUSH2 0x100 EXP DUP2 SLOAD DUP2 PUSH16 0xFFFFFFFFFFFFFFFFFFFFFFFFFFFFFFFF MUL NOT AND SWAP1 DUP4 PUSH16 0xFFFFFFFFFFFFFFFFFFFFFFFFFFFFFFFF AND MUL OR SWAP1 SSTORE POP PUSH1 0x40 DUP3 ADD MLOAD DUP2 PUSH1 0x1 ADD SWAP1 DUP1 MLOAD SWAP1 PUSH1 0x20 ADD SWAP1 PUSH2 0x891 SWAP3 SWAP2 SWAP1 PUSH2 0xE22 JUMP JUMPDEST POP POP POP POP POP POP POP JUMP JUMPDEST PUSH1 0x3 PUSH1 0x0 SWAP1 SLOAD SWAP1 PUSH2 0x100 EXP SWAP1 DIV PUSH20 0xFFFFFFFFFFFFFFFFFFFFFFFFFFFFFFFFFFFFFFFF AND PUSH20 0xFFFFFFFFFFFFFFFFFFFFFFFFFFFFFFFFFFFFFFFF AND CALLER PUSH20 0xFFFFFFFFFFFFFFFFFFFFFFFFFFFFFFFFFFFFFFFF AND EQ PUSH2 0x92A JUMPI PUSH1 0x40 MLOAD PUSH32 0x8C379A000000000000000000000000000000000000000000000000000000000 DUP2 MSTORE PUSH1 0x4 ADD PUSH2 0x921 SWAP1 PUSH2 0x1365 JUMP JUMPDEST PUSH1 0x40 MLOAD DUP1 SWAP2 SUB SWAP1 REVERT JUMPDEST PUSH1 0x0 ISZERO ISZERO PUSH1 0x7 PUSH1 0x0 DUP5 PUSH20 0xFFFFFFFFFFFFFFFFFFFFFFFFFFFFFFFFFFFFFFFF AND PUSH20 0xFFFFFFFFFFFFFFFFFFFFFFFFFFFFFFFFFFFFFFFF AND DUP2 MSTORE PUSH1 0x20 ADD SWAP1 DUP2 MSTORE PUSH1 0x20 ADD PUSH1 0x0 KECCAK256 PUSH1 0x0 SWAP1 SLOAD SWAP1 PUSH2 0x100 EXP SWAP1 DIV PUSH1 0xFF AND ISZERO ISZERO EQ PUSH2 0x9BD JUMPI PUSH1 0x40 MLOAD PUSH32 0x8C379A000000000000000000000000000000000000000000000000000000000 DUP2 MSTORE PUSH1 0x4 ADD PUSH2 0x9B4 SWAP1 PUSH2 0x16E3 JUMP JUMPDEST PUSH1 0x40 MLOAD DUP1 SWAP2 SUB SWAP1 REVERT JUMPDEST DUP3 TIMESTAMP PUSH2 0x9C9 SWAP2 SWAP1 PUSH2 0x1414 JUMP JUMPDEST PUSH1 0x4 PUSH1 0x0 DUP1 SLOAD DUP2 MSTORE PUSH1 0x20 ADD SWAP1 DUP2 MSTORE PUSH1 0x20 ADD PUSH1 0x0 KECCAK256 PUSH1 0x0 DUP5 PUSH20 0xFFFFFFFFFFFFFFFFFFFFFFFFFFFFFFFFFFFFFFFF AND PUSH20 0xFFFFFFFFFFFFFFFFFFFFFFFFFFFFFFFFFFFFFFFF AND DUP2 MSTORE PUSH1 0x20 ADD SWAP1 DUP2 MSTORE PUSH1 0x20 ADD PUSH1 0x0 KECCAK256 DUP2 SWAP1 SSTORE POP PUSH1 0x0 SLOAD PUSH1 0x8 PUSH1 0x0 DUP5 PUSH20 0xFFFFFFFFFFFFFFFFFFFFFFFFFFFFFFFFFFFFFFFF AND PUSH20 0xFFFFFFFFFFFFFFFFFFFFFFFFFFFFFFFFFFFFFFFF AND DUP2 MSTORE PUSH1 0x20 ADD SWAP1 DUP2 MSTORE PUSH1 0x20 ADD PUSH1 0x0 KECCAK256 DUP2 SWAP1 SSTORE POP DUP1 PUSH1 0x1 PUSH1 0x0 PUSH2 0x100 EXP DUP2 SLOAD DUP2 PUSH20 0xFFFFFFFFFFFFFFFFFFFFFFFFFFFFFFFFFFFFFFFF MUL NOT AND SWAP1 DUP4 PUSH20 0xFFFFFFFFFFFFFFFFFFFFFFFFFFFFFFFFFFFFFFFF AND MUL OR SWAP1 SSTORE POP PUSH1 0x1 PUSH1 0x7 PUSH1 0x0 DUP5 PUSH20 0xFFFFFFFFFFFFFFFFFFFFFFFFFFFFFFFFFFFFFFFF AND PUSH20 0xFFFFFFFFFFFFFFFFFFFFFFFFFFFFFFFFFFFFFFFF AND DUP2 MSTORE PUSH1 0x20 ADD SWAP1 DUP2 MSTORE PUSH1 0x20 ADD PUSH1 0x0 KECCAK256 PUSH1 0x0 PUSH2 0x100 EXP DUP2 SLOAD DUP2 PUSH1 0xFF MUL NOT AND SWAP1 DUP4 ISZERO ISZERO MUL OR SWAP1 SSTORE POP PUSH1 0x0 DUP1 DUP2 SLOAD DUP1 SWAP3 SWAP2 SWAP1 PUSH2 0xB0F SWAP1 PUSH2 0x15AE JUMP JUMPDEST SWAP2 SWAP1 POP SSTORE POP POP POP POP JUMP JUMPDEST PUSH1 0x0 DUP1 JUMPDEST PUSH1 0x2 DUP1 SLOAD SWAP1 POP DUP2 PUSH2 0xFFFF AND LT ISZERO PUSH2 0xBC1 JUMPI PUSH1 0x2 DUP2 PUSH2 0xFFFF AND DUP2 SLOAD DUP2 LT PUSH2 0xB46 JUMPI PUSH2 0xB45 PUSH2 0x1703 JUMP JUMPDEST JUMPDEST SWAP1 PUSH1 0x0 MSTORE PUSH1 0x20 PUSH1 0x0 KECCAK256 ADD PUSH1 0x0 SWAP1 SLOAD SWAP1 PUSH2 0x100 EXP SWAP1 DIV PUSH20 0xFFFFFFFFFFFFFFFFFFFFFFFFFFFFFFFFFFFFFFFF AND PUSH20 0xFFFFFFFFFFFFFFFFFFFFFFFFFFFFFFFFFFFFFFFF AND DUP4 PUSH20 0xFFFFFFFFFFFFFFFFFFFFFFFFFFFFFFFFFFFFFFFF AND EQ ISZERO PUSH2 0xBAE JUMPI PUSH1 0x1 SWAP2 POP POP PUSH2 0xBC3 JUMP JUMPDEST DUP1 DUP1 PUSH2 0xBB9 SWAP1 PUSH2 0x1740 JUMP JUMPDEST SWAP2 POP POP PUSH2 0xB1D JUMP JUMPDEST POP JUMPDEST SWAP2 SWAP1 POP JUMP JUMPDEST PUSH1 0x0 DUP1 SLOAD SWAP1 POP SWAP1 JUMP JUMPDEST PUSH1 0x0 PUSH1 0x1 PUSH1 0x0 SWAP1 SLOAD SWAP1 PUSH2 0x100 EXP SWAP1 DIV PUSH20 0xFFFFFFFFFFFFFFFFFFFFFFFFFFFFFFFFFFFFFFFF AND SWAP1 POP SWAP1 JUMP JUMPDEST PUSH1 0x0 DUP1 SLOAD DUP4 LT PUSH2 0xC40 JUMPI PUSH1 0x40 MLOAD PUSH32 0x8C379A000000000000000000000000000000000000000000000000000000000 DUP2 MSTORE PUSH1 0x4 ADD PUSH2 0xC37 SWAP1 PUSH2 0x17B7 JUMP JUMPDEST PUSH1 0x40 MLOAD DUP1 SWAP2 SUB SWAP1 REVERT JUMPDEST PUSH1 0x4 PUSH1 0x0 DUP5 DUP2 MSTORE PUSH1 0x20 ADD SWAP1 DUP2 MSTORE PUSH1 0x20 ADD PUSH1 0x0 KECCAK256 PUSH1 0x0 DUP4 PUSH20 0xFFFFFFFFFFFFFFFFFFFFFFFFFFFFFFFFFFFFFFFF AND PUSH20 0xFFFFFFFFFFFFFFFFFFFFFFFFFFFFFFFFFFFFFFFF AND DUP2 MSTORE PUSH1 0x20 ADD SWAP1 DUP2 MSTORE PUSH1 0x20 ADD PUSH1 0x0 KECCAK256 SLOAD SWAP1 POP SWAP3 SWAP2 POP POP JUMP JUMPDEST PUSH1 0x3 PUSH1 0x0 SWAP1 SLOAD SWAP1 PUSH2 0x100 EXP SWAP1 DIV PUSH20 0xFFFFFFFFFFFFFFFFFFFFFFFFFFFFFFFFFFFFFFFF AND PUSH20 0xFFFFFFFFFFFFFFFFFFFFFFFFFFFFFFFFFFFFFFFF AND CALLER PUSH20 0xFFFFFFFFFFFFFFFFFFFFFFFFFFFFFFFFFFFFFFFF AND EQ PUSH2 0xD29 JUMPI PUSH1 0x40 MLOAD PUSH32 0x8C379A000000000000000000000000000000000000000000000000000000000 DUP2 MSTORE PUSH1 0x4 ADD PUSH2 0xD20 SWAP1 PUSH2 0x1365 JUMP JUMPDEST PUSH1 0x40 MLOAD DUP1 SWAP2 SUB SWAP1 REVERT JUMPDEST PUSH2 0xD32 DUP2 PUSH2 0xB19 JUMP JUMPDEST PUSH2 0xD3B JUMPI PUSH1 0x0 DUP1 REVERT JUMPDEST PUSH1 0x0 JUMPDEST PUSH1 0x2 DUP1 SLOAD SWAP1 POP DUP2 PUSH2 0xFFFF AND LT ISZERO PUSH2 0xE1E JUMPI PUSH1 0x2 DUP2 PUSH2 0xFFFF AND DUP2 SLOAD DUP2 LT PUSH2 0xD67 JUMPI PUSH2 0xD66 PUSH2 0x1703 JUMP JUMPDEST JUMPDEST SWAP1 PUSH1 0x0 MSTORE PUSH1 0x20 PUSH1 0x0 KECCAK256 ADD PUSH1 0x0 SWAP1 SLOAD SWAP1 PUSH2 0x100 EXP SWAP1 DIV PUSH20 0xFFFFFFFFFFFFFFFFFFFFFFFFFFFFFFFFFFFFFFFF AND PUSH20 0xFFFFFFFFFFFFFFFFFFFFFFFFFFFFFFFFFFFFFFFF AND DUP3 PUSH20 0xFFFFFFFFFFFFFFFFFFFFFFFFFFFFFFFFFFFFFFFF AND EQ ISZERO PUSH2 0xE0B JUMPI PUSH1 0x2 DUP2 PUSH2 0xFFFF AND DUP2 SLOAD DUP2 LT PUSH2 0xDDD JUMPI PUSH2 0xDDC PUSH2 0x1703 JUMP JUMPDEST JUMPDEST SWAP1 PUSH1 0x0 MSTORE PUSH1 0x20 PUSH1 0x0 KECCAK256 ADD PUSH1 0x0 PUSH2 0x100 EXP DUP2 SLOAD SWAP1 PUSH20 0xFFFFFFFFFFFFFFFFFFFFFFFFFFFFFFFFFFFFFFFF MUL NOT AND SWAP1 SSTORE JUMPDEST DUP1 DUP1 PUSH2 0xE16 SWAP1 PUSH2 0x1740 JUMP JUMPDEST SWAP2 POP POP PUSH2 0xD3E JUMP JUMPDEST POP POP JUMP JUMPDEST DUP3 DUP1 SLOAD PUSH2 0xE2E SWAP1 PUSH2 0x1806 JUMP JUMPDEST SWAP1 PUSH1 0x0 MSTORE PUSH1 0x20 PUSH1 0x0 KECCAK256 SWAP1 PUSH1 0x1F ADD PUSH1 0x20 SWAP1 DIV DUP2 ADD SWAP3 DUP3 PUSH2 0xE50 JUMPI PUSH1 0x0 DUP6 SSTORE PUSH2 0xE97 JUMP JUMPDEST DUP3 PUSH1 0x1F LT PUSH2 0xE69 JUMPI DUP1 MLOAD PUSH1 0xFF NOT AND DUP4 DUP1 ADD OR DUP6 SSTORE PUSH2 0xE97 JUMP JUMPDEST DUP3 DUP1 ADD PUSH1 0x1 ADD DUP6 SSTORE DUP3 ISZERO PUSH2 0xE97 JUMPI SWAP2 DUP3 ADD JUMPDEST DUP3 DUP2 GT ISZERO PUSH2 0xE96 JUMPI DUP3 MLOAD DUP3 SSTORE SWAP2 PUSH1 0x20 ADD SWAP2 SWAP1 PUSH1 0x1 ADD SWAP1 PUSH2 0xE7B JUMP JUMPDEST JUMPDEST POP SWAP1 POP PUSH2 0xEA4 SWAP2 SWAP1 PUSH2 0xEA8 JUMP JUMPDEST POP SWAP1 JUMP JUMPDEST JUMPDEST DUP1 DUP3 GT ISZERO PUSH2 0xEC1 JUMPI PUSH1 0x0 DUP2 PUSH1 0x0 SWAP1 SSTORE POP PUSH1 0x1 ADD PUSH2 0xEA9 JUMP JUMPDEST POP SWAP1 JUMP JUMPDEST PUSH1 0x0 DUP1 REVERT JUMPDEST PUSH1 0x0 DUP1 REVERT JUMPDEST PUSH1 0x0 PUSH20 0xFFFFFFFFFFFFFFFFFFFFFFFFFFFFFFFFFFFFFFFF DUP3 AND SWAP1 POP SWAP2 SWAP1 POP JUMP JUMPDEST PUSH1 0x0 PUSH2 0xEFA DUP3 PUSH2 0xECF JUMP JUMPDEST SWAP1 POP SWAP2 SWAP1 POP JUMP JUMPDEST PUSH2 0xF0A DUP2 PUSH2 0xEEF JUMP JUMPDEST DUP2 EQ PUSH2 0xF15 JUMPI PUSH1 0x0 DUP1 REVERT JUMPDEST POP JUMP JUMPDEST PUSH1 0x0 DUP2 CALLDATALOAD SWAP1 POP PUSH2 0xF27 DUP2 PUSH2 0xF01 JUMP JUMPDEST SWAP3 SWAP2 POP POP JUMP JUMPDEST PUSH1 0x0 PUSH1 0x20 DUP3 DUP5 SUB SLT ISZERO PUSH2 0xF43 JUMPI PUSH2 0xF42 PUSH2 0xEC5 JUMP JUMPDEST JUMPDEST PUSH1 0x0 PUSH2 0xF51 DUP5 DUP3 DUP6 ADD PUSH2 0xF18 JUMP JUMPDEST SWAP2 POP POP SWAP3 SWAP2 POP POP JUMP JUMPDEST PUSH1 0x0 DUP2 SWAP1 POP SWAP2 SWAP1 POP JUMP JUMPDEST PUSH2 0xF6D DUP2 PUSH2 0xF5A JUMP JUMPDEST DUP2 EQ PUSH2 0xF78 JUMPI PUSH1 0x0 DUP1 REVERT JUMPDEST POP JUMP JUMPDEST PUSH1 0x0 DUP2 CALLDATALOAD SWAP1 POP PUSH2 0xF8A DUP2 PUSH2 0xF64 JUMP JUMPDEST SWAP3 SWAP2 POP POP JUMP JUMPDEST PUSH1 0x0 PUSH1 0x20 DUP3 DUP5 SUB SLT ISZERO PUSH2 0xFA6 JUMPI PUSH2 0xFA5 PUSH2 0xEC5 JUMP JUMPDEST JUMPDEST PUSH1 0x0 PUSH2 0xFB4 DUP5 DUP3 DUP6 ADD PUSH2 0xF7B JUMP JUMPDEST SWAP2 POP POP SWAP3 SWAP2 POP POP JUMP JUMPDEST PUSH1 0x0 DUP2 ISZERO ISZERO SWAP1 POP SWAP2 SWAP1 POP JUMP JUMPDEST PUSH2 0xFD2 DUP2 PUSH2 0xFBD JUMP JUMPDEST DUP3 MSTORE POP POP JUMP JUMPDEST PUSH1 0x0 PUSH1 0x20 DUP3 ADD SWAP1 POP PUSH2 0xFED PUSH1 0x0 DUP4 ADD DUP5 PUSH2 0xFC9 JUMP JUMPDEST SWAP3 SWAP2 POP POP JUMP JUMPDEST PUSH1 0x0 PUSH16 0xFFFFFFFFFFFFFFFFFFFFFFFFFFFFFFFF DUP3 AND SWAP1 POP SWAP2 SWAP1 POP JUMP JUMPDEST PUSH2 0x1018 DUP2 PUSH2 0xFF3 JUMP JUMPDEST DUP2 EQ PUSH2 0x1023 JUMPI PUSH1 0x0 DUP1 REVERT JUMPDEST POP JUMP JUMPDEST PUSH1 0x0 DUP2 CALLDATALOAD SWAP1 POP PUSH2 0x1035 DUP2 PUSH2 0x100F JUMP JUMPDEST SWAP3 SWAP2 POP POP JUMP JUMPDEST PUSH1 0x0 PUSH1 0x20 DUP3 DUP5 SUB SLT ISZERO PUSH2 0x1051 JUMPI PUSH2 0x1050 PUSH2 0xEC5 JUMP JUMPDEST JUMPDEST PUSH1 0x0 PUSH2 0x105F DUP5 DUP3 DUP6 ADD PUSH2 0x1026 JUMP JUMPDEST SWAP2 POP POP SWAP3 SWAP2 POP POP JUMP JUMPDEST PUSH1 0x0 DUP2 MLOAD SWAP1 POP SWAP2 SWAP1 POP JUMP JUMPDEST PUSH1 0x0 DUP3 DUP3 MSTORE PUSH1 0x20 DUP3 ADD SWAP1 POP SWAP3 SWAP2 POP POP JUMP JUMPDEST PUSH1 0x0 DUP2 SWAP1 POP PUSH1 0x20 DUP3 ADD SWAP1 POP SWAP2 SWAP1 POP JUMP JUMPDEST PUSH2 0x109D DUP2 PUSH2 0xEEF JUMP JUMPDEST DUP3 MSTORE POP POP JUMP JUMPDEST PUSH1 0x0 PUSH2 0x10AF DUP4 DUP4 PUSH2 0x1094 JUMP JUMPDEST PUSH1 0x20 DUP4 ADD SWAP1 POP SWAP3 SWAP2 POP POP JUMP JUMPDEST PUSH1 0x0 PUSH1 0x20 DUP3 ADD SWAP1 POP SWAP2 SWAP1 POP JUMP JUMPDEST PUSH1 0x0 PUSH2 0x10D3 DUP3 PUSH2 0x1068 JUMP JUMPDEST PUSH2 0x10DD DUP2 DUP6 PUSH2 0x1073 JUMP JUMPDEST SWAP4 POP PUSH2 0x10E8 DUP4 PUSH2 0x1084 JUMP JUMPDEST DUP1 PUSH1 0x0 JUMPDEST DUP4 DUP2 LT ISZERO PUSH2 0x1119 JUMPI DUP2 MLOAD PUSH2 0x1100 DUP9 DUP3 PUSH2 0x10A3 JUMP JUMPDEST SWAP8 POP PUSH2 0x110B DUP4 PUSH2 0x10BB JUMP JUMPDEST SWAP3 POP POP PUSH1 0x1 DUP2 ADD SWAP1 POP PUSH2 0x10EC JUMP JUMPDEST POP DUP6 SWAP4 POP POP POP POP SWAP3 SWAP2 POP POP JUMP JUMPDEST PUSH1 0x0 PUSH1 0x20 DUP3 ADD SWAP1 POP DUP2 DUP2 SUB PUSH1 0x0 DUP4 ADD MSTORE PUSH2 0x1140 DUP2 DUP5 PUSH2 0x10C8 JUMP JUMPDEST SWAP1 POP SWAP3 SWAP2 POP POP JUMP JUMPDEST PUSH2 0x1151 DUP2 PUSH2 0xF5A JUMP JUMPDEST DUP3 MSTORE POP POP JUMP JUMPDEST PUSH1 0x0 PUSH1 0x20 DUP3 ADD SWAP1 POP PUSH2 0x116C PUSH1 0x0 DUP4 ADD DUP5 PUSH2 0x1148 JUMP JUMPDEST SWAP3 SWAP2 POP POP JUMP JUMPDEST PUSH1 0x0 DUP1 REVERT JUMPDEST PUSH1 0x0 DUP1 REVERT JUMPDEST PUSH1 0x0 DUP1 REVERT JUMPDEST PUSH1 0x0 DUP1 DUP4 PUSH1 0x1F DUP5 ADD SLT PUSH2 0x1197 JUMPI PUSH2 0x1196 PUSH2 0x1172 JUMP JUMPDEST JUMPDEST DUP3 CALLDATALOAD SWAP1 POP PUSH8 0xFFFFFFFFFFFFFFFF DUP2 GT ISZERO PUSH2 0x11B4 JUMPI PUSH2 0x11B3 PUSH2 0x1177 JUMP JUMPDEST JUMPDEST PUSH1 0x20 DUP4 ADD SWAP2 POP DUP4 PUSH1 0x1 DUP3 MUL DUP4 ADD GT ISZERO PUSH2 0x11D0 JUMPI PUSH2 0x11CF PUSH2 0x117C JUMP JUMPDEST JUMPDEST SWAP3 POP SWAP3 SWAP1 POP JUMP JUMPDEST PUSH1 0x0 DUP1 PUSH1 0x0 DUP1 PUSH1 0x60 DUP6 DUP8 SUB SLT ISZERO PUSH2 0x11F1 JUMPI PUSH2 0x11F0 PUSH2 0xEC5 JUMP JUMPDEST JUMPDEST PUSH1 0x0 PUSH2 0x11FF DUP8 DUP3 DUP9 ADD PUSH2 0xF18 JUMP JUMPDEST SWAP5 POP POP PUSH1 0x20 DUP6 ADD CALLDATALOAD PUSH8 0xFFFFFFFFFFFFFFFF DUP2 GT ISZERO PUSH2 0x1220 JUMPI PUSH2 0x121F PUSH2 0xECA JUMP JUMPDEST JUMPDEST PUSH2 0x122C DUP8 DUP3 DUP9 ADD PUSH2 0x1181 JUMP JUMPDEST SWAP4 POP SWAP4 POP POP PUSH1 0x40 PUSH2 0x123F DUP8 DUP3 DUP9 ADD PUSH2 0x1026 JUMP JUMPDEST SWAP2 POP POP SWAP3 SWAP6 SWAP2 SWAP5 POP SWAP3 POP JUMP JUMPDEST PUSH1 0x0 DUP1 PUSH1 0x0 PUSH1 0x60 DUP5 DUP7 SUB SLT ISZERO PUSH2 0x1264 JUMPI PUSH2 0x1263 PUSH2 0xEC5 JUMP JUMPDEST JUMPDEST PUSH1 0x0 PUSH2 0x1272 DUP7 DUP3 DUP8 ADD PUSH2 0xF7B JUMP JUMPDEST SWAP4 POP POP PUSH1 0x20 PUSH2 0x1283 DUP7 DUP3 DUP8 ADD PUSH2 0xF18 JUMP JUMPDEST SWAP3 POP POP PUSH1 0x40 PUSH2 0x1294 DUP7 DUP3 DUP8 ADD PUSH2 0xF18 JUMP JUMPDEST SWAP2 POP POP SWAP3 POP SWAP3 POP SWAP3 JUMP JUMPDEST PUSH2 0x12A7 DUP2 PUSH2 0xEEF JUMP JUMPDEST DUP3 MSTORE POP POP JUMP JUMPDEST PUSH1 0x0 PUSH1 0x20 DUP3 ADD SWAP1 POP PUSH2 0x12C2 PUSH1 0x0 DUP4 ADD DUP5 PUSH2 0x129E JUMP JUMPDEST SWAP3 SWAP2 POP POP JUMP JUMPDEST PUSH1 0x0 DUP1 PUSH1 0x40 DUP4 DUP6 SUB SLT ISZERO PUSH2 0x12DF JUMPI PUSH2 0x12DE PUSH2 0xEC5 JUMP JUMPDEST JUMPDEST PUSH1 0x0 PUSH2 0x12ED DUP6 DUP3 DUP7 ADD PUSH2 0xF7B JUMP JUMPDEST SWAP3 POP POP PUSH1 0x20 PUSH2 0x12FE DUP6 DUP3 DUP7 ADD PUSH2 0xF18 JUMP JUMPDEST SWAP2 POP POP SWAP3 POP SWAP3 SWAP1 POP JUMP JUMPDEST PUSH1 0x0 DUP3 DUP3 MSTORE PUSH1 0x20 DUP3 ADD SWAP1 POP SWAP3 SWAP2 POP POP JUMP JUMPDEST PUSH32 0x4F776E6572206572726F72000000000000000000000000000000000000000000 PUSH1 0x0 DUP3 ADD MSTORE POP JUMP JUMPDEST PUSH1 0x0 PUSH2 0x134F PUSH1 0xB DUP4 PUSH2 0x1308 JUMP JUMPDEST SWAP2 POP PUSH2 0x135A DUP3 PUSH2 0x1319 JUMP JUMPDEST PUSH1 0x20 DUP3 ADD SWAP1 POP SWAP2 SWAP1 POP JUMP JUMPDEST PUSH1 0x0 PUSH1 0x20 DUP3 ADD SWAP1 POP DUP2 DUP2 SUB PUSH1 0x0 DUP4 ADD MSTORE PUSH2 0x137E DUP2 PUSH2 0x1342 JUMP JUMPDEST SWAP1 POP SWAP2 SWAP1 POP JUMP JUMPDEST PUSH32 0x4E487B7100000000000000000000000000000000000000000000000000000000 PUSH1 0x0 MSTORE PUSH1 0x12 PUSH1 0x4 MSTORE PUSH1 0x24 PUSH1 0x0 REVERT JUMPDEST PUSH32 0x4E487B7100000000000000000000000000000000000000000000000000000000 PUSH1 0x0 MSTORE PUSH1 0x11 PUSH1 0x4 MSTORE PUSH1 0x24 PUSH1 0x0 REVERT JUMPDEST PUSH1 0x0 PUSH2 0x13EE DUP3 PUSH2 0xF5A JUMP JUMPDEST SWAP2 POP PUSH2 0x13F9 DUP4 PUSH2 0xF5A JUMP JUMPDEST SWAP3 POP DUP3 PUSH2 0x1409 JUMPI PUSH2 0x1408 PUSH2 0x1385 JUMP JUMPDEST JUMPDEST DUP3 DUP3 DIV SWAP1 POP SWAP3 SWAP2 POP POP JUMP JUMPDEST PUSH1 0x0 PUSH2 0x141F DUP3 PUSH2 0xF5A JUMP JUMPDEST SWAP2 POP PUSH2 0x142A DUP4 PUSH2 0xF5A JUMP JUMPDEST SWAP3 POP DUP3 PUSH32 0xFFFFFFFFFFFFFFFFFFFFFFFFFFFFFFFFFFFFFFFFFFFFFFFFFFFFFFFFFFFFFFFF SUB DUP3 GT ISZERO PUSH2 0x145F JUMPI PUSH2 0x145E PUSH2 0x13B4 JUMP JUMPDEST JUMPDEST DUP3 DUP3 ADD SWAP1 POP SWAP3 SWAP2 POP POP JUMP JUMPDEST PUSH32 0x416C726561647920766F74650000000000000000000000000000000000000000 PUSH1 0x0 DUP3 ADD MSTORE POP JUMP JUMPDEST PUSH1 0x0 PUSH2 0x14A0 PUSH1 0xC DUP4 PUSH2 0x1308 JUMP JUMPDEST SWAP2 POP PUSH2 0x14AB DUP3 PUSH2 0x146A JUMP JUMPDEST PUSH1 0x20 DUP3 ADD SWAP1 POP SWAP2 SWAP1 POP JUMP JUMPDEST PUSH1 0x0 PUSH1 0x20 DUP3 ADD SWAP1 POP DUP2 DUP2 SUB PUSH1 0x0 DUP4 ADD MSTORE PUSH2 0x14CF DUP2 PUSH2 0x1493 JUMP JUMPDEST SWAP1 POP SWAP2 SWAP1 POP JUMP JUMPDEST PUSH32 0x4E6F742073757065727669736F72000000000000000000000000000000000000 PUSH1 0x0 DUP3 ADD MSTORE POP JUMP JUMPDEST PUSH1 0x0 PUSH2 0x150C PUSH1 0xE DUP4 PUSH2 0x1308 JUMP JUMPDEST SWAP2 POP PUSH2 0x1517 DUP3 PUSH2 0x14D6 JUMP JUMPDEST PUSH1 0x20 DUP3 ADD SWAP1 POP SWAP2 SWAP1 POP JUMP JUMPDEST PUSH1 0x0 PUSH1 0x20 DUP3 ADD SWAP1 POP DUP2 DUP2 SUB PUSH1 0x0 DUP4 ADD MSTORE PUSH2 0x153B DUP2 PUSH2 0x14FF JUMP JUMPDEST SWAP1 POP SWAP2 SWAP1 POP JUMP JUMPDEST PUSH32 0x5061737300000000000000000000000000000000000000000000000000000000 PUSH1 0x0 DUP3 ADD MSTORE POP JUMP JUMPDEST PUSH1 0x0 PUSH2 0x1578 PUSH1 0x4 DUP4 PUSH2 0x1308 JUMP JUMPDEST SWAP2 POP PUSH2 0x1583 DUP3 PUSH2 0x1542 JUMP JUMPDEST PUSH1 0x20 DUP3 ADD SWAP1 POP SWAP2 SWAP1 POP JUMP JUMPDEST PUSH1 0x0 PUSH1 0x20 DUP3 ADD SWAP1 POP DUP2 DUP2 SUB PUSH1 0x0 DUP4 ADD MSTORE PUSH2 0x15A7 DUP2 PUSH2 0x156B JUMP JUMPDEST SWAP1 POP SWAP2 SWAP1 POP JUMP JUMPDEST PUSH1 0x0 PUSH2 0x15B9 DUP3 PUSH2 0xF5A JUMP JUMPDEST SWAP2 POP PUSH32 0xFFFFFFFFFFFFFFFFFFFFFFFFFFFFFFFFFFFFFFFFFFFFFFFFFFFFFFFFFFFFFFFF DUP3 EQ ISZERO PUSH2 0x15EC JUMPI PUSH2 0x15EB PUSH2 0x13B4 JUMP JUMPDEST JUMPDEST PUSH1 0x1 DUP3 ADD SWAP1 POP SWAP2 SWAP1 POP JUMP JUMPDEST PUSH1 0x0 PUSH2 0x1602 DUP3 PUSH2 0xF5A JUMP JUMPDEST SWAP2 POP PUSH2 0x160D DUP4 PUSH2 0xF5A JUMP JUMPDEST SWAP3 POP DUP3 DUP3 LT ISZERO PUSH2 0x1620 JUMPI PUSH2 0x161F PUSH2 0x13B4 JUMP JUMPDEST JUMPDEST DUP3 DUP3 SUB SWAP1 POP SWAP3 SWAP2 POP POP JUMP JUMPDEST PUSH32 0x4E6F742063726561746500000000000000000000000000000000000000000000 PUSH1 0x0 DUP3 ADD MSTORE POP JUMP JUMPDEST PUSH1 0x0 PUSH2 0x1661 PUSH1 0xA DUP4 PUSH2 0x1308 JUMP JUMPDEST SWAP2 POP PUSH2 0x166C DUP3 PUSH2 0x162B JUMP JUMPDEST PUSH1 0x20 DUP3 ADD SWAP1 POP SWAP2 SWAP1 POP JUMP JUMPDEST PUSH1 0x0 PUSH1 0x20 DUP3 ADD SWAP1 POP DUP2 DUP2 SUB PUSH1 0x0 DUP4 ADD MSTORE PUSH2 0x1690 DUP2 PUSH2 0x1654 JUMP JUMPDEST SWAP1 POP SWAP2 SWAP1 POP JUMP JUMPDEST PUSH32 0x4861642073657400000000000000000000000000000000000000000000000000 PUSH1 0x0 DUP3 ADD MSTORE POP JUMP JUMPDEST PUSH1 0x0 PUSH2 0x16CD PUSH1 0x7 DUP4 PUSH2 0x1308 JUMP JUMPDEST SWAP2 POP PUSH2 0x16D8 DUP3 PUSH2 0x1697 JUMP JUMPDEST PUSH1 0x20 DUP3 ADD SWAP1 POP SWAP2 SWAP1 POP JUMP JUMPDEST PUSH1 0x0 PUSH1 0x20 DUP3 ADD SWAP1 POP DUP2 DUP2 SUB PUSH1 0x0 DUP4 ADD MSTORE PUSH2 0x16FC DUP2 PUSH2 0x16C0 JUMP JUMPDEST SWAP1 POP SWAP2 SWAP1 POP JUMP JUMPDEST PUSH32 0x4E487B7100000000000000000000000000000000000000000000000000000000 PUSH1 0x0 MSTORE PUSH1 0x32 PUSH1 0x4 MSTORE PUSH1 0x24 PUSH1 0x0 REVERT JUMPDEST PUSH1 0x0 PUSH2 0xFFFF DUP3 AND SWAP1 POP SWAP2 SWAP1 POP JUMP JUMPDEST PUSH1 0x0 PUSH2 0x174B DUP3 PUSH2 0x1732 JUMP JUMPDEST SWAP2 POP PUSH2 0xFFFF DUP3 EQ ISZERO PUSH2 0x1760 JUMPI PUSH2 0x175F PUSH2 0x13B4 JUMP JUMPDEST JUMPDEST PUSH1 0x1 DUP3 ADD SWAP1 POP SWAP2 SWAP1 POP JUMP JUMPDEST PUSH32 0x4E756D626572206572726F720000000000000000000000000000000000000000 PUSH1 0x0 DUP3 ADD MSTORE POP JUMP JUMPDEST PUSH1 0x0 PUSH2 0x17A1 PUSH1 0xC DUP4 PUSH2 0x1308 JUMP JUMPDEST SWAP2 POP PUSH2 0x17AC DUP3 PUSH2 0x176B JUMP JUMPDEST PUSH1 0x20 DUP3 ADD SWAP1 POP SWAP2 SWAP1 POP JUMP JUMPDEST PUSH1 0x0 PUSH1 0x20 DUP3 ADD SWAP1 POP DUP2 DUP2 SUB PUSH1 0x0 DUP4 ADD MSTORE PUSH2 0x17D0 DUP2 PUSH2 0x1794 JUMP JUMPDEST SWAP1 POP SWAP2 SWAP1 POP JUMP JUMPDEST PUSH32 0x4E487B7100000000000000000000000000000000000000000000000000000000 PUSH1 0x0 MSTORE PUSH1 0x22 PUSH1 0x4 MSTORE PUSH1 0x24 PUSH1 0x0 REVERT JUMPDEST PUSH1 0x0 PUSH1 0x2 DUP3 DIV SWAP1 POP PUSH1 0x1 DUP3 AND DUP1 PUSH2 0x181E JUMPI PUSH1 0x7F DUP3 AND SWAP2 POP JUMPDEST PUSH1 0x20 DUP3 LT DUP2 EQ ISZERO PUSH2 0x1832 JUMPI PUSH2 0x1831 PUSH2 0x17D7 JUMP JUMPDEST JUMPDEST POP SWAP2 SWAP1 POP JUMP INVALID LOG2 PUSH5 0x6970667358 0x22 SLT KECCAK256 PUSH23 0x98016F1FA99A45DF4B4DA4CB6DD61403A5F6D9626A1B43 MSTORE 0xC8 INVALID 0x2A EQ 0x2A 0xC0 CALLCODE PUSH5 0x736F6C6343 STOP ADDMOD MULMOD STOP CALLER "
				},
				"gasEstimates": {
					"creation": {
						"codeDepositCost": "1250800",
						"executionCost": "25568",
						"totalCost": "1276368"
					},
					"external": {
						"addSuperVisor(address)": "infinite",
						"checkDispute(uint128)": "infinite",
						"checkIfSupervisor(address)": "infinite",
						"createDispute(address,string,uint128)": "infinite",
						"getAllSupervisor()": "infinite",
						"getClearId(address)": "2930",
						"getClearTime(uint256,address)": "infinite",
						"getFutureTokenAddress()": "2588",
						"getLastNumber()": "2481",
						"ifPass(uint256)": "infinite",
						"removeSuperVisor(address)": "infinite",
						"setCleanTime(uint256,address,address)": "infinite"
					}
				},
				"methodIdentifiers": {
					"addSuperVisor(address)": "1049dc34",
					"checkDispute(uint128)": "1df058f5",
					"checkIfSupervisor(address)": "66bba4f5",
					"createDispute(address,string,uint128)": "51dcf3cb",
					"getAllSupervisor()": "479c32ec",
					"getClearId(address)": "4b6ab77b",
					"getClearTime(uint256,address)": "d7867905",
					"getFutureTokenAddress()": "a72124b7",
					"getLastNumber()": "682c0fc1",
					"ifPass(uint256)": "158f2cae",
					"removeSuperVisor(address)": "e64aa3e8",
					"setCleanTime(uint256,address,address)": "5974b4d5"
				}
			},
			"storageLayout": {
				"storage": [
					{
						"astId": 3,
						"contract": "contracts/TimeMiddle.sol:TimeMiddle",
						"label": "number",
						"offset": 0,
						"slot": "0",
						"type": "t_uint256"
					},
					{
						"astId": 5,
						"contract": "contracts/TimeMiddle.sol:TimeMiddle",
						"label": "futureToken",
						"offset": 0,
						"slot": "1",
						"type": "t_address"
					},
					{
						"astId": 8,
						"contract": "contracts/TimeMiddle.sol:TimeMiddle",
						"label": "supervisorGroup",
						"offset": 0,
						"slot": "2",
						"type": "t_array(t_address)dyn_storage"
					},
					{
						"astId": 10,
						"contract": "contracts/TimeMiddle.sol:TimeMiddle",
						"label": "owner",
						"offset": 0,
						"slot": "3",
						"type": "t_address"
					},
					{
						"astId": 25,
						"contract": "contracts/TimeMiddle.sol:TimeMiddle",
						"label": "clearTime",
						"offset": 0,
						"slot": "4",
						"type": "t_mapping(t_uint256,t_mapping(t_address,t_uint256))"
					},
					{
						"astId": 29,
						"contract": "contracts/TimeMiddle.sol:TimeMiddle",
						"label": "disputeIfPass",
						"offset": 0,
						"slot": "5",
						"type": "t_mapping(t_uint256,t_uint256)"
					},
					{
						"astId": 35,
						"contract": "contracts/TimeMiddle.sol:TimeMiddle",
						"label": "ifVoteDispute",
						"offset": 0,
						"slot": "6",
						"type": "t_mapping(t_address,t_mapping(t_uint256,t_bool))"
					},
					{
						"astId": 39,
						"contract": "contracts/TimeMiddle.sol:TimeMiddle",
						"label": "ifHadSet",
						"offset": 0,
						"slot": "7",
						"type": "t_mapping(t_address,t_bool)"
					},
					{
						"astId": 43,
						"contract": "contracts/TimeMiddle.sol:TimeMiddle",
						"label": "contractToClearId",
						"offset": 0,
						"slot": "8",
						"type": "t_mapping(t_address,t_uint256)"
					},
					{
						"astId": 54,
						"contract": "contracts/TimeMiddle.sol:TimeMiddle",
						"label": "_dispute",
						"offset": 0,
						"slot": "9",
						"type": "t_array(t_struct(dispute)50_storage)dyn_storage"
					}
				],
				"types": {
					"t_address": {
						"encoding": "inplace",
						"label": "address",
						"numberOfBytes": "20"
					},
					"t_array(t_address)dyn_storage": {
						"base": "t_address",
						"encoding": "dynamic_array",
						"label": "address[]",
						"numberOfBytes": "32"
					},
					"t_array(t_struct(dispute)50_storage)dyn_storage": {
						"base": "t_struct(dispute)50_storage",
						"encoding": "dynamic_array",
						"label": "struct TimeMiddle.dispute[]",
						"numberOfBytes": "32"
					},
					"t_bool": {
						"encoding": "inplace",
						"label": "bool",
						"numberOfBytes": "1"
					},
					"t_mapping(t_address,t_bool)": {
						"encoding": "mapping",
						"key": "t_address",
						"label": "mapping(address => bool)",
						"numberOfBytes": "32",
						"value": "t_bool"
					},
					"t_mapping(t_address,t_mapping(t_uint256,t_bool))": {
						"encoding": "mapping",
						"key": "t_address",
						"label": "mapping(address => mapping(uint256 => bool))",
						"numberOfBytes": "32",
						"value": "t_mapping(t_uint256,t_bool)"
					},
					"t_mapping(t_address,t_uint256)": {
						"encoding": "mapping",
						"key": "t_address",
						"label": "mapping(address => uint256)",
						"numberOfBytes": "32",
						"value": "t_uint256"
					},
					"t_mapping(t_uint256,t_bool)": {
						"encoding": "mapping",
						"key": "t_uint256",
						"label": "mapping(uint256 => bool)",
						"numberOfBytes": "32",
						"value": "t_bool"
					},
					"t_mapping(t_uint256,t_mapping(t_address,t_uint256))": {
						"encoding": "mapping",
						"key": "t_uint256",
						"label": "mapping(uint256 => mapping(address => uint256))",
						"numberOfBytes": "32",
						"value": "t_mapping(t_address,t_uint256)"
					},
					"t_mapping(t_uint256,t_uint256)": {
						"encoding": "mapping",
						"key": "t_uint256",
						"label": "mapping(uint256 => uint256)",
						"numberOfBytes": "32",
						"value": "t_uint256"
					},
					"t_string_storage": {
						"encoding": "bytes",
						"label": "string",
						"numberOfBytes": "32"
					},
					"t_struct(dispute)50_storage": {
						"encoding": "inplace",
						"label": "struct TimeMiddle.dispute",
						"members": [
							{
								"astId": 45,
								"contract": "contracts/TimeMiddle.sol:TimeMiddle",
								"label": "disputeId",
								"offset": 0,
								"slot": "0",
								"type": "t_uint128"
							},
							{
								"astId": 47,
								"contract": "contracts/TimeMiddle.sol:TimeMiddle",
								"label": "disputeTime",
								"offset": 16,
								"slot": "0",
								"type": "t_uint128"
							},
							{
								"astId": 49,
								"contract": "contracts/TimeMiddle.sol:TimeMiddle",
								"label": "disputeThing",
								"offset": 0,
								"slot": "1",
								"type": "t_string_storage"
							}
						],
						"numberOfBytes": "64"
					},
					"t_uint128": {
						"encoding": "inplace",
						"label": "uint128",
						"numberOfBytes": "16"
					},
					"t_uint256": {
						"encoding": "inplace",
						"label": "uint256",
						"numberOfBytes": "32"
					}
				}
			},
			"userdoc": {
				"kind": "user",
				"methods": {},
				"version": 1
			}
		}
	}
}