{
	"contracts/TimeMarket.sol": {
		"TimeMarket": {
			"abi": [
				{
					"inputs": [
						{
							"internalType": "address",
							"name": "_airdropToken",
							"type": "address"
						},
						{
							"internalType": "uint256",
							"name": "_clearingTime",
							"type": "uint256"
						}
					],
					"stateMutability": "nonpayable",
					"type": "constructor"
				},
				{
					"inputs": [],
					"name": "AlreadyInjectToken",
					"type": "error"
				},
				{
					"inputs": [],
					"name": "NorSolder",
					"type": "error"
				},
				{
					"inputs": [],
					"name": "NotBuyer",
					"type": "error"
				},
				{
					"inputs": [],
					"name": "NotEnoughAmount",
					"type": "error"
				},
				{
					"inputs": [],
					"name": "NotInjectToken",
					"type": "error"
				},
				{
					"inputs": [
						{
							"internalType": "uint64",
							"name": "_id",
							"type": "uint64"
						}
					],
					"name": "Sale",
					"outputs": [],
					"stateMutability": "nonpayable",
					"type": "function"
				},
				{
					"inputs": [
						{
							"internalType": "address",
							"name": "_tokenAddress",
							"type": "address"
						},
						{
							"internalType": "uint128",
							"name": "_buyAmount",
							"type": "uint128"
						},
						{
							"internalType": "uint128",
							"name": "_buyPrice",
							"type": "uint128"
						}
					],
					"name": "buy",
					"outputs": [],
					"stateMutability": "nonpayable",
					"type": "function"
				},
				{
					"inputs": [
						{
							"internalType": "uint64",
							"name": "_id",
							"type": "uint64"
						}
					],
					"name": "buyerWithdrawAirdorp",
					"outputs": [],
					"stateMutability": "nonpayable",
					"type": "function"
				},
				{
					"inputs": [
						{
							"internalType": "uint64",
							"name": "_id",
							"type": "uint64"
						}
					],
					"name": "buyerWithdrawRefund",
					"outputs": [],
					"stateMutability": "nonpayable",
					"type": "function"
				},
				{
					"inputs": [
						{
							"internalType": "uint128",
							"name": "_soldPrice",
							"type": "uint128"
						},
						{
							"internalType": "uint128",
							"name": "_soldAmount",
							"type": "uint128"
						}
					],
					"name": "getPenal",
					"outputs": [
						{
							"internalType": "uint256",
							"name": "",
							"type": "uint256"
						}
					],
					"stateMutability": "pure",
					"type": "function"
				},
				{
					"inputs": [
						{
							"internalType": "uint64",
							"name": "_id",
							"type": "uint64"
						}
					],
					"name": "injectFutureToken",
					"outputs": [],
					"stateMutability": "nonpayable",
					"type": "function"
				},
				{
					"inputs": [
						{
							"internalType": "uint64",
							"name": "_id",
							"type": "uint64"
						}
					],
					"name": "solderWithdrawStable",
					"outputs": [],
					"stateMutability": "nonpayable",
					"type": "function"
				},
				{
					"inputs": [
						{
							"internalType": "address",
							"name": "",
							"type": "address"
						},
						{
							"internalType": "uint256",
							"name": "",
							"type": "uint256"
						}
					],
					"name": "userIfWithdraw1",
					"outputs": [
						{
							"internalType": "bool",
							"name": "",
							"type": "bool"
						}
					],
					"stateMutability": "view",
					"type": "function"
				},
				{
					"inputs": [
						{
							"internalType": "address",
							"name": "",
							"type": "address"
						},
						{
							"internalType": "uint256",
							"name": "",
							"type": "uint256"
						}
					],
					"name": "userIfWithdraw2",
					"outputs": [
						{
							"internalType": "bool",
							"name": "",
							"type": "bool"
						}
					],
					"stateMutability": "view",
					"type": "function"
				},
				{
					"inputs": [
						{
							"internalType": "address",
							"name": "",
							"type": "address"
						},
						{
							"internalType": "uint256",
							"name": "",
							"type": "uint256"
						}
					],
					"name": "userIfWithdraw3",
					"outputs": [
						{
							"internalType": "bool",
							"name": "",
							"type": "bool"
						}
					],
					"stateMutability": "view",
					"type": "function"
				},
				{
					"inputs": [
						{
							"internalType": "address",
							"name": "",
							"type": "address"
						},
						{
							"internalType": "uint256",
							"name": "",
							"type": "uint256"
						}
					],
					"name": "userIfWithdraw4",
					"outputs": [
						{
							"internalType": "bool",
							"name": "",
							"type": "bool"
						}
					],
					"stateMutability": "view",
					"type": "function"
				}
			],
			"devdoc": {
				"kind": "dev",
				"methods": {},
				"version": 1
			},
			"evm": {
				"assembly": "    /* \"contracts/TimeMarket.sol\":356:7878  contract TimeMarket is ITimeStruct, IError{... */\n  mstore(0x40, 0x80)\n    /* \"contracts/TimeMarket.sol\":525:668  constructor(address _airdropToken,uint _clearingTime){... */\n  callvalue\n  dup1\n  iszero\n  tag_1\n  jumpi\n  0x00\n  dup1\n  revert\ntag_1:\n  pop\n  mload(0x40)\n  sub(codesize, bytecodeSize)\n  dup1\n  bytecodeSize\n  dup4\n  codecopy\n  dup2\n  dup2\n  add\n  0x40\n  mstore\n  dup2\n  add\n  swap1\n  tag_2\n  swap2\n  swap1\n  tag_3\n  jump\t// in\ntag_2:\n    /* \"contracts/TimeMarket.sol\":602:615  _airdropToken */\n  dup2\n    /* \"contracts/TimeMarket.sol\":589:601  airdropToken */\n  0x01\n  0x00\n    /* \"contracts/TimeMarket.sol\":589:615  airdropToken=_airdropToken */\n  0x0100\n  exp\n  dup2\n  sload\n  dup2\n  0xffffffffffffffffffffffffffffffffffffffff\n  mul\n  not\n  and\n  swap1\n  dup4\n  0xffffffffffffffffffffffffffffffffffffffff\n  and\n  mul\n  or\n  swap1\n  sstore\n  pop\n    /* \"contracts/TimeMarket.sol\":646:659  _clearingTime */\n  dup1\n    /* \"contracts/TimeMarket.sol\":626:638  clearingTime */\n  0x00\n  dup1\n    /* \"contracts/TimeMarket.sol\":626:660  clearingTime=uint56(_clearingTime) */\n  0x0100\n  exp\n  dup2\n  sload\n  dup2\n  0xffffffffffffff\n  mul\n  not\n  and\n  swap1\n  dup4\n  0xffffffffffffff\n  and\n  mul\n  or\n  swap1\n  sstore\n  pop\n    /* \"contracts/TimeMarket.sol\":525:668  constructor(address _airdropToken,uint _clearingTime){... */\n  pop\n  pop\n    /* \"contracts/TimeMarket.sol\":356:7878  contract TimeMarket is ITimeStruct, IError{... */\n  jump(tag_6)\n    /* \"#utility.yul\":88:205   */\ntag_8:\n    /* \"#utility.yul\":197:198   */\n  0x00\n    /* \"#utility.yul\":194:195   */\n  dup1\n    /* \"#utility.yul\":187:199   */\n  revert\n    /* \"#utility.yul\":334:460   */\ntag_10:\n    /* \"#utility.yul\":371:378   */\n  0x00\n    /* \"#utility.yul\":411:453   */\n  0xffffffffffffffffffffffffffffffffffffffff\n    /* \"#utility.yul\":404:409   */\n  dup3\n    /* \"#utility.yul\":400:454   */\n  and\n    /* \"#utility.yul\":389:454   */\n  swap1\n  pop\n    /* \"#utility.yul\":334:460   */\n  swap2\n  swap1\n  pop\n  jump\t// out\n    /* \"#utility.yul\":466:562   */\ntag_11:\n    /* \"#utility.yul\":503:510   */\n  0x00\n    /* \"#utility.yul\":532:556   */\n  tag_23\n    /* \"#utility.yul\":550:555   */\n  dup3\n    /* \"#utility.yul\":532:556   */\n  tag_10\n  jump\t// in\ntag_23:\n    /* \"#utility.yul\":521:556   */\n  swap1\n  pop\n    /* \"#utility.yul\":466:562   */\n  swap2\n  swap1\n  pop\n  jump\t// out\n    /* \"#utility.yul\":568:690   */\ntag_12:\n    /* \"#utility.yul\":641:665   */\n  tag_25\n    /* \"#utility.yul\":659:664   */\n  dup2\n    /* \"#utility.yul\":641:665   */\n  tag_11\n  jump\t// in\ntag_25:\n    /* \"#utility.yul\":634:639   */\n  dup2\n    /* \"#utility.yul\":631:666   */\n  eq\n    /* \"#utility.yul\":621:684   */\n  tag_26\n  jumpi\n    /* \"#utility.yul\":680:681   */\n  0x00\n    /* \"#utility.yul\":677:678   */\n  dup1\n    /* \"#utility.yul\":670:682   */\n  revert\n    /* \"#utility.yul\":621:684   */\ntag_26:\n    /* \"#utility.yul\":568:690   */\n  pop\n  jump\t// out\n    /* \"#utility.yul\":696:839   */\ntag_13:\n    /* \"#utility.yul\":753:758   */\n  0x00\n    /* \"#utility.yul\":784:790   */\n  dup2\n    /* \"#utility.yul\":778:791   */\n  mload\n    /* \"#utility.yul\":769:791   */\n  swap1\n  pop\n    /* \"#utility.yul\":800:833   */\n  tag_28\n    /* \"#utility.yul\":827:832   */\n  dup2\n    /* \"#utility.yul\":800:833   */\n  tag_12\n  jump\t// in\ntag_28:\n    /* \"#utility.yul\":696:839   */\n  swap3\n  swap2\n  pop\n  pop\n  jump\t// out\n    /* \"#utility.yul\":845:922   */\ntag_14:\n    /* \"#utility.yul\":882:889   */\n  0x00\n    /* \"#utility.yul\":911:916   */\n  dup2\n    /* \"#utility.yul\":900:916   */\n  swap1\n  pop\n    /* \"#utility.yul\":845:922   */\n  swap2\n  swap1\n  pop\n  jump\t// out\n    /* \"#utility.yul\":928:1050   */\ntag_15:\n    /* \"#utility.yul\":1001:1025   */\n  tag_31\n    /* \"#utility.yul\":1019:1024   */\n  dup2\n    /* \"#utility.yul\":1001:1025   */\n  tag_14\n  jump\t// in\ntag_31:\n    /* \"#utility.yul\":994:999   */\n  dup2\n    /* \"#utility.yul\":991:1026   */\n  eq\n    /* \"#utility.yul\":981:1044   */\n  tag_32\n  jumpi\n    /* \"#utility.yul\":1040:1041   */\n  0x00\n    /* \"#utility.yul\":1037:1038   */\n  dup1\n    /* \"#utility.yul\":1030:1042   */\n  revert\n    /* \"#utility.yul\":981:1044   */\ntag_32:\n    /* \"#utility.yul\":928:1050   */\n  pop\n  jump\t// out\n    /* \"#utility.yul\":1056:1199   */\ntag_16:\n    /* \"#utility.yul\":1113:1118   */\n  0x00\n    /* \"#utility.yul\":1144:1150   */\n  dup2\n    /* \"#utility.yul\":1138:1151   */\n  mload\n    /* \"#utility.yul\":1129:1151   */\n  swap1\n  pop\n    /* \"#utility.yul\":1160:1193   */\n  tag_34\n    /* \"#utility.yul\":1187:1192   */\n  dup2\n    /* \"#utility.yul\":1160:1193   */\n  tag_15\n  jump\t// in\ntag_34:\n    /* \"#utility.yul\":1056:1199   */\n  swap3\n  swap2\n  pop\n  pop\n  jump\t// out\n    /* \"#utility.yul\":1205:1712   */\ntag_3:\n    /* \"#utility.yul\":1284:1290   */\n  0x00\n    /* \"#utility.yul\":1292:1298   */\n  dup1\n    /* \"#utility.yul\":1341:1343   */\n  0x40\n    /* \"#utility.yul\":1329:1338   */\n  dup4\n    /* \"#utility.yul\":1320:1327   */\n  dup6\n    /* \"#utility.yul\":1316:1339   */\n  sub\n    /* \"#utility.yul\":1312:1344   */\n  slt\n    /* \"#utility.yul\":1309:1428   */\n  iszero\n  tag_36\n  jumpi\n    /* \"#utility.yul\":1347:1426   */\n  tag_37\n  tag_8\n  jump\t// in\ntag_37:\n    /* \"#utility.yul\":1309:1428   */\ntag_36:\n    /* \"#utility.yul\":1467:1468   */\n  0x00\n    /* \"#utility.yul\":1492:1556   */\n  tag_38\n    /* \"#utility.yul\":1548:1555   */\n  dup6\n    /* \"#utility.yul\":1539:1545   */\n  dup3\n    /* \"#utility.yul\":1528:1537   */\n  dup7\n    /* \"#utility.yul\":1524:1546   */\n  add\n    /* \"#utility.yul\":1492:1556   */\n  tag_13\n  jump\t// in\ntag_38:\n    /* \"#utility.yul\":1482:1556   */\n  swap3\n  pop\n    /* \"#utility.yul\":1438:1566   */\n  pop\n    /* \"#utility.yul\":1605:1607   */\n  0x20\n    /* \"#utility.yul\":1631:1695   */\n  tag_39\n    /* \"#utility.yul\":1687:1694   */\n  dup6\n    /* \"#utility.yul\":1678:1684   */\n  dup3\n    /* \"#utility.yul\":1667:1676   */\n  dup7\n    /* \"#utility.yul\":1663:1685   */\n  add\n    /* \"#utility.yul\":1631:1695   */\n  tag_16\n  jump\t// in\ntag_39:\n    /* \"#utility.yul\":1621:1695   */\n  swap2\n  pop\n    /* \"#utility.yul\":1576:1705   */\n  pop\n    /* \"#utility.yul\":1205:1712   */\n  swap3\n  pop\n  swap3\n  swap1\n  pop\n  jump\t// out\n    /* \"contracts/TimeMarket.sol\":356:7878  contract TimeMarket is ITimeStruct, IError{... */\ntag_6:\n  dataSize(sub_0)\n  dup1\n  dataOffset(sub_0)\n  0x00\n  codecopy\n  0x00\n  return\nstop\n\nsub_0: assembly {\n        /* \"contracts/TimeMarket.sol\":356:7878  contract TimeMarket is ITimeStruct, IError{... */\n      mstore(0x40, 0x80)\n      callvalue\n      dup1\n      iszero\n      tag_1\n      jumpi\n      0x00\n      dup1\n      revert\n    tag_1:\n      pop\n      jumpi(tag_2, lt(calldatasize, 0x04))\n      shr(0xe0, calldataload(0x00))\n      dup1\n      0x98c50fdd\n      gt\n      tag_14\n      jumpi\n      dup1\n      0x98c50fdd\n      eq\n      tag_8\n      jumpi\n      dup1\n      0xb8d7f980\n      eq\n      tag_9\n      jumpi\n      dup1\n      0xc0102de4\n      eq\n      tag_10\n      jumpi\n      dup1\n      0xd14485a2\n      eq\n      tag_11\n      jumpi\n      dup1\n      0xdf0905c6\n      eq\n      tag_12\n      jumpi\n      dup1\n      0xfc993ea8\n      eq\n      tag_13\n      jumpi\n      jump(tag_2)\n    tag_14:\n      dup1\n      0x25ac3a73\n      eq\n      tag_3\n      jumpi\n      dup1\n      0x2895cb7b\n      eq\n      tag_4\n      jumpi\n      dup1\n      0x59de2f60\n      eq\n      tag_5\n      jumpi\n      dup1\n      0x762e9d30\n      eq\n      tag_6\n      jumpi\n      dup1\n      0x77bcd8a6\n      eq\n      tag_7\n      jumpi\n    tag_2:\n      0x00\n      dup1\n      revert\n        /* \"contracts/TimeMarket.sol\":2852:3459  function injectFutureToken(uint64 _id)external{... */\n    tag_3:\n      tag_15\n      0x04\n      dup1\n      calldatasize\n      sub\n      dup2\n      add\n      swap1\n      tag_16\n      swap2\n      swap1\n      tag_17\n      jump\t// in\n    tag_16:\n      tag_18\n      jump\t// in\n    tag_15:\n      stop\n        /* \"contracts/TimeMarket.sol\":5504:6937  function buyerWithdrawRefund(uint64 _id)external{... */\n    tag_4:\n      tag_19\n      0x04\n      dup1\n      calldatasize\n      sub\n      dup2\n      add\n      swap1\n      tag_20\n      swap2\n      swap1\n      tag_17\n      jump\t// in\n    tag_20:\n      tag_21\n      jump\t// in\n    tag_19:\n      stop\n        /* \"contracts/TimeMarket.sol\":929:993  mapping(address => mapping(uint256=>bool))public userIfWithdraw1 */\n    tag_5:\n      tag_22\n      0x04\n      dup1\n      calldatasize\n      sub\n      dup2\n      add\n      swap1\n      tag_23\n      swap2\n      swap1\n      tag_24\n      jump\t// in\n    tag_23:\n      tag_25\n      jump\t// in\n    tag_22:\n      mload(0x40)\n      tag_26\n      swap2\n      swap1\n      tag_27\n      jump\t// in\n    tag_26:\n      mload(0x40)\n      dup1\n      swap2\n      sub\n      swap1\n      return\n        /* \"contracts/TimeMarket.sol\":2141:2723  function Sale(uint64 _id) external {... */\n    tag_6:\n      tag_28\n      0x04\n      dup1\n      calldatasize\n      sub\n      dup2\n      add\n      swap1\n      tag_29\n      swap2\n      swap1\n      tag_17\n      jump\t// in\n    tag_29:\n      tag_30\n      jump\t// in\n    tag_28:\n      stop\n        /* \"contracts/TimeMarket.sol\":4280:5417  function solderWithdrawStable(uint64 _id)external{... */\n    tag_7:\n      tag_31\n      0x04\n      dup1\n      calldatasize\n      sub\n      dup2\n      add\n      swap1\n      tag_32\n      swap2\n      swap1\n      tag_17\n      jump\t// in\n    tag_32:\n      tag_33\n      jump\t// in\n    tag_31:\n      stop\n        /* \"contracts/TimeMarket.sol\":7330:7873  function getPenal(uint128 _soldPrice, uint128 _soldAmount)public pure returns (uint256){... */\n    tag_8:\n      tag_34\n      0x04\n      dup1\n      calldatasize\n      sub\n      dup2\n      add\n      swap1\n      tag_35\n      swap2\n      swap1\n      tag_36\n      jump\t// in\n    tag_35:\n      tag_37\n      jump\t// in\n    tag_34:\n      mload(0x40)\n      tag_38\n      swap2\n      swap1\n      tag_39\n      jump\t// in\n    tag_38:\n      mload(0x40)\n      dup1\n      swap2\n      sub\n      swap1\n      return\n        /* \"contracts/TimeMarket.sol\":1177:1241  mapping(address => mapping(uint256=>bool))public userIfWithdraw3 */\n    tag_9:\n      tag_40\n      0x04\n      dup1\n      calldatasize\n      sub\n      dup2\n      add\n      swap1\n      tag_41\n      swap2\n      swap1\n      tag_24\n      jump\t// in\n    tag_41:\n      tag_42\n      jump\t// in\n    tag_40:\n      mload(0x40)\n      tag_43\n      swap2\n      swap1\n      tag_27\n      jump\t// in\n    tag_43:\n      mload(0x40)\n      dup1\n      swap2\n      sub\n      swap1\n      return\n        /* \"contracts/TimeMarket.sol\":3467:4227  function buyerWithdrawAirdorp(uint64 _id)external{... */\n    tag_10:\n      tag_44\n      0x04\n      dup1\n      calldatasize\n      sub\n      dup2\n      add\n      swap1\n      tag_45\n      swap2\n      swap1\n      tag_17\n      jump\t// in\n    tag_45:\n      tag_46\n      jump\t// in\n    tag_44:\n      stop\n        /* \"contracts/TimeMarket.sol\":1375:2119  function buy(address _tokenAddress,uint128 _buyAmount,uint128 _buyPrice)external{... */\n    tag_11:\n      tag_47\n      0x04\n      dup1\n      calldatasize\n      sub\n      dup2\n      add\n      swap1\n      tag_48\n      swap2\n      swap1\n      tag_49\n      jump\t// in\n    tag_48:\n      tag_50\n      jump\t// in\n    tag_47:\n      stop\n        /* \"contracts/TimeMarket.sol\":1053:1117  mapping(address => mapping(uint256=>bool))public userIfWithdraw2 */\n    tag_12:\n      tag_51\n      0x04\n      dup1\n      calldatasize\n      sub\n      dup2\n      add\n      swap1\n      tag_52\n      swap2\n      swap1\n      tag_24\n      jump\t// in\n    tag_52:\n      tag_53\n      jump\t// in\n    tag_51:\n      mload(0x40)\n      tag_54\n      swap2\n      swap1\n      tag_27\n      jump\t// in\n    tag_54:\n      mload(0x40)\n      dup1\n      swap2\n      sub\n      swap1\n      return\n        /* \"contracts/TimeMarket.sol\":1288:1352  mapping(address => mapping(uint256=>bool))public userIfWithdraw4 */\n    tag_13:\n      tag_55\n      0x04\n      dup1\n      calldatasize\n      sub\n      dup2\n      add\n      swap1\n      tag_56\n      swap2\n      swap1\n      tag_24\n      jump\t// in\n    tag_56:\n      tag_57\n      jump\t// in\n    tag_55:\n      mload(0x40)\n      tag_58\n      swap2\n      swap1\n      tag_27\n      jump\t// in\n    tag_58:\n      mload(0x40)\n      dup1\n      swap2\n      sub\n      swap1\n      return\n        /* \"contracts/TimeMarket.sol\":2852:3459  function injectFutureToken(uint64 _id)external{... */\n    tag_18:\n        /* \"contracts/TimeMarket.sol\":2992:2997  false */\n      0x00\n        /* \"contracts/TimeMarket.sol\":2966:2974  ifInject */\n      0x03\n        /* \"contracts/TimeMarket.sol\":2966:2986  ifInject[msg.sender] */\n      0x00\n        /* \"contracts/TimeMarket.sol\":2975:2985  msg.sender */\n      caller\n        /* \"contracts/TimeMarket.sol\":2966:2986  ifInject[msg.sender] */\n      0xffffffffffffffffffffffffffffffffffffffff\n      and\n      0xffffffffffffffffffffffffffffffffffffffff\n      and\n      dup2\n      mstore\n      0x20\n      add\n      swap1\n      dup2\n      mstore\n      0x20\n      add\n      0x00\n      keccak256\n        /* \"contracts/TimeMarket.sol\":2966:2991  ifInject[msg.sender][_id] */\n      0x00\n        /* \"contracts/TimeMarket.sol\":2987:2990  _id */\n      dup4\n        /* \"contracts/TimeMarket.sol\":2966:2991  ifInject[msg.sender][_id] */\n      0xffffffffffffffff\n      and\n      dup2\n      mstore\n      0x20\n      add\n      swap1\n      dup2\n      mstore\n      0x20\n      add\n      0x00\n      keccak256\n      0x00\n        /* \"contracts/TimeMarket.sol\":2966:2997  ifInject[msg.sender][_id]=false */\n      0x0100\n      exp\n      dup2\n      sload\n      dup2\n      0xff\n      mul\n      not\n      and\n      swap1\n      dup4\n      iszero\n      iszero\n      mul\n      or\n      swap1\n      sstore\n        /* \"contracts/TimeMarket.sol\":2963:3028  if(ifInject[msg.sender][_id]=false){revert AlreadyInjectToken();} */\n      iszero\n      tag_60\n      jumpi\n        /* \"contracts/TimeMarket.sol\":3006:3026  AlreadyInjectToken() */\n      mload(0x40)\n      0x4232716900000000000000000000000000000000000000000000000000000000\n      dup2\n      mstore\n      0x04\n      add\n      mload(0x40)\n      dup1\n      swap2\n      sub\n      swap1\n      revert\n        /* \"contracts/TimeMarket.sol\":2963:3028  if(ifInject[msg.sender][_id]=false){revert AlreadyInjectToken();} */\n    tag_60:\n        /* \"contracts/TimeMarket.sol\":3136:3146  msg.sender */\n      caller\n        /* \"contracts/TimeMarket.sol\":3120:3146  getSolder(_id)!=msg.sender */\n      0xffffffffffffffffffffffffffffffffffffffff\n      and\n        /* \"contracts/TimeMarket.sol\":3120:3134  getSolder(_id) */\n      tag_61\n        /* \"contracts/TimeMarket.sol\":3130:3133  _id */\n      dup3\n        /* \"contracts/TimeMarket.sol\":3120:3129  getSolder */\n      tag_62\n        /* \"contracts/TimeMarket.sol\":3120:3134  getSolder(_id) */\n      jump\t// in\n    tag_61:\n        /* \"contracts/TimeMarket.sol\":3120:3146  getSolder(_id)!=msg.sender */\n      0xffffffffffffffffffffffffffffffffffffffff\n      and\n      eq\n        /* \"contracts/TimeMarket.sol\":3117:3168  if(getSolder(_id)!=msg.sender){revert NorSolder();} */\n      tag_63\n      jumpi\n        /* \"contracts/TimeMarket.sol\":3155:3166  NorSolder() */\n      mload(0x40)\n      0xd7c498bf00000000000000000000000000000000000000000000000000000000\n      dup2\n      mstore\n      0x04\n      add\n      mload(0x40)\n      dup1\n      swap2\n      sub\n      swap1\n      revert\n        /* \"contracts/TimeMarket.sol\":3117:3168  if(getSolder(_id)!=msg.sender){revert NorSolder();} */\n    tag_63:\n        /* \"contracts/TimeMarket.sol\":3225:3250  uint256 thisAirdropAmount */\n      0x00\n        /* \"contracts/TimeMarket.sol\":3251:3260  _tradeMes */\n      0x02\n        /* \"contracts/TimeMarket.sol\":3251:3265  _tradeMes[_id] */\n      0x00\n        /* \"contracts/TimeMarket.sol\":3261:3264  _id */\n      dup4\n        /* \"contracts/TimeMarket.sol\":3251:3265  _tradeMes[_id] */\n      0xffffffffffffffff\n      and\n      0xffffffffffffffff\n      and\n      dup2\n      mstore\n      0x20\n      add\n      swap1\n      dup2\n      mstore\n      0x20\n      add\n      0x00\n      keccak256\n        /* \"contracts/TimeMarket.sol\":3251:3280  _tradeMes[_id].buyTotalAmount */\n      0x00\n      add\n      0x10\n      swap1\n      sload\n      swap1\n      0x0100\n      exp\n      swap1\n      div\n      0xffffffffffffffffffffffffffffffff\n      and\n        /* \"contracts/TimeMarket.sol\":3225:3280  uint256 thisAirdropAmount=_tradeMes[_id].buyTotalAmount */\n      0xffffffffffffffffffffffffffffffff\n      and\n      swap1\n      pop\n        /* \"contracts/TimeMarket.sol\":3291:3372  IERC20(airdropToken).safeTransferFrom(msg.sender,address(this),thisAirdropAmount) */\n      tag_64\n        /* \"contracts/TimeMarket.sol\":3329:3339  msg.sender */\n      caller\n        /* \"contracts/TimeMarket.sol\":3348:3352  this */\n      address\n        /* \"contracts/TimeMarket.sol\":3354:3371  thisAirdropAmount */\n      dup4\n        /* \"contracts/TimeMarket.sol\":3298:3310  airdropToken */\n      0x01\n      0x00\n      swap1\n      sload\n      swap1\n      0x0100\n      exp\n      swap1\n      div\n      0xffffffffffffffffffffffffffffffffffffffff\n      and\n        /* \"contracts/TimeMarket.sol\":3291:3328  IERC20(airdropToken).safeTransferFrom */\n      0xffffffffffffffffffffffffffffffffffffffff\n      and\n      tag_65\n      swap1\n        /* \"contracts/TimeMarket.sol\":3291:3372  IERC20(airdropToken).safeTransferFrom(msg.sender,address(this),thisAirdropAmount) */\n      swap4\n      swap3\n      swap2\n      swap1\n      0xffffffff\n      and\n      jump\t// in\n    tag_64:\n        /* \"contracts/TimeMarket.sol\":3409:3413  true */\n      0x01\n        /* \"contracts/TimeMarket.sol\":3383:3391  ifInject */\n      0x03\n        /* \"contracts/TimeMarket.sol\":3383:3403  ifInject[msg.sender] */\n      0x00\n        /* \"contracts/TimeMarket.sol\":3392:3402  msg.sender */\n      caller\n        /* \"contracts/TimeMarket.sol\":3383:3403  ifInject[msg.sender] */\n      0xffffffffffffffffffffffffffffffffffffffff\n      and\n      0xffffffffffffffffffffffffffffffffffffffff\n      and\n      dup2\n      mstore\n      0x20\n      add\n      swap1\n      dup2\n      mstore\n      0x20\n      add\n      0x00\n      keccak256\n        /* \"contracts/TimeMarket.sol\":3383:3408  ifInject[msg.sender][_id] */\n      0x00\n        /* \"contracts/TimeMarket.sol\":3404:3407  _id */\n      dup5\n        /* \"contracts/TimeMarket.sol\":3383:3408  ifInject[msg.sender][_id] */\n      0xffffffffffffffff\n      and\n      dup2\n      mstore\n      0x20\n      add\n      swap1\n      dup2\n      mstore\n      0x20\n      add\n      0x00\n      keccak256\n      0x00\n        /* \"contracts/TimeMarket.sol\":3383:3413  ifInject[msg.sender][_id]=true */\n      0x0100\n      exp\n      dup2\n      sload\n      dup2\n      0xff\n      mul\n      not\n      and\n      swap1\n      dup4\n      iszero\n      iszero\n      mul\n      or\n      swap1\n      sstore\n      pop\n        /* \"contracts/TimeMarket.sol\":3450:3451  3 */\n      0x03\n        /* \"contracts/TimeMarket.sol\":3424:3433  _tradeMes */\n      0x02\n        /* \"contracts/TimeMarket.sol\":3424:3438  _tradeMes[_id] */\n      0x00\n        /* \"contracts/TimeMarket.sol\":3434:3437  _id */\n      dup5\n        /* \"contracts/TimeMarket.sol\":3424:3438  _tradeMes[_id] */\n      0xffffffffffffffff\n      and\n      0xffffffffffffffff\n      and\n      dup2\n      mstore\n      0x20\n      add\n      swap1\n      dup2\n      mstore\n      0x20\n      add\n      0x00\n      keccak256\n        /* \"contracts/TimeMarket.sol\":3424:3449  _tradeMes[_id].tradeState */\n      0x00\n      add\n      0x00\n        /* \"contracts/TimeMarket.sol\":3424:3451  _tradeMes[_id].tradeState=3 */\n      0x0100\n      exp\n      dup2\n      sload\n      dup2\n      0xff\n      mul\n      not\n      and\n      swap1\n      dup4\n      0xff\n      and\n      mul\n      or\n      swap1\n      sstore\n      pop\n        /* \"contracts/TimeMarket.sol\":2898:3459  {... */\n      pop\n        /* \"contracts/TimeMarket.sol\":2852:3459  function injectFutureToken(uint64 _id)external{... */\n      pop\n      jump\t// out\n        /* \"contracts/TimeMarket.sol\":5504:6937  function buyerWithdrawRefund(uint64 _id)external{... */\n    tag_21:\n        /* \"contracts/TimeMarket.sol\":5563:5576  address buyer */\n      0x00\n        /* \"contracts/TimeMarket.sol\":5577:5590  getBuyer(_id) */\n      tag_67\n        /* \"contracts/TimeMarket.sol\":5586:5589  _id */\n      dup3\n        /* \"contracts/TimeMarket.sol\":5577:5585  getBuyer */\n      tag_68\n        /* \"contracts/TimeMarket.sol\":5577:5590  getBuyer(_id) */\n      jump\t// in\n    tag_67:\n        /* \"contracts/TimeMarket.sol\":5563:5590  address buyer=getBuyer(_id) */\n      swap1\n      pop\n        /* \"contracts/TimeMarket.sol\":5601:5615  address solder */\n      0x00\n        /* \"contracts/TimeMarket.sol\":5616:5630  getSolder(_id) */\n      tag_69\n        /* \"contracts/TimeMarket.sol\":5626:5629  _id */\n      dup4\n        /* \"contracts/TimeMarket.sol\":5616:5625  getSolder */\n      tag_62\n        /* \"contracts/TimeMarket.sol\":5616:5630  getSolder(_id) */\n      jump\t// in\n    tag_69:\n        /* \"contracts/TimeMarket.sol\":5601:5630  address solder=getSolder(_id) */\n      swap1\n      pop\n        /* \"contracts/TimeMarket.sol\":5694:5699  buyer */\n      dup2\n        /* \"contracts/TimeMarket.sol\":5682:5699  msg.sender==buyer */\n      0xffffffffffffffffffffffffffffffffffffffff\n      and\n        /* \"contracts/TimeMarket.sol\":5682:5692  msg.sender */\n      caller\n        /* \"contracts/TimeMarket.sol\":5682:5699  msg.sender==buyer */\n      0xffffffffffffffffffffffffffffffffffffffff\n      and\n      eq\n        /* \"contracts/TimeMarket.sol\":5674:5700  require(msg.sender==buyer) */\n      tag_70\n      jumpi\n      0x00\n      dup1\n      revert\n    tag_70:\n        /* \"contracts/TimeMarket.sol\":5805:5810  false */\n      0x00\n        /* \"contracts/TimeMarket.sol\":5782:5810  ifInject[solder][_id]==false */\n      iszero\n      iszero\n        /* \"contracts/TimeMarket.sol\":5782:5790  ifInject */\n      0x03\n        /* \"contracts/TimeMarket.sol\":5782:5798  ifInject[solder] */\n      0x00\n        /* \"contracts/TimeMarket.sol\":5791:5797  solder */\n      dup4\n        /* \"contracts/TimeMarket.sol\":5782:5798  ifInject[solder] */\n      0xffffffffffffffffffffffffffffffffffffffff\n      and\n      0xffffffffffffffffffffffffffffffffffffffff\n      and\n      dup2\n      mstore\n      0x20\n      add\n      swap1\n      dup2\n      mstore\n      0x20\n      add\n      0x00\n      keccak256\n        /* \"contracts/TimeMarket.sol\":5782:5803  ifInject[solder][_id] */\n      0x00\n        /* \"contracts/TimeMarket.sol\":5799:5802  _id */\n      dup6\n        /* \"contracts/TimeMarket.sol\":5782:5803  ifInject[solder][_id] */\n      0xffffffffffffffff\n      and\n      dup2\n      mstore\n      0x20\n      add\n      swap1\n      dup2\n      mstore\n      0x20\n      add\n      0x00\n      keccak256\n      0x00\n      swap1\n      sload\n      swap1\n      0x0100\n      exp\n      swap1\n      div\n      0xff\n      and\n        /* \"contracts/TimeMarket.sol\":5782:5810  ifInject[solder][_id]==false */\n      iszero\n      iszero\n      eq\n        /* \"contracts/TimeMarket.sol\":5774:5811  require(ifInject[solder][_id]==false) */\n      tag_71\n      jumpi\n      0x00\n      dup1\n      revert\n    tag_71:\n        /* \"contracts/TimeMarket.sol\":5864:5869  false */\n      0x00\n        /* \"contracts/TimeMarket.sol\":5830:5869  userIfWithdraw3[msg.sender][_id]==false */\n      iszero\n      iszero\n        /* \"contracts/TimeMarket.sol\":5830:5845  userIfWithdraw3 */\n      0x06\n        /* \"contracts/TimeMarket.sol\":5830:5857  userIfWithdraw3[msg.sender] */\n      0x00\n        /* \"contracts/TimeMarket.sol\":5846:5856  msg.sender */\n      caller\n        /* \"contracts/TimeMarket.sol\":5830:5857  userIfWithdraw3[msg.sender] */\n      0xffffffffffffffffffffffffffffffffffffffff\n      and\n      0xffffffffffffffffffffffffffffffffffffffff\n      and\n      dup2\n      mstore\n      0x20\n      add\n      swap1\n      dup2\n      mstore\n      0x20\n      add\n      0x00\n      keccak256\n        /* \"contracts/TimeMarket.sol\":5830:5862  userIfWithdraw3[msg.sender][_id] */\n      0x00\n        /* \"contracts/TimeMarket.sol\":5858:5861  _id */\n      dup6\n        /* \"contracts/TimeMarket.sol\":5830:5862  userIfWithdraw3[msg.sender][_id] */\n      0xffffffffffffffff\n      and\n      dup2\n      mstore\n      0x20\n      add\n      swap1\n      dup2\n      mstore\n      0x20\n      add\n      0x00\n      keccak256\n      0x00\n      swap1\n      sload\n      swap1\n      0x0100\n      exp\n      swap1\n      div\n      0xff\n      and\n        /* \"contracts/TimeMarket.sol\":5830:5869  userIfWithdraw3[msg.sender][_id]==false */\n      iszero\n      iszero\n      eq\n        /* \"contracts/TimeMarket.sol\":5822:5870  require(userIfWithdraw3[msg.sender][_id]==false) */\n      tag_72\n      jumpi\n      0x00\n      dup1\n      revert\n    tag_72:\n        /* \"contracts/TimeMarket.sol\":5934:5939  buyer */\n      dup2\n        /* \"contracts/TimeMarket.sol\":5922:5939  msg.sender==buyer */\n      0xffffffffffffffffffffffffffffffffffffffff\n      and\n        /* \"contracts/TimeMarket.sol\":5922:5932  msg.sender */\n      caller\n        /* \"contracts/TimeMarket.sol\":5922:5939  msg.sender==buyer */\n      0xffffffffffffffffffffffffffffffffffffffff\n      and\n      eq\n        /* \"contracts/TimeMarket.sol\":5914:5940  require(msg.sender==buyer) */\n      tag_73\n      jumpi\n      0x00\n      dup1\n      revert\n    tag_73:\n        /* \"contracts/TimeMarket.sol\":5953:5979  address promiseStableToken */\n      0x00\n        /* \"contracts/TimeMarket.sol\":5980:5989  _tradeMes */\n      0x02\n        /* \"contracts/TimeMarket.sol\":5980:5994  _tradeMes[_id] */\n      0x00\n        /* \"contracts/TimeMarket.sol\":5990:5993  _id */\n      dup6\n        /* \"contracts/TimeMarket.sol\":5980:5994  _tradeMes[_id] */\n      0xffffffffffffffff\n      and\n      0xffffffffffffffff\n      and\n      dup2\n      mstore\n      0x20\n      add\n      swap1\n      dup2\n      mstore\n      0x20\n      add\n      0x00\n      keccak256\n        /* \"contracts/TimeMarket.sol\":5980:6007  _tradeMes[_id].tokenAddress */\n      0x02\n      add\n      0x00\n      swap1\n      sload\n      swap1\n      0x0100\n      exp\n      swap1\n      div\n      0xffffffffffffffffffffffffffffffffffffffff\n      and\n        /* \"contracts/TimeMarket.sol\":5953:6007  address promiseStableToken=_tradeMes[_id].tokenAddress */\n      swap1\n      pop\n        /* \"contracts/TimeMarket.sol\":6018:6040  uint256 penalSumAmount */\n      0x00\n        /* \"contracts/TimeMarket.sol\":6041:6104  getPenal(_tradeMes[_id].buyPrice,_tradeMes[_id].buyTotalAmount) */\n      tag_74\n        /* \"contracts/TimeMarket.sol\":6050:6059  _tradeMes */\n      0x02\n        /* \"contracts/TimeMarket.sol\":6050:6064  _tradeMes[_id] */\n      0x00\n        /* \"contracts/TimeMarket.sol\":6060:6063  _id */\n      dup8\n        /* \"contracts/TimeMarket.sol\":6050:6064  _tradeMes[_id] */\n      0xffffffffffffffff\n      and\n      0xffffffffffffffff\n      and\n      dup2\n      mstore\n      0x20\n      add\n      swap1\n      dup2\n      mstore\n      0x20\n      add\n      0x00\n      keccak256\n        /* \"contracts/TimeMarket.sol\":6050:6073  _tradeMes[_id].buyPrice */\n      0x01\n      add\n      0x00\n      swap1\n      sload\n      swap1\n      0x0100\n      exp\n      swap1\n      div\n      0xffffffffffffffffffffffffffffffff\n      and\n        /* \"contracts/TimeMarket.sol\":6074:6083  _tradeMes */\n      0x02\n        /* \"contracts/TimeMarket.sol\":6074:6088  _tradeMes[_id] */\n      0x00\n        /* \"contracts/TimeMarket.sol\":6084:6087  _id */\n      dup9\n        /* \"contracts/TimeMarket.sol\":6074:6088  _tradeMes[_id] */\n      0xffffffffffffffff\n      and\n      0xffffffffffffffff\n      and\n      dup2\n      mstore\n      0x20\n      add\n      swap1\n      dup2\n      mstore\n      0x20\n      add\n      0x00\n      keccak256\n        /* \"contracts/TimeMarket.sol\":6074:6103  _tradeMes[_id].buyTotalAmount */\n      0x00\n      add\n      0x10\n      swap1\n      sload\n      swap1\n      0x0100\n      exp\n      swap1\n      div\n      0xffffffffffffffffffffffffffffffff\n      and\n        /* \"contracts/TimeMarket.sol\":6041:6049  getPenal */\n      tag_37\n        /* \"contracts/TimeMarket.sol\":6041:6104  getPenal(_tradeMes[_id].buyPrice,_tradeMes[_id].buyTotalAmount) */\n      jump\t// in\n    tag_74:\n        /* \"contracts/TimeMarket.sol\":6018:6104  uint256 penalSumAmount=getPenal(_tradeMes[_id].buyPrice,_tradeMes[_id].buyTotalAmount) */\n      swap1\n      pop\n        /* \"contracts/TimeMarket.sol\":6115:6126  uint256 fee */\n      0x00\n        /* \"contracts/TimeMarket.sol\":6127:6154  TimeFee.fee(penalSumAmount) */\n      tag_75\n        /* \"contracts/TimeMarket.sol\":6139:6153  penalSumAmount */\n      dup3\n        /* \"contracts/TimeMarket.sol\":6127:6138  TimeFee.fee */\n      tag_76\n        /* \"contracts/TimeMarket.sol\":6127:6154  TimeFee.fee(penalSumAmount) */\n      jump\t// in\n    tag_75:\n        /* \"contracts/TimeMarket.sol\":6115:6154  uint256 fee=TimeFee.fee(penalSumAmount) */\n      swap1\n      pop\n        /* \"contracts/TimeMarket.sol\":6183:6279  IERC20(promiseStableToken).safeTransfer(... */\n      tag_77\n        /* \"contracts/TimeMarket.sol\":6245:6249  this */\n      address\n        /* \"contracts/TimeMarket.sol\":6265:6268  fee */\n      dup3\n        /* \"contracts/TimeMarket.sol\":6190:6208  promiseStableToken */\n      dup6\n        /* \"contracts/TimeMarket.sol\":6183:6222  IERC20(promiseStableToken).safeTransfer */\n      0xffffffffffffffffffffffffffffffffffffffff\n      and\n      tag_78\n      swap1\n        /* \"contracts/TimeMarket.sol\":6183:6279  IERC20(promiseStableToken).safeTransfer(... */\n      swap3\n      swap2\n      swap1\n      0xffffffff\n      and\n      jump\t// in\n    tag_77:\n        /* \"contracts/TimeMarket.sol\":6335:6438  IERC20(promiseStableToken).safeTransfer(... */\n      tag_79\n        /* \"contracts/TimeMarket.sol\":6389:6394  buyer */\n      dup6\n        /* \"contracts/TimeMarket.sol\":6424:6427  fee */\n      dup3\n        /* \"contracts/TimeMarket.sol\":6409:6423  penalSumAmount */\n      dup5\n        /* \"contracts/TimeMarket.sol\":6409:6427  penalSumAmount-fee */\n      tag_80\n      swap2\n      swap1\n      tag_81\n      jump\t// in\n    tag_80:\n        /* \"contracts/TimeMarket.sol\":6342:6360  promiseStableToken */\n      dup6\n        /* \"contracts/TimeMarket.sol\":6335:6374  IERC20(promiseStableToken).safeTransfer */\n      0xffffffffffffffffffffffffffffffffffffffff\n      and\n      tag_78\n      swap1\n        /* \"contracts/TimeMarket.sol\":6335:6438  IERC20(promiseStableToken).safeTransfer(... */\n      swap3\n      swap2\n      swap1\n      0xffffffff\n      and\n      jump\t// in\n    tag_79:\n        /* \"contracts/TimeMarket.sol\":6482:6486  true */\n      0x01\n        /* \"contracts/TimeMarket.sol\":6449:6464  userIfWithdraw3 */\n      0x06\n        /* \"contracts/TimeMarket.sol\":6449:6476  userIfWithdraw3[msg.sender] */\n      0x00\n        /* \"contracts/TimeMarket.sol\":6465:6475  msg.sender */\n      caller\n        /* \"contracts/TimeMarket.sol\":6449:6476  userIfWithdraw3[msg.sender] */\n      0xffffffffffffffffffffffffffffffffffffffff\n      and\n      0xffffffffffffffffffffffffffffffffffffffff\n      and\n      dup2\n      mstore\n      0x20\n      add\n      swap1\n      dup2\n      mstore\n      0x20\n      add\n      0x00\n      keccak256\n        /* \"contracts/TimeMarket.sol\":6449:6481  userIfWithdraw3[msg.sender][_id] */\n      0x00\n        /* \"contracts/TimeMarket.sol\":6477:6480  _id */\n      dup9\n        /* \"contracts/TimeMarket.sol\":6449:6481  userIfWithdraw3[msg.sender][_id] */\n      0xffffffffffffffff\n      and\n      dup2\n      mstore\n      0x20\n      add\n      swap1\n      dup2\n      mstore\n      0x20\n      add\n      0x00\n      keccak256\n      0x00\n        /* \"contracts/TimeMarket.sol\":6449:6486  userIfWithdraw3[msg.sender][_id]=true */\n      0x0100\n      exp\n      dup2\n      sload\n      dup2\n      0xff\n      mul\n      not\n      and\n      swap1\n      dup4\n      iszero\n      iszero\n      mul\n      or\n      swap1\n      sstore\n      pop\n        /* \"contracts/TimeMarket.sol\":6529:6530  1 */\n      0x01\n        /* \"contracts/TimeMarket.sol\":6502:6511  _tradeMes */\n      0x02\n        /* \"contracts/TimeMarket.sol\":6502:6516  _tradeMes[_id] */\n      0x00\n        /* \"contracts/TimeMarket.sol\":6512:6515  _id */\n      dup9\n        /* \"contracts/TimeMarket.sol\":6502:6516  _tradeMes[_id] */\n      0xffffffffffffffff\n      and\n      0xffffffffffffffff\n      and\n      dup2\n      mstore\n      0x20\n      add\n      swap1\n      dup2\n      mstore\n      0x20\n      add\n      0x00\n      keccak256\n        /* \"contracts/TimeMarket.sol\":6502:6527  _tradeMes[_id].tradeState */\n      0x00\n      add\n      0x00\n      swap1\n      sload\n      swap1\n      0x0100\n      exp\n      swap1\n      div\n      0xff\n      and\n        /* \"contracts/TimeMarket.sol\":6502:6530  _tradeMes[_id].tradeState==1 */\n      0xff\n      and\n      eq\n        /* \"contracts/TimeMarket.sol\":6499:6892  if(_tradeMes[_id].tradeState==1){... */\n      iszero\n      tag_82\n      jumpi\n        /* \"contracts/TimeMarket.sol\":6588:6593  false */\n      0x00\n        /* \"contracts/TimeMarket.sol\":6554:6593  userIfWithdraw4[msg.sender][_id]==false */\n      iszero\n      iszero\n        /* \"contracts/TimeMarket.sol\":6554:6569  userIfWithdraw4 */\n      0x07\n        /* \"contracts/TimeMarket.sol\":6554:6581  userIfWithdraw4[msg.sender] */\n      0x00\n        /* \"contracts/TimeMarket.sol\":6570:6580  msg.sender */\n      caller\n        /* \"contracts/TimeMarket.sol\":6554:6581  userIfWithdraw4[msg.sender] */\n      0xffffffffffffffffffffffffffffffffffffffff\n      and\n      0xffffffffffffffffffffffffffffffffffffffff\n      and\n      dup2\n      mstore\n      0x20\n      add\n      swap1\n      dup2\n      mstore\n      0x20\n      add\n      0x00\n      keccak256\n        /* \"contracts/TimeMarket.sol\":6554:6586  userIfWithdraw4[msg.sender][_id] */\n      0x00\n        /* \"contracts/TimeMarket.sol\":6582:6585  _id */\n      dup9\n        /* \"contracts/TimeMarket.sol\":6554:6586  userIfWithdraw4[msg.sender][_id] */\n      0xffffffffffffffff\n      and\n      dup2\n      mstore\n      0x20\n      add\n      swap1\n      dup2\n      mstore\n      0x20\n      add\n      0x00\n      keccak256\n      0x00\n      swap1\n      sload\n      swap1\n      0x0100\n      exp\n      swap1\n      div\n      0xff\n      and\n        /* \"contracts/TimeMarket.sol\":6554:6593  userIfWithdraw4[msg.sender][_id]==false */\n      iszero\n      iszero\n      eq\n        /* \"contracts/TimeMarket.sol\":6546:6594  require(userIfWithdraw4[msg.sender][_id]==false) */\n      tag_83\n      jumpi\n      0x00\n      dup1\n      revert\n    tag_83:\n        /* \"contracts/TimeMarket.sol\":6609:6622  uint256 total */\n      0x00\n        /* \"contracts/TimeMarket.sol\":6647:6656  _tradeMes */\n      0x02\n        /* \"contracts/TimeMarket.sol\":6647:6661  _tradeMes[_id] */\n      0x00\n        /* \"contracts/TimeMarket.sol\":6657:6660  _id */\n      dup9\n        /* \"contracts/TimeMarket.sol\":6647:6661  _tradeMes[_id] */\n      0xffffffffffffffff\n      and\n      0xffffffffffffffff\n      and\n      dup2\n      mstore\n      0x20\n      add\n      swap1\n      dup2\n      mstore\n      0x20\n      add\n      0x00\n      keccak256\n        /* \"contracts/TimeMarket.sol\":6647:6676  _tradeMes[_id].buyTotalAmount */\n      0x00\n      add\n      0x10\n      swap1\n      sload\n      swap1\n      0x0100\n      exp\n      swap1\n      div\n      0xffffffffffffffffffffffffffffffff\n      and\n        /* \"contracts/TimeMarket.sol\":6623:6632  _tradeMes */\n      0x02\n        /* \"contracts/TimeMarket.sol\":6623:6637  _tradeMes[_id] */\n      0x00\n        /* \"contracts/TimeMarket.sol\":6633:6636  _id */\n      dup10\n        /* \"contracts/TimeMarket.sol\":6623:6637  _tradeMes[_id] */\n      0xffffffffffffffff\n      and\n      0xffffffffffffffff\n      and\n      dup2\n      mstore\n      0x20\n      add\n      swap1\n      dup2\n      mstore\n      0x20\n      add\n      0x00\n      keccak256\n        /* \"contracts/TimeMarket.sol\":6623:6646  _tradeMes[_id].buyPrice */\n      0x01\n      add\n      0x00\n      swap1\n      sload\n      swap1\n      0x0100\n      exp\n      swap1\n      div\n      0xffffffffffffffffffffffffffffffff\n      and\n        /* \"contracts/TimeMarket.sol\":6623:6676  _tradeMes[_id].buyPrice*_tradeMes[_id].buyTotalAmount */\n      tag_84\n      swap2\n      swap1\n      tag_85\n      jump\t// in\n    tag_84:\n        /* \"contracts/TimeMarket.sol\":6609:6676  uint256 total=_tradeMes[_id].buyPrice*_tradeMes[_id].buyTotalAmount */\n      0xffffffffffffffffffffffffffffffff\n      and\n      swap1\n      pop\n        /* \"contracts/TimeMarket.sol\":6718:6828  IERC20(promiseStableToken).safeTransfer(... */\n      tag_86\n        /* \"contracts/TimeMarket.sol\":6776:6789  getBuyer(_id) */\n      tag_87\n        /* \"contracts/TimeMarket.sol\":6785:6788  _id */\n      dup9\n        /* \"contracts/TimeMarket.sol\":6776:6784  getBuyer */\n      tag_68\n        /* \"contracts/TimeMarket.sol\":6776:6789  getBuyer(_id) */\n      jump\t// in\n    tag_87:\n        /* \"contracts/TimeMarket.sol\":6808:6813  total */\n      dup3\n        /* \"contracts/TimeMarket.sol\":6725:6743  promiseStableToken */\n      dup7\n        /* \"contracts/TimeMarket.sol\":6718:6757  IERC20(promiseStableToken).safeTransfer */\n      0xffffffffffffffffffffffffffffffffffffffff\n      and\n      tag_78\n      swap1\n        /* \"contracts/TimeMarket.sol\":6718:6828  IERC20(promiseStableToken).safeTransfer(... */\n      swap3\n      swap2\n      swap1\n      0xffffffff\n      and\n      jump\t// in\n    tag_86:\n        /* \"contracts/TimeMarket.sol\":6876:6880  true */\n      0x01\n        /* \"contracts/TimeMarket.sol\":6843:6858  userIfWithdraw4 */\n      0x07\n        /* \"contracts/TimeMarket.sol\":6843:6870  userIfWithdraw4[msg.sender] */\n      0x00\n        /* \"contracts/TimeMarket.sol\":6859:6869  msg.sender */\n      caller\n        /* \"contracts/TimeMarket.sol\":6843:6870  userIfWithdraw4[msg.sender] */\n      0xffffffffffffffffffffffffffffffffffffffff\n      and\n      0xffffffffffffffffffffffffffffffffffffffff\n      and\n      dup2\n      mstore\n      0x20\n      add\n      swap1\n      dup2\n      mstore\n      0x20\n      add\n      0x00\n      keccak256\n        /* \"contracts/TimeMarket.sol\":6843:6875  userIfWithdraw4[msg.sender][_id] */\n      0x00\n        /* \"contracts/TimeMarket.sol\":6871:6874  _id */\n      dup10\n        /* \"contracts/TimeMarket.sol\":6843:6875  userIfWithdraw4[msg.sender][_id] */\n      0xffffffffffffffff\n      and\n      dup2\n      mstore\n      0x20\n      add\n      swap1\n      dup2\n      mstore\n      0x20\n      add\n      0x00\n      keccak256\n      0x00\n        /* \"contracts/TimeMarket.sol\":6843:6880  userIfWithdraw4[msg.sender][_id]=true */\n      0x0100\n      exp\n      dup2\n      sload\n      dup2\n      0xff\n      mul\n      not\n      and\n      swap1\n      dup4\n      iszero\n      iszero\n      mul\n      or\n      swap1\n      sstore\n      pop\n        /* \"contracts/TimeMarket.sol\":6531:6892  {... */\n      pop\n        /* \"contracts/TimeMarket.sol\":6499:6892  if(_tradeMes[_id].tradeState==1){... */\n    tag_82:\n        /* \"contracts/TimeMarket.sol\":6928:6929  5 */\n      0x05\n        /* \"contracts/TimeMarket.sol\":6902:6911  _tradeMes */\n      0x02\n        /* \"contracts/TimeMarket.sol\":6902:6916  _tradeMes[_id] */\n      0x00\n        /* \"contracts/TimeMarket.sol\":6912:6915  _id */\n      dup9\n        /* \"contracts/TimeMarket.sol\":6902:6916  _tradeMes[_id] */\n      0xffffffffffffffff\n      and\n      0xffffffffffffffff\n      and\n      dup2\n      mstore\n      0x20\n      add\n      swap1\n      dup2\n      mstore\n      0x20\n      add\n      0x00\n      keccak256\n        /* \"contracts/TimeMarket.sol\":6902:6927  _tradeMes[_id].tradeState */\n      0x00\n      add\n      0x00\n        /* \"contracts/TimeMarket.sol\":6902:6929  _tradeMes[_id].tradeState=5 */\n      0x0100\n      exp\n      dup2\n      sload\n      dup2\n      0xff\n      mul\n      not\n      and\n      swap1\n      dup4\n      0xff\n      and\n      mul\n      or\n      swap1\n      sstore\n      pop\n        /* \"contracts/TimeMarket.sol\":5552:6937  {... */\n      pop\n      pop\n      pop\n      pop\n      pop\n        /* \"contracts/TimeMarket.sol\":5504:6937  function buyerWithdrawRefund(uint64 _id)external{... */\n      pop\n      jump\t// out\n        /* \"contracts/TimeMarket.sol\":929:993  mapping(address => mapping(uint256=>bool))public userIfWithdraw1 */\n    tag_25:\n      mstore(0x20, 0x04)\n      dup2\n      0x00\n      mstore\n      mstore(0x20, keccak256(0x00, 0x40))\n      dup1\n      0x00\n      mstore\n      keccak256(0x00, 0x40)\n      0x00\n      swap2\n      pop\n      swap2\n      pop\n      swap1\n      sload\n      swap1\n      0x0100\n      exp\n      swap1\n      div\n      0xff\n      and\n      dup2\n      jump\t// out\n        /* \"contracts/TimeMarket.sol\":2141:2723  function Sale(uint64 _id) external {... */\n    tag_30:\n        /* \"contracts/TimeMarket.sol\":2187:2214  tradeMes memory maxTradeMes */\n      0x00\n        /* \"contracts/TimeMarket.sol\":2215:2224  _tradeMes */\n      0x02\n        /* \"contracts/TimeMarket.sol\":2215:2229  _tradeMes[_id] */\n      0x00\n        /* \"contracts/TimeMarket.sol\":2225:2228  _id */\n      dup4\n        /* \"contracts/TimeMarket.sol\":2215:2229  _tradeMes[_id] */\n      0xffffffffffffffff\n      and\n      0xffffffffffffffff\n      and\n      dup2\n      mstore\n      0x20\n      add\n      swap1\n      dup2\n      mstore\n      0x20\n      add\n      0x00\n      keccak256\n        /* \"contracts/TimeMarket.sol\":2187:2229  tradeMes memory maxTradeMes=_tradeMes[_id] */\n      mload(0x40)\n      dup1\n      0x0100\n      add\n      0x40\n      mstore\n      swap1\n      dup2\n      0x00\n      dup3\n      add\n      0x00\n      swap1\n      sload\n      swap1\n      0x0100\n      exp\n      swap1\n      div\n      0xff\n      and\n      0xff\n      and\n      0xff\n      and\n      dup2\n      mstore\n      0x20\n      add\n      0x00\n      dup3\n      add\n      0x01\n      swap1\n      sload\n      swap1\n      0x0100\n      exp\n      swap1\n      div\n      0xffffffffffffffff\n      and\n      0xffffffffffffffff\n      and\n      0xffffffffffffffff\n      and\n      dup2\n      mstore\n      0x20\n      add\n      0x00\n      dup3\n      add\n      0x09\n      swap1\n      sload\n      swap1\n      0x0100\n      exp\n      swap1\n      div\n      0xffffffffffffff\n      and\n      0xffffffffffffff\n      and\n      0xffffffffffffff\n      and\n      dup2\n      mstore\n      0x20\n      add\n      0x00\n      dup3\n      add\n      0x10\n      swap1\n      sload\n      swap1\n      0x0100\n      exp\n      swap1\n      div\n      0xffffffffffffffffffffffffffffffff\n      and\n      0xffffffffffffffffffffffffffffffff\n      and\n      0xffffffffffffffffffffffffffffffff\n      and\n      dup2\n      mstore\n      0x20\n      add\n      0x01\n      dup3\n      add\n      0x00\n      swap1\n      sload\n      swap1\n      0x0100\n      exp\n      swap1\n      div\n      0xffffffffffffffffffffffffffffffff\n      and\n      0xffffffffffffffffffffffffffffffff\n      and\n      0xffffffffffffffffffffffffffffffff\n      and\n      dup2\n      mstore\n      0x20\n      add\n      0x02\n      dup3\n      add\n      0x00\n      swap1\n      sload\n      swap1\n      0x0100\n      exp\n      swap1\n      div\n      0xffffffffffffffffffffffffffffffffffffffff\n      and\n      0xffffffffffffffffffffffffffffffffffffffff\n      and\n      0xffffffffffffffffffffffffffffffffffffffff\n      and\n      dup2\n      mstore\n      0x20\n      add\n      0x03\n      dup3\n      add\n      0x00\n      swap1\n      sload\n      swap1\n      0x0100\n      exp\n      swap1\n      div\n      0xffffffffffffffffffffffffffffffffffffffff\n      and\n      0xffffffffffffffffffffffffffffffffffffffff\n      and\n      0xffffffffffffffffffffffffffffffffffffffff\n      and\n      dup2\n      mstore\n      0x20\n      add\n      0x04\n      dup3\n      add\n      0x00\n      swap1\n      sload\n      swap1\n      0x0100\n      exp\n      swap1\n      div\n      0xffffffffffffffffffffffffffffffffffffffff\n      and\n      0xffffffffffffffffffffffffffffffffffffffff\n      and\n      0xffffffffffffffffffffffffffffffffffffffff\n      and\n      dup2\n      mstore\n      pop\n      pop\n      swap1\n      pop\n        /* \"contracts/TimeMarket.sol\":2272:2273  1 */\n      0x01\n        /* \"contracts/TimeMarket.sol\":2248:2259  maxTradeMes */\n      dup2\n        /* \"contracts/TimeMarket.sol\":2248:2270  maxTradeMes.tradeState */\n      0x00\n      add\n      mload\n        /* \"contracts/TimeMarket.sol\":2248:2273  maxTradeMes.tradeState==1 */\n      0xff\n      and\n      eq\n        /* \"contracts/TimeMarket.sol\":2240:2274  require(maxTradeMes.tradeState==1) */\n      tag_89\n      jumpi\n      0x00\n      dup1\n      revert\n    tag_89:\n        /* \"contracts/TimeMarket.sol\":2315:2341  address promiseStableToken */\n      0x00\n        /* \"contracts/TimeMarket.sol\":2342:2353  maxTradeMes */\n      dup2\n        /* \"contracts/TimeMarket.sol\":2342:2366  maxTradeMes.tokenAddress */\n      0xa0\n      add\n      mload\n        /* \"contracts/TimeMarket.sol\":2315:2366  address promiseStableToken=maxTradeMes.tokenAddress */\n      swap1\n      pop\n        /* \"contracts/TimeMarket.sol\":2404:2584  IERC20(promiseStableToken).safeTransferFrom(... */\n      tag_90\n        /* \"contracts/TimeMarket.sol\":2462:2472  msg.sender */\n      caller\n        /* \"contracts/TimeMarket.sol\":2495:2499  this */\n      address\n        /* \"contracts/TimeMarket.sol\":2515:2573  getPenal(maxTradeMes.buyPrice, maxTradeMes.buyTotalAmount) */\n      tag_91\n        /* \"contracts/TimeMarket.sol\":2524:2535  maxTradeMes */\n      dup6\n        /* \"contracts/TimeMarket.sol\":2524:2544  maxTradeMes.buyPrice */\n      0x80\n      add\n      mload\n        /* \"contracts/TimeMarket.sol\":2546:2557  maxTradeMes */\n      dup7\n        /* \"contracts/TimeMarket.sol\":2546:2572  maxTradeMes.buyTotalAmount */\n      0x60\n      add\n      mload\n        /* \"contracts/TimeMarket.sol\":2515:2523  getPenal */\n      tag_37\n        /* \"contracts/TimeMarket.sol\":2515:2573  getPenal(maxTradeMes.buyPrice, maxTradeMes.buyTotalAmount) */\n      jump\t// in\n    tag_91:\n        /* \"contracts/TimeMarket.sol\":2411:2429  promiseStableToken */\n      dup5\n        /* \"contracts/TimeMarket.sol\":2404:2447  IERC20(promiseStableToken).safeTransferFrom */\n      0xffffffffffffffffffffffffffffffffffffffff\n      and\n      tag_65\n      swap1\n        /* \"contracts/TimeMarket.sol\":2404:2584  IERC20(promiseStableToken).safeTransferFrom(... */\n      swap4\n      swap3\n      swap2\n      swap1\n      0xffffffff\n      and\n      jump\t// in\n    tag_90:\n        /* \"contracts/TimeMarket.sol\":2624:2634  msg.sender */\n      caller\n        /* \"contracts/TimeMarket.sol\":2595:2604  _tradeMes */\n      0x02\n        /* \"contracts/TimeMarket.sol\":2595:2609  _tradeMes[_id] */\n      0x00\n        /* \"contracts/TimeMarket.sol\":2605:2608  _id */\n      dup6\n        /* \"contracts/TimeMarket.sol\":2595:2609  _tradeMes[_id] */\n      0xffffffffffffffff\n      and\n      0xffffffffffffffff\n      and\n      dup2\n      mstore\n      0x20\n      add\n      swap1\n      dup2\n      mstore\n      0x20\n      add\n      0x00\n      keccak256\n        /* \"contracts/TimeMarket.sol\":2595:2623  _tradeMes[_id].solderAddress */\n      0x04\n      add\n      0x00\n        /* \"contracts/TimeMarket.sol\":2595:2634  _tradeMes[_id].solderAddress=msg.sender */\n      0x0100\n      exp\n      dup2\n      sload\n      dup2\n      0xffffffffffffffffffffffffffffffffffffffff\n      mul\n      not\n      and\n      swap1\n      dup4\n      0xffffffffffffffffffffffffffffffffffffffff\n      and\n      mul\n      or\n      swap1\n      sstore\n      pop\n        /* \"contracts/TimeMarket.sol\":2714:2715  2 */\n      0x02\n        /* \"contracts/TimeMarket.sol\":2688:2697  _tradeMes */\n      dup1\n        /* \"contracts/TimeMarket.sol\":2688:2702  _tradeMes[_id] */\n      0x00\n        /* \"contracts/TimeMarket.sol\":2698:2701  _id */\n      dup6\n        /* \"contracts/TimeMarket.sol\":2688:2702  _tradeMes[_id] */\n      0xffffffffffffffff\n      and\n      0xffffffffffffffff\n      and\n      dup2\n      mstore\n      0x20\n      add\n      swap1\n      dup2\n      mstore\n      0x20\n      add\n      0x00\n      keccak256\n        /* \"contracts/TimeMarket.sol\":2688:2713  _tradeMes[_id].tradeState */\n      0x00\n      add\n      0x00\n        /* \"contracts/TimeMarket.sol\":2688:2715  _tradeMes[_id].tradeState=2 */\n      0x0100\n      exp\n      dup2\n      sload\n      dup2\n      0xff\n      mul\n      not\n      and\n      swap1\n      dup4\n      0xff\n      and\n      mul\n      or\n      swap1\n      sstore\n      pop\n        /* \"contracts/TimeMarket.sol\":2176:2723  {... */\n      pop\n      pop\n        /* \"contracts/TimeMarket.sol\":2141:2723  function Sale(uint64 _id) external {... */\n      pop\n      jump\t// out\n        /* \"contracts/TimeMarket.sol\":4280:5417  function solderWithdrawStable(uint64 _id)external{... */\n    tag_33:\n        /* \"contracts/TimeMarket.sol\":4340:4354  address solder */\n      0x00\n        /* \"contracts/TimeMarket.sol\":4355:4369  getSolder(_id) */\n      tag_93\n        /* \"contracts/TimeMarket.sol\":4365:4368  _id */\n      dup3\n        /* \"contracts/TimeMarket.sol\":4355:4364  getSolder */\n      tag_62\n        /* \"contracts/TimeMarket.sol\":4355:4369  getSolder(_id) */\n      jump\t// in\n    tag_93:\n        /* \"contracts/TimeMarket.sol\":4340:4369  address solder=getSolder(_id) */\n      swap1\n      pop\n        /* \"contracts/TimeMarket.sol\":4433:4439  solder */\n      dup1\n        /* \"contracts/TimeMarket.sol\":4421:4439  msg.sender==solder */\n      0xffffffffffffffffffffffffffffffffffffffff\n      and\n        /* \"contracts/TimeMarket.sol\":4421:4431  msg.sender */\n      caller\n        /* \"contracts/TimeMarket.sol\":4421:4439  msg.sender==solder */\n      0xffffffffffffffffffffffffffffffffffffffff\n      and\n      eq\n        /* \"contracts/TimeMarket.sol\":4413:4440  require(msg.sender==solder) */\n      tag_94\n      jumpi\n      0x00\n      dup1\n      revert\n    tag_94:\n        /* \"contracts/TimeMarket.sol\":4522:4530  ifInject */\n      0x03\n        /* \"contracts/TimeMarket.sol\":4522:4538  ifInject[solder] */\n      0x00\n        /* \"contracts/TimeMarket.sol\":4531:4537  solder */\n      dup3\n        /* \"contracts/TimeMarket.sol\":4522:4538  ifInject[solder] */\n      0xffffffffffffffffffffffffffffffffffffffff\n      and\n      0xffffffffffffffffffffffffffffffffffffffff\n      and\n      dup2\n      mstore\n      0x20\n      add\n      swap1\n      dup2\n      mstore\n      0x20\n      add\n      0x00\n      keccak256\n        /* \"contracts/TimeMarket.sol\":4522:4543  ifInject[solder][_id] */\n      0x00\n        /* \"contracts/TimeMarket.sol\":4539:4542  _id */\n      dup4\n        /* \"contracts/TimeMarket.sol\":4522:4543  ifInject[solder][_id] */\n      0xffffffffffffffff\n      and\n      dup2\n      mstore\n      0x20\n      add\n      swap1\n      dup2\n      mstore\n      0x20\n      add\n      0x00\n      keccak256\n      0x00\n      swap1\n      sload\n      swap1\n      0x0100\n      exp\n      swap1\n      div\n      0xff\n      and\n        /* \"contracts/TimeMarket.sol\":4514:4544  require(ifInject[solder][_id]) */\n      tag_95\n      jumpi\n      0x00\n      dup1\n      revert\n    tag_95:\n        /* \"contracts/TimeMarket.sol\":4630:4635  false */\n      0x00\n        /* \"contracts/TimeMarket.sol\":4596:4635  userIfWithdraw2[msg.sender][_id]==false */\n      iszero\n      iszero\n        /* \"contracts/TimeMarket.sol\":4596:4611  userIfWithdraw2 */\n      0x05\n        /* \"contracts/TimeMarket.sol\":4596:4623  userIfWithdraw2[msg.sender] */\n      0x00\n        /* \"contracts/TimeMarket.sol\":4612:4622  msg.sender */\n      caller\n        /* \"contracts/TimeMarket.sol\":4596:4623  userIfWithdraw2[msg.sender] */\n      0xffffffffffffffffffffffffffffffffffffffff\n      and\n      0xffffffffffffffffffffffffffffffffffffffff\n      and\n      dup2\n      mstore\n      0x20\n      add\n      swap1\n      dup2\n      mstore\n      0x20\n      add\n      0x00\n      keccak256\n        /* \"contracts/TimeMarket.sol\":4596:4628  userIfWithdraw2[msg.sender][_id] */\n      0x00\n        /* \"contracts/TimeMarket.sol\":4624:4627  _id */\n      dup5\n        /* \"contracts/TimeMarket.sol\":4596:4628  userIfWithdraw2[msg.sender][_id] */\n      0xffffffffffffffff\n      and\n      dup2\n      mstore\n      0x20\n      add\n      swap1\n      dup2\n      mstore\n      0x20\n      add\n      0x00\n      keccak256\n      0x00\n      swap1\n      sload\n      swap1\n      0x0100\n      exp\n      swap1\n      div\n      0xff\n      and\n        /* \"contracts/TimeMarket.sol\":4596:4635  userIfWithdraw2[msg.sender][_id]==false */\n      iszero\n      iszero\n      eq\n        /* \"contracts/TimeMarket.sol\":4588:4636  require(userIfWithdraw2[msg.sender][_id]==false) */\n      tag_96\n      jumpi\n      0x00\n      dup1\n      revert\n    tag_96:\n        /* \"contracts/TimeMarket.sol\":4647:4673  address promiseStableToken */\n      0x00\n        /* \"contracts/TimeMarket.sol\":4674:4683  _tradeMes */\n      0x02\n        /* \"contracts/TimeMarket.sol\":4674:4688  _tradeMes[_id] */\n      0x00\n        /* \"contracts/TimeMarket.sol\":4684:4687  _id */\n      dup5\n        /* \"contracts/TimeMarket.sol\":4674:4688  _tradeMes[_id] */\n      0xffffffffffffffff\n      and\n      0xffffffffffffffff\n      and\n      dup2\n      mstore\n      0x20\n      add\n      swap1\n      dup2\n      mstore\n      0x20\n      add\n      0x00\n      keccak256\n        /* \"contracts/TimeMarket.sol\":4674:4701  _tradeMes[_id].tokenAddress */\n      0x02\n      add\n      0x00\n      swap1\n      sload\n      swap1\n      0x0100\n      exp\n      swap1\n      div\n      0xffffffffffffffffffffffffffffffffffffffff\n      and\n        /* \"contracts/TimeMarket.sol\":4647:4701  address promiseStableToken=_tradeMes[_id].tokenAddress */\n      swap1\n      pop\n        /* \"contracts/TimeMarket.sol\":4712:4725  uint256 total */\n      0x00\n        /* \"contracts/TimeMarket.sol\":4750:4759  _tradeMes */\n      0x02\n        /* \"contracts/TimeMarket.sol\":4750:4764  _tradeMes[_id] */\n      0x00\n        /* \"contracts/TimeMarket.sol\":4760:4763  _id */\n      dup6\n        /* \"contracts/TimeMarket.sol\":4750:4764  _tradeMes[_id] */\n      0xffffffffffffffff\n      and\n      0xffffffffffffffff\n      and\n      dup2\n      mstore\n      0x20\n      add\n      swap1\n      dup2\n      mstore\n      0x20\n      add\n      0x00\n      keccak256\n        /* \"contracts/TimeMarket.sol\":4750:4779  _tradeMes[_id].buyTotalAmount */\n      0x00\n      add\n      0x10\n      swap1\n      sload\n      swap1\n      0x0100\n      exp\n      swap1\n      div\n      0xffffffffffffffffffffffffffffffff\n      and\n        /* \"contracts/TimeMarket.sol\":4726:4735  _tradeMes */\n      0x02\n        /* \"contracts/TimeMarket.sol\":4726:4740  _tradeMes[_id] */\n      0x00\n        /* \"contracts/TimeMarket.sol\":4736:4739  _id */\n      dup7\n        /* \"contracts/TimeMarket.sol\":4726:4740  _tradeMes[_id] */\n      0xffffffffffffffff\n      and\n      0xffffffffffffffff\n      and\n      dup2\n      mstore\n      0x20\n      add\n      swap1\n      dup2\n      mstore\n      0x20\n      add\n      0x00\n      keccak256\n        /* \"contracts/TimeMarket.sol\":4726:4749  _tradeMes[_id].buyPrice */\n      0x01\n      add\n      0x00\n      swap1\n      sload\n      swap1\n      0x0100\n      exp\n      swap1\n      div\n      0xffffffffffffffffffffffffffffffff\n      and\n        /* \"contracts/TimeMarket.sol\":4726:4779  _tradeMes[_id].buyPrice*_tradeMes[_id].buyTotalAmount */\n      tag_97\n      swap2\n      swap1\n      tag_85\n      jump\t// in\n    tag_97:\n        /* \"contracts/TimeMarket.sol\":4712:4779  uint256 total=_tradeMes[_id].buyPrice*_tradeMes[_id].buyTotalAmount */\n      0xffffffffffffffffffffffffffffffff\n      and\n      swap1\n      pop\n        /* \"contracts/TimeMarket.sol\":4790:4812  uint256 penalSumAmount */\n      0x00\n        /* \"contracts/TimeMarket.sol\":4813:4876  getPenal(_tradeMes[_id].buyPrice,_tradeMes[_id].buyTotalAmount) */\n      tag_98\n        /* \"contracts/TimeMarket.sol\":4822:4831  _tradeMes */\n      0x02\n        /* \"contracts/TimeMarket.sol\":4822:4836  _tradeMes[_id] */\n      0x00\n        /* \"contracts/TimeMarket.sol\":4832:4835  _id */\n      dup8\n        /* \"contracts/TimeMarket.sol\":4822:4836  _tradeMes[_id] */\n      0xffffffffffffffff\n      and\n      0xffffffffffffffff\n      and\n      dup2\n      mstore\n      0x20\n      add\n      swap1\n      dup2\n      mstore\n      0x20\n      add\n      0x00\n      keccak256\n        /* \"contracts/TimeMarket.sol\":4822:4845  _tradeMes[_id].buyPrice */\n      0x01\n      add\n      0x00\n      swap1\n      sload\n      swap1\n      0x0100\n      exp\n      swap1\n      div\n      0xffffffffffffffffffffffffffffffff\n      and\n        /* \"contracts/TimeMarket.sol\":4846:4855  _tradeMes */\n      0x02\n        /* \"contracts/TimeMarket.sol\":4846:4860  _tradeMes[_id] */\n      0x00\n        /* \"contracts/TimeMarket.sol\":4856:4859  _id */\n      dup9\n        /* \"contracts/TimeMarket.sol\":4846:4860  _tradeMes[_id] */\n      0xffffffffffffffff\n      and\n      0xffffffffffffffff\n      and\n      dup2\n      mstore\n      0x20\n      add\n      swap1\n      dup2\n      mstore\n      0x20\n      add\n      0x00\n      keccak256\n        /* \"contracts/TimeMarket.sol\":4846:4875  _tradeMes[_id].buyTotalAmount */\n      0x00\n      add\n      0x10\n      swap1\n      sload\n      swap1\n      0x0100\n      exp\n      swap1\n      div\n      0xffffffffffffffffffffffffffffffff\n      and\n        /* \"contracts/TimeMarket.sol\":4813:4821  getPenal */\n      tag_37\n        /* \"contracts/TimeMarket.sol\":4813:4876  getPenal(_tradeMes[_id].buyPrice,_tradeMes[_id].buyTotalAmount) */\n      jump\t// in\n    tag_98:\n        /* \"contracts/TimeMarket.sol\":4790:4876  uint256 penalSumAmount=getPenal(_tradeMes[_id].buyPrice,_tradeMes[_id].buyTotalAmount) */\n      swap1\n      pop\n        /* \"contracts/TimeMarket.sol\":4887:4898  uint256 fee */\n      0x00\n        /* \"contracts/TimeMarket.sol\":4899:4917  TimeFee.fee(total) */\n      tag_99\n        /* \"contracts/TimeMarket.sol\":4911:4916  total */\n      dup4\n        /* \"contracts/TimeMarket.sol\":4899:4910  TimeFee.fee */\n      tag_76\n        /* \"contracts/TimeMarket.sol\":4899:4917  TimeFee.fee(total) */\n      jump\t// in\n    tag_99:\n        /* \"contracts/TimeMarket.sol\":4887:4917  uint256 fee=TimeFee.fee(total) */\n      swap1\n      pop\n        /* \"contracts/TimeMarket.sol\":4970:5028  IERC20(promiseStableToken).safeTransfer(address(this),fee) */\n      tag_100\n        /* \"contracts/TimeMarket.sol\":5018:5022  this */\n      address\n        /* \"contracts/TimeMarket.sol\":5024:5027  fee */\n      dup3\n        /* \"contracts/TimeMarket.sol\":4977:4995  promiseStableToken */\n      dup7\n        /* \"contracts/TimeMarket.sol\":4970:5009  IERC20(promiseStableToken).safeTransfer */\n      0xffffffffffffffffffffffffffffffffffffffff\n      and\n      tag_78\n      swap1\n        /* \"contracts/TimeMarket.sol\":4970:5028  IERC20(promiseStableToken).safeTransfer(address(this),fee) */\n      swap3\n      swap2\n      swap1\n      0xffffffff\n      and\n      jump\t// in\n    tag_100:\n        /* \"contracts/TimeMarket.sol\":5069:5164  IERC20(promiseStableToken).safeTransfer(... */\n      tag_101\n        /* \"contracts/TimeMarket.sol\":5123:5129  solder */\n      dup6\n        /* \"contracts/TimeMarket.sol\":5150:5153  fee */\n      dup3\n        /* \"contracts/TimeMarket.sol\":5144:5149  total */\n      dup6\n        /* \"contracts/TimeMarket.sol\":5144:5153  total-fee */\n      tag_102\n      swap2\n      swap1\n      tag_81\n      jump\t// in\n    tag_102:\n        /* \"contracts/TimeMarket.sol\":5076:5094  promiseStableToken */\n      dup7\n        /* \"contracts/TimeMarket.sol\":5069:5108  IERC20(promiseStableToken).safeTransfer */\n      0xffffffffffffffffffffffffffffffffffffffff\n      and\n      tag_78\n      swap1\n        /* \"contracts/TimeMarket.sol\":5069:5164  IERC20(promiseStableToken).safeTransfer(... */\n      swap3\n      swap2\n      swap1\n      0xffffffff\n      and\n      jump\t// in\n    tag_101:\n        /* \"contracts/TimeMarket.sol\":5223:5323  IERC20(promiseStableToken).safeTransfer(... */\n      tag_103\n        /* \"contracts/TimeMarket.sol\":5277:5283  solder */\n      dup6\n        /* \"contracts/TimeMarket.sol\":5298:5312  penalSumAmount */\n      dup4\n        /* \"contracts/TimeMarket.sol\":5230:5248  promiseStableToken */\n      dup7\n        /* \"contracts/TimeMarket.sol\":5223:5262  IERC20(promiseStableToken).safeTransfer */\n      0xffffffffffffffffffffffffffffffffffffffff\n      and\n      tag_78\n      swap1\n        /* \"contracts/TimeMarket.sol\":5223:5323  IERC20(promiseStableToken).safeTransfer(... */\n      swap3\n      swap2\n      swap1\n      0xffffffff\n      and\n      jump\t// in\n    tag_103:\n        /* \"contracts/TimeMarket.sol\":5404:5408  true */\n      0x01\n        /* \"contracts/TimeMarket.sol\":5371:5386  userIfWithdraw2 */\n      0x05\n        /* \"contracts/TimeMarket.sol\":5371:5398  userIfWithdraw2[msg.sender] */\n      0x00\n        /* \"contracts/TimeMarket.sol\":5387:5397  msg.sender */\n      caller\n        /* \"contracts/TimeMarket.sol\":5371:5398  userIfWithdraw2[msg.sender] */\n      0xffffffffffffffffffffffffffffffffffffffff\n      and\n      0xffffffffffffffffffffffffffffffffffffffff\n      and\n      dup2\n      mstore\n      0x20\n      add\n      swap1\n      dup2\n      mstore\n      0x20\n      add\n      0x00\n      keccak256\n        /* \"contracts/TimeMarket.sol\":5371:5403  userIfWithdraw2[msg.sender][_id] */\n      0x00\n        /* \"contracts/TimeMarket.sol\":5399:5402  _id */\n      dup9\n        /* \"contracts/TimeMarket.sol\":5371:5403  userIfWithdraw2[msg.sender][_id] */\n      0xffffffffffffffff\n      and\n      dup2\n      mstore\n      0x20\n      add\n      swap1\n      dup2\n      mstore\n      0x20\n      add\n      0x00\n      keccak256\n      0x00\n        /* \"contracts/TimeMarket.sol\":5371:5408  userIfWithdraw2[msg.sender][_id]=true */\n      0x0100\n      exp\n      dup2\n      sload\n      dup2\n      0xff\n      mul\n      not\n      and\n      swap1\n      dup4\n      iszero\n      iszero\n      mul\n      or\n      swap1\n      sstore\n      pop\n        /* \"contracts/TimeMarket.sol\":4329:5417  {... */\n      pop\n      pop\n      pop\n      pop\n      pop\n        /* \"contracts/TimeMarket.sol\":4280:5417  function solderWithdrawStable(uint64 _id)external{... */\n      pop\n      jump\t// out\n        /* \"contracts/TimeMarket.sol\":7330:7873  function getPenal(uint128 _soldPrice, uint128 _soldAmount)public pure returns (uint256){... */\n    tag_37:\n        /* \"contracts/TimeMarket.sol\":7409:7416  uint256 */\n      0x00\n        /* \"contracts/TimeMarket.sol\":7428:7446  uint256 thisAmount */\n      dup1\n        /* \"contracts/TimeMarket.sol\":7460:7471  _soldAmount */\n      dup3\n        /* \"contracts/TimeMarket.sol\":7449:7459  _soldPrice */\n      dup5\n        /* \"contracts/TimeMarket.sol\":7449:7471  _soldPrice*_soldAmount */\n      tag_105\n      swap2\n      swap1\n      tag_85\n      jump\t// in\n    tag_105:\n        /* \"contracts/TimeMarket.sol\":7428:7471  uint256 thisAmount = _soldPrice*_soldAmount */\n      0xffffffffffffffffffffffffffffffff\n      and\n      swap1\n      pop\n        /* \"contracts/TimeMarket.sol\":7500:7509  100 ether */\n      0x056bc75e2d63100000\n        /* \"contracts/TimeMarket.sol\":7486:7496  thisAmount */\n      dup2\n        /* \"contracts/TimeMarket.sol\":7486:7509  thisAmount >= 100 ether */\n      lt\n      iszero\n        /* \"contracts/TimeMarket.sol\":7486:7536  thisAmount >= 100 ether && thisAmount < 1000 ether */\n      dup1\n      iszero\n      tag_106\n      jumpi\n      pop\n        /* \"contracts/TimeMarket.sol\":7526:7536  1000 ether */\n      0x3635c9adc5dea00000\n        /* \"contracts/TimeMarket.sol\":7513:7523  thisAmount */\n      dup2\n        /* \"contracts/TimeMarket.sol\":7513:7536  thisAmount < 1000 ether */\n      lt\n        /* \"contracts/TimeMarket.sol\":7486:7536  thisAmount >= 100 ether && thisAmount < 1000 ether */\n    tag_106:\n        /* \"contracts/TimeMarket.sol\":7482:7866  if (thisAmount >= 100 ether && thisAmount < 1000 ether) {... */\n      iszero\n      tag_107\n      jumpi\n        /* \"contracts/TimeMarket.sol\":7580:7583  100 */\n      0x64\n        /* \"contracts/TimeMarket.sol\":7574:7576  50 */\n      0x32\n        /* \"contracts/TimeMarket.sol\":7561:7571  thisAmount */\n      dup3\n        /* \"contracts/TimeMarket.sol\":7561:7576  thisAmount * 50 */\n      tag_108\n      swap2\n      swap1\n      tag_109\n      jump\t// in\n    tag_108:\n        /* \"contracts/TimeMarket.sol\":7560:7583  (thisAmount * 50) / 100 */\n      tag_110\n      swap2\n      swap1\n      tag_111\n      jump\t// in\n    tag_110:\n        /* \"contracts/TimeMarket.sol\":7553:7583  return (thisAmount * 50) / 100 */\n      swap2\n      pop\n      pop\n      jump(tag_104)\n        /* \"contracts/TimeMarket.sol\":7482:7866  if (thisAmount >= 100 ether && thisAmount < 1000 ether) {... */\n    tag_107:\n        /* \"contracts/TimeMarket.sol\":7619:7629  1000 ether */\n      0x3635c9adc5dea00000\n        /* \"contracts/TimeMarket.sol\":7605:7615  thisAmount */\n      dup2\n        /* \"contracts/TimeMarket.sol\":7605:7629  thisAmount >= 1000 ether */\n      lt\n      iszero\n        /* \"contracts/TimeMarket.sol\":7605:7657  thisAmount >= 1000 ether && thisAmount < 10000 ether */\n      dup1\n      iszero\n      tag_113\n      jumpi\n      pop\n        /* \"contracts/TimeMarket.sol\":7646:7657  10000 ether */\n      0x021e19e0c9bab2400000\n        /* \"contracts/TimeMarket.sol\":7633:7643  thisAmount */\n      dup2\n        /* \"contracts/TimeMarket.sol\":7633:7657  thisAmount < 10000 ether */\n      lt\n        /* \"contracts/TimeMarket.sol\":7605:7657  thisAmount >= 1000 ether && thisAmount < 10000 ether */\n    tag_113:\n        /* \"contracts/TimeMarket.sol\":7601:7866  if (thisAmount >= 1000 ether && thisAmount < 10000 ether) {... */\n      iszero\n      tag_114\n      jumpi\n        /* \"contracts/TimeMarket.sol\":7701:7704  100 */\n      0x64\n        /* \"contracts/TimeMarket.sol\":7695:7697  40 */\n      0x28\n        /* \"contracts/TimeMarket.sol\":7682:7692  thisAmount */\n      dup3\n        /* \"contracts/TimeMarket.sol\":7682:7697  thisAmount * 40 */\n      tag_115\n      swap2\n      swap1\n      tag_109\n      jump\t// in\n    tag_115:\n        /* \"contracts/TimeMarket.sol\":7681:7704  (thisAmount * 40) / 100 */\n      tag_116\n      swap2\n      swap1\n      tag_111\n      jump\t// in\n    tag_116:\n        /* \"contracts/TimeMarket.sol\":7674:7704  return (thisAmount * 40) / 100 */\n      swap2\n      pop\n      pop\n      jump(tag_104)\n        /* \"contracts/TimeMarket.sol\":7601:7866  if (thisAmount >= 1000 ether && thisAmount < 10000 ether) {... */\n    tag_114:\n        /* \"contracts/TimeMarket.sol\":7739:7750  10000 ether */\n      0x021e19e0c9bab2400000\n        /* \"contracts/TimeMarket.sol\":7726:7736  thisAmount */\n      dup2\n        /* \"contracts/TimeMarket.sol\":7726:7750  thisAmount > 10000 ether */\n      gt\n        /* \"contracts/TimeMarket.sol\":7722:7866  if (thisAmount > 10000 ether) {... */\n      iszero\n      tag_118\n      jumpi\n        /* \"contracts/TimeMarket.sol\":7794:7797  100 */\n      0x64\n        /* \"contracts/TimeMarket.sol\":7788:7790  25 */\n      0x19\n        /* \"contracts/TimeMarket.sol\":7775:7785  thisAmount */\n      dup3\n        /* \"contracts/TimeMarket.sol\":7775:7790  thisAmount * 25 */\n      tag_119\n      swap2\n      swap1\n      tag_109\n      jump\t// in\n    tag_119:\n        /* \"contracts/TimeMarket.sol\":7774:7797  (thisAmount * 25) / 100 */\n      tag_120\n      swap2\n      swap1\n      tag_111\n      jump\t// in\n    tag_120:\n        /* \"contracts/TimeMarket.sol\":7767:7797  return (thisAmount * 25) / 100 */\n      swap2\n      pop\n      pop\n      jump(tag_104)\n        /* \"contracts/TimeMarket.sol\":7722:7866  if (thisAmount > 10000 ether) {... */\n    tag_118:\n        /* \"contracts/TimeMarket.sol\":7837:7854  NotEnoughAmount() */\n      mload(0x40)\n      0xe008b5f900000000000000000000000000000000000000000000000000000000\n      dup2\n      mstore\n      0x04\n      add\n      mload(0x40)\n      dup1\n      swap2\n      sub\n      swap1\n      revert\n        /* \"contracts/TimeMarket.sol\":7330:7873  function getPenal(uint128 _soldPrice, uint128 _soldAmount)public pure returns (uint256){... */\n    tag_104:\n      swap3\n      swap2\n      pop\n      pop\n      jump\t// out\n        /* \"contracts/TimeMarket.sol\":1177:1241  mapping(address => mapping(uint256=>bool))public userIfWithdraw3 */\n    tag_42:\n      mstore(0x20, 0x06)\n      dup2\n      0x00\n      mstore\n      mstore(0x20, keccak256(0x00, 0x40))\n      dup1\n      0x00\n      mstore\n      keccak256(0x00, 0x40)\n      0x00\n      swap2\n      pop\n      swap2\n      pop\n      swap1\n      sload\n      swap1\n      0x0100\n      exp\n      swap1\n      div\n      0xff\n      and\n      dup2\n      jump\t// out\n        /* \"contracts/TimeMarket.sol\":3467:4227  function buyerWithdrawAirdorp(uint64 _id)external{... */\n    tag_46:\n        /* \"contracts/TimeMarket.sol\":3527:3540  address buyer */\n      0x00\n        /* \"contracts/TimeMarket.sol\":3541:3554  getBuyer(_id) */\n      tag_123\n        /* \"contracts/TimeMarket.sol\":3550:3553  _id */\n      dup3\n        /* \"contracts/TimeMarket.sol\":3541:3549  getBuyer */\n      tag_68\n        /* \"contracts/TimeMarket.sol\":3541:3554  getBuyer(_id) */\n      jump\t// in\n    tag_123:\n        /* \"contracts/TimeMarket.sol\":3527:3554  address buyer=getBuyer(_id) */\n      swap1\n      pop\n        /* \"contracts/TimeMarket.sol\":3613:3618  buyer */\n      dup1\n        /* \"contracts/TimeMarket.sol\":3601:3618  msg.sender!=buyer */\n      0xffffffffffffffffffffffffffffffffffffffff\n      and\n        /* \"contracts/TimeMarket.sol\":3601:3611  msg.sender */\n      caller\n        /* \"contracts/TimeMarket.sol\":3601:3618  msg.sender!=buyer */\n      0xffffffffffffffffffffffffffffffffffffffff\n      and\n      eq\n        /* \"contracts/TimeMarket.sol\":3598:3639  if(msg.sender!=buyer){revert NotBuyer();} */\n      tag_124\n      jumpi\n        /* \"contracts/TimeMarket.sol\":3627:3637  NotBuyer() */\n      mload(0x40)\n      0x472e017e00000000000000000000000000000000000000000000000000000000\n      dup2\n      mstore\n      0x04\n      add\n      mload(0x40)\n      dup1\n      swap2\n      sub\n      swap1\n      revert\n        /* \"contracts/TimeMarket.sol\":3598:3639  if(msg.sender!=buyer){revert NotBuyer();} */\n    tag_124:\n        /* \"contracts/TimeMarket.sol\":3742:3743  3 */\n      0x03\n        /* \"contracts/TimeMarket.sol\":3715:3724  _tradeMes */\n      0x02\n        /* \"contracts/TimeMarket.sol\":3715:3729  _tradeMes[_id] */\n      0x00\n        /* \"contracts/TimeMarket.sol\":3725:3728  _id */\n      dup5\n        /* \"contracts/TimeMarket.sol\":3715:3729  _tradeMes[_id] */\n      0xffffffffffffffff\n      and\n      0xffffffffffffffff\n      and\n      dup2\n      mstore\n      0x20\n      add\n      swap1\n      dup2\n      mstore\n      0x20\n      add\n      0x00\n      keccak256\n        /* \"contracts/TimeMarket.sol\":3715:3740  _tradeMes[_id].tradeState */\n      0x00\n      add\n      0x00\n      swap1\n      sload\n      swap1\n      0x0100\n      exp\n      swap1\n      div\n      0xff\n      and\n        /* \"contracts/TimeMarket.sol\":3715:3743  _tradeMes[_id].tradeState!=3 */\n      0xff\n      and\n      eq\n        /* \"contracts/TimeMarket.sol\":3712:3770  if(_tradeMes[_id].tradeState!=3){revert NotInjectToken();} */\n      tag_125\n      jumpi\n        /* \"contracts/TimeMarket.sol\":3752:3768  NotInjectToken() */\n      mload(0x40)\n      0xde4461cd00000000000000000000000000000000000000000000000000000000\n      dup2\n      mstore\n      0x04\n      add\n      mload(0x40)\n      dup1\n      swap2\n      sub\n      swap1\n      revert\n        /* \"contracts/TimeMarket.sol\":3712:3770  if(_tradeMes[_id].tradeState!=3){revert NotInjectToken();} */\n    tag_125:\n        /* \"contracts/TimeMarket.sol\":3781:3798  uint128 buyAmount */\n      0x00\n        /* \"contracts/TimeMarket.sol\":3799:3808  _tradeMes */\n      0x02\n        /* \"contracts/TimeMarket.sol\":3799:3813  _tradeMes[_id] */\n      0x00\n        /* \"contracts/TimeMarket.sol\":3809:3812  _id */\n      dup5\n        /* \"contracts/TimeMarket.sol\":3799:3813  _tradeMes[_id] */\n      0xffffffffffffffff\n      and\n      0xffffffffffffffff\n      and\n      dup2\n      mstore\n      0x20\n      add\n      swap1\n      dup2\n      mstore\n      0x20\n      add\n      0x00\n      keccak256\n        /* \"contracts/TimeMarket.sol\":3799:3828  _tradeMes[_id].buyTotalAmount */\n      0x00\n      add\n      0x10\n      swap1\n      sload\n      swap1\n      0x0100\n      exp\n      swap1\n      div\n      0xffffffffffffffffffffffffffffffff\n      and\n        /* \"contracts/TimeMarket.sol\":3781:3828  uint128 buyAmount=_tradeMes[_id].buyTotalAmount */\n      swap1\n      pop\n        /* \"contracts/TimeMarket.sol\":3839:3857  uint128 buyerPrice */\n      0x00\n        /* \"contracts/TimeMarket.sol\":3858:3867  _tradeMes */\n      0x02\n        /* \"contracts/TimeMarket.sol\":3858:3872  _tradeMes[_id] */\n      0x00\n        /* \"contracts/TimeMarket.sol\":3868:3871  _id */\n      dup6\n        /* \"contracts/TimeMarket.sol\":3858:3872  _tradeMes[_id] */\n      0xffffffffffffffff\n      and\n      0xffffffffffffffff\n      and\n      dup2\n      mstore\n      0x20\n      add\n      swap1\n      dup2\n      mstore\n      0x20\n      add\n      0x00\n      keccak256\n        /* \"contracts/TimeMarket.sol\":3858:3881  _tradeMes[_id].buyPrice */\n      0x01\n      add\n      0x00\n      swap1\n      sload\n      swap1\n      0x0100\n      exp\n      swap1\n      div\n      0xffffffffffffffffffffffffffffffff\n      and\n        /* \"contracts/TimeMarket.sol\":3839:3881  uint128 buyerPrice=_tradeMes[_id].buyPrice */\n      swap1\n      pop\n        /* \"contracts/TimeMarket.sol\":3936:3947  uint256 fee */\n      0x00\n        /* \"contracts/TimeMarket.sol\":3948:3981  TimeFee.fee(buyAmount*buyerPrice) */\n      tag_126\n        /* \"contracts/TimeMarket.sol\":3970:3980  buyerPrice */\n      dup3\n        /* \"contracts/TimeMarket.sol\":3960:3969  buyAmount */\n      dup5\n        /* \"contracts/TimeMarket.sol\":3960:3980  buyAmount*buyerPrice */\n      tag_127\n      swap2\n      swap1\n      tag_85\n      jump\t// in\n    tag_127:\n        /* \"contracts/TimeMarket.sol\":3948:3981  TimeFee.fee(buyAmount*buyerPrice) */\n      0xffffffffffffffffffffffffffffffff\n      and\n        /* \"contracts/TimeMarket.sol\":3948:3959  TimeFee.fee */\n      tag_76\n        /* \"contracts/TimeMarket.sol\":3948:3981  TimeFee.fee(buyAmount*buyerPrice) */\n      jump\t// in\n    tag_126:\n        /* \"contracts/TimeMarket.sol\":3936:3981  uint256 fee=TimeFee.fee(buyAmount*buyerPrice) */\n      swap1\n      pop\n        /* \"contracts/TimeMarket.sol\":4034:4086  IERC20(airdropToken).safeTransfer(address(this),fee) */\n      tag_128\n        /* \"contracts/TimeMarket.sol\":4076:4080  this */\n      address\n        /* \"contracts/TimeMarket.sol\":4082:4085  fee */\n      dup3\n        /* \"contracts/TimeMarket.sol\":4041:4053  airdropToken */\n      0x01\n      0x00\n      swap1\n      sload\n      swap1\n      0x0100\n      exp\n      swap1\n      div\n      0xffffffffffffffffffffffffffffffffffffffff\n      and\n        /* \"contracts/TimeMarket.sol\":4034:4067  IERC20(airdropToken).safeTransfer */\n      0xffffffffffffffffffffffffffffffffffffffff\n      and\n      tag_78\n      swap1\n        /* \"contracts/TimeMarket.sol\":4034:4086  IERC20(airdropToken).safeTransfer(address(this),fee) */\n      swap3\n      swap2\n      swap1\n      0xffffffff\n      and\n      jump\t// in\n    tag_128:\n        /* \"contracts/TimeMarket.sol\":4127:4181  IERC20(airdropToken).safeTransfer(buyer,buyAmount-fee) */\n      tag_129\n        /* \"contracts/TimeMarket.sol\":4161:4166  buyer */\n      dup5\n        /* \"contracts/TimeMarket.sol\":4177:4180  fee */\n      dup3\n        /* \"contracts/TimeMarket.sol\":4167:4176  buyAmount */\n      dup6\n        /* \"contracts/TimeMarket.sol\":4167:4180  buyAmount-fee */\n      0xffffffffffffffffffffffffffffffff\n      and\n      tag_130\n      swap2\n      swap1\n      tag_81\n      jump\t// in\n    tag_130:\n        /* \"contracts/TimeMarket.sol\":4134:4146  airdropToken */\n      0x01\n      0x00\n      swap1\n      sload\n      swap1\n      0x0100\n      exp\n      swap1\n      div\n      0xffffffffffffffffffffffffffffffffffffffff\n      and\n        /* \"contracts/TimeMarket.sol\":4127:4160  IERC20(airdropToken).safeTransfer */\n      0xffffffffffffffffffffffffffffffffffffffff\n      and\n      tag_78\n      swap1\n        /* \"contracts/TimeMarket.sol\":4127:4181  IERC20(airdropToken).safeTransfer(buyer,buyAmount-fee) */\n      swap3\n      swap2\n      swap1\n      0xffffffff\n      and\n      jump\t// in\n    tag_129:\n        /* \"contracts/TimeMarket.sol\":4218:4219  4 */\n      0x04\n        /* \"contracts/TimeMarket.sol\":4192:4201  _tradeMes */\n      0x02\n        /* \"contracts/TimeMarket.sol\":4192:4206  _tradeMes[_id] */\n      0x00\n        /* \"contracts/TimeMarket.sol\":4202:4205  _id */\n      dup8\n        /* \"contracts/TimeMarket.sol\":4192:4206  _tradeMes[_id] */\n      0xffffffffffffffff\n      and\n      0xffffffffffffffff\n      and\n      dup2\n      mstore\n      0x20\n      add\n      swap1\n      dup2\n      mstore\n      0x20\n      add\n      0x00\n      keccak256\n        /* \"contracts/TimeMarket.sol\":4192:4217  _tradeMes[_id].tradeState */\n      0x00\n      add\n      0x00\n        /* \"contracts/TimeMarket.sol\":4192:4219  _tradeMes[_id].tradeState=4 */\n      0x0100\n      exp\n      dup2\n      sload\n      dup2\n      0xff\n      mul\n      not\n      and\n      swap1\n      dup4\n      0xff\n      and\n      mul\n      or\n      swap1\n      sstore\n      pop\n        /* \"contracts/TimeMarket.sol\":3516:4227  {... */\n      pop\n      pop\n      pop\n      pop\n        /* \"contracts/TimeMarket.sol\":3467:4227  function buyerWithdrawAirdorp(uint64 _id)external{... */\n      pop\n      jump\t// out\n        /* \"contracts/TimeMarket.sol\":1375:2119  function buy(address _tokenAddress,uint128 _buyAmount,uint128 _buyPrice)external{... */\n    tag_50:\n        /* \"contracts/TimeMarket.sol\":1466:1476  uint total */\n      0x00\n        /* \"contracts/TimeMarket.sol\":1488:1497  _buyPrice */\n      dup2\n        /* \"contracts/TimeMarket.sol\":1477:1487  _buyAmount */\n      dup4\n        /* \"contracts/TimeMarket.sol\":1477:1497  _buyAmount*_buyPrice */\n      tag_132\n      swap2\n      swap1\n      tag_85\n      jump\t// in\n    tag_132:\n        /* \"contracts/TimeMarket.sol\":1466:1497  uint total=_buyAmount*_buyPrice */\n      0xffffffffffffffffffffffffffffffff\n      and\n      swap1\n      pop\n        /* \"contracts/TimeMarket.sol\":1517:1526  100 ether */\n      0x056bc75e2d63100000\n        /* \"contracts/TimeMarket.sol\":1511:1516  total */\n      dup2\n        /* \"contracts/TimeMarket.sol\":1511:1526  total<100 ether */\n      lt\n        /* \"contracts/TimeMarket.sol\":1508:1578  if(total<100 ether){... */\n      iszero\n      tag_133\n      jumpi\n        /* \"contracts/TimeMarket.sol\":1549:1566  NotEnoughAmount() */\n      mload(0x40)\n      0xe008b5f900000000000000000000000000000000000000000000000000000000\n      dup2\n      mstore\n      0x04\n      add\n      mload(0x40)\n      dup1\n      swap2\n      sub\n      swap1\n      revert\n        /* \"contracts/TimeMarket.sol\":1508:1578  if(total<100 ether){... */\n    tag_133:\n        /* \"contracts/TimeMarket.sol\":1588:1615  tradeMes memory newTradeMes */\n      0x00\n        /* \"contracts/TimeMarket.sol\":1616:1929  tradeMes({... */\n      mload(0x40)\n      dup1\n      0x0100\n      add\n      0x40\n      mstore\n      dup1\n        /* \"contracts/TimeMarket.sol\":1651:1652  1 */\n      0x01\n        /* \"contracts/TimeMarket.sol\":1616:1929  tradeMes({... */\n      0xff\n      and\n      dup2\n      mstore\n      0x20\n      add\n        /* \"contracts/TimeMarket.sol\":1675:1677  id */\n      0x00\n      0x07\n      swap1\n      sload\n      swap1\n      0x0100\n      exp\n      swap1\n      div\n      0xffffffffffffffff\n      and\n        /* \"contracts/TimeMarket.sol\":1616:1929  tradeMes({... */\n      0xffffffffffffffff\n      and\n      dup2\n      mstore\n      0x20\n      add\n        /* \"contracts/TimeMarket.sol\":1707:1722  block.timestamp */\n      timestamp\n        /* \"contracts/TimeMarket.sol\":1616:1929  tradeMes({... */\n      0xffffffffffffff\n      and\n      dup2\n      mstore\n      0x20\n      add\n        /* \"contracts/TimeMarket.sol\":1753:1763  _buyAmount */\n      dup6\n        /* \"contracts/TimeMarket.sol\":1616:1929  tradeMes({... */\n      0xffffffffffffffffffffffffffffffff\n      and\n      dup2\n      mstore\n      0x20\n      add\n        /* \"contracts/TimeMarket.sol\":1787:1796  _buyPrice */\n      dup5\n        /* \"contracts/TimeMarket.sol\":1616:1929  tradeMes({... */\n      0xffffffffffffffffffffffffffffffff\n      and\n      dup2\n      mstore\n      0x20\n      add\n        /* \"contracts/TimeMarket.sol\":1824:1837  _tokenAddress */\n      dup7\n        /* \"contracts/TimeMarket.sol\":1616:1929  tradeMes({... */\n      0xffffffffffffffffffffffffffffffffffffffff\n      and\n      dup2\n      mstore\n      0x20\n      add\n        /* \"contracts/TimeMarket.sol\":1865:1875  msg.sender */\n      caller\n        /* \"contracts/TimeMarket.sol\":1616:1929  tradeMes({... */\n      0xffffffffffffffffffffffffffffffffffffffff\n      and\n      dup2\n      mstore\n      0x20\n      add\n        /* \"contracts/TimeMarket.sol\":1912:1916  this */\n      address\n        /* \"contracts/TimeMarket.sol\":1616:1929  tradeMes({... */\n      0xffffffffffffffffffffffffffffffffffffffff\n      and\n      dup2\n      mstore\n      pop\n        /* \"contracts/TimeMarket.sol\":1588:1929  tradeMes memory newTradeMes=tradeMes({... */\n      swap1\n      pop\n        /* \"contracts/TimeMarket.sol\":1954:1965  newTradeMes */\n      dup1\n        /* \"contracts/TimeMarket.sol\":1940:1949  _tradeMes */\n      0x02\n        /* \"contracts/TimeMarket.sol\":1940:1953  _tradeMes[id] */\n      0x00\n        /* \"contracts/TimeMarket.sol\":1950:1952  id */\n      dup1\n      0x07\n      swap1\n      sload\n      swap1\n      0x0100\n      exp\n      swap1\n      div\n      0xffffffffffffffff\n      and\n        /* \"contracts/TimeMarket.sol\":1940:1953  _tradeMes[id] */\n      0xffffffffffffffff\n      and\n      0xffffffffffffffff\n      and\n      dup2\n      mstore\n      0x20\n      add\n      swap1\n      dup2\n      mstore\n      0x20\n      add\n      0x00\n      keccak256\n        /* \"contracts/TimeMarket.sol\":1940:1965  _tradeMes[id]=newTradeMes */\n      0x00\n      dup3\n      add\n      mload\n      dup2\n      0x00\n      add\n      exp(0x0100, 0x00)\n      dup2\n      sload\n      dup2\n      0xff\n      mul\n      not\n      and\n      swap1\n      dup4\n      0xff\n      and\n      mul\n      or\n      swap1\n      sstore\n      pop\n      0x20\n      dup3\n      add\n      mload\n      dup2\n      0x00\n      add\n      exp(0x0100, 0x01)\n      dup2\n      sload\n      dup2\n      0xffffffffffffffff\n      mul\n      not\n      and\n      swap1\n      dup4\n      0xffffffffffffffff\n      and\n      mul\n      or\n      swap1\n      sstore\n      pop\n      0x40\n      dup3\n      add\n      mload\n      dup2\n      0x00\n      add\n      exp(0x0100, 0x09)\n      dup2\n      sload\n      dup2\n      0xffffffffffffff\n      mul\n      not\n      and\n      swap1\n      dup4\n      0xffffffffffffff\n      and\n      mul\n      or\n      swap1\n      sstore\n      pop\n      0x60\n      dup3\n      add\n      mload\n      dup2\n      0x00\n      add\n      exp(0x0100, 0x10)\n      dup2\n      sload\n      dup2\n      0xffffffffffffffffffffffffffffffff\n      mul\n      not\n      and\n      swap1\n      dup4\n      0xffffffffffffffffffffffffffffffff\n      and\n      mul\n      or\n      swap1\n      sstore\n      pop\n      0x80\n      dup3\n      add\n      mload\n      dup2\n      0x01\n      add\n      exp(0x0100, 0x00)\n      dup2\n      sload\n      dup2\n      0xffffffffffffffffffffffffffffffff\n      mul\n      not\n      and\n      swap1\n      dup4\n      0xffffffffffffffffffffffffffffffff\n      and\n      mul\n      or\n      swap1\n      sstore\n      pop\n      0xa0\n      dup3\n      add\n      mload\n      dup2\n      0x02\n      add\n      exp(0x0100, 0x00)\n      dup2\n      sload\n      dup2\n      0xffffffffffffffffffffffffffffffffffffffff\n      mul\n      not\n      and\n      swap1\n      dup4\n      0xffffffffffffffffffffffffffffffffffffffff\n      and\n      mul\n      or\n      swap1\n      sstore\n      pop\n      0xc0\n      dup3\n      add\n      mload\n      dup2\n      0x03\n      add\n      exp(0x0100, 0x00)\n      dup2\n      sload\n      dup2\n      0xffffffffffffffffffffffffffffffffffffffff\n      mul\n      not\n      and\n      swap1\n      dup4\n      0xffffffffffffffffffffffffffffffffffffffff\n      and\n      mul\n      or\n      swap1\n      sstore\n      pop\n      0xe0\n      dup3\n      add\n      mload\n      dup2\n      0x04\n      add\n      exp(0x0100, 0x00)\n      dup2\n      sload\n      dup2\n      0xffffffffffffffffffffffffffffffffffffffff\n      mul\n      not\n      and\n      swap1\n      dup4\n      0xffffffffffffffffffffffffffffffffffffffff\n      and\n      mul\n      or\n      swap1\n      sstore\n      pop\n      swap1\n      pop\n      pop\n        /* \"contracts/TimeMarket.sol\":2026:2096  IERC20(_tokenAddress).safeTransferFrom(msg.sender,address(this),total) */\n      tag_134\n        /* \"contracts/TimeMarket.sol\":2065:2075  msg.sender */\n      caller\n        /* \"contracts/TimeMarket.sol\":2084:2088  this */\n      address\n        /* \"contracts/TimeMarket.sol\":2090:2095  total */\n      dup5\n        /* \"contracts/TimeMarket.sol\":2033:2046  _tokenAddress */\n      dup9\n        /* \"contracts/TimeMarket.sol\":2026:2064  IERC20(_tokenAddress).safeTransferFrom */\n      0xffffffffffffffffffffffffffffffffffffffff\n      and\n      tag_65\n      swap1\n        /* \"contracts/TimeMarket.sol\":2026:2096  IERC20(_tokenAddress).safeTransferFrom(msg.sender,address(this),total) */\n      swap4\n      swap3\n      swap2\n      swap1\n      0xffffffff\n      and\n      jump\t// in\n    tag_134:\n        /* \"contracts/TimeMarket.sol\":2107:2109  id */\n      0x00\n      0x07\n        /* \"contracts/TimeMarket.sol\":2107:2111  id++ */\n      dup2\n      dup2\n      swap1\n      sload\n      swap1\n      0x0100\n      exp\n      swap1\n      div\n      0xffffffffffffffff\n      and\n      dup1\n      swap3\n      swap2\n      swap1\n      tag_135\n      swap1\n      tag_136\n      jump\t// in\n    tag_135:\n      swap2\n      swap1\n      0x0100\n      exp\n      dup2\n      sload\n      dup2\n      0xffffffffffffffff\n      mul\n      not\n      and\n      swap1\n      dup4\n      0xffffffffffffffff\n      and\n      mul\n      or\n      swap1\n      sstore\n      pop\n      pop\n        /* \"contracts/TimeMarket.sol\":1455:2119  {... */\n      pop\n      pop\n        /* \"contracts/TimeMarket.sol\":1375:2119  function buy(address _tokenAddress,uint128 _buyAmount,uint128 _buyPrice)external{... */\n      pop\n      pop\n      pop\n      jump\t// out\n        /* \"contracts/TimeMarket.sol\":1053:1117  mapping(address => mapping(uint256=>bool))public userIfWithdraw2 */\n    tag_53:\n      mstore(0x20, 0x05)\n      dup2\n      0x00\n      mstore\n      mstore(0x20, keccak256(0x00, 0x40))\n      dup1\n      0x00\n      mstore\n      keccak256(0x00, 0x40)\n      0x00\n      swap2\n      pop\n      swap2\n      pop\n      swap1\n      sload\n      swap1\n      0x0100\n      exp\n      swap1\n      div\n      0xff\n      and\n      dup2\n      jump\t// out\n        /* \"contracts/TimeMarket.sol\":1288:1352  mapping(address => mapping(uint256=>bool))public userIfWithdraw4 */\n    tag_57:\n      mstore(0x20, 0x07)\n      dup2\n      0x00\n      mstore\n      mstore(0x20, keccak256(0x00, 0x40))\n      dup1\n      0x00\n      mstore\n      keccak256(0x00, 0x40)\n      0x00\n      swap2\n      pop\n      swap2\n      pop\n      swap1\n      sload\n      swap1\n      0x0100\n      exp\n      swap1\n      div\n      0xff\n      and\n      dup2\n      jump\t// out\n        /* \"contracts/TimeMarket.sol\":7150:7264  function getSolder(uint64 _id)internal view returns(address){... */\n    tag_62:\n        /* \"contracts/TimeMarket.sol\":7202:7209  address */\n      0x00\n        /* \"contracts/TimeMarket.sol\":7228:7237  _tradeMes */\n      0x02\n        /* \"contracts/TimeMarket.sol\":7228:7242  _tradeMes[_id] */\n      0x00\n        /* \"contracts/TimeMarket.sol\":7238:7241  _id */\n      dup4\n        /* \"contracts/TimeMarket.sol\":7228:7242  _tradeMes[_id] */\n      0xffffffffffffffff\n      and\n      0xffffffffffffffff\n      and\n      dup2\n      mstore\n      0x20\n      add\n      swap1\n      dup2\n      mstore\n      0x20\n      add\n      0x00\n      keccak256\n        /* \"contracts/TimeMarket.sol\":7228:7256  _tradeMes[_id].solderAddress */\n      0x04\n      add\n      0x00\n      swap1\n      sload\n      swap1\n      0x0100\n      exp\n      swap1\n      div\n      0xffffffffffffffffffffffffffffffffffffffff\n      and\n        /* \"contracts/TimeMarket.sol\":7221:7256  return _tradeMes[_id].solderAddress */\n      swap1\n      pop\n        /* \"contracts/TimeMarket.sol\":7150:7264  function getSolder(uint64 _id)internal view returns(address){... */\n      swap2\n      swap1\n      pop\n      jump\t// out\n        /* \"libraries/SafeERC20.sol\":1447:1652  function safeTransferFrom(IERC20 token, address from, address to, uint256 value) internal {... */\n    tag_65:\n        /* \"libraries/SafeERC20.sol\":1548:1644  _callOptionalReturn(token, abi.encodeWithSelector(token.transferFrom.selector, from, to, value)) */\n      tag_139\n        /* \"libraries/SafeERC20.sol\":1568:1573  token */\n      dup5\n        /* \"libraries/SafeERC20.sol\":1598:1625  token.transferFrom.selector */\n      shl(0xe0, 0x23b872dd)\n        /* \"libraries/SafeERC20.sol\":1627:1631  from */\n      dup6\n        /* \"libraries/SafeERC20.sol\":1633:1635  to */\n      dup6\n        /* \"libraries/SafeERC20.sol\":1637:1642  value */\n      dup6\n        /* \"libraries/SafeERC20.sol\":1575:1643  abi.encodeWithSelector(token.transferFrom.selector, from, to, value) */\n      add(0x24, mload(0x40))\n      tag_140\n      swap4\n      swap3\n      swap2\n      swap1\n      tag_141\n      jump\t// in\n    tag_140:\n      mload(0x40)\n      0x20\n      dup2\n      dup4\n      sub\n      sub\n      dup2\n      mstore\n      swap1\n      0x40\n      mstore\n      swap1\n      not(0xffffffffffffffffffffffffffffffffffffffffffffffffffffffff)\n      and\n      0x20\n      dup3\n      add\n      dup1\n      mload\n      0xffffffffffffffffffffffffffffffffffffffffffffffffffffffff\n      dup4\n      dup2\n      dup4\n      and\n      or\n      dup4\n      mstore\n      pop\n      pop\n      pop\n      pop\n        /* \"libraries/SafeERC20.sol\":1548:1567  _callOptionalReturn */\n      tag_142\n        /* \"libraries/SafeERC20.sol\":1548:1644  _callOptionalReturn(token, abi.encodeWithSelector(token.transferFrom.selector, from, to, value)) */\n      jump\t// in\n    tag_139:\n        /* \"libraries/SafeERC20.sol\":1447:1652  function safeTransferFrom(IERC20 token, address from, address to, uint256 value) internal {... */\n      pop\n      pop\n      pop\n      pop\n      jump\t// out\n        /* \"contracts/TimeMarket.sol\":6990:7102  function getBuyer(uint64 _id)internal view returns(address){... */\n    tag_68:\n        /* \"contracts/TimeMarket.sol\":7041:7048  address */\n      0x00\n        /* \"contracts/TimeMarket.sol\":7067:7076  _tradeMes */\n      0x02\n        /* \"contracts/TimeMarket.sol\":7067:7081  _tradeMes[_id] */\n      0x00\n        /* \"contracts/TimeMarket.sol\":7077:7080  _id */\n      dup4\n        /* \"contracts/TimeMarket.sol\":7067:7081  _tradeMes[_id] */\n      0xffffffffffffffff\n      and\n      0xffffffffffffffff\n      and\n      dup2\n      mstore\n      0x20\n      add\n      swap1\n      dup2\n      mstore\n      0x20\n      add\n      0x00\n      keccak256\n        /* \"contracts/TimeMarket.sol\":7067:7094  _tradeMes[_id].buyerAddress */\n      0x03\n      add\n      0x00\n      swap1\n      sload\n      swap1\n      0x0100\n      exp\n      swap1\n      div\n      0xffffffffffffffffffffffffffffffffffffffff\n      and\n        /* \"contracts/TimeMarket.sol\":7060:7094  return _tradeMes[_id].buyerAddress */\n      swap1\n      pop\n        /* \"contracts/TimeMarket.sol\":6990:7102  function getBuyer(uint64 _id)internal view returns(address){... */\n      swap2\n      swap1\n      pop\n      jump\t// out\n        /* \"libraries/TimeFee.sol\":250:680  function fee(uint256 stableAmount)internal pure returns(uint256 stableFee){... */\n    tag_76:\n        /* \"libraries/TimeFee.sol\":306:323  uint256 stableFee */\n      0x00\n        /* \"libraries/TimeFee.sol\":352:361  100 ether */\n      0x056bc75e2d63100000\n        /* \"libraries/TimeFee.sol\":338:350  stableAmount */\n      dup3\n        /* \"libraries/TimeFee.sol\":338:361  stableAmount>=100 ether */\n      lt\n      iszero\n        /* \"libraries/TimeFee.sol\":338:388  stableAmount>=100 ether && stableAmount<1000 ether */\n      dup1\n      iszero\n      tag_145\n      jumpi\n      pop\n        /* \"libraries/TimeFee.sol\":378:388  1000 ether */\n      0x3635c9adc5dea00000\n        /* \"libraries/TimeFee.sol\":365:377  stableAmount */\n      dup3\n        /* \"libraries/TimeFee.sol\":365:388  stableAmount<1000 ether */\n      lt\n        /* \"libraries/TimeFee.sol\":338:388  stableAmount>=100 ether && stableAmount<1000 ether */\n    tag_145:\n        /* \"libraries/TimeFee.sol\":335:673  if(stableAmount>=100 ether && stableAmount<1000 ether){... */\n      iszero\n      tag_146\n      jumpi\n        /* \"libraries/TimeFee.sol\":424:427  100 */\n      0x64\n        /* \"libraries/TimeFee.sol\":411:423  stableAmount */\n      dup3\n        /* \"libraries/TimeFee.sol\":411:427  stableAmount/100 */\n      tag_147\n      swap2\n      swap1\n      tag_111\n      jump\t// in\n    tag_147:\n        /* \"libraries/TimeFee.sol\":404:427  return stableAmount/100 */\n      swap1\n      pop\n      jump(tag_144)\n        /* \"libraries/TimeFee.sol\":335:673  if(stableAmount>=100 ether && stableAmount<1000 ether){... */\n    tag_146:\n        /* \"libraries/TimeFee.sol\":461:471  1000 ether */\n      0x3635c9adc5dea00000\n        /* \"libraries/TimeFee.sol\":447:459  stableAmount */\n      dup3\n        /* \"libraries/TimeFee.sol\":447:471  stableAmount>=1000 ether */\n      lt\n      iszero\n        /* \"libraries/TimeFee.sol\":447:499  stableAmount>=1000 ether && stableAmount<10000 ether */\n      dup1\n      iszero\n      tag_149\n      jumpi\n      pop\n        /* \"libraries/TimeFee.sol\":488:499  10000 ether */\n      0x021e19e0c9bab2400000\n        /* \"libraries/TimeFee.sol\":475:487  stableAmount */\n      dup3\n        /* \"libraries/TimeFee.sol\":475:499  stableAmount<10000 ether */\n      lt\n        /* \"libraries/TimeFee.sol\":447:499  stableAmount>=1000 ether && stableAmount<10000 ether */\n    tag_149:\n        /* \"libraries/TimeFee.sol\":444:673  if(stableAmount>=1000 ether && stableAmount<10000 ether){... */\n      iszero\n      tag_150\n      jumpi\n        /* \"libraries/TimeFee.sol\":535:538  200 */\n      0xc8\n        /* \"libraries/TimeFee.sol\":522:534  stableAmount */\n      dup3\n        /* \"libraries/TimeFee.sol\":522:538  stableAmount/200 */\n      tag_151\n      swap2\n      swap1\n      tag_111\n      jump\t// in\n    tag_151:\n        /* \"libraries/TimeFee.sol\":515:538  return stableAmount/200 */\n      swap1\n      pop\n      jump(tag_144)\n        /* \"libraries/TimeFee.sol\":444:673  if(stableAmount>=1000 ether && stableAmount<10000 ether){... */\n    tag_150:\n        /* \"libraries/TimeFee.sol\":572:583  10000 ether */\n      0x021e19e0c9bab2400000\n        /* \"libraries/TimeFee.sol\":558:570  stableAmount */\n      dup3\n        /* \"libraries/TimeFee.sol\":558:583  stableAmount>=10000 ether */\n      lt\n        /* \"libraries/TimeFee.sol\":555:673  if(stableAmount>=10000 ether){... */\n      tag_153\n      jumpi\n        /* \"libraries/TimeFee.sol\":619:622  400 */\n      0x0190\n        /* \"libraries/TimeFee.sol\":606:618  stableAmount */\n      dup3\n        /* \"libraries/TimeFee.sol\":606:622  stableAmount/400 */\n      tag_154\n      swap2\n      swap1\n      tag_111\n      jump\t// in\n    tag_154:\n        /* \"libraries/TimeFee.sol\":599:622  return stableAmount/400 */\n      swap1\n      pop\n      jump(tag_144)\n        /* \"libraries/TimeFee.sol\":555:673  if(stableAmount>=10000 ether){... */\n    tag_153:\n        /* \"libraries/TimeFee.sol\":660:661  0 */\n      0x00\n        /* \"libraries/TimeFee.sol\":653:661  return 0 */\n      swap1\n      pop\n        /* \"libraries/TimeFee.sol\":250:680  function fee(uint256 stableAmount)internal pure returns(uint256 stableFee){... */\n    tag_144:\n      swap2\n      swap1\n      pop\n      jump\t// out\n        /* \"libraries/SafeERC20.sol\":1025:1202  function safeTransfer(IERC20 token, address to, uint256 value) internal {... */\n    tag_78:\n        /* \"libraries/SafeERC20.sol\":1108:1194  _callOptionalReturn(token, abi.encodeWithSelector(token.transfer.selector, to, value)) */\n      tag_157\n        /* \"libraries/SafeERC20.sol\":1128:1133  token */\n      dup4\n        /* \"libraries/SafeERC20.sol\":1158:1181  token.transfer.selector */\n      shl(0xe0, 0xa9059cbb)\n        /* \"libraries/SafeERC20.sol\":1183:1185  to */\n      dup5\n        /* \"libraries/SafeERC20.sol\":1187:1192  value */\n      dup5\n        /* \"libraries/SafeERC20.sol\":1135:1193  abi.encodeWithSelector(token.transfer.selector, to, value) */\n      add(0x24, mload(0x40))\n      tag_158\n      swap3\n      swap2\n      swap1\n      tag_159\n      jump\t// in\n    tag_158:\n      mload(0x40)\n      0x20\n      dup2\n      dup4\n      sub\n      sub\n      dup2\n      mstore\n      swap1\n      0x40\n      mstore\n      swap1\n      not(0xffffffffffffffffffffffffffffffffffffffffffffffffffffffff)\n      and\n      0x20\n      dup3\n      add\n      dup1\n      mload\n      0xffffffffffffffffffffffffffffffffffffffffffffffffffffffff\n      dup4\n      dup2\n      dup4\n      and\n      or\n      dup4\n      mstore\n      pop\n      pop\n      pop\n      pop\n        /* \"libraries/SafeERC20.sol\":1108:1127  _callOptionalReturn */\n      tag_142\n        /* \"libraries/SafeERC20.sol\":1108:1194  _callOptionalReturn(token, abi.encodeWithSelector(token.transfer.selector, to, value)) */\n      jump\t// in\n    tag_157:\n        /* \"libraries/SafeERC20.sol\":1025:1202  function safeTransfer(IERC20 token, address to, uint256 value) internal {... */\n      pop\n      pop\n      pop\n      jump\t// out\n        /* \"libraries/SafeERC20.sol\":5371:6020  function _callOptionalReturn(IERC20 token, bytes memory data) private {... */\n    tag_142:\n        /* \"libraries/SafeERC20.sol\":5795:5818  bytes memory returndata */\n      0x00\n        /* \"libraries/SafeERC20.sol\":5821:5890  address(token).functionCall(data, \"SafeERC20: low-level call failed\") */\n      tag_161\n        /* \"libraries/SafeERC20.sol\":5849:5853  data */\n      dup3\n        /* \"libraries/SafeERC20.sol\":5821:5890  address(token).functionCall(data, \"SafeERC20: low-level call failed\") */\n      mload(0x40)\n      dup1\n      0x40\n      add\n      0x40\n      mstore\n      dup1\n      0x20\n      dup2\n      mstore\n      0x20\n      add\n      0x5361666545524332303a206c6f772d6c6576656c2063616c6c206661696c6564\n      dup2\n      mstore\n      pop\n        /* \"libraries/SafeERC20.sol\":5829:5834  token */\n      dup6\n        /* \"libraries/SafeERC20.sol\":5821:5848  address(token).functionCall */\n      0xffffffffffffffffffffffffffffffffffffffff\n      and\n      tag_162\n      swap1\n        /* \"libraries/SafeERC20.sol\":5821:5890  address(token).functionCall(data, \"SafeERC20: low-level call failed\") */\n      swap3\n      swap2\n      swap1\n      0xffffffff\n      and\n      jump\t// in\n    tag_161:\n        /* \"libraries/SafeERC20.sol\":5795:5890  bytes memory returndata = address(token).functionCall(data, \"SafeERC20: low-level call failed\") */\n      swap1\n      pop\n        /* \"libraries/SafeERC20.sol\":5930:5931  0 */\n      0x00\n        /* \"libraries/SafeERC20.sol\":5909:5919  returndata */\n      dup2\n        /* \"libraries/SafeERC20.sol\":5909:5926  returndata.length */\n      mload\n        /* \"libraries/SafeERC20.sol\":5909:5931  returndata.length == 0 */\n      eq\n        /* \"libraries/SafeERC20.sol\":5909:5965  returndata.length == 0 || abi.decode(returndata, (bool)) */\n      dup1\n      tag_163\n      jumpi\n      pop\n        /* \"libraries/SafeERC20.sol\":5946:5956  returndata */\n      dup1\n        /* \"libraries/SafeERC20.sol\":5935:5965  abi.decode(returndata, (bool)) */\n      dup1\n      0x20\n      add\n      swap1\n      mload\n      dup2\n      add\n      swap1\n      tag_164\n      swap2\n      swap1\n      tag_165\n      jump\t// in\n    tag_164:\n        /* \"libraries/SafeERC20.sol\":5909:5965  returndata.length == 0 || abi.decode(returndata, (bool)) */\n    tag_163:\n        /* \"libraries/SafeERC20.sol\":5901:6012  require(returndata.length == 0 || abi.decode(returndata, (bool)), \"SafeERC20: ERC20 operation did not succeed\") */\n      tag_166\n      jumpi\n      mload(0x40)\n      0x08c379a000000000000000000000000000000000000000000000000000000000\n      dup2\n      mstore\n      0x04\n      add\n      tag_167\n      swap1\n      tag_168\n      jump\t// in\n    tag_167:\n      mload(0x40)\n      dup1\n      swap2\n      sub\n      swap1\n      revert\n    tag_166:\n        /* \"libraries/SafeERC20.sol\":5441:6020  {... */\n      pop\n        /* \"libraries/SafeERC20.sol\":5371:6020  function _callOptionalReturn(IERC20 token, bytes memory data) private {... */\n      pop\n      pop\n      jump\t// out\n        /* \"libraries/Address.sol\":4207:4436  function functionCall(... */\n    tag_162:\n        /* \"libraries/Address.sol\":4344:4356  bytes memory */\n      0x60\n        /* \"libraries/Address.sol\":4376:4428  functionCallWithValue(target, data, 0, errorMessage) */\n      tag_170\n        /* \"libraries/Address.sol\":4398:4404  target */\n      dup5\n        /* \"libraries/Address.sol\":4406:4410  data */\n      dup5\n        /* \"libraries/Address.sol\":4412:4413  0 */\n      0x00\n        /* \"libraries/Address.sol\":4415:4427  errorMessage */\n      dup6\n        /* \"libraries/Address.sol\":4376:4397  functionCallWithValue */\n      tag_171\n        /* \"libraries/Address.sol\":4376:4428  functionCallWithValue(target, data, 0, errorMessage) */\n      jump\t// in\n    tag_170:\n        /* \"libraries/Address.sol\":4369:4428  return functionCallWithValue(target, data, 0, errorMessage) */\n      swap1\n      pop\n        /* \"libraries/Address.sol\":4207:4436  function functionCall(... */\n      swap4\n      swap3\n      pop\n      pop\n      pop\n      jump\t// out\n        /* \"libraries/Address.sol\":5293:5748  function functionCallWithValue(... */\n    tag_171:\n        /* \"libraries/Address.sol\":5463:5475  bytes memory */\n      0x60\n        /* \"libraries/Address.sol\":5521:5526  value */\n      dup3\n        /* \"libraries/Address.sol\":5496:5517  address(this).balance */\n      selfbalance\n        /* \"libraries/Address.sol\":5496:5526  address(this).balance >= value */\n      lt\n      iszero\n        /* \"libraries/Address.sol\":5488:5569  require(address(this).balance >= value, \"Address: insufficient balance for call\") */\n      tag_173\n      jumpi\n      mload(0x40)\n      0x08c379a000000000000000000000000000000000000000000000000000000000\n      dup2\n      mstore\n      0x04\n      add\n      tag_174\n      swap1\n      tag_175\n      jump\t// in\n    tag_174:\n      mload(0x40)\n      dup1\n      swap2\n      sub\n      swap1\n      revert\n    tag_173:\n        /* \"libraries/Address.sol\":5581:5593  bool success */\n      0x00\n        /* \"libraries/Address.sol\":5595:5618  bytes memory returndata */\n      dup1\n        /* \"libraries/Address.sol\":5622:5628  target */\n      dup7\n        /* \"libraries/Address.sol\":5622:5633  target.call */\n      0xffffffffffffffffffffffffffffffffffffffff\n      and\n        /* \"libraries/Address.sol\":5641:5646  value */\n      dup6\n        /* \"libraries/Address.sol\":5648:5652  data */\n      dup8\n        /* \"libraries/Address.sol\":5622:5653  target.call{value: value}(data) */\n      mload(0x40)\n      tag_176\n      swap2\n      swap1\n      tag_177\n      jump\t// in\n    tag_176:\n      0x00\n      mload(0x40)\n      dup1\n      dup4\n      sub\n      dup2\n      dup6\n      dup8\n      gas\n      call\n      swap3\n      pop\n      pop\n      pop\n      returndatasize\n      dup1\n      0x00\n      dup2\n      eq\n      tag_180\n      jumpi\n      mload(0x40)\n      swap2\n      pop\n      and(add(returndatasize, 0x3f), not(0x1f))\n      dup3\n      add\n      0x40\n      mstore\n      returndatasize\n      dup3\n      mstore\n      returndatasize\n      0x00\n      0x20\n      dup5\n      add\n      returndatacopy\n      jump(tag_179)\n    tag_180:\n      0x60\n      swap2\n      pop\n    tag_179:\n      pop\n        /* \"libraries/Address.sol\":5580:5653  (bool success, bytes memory returndata) = target.call{value: value}(data) */\n      swap2\n      pop\n      swap2\n      pop\n        /* \"libraries/Address.sol\":5671:5740  verifyCallResultFromTarget(target, success, returndata, errorMessage) */\n      tag_181\n        /* \"libraries/Address.sol\":5698:5704  target */\n      dup8\n        /* \"libraries/Address.sol\":5706:5713  success */\n      dup4\n        /* \"libraries/Address.sol\":5715:5725  returndata */\n      dup4\n        /* \"libraries/Address.sol\":5727:5739  errorMessage */\n      dup8\n        /* \"libraries/Address.sol\":5671:5697  verifyCallResultFromTarget */\n      tag_182\n        /* \"libraries/Address.sol\":5671:5740  verifyCallResultFromTarget(target, success, returndata, errorMessage) */\n      jump\t// in\n    tag_181:\n        /* \"libraries/Address.sol\":5664:5740  return verifyCallResultFromTarget(target, success, returndata, errorMessage) */\n      swap3\n      pop\n      pop\n      pop\n        /* \"libraries/Address.sol\":5293:5748  function functionCallWithValue(... */\n      swap5\n      swap4\n      pop\n      pop\n      pop\n      pop\n      jump\t// out\n        /* \"libraries/Address.sol\":7866:8510  function verifyCallResultFromTarget(... */\n    tag_182:\n        /* \"libraries/Address.sol\":8051:8063  bytes memory */\n      0x60\n        /* \"libraries/Address.sol\":8080:8087  success */\n      dup4\n        /* \"libraries/Address.sol\":8076:8503  if (success) {... */\n      iszero\n      tag_184\n      jumpi\n        /* \"libraries/Address.sol\":8129:8130  0 */\n      0x00\n        /* \"libraries/Address.sol\":8108:8118  returndata */\n      dup4\n        /* \"libraries/Address.sol\":8108:8125  returndata.length */\n      mload\n        /* \"libraries/Address.sol\":8108:8130  returndata.length == 0 */\n      eq\n        /* \"libraries/Address.sol\":8104:8394  if (returndata.length == 0) {... */\n      iszero\n      tag_185\n      jumpi\n        /* \"libraries/Address.sol\":8326:8344  isContract(target) */\n      tag_186\n        /* \"libraries/Address.sol\":8337:8343  target */\n      dup6\n        /* \"libraries/Address.sol\":8326:8336  isContract */\n      tag_187\n        /* \"libraries/Address.sol\":8326:8344  isContract(target) */\n      jump\t// in\n    tag_186:\n        /* \"libraries/Address.sol\":8318:8378  require(isContract(target), \"Address: call to non-contract\") */\n      tag_188\n      jumpi\n      mload(0x40)\n      0x08c379a000000000000000000000000000000000000000000000000000000000\n      dup2\n      mstore\n      0x04\n      add\n      tag_189\n      swap1\n      tag_190\n      jump\t// in\n    tag_189:\n      mload(0x40)\n      dup1\n      swap2\n      sub\n      swap1\n      revert\n    tag_188:\n        /* \"libraries/Address.sol\":8104:8394  if (returndata.length == 0) {... */\n    tag_185:\n        /* \"libraries/Address.sol\":8415:8425  returndata */\n      dup3\n        /* \"libraries/Address.sol\":8408:8425  return returndata */\n      swap1\n      pop\n      jump(tag_183)\n        /* \"libraries/Address.sol\":8076:8503  if (success) {... */\n    tag_184:\n        /* \"libraries/Address.sol\":8458:8491  _revert(returndata, errorMessage) */\n      tag_192\n        /* \"libraries/Address.sol\":8466:8476  returndata */\n      dup4\n        /* \"libraries/Address.sol\":8478:8490  errorMessage */\n      dup4\n        /* \"libraries/Address.sol\":8458:8465  _revert */\n      tag_193\n        /* \"libraries/Address.sol\":8458:8491  _revert(returndata, errorMessage) */\n      jump\t// in\n    tag_192:\n        /* \"libraries/Address.sol\":7866:8510  function verifyCallResultFromTarget(... */\n    tag_183:\n      swap5\n      swap4\n      pop\n      pop\n      pop\n      pop\n      jump\t// out\n        /* \"libraries/Address.sol\":1452:1778  function isContract(address account) internal view returns (bool) {... */\n    tag_187:\n        /* \"libraries/Address.sol\":1512:1516  bool */\n      0x00\n        /* \"libraries/Address.sol\":1769:1770  0 */\n      dup1\n        /* \"libraries/Address.sol\":1747:1754  account */\n      dup3\n        /* \"libraries/Address.sol\":1747:1766  account.code.length */\n      0xffffffffffffffffffffffffffffffffffffffff\n      and\n      extcodesize\n        /* \"libraries/Address.sol\":1747:1770  account.code.length > 0 */\n      gt\n        /* \"libraries/Address.sol\":1740:1770  return account.code.length > 0 */\n      swap1\n      pop\n        /* \"libraries/Address.sol\":1452:1778  function isContract(address account) internal view returns (bool) {... */\n      swap2\n      swap1\n      pop\n      jump\t// out\n        /* \"libraries/Address.sol\":9052:9604  function _revert(bytes memory returndata, string memory errorMessage) private pure {... */\n    tag_193:\n        /* \"libraries/Address.sol\":9233:9234  0 */\n      0x00\n        /* \"libraries/Address.sol\":9213:9223  returndata */\n      dup3\n        /* \"libraries/Address.sol\":9213:9230  returndata.length */\n      mload\n        /* \"libraries/Address.sol\":9213:9234  returndata.length > 0 */\n      gt\n        /* \"libraries/Address.sol\":9209:9597  if (returndata.length > 0) {... */\n      iszero\n      tag_196\n      jumpi\n        /* \"libraries/Address.sol\":9445:9455  returndata */\n      dup2\n        /* \"libraries/Address.sol\":9439:9456  mload(returndata) */\n      mload\n        /* \"libraries/Address.sol\":9502:9517  returndata_size */\n      dup1\n        /* \"libraries/Address.sol\":9489:9499  returndata */\n      dup4\n        /* \"libraries/Address.sol\":9485:9487  32 */\n      0x20\n        /* \"libraries/Address.sol\":9481:9500  add(32, returndata) */\n      add\n        /* \"libraries/Address.sol\":9474:9518  revert(add(32, returndata), returndata_size) */\n      revert\n        /* \"libraries/Address.sol\":9209:9597  if (returndata.length > 0) {... */\n    tag_196:\n        /* \"libraries/Address.sol\":9572:9584  errorMessage */\n      dup1\n        /* \"libraries/Address.sol\":9565:9585  revert(errorMessage) */\n      mload(0x40)\n      0x08c379a000000000000000000000000000000000000000000000000000000000\n      dup2\n      mstore\n      0x04\n      add\n      tag_198\n      swap2\n      swap1\n      tag_199\n      jump\t// in\n    tag_198:\n      mload(0x40)\n      dup1\n      swap2\n      sub\n      swap1\n      revert\n        /* \"#utility.yul\":88:205   */\n    tag_201:\n        /* \"#utility.yul\":197:198   */\n      0x00\n        /* \"#utility.yul\":194:195   */\n      dup1\n        /* \"#utility.yul\":187:199   */\n      revert\n        /* \"#utility.yul\":334:435   */\n    tag_203:\n        /* \"#utility.yul\":370:377   */\n      0x00\n        /* \"#utility.yul\":410:428   */\n      0xffffffffffffffff\n        /* \"#utility.yul\":403:408   */\n      dup3\n        /* \"#utility.yul\":399:429   */\n      and\n        /* \"#utility.yul\":388:429   */\n      swap1\n      pop\n        /* \"#utility.yul\":334:435   */\n      swap2\n      swap1\n      pop\n      jump\t// out\n        /* \"#utility.yul\":441:561   */\n    tag_204:\n        /* \"#utility.yul\":513:536   */\n      tag_244\n        /* \"#utility.yul\":530:535   */\n      dup2\n        /* \"#utility.yul\":513:536   */\n      tag_203\n      jump\t// in\n    tag_244:\n        /* \"#utility.yul\":506:511   */\n      dup2\n        /* \"#utility.yul\":503:537   */\n      eq\n        /* \"#utility.yul\":493:555   */\n      tag_245\n      jumpi\n        /* \"#utility.yul\":551:552   */\n      0x00\n        /* \"#utility.yul\":548:549   */\n      dup1\n        /* \"#utility.yul\":541:553   */\n      revert\n        /* \"#utility.yul\":493:555   */\n    tag_245:\n        /* \"#utility.yul\":441:561   */\n      pop\n      jump\t// out\n        /* \"#utility.yul\":567:704   */\n    tag_205:\n        /* \"#utility.yul\":612:617   */\n      0x00\n        /* \"#utility.yul\":650:656   */\n      dup2\n        /* \"#utility.yul\":637:657   */\n      calldataload\n        /* \"#utility.yul\":628:657   */\n      swap1\n      pop\n        /* \"#utility.yul\":666:698   */\n      tag_247\n        /* \"#utility.yul\":692:697   */\n      dup2\n        /* \"#utility.yul\":666:698   */\n      tag_204\n      jump\t// in\n    tag_247:\n        /* \"#utility.yul\":567:704   */\n      swap3\n      swap2\n      pop\n      pop\n      jump\t// out\n        /* \"#utility.yul\":710:1037   */\n    tag_17:\n        /* \"#utility.yul\":768:774   */\n      0x00\n        /* \"#utility.yul\":817:819   */\n      0x20\n        /* \"#utility.yul\":805:814   */\n      dup3\n        /* \"#utility.yul\":796:803   */\n      dup5\n        /* \"#utility.yul\":792:815   */\n      sub\n        /* \"#utility.yul\":788:820   */\n      slt\n        /* \"#utility.yul\":785:904   */\n      iszero\n      tag_249\n      jumpi\n        /* \"#utility.yul\":823:902   */\n      tag_250\n      tag_201\n      jump\t// in\n    tag_250:\n        /* \"#utility.yul\":785:904   */\n    tag_249:\n        /* \"#utility.yul\":943:944   */\n      0x00\n        /* \"#utility.yul\":968:1020   */\n      tag_251\n        /* \"#utility.yul\":1012:1019   */\n      dup5\n        /* \"#utility.yul\":1003:1009   */\n      dup3\n        /* \"#utility.yul\":992:1001   */\n      dup6\n        /* \"#utility.yul\":988:1010   */\n      add\n        /* \"#utility.yul\":968:1020   */\n      tag_205\n      jump\t// in\n    tag_251:\n        /* \"#utility.yul\":958:1020   */\n      swap2\n      pop\n        /* \"#utility.yul\":914:1030   */\n      pop\n        /* \"#utility.yul\":710:1037   */\n      swap3\n      swap2\n      pop\n      pop\n      jump\t// out\n        /* \"#utility.yul\":1043:1169   */\n    tag_206:\n        /* \"#utility.yul\":1080:1087   */\n      0x00\n        /* \"#utility.yul\":1120:1162   */\n      0xffffffffffffffffffffffffffffffffffffffff\n        /* \"#utility.yul\":1113:1118   */\n      dup3\n        /* \"#utility.yul\":1109:1163   */\n      and\n        /* \"#utility.yul\":1098:1163   */\n      swap1\n      pop\n        /* \"#utility.yul\":1043:1169   */\n      swap2\n      swap1\n      pop\n      jump\t// out\n        /* \"#utility.yul\":1175:1271   */\n    tag_207:\n        /* \"#utility.yul\":1212:1219   */\n      0x00\n        /* \"#utility.yul\":1241:1265   */\n      tag_254\n        /* \"#utility.yul\":1259:1264   */\n      dup3\n        /* \"#utility.yul\":1241:1265   */\n      tag_206\n      jump\t// in\n    tag_254:\n        /* \"#utility.yul\":1230:1265   */\n      swap1\n      pop\n        /* \"#utility.yul\":1175:1271   */\n      swap2\n      swap1\n      pop\n      jump\t// out\n        /* \"#utility.yul\":1277:1399   */\n    tag_208:\n        /* \"#utility.yul\":1350:1374   */\n      tag_256\n        /* \"#utility.yul\":1368:1373   */\n      dup2\n        /* \"#utility.yul\":1350:1374   */\n      tag_207\n      jump\t// in\n    tag_256:\n        /* \"#utility.yul\":1343:1348   */\n      dup2\n        /* \"#utility.yul\":1340:1375   */\n      eq\n        /* \"#utility.yul\":1330:1393   */\n      tag_257\n      jumpi\n        /* \"#utility.yul\":1389:1390   */\n      0x00\n        /* \"#utility.yul\":1386:1387   */\n      dup1\n        /* \"#utility.yul\":1379:1391   */\n      revert\n        /* \"#utility.yul\":1330:1393   */\n    tag_257:\n        /* \"#utility.yul\":1277:1399   */\n      pop\n      jump\t// out\n        /* \"#utility.yul\":1405:1544   */\n    tag_209:\n        /* \"#utility.yul\":1451:1456   */\n      0x00\n        /* \"#utility.yul\":1489:1495   */\n      dup2\n        /* \"#utility.yul\":1476:1496   */\n      calldataload\n        /* \"#utility.yul\":1467:1496   */\n      swap1\n      pop\n        /* \"#utility.yul\":1505:1538   */\n      tag_259\n        /* \"#utility.yul\":1532:1537   */\n      dup2\n        /* \"#utility.yul\":1505:1538   */\n      tag_208\n      jump\t// in\n    tag_259:\n        /* \"#utility.yul\":1405:1544   */\n      swap3\n      swap2\n      pop\n      pop\n      jump\t// out\n        /* \"#utility.yul\":1550:1627   */\n    tag_210:\n        /* \"#utility.yul\":1587:1594   */\n      0x00\n        /* \"#utility.yul\":1616:1621   */\n      dup2\n        /* \"#utility.yul\":1605:1621   */\n      swap1\n      pop\n        /* \"#utility.yul\":1550:1627   */\n      swap2\n      swap1\n      pop\n      jump\t// out\n        /* \"#utility.yul\":1633:1755   */\n    tag_211:\n        /* \"#utility.yul\":1706:1730   */\n      tag_262\n        /* \"#utility.yul\":1724:1729   */\n      dup2\n        /* \"#utility.yul\":1706:1730   */\n      tag_210\n      jump\t// in\n    tag_262:\n        /* \"#utility.yul\":1699:1704   */\n      dup2\n        /* \"#utility.yul\":1696:1731   */\n      eq\n        /* \"#utility.yul\":1686:1749   */\n      tag_263\n      jumpi\n        /* \"#utility.yul\":1745:1746   */\n      0x00\n        /* \"#utility.yul\":1742:1743   */\n      dup1\n        /* \"#utility.yul\":1735:1747   */\n      revert\n        /* \"#utility.yul\":1686:1749   */\n    tag_263:\n        /* \"#utility.yul\":1633:1755   */\n      pop\n      jump\t// out\n        /* \"#utility.yul\":1761:1900   */\n    tag_212:\n        /* \"#utility.yul\":1807:1812   */\n      0x00\n        /* \"#utility.yul\":1845:1851   */\n      dup2\n        /* \"#utility.yul\":1832:1852   */\n      calldataload\n        /* \"#utility.yul\":1823:1852   */\n      swap1\n      pop\n        /* \"#utility.yul\":1861:1894   */\n      tag_265\n        /* \"#utility.yul\":1888:1893   */\n      dup2\n        /* \"#utility.yul\":1861:1894   */\n      tag_211\n      jump\t// in\n    tag_265:\n        /* \"#utility.yul\":1761:1900   */\n      swap3\n      swap2\n      pop\n      pop\n      jump\t// out\n        /* \"#utility.yul\":1906:2380   */\n    tag_24:\n        /* \"#utility.yul\":1974:1980   */\n      0x00\n        /* \"#utility.yul\":1982:1988   */\n      dup1\n        /* \"#utility.yul\":2031:2033   */\n      0x40\n        /* \"#utility.yul\":2019:2028   */\n      dup4\n        /* \"#utility.yul\":2010:2017   */\n      dup6\n        /* \"#utility.yul\":2006:2029   */\n      sub\n        /* \"#utility.yul\":2002:2034   */\n      slt\n        /* \"#utility.yul\":1999:2118   */\n      iszero\n      tag_267\n      jumpi\n        /* \"#utility.yul\":2037:2116   */\n      tag_268\n      tag_201\n      jump\t// in\n    tag_268:\n        /* \"#utility.yul\":1999:2118   */\n    tag_267:\n        /* \"#utility.yul\":2157:2158   */\n      0x00\n        /* \"#utility.yul\":2182:2235   */\n      tag_269\n        /* \"#utility.yul\":2227:2234   */\n      dup6\n        /* \"#utility.yul\":2218:2224   */\n      dup3\n        /* \"#utility.yul\":2207:2216   */\n      dup7\n        /* \"#utility.yul\":2203:2225   */\n      add\n        /* \"#utility.yul\":2182:2235   */\n      tag_209\n      jump\t// in\n    tag_269:\n        /* \"#utility.yul\":2172:2235   */\n      swap3\n      pop\n        /* \"#utility.yul\":2128:2245   */\n      pop\n        /* \"#utility.yul\":2284:2286   */\n      0x20\n        /* \"#utility.yul\":2310:2363   */\n      tag_270\n        /* \"#utility.yul\":2355:2362   */\n      dup6\n        /* \"#utility.yul\":2346:2352   */\n      dup3\n        /* \"#utility.yul\":2335:2344   */\n      dup7\n        /* \"#utility.yul\":2331:2353   */\n      add\n        /* \"#utility.yul\":2310:2363   */\n      tag_212\n      jump\t// in\n    tag_270:\n        /* \"#utility.yul\":2300:2363   */\n      swap2\n      pop\n        /* \"#utility.yul\":2255:2373   */\n      pop\n        /* \"#utility.yul\":1906:2380   */\n      swap3\n      pop\n      swap3\n      swap1\n      pop\n      jump\t// out\n        /* \"#utility.yul\":2386:2476   */\n    tag_213:\n        /* \"#utility.yul\":2420:2427   */\n      0x00\n        /* \"#utility.yul\":2463:2468   */\n      dup2\n        /* \"#utility.yul\":2456:2469   */\n      iszero\n        /* \"#utility.yul\":2449:2470   */\n      iszero\n        /* \"#utility.yul\":2438:2470   */\n      swap1\n      pop\n        /* \"#utility.yul\":2386:2476   */\n      swap2\n      swap1\n      pop\n      jump\t// out\n        /* \"#utility.yul\":2482:2591   */\n    tag_214:\n        /* \"#utility.yul\":2563:2584   */\n      tag_273\n        /* \"#utility.yul\":2578:2583   */\n      dup2\n        /* \"#utility.yul\":2563:2584   */\n      tag_213\n      jump\t// in\n    tag_273:\n        /* \"#utility.yul\":2558:2561   */\n      dup3\n        /* \"#utility.yul\":2551:2585   */\n      mstore\n        /* \"#utility.yul\":2482:2591   */\n      pop\n      pop\n      jump\t// out\n        /* \"#utility.yul\":2597:2807   */\n    tag_27:\n        /* \"#utility.yul\":2684:2688   */\n      0x00\n        /* \"#utility.yul\":2722:2724   */\n      0x20\n        /* \"#utility.yul\":2711:2720   */\n      dup3\n        /* \"#utility.yul\":2707:2725   */\n      add\n        /* \"#utility.yul\":2699:2725   */\n      swap1\n      pop\n        /* \"#utility.yul\":2735:2800   */\n      tag_275\n        /* \"#utility.yul\":2797:2798   */\n      0x00\n        /* \"#utility.yul\":2786:2795   */\n      dup4\n        /* \"#utility.yul\":2782:2799   */\n      add\n        /* \"#utility.yul\":2773:2779   */\n      dup5\n        /* \"#utility.yul\":2735:2800   */\n      tag_214\n      jump\t// in\n    tag_275:\n        /* \"#utility.yul\":2597:2807   */\n      swap3\n      swap2\n      pop\n      pop\n      jump\t// out\n        /* \"#utility.yul\":2813:2931   */\n    tag_215:\n        /* \"#utility.yul\":2850:2857   */\n      0x00\n        /* \"#utility.yul\":2890:2924   */\n      0xffffffffffffffffffffffffffffffff\n        /* \"#utility.yul\":2883:2888   */\n      dup3\n        /* \"#utility.yul\":2879:2925   */\n      and\n        /* \"#utility.yul\":2868:2925   */\n      swap1\n      pop\n        /* \"#utility.yul\":2813:2931   */\n      swap2\n      swap1\n      pop\n      jump\t// out\n        /* \"#utility.yul\":2937:3059   */\n    tag_216:\n        /* \"#utility.yul\":3010:3034   */\n      tag_278\n        /* \"#utility.yul\":3028:3033   */\n      dup2\n        /* \"#utility.yul\":3010:3034   */\n      tag_215\n      jump\t// in\n    tag_278:\n        /* \"#utility.yul\":3003:3008   */\n      dup2\n        /* \"#utility.yul\":3000:3035   */\n      eq\n        /* \"#utility.yul\":2990:3053   */\n      tag_279\n      jumpi\n        /* \"#utility.yul\":3049:3050   */\n      0x00\n        /* \"#utility.yul\":3046:3047   */\n      dup1\n        /* \"#utility.yul\":3039:3051   */\n      revert\n        /* \"#utility.yul\":2990:3053   */\n    tag_279:\n        /* \"#utility.yul\":2937:3059   */\n      pop\n      jump\t// out\n        /* \"#utility.yul\":3065:3204   */\n    tag_217:\n        /* \"#utility.yul\":3111:3116   */\n      0x00\n        /* \"#utility.yul\":3149:3155   */\n      dup2\n        /* \"#utility.yul\":3136:3156   */\n      calldataload\n        /* \"#utility.yul\":3127:3156   */\n      swap1\n      pop\n        /* \"#utility.yul\":3165:3198   */\n      tag_281\n        /* \"#utility.yul\":3192:3197   */\n      dup2\n        /* \"#utility.yul\":3165:3198   */\n      tag_216\n      jump\t// in\n    tag_281:\n        /* \"#utility.yul\":3065:3204   */\n      swap3\n      swap2\n      pop\n      pop\n      jump\t// out\n        /* \"#utility.yul\":3210:3684   */\n    tag_36:\n        /* \"#utility.yul\":3278:3284   */\n      0x00\n        /* \"#utility.yul\":3286:3292   */\n      dup1\n        /* \"#utility.yul\":3335:3337   */\n      0x40\n        /* \"#utility.yul\":3323:3332   */\n      dup4\n        /* \"#utility.yul\":3314:3321   */\n      dup6\n        /* \"#utility.yul\":3310:3333   */\n      sub\n        /* \"#utility.yul\":3306:3338   */\n      slt\n        /* \"#utility.yul\":3303:3422   */\n      iszero\n      tag_283\n      jumpi\n        /* \"#utility.yul\":3341:3420   */\n      tag_284\n      tag_201\n      jump\t// in\n    tag_284:\n        /* \"#utility.yul\":3303:3422   */\n    tag_283:\n        /* \"#utility.yul\":3461:3462   */\n      0x00\n        /* \"#utility.yul\":3486:3539   */\n      tag_285\n        /* \"#utility.yul\":3531:3538   */\n      dup6\n        /* \"#utility.yul\":3522:3528   */\n      dup3\n        /* \"#utility.yul\":3511:3520   */\n      dup7\n        /* \"#utility.yul\":3507:3529   */\n      add\n        /* \"#utility.yul\":3486:3539   */\n      tag_217\n      jump\t// in\n    tag_285:\n        /* \"#utility.yul\":3476:3539   */\n      swap3\n      pop\n        /* \"#utility.yul\":3432:3549   */\n      pop\n        /* \"#utility.yul\":3588:3590   */\n      0x20\n        /* \"#utility.yul\":3614:3667   */\n      tag_286\n        /* \"#utility.yul\":3659:3666   */\n      dup6\n        /* \"#utility.yul\":3650:3656   */\n      dup3\n        /* \"#utility.yul\":3639:3648   */\n      dup7\n        /* \"#utility.yul\":3635:3657   */\n      add\n        /* \"#utility.yul\":3614:3667   */\n      tag_217\n      jump\t// in\n    tag_286:\n        /* \"#utility.yul\":3604:3667   */\n      swap2\n      pop\n        /* \"#utility.yul\":3559:3677   */\n      pop\n        /* \"#utility.yul\":3210:3684   */\n      swap3\n      pop\n      swap3\n      swap1\n      pop\n      jump\t// out\n        /* \"#utility.yul\":3690:3808   */\n    tag_218:\n        /* \"#utility.yul\":3777:3801   */\n      tag_288\n        /* \"#utility.yul\":3795:3800   */\n      dup2\n        /* \"#utility.yul\":3777:3801   */\n      tag_210\n      jump\t// in\n    tag_288:\n        /* \"#utility.yul\":3772:3775   */\n      dup3\n        /* \"#utility.yul\":3765:3802   */\n      mstore\n        /* \"#utility.yul\":3690:3808   */\n      pop\n      pop\n      jump\t// out\n        /* \"#utility.yul\":3814:4036   */\n    tag_39:\n        /* \"#utility.yul\":3907:3911   */\n      0x00\n        /* \"#utility.yul\":3945:3947   */\n      0x20\n        /* \"#utility.yul\":3934:3943   */\n      dup3\n        /* \"#utility.yul\":3930:3948   */\n      add\n        /* \"#utility.yul\":3922:3948   */\n      swap1\n      pop\n        /* \"#utility.yul\":3958:4029   */\n      tag_290\n        /* \"#utility.yul\":4026:4027   */\n      0x00\n        /* \"#utility.yul\":4015:4024   */\n      dup4\n        /* \"#utility.yul\":4011:4028   */\n      add\n        /* \"#utility.yul\":4002:4008   */\n      dup5\n        /* \"#utility.yul\":3958:4029   */\n      tag_218\n      jump\t// in\n    tag_290:\n        /* \"#utility.yul\":3814:4036   */\n      swap3\n      swap2\n      pop\n      pop\n      jump\t// out\n        /* \"#utility.yul\":4042:4661   */\n    tag_49:\n        /* \"#utility.yul\":4119:4125   */\n      0x00\n        /* \"#utility.yul\":4127:4133   */\n      dup1\n        /* \"#utility.yul\":4135:4141   */\n      0x00\n        /* \"#utility.yul\":4184:4186   */\n      0x60\n        /* \"#utility.yul\":4172:4181   */\n      dup5\n        /* \"#utility.yul\":4163:4170   */\n      dup7\n        /* \"#utility.yul\":4159:4182   */\n      sub\n        /* \"#utility.yul\":4155:4187   */\n      slt\n        /* \"#utility.yul\":4152:4271   */\n      iszero\n      tag_292\n      jumpi\n        /* \"#utility.yul\":4190:4269   */\n      tag_293\n      tag_201\n      jump\t// in\n    tag_293:\n        /* \"#utility.yul\":4152:4271   */\n    tag_292:\n        /* \"#utility.yul\":4310:4311   */\n      0x00\n        /* \"#utility.yul\":4335:4388   */\n      tag_294\n        /* \"#utility.yul\":4380:4387   */\n      dup7\n        /* \"#utility.yul\":4371:4377   */\n      dup3\n        /* \"#utility.yul\":4360:4369   */\n      dup8\n        /* \"#utility.yul\":4356:4378   */\n      add\n        /* \"#utility.yul\":4335:4388   */\n      tag_209\n      jump\t// in\n    tag_294:\n        /* \"#utility.yul\":4325:4388   */\n      swap4\n      pop\n        /* \"#utility.yul\":4281:4398   */\n      pop\n        /* \"#utility.yul\":4437:4439   */\n      0x20\n        /* \"#utility.yul\":4463:4516   */\n      tag_295\n        /* \"#utility.yul\":4508:4515   */\n      dup7\n        /* \"#utility.yul\":4499:4505   */\n      dup3\n        /* \"#utility.yul\":4488:4497   */\n      dup8\n        /* \"#utility.yul\":4484:4506   */\n      add\n        /* \"#utility.yul\":4463:4516   */\n      tag_217\n      jump\t// in\n    tag_295:\n        /* \"#utility.yul\":4453:4516   */\n      swap3\n      pop\n        /* \"#utility.yul\":4408:4526   */\n      pop\n        /* \"#utility.yul\":4565:4567   */\n      0x40\n        /* \"#utility.yul\":4591:4644   */\n      tag_296\n        /* \"#utility.yul\":4636:4643   */\n      dup7\n        /* \"#utility.yul\":4627:4633   */\n      dup3\n        /* \"#utility.yul\":4616:4625   */\n      dup8\n        /* \"#utility.yul\":4612:4634   */\n      add\n        /* \"#utility.yul\":4591:4644   */\n      tag_217\n      jump\t// in\n    tag_296:\n        /* \"#utility.yul\":4581:4644   */\n      swap2\n      pop\n        /* \"#utility.yul\":4536:4654   */\n      pop\n        /* \"#utility.yul\":4042:4661   */\n      swap3\n      pop\n      swap3\n      pop\n      swap3\n      jump\t// out\n        /* \"#utility.yul\":4667:4847   */\n    tag_219:\n        /* \"#utility.yul\":4715:4792   */\n      0x4e487b7100000000000000000000000000000000000000000000000000000000\n        /* \"#utility.yul\":4712:4713   */\n      0x00\n        /* \"#utility.yul\":4705:4793   */\n      mstore\n        /* \"#utility.yul\":4812:4816   */\n      0x11\n        /* \"#utility.yul\":4809:4810   */\n      0x04\n        /* \"#utility.yul\":4802:4817   */\n      mstore\n        /* \"#utility.yul\":4836:4840   */\n      0x24\n        /* \"#utility.yul\":4833:4834   */\n      0x00\n        /* \"#utility.yul\":4826:4841   */\n      revert\n        /* \"#utility.yul\":4853:5044   */\n    tag_81:\n        /* \"#utility.yul\":4893:4897   */\n      0x00\n        /* \"#utility.yul\":4913:4933   */\n      tag_299\n        /* \"#utility.yul\":4931:4932   */\n      dup3\n        /* \"#utility.yul\":4913:4933   */\n      tag_210\n      jump\t// in\n    tag_299:\n        /* \"#utility.yul\":4908:4933   */\n      swap2\n      pop\n        /* \"#utility.yul\":4947:4967   */\n      tag_300\n        /* \"#utility.yul\":4965:4966   */\n      dup4\n        /* \"#utility.yul\":4947:4967   */\n      tag_210\n      jump\t// in\n    tag_300:\n        /* \"#utility.yul\":4942:4967   */\n      swap3\n      pop\n        /* \"#utility.yul\":4986:4987   */\n      dup3\n        /* \"#utility.yul\":4983:4984   */\n      dup3\n        /* \"#utility.yul\":4980:4988   */\n      lt\n        /* \"#utility.yul\":4977:5011   */\n      iszero\n      tag_301\n      jumpi\n        /* \"#utility.yul\":4991:5009   */\n      tag_302\n      tag_219\n      jump\t// in\n    tag_302:\n        /* \"#utility.yul\":4977:5011   */\n    tag_301:\n        /* \"#utility.yul\":5036:5037   */\n      dup3\n        /* \"#utility.yul\":5033:5034   */\n      dup3\n        /* \"#utility.yul\":5029:5038   */\n      sub\n        /* \"#utility.yul\":5021:5038   */\n      swap1\n      pop\n        /* \"#utility.yul\":4853:5044   */\n      swap3\n      swap2\n      pop\n      pop\n      jump\t// out\n        /* \"#utility.yul\":5050:5366   */\n    tag_85:\n        /* \"#utility.yul\":5090:5097   */\n      0x00\n        /* \"#utility.yul\":5113:5133   */\n      tag_304\n        /* \"#utility.yul\":5131:5132   */\n      dup3\n        /* \"#utility.yul\":5113:5133   */\n      tag_215\n      jump\t// in\n    tag_304:\n        /* \"#utility.yul\":5108:5133   */\n      swap2\n      pop\n        /* \"#utility.yul\":5147:5167   */\n      tag_305\n        /* \"#utility.yul\":5165:5166   */\n      dup4\n        /* \"#utility.yul\":5147:5167   */\n      tag_215\n      jump\t// in\n    tag_305:\n        /* \"#utility.yul\":5142:5167   */\n      swap3\n      pop\n        /* \"#utility.yul\":5303:5304   */\n      dup2\n        /* \"#utility.yul\":5267:5301   */\n      0xffffffffffffffffffffffffffffffff\n        /* \"#utility.yul\":5263:5305   */\n      div\n        /* \"#utility.yul\":5260:5261   */\n      dup4\n        /* \"#utility.yul\":5257:5306   */\n      gt\n        /* \"#utility.yul\":5252:5253   */\n      dup3\n        /* \"#utility.yul\":5245:5254   */\n      iszero\n        /* \"#utility.yul\":5238:5255   */\n      iszero\n        /* \"#utility.yul\":5234:5307   */\n      and\n        /* \"#utility.yul\":5231:5330   */\n      iszero\n      tag_306\n      jumpi\n        /* \"#utility.yul\":5310:5328   */\n      tag_307\n      tag_219\n      jump\t// in\n    tag_307:\n        /* \"#utility.yul\":5231:5330   */\n    tag_306:\n        /* \"#utility.yul\":5358:5359   */\n      dup3\n        /* \"#utility.yul\":5355:5356   */\n      dup3\n        /* \"#utility.yul\":5351:5360   */\n      mul\n        /* \"#utility.yul\":5340:5360   */\n      swap1\n      pop\n        /* \"#utility.yul\":5050:5366   */\n      swap3\n      swap2\n      pop\n      pop\n      jump\t// out\n        /* \"#utility.yul\":5372:5720   */\n    tag_109:\n        /* \"#utility.yul\":5412:5419   */\n      0x00\n        /* \"#utility.yul\":5435:5455   */\n      tag_309\n        /* \"#utility.yul\":5453:5454   */\n      dup3\n        /* \"#utility.yul\":5435:5455   */\n      tag_210\n      jump\t// in\n    tag_309:\n        /* \"#utility.yul\":5430:5455   */\n      swap2\n      pop\n        /* \"#utility.yul\":5469:5489   */\n      tag_310\n        /* \"#utility.yul\":5487:5488   */\n      dup4\n        /* \"#utility.yul\":5469:5489   */\n      tag_210\n      jump\t// in\n    tag_310:\n        /* \"#utility.yul\":5464:5489   */\n      swap3\n      pop\n        /* \"#utility.yul\":5657:5658   */\n      dup2\n        /* \"#utility.yul\":5589:5655   */\n      0xffffffffffffffffffffffffffffffffffffffffffffffffffffffffffffffff\n        /* \"#utility.yul\":5585:5659   */\n      div\n        /* \"#utility.yul\":5582:5583   */\n      dup4\n        /* \"#utility.yul\":5579:5660   */\n      gt\n        /* \"#utility.yul\":5574:5575   */\n      dup3\n        /* \"#utility.yul\":5567:5576   */\n      iszero\n        /* \"#utility.yul\":5560:5577   */\n      iszero\n        /* \"#utility.yul\":5556:5661   */\n      and\n        /* \"#utility.yul\":5553:5684   */\n      iszero\n      tag_311\n      jumpi\n        /* \"#utility.yul\":5664:5682   */\n      tag_312\n      tag_219\n      jump\t// in\n    tag_312:\n        /* \"#utility.yul\":5553:5684   */\n    tag_311:\n        /* \"#utility.yul\":5712:5713   */\n      dup3\n        /* \"#utility.yul\":5709:5710   */\n      dup3\n        /* \"#utility.yul\":5705:5714   */\n      mul\n        /* \"#utility.yul\":5694:5714   */\n      swap1\n      pop\n        /* \"#utility.yul\":5372:5720   */\n      swap3\n      swap2\n      pop\n      pop\n      jump\t// out\n        /* \"#utility.yul\":5726:5906   */\n    tag_220:\n        /* \"#utility.yul\":5774:5851   */\n      0x4e487b7100000000000000000000000000000000000000000000000000000000\n        /* \"#utility.yul\":5771:5772   */\n      0x00\n        /* \"#utility.yul\":5764:5852   */\n      mstore\n        /* \"#utility.yul\":5871:5875   */\n      0x12\n        /* \"#utility.yul\":5868:5869   */\n      0x04\n        /* \"#utility.yul\":5861:5876   */\n      mstore\n        /* \"#utility.yul\":5895:5899   */\n      0x24\n        /* \"#utility.yul\":5892:5893   */\n      0x00\n        /* \"#utility.yul\":5885:5900   */\n      revert\n        /* \"#utility.yul\":5912:6097   */\n    tag_111:\n        /* \"#utility.yul\":5952:5953   */\n      0x00\n        /* \"#utility.yul\":5969:5989   */\n      tag_315\n        /* \"#utility.yul\":5987:5988   */\n      dup3\n        /* \"#utility.yul\":5969:5989   */\n      tag_210\n      jump\t// in\n    tag_315:\n        /* \"#utility.yul\":5964:5989   */\n      swap2\n      pop\n        /* \"#utility.yul\":6003:6023   */\n      tag_316\n        /* \"#utility.yul\":6021:6022   */\n      dup4\n        /* \"#utility.yul\":6003:6023   */\n      tag_210\n      jump\t// in\n    tag_316:\n        /* \"#utility.yul\":5998:6023   */\n      swap3\n      pop\n        /* \"#utility.yul\":6042:6043   */\n      dup3\n        /* \"#utility.yul\":6032:6067   */\n      tag_317\n      jumpi\n        /* \"#utility.yul\":6047:6065   */\n      tag_318\n      tag_220\n      jump\t// in\n    tag_318:\n        /* \"#utility.yul\":6032:6067   */\n    tag_317:\n        /* \"#utility.yul\":6089:6090   */\n      dup3\n        /* \"#utility.yul\":6086:6087   */\n      dup3\n        /* \"#utility.yul\":6082:6091   */\n      div\n        /* \"#utility.yul\":6077:6091   */\n      swap1\n      pop\n        /* \"#utility.yul\":5912:6097   */\n      swap3\n      swap2\n      pop\n      pop\n      jump\t// out\n        /* \"#utility.yul\":6103:6286   */\n    tag_136:\n        /* \"#utility.yul\":6141:6144   */\n      0x00\n        /* \"#utility.yul\":6164:6187   */\n      tag_320\n        /* \"#utility.yul\":6181:6186   */\n      dup3\n        /* \"#utility.yul\":6164:6187   */\n      tag_203\n      jump\t// in\n    tag_320:\n        /* \"#utility.yul\":6155:6187   */\n      swap2\n      pop\n        /* \"#utility.yul\":6209:6227   */\n      0xffffffffffffffff\n        /* \"#utility.yul\":6202:6207   */\n      dup3\n        /* \"#utility.yul\":6199:6228   */\n      eq\n        /* \"#utility.yul\":6196:6251   */\n      iszero\n      tag_321\n      jumpi\n        /* \"#utility.yul\":6231:6249   */\n      tag_322\n      tag_219\n      jump\t// in\n    tag_322:\n        /* \"#utility.yul\":6196:6251   */\n    tag_321:\n        /* \"#utility.yul\":6278:6279   */\n      0x01\n        /* \"#utility.yul\":6271:6276   */\n      dup3\n        /* \"#utility.yul\":6267:6280   */\n      add\n        /* \"#utility.yul\":6260:6280   */\n      swap1\n      pop\n        /* \"#utility.yul\":6103:6286   */\n      swap2\n      swap1\n      pop\n      jump\t// out\n        /* \"#utility.yul\":6292:6410   */\n    tag_221:\n        /* \"#utility.yul\":6379:6403   */\n      tag_324\n        /* \"#utility.yul\":6397:6402   */\n      dup2\n        /* \"#utility.yul\":6379:6403   */\n      tag_207\n      jump\t// in\n    tag_324:\n        /* \"#utility.yul\":6374:6377   */\n      dup3\n        /* \"#utility.yul\":6367:6404   */\n      mstore\n        /* \"#utility.yul\":6292:6410   */\n      pop\n      pop\n      jump\t// out\n        /* \"#utility.yul\":6416:6858   */\n    tag_141:\n        /* \"#utility.yul\":6565:6569   */\n      0x00\n        /* \"#utility.yul\":6603:6605   */\n      0x60\n        /* \"#utility.yul\":6592:6601   */\n      dup3\n        /* \"#utility.yul\":6588:6606   */\n      add\n        /* \"#utility.yul\":6580:6606   */\n      swap1\n      pop\n        /* \"#utility.yul\":6616:6687   */\n      tag_326\n        /* \"#utility.yul\":6684:6685   */\n      0x00\n        /* \"#utility.yul\":6673:6682   */\n      dup4\n        /* \"#utility.yul\":6669:6686   */\n      add\n        /* \"#utility.yul\":6660:6666   */\n      dup7\n        /* \"#utility.yul\":6616:6687   */\n      tag_221\n      jump\t// in\n    tag_326:\n        /* \"#utility.yul\":6697:6769   */\n      tag_327\n        /* \"#utility.yul\":6765:6767   */\n      0x20\n        /* \"#utility.yul\":6754:6763   */\n      dup4\n        /* \"#utility.yul\":6750:6768   */\n      add\n        /* \"#utility.yul\":6741:6747   */\n      dup6\n        /* \"#utility.yul\":6697:6769   */\n      tag_221\n      jump\t// in\n    tag_327:\n        /* \"#utility.yul\":6779:6851   */\n      tag_328\n        /* \"#utility.yul\":6847:6849   */\n      0x40\n        /* \"#utility.yul\":6836:6845   */\n      dup4\n        /* \"#utility.yul\":6832:6850   */\n      add\n        /* \"#utility.yul\":6823:6829   */\n      dup5\n        /* \"#utility.yul\":6779:6851   */\n      tag_218\n      jump\t// in\n    tag_328:\n        /* \"#utility.yul\":6416:6858   */\n      swap5\n      swap4\n      pop\n      pop\n      pop\n      pop\n      jump\t// out\n        /* \"#utility.yul\":6864:7196   */\n    tag_159:\n        /* \"#utility.yul\":6985:6989   */\n      0x00\n        /* \"#utility.yul\":7023:7025   */\n      0x40\n        /* \"#utility.yul\":7012:7021   */\n      dup3\n        /* \"#utility.yul\":7008:7026   */\n      add\n        /* \"#utility.yul\":7000:7026   */\n      swap1\n      pop\n        /* \"#utility.yul\":7036:7107   */\n      tag_330\n        /* \"#utility.yul\":7104:7105   */\n      0x00\n        /* \"#utility.yul\":7093:7102   */\n      dup4\n        /* \"#utility.yul\":7089:7106   */\n      add\n        /* \"#utility.yul\":7080:7086   */\n      dup6\n        /* \"#utility.yul\":7036:7107   */\n      tag_221\n      jump\t// in\n    tag_330:\n        /* \"#utility.yul\":7117:7189   */\n      tag_331\n        /* \"#utility.yul\":7185:7187   */\n      0x20\n        /* \"#utility.yul\":7174:7183   */\n      dup4\n        /* \"#utility.yul\":7170:7188   */\n      add\n        /* \"#utility.yul\":7161:7167   */\n      dup5\n        /* \"#utility.yul\":7117:7189   */\n      tag_218\n      jump\t// in\n    tag_331:\n        /* \"#utility.yul\":6864:7196   */\n      swap4\n      swap3\n      pop\n      pop\n      pop\n      jump\t// out\n        /* \"#utility.yul\":7202:7318   */\n    tag_222:\n        /* \"#utility.yul\":7272:7293   */\n      tag_333\n        /* \"#utility.yul\":7287:7292   */\n      dup2\n        /* \"#utility.yul\":7272:7293   */\n      tag_213\n      jump\t// in\n    tag_333:\n        /* \"#utility.yul\":7265:7270   */\n      dup2\n        /* \"#utility.yul\":7262:7294   */\n      eq\n        /* \"#utility.yul\":7252:7312   */\n      tag_334\n      jumpi\n        /* \"#utility.yul\":7308:7309   */\n      0x00\n        /* \"#utility.yul\":7305:7306   */\n      dup1\n        /* \"#utility.yul\":7298:7310   */\n      revert\n        /* \"#utility.yul\":7252:7312   */\n    tag_334:\n        /* \"#utility.yul\":7202:7318   */\n      pop\n      jump\t// out\n        /* \"#utility.yul\":7324:7461   */\n    tag_223:\n        /* \"#utility.yul\":7378:7383   */\n      0x00\n        /* \"#utility.yul\":7409:7415   */\n      dup2\n        /* \"#utility.yul\":7403:7416   */\n      mload\n        /* \"#utility.yul\":7394:7416   */\n      swap1\n      pop\n        /* \"#utility.yul\":7425:7455   */\n      tag_336\n        /* \"#utility.yul\":7449:7454   */\n      dup2\n        /* \"#utility.yul\":7425:7455   */\n      tag_222\n      jump\t// in\n    tag_336:\n        /* \"#utility.yul\":7324:7461   */\n      swap3\n      swap2\n      pop\n      pop\n      jump\t// out\n        /* \"#utility.yul\":7467:7812   */\n    tag_165:\n        /* \"#utility.yul\":7534:7540   */\n      0x00\n        /* \"#utility.yul\":7583:7585   */\n      0x20\n        /* \"#utility.yul\":7571:7580   */\n      dup3\n        /* \"#utility.yul\":7562:7569   */\n      dup5\n        /* \"#utility.yul\":7558:7581   */\n      sub\n        /* \"#utility.yul\":7554:7586   */\n      slt\n        /* \"#utility.yul\":7551:7670   */\n      iszero\n      tag_338\n      jumpi\n        /* \"#utility.yul\":7589:7668   */\n      tag_339\n      tag_201\n      jump\t// in\n    tag_339:\n        /* \"#utility.yul\":7551:7670   */\n    tag_338:\n        /* \"#utility.yul\":7709:7710   */\n      0x00\n        /* \"#utility.yul\":7734:7795   */\n      tag_340\n        /* \"#utility.yul\":7787:7794   */\n      dup5\n        /* \"#utility.yul\":7778:7784   */\n      dup3\n        /* \"#utility.yul\":7767:7776   */\n      dup6\n        /* \"#utility.yul\":7763:7785   */\n      add\n        /* \"#utility.yul\":7734:7795   */\n      tag_223\n      jump\t// in\n    tag_340:\n        /* \"#utility.yul\":7724:7795   */\n      swap2\n      pop\n        /* \"#utility.yul\":7680:7805   */\n      pop\n        /* \"#utility.yul\":7467:7812   */\n      swap3\n      swap2\n      pop\n      pop\n      jump\t// out\n        /* \"#utility.yul\":7818:7987   */\n    tag_224:\n        /* \"#utility.yul\":7902:7913   */\n      0x00\n        /* \"#utility.yul\":7936:7942   */\n      dup3\n        /* \"#utility.yul\":7931:7934   */\n      dup3\n        /* \"#utility.yul\":7924:7943   */\n      mstore\n        /* \"#utility.yul\":7976:7980   */\n      0x20\n        /* \"#utility.yul\":7971:7974   */\n      dup3\n        /* \"#utility.yul\":7967:7981   */\n      add\n        /* \"#utility.yul\":7952:7981   */\n      swap1\n      pop\n        /* \"#utility.yul\":7818:7987   */\n      swap3\n      swap2\n      pop\n      pop\n      jump\t// out\n        /* \"#utility.yul\":7993:8222   */\n    tag_225:\n        /* \"#utility.yul\":8133:8167   */\n      0x5361666545524332303a204552433230206f7065726174696f6e20646964206e\n        /* \"#utility.yul\":8129:8130   */\n      0x00\n        /* \"#utility.yul\":8121:8127   */\n      dup3\n        /* \"#utility.yul\":8117:8131   */\n      add\n        /* \"#utility.yul\":8110:8168   */\n      mstore\n        /* \"#utility.yul\":8202:8214   */\n      0x6f74207375636365656400000000000000000000000000000000000000000000\n        /* \"#utility.yul\":8197:8199   */\n      0x20\n        /* \"#utility.yul\":8189:8195   */\n      dup3\n        /* \"#utility.yul\":8185:8200   */\n      add\n        /* \"#utility.yul\":8178:8215   */\n      mstore\n        /* \"#utility.yul\":7993:8222   */\n      pop\n      jump\t// out\n        /* \"#utility.yul\":8228:8594   */\n    tag_226:\n        /* \"#utility.yul\":8370:8373   */\n      0x00\n        /* \"#utility.yul\":8391:8458   */\n      tag_344\n        /* \"#utility.yul\":8455:8457   */\n      0x2a\n        /* \"#utility.yul\":8450:8453   */\n      dup4\n        /* \"#utility.yul\":8391:8458   */\n      tag_224\n      jump\t// in\n    tag_344:\n        /* \"#utility.yul\":8384:8458   */\n      swap2\n      pop\n        /* \"#utility.yul\":8467:8560   */\n      tag_345\n        /* \"#utility.yul\":8556:8559   */\n      dup3\n        /* \"#utility.yul\":8467:8560   */\n      tag_225\n      jump\t// in\n    tag_345:\n        /* \"#utility.yul\":8585:8587   */\n      0x40\n        /* \"#utility.yul\":8580:8583   */\n      dup3\n        /* \"#utility.yul\":8576:8588   */\n      add\n        /* \"#utility.yul\":8569:8588   */\n      swap1\n      pop\n        /* \"#utility.yul\":8228:8594   */\n      swap2\n      swap1\n      pop\n      jump\t// out\n        /* \"#utility.yul\":8600:9019   */\n    tag_168:\n        /* \"#utility.yul\":8766:8770   */\n      0x00\n        /* \"#utility.yul\":8804:8806   */\n      0x20\n        /* \"#utility.yul\":8793:8802   */\n      dup3\n        /* \"#utility.yul\":8789:8807   */\n      add\n        /* \"#utility.yul\":8781:8807   */\n      swap1\n      pop\n        /* \"#utility.yul\":8853:8862   */\n      dup2\n        /* \"#utility.yul\":8847:8851   */\n      dup2\n        /* \"#utility.yul\":8843:8863   */\n      sub\n        /* \"#utility.yul\":8839:8840   */\n      0x00\n        /* \"#utility.yul\":8828:8837   */\n      dup4\n        /* \"#utility.yul\":8824:8841   */\n      add\n        /* \"#utility.yul\":8817:8864   */\n      mstore\n        /* \"#utility.yul\":8881:9012   */\n      tag_347\n        /* \"#utility.yul\":9007:9011   */\n      dup2\n        /* \"#utility.yul\":8881:9012   */\n      tag_226\n      jump\t// in\n    tag_347:\n        /* \"#utility.yul\":8873:9012   */\n      swap1\n      pop\n        /* \"#utility.yul\":8600:9019   */\n      swap2\n      swap1\n      pop\n      jump\t// out\n        /* \"#utility.yul\":9025:9250   */\n    tag_227:\n        /* \"#utility.yul\":9165:9199   */\n      0x416464726573733a20696e73756666696369656e742062616c616e636520666f\n        /* \"#utility.yul\":9161:9162   */\n      0x00\n        /* \"#utility.yul\":9153:9159   */\n      dup3\n        /* \"#utility.yul\":9149:9163   */\n      add\n        /* \"#utility.yul\":9142:9200   */\n      mstore\n        /* \"#utility.yul\":9234:9242   */\n      0x722063616c6c0000000000000000000000000000000000000000000000000000\n        /* \"#utility.yul\":9229:9231   */\n      0x20\n        /* \"#utility.yul\":9221:9227   */\n      dup3\n        /* \"#utility.yul\":9217:9232   */\n      add\n        /* \"#utility.yul\":9210:9243   */\n      mstore\n        /* \"#utility.yul\":9025:9250   */\n      pop\n      jump\t// out\n        /* \"#utility.yul\":9256:9622   */\n    tag_228:\n        /* \"#utility.yul\":9398:9401   */\n      0x00\n        /* \"#utility.yul\":9419:9486   */\n      tag_350\n        /* \"#utility.yul\":9483:9485   */\n      0x26\n        /* \"#utility.yul\":9478:9481   */\n      dup4\n        /* \"#utility.yul\":9419:9486   */\n      tag_224\n      jump\t// in\n    tag_350:\n        /* \"#utility.yul\":9412:9486   */\n      swap2\n      pop\n        /* \"#utility.yul\":9495:9588   */\n      tag_351\n        /* \"#utility.yul\":9584:9587   */\n      dup3\n        /* \"#utility.yul\":9495:9588   */\n      tag_227\n      jump\t// in\n    tag_351:\n        /* \"#utility.yul\":9613:9615   */\n      0x40\n        /* \"#utility.yul\":9608:9611   */\n      dup3\n        /* \"#utility.yul\":9604:9616   */\n      add\n        /* \"#utility.yul\":9597:9616   */\n      swap1\n      pop\n        /* \"#utility.yul\":9256:9622   */\n      swap2\n      swap1\n      pop\n      jump\t// out\n        /* \"#utility.yul\":9628:10047   */\n    tag_175:\n        /* \"#utility.yul\":9794:9798   */\n      0x00\n        /* \"#utility.yul\":9832:9834   */\n      0x20\n        /* \"#utility.yul\":9821:9830   */\n      dup3\n        /* \"#utility.yul\":9817:9835   */\n      add\n        /* \"#utility.yul\":9809:9835   */\n      swap1\n      pop\n        /* \"#utility.yul\":9881:9890   */\n      dup2\n        /* \"#utility.yul\":9875:9879   */\n      dup2\n        /* \"#utility.yul\":9871:9891   */\n      sub\n        /* \"#utility.yul\":9867:9868   */\n      0x00\n        /* \"#utility.yul\":9856:9865   */\n      dup4\n        /* \"#utility.yul\":9852:9869   */\n      add\n        /* \"#utility.yul\":9845:9892   */\n      mstore\n        /* \"#utility.yul\":9909:10040   */\n      tag_353\n        /* \"#utility.yul\":10035:10039   */\n      dup2\n        /* \"#utility.yul\":9909:10040   */\n      tag_228\n      jump\t// in\n    tag_353:\n        /* \"#utility.yul\":9901:10040   */\n      swap1\n      pop\n        /* \"#utility.yul\":9628:10047   */\n      swap2\n      swap1\n      pop\n      jump\t// out\n        /* \"#utility.yul\":10053:10151   */\n    tag_229:\n        /* \"#utility.yul\":10104:10110   */\n      0x00\n        /* \"#utility.yul\":10138:10143   */\n      dup2\n        /* \"#utility.yul\":10132:10144   */\n      mload\n        /* \"#utility.yul\":10122:10144   */\n      swap1\n      pop\n        /* \"#utility.yul\":10053:10151   */\n      swap2\n      swap1\n      pop\n      jump\t// out\n        /* \"#utility.yul\":10157:10304   */\n    tag_230:\n        /* \"#utility.yul\":10258:10269   */\n      0x00\n        /* \"#utility.yul\":10295:10298   */\n      dup2\n        /* \"#utility.yul\":10280:10298   */\n      swap1\n      pop\n        /* \"#utility.yul\":10157:10304   */\n      swap3\n      swap2\n      pop\n      pop\n      jump\t// out\n        /* \"#utility.yul\":10310:10617   */\n    tag_231:\n        /* \"#utility.yul\":10378:10379   */\n      0x00\n        /* \"#utility.yul\":10388:10501   */\n    tag_357:\n        /* \"#utility.yul\":10402:10408   */\n      dup4\n        /* \"#utility.yul\":10399:10400   */\n      dup2\n        /* \"#utility.yul\":10396:10409   */\n      lt\n        /* \"#utility.yul\":10388:10501   */\n      iszero\n      tag_359\n      jumpi\n        /* \"#utility.yul\":10487:10488   */\n      dup1\n        /* \"#utility.yul\":10482:10485   */\n      dup3\n        /* \"#utility.yul\":10478:10489   */\n      add\n        /* \"#utility.yul\":10472:10490   */\n      mload\n        /* \"#utility.yul\":10468:10469   */\n      dup2\n        /* \"#utility.yul\":10463:10466   */\n      dup5\n        /* \"#utility.yul\":10459:10470   */\n      add\n        /* \"#utility.yul\":10452:10491   */\n      mstore\n        /* \"#utility.yul\":10424:10426   */\n      0x20\n        /* \"#utility.yul\":10421:10422   */\n      dup2\n        /* \"#utility.yul\":10417:10427   */\n      add\n        /* \"#utility.yul\":10412:10427   */\n      swap1\n      pop\n        /* \"#utility.yul\":10388:10501   */\n      jump(tag_357)\n    tag_359:\n        /* \"#utility.yul\":10519:10525   */\n      dup4\n        /* \"#utility.yul\":10516:10517   */\n      dup2\n        /* \"#utility.yul\":10513:10526   */\n      gt\n        /* \"#utility.yul\":10510:10611   */\n      iszero\n      tag_360\n      jumpi\n        /* \"#utility.yul\":10599:10600   */\n      0x00\n        /* \"#utility.yul\":10590:10596   */\n      dup5\n        /* \"#utility.yul\":10585:10588   */\n      dup5\n        /* \"#utility.yul\":10581:10597   */\n      add\n        /* \"#utility.yul\":10574:10601   */\n      mstore\n        /* \"#utility.yul\":10510:10611   */\n    tag_360:\n        /* \"#utility.yul\":10359:10617   */\n      pop\n        /* \"#utility.yul\":10310:10617   */\n      pop\n      pop\n      pop\n      jump\t// out\n        /* \"#utility.yul\":10623:10996   */\n    tag_232:\n        /* \"#utility.yul\":10727:10730   */\n      0x00\n        /* \"#utility.yul\":10755:10793   */\n      tag_362\n        /* \"#utility.yul\":10787:10792   */\n      dup3\n        /* \"#utility.yul\":10755:10793   */\n      tag_229\n      jump\t// in\n    tag_362:\n        /* \"#utility.yul\":10809:10897   */\n      tag_363\n        /* \"#utility.yul\":10890:10896   */\n      dup2\n        /* \"#utility.yul\":10885:10888   */\n      dup6\n        /* \"#utility.yul\":10809:10897   */\n      tag_230\n      jump\t// in\n    tag_363:\n        /* \"#utility.yul\":10802:10897   */\n      swap4\n      pop\n        /* \"#utility.yul\":10906:10958   */\n      tag_364\n        /* \"#utility.yul\":10951:10957   */\n      dup2\n        /* \"#utility.yul\":10946:10949   */\n      dup6\n        /* \"#utility.yul\":10939:10943   */\n      0x20\n        /* \"#utility.yul\":10932:10937   */\n      dup7\n        /* \"#utility.yul\":10928:10944   */\n      add\n        /* \"#utility.yul\":10906:10958   */\n      tag_231\n      jump\t// in\n    tag_364:\n        /* \"#utility.yul\":10983:10989   */\n      dup1\n        /* \"#utility.yul\":10978:10981   */\n      dup5\n        /* \"#utility.yul\":10974:10990   */\n      add\n        /* \"#utility.yul\":10967:10990   */\n      swap2\n      pop\n        /* \"#utility.yul\":10731:10996   */\n      pop\n        /* \"#utility.yul\":10623:10996   */\n      swap3\n      swap2\n      pop\n      pop\n      jump\t// out\n        /* \"#utility.yul\":11002:11273   */\n    tag_177:\n        /* \"#utility.yul\":11132:11135   */\n      0x00\n        /* \"#utility.yul\":11154:11247   */\n      tag_366\n        /* \"#utility.yul\":11243:11246   */\n      dup3\n        /* \"#utility.yul\":11234:11240   */\n      dup5\n        /* \"#utility.yul\":11154:11247   */\n      tag_232\n      jump\t// in\n    tag_366:\n        /* \"#utility.yul\":11147:11247   */\n      swap2\n      pop\n        /* \"#utility.yul\":11264:11267   */\n      dup2\n        /* \"#utility.yul\":11257:11267   */\n      swap1\n      pop\n        /* \"#utility.yul\":11002:11273   */\n      swap3\n      swap2\n      pop\n      pop\n      jump\t// out\n        /* \"#utility.yul\":11279:11458   */\n    tag_233:\n        /* \"#utility.yul\":11419:11450   */\n      0x416464726573733a2063616c6c20746f206e6f6e2d636f6e7472616374000000\n        /* \"#utility.yul\":11415:11416   */\n      0x00\n        /* \"#utility.yul\":11407:11413   */\n      dup3\n        /* \"#utility.yul\":11403:11417   */\n      add\n        /* \"#utility.yul\":11396:11451   */\n      mstore\n        /* \"#utility.yul\":11279:11458   */\n      pop\n      jump\t// out\n        /* \"#utility.yul\":11464:11830   */\n    tag_234:\n        /* \"#utility.yul\":11606:11609   */\n      0x00\n        /* \"#utility.yul\":11627:11694   */\n      tag_369\n        /* \"#utility.yul\":11691:11693   */\n      0x1d\n        /* \"#utility.yul\":11686:11689   */\n      dup4\n        /* \"#utility.yul\":11627:11694   */\n      tag_224\n      jump\t// in\n    tag_369:\n        /* \"#utility.yul\":11620:11694   */\n      swap2\n      pop\n        /* \"#utility.yul\":11703:11796   */\n      tag_370\n        /* \"#utility.yul\":11792:11795   */\n      dup3\n        /* \"#utility.yul\":11703:11796   */\n      tag_233\n      jump\t// in\n    tag_370:\n        /* \"#utility.yul\":11821:11823   */\n      0x20\n        /* \"#utility.yul\":11816:11819   */\n      dup3\n        /* \"#utility.yul\":11812:11824   */\n      add\n        /* \"#utility.yul\":11805:11824   */\n      swap1\n      pop\n        /* \"#utility.yul\":11464:11830   */\n      swap2\n      swap1\n      pop\n      jump\t// out\n        /* \"#utility.yul\":11836:12255   */\n    tag_190:\n        /* \"#utility.yul\":12002:12006   */\n      0x00\n        /* \"#utility.yul\":12040:12042   */\n      0x20\n        /* \"#utility.yul\":12029:12038   */\n      dup3\n        /* \"#utility.yul\":12025:12043   */\n      add\n        /* \"#utility.yul\":12017:12043   */\n      swap1\n      pop\n        /* \"#utility.yul\":12089:12098   */\n      dup2\n        /* \"#utility.yul\":12083:12087   */\n      dup2\n        /* \"#utility.yul\":12079:12099   */\n      sub\n        /* \"#utility.yul\":12075:12076   */\n      0x00\n        /* \"#utility.yul\":12064:12073   */\n      dup4\n        /* \"#utility.yul\":12060:12077   */\n      add\n        /* \"#utility.yul\":12053:12100   */\n      mstore\n        /* \"#utility.yul\":12117:12248   */\n      tag_372\n        /* \"#utility.yul\":12243:12247   */\n      dup2\n        /* \"#utility.yul\":12117:12248   */\n      tag_234\n      jump\t// in\n    tag_372:\n        /* \"#utility.yul\":12109:12248   */\n      swap1\n      pop\n        /* \"#utility.yul\":11836:12255   */\n      swap2\n      swap1\n      pop\n      jump\t// out\n        /* \"#utility.yul\":12261:12360   */\n    tag_235:\n        /* \"#utility.yul\":12313:12319   */\n      0x00\n        /* \"#utility.yul\":12347:12352   */\n      dup2\n        /* \"#utility.yul\":12341:12353   */\n      mload\n        /* \"#utility.yul\":12331:12353   */\n      swap1\n      pop\n        /* \"#utility.yul\":12261:12360   */\n      swap2\n      swap1\n      pop\n      jump\t// out\n        /* \"#utility.yul\":12366:12468   */\n    tag_236:\n        /* \"#utility.yul\":12407:12413   */\n      0x00\n        /* \"#utility.yul\":12458:12460   */\n      0x1f\n        /* \"#utility.yul\":12454:12461   */\n      not\n        /* \"#utility.yul\":12449:12451   */\n      0x1f\n        /* \"#utility.yul\":12442:12447   */\n      dup4\n        /* \"#utility.yul\":12438:12452   */\n      add\n        /* \"#utility.yul\":12434:12462   */\n      and\n        /* \"#utility.yul\":12424:12462   */\n      swap1\n      pop\n        /* \"#utility.yul\":12366:12468   */\n      swap2\n      swap1\n      pop\n      jump\t// out\n        /* \"#utility.yul\":12474:12838   */\n    tag_237:\n        /* \"#utility.yul\":12562:12565   */\n      0x00\n        /* \"#utility.yul\":12590:12629   */\n      tag_376\n        /* \"#utility.yul\":12623:12628   */\n      dup3\n        /* \"#utility.yul\":12590:12629   */\n      tag_235\n      jump\t// in\n    tag_376:\n        /* \"#utility.yul\":12645:12716   */\n      tag_377\n        /* \"#utility.yul\":12709:12715   */\n      dup2\n        /* \"#utility.yul\":12704:12707   */\n      dup6\n        /* \"#utility.yul\":12645:12716   */\n      tag_224\n      jump\t// in\n    tag_377:\n        /* \"#utility.yul\":12638:12716   */\n      swap4\n      pop\n        /* \"#utility.yul\":12725:12777   */\n      tag_378\n        /* \"#utility.yul\":12770:12776   */\n      dup2\n        /* \"#utility.yul\":12765:12768   */\n      dup6\n        /* \"#utility.yul\":12758:12762   */\n      0x20\n        /* \"#utility.yul\":12751:12756   */\n      dup7\n        /* \"#utility.yul\":12747:12763   */\n      add\n        /* \"#utility.yul\":12725:12777   */\n      tag_231\n      jump\t// in\n    tag_378:\n        /* \"#utility.yul\":12802:12831   */\n      tag_379\n        /* \"#utility.yul\":12824:12830   */\n      dup2\n        /* \"#utility.yul\":12802:12831   */\n      tag_236\n      jump\t// in\n    tag_379:\n        /* \"#utility.yul\":12797:12800   */\n      dup5\n        /* \"#utility.yul\":12793:12832   */\n      add\n        /* \"#utility.yul\":12786:12832   */\n      swap2\n      pop\n        /* \"#utility.yul\":12566:12838   */\n      pop\n        /* \"#utility.yul\":12474:12838   */\n      swap3\n      swap2\n      pop\n      pop\n      jump\t// out\n        /* \"#utility.yul\":12844:13157   */\n    tag_199:\n        /* \"#utility.yul\":12957:12961   */\n      0x00\n        /* \"#utility.yul\":12995:12997   */\n      0x20\n        /* \"#utility.yul\":12984:12993   */\n      dup3\n        /* \"#utility.yul\":12980:12998   */\n      add\n        /* \"#utility.yul\":12972:12998   */\n      swap1\n      pop\n        /* \"#utility.yul\":13044:13053   */\n      dup2\n        /* \"#utility.yul\":13038:13042   */\n      dup2\n        /* \"#utility.yul\":13034:13054   */\n      sub\n        /* \"#utility.yul\":13030:13031   */\n      0x00\n        /* \"#utility.yul\":13019:13028   */\n      dup4\n        /* \"#utility.yul\":13015:13032   */\n      add\n        /* \"#utility.yul\":13008:13055   */\n      mstore\n        /* \"#utility.yul\":13072:13150   */\n      tag_381\n        /* \"#utility.yul\":13145:13149   */\n      dup2\n        /* \"#utility.yul\":13136:13142   */\n      dup5\n        /* \"#utility.yul\":13072:13150   */\n      tag_237\n      jump\t// in\n    tag_381:\n        /* \"#utility.yul\":13064:13150   */\n      swap1\n      pop\n        /* \"#utility.yul\":12844:13157   */\n      swap3\n      swap2\n      pop\n      pop\n      jump\t// out\n\n    auxdata: 0xa2646970667358221220fb40853da6b16a3af4af5e68d4c9402a880d0e5f80a99f7530f6e39845aad83c64736f6c63430008090033\n}\n",
				"bytecode": {
					"linkReferences": {},
					"object": "60806040523480156200001157600080fd5b50604051620028323803806200283283398181016040528101906200003791906200014b565b81600160006101000a81548173ffffffffffffffffffffffffffffffffffffffff021916908373ffffffffffffffffffffffffffffffffffffffff160217905550806000806101000a81548166ffffffffffffff021916908366ffffffffffffff160217905550505062000192565b600080fd5b600073ffffffffffffffffffffffffffffffffffffffff82169050919050565b6000620000d882620000ab565b9050919050565b620000ea81620000cb565b8114620000f657600080fd5b50565b6000815190506200010a81620000df565b92915050565b6000819050919050565b620001258162000110565b81146200013157600080fd5b50565b60008151905062000145816200011a565b92915050565b60008060408385031215620001655762000164620000a6565b5b60006200017585828601620000f9565b9250506020620001888582860162000134565b9150509250929050565b61269080620001a26000396000f3fe608060405234801561001057600080fd5b50600436106100a95760003560e01c806398c50fdd1161007157806398c50fdd1461014e578063b8d7f9801461017e578063c0102de4146101ae578063d14485a2146101ca578063df0905c6146101e6578063fc993ea814610216576100a9565b806325ac3a73146100ae5780632895cb7b146100ca57806359de2f60146100e6578063762e9d301461011657806377bcd8a614610132575b600080fd5b6100c860048036038101906100c39190611f15565b610246565b005b6100e460048036038101906100df9190611f15565b6104c3565b005b61010060048036038101906100fb9190611fd6565b610a64565b60405161010d9190612031565b60405180910390f35b610130600480360381019061012b9190611f15565b610a93565b005b61014c60048036038101906101479190611f15565b610dea565b005b61016860048036038101906101639190612094565b6111c3565b60405161017591906120e3565b60405180910390f35b61019860048036038101906101939190611fd6565b6112e0565b6040516101a59190612031565b60405180910390f35b6101c860048036038101906101c39190611f15565b61130f565b005b6101e460048036038101906101df91906120fe565b6115b7565b005b61020060048036038101906101fb9190611fd6565b61197e565b60405161020d9190612031565b60405180910390f35b610230600480360381019061022b9190611fd6565b6119ad565b60405161023d9190612031565b60405180910390f35b6000600360003373ffffffffffffffffffffffffffffffffffffffff1673ffffffffffffffffffffffffffffffffffffffff16815260200190815260200160002060008367ffffffffffffffff16815260200190815260200160002060006101000a81548160ff0219169083151502179055156102ef576040517f4232716900000000000000000000000000000000000000000000000000000000815260040160405180910390fd5b3373ffffffffffffffffffffffffffffffffffffffff1661030f826119dc565b73ffffffffffffffffffffffffffffffffffffffff161461035c576040517fd7c498bf00000000000000000000000000000000000000000000000000000000815260040160405180910390fd5b6000600260008367ffffffffffffffff1667ffffffffffffffff16815260200190815260200160002060000160109054906101000a90046fffffffffffffffffffffffffffffffff166fffffffffffffffffffffffffffffffff169050610408333083600160009054906101000a900473ffffffffffffffffffffffffffffffffffffffff1673ffffffffffffffffffffffffffffffffffffffff16611a30909392919063ffffffff16565b6001600360003373ffffffffffffffffffffffffffffffffffffffff1673ffffffffffffffffffffffffffffffffffffffff16815260200190815260200160002060008467ffffffffffffffff16815260200190815260200160002060006101000a81548160ff0219169083151502179055506003600260008467ffffffffffffffff1667ffffffffffffffff16815260200190815260200160002060000160006101000a81548160ff021916908360ff1602179055505050565b60006104ce82611ab9565b905060006104db836119dc565b90508173ffffffffffffffffffffffffffffffffffffffff163373ffffffffffffffffffffffffffffffffffffffff161461051557600080fd5b60001515600360008373ffffffffffffffffffffffffffffffffffffffff1673ffffffffffffffffffffffffffffffffffffffff16815260200190815260200160002060008567ffffffffffffffff16815260200190815260200160002060009054906101000a900460ff1615151461058d57600080fd5b60001515600660003373ffffffffffffffffffffffffffffffffffffffff1673ffffffffffffffffffffffffffffffffffffffff16815260200190815260200160002060008567ffffffffffffffff16815260200190815260200160002060009054906101000a900460ff1615151461060557600080fd5b8173ffffffffffffffffffffffffffffffffffffffff163373ffffffffffffffffffffffffffffffffffffffff161461063d57600080fd5b6000600260008567ffffffffffffffff1667ffffffffffffffff16815260200190815260200160002060020160009054906101000a900473ffffffffffffffffffffffffffffffffffffffff1690506000610724600260008767ffffffffffffffff1667ffffffffffffffff16815260200190815260200160002060010160009054906101000a90046fffffffffffffffffffffffffffffffff16600260008867ffffffffffffffff1667ffffffffffffffff16815260200190815260200160002060000160109054906101000a90046fffffffffffffffffffffffffffffffff166111c3565b9050600061073182611b0d565b905061075e30828573ffffffffffffffffffffffffffffffffffffffff16611bb49092919063ffffffff16565b61079485828461076e9190612180565b8573ffffffffffffffffffffffffffffffffffffffff16611bb49092919063ffffffff16565b6001600660003373ffffffffffffffffffffffffffffffffffffffff1673ffffffffffffffffffffffffffffffffffffffff16815260200190815260200160002060008867ffffffffffffffff16815260200190815260200160002060006101000a81548160ff0219169083151502179055506001600260008867ffffffffffffffff1667ffffffffffffffff16815260200190815260200160002060000160009054906101000a900460ff1660ff161415610a185760001515600760003373ffffffffffffffffffffffffffffffffffffffff1673ffffffffffffffffffffffffffffffffffffffff16815260200190815260200160002060008867ffffffffffffffff16815260200190815260200160002060009054906101000a900460ff161515146108c257600080fd5b6000600260008867ffffffffffffffff1667ffffffffffffffff16815260200190815260200160002060000160109054906101000a90046fffffffffffffffffffffffffffffffff16600260008967ffffffffffffffff1667ffffffffffffffff16815260200190815260200160002060010160009054906101000a90046fffffffffffffffffffffffffffffffff1661095c91906121b4565b6fffffffffffffffffffffffffffffffff1690506109a361097c88611ab9565b828673ffffffffffffffffffffffffffffffffffffffff16611bb49092919063ffffffff16565b6001600760003373ffffffffffffffffffffffffffffffffffffffff1673ffffffffffffffffffffffffffffffffffffffff16815260200190815260200160002060008967ffffffffffffffff16815260200190815260200160002060006101000a81548160ff021916908315150217905550505b6005600260008867ffffffffffffffff1667ffffffffffffffff16815260200190815260200160002060000160006101000a81548160ff021916908360ff160217905550505050505050565b60046020528160005260406000206020528060005260406000206000915091509054906101000a900460ff1681565b6000600260008367ffffffffffffffff1667ffffffffffffffff168152602001908152602001600020604051806101000160405290816000820160009054906101000a900460ff1660ff1660ff1681526020016000820160019054906101000a900467ffffffffffffffff1667ffffffffffffffff1667ffffffffffffffff1681526020016000820160099054906101000a900466ffffffffffffff1666ffffffffffffff1666ffffffffffffff1681526020016000820160109054906101000a90046fffffffffffffffffffffffffffffffff166fffffffffffffffffffffffffffffffff166fffffffffffffffffffffffffffffffff1681526020016001820160009054906101000a90046fffffffffffffffffffffffffffffffff166fffffffffffffffffffffffffffffffff166fffffffffffffffffffffffffffffffff1681526020016002820160009054906101000a900473ffffffffffffffffffffffffffffffffffffffff1673ffffffffffffffffffffffffffffffffffffffff1673ffffffffffffffffffffffffffffffffffffffff1681526020016003820160009054906101000a900473ffffffffffffffffffffffffffffffffffffffff1673ffffffffffffffffffffffffffffffffffffffff1673ffffffffffffffffffffffffffffffffffffffff1681526020016004820160009054906101000a900473ffffffffffffffffffffffffffffffffffffffff1673ffffffffffffffffffffffffffffffffffffffff1673ffffffffffffffffffffffffffffffffffffffff168152505090506001816000015160ff1614610cf257600080fd5b60008160a001519050610d393330610d12856080015186606001516111c3565b8473ffffffffffffffffffffffffffffffffffffffff16611a30909392919063ffffffff16565b33600260008567ffffffffffffffff1667ffffffffffffffff16815260200190815260200160002060040160006101000a81548173ffffffffffffffffffffffffffffffffffffffff021916908373ffffffffffffffffffffffffffffffffffffffff16021790555060028060008567ffffffffffffffff1667ffffffffffffffff16815260200190815260200160002060000160006101000a81548160ff021916908360ff160217905550505050565b6000610df5826119dc565b90508073ffffffffffffffffffffffffffffffffffffffff163373ffffffffffffffffffffffffffffffffffffffff1614610e2f57600080fd5b600360008273ffffffffffffffffffffffffffffffffffffffff1673ffffffffffffffffffffffffffffffffffffffff16815260200190815260200160002060008367ffffffffffffffff16815260200190815260200160002060009054906101000a900460ff16610ea057600080fd5b60001515600560003373ffffffffffffffffffffffffffffffffffffffff1673ffffffffffffffffffffffffffffffffffffffff16815260200190815260200160002060008467ffffffffffffffff16815260200190815260200160002060009054906101000a900460ff16151514610f1857600080fd5b6000600260008467ffffffffffffffff1667ffffffffffffffff16815260200190815260200160002060020160009054906101000a900473ffffffffffffffffffffffffffffffffffffffff1690506000600260008567ffffffffffffffff1667ffffffffffffffff16815260200190815260200160002060000160109054906101000a90046fffffffffffffffffffffffffffffffff16600260008667ffffffffffffffff1667ffffffffffffffff16815260200190815260200160002060010160009054906101000a90046fffffffffffffffffffffffffffffffff1661100191906121b4565b6fffffffffffffffffffffffffffffffff16905060006110ad600260008767ffffffffffffffff1667ffffffffffffffff16815260200190815260200160002060010160009054906101000a90046fffffffffffffffffffffffffffffffff16600260008867ffffffffffffffff1667ffffffffffffffff16815260200190815260200160002060000160109054906101000a90046fffffffffffffffffffffffffffffffff166111c3565b905060006110ba83611b0d565b90506110e730828673ffffffffffffffffffffffffffffffffffffffff16611bb49092919063ffffffff16565b61111d8582856110f79190612180565b8673ffffffffffffffffffffffffffffffffffffffff16611bb49092919063ffffffff16565b61114885838673ffffffffffffffffffffffffffffffffffffffff16611bb49092919063ffffffff16565b6001600560003373ffffffffffffffffffffffffffffffffffffffff1673ffffffffffffffffffffffffffffffffffffffff16815260200190815260200160002060008867ffffffffffffffff16815260200190815260200160002060006101000a81548160ff021916908315150217905550505050505050565b60008082846111d291906121b4565b6fffffffffffffffffffffffffffffffff16905068056bc75e2d6310000081101580156112075750683635c9adc5dea0000081105b1561122d57606460328261121b91906121fe565b6112259190612287565b9150506112da565b683635c9adc5dea00000811015801561124f575069021e19e0c9bab240000081105b1561127557606460288261126391906121fe565b61126d9190612287565b9150506112da565b69021e19e0c9bab24000008111156112a857606460198261129691906121fe565b6112a09190612287565b9150506112da565b6040517fe008b5f900000000000000000000000000000000000000000000000000000000815260040160405180910390fd5b92915050565b60066020528160005260406000206020528060005260406000206000915091509054906101000a900460ff1681565b600061131a82611ab9565b90508073ffffffffffffffffffffffffffffffffffffffff163373ffffffffffffffffffffffffffffffffffffffff1614611381576040517f472e017e00000000000000000000000000000000000000000000000000000000815260040160405180910390fd5b6003600260008467ffffffffffffffff1667ffffffffffffffff16815260200190815260200160002060000160009054906101000a900460ff1660ff16146113f5576040517fde4461cd00000000000000000000000000000000000000000000000000000000815260040160405180910390fd5b6000600260008467ffffffffffffffff1667ffffffffffffffff16815260200190815260200160002060000160109054906101000a90046fffffffffffffffffffffffffffffffff1690506000600260008567ffffffffffffffff1667ffffffffffffffff16815260200190815260200160002060010160009054906101000a90046fffffffffffffffffffffffffffffffff16905060006114b3828461149c91906121b4565b6fffffffffffffffffffffffffffffffff16611b0d565b90506115023082600160009054906101000a900473ffffffffffffffffffffffffffffffffffffffff1673ffffffffffffffffffffffffffffffffffffffff16611bb49092919063ffffffff16565b61156c8482856fffffffffffffffffffffffffffffffff166115249190612180565b600160009054906101000a900473ffffffffffffffffffffffffffffffffffffffff1673ffffffffffffffffffffffffffffffffffffffff16611bb49092919063ffffffff16565b6004600260008767ffffffffffffffff1667ffffffffffffffff16815260200190815260200160002060000160006101000a81548160ff021916908360ff1602179055505050505050565b600081836115c591906121b4565b6fffffffffffffffffffffffffffffffff16905068056bc75e2d6310000081101561161c576040517fe008b5f900000000000000000000000000000000000000000000000000000000815260040160405180910390fd5b6000604051806101000160405280600160ff168152602001600060079054906101000a900467ffffffffffffffff1667ffffffffffffffff1681526020014266ffffffffffffff168152602001856fffffffffffffffffffffffffffffffff168152602001846fffffffffffffffffffffffffffffffff1681526020018673ffffffffffffffffffffffffffffffffffffffff1681526020013373ffffffffffffffffffffffffffffffffffffffff1681526020013073ffffffffffffffffffffffffffffffffffffffff16815250905080600260008060079054906101000a900467ffffffffffffffff1667ffffffffffffffff1667ffffffffffffffff16815260200190815260200160002060008201518160000160006101000a81548160ff021916908360ff16021790555060208201518160000160016101000a81548167ffffffffffffffff021916908367ffffffffffffffff16021790555060408201518160000160096101000a81548166ffffffffffffff021916908366ffffffffffffff16021790555060608201518160000160106101000a8154816fffffffffffffffffffffffffffffffff02191690836fffffffffffffffffffffffffffffffff16021790555060808201518160010160006101000a8154816fffffffffffffffffffffffffffffffff02191690836fffffffffffffffffffffffffffffffff16021790555060a08201518160020160006101000a81548173ffffffffffffffffffffffffffffffffffffffff021916908373ffffffffffffffffffffffffffffffffffffffff16021790555060c08201518160030160006101000a81548173ffffffffffffffffffffffffffffffffffffffff021916908373ffffffffffffffffffffffffffffffffffffffff16021790555060e08201518160040160006101000a81548173ffffffffffffffffffffffffffffffffffffffff021916908373ffffffffffffffffffffffffffffffffffffffff16021790555090505061192a3330848873ffffffffffffffffffffffffffffffffffffffff16611a30909392919063ffffffff16565b6000600781819054906101000a900467ffffffffffffffff1680929190611950906122b8565b91906101000a81548167ffffffffffffffff021916908367ffffffffffffffff160217905550505050505050565b60056020528160005260406000206020528060005260406000206000915091509054906101000a900460ff1681565b60076020528160005260406000206020528060005260406000206000915091509054906101000a900460ff1681565b6000600260008367ffffffffffffffff1667ffffffffffffffff16815260200190815260200160002060040160009054906101000a900473ffffffffffffffffffffffffffffffffffffffff169050919050565b611ab3846323b872dd60e01b858585604051602401611a51939291906122f8565b604051602081830303815290604052907bffffffffffffffffffffffffffffffffffffffffffffffffffffffff19166020820180517bffffffffffffffffffffffffffffffffffffffffffffffffffffffff8381831617835250505050611c3a565b50505050565b6000600260008367ffffffffffffffff1667ffffffffffffffff16815260200190815260200160002060030160009054906101000a900473ffffffffffffffffffffffffffffffffffffffff169050919050565b600068056bc75e2d631000008210158015611b305750683635c9adc5dea0000082105b15611b4957606482611b429190612287565b9050611baf565b683635c9adc5dea000008210158015611b6b575069021e19e0c9bab240000082105b15611b845760c882611b7d9190612287565b9050611baf565b69021e19e0c9bab24000008210611baa5761019082611ba39190612287565b9050611baf565b600090505b919050565b611c358363a9059cbb60e01b8484604051602401611bd392919061232f565b604051602081830303815290604052907bffffffffffffffffffffffffffffffffffffffffffffffffffffffff19166020820180517bffffffffffffffffffffffffffffffffffffffffffffffffffffffff8381831617835250505050611c3a565b505050565b6000611c9c826040518060400160405280602081526020017f5361666545524332303a206c6f772d6c6576656c2063616c6c206661696c65648152508573ffffffffffffffffffffffffffffffffffffffff16611d029092919063ffffffff16565b9050600081511480611cbe575080806020019051810190611cbd9190612384565b5b611cfd576040517f08c379a0000000000000000000000000000000000000000000000000000000008152600401611cf490612434565b60405180910390fd5b505050565b6060611d118484600085611d1a565b90509392505050565b606082471015611d5f576040517f08c379a0000000000000000000000000000000000000000000000000000000008152600401611d56906124c6565b60405180910390fd5b6000808673ffffffffffffffffffffffffffffffffffffffff168587604051611d889190612560565b60006040518083038185875af1925050503d8060008114611dc5576040519150601f19603f3d011682016040523d82523d6000602084013e611dca565b606091505b5091509150611ddb87838387611de7565b92505050949350505050565b60608315611e4a57600083511415611e4257611e0285611e5d565b611e41576040517f08c379a0000000000000000000000000000000000000000000000000000000008152600401611e38906125c3565b60405180910390fd5b5b829050611e55565b611e548383611e80565b5b949350505050565b6000808273ffffffffffffffffffffffffffffffffffffffff163b119050919050565b600082511115611e935781518083602001fd5b806040517f08c379a0000000000000000000000000000000000000000000000000000000008152600401611ec79190612638565b60405180910390fd5b600080fd5b600067ffffffffffffffff82169050919050565b611ef281611ed5565b8114611efd57600080fd5b50565b600081359050611f0f81611ee9565b92915050565b600060208284031215611f2b57611f2a611ed0565b5b6000611f3984828501611f00565b91505092915050565b600073ffffffffffffffffffffffffffffffffffffffff82169050919050565b6000611f6d82611f42565b9050919050565b611f7d81611f62565b8114611f8857600080fd5b50565b600081359050611f9a81611f74565b92915050565b6000819050919050565b611fb381611fa0565b8114611fbe57600080fd5b50565b600081359050611fd081611faa565b92915050565b60008060408385031215611fed57611fec611ed0565b5b6000611ffb85828601611f8b565b925050602061200c85828601611fc1565b9150509250929050565b60008115159050919050565b61202b81612016565b82525050565b60006020820190506120466000830184612022565b92915050565b60006fffffffffffffffffffffffffffffffff82169050919050565b6120718161204c565b811461207c57600080fd5b50565b60008135905061208e81612068565b92915050565b600080604083850312156120ab576120aa611ed0565b5b60006120b98582860161207f565b92505060206120ca8582860161207f565b9150509250929050565b6120dd81611fa0565b82525050565b60006020820190506120f860008301846120d4565b92915050565b60008060006060848603121561211757612116611ed0565b5b600061212586828701611f8b565b93505060206121368682870161207f565b92505060406121478682870161207f565b9150509250925092565b7f4e487b7100000000000000000000000000000000000000000000000000000000600052601160045260246000fd5b600061218b82611fa0565b915061219683611fa0565b9250828210156121a9576121a8612151565b5b828203905092915050565b60006121bf8261204c565b91506121ca8361204c565b9250816fffffffffffffffffffffffffffffffff04831182151516156121f3576121f2612151565b5b828202905092915050565b600061220982611fa0565b915061221483611fa0565b9250817fffffffffffffffffffffffffffffffffffffffffffffffffffffffffffffffff048311821515161561224d5761224c612151565b5b828202905092915050565b7f4e487b7100000000000000000000000000000000000000000000000000000000600052601260045260246000fd5b600061229282611fa0565b915061229d83611fa0565b9250826122ad576122ac612258565b5b828204905092915050565b60006122c382611ed5565b915067ffffffffffffffff8214156122de576122dd612151565b5b600182019050919050565b6122f281611f62565b82525050565b600060608201905061230d60008301866122e9565b61231a60208301856122e9565b61232760408301846120d4565b949350505050565b600060408201905061234460008301856122e9565b61235160208301846120d4565b9392505050565b61236181612016565b811461236c57600080fd5b50565b60008151905061237e81612358565b92915050565b60006020828403121561239a57612399611ed0565b5b60006123a88482850161236f565b91505092915050565b600082825260208201905092915050565b7f5361666545524332303a204552433230206f7065726174696f6e20646964206e60008201527f6f74207375636365656400000000000000000000000000000000000000000000602082015250565b600061241e602a836123b1565b9150612429826123c2565b604082019050919050565b6000602082019050818103600083015261244d81612411565b9050919050565b7f416464726573733a20696e73756666696369656e742062616c616e636520666f60008201527f722063616c6c0000000000000000000000000000000000000000000000000000602082015250565b60006124b06026836123b1565b91506124bb82612454565b604082019050919050565b600060208201905081810360008301526124df816124a3565b9050919050565b600081519050919050565b600081905092915050565b60005b8381101561251a5780820151818401526020810190506124ff565b83811115612529576000848401525b50505050565b600061253a826124e6565b61254481856124f1565b93506125548185602086016124fc565b80840191505092915050565b600061256c828461252f565b915081905092915050565b7f416464726573733a2063616c6c20746f206e6f6e2d636f6e7472616374000000600082015250565b60006125ad601d836123b1565b91506125b882612577565b602082019050919050565b600060208201905081810360008301526125dc816125a0565b9050919050565b600081519050919050565b6000601f19601f8301169050919050565b600061260a826125e3565b61261481856123b1565b93506126248185602086016124fc565b61262d816125ee565b840191505092915050565b6000602082019050818103600083015261265281846125ff565b90509291505056fea2646970667358221220fb40853da6b16a3af4af5e68d4c9402a880d0e5f80a99f7530f6e39845aad83c64736f6c63430008090033",
					"opcodes": "PUSH1 0x80 PUSH1 0x40 MSTORE CALLVALUE DUP1 ISZERO PUSH3 0x11 JUMPI PUSH1 0x0 DUP1 REVERT JUMPDEST POP PUSH1 0x40 MLOAD PUSH3 0x2832 CODESIZE SUB DUP1 PUSH3 0x2832 DUP4 CODECOPY DUP2 DUP2 ADD PUSH1 0x40 MSTORE DUP2 ADD SWAP1 PUSH3 0x37 SWAP2 SWAP1 PUSH3 0x14B JUMP JUMPDEST DUP2 PUSH1 0x1 PUSH1 0x0 PUSH2 0x100 EXP DUP2 SLOAD DUP2 PUSH20 0xFFFFFFFFFFFFFFFFFFFFFFFFFFFFFFFFFFFFFFFF MUL NOT AND SWAP1 DUP4 PUSH20 0xFFFFFFFFFFFFFFFFFFFFFFFFFFFFFFFFFFFFFFFF AND MUL OR SWAP1 SSTORE POP DUP1 PUSH1 0x0 DUP1 PUSH2 0x100 EXP DUP2 SLOAD DUP2 PUSH7 0xFFFFFFFFFFFFFF MUL NOT AND SWAP1 DUP4 PUSH7 0xFFFFFFFFFFFFFF AND MUL OR SWAP1 SSTORE POP POP POP PUSH3 0x192 JUMP JUMPDEST PUSH1 0x0 DUP1 REVERT JUMPDEST PUSH1 0x0 PUSH20 0xFFFFFFFFFFFFFFFFFFFFFFFFFFFFFFFFFFFFFFFF DUP3 AND SWAP1 POP SWAP2 SWAP1 POP JUMP JUMPDEST PUSH1 0x0 PUSH3 0xD8 DUP3 PUSH3 0xAB JUMP JUMPDEST SWAP1 POP SWAP2 SWAP1 POP JUMP JUMPDEST PUSH3 0xEA DUP2 PUSH3 0xCB JUMP JUMPDEST DUP2 EQ PUSH3 0xF6 JUMPI PUSH1 0x0 DUP1 REVERT JUMPDEST POP JUMP JUMPDEST PUSH1 0x0 DUP2 MLOAD SWAP1 POP PUSH3 0x10A DUP2 PUSH3 0xDF JUMP JUMPDEST SWAP3 SWAP2 POP POP JUMP JUMPDEST PUSH1 0x0 DUP2 SWAP1 POP SWAP2 SWAP1 POP JUMP JUMPDEST PUSH3 0x125 DUP2 PUSH3 0x110 JUMP JUMPDEST DUP2 EQ PUSH3 0x131 JUMPI PUSH1 0x0 DUP1 REVERT JUMPDEST POP JUMP JUMPDEST PUSH1 0x0 DUP2 MLOAD SWAP1 POP PUSH3 0x145 DUP2 PUSH3 0x11A JUMP JUMPDEST SWAP3 SWAP2 POP POP JUMP JUMPDEST PUSH1 0x0 DUP1 PUSH1 0x40 DUP4 DUP6 SUB SLT ISZERO PUSH3 0x165 JUMPI PUSH3 0x164 PUSH3 0xA6 JUMP JUMPDEST JUMPDEST PUSH1 0x0 PUSH3 0x175 DUP6 DUP3 DUP7 ADD PUSH3 0xF9 JUMP JUMPDEST SWAP3 POP POP PUSH1 0x20 PUSH3 0x188 DUP6 DUP3 DUP7 ADD PUSH3 0x134 JUMP JUMPDEST SWAP2 POP POP SWAP3 POP SWAP3 SWAP1 POP JUMP JUMPDEST PUSH2 0x2690 DUP1 PUSH3 0x1A2 PUSH1 0x0 CODECOPY PUSH1 0x0 RETURN INVALID PUSH1 0x80 PUSH1 0x40 MSTORE CALLVALUE DUP1 ISZERO PUSH2 0x10 JUMPI PUSH1 0x0 DUP1 REVERT JUMPDEST POP PUSH1 0x4 CALLDATASIZE LT PUSH2 0xA9 JUMPI PUSH1 0x0 CALLDATALOAD PUSH1 0xE0 SHR DUP1 PUSH4 0x98C50FDD GT PUSH2 0x71 JUMPI DUP1 PUSH4 0x98C50FDD EQ PUSH2 0x14E JUMPI DUP1 PUSH4 0xB8D7F980 EQ PUSH2 0x17E JUMPI DUP1 PUSH4 0xC0102DE4 EQ PUSH2 0x1AE JUMPI DUP1 PUSH4 0xD14485A2 EQ PUSH2 0x1CA JUMPI DUP1 PUSH4 0xDF0905C6 EQ PUSH2 0x1E6 JUMPI DUP1 PUSH4 0xFC993EA8 EQ PUSH2 0x216 JUMPI PUSH2 0xA9 JUMP JUMPDEST DUP1 PUSH4 0x25AC3A73 EQ PUSH2 0xAE JUMPI DUP1 PUSH4 0x2895CB7B EQ PUSH2 0xCA JUMPI DUP1 PUSH4 0x59DE2F60 EQ PUSH2 0xE6 JUMPI DUP1 PUSH4 0x762E9D30 EQ PUSH2 0x116 JUMPI DUP1 PUSH4 0x77BCD8A6 EQ PUSH2 0x132 JUMPI JUMPDEST PUSH1 0x0 DUP1 REVERT JUMPDEST PUSH2 0xC8 PUSH1 0x4 DUP1 CALLDATASIZE SUB DUP2 ADD SWAP1 PUSH2 0xC3 SWAP2 SWAP1 PUSH2 0x1F15 JUMP JUMPDEST PUSH2 0x246 JUMP JUMPDEST STOP JUMPDEST PUSH2 0xE4 PUSH1 0x4 DUP1 CALLDATASIZE SUB DUP2 ADD SWAP1 PUSH2 0xDF SWAP2 SWAP1 PUSH2 0x1F15 JUMP JUMPDEST PUSH2 0x4C3 JUMP JUMPDEST STOP JUMPDEST PUSH2 0x100 PUSH1 0x4 DUP1 CALLDATASIZE SUB DUP2 ADD SWAP1 PUSH2 0xFB SWAP2 SWAP1 PUSH2 0x1FD6 JUMP JUMPDEST PUSH2 0xA64 JUMP JUMPDEST PUSH1 0x40 MLOAD PUSH2 0x10D SWAP2 SWAP1 PUSH2 0x2031 JUMP JUMPDEST PUSH1 0x40 MLOAD DUP1 SWAP2 SUB SWAP1 RETURN JUMPDEST PUSH2 0x130 PUSH1 0x4 DUP1 CALLDATASIZE SUB DUP2 ADD SWAP1 PUSH2 0x12B SWAP2 SWAP1 PUSH2 0x1F15 JUMP JUMPDEST PUSH2 0xA93 JUMP JUMPDEST STOP JUMPDEST PUSH2 0x14C PUSH1 0x4 DUP1 CALLDATASIZE SUB DUP2 ADD SWAP1 PUSH2 0x147 SWAP2 SWAP1 PUSH2 0x1F15 JUMP JUMPDEST PUSH2 0xDEA JUMP JUMPDEST STOP JUMPDEST PUSH2 0x168 PUSH1 0x4 DUP1 CALLDATASIZE SUB DUP2 ADD SWAP1 PUSH2 0x163 SWAP2 SWAP1 PUSH2 0x2094 JUMP JUMPDEST PUSH2 0x11C3 JUMP JUMPDEST PUSH1 0x40 MLOAD PUSH2 0x175 SWAP2 SWAP1 PUSH2 0x20E3 JUMP JUMPDEST PUSH1 0x40 MLOAD DUP1 SWAP2 SUB SWAP1 RETURN JUMPDEST PUSH2 0x198 PUSH1 0x4 DUP1 CALLDATASIZE SUB DUP2 ADD SWAP1 PUSH2 0x193 SWAP2 SWAP1 PUSH2 0x1FD6 JUMP JUMPDEST PUSH2 0x12E0 JUMP JUMPDEST PUSH1 0x40 MLOAD PUSH2 0x1A5 SWAP2 SWAP1 PUSH2 0x2031 JUMP JUMPDEST PUSH1 0x40 MLOAD DUP1 SWAP2 SUB SWAP1 RETURN JUMPDEST PUSH2 0x1C8 PUSH1 0x4 DUP1 CALLDATASIZE SUB DUP2 ADD SWAP1 PUSH2 0x1C3 SWAP2 SWAP1 PUSH2 0x1F15 JUMP JUMPDEST PUSH2 0x130F JUMP JUMPDEST STOP JUMPDEST PUSH2 0x1E4 PUSH1 0x4 DUP1 CALLDATASIZE SUB DUP2 ADD SWAP1 PUSH2 0x1DF SWAP2 SWAP1 PUSH2 0x20FE JUMP JUMPDEST PUSH2 0x15B7 JUMP JUMPDEST STOP JUMPDEST PUSH2 0x200 PUSH1 0x4 DUP1 CALLDATASIZE SUB DUP2 ADD SWAP1 PUSH2 0x1FB SWAP2 SWAP1 PUSH2 0x1FD6 JUMP JUMPDEST PUSH2 0x197E JUMP JUMPDEST PUSH1 0x40 MLOAD PUSH2 0x20D SWAP2 SWAP1 PUSH2 0x2031 JUMP JUMPDEST PUSH1 0x40 MLOAD DUP1 SWAP2 SUB SWAP1 RETURN JUMPDEST PUSH2 0x230 PUSH1 0x4 DUP1 CALLDATASIZE SUB DUP2 ADD SWAP1 PUSH2 0x22B SWAP2 SWAP1 PUSH2 0x1FD6 JUMP JUMPDEST PUSH2 0x19AD JUMP JUMPDEST PUSH1 0x40 MLOAD PUSH2 0x23D SWAP2 SWAP1 PUSH2 0x2031 JUMP JUMPDEST PUSH1 0x40 MLOAD DUP1 SWAP2 SUB SWAP1 RETURN JUMPDEST PUSH1 0x0 PUSH1 0x3 PUSH1 0x0 CALLER PUSH20 0xFFFFFFFFFFFFFFFFFFFFFFFFFFFFFFFFFFFFFFFF AND PUSH20 0xFFFFFFFFFFFFFFFFFFFFFFFFFFFFFFFFFFFFFFFF AND DUP2 MSTORE PUSH1 0x20 ADD SWAP1 DUP2 MSTORE PUSH1 0x20 ADD PUSH1 0x0 KECCAK256 PUSH1 0x0 DUP4 PUSH8 0xFFFFFFFFFFFFFFFF AND DUP2 MSTORE PUSH1 0x20 ADD SWAP1 DUP2 MSTORE PUSH1 0x20 ADD PUSH1 0x0 KECCAK256 PUSH1 0x0 PUSH2 0x100 EXP DUP2 SLOAD DUP2 PUSH1 0xFF MUL NOT AND SWAP1 DUP4 ISZERO ISZERO MUL OR SWAP1 SSTORE ISZERO PUSH2 0x2EF JUMPI PUSH1 0x40 MLOAD PUSH32 0x4232716900000000000000000000000000000000000000000000000000000000 DUP2 MSTORE PUSH1 0x4 ADD PUSH1 0x40 MLOAD DUP1 SWAP2 SUB SWAP1 REVERT JUMPDEST CALLER PUSH20 0xFFFFFFFFFFFFFFFFFFFFFFFFFFFFFFFFFFFFFFFF AND PUSH2 0x30F DUP3 PUSH2 0x19DC JUMP JUMPDEST PUSH20 0xFFFFFFFFFFFFFFFFFFFFFFFFFFFFFFFFFFFFFFFF AND EQ PUSH2 0x35C JUMPI PUSH1 0x40 MLOAD PUSH32 0xD7C498BF00000000000000000000000000000000000000000000000000000000 DUP2 MSTORE PUSH1 0x4 ADD PUSH1 0x40 MLOAD DUP1 SWAP2 SUB SWAP1 REVERT JUMPDEST PUSH1 0x0 PUSH1 0x2 PUSH1 0x0 DUP4 PUSH8 0xFFFFFFFFFFFFFFFF AND PUSH8 0xFFFFFFFFFFFFFFFF AND DUP2 MSTORE PUSH1 0x20 ADD SWAP1 DUP2 MSTORE PUSH1 0x20 ADD PUSH1 0x0 KECCAK256 PUSH1 0x0 ADD PUSH1 0x10 SWAP1 SLOAD SWAP1 PUSH2 0x100 EXP SWAP1 DIV PUSH16 0xFFFFFFFFFFFFFFFFFFFFFFFFFFFFFFFF AND PUSH16 0xFFFFFFFFFFFFFFFFFFFFFFFFFFFFFFFF AND SWAP1 POP PUSH2 0x408 CALLER ADDRESS DUP4 PUSH1 0x1 PUSH1 0x0 SWAP1 SLOAD SWAP1 PUSH2 0x100 EXP SWAP1 DIV PUSH20 0xFFFFFFFFFFFFFFFFFFFFFFFFFFFFFFFFFFFFFFFF AND PUSH20 0xFFFFFFFFFFFFFFFFFFFFFFFFFFFFFFFFFFFFFFFF AND PUSH2 0x1A30 SWAP1 SWAP4 SWAP3 SWAP2 SWAP1 PUSH4 0xFFFFFFFF AND JUMP JUMPDEST PUSH1 0x1 PUSH1 0x3 PUSH1 0x0 CALLER PUSH20 0xFFFFFFFFFFFFFFFFFFFFFFFFFFFFFFFFFFFFFFFF AND PUSH20 0xFFFFFFFFFFFFFFFFFFFFFFFFFFFFFFFFFFFFFFFF AND DUP2 MSTORE PUSH1 0x20 ADD SWAP1 DUP2 MSTORE PUSH1 0x20 ADD PUSH1 0x0 KECCAK256 PUSH1 0x0 DUP5 PUSH8 0xFFFFFFFFFFFFFFFF AND DUP2 MSTORE PUSH1 0x20 ADD SWAP1 DUP2 MSTORE PUSH1 0x20 ADD PUSH1 0x0 KECCAK256 PUSH1 0x0 PUSH2 0x100 EXP DUP2 SLOAD DUP2 PUSH1 0xFF MUL NOT AND SWAP1 DUP4 ISZERO ISZERO MUL OR SWAP1 SSTORE POP PUSH1 0x3 PUSH1 0x2 PUSH1 0x0 DUP5 PUSH8 0xFFFFFFFFFFFFFFFF AND PUSH8 0xFFFFFFFFFFFFFFFF AND DUP2 MSTORE PUSH1 0x20 ADD SWAP1 DUP2 MSTORE PUSH1 0x20 ADD PUSH1 0x0 KECCAK256 PUSH1 0x0 ADD PUSH1 0x0 PUSH2 0x100 EXP DUP2 SLOAD DUP2 PUSH1 0xFF MUL NOT AND SWAP1 DUP4 PUSH1 0xFF AND MUL OR SWAP1 SSTORE POP POP POP JUMP JUMPDEST PUSH1 0x0 PUSH2 0x4CE DUP3 PUSH2 0x1AB9 JUMP JUMPDEST SWAP1 POP PUSH1 0x0 PUSH2 0x4DB DUP4 PUSH2 0x19DC JUMP JUMPDEST SWAP1 POP DUP2 PUSH20 0xFFFFFFFFFFFFFFFFFFFFFFFFFFFFFFFFFFFFFFFF AND CALLER PUSH20 0xFFFFFFFFFFFFFFFFFFFFFFFFFFFFFFFFFFFFFFFF AND EQ PUSH2 0x515 JUMPI PUSH1 0x0 DUP1 REVERT JUMPDEST PUSH1 0x0 ISZERO ISZERO PUSH1 0x3 PUSH1 0x0 DUP4 PUSH20 0xFFFFFFFFFFFFFFFFFFFFFFFFFFFFFFFFFFFFFFFF AND PUSH20 0xFFFFFFFFFFFFFFFFFFFFFFFFFFFFFFFFFFFFFFFF AND DUP2 MSTORE PUSH1 0x20 ADD SWAP1 DUP2 MSTORE PUSH1 0x20 ADD PUSH1 0x0 KECCAK256 PUSH1 0x0 DUP6 PUSH8 0xFFFFFFFFFFFFFFFF AND DUP2 MSTORE PUSH1 0x20 ADD SWAP1 DUP2 MSTORE PUSH1 0x20 ADD PUSH1 0x0 KECCAK256 PUSH1 0x0 SWAP1 SLOAD SWAP1 PUSH2 0x100 EXP SWAP1 DIV PUSH1 0xFF AND ISZERO ISZERO EQ PUSH2 0x58D JUMPI PUSH1 0x0 DUP1 REVERT JUMPDEST PUSH1 0x0 ISZERO ISZERO PUSH1 0x6 PUSH1 0x0 CALLER PUSH20 0xFFFFFFFFFFFFFFFFFFFFFFFFFFFFFFFFFFFFFFFF AND PUSH20 0xFFFFFFFFFFFFFFFFFFFFFFFFFFFFFFFFFFFFFFFF AND DUP2 MSTORE PUSH1 0x20 ADD SWAP1 DUP2 MSTORE PUSH1 0x20 ADD PUSH1 0x0 KECCAK256 PUSH1 0x0 DUP6 PUSH8 0xFFFFFFFFFFFFFFFF AND DUP2 MSTORE PUSH1 0x20 ADD SWAP1 DUP2 MSTORE PUSH1 0x20 ADD PUSH1 0x0 KECCAK256 PUSH1 0x0 SWAP1 SLOAD SWAP1 PUSH2 0x100 EXP SWAP1 DIV PUSH1 0xFF AND ISZERO ISZERO EQ PUSH2 0x605 JUMPI PUSH1 0x0 DUP1 REVERT JUMPDEST DUP2 PUSH20 0xFFFFFFFFFFFFFFFFFFFFFFFFFFFFFFFFFFFFFFFF AND CALLER PUSH20 0xFFFFFFFFFFFFFFFFFFFFFFFFFFFFFFFFFFFFFFFF AND EQ PUSH2 0x63D JUMPI PUSH1 0x0 DUP1 REVERT JUMPDEST PUSH1 0x0 PUSH1 0x2 PUSH1 0x0 DUP6 PUSH8 0xFFFFFFFFFFFFFFFF AND PUSH8 0xFFFFFFFFFFFFFFFF AND DUP2 MSTORE PUSH1 0x20 ADD SWAP1 DUP2 MSTORE PUSH1 0x20 ADD PUSH1 0x0 KECCAK256 PUSH1 0x2 ADD PUSH1 0x0 SWAP1 SLOAD SWAP1 PUSH2 0x100 EXP SWAP1 DIV PUSH20 0xFFFFFFFFFFFFFFFFFFFFFFFFFFFFFFFFFFFFFFFF AND SWAP1 POP PUSH1 0x0 PUSH2 0x724 PUSH1 0x2 PUSH1 0x0 DUP8 PUSH8 0xFFFFFFFFFFFFFFFF AND PUSH8 0xFFFFFFFFFFFFFFFF AND DUP2 MSTORE PUSH1 0x20 ADD SWAP1 DUP2 MSTORE PUSH1 0x20 ADD PUSH1 0x0 KECCAK256 PUSH1 0x1 ADD PUSH1 0x0 SWAP1 SLOAD SWAP1 PUSH2 0x100 EXP SWAP1 DIV PUSH16 0xFFFFFFFFFFFFFFFFFFFFFFFFFFFFFFFF AND PUSH1 0x2 PUSH1 0x0 DUP9 PUSH8 0xFFFFFFFFFFFFFFFF AND PUSH8 0xFFFFFFFFFFFFFFFF AND DUP2 MSTORE PUSH1 0x20 ADD SWAP1 DUP2 MSTORE PUSH1 0x20 ADD PUSH1 0x0 KECCAK256 PUSH1 0x0 ADD PUSH1 0x10 SWAP1 SLOAD SWAP1 PUSH2 0x100 EXP SWAP1 DIV PUSH16 0xFFFFFFFFFFFFFFFFFFFFFFFFFFFFFFFF AND PUSH2 0x11C3 JUMP JUMPDEST SWAP1 POP PUSH1 0x0 PUSH2 0x731 DUP3 PUSH2 0x1B0D JUMP JUMPDEST SWAP1 POP PUSH2 0x75E ADDRESS DUP3 DUP6 PUSH20 0xFFFFFFFFFFFFFFFFFFFFFFFFFFFFFFFFFFFFFFFF AND PUSH2 0x1BB4 SWAP1 SWAP3 SWAP2 SWAP1 PUSH4 0xFFFFFFFF AND JUMP JUMPDEST PUSH2 0x794 DUP6 DUP3 DUP5 PUSH2 0x76E SWAP2 SWAP1 PUSH2 0x2180 JUMP JUMPDEST DUP6 PUSH20 0xFFFFFFFFFFFFFFFFFFFFFFFFFFFFFFFFFFFFFFFF AND PUSH2 0x1BB4 SWAP1 SWAP3 SWAP2 SWAP1 PUSH4 0xFFFFFFFF AND JUMP JUMPDEST PUSH1 0x1 PUSH1 0x6 PUSH1 0x0 CALLER PUSH20 0xFFFFFFFFFFFFFFFFFFFFFFFFFFFFFFFFFFFFFFFF AND PUSH20 0xFFFFFFFFFFFFFFFFFFFFFFFFFFFFFFFFFFFFFFFF AND DUP2 MSTORE PUSH1 0x20 ADD SWAP1 DUP2 MSTORE PUSH1 0x20 ADD PUSH1 0x0 KECCAK256 PUSH1 0x0 DUP9 PUSH8 0xFFFFFFFFFFFFFFFF AND DUP2 MSTORE PUSH1 0x20 ADD SWAP1 DUP2 MSTORE PUSH1 0x20 ADD PUSH1 0x0 KECCAK256 PUSH1 0x0 PUSH2 0x100 EXP DUP2 SLOAD DUP2 PUSH1 0xFF MUL NOT AND SWAP1 DUP4 ISZERO ISZERO MUL OR SWAP1 SSTORE POP PUSH1 0x1 PUSH1 0x2 PUSH1 0x0 DUP9 PUSH8 0xFFFFFFFFFFFFFFFF AND PUSH8 0xFFFFFFFFFFFFFFFF AND DUP2 MSTORE PUSH1 0x20 ADD SWAP1 DUP2 MSTORE PUSH1 0x20 ADD PUSH1 0x0 KECCAK256 PUSH1 0x0 ADD PUSH1 0x0 SWAP1 SLOAD SWAP1 PUSH2 0x100 EXP SWAP1 DIV PUSH1 0xFF AND PUSH1 0xFF AND EQ ISZERO PUSH2 0xA18 JUMPI PUSH1 0x0 ISZERO ISZERO PUSH1 0x7 PUSH1 0x0 CALLER PUSH20 0xFFFFFFFFFFFFFFFFFFFFFFFFFFFFFFFFFFFFFFFF AND PUSH20 0xFFFFFFFFFFFFFFFFFFFFFFFFFFFFFFFFFFFFFFFF AND DUP2 MSTORE PUSH1 0x20 ADD SWAP1 DUP2 MSTORE PUSH1 0x20 ADD PUSH1 0x0 KECCAK256 PUSH1 0x0 DUP9 PUSH8 0xFFFFFFFFFFFFFFFF AND DUP2 MSTORE PUSH1 0x20 ADD SWAP1 DUP2 MSTORE PUSH1 0x20 ADD PUSH1 0x0 KECCAK256 PUSH1 0x0 SWAP1 SLOAD SWAP1 PUSH2 0x100 EXP SWAP1 DIV PUSH1 0xFF AND ISZERO ISZERO EQ PUSH2 0x8C2 JUMPI PUSH1 0x0 DUP1 REVERT JUMPDEST PUSH1 0x0 PUSH1 0x2 PUSH1 0x0 DUP9 PUSH8 0xFFFFFFFFFFFFFFFF AND PUSH8 0xFFFFFFFFFFFFFFFF AND DUP2 MSTORE PUSH1 0x20 ADD SWAP1 DUP2 MSTORE PUSH1 0x20 ADD PUSH1 0x0 KECCAK256 PUSH1 0x0 ADD PUSH1 0x10 SWAP1 SLOAD SWAP1 PUSH2 0x100 EXP SWAP1 DIV PUSH16 0xFFFFFFFFFFFFFFFFFFFFFFFFFFFFFFFF AND PUSH1 0x2 PUSH1 0x0 DUP10 PUSH8 0xFFFFFFFFFFFFFFFF AND PUSH8 0xFFFFFFFFFFFFFFFF AND DUP2 MSTORE PUSH1 0x20 ADD SWAP1 DUP2 MSTORE PUSH1 0x20 ADD PUSH1 0x0 KECCAK256 PUSH1 0x1 ADD PUSH1 0x0 SWAP1 SLOAD SWAP1 PUSH2 0x100 EXP SWAP1 DIV PUSH16 0xFFFFFFFFFFFFFFFFFFFFFFFFFFFFFFFF AND PUSH2 0x95C SWAP2 SWAP1 PUSH2 0x21B4 JUMP JUMPDEST PUSH16 0xFFFFFFFFFFFFFFFFFFFFFFFFFFFFFFFF AND SWAP1 POP PUSH2 0x9A3 PUSH2 0x97C DUP9 PUSH2 0x1AB9 JUMP JUMPDEST DUP3 DUP7 PUSH20 0xFFFFFFFFFFFFFFFFFFFFFFFFFFFFFFFFFFFFFFFF AND PUSH2 0x1BB4 SWAP1 SWAP3 SWAP2 SWAP1 PUSH4 0xFFFFFFFF AND JUMP JUMPDEST PUSH1 0x1 PUSH1 0x7 PUSH1 0x0 CALLER PUSH20 0xFFFFFFFFFFFFFFFFFFFFFFFFFFFFFFFFFFFFFFFF AND PUSH20 0xFFFFFFFFFFFFFFFFFFFFFFFFFFFFFFFFFFFFFFFF AND DUP2 MSTORE PUSH1 0x20 ADD SWAP1 DUP2 MSTORE PUSH1 0x20 ADD PUSH1 0x0 KECCAK256 PUSH1 0x0 DUP10 PUSH8 0xFFFFFFFFFFFFFFFF AND DUP2 MSTORE PUSH1 0x20 ADD SWAP1 DUP2 MSTORE PUSH1 0x20 ADD PUSH1 0x0 KECCAK256 PUSH1 0x0 PUSH2 0x100 EXP DUP2 SLOAD DUP2 PUSH1 0xFF MUL NOT AND SWAP1 DUP4 ISZERO ISZERO MUL OR SWAP1 SSTORE POP POP JUMPDEST PUSH1 0x5 PUSH1 0x2 PUSH1 0x0 DUP9 PUSH8 0xFFFFFFFFFFFFFFFF AND PUSH8 0xFFFFFFFFFFFFFFFF AND DUP2 MSTORE PUSH1 0x20 ADD SWAP1 DUP2 MSTORE PUSH1 0x20 ADD PUSH1 0x0 KECCAK256 PUSH1 0x0 ADD PUSH1 0x0 PUSH2 0x100 EXP DUP2 SLOAD DUP2 PUSH1 0xFF MUL NOT AND SWAP1 DUP4 PUSH1 0xFF AND MUL OR SWAP1 SSTORE POP POP POP POP POP POP POP JUMP JUMPDEST PUSH1 0x4 PUSH1 0x20 MSTORE DUP2 PUSH1 0x0 MSTORE PUSH1 0x40 PUSH1 0x0 KECCAK256 PUSH1 0x20 MSTORE DUP1 PUSH1 0x0 MSTORE PUSH1 0x40 PUSH1 0x0 KECCAK256 PUSH1 0x0 SWAP2 POP SWAP2 POP SWAP1 SLOAD SWAP1 PUSH2 0x100 EXP SWAP1 DIV PUSH1 0xFF AND DUP2 JUMP JUMPDEST PUSH1 0x0 PUSH1 0x2 PUSH1 0x0 DUP4 PUSH8 0xFFFFFFFFFFFFFFFF AND PUSH8 0xFFFFFFFFFFFFFFFF AND DUP2 MSTORE PUSH1 0x20 ADD SWAP1 DUP2 MSTORE PUSH1 0x20 ADD PUSH1 0x0 KECCAK256 PUSH1 0x40 MLOAD DUP1 PUSH2 0x100 ADD PUSH1 0x40 MSTORE SWAP1 DUP2 PUSH1 0x0 DUP3 ADD PUSH1 0x0 SWAP1 SLOAD SWAP1 PUSH2 0x100 EXP SWAP1 DIV PUSH1 0xFF AND PUSH1 0xFF AND PUSH1 0xFF AND DUP2 MSTORE PUSH1 0x20 ADD PUSH1 0x0 DUP3 ADD PUSH1 0x1 SWAP1 SLOAD SWAP1 PUSH2 0x100 EXP SWAP1 DIV PUSH8 0xFFFFFFFFFFFFFFFF AND PUSH8 0xFFFFFFFFFFFFFFFF AND PUSH8 0xFFFFFFFFFFFFFFFF AND DUP2 MSTORE PUSH1 0x20 ADD PUSH1 0x0 DUP3 ADD PUSH1 0x9 SWAP1 SLOAD SWAP1 PUSH2 0x100 EXP SWAP1 DIV PUSH7 0xFFFFFFFFFFFFFF AND PUSH7 0xFFFFFFFFFFFFFF AND PUSH7 0xFFFFFFFFFFFFFF AND DUP2 MSTORE PUSH1 0x20 ADD PUSH1 0x0 DUP3 ADD PUSH1 0x10 SWAP1 SLOAD SWAP1 PUSH2 0x100 EXP SWAP1 DIV PUSH16 0xFFFFFFFFFFFFFFFFFFFFFFFFFFFFFFFF AND PUSH16 0xFFFFFFFFFFFFFFFFFFFFFFFFFFFFFFFF AND PUSH16 0xFFFFFFFFFFFFFFFFFFFFFFFFFFFFFFFF AND DUP2 MSTORE PUSH1 0x20 ADD PUSH1 0x1 DUP3 ADD PUSH1 0x0 SWAP1 SLOAD SWAP1 PUSH2 0x100 EXP SWAP1 DIV PUSH16 0xFFFFFFFFFFFFFFFFFFFFFFFFFFFFFFFF AND PUSH16 0xFFFFFFFFFFFFFFFFFFFFFFFFFFFFFFFF AND PUSH16 0xFFFFFFFFFFFFFFFFFFFFFFFFFFFFFFFF AND DUP2 MSTORE PUSH1 0x20 ADD PUSH1 0x2 DUP3 ADD PUSH1 0x0 SWAP1 SLOAD SWAP1 PUSH2 0x100 EXP SWAP1 DIV PUSH20 0xFFFFFFFFFFFFFFFFFFFFFFFFFFFFFFFFFFFFFFFF AND PUSH20 0xFFFFFFFFFFFFFFFFFFFFFFFFFFFFFFFFFFFFFFFF AND PUSH20 0xFFFFFFFFFFFFFFFFFFFFFFFFFFFFFFFFFFFFFFFF AND DUP2 MSTORE PUSH1 0x20 ADD PUSH1 0x3 DUP3 ADD PUSH1 0x0 SWAP1 SLOAD SWAP1 PUSH2 0x100 EXP SWAP1 DIV PUSH20 0xFFFFFFFFFFFFFFFFFFFFFFFFFFFFFFFFFFFFFFFF AND PUSH20 0xFFFFFFFFFFFFFFFFFFFFFFFFFFFFFFFFFFFFFFFF AND PUSH20 0xFFFFFFFFFFFFFFFFFFFFFFFFFFFFFFFFFFFFFFFF AND DUP2 MSTORE PUSH1 0x20 ADD PUSH1 0x4 DUP3 ADD PUSH1 0x0 SWAP1 SLOAD SWAP1 PUSH2 0x100 EXP SWAP1 DIV PUSH20 0xFFFFFFFFFFFFFFFFFFFFFFFFFFFFFFFFFFFFFFFF AND PUSH20 0xFFFFFFFFFFFFFFFFFFFFFFFFFFFFFFFFFFFFFFFF AND PUSH20 0xFFFFFFFFFFFFFFFFFFFFFFFFFFFFFFFFFFFFFFFF AND DUP2 MSTORE POP POP SWAP1 POP PUSH1 0x1 DUP2 PUSH1 0x0 ADD MLOAD PUSH1 0xFF AND EQ PUSH2 0xCF2 JUMPI PUSH1 0x0 DUP1 REVERT JUMPDEST PUSH1 0x0 DUP2 PUSH1 0xA0 ADD MLOAD SWAP1 POP PUSH2 0xD39 CALLER ADDRESS PUSH2 0xD12 DUP6 PUSH1 0x80 ADD MLOAD DUP7 PUSH1 0x60 ADD MLOAD PUSH2 0x11C3 JUMP JUMPDEST DUP5 PUSH20 0xFFFFFFFFFFFFFFFFFFFFFFFFFFFFFFFFFFFFFFFF AND PUSH2 0x1A30 SWAP1 SWAP4 SWAP3 SWAP2 SWAP1 PUSH4 0xFFFFFFFF AND JUMP JUMPDEST CALLER PUSH1 0x2 PUSH1 0x0 DUP6 PUSH8 0xFFFFFFFFFFFFFFFF AND PUSH8 0xFFFFFFFFFFFFFFFF AND DUP2 MSTORE PUSH1 0x20 ADD SWAP1 DUP2 MSTORE PUSH1 0x20 ADD PUSH1 0x0 KECCAK256 PUSH1 0x4 ADD PUSH1 0x0 PUSH2 0x100 EXP DUP2 SLOAD DUP2 PUSH20 0xFFFFFFFFFFFFFFFFFFFFFFFFFFFFFFFFFFFFFFFF MUL NOT AND SWAP1 DUP4 PUSH20 0xFFFFFFFFFFFFFFFFFFFFFFFFFFFFFFFFFFFFFFFF AND MUL OR SWAP1 SSTORE POP PUSH1 0x2 DUP1 PUSH1 0x0 DUP6 PUSH8 0xFFFFFFFFFFFFFFFF AND PUSH8 0xFFFFFFFFFFFFFFFF AND DUP2 MSTORE PUSH1 0x20 ADD SWAP1 DUP2 MSTORE PUSH1 0x20 ADD PUSH1 0x0 KECCAK256 PUSH1 0x0 ADD PUSH1 0x0 PUSH2 0x100 EXP DUP2 SLOAD DUP2 PUSH1 0xFF MUL NOT AND SWAP1 DUP4 PUSH1 0xFF AND MUL OR SWAP1 SSTORE POP POP POP POP JUMP JUMPDEST PUSH1 0x0 PUSH2 0xDF5 DUP3 PUSH2 0x19DC JUMP JUMPDEST SWAP1 POP DUP1 PUSH20 0xFFFFFFFFFFFFFFFFFFFFFFFFFFFFFFFFFFFFFFFF AND CALLER PUSH20 0xFFFFFFFFFFFFFFFFFFFFFFFFFFFFFFFFFFFFFFFF AND EQ PUSH2 0xE2F JUMPI PUSH1 0x0 DUP1 REVERT JUMPDEST PUSH1 0x3 PUSH1 0x0 DUP3 PUSH20 0xFFFFFFFFFFFFFFFFFFFFFFFFFFFFFFFFFFFFFFFF AND PUSH20 0xFFFFFFFFFFFFFFFFFFFFFFFFFFFFFFFFFFFFFFFF AND DUP2 MSTORE PUSH1 0x20 ADD SWAP1 DUP2 MSTORE PUSH1 0x20 ADD PUSH1 0x0 KECCAK256 PUSH1 0x0 DUP4 PUSH8 0xFFFFFFFFFFFFFFFF AND DUP2 MSTORE PUSH1 0x20 ADD SWAP1 DUP2 MSTORE PUSH1 0x20 ADD PUSH1 0x0 KECCAK256 PUSH1 0x0 SWAP1 SLOAD SWAP1 PUSH2 0x100 EXP SWAP1 DIV PUSH1 0xFF AND PUSH2 0xEA0 JUMPI PUSH1 0x0 DUP1 REVERT JUMPDEST PUSH1 0x0 ISZERO ISZERO PUSH1 0x5 PUSH1 0x0 CALLER PUSH20 0xFFFFFFFFFFFFFFFFFFFFFFFFFFFFFFFFFFFFFFFF AND PUSH20 0xFFFFFFFFFFFFFFFFFFFFFFFFFFFFFFFFFFFFFFFF AND DUP2 MSTORE PUSH1 0x20 ADD SWAP1 DUP2 MSTORE PUSH1 0x20 ADD PUSH1 0x0 KECCAK256 PUSH1 0x0 DUP5 PUSH8 0xFFFFFFFFFFFFFFFF AND DUP2 MSTORE PUSH1 0x20 ADD SWAP1 DUP2 MSTORE PUSH1 0x20 ADD PUSH1 0x0 KECCAK256 PUSH1 0x0 SWAP1 SLOAD SWAP1 PUSH2 0x100 EXP SWAP1 DIV PUSH1 0xFF AND ISZERO ISZERO EQ PUSH2 0xF18 JUMPI PUSH1 0x0 DUP1 REVERT JUMPDEST PUSH1 0x0 PUSH1 0x2 PUSH1 0x0 DUP5 PUSH8 0xFFFFFFFFFFFFFFFF AND PUSH8 0xFFFFFFFFFFFFFFFF AND DUP2 MSTORE PUSH1 0x20 ADD SWAP1 DUP2 MSTORE PUSH1 0x20 ADD PUSH1 0x0 KECCAK256 PUSH1 0x2 ADD PUSH1 0x0 SWAP1 SLOAD SWAP1 PUSH2 0x100 EXP SWAP1 DIV PUSH20 0xFFFFFFFFFFFFFFFFFFFFFFFFFFFFFFFFFFFFFFFF AND SWAP1 POP PUSH1 0x0 PUSH1 0x2 PUSH1 0x0 DUP6 PUSH8 0xFFFFFFFFFFFFFFFF AND PUSH8 0xFFFFFFFFFFFFFFFF AND DUP2 MSTORE PUSH1 0x20 ADD SWAP1 DUP2 MSTORE PUSH1 0x20 ADD PUSH1 0x0 KECCAK256 PUSH1 0x0 ADD PUSH1 0x10 SWAP1 SLOAD SWAP1 PUSH2 0x100 EXP SWAP1 DIV PUSH16 0xFFFFFFFFFFFFFFFFFFFFFFFFFFFFFFFF AND PUSH1 0x2 PUSH1 0x0 DUP7 PUSH8 0xFFFFFFFFFFFFFFFF AND PUSH8 0xFFFFFFFFFFFFFFFF AND DUP2 MSTORE PUSH1 0x20 ADD SWAP1 DUP2 MSTORE PUSH1 0x20 ADD PUSH1 0x0 KECCAK256 PUSH1 0x1 ADD PUSH1 0x0 SWAP1 SLOAD SWAP1 PUSH2 0x100 EXP SWAP1 DIV PUSH16 0xFFFFFFFFFFFFFFFFFFFFFFFFFFFFFFFF AND PUSH2 0x1001 SWAP2 SWAP1 PUSH2 0x21B4 JUMP JUMPDEST PUSH16 0xFFFFFFFFFFFFFFFFFFFFFFFFFFFFFFFF AND SWAP1 POP PUSH1 0x0 PUSH2 0x10AD PUSH1 0x2 PUSH1 0x0 DUP8 PUSH8 0xFFFFFFFFFFFFFFFF AND PUSH8 0xFFFFFFFFFFFFFFFF AND DUP2 MSTORE PUSH1 0x20 ADD SWAP1 DUP2 MSTORE PUSH1 0x20 ADD PUSH1 0x0 KECCAK256 PUSH1 0x1 ADD PUSH1 0x0 SWAP1 SLOAD SWAP1 PUSH2 0x100 EXP SWAP1 DIV PUSH16 0xFFFFFFFFFFFFFFFFFFFFFFFFFFFFFFFF AND PUSH1 0x2 PUSH1 0x0 DUP9 PUSH8 0xFFFFFFFFFFFFFFFF AND PUSH8 0xFFFFFFFFFFFFFFFF AND DUP2 MSTORE PUSH1 0x20 ADD SWAP1 DUP2 MSTORE PUSH1 0x20 ADD PUSH1 0x0 KECCAK256 PUSH1 0x0 ADD PUSH1 0x10 SWAP1 SLOAD SWAP1 PUSH2 0x100 EXP SWAP1 DIV PUSH16 0xFFFFFFFFFFFFFFFFFFFFFFFFFFFFFFFF AND PUSH2 0x11C3 JUMP JUMPDEST SWAP1 POP PUSH1 0x0 PUSH2 0x10BA DUP4 PUSH2 0x1B0D JUMP JUMPDEST SWAP1 POP PUSH2 0x10E7 ADDRESS DUP3 DUP7 PUSH20 0xFFFFFFFFFFFFFFFFFFFFFFFFFFFFFFFFFFFFFFFF AND PUSH2 0x1BB4 SWAP1 SWAP3 SWAP2 SWAP1 PUSH4 0xFFFFFFFF AND JUMP JUMPDEST PUSH2 0x111D DUP6 DUP3 DUP6 PUSH2 0x10F7 SWAP2 SWAP1 PUSH2 0x2180 JUMP JUMPDEST DUP7 PUSH20 0xFFFFFFFFFFFFFFFFFFFFFFFFFFFFFFFFFFFFFFFF AND PUSH2 0x1BB4 SWAP1 SWAP3 SWAP2 SWAP1 PUSH4 0xFFFFFFFF AND JUMP JUMPDEST PUSH2 0x1148 DUP6 DUP4 DUP7 PUSH20 0xFFFFFFFFFFFFFFFFFFFFFFFFFFFFFFFFFFFFFFFF AND PUSH2 0x1BB4 SWAP1 SWAP3 SWAP2 SWAP1 PUSH4 0xFFFFFFFF AND JUMP JUMPDEST PUSH1 0x1 PUSH1 0x5 PUSH1 0x0 CALLER PUSH20 0xFFFFFFFFFFFFFFFFFFFFFFFFFFFFFFFFFFFFFFFF AND PUSH20 0xFFFFFFFFFFFFFFFFFFFFFFFFFFFFFFFFFFFFFFFF AND DUP2 MSTORE PUSH1 0x20 ADD SWAP1 DUP2 MSTORE PUSH1 0x20 ADD PUSH1 0x0 KECCAK256 PUSH1 0x0 DUP9 PUSH8 0xFFFFFFFFFFFFFFFF AND DUP2 MSTORE PUSH1 0x20 ADD SWAP1 DUP2 MSTORE PUSH1 0x20 ADD PUSH1 0x0 KECCAK256 PUSH1 0x0 PUSH2 0x100 EXP DUP2 SLOAD DUP2 PUSH1 0xFF MUL NOT AND SWAP1 DUP4 ISZERO ISZERO MUL OR SWAP1 SSTORE POP POP POP POP POP POP POP JUMP JUMPDEST PUSH1 0x0 DUP1 DUP3 DUP5 PUSH2 0x11D2 SWAP2 SWAP1 PUSH2 0x21B4 JUMP JUMPDEST PUSH16 0xFFFFFFFFFFFFFFFFFFFFFFFFFFFFFFFF AND SWAP1 POP PUSH9 0x56BC75E2D63100000 DUP2 LT ISZERO DUP1 ISZERO PUSH2 0x1207 JUMPI POP PUSH9 0x3635C9ADC5DEA00000 DUP2 LT JUMPDEST ISZERO PUSH2 0x122D JUMPI PUSH1 0x64 PUSH1 0x32 DUP3 PUSH2 0x121B SWAP2 SWAP1 PUSH2 0x21FE JUMP JUMPDEST PUSH2 0x1225 SWAP2 SWAP1 PUSH2 0x2287 JUMP JUMPDEST SWAP2 POP POP PUSH2 0x12DA JUMP JUMPDEST PUSH9 0x3635C9ADC5DEA00000 DUP2 LT ISZERO DUP1 ISZERO PUSH2 0x124F JUMPI POP PUSH10 0x21E19E0C9BAB2400000 DUP2 LT JUMPDEST ISZERO PUSH2 0x1275 JUMPI PUSH1 0x64 PUSH1 0x28 DUP3 PUSH2 0x1263 SWAP2 SWAP1 PUSH2 0x21FE JUMP JUMPDEST PUSH2 0x126D SWAP2 SWAP1 PUSH2 0x2287 JUMP JUMPDEST SWAP2 POP POP PUSH2 0x12DA JUMP JUMPDEST PUSH10 0x21E19E0C9BAB2400000 DUP2 GT ISZERO PUSH2 0x12A8 JUMPI PUSH1 0x64 PUSH1 0x19 DUP3 PUSH2 0x1296 SWAP2 SWAP1 PUSH2 0x21FE JUMP JUMPDEST PUSH2 0x12A0 SWAP2 SWAP1 PUSH2 0x2287 JUMP JUMPDEST SWAP2 POP POP PUSH2 0x12DA JUMP JUMPDEST PUSH1 0x40 MLOAD PUSH32 0xE008B5F900000000000000000000000000000000000000000000000000000000 DUP2 MSTORE PUSH1 0x4 ADD PUSH1 0x40 MLOAD DUP1 SWAP2 SUB SWAP1 REVERT JUMPDEST SWAP3 SWAP2 POP POP JUMP JUMPDEST PUSH1 0x6 PUSH1 0x20 MSTORE DUP2 PUSH1 0x0 MSTORE PUSH1 0x40 PUSH1 0x0 KECCAK256 PUSH1 0x20 MSTORE DUP1 PUSH1 0x0 MSTORE PUSH1 0x40 PUSH1 0x0 KECCAK256 PUSH1 0x0 SWAP2 POP SWAP2 POP SWAP1 SLOAD SWAP1 PUSH2 0x100 EXP SWAP1 DIV PUSH1 0xFF AND DUP2 JUMP JUMPDEST PUSH1 0x0 PUSH2 0x131A DUP3 PUSH2 0x1AB9 JUMP JUMPDEST SWAP1 POP DUP1 PUSH20 0xFFFFFFFFFFFFFFFFFFFFFFFFFFFFFFFFFFFFFFFF AND CALLER PUSH20 0xFFFFFFFFFFFFFFFFFFFFFFFFFFFFFFFFFFFFFFFF AND EQ PUSH2 0x1381 JUMPI PUSH1 0x40 MLOAD PUSH32 0x472E017E00000000000000000000000000000000000000000000000000000000 DUP2 MSTORE PUSH1 0x4 ADD PUSH1 0x40 MLOAD DUP1 SWAP2 SUB SWAP1 REVERT JUMPDEST PUSH1 0x3 PUSH1 0x2 PUSH1 0x0 DUP5 PUSH8 0xFFFFFFFFFFFFFFFF AND PUSH8 0xFFFFFFFFFFFFFFFF AND DUP2 MSTORE PUSH1 0x20 ADD SWAP1 DUP2 MSTORE PUSH1 0x20 ADD PUSH1 0x0 KECCAK256 PUSH1 0x0 ADD PUSH1 0x0 SWAP1 SLOAD SWAP1 PUSH2 0x100 EXP SWAP1 DIV PUSH1 0xFF AND PUSH1 0xFF AND EQ PUSH2 0x13F5 JUMPI PUSH1 0x40 MLOAD PUSH32 0xDE4461CD00000000000000000000000000000000000000000000000000000000 DUP2 MSTORE PUSH1 0x4 ADD PUSH1 0x40 MLOAD DUP1 SWAP2 SUB SWAP1 REVERT JUMPDEST PUSH1 0x0 PUSH1 0x2 PUSH1 0x0 DUP5 PUSH8 0xFFFFFFFFFFFFFFFF AND PUSH8 0xFFFFFFFFFFFFFFFF AND DUP2 MSTORE PUSH1 0x20 ADD SWAP1 DUP2 MSTORE PUSH1 0x20 ADD PUSH1 0x0 KECCAK256 PUSH1 0x0 ADD PUSH1 0x10 SWAP1 SLOAD SWAP1 PUSH2 0x100 EXP SWAP1 DIV PUSH16 0xFFFFFFFFFFFFFFFFFFFFFFFFFFFFFFFF AND SWAP1 POP PUSH1 0x0 PUSH1 0x2 PUSH1 0x0 DUP6 PUSH8 0xFFFFFFFFFFFFFFFF AND PUSH8 0xFFFFFFFFFFFFFFFF AND DUP2 MSTORE PUSH1 0x20 ADD SWAP1 DUP2 MSTORE PUSH1 0x20 ADD PUSH1 0x0 KECCAK256 PUSH1 0x1 ADD PUSH1 0x0 SWAP1 SLOAD SWAP1 PUSH2 0x100 EXP SWAP1 DIV PUSH16 0xFFFFFFFFFFFFFFFFFFFFFFFFFFFFFFFF AND SWAP1 POP PUSH1 0x0 PUSH2 0x14B3 DUP3 DUP5 PUSH2 0x149C SWAP2 SWAP1 PUSH2 0x21B4 JUMP JUMPDEST PUSH16 0xFFFFFFFFFFFFFFFFFFFFFFFFFFFFFFFF AND PUSH2 0x1B0D JUMP JUMPDEST SWAP1 POP PUSH2 0x1502 ADDRESS DUP3 PUSH1 0x1 PUSH1 0x0 SWAP1 SLOAD SWAP1 PUSH2 0x100 EXP SWAP1 DIV PUSH20 0xFFFFFFFFFFFFFFFFFFFFFFFFFFFFFFFFFFFFFFFF AND PUSH20 0xFFFFFFFFFFFFFFFFFFFFFFFFFFFFFFFFFFFFFFFF AND PUSH2 0x1BB4 SWAP1 SWAP3 SWAP2 SWAP1 PUSH4 0xFFFFFFFF AND JUMP JUMPDEST PUSH2 0x156C DUP5 DUP3 DUP6 PUSH16 0xFFFFFFFFFFFFFFFFFFFFFFFFFFFFFFFF AND PUSH2 0x1524 SWAP2 SWAP1 PUSH2 0x2180 JUMP JUMPDEST PUSH1 0x1 PUSH1 0x0 SWAP1 SLOAD SWAP1 PUSH2 0x100 EXP SWAP1 DIV PUSH20 0xFFFFFFFFFFFFFFFFFFFFFFFFFFFFFFFFFFFFFFFF AND PUSH20 0xFFFFFFFFFFFFFFFFFFFFFFFFFFFFFFFFFFFFFFFF AND PUSH2 0x1BB4 SWAP1 SWAP3 SWAP2 SWAP1 PUSH4 0xFFFFFFFF AND JUMP JUMPDEST PUSH1 0x4 PUSH1 0x2 PUSH1 0x0 DUP8 PUSH8 0xFFFFFFFFFFFFFFFF AND PUSH8 0xFFFFFFFFFFFFFFFF AND DUP2 MSTORE PUSH1 0x20 ADD SWAP1 DUP2 MSTORE PUSH1 0x20 ADD PUSH1 0x0 KECCAK256 PUSH1 0x0 ADD PUSH1 0x0 PUSH2 0x100 EXP DUP2 SLOAD DUP2 PUSH1 0xFF MUL NOT AND SWAP1 DUP4 PUSH1 0xFF AND MUL OR SWAP1 SSTORE POP POP POP POP POP POP JUMP JUMPDEST PUSH1 0x0 DUP2 DUP4 PUSH2 0x15C5 SWAP2 SWAP1 PUSH2 0x21B4 JUMP JUMPDEST PUSH16 0xFFFFFFFFFFFFFFFFFFFFFFFFFFFFFFFF AND SWAP1 POP PUSH9 0x56BC75E2D63100000 DUP2 LT ISZERO PUSH2 0x161C JUMPI PUSH1 0x40 MLOAD PUSH32 0xE008B5F900000000000000000000000000000000000000000000000000000000 DUP2 MSTORE PUSH1 0x4 ADD PUSH1 0x40 MLOAD DUP1 SWAP2 SUB SWAP1 REVERT JUMPDEST PUSH1 0x0 PUSH1 0x40 MLOAD DUP1 PUSH2 0x100 ADD PUSH1 0x40 MSTORE DUP1 PUSH1 0x1 PUSH1 0xFF AND DUP2 MSTORE PUSH1 0x20 ADD PUSH1 0x0 PUSH1 0x7 SWAP1 SLOAD SWAP1 PUSH2 0x100 EXP SWAP1 DIV PUSH8 0xFFFFFFFFFFFFFFFF AND PUSH8 0xFFFFFFFFFFFFFFFF AND DUP2 MSTORE PUSH1 0x20 ADD TIMESTAMP PUSH7 0xFFFFFFFFFFFFFF AND DUP2 MSTORE PUSH1 0x20 ADD DUP6 PUSH16 0xFFFFFFFFFFFFFFFFFFFFFFFFFFFFFFFF AND DUP2 MSTORE PUSH1 0x20 ADD DUP5 PUSH16 0xFFFFFFFFFFFFFFFFFFFFFFFFFFFFFFFF AND DUP2 MSTORE PUSH1 0x20 ADD DUP7 PUSH20 0xFFFFFFFFFFFFFFFFFFFFFFFFFFFFFFFFFFFFFFFF AND DUP2 MSTORE PUSH1 0x20 ADD CALLER PUSH20 0xFFFFFFFFFFFFFFFFFFFFFFFFFFFFFFFFFFFFFFFF AND DUP2 MSTORE PUSH1 0x20 ADD ADDRESS PUSH20 0xFFFFFFFFFFFFFFFFFFFFFFFFFFFFFFFFFFFFFFFF AND DUP2 MSTORE POP SWAP1 POP DUP1 PUSH1 0x2 PUSH1 0x0 DUP1 PUSH1 0x7 SWAP1 SLOAD SWAP1 PUSH2 0x100 EXP SWAP1 DIV PUSH8 0xFFFFFFFFFFFFFFFF AND PUSH8 0xFFFFFFFFFFFFFFFF AND PUSH8 0xFFFFFFFFFFFFFFFF AND DUP2 MSTORE PUSH1 0x20 ADD SWAP1 DUP2 MSTORE PUSH1 0x20 ADD PUSH1 0x0 KECCAK256 PUSH1 0x0 DUP3 ADD MLOAD DUP2 PUSH1 0x0 ADD PUSH1 0x0 PUSH2 0x100 EXP DUP2 SLOAD DUP2 PUSH1 0xFF MUL NOT AND SWAP1 DUP4 PUSH1 0xFF AND MUL OR SWAP1 SSTORE POP PUSH1 0x20 DUP3 ADD MLOAD DUP2 PUSH1 0x0 ADD PUSH1 0x1 PUSH2 0x100 EXP DUP2 SLOAD DUP2 PUSH8 0xFFFFFFFFFFFFFFFF MUL NOT AND SWAP1 DUP4 PUSH8 0xFFFFFFFFFFFFFFFF AND MUL OR SWAP1 SSTORE POP PUSH1 0x40 DUP3 ADD MLOAD DUP2 PUSH1 0x0 ADD PUSH1 0x9 PUSH2 0x100 EXP DUP2 SLOAD DUP2 PUSH7 0xFFFFFFFFFFFFFF MUL NOT AND SWAP1 DUP4 PUSH7 0xFFFFFFFFFFFFFF AND MUL OR SWAP1 SSTORE POP PUSH1 0x60 DUP3 ADD MLOAD DUP2 PUSH1 0x0 ADD PUSH1 0x10 PUSH2 0x100 EXP DUP2 SLOAD DUP2 PUSH16 0xFFFFFFFFFFFFFFFFFFFFFFFFFFFFFFFF MUL NOT AND SWAP1 DUP4 PUSH16 0xFFFFFFFFFFFFFFFFFFFFFFFFFFFFFFFF AND MUL OR SWAP1 SSTORE POP PUSH1 0x80 DUP3 ADD MLOAD DUP2 PUSH1 0x1 ADD PUSH1 0x0 PUSH2 0x100 EXP DUP2 SLOAD DUP2 PUSH16 0xFFFFFFFFFFFFFFFFFFFFFFFFFFFFFFFF MUL NOT AND SWAP1 DUP4 PUSH16 0xFFFFFFFFFFFFFFFFFFFFFFFFFFFFFFFF AND MUL OR SWAP1 SSTORE POP PUSH1 0xA0 DUP3 ADD MLOAD DUP2 PUSH1 0x2 ADD PUSH1 0x0 PUSH2 0x100 EXP DUP2 SLOAD DUP2 PUSH20 0xFFFFFFFFFFFFFFFFFFFFFFFFFFFFFFFFFFFFFFFF MUL NOT AND SWAP1 DUP4 PUSH20 0xFFFFFFFFFFFFFFFFFFFFFFFFFFFFFFFFFFFFFFFF AND MUL OR SWAP1 SSTORE POP PUSH1 0xC0 DUP3 ADD MLOAD DUP2 PUSH1 0x3 ADD PUSH1 0x0 PUSH2 0x100 EXP DUP2 SLOAD DUP2 PUSH20 0xFFFFFFFFFFFFFFFFFFFFFFFFFFFFFFFFFFFFFFFF MUL NOT AND SWAP1 DUP4 PUSH20 0xFFFFFFFFFFFFFFFFFFFFFFFFFFFFFFFFFFFFFFFF AND MUL OR SWAP1 SSTORE POP PUSH1 0xE0 DUP3 ADD MLOAD DUP2 PUSH1 0x4 ADD PUSH1 0x0 PUSH2 0x100 EXP DUP2 SLOAD DUP2 PUSH20 0xFFFFFFFFFFFFFFFFFFFFFFFFFFFFFFFFFFFFFFFF MUL NOT AND SWAP1 DUP4 PUSH20 0xFFFFFFFFFFFFFFFFFFFFFFFFFFFFFFFFFFFFFFFF AND MUL OR SWAP1 SSTORE POP SWAP1 POP POP PUSH2 0x192A CALLER ADDRESS DUP5 DUP9 PUSH20 0xFFFFFFFFFFFFFFFFFFFFFFFFFFFFFFFFFFFFFFFF AND PUSH2 0x1A30 SWAP1 SWAP4 SWAP3 SWAP2 SWAP1 PUSH4 0xFFFFFFFF AND JUMP JUMPDEST PUSH1 0x0 PUSH1 0x7 DUP2 DUP2 SWAP1 SLOAD SWAP1 PUSH2 0x100 EXP SWAP1 DIV PUSH8 0xFFFFFFFFFFFFFFFF AND DUP1 SWAP3 SWAP2 SWAP1 PUSH2 0x1950 SWAP1 PUSH2 0x22B8 JUMP JUMPDEST SWAP2 SWAP1 PUSH2 0x100 EXP DUP2 SLOAD DUP2 PUSH8 0xFFFFFFFFFFFFFFFF MUL NOT AND SWAP1 DUP4 PUSH8 0xFFFFFFFFFFFFFFFF AND MUL OR SWAP1 SSTORE POP POP POP POP POP POP POP JUMP JUMPDEST PUSH1 0x5 PUSH1 0x20 MSTORE DUP2 PUSH1 0x0 MSTORE PUSH1 0x40 PUSH1 0x0 KECCAK256 PUSH1 0x20 MSTORE DUP1 PUSH1 0x0 MSTORE PUSH1 0x40 PUSH1 0x0 KECCAK256 PUSH1 0x0 SWAP2 POP SWAP2 POP SWAP1 SLOAD SWAP1 PUSH2 0x100 EXP SWAP1 DIV PUSH1 0xFF AND DUP2 JUMP JUMPDEST PUSH1 0x7 PUSH1 0x20 MSTORE DUP2 PUSH1 0x0 MSTORE PUSH1 0x40 PUSH1 0x0 KECCAK256 PUSH1 0x20 MSTORE DUP1 PUSH1 0x0 MSTORE PUSH1 0x40 PUSH1 0x0 KECCAK256 PUSH1 0x0 SWAP2 POP SWAP2 POP SWAP1 SLOAD SWAP1 PUSH2 0x100 EXP SWAP1 DIV PUSH1 0xFF AND DUP2 JUMP JUMPDEST PUSH1 0x0 PUSH1 0x2 PUSH1 0x0 DUP4 PUSH8 0xFFFFFFFFFFFFFFFF AND PUSH8 0xFFFFFFFFFFFFFFFF AND DUP2 MSTORE PUSH1 0x20 ADD SWAP1 DUP2 MSTORE PUSH1 0x20 ADD PUSH1 0x0 KECCAK256 PUSH1 0x4 ADD PUSH1 0x0 SWAP1 SLOAD SWAP1 PUSH2 0x100 EXP SWAP1 DIV PUSH20 0xFFFFFFFFFFFFFFFFFFFFFFFFFFFFFFFFFFFFFFFF AND SWAP1 POP SWAP2 SWAP1 POP JUMP JUMPDEST PUSH2 0x1AB3 DUP5 PUSH4 0x23B872DD PUSH1 0xE0 SHL DUP6 DUP6 DUP6 PUSH1 0x40 MLOAD PUSH1 0x24 ADD PUSH2 0x1A51 SWAP4 SWAP3 SWAP2 SWAP1 PUSH2 0x22F8 JUMP JUMPDEST PUSH1 0x40 MLOAD PUSH1 0x20 DUP2 DUP4 SUB SUB DUP2 MSTORE SWAP1 PUSH1 0x40 MSTORE SWAP1 PUSH28 0xFFFFFFFFFFFFFFFFFFFFFFFFFFFFFFFFFFFFFFFFFFFFFFFFFFFFFFFF NOT AND PUSH1 0x20 DUP3 ADD DUP1 MLOAD PUSH28 0xFFFFFFFFFFFFFFFFFFFFFFFFFFFFFFFFFFFFFFFFFFFFFFFFFFFFFFFF DUP4 DUP2 DUP4 AND OR DUP4 MSTORE POP POP POP POP PUSH2 0x1C3A JUMP JUMPDEST POP POP POP POP JUMP JUMPDEST PUSH1 0x0 PUSH1 0x2 PUSH1 0x0 DUP4 PUSH8 0xFFFFFFFFFFFFFFFF AND PUSH8 0xFFFFFFFFFFFFFFFF AND DUP2 MSTORE PUSH1 0x20 ADD SWAP1 DUP2 MSTORE PUSH1 0x20 ADD PUSH1 0x0 KECCAK256 PUSH1 0x3 ADD PUSH1 0x0 SWAP1 SLOAD SWAP1 PUSH2 0x100 EXP SWAP1 DIV PUSH20 0xFFFFFFFFFFFFFFFFFFFFFFFFFFFFFFFFFFFFFFFF AND SWAP1 POP SWAP2 SWAP1 POP JUMP JUMPDEST PUSH1 0x0 PUSH9 0x56BC75E2D63100000 DUP3 LT ISZERO DUP1 ISZERO PUSH2 0x1B30 JUMPI POP PUSH9 0x3635C9ADC5DEA00000 DUP3 LT JUMPDEST ISZERO PUSH2 0x1B49 JUMPI PUSH1 0x64 DUP3 PUSH2 0x1B42 SWAP2 SWAP1 PUSH2 0x2287 JUMP JUMPDEST SWAP1 POP PUSH2 0x1BAF JUMP JUMPDEST PUSH9 0x3635C9ADC5DEA00000 DUP3 LT ISZERO DUP1 ISZERO PUSH2 0x1B6B JUMPI POP PUSH10 0x21E19E0C9BAB2400000 DUP3 LT JUMPDEST ISZERO PUSH2 0x1B84 JUMPI PUSH1 0xC8 DUP3 PUSH2 0x1B7D SWAP2 SWAP1 PUSH2 0x2287 JUMP JUMPDEST SWAP1 POP PUSH2 0x1BAF JUMP JUMPDEST PUSH10 0x21E19E0C9BAB2400000 DUP3 LT PUSH2 0x1BAA JUMPI PUSH2 0x190 DUP3 PUSH2 0x1BA3 SWAP2 SWAP1 PUSH2 0x2287 JUMP JUMPDEST SWAP1 POP PUSH2 0x1BAF JUMP JUMPDEST PUSH1 0x0 SWAP1 POP JUMPDEST SWAP2 SWAP1 POP JUMP JUMPDEST PUSH2 0x1C35 DUP4 PUSH4 0xA9059CBB PUSH1 0xE0 SHL DUP5 DUP5 PUSH1 0x40 MLOAD PUSH1 0x24 ADD PUSH2 0x1BD3 SWAP3 SWAP2 SWAP1 PUSH2 0x232F JUMP JUMPDEST PUSH1 0x40 MLOAD PUSH1 0x20 DUP2 DUP4 SUB SUB DUP2 MSTORE SWAP1 PUSH1 0x40 MSTORE SWAP1 PUSH28 0xFFFFFFFFFFFFFFFFFFFFFFFFFFFFFFFFFFFFFFFFFFFFFFFFFFFFFFFF NOT AND PUSH1 0x20 DUP3 ADD DUP1 MLOAD PUSH28 0xFFFFFFFFFFFFFFFFFFFFFFFFFFFFFFFFFFFFFFFFFFFFFFFFFFFFFFFF DUP4 DUP2 DUP4 AND OR DUP4 MSTORE POP POP POP POP PUSH2 0x1C3A JUMP JUMPDEST POP POP POP JUMP JUMPDEST PUSH1 0x0 PUSH2 0x1C9C DUP3 PUSH1 0x40 MLOAD DUP1 PUSH1 0x40 ADD PUSH1 0x40 MSTORE DUP1 PUSH1 0x20 DUP2 MSTORE PUSH1 0x20 ADD PUSH32 0x5361666545524332303A206C6F772D6C6576656C2063616C6C206661696C6564 DUP2 MSTORE POP DUP6 PUSH20 0xFFFFFFFFFFFFFFFFFFFFFFFFFFFFFFFFFFFFFFFF AND PUSH2 0x1D02 SWAP1 SWAP3 SWAP2 SWAP1 PUSH4 0xFFFFFFFF AND JUMP JUMPDEST SWAP1 POP PUSH1 0x0 DUP2 MLOAD EQ DUP1 PUSH2 0x1CBE JUMPI POP DUP1 DUP1 PUSH1 0x20 ADD SWAP1 MLOAD DUP2 ADD SWAP1 PUSH2 0x1CBD SWAP2 SWAP1 PUSH2 0x2384 JUMP JUMPDEST JUMPDEST PUSH2 0x1CFD JUMPI PUSH1 0x40 MLOAD PUSH32 0x8C379A000000000000000000000000000000000000000000000000000000000 DUP2 MSTORE PUSH1 0x4 ADD PUSH2 0x1CF4 SWAP1 PUSH2 0x2434 JUMP JUMPDEST PUSH1 0x40 MLOAD DUP1 SWAP2 SUB SWAP1 REVERT JUMPDEST POP POP POP JUMP JUMPDEST PUSH1 0x60 PUSH2 0x1D11 DUP5 DUP5 PUSH1 0x0 DUP6 PUSH2 0x1D1A JUMP JUMPDEST SWAP1 POP SWAP4 SWAP3 POP POP POP JUMP JUMPDEST PUSH1 0x60 DUP3 SELFBALANCE LT ISZERO PUSH2 0x1D5F JUMPI PUSH1 0x40 MLOAD PUSH32 0x8C379A000000000000000000000000000000000000000000000000000000000 DUP2 MSTORE PUSH1 0x4 ADD PUSH2 0x1D56 SWAP1 PUSH2 0x24C6 JUMP JUMPDEST PUSH1 0x40 MLOAD DUP1 SWAP2 SUB SWAP1 REVERT JUMPDEST PUSH1 0x0 DUP1 DUP7 PUSH20 0xFFFFFFFFFFFFFFFFFFFFFFFFFFFFFFFFFFFFFFFF AND DUP6 DUP8 PUSH1 0x40 MLOAD PUSH2 0x1D88 SWAP2 SWAP1 PUSH2 0x2560 JUMP JUMPDEST PUSH1 0x0 PUSH1 0x40 MLOAD DUP1 DUP4 SUB DUP2 DUP6 DUP8 GAS CALL SWAP3 POP POP POP RETURNDATASIZE DUP1 PUSH1 0x0 DUP2 EQ PUSH2 0x1DC5 JUMPI PUSH1 0x40 MLOAD SWAP2 POP PUSH1 0x1F NOT PUSH1 0x3F RETURNDATASIZE ADD AND DUP3 ADD PUSH1 0x40 MSTORE RETURNDATASIZE DUP3 MSTORE RETURNDATASIZE PUSH1 0x0 PUSH1 0x20 DUP5 ADD RETURNDATACOPY PUSH2 0x1DCA JUMP JUMPDEST PUSH1 0x60 SWAP2 POP JUMPDEST POP SWAP2 POP SWAP2 POP PUSH2 0x1DDB DUP8 DUP4 DUP4 DUP8 PUSH2 0x1DE7 JUMP JUMPDEST SWAP3 POP POP POP SWAP5 SWAP4 POP POP POP POP JUMP JUMPDEST PUSH1 0x60 DUP4 ISZERO PUSH2 0x1E4A JUMPI PUSH1 0x0 DUP4 MLOAD EQ ISZERO PUSH2 0x1E42 JUMPI PUSH2 0x1E02 DUP6 PUSH2 0x1E5D JUMP JUMPDEST PUSH2 0x1E41 JUMPI PUSH1 0x40 MLOAD PUSH32 0x8C379A000000000000000000000000000000000000000000000000000000000 DUP2 MSTORE PUSH1 0x4 ADD PUSH2 0x1E38 SWAP1 PUSH2 0x25C3 JUMP JUMPDEST PUSH1 0x40 MLOAD DUP1 SWAP2 SUB SWAP1 REVERT JUMPDEST JUMPDEST DUP3 SWAP1 POP PUSH2 0x1E55 JUMP JUMPDEST PUSH2 0x1E54 DUP4 DUP4 PUSH2 0x1E80 JUMP JUMPDEST JUMPDEST SWAP5 SWAP4 POP POP POP POP JUMP JUMPDEST PUSH1 0x0 DUP1 DUP3 PUSH20 0xFFFFFFFFFFFFFFFFFFFFFFFFFFFFFFFFFFFFFFFF AND EXTCODESIZE GT SWAP1 POP SWAP2 SWAP1 POP JUMP JUMPDEST PUSH1 0x0 DUP3 MLOAD GT ISZERO PUSH2 0x1E93 JUMPI DUP2 MLOAD DUP1 DUP4 PUSH1 0x20 ADD REVERT JUMPDEST DUP1 PUSH1 0x40 MLOAD PUSH32 0x8C379A000000000000000000000000000000000000000000000000000000000 DUP2 MSTORE PUSH1 0x4 ADD PUSH2 0x1EC7 SWAP2 SWAP1 PUSH2 0x2638 JUMP JUMPDEST PUSH1 0x40 MLOAD DUP1 SWAP2 SUB SWAP1 REVERT JUMPDEST PUSH1 0x0 DUP1 REVERT JUMPDEST PUSH1 0x0 PUSH8 0xFFFFFFFFFFFFFFFF DUP3 AND SWAP1 POP SWAP2 SWAP1 POP JUMP JUMPDEST PUSH2 0x1EF2 DUP2 PUSH2 0x1ED5 JUMP JUMPDEST DUP2 EQ PUSH2 0x1EFD JUMPI PUSH1 0x0 DUP1 REVERT JUMPDEST POP JUMP JUMPDEST PUSH1 0x0 DUP2 CALLDATALOAD SWAP1 POP PUSH2 0x1F0F DUP2 PUSH2 0x1EE9 JUMP JUMPDEST SWAP3 SWAP2 POP POP JUMP JUMPDEST PUSH1 0x0 PUSH1 0x20 DUP3 DUP5 SUB SLT ISZERO PUSH2 0x1F2B JUMPI PUSH2 0x1F2A PUSH2 0x1ED0 JUMP JUMPDEST JUMPDEST PUSH1 0x0 PUSH2 0x1F39 DUP5 DUP3 DUP6 ADD PUSH2 0x1F00 JUMP JUMPDEST SWAP2 POP POP SWAP3 SWAP2 POP POP JUMP JUMPDEST PUSH1 0x0 PUSH20 0xFFFFFFFFFFFFFFFFFFFFFFFFFFFFFFFFFFFFFFFF DUP3 AND SWAP1 POP SWAP2 SWAP1 POP JUMP JUMPDEST PUSH1 0x0 PUSH2 0x1F6D DUP3 PUSH2 0x1F42 JUMP JUMPDEST SWAP1 POP SWAP2 SWAP1 POP JUMP JUMPDEST PUSH2 0x1F7D DUP2 PUSH2 0x1F62 JUMP JUMPDEST DUP2 EQ PUSH2 0x1F88 JUMPI PUSH1 0x0 DUP1 REVERT JUMPDEST POP JUMP JUMPDEST PUSH1 0x0 DUP2 CALLDATALOAD SWAP1 POP PUSH2 0x1F9A DUP2 PUSH2 0x1F74 JUMP JUMPDEST SWAP3 SWAP2 POP POP JUMP JUMPDEST PUSH1 0x0 DUP2 SWAP1 POP SWAP2 SWAP1 POP JUMP JUMPDEST PUSH2 0x1FB3 DUP2 PUSH2 0x1FA0 JUMP JUMPDEST DUP2 EQ PUSH2 0x1FBE JUMPI PUSH1 0x0 DUP1 REVERT JUMPDEST POP JUMP JUMPDEST PUSH1 0x0 DUP2 CALLDATALOAD SWAP1 POP PUSH2 0x1FD0 DUP2 PUSH2 0x1FAA JUMP JUMPDEST SWAP3 SWAP2 POP POP JUMP JUMPDEST PUSH1 0x0 DUP1 PUSH1 0x40 DUP4 DUP6 SUB SLT ISZERO PUSH2 0x1FED JUMPI PUSH2 0x1FEC PUSH2 0x1ED0 JUMP JUMPDEST JUMPDEST PUSH1 0x0 PUSH2 0x1FFB DUP6 DUP3 DUP7 ADD PUSH2 0x1F8B JUMP JUMPDEST SWAP3 POP POP PUSH1 0x20 PUSH2 0x200C DUP6 DUP3 DUP7 ADD PUSH2 0x1FC1 JUMP JUMPDEST SWAP2 POP POP SWAP3 POP SWAP3 SWAP1 POP JUMP JUMPDEST PUSH1 0x0 DUP2 ISZERO ISZERO SWAP1 POP SWAP2 SWAP1 POP JUMP JUMPDEST PUSH2 0x202B DUP2 PUSH2 0x2016 JUMP JUMPDEST DUP3 MSTORE POP POP JUMP JUMPDEST PUSH1 0x0 PUSH1 0x20 DUP3 ADD SWAP1 POP PUSH2 0x2046 PUSH1 0x0 DUP4 ADD DUP5 PUSH2 0x2022 JUMP JUMPDEST SWAP3 SWAP2 POP POP JUMP JUMPDEST PUSH1 0x0 PUSH16 0xFFFFFFFFFFFFFFFFFFFFFFFFFFFFFFFF DUP3 AND SWAP1 POP SWAP2 SWAP1 POP JUMP JUMPDEST PUSH2 0x2071 DUP2 PUSH2 0x204C JUMP JUMPDEST DUP2 EQ PUSH2 0x207C JUMPI PUSH1 0x0 DUP1 REVERT JUMPDEST POP JUMP JUMPDEST PUSH1 0x0 DUP2 CALLDATALOAD SWAP1 POP PUSH2 0x208E DUP2 PUSH2 0x2068 JUMP JUMPDEST SWAP3 SWAP2 POP POP JUMP JUMPDEST PUSH1 0x0 DUP1 PUSH1 0x40 DUP4 DUP6 SUB SLT ISZERO PUSH2 0x20AB JUMPI PUSH2 0x20AA PUSH2 0x1ED0 JUMP JUMPDEST JUMPDEST PUSH1 0x0 PUSH2 0x20B9 DUP6 DUP3 DUP7 ADD PUSH2 0x207F JUMP JUMPDEST SWAP3 POP POP PUSH1 0x20 PUSH2 0x20CA DUP6 DUP3 DUP7 ADD PUSH2 0x207F JUMP JUMPDEST SWAP2 POP POP SWAP3 POP SWAP3 SWAP1 POP JUMP JUMPDEST PUSH2 0x20DD DUP2 PUSH2 0x1FA0 JUMP JUMPDEST DUP3 MSTORE POP POP JUMP JUMPDEST PUSH1 0x0 PUSH1 0x20 DUP3 ADD SWAP1 POP PUSH2 0x20F8 PUSH1 0x0 DUP4 ADD DUP5 PUSH2 0x20D4 JUMP JUMPDEST SWAP3 SWAP2 POP POP JUMP JUMPDEST PUSH1 0x0 DUP1 PUSH1 0x0 PUSH1 0x60 DUP5 DUP7 SUB SLT ISZERO PUSH2 0x2117 JUMPI PUSH2 0x2116 PUSH2 0x1ED0 JUMP JUMPDEST JUMPDEST PUSH1 0x0 PUSH2 0x2125 DUP7 DUP3 DUP8 ADD PUSH2 0x1F8B JUMP JUMPDEST SWAP4 POP POP PUSH1 0x20 PUSH2 0x2136 DUP7 DUP3 DUP8 ADD PUSH2 0x207F JUMP JUMPDEST SWAP3 POP POP PUSH1 0x40 PUSH2 0x2147 DUP7 DUP3 DUP8 ADD PUSH2 0x207F JUMP JUMPDEST SWAP2 POP POP SWAP3 POP SWAP3 POP SWAP3 JUMP JUMPDEST PUSH32 0x4E487B7100000000000000000000000000000000000000000000000000000000 PUSH1 0x0 MSTORE PUSH1 0x11 PUSH1 0x4 MSTORE PUSH1 0x24 PUSH1 0x0 REVERT JUMPDEST PUSH1 0x0 PUSH2 0x218B DUP3 PUSH2 0x1FA0 JUMP JUMPDEST SWAP2 POP PUSH2 0x2196 DUP4 PUSH2 0x1FA0 JUMP JUMPDEST SWAP3 POP DUP3 DUP3 LT ISZERO PUSH2 0x21A9 JUMPI PUSH2 0x21A8 PUSH2 0x2151 JUMP JUMPDEST JUMPDEST DUP3 DUP3 SUB SWAP1 POP SWAP3 SWAP2 POP POP JUMP JUMPDEST PUSH1 0x0 PUSH2 0x21BF DUP3 PUSH2 0x204C JUMP JUMPDEST SWAP2 POP PUSH2 0x21CA DUP4 PUSH2 0x204C JUMP JUMPDEST SWAP3 POP DUP2 PUSH16 0xFFFFFFFFFFFFFFFFFFFFFFFFFFFFFFFF DIV DUP4 GT DUP3 ISZERO ISZERO AND ISZERO PUSH2 0x21F3 JUMPI PUSH2 0x21F2 PUSH2 0x2151 JUMP JUMPDEST JUMPDEST DUP3 DUP3 MUL SWAP1 POP SWAP3 SWAP2 POP POP JUMP JUMPDEST PUSH1 0x0 PUSH2 0x2209 DUP3 PUSH2 0x1FA0 JUMP JUMPDEST SWAP2 POP PUSH2 0x2214 DUP4 PUSH2 0x1FA0 JUMP JUMPDEST SWAP3 POP DUP2 PUSH32 0xFFFFFFFFFFFFFFFFFFFFFFFFFFFFFFFFFFFFFFFFFFFFFFFFFFFFFFFFFFFFFFFF DIV DUP4 GT DUP3 ISZERO ISZERO AND ISZERO PUSH2 0x224D JUMPI PUSH2 0x224C PUSH2 0x2151 JUMP JUMPDEST JUMPDEST DUP3 DUP3 MUL SWAP1 POP SWAP3 SWAP2 POP POP JUMP JUMPDEST PUSH32 0x4E487B7100000000000000000000000000000000000000000000000000000000 PUSH1 0x0 MSTORE PUSH1 0x12 PUSH1 0x4 MSTORE PUSH1 0x24 PUSH1 0x0 REVERT JUMPDEST PUSH1 0x0 PUSH2 0x2292 DUP3 PUSH2 0x1FA0 JUMP JUMPDEST SWAP2 POP PUSH2 0x229D DUP4 PUSH2 0x1FA0 JUMP JUMPDEST SWAP3 POP DUP3 PUSH2 0x22AD JUMPI PUSH2 0x22AC PUSH2 0x2258 JUMP JUMPDEST JUMPDEST DUP3 DUP3 DIV SWAP1 POP SWAP3 SWAP2 POP POP JUMP JUMPDEST PUSH1 0x0 PUSH2 0x22C3 DUP3 PUSH2 0x1ED5 JUMP JUMPDEST SWAP2 POP PUSH8 0xFFFFFFFFFFFFFFFF DUP3 EQ ISZERO PUSH2 0x22DE JUMPI PUSH2 0x22DD PUSH2 0x2151 JUMP JUMPDEST JUMPDEST PUSH1 0x1 DUP3 ADD SWAP1 POP SWAP2 SWAP1 POP JUMP JUMPDEST PUSH2 0x22F2 DUP2 PUSH2 0x1F62 JUMP JUMPDEST DUP3 MSTORE POP POP JUMP JUMPDEST PUSH1 0x0 PUSH1 0x60 DUP3 ADD SWAP1 POP PUSH2 0x230D PUSH1 0x0 DUP4 ADD DUP7 PUSH2 0x22E9 JUMP JUMPDEST PUSH2 0x231A PUSH1 0x20 DUP4 ADD DUP6 PUSH2 0x22E9 JUMP JUMPDEST PUSH2 0x2327 PUSH1 0x40 DUP4 ADD DUP5 PUSH2 0x20D4 JUMP JUMPDEST SWAP5 SWAP4 POP POP POP POP JUMP JUMPDEST PUSH1 0x0 PUSH1 0x40 DUP3 ADD SWAP1 POP PUSH2 0x2344 PUSH1 0x0 DUP4 ADD DUP6 PUSH2 0x22E9 JUMP JUMPDEST PUSH2 0x2351 PUSH1 0x20 DUP4 ADD DUP5 PUSH2 0x20D4 JUMP JUMPDEST SWAP4 SWAP3 POP POP POP JUMP JUMPDEST PUSH2 0x2361 DUP2 PUSH2 0x2016 JUMP JUMPDEST DUP2 EQ PUSH2 0x236C JUMPI PUSH1 0x0 DUP1 REVERT JUMPDEST POP JUMP JUMPDEST PUSH1 0x0 DUP2 MLOAD SWAP1 POP PUSH2 0x237E DUP2 PUSH2 0x2358 JUMP JUMPDEST SWAP3 SWAP2 POP POP JUMP JUMPDEST PUSH1 0x0 PUSH1 0x20 DUP3 DUP5 SUB SLT ISZERO PUSH2 0x239A JUMPI PUSH2 0x2399 PUSH2 0x1ED0 JUMP JUMPDEST JUMPDEST PUSH1 0x0 PUSH2 0x23A8 DUP5 DUP3 DUP6 ADD PUSH2 0x236F JUMP JUMPDEST SWAP2 POP POP SWAP3 SWAP2 POP POP JUMP JUMPDEST PUSH1 0x0 DUP3 DUP3 MSTORE PUSH1 0x20 DUP3 ADD SWAP1 POP SWAP3 SWAP2 POP POP JUMP JUMPDEST PUSH32 0x5361666545524332303A204552433230206F7065726174696F6E20646964206E PUSH1 0x0 DUP3 ADD MSTORE PUSH32 0x6F74207375636365656400000000000000000000000000000000000000000000 PUSH1 0x20 DUP3 ADD MSTORE POP JUMP JUMPDEST PUSH1 0x0 PUSH2 0x241E PUSH1 0x2A DUP4 PUSH2 0x23B1 JUMP JUMPDEST SWAP2 POP PUSH2 0x2429 DUP3 PUSH2 0x23C2 JUMP JUMPDEST PUSH1 0x40 DUP3 ADD SWAP1 POP SWAP2 SWAP1 POP JUMP JUMPDEST PUSH1 0x0 PUSH1 0x20 DUP3 ADD SWAP1 POP DUP2 DUP2 SUB PUSH1 0x0 DUP4 ADD MSTORE PUSH2 0x244D DUP2 PUSH2 0x2411 JUMP JUMPDEST SWAP1 POP SWAP2 SWAP1 POP JUMP JUMPDEST PUSH32 0x416464726573733A20696E73756666696369656E742062616C616E636520666F PUSH1 0x0 DUP3 ADD MSTORE PUSH32 0x722063616C6C0000000000000000000000000000000000000000000000000000 PUSH1 0x20 DUP3 ADD MSTORE POP JUMP JUMPDEST PUSH1 0x0 PUSH2 0x24B0 PUSH1 0x26 DUP4 PUSH2 0x23B1 JUMP JUMPDEST SWAP2 POP PUSH2 0x24BB DUP3 PUSH2 0x2454 JUMP JUMPDEST PUSH1 0x40 DUP3 ADD SWAP1 POP SWAP2 SWAP1 POP JUMP JUMPDEST PUSH1 0x0 PUSH1 0x20 DUP3 ADD SWAP1 POP DUP2 DUP2 SUB PUSH1 0x0 DUP4 ADD MSTORE PUSH2 0x24DF DUP2 PUSH2 0x24A3 JUMP JUMPDEST SWAP1 POP SWAP2 SWAP1 POP JUMP JUMPDEST PUSH1 0x0 DUP2 MLOAD SWAP1 POP SWAP2 SWAP1 POP JUMP JUMPDEST PUSH1 0x0 DUP2 SWAP1 POP SWAP3 SWAP2 POP POP JUMP JUMPDEST PUSH1 0x0 JUMPDEST DUP4 DUP2 LT ISZERO PUSH2 0x251A JUMPI DUP1 DUP3 ADD MLOAD DUP2 DUP5 ADD MSTORE PUSH1 0x20 DUP2 ADD SWAP1 POP PUSH2 0x24FF JUMP JUMPDEST DUP4 DUP2 GT ISZERO PUSH2 0x2529 JUMPI PUSH1 0x0 DUP5 DUP5 ADD MSTORE JUMPDEST POP POP POP POP JUMP JUMPDEST PUSH1 0x0 PUSH2 0x253A DUP3 PUSH2 0x24E6 JUMP JUMPDEST PUSH2 0x2544 DUP2 DUP6 PUSH2 0x24F1 JUMP JUMPDEST SWAP4 POP PUSH2 0x2554 DUP2 DUP6 PUSH1 0x20 DUP7 ADD PUSH2 0x24FC JUMP JUMPDEST DUP1 DUP5 ADD SWAP2 POP POP SWAP3 SWAP2 POP POP JUMP JUMPDEST PUSH1 0x0 PUSH2 0x256C DUP3 DUP5 PUSH2 0x252F JUMP JUMPDEST SWAP2 POP DUP2 SWAP1 POP SWAP3 SWAP2 POP POP JUMP JUMPDEST PUSH32 0x416464726573733A2063616C6C20746F206E6F6E2D636F6E7472616374000000 PUSH1 0x0 DUP3 ADD MSTORE POP JUMP JUMPDEST PUSH1 0x0 PUSH2 0x25AD PUSH1 0x1D DUP4 PUSH2 0x23B1 JUMP JUMPDEST SWAP2 POP PUSH2 0x25B8 DUP3 PUSH2 0x2577 JUMP JUMPDEST PUSH1 0x20 DUP3 ADD SWAP1 POP SWAP2 SWAP1 POP JUMP JUMPDEST PUSH1 0x0 PUSH1 0x20 DUP3 ADD SWAP1 POP DUP2 DUP2 SUB PUSH1 0x0 DUP4 ADD MSTORE PUSH2 0x25DC DUP2 PUSH2 0x25A0 JUMP JUMPDEST SWAP1 POP SWAP2 SWAP1 POP JUMP JUMPDEST PUSH1 0x0 DUP2 MLOAD SWAP1 POP SWAP2 SWAP1 POP JUMP JUMPDEST PUSH1 0x0 PUSH1 0x1F NOT PUSH1 0x1F DUP4 ADD AND SWAP1 POP SWAP2 SWAP1 POP JUMP JUMPDEST PUSH1 0x0 PUSH2 0x260A DUP3 PUSH2 0x25E3 JUMP JUMPDEST PUSH2 0x2614 DUP2 DUP6 PUSH2 0x23B1 JUMP JUMPDEST SWAP4 POP PUSH2 0x2624 DUP2 DUP6 PUSH1 0x20 DUP7 ADD PUSH2 0x24FC JUMP JUMPDEST PUSH2 0x262D DUP2 PUSH2 0x25EE JUMP JUMPDEST DUP5 ADD SWAP2 POP POP SWAP3 SWAP2 POP POP JUMP JUMPDEST PUSH1 0x0 PUSH1 0x20 DUP3 ADD SWAP1 POP DUP2 DUP2 SUB PUSH1 0x0 DUP4 ADD MSTORE PUSH2 0x2652 DUP2 DUP5 PUSH2 0x25FF JUMP JUMPDEST SWAP1 POP SWAP3 SWAP2 POP POP JUMP INVALID LOG2 PUSH5 0x6970667358 0x22 SLT KECCAK256 0xFB BLOCKHASH DUP6 RETURNDATASIZE 0xA6 0xB1 PUSH11 0x3AF4AF5E68D4C9402A880D 0xE 0x5F DUP1 0xA9 SWAP16 PUSH22 0x30F6E39845AAD83C64736F6C63430008090033000000 "
				},
				"gasEstimates": {
					"creation": {
						"codeDepositCost": "1974400",
						"executionCost": "infinite",
						"totalCost": "infinite"
					},
					"external": {
						"Sale(uint64)": "infinite",
						"buy(address,uint128,uint128)": "infinite",
						"buyerWithdrawAirdorp(uint64)": "infinite",
						"buyerWithdrawRefund(uint64)": "infinite",
						"getPenal(uint128,uint128)": "infinite",
						"injectFutureToken(uint64)": "infinite",
						"solderWithdrawStable(uint64)": "infinite",
						"userIfWithdraw1(address,uint256)": "3132",
						"userIfWithdraw2(address,uint256)": "3175",
						"userIfWithdraw3(address,uint256)": "3109",
						"userIfWithdraw4(address,uint256)": "3197"
					},
					"internal": {
						"getBuyer(uint64)": "2266",
						"getSolder(uint64)": "2266"
					}
				},
				"methodIdentifiers": {
					"Sale(uint64)": "762e9d30",
					"buy(address,uint128,uint128)": "d14485a2",
					"buyerWithdrawAirdorp(uint64)": "c0102de4",
					"buyerWithdrawRefund(uint64)": "2895cb7b",
					"getPenal(uint128,uint128)": "98c50fdd",
					"injectFutureToken(uint64)": "25ac3a73",
					"solderWithdrawStable(uint64)": "77bcd8a6",
					"userIfWithdraw1(address,uint256)": "59de2f60",
					"userIfWithdraw2(address,uint256)": "df0905c6",
					"userIfWithdraw3(address,uint256)": "b8d7f980",
					"userIfWithdraw4(address,uint256)": "fc993ea8"
				}
			},
			"storageLayout": {
				"storage": [
					{
						"astId": 27,
						"contract": "contracts/TimeMarket.sol:TimeMarket",
						"label": "clearingTime",
						"offset": 0,
						"slot": "0",
						"type": "t_uint56"
					},
					{
						"astId": 29,
						"contract": "contracts/TimeMarket.sol:TimeMarket",
						"label": "id",
						"offset": 7,
						"slot": "0",
						"type": "t_uint64"
					},
					{
						"astId": 31,
						"contract": "contracts/TimeMarket.sol:TimeMarket",
						"label": "airdropToken",
						"offset": 0,
						"slot": "1",
						"type": "t_address"
					},
					{
						"astId": 55,
						"contract": "contracts/TimeMarket.sol:TimeMarket",
						"label": "_tradeMes",
						"offset": 0,
						"slot": "2",
						"type": "t_mapping(t_uint64,t_struct(tradeMes)1084_storage)"
					},
					{
						"astId": 61,
						"contract": "contracts/TimeMarket.sol:TimeMarket",
						"label": "ifInject",
						"offset": 0,
						"slot": "3",
						"type": "t_mapping(t_address,t_mapping(t_uint256,t_bool))"
					},
					{
						"astId": 67,
						"contract": "contracts/TimeMarket.sol:TimeMarket",
						"label": "userIfWithdraw1",
						"offset": 0,
						"slot": "4",
						"type": "t_mapping(t_address,t_mapping(t_uint256,t_bool))"
					},
					{
						"astId": 73,
						"contract": "contracts/TimeMarket.sol:TimeMarket",
						"label": "userIfWithdraw2",
						"offset": 0,
						"slot": "5",
						"type": "t_mapping(t_address,t_mapping(t_uint256,t_bool))"
					},
					{
						"astId": 79,
						"contract": "contracts/TimeMarket.sol:TimeMarket",
						"label": "userIfWithdraw3",
						"offset": 0,
						"slot": "6",
						"type": "t_mapping(t_address,t_mapping(t_uint256,t_bool))"
					},
					{
						"astId": 85,
						"contract": "contracts/TimeMarket.sol:TimeMarket",
						"label": "userIfWithdraw4",
						"offset": 0,
						"slot": "7",
						"type": "t_mapping(t_address,t_mapping(t_uint256,t_bool))"
					}
				],
				"types": {
					"t_address": {
						"encoding": "inplace",
						"label": "address",
						"numberOfBytes": "20"
					},
					"t_bool": {
						"encoding": "inplace",
						"label": "bool",
						"numberOfBytes": "1"
					},
					"t_mapping(t_address,t_mapping(t_uint256,t_bool))": {
						"encoding": "mapping",
						"key": "t_address",
						"label": "mapping(address => mapping(uint256 => bool))",
						"numberOfBytes": "32",
						"value": "t_mapping(t_uint256,t_bool)"
					},
					"t_mapping(t_uint256,t_bool)": {
						"encoding": "mapping",
						"key": "t_uint256",
						"label": "mapping(uint256 => bool)",
						"numberOfBytes": "32",
						"value": "t_bool"
					},
					"t_mapping(t_uint64,t_struct(tradeMes)1084_storage)": {
						"encoding": "mapping",
						"key": "t_uint64",
						"label": "mapping(uint64 => struct ITimeStruct.tradeMes)",
						"numberOfBytes": "32",
						"value": "t_struct(tradeMes)1084_storage"
					},
					"t_struct(tradeMes)1084_storage": {
						"encoding": "inplace",
						"label": "struct ITimeStruct.tradeMes",
						"members": [
							{
								"astId": 1069,
								"contract": "contracts/TimeMarket.sol:TimeMarket",
								"label": "tradeState",
								"offset": 0,
								"slot": "0",
								"type": "t_uint8"
							},
							{
								"astId": 1071,
								"contract": "contracts/TimeMarket.sol:TimeMarket",
								"label": "tradeId",
								"offset": 1,
								"slot": "0",
								"type": "t_uint64"
							},
							{
								"astId": 1073,
								"contract": "contracts/TimeMarket.sol:TimeMarket",
								"label": "buyTime",
								"offset": 9,
								"slot": "0",
								"type": "t_uint56"
							},
							{
								"astId": 1075,
								"contract": "contracts/TimeMarket.sol:TimeMarket",
								"label": "buyTotalAmount",
								"offset": 16,
								"slot": "0",
								"type": "t_uint128"
							},
							{
								"astId": 1077,
								"contract": "contracts/TimeMarket.sol:TimeMarket",
								"label": "buyPrice",
								"offset": 0,
								"slot": "1",
								"type": "t_uint128"
							},
							{
								"astId": 1079,
								"contract": "contracts/TimeMarket.sol:TimeMarket",
								"label": "tokenAddress",
								"offset": 0,
								"slot": "2",
								"type": "t_address"
							},
							{
								"astId": 1081,
								"contract": "contracts/TimeMarket.sol:TimeMarket",
								"label": "buyerAddress",
								"offset": 0,
								"slot": "3",
								"type": "t_address"
							},
							{
								"astId": 1083,
								"contract": "contracts/TimeMarket.sol:TimeMarket",
								"label": "solderAddress",
								"offset": 0,
								"slot": "4",
								"type": "t_address"
							}
						],
						"numberOfBytes": "160"
					},
					"t_uint128": {
						"encoding": "inplace",
						"label": "uint128",
						"numberOfBytes": "16"
					},
					"t_uint256": {
						"encoding": "inplace",
						"label": "uint256",
						"numberOfBytes": "32"
					},
					"t_uint56": {
						"encoding": "inplace",
						"label": "uint56",
						"numberOfBytes": "7"
					},
					"t_uint64": {
						"encoding": "inplace",
						"label": "uint64",
						"numberOfBytes": "8"
					},
					"t_uint8": {
						"encoding": "inplace",
						"label": "uint8",
						"numberOfBytes": "1"
					}
				}
			},
			"userdoc": {
				"kind": "user",
				"methods": {},
				"version": 1
			}
		}
	}
}