{
	"contracts/TimeMarket.sol": {
		"TimeMarket": {
			"abi": [
				{
					"inputs": [
						{
							"internalType": "address",
							"name": "_airdropToken",
							"type": "address"
						},
						{
							"internalType": "uint256",
							"name": "_clearingTime",
							"type": "uint256"
						}
					],
					"stateMutability": "nonpayable",
					"type": "constructor"
				},
				{
					"inputs": [],
					"name": "AlreadyInjectToken",
					"type": "error"
				},
				{
					"inputs": [],
					"name": "NorSolder",
					"type": "error"
				},
				{
					"inputs": [],
					"name": "NotBuyer",
					"type": "error"
				},
				{
					"inputs": [],
					"name": "NotEnoughAmount",
					"type": "error"
				},
				{
					"inputs": [],
					"name": "NotInjectToken",
					"type": "error"
				},
				{
					"inputs": [
						{
							"internalType": "uint64",
							"name": "_id",
							"type": "uint64"
						},
						{
							"internalType": "address",
							"name": "token1",
							"type": "address"
						}
					],
					"name": "Sale",
					"outputs": [],
					"stateMutability": "nonpayable",
					"type": "function"
				},
				{
					"inputs": [
						{
							"internalType": "address",
							"name": "_tokenAddress",
							"type": "address"
						},
						{
							"internalType": "address",
							"name": "token1",
							"type": "address"
						},
						{
							"internalType": "uint128",
							"name": "_buyAmount",
							"type": "uint128"
						},
						{
							"internalType": "uint128",
							"name": "_buyPrice",
							"type": "uint128"
						}
					],
					"name": "buy",
					"outputs": [],
					"stateMutability": "nonpayable",
					"type": "function"
				},
				{
					"inputs": [
						{
							"internalType": "uint64",
							"name": "_id",
							"type": "uint64"
						}
					],
					"name": "buyerWithdrawAirdorp",
					"outputs": [],
					"stateMutability": "nonpayable",
					"type": "function"
				},
				{
					"inputs": [
						{
							"internalType": "uint64",
							"name": "_id",
							"type": "uint64"
						}
					],
					"name": "buyerWithdrawRefund",
					"outputs": [],
					"stateMutability": "nonpayable",
					"type": "function"
				},
				{
					"inputs": [
						{
							"internalType": "uint128",
							"name": "_soldPrice",
							"type": "uint128"
						},
						{
							"internalType": "uint128",
							"name": "_soldAmount",
							"type": "uint128"
						}
					],
					"name": "getPenal",
					"outputs": [
						{
							"internalType": "uint256",
							"name": "",
							"type": "uint256"
						}
					],
					"stateMutability": "pure",
					"type": "function"
				},
				{
					"inputs": [
						{
							"internalType": "address",
							"name": "token0",
							"type": "address"
						},
						{
							"internalType": "address",
							"name": "token1",
							"type": "address"
						},
						{
							"internalType": "uint24",
							"name": "_fee",
							"type": "uint24"
						}
					],
					"name": "getPoolAddress",
					"outputs": [
						{
							"internalType": "address",
							"name": "thisPool",
							"type": "address"
						}
					],
					"stateMutability": "view",
					"type": "function"
				},
				{
					"inputs": [
						{
							"internalType": "uint64",
							"name": "_id",
							"type": "uint64"
						}
					],
					"name": "injectFutureToken",
					"outputs": [],
					"stateMutability": "nonpayable",
					"type": "function"
				},
				{
					"inputs": [
						{
							"internalType": "uint64",
							"name": "_id",
							"type": "uint64"
						}
					],
					"name": "profileEarn",
					"outputs": [],
					"stateMutability": "nonpayable",
					"type": "function"
				},
				{
					"inputs": [
						{
							"internalType": "uint64",
							"name": "_id",
							"type": "uint64"
						}
					],
					"name": "solderWithdrawStable",
					"outputs": [],
					"stateMutability": "nonpayable",
					"type": "function"
				},
				{
					"inputs": [
						{
							"internalType": "address",
							"name": "",
							"type": "address"
						},
						{
							"internalType": "uint256",
							"name": "",
							"type": "uint256"
						}
					],
					"name": "userIfWithdraw1",
					"outputs": [
						{
							"internalType": "bool",
							"name": "",
							"type": "bool"
						}
					],
					"stateMutability": "view",
					"type": "function"
				},
				{
					"inputs": [
						{
							"internalType": "address",
							"name": "",
							"type": "address"
						},
						{
							"internalType": "uint256",
							"name": "",
							"type": "uint256"
						}
					],
					"name": "userIfWithdraw2",
					"outputs": [
						{
							"internalType": "bool",
							"name": "",
							"type": "bool"
						}
					],
					"stateMutability": "view",
					"type": "function"
				},
				{
					"inputs": [
						{
							"internalType": "address",
							"name": "",
							"type": "address"
						},
						{
							"internalType": "uint256",
							"name": "",
							"type": "uint256"
						}
					],
					"name": "userIfWithdraw3",
					"outputs": [
						{
							"internalType": "bool",
							"name": "",
							"type": "bool"
						}
					],
					"stateMutability": "view",
					"type": "function"
				},
				{
					"inputs": [
						{
							"internalType": "address",
							"name": "",
							"type": "address"
						},
						{
							"internalType": "uint256",
							"name": "",
							"type": "uint256"
						}
					],
					"name": "userIfWithdraw4",
					"outputs": [
						{
							"internalType": "bool",
							"name": "",
							"type": "bool"
						}
					],
					"stateMutability": "view",
					"type": "function"
				}
			],
			"devdoc": {
				"kind": "dev",
				"methods": {},
				"version": 1
			},
			"evm": {
				"assembly": "    /* \"contracts/TimeMarket.sol\":419:9371  contract TimeMarket is ITimeStruct, IError{... */\n  mstore(0x40, 0x80)\n    /* \"contracts/TimeMarket.sol\":631:673  0x1F98431c8aD98523631AE4a59f267346ea31F984 */\n  0x1f98431c8ad98523631ae4a59f267346ea31f984\n    /* \"contracts/TimeMarket.sol\":602:673  address private univ3Factory=0x1F98431c8aD98523631AE4a59f267346ea31F984 */\n  0x02\n  exp(0x0100, 0x00)\n  dup2\n  sload\n  dup2\n  0xffffffffffffffffffffffffffffffffffffffff\n  mul\n  not\n  and\n  swap1\n  dup4\n  0xffffffffffffffffffffffffffffffffffffffff\n  and\n  mul\n  or\n  swap1\n  sstore\n  pop\n    /* \"contracts/TimeMarket.sol\":723:765  0xC36442b4a4522E871399CD717aBDD847Ab11FE88 */\n  0xc36442b4a4522e871399cd717abdd847ab11fe88\n    /* \"contracts/TimeMarket.sol\":680:765  address private NonfungiblePositionManager=0xC36442b4a4522E871399CD717aBDD847Ab11FE88 */\n  0x03\n  exp(0x0100, 0x00)\n  dup2\n  sload\n  dup2\n  0xffffffffffffffffffffffffffffffffffffffff\n  mul\n  not\n  and\n  swap1\n  dup4\n  0xffffffffffffffffffffffffffffffffffffffff\n  and\n  mul\n  or\n  swap1\n  sstore\n  pop\n    /* \"contracts/TimeMarket.sol\":774:917  constructor(address _airdropToken,uint _clearingTime){... */\n  callvalue\n  dup1\n  iszero\n  tag_1\n  jumpi\n  0x00\n  dup1\n  revert\ntag_1:\n  pop\n  mload(0x40)\n  sub(codesize, bytecodeSize)\n  dup1\n  bytecodeSize\n  dup4\n  codecopy\n  dup2\n  dup2\n  add\n  0x40\n  mstore\n  dup2\n  add\n  swap1\n  tag_2\n  swap2\n  swap1\n  tag_3\n  jump\t// in\ntag_2:\n    /* \"contracts/TimeMarket.sol\":851:864  _airdropToken */\n  dup2\n    /* \"contracts/TimeMarket.sol\":838:850  airdropToken */\n  0x01\n  0x00\n    /* \"contracts/TimeMarket.sol\":838:864  airdropToken=_airdropToken */\n  0x0100\n  exp\n  dup2\n  sload\n  dup2\n  0xffffffffffffffffffffffffffffffffffffffff\n  mul\n  not\n  and\n  swap1\n  dup4\n  0xffffffffffffffffffffffffffffffffffffffff\n  and\n  mul\n  or\n  swap1\n  sstore\n  pop\n    /* \"contracts/TimeMarket.sol\":895:908  _clearingTime */\n  dup1\n    /* \"contracts/TimeMarket.sol\":875:887  clearingTime */\n  0x00\n  dup1\n    /* \"contracts/TimeMarket.sol\":875:909  clearingTime=uint56(_clearingTime) */\n  0x0100\n  exp\n  dup2\n  sload\n  dup2\n  0xffffffffffffff\n  mul\n  not\n  and\n  swap1\n  dup4\n  0xffffffffffffff\n  and\n  mul\n  or\n  swap1\n  sstore\n  pop\n    /* \"contracts/TimeMarket.sol\":774:917  constructor(address _airdropToken,uint _clearingTime){... */\n  pop\n  pop\n    /* \"contracts/TimeMarket.sol\":419:9371  contract TimeMarket is ITimeStruct, IError{... */\n  jump(tag_6)\n    /* \"#utility.yul\":88:205   */\ntag_8:\n    /* \"#utility.yul\":197:198   */\n  0x00\n    /* \"#utility.yul\":194:195   */\n  dup1\n    /* \"#utility.yul\":187:199   */\n  revert\n    /* \"#utility.yul\":334:460   */\ntag_10:\n    /* \"#utility.yul\":371:378   */\n  0x00\n    /* \"#utility.yul\":411:453   */\n  0xffffffffffffffffffffffffffffffffffffffff\n    /* \"#utility.yul\":404:409   */\n  dup3\n    /* \"#utility.yul\":400:454   */\n  and\n    /* \"#utility.yul\":389:454   */\n  swap1\n  pop\n    /* \"#utility.yul\":334:460   */\n  swap2\n  swap1\n  pop\n  jump\t// out\n    /* \"#utility.yul\":466:562   */\ntag_11:\n    /* \"#utility.yul\":503:510   */\n  0x00\n    /* \"#utility.yul\":532:556   */\n  tag_23\n    /* \"#utility.yul\":550:555   */\n  dup3\n    /* \"#utility.yul\":532:556   */\n  tag_10\n  jump\t// in\ntag_23:\n    /* \"#utility.yul\":521:556   */\n  swap1\n  pop\n    /* \"#utility.yul\":466:562   */\n  swap2\n  swap1\n  pop\n  jump\t// out\n    /* \"#utility.yul\":568:690   */\ntag_12:\n    /* \"#utility.yul\":641:665   */\n  tag_25\n    /* \"#utility.yul\":659:664   */\n  dup2\n    /* \"#utility.yul\":641:665   */\n  tag_11\n  jump\t// in\ntag_25:\n    /* \"#utility.yul\":634:639   */\n  dup2\n    /* \"#utility.yul\":631:666   */\n  eq\n    /* \"#utility.yul\":621:684   */\n  tag_26\n  jumpi\n    /* \"#utility.yul\":680:681   */\n  0x00\n    /* \"#utility.yul\":677:678   */\n  dup1\n    /* \"#utility.yul\":670:682   */\n  revert\n    /* \"#utility.yul\":621:684   */\ntag_26:\n    /* \"#utility.yul\":568:690   */\n  pop\n  jump\t// out\n    /* \"#utility.yul\":696:839   */\ntag_13:\n    /* \"#utility.yul\":753:758   */\n  0x00\n    /* \"#utility.yul\":784:790   */\n  dup2\n    /* \"#utility.yul\":778:791   */\n  mload\n    /* \"#utility.yul\":769:791   */\n  swap1\n  pop\n    /* \"#utility.yul\":800:833   */\n  tag_28\n    /* \"#utility.yul\":827:832   */\n  dup2\n    /* \"#utility.yul\":800:833   */\n  tag_12\n  jump\t// in\ntag_28:\n    /* \"#utility.yul\":696:839   */\n  swap3\n  swap2\n  pop\n  pop\n  jump\t// out\n    /* \"#utility.yul\":845:922   */\ntag_14:\n    /* \"#utility.yul\":882:889   */\n  0x00\n    /* \"#utility.yul\":911:916   */\n  dup2\n    /* \"#utility.yul\":900:916   */\n  swap1\n  pop\n    /* \"#utility.yul\":845:922   */\n  swap2\n  swap1\n  pop\n  jump\t// out\n    /* \"#utility.yul\":928:1050   */\ntag_15:\n    /* \"#utility.yul\":1001:1025   */\n  tag_31\n    /* \"#utility.yul\":1019:1024   */\n  dup2\n    /* \"#utility.yul\":1001:1025   */\n  tag_14\n  jump\t// in\ntag_31:\n    /* \"#utility.yul\":994:999   */\n  dup2\n    /* \"#utility.yul\":991:1026   */\n  eq\n    /* \"#utility.yul\":981:1044   */\n  tag_32\n  jumpi\n    /* \"#utility.yul\":1040:1041   */\n  0x00\n    /* \"#utility.yul\":1037:1038   */\n  dup1\n    /* \"#utility.yul\":1030:1042   */\n  revert\n    /* \"#utility.yul\":981:1044   */\ntag_32:\n    /* \"#utility.yul\":928:1050   */\n  pop\n  jump\t// out\n    /* \"#utility.yul\":1056:1199   */\ntag_16:\n    /* \"#utility.yul\":1113:1118   */\n  0x00\n    /* \"#utility.yul\":1144:1150   */\n  dup2\n    /* \"#utility.yul\":1138:1151   */\n  mload\n    /* \"#utility.yul\":1129:1151   */\n  swap1\n  pop\n    /* \"#utility.yul\":1160:1193   */\n  tag_34\n    /* \"#utility.yul\":1187:1192   */\n  dup2\n    /* \"#utility.yul\":1160:1193   */\n  tag_15\n  jump\t// in\ntag_34:\n    /* \"#utility.yul\":1056:1199   */\n  swap3\n  swap2\n  pop\n  pop\n  jump\t// out\n    /* \"#utility.yul\":1205:1712   */\ntag_3:\n    /* \"#utility.yul\":1284:1290   */\n  0x00\n    /* \"#utility.yul\":1292:1298   */\n  dup1\n    /* \"#utility.yul\":1341:1343   */\n  0x40\n    /* \"#utility.yul\":1329:1338   */\n  dup4\n    /* \"#utility.yul\":1320:1327   */\n  dup6\n    /* \"#utility.yul\":1316:1339   */\n  sub\n    /* \"#utility.yul\":1312:1344   */\n  slt\n    /* \"#utility.yul\":1309:1428   */\n  iszero\n  tag_36\n  jumpi\n    /* \"#utility.yul\":1347:1426   */\n  tag_37\n  tag_8\n  jump\t// in\ntag_37:\n    /* \"#utility.yul\":1309:1428   */\ntag_36:\n    /* \"#utility.yul\":1467:1468   */\n  0x00\n    /* \"#utility.yul\":1492:1556   */\n  tag_38\n    /* \"#utility.yul\":1548:1555   */\n  dup6\n    /* \"#utility.yul\":1539:1545   */\n  dup3\n    /* \"#utility.yul\":1528:1537   */\n  dup7\n    /* \"#utility.yul\":1524:1546   */\n  add\n    /* \"#utility.yul\":1492:1556   */\n  tag_13\n  jump\t// in\ntag_38:\n    /* \"#utility.yul\":1482:1556   */\n  swap3\n  pop\n    /* \"#utility.yul\":1438:1566   */\n  pop\n    /* \"#utility.yul\":1605:1607   */\n  0x20\n    /* \"#utility.yul\":1631:1695   */\n  tag_39\n    /* \"#utility.yul\":1687:1694   */\n  dup6\n    /* \"#utility.yul\":1678:1684   */\n  dup3\n    /* \"#utility.yul\":1667:1676   */\n  dup7\n    /* \"#utility.yul\":1663:1685   */\n  add\n    /* \"#utility.yul\":1631:1695   */\n  tag_16\n  jump\t// in\ntag_39:\n    /* \"#utility.yul\":1621:1695   */\n  swap2\n  pop\n    /* \"#utility.yul\":1576:1705   */\n  pop\n    /* \"#utility.yul\":1205:1712   */\n  swap3\n  pop\n  swap3\n  swap1\n  pop\n  jump\t// out\n    /* \"contracts/TimeMarket.sol\":419:9371  contract TimeMarket is ITimeStruct, IError{... */\ntag_6:\n  dataSize(sub_0)\n  dup1\n  dataOffset(sub_0)\n  0x00\n  codecopy\n  0x00\n  return\nstop\n\nsub_0: assembly {\n        /* \"contracts/TimeMarket.sol\":419:9371  contract TimeMarket is ITimeStruct, IError{... */\n      mstore(0x40, 0x80)\n      callvalue\n      dup1\n      iszero\n      tag_1\n      jumpi\n      0x00\n      dup1\n      revert\n    tag_1:\n      pop\n      jumpi(tag_2, lt(calldatasize, 0x04))\n      shr(0xe0, calldataload(0x00))\n      dup1\n      0x98c50fdd\n      gt\n      tag_16\n      jumpi\n      dup1\n      0xc3cf1aa6\n      gt\n      tag_17\n      jumpi\n      dup1\n      0xc3cf1aa6\n      eq\n      tag_12\n      jumpi\n      dup1\n      0xd91af492\n      eq\n      tag_13\n      jumpi\n      dup1\n      0xdf0905c6\n      eq\n      tag_14\n      jumpi\n      dup1\n      0xfc993ea8\n      eq\n      tag_15\n      jumpi\n      jump(tag_2)\n    tag_17:\n      dup1\n      0x98c50fdd\n      eq\n      tag_9\n      jumpi\n      dup1\n      0xb8d7f980\n      eq\n      tag_10\n      jumpi\n      dup1\n      0xc0102de4\n      eq\n      tag_11\n      jumpi\n      jump(tag_2)\n    tag_16:\n      dup1\n      0x0d45431d\n      eq\n      tag_3\n      jumpi\n      dup1\n      0x25ac3a73\n      eq\n      tag_4\n      jumpi\n      dup1\n      0x2895cb7b\n      eq\n      tag_5\n      jumpi\n      dup1\n      0x59de2f60\n      eq\n      tag_6\n      jumpi\n      dup1\n      0x696d6283\n      eq\n      tag_7\n      jumpi\n      dup1\n      0x77bcd8a6\n      eq\n      tag_8\n      jumpi\n    tag_2:\n      0x00\n      dup1\n      revert\n        /* \"contracts/TimeMarket.sol\":1624:2717  function buy(address _tokenAddress,address token1,uint128 _buyAmount,uint128 _buyPrice)external{... */\n    tag_3:\n      tag_18\n      0x04\n      dup1\n      calldatasize\n      sub\n      dup2\n      add\n      swap1\n      tag_19\n      swap2\n      swap1\n      tag_20\n      jump\t// in\n    tag_19:\n      tag_21\n      jump\t// in\n    tag_18:\n      stop\n        /* \"contracts/TimeMarket.sol\":3890:4497  function injectFutureToken(uint64 _id)external{... */\n    tag_4:\n      tag_22\n      0x04\n      dup1\n      calldatasize\n      sub\n      dup2\n      add\n      swap1\n      tag_23\n      swap2\n      swap1\n      tag_24\n      jump\t// in\n    tag_23:\n      tag_25\n      jump\t// in\n    tag_22:\n      stop\n        /* \"contracts/TimeMarket.sol\":6542:7975  function buyerWithdrawRefund(uint64 _id)external{... */\n    tag_5:\n      tag_26\n      0x04\n      dup1\n      calldatasize\n      sub\n      dup2\n      add\n      swap1\n      tag_27\n      swap2\n      swap1\n      tag_24\n      jump\t// in\n    tag_27:\n      tag_28\n      jump\t// in\n    tag_26:\n      stop\n        /* \"contracts/TimeMarket.sol\":1178:1242  mapping(address => mapping(uint256=>bool))public userIfWithdraw1 */\n    tag_6:\n      tag_29\n      0x04\n      dup1\n      calldatasize\n      sub\n      dup2\n      add\n      swap1\n      tag_30\n      swap2\n      swap1\n      tag_31\n      jump\t// in\n    tag_30:\n      tag_32\n      jump\t// in\n    tag_29:\n      mload(0x40)\n      tag_33\n      swap2\n      swap1\n      tag_34\n      jump\t// in\n    tag_33:\n      mload(0x40)\n      dup1\n      swap2\n      sub\n      swap1\n      return\n        /* \"contracts/TimeMarket.sol\":8162:8432  function getPoolAddress(address token0,address token1,uint24 _fee)public view returns(address thisPool){... */\n    tag_7:\n      tag_35\n      0x04\n      dup1\n      calldatasize\n      sub\n      dup2\n      add\n      swap1\n      tag_36\n      swap2\n      swap1\n      tag_37\n      jump\t// in\n    tag_36:\n      tag_38\n      jump\t// in\n    tag_35:\n      mload(0x40)\n      tag_39\n      swap2\n      swap1\n      tag_40\n      jump\t// in\n    tag_39:\n      mload(0x40)\n      dup1\n      swap2\n      sub\n      swap1\n      return\n        /* \"contracts/TimeMarket.sol\":5318:6455  function solderWithdrawStable(uint64 _id)external{... */\n    tag_8:\n      tag_41\n      0x04\n      dup1\n      calldatasize\n      sub\n      dup2\n      add\n      swap1\n      tag_42\n      swap2\n      swap1\n      tag_24\n      jump\t// in\n    tag_42:\n      tag_43\n      jump\t// in\n    tag_41:\n      stop\n        /* \"contracts/TimeMarket.sol\":8823:9366  function getPenal(uint128 _soldPrice, uint128 _soldAmount)public pure returns (uint256){... */\n    tag_9:\n      tag_44\n      0x04\n      dup1\n      calldatasize\n      sub\n      dup2\n      add\n      swap1\n      tag_45\n      swap2\n      swap1\n      tag_46\n      jump\t// in\n    tag_45:\n      tag_47\n      jump\t// in\n    tag_44:\n      mload(0x40)\n      tag_48\n      swap2\n      swap1\n      tag_49\n      jump\t// in\n    tag_48:\n      mload(0x40)\n      dup1\n      swap2\n      sub\n      swap1\n      return\n        /* \"contracts/TimeMarket.sol\":1426:1490  mapping(address => mapping(uint256=>bool))public userIfWithdraw3 */\n    tag_10:\n      tag_50\n      0x04\n      dup1\n      calldatasize\n      sub\n      dup2\n      add\n      swap1\n      tag_51\n      swap2\n      swap1\n      tag_31\n      jump\t// in\n    tag_51:\n      tag_52\n      jump\t// in\n    tag_50:\n      mload(0x40)\n      tag_53\n      swap2\n      swap1\n      tag_34\n      jump\t// in\n    tag_53:\n      mload(0x40)\n      dup1\n      swap2\n      sub\n      swap1\n      return\n        /* \"contracts/TimeMarket.sol\":4505:5265  function buyerWithdrawAirdorp(uint64 _id)external{... */\n    tag_11:\n      tag_54\n      0x04\n      dup1\n      calldatasize\n      sub\n      dup2\n      add\n      swap1\n      tag_55\n      swap2\n      swap1\n      tag_24\n      jump\t// in\n    tag_55:\n      tag_56\n      jump\t// in\n    tag_54:\n      stop\n        /* \"contracts/TimeMarket.sol\":8038:8087  function profileEarn(uint64 _id)public {... */\n    tag_12:\n      tag_57\n      0x04\n      dup1\n      calldatasize\n      sub\n      dup2\n      add\n      swap1\n      tag_58\n      swap2\n      swap1\n      tag_24\n      jump\t// in\n    tag_58:\n      tag_59\n      jump\t// in\n    tag_57:\n      stop\n        /* \"contracts/TimeMarket.sol\":2746:3761  function Sale(uint64 _id,address token1) external {... */\n    tag_13:\n      tag_60\n      0x04\n      dup1\n      calldatasize\n      sub\n      dup2\n      add\n      swap1\n      tag_61\n      swap2\n      swap1\n      tag_62\n      jump\t// in\n    tag_61:\n      tag_63\n      jump\t// in\n    tag_60:\n      stop\n        /* \"contracts/TimeMarket.sol\":1302:1366  mapping(address => mapping(uint256=>bool))public userIfWithdraw2 */\n    tag_14:\n      tag_64\n      0x04\n      dup1\n      calldatasize\n      sub\n      dup2\n      add\n      swap1\n      tag_65\n      swap2\n      swap1\n      tag_31\n      jump\t// in\n    tag_65:\n      tag_66\n      jump\t// in\n    tag_64:\n      mload(0x40)\n      tag_67\n      swap2\n      swap1\n      tag_34\n      jump\t// in\n    tag_67:\n      mload(0x40)\n      dup1\n      swap2\n      sub\n      swap1\n      return\n        /* \"contracts/TimeMarket.sol\":1537:1601  mapping(address => mapping(uint256=>bool))public userIfWithdraw4 */\n    tag_15:\n      tag_68\n      0x04\n      dup1\n      calldatasize\n      sub\n      dup2\n      add\n      swap1\n      tag_69\n      swap2\n      swap1\n      tag_31\n      jump\t// in\n    tag_69:\n      tag_70\n      jump\t// in\n    tag_68:\n      mload(0x40)\n      tag_71\n      swap2\n      swap1\n      tag_34\n      jump\t// in\n    tag_71:\n      mload(0x40)\n      dup1\n      swap2\n      sub\n      swap1\n      return\n        /* \"contracts/TimeMarket.sol\":1624:2717  function buy(address _tokenAddress,address token1,uint128 _buyAmount,uint128 _buyPrice)external{... */\n    tag_21:\n        /* \"contracts/TimeMarket.sol\":1730:1740  uint total */\n      0x00\n        /* \"contracts/TimeMarket.sol\":1752:1761  _buyPrice */\n      dup2\n        /* \"contracts/TimeMarket.sol\":1741:1751  _buyAmount */\n      dup4\n        /* \"contracts/TimeMarket.sol\":1741:1761  _buyAmount*_buyPrice */\n      tag_73\n      swap2\n      swap1\n      tag_74\n      jump\t// in\n    tag_73:\n        /* \"contracts/TimeMarket.sol\":1730:1761  uint total=_buyAmount*_buyPrice */\n      0xffffffffffffffffffffffffffffffff\n      and\n      swap1\n      pop\n        /* \"contracts/TimeMarket.sol\":1848:1864  address thisPool */\n      0x00\n        /* \"contracts/TimeMarket.sol\":1865:1906  getPoolAddress(_tokenAddress,token1,1000) */\n      tag_75\n        /* \"contracts/TimeMarket.sol\":1880:1893  _tokenAddress */\n      dup7\n        /* \"contracts/TimeMarket.sol\":1894:1900  token1 */\n      dup7\n        /* \"contracts/TimeMarket.sol\":1901:1905  1000 */\n      0x03e8\n        /* \"contracts/TimeMarket.sol\":1865:1879  getPoolAddress */\n      tag_38\n        /* \"contracts/TimeMarket.sol\":1865:1906  getPoolAddress(_tokenAddress,token1,1000) */\n      jump\t// in\n    tag_75:\n        /* \"contracts/TimeMarket.sol\":1848:1906  address thisPool=getPoolAddress(_tokenAddress,token1,1000) */\n      swap1\n      pop\n        /* \"contracts/TimeMarket.sol\":1926:1935  100 ether */\n      0x056bc75e2d63100000\n        /* \"contracts/TimeMarket.sol\":1920:1925  total */\n      dup3\n        /* \"contracts/TimeMarket.sol\":1920:1935  total<100 ether */\n      lt\n        /* \"contracts/TimeMarket.sol\":1917:1987  if(total<100 ether){... */\n      iszero\n      tag_76\n      jumpi\n        /* \"contracts/TimeMarket.sol\":1958:1975  NotEnoughAmount() */\n      mload(0x40)\n      0xe008b5f900000000000000000000000000000000000000000000000000000000\n      dup2\n      mstore\n      0x04\n      add\n      mload(0x40)\n      dup1\n      swap2\n      sub\n      swap1\n      revert\n        /* \"contracts/TimeMarket.sol\":1917:1987  if(total<100 ether){... */\n    tag_76:\n        /* \"contracts/TimeMarket.sol\":1997:2024  tradeMes memory newTradeMes */\n      0x00\n        /* \"contracts/TimeMarket.sol\":2025:2338  tradeMes({... */\n      mload(0x40)\n      dup1\n      0x0100\n      add\n      0x40\n      mstore\n      dup1\n        /* \"contracts/TimeMarket.sol\":2060:2061  1 */\n      0x01\n        /* \"contracts/TimeMarket.sol\":2025:2338  tradeMes({... */\n      0xff\n      and\n      dup2\n      mstore\n      0x20\n      add\n        /* \"contracts/TimeMarket.sol\":2084:2086  id */\n      0x00\n      0x07\n      swap1\n      sload\n      swap1\n      0x0100\n      exp\n      swap1\n      div\n      0xffffffffffffffff\n      and\n        /* \"contracts/TimeMarket.sol\":2025:2338  tradeMes({... */\n      0xffffffffffffffff\n      and\n      dup2\n      mstore\n      0x20\n      add\n        /* \"contracts/TimeMarket.sol\":2116:2131  block.timestamp */\n      timestamp\n        /* \"contracts/TimeMarket.sol\":2025:2338  tradeMes({... */\n      0xffffffffffffff\n      and\n      dup2\n      mstore\n      0x20\n      add\n        /* \"contracts/TimeMarket.sol\":2162:2172  _buyAmount */\n      dup7\n        /* \"contracts/TimeMarket.sol\":2025:2338  tradeMes({... */\n      0xffffffffffffffffffffffffffffffff\n      and\n      dup2\n      mstore\n      0x20\n      add\n        /* \"contracts/TimeMarket.sol\":2196:2205  _buyPrice */\n      dup6\n        /* \"contracts/TimeMarket.sol\":2025:2338  tradeMes({... */\n      0xffffffffffffffffffffffffffffffff\n      and\n      dup2\n      mstore\n      0x20\n      add\n        /* \"contracts/TimeMarket.sol\":2233:2246  _tokenAddress */\n      dup9\n        /* \"contracts/TimeMarket.sol\":2025:2338  tradeMes({... */\n      0xffffffffffffffffffffffffffffffffffffffff\n      and\n      dup2\n      mstore\n      0x20\n      add\n        /* \"contracts/TimeMarket.sol\":2274:2284  msg.sender */\n      caller\n        /* \"contracts/TimeMarket.sol\":2025:2338  tradeMes({... */\n      0xffffffffffffffffffffffffffffffffffffffff\n      and\n      dup2\n      mstore\n      0x20\n      add\n        /* \"contracts/TimeMarket.sol\":2321:2325  this */\n      address\n        /* \"contracts/TimeMarket.sol\":2025:2338  tradeMes({... */\n      0xffffffffffffffffffffffffffffffffffffffff\n      and\n      dup2\n      mstore\n      pop\n        /* \"contracts/TimeMarket.sol\":1997:2338  tradeMes memory newTradeMes=tradeMes({... */\n      swap1\n      pop\n        /* \"contracts/TimeMarket.sol\":2363:2374  newTradeMes */\n      dup1\n        /* \"contracts/TimeMarket.sol\":2349:2358  _tradeMes */\n      0x04\n        /* \"contracts/TimeMarket.sol\":2349:2362  _tradeMes[id] */\n      0x00\n        /* \"contracts/TimeMarket.sol\":2359:2361  id */\n      dup1\n      0x07\n      swap1\n      sload\n      swap1\n      0x0100\n      exp\n      swap1\n      div\n      0xffffffffffffffff\n      and\n        /* \"contracts/TimeMarket.sol\":2349:2362  _tradeMes[id] */\n      0xffffffffffffffff\n      and\n      0xffffffffffffffff\n      and\n      dup2\n      mstore\n      0x20\n      add\n      swap1\n      dup2\n      mstore\n      0x20\n      add\n      0x00\n      keccak256\n        /* \"contracts/TimeMarket.sol\":2349:2374  _tradeMes[id]=newTradeMes */\n      0x00\n      dup3\n      add\n      mload\n      dup2\n      0x00\n      add\n      exp(0x0100, 0x00)\n      dup2\n      sload\n      dup2\n      0xff\n      mul\n      not\n      and\n      swap1\n      dup4\n      0xff\n      and\n      mul\n      or\n      swap1\n      sstore\n      pop\n      0x20\n      dup3\n      add\n      mload\n      dup2\n      0x00\n      add\n      exp(0x0100, 0x01)\n      dup2\n      sload\n      dup2\n      0xffffffffffffffff\n      mul\n      not\n      and\n      swap1\n      dup4\n      0xffffffffffffffff\n      and\n      mul\n      or\n      swap1\n      sstore\n      pop\n      0x40\n      dup3\n      add\n      mload\n      dup2\n      0x00\n      add\n      exp(0x0100, 0x09)\n      dup2\n      sload\n      dup2\n      0xffffffffffffff\n      mul\n      not\n      and\n      swap1\n      dup4\n      0xffffffffffffff\n      and\n      mul\n      or\n      swap1\n      sstore\n      pop\n      0x60\n      dup3\n      add\n      mload\n      dup2\n      0x00\n      add\n      exp(0x0100, 0x10)\n      dup2\n      sload\n      dup2\n      0xffffffffffffffffffffffffffffffff\n      mul\n      not\n      and\n      swap1\n      dup4\n      0xffffffffffffffffffffffffffffffff\n      and\n      mul\n      or\n      swap1\n      sstore\n      pop\n      0x80\n      dup3\n      add\n      mload\n      dup2\n      0x01\n      add\n      exp(0x0100, 0x00)\n      dup2\n      sload\n      dup2\n      0xffffffffffffffffffffffffffffffff\n      mul\n      not\n      and\n      swap1\n      dup4\n      0xffffffffffffffffffffffffffffffff\n      and\n      mul\n      or\n      swap1\n      sstore\n      pop\n      0xa0\n      dup3\n      add\n      mload\n      dup2\n      0x02\n      add\n      exp(0x0100, 0x00)\n      dup2\n      sload\n      dup2\n      0xffffffffffffffffffffffffffffffffffffffff\n      mul\n      not\n      and\n      swap1\n      dup4\n      0xffffffffffffffffffffffffffffffffffffffff\n      and\n      mul\n      or\n      swap1\n      sstore\n      pop\n      0xc0\n      dup3\n      add\n      mload\n      dup2\n      0x03\n      add\n      exp(0x0100, 0x00)\n      dup2\n      sload\n      dup2\n      0xffffffffffffffffffffffffffffffffffffffff\n      mul\n      not\n      and\n      swap1\n      dup4\n      0xffffffffffffffffffffffffffffffffffffffff\n      and\n      mul\n      or\n      swap1\n      sstore\n      pop\n      0xe0\n      dup3\n      add\n      mload\n      dup2\n      0x04\n      add\n      exp(0x0100, 0x00)\n      dup2\n      sload\n      dup2\n      0xffffffffffffffffffffffffffffffffffffffff\n      mul\n      not\n      and\n      swap1\n      dup4\n      0xffffffffffffffffffffffffffffffffffffffff\n      and\n      mul\n      or\n      swap1\n      sstore\n      pop\n      swap1\n      pop\n      pop\n        /* \"contracts/TimeMarket.sol\":2421:2491  IERC20(_tokenAddress).safeTransferFrom(msg.sender,address(this),total) */\n      tag_77\n        /* \"contracts/TimeMarket.sol\":2460:2470  msg.sender */\n      caller\n        /* \"contracts/TimeMarket.sol\":2479:2483  this */\n      address\n        /* \"contracts/TimeMarket.sol\":2485:2490  total */\n      dup6\n        /* \"contracts/TimeMarket.sol\":2428:2441  _tokenAddress */\n      dup11\n        /* \"contracts/TimeMarket.sol\":2421:2459  IERC20(_tokenAddress).safeTransferFrom */\n      0xffffffffffffffffffffffffffffffffffffffff\n      and\n      tag_78\n      swap1\n        /* \"contracts/TimeMarket.sol\":2421:2491  IERC20(_tokenAddress).safeTransferFrom(msg.sender,address(this),total) */\n      swap4\n      swap3\n      swap2\n      swap1\n      0xffffffff\n      and\n      jump\t// in\n    tag_77:\n        /* \"contracts/TimeMarket.sol\":2566:2615  IERC20(_tokenAddress).safeApprove(thisPool,total) */\n      tag_79\n        /* \"contracts/TimeMarket.sol\":2600:2608  thisPool */\n      dup3\n        /* \"contracts/TimeMarket.sol\":2609:2614  total */\n      dup5\n        /* \"contracts/TimeMarket.sol\":2573:2586  _tokenAddress */\n      dup10\n        /* \"contracts/TimeMarket.sol\":2566:2599  IERC20(_tokenAddress).safeApprove */\n      0xffffffffffffffffffffffffffffffffffffffff\n      and\n      tag_80\n      swap1\n        /* \"contracts/TimeMarket.sol\":2566:2615  IERC20(_tokenAddress).safeApprove(thisPool,total) */\n      swap3\n      swap2\n      swap1\n      0xffffffff\n      and\n      jump\t// in\n    tag_79:\n        /* \"contracts/TimeMarket.sol\":2626:2694  IERC20(_tokenAddress).safeTransferFrom(address(this),thisPool,total) */\n      tag_81\n        /* \"contracts/TimeMarket.sol\":2673:2677  this */\n      address\n        /* \"contracts/TimeMarket.sol\":2679:2687  thisPool */\n      dup4\n        /* \"contracts/TimeMarket.sol\":2688:2693  total */\n      dup6\n        /* \"contracts/TimeMarket.sol\":2633:2646  _tokenAddress */\n      dup11\n        /* \"contracts/TimeMarket.sol\":2626:2664  IERC20(_tokenAddress).safeTransferFrom */\n      0xffffffffffffffffffffffffffffffffffffffff\n      and\n      tag_78\n      swap1\n        /* \"contracts/TimeMarket.sol\":2626:2694  IERC20(_tokenAddress).safeTransferFrom(address(this),thisPool,total) */\n      swap4\n      swap3\n      swap2\n      swap1\n      0xffffffff\n      and\n      jump\t// in\n    tag_81:\n        /* \"contracts/TimeMarket.sol\":2705:2707  id */\n      0x00\n      0x07\n        /* \"contracts/TimeMarket.sol\":2705:2709  id++ */\n      dup2\n      dup2\n      swap1\n      sload\n      swap1\n      0x0100\n      exp\n      swap1\n      div\n      0xffffffffffffffff\n      and\n      dup1\n      swap3\n      swap2\n      swap1\n      tag_82\n      swap1\n      tag_83\n      jump\t// in\n    tag_82:\n      swap2\n      swap1\n      0x0100\n      exp\n      dup2\n      sload\n      dup2\n      0xffffffffffffffff\n      mul\n      not\n      and\n      swap1\n      dup4\n      0xffffffffffffffff\n      and\n      mul\n      or\n      swap1\n      sstore\n      pop\n      pop\n        /* \"contracts/TimeMarket.sol\":1719:2717  {... */\n      pop\n      pop\n      pop\n        /* \"contracts/TimeMarket.sol\":1624:2717  function buy(address _tokenAddress,address token1,uint128 _buyAmount,uint128 _buyPrice)external{... */\n      pop\n      pop\n      pop\n      pop\n      jump\t// out\n        /* \"contracts/TimeMarket.sol\":3890:4497  function injectFutureToken(uint64 _id)external{... */\n    tag_25:\n        /* \"contracts/TimeMarket.sol\":4030:4035  false */\n      0x00\n        /* \"contracts/TimeMarket.sol\":4004:4012  ifInject */\n      0x05\n        /* \"contracts/TimeMarket.sol\":4004:4024  ifInject[msg.sender] */\n      0x00\n        /* \"contracts/TimeMarket.sol\":4013:4023  msg.sender */\n      caller\n        /* \"contracts/TimeMarket.sol\":4004:4024  ifInject[msg.sender] */\n      0xffffffffffffffffffffffffffffffffffffffff\n      and\n      0xffffffffffffffffffffffffffffffffffffffff\n      and\n      dup2\n      mstore\n      0x20\n      add\n      swap1\n      dup2\n      mstore\n      0x20\n      add\n      0x00\n      keccak256\n        /* \"contracts/TimeMarket.sol\":4004:4029  ifInject[msg.sender][_id] */\n      0x00\n        /* \"contracts/TimeMarket.sol\":4025:4028  _id */\n      dup4\n        /* \"contracts/TimeMarket.sol\":4004:4029  ifInject[msg.sender][_id] */\n      0xffffffffffffffff\n      and\n      dup2\n      mstore\n      0x20\n      add\n      swap1\n      dup2\n      mstore\n      0x20\n      add\n      0x00\n      keccak256\n      0x00\n        /* \"contracts/TimeMarket.sol\":4004:4035  ifInject[msg.sender][_id]=false */\n      0x0100\n      exp\n      dup2\n      sload\n      dup2\n      0xff\n      mul\n      not\n      and\n      swap1\n      dup4\n      iszero\n      iszero\n      mul\n      or\n      swap1\n      sstore\n        /* \"contracts/TimeMarket.sol\":4001:4066  if(ifInject[msg.sender][_id]=false){revert AlreadyInjectToken();} */\n      iszero\n      tag_85\n      jumpi\n        /* \"contracts/TimeMarket.sol\":4044:4064  AlreadyInjectToken() */\n      mload(0x40)\n      0x4232716900000000000000000000000000000000000000000000000000000000\n      dup2\n      mstore\n      0x04\n      add\n      mload(0x40)\n      dup1\n      swap2\n      sub\n      swap1\n      revert\n        /* \"contracts/TimeMarket.sol\":4001:4066  if(ifInject[msg.sender][_id]=false){revert AlreadyInjectToken();} */\n    tag_85:\n        /* \"contracts/TimeMarket.sol\":4174:4184  msg.sender */\n      caller\n        /* \"contracts/TimeMarket.sol\":4158:4184  getSolder(_id)!=msg.sender */\n      0xffffffffffffffffffffffffffffffffffffffff\n      and\n        /* \"contracts/TimeMarket.sol\":4158:4172  getSolder(_id) */\n      tag_86\n        /* \"contracts/TimeMarket.sol\":4168:4171  _id */\n      dup3\n        /* \"contracts/TimeMarket.sol\":4158:4167  getSolder */\n      tag_87\n        /* \"contracts/TimeMarket.sol\":4158:4172  getSolder(_id) */\n      jump\t// in\n    tag_86:\n        /* \"contracts/TimeMarket.sol\":4158:4184  getSolder(_id)!=msg.sender */\n      0xffffffffffffffffffffffffffffffffffffffff\n      and\n      eq\n        /* \"contracts/TimeMarket.sol\":4155:4206  if(getSolder(_id)!=msg.sender){revert NorSolder();} */\n      tag_88\n      jumpi\n        /* \"contracts/TimeMarket.sol\":4193:4204  NorSolder() */\n      mload(0x40)\n      0xd7c498bf00000000000000000000000000000000000000000000000000000000\n      dup2\n      mstore\n      0x04\n      add\n      mload(0x40)\n      dup1\n      swap2\n      sub\n      swap1\n      revert\n        /* \"contracts/TimeMarket.sol\":4155:4206  if(getSolder(_id)!=msg.sender){revert NorSolder();} */\n    tag_88:\n        /* \"contracts/TimeMarket.sol\":4263:4288  uint256 thisAirdropAmount */\n      0x00\n        /* \"contracts/TimeMarket.sol\":4289:4298  _tradeMes */\n      0x04\n        /* \"contracts/TimeMarket.sol\":4289:4303  _tradeMes[_id] */\n      0x00\n        /* \"contracts/TimeMarket.sol\":4299:4302  _id */\n      dup4\n        /* \"contracts/TimeMarket.sol\":4289:4303  _tradeMes[_id] */\n      0xffffffffffffffff\n      and\n      0xffffffffffffffff\n      and\n      dup2\n      mstore\n      0x20\n      add\n      swap1\n      dup2\n      mstore\n      0x20\n      add\n      0x00\n      keccak256\n        /* \"contracts/TimeMarket.sol\":4289:4318  _tradeMes[_id].buyTotalAmount */\n      0x00\n      add\n      0x10\n      swap1\n      sload\n      swap1\n      0x0100\n      exp\n      swap1\n      div\n      0xffffffffffffffffffffffffffffffff\n      and\n        /* \"contracts/TimeMarket.sol\":4263:4318  uint256 thisAirdropAmount=_tradeMes[_id].buyTotalAmount */\n      0xffffffffffffffffffffffffffffffff\n      and\n      swap1\n      pop\n        /* \"contracts/TimeMarket.sol\":4329:4410  IERC20(airdropToken).safeTransferFrom(msg.sender,address(this),thisAirdropAmount) */\n      tag_89\n        /* \"contracts/TimeMarket.sol\":4367:4377  msg.sender */\n      caller\n        /* \"contracts/TimeMarket.sol\":4386:4390  this */\n      address\n        /* \"contracts/TimeMarket.sol\":4392:4409  thisAirdropAmount */\n      dup4\n        /* \"contracts/TimeMarket.sol\":4336:4348  airdropToken */\n      0x01\n      0x00\n      swap1\n      sload\n      swap1\n      0x0100\n      exp\n      swap1\n      div\n      0xffffffffffffffffffffffffffffffffffffffff\n      and\n        /* \"contracts/TimeMarket.sol\":4329:4366  IERC20(airdropToken).safeTransferFrom */\n      0xffffffffffffffffffffffffffffffffffffffff\n      and\n      tag_78\n      swap1\n        /* \"contracts/TimeMarket.sol\":4329:4410  IERC20(airdropToken).safeTransferFrom(msg.sender,address(this),thisAirdropAmount) */\n      swap4\n      swap3\n      swap2\n      swap1\n      0xffffffff\n      and\n      jump\t// in\n    tag_89:\n        /* \"contracts/TimeMarket.sol\":4447:4451  true */\n      0x01\n        /* \"contracts/TimeMarket.sol\":4421:4429  ifInject */\n      0x05\n        /* \"contracts/TimeMarket.sol\":4421:4441  ifInject[msg.sender] */\n      0x00\n        /* \"contracts/TimeMarket.sol\":4430:4440  msg.sender */\n      caller\n        /* \"contracts/TimeMarket.sol\":4421:4441  ifInject[msg.sender] */\n      0xffffffffffffffffffffffffffffffffffffffff\n      and\n      0xffffffffffffffffffffffffffffffffffffffff\n      and\n      dup2\n      mstore\n      0x20\n      add\n      swap1\n      dup2\n      mstore\n      0x20\n      add\n      0x00\n      keccak256\n        /* \"contracts/TimeMarket.sol\":4421:4446  ifInject[msg.sender][_id] */\n      0x00\n        /* \"contracts/TimeMarket.sol\":4442:4445  _id */\n      dup5\n        /* \"contracts/TimeMarket.sol\":4421:4446  ifInject[msg.sender][_id] */\n      0xffffffffffffffff\n      and\n      dup2\n      mstore\n      0x20\n      add\n      swap1\n      dup2\n      mstore\n      0x20\n      add\n      0x00\n      keccak256\n      0x00\n        /* \"contracts/TimeMarket.sol\":4421:4451  ifInject[msg.sender][_id]=true */\n      0x0100\n      exp\n      dup2\n      sload\n      dup2\n      0xff\n      mul\n      not\n      and\n      swap1\n      dup4\n      iszero\n      iszero\n      mul\n      or\n      swap1\n      sstore\n      pop\n        /* \"contracts/TimeMarket.sol\":4488:4489  3 */\n      0x03\n        /* \"contracts/TimeMarket.sol\":4462:4471  _tradeMes */\n      0x04\n        /* \"contracts/TimeMarket.sol\":4462:4476  _tradeMes[_id] */\n      0x00\n        /* \"contracts/TimeMarket.sol\":4472:4475  _id */\n      dup5\n        /* \"contracts/TimeMarket.sol\":4462:4476  _tradeMes[_id] */\n      0xffffffffffffffff\n      and\n      0xffffffffffffffff\n      and\n      dup2\n      mstore\n      0x20\n      add\n      swap1\n      dup2\n      mstore\n      0x20\n      add\n      0x00\n      keccak256\n        /* \"contracts/TimeMarket.sol\":4462:4487  _tradeMes[_id].tradeState */\n      0x00\n      add\n      0x00\n        /* \"contracts/TimeMarket.sol\":4462:4489  _tradeMes[_id].tradeState=3 */\n      0x0100\n      exp\n      dup2\n      sload\n      dup2\n      0xff\n      mul\n      not\n      and\n      swap1\n      dup4\n      0xff\n      and\n      mul\n      or\n      swap1\n      sstore\n      pop\n        /* \"contracts/TimeMarket.sol\":3936:4497  {... */\n      pop\n        /* \"contracts/TimeMarket.sol\":3890:4497  function injectFutureToken(uint64 _id)external{... */\n      pop\n      jump\t// out\n        /* \"contracts/TimeMarket.sol\":6542:7975  function buyerWithdrawRefund(uint64 _id)external{... */\n    tag_28:\n        /* \"contracts/TimeMarket.sol\":6601:6614  address buyer */\n      0x00\n        /* \"contracts/TimeMarket.sol\":6615:6628  getBuyer(_id) */\n      tag_91\n        /* \"contracts/TimeMarket.sol\":6624:6627  _id */\n      dup3\n        /* \"contracts/TimeMarket.sol\":6615:6623  getBuyer */\n      tag_92\n        /* \"contracts/TimeMarket.sol\":6615:6628  getBuyer(_id) */\n      jump\t// in\n    tag_91:\n        /* \"contracts/TimeMarket.sol\":6601:6628  address buyer=getBuyer(_id) */\n      swap1\n      pop\n        /* \"contracts/TimeMarket.sol\":6639:6653  address solder */\n      0x00\n        /* \"contracts/TimeMarket.sol\":6654:6668  getSolder(_id) */\n      tag_93\n        /* \"contracts/TimeMarket.sol\":6664:6667  _id */\n      dup4\n        /* \"contracts/TimeMarket.sol\":6654:6663  getSolder */\n      tag_87\n        /* \"contracts/TimeMarket.sol\":6654:6668  getSolder(_id) */\n      jump\t// in\n    tag_93:\n        /* \"contracts/TimeMarket.sol\":6639:6668  address solder=getSolder(_id) */\n      swap1\n      pop\n        /* \"contracts/TimeMarket.sol\":6732:6737  buyer */\n      dup2\n        /* \"contracts/TimeMarket.sol\":6720:6737  msg.sender==buyer */\n      0xffffffffffffffffffffffffffffffffffffffff\n      and\n        /* \"contracts/TimeMarket.sol\":6720:6730  msg.sender */\n      caller\n        /* \"contracts/TimeMarket.sol\":6720:6737  msg.sender==buyer */\n      0xffffffffffffffffffffffffffffffffffffffff\n      and\n      eq\n        /* \"contracts/TimeMarket.sol\":6712:6738  require(msg.sender==buyer) */\n      tag_94\n      jumpi\n      0x00\n      dup1\n      revert\n    tag_94:\n        /* \"contracts/TimeMarket.sol\":6843:6848  false */\n      0x00\n        /* \"contracts/TimeMarket.sol\":6820:6848  ifInject[solder][_id]==false */\n      iszero\n      iszero\n        /* \"contracts/TimeMarket.sol\":6820:6828  ifInject */\n      0x05\n        /* \"contracts/TimeMarket.sol\":6820:6836  ifInject[solder] */\n      0x00\n        /* \"contracts/TimeMarket.sol\":6829:6835  solder */\n      dup4\n        /* \"contracts/TimeMarket.sol\":6820:6836  ifInject[solder] */\n      0xffffffffffffffffffffffffffffffffffffffff\n      and\n      0xffffffffffffffffffffffffffffffffffffffff\n      and\n      dup2\n      mstore\n      0x20\n      add\n      swap1\n      dup2\n      mstore\n      0x20\n      add\n      0x00\n      keccak256\n        /* \"contracts/TimeMarket.sol\":6820:6841  ifInject[solder][_id] */\n      0x00\n        /* \"contracts/TimeMarket.sol\":6837:6840  _id */\n      dup6\n        /* \"contracts/TimeMarket.sol\":6820:6841  ifInject[solder][_id] */\n      0xffffffffffffffff\n      and\n      dup2\n      mstore\n      0x20\n      add\n      swap1\n      dup2\n      mstore\n      0x20\n      add\n      0x00\n      keccak256\n      0x00\n      swap1\n      sload\n      swap1\n      0x0100\n      exp\n      swap1\n      div\n      0xff\n      and\n        /* \"contracts/TimeMarket.sol\":6820:6848  ifInject[solder][_id]==false */\n      iszero\n      iszero\n      eq\n        /* \"contracts/TimeMarket.sol\":6812:6849  require(ifInject[solder][_id]==false) */\n      tag_95\n      jumpi\n      0x00\n      dup1\n      revert\n    tag_95:\n        /* \"contracts/TimeMarket.sol\":6902:6907  false */\n      0x00\n        /* \"contracts/TimeMarket.sol\":6868:6907  userIfWithdraw3[msg.sender][_id]==false */\n      iszero\n      iszero\n        /* \"contracts/TimeMarket.sol\":6868:6883  userIfWithdraw3 */\n      0x08\n        /* \"contracts/TimeMarket.sol\":6868:6895  userIfWithdraw3[msg.sender] */\n      0x00\n        /* \"contracts/TimeMarket.sol\":6884:6894  msg.sender */\n      caller\n        /* \"contracts/TimeMarket.sol\":6868:6895  userIfWithdraw3[msg.sender] */\n      0xffffffffffffffffffffffffffffffffffffffff\n      and\n      0xffffffffffffffffffffffffffffffffffffffff\n      and\n      dup2\n      mstore\n      0x20\n      add\n      swap1\n      dup2\n      mstore\n      0x20\n      add\n      0x00\n      keccak256\n        /* \"contracts/TimeMarket.sol\":6868:6900  userIfWithdraw3[msg.sender][_id] */\n      0x00\n        /* \"contracts/TimeMarket.sol\":6896:6899  _id */\n      dup6\n        /* \"contracts/TimeMarket.sol\":6868:6900  userIfWithdraw3[msg.sender][_id] */\n      0xffffffffffffffff\n      and\n      dup2\n      mstore\n      0x20\n      add\n      swap1\n      dup2\n      mstore\n      0x20\n      add\n      0x00\n      keccak256\n      0x00\n      swap1\n      sload\n      swap1\n      0x0100\n      exp\n      swap1\n      div\n      0xff\n      and\n        /* \"contracts/TimeMarket.sol\":6868:6907  userIfWithdraw3[msg.sender][_id]==false */\n      iszero\n      iszero\n      eq\n        /* \"contracts/TimeMarket.sol\":6860:6908  require(userIfWithdraw3[msg.sender][_id]==false) */\n      tag_96\n      jumpi\n      0x00\n      dup1\n      revert\n    tag_96:\n        /* \"contracts/TimeMarket.sol\":6972:6977  buyer */\n      dup2\n        /* \"contracts/TimeMarket.sol\":6960:6977  msg.sender==buyer */\n      0xffffffffffffffffffffffffffffffffffffffff\n      and\n        /* \"contracts/TimeMarket.sol\":6960:6970  msg.sender */\n      caller\n        /* \"contracts/TimeMarket.sol\":6960:6977  msg.sender==buyer */\n      0xffffffffffffffffffffffffffffffffffffffff\n      and\n      eq\n        /* \"contracts/TimeMarket.sol\":6952:6978  require(msg.sender==buyer) */\n      tag_97\n      jumpi\n      0x00\n      dup1\n      revert\n    tag_97:\n        /* \"contracts/TimeMarket.sol\":6991:7017  address promiseStableToken */\n      0x00\n        /* \"contracts/TimeMarket.sol\":7018:7027  _tradeMes */\n      0x04\n        /* \"contracts/TimeMarket.sol\":7018:7032  _tradeMes[_id] */\n      0x00\n        /* \"contracts/TimeMarket.sol\":7028:7031  _id */\n      dup6\n        /* \"contracts/TimeMarket.sol\":7018:7032  _tradeMes[_id] */\n      0xffffffffffffffff\n      and\n      0xffffffffffffffff\n      and\n      dup2\n      mstore\n      0x20\n      add\n      swap1\n      dup2\n      mstore\n      0x20\n      add\n      0x00\n      keccak256\n        /* \"contracts/TimeMarket.sol\":7018:7045  _tradeMes[_id].tokenAddress */\n      0x02\n      add\n      0x00\n      swap1\n      sload\n      swap1\n      0x0100\n      exp\n      swap1\n      div\n      0xffffffffffffffffffffffffffffffffffffffff\n      and\n        /* \"contracts/TimeMarket.sol\":6991:7045  address promiseStableToken=_tradeMes[_id].tokenAddress */\n      swap1\n      pop\n        /* \"contracts/TimeMarket.sol\":7056:7078  uint256 penalSumAmount */\n      0x00\n        /* \"contracts/TimeMarket.sol\":7079:7142  getPenal(_tradeMes[_id].buyPrice,_tradeMes[_id].buyTotalAmount) */\n      tag_98\n        /* \"contracts/TimeMarket.sol\":7088:7097  _tradeMes */\n      0x04\n        /* \"contracts/TimeMarket.sol\":7088:7102  _tradeMes[_id] */\n      0x00\n        /* \"contracts/TimeMarket.sol\":7098:7101  _id */\n      dup8\n        /* \"contracts/TimeMarket.sol\":7088:7102  _tradeMes[_id] */\n      0xffffffffffffffff\n      and\n      0xffffffffffffffff\n      and\n      dup2\n      mstore\n      0x20\n      add\n      swap1\n      dup2\n      mstore\n      0x20\n      add\n      0x00\n      keccak256\n        /* \"contracts/TimeMarket.sol\":7088:7111  _tradeMes[_id].buyPrice */\n      0x01\n      add\n      0x00\n      swap1\n      sload\n      swap1\n      0x0100\n      exp\n      swap1\n      div\n      0xffffffffffffffffffffffffffffffff\n      and\n        /* \"contracts/TimeMarket.sol\":7112:7121  _tradeMes */\n      0x04\n        /* \"contracts/TimeMarket.sol\":7112:7126  _tradeMes[_id] */\n      0x00\n        /* \"contracts/TimeMarket.sol\":7122:7125  _id */\n      dup9\n        /* \"contracts/TimeMarket.sol\":7112:7126  _tradeMes[_id] */\n      0xffffffffffffffff\n      and\n      0xffffffffffffffff\n      and\n      dup2\n      mstore\n      0x20\n      add\n      swap1\n      dup2\n      mstore\n      0x20\n      add\n      0x00\n      keccak256\n        /* \"contracts/TimeMarket.sol\":7112:7141  _tradeMes[_id].buyTotalAmount */\n      0x00\n      add\n      0x10\n      swap1\n      sload\n      swap1\n      0x0100\n      exp\n      swap1\n      div\n      0xffffffffffffffffffffffffffffffff\n      and\n        /* \"contracts/TimeMarket.sol\":7079:7087  getPenal */\n      tag_47\n        /* \"contracts/TimeMarket.sol\":7079:7142  getPenal(_tradeMes[_id].buyPrice,_tradeMes[_id].buyTotalAmount) */\n      jump\t// in\n    tag_98:\n        /* \"contracts/TimeMarket.sol\":7056:7142  uint256 penalSumAmount=getPenal(_tradeMes[_id].buyPrice,_tradeMes[_id].buyTotalAmount) */\n      swap1\n      pop\n        /* \"contracts/TimeMarket.sol\":7153:7164  uint256 fee */\n      0x00\n        /* \"contracts/TimeMarket.sol\":7165:7192  TimeFee.fee(penalSumAmount) */\n      tag_99\n        /* \"contracts/TimeMarket.sol\":7177:7191  penalSumAmount */\n      dup3\n        /* \"contracts/TimeMarket.sol\":7165:7176  TimeFee.fee */\n      tag_100\n        /* \"contracts/TimeMarket.sol\":7165:7192  TimeFee.fee(penalSumAmount) */\n      jump\t// in\n    tag_99:\n        /* \"contracts/TimeMarket.sol\":7153:7192  uint256 fee=TimeFee.fee(penalSumAmount) */\n      swap1\n      pop\n        /* \"contracts/TimeMarket.sol\":7221:7317  IERC20(promiseStableToken).safeTransfer(... */\n      tag_101\n        /* \"contracts/TimeMarket.sol\":7283:7287  this */\n      address\n        /* \"contracts/TimeMarket.sol\":7303:7306  fee */\n      dup3\n        /* \"contracts/TimeMarket.sol\":7228:7246  promiseStableToken */\n      dup6\n        /* \"contracts/TimeMarket.sol\":7221:7260  IERC20(promiseStableToken).safeTransfer */\n      0xffffffffffffffffffffffffffffffffffffffff\n      and\n      tag_102\n      swap1\n        /* \"contracts/TimeMarket.sol\":7221:7317  IERC20(promiseStableToken).safeTransfer(... */\n      swap3\n      swap2\n      swap1\n      0xffffffff\n      and\n      jump\t// in\n    tag_101:\n        /* \"contracts/TimeMarket.sol\":7373:7476  IERC20(promiseStableToken).safeTransfer(... */\n      tag_103\n        /* \"contracts/TimeMarket.sol\":7427:7432  buyer */\n      dup6\n        /* \"contracts/TimeMarket.sol\":7462:7465  fee */\n      dup3\n        /* \"contracts/TimeMarket.sol\":7447:7461  penalSumAmount */\n      dup5\n        /* \"contracts/TimeMarket.sol\":7447:7465  penalSumAmount-fee */\n      tag_104\n      swap2\n      swap1\n      tag_105\n      jump\t// in\n    tag_104:\n        /* \"contracts/TimeMarket.sol\":7380:7398  promiseStableToken */\n      dup6\n        /* \"contracts/TimeMarket.sol\":7373:7412  IERC20(promiseStableToken).safeTransfer */\n      0xffffffffffffffffffffffffffffffffffffffff\n      and\n      tag_102\n      swap1\n        /* \"contracts/TimeMarket.sol\":7373:7476  IERC20(promiseStableToken).safeTransfer(... */\n      swap3\n      swap2\n      swap1\n      0xffffffff\n      and\n      jump\t// in\n    tag_103:\n        /* \"contracts/TimeMarket.sol\":7520:7524  true */\n      0x01\n        /* \"contracts/TimeMarket.sol\":7487:7502  userIfWithdraw3 */\n      0x08\n        /* \"contracts/TimeMarket.sol\":7487:7514  userIfWithdraw3[msg.sender] */\n      0x00\n        /* \"contracts/TimeMarket.sol\":7503:7513  msg.sender */\n      caller\n        /* \"contracts/TimeMarket.sol\":7487:7514  userIfWithdraw3[msg.sender] */\n      0xffffffffffffffffffffffffffffffffffffffff\n      and\n      0xffffffffffffffffffffffffffffffffffffffff\n      and\n      dup2\n      mstore\n      0x20\n      add\n      swap1\n      dup2\n      mstore\n      0x20\n      add\n      0x00\n      keccak256\n        /* \"contracts/TimeMarket.sol\":7487:7519  userIfWithdraw3[msg.sender][_id] */\n      0x00\n        /* \"contracts/TimeMarket.sol\":7515:7518  _id */\n      dup9\n        /* \"contracts/TimeMarket.sol\":7487:7519  userIfWithdraw3[msg.sender][_id] */\n      0xffffffffffffffff\n      and\n      dup2\n      mstore\n      0x20\n      add\n      swap1\n      dup2\n      mstore\n      0x20\n      add\n      0x00\n      keccak256\n      0x00\n        /* \"contracts/TimeMarket.sol\":7487:7524  userIfWithdraw3[msg.sender][_id]=true */\n      0x0100\n      exp\n      dup2\n      sload\n      dup2\n      0xff\n      mul\n      not\n      and\n      swap1\n      dup4\n      iszero\n      iszero\n      mul\n      or\n      swap1\n      sstore\n      pop\n        /* \"contracts/TimeMarket.sol\":7567:7568  1 */\n      0x01\n        /* \"contracts/TimeMarket.sol\":7540:7549  _tradeMes */\n      0x04\n        /* \"contracts/TimeMarket.sol\":7540:7554  _tradeMes[_id] */\n      0x00\n        /* \"contracts/TimeMarket.sol\":7550:7553  _id */\n      dup9\n        /* \"contracts/TimeMarket.sol\":7540:7554  _tradeMes[_id] */\n      0xffffffffffffffff\n      and\n      0xffffffffffffffff\n      and\n      dup2\n      mstore\n      0x20\n      add\n      swap1\n      dup2\n      mstore\n      0x20\n      add\n      0x00\n      keccak256\n        /* \"contracts/TimeMarket.sol\":7540:7565  _tradeMes[_id].tradeState */\n      0x00\n      add\n      0x00\n      swap1\n      sload\n      swap1\n      0x0100\n      exp\n      swap1\n      div\n      0xff\n      and\n        /* \"contracts/TimeMarket.sol\":7540:7568  _tradeMes[_id].tradeState==1 */\n      0xff\n      and\n      sub\n        /* \"contracts/TimeMarket.sol\":7537:7930  if(_tradeMes[_id].tradeState==1){... */\n      tag_106\n      jumpi\n        /* \"contracts/TimeMarket.sol\":7626:7631  false */\n      0x00\n        /* \"contracts/TimeMarket.sol\":7592:7631  userIfWithdraw4[msg.sender][_id]==false */\n      iszero\n      iszero\n        /* \"contracts/TimeMarket.sol\":7592:7607  userIfWithdraw4 */\n      0x09\n        /* \"contracts/TimeMarket.sol\":7592:7619  userIfWithdraw4[msg.sender] */\n      0x00\n        /* \"contracts/TimeMarket.sol\":7608:7618  msg.sender */\n      caller\n        /* \"contracts/TimeMarket.sol\":7592:7619  userIfWithdraw4[msg.sender] */\n      0xffffffffffffffffffffffffffffffffffffffff\n      and\n      0xffffffffffffffffffffffffffffffffffffffff\n      and\n      dup2\n      mstore\n      0x20\n      add\n      swap1\n      dup2\n      mstore\n      0x20\n      add\n      0x00\n      keccak256\n        /* \"contracts/TimeMarket.sol\":7592:7624  userIfWithdraw4[msg.sender][_id] */\n      0x00\n        /* \"contracts/TimeMarket.sol\":7620:7623  _id */\n      dup9\n        /* \"contracts/TimeMarket.sol\":7592:7624  userIfWithdraw4[msg.sender][_id] */\n      0xffffffffffffffff\n      and\n      dup2\n      mstore\n      0x20\n      add\n      swap1\n      dup2\n      mstore\n      0x20\n      add\n      0x00\n      keccak256\n      0x00\n      swap1\n      sload\n      swap1\n      0x0100\n      exp\n      swap1\n      div\n      0xff\n      and\n        /* \"contracts/TimeMarket.sol\":7592:7631  userIfWithdraw4[msg.sender][_id]==false */\n      iszero\n      iszero\n      eq\n        /* \"contracts/TimeMarket.sol\":7584:7632  require(userIfWithdraw4[msg.sender][_id]==false) */\n      tag_107\n      jumpi\n      0x00\n      dup1\n      revert\n    tag_107:\n        /* \"contracts/TimeMarket.sol\":7647:7660  uint256 total */\n      0x00\n        /* \"contracts/TimeMarket.sol\":7685:7694  _tradeMes */\n      0x04\n        /* \"contracts/TimeMarket.sol\":7685:7699  _tradeMes[_id] */\n      0x00\n        /* \"contracts/TimeMarket.sol\":7695:7698  _id */\n      dup9\n        /* \"contracts/TimeMarket.sol\":7685:7699  _tradeMes[_id] */\n      0xffffffffffffffff\n      and\n      0xffffffffffffffff\n      and\n      dup2\n      mstore\n      0x20\n      add\n      swap1\n      dup2\n      mstore\n      0x20\n      add\n      0x00\n      keccak256\n        /* \"contracts/TimeMarket.sol\":7685:7714  _tradeMes[_id].buyTotalAmount */\n      0x00\n      add\n      0x10\n      swap1\n      sload\n      swap1\n      0x0100\n      exp\n      swap1\n      div\n      0xffffffffffffffffffffffffffffffff\n      and\n        /* \"contracts/TimeMarket.sol\":7661:7670  _tradeMes */\n      0x04\n        /* \"contracts/TimeMarket.sol\":7661:7675  _tradeMes[_id] */\n      0x00\n        /* \"contracts/TimeMarket.sol\":7671:7674  _id */\n      dup10\n        /* \"contracts/TimeMarket.sol\":7661:7675  _tradeMes[_id] */\n      0xffffffffffffffff\n      and\n      0xffffffffffffffff\n      and\n      dup2\n      mstore\n      0x20\n      add\n      swap1\n      dup2\n      mstore\n      0x20\n      add\n      0x00\n      keccak256\n        /* \"contracts/TimeMarket.sol\":7661:7684  _tradeMes[_id].buyPrice */\n      0x01\n      add\n      0x00\n      swap1\n      sload\n      swap1\n      0x0100\n      exp\n      swap1\n      div\n      0xffffffffffffffffffffffffffffffff\n      and\n        /* \"contracts/TimeMarket.sol\":7661:7714  _tradeMes[_id].buyPrice*_tradeMes[_id].buyTotalAmount */\n      tag_108\n      swap2\n      swap1\n      tag_74\n      jump\t// in\n    tag_108:\n        /* \"contracts/TimeMarket.sol\":7647:7714  uint256 total=_tradeMes[_id].buyPrice*_tradeMes[_id].buyTotalAmount */\n      0xffffffffffffffffffffffffffffffff\n      and\n      swap1\n      pop\n        /* \"contracts/TimeMarket.sol\":7756:7866  IERC20(promiseStableToken).safeTransfer(... */\n      tag_109\n        /* \"contracts/TimeMarket.sol\":7814:7827  getBuyer(_id) */\n      tag_110\n        /* \"contracts/TimeMarket.sol\":7823:7826  _id */\n      dup9\n        /* \"contracts/TimeMarket.sol\":7814:7822  getBuyer */\n      tag_92\n        /* \"contracts/TimeMarket.sol\":7814:7827  getBuyer(_id) */\n      jump\t// in\n    tag_110:\n        /* \"contracts/TimeMarket.sol\":7846:7851  total */\n      dup3\n        /* \"contracts/TimeMarket.sol\":7763:7781  promiseStableToken */\n      dup7\n        /* \"contracts/TimeMarket.sol\":7756:7795  IERC20(promiseStableToken).safeTransfer */\n      0xffffffffffffffffffffffffffffffffffffffff\n      and\n      tag_102\n      swap1\n        /* \"contracts/TimeMarket.sol\":7756:7866  IERC20(promiseStableToken).safeTransfer(... */\n      swap3\n      swap2\n      swap1\n      0xffffffff\n      and\n      jump\t// in\n    tag_109:\n        /* \"contracts/TimeMarket.sol\":7914:7918  true */\n      0x01\n        /* \"contracts/TimeMarket.sol\":7881:7896  userIfWithdraw4 */\n      0x09\n        /* \"contracts/TimeMarket.sol\":7881:7908  userIfWithdraw4[msg.sender] */\n      0x00\n        /* \"contracts/TimeMarket.sol\":7897:7907  msg.sender */\n      caller\n        /* \"contracts/TimeMarket.sol\":7881:7908  userIfWithdraw4[msg.sender] */\n      0xffffffffffffffffffffffffffffffffffffffff\n      and\n      0xffffffffffffffffffffffffffffffffffffffff\n      and\n      dup2\n      mstore\n      0x20\n      add\n      swap1\n      dup2\n      mstore\n      0x20\n      add\n      0x00\n      keccak256\n        /* \"contracts/TimeMarket.sol\":7881:7913  userIfWithdraw4[msg.sender][_id] */\n      0x00\n        /* \"contracts/TimeMarket.sol\":7909:7912  _id */\n      dup10\n        /* \"contracts/TimeMarket.sol\":7881:7913  userIfWithdraw4[msg.sender][_id] */\n      0xffffffffffffffff\n      and\n      dup2\n      mstore\n      0x20\n      add\n      swap1\n      dup2\n      mstore\n      0x20\n      add\n      0x00\n      keccak256\n      0x00\n        /* \"contracts/TimeMarket.sol\":7881:7918  userIfWithdraw4[msg.sender][_id]=true */\n      0x0100\n      exp\n      dup2\n      sload\n      dup2\n      0xff\n      mul\n      not\n      and\n      swap1\n      dup4\n      iszero\n      iszero\n      mul\n      or\n      swap1\n      sstore\n      pop\n        /* \"contracts/TimeMarket.sol\":7569:7930  {... */\n      pop\n        /* \"contracts/TimeMarket.sol\":7537:7930  if(_tradeMes[_id].tradeState==1){... */\n    tag_106:\n        /* \"contracts/TimeMarket.sol\":7966:7967  5 */\n      0x05\n        /* \"contracts/TimeMarket.sol\":7940:7949  _tradeMes */\n      0x04\n        /* \"contracts/TimeMarket.sol\":7940:7954  _tradeMes[_id] */\n      0x00\n        /* \"contracts/TimeMarket.sol\":7950:7953  _id */\n      dup9\n        /* \"contracts/TimeMarket.sol\":7940:7954  _tradeMes[_id] */\n      0xffffffffffffffff\n      and\n      0xffffffffffffffff\n      and\n      dup2\n      mstore\n      0x20\n      add\n      swap1\n      dup2\n      mstore\n      0x20\n      add\n      0x00\n      keccak256\n        /* \"contracts/TimeMarket.sol\":7940:7965  _tradeMes[_id].tradeState */\n      0x00\n      add\n      0x00\n        /* \"contracts/TimeMarket.sol\":7940:7967  _tradeMes[_id].tradeState=5 */\n      0x0100\n      exp\n      dup2\n      sload\n      dup2\n      0xff\n      mul\n      not\n      and\n      swap1\n      dup4\n      0xff\n      and\n      mul\n      or\n      swap1\n      sstore\n      pop\n        /* \"contracts/TimeMarket.sol\":6590:7975  {... */\n      pop\n      pop\n      pop\n      pop\n      pop\n        /* \"contracts/TimeMarket.sol\":6542:7975  function buyerWithdrawRefund(uint64 _id)external{... */\n      pop\n      jump\t// out\n        /* \"contracts/TimeMarket.sol\":1178:1242  mapping(address => mapping(uint256=>bool))public userIfWithdraw1 */\n    tag_32:\n      mstore(0x20, 0x06)\n      dup2\n      0x00\n      mstore\n      mstore(0x20, keccak256(0x00, 0x40))\n      dup1\n      0x00\n      mstore\n      keccak256(0x00, 0x40)\n      0x00\n      swap2\n      pop\n      swap2\n      pop\n      swap1\n      sload\n      swap1\n      0x0100\n      exp\n      swap1\n      div\n      0xff\n      and\n      dup2\n      jump\t// out\n        /* \"contracts/TimeMarket.sol\":8162:8432  function getPoolAddress(address token0,address token1,uint24 _fee)public view returns(address thisPool){... */\n    tag_38:\n        /* \"contracts/TimeMarket.sol\":8248:8264  address thisPool */\n      0x00\n        /* \"contracts/TimeMarket.sol\":8305:8317  univ3Factory */\n      0x02\n      0x00\n      swap1\n      sload\n      swap1\n      0x0100\n      exp\n      swap1\n      div\n      0xffffffffffffffffffffffffffffffffffffffff\n      and\n        /* \"contracts/TimeMarket.sol\":8287:8326  IUniswapV3Factory(univ3Factory).getPool */\n      0xffffffffffffffffffffffffffffffffffffffff\n      and\n      0x1698ee82\n        /* \"contracts/TimeMarket.sol\":8341:8347  token0 */\n      dup6\n        /* \"contracts/TimeMarket.sol\":8362:8368  token1 */\n      dup6\n        /* \"contracts/TimeMarket.sol\":8383:8387  _fee */\n      dup6\n        /* \"contracts/TimeMarket.sol\":8287:8398  IUniswapV3Factory(univ3Factory).getPool(... */\n      mload(0x40)\n      dup5\n      0xffffffff\n      and\n      0xe0\n      shl\n      dup2\n      mstore\n      0x04\n      add\n      tag_112\n      swap4\n      swap3\n      swap2\n      swap1\n      tag_113\n      jump\t// in\n    tag_112:\n      0x20\n      mload(0x40)\n      dup1\n      dup4\n      sub\n      dup2\n      dup7\n      gas\n      staticcall\n      iszero\n      dup1\n      iszero\n      tag_115\n      jumpi\n      returndatasize\n      0x00\n      dup1\n      returndatacopy\n      revert(0x00, returndatasize)\n    tag_115:\n      pop\n      pop\n      pop\n      pop\n      mload(0x40)\n      returndatasize\n      not(0x1f)\n      0x1f\n      dup3\n      add\n      and\n      dup3\n      add\n      dup1\n      0x40\n      mstore\n      pop\n      dup2\n      add\n      swap1\n      tag_116\n      swap2\n      swap1\n      tag_117\n      jump\t// in\n    tag_116:\n        /* \"contracts/TimeMarket.sol\":8276:8398  thisPool = IUniswapV3Factory(univ3Factory).getPool(... */\n      swap1\n      pop\n        /* \"contracts/TimeMarket.sol\":8162:8432  function getPoolAddress(address token0,address token1,uint24 _fee)public view returns(address thisPool){... */\n      swap4\n      swap3\n      pop\n      pop\n      pop\n      jump\t// out\n        /* \"contracts/TimeMarket.sol\":5318:6455  function solderWithdrawStable(uint64 _id)external{... */\n    tag_43:\n        /* \"contracts/TimeMarket.sol\":5378:5392  address solder */\n      0x00\n        /* \"contracts/TimeMarket.sol\":5393:5407  getSolder(_id) */\n      tag_119\n        /* \"contracts/TimeMarket.sol\":5403:5406  _id */\n      dup3\n        /* \"contracts/TimeMarket.sol\":5393:5402  getSolder */\n      tag_87\n        /* \"contracts/TimeMarket.sol\":5393:5407  getSolder(_id) */\n      jump\t// in\n    tag_119:\n        /* \"contracts/TimeMarket.sol\":5378:5407  address solder=getSolder(_id) */\n      swap1\n      pop\n        /* \"contracts/TimeMarket.sol\":5471:5477  solder */\n      dup1\n        /* \"contracts/TimeMarket.sol\":5459:5477  msg.sender==solder */\n      0xffffffffffffffffffffffffffffffffffffffff\n      and\n        /* \"contracts/TimeMarket.sol\":5459:5469  msg.sender */\n      caller\n        /* \"contracts/TimeMarket.sol\":5459:5477  msg.sender==solder */\n      0xffffffffffffffffffffffffffffffffffffffff\n      and\n      eq\n        /* \"contracts/TimeMarket.sol\":5451:5478  require(msg.sender==solder) */\n      tag_120\n      jumpi\n      0x00\n      dup1\n      revert\n    tag_120:\n        /* \"contracts/TimeMarket.sol\":5560:5568  ifInject */\n      0x05\n        /* \"contracts/TimeMarket.sol\":5560:5576  ifInject[solder] */\n      0x00\n        /* \"contracts/TimeMarket.sol\":5569:5575  solder */\n      dup3\n        /* \"contracts/TimeMarket.sol\":5560:5576  ifInject[solder] */\n      0xffffffffffffffffffffffffffffffffffffffff\n      and\n      0xffffffffffffffffffffffffffffffffffffffff\n      and\n      dup2\n      mstore\n      0x20\n      add\n      swap1\n      dup2\n      mstore\n      0x20\n      add\n      0x00\n      keccak256\n        /* \"contracts/TimeMarket.sol\":5560:5581  ifInject[solder][_id] */\n      0x00\n        /* \"contracts/TimeMarket.sol\":5577:5580  _id */\n      dup4\n        /* \"contracts/TimeMarket.sol\":5560:5581  ifInject[solder][_id] */\n      0xffffffffffffffff\n      and\n      dup2\n      mstore\n      0x20\n      add\n      swap1\n      dup2\n      mstore\n      0x20\n      add\n      0x00\n      keccak256\n      0x00\n      swap1\n      sload\n      swap1\n      0x0100\n      exp\n      swap1\n      div\n      0xff\n      and\n        /* \"contracts/TimeMarket.sol\":5552:5582  require(ifInject[solder][_id]) */\n      tag_121\n      jumpi\n      0x00\n      dup1\n      revert\n    tag_121:\n        /* \"contracts/TimeMarket.sol\":5668:5673  false */\n      0x00\n        /* \"contracts/TimeMarket.sol\":5634:5673  userIfWithdraw2[msg.sender][_id]==false */\n      iszero\n      iszero\n        /* \"contracts/TimeMarket.sol\":5634:5649  userIfWithdraw2 */\n      0x07\n        /* \"contracts/TimeMarket.sol\":5634:5661  userIfWithdraw2[msg.sender] */\n      0x00\n        /* \"contracts/TimeMarket.sol\":5650:5660  msg.sender */\n      caller\n        /* \"contracts/TimeMarket.sol\":5634:5661  userIfWithdraw2[msg.sender] */\n      0xffffffffffffffffffffffffffffffffffffffff\n      and\n      0xffffffffffffffffffffffffffffffffffffffff\n      and\n      dup2\n      mstore\n      0x20\n      add\n      swap1\n      dup2\n      mstore\n      0x20\n      add\n      0x00\n      keccak256\n        /* \"contracts/TimeMarket.sol\":5634:5666  userIfWithdraw2[msg.sender][_id] */\n      0x00\n        /* \"contracts/TimeMarket.sol\":5662:5665  _id */\n      dup5\n        /* \"contracts/TimeMarket.sol\":5634:5666  userIfWithdraw2[msg.sender][_id] */\n      0xffffffffffffffff\n      and\n      dup2\n      mstore\n      0x20\n      add\n      swap1\n      dup2\n      mstore\n      0x20\n      add\n      0x00\n      keccak256\n      0x00\n      swap1\n      sload\n      swap1\n      0x0100\n      exp\n      swap1\n      div\n      0xff\n      and\n        /* \"contracts/TimeMarket.sol\":5634:5673  userIfWithdraw2[msg.sender][_id]==false */\n      iszero\n      iszero\n      eq\n        /* \"contracts/TimeMarket.sol\":5626:5674  require(userIfWithdraw2[msg.sender][_id]==false) */\n      tag_122\n      jumpi\n      0x00\n      dup1\n      revert\n    tag_122:\n        /* \"contracts/TimeMarket.sol\":5685:5711  address promiseStableToken */\n      0x00\n        /* \"contracts/TimeMarket.sol\":5712:5721  _tradeMes */\n      0x04\n        /* \"contracts/TimeMarket.sol\":5712:5726  _tradeMes[_id] */\n      0x00\n        /* \"contracts/TimeMarket.sol\":5722:5725  _id */\n      dup5\n        /* \"contracts/TimeMarket.sol\":5712:5726  _tradeMes[_id] */\n      0xffffffffffffffff\n      and\n      0xffffffffffffffff\n      and\n      dup2\n      mstore\n      0x20\n      add\n      swap1\n      dup2\n      mstore\n      0x20\n      add\n      0x00\n      keccak256\n        /* \"contracts/TimeMarket.sol\":5712:5739  _tradeMes[_id].tokenAddress */\n      0x02\n      add\n      0x00\n      swap1\n      sload\n      swap1\n      0x0100\n      exp\n      swap1\n      div\n      0xffffffffffffffffffffffffffffffffffffffff\n      and\n        /* \"contracts/TimeMarket.sol\":5685:5739  address promiseStableToken=_tradeMes[_id].tokenAddress */\n      swap1\n      pop\n        /* \"contracts/TimeMarket.sol\":5750:5763  uint256 total */\n      0x00\n        /* \"contracts/TimeMarket.sol\":5788:5797  _tradeMes */\n      0x04\n        /* \"contracts/TimeMarket.sol\":5788:5802  _tradeMes[_id] */\n      0x00\n        /* \"contracts/TimeMarket.sol\":5798:5801  _id */\n      dup6\n        /* \"contracts/TimeMarket.sol\":5788:5802  _tradeMes[_id] */\n      0xffffffffffffffff\n      and\n      0xffffffffffffffff\n      and\n      dup2\n      mstore\n      0x20\n      add\n      swap1\n      dup2\n      mstore\n      0x20\n      add\n      0x00\n      keccak256\n        /* \"contracts/TimeMarket.sol\":5788:5817  _tradeMes[_id].buyTotalAmount */\n      0x00\n      add\n      0x10\n      swap1\n      sload\n      swap1\n      0x0100\n      exp\n      swap1\n      div\n      0xffffffffffffffffffffffffffffffff\n      and\n        /* \"contracts/TimeMarket.sol\":5764:5773  _tradeMes */\n      0x04\n        /* \"contracts/TimeMarket.sol\":5764:5778  _tradeMes[_id] */\n      0x00\n        /* \"contracts/TimeMarket.sol\":5774:5777  _id */\n      dup7\n        /* \"contracts/TimeMarket.sol\":5764:5778  _tradeMes[_id] */\n      0xffffffffffffffff\n      and\n      0xffffffffffffffff\n      and\n      dup2\n      mstore\n      0x20\n      add\n      swap1\n      dup2\n      mstore\n      0x20\n      add\n      0x00\n      keccak256\n        /* \"contracts/TimeMarket.sol\":5764:5787  _tradeMes[_id].buyPrice */\n      0x01\n      add\n      0x00\n      swap1\n      sload\n      swap1\n      0x0100\n      exp\n      swap1\n      div\n      0xffffffffffffffffffffffffffffffff\n      and\n        /* \"contracts/TimeMarket.sol\":5764:5817  _tradeMes[_id].buyPrice*_tradeMes[_id].buyTotalAmount */\n      tag_123\n      swap2\n      swap1\n      tag_74\n      jump\t// in\n    tag_123:\n        /* \"contracts/TimeMarket.sol\":5750:5817  uint256 total=_tradeMes[_id].buyPrice*_tradeMes[_id].buyTotalAmount */\n      0xffffffffffffffffffffffffffffffff\n      and\n      swap1\n      pop\n        /* \"contracts/TimeMarket.sol\":5828:5850  uint256 penalSumAmount */\n      0x00\n        /* \"contracts/TimeMarket.sol\":5851:5914  getPenal(_tradeMes[_id].buyPrice,_tradeMes[_id].buyTotalAmount) */\n      tag_124\n        /* \"contracts/TimeMarket.sol\":5860:5869  _tradeMes */\n      0x04\n        /* \"contracts/TimeMarket.sol\":5860:5874  _tradeMes[_id] */\n      0x00\n        /* \"contracts/TimeMarket.sol\":5870:5873  _id */\n      dup8\n        /* \"contracts/TimeMarket.sol\":5860:5874  _tradeMes[_id] */\n      0xffffffffffffffff\n      and\n      0xffffffffffffffff\n      and\n      dup2\n      mstore\n      0x20\n      add\n      swap1\n      dup2\n      mstore\n      0x20\n      add\n      0x00\n      keccak256\n        /* \"contracts/TimeMarket.sol\":5860:5883  _tradeMes[_id].buyPrice */\n      0x01\n      add\n      0x00\n      swap1\n      sload\n      swap1\n      0x0100\n      exp\n      swap1\n      div\n      0xffffffffffffffffffffffffffffffff\n      and\n        /* \"contracts/TimeMarket.sol\":5884:5893  _tradeMes */\n      0x04\n        /* \"contracts/TimeMarket.sol\":5884:5898  _tradeMes[_id] */\n      0x00\n        /* \"contracts/TimeMarket.sol\":5894:5897  _id */\n      dup9\n        /* \"contracts/TimeMarket.sol\":5884:5898  _tradeMes[_id] */\n      0xffffffffffffffff\n      and\n      0xffffffffffffffff\n      and\n      dup2\n      mstore\n      0x20\n      add\n      swap1\n      dup2\n      mstore\n      0x20\n      add\n      0x00\n      keccak256\n        /* \"contracts/TimeMarket.sol\":5884:5913  _tradeMes[_id].buyTotalAmount */\n      0x00\n      add\n      0x10\n      swap1\n      sload\n      swap1\n      0x0100\n      exp\n      swap1\n      div\n      0xffffffffffffffffffffffffffffffff\n      and\n        /* \"contracts/TimeMarket.sol\":5851:5859  getPenal */\n      tag_47\n        /* \"contracts/TimeMarket.sol\":5851:5914  getPenal(_tradeMes[_id].buyPrice,_tradeMes[_id].buyTotalAmount) */\n      jump\t// in\n    tag_124:\n        /* \"contracts/TimeMarket.sol\":5828:5914  uint256 penalSumAmount=getPenal(_tradeMes[_id].buyPrice,_tradeMes[_id].buyTotalAmount) */\n      swap1\n      pop\n        /* \"contracts/TimeMarket.sol\":5925:5936  uint256 fee */\n      0x00\n        /* \"contracts/TimeMarket.sol\":5937:5955  TimeFee.fee(total) */\n      tag_125\n        /* \"contracts/TimeMarket.sol\":5949:5954  total */\n      dup4\n        /* \"contracts/TimeMarket.sol\":5937:5948  TimeFee.fee */\n      tag_100\n        /* \"contracts/TimeMarket.sol\":5937:5955  TimeFee.fee(total) */\n      jump\t// in\n    tag_125:\n        /* \"contracts/TimeMarket.sol\":5925:5955  uint256 fee=TimeFee.fee(total) */\n      swap1\n      pop\n        /* \"contracts/TimeMarket.sol\":6008:6066  IERC20(promiseStableToken).safeTransfer(address(this),fee) */\n      tag_126\n        /* \"contracts/TimeMarket.sol\":6056:6060  this */\n      address\n        /* \"contracts/TimeMarket.sol\":6062:6065  fee */\n      dup3\n        /* \"contracts/TimeMarket.sol\":6015:6033  promiseStableToken */\n      dup7\n        /* \"contracts/TimeMarket.sol\":6008:6047  IERC20(promiseStableToken).safeTransfer */\n      0xffffffffffffffffffffffffffffffffffffffff\n      and\n      tag_102\n      swap1\n        /* \"contracts/TimeMarket.sol\":6008:6066  IERC20(promiseStableToken).safeTransfer(address(this),fee) */\n      swap3\n      swap2\n      swap1\n      0xffffffff\n      and\n      jump\t// in\n    tag_126:\n        /* \"contracts/TimeMarket.sol\":6107:6202  IERC20(promiseStableToken).safeTransfer(... */\n      tag_127\n        /* \"contracts/TimeMarket.sol\":6161:6167  solder */\n      dup6\n        /* \"contracts/TimeMarket.sol\":6188:6191  fee */\n      dup3\n        /* \"contracts/TimeMarket.sol\":6182:6187  total */\n      dup6\n        /* \"contracts/TimeMarket.sol\":6182:6191  total-fee */\n      tag_128\n      swap2\n      swap1\n      tag_105\n      jump\t// in\n    tag_128:\n        /* \"contracts/TimeMarket.sol\":6114:6132  promiseStableToken */\n      dup7\n        /* \"contracts/TimeMarket.sol\":6107:6146  IERC20(promiseStableToken).safeTransfer */\n      0xffffffffffffffffffffffffffffffffffffffff\n      and\n      tag_102\n      swap1\n        /* \"contracts/TimeMarket.sol\":6107:6202  IERC20(promiseStableToken).safeTransfer(... */\n      swap3\n      swap2\n      swap1\n      0xffffffff\n      and\n      jump\t// in\n    tag_127:\n        /* \"contracts/TimeMarket.sol\":6261:6361  IERC20(promiseStableToken).safeTransfer(... */\n      tag_129\n        /* \"contracts/TimeMarket.sol\":6315:6321  solder */\n      dup6\n        /* \"contracts/TimeMarket.sol\":6336:6350  penalSumAmount */\n      dup4\n        /* \"contracts/TimeMarket.sol\":6268:6286  promiseStableToken */\n      dup7\n        /* \"contracts/TimeMarket.sol\":6261:6300  IERC20(promiseStableToken).safeTransfer */\n      0xffffffffffffffffffffffffffffffffffffffff\n      and\n      tag_102\n      swap1\n        /* \"contracts/TimeMarket.sol\":6261:6361  IERC20(promiseStableToken).safeTransfer(... */\n      swap3\n      swap2\n      swap1\n      0xffffffff\n      and\n      jump\t// in\n    tag_129:\n        /* \"contracts/TimeMarket.sol\":6442:6446  true */\n      0x01\n        /* \"contracts/TimeMarket.sol\":6409:6424  userIfWithdraw2 */\n      0x07\n        /* \"contracts/TimeMarket.sol\":6409:6436  userIfWithdraw2[msg.sender] */\n      0x00\n        /* \"contracts/TimeMarket.sol\":6425:6435  msg.sender */\n      caller\n        /* \"contracts/TimeMarket.sol\":6409:6436  userIfWithdraw2[msg.sender] */\n      0xffffffffffffffffffffffffffffffffffffffff\n      and\n      0xffffffffffffffffffffffffffffffffffffffff\n      and\n      dup2\n      mstore\n      0x20\n      add\n      swap1\n      dup2\n      mstore\n      0x20\n      add\n      0x00\n      keccak256\n        /* \"contracts/TimeMarket.sol\":6409:6441  userIfWithdraw2[msg.sender][_id] */\n      0x00\n        /* \"contracts/TimeMarket.sol\":6437:6440  _id */\n      dup9\n        /* \"contracts/TimeMarket.sol\":6409:6441  userIfWithdraw2[msg.sender][_id] */\n      0xffffffffffffffff\n      and\n      dup2\n      mstore\n      0x20\n      add\n      swap1\n      dup2\n      mstore\n      0x20\n      add\n      0x00\n      keccak256\n      0x00\n        /* \"contracts/TimeMarket.sol\":6409:6446  userIfWithdraw2[msg.sender][_id]=true */\n      0x0100\n      exp\n      dup2\n      sload\n      dup2\n      0xff\n      mul\n      not\n      and\n      swap1\n      dup4\n      iszero\n      iszero\n      mul\n      or\n      swap1\n      sstore\n      pop\n        /* \"contracts/TimeMarket.sol\":5367:6455  {... */\n      pop\n      pop\n      pop\n      pop\n      pop\n        /* \"contracts/TimeMarket.sol\":5318:6455  function solderWithdrawStable(uint64 _id)external{... */\n      pop\n      jump\t// out\n        /* \"contracts/TimeMarket.sol\":8823:9366  function getPenal(uint128 _soldPrice, uint128 _soldAmount)public pure returns (uint256){... */\n    tag_47:\n        /* \"contracts/TimeMarket.sol\":8902:8909  uint256 */\n      0x00\n        /* \"contracts/TimeMarket.sol\":8921:8939  uint256 thisAmount */\n      dup1\n        /* \"contracts/TimeMarket.sol\":8953:8964  _soldAmount */\n      dup3\n        /* \"contracts/TimeMarket.sol\":8942:8952  _soldPrice */\n      dup5\n        /* \"contracts/TimeMarket.sol\":8942:8964  _soldPrice*_soldAmount */\n      tag_131\n      swap2\n      swap1\n      tag_74\n      jump\t// in\n    tag_131:\n        /* \"contracts/TimeMarket.sol\":8921:8964  uint256 thisAmount = _soldPrice*_soldAmount */\n      0xffffffffffffffffffffffffffffffff\n      and\n      swap1\n      pop\n        /* \"contracts/TimeMarket.sol\":8993:9002  100 ether */\n      0x056bc75e2d63100000\n        /* \"contracts/TimeMarket.sol\":8979:8989  thisAmount */\n      dup2\n        /* \"contracts/TimeMarket.sol\":8979:9002  thisAmount >= 100 ether */\n      lt\n      iszero\n        /* \"contracts/TimeMarket.sol\":8979:9029  thisAmount >= 100 ether && thisAmount < 1000 ether */\n      dup1\n      iszero\n      tag_132\n      jumpi\n      pop\n        /* \"contracts/TimeMarket.sol\":9019:9029  1000 ether */\n      0x3635c9adc5dea00000\n        /* \"contracts/TimeMarket.sol\":9006:9016  thisAmount */\n      dup2\n        /* \"contracts/TimeMarket.sol\":9006:9029  thisAmount < 1000 ether */\n      lt\n        /* \"contracts/TimeMarket.sol\":8979:9029  thisAmount >= 100 ether && thisAmount < 1000 ether */\n    tag_132:\n        /* \"contracts/TimeMarket.sol\":8975:9359  if (thisAmount >= 100 ether && thisAmount < 1000 ether) {... */\n      iszero\n      tag_133\n      jumpi\n        /* \"contracts/TimeMarket.sol\":9073:9076  100 */\n      0x64\n        /* \"contracts/TimeMarket.sol\":9067:9069  50 */\n      0x32\n        /* \"contracts/TimeMarket.sol\":9054:9064  thisAmount */\n      dup3\n        /* \"contracts/TimeMarket.sol\":9054:9069  thisAmount * 50 */\n      tag_134\n      swap2\n      swap1\n      tag_135\n      jump\t// in\n    tag_134:\n        /* \"contracts/TimeMarket.sol\":9053:9076  (thisAmount * 50) / 100 */\n      tag_136\n      swap2\n      swap1\n      tag_137\n      jump\t// in\n    tag_136:\n        /* \"contracts/TimeMarket.sol\":9046:9076  return (thisAmount * 50) / 100 */\n      swap2\n      pop\n      pop\n      jump(tag_130)\n        /* \"contracts/TimeMarket.sol\":8975:9359  if (thisAmount >= 100 ether && thisAmount < 1000 ether) {... */\n    tag_133:\n        /* \"contracts/TimeMarket.sol\":9112:9122  1000 ether */\n      0x3635c9adc5dea00000\n        /* \"contracts/TimeMarket.sol\":9098:9108  thisAmount */\n      dup2\n        /* \"contracts/TimeMarket.sol\":9098:9122  thisAmount >= 1000 ether */\n      lt\n      iszero\n        /* \"contracts/TimeMarket.sol\":9098:9150  thisAmount >= 1000 ether && thisAmount < 10000 ether */\n      dup1\n      iszero\n      tag_139\n      jumpi\n      pop\n        /* \"contracts/TimeMarket.sol\":9139:9150  10000 ether */\n      0x021e19e0c9bab2400000\n        /* \"contracts/TimeMarket.sol\":9126:9136  thisAmount */\n      dup2\n        /* \"contracts/TimeMarket.sol\":9126:9150  thisAmount < 10000 ether */\n      lt\n        /* \"contracts/TimeMarket.sol\":9098:9150  thisAmount >= 1000 ether && thisAmount < 10000 ether */\n    tag_139:\n        /* \"contracts/TimeMarket.sol\":9094:9359  if (thisAmount >= 1000 ether && thisAmount < 10000 ether) {... */\n      iszero\n      tag_140\n      jumpi\n        /* \"contracts/TimeMarket.sol\":9194:9197  100 */\n      0x64\n        /* \"contracts/TimeMarket.sol\":9188:9190  40 */\n      0x28\n        /* \"contracts/TimeMarket.sol\":9175:9185  thisAmount */\n      dup3\n        /* \"contracts/TimeMarket.sol\":9175:9190  thisAmount * 40 */\n      tag_141\n      swap2\n      swap1\n      tag_135\n      jump\t// in\n    tag_141:\n        /* \"contracts/TimeMarket.sol\":9174:9197  (thisAmount * 40) / 100 */\n      tag_142\n      swap2\n      swap1\n      tag_137\n      jump\t// in\n    tag_142:\n        /* \"contracts/TimeMarket.sol\":9167:9197  return (thisAmount * 40) / 100 */\n      swap2\n      pop\n      pop\n      jump(tag_130)\n        /* \"contracts/TimeMarket.sol\":9094:9359  if (thisAmount >= 1000 ether && thisAmount < 10000 ether) {... */\n    tag_140:\n        /* \"contracts/TimeMarket.sol\":9232:9243  10000 ether */\n      0x021e19e0c9bab2400000\n        /* \"contracts/TimeMarket.sol\":9219:9229  thisAmount */\n      dup2\n        /* \"contracts/TimeMarket.sol\":9219:9243  thisAmount > 10000 ether */\n      gt\n        /* \"contracts/TimeMarket.sol\":9215:9359  if (thisAmount > 10000 ether) {... */\n      iszero\n      tag_144\n      jumpi\n        /* \"contracts/TimeMarket.sol\":9287:9290  100 */\n      0x64\n        /* \"contracts/TimeMarket.sol\":9281:9283  25 */\n      0x19\n        /* \"contracts/TimeMarket.sol\":9268:9278  thisAmount */\n      dup3\n        /* \"contracts/TimeMarket.sol\":9268:9283  thisAmount * 25 */\n      tag_145\n      swap2\n      swap1\n      tag_135\n      jump\t// in\n    tag_145:\n        /* \"contracts/TimeMarket.sol\":9267:9290  (thisAmount * 25) / 100 */\n      tag_146\n      swap2\n      swap1\n      tag_137\n      jump\t// in\n    tag_146:\n        /* \"contracts/TimeMarket.sol\":9260:9290  return (thisAmount * 25) / 100 */\n      swap2\n      pop\n      pop\n      jump(tag_130)\n        /* \"contracts/TimeMarket.sol\":9215:9359  if (thisAmount > 10000 ether) {... */\n    tag_144:\n        /* \"contracts/TimeMarket.sol\":9330:9347  NotEnoughAmount() */\n      mload(0x40)\n      0xe008b5f900000000000000000000000000000000000000000000000000000000\n      dup2\n      mstore\n      0x04\n      add\n      mload(0x40)\n      dup1\n      swap2\n      sub\n      swap1\n      revert\n        /* \"contracts/TimeMarket.sol\":8823:9366  function getPenal(uint128 _soldPrice, uint128 _soldAmount)public pure returns (uint256){... */\n    tag_130:\n      swap3\n      swap2\n      pop\n      pop\n      jump\t// out\n        /* \"contracts/TimeMarket.sol\":1426:1490  mapping(address => mapping(uint256=>bool))public userIfWithdraw3 */\n    tag_52:\n      mstore(0x20, 0x08)\n      dup2\n      0x00\n      mstore\n      mstore(0x20, keccak256(0x00, 0x40))\n      dup1\n      0x00\n      mstore\n      keccak256(0x00, 0x40)\n      0x00\n      swap2\n      pop\n      swap2\n      pop\n      swap1\n      sload\n      swap1\n      0x0100\n      exp\n      swap1\n      div\n      0xff\n      and\n      dup2\n      jump\t// out\n        /* \"contracts/TimeMarket.sol\":4505:5265  function buyerWithdrawAirdorp(uint64 _id)external{... */\n    tag_56:\n        /* \"contracts/TimeMarket.sol\":4565:4578  address buyer */\n      0x00\n        /* \"contracts/TimeMarket.sol\":4579:4592  getBuyer(_id) */\n      tag_149\n        /* \"contracts/TimeMarket.sol\":4588:4591  _id */\n      dup3\n        /* \"contracts/TimeMarket.sol\":4579:4587  getBuyer */\n      tag_92\n        /* \"contracts/TimeMarket.sol\":4579:4592  getBuyer(_id) */\n      jump\t// in\n    tag_149:\n        /* \"contracts/TimeMarket.sol\":4565:4592  address buyer=getBuyer(_id) */\n      swap1\n      pop\n        /* \"contracts/TimeMarket.sol\":4651:4656  buyer */\n      dup1\n        /* \"contracts/TimeMarket.sol\":4639:4656  msg.sender!=buyer */\n      0xffffffffffffffffffffffffffffffffffffffff\n      and\n        /* \"contracts/TimeMarket.sol\":4639:4649  msg.sender */\n      caller\n        /* \"contracts/TimeMarket.sol\":4639:4656  msg.sender!=buyer */\n      0xffffffffffffffffffffffffffffffffffffffff\n      and\n      eq\n        /* \"contracts/TimeMarket.sol\":4636:4677  if(msg.sender!=buyer){revert NotBuyer();} */\n      tag_150\n      jumpi\n        /* \"contracts/TimeMarket.sol\":4665:4675  NotBuyer() */\n      mload(0x40)\n      0x472e017e00000000000000000000000000000000000000000000000000000000\n      dup2\n      mstore\n      0x04\n      add\n      mload(0x40)\n      dup1\n      swap2\n      sub\n      swap1\n      revert\n        /* \"contracts/TimeMarket.sol\":4636:4677  if(msg.sender!=buyer){revert NotBuyer();} */\n    tag_150:\n        /* \"contracts/TimeMarket.sol\":4780:4781  3 */\n      0x03\n        /* \"contracts/TimeMarket.sol\":4753:4762  _tradeMes */\n      0x04\n        /* \"contracts/TimeMarket.sol\":4753:4767  _tradeMes[_id] */\n      0x00\n        /* \"contracts/TimeMarket.sol\":4763:4766  _id */\n      dup5\n        /* \"contracts/TimeMarket.sol\":4753:4767  _tradeMes[_id] */\n      0xffffffffffffffff\n      and\n      0xffffffffffffffff\n      and\n      dup2\n      mstore\n      0x20\n      add\n      swap1\n      dup2\n      mstore\n      0x20\n      add\n      0x00\n      keccak256\n        /* \"contracts/TimeMarket.sol\":4753:4778  _tradeMes[_id].tradeState */\n      0x00\n      add\n      0x00\n      swap1\n      sload\n      swap1\n      0x0100\n      exp\n      swap1\n      div\n      0xff\n      and\n        /* \"contracts/TimeMarket.sol\":4753:4781  _tradeMes[_id].tradeState!=3 */\n      0xff\n      and\n      eq\n        /* \"contracts/TimeMarket.sol\":4750:4808  if(_tradeMes[_id].tradeState!=3){revert NotInjectToken();} */\n      tag_151\n      jumpi\n        /* \"contracts/TimeMarket.sol\":4790:4806  NotInjectToken() */\n      mload(0x40)\n      0xde4461cd00000000000000000000000000000000000000000000000000000000\n      dup2\n      mstore\n      0x04\n      add\n      mload(0x40)\n      dup1\n      swap2\n      sub\n      swap1\n      revert\n        /* \"contracts/TimeMarket.sol\":4750:4808  if(_tradeMes[_id].tradeState!=3){revert NotInjectToken();} */\n    tag_151:\n        /* \"contracts/TimeMarket.sol\":4819:4836  uint128 buyAmount */\n      0x00\n        /* \"contracts/TimeMarket.sol\":4837:4846  _tradeMes */\n      0x04\n        /* \"contracts/TimeMarket.sol\":4837:4851  _tradeMes[_id] */\n      0x00\n        /* \"contracts/TimeMarket.sol\":4847:4850  _id */\n      dup5\n        /* \"contracts/TimeMarket.sol\":4837:4851  _tradeMes[_id] */\n      0xffffffffffffffff\n      and\n      0xffffffffffffffff\n      and\n      dup2\n      mstore\n      0x20\n      add\n      swap1\n      dup2\n      mstore\n      0x20\n      add\n      0x00\n      keccak256\n        /* \"contracts/TimeMarket.sol\":4837:4866  _tradeMes[_id].buyTotalAmount */\n      0x00\n      add\n      0x10\n      swap1\n      sload\n      swap1\n      0x0100\n      exp\n      swap1\n      div\n      0xffffffffffffffffffffffffffffffff\n      and\n        /* \"contracts/TimeMarket.sol\":4819:4866  uint128 buyAmount=_tradeMes[_id].buyTotalAmount */\n      swap1\n      pop\n        /* \"contracts/TimeMarket.sol\":4877:4895  uint128 buyerPrice */\n      0x00\n        /* \"contracts/TimeMarket.sol\":4896:4905  _tradeMes */\n      0x04\n        /* \"contracts/TimeMarket.sol\":4896:4910  _tradeMes[_id] */\n      0x00\n        /* \"contracts/TimeMarket.sol\":4906:4909  _id */\n      dup6\n        /* \"contracts/TimeMarket.sol\":4896:4910  _tradeMes[_id] */\n      0xffffffffffffffff\n      and\n      0xffffffffffffffff\n      and\n      dup2\n      mstore\n      0x20\n      add\n      swap1\n      dup2\n      mstore\n      0x20\n      add\n      0x00\n      keccak256\n        /* \"contracts/TimeMarket.sol\":4896:4919  _tradeMes[_id].buyPrice */\n      0x01\n      add\n      0x00\n      swap1\n      sload\n      swap1\n      0x0100\n      exp\n      swap1\n      div\n      0xffffffffffffffffffffffffffffffff\n      and\n        /* \"contracts/TimeMarket.sol\":4877:4919  uint128 buyerPrice=_tradeMes[_id].buyPrice */\n      swap1\n      pop\n        /* \"contracts/TimeMarket.sol\":4974:4985  uint256 fee */\n      0x00\n        /* \"contracts/TimeMarket.sol\":4986:5019  TimeFee.fee(buyAmount*buyerPrice) */\n      tag_152\n        /* \"contracts/TimeMarket.sol\":5008:5018  buyerPrice */\n      dup3\n        /* \"contracts/TimeMarket.sol\":4998:5007  buyAmount */\n      dup5\n        /* \"contracts/TimeMarket.sol\":4998:5018  buyAmount*buyerPrice */\n      tag_153\n      swap2\n      swap1\n      tag_74\n      jump\t// in\n    tag_153:\n        /* \"contracts/TimeMarket.sol\":4986:5019  TimeFee.fee(buyAmount*buyerPrice) */\n      0xffffffffffffffffffffffffffffffff\n      and\n        /* \"contracts/TimeMarket.sol\":4986:4997  TimeFee.fee */\n      tag_100\n        /* \"contracts/TimeMarket.sol\":4986:5019  TimeFee.fee(buyAmount*buyerPrice) */\n      jump\t// in\n    tag_152:\n        /* \"contracts/TimeMarket.sol\":4974:5019  uint256 fee=TimeFee.fee(buyAmount*buyerPrice) */\n      swap1\n      pop\n        /* \"contracts/TimeMarket.sol\":5072:5124  IERC20(airdropToken).safeTransfer(address(this),fee) */\n      tag_154\n        /* \"contracts/TimeMarket.sol\":5114:5118  this */\n      address\n        /* \"contracts/TimeMarket.sol\":5120:5123  fee */\n      dup3\n        /* \"contracts/TimeMarket.sol\":5079:5091  airdropToken */\n      0x01\n      0x00\n      swap1\n      sload\n      swap1\n      0x0100\n      exp\n      swap1\n      div\n      0xffffffffffffffffffffffffffffffffffffffff\n      and\n        /* \"contracts/TimeMarket.sol\":5072:5105  IERC20(airdropToken).safeTransfer */\n      0xffffffffffffffffffffffffffffffffffffffff\n      and\n      tag_102\n      swap1\n        /* \"contracts/TimeMarket.sol\":5072:5124  IERC20(airdropToken).safeTransfer(address(this),fee) */\n      swap3\n      swap2\n      swap1\n      0xffffffff\n      and\n      jump\t// in\n    tag_154:\n        /* \"contracts/TimeMarket.sol\":5165:5219  IERC20(airdropToken).safeTransfer(buyer,buyAmount-fee) */\n      tag_155\n        /* \"contracts/TimeMarket.sol\":5199:5204  buyer */\n      dup5\n        /* \"contracts/TimeMarket.sol\":5215:5218  fee */\n      dup3\n        /* \"contracts/TimeMarket.sol\":5205:5214  buyAmount */\n      dup6\n        /* \"contracts/TimeMarket.sol\":5205:5218  buyAmount-fee */\n      0xffffffffffffffffffffffffffffffff\n      and\n      tag_156\n      swap2\n      swap1\n      tag_105\n      jump\t// in\n    tag_156:\n        /* \"contracts/TimeMarket.sol\":5172:5184  airdropToken */\n      0x01\n      0x00\n      swap1\n      sload\n      swap1\n      0x0100\n      exp\n      swap1\n      div\n      0xffffffffffffffffffffffffffffffffffffffff\n      and\n        /* \"contracts/TimeMarket.sol\":5165:5198  IERC20(airdropToken).safeTransfer */\n      0xffffffffffffffffffffffffffffffffffffffff\n      and\n      tag_102\n      swap1\n        /* \"contracts/TimeMarket.sol\":5165:5219  IERC20(airdropToken).safeTransfer(buyer,buyAmount-fee) */\n      swap3\n      swap2\n      swap1\n      0xffffffff\n      and\n      jump\t// in\n    tag_155:\n        /* \"contracts/TimeMarket.sol\":5256:5257  4 */\n      0x04\n        /* \"contracts/TimeMarket.sol\":5230:5239  _tradeMes */\n      dup1\n        /* \"contracts/TimeMarket.sol\":5230:5244  _tradeMes[_id] */\n      0x00\n        /* \"contracts/TimeMarket.sol\":5240:5243  _id */\n      dup8\n        /* \"contracts/TimeMarket.sol\":5230:5244  _tradeMes[_id] */\n      0xffffffffffffffff\n      and\n      0xffffffffffffffff\n      and\n      dup2\n      mstore\n      0x20\n      add\n      swap1\n      dup2\n      mstore\n      0x20\n      add\n      0x00\n      keccak256\n        /* \"contracts/TimeMarket.sol\":5230:5255  _tradeMes[_id].tradeState */\n      0x00\n      add\n      0x00\n        /* \"contracts/TimeMarket.sol\":5230:5257  _tradeMes[_id].tradeState=4 */\n      0x0100\n      exp\n      dup2\n      sload\n      dup2\n      0xff\n      mul\n      not\n      and\n      swap1\n      dup4\n      0xff\n      and\n      mul\n      or\n      swap1\n      sstore\n      pop\n        /* \"contracts/TimeMarket.sol\":4554:5265  {... */\n      pop\n      pop\n      pop\n      pop\n        /* \"contracts/TimeMarket.sol\":4505:5265  function buyerWithdrawAirdorp(uint64 _id)external{... */\n      pop\n      jump\t// out\n        /* \"contracts/TimeMarket.sol\":8038:8087  function profileEarn(uint64 _id)public {... */\n    tag_59:\n      pop\n      jump\t// out\n        /* \"contracts/TimeMarket.sol\":2746:3761  function Sale(uint64 _id,address token1) external {... */\n    tag_63:\n        /* \"contracts/TimeMarket.sol\":2807:2834  tradeMes memory maxTradeMes */\n      0x00\n        /* \"contracts/TimeMarket.sol\":2835:2844  _tradeMes */\n      0x04\n        /* \"contracts/TimeMarket.sol\":2835:2849  _tradeMes[_id] */\n      0x00\n        /* \"contracts/TimeMarket.sol\":2845:2848  _id */\n      dup5\n        /* \"contracts/TimeMarket.sol\":2835:2849  _tradeMes[_id] */\n      0xffffffffffffffff\n      and\n      0xffffffffffffffff\n      and\n      dup2\n      mstore\n      0x20\n      add\n      swap1\n      dup2\n      mstore\n      0x20\n      add\n      0x00\n      keccak256\n        /* \"contracts/TimeMarket.sol\":2807:2849  tradeMes memory maxTradeMes=_tradeMes[_id] */\n      mload(0x40)\n      dup1\n      0x0100\n      add\n      0x40\n      mstore\n      swap1\n      dup2\n      0x00\n      dup3\n      add\n      0x00\n      swap1\n      sload\n      swap1\n      0x0100\n      exp\n      swap1\n      div\n      0xff\n      and\n      0xff\n      and\n      0xff\n      and\n      dup2\n      mstore\n      0x20\n      add\n      0x00\n      dup3\n      add\n      0x01\n      swap1\n      sload\n      swap1\n      0x0100\n      exp\n      swap1\n      div\n      0xffffffffffffffff\n      and\n      0xffffffffffffffff\n      and\n      0xffffffffffffffff\n      and\n      dup2\n      mstore\n      0x20\n      add\n      0x00\n      dup3\n      add\n      0x09\n      swap1\n      sload\n      swap1\n      0x0100\n      exp\n      swap1\n      div\n      0xffffffffffffff\n      and\n      0xffffffffffffff\n      and\n      0xffffffffffffff\n      and\n      dup2\n      mstore\n      0x20\n      add\n      0x00\n      dup3\n      add\n      0x10\n      swap1\n      sload\n      swap1\n      0x0100\n      exp\n      swap1\n      div\n      0xffffffffffffffffffffffffffffffff\n      and\n      0xffffffffffffffffffffffffffffffff\n      and\n      0xffffffffffffffffffffffffffffffff\n      and\n      dup2\n      mstore\n      0x20\n      add\n      0x01\n      dup3\n      add\n      0x00\n      swap1\n      sload\n      swap1\n      0x0100\n      exp\n      swap1\n      div\n      0xffffffffffffffffffffffffffffffff\n      and\n      0xffffffffffffffffffffffffffffffff\n      and\n      0xffffffffffffffffffffffffffffffff\n      and\n      dup2\n      mstore\n      0x20\n      add\n      0x02\n      dup3\n      add\n      0x00\n      swap1\n      sload\n      swap1\n      0x0100\n      exp\n      swap1\n      div\n      0xffffffffffffffffffffffffffffffffffffffff\n      and\n      0xffffffffffffffffffffffffffffffffffffffff\n      and\n      0xffffffffffffffffffffffffffffffffffffffff\n      and\n      dup2\n      mstore\n      0x20\n      add\n      0x03\n      dup3\n      add\n      0x00\n      swap1\n      sload\n      swap1\n      0x0100\n      exp\n      swap1\n      div\n      0xffffffffffffffffffffffffffffffffffffffff\n      and\n      0xffffffffffffffffffffffffffffffffffffffff\n      and\n      0xffffffffffffffffffffffffffffffffffffffff\n      and\n      dup2\n      mstore\n      0x20\n      add\n      0x04\n      dup3\n      add\n      0x00\n      swap1\n      sload\n      swap1\n      0x0100\n      exp\n      swap1\n      div\n      0xffffffffffffffffffffffffffffffffffffffff\n      and\n      0xffffffffffffffffffffffffffffffffffffffff\n      and\n      0xffffffffffffffffffffffffffffffffffffffff\n      and\n      dup2\n      mstore\n      pop\n      pop\n      swap1\n      pop\n        /* \"contracts/TimeMarket.sol\":2892:2893  1 */\n      0x01\n        /* \"contracts/TimeMarket.sol\":2868:2879  maxTradeMes */\n      dup2\n        /* \"contracts/TimeMarket.sol\":2868:2890  maxTradeMes.tradeState */\n      0x00\n      add\n      mload\n        /* \"contracts/TimeMarket.sol\":2868:2893  maxTradeMes.tradeState==1 */\n      0xff\n      and\n      eq\n        /* \"contracts/TimeMarket.sol\":2860:2894  require(maxTradeMes.tradeState==1) */\n      tag_159\n      jumpi\n      0x00\n      dup1\n      revert\n    tag_159:\n        /* \"contracts/TimeMarket.sol\":2933:2959  address promiseStableToken */\n      0x00\n        /* \"contracts/TimeMarket.sol\":2960:2971  maxTradeMes */\n      dup2\n        /* \"contracts/TimeMarket.sol\":2960:2984  maxTradeMes.tokenAddress */\n      0xa0\n      add\n      mload\n        /* \"contracts/TimeMarket.sol\":2933:2984  address promiseStableToken=maxTradeMes.tokenAddress */\n      swap1\n      pop\n        /* \"contracts/TimeMarket.sol\":3077:3093  address thisPool */\n      0x00\n        /* \"contracts/TimeMarket.sol\":3094:3140  getPoolAddress(promiseStableToken,token1,1000) */\n      tag_160\n        /* \"contracts/TimeMarket.sol\":3109:3127  promiseStableToken */\n      dup3\n        /* \"contracts/TimeMarket.sol\":3128:3134  token1 */\n      dup6\n        /* \"contracts/TimeMarket.sol\":3135:3139  1000 */\n      0x03e8\n        /* \"contracts/TimeMarket.sol\":3094:3108  getPoolAddress */\n      tag_38\n        /* \"contracts/TimeMarket.sol\":3094:3140  getPoolAddress(promiseStableToken,token1,1000) */\n      jump\t// in\n    tag_160:\n        /* \"contracts/TimeMarket.sol\":3077:3140  address thisPool=getPoolAddress(promiseStableToken,token1,1000) */\n      swap1\n      pop\n        /* \"contracts/TimeMarket.sol\":3151:3167  uint penalAmount */\n      0x00\n        /* \"contracts/TimeMarket.sol\":3168:3226  getPenal(maxTradeMes.buyPrice, maxTradeMes.buyTotalAmount) */\n      tag_161\n        /* \"contracts/TimeMarket.sol\":3177:3188  maxTradeMes */\n      dup5\n        /* \"contracts/TimeMarket.sol\":3177:3197  maxTradeMes.buyPrice */\n      0x80\n      add\n      mload\n        /* \"contracts/TimeMarket.sol\":3199:3210  maxTradeMes */\n      dup6\n        /* \"contracts/TimeMarket.sol\":3199:3225  maxTradeMes.buyTotalAmount */\n      0x60\n      add\n      mload\n        /* \"contracts/TimeMarket.sol\":3168:3176  getPenal */\n      tag_47\n        /* \"contracts/TimeMarket.sol\":3168:3226  getPenal(maxTradeMes.buyPrice, maxTradeMes.buyTotalAmount) */\n      jump\t// in\n    tag_161:\n        /* \"contracts/TimeMarket.sol\":3151:3226  uint penalAmount=getPenal(maxTradeMes.buyPrice, maxTradeMes.buyTotalAmount) */\n      swap1\n      pop\n        /* \"contracts/TimeMarket.sol\":3264:3397  IERC20(promiseStableToken).safeTransferFrom(... */\n      tag_162\n        /* \"contracts/TimeMarket.sol\":3322:3332  msg.sender */\n      caller\n        /* \"contracts/TimeMarket.sol\":3355:3359  this */\n      address\n        /* \"contracts/TimeMarket.sol\":3375:3386  penalAmount */\n      dup4\n        /* \"contracts/TimeMarket.sol\":3271:3289  promiseStableToken */\n      dup7\n        /* \"contracts/TimeMarket.sol\":3264:3307  IERC20(promiseStableToken).safeTransferFrom */\n      0xffffffffffffffffffffffffffffffffffffffff\n      and\n      tag_78\n      swap1\n        /* \"contracts/TimeMarket.sol\":3264:3397  IERC20(promiseStableToken).safeTransferFrom(... */\n      swap4\n      swap3\n      swap2\n      swap1\n      0xffffffff\n      and\n      jump\t// in\n    tag_162:\n        /* \"contracts/TimeMarket.sol\":3472:3532  IERC20(promiseStableToken).safeApprove(thisPool,penalAmount) */\n      tag_163\n        /* \"contracts/TimeMarket.sol\":3511:3519  thisPool */\n      dup3\n        /* \"contracts/TimeMarket.sol\":3520:3531  penalAmount */\n      dup3\n        /* \"contracts/TimeMarket.sol\":3479:3497  promiseStableToken */\n      dup6\n        /* \"contracts/TimeMarket.sol\":3472:3510  IERC20(promiseStableToken).safeApprove */\n      0xffffffffffffffffffffffffffffffffffffffff\n      and\n      tag_80\n      swap1\n        /* \"contracts/TimeMarket.sol\":3472:3532  IERC20(promiseStableToken).safeApprove(thisPool,penalAmount) */\n      swap3\n      swap2\n      swap1\n      0xffffffff\n      and\n      jump\t// in\n    tag_163:\n        /* \"contracts/TimeMarket.sol\":3543:3622  IERC20(promiseStableToken).safeTransferFrom(address(this),thisPool,penalAmount) */\n      tag_164\n        /* \"contracts/TimeMarket.sol\":3595:3599  this */\n      address\n        /* \"contracts/TimeMarket.sol\":3601:3609  thisPool */\n      dup4\n        /* \"contracts/TimeMarket.sol\":3610:3621  penalAmount */\n      dup4\n        /* \"contracts/TimeMarket.sol\":3550:3568  promiseStableToken */\n      dup7\n        /* \"contracts/TimeMarket.sol\":3543:3586  IERC20(promiseStableToken).safeTransferFrom */\n      0xffffffffffffffffffffffffffffffffffffffff\n      and\n      tag_78\n      swap1\n        /* \"contracts/TimeMarket.sol\":3543:3622  IERC20(promiseStableToken).safeTransferFrom(address(this),thisPool,penalAmount) */\n      swap4\n      swap3\n      swap2\n      swap1\n      0xffffffff\n      and\n      jump\t// in\n    tag_164:\n        /* \"contracts/TimeMarket.sol\":3662:3672  msg.sender */\n      caller\n        /* \"contracts/TimeMarket.sol\":3633:3642  _tradeMes */\n      0x04\n        /* \"contracts/TimeMarket.sol\":3633:3647  _tradeMes[_id] */\n      0x00\n        /* \"contracts/TimeMarket.sol\":3643:3646  _id */\n      dup9\n        /* \"contracts/TimeMarket.sol\":3633:3647  _tradeMes[_id] */\n      0xffffffffffffffff\n      and\n      0xffffffffffffffff\n      and\n      dup2\n      mstore\n      0x20\n      add\n      swap1\n      dup2\n      mstore\n      0x20\n      add\n      0x00\n      keccak256\n        /* \"contracts/TimeMarket.sol\":3633:3661  _tradeMes[_id].solderAddress */\n      0x04\n      add\n      0x00\n        /* \"contracts/TimeMarket.sol\":3633:3672  _tradeMes[_id].solderAddress=msg.sender */\n      0x0100\n      exp\n      dup2\n      sload\n      dup2\n      0xffffffffffffffffffffffffffffffffffffffff\n      mul\n      not\n      and\n      swap1\n      dup4\n      0xffffffffffffffffffffffffffffffffffffffff\n      and\n      mul\n      or\n      swap1\n      sstore\n      pop\n        /* \"contracts/TimeMarket.sol\":3752:3753  2 */\n      0x02\n        /* \"contracts/TimeMarket.sol\":3726:3735  _tradeMes */\n      0x04\n        /* \"contracts/TimeMarket.sol\":3726:3740  _tradeMes[_id] */\n      0x00\n        /* \"contracts/TimeMarket.sol\":3736:3739  _id */\n      dup9\n        /* \"contracts/TimeMarket.sol\":3726:3740  _tradeMes[_id] */\n      0xffffffffffffffff\n      and\n      0xffffffffffffffff\n      and\n      dup2\n      mstore\n      0x20\n      add\n      swap1\n      dup2\n      mstore\n      0x20\n      add\n      0x00\n      keccak256\n        /* \"contracts/TimeMarket.sol\":3726:3751  _tradeMes[_id].tradeState */\n      0x00\n      add\n      0x00\n        /* \"contracts/TimeMarket.sol\":3726:3753  _tradeMes[_id].tradeState=2 */\n      0x0100\n      exp\n      dup2\n      sload\n      dup2\n      0xff\n      mul\n      not\n      and\n      swap1\n      dup4\n      0xff\n      and\n      mul\n      or\n      swap1\n      sstore\n      pop\n        /* \"contracts/TimeMarket.sol\":2796:3761  {... */\n      pop\n      pop\n      pop\n      pop\n        /* \"contracts/TimeMarket.sol\":2746:3761  function Sale(uint64 _id,address token1) external {... */\n      pop\n      pop\n      jump\t// out\n        /* \"contracts/TimeMarket.sol\":1302:1366  mapping(address => mapping(uint256=>bool))public userIfWithdraw2 */\n    tag_66:\n      mstore(0x20, 0x07)\n      dup2\n      0x00\n      mstore\n      mstore(0x20, keccak256(0x00, 0x40))\n      dup1\n      0x00\n      mstore\n      keccak256(0x00, 0x40)\n      0x00\n      swap2\n      pop\n      swap2\n      pop\n      swap1\n      sload\n      swap1\n      0x0100\n      exp\n      swap1\n      div\n      0xff\n      and\n      dup2\n      jump\t// out\n        /* \"contracts/TimeMarket.sol\":1537:1601  mapping(address => mapping(uint256=>bool))public userIfWithdraw4 */\n    tag_70:\n      mstore(0x20, 0x09)\n      dup2\n      0x00\n      mstore\n      mstore(0x20, keccak256(0x00, 0x40))\n      dup1\n      0x00\n      mstore\n      keccak256(0x00, 0x40)\n      0x00\n      swap2\n      pop\n      swap2\n      pop\n      swap1\n      sload\n      swap1\n      0x0100\n      exp\n      swap1\n      div\n      0xff\n      and\n      dup2\n      jump\t// out\n        /* \"libraries/SafeERC20.sol\":1447:1652  function safeTransferFrom(IERC20 token, address from, address to, uint256 value) internal {... */\n    tag_78:\n        /* \"libraries/SafeERC20.sol\":1548:1644  _callOptionalReturn(token, abi.encodeWithSelector(token.transferFrom.selector, from, to, value)) */\n      tag_166\n        /* \"libraries/SafeERC20.sol\":1568:1573  token */\n      dup5\n        /* \"libraries/SafeERC20.sol\":1598:1625  token.transferFrom.selector */\n      shl(0xe0, 0x23b872dd)\n        /* \"libraries/SafeERC20.sol\":1627:1631  from */\n      dup6\n        /* \"libraries/SafeERC20.sol\":1633:1635  to */\n      dup6\n        /* \"libraries/SafeERC20.sol\":1637:1642  value */\n      dup6\n        /* \"libraries/SafeERC20.sol\":1575:1643  abi.encodeWithSelector(token.transferFrom.selector, from, to, value) */\n      add(0x24, mload(0x40))\n      tag_167\n      swap4\n      swap3\n      swap2\n      swap1\n      tag_168\n      jump\t// in\n    tag_167:\n      mload(0x40)\n      0x20\n      dup2\n      dup4\n      sub\n      sub\n      dup2\n      mstore\n      swap1\n      0x40\n      mstore\n      swap1\n      not(0xffffffffffffffffffffffffffffffffffffffffffffffffffffffff)\n      and\n      0x20\n      dup3\n      add\n      dup1\n      mload\n      0xffffffffffffffffffffffffffffffffffffffffffffffffffffffff\n      dup4\n      dup2\n      dup4\n      and\n      or\n      dup4\n      mstore\n      pop\n      pop\n      pop\n      pop\n        /* \"libraries/SafeERC20.sol\":1548:1567  _callOptionalReturn */\n      tag_169\n        /* \"libraries/SafeERC20.sol\":1548:1644  _callOptionalReturn(token, abi.encodeWithSelector(token.transferFrom.selector, from, to, value)) */\n      jump\t// in\n    tag_166:\n        /* \"libraries/SafeERC20.sol\":1447:1652  function safeTransferFrom(IERC20 token, address from, address to, uint256 value) internal {... */\n      pop\n      pop\n      pop\n      pop\n      jump\t// out\n        /* \"libraries/SafeERC20.sol\":1921:2503  function safeApprove(IERC20 token, address spender, uint256 value) internal {... */\n    tag_80:\n        /* \"libraries/SafeERC20.sol\":2260:2261  0 */\n      0x00\n        /* \"libraries/SafeERC20.sol\":2251:2256  value */\n      dup2\n        /* \"libraries/SafeERC20.sol\":2251:2261  value == 0 */\n      eq\n        /* \"libraries/SafeERC20.sol\":2250:2312  (value == 0) || (token.allowance(address(this), spender) == 0) */\n      dup1\n      tag_171\n      jumpi\n      pop\n        /* \"libraries/SafeERC20.sol\":2310:2311  0 */\n      0x00\n        /* \"libraries/SafeERC20.sol\":2267:2272  token */\n      dup4\n        /* \"libraries/SafeERC20.sol\":2267:2282  token.allowance */\n      0xffffffffffffffffffffffffffffffffffffffff\n      and\n      0xdd62ed3e\n        /* \"libraries/SafeERC20.sol\":2291:2295  this */\n      address\n        /* \"libraries/SafeERC20.sol\":2298:2305  spender */\n      dup6\n        /* \"libraries/SafeERC20.sol\":2267:2306  token.allowance(address(this), spender) */\n      mload(0x40)\n      dup4\n      0xffffffff\n      and\n      0xe0\n      shl\n      dup2\n      mstore\n      0x04\n      add\n      tag_172\n      swap3\n      swap2\n      swap1\n      tag_173\n      jump\t// in\n    tag_172:\n      0x20\n      mload(0x40)\n      dup1\n      dup4\n      sub\n      dup2\n      dup7\n      gas\n      staticcall\n      iszero\n      dup1\n      iszero\n      tag_175\n      jumpi\n      returndatasize\n      0x00\n      dup1\n      returndatacopy\n      revert(0x00, returndatasize)\n    tag_175:\n      pop\n      pop\n      pop\n      pop\n      mload(0x40)\n      returndatasize\n      not(0x1f)\n      0x1f\n      dup3\n      add\n      and\n      dup3\n      add\n      dup1\n      0x40\n      mstore\n      pop\n      dup2\n      add\n      swap1\n      tag_176\n      swap2\n      swap1\n      tag_177\n      jump\t// in\n    tag_176:\n        /* \"libraries/SafeERC20.sol\":2267:2311  token.allowance(address(this), spender) == 0 */\n      eq\n        /* \"libraries/SafeERC20.sol\":2250:2312  (value == 0) || (token.allowance(address(this), spender) == 0) */\n    tag_171:\n        /* \"libraries/SafeERC20.sol\":2228:2394  require(... */\n      tag_178\n      jumpi\n      mload(0x40)\n      0x08c379a000000000000000000000000000000000000000000000000000000000\n      dup2\n      mstore\n      0x04\n      add\n      tag_179\n      swap1\n      tag_180\n      jump\t// in\n    tag_179:\n      mload(0x40)\n      dup1\n      swap2\n      sub\n      swap1\n      revert\n    tag_178:\n        /* \"libraries/SafeERC20.sol\":2405:2495  _callOptionalReturn(token, abi.encodeWithSelector(token.approve.selector, spender, value)) */\n      tag_181\n        /* \"libraries/SafeERC20.sol\":2425:2430  token */\n      dup4\n        /* \"libraries/SafeERC20.sol\":2455:2477  token.approve.selector */\n      shl(0xe0, 0x095ea7b3)\n        /* \"libraries/SafeERC20.sol\":2479:2486  spender */\n      dup5\n        /* \"libraries/SafeERC20.sol\":2488:2493  value */\n      dup5\n        /* \"libraries/SafeERC20.sol\":2432:2494  abi.encodeWithSelector(token.approve.selector, spender, value) */\n      add(0x24, mload(0x40))\n      tag_182\n      swap3\n      swap2\n      swap1\n      tag_183\n      jump\t// in\n    tag_182:\n      mload(0x40)\n      0x20\n      dup2\n      dup4\n      sub\n      sub\n      dup2\n      mstore\n      swap1\n      0x40\n      mstore\n      swap1\n      not(0xffffffffffffffffffffffffffffffffffffffffffffffffffffffff)\n      and\n      0x20\n      dup3\n      add\n      dup1\n      mload\n      0xffffffffffffffffffffffffffffffffffffffffffffffffffffffff\n      dup4\n      dup2\n      dup4\n      and\n      or\n      dup4\n      mstore\n      pop\n      pop\n      pop\n      pop\n        /* \"libraries/SafeERC20.sol\":2405:2424  _callOptionalReturn */\n      tag_169\n        /* \"libraries/SafeERC20.sol\":2405:2495  _callOptionalReturn(token, abi.encodeWithSelector(token.approve.selector, spender, value)) */\n      jump\t// in\n    tag_181:\n        /* \"libraries/SafeERC20.sol\":1921:2503  function safeApprove(IERC20 token, address spender, uint256 value) internal {... */\n      pop\n      pop\n      pop\n      jump\t// out\n        /* \"contracts/TimeMarket.sol\":8643:8757  function getSolder(uint64 _id)internal view returns(address){... */\n    tag_87:\n        /* \"contracts/TimeMarket.sol\":8695:8702  address */\n      0x00\n        /* \"contracts/TimeMarket.sol\":8721:8730  _tradeMes */\n      0x04\n        /* \"contracts/TimeMarket.sol\":8721:8735  _tradeMes[_id] */\n      0x00\n        /* \"contracts/TimeMarket.sol\":8731:8734  _id */\n      dup4\n        /* \"contracts/TimeMarket.sol\":8721:8735  _tradeMes[_id] */\n      0xffffffffffffffff\n      and\n      0xffffffffffffffff\n      and\n      dup2\n      mstore\n      0x20\n      add\n      swap1\n      dup2\n      mstore\n      0x20\n      add\n      0x00\n      keccak256\n        /* \"contracts/TimeMarket.sol\":8721:8749  _tradeMes[_id].solderAddress */\n      0x04\n      add\n      0x00\n      swap1\n      sload\n      swap1\n      0x0100\n      exp\n      swap1\n      div\n      0xffffffffffffffffffffffffffffffffffffffff\n      and\n        /* \"contracts/TimeMarket.sol\":8714:8749  return _tradeMes[_id].solderAddress */\n      swap1\n      pop\n        /* \"contracts/TimeMarket.sol\":8643:8757  function getSolder(uint64 _id)internal view returns(address){... */\n      swap2\n      swap1\n      pop\n      jump\t// out\n        /* \"contracts/TimeMarket.sol\":8483:8595  function getBuyer(uint64 _id)internal view returns(address){... */\n    tag_92:\n        /* \"contracts/TimeMarket.sol\":8534:8541  address */\n      0x00\n        /* \"contracts/TimeMarket.sol\":8560:8569  _tradeMes */\n      0x04\n        /* \"contracts/TimeMarket.sol\":8560:8574  _tradeMes[_id] */\n      0x00\n        /* \"contracts/TimeMarket.sol\":8570:8573  _id */\n      dup4\n        /* \"contracts/TimeMarket.sol\":8560:8574  _tradeMes[_id] */\n      0xffffffffffffffff\n      and\n      0xffffffffffffffff\n      and\n      dup2\n      mstore\n      0x20\n      add\n      swap1\n      dup2\n      mstore\n      0x20\n      add\n      0x00\n      keccak256\n        /* \"contracts/TimeMarket.sol\":8560:8587  _tradeMes[_id].buyerAddress */\n      0x03\n      add\n      0x00\n      swap1\n      sload\n      swap1\n      0x0100\n      exp\n      swap1\n      div\n      0xffffffffffffffffffffffffffffffffffffffff\n      and\n        /* \"contracts/TimeMarket.sol\":8553:8587  return _tradeMes[_id].buyerAddress */\n      swap1\n      pop\n        /* \"contracts/TimeMarket.sol\":8483:8595  function getBuyer(uint64 _id)internal view returns(address){... */\n      swap2\n      swap1\n      pop\n      jump\t// out\n        /* \"libraries/TimeFee.sol\":250:680  function fee(uint256 stableAmount)internal pure returns(uint256 stableFee){... */\n    tag_100:\n        /* \"libraries/TimeFee.sol\":306:323  uint256 stableFee */\n      0x00\n        /* \"libraries/TimeFee.sol\":352:361  100 ether */\n      0x056bc75e2d63100000\n        /* \"libraries/TimeFee.sol\":338:350  stableAmount */\n      dup3\n        /* \"libraries/TimeFee.sol\":338:361  stableAmount>=100 ether */\n      lt\n      iszero\n        /* \"libraries/TimeFee.sol\":338:388  stableAmount>=100 ether && stableAmount<1000 ether */\n      dup1\n      iszero\n      tag_187\n      jumpi\n      pop\n        /* \"libraries/TimeFee.sol\":378:388  1000 ether */\n      0x3635c9adc5dea00000\n        /* \"libraries/TimeFee.sol\":365:377  stableAmount */\n      dup3\n        /* \"libraries/TimeFee.sol\":365:388  stableAmount<1000 ether */\n      lt\n        /* \"libraries/TimeFee.sol\":338:388  stableAmount>=100 ether && stableAmount<1000 ether */\n    tag_187:\n        /* \"libraries/TimeFee.sol\":335:673  if(stableAmount>=100 ether && stableAmount<1000 ether){... */\n      iszero\n      tag_188\n      jumpi\n        /* \"libraries/TimeFee.sol\":424:427  100 */\n      0x64\n        /* \"libraries/TimeFee.sol\":411:423  stableAmount */\n      dup3\n        /* \"libraries/TimeFee.sol\":411:427  stableAmount/100 */\n      tag_189\n      swap2\n      swap1\n      tag_137\n      jump\t// in\n    tag_189:\n        /* \"libraries/TimeFee.sol\":404:427  return stableAmount/100 */\n      swap1\n      pop\n      jump(tag_186)\n        /* \"libraries/TimeFee.sol\":335:673  if(stableAmount>=100 ether && stableAmount<1000 ether){... */\n    tag_188:\n        /* \"libraries/TimeFee.sol\":461:471  1000 ether */\n      0x3635c9adc5dea00000\n        /* \"libraries/TimeFee.sol\":447:459  stableAmount */\n      dup3\n        /* \"libraries/TimeFee.sol\":447:471  stableAmount>=1000 ether */\n      lt\n      iszero\n        /* \"libraries/TimeFee.sol\":447:499  stableAmount>=1000 ether && stableAmount<10000 ether */\n      dup1\n      iszero\n      tag_191\n      jumpi\n      pop\n        /* \"libraries/TimeFee.sol\":488:499  10000 ether */\n      0x021e19e0c9bab2400000\n        /* \"libraries/TimeFee.sol\":475:487  stableAmount */\n      dup3\n        /* \"libraries/TimeFee.sol\":475:499  stableAmount<10000 ether */\n      lt\n        /* \"libraries/TimeFee.sol\":447:499  stableAmount>=1000 ether && stableAmount<10000 ether */\n    tag_191:\n        /* \"libraries/TimeFee.sol\":444:673  if(stableAmount>=1000 ether && stableAmount<10000 ether){... */\n      iszero\n      tag_192\n      jumpi\n        /* \"libraries/TimeFee.sol\":535:538  200 */\n      0xc8\n        /* \"libraries/TimeFee.sol\":522:534  stableAmount */\n      dup3\n        /* \"libraries/TimeFee.sol\":522:538  stableAmount/200 */\n      tag_193\n      swap2\n      swap1\n      tag_137\n      jump\t// in\n    tag_193:\n        /* \"libraries/TimeFee.sol\":515:538  return stableAmount/200 */\n      swap1\n      pop\n      jump(tag_186)\n        /* \"libraries/TimeFee.sol\":444:673  if(stableAmount>=1000 ether && stableAmount<10000 ether){... */\n    tag_192:\n        /* \"libraries/TimeFee.sol\":572:583  10000 ether */\n      0x021e19e0c9bab2400000\n        /* \"libraries/TimeFee.sol\":558:570  stableAmount */\n      dup3\n        /* \"libraries/TimeFee.sol\":558:583  stableAmount>=10000 ether */\n      lt\n        /* \"libraries/TimeFee.sol\":555:673  if(stableAmount>=10000 ether){... */\n      tag_195\n      jumpi\n        /* \"libraries/TimeFee.sol\":619:622  400 */\n      0x0190\n        /* \"libraries/TimeFee.sol\":606:618  stableAmount */\n      dup3\n        /* \"libraries/TimeFee.sol\":606:622  stableAmount/400 */\n      tag_196\n      swap2\n      swap1\n      tag_137\n      jump\t// in\n    tag_196:\n        /* \"libraries/TimeFee.sol\":599:622  return stableAmount/400 */\n      swap1\n      pop\n      jump(tag_186)\n        /* \"libraries/TimeFee.sol\":555:673  if(stableAmount>=10000 ether){... */\n    tag_195:\n        /* \"libraries/TimeFee.sol\":660:661  0 */\n      0x00\n        /* \"libraries/TimeFee.sol\":653:661  return 0 */\n      swap1\n      pop\n        /* \"libraries/TimeFee.sol\":250:680  function fee(uint256 stableAmount)internal pure returns(uint256 stableFee){... */\n    tag_186:\n      swap2\n      swap1\n      pop\n      jump\t// out\n        /* \"libraries/SafeERC20.sol\":1025:1202  function safeTransfer(IERC20 token, address to, uint256 value) internal {... */\n    tag_102:\n        /* \"libraries/SafeERC20.sol\":1108:1194  _callOptionalReturn(token, abi.encodeWithSelector(token.transfer.selector, to, value)) */\n      tag_199\n        /* \"libraries/SafeERC20.sol\":1128:1133  token */\n      dup4\n        /* \"libraries/SafeERC20.sol\":1158:1181  token.transfer.selector */\n      shl(0xe0, 0xa9059cbb)\n        /* \"libraries/SafeERC20.sol\":1183:1185  to */\n      dup5\n        /* \"libraries/SafeERC20.sol\":1187:1192  value */\n      dup5\n        /* \"libraries/SafeERC20.sol\":1135:1193  abi.encodeWithSelector(token.transfer.selector, to, value) */\n      add(0x24, mload(0x40))\n      tag_200\n      swap3\n      swap2\n      swap1\n      tag_183\n      jump\t// in\n    tag_200:\n      mload(0x40)\n      0x20\n      dup2\n      dup4\n      sub\n      sub\n      dup2\n      mstore\n      swap1\n      0x40\n      mstore\n      swap1\n      not(0xffffffffffffffffffffffffffffffffffffffffffffffffffffffff)\n      and\n      0x20\n      dup3\n      add\n      dup1\n      mload\n      0xffffffffffffffffffffffffffffffffffffffffffffffffffffffff\n      dup4\n      dup2\n      dup4\n      and\n      or\n      dup4\n      mstore\n      pop\n      pop\n      pop\n      pop\n        /* \"libraries/SafeERC20.sol\":1108:1127  _callOptionalReturn */\n      tag_169\n        /* \"libraries/SafeERC20.sol\":1108:1194  _callOptionalReturn(token, abi.encodeWithSelector(token.transfer.selector, to, value)) */\n      jump\t// in\n    tag_199:\n        /* \"libraries/SafeERC20.sol\":1025:1202  function safeTransfer(IERC20 token, address to, uint256 value) internal {... */\n      pop\n      pop\n      pop\n      jump\t// out\n        /* \"libraries/SafeERC20.sol\":5371:6020  function _callOptionalReturn(IERC20 token, bytes memory data) private {... */\n    tag_169:\n        /* \"libraries/SafeERC20.sol\":5795:5818  bytes memory returndata */\n      0x00\n        /* \"libraries/SafeERC20.sol\":5821:5890  address(token).functionCall(data, \"SafeERC20: low-level call failed\") */\n      tag_202\n        /* \"libraries/SafeERC20.sol\":5849:5853  data */\n      dup3\n        /* \"libraries/SafeERC20.sol\":5821:5890  address(token).functionCall(data, \"SafeERC20: low-level call failed\") */\n      mload(0x40)\n      dup1\n      0x40\n      add\n      0x40\n      mstore\n      dup1\n      0x20\n      dup2\n      mstore\n      0x20\n      add\n      0x5361666545524332303a206c6f772d6c6576656c2063616c6c206661696c6564\n      dup2\n      mstore\n      pop\n        /* \"libraries/SafeERC20.sol\":5829:5834  token */\n      dup6\n        /* \"libraries/SafeERC20.sol\":5821:5848  address(token).functionCall */\n      0xffffffffffffffffffffffffffffffffffffffff\n      and\n      tag_203\n      swap1\n        /* \"libraries/SafeERC20.sol\":5821:5890  address(token).functionCall(data, \"SafeERC20: low-level call failed\") */\n      swap3\n      swap2\n      swap1\n      0xffffffff\n      and\n      jump\t// in\n    tag_202:\n        /* \"libraries/SafeERC20.sol\":5795:5890  bytes memory returndata = address(token).functionCall(data, \"SafeERC20: low-level call failed\") */\n      swap1\n      pop\n        /* \"libraries/SafeERC20.sol\":5930:5931  0 */\n      0x00\n        /* \"libraries/SafeERC20.sol\":5909:5919  returndata */\n      dup2\n        /* \"libraries/SafeERC20.sol\":5909:5926  returndata.length */\n      mload\n        /* \"libraries/SafeERC20.sol\":5909:5931  returndata.length == 0 */\n      eq\n        /* \"libraries/SafeERC20.sol\":5909:5965  returndata.length == 0 || abi.decode(returndata, (bool)) */\n      dup1\n      tag_204\n      jumpi\n      pop\n        /* \"libraries/SafeERC20.sol\":5946:5956  returndata */\n      dup1\n        /* \"libraries/SafeERC20.sol\":5935:5965  abi.decode(returndata, (bool)) */\n      dup1\n      0x20\n      add\n      swap1\n      mload\n      dup2\n      add\n      swap1\n      tag_205\n      swap2\n      swap1\n      tag_206\n      jump\t// in\n    tag_205:\n        /* \"libraries/SafeERC20.sol\":5909:5965  returndata.length == 0 || abi.decode(returndata, (bool)) */\n    tag_204:\n        /* \"libraries/SafeERC20.sol\":5901:6012  require(returndata.length == 0 || abi.decode(returndata, (bool)), \"SafeERC20: ERC20 operation did not succeed\") */\n      tag_207\n      jumpi\n      mload(0x40)\n      0x08c379a000000000000000000000000000000000000000000000000000000000\n      dup2\n      mstore\n      0x04\n      add\n      tag_208\n      swap1\n      tag_209\n      jump\t// in\n    tag_208:\n      mload(0x40)\n      dup1\n      swap2\n      sub\n      swap1\n      revert\n    tag_207:\n        /* \"libraries/SafeERC20.sol\":5441:6020  {... */\n      pop\n        /* \"libraries/SafeERC20.sol\":5371:6020  function _callOptionalReturn(IERC20 token, bytes memory data) private {... */\n      pop\n      pop\n      jump\t// out\n        /* \"libraries/Address.sol\":4207:4436  function functionCall(... */\n    tag_203:\n        /* \"libraries/Address.sol\":4344:4356  bytes memory */\n      0x60\n        /* \"libraries/Address.sol\":4376:4428  functionCallWithValue(target, data, 0, errorMessage) */\n      tag_211\n        /* \"libraries/Address.sol\":4398:4404  target */\n      dup5\n        /* \"libraries/Address.sol\":4406:4410  data */\n      dup5\n        /* \"libraries/Address.sol\":4412:4413  0 */\n      0x00\n        /* \"libraries/Address.sol\":4415:4427  errorMessage */\n      dup6\n        /* \"libraries/Address.sol\":4376:4397  functionCallWithValue */\n      tag_212\n        /* \"libraries/Address.sol\":4376:4428  functionCallWithValue(target, data, 0, errorMessage) */\n      jump\t// in\n    tag_211:\n        /* \"libraries/Address.sol\":4369:4428  return functionCallWithValue(target, data, 0, errorMessage) */\n      swap1\n      pop\n        /* \"libraries/Address.sol\":4207:4436  function functionCall(... */\n      swap4\n      swap3\n      pop\n      pop\n      pop\n      jump\t// out\n        /* \"libraries/Address.sol\":5293:5748  function functionCallWithValue(... */\n    tag_212:\n        /* \"libraries/Address.sol\":5463:5475  bytes memory */\n      0x60\n        /* \"libraries/Address.sol\":5521:5526  value */\n      dup3\n        /* \"libraries/Address.sol\":5496:5517  address(this).balance */\n      selfbalance\n        /* \"libraries/Address.sol\":5496:5526  address(this).balance >= value */\n      lt\n      iszero\n        /* \"libraries/Address.sol\":5488:5569  require(address(this).balance >= value, \"Address: insufficient balance for call\") */\n      tag_214\n      jumpi\n      mload(0x40)\n      0x08c379a000000000000000000000000000000000000000000000000000000000\n      dup2\n      mstore\n      0x04\n      add\n      tag_215\n      swap1\n      tag_216\n      jump\t// in\n    tag_215:\n      mload(0x40)\n      dup1\n      swap2\n      sub\n      swap1\n      revert\n    tag_214:\n        /* \"libraries/Address.sol\":5581:5593  bool success */\n      0x00\n        /* \"libraries/Address.sol\":5595:5618  bytes memory returndata */\n      dup1\n        /* \"libraries/Address.sol\":5622:5628  target */\n      dup7\n        /* \"libraries/Address.sol\":5622:5633  target.call */\n      0xffffffffffffffffffffffffffffffffffffffff\n      and\n        /* \"libraries/Address.sol\":5641:5646  value */\n      dup6\n        /* \"libraries/Address.sol\":5648:5652  data */\n      dup8\n        /* \"libraries/Address.sol\":5622:5653  target.call{value: value}(data) */\n      mload(0x40)\n      tag_217\n      swap2\n      swap1\n      tag_218\n      jump\t// in\n    tag_217:\n      0x00\n      mload(0x40)\n      dup1\n      dup4\n      sub\n      dup2\n      dup6\n      dup8\n      gas\n      call\n      swap3\n      pop\n      pop\n      pop\n      returndatasize\n      dup1\n      0x00\n      dup2\n      eq\n      tag_221\n      jumpi\n      mload(0x40)\n      swap2\n      pop\n      and(add(returndatasize, 0x3f), not(0x1f))\n      dup3\n      add\n      0x40\n      mstore\n      returndatasize\n      dup3\n      mstore\n      returndatasize\n      0x00\n      0x20\n      dup5\n      add\n      returndatacopy\n      jump(tag_220)\n    tag_221:\n      0x60\n      swap2\n      pop\n    tag_220:\n      pop\n        /* \"libraries/Address.sol\":5580:5653  (bool success, bytes memory returndata) = target.call{value: value}(data) */\n      swap2\n      pop\n      swap2\n      pop\n        /* \"libraries/Address.sol\":5671:5740  verifyCallResultFromTarget(target, success, returndata, errorMessage) */\n      tag_222\n        /* \"libraries/Address.sol\":5698:5704  target */\n      dup8\n        /* \"libraries/Address.sol\":5706:5713  success */\n      dup4\n        /* \"libraries/Address.sol\":5715:5725  returndata */\n      dup4\n        /* \"libraries/Address.sol\":5727:5739  errorMessage */\n      dup8\n        /* \"libraries/Address.sol\":5671:5697  verifyCallResultFromTarget */\n      tag_223\n        /* \"libraries/Address.sol\":5671:5740  verifyCallResultFromTarget(target, success, returndata, errorMessage) */\n      jump\t// in\n    tag_222:\n        /* \"libraries/Address.sol\":5664:5740  return verifyCallResultFromTarget(target, success, returndata, errorMessage) */\n      swap3\n      pop\n      pop\n      pop\n        /* \"libraries/Address.sol\":5293:5748  function functionCallWithValue(... */\n      swap5\n      swap4\n      pop\n      pop\n      pop\n      pop\n      jump\t// out\n        /* \"libraries/Address.sol\":7866:8510  function verifyCallResultFromTarget(... */\n    tag_223:\n        /* \"libraries/Address.sol\":8051:8063  bytes memory */\n      0x60\n        /* \"libraries/Address.sol\":8080:8087  success */\n      dup4\n        /* \"libraries/Address.sol\":8076:8503  if (success) {... */\n      iszero\n      tag_225\n      jumpi\n        /* \"libraries/Address.sol\":8129:8130  0 */\n      0x00\n        /* \"libraries/Address.sol\":8108:8118  returndata */\n      dup4\n        /* \"libraries/Address.sol\":8108:8125  returndata.length */\n      mload\n        /* \"libraries/Address.sol\":8108:8130  returndata.length == 0 */\n      sub\n        /* \"libraries/Address.sol\":8104:8394  if (returndata.length == 0) {... */\n      tag_226\n      jumpi\n        /* \"libraries/Address.sol\":8326:8344  isContract(target) */\n      tag_227\n        /* \"libraries/Address.sol\":8337:8343  target */\n      dup6\n        /* \"libraries/Address.sol\":8326:8336  isContract */\n      tag_228\n        /* \"libraries/Address.sol\":8326:8344  isContract(target) */\n      jump\t// in\n    tag_227:\n        /* \"libraries/Address.sol\":8318:8378  require(isContract(target), \"Address: call to non-contract\") */\n      tag_229\n      jumpi\n      mload(0x40)\n      0x08c379a000000000000000000000000000000000000000000000000000000000\n      dup2\n      mstore\n      0x04\n      add\n      tag_230\n      swap1\n      tag_231\n      jump\t// in\n    tag_230:\n      mload(0x40)\n      dup1\n      swap2\n      sub\n      swap1\n      revert\n    tag_229:\n        /* \"libraries/Address.sol\":8104:8394  if (returndata.length == 0) {... */\n    tag_226:\n        /* \"libraries/Address.sol\":8415:8425  returndata */\n      dup3\n        /* \"libraries/Address.sol\":8408:8425  return returndata */\n      swap1\n      pop\n      jump(tag_224)\n        /* \"libraries/Address.sol\":8076:8503  if (success) {... */\n    tag_225:\n        /* \"libraries/Address.sol\":8458:8491  _revert(returndata, errorMessage) */\n      tag_233\n        /* \"libraries/Address.sol\":8466:8476  returndata */\n      dup4\n        /* \"libraries/Address.sol\":8478:8490  errorMessage */\n      dup4\n        /* \"libraries/Address.sol\":8458:8465  _revert */\n      tag_234\n        /* \"libraries/Address.sol\":8458:8491  _revert(returndata, errorMessage) */\n      jump\t// in\n    tag_233:\n        /* \"libraries/Address.sol\":7866:8510  function verifyCallResultFromTarget(... */\n    tag_224:\n      swap5\n      swap4\n      pop\n      pop\n      pop\n      pop\n      jump\t// out\n        /* \"libraries/Address.sol\":1452:1778  function isContract(address account) internal view returns (bool) {... */\n    tag_228:\n        /* \"libraries/Address.sol\":1512:1516  bool */\n      0x00\n        /* \"libraries/Address.sol\":1769:1770  0 */\n      dup1\n        /* \"libraries/Address.sol\":1747:1754  account */\n      dup3\n        /* \"libraries/Address.sol\":1747:1766  account.code.length */\n      0xffffffffffffffffffffffffffffffffffffffff\n      and\n      extcodesize\n        /* \"libraries/Address.sol\":1747:1770  account.code.length > 0 */\n      gt\n        /* \"libraries/Address.sol\":1740:1770  return account.code.length > 0 */\n      swap1\n      pop\n        /* \"libraries/Address.sol\":1452:1778  function isContract(address account) internal view returns (bool) {... */\n      swap2\n      swap1\n      pop\n      jump\t// out\n        /* \"libraries/Address.sol\":9052:9604  function _revert(bytes memory returndata, string memory errorMessage) private pure {... */\n    tag_234:\n        /* \"libraries/Address.sol\":9233:9234  0 */\n      0x00\n        /* \"libraries/Address.sol\":9213:9223  returndata */\n      dup3\n        /* \"libraries/Address.sol\":9213:9230  returndata.length */\n      mload\n        /* \"libraries/Address.sol\":9213:9234  returndata.length > 0 */\n      gt\n        /* \"libraries/Address.sol\":9209:9597  if (returndata.length > 0) {... */\n      iszero\n      tag_237\n      jumpi\n        /* \"libraries/Address.sol\":9445:9455  returndata */\n      dup2\n        /* \"libraries/Address.sol\":9439:9456  mload(returndata) */\n      mload\n        /* \"libraries/Address.sol\":9502:9517  returndata_size */\n      dup1\n        /* \"libraries/Address.sol\":9489:9499  returndata */\n      dup4\n        /* \"libraries/Address.sol\":9485:9487  32 */\n      0x20\n        /* \"libraries/Address.sol\":9481:9500  add(32, returndata) */\n      add\n        /* \"libraries/Address.sol\":9474:9518  revert(add(32, returndata), returndata_size) */\n      revert\n        /* \"libraries/Address.sol\":9209:9597  if (returndata.length > 0) {... */\n    tag_237:\n        /* \"libraries/Address.sol\":9572:9584  errorMessage */\n      dup1\n        /* \"libraries/Address.sol\":9565:9585  revert(errorMessage) */\n      mload(0x40)\n      0x08c379a000000000000000000000000000000000000000000000000000000000\n      dup2\n      mstore\n      0x04\n      add\n      tag_239\n      swap2\n      swap1\n      tag_240\n      jump\t// in\n    tag_239:\n      mload(0x40)\n      dup1\n      swap2\n      sub\n      swap1\n      revert\n        /* \"#utility.yul\":88:205   */\n    tag_242:\n        /* \"#utility.yul\":197:198   */\n      0x00\n        /* \"#utility.yul\":194:195   */\n      dup1\n        /* \"#utility.yul\":187:199   */\n      revert\n        /* \"#utility.yul\":334:460   */\n    tag_244:\n        /* \"#utility.yul\":371:378   */\n      0x00\n        /* \"#utility.yul\":411:453   */\n      0xffffffffffffffffffffffffffffffffffffffff\n        /* \"#utility.yul\":404:409   */\n      dup3\n        /* \"#utility.yul\":400:454   */\n      and\n        /* \"#utility.yul\":389:454   */\n      swap1\n      pop\n        /* \"#utility.yul\":334:460   */\n      swap2\n      swap1\n      pop\n      jump\t// out\n        /* \"#utility.yul\":466:562   */\n    tag_245:\n        /* \"#utility.yul\":503:510   */\n      0x00\n        /* \"#utility.yul\":532:556   */\n      tag_293\n        /* \"#utility.yul\":550:555   */\n      dup3\n        /* \"#utility.yul\":532:556   */\n      tag_244\n      jump\t// in\n    tag_293:\n        /* \"#utility.yul\":521:556   */\n      swap1\n      pop\n        /* \"#utility.yul\":466:562   */\n      swap2\n      swap1\n      pop\n      jump\t// out\n        /* \"#utility.yul\":568:690   */\n    tag_246:\n        /* \"#utility.yul\":641:665   */\n      tag_295\n        /* \"#utility.yul\":659:664   */\n      dup2\n        /* \"#utility.yul\":641:665   */\n      tag_245\n      jump\t// in\n    tag_295:\n        /* \"#utility.yul\":634:639   */\n      dup2\n        /* \"#utility.yul\":631:666   */\n      eq\n        /* \"#utility.yul\":621:684   */\n      tag_296\n      jumpi\n        /* \"#utility.yul\":680:681   */\n      0x00\n        /* \"#utility.yul\":677:678   */\n      dup1\n        /* \"#utility.yul\":670:682   */\n      revert\n        /* \"#utility.yul\":621:684   */\n    tag_296:\n        /* \"#utility.yul\":568:690   */\n      pop\n      jump\t// out\n        /* \"#utility.yul\":696:835   */\n    tag_247:\n        /* \"#utility.yul\":742:747   */\n      0x00\n        /* \"#utility.yul\":780:786   */\n      dup2\n        /* \"#utility.yul\":767:787   */\n      calldataload\n        /* \"#utility.yul\":758:787   */\n      swap1\n      pop\n        /* \"#utility.yul\":796:829   */\n      tag_298\n        /* \"#utility.yul\":823:828   */\n      dup2\n        /* \"#utility.yul\":796:829   */\n      tag_246\n      jump\t// in\n    tag_298:\n        /* \"#utility.yul\":696:835   */\n      swap3\n      swap2\n      pop\n      pop\n      jump\t// out\n        /* \"#utility.yul\":841:959   */\n    tag_248:\n        /* \"#utility.yul\":878:885   */\n      0x00\n        /* \"#utility.yul\":918:952   */\n      0xffffffffffffffffffffffffffffffff\n        /* \"#utility.yul\":911:916   */\n      dup3\n        /* \"#utility.yul\":907:953   */\n      and\n        /* \"#utility.yul\":896:953   */\n      swap1\n      pop\n        /* \"#utility.yul\":841:959   */\n      swap2\n      swap1\n      pop\n      jump\t// out\n        /* \"#utility.yul\":965:1087   */\n    tag_249:\n        /* \"#utility.yul\":1038:1062   */\n      tag_301\n        /* \"#utility.yul\":1056:1061   */\n      dup2\n        /* \"#utility.yul\":1038:1062   */\n      tag_248\n      jump\t// in\n    tag_301:\n        /* \"#utility.yul\":1031:1036   */\n      dup2\n        /* \"#utility.yul\":1028:1063   */\n      eq\n        /* \"#utility.yul\":1018:1081   */\n      tag_302\n      jumpi\n        /* \"#utility.yul\":1077:1078   */\n      0x00\n        /* \"#utility.yul\":1074:1075   */\n      dup1\n        /* \"#utility.yul\":1067:1079   */\n      revert\n        /* \"#utility.yul\":1018:1081   */\n    tag_302:\n        /* \"#utility.yul\":965:1087   */\n      pop\n      jump\t// out\n        /* \"#utility.yul\":1093:1232   */\n    tag_250:\n        /* \"#utility.yul\":1139:1144   */\n      0x00\n        /* \"#utility.yul\":1177:1183   */\n      dup2\n        /* \"#utility.yul\":1164:1184   */\n      calldataload\n        /* \"#utility.yul\":1155:1184   */\n      swap1\n      pop\n        /* \"#utility.yul\":1193:1226   */\n      tag_304\n        /* \"#utility.yul\":1220:1225   */\n      dup2\n        /* \"#utility.yul\":1193:1226   */\n      tag_249\n      jump\t// in\n    tag_304:\n        /* \"#utility.yul\":1093:1232   */\n      swap3\n      swap2\n      pop\n      pop\n      jump\t// out\n        /* \"#utility.yul\":1238:2003   */\n    tag_20:\n        /* \"#utility.yul\":1324:1330   */\n      0x00\n        /* \"#utility.yul\":1332:1338   */\n      dup1\n        /* \"#utility.yul\":1340:1346   */\n      0x00\n        /* \"#utility.yul\":1348:1354   */\n      dup1\n        /* \"#utility.yul\":1397:1400   */\n      0x80\n        /* \"#utility.yul\":1385:1394   */\n      dup6\n        /* \"#utility.yul\":1376:1383   */\n      dup8\n        /* \"#utility.yul\":1372:1395   */\n      sub\n        /* \"#utility.yul\":1368:1401   */\n      slt\n        /* \"#utility.yul\":1365:1485   */\n      iszero\n      tag_306\n      jumpi\n        /* \"#utility.yul\":1404:1483   */\n      tag_307\n      tag_242\n      jump\t// in\n    tag_307:\n        /* \"#utility.yul\":1365:1485   */\n    tag_306:\n        /* \"#utility.yul\":1524:1525   */\n      0x00\n        /* \"#utility.yul\":1549:1602   */\n      tag_308\n        /* \"#utility.yul\":1594:1601   */\n      dup8\n        /* \"#utility.yul\":1585:1591   */\n      dup3\n        /* \"#utility.yul\":1574:1583   */\n      dup9\n        /* \"#utility.yul\":1570:1592   */\n      add\n        /* \"#utility.yul\":1549:1602   */\n      tag_247\n      jump\t// in\n    tag_308:\n        /* \"#utility.yul\":1539:1602   */\n      swap5\n      pop\n        /* \"#utility.yul\":1495:1612   */\n      pop\n        /* \"#utility.yul\":1651:1653   */\n      0x20\n        /* \"#utility.yul\":1677:1730   */\n      tag_309\n        /* \"#utility.yul\":1722:1729   */\n      dup8\n        /* \"#utility.yul\":1713:1719   */\n      dup3\n        /* \"#utility.yul\":1702:1711   */\n      dup9\n        /* \"#utility.yul\":1698:1720   */\n      add\n        /* \"#utility.yul\":1677:1730   */\n      tag_247\n      jump\t// in\n    tag_309:\n        /* \"#utility.yul\":1667:1730   */\n      swap4\n      pop\n        /* \"#utility.yul\":1622:1740   */\n      pop\n        /* \"#utility.yul\":1779:1781   */\n      0x40\n        /* \"#utility.yul\":1805:1858   */\n      tag_310\n        /* \"#utility.yul\":1850:1857   */\n      dup8\n        /* \"#utility.yul\":1841:1847   */\n      dup3\n        /* \"#utility.yul\":1830:1839   */\n      dup9\n        /* \"#utility.yul\":1826:1848   */\n      add\n        /* \"#utility.yul\":1805:1858   */\n      tag_250\n      jump\t// in\n    tag_310:\n        /* \"#utility.yul\":1795:1858   */\n      swap3\n      pop\n        /* \"#utility.yul\":1750:1868   */\n      pop\n        /* \"#utility.yul\":1907:1909   */\n      0x60\n        /* \"#utility.yul\":1933:1986   */\n      tag_311\n        /* \"#utility.yul\":1978:1985   */\n      dup8\n        /* \"#utility.yul\":1969:1975   */\n      dup3\n        /* \"#utility.yul\":1958:1967   */\n      dup9\n        /* \"#utility.yul\":1954:1976   */\n      add\n        /* \"#utility.yul\":1933:1986   */\n      tag_250\n      jump\t// in\n    tag_311:\n        /* \"#utility.yul\":1923:1986   */\n      swap2\n      pop\n        /* \"#utility.yul\":1878:1996   */\n      pop\n        /* \"#utility.yul\":1238:2003   */\n      swap3\n      swap6\n      swap2\n      swap5\n      pop\n      swap3\n      pop\n      jump\t// out\n        /* \"#utility.yul\":2009:2110   */\n    tag_251:\n        /* \"#utility.yul\":2045:2052   */\n      0x00\n        /* \"#utility.yul\":2085:2103   */\n      0xffffffffffffffff\n        /* \"#utility.yul\":2078:2083   */\n      dup3\n        /* \"#utility.yul\":2074:2104   */\n      and\n        /* \"#utility.yul\":2063:2104   */\n      swap1\n      pop\n        /* \"#utility.yul\":2009:2110   */\n      swap2\n      swap1\n      pop\n      jump\t// out\n        /* \"#utility.yul\":2116:2236   */\n    tag_252:\n        /* \"#utility.yul\":2188:2211   */\n      tag_314\n        /* \"#utility.yul\":2205:2210   */\n      dup2\n        /* \"#utility.yul\":2188:2211   */\n      tag_251\n      jump\t// in\n    tag_314:\n        /* \"#utility.yul\":2181:2186   */\n      dup2\n        /* \"#utility.yul\":2178:2212   */\n      eq\n        /* \"#utility.yul\":2168:2230   */\n      tag_315\n      jumpi\n        /* \"#utility.yul\":2226:2227   */\n      0x00\n        /* \"#utility.yul\":2223:2224   */\n      dup1\n        /* \"#utility.yul\":2216:2228   */\n      revert\n        /* \"#utility.yul\":2168:2230   */\n    tag_315:\n        /* \"#utility.yul\":2116:2236   */\n      pop\n      jump\t// out\n        /* \"#utility.yul\":2242:2379   */\n    tag_253:\n        /* \"#utility.yul\":2287:2292   */\n      0x00\n        /* \"#utility.yul\":2325:2331   */\n      dup2\n        /* \"#utility.yul\":2312:2332   */\n      calldataload\n        /* \"#utility.yul\":2303:2332   */\n      swap1\n      pop\n        /* \"#utility.yul\":2341:2373   */\n      tag_317\n        /* \"#utility.yul\":2367:2372   */\n      dup2\n        /* \"#utility.yul\":2341:2373   */\n      tag_252\n      jump\t// in\n    tag_317:\n        /* \"#utility.yul\":2242:2379   */\n      swap3\n      swap2\n      pop\n      pop\n      jump\t// out\n        /* \"#utility.yul\":2385:2712   */\n    tag_24:\n        /* \"#utility.yul\":2443:2449   */\n      0x00\n        /* \"#utility.yul\":2492:2494   */\n      0x20\n        /* \"#utility.yul\":2480:2489   */\n      dup3\n        /* \"#utility.yul\":2471:2478   */\n      dup5\n        /* \"#utility.yul\":2467:2490   */\n      sub\n        /* \"#utility.yul\":2463:2495   */\n      slt\n        /* \"#utility.yul\":2460:2579   */\n      iszero\n      tag_319\n      jumpi\n        /* \"#utility.yul\":2498:2577   */\n      tag_320\n      tag_242\n      jump\t// in\n    tag_320:\n        /* \"#utility.yul\":2460:2579   */\n    tag_319:\n        /* \"#utility.yul\":2618:2619   */\n      0x00\n        /* \"#utility.yul\":2643:2695   */\n      tag_321\n        /* \"#utility.yul\":2687:2694   */\n      dup5\n        /* \"#utility.yul\":2678:2684   */\n      dup3\n        /* \"#utility.yul\":2667:2676   */\n      dup6\n        /* \"#utility.yul\":2663:2685   */\n      add\n        /* \"#utility.yul\":2643:2695   */\n      tag_253\n      jump\t// in\n    tag_321:\n        /* \"#utility.yul\":2633:2695   */\n      swap2\n      pop\n        /* \"#utility.yul\":2589:2705   */\n      pop\n        /* \"#utility.yul\":2385:2712   */\n      swap3\n      swap2\n      pop\n      pop\n      jump\t// out\n        /* \"#utility.yul\":2718:2795   */\n    tag_254:\n        /* \"#utility.yul\":2755:2762   */\n      0x00\n        /* \"#utility.yul\":2784:2789   */\n      dup2\n        /* \"#utility.yul\":2773:2789   */\n      swap1\n      pop\n        /* \"#utility.yul\":2718:2795   */\n      swap2\n      swap1\n      pop\n      jump\t// out\n        /* \"#utility.yul\":2801:2923   */\n    tag_255:\n        /* \"#utility.yul\":2874:2898   */\n      tag_324\n        /* \"#utility.yul\":2892:2897   */\n      dup2\n        /* \"#utility.yul\":2874:2898   */\n      tag_254\n      jump\t// in\n    tag_324:\n        /* \"#utility.yul\":2867:2872   */\n      dup2\n        /* \"#utility.yul\":2864:2899   */\n      eq\n        /* \"#utility.yul\":2854:2917   */\n      tag_325\n      jumpi\n        /* \"#utility.yul\":2913:2914   */\n      0x00\n        /* \"#utility.yul\":2910:2911   */\n      dup1\n        /* \"#utility.yul\":2903:2915   */\n      revert\n        /* \"#utility.yul\":2854:2917   */\n    tag_325:\n        /* \"#utility.yul\":2801:2923   */\n      pop\n      jump\t// out\n        /* \"#utility.yul\":2929:3068   */\n    tag_256:\n        /* \"#utility.yul\":2975:2980   */\n      0x00\n        /* \"#utility.yul\":3013:3019   */\n      dup2\n        /* \"#utility.yul\":3000:3020   */\n      calldataload\n        /* \"#utility.yul\":2991:3020   */\n      swap1\n      pop\n        /* \"#utility.yul\":3029:3062   */\n      tag_327\n        /* \"#utility.yul\":3056:3061   */\n      dup2\n        /* \"#utility.yul\":3029:3062   */\n      tag_255\n      jump\t// in\n    tag_327:\n        /* \"#utility.yul\":2929:3068   */\n      swap3\n      swap2\n      pop\n      pop\n      jump\t// out\n        /* \"#utility.yul\":3074:3548   */\n    tag_31:\n        /* \"#utility.yul\":3142:3148   */\n      0x00\n        /* \"#utility.yul\":3150:3156   */\n      dup1\n        /* \"#utility.yul\":3199:3201   */\n      0x40\n        /* \"#utility.yul\":3187:3196   */\n      dup4\n        /* \"#utility.yul\":3178:3185   */\n      dup6\n        /* \"#utility.yul\":3174:3197   */\n      sub\n        /* \"#utility.yul\":3170:3202   */\n      slt\n        /* \"#utility.yul\":3167:3286   */\n      iszero\n      tag_329\n      jumpi\n        /* \"#utility.yul\":3205:3284   */\n      tag_330\n      tag_242\n      jump\t// in\n    tag_330:\n        /* \"#utility.yul\":3167:3286   */\n    tag_329:\n        /* \"#utility.yul\":3325:3326   */\n      0x00\n        /* \"#utility.yul\":3350:3403   */\n      tag_331\n        /* \"#utility.yul\":3395:3402   */\n      dup6\n        /* \"#utility.yul\":3386:3392   */\n      dup3\n        /* \"#utility.yul\":3375:3384   */\n      dup7\n        /* \"#utility.yul\":3371:3393   */\n      add\n        /* \"#utility.yul\":3350:3403   */\n      tag_247\n      jump\t// in\n    tag_331:\n        /* \"#utility.yul\":3340:3403   */\n      swap3\n      pop\n        /* \"#utility.yul\":3296:3413   */\n      pop\n        /* \"#utility.yul\":3452:3454   */\n      0x20\n        /* \"#utility.yul\":3478:3531   */\n      tag_332\n        /* \"#utility.yul\":3523:3530   */\n      dup6\n        /* \"#utility.yul\":3514:3520   */\n      dup3\n        /* \"#utility.yul\":3503:3512   */\n      dup7\n        /* \"#utility.yul\":3499:3521   */\n      add\n        /* \"#utility.yul\":3478:3531   */\n      tag_256\n      jump\t// in\n    tag_332:\n        /* \"#utility.yul\":3468:3531   */\n      swap2\n      pop\n        /* \"#utility.yul\":3423:3541   */\n      pop\n        /* \"#utility.yul\":3074:3548   */\n      swap3\n      pop\n      swap3\n      swap1\n      pop\n      jump\t// out\n        /* \"#utility.yul\":3554:3644   */\n    tag_257:\n        /* \"#utility.yul\":3588:3595   */\n      0x00\n        /* \"#utility.yul\":3631:3636   */\n      dup2\n        /* \"#utility.yul\":3624:3637   */\n      iszero\n        /* \"#utility.yul\":3617:3638   */\n      iszero\n        /* \"#utility.yul\":3606:3638   */\n      swap1\n      pop\n        /* \"#utility.yul\":3554:3644   */\n      swap2\n      swap1\n      pop\n      jump\t// out\n        /* \"#utility.yul\":3650:3759   */\n    tag_258:\n        /* \"#utility.yul\":3731:3752   */\n      tag_335\n        /* \"#utility.yul\":3746:3751   */\n      dup2\n        /* \"#utility.yul\":3731:3752   */\n      tag_257\n      jump\t// in\n    tag_335:\n        /* \"#utility.yul\":3726:3729   */\n      dup3\n        /* \"#utility.yul\":3719:3753   */\n      mstore\n        /* \"#utility.yul\":3650:3759   */\n      pop\n      pop\n      jump\t// out\n        /* \"#utility.yul\":3765:3975   */\n    tag_34:\n        /* \"#utility.yul\":3852:3856   */\n      0x00\n        /* \"#utility.yul\":3890:3892   */\n      0x20\n        /* \"#utility.yul\":3879:3888   */\n      dup3\n        /* \"#utility.yul\":3875:3893   */\n      add\n        /* \"#utility.yul\":3867:3893   */\n      swap1\n      pop\n        /* \"#utility.yul\":3903:3968   */\n      tag_337\n        /* \"#utility.yul\":3965:3966   */\n      0x00\n        /* \"#utility.yul\":3954:3963   */\n      dup4\n        /* \"#utility.yul\":3950:3967   */\n      add\n        /* \"#utility.yul\":3941:3947   */\n      dup5\n        /* \"#utility.yul\":3903:3968   */\n      tag_258\n      jump\t// in\n    tag_337:\n        /* \"#utility.yul\":3765:3975   */\n      swap3\n      swap2\n      pop\n      pop\n      jump\t// out\n        /* \"#utility.yul\":3981:4072   */\n    tag_259:\n        /* \"#utility.yul\":4017:4024   */\n      0x00\n        /* \"#utility.yul\":4057:4065   */\n      0xffffff\n        /* \"#utility.yul\":4050:4055   */\n      dup3\n        /* \"#utility.yul\":4046:4066   */\n      and\n        /* \"#utility.yul\":4035:4066   */\n      swap1\n      pop\n        /* \"#utility.yul\":3981:4072   */\n      swap2\n      swap1\n      pop\n      jump\t// out\n        /* \"#utility.yul\":4078:4198   */\n    tag_260:\n        /* \"#utility.yul\":4150:4173   */\n      tag_340\n        /* \"#utility.yul\":4167:4172   */\n      dup2\n        /* \"#utility.yul\":4150:4173   */\n      tag_259\n      jump\t// in\n    tag_340:\n        /* \"#utility.yul\":4143:4148   */\n      dup2\n        /* \"#utility.yul\":4140:4174   */\n      eq\n        /* \"#utility.yul\":4130:4192   */\n      tag_341\n      jumpi\n        /* \"#utility.yul\":4188:4189   */\n      0x00\n        /* \"#utility.yul\":4185:4186   */\n      dup1\n        /* \"#utility.yul\":4178:4190   */\n      revert\n        /* \"#utility.yul\":4130:4192   */\n    tag_341:\n        /* \"#utility.yul\":4078:4198   */\n      pop\n      jump\t// out\n        /* \"#utility.yul\":4204:4341   */\n    tag_261:\n        /* \"#utility.yul\":4249:4254   */\n      0x00\n        /* \"#utility.yul\":4287:4293   */\n      dup2\n        /* \"#utility.yul\":4274:4294   */\n      calldataload\n        /* \"#utility.yul\":4265:4294   */\n      swap1\n      pop\n        /* \"#utility.yul\":4303:4335   */\n      tag_343\n        /* \"#utility.yul\":4329:4334   */\n      dup2\n        /* \"#utility.yul\":4303:4335   */\n      tag_260\n      jump\t// in\n    tag_343:\n        /* \"#utility.yul\":4204:4341   */\n      swap3\n      swap2\n      pop\n      pop\n      jump\t// out\n        /* \"#utility.yul\":4347:4964   */\n    tag_37:\n        /* \"#utility.yul\":4423:4429   */\n      0x00\n        /* \"#utility.yul\":4431:4437   */\n      dup1\n        /* \"#utility.yul\":4439:4445   */\n      0x00\n        /* \"#utility.yul\":4488:4490   */\n      0x60\n        /* \"#utility.yul\":4476:4485   */\n      dup5\n        /* \"#utility.yul\":4467:4474   */\n      dup7\n        /* \"#utility.yul\":4463:4486   */\n      sub\n        /* \"#utility.yul\":4459:4491   */\n      slt\n        /* \"#utility.yul\":4456:4575   */\n      iszero\n      tag_345\n      jumpi\n        /* \"#utility.yul\":4494:4573   */\n      tag_346\n      tag_242\n      jump\t// in\n    tag_346:\n        /* \"#utility.yul\":4456:4575   */\n    tag_345:\n        /* \"#utility.yul\":4614:4615   */\n      0x00\n        /* \"#utility.yul\":4639:4692   */\n      tag_347\n        /* \"#utility.yul\":4684:4691   */\n      dup7\n        /* \"#utility.yul\":4675:4681   */\n      dup3\n        /* \"#utility.yul\":4664:4673   */\n      dup8\n        /* \"#utility.yul\":4660:4682   */\n      add\n        /* \"#utility.yul\":4639:4692   */\n      tag_247\n      jump\t// in\n    tag_347:\n        /* \"#utility.yul\":4629:4692   */\n      swap4\n      pop\n        /* \"#utility.yul\":4585:4702   */\n      pop\n        /* \"#utility.yul\":4741:4743   */\n      0x20\n        /* \"#utility.yul\":4767:4820   */\n      tag_348\n        /* \"#utility.yul\":4812:4819   */\n      dup7\n        /* \"#utility.yul\":4803:4809   */\n      dup3\n        /* \"#utility.yul\":4792:4801   */\n      dup8\n        /* \"#utility.yul\":4788:4810   */\n      add\n        /* \"#utility.yul\":4767:4820   */\n      tag_247\n      jump\t// in\n    tag_348:\n        /* \"#utility.yul\":4757:4820   */\n      swap3\n      pop\n        /* \"#utility.yul\":4712:4830   */\n      pop\n        /* \"#utility.yul\":4869:4871   */\n      0x40\n        /* \"#utility.yul\":4895:4947   */\n      tag_349\n        /* \"#utility.yul\":4939:4946   */\n      dup7\n        /* \"#utility.yul\":4930:4936   */\n      dup3\n        /* \"#utility.yul\":4919:4928   */\n      dup8\n        /* \"#utility.yul\":4915:4937   */\n      add\n        /* \"#utility.yul\":4895:4947   */\n      tag_261\n      jump\t// in\n    tag_349:\n        /* \"#utility.yul\":4885:4947   */\n      swap2\n      pop\n        /* \"#utility.yul\":4840:4957   */\n      pop\n        /* \"#utility.yul\":4347:4964   */\n      swap3\n      pop\n      swap3\n      pop\n      swap3\n      jump\t// out\n        /* \"#utility.yul\":4970:5088   */\n    tag_262:\n        /* \"#utility.yul\":5057:5081   */\n      tag_351\n        /* \"#utility.yul\":5075:5080   */\n      dup2\n        /* \"#utility.yul\":5057:5081   */\n      tag_245\n      jump\t// in\n    tag_351:\n        /* \"#utility.yul\":5052:5055   */\n      dup3\n        /* \"#utility.yul\":5045:5082   */\n      mstore\n        /* \"#utility.yul\":4970:5088   */\n      pop\n      pop\n      jump\t// out\n        /* \"#utility.yul\":5094:5316   */\n    tag_40:\n        /* \"#utility.yul\":5187:5191   */\n      0x00\n        /* \"#utility.yul\":5225:5227   */\n      0x20\n        /* \"#utility.yul\":5214:5223   */\n      dup3\n        /* \"#utility.yul\":5210:5228   */\n      add\n        /* \"#utility.yul\":5202:5228   */\n      swap1\n      pop\n        /* \"#utility.yul\":5238:5309   */\n      tag_353\n        /* \"#utility.yul\":5306:5307   */\n      0x00\n        /* \"#utility.yul\":5295:5304   */\n      dup4\n        /* \"#utility.yul\":5291:5308   */\n      add\n        /* \"#utility.yul\":5282:5288   */\n      dup5\n        /* \"#utility.yul\":5238:5309   */\n      tag_262\n      jump\t// in\n    tag_353:\n        /* \"#utility.yul\":5094:5316   */\n      swap3\n      swap2\n      pop\n      pop\n      jump\t// out\n        /* \"#utility.yul\":5322:5796   */\n    tag_46:\n        /* \"#utility.yul\":5390:5396   */\n      0x00\n        /* \"#utility.yul\":5398:5404   */\n      dup1\n        /* \"#utility.yul\":5447:5449   */\n      0x40\n        /* \"#utility.yul\":5435:5444   */\n      dup4\n        /* \"#utility.yul\":5426:5433   */\n      dup6\n        /* \"#utility.yul\":5422:5445   */\n      sub\n        /* \"#utility.yul\":5418:5450   */\n      slt\n        /* \"#utility.yul\":5415:5534   */\n      iszero\n      tag_355\n      jumpi\n        /* \"#utility.yul\":5453:5532   */\n      tag_356\n      tag_242\n      jump\t// in\n    tag_356:\n        /* \"#utility.yul\":5415:5534   */\n    tag_355:\n        /* \"#utility.yul\":5573:5574   */\n      0x00\n        /* \"#utility.yul\":5598:5651   */\n      tag_357\n        /* \"#utility.yul\":5643:5650   */\n      dup6\n        /* \"#utility.yul\":5634:5640   */\n      dup3\n        /* \"#utility.yul\":5623:5632   */\n      dup7\n        /* \"#utility.yul\":5619:5641   */\n      add\n        /* \"#utility.yul\":5598:5651   */\n      tag_250\n      jump\t// in\n    tag_357:\n        /* \"#utility.yul\":5588:5651   */\n      swap3\n      pop\n        /* \"#utility.yul\":5544:5661   */\n      pop\n        /* \"#utility.yul\":5700:5702   */\n      0x20\n        /* \"#utility.yul\":5726:5779   */\n      tag_358\n        /* \"#utility.yul\":5771:5778   */\n      dup6\n        /* \"#utility.yul\":5762:5768   */\n      dup3\n        /* \"#utility.yul\":5751:5760   */\n      dup7\n        /* \"#utility.yul\":5747:5769   */\n      add\n        /* \"#utility.yul\":5726:5779   */\n      tag_250\n      jump\t// in\n    tag_358:\n        /* \"#utility.yul\":5716:5779   */\n      swap2\n      pop\n        /* \"#utility.yul\":5671:5789   */\n      pop\n        /* \"#utility.yul\":5322:5796   */\n      swap3\n      pop\n      swap3\n      swap1\n      pop\n      jump\t// out\n        /* \"#utility.yul\":5802:5920   */\n    tag_263:\n        /* \"#utility.yul\":5889:5913   */\n      tag_360\n        /* \"#utility.yul\":5907:5912   */\n      dup2\n        /* \"#utility.yul\":5889:5913   */\n      tag_254\n      jump\t// in\n    tag_360:\n        /* \"#utility.yul\":5884:5887   */\n      dup3\n        /* \"#utility.yul\":5877:5914   */\n      mstore\n        /* \"#utility.yul\":5802:5920   */\n      pop\n      pop\n      jump\t// out\n        /* \"#utility.yul\":5926:6148   */\n    tag_49:\n        /* \"#utility.yul\":6019:6023   */\n      0x00\n        /* \"#utility.yul\":6057:6059   */\n      0x20\n        /* \"#utility.yul\":6046:6055   */\n      dup3\n        /* \"#utility.yul\":6042:6060   */\n      add\n        /* \"#utility.yul\":6034:6060   */\n      swap1\n      pop\n        /* \"#utility.yul\":6070:6141   */\n      tag_362\n        /* \"#utility.yul\":6138:6139   */\n      0x00\n        /* \"#utility.yul\":6127:6136   */\n      dup4\n        /* \"#utility.yul\":6123:6140   */\n      add\n        /* \"#utility.yul\":6114:6120   */\n      dup5\n        /* \"#utility.yul\":6070:6141   */\n      tag_263\n      jump\t// in\n    tag_362:\n        /* \"#utility.yul\":5926:6148   */\n      swap3\n      swap2\n      pop\n      pop\n      jump\t// out\n        /* \"#utility.yul\":6154:6626   */\n    tag_62:\n        /* \"#utility.yul\":6221:6227   */\n      0x00\n        /* \"#utility.yul\":6229:6235   */\n      dup1\n        /* \"#utility.yul\":6278:6280   */\n      0x40\n        /* \"#utility.yul\":6266:6275   */\n      dup4\n        /* \"#utility.yul\":6257:6264   */\n      dup6\n        /* \"#utility.yul\":6253:6276   */\n      sub\n        /* \"#utility.yul\":6249:6281   */\n      slt\n        /* \"#utility.yul\":6246:6365   */\n      iszero\n      tag_364\n      jumpi\n        /* \"#utility.yul\":6284:6363   */\n      tag_365\n      tag_242\n      jump\t// in\n    tag_365:\n        /* \"#utility.yul\":6246:6365   */\n    tag_364:\n        /* \"#utility.yul\":6404:6405   */\n      0x00\n        /* \"#utility.yul\":6429:6481   */\n      tag_366\n        /* \"#utility.yul\":6473:6480   */\n      dup6\n        /* \"#utility.yul\":6464:6470   */\n      dup3\n        /* \"#utility.yul\":6453:6462   */\n      dup7\n        /* \"#utility.yul\":6449:6471   */\n      add\n        /* \"#utility.yul\":6429:6481   */\n      tag_253\n      jump\t// in\n    tag_366:\n        /* \"#utility.yul\":6419:6481   */\n      swap3\n      pop\n        /* \"#utility.yul\":6375:6491   */\n      pop\n        /* \"#utility.yul\":6530:6532   */\n      0x20\n        /* \"#utility.yul\":6556:6609   */\n      tag_367\n        /* \"#utility.yul\":6601:6608   */\n      dup6\n        /* \"#utility.yul\":6592:6598   */\n      dup3\n        /* \"#utility.yul\":6581:6590   */\n      dup7\n        /* \"#utility.yul\":6577:6599   */\n      add\n        /* \"#utility.yul\":6556:6609   */\n      tag_247\n      jump\t// in\n    tag_367:\n        /* \"#utility.yul\":6546:6609   */\n      swap2\n      pop\n        /* \"#utility.yul\":6501:6619   */\n      pop\n        /* \"#utility.yul\":6154:6626   */\n      swap3\n      pop\n      swap3\n      swap1\n      pop\n      jump\t// out\n        /* \"#utility.yul\":6632:6812   */\n    tag_264:\n        /* \"#utility.yul\":6680:6757   */\n      0x4e487b7100000000000000000000000000000000000000000000000000000000\n        /* \"#utility.yul\":6677:6678   */\n      0x00\n        /* \"#utility.yul\":6670:6758   */\n      mstore\n        /* \"#utility.yul\":6777:6781   */\n      0x11\n        /* \"#utility.yul\":6774:6775   */\n      0x04\n        /* \"#utility.yul\":6767:6782   */\n      mstore\n        /* \"#utility.yul\":6801:6805   */\n      0x24\n        /* \"#utility.yul\":6798:6799   */\n      0x00\n        /* \"#utility.yul\":6791:6806   */\n      revert\n        /* \"#utility.yul\":6818:7097   */\n    tag_74:\n        /* \"#utility.yul\":6858:6865   */\n      0x00\n        /* \"#utility.yul\":6881:6901   */\n      tag_370\n        /* \"#utility.yul\":6899:6900   */\n      dup3\n        /* \"#utility.yul\":6881:6901   */\n      tag_248\n      jump\t// in\n    tag_370:\n        /* \"#utility.yul\":6876:6901   */\n      swap2\n      pop\n        /* \"#utility.yul\":6915:6935   */\n      tag_371\n        /* \"#utility.yul\":6933:6934   */\n      dup4\n        /* \"#utility.yul\":6915:6935   */\n      tag_248\n      jump\t// in\n    tag_371:\n        /* \"#utility.yul\":6910:6935   */\n      swap3\n      pop\n        /* \"#utility.yul\":6970:6971   */\n      dup3\n        /* \"#utility.yul\":6967:6968   */\n      dup3\n        /* \"#utility.yul\":6963:6972   */\n      mul\n        /* \"#utility.yul\":6992:7022   */\n      tag_372\n        /* \"#utility.yul\":7010:7021   */\n      dup2\n        /* \"#utility.yul\":6992:7022   */\n      tag_248\n      jump\t// in\n    tag_372:\n        /* \"#utility.yul\":6981:7022   */\n      swap2\n      pop\n        /* \"#utility.yul\":7054:7065   */\n      dup1\n        /* \"#utility.yul\":7045:7052   */\n      dup3\n        /* \"#utility.yul\":7042:7066   */\n      eq\n        /* \"#utility.yul\":7032:7090   */\n      tag_373\n      jumpi\n        /* \"#utility.yul\":7070:7088   */\n      tag_374\n      tag_264\n      jump\t// in\n    tag_374:\n        /* \"#utility.yul\":7032:7090   */\n    tag_373:\n        /* \"#utility.yul\":6866:7097   */\n      pop\n        /* \"#utility.yul\":6818:7097   */\n      swap3\n      swap2\n      pop\n      pop\n      jump\t// out\n        /* \"#utility.yul\":7103:7286   */\n    tag_83:\n        /* \"#utility.yul\":7141:7144   */\n      0x00\n        /* \"#utility.yul\":7164:7187   */\n      tag_376\n        /* \"#utility.yul\":7181:7186   */\n      dup3\n        /* \"#utility.yul\":7164:7187   */\n      tag_251\n      jump\t// in\n    tag_376:\n        /* \"#utility.yul\":7155:7187   */\n      swap2\n      pop\n        /* \"#utility.yul\":7209:7227   */\n      0xffffffffffffffff\n        /* \"#utility.yul\":7202:7207   */\n      dup3\n        /* \"#utility.yul\":7199:7228   */\n      sub\n        /* \"#utility.yul\":7196:7251   */\n      tag_377\n      jumpi\n        /* \"#utility.yul\":7231:7249   */\n      tag_378\n      tag_264\n      jump\t// in\n    tag_378:\n        /* \"#utility.yul\":7196:7251   */\n    tag_377:\n        /* \"#utility.yul\":7278:7279   */\n      0x01\n        /* \"#utility.yul\":7271:7276   */\n      dup3\n        /* \"#utility.yul\":7267:7280   */\n      add\n        /* \"#utility.yul\":7260:7280   */\n      swap1\n      pop\n        /* \"#utility.yul\":7103:7286   */\n      swap2\n      swap1\n      pop\n      jump\t// out\n        /* \"#utility.yul\":7292:7486   */\n    tag_105:\n        /* \"#utility.yul\":7332:7336   */\n      0x00\n        /* \"#utility.yul\":7352:7372   */\n      tag_380\n        /* \"#utility.yul\":7370:7371   */\n      dup3\n        /* \"#utility.yul\":7352:7372   */\n      tag_254\n      jump\t// in\n    tag_380:\n        /* \"#utility.yul\":7347:7372   */\n      swap2\n      pop\n        /* \"#utility.yul\":7386:7406   */\n      tag_381\n        /* \"#utility.yul\":7404:7405   */\n      dup4\n        /* \"#utility.yul\":7386:7406   */\n      tag_254\n      jump\t// in\n    tag_381:\n        /* \"#utility.yul\":7381:7406   */\n      swap3\n      pop\n        /* \"#utility.yul\":7430:7431   */\n      dup3\n        /* \"#utility.yul\":7427:7428   */\n      dup3\n        /* \"#utility.yul\":7423:7432   */\n      sub\n        /* \"#utility.yul\":7415:7432   */\n      swap1\n      pop\n        /* \"#utility.yul\":7454:7455   */\n      dup2\n        /* \"#utility.yul\":7448:7452   */\n      dup2\n        /* \"#utility.yul\":7445:7456   */\n      gt\n        /* \"#utility.yul\":7442:7479   */\n      iszero\n      tag_382\n      jumpi\n        /* \"#utility.yul\":7459:7477   */\n      tag_383\n      tag_264\n      jump\t// in\n    tag_383:\n        /* \"#utility.yul\":7442:7479   */\n    tag_382:\n        /* \"#utility.yul\":7292:7486   */\n      swap3\n      swap2\n      pop\n      pop\n      jump\t// out\n        /* \"#utility.yul\":7492:7607   */\n    tag_265:\n        /* \"#utility.yul\":7577:7600   */\n      tag_385\n        /* \"#utility.yul\":7594:7599   */\n      dup2\n        /* \"#utility.yul\":7577:7600   */\n      tag_259\n      jump\t// in\n    tag_385:\n        /* \"#utility.yul\":7572:7575   */\n      dup3\n        /* \"#utility.yul\":7565:7601   */\n      mstore\n        /* \"#utility.yul\":7492:7607   */\n      pop\n      pop\n      jump\t// out\n        /* \"#utility.yul\":7613:8051   */\n    tag_113:\n        /* \"#utility.yul\":7760:7764   */\n      0x00\n        /* \"#utility.yul\":7798:7800   */\n      0x60\n        /* \"#utility.yul\":7787:7796   */\n      dup3\n        /* \"#utility.yul\":7783:7801   */\n      add\n        /* \"#utility.yul\":7775:7801   */\n      swap1\n      pop\n        /* \"#utility.yul\":7811:7882   */\n      tag_387\n        /* \"#utility.yul\":7879:7880   */\n      0x00\n        /* \"#utility.yul\":7868:7877   */\n      dup4\n        /* \"#utility.yul\":7864:7881   */\n      add\n        /* \"#utility.yul\":7855:7861   */\n      dup7\n        /* \"#utility.yul\":7811:7882   */\n      tag_262\n      jump\t// in\n    tag_387:\n        /* \"#utility.yul\":7892:7964   */\n      tag_388\n        /* \"#utility.yul\":7960:7962   */\n      0x20\n        /* \"#utility.yul\":7949:7958   */\n      dup4\n        /* \"#utility.yul\":7945:7963   */\n      add\n        /* \"#utility.yul\":7936:7942   */\n      dup6\n        /* \"#utility.yul\":7892:7964   */\n      tag_262\n      jump\t// in\n    tag_388:\n        /* \"#utility.yul\":7974:8044   */\n      tag_389\n        /* \"#utility.yul\":8040:8042   */\n      0x40\n        /* \"#utility.yul\":8029:8038   */\n      dup4\n        /* \"#utility.yul\":8025:8043   */\n      add\n        /* \"#utility.yul\":8016:8022   */\n      dup5\n        /* \"#utility.yul\":7974:8044   */\n      tag_265\n      jump\t// in\n    tag_389:\n        /* \"#utility.yul\":7613:8051   */\n      swap5\n      swap4\n      pop\n      pop\n      pop\n      pop\n      jump\t// out\n        /* \"#utility.yul\":8057:8200   */\n    tag_266:\n        /* \"#utility.yul\":8114:8119   */\n      0x00\n        /* \"#utility.yul\":8145:8151   */\n      dup2\n        /* \"#utility.yul\":8139:8152   */\n      mload\n        /* \"#utility.yul\":8130:8152   */\n      swap1\n      pop\n        /* \"#utility.yul\":8161:8194   */\n      tag_391\n        /* \"#utility.yul\":8188:8193   */\n      dup2\n        /* \"#utility.yul\":8161:8194   */\n      tag_246\n      jump\t// in\n    tag_391:\n        /* \"#utility.yul\":8057:8200   */\n      swap3\n      swap2\n      pop\n      pop\n      jump\t// out\n        /* \"#utility.yul\":8206:8557   */\n    tag_117:\n        /* \"#utility.yul\":8276:8282   */\n      0x00\n        /* \"#utility.yul\":8325:8327   */\n      0x20\n        /* \"#utility.yul\":8313:8322   */\n      dup3\n        /* \"#utility.yul\":8304:8311   */\n      dup5\n        /* \"#utility.yul\":8300:8323   */\n      sub\n        /* \"#utility.yul\":8296:8328   */\n      slt\n        /* \"#utility.yul\":8293:8412   */\n      iszero\n      tag_393\n      jumpi\n        /* \"#utility.yul\":8331:8410   */\n      tag_394\n      tag_242\n      jump\t// in\n    tag_394:\n        /* \"#utility.yul\":8293:8412   */\n    tag_393:\n        /* \"#utility.yul\":8451:8452   */\n      0x00\n        /* \"#utility.yul\":8476:8540   */\n      tag_395\n        /* \"#utility.yul\":8532:8539   */\n      dup5\n        /* \"#utility.yul\":8523:8529   */\n      dup3\n        /* \"#utility.yul\":8512:8521   */\n      dup6\n        /* \"#utility.yul\":8508:8530   */\n      add\n        /* \"#utility.yul\":8476:8540   */\n      tag_266\n      jump\t// in\n    tag_395:\n        /* \"#utility.yul\":8466:8540   */\n      swap2\n      pop\n        /* \"#utility.yul\":8422:8550   */\n      pop\n        /* \"#utility.yul\":8206:8557   */\n      swap3\n      swap2\n      pop\n      pop\n      jump\t// out\n        /* \"#utility.yul\":8563:8973   */\n    tag_135:\n        /* \"#utility.yul\":8603:8610   */\n      0x00\n        /* \"#utility.yul\":8626:8646   */\n      tag_397\n        /* \"#utility.yul\":8644:8645   */\n      dup3\n        /* \"#utility.yul\":8626:8646   */\n      tag_254\n      jump\t// in\n    tag_397:\n        /* \"#utility.yul\":8621:8646   */\n      swap2\n      pop\n        /* \"#utility.yul\":8660:8680   */\n      tag_398\n        /* \"#utility.yul\":8678:8679   */\n      dup4\n        /* \"#utility.yul\":8660:8680   */\n      tag_254\n      jump\t// in\n    tag_398:\n        /* \"#utility.yul\":8655:8680   */\n      swap3\n      pop\n        /* \"#utility.yul\":8715:8716   */\n      dup3\n        /* \"#utility.yul\":8712:8713   */\n      dup3\n        /* \"#utility.yul\":8708:8717   */\n      mul\n        /* \"#utility.yul\":8737:8767   */\n      tag_399\n        /* \"#utility.yul\":8755:8766   */\n      dup2\n        /* \"#utility.yul\":8737:8767   */\n      tag_254\n      jump\t// in\n    tag_399:\n        /* \"#utility.yul\":8726:8767   */\n      swap2\n      pop\n        /* \"#utility.yul\":8916:8917   */\n      dup3\n        /* \"#utility.yul\":8907:8914   */\n      dup3\n        /* \"#utility.yul\":8903:8918   */\n      div\n        /* \"#utility.yul\":8900:8901   */\n      dup5\n        /* \"#utility.yul\":8897:8919   */\n      eq\n        /* \"#utility.yul\":8877:8878   */\n      dup4\n        /* \"#utility.yul\":8870:8879   */\n      iszero\n        /* \"#utility.yul\":8850:8933   */\n      or\n        /* \"#utility.yul\":8827:8966   */\n      tag_400\n      jumpi\n        /* \"#utility.yul\":8946:8964   */\n      tag_401\n      tag_264\n      jump\t// in\n    tag_401:\n        /* \"#utility.yul\":8827:8966   */\n    tag_400:\n        /* \"#utility.yul\":8611:8973   */\n      pop\n        /* \"#utility.yul\":8563:8973   */\n      swap3\n      swap2\n      pop\n      pop\n      jump\t// out\n        /* \"#utility.yul\":8979:9159   */\n    tag_267:\n        /* \"#utility.yul\":9027:9104   */\n      0x4e487b7100000000000000000000000000000000000000000000000000000000\n        /* \"#utility.yul\":9024:9025   */\n      0x00\n        /* \"#utility.yul\":9017:9105   */\n      mstore\n        /* \"#utility.yul\":9124:9128   */\n      0x12\n        /* \"#utility.yul\":9121:9122   */\n      0x04\n        /* \"#utility.yul\":9114:9129   */\n      mstore\n        /* \"#utility.yul\":9148:9152   */\n      0x24\n        /* \"#utility.yul\":9145:9146   */\n      0x00\n        /* \"#utility.yul\":9138:9153   */\n      revert\n        /* \"#utility.yul\":9165:9350   */\n    tag_137:\n        /* \"#utility.yul\":9205:9206   */\n      0x00\n        /* \"#utility.yul\":9222:9242   */\n      tag_404\n        /* \"#utility.yul\":9240:9241   */\n      dup3\n        /* \"#utility.yul\":9222:9242   */\n      tag_254\n      jump\t// in\n    tag_404:\n        /* \"#utility.yul\":9217:9242   */\n      swap2\n      pop\n        /* \"#utility.yul\":9256:9276   */\n      tag_405\n        /* \"#utility.yul\":9274:9275   */\n      dup4\n        /* \"#utility.yul\":9256:9276   */\n      tag_254\n      jump\t// in\n    tag_405:\n        /* \"#utility.yul\":9251:9276   */\n      swap3\n      pop\n        /* \"#utility.yul\":9295:9296   */\n      dup3\n        /* \"#utility.yul\":9285:9320   */\n      tag_406\n      jumpi\n        /* \"#utility.yul\":9300:9318   */\n      tag_407\n      tag_267\n      jump\t// in\n    tag_407:\n        /* \"#utility.yul\":9285:9320   */\n    tag_406:\n        /* \"#utility.yul\":9342:9343   */\n      dup3\n        /* \"#utility.yul\":9339:9340   */\n      dup3\n        /* \"#utility.yul\":9335:9344   */\n      div\n        /* \"#utility.yul\":9330:9344   */\n      swap1\n      pop\n        /* \"#utility.yul\":9165:9350   */\n      swap3\n      swap2\n      pop\n      pop\n      jump\t// out\n        /* \"#utility.yul\":9356:9798   */\n    tag_168:\n        /* \"#utility.yul\":9505:9509   */\n      0x00\n        /* \"#utility.yul\":9543:9545   */\n      0x60\n        /* \"#utility.yul\":9532:9541   */\n      dup3\n        /* \"#utility.yul\":9528:9546   */\n      add\n        /* \"#utility.yul\":9520:9546   */\n      swap1\n      pop\n        /* \"#utility.yul\":9556:9627   */\n      tag_409\n        /* \"#utility.yul\":9624:9625   */\n      0x00\n        /* \"#utility.yul\":9613:9622   */\n      dup4\n        /* \"#utility.yul\":9609:9626   */\n      add\n        /* \"#utility.yul\":9600:9606   */\n      dup7\n        /* \"#utility.yul\":9556:9627   */\n      tag_262\n      jump\t// in\n    tag_409:\n        /* \"#utility.yul\":9637:9709   */\n      tag_410\n        /* \"#utility.yul\":9705:9707   */\n      0x20\n        /* \"#utility.yul\":9694:9703   */\n      dup4\n        /* \"#utility.yul\":9690:9708   */\n      add\n        /* \"#utility.yul\":9681:9687   */\n      dup6\n        /* \"#utility.yul\":9637:9709   */\n      tag_262\n      jump\t// in\n    tag_410:\n        /* \"#utility.yul\":9719:9791   */\n      tag_411\n        /* \"#utility.yul\":9787:9789   */\n      0x40\n        /* \"#utility.yul\":9776:9785   */\n      dup4\n        /* \"#utility.yul\":9772:9790   */\n      add\n        /* \"#utility.yul\":9763:9769   */\n      dup5\n        /* \"#utility.yul\":9719:9791   */\n      tag_263\n      jump\t// in\n    tag_411:\n        /* \"#utility.yul\":9356:9798   */\n      swap5\n      swap4\n      pop\n      pop\n      pop\n      pop\n      jump\t// out\n        /* \"#utility.yul\":9804:10136   */\n    tag_173:\n        /* \"#utility.yul\":9925:9929   */\n      0x00\n        /* \"#utility.yul\":9963:9965   */\n      0x40\n        /* \"#utility.yul\":9952:9961   */\n      dup3\n        /* \"#utility.yul\":9948:9966   */\n      add\n        /* \"#utility.yul\":9940:9966   */\n      swap1\n      pop\n        /* \"#utility.yul\":9976:10047   */\n      tag_413\n        /* \"#utility.yul\":10044:10045   */\n      0x00\n        /* \"#utility.yul\":10033:10042   */\n      dup4\n        /* \"#utility.yul\":10029:10046   */\n      add\n        /* \"#utility.yul\":10020:10026   */\n      dup6\n        /* \"#utility.yul\":9976:10047   */\n      tag_262\n      jump\t// in\n    tag_413:\n        /* \"#utility.yul\":10057:10129   */\n      tag_414\n        /* \"#utility.yul\":10125:10127   */\n      0x20\n        /* \"#utility.yul\":10114:10123   */\n      dup4\n        /* \"#utility.yul\":10110:10128   */\n      add\n        /* \"#utility.yul\":10101:10107   */\n      dup5\n        /* \"#utility.yul\":10057:10129   */\n      tag_262\n      jump\t// in\n    tag_414:\n        /* \"#utility.yul\":9804:10136   */\n      swap4\n      swap3\n      pop\n      pop\n      pop\n      jump\t// out\n        /* \"#utility.yul\":10142:10285   */\n    tag_268:\n        /* \"#utility.yul\":10199:10204   */\n      0x00\n        /* \"#utility.yul\":10230:10236   */\n      dup2\n        /* \"#utility.yul\":10224:10237   */\n      mload\n        /* \"#utility.yul\":10215:10237   */\n      swap1\n      pop\n        /* \"#utility.yul\":10246:10279   */\n      tag_416\n        /* \"#utility.yul\":10273:10278   */\n      dup2\n        /* \"#utility.yul\":10246:10279   */\n      tag_255\n      jump\t// in\n    tag_416:\n        /* \"#utility.yul\":10142:10285   */\n      swap3\n      swap2\n      pop\n      pop\n      jump\t// out\n        /* \"#utility.yul\":10291:10642   */\n    tag_177:\n        /* \"#utility.yul\":10361:10367   */\n      0x00\n        /* \"#utility.yul\":10410:10412   */\n      0x20\n        /* \"#utility.yul\":10398:10407   */\n      dup3\n        /* \"#utility.yul\":10389:10396   */\n      dup5\n        /* \"#utility.yul\":10385:10408   */\n      sub\n        /* \"#utility.yul\":10381:10413   */\n      slt\n        /* \"#utility.yul\":10378:10497   */\n      iszero\n      tag_418\n      jumpi\n        /* \"#utility.yul\":10416:10495   */\n      tag_419\n      tag_242\n      jump\t// in\n    tag_419:\n        /* \"#utility.yul\":10378:10497   */\n    tag_418:\n        /* \"#utility.yul\":10536:10537   */\n      0x00\n        /* \"#utility.yul\":10561:10625   */\n      tag_420\n        /* \"#utility.yul\":10617:10624   */\n      dup5\n        /* \"#utility.yul\":10608:10614   */\n      dup3\n        /* \"#utility.yul\":10597:10606   */\n      dup6\n        /* \"#utility.yul\":10593:10615   */\n      add\n        /* \"#utility.yul\":10561:10625   */\n      tag_268\n      jump\t// in\n    tag_420:\n        /* \"#utility.yul\":10551:10625   */\n      swap2\n      pop\n        /* \"#utility.yul\":10507:10635   */\n      pop\n        /* \"#utility.yul\":10291:10642   */\n      swap3\n      swap2\n      pop\n      pop\n      jump\t// out\n        /* \"#utility.yul\":10648:10817   */\n    tag_269:\n        /* \"#utility.yul\":10732:10743   */\n      0x00\n        /* \"#utility.yul\":10766:10772   */\n      dup3\n        /* \"#utility.yul\":10761:10764   */\n      dup3\n        /* \"#utility.yul\":10754:10773   */\n      mstore\n        /* \"#utility.yul\":10806:10810   */\n      0x20\n        /* \"#utility.yul\":10801:10804   */\n      dup3\n        /* \"#utility.yul\":10797:10811   */\n      add\n        /* \"#utility.yul\":10782:10811   */\n      swap1\n      pop\n        /* \"#utility.yul\":10648:10817   */\n      swap3\n      swap2\n      pop\n      pop\n      jump\t// out\n        /* \"#utility.yul\":10823:11064   */\n    tag_270:\n        /* \"#utility.yul\":10963:10997   */\n      0x5361666545524332303a20617070726f76652066726f6d206e6f6e2d7a65726f\n        /* \"#utility.yul\":10959:10960   */\n      0x00\n        /* \"#utility.yul\":10951:10957   */\n      dup3\n        /* \"#utility.yul\":10947:10961   */\n      add\n        /* \"#utility.yul\":10940:10998   */\n      mstore\n        /* \"#utility.yul\":11032:11056   */\n      0x20746f206e6f6e2d7a65726f20616c6c6f77616e636500000000000000000000\n        /* \"#utility.yul\":11027:11029   */\n      0x20\n        /* \"#utility.yul\":11019:11025   */\n      dup3\n        /* \"#utility.yul\":11015:11030   */\n      add\n        /* \"#utility.yul\":11008:11057   */\n      mstore\n        /* \"#utility.yul\":10823:11064   */\n      pop\n      jump\t// out\n        /* \"#utility.yul\":11070:11436   */\n    tag_271:\n        /* \"#utility.yul\":11212:11215   */\n      0x00\n        /* \"#utility.yul\":11233:11300   */\n      tag_424\n        /* \"#utility.yul\":11297:11299   */\n      0x36\n        /* \"#utility.yul\":11292:11295   */\n      dup4\n        /* \"#utility.yul\":11233:11300   */\n      tag_269\n      jump\t// in\n    tag_424:\n        /* \"#utility.yul\":11226:11300   */\n      swap2\n      pop\n        /* \"#utility.yul\":11309:11402   */\n      tag_425\n        /* \"#utility.yul\":11398:11401   */\n      dup3\n        /* \"#utility.yul\":11309:11402   */\n      tag_270\n      jump\t// in\n    tag_425:\n        /* \"#utility.yul\":11427:11429   */\n      0x40\n        /* \"#utility.yul\":11422:11425   */\n      dup3\n        /* \"#utility.yul\":11418:11430   */\n      add\n        /* \"#utility.yul\":11411:11430   */\n      swap1\n      pop\n        /* \"#utility.yul\":11070:11436   */\n      swap2\n      swap1\n      pop\n      jump\t// out\n        /* \"#utility.yul\":11442:11861   */\n    tag_180:\n        /* \"#utility.yul\":11608:11612   */\n      0x00\n        /* \"#utility.yul\":11646:11648   */\n      0x20\n        /* \"#utility.yul\":11635:11644   */\n      dup3\n        /* \"#utility.yul\":11631:11649   */\n      add\n        /* \"#utility.yul\":11623:11649   */\n      swap1\n      pop\n        /* \"#utility.yul\":11695:11704   */\n      dup2\n        /* \"#utility.yul\":11689:11693   */\n      dup2\n        /* \"#utility.yul\":11685:11705   */\n      sub\n        /* \"#utility.yul\":11681:11682   */\n      0x00\n        /* \"#utility.yul\":11670:11679   */\n      dup4\n        /* \"#utility.yul\":11666:11683   */\n      add\n        /* \"#utility.yul\":11659:11706   */\n      mstore\n        /* \"#utility.yul\":11723:11854   */\n      tag_427\n        /* \"#utility.yul\":11849:11853   */\n      dup2\n        /* \"#utility.yul\":11723:11854   */\n      tag_271\n      jump\t// in\n    tag_427:\n        /* \"#utility.yul\":11715:11854   */\n      swap1\n      pop\n        /* \"#utility.yul\":11442:11861   */\n      swap2\n      swap1\n      pop\n      jump\t// out\n        /* \"#utility.yul\":11867:12199   */\n    tag_183:\n        /* \"#utility.yul\":11988:11992   */\n      0x00\n        /* \"#utility.yul\":12026:12028   */\n      0x40\n        /* \"#utility.yul\":12015:12024   */\n      dup3\n        /* \"#utility.yul\":12011:12029   */\n      add\n        /* \"#utility.yul\":12003:12029   */\n      swap1\n      pop\n        /* \"#utility.yul\":12039:12110   */\n      tag_429\n        /* \"#utility.yul\":12107:12108   */\n      0x00\n        /* \"#utility.yul\":12096:12105   */\n      dup4\n        /* \"#utility.yul\":12092:12109   */\n      add\n        /* \"#utility.yul\":12083:12089   */\n      dup6\n        /* \"#utility.yul\":12039:12110   */\n      tag_262\n      jump\t// in\n    tag_429:\n        /* \"#utility.yul\":12120:12192   */\n      tag_430\n        /* \"#utility.yul\":12188:12190   */\n      0x20\n        /* \"#utility.yul\":12177:12186   */\n      dup4\n        /* \"#utility.yul\":12173:12191   */\n      add\n        /* \"#utility.yul\":12164:12170   */\n      dup5\n        /* \"#utility.yul\":12120:12192   */\n      tag_263\n      jump\t// in\n    tag_430:\n        /* \"#utility.yul\":11867:12199   */\n      swap4\n      swap3\n      pop\n      pop\n      pop\n      jump\t// out\n        /* \"#utility.yul\":12205:12321   */\n    tag_272:\n        /* \"#utility.yul\":12275:12296   */\n      tag_432\n        /* \"#utility.yul\":12290:12295   */\n      dup2\n        /* \"#utility.yul\":12275:12296   */\n      tag_257\n      jump\t// in\n    tag_432:\n        /* \"#utility.yul\":12268:12273   */\n      dup2\n        /* \"#utility.yul\":12265:12297   */\n      eq\n        /* \"#utility.yul\":12255:12315   */\n      tag_433\n      jumpi\n        /* \"#utility.yul\":12311:12312   */\n      0x00\n        /* \"#utility.yul\":12308:12309   */\n      dup1\n        /* \"#utility.yul\":12301:12313   */\n      revert\n        /* \"#utility.yul\":12255:12315   */\n    tag_433:\n        /* \"#utility.yul\":12205:12321   */\n      pop\n      jump\t// out\n        /* \"#utility.yul\":12327:12464   */\n    tag_273:\n        /* \"#utility.yul\":12381:12386   */\n      0x00\n        /* \"#utility.yul\":12412:12418   */\n      dup2\n        /* \"#utility.yul\":12406:12419   */\n      mload\n        /* \"#utility.yul\":12397:12419   */\n      swap1\n      pop\n        /* \"#utility.yul\":12428:12458   */\n      tag_435\n        /* \"#utility.yul\":12452:12457   */\n      dup2\n        /* \"#utility.yul\":12428:12458   */\n      tag_272\n      jump\t// in\n    tag_435:\n        /* \"#utility.yul\":12327:12464   */\n      swap3\n      swap2\n      pop\n      pop\n      jump\t// out\n        /* \"#utility.yul\":12470:12815   */\n    tag_206:\n        /* \"#utility.yul\":12537:12543   */\n      0x00\n        /* \"#utility.yul\":12586:12588   */\n      0x20\n        /* \"#utility.yul\":12574:12583   */\n      dup3\n        /* \"#utility.yul\":12565:12572   */\n      dup5\n        /* \"#utility.yul\":12561:12584   */\n      sub\n        /* \"#utility.yul\":12557:12589   */\n      slt\n        /* \"#utility.yul\":12554:12673   */\n      iszero\n      tag_437\n      jumpi\n        /* \"#utility.yul\":12592:12671   */\n      tag_438\n      tag_242\n      jump\t// in\n    tag_438:\n        /* \"#utility.yul\":12554:12673   */\n    tag_437:\n        /* \"#utility.yul\":12712:12713   */\n      0x00\n        /* \"#utility.yul\":12737:12798   */\n      tag_439\n        /* \"#utility.yul\":12790:12797   */\n      dup5\n        /* \"#utility.yul\":12781:12787   */\n      dup3\n        /* \"#utility.yul\":12770:12779   */\n      dup6\n        /* \"#utility.yul\":12766:12788   */\n      add\n        /* \"#utility.yul\":12737:12798   */\n      tag_273\n      jump\t// in\n    tag_439:\n        /* \"#utility.yul\":12727:12798   */\n      swap2\n      pop\n        /* \"#utility.yul\":12683:12808   */\n      pop\n        /* \"#utility.yul\":12470:12815   */\n      swap3\n      swap2\n      pop\n      pop\n      jump\t// out\n        /* \"#utility.yul\":12821:13050   */\n    tag_274:\n        /* \"#utility.yul\":12961:12995   */\n      0x5361666545524332303a204552433230206f7065726174696f6e20646964206e\n        /* \"#utility.yul\":12957:12958   */\n      0x00\n        /* \"#utility.yul\":12949:12955   */\n      dup3\n        /* \"#utility.yul\":12945:12959   */\n      add\n        /* \"#utility.yul\":12938:12996   */\n      mstore\n        /* \"#utility.yul\":13030:13042   */\n      0x6f74207375636365656400000000000000000000000000000000000000000000\n        /* \"#utility.yul\":13025:13027   */\n      0x20\n        /* \"#utility.yul\":13017:13023   */\n      dup3\n        /* \"#utility.yul\":13013:13028   */\n      add\n        /* \"#utility.yul\":13006:13043   */\n      mstore\n        /* \"#utility.yul\":12821:13050   */\n      pop\n      jump\t// out\n        /* \"#utility.yul\":13056:13422   */\n    tag_275:\n        /* \"#utility.yul\":13198:13201   */\n      0x00\n        /* \"#utility.yul\":13219:13286   */\n      tag_442\n        /* \"#utility.yul\":13283:13285   */\n      0x2a\n        /* \"#utility.yul\":13278:13281   */\n      dup4\n        /* \"#utility.yul\":13219:13286   */\n      tag_269\n      jump\t// in\n    tag_442:\n        /* \"#utility.yul\":13212:13286   */\n      swap2\n      pop\n        /* \"#utility.yul\":13295:13388   */\n      tag_443\n        /* \"#utility.yul\":13384:13387   */\n      dup3\n        /* \"#utility.yul\":13295:13388   */\n      tag_274\n      jump\t// in\n    tag_443:\n        /* \"#utility.yul\":13413:13415   */\n      0x40\n        /* \"#utility.yul\":13408:13411   */\n      dup3\n        /* \"#utility.yul\":13404:13416   */\n      add\n        /* \"#utility.yul\":13397:13416   */\n      swap1\n      pop\n        /* \"#utility.yul\":13056:13422   */\n      swap2\n      swap1\n      pop\n      jump\t// out\n        /* \"#utility.yul\":13428:13847   */\n    tag_209:\n        /* \"#utility.yul\":13594:13598   */\n      0x00\n        /* \"#utility.yul\":13632:13634   */\n      0x20\n        /* \"#utility.yul\":13621:13630   */\n      dup3\n        /* \"#utility.yul\":13617:13635   */\n      add\n        /* \"#utility.yul\":13609:13635   */\n      swap1\n      pop\n        /* \"#utility.yul\":13681:13690   */\n      dup2\n        /* \"#utility.yul\":13675:13679   */\n      dup2\n        /* \"#utility.yul\":13671:13691   */\n      sub\n        /* \"#utility.yul\":13667:13668   */\n      0x00\n        /* \"#utility.yul\":13656:13665   */\n      dup4\n        /* \"#utility.yul\":13652:13669   */\n      add\n        /* \"#utility.yul\":13645:13692   */\n      mstore\n        /* \"#utility.yul\":13709:13840   */\n      tag_445\n        /* \"#utility.yul\":13835:13839   */\n      dup2\n        /* \"#utility.yul\":13709:13840   */\n      tag_275\n      jump\t// in\n    tag_445:\n        /* \"#utility.yul\":13701:13840   */\n      swap1\n      pop\n        /* \"#utility.yul\":13428:13847   */\n      swap2\n      swap1\n      pop\n      jump\t// out\n        /* \"#utility.yul\":13853:14078   */\n    tag_276:\n        /* \"#utility.yul\":13993:14027   */\n      0x416464726573733a20696e73756666696369656e742062616c616e636520666f\n        /* \"#utility.yul\":13989:13990   */\n      0x00\n        /* \"#utility.yul\":13981:13987   */\n      dup3\n        /* \"#utility.yul\":13977:13991   */\n      add\n        /* \"#utility.yul\":13970:14028   */\n      mstore\n        /* \"#utility.yul\":14062:14070   */\n      0x722063616c6c0000000000000000000000000000000000000000000000000000\n        /* \"#utility.yul\":14057:14059   */\n      0x20\n        /* \"#utility.yul\":14049:14055   */\n      dup3\n        /* \"#utility.yul\":14045:14060   */\n      add\n        /* \"#utility.yul\":14038:14071   */\n      mstore\n        /* \"#utility.yul\":13853:14078   */\n      pop\n      jump\t// out\n        /* \"#utility.yul\":14084:14450   */\n    tag_277:\n        /* \"#utility.yul\":14226:14229   */\n      0x00\n        /* \"#utility.yul\":14247:14314   */\n      tag_448\n        /* \"#utility.yul\":14311:14313   */\n      0x26\n        /* \"#utility.yul\":14306:14309   */\n      dup4\n        /* \"#utility.yul\":14247:14314   */\n      tag_269\n      jump\t// in\n    tag_448:\n        /* \"#utility.yul\":14240:14314   */\n      swap2\n      pop\n        /* \"#utility.yul\":14323:14416   */\n      tag_449\n        /* \"#utility.yul\":14412:14415   */\n      dup3\n        /* \"#utility.yul\":14323:14416   */\n      tag_276\n      jump\t// in\n    tag_449:\n        /* \"#utility.yul\":14441:14443   */\n      0x40\n        /* \"#utility.yul\":14436:14439   */\n      dup3\n        /* \"#utility.yul\":14432:14444   */\n      add\n        /* \"#utility.yul\":14425:14444   */\n      swap1\n      pop\n        /* \"#utility.yul\":14084:14450   */\n      swap2\n      swap1\n      pop\n      jump\t// out\n        /* \"#utility.yul\":14456:14875   */\n    tag_216:\n        /* \"#utility.yul\":14622:14626   */\n      0x00\n        /* \"#utility.yul\":14660:14662   */\n      0x20\n        /* \"#utility.yul\":14649:14658   */\n      dup3\n        /* \"#utility.yul\":14645:14663   */\n      add\n        /* \"#utility.yul\":14637:14663   */\n      swap1\n      pop\n        /* \"#utility.yul\":14709:14718   */\n      dup2\n        /* \"#utility.yul\":14703:14707   */\n      dup2\n        /* \"#utility.yul\":14699:14719   */\n      sub\n        /* \"#utility.yul\":14695:14696   */\n      0x00\n        /* \"#utility.yul\":14684:14693   */\n      dup4\n        /* \"#utility.yul\":14680:14697   */\n      add\n        /* \"#utility.yul\":14673:14720   */\n      mstore\n        /* \"#utility.yul\":14737:14868   */\n      tag_451\n        /* \"#utility.yul\":14863:14867   */\n      dup2\n        /* \"#utility.yul\":14737:14868   */\n      tag_277\n      jump\t// in\n    tag_451:\n        /* \"#utility.yul\":14729:14868   */\n      swap1\n      pop\n        /* \"#utility.yul\":14456:14875   */\n      swap2\n      swap1\n      pop\n      jump\t// out\n        /* \"#utility.yul\":14881:14979   */\n    tag_278:\n        /* \"#utility.yul\":14932:14938   */\n      0x00\n        /* \"#utility.yul\":14966:14971   */\n      dup2\n        /* \"#utility.yul\":14960:14972   */\n      mload\n        /* \"#utility.yul\":14950:14972   */\n      swap1\n      pop\n        /* \"#utility.yul\":14881:14979   */\n      swap2\n      swap1\n      pop\n      jump\t// out\n        /* \"#utility.yul\":14985:15132   */\n    tag_279:\n        /* \"#utility.yul\":15086:15097   */\n      0x00\n        /* \"#utility.yul\":15123:15126   */\n      dup2\n        /* \"#utility.yul\":15108:15126   */\n      swap1\n      pop\n        /* \"#utility.yul\":14985:15132   */\n      swap3\n      swap2\n      pop\n      pop\n      jump\t// out\n        /* \"#utility.yul\":15138:15384   */\n    tag_280:\n        /* \"#utility.yul\":15219:15220   */\n      0x00\n        /* \"#utility.yul\":15229:15342   */\n    tag_455:\n        /* \"#utility.yul\":15243:15249   */\n      dup4\n        /* \"#utility.yul\":15240:15241   */\n      dup2\n        /* \"#utility.yul\":15237:15250   */\n      lt\n        /* \"#utility.yul\":15229:15342   */\n      iszero\n      tag_457\n      jumpi\n        /* \"#utility.yul\":15328:15329   */\n      dup1\n        /* \"#utility.yul\":15323:15326   */\n      dup3\n        /* \"#utility.yul\":15319:15330   */\n      add\n        /* \"#utility.yul\":15313:15331   */\n      mload\n        /* \"#utility.yul\":15309:15310   */\n      dup2\n        /* \"#utility.yul\":15304:15307   */\n      dup5\n        /* \"#utility.yul\":15300:15311   */\n      add\n        /* \"#utility.yul\":15293:15332   */\n      mstore\n        /* \"#utility.yul\":15265:15267   */\n      0x20\n        /* \"#utility.yul\":15262:15263   */\n      dup2\n        /* \"#utility.yul\":15258:15268   */\n      add\n        /* \"#utility.yul\":15253:15268   */\n      swap1\n      pop\n        /* \"#utility.yul\":15229:15342   */\n      jump(tag_455)\n    tag_457:\n        /* \"#utility.yul\":15376:15377   */\n      0x00\n        /* \"#utility.yul\":15367:15373   */\n      dup5\n        /* \"#utility.yul\":15362:15365   */\n      dup5\n        /* \"#utility.yul\":15358:15374   */\n      add\n        /* \"#utility.yul\":15351:15378   */\n      mstore\n        /* \"#utility.yul\":15200:15384   */\n      pop\n        /* \"#utility.yul\":15138:15384   */\n      pop\n      pop\n      pop\n      jump\t// out\n        /* \"#utility.yul\":15390:15776   */\n    tag_281:\n        /* \"#utility.yul\":15494:15497   */\n      0x00\n        /* \"#utility.yul\":15522:15560   */\n      tag_459\n        /* \"#utility.yul\":15554:15559   */\n      dup3\n        /* \"#utility.yul\":15522:15560   */\n      tag_278\n      jump\t// in\n    tag_459:\n        /* \"#utility.yul\":15576:15664   */\n      tag_460\n        /* \"#utility.yul\":15657:15663   */\n      dup2\n        /* \"#utility.yul\":15652:15655   */\n      dup6\n        /* \"#utility.yul\":15576:15664   */\n      tag_279\n      jump\t// in\n    tag_460:\n        /* \"#utility.yul\":15569:15664   */\n      swap4\n      pop\n        /* \"#utility.yul\":15673:15738   */\n      tag_461\n        /* \"#utility.yul\":15731:15737   */\n      dup2\n        /* \"#utility.yul\":15726:15729   */\n      dup6\n        /* \"#utility.yul\":15719:15723   */\n      0x20\n        /* \"#utility.yul\":15712:15717   */\n      dup7\n        /* \"#utility.yul\":15708:15724   */\n      add\n        /* \"#utility.yul\":15673:15738   */\n      tag_280\n      jump\t// in\n    tag_461:\n        /* \"#utility.yul\":15763:15769   */\n      dup1\n        /* \"#utility.yul\":15758:15761   */\n      dup5\n        /* \"#utility.yul\":15754:15770   */\n      add\n        /* \"#utility.yul\":15747:15770   */\n      swap2\n      pop\n        /* \"#utility.yul\":15498:15776   */\n      pop\n        /* \"#utility.yul\":15390:15776   */\n      swap3\n      swap2\n      pop\n      pop\n      jump\t// out\n        /* \"#utility.yul\":15782:16053   */\n    tag_218:\n        /* \"#utility.yul\":15912:15915   */\n      0x00\n        /* \"#utility.yul\":15934:16027   */\n      tag_463\n        /* \"#utility.yul\":16023:16026   */\n      dup3\n        /* \"#utility.yul\":16014:16020   */\n      dup5\n        /* \"#utility.yul\":15934:16027   */\n      tag_281\n      jump\t// in\n    tag_463:\n        /* \"#utility.yul\":15927:16027   */\n      swap2\n      pop\n        /* \"#utility.yul\":16044:16047   */\n      dup2\n        /* \"#utility.yul\":16037:16047   */\n      swap1\n      pop\n        /* \"#utility.yul\":15782:16053   */\n      swap3\n      swap2\n      pop\n      pop\n      jump\t// out\n        /* \"#utility.yul\":16059:16238   */\n    tag_282:\n        /* \"#utility.yul\":16199:16230   */\n      0x416464726573733a2063616c6c20746f206e6f6e2d636f6e7472616374000000\n        /* \"#utility.yul\":16195:16196   */\n      0x00\n        /* \"#utility.yul\":16187:16193   */\n      dup3\n        /* \"#utility.yul\":16183:16197   */\n      add\n        /* \"#utility.yul\":16176:16231   */\n      mstore\n        /* \"#utility.yul\":16059:16238   */\n      pop\n      jump\t// out\n        /* \"#utility.yul\":16244:16610   */\n    tag_283:\n        /* \"#utility.yul\":16386:16389   */\n      0x00\n        /* \"#utility.yul\":16407:16474   */\n      tag_466\n        /* \"#utility.yul\":16471:16473   */\n      0x1d\n        /* \"#utility.yul\":16466:16469   */\n      dup4\n        /* \"#utility.yul\":16407:16474   */\n      tag_269\n      jump\t// in\n    tag_466:\n        /* \"#utility.yul\":16400:16474   */\n      swap2\n      pop\n        /* \"#utility.yul\":16483:16576   */\n      tag_467\n        /* \"#utility.yul\":16572:16575   */\n      dup3\n        /* \"#utility.yul\":16483:16576   */\n      tag_282\n      jump\t// in\n    tag_467:\n        /* \"#utility.yul\":16601:16603   */\n      0x20\n        /* \"#utility.yul\":16596:16599   */\n      dup3\n        /* \"#utility.yul\":16592:16604   */\n      add\n        /* \"#utility.yul\":16585:16604   */\n      swap1\n      pop\n        /* \"#utility.yul\":16244:16610   */\n      swap2\n      swap1\n      pop\n      jump\t// out\n        /* \"#utility.yul\":16616:17035   */\n    tag_231:\n        /* \"#utility.yul\":16782:16786   */\n      0x00\n        /* \"#utility.yul\":16820:16822   */\n      0x20\n        /* \"#utility.yul\":16809:16818   */\n      dup3\n        /* \"#utility.yul\":16805:16823   */\n      add\n        /* \"#utility.yul\":16797:16823   */\n      swap1\n      pop\n        /* \"#utility.yul\":16869:16878   */\n      dup2\n        /* \"#utility.yul\":16863:16867   */\n      dup2\n        /* \"#utility.yul\":16859:16879   */\n      sub\n        /* \"#utility.yul\":16855:16856   */\n      0x00\n        /* \"#utility.yul\":16844:16853   */\n      dup4\n        /* \"#utility.yul\":16840:16857   */\n      add\n        /* \"#utility.yul\":16833:16880   */\n      mstore\n        /* \"#utility.yul\":16897:17028   */\n      tag_469\n        /* \"#utility.yul\":17023:17027   */\n      dup2\n        /* \"#utility.yul\":16897:17028   */\n      tag_283\n      jump\t// in\n    tag_469:\n        /* \"#utility.yul\":16889:17028   */\n      swap1\n      pop\n        /* \"#utility.yul\":16616:17035   */\n      swap2\n      swap1\n      pop\n      jump\t// out\n        /* \"#utility.yul\":17041:17140   */\n    tag_284:\n        /* \"#utility.yul\":17093:17099   */\n      0x00\n        /* \"#utility.yul\":17127:17132   */\n      dup2\n        /* \"#utility.yul\":17121:17133   */\n      mload\n        /* \"#utility.yul\":17111:17133   */\n      swap1\n      pop\n        /* \"#utility.yul\":17041:17140   */\n      swap2\n      swap1\n      pop\n      jump\t// out\n        /* \"#utility.yul\":17146:17248   */\n    tag_285:\n        /* \"#utility.yul\":17187:17193   */\n      0x00\n        /* \"#utility.yul\":17238:17240   */\n      0x1f\n        /* \"#utility.yul\":17234:17241   */\n      not\n        /* \"#utility.yul\":17229:17231   */\n      0x1f\n        /* \"#utility.yul\":17222:17227   */\n      dup4\n        /* \"#utility.yul\":17218:17232   */\n      add\n        /* \"#utility.yul\":17214:17242   */\n      and\n        /* \"#utility.yul\":17204:17242   */\n      swap1\n      pop\n        /* \"#utility.yul\":17146:17248   */\n      swap2\n      swap1\n      pop\n      jump\t// out\n        /* \"#utility.yul\":17254:17631   */\n    tag_286:\n        /* \"#utility.yul\":17342:17345   */\n      0x00\n        /* \"#utility.yul\":17370:17409   */\n      tag_473\n        /* \"#utility.yul\":17403:17408   */\n      dup3\n        /* \"#utility.yul\":17370:17409   */\n      tag_284\n      jump\t// in\n    tag_473:\n        /* \"#utility.yul\":17425:17496   */\n      tag_474\n        /* \"#utility.yul\":17489:17495   */\n      dup2\n        /* \"#utility.yul\":17484:17487   */\n      dup6\n        /* \"#utility.yul\":17425:17496   */\n      tag_269\n      jump\t// in\n    tag_474:\n        /* \"#utility.yul\":17418:17496   */\n      swap4\n      pop\n        /* \"#utility.yul\":17505:17570   */\n      tag_475\n        /* \"#utility.yul\":17563:17569   */\n      dup2\n        /* \"#utility.yul\":17558:17561   */\n      dup6\n        /* \"#utility.yul\":17551:17555   */\n      0x20\n        /* \"#utility.yul\":17544:17549   */\n      dup7\n        /* \"#utility.yul\":17540:17556   */\n      add\n        /* \"#utility.yul\":17505:17570   */\n      tag_280\n      jump\t// in\n    tag_475:\n        /* \"#utility.yul\":17595:17624   */\n      tag_476\n        /* \"#utility.yul\":17617:17623   */\n      dup2\n        /* \"#utility.yul\":17595:17624   */\n      tag_285\n      jump\t// in\n    tag_476:\n        /* \"#utility.yul\":17590:17593   */\n      dup5\n        /* \"#utility.yul\":17586:17625   */\n      add\n        /* \"#utility.yul\":17579:17625   */\n      swap2\n      pop\n        /* \"#utility.yul\":17346:17631   */\n      pop\n        /* \"#utility.yul\":17254:17631   */\n      swap3\n      swap2\n      pop\n      pop\n      jump\t// out\n        /* \"#utility.yul\":17637:17950   */\n    tag_240:\n        /* \"#utility.yul\":17750:17754   */\n      0x00\n        /* \"#utility.yul\":17788:17790   */\n      0x20\n        /* \"#utility.yul\":17777:17786   */\n      dup3\n        /* \"#utility.yul\":17773:17791   */\n      add\n        /* \"#utility.yul\":17765:17791   */\n      swap1\n      pop\n        /* \"#utility.yul\":17837:17846   */\n      dup2\n        /* \"#utility.yul\":17831:17835   */\n      dup2\n        /* \"#utility.yul\":17827:17847   */\n      sub\n        /* \"#utility.yul\":17823:17824   */\n      0x00\n        /* \"#utility.yul\":17812:17821   */\n      dup4\n        /* \"#utility.yul\":17808:17825   */\n      add\n        /* \"#utility.yul\":17801:17848   */\n      mstore\n        /* \"#utility.yul\":17865:17943   */\n      tag_478\n        /* \"#utility.yul\":17938:17942   */\n      dup2\n        /* \"#utility.yul\":17929:17935   */\n      dup5\n        /* \"#utility.yul\":17865:17943   */\n      tag_286\n      jump\t// in\n    tag_478:\n        /* \"#utility.yul\":17857:17943   */\n      swap1\n      pop\n        /* \"#utility.yul\":17637:17950   */\n      swap3\n      swap2\n      pop\n      pop\n      jump\t// out\n\n    auxdata: 0xa26469706673582212205bee183ca04199921b2222961c958043d10d422c901cae9895ae3815e3cd613064736f6c63430008130033\n}\n",
				"bytecode": {
					"linkReferences": {},
					"object": "6080604052731f98431c8ad98523631ae4a59f267346ea31f984600260006101000a81548173ffffffffffffffffffffffffffffffffffffffff021916908373ffffffffffffffffffffffffffffffffffffffff16021790555073c36442b4a4522e871399cd717abdd847ab11fe88600360006101000a81548173ffffffffffffffffffffffffffffffffffffffff021916908373ffffffffffffffffffffffffffffffffffffffff160217905550348015620000bb57600080fd5b5060405162002e7838038062002e788339818101604052810190620000e19190620001f5565b81600160006101000a81548173ffffffffffffffffffffffffffffffffffffffff021916908373ffffffffffffffffffffffffffffffffffffffff160217905550806000806101000a81548166ffffffffffffff021916908366ffffffffffffff16021790555050506200023c565b600080fd5b600073ffffffffffffffffffffffffffffffffffffffff82169050919050565b6000620001828262000155565b9050919050565b620001948162000175565b8114620001a057600080fd5b50565b600081519050620001b48162000189565b92915050565b6000819050919050565b620001cf81620001ba565b8114620001db57600080fd5b50565b600081519050620001ef81620001c4565b92915050565b600080604083850312156200020f576200020e62000150565b5b60006200021f85828601620001a3565b92505060206200023285828601620001de565b9150509250929050565b612c2c806200024c6000396000f3fe608060405234801561001057600080fd5b50600436106100cf5760003560e01c806398c50fdd1161008c578063c3cf1aa611610066578063c3cf1aa614610220578063d91af4921461023c578063df0905c614610258578063fc993ea814610288576100cf565b806398c50fdd146101a4578063b8d7f980146101d4578063c0102de414610204576100cf565b80630d45431d146100d457806325ac3a73146100f05780632895cb7b1461010c57806359de2f6014610128578063696d62831461015857806377bcd8a614610188575b600080fd5b6100ee60048036038101906100e991906122c4565b6102b8565b005b61010a6004803603810190610105919061236b565b6106ea565b005b6101266004803603810190610121919061236b565b610967565b005b610142600480360381019061013d91906123ce565b610f07565b60405161014f9190612429565b60405180910390f35b610172600480360381019061016d919061247f565b610f36565b60405161017f91906124e1565b60405180910390f35b6101a2600480360381019061019d919061236b565b610fe1565b005b6101be60048036038101906101b991906124fc565b6113ba565b6040516101cb919061254b565b60405180910390f35b6101ee60048036038101906101e991906123ce565b6114d7565b6040516101fb9190612429565b60405180910390f35b61021e6004803603810190610219919061236b565b611506565b005b61023a6004803603810190610235919061236b565b6117ad565b005b61025660048036038101906102519190612566565b6117b0565b005b610272600480360381019061026d91906123ce565b611b79565b60405161027f9190612429565b60405180910390f35b6102a2600480360381019061029d91906123ce565b611ba8565b6040516102af9190612429565b60405180910390f35b600081836102c691906125d5565b6fffffffffffffffffffffffffffffffff16905060006102e986866103e8610f36565b905068056bc75e2d6310000082101561032e576040517fe008b5f900000000000000000000000000000000000000000000000000000000815260040160405180910390fd5b6000604051806101000160405280600160ff168152602001600060079054906101000a900467ffffffffffffffff1667ffffffffffffffff1681526020014266ffffffffffffff168152602001866fffffffffffffffffffffffffffffffff168152602001856fffffffffffffffffffffffffffffffff1681526020018873ffffffffffffffffffffffffffffffffffffffff1681526020013373ffffffffffffffffffffffffffffffffffffffff1681526020013073ffffffffffffffffffffffffffffffffffffffff16815250905080600460008060079054906101000a900467ffffffffffffffff1667ffffffffffffffff1667ffffffffffffffff16815260200190815260200160002060008201518160000160006101000a81548160ff021916908360ff16021790555060208201518160000160016101000a81548167ffffffffffffffff021916908367ffffffffffffffff16021790555060408201518160000160096101000a81548166ffffffffffffff021916908366ffffffffffffff16021790555060608201518160000160106101000a8154816fffffffffffffffffffffffffffffffff02191690836fffffffffffffffffffffffffffffffff16021790555060808201518160010160006101000a8154816fffffffffffffffffffffffffffffffff02191690836fffffffffffffffffffffffffffffffff16021790555060a08201518160020160006101000a81548173ffffffffffffffffffffffffffffffffffffffff021916908373ffffffffffffffffffffffffffffffffffffffff16021790555060c08201518160030160006101000a81548173ffffffffffffffffffffffffffffffffffffffff021916908373ffffffffffffffffffffffffffffffffffffffff16021790555060e08201518160040160006101000a81548173ffffffffffffffffffffffffffffffffffffffff021916908373ffffffffffffffffffffffffffffffffffffffff16021790555090505061063c3330858a73ffffffffffffffffffffffffffffffffffffffff16611bd7909392919063ffffffff16565b61066782848973ffffffffffffffffffffffffffffffffffffffff16611c609092919063ffffffff16565b6106943083858a73ffffffffffffffffffffffffffffffffffffffff16611bd7909392919063ffffffff16565b6000600781819054906101000a900467ffffffffffffffff16809291906106ba90612612565b91906101000a81548167ffffffffffffffff021916908367ffffffffffffffff1602179055505050505050505050565b6000600560003373ffffffffffffffffffffffffffffffffffffffff1673ffffffffffffffffffffffffffffffffffffffff16815260200190815260200160002060008367ffffffffffffffff16815260200190815260200160002060006101000a81548160ff021916908315150217905515610793576040517f4232716900000000000000000000000000000000000000000000000000000000815260040160405180910390fd5b3373ffffffffffffffffffffffffffffffffffffffff166107b382611daf565b73ffffffffffffffffffffffffffffffffffffffff1614610800576040517fd7c498bf00000000000000000000000000000000000000000000000000000000815260040160405180910390fd5b6000600460008367ffffffffffffffff1667ffffffffffffffff16815260200190815260200160002060000160109054906101000a90046fffffffffffffffffffffffffffffffff166fffffffffffffffffffffffffffffffff1690506108ac333083600160009054906101000a900473ffffffffffffffffffffffffffffffffffffffff1673ffffffffffffffffffffffffffffffffffffffff16611bd7909392919063ffffffff16565b6001600560003373ffffffffffffffffffffffffffffffffffffffff1673ffffffffffffffffffffffffffffffffffffffff16815260200190815260200160002060008467ffffffffffffffff16815260200190815260200160002060006101000a81548160ff0219169083151502179055506003600460008467ffffffffffffffff1667ffffffffffffffff16815260200190815260200160002060000160006101000a81548160ff021916908360ff1602179055505050565b600061097282611e03565b9050600061097f83611daf565b90508173ffffffffffffffffffffffffffffffffffffffff163373ffffffffffffffffffffffffffffffffffffffff16146109b957600080fd5b60001515600560008373ffffffffffffffffffffffffffffffffffffffff1673ffffffffffffffffffffffffffffffffffffffff16815260200190815260200160002060008567ffffffffffffffff16815260200190815260200160002060009054906101000a900460ff16151514610a3157600080fd5b60001515600860003373ffffffffffffffffffffffffffffffffffffffff1673ffffffffffffffffffffffffffffffffffffffff16815260200190815260200160002060008567ffffffffffffffff16815260200190815260200160002060009054906101000a900460ff16151514610aa957600080fd5b8173ffffffffffffffffffffffffffffffffffffffff163373ffffffffffffffffffffffffffffffffffffffff1614610ae157600080fd5b6000600460008567ffffffffffffffff1667ffffffffffffffff16815260200190815260200160002060020160009054906101000a900473ffffffffffffffffffffffffffffffffffffffff1690506000610bc8600460008767ffffffffffffffff1667ffffffffffffffff16815260200190815260200160002060010160009054906101000a90046fffffffffffffffffffffffffffffffff16600460008867ffffffffffffffff1667ffffffffffffffff16815260200190815260200160002060000160109054906101000a90046fffffffffffffffffffffffffffffffff166113ba565b90506000610bd582611e57565b9050610c0230828573ffffffffffffffffffffffffffffffffffffffff16611efe9092919063ffffffff16565b610c38858284610c129190612642565b8573ffffffffffffffffffffffffffffffffffffffff16611efe9092919063ffffffff16565b6001600860003373ffffffffffffffffffffffffffffffffffffffff1673ffffffffffffffffffffffffffffffffffffffff16815260200190815260200160002060008867ffffffffffffffff16815260200190815260200160002060006101000a81548160ff0219169083151502179055506001600460008867ffffffffffffffff1667ffffffffffffffff16815260200190815260200160002060000160009054906101000a900460ff1660ff1603610ebb5760001515600960003373ffffffffffffffffffffffffffffffffffffffff1673ffffffffffffffffffffffffffffffffffffffff16815260200190815260200160002060008867ffffffffffffffff16815260200190815260200160002060009054906101000a900460ff16151514610d6557600080fd5b6000600460008867ffffffffffffffff1667ffffffffffffffff16815260200190815260200160002060000160109054906101000a90046fffffffffffffffffffffffffffffffff16600460008967ffffffffffffffff1667ffffffffffffffff16815260200190815260200160002060010160009054906101000a90046fffffffffffffffffffffffffffffffff16610dff91906125d5565b6fffffffffffffffffffffffffffffffff169050610e46610e1f88611e03565b828673ffffffffffffffffffffffffffffffffffffffff16611efe9092919063ffffffff16565b6001600960003373ffffffffffffffffffffffffffffffffffffffff1673ffffffffffffffffffffffffffffffffffffffff16815260200190815260200160002060008967ffffffffffffffff16815260200190815260200160002060006101000a81548160ff021916908315150217905550505b6005600460008867ffffffffffffffff1667ffffffffffffffff16815260200190815260200160002060000160006101000a81548160ff021916908360ff160217905550505050505050565b60066020528160005260406000206020528060005260406000206000915091509054906101000a900460ff1681565b6000600260009054906101000a900473ffffffffffffffffffffffffffffffffffffffff1673ffffffffffffffffffffffffffffffffffffffff16631698ee828585856040518463ffffffff1660e01b8152600401610f9793929190612685565b602060405180830381865afa158015610fb4573d6000803e3d6000fd5b505050506040513d601f19601f82011682018060405250810190610fd891906126d1565b90509392505050565b6000610fec82611daf565b90508073ffffffffffffffffffffffffffffffffffffffff163373ffffffffffffffffffffffffffffffffffffffff161461102657600080fd5b600560008273ffffffffffffffffffffffffffffffffffffffff1673ffffffffffffffffffffffffffffffffffffffff16815260200190815260200160002060008367ffffffffffffffff16815260200190815260200160002060009054906101000a900460ff1661109757600080fd5b60001515600760003373ffffffffffffffffffffffffffffffffffffffff1673ffffffffffffffffffffffffffffffffffffffff16815260200190815260200160002060008467ffffffffffffffff16815260200190815260200160002060009054906101000a900460ff1615151461110f57600080fd5b6000600460008467ffffffffffffffff1667ffffffffffffffff16815260200190815260200160002060020160009054906101000a900473ffffffffffffffffffffffffffffffffffffffff1690506000600460008567ffffffffffffffff1667ffffffffffffffff16815260200190815260200160002060000160109054906101000a90046fffffffffffffffffffffffffffffffff16600460008667ffffffffffffffff1667ffffffffffffffff16815260200190815260200160002060010160009054906101000a90046fffffffffffffffffffffffffffffffff166111f891906125d5565b6fffffffffffffffffffffffffffffffff16905060006112a4600460008767ffffffffffffffff1667ffffffffffffffff16815260200190815260200160002060010160009054906101000a90046fffffffffffffffffffffffffffffffff16600460008867ffffffffffffffff1667ffffffffffffffff16815260200190815260200160002060000160109054906101000a90046fffffffffffffffffffffffffffffffff166113ba565b905060006112b183611e57565b90506112de30828673ffffffffffffffffffffffffffffffffffffffff16611efe9092919063ffffffff16565b6113148582856112ee9190612642565b8673ffffffffffffffffffffffffffffffffffffffff16611efe9092919063ffffffff16565b61133f85838673ffffffffffffffffffffffffffffffffffffffff16611efe9092919063ffffffff16565b6001600760003373ffffffffffffffffffffffffffffffffffffffff1673ffffffffffffffffffffffffffffffffffffffff16815260200190815260200160002060008867ffffffffffffffff16815260200190815260200160002060006101000a81548160ff021916908315150217905550505050505050565b60008082846113c991906125d5565b6fffffffffffffffffffffffffffffffff16905068056bc75e2d6310000081101580156113fe5750683635c9adc5dea0000081105b1561142457606460328261141291906126fe565b61141c919061276f565b9150506114d1565b683635c9adc5dea000008110158015611446575069021e19e0c9bab240000081105b1561146c57606460288261145a91906126fe565b611464919061276f565b9150506114d1565b69021e19e0c9bab240000081111561149f57606460198261148d91906126fe565b611497919061276f565b9150506114d1565b6040517fe008b5f900000000000000000000000000000000000000000000000000000000815260040160405180910390fd5b92915050565b60086020528160005260406000206020528060005260406000206000915091509054906101000a900460ff1681565b600061151182611e03565b90508073ffffffffffffffffffffffffffffffffffffffff163373ffffffffffffffffffffffffffffffffffffffff1614611578576040517f472e017e00000000000000000000000000000000000000000000000000000000815260040160405180910390fd5b6003600460008467ffffffffffffffff1667ffffffffffffffff16815260200190815260200160002060000160009054906101000a900460ff1660ff16146115ec576040517fde4461cd00000000000000000000000000000000000000000000000000000000815260040160405180910390fd5b6000600460008467ffffffffffffffff1667ffffffffffffffff16815260200190815260200160002060000160109054906101000a90046fffffffffffffffffffffffffffffffff1690506000600460008567ffffffffffffffff1667ffffffffffffffff16815260200190815260200160002060010160009054906101000a90046fffffffffffffffffffffffffffffffff16905060006116aa828461169391906125d5565b6fffffffffffffffffffffffffffffffff16611e57565b90506116f93082600160009054906101000a900473ffffffffffffffffffffffffffffffffffffffff1673ffffffffffffffffffffffffffffffffffffffff16611efe9092919063ffffffff16565b6117638482856fffffffffffffffffffffffffffffffff1661171b9190612642565b600160009054906101000a900473ffffffffffffffffffffffffffffffffffffffff1673ffffffffffffffffffffffffffffffffffffffff16611efe9092919063ffffffff16565b60048060008767ffffffffffffffff1667ffffffffffffffff16815260200190815260200160002060000160006101000a81548160ff021916908360ff1602179055505050505050565b50565b6000600460008467ffffffffffffffff1667ffffffffffffffff168152602001908152602001600020604051806101000160405290816000820160009054906101000a900460ff1660ff1660ff1681526020016000820160019054906101000a900467ffffffffffffffff1667ffffffffffffffff1667ffffffffffffffff1681526020016000820160099054906101000a900466ffffffffffffff1666ffffffffffffff1666ffffffffffffff1681526020016000820160109054906101000a90046fffffffffffffffffffffffffffffffff166fffffffffffffffffffffffffffffffff166fffffffffffffffffffffffffffffffff1681526020016001820160009054906101000a90046fffffffffffffffffffffffffffffffff166fffffffffffffffffffffffffffffffff166fffffffffffffffffffffffffffffffff1681526020016002820160009054906101000a900473ffffffffffffffffffffffffffffffffffffffff1673ffffffffffffffffffffffffffffffffffffffff1673ffffffffffffffffffffffffffffffffffffffff1681526020016003820160009054906101000a900473ffffffffffffffffffffffffffffffffffffffff1673ffffffffffffffffffffffffffffffffffffffff1673ffffffffffffffffffffffffffffffffffffffff1681526020016004820160009054906101000a900473ffffffffffffffffffffffffffffffffffffffff1673ffffffffffffffffffffffffffffffffffffffff1673ffffffffffffffffffffffffffffffffffffffff168152505090506001816000015160ff1614611a0f57600080fd5b60008160a0015190506000611a2782856103e8610f36565b90506000611a3d846080015185606001516113ba565b9050611a6c3330838673ffffffffffffffffffffffffffffffffffffffff16611bd7909392919063ffffffff16565b611a9782828573ffffffffffffffffffffffffffffffffffffffff16611c609092919063ffffffff16565b611ac43083838673ffffffffffffffffffffffffffffffffffffffff16611bd7909392919063ffffffff16565b33600460008867ffffffffffffffff1667ffffffffffffffff16815260200190815260200160002060040160006101000a81548173ffffffffffffffffffffffffffffffffffffffff021916908373ffffffffffffffffffffffffffffffffffffffff1602179055506002600460008867ffffffffffffffff1667ffffffffffffffff16815260200190815260200160002060000160006101000a81548160ff021916908360ff160217905550505050505050565b60076020528160005260406000206020528060005260406000206000915091509054906101000a900460ff1681565b60096020528160005260406000206020528060005260406000206000915091509054906101000a900460ff1681565b611c5a846323b872dd60e01b858585604051602401611bf8939291906127a0565b604051602081830303815290604052907bffffffffffffffffffffffffffffffffffffffffffffffffffffffff19166020820180517bffffffffffffffffffffffffffffffffffffffffffffffffffffffff8381831617835250505050611f84565b50505050565b6000811480611cea575060008373ffffffffffffffffffffffffffffffffffffffff1663dd62ed3e30856040518363ffffffff1660e01b8152600401611ca79291906127d7565b602060405180830381865afa158015611cc4573d6000803e3d6000fd5b505050506040513d601f19601f82011682018060405250810190611ce89190612815565b145b611d29576040517f08c379a0000000000000000000000000000000000000000000000000000000008152600401611d20906128c5565b60405180910390fd5b611daa8363095ea7b360e01b8484604051602401611d489291906128e5565b604051602081830303815290604052907bffffffffffffffffffffffffffffffffffffffffffffffffffffffff19166020820180517bffffffffffffffffffffffffffffffffffffffffffffffffffffffff8381831617835250505050611f84565b505050565b6000600460008367ffffffffffffffff1667ffffffffffffffff16815260200190815260200160002060040160009054906101000a900473ffffffffffffffffffffffffffffffffffffffff169050919050565b6000600460008367ffffffffffffffff1667ffffffffffffffff16815260200190815260200160002060030160009054906101000a900473ffffffffffffffffffffffffffffffffffffffff169050919050565b600068056bc75e2d631000008210158015611e7a5750683635c9adc5dea0000082105b15611e9357606482611e8c919061276f565b9050611ef9565b683635c9adc5dea000008210158015611eb5575069021e19e0c9bab240000082105b15611ece5760c882611ec7919061276f565b9050611ef9565b69021e19e0c9bab24000008210611ef45761019082611eed919061276f565b9050611ef9565b600090505b919050565b611f7f8363a9059cbb60e01b8484604051602401611f1d9291906128e5565b604051602081830303815290604052907bffffffffffffffffffffffffffffffffffffffffffffffffffffffff19166020820180517bffffffffffffffffffffffffffffffffffffffffffffffffffffffff8381831617835250505050611f84565b505050565b6000611fe6826040518060400160405280602081526020017f5361666545524332303a206c6f772d6c6576656c2063616c6c206661696c65648152508573ffffffffffffffffffffffffffffffffffffffff1661204c9092919063ffffffff16565b9050600081511480612008575080806020019051810190612007919061293a565b5b612047576040517f08c379a000000000000000000000000000000000000000000000000000000000815260040161203e906129d9565b60405180910390fd5b505050565b606061205b8484600085612064565b90509392505050565b6060824710156120a9576040517f08c379a00000000000000000000000000000000000000000000000000000000081526004016120a090612a6b565b60405180910390fd5b6000808673ffffffffffffffffffffffffffffffffffffffff1685876040516120d29190612afc565b60006040518083038185875af1925050503d806000811461210f576040519150601f19603f3d011682016040523d82523d6000602084013e612114565b606091505b509150915061212587838387612131565b92505050949350505050565b6060831561219357600083510361218b5761214b856121a6565b61218a576040517f08c379a000000000000000000000000000000000000000000000000000000000815260040161218190612b5f565b60405180910390fd5b5b82905061219e565b61219d83836121c9565b5b949350505050565b6000808273ffffffffffffffffffffffffffffffffffffffff163b119050919050565b6000825111156121dc5781518083602001fd5b806040517f08c379a00000000000000000000000000000000000000000000000000000000081526004016122109190612bd4565b60405180910390fd5b600080fd5b600073ffffffffffffffffffffffffffffffffffffffff82169050919050565b60006122498261221e565b9050919050565b6122598161223e565b811461226457600080fd5b50565b60008135905061227681612250565b92915050565b60006fffffffffffffffffffffffffffffffff82169050919050565b6122a18161227c565b81146122ac57600080fd5b50565b6000813590506122be81612298565b92915050565b600080600080608085870312156122de576122dd612219565b5b60006122ec87828801612267565b94505060206122fd87828801612267565b935050604061230e878288016122af565b925050606061231f878288016122af565b91505092959194509250565b600067ffffffffffffffff82169050919050565b6123488161232b565b811461235357600080fd5b50565b6000813590506123658161233f565b92915050565b60006020828403121561238157612380612219565b5b600061238f84828501612356565b91505092915050565b6000819050919050565b6123ab81612398565b81146123b657600080fd5b50565b6000813590506123c8816123a2565b92915050565b600080604083850312156123e5576123e4612219565b5b60006123f385828601612267565b9250506020612404858286016123b9565b9150509250929050565b60008115159050919050565b6124238161240e565b82525050565b600060208201905061243e600083018461241a565b92915050565b600062ffffff82169050919050565b61245c81612444565b811461246757600080fd5b50565b60008135905061247981612453565b92915050565b60008060006060848603121561249857612497612219565b5b60006124a686828701612267565b93505060206124b786828701612267565b92505060406124c88682870161246a565b9150509250925092565b6124db8161223e565b82525050565b60006020820190506124f660008301846124d2565b92915050565b6000806040838503121561251357612512612219565b5b6000612521858286016122af565b9250506020612532858286016122af565b9150509250929050565b61254581612398565b82525050565b6000602082019050612560600083018461253c565b92915050565b6000806040838503121561257d5761257c612219565b5b600061258b85828601612356565b925050602061259c85828601612267565b9150509250929050565b7f4e487b7100000000000000000000000000000000000000000000000000000000600052601160045260246000fd5b60006125e08261227c565b91506125eb8361227c565b92508282026125f98161227c565b915080821461260b5761260a6125a6565b5b5092915050565b600061261d8261232b565b915067ffffffffffffffff8203612637576126366125a6565b5b600182019050919050565b600061264d82612398565b915061265883612398565b92508282039050818111156126705761266f6125a6565b5b92915050565b61267f81612444565b82525050565b600060608201905061269a60008301866124d2565b6126a760208301856124d2565b6126b46040830184612676565b949350505050565b6000815190506126cb81612250565b92915050565b6000602082840312156126e7576126e6612219565b5b60006126f5848285016126bc565b91505092915050565b600061270982612398565b915061271483612398565b925082820261272281612398565b91508282048414831517612739576127386125a6565b5b5092915050565b7f4e487b7100000000000000000000000000000000000000000000000000000000600052601260045260246000fd5b600061277a82612398565b915061278583612398565b92508261279557612794612740565b5b828204905092915050565b60006060820190506127b560008301866124d2565b6127c260208301856124d2565b6127cf604083018461253c565b949350505050565b60006040820190506127ec60008301856124d2565b6127f960208301846124d2565b9392505050565b60008151905061280f816123a2565b92915050565b60006020828403121561282b5761282a612219565b5b600061283984828501612800565b91505092915050565b600082825260208201905092915050565b7f5361666545524332303a20617070726f76652066726f6d206e6f6e2d7a65726f60008201527f20746f206e6f6e2d7a65726f20616c6c6f77616e636500000000000000000000602082015250565b60006128af603683612842565b91506128ba82612853565b604082019050919050565b600060208201905081810360008301526128de816128a2565b9050919050565b60006040820190506128fa60008301856124d2565b612907602083018461253c565b9392505050565b6129178161240e565b811461292257600080fd5b50565b6000815190506129348161290e565b92915050565b6000602082840312156129505761294f612219565b5b600061295e84828501612925565b91505092915050565b7f5361666545524332303a204552433230206f7065726174696f6e20646964206e60008201527f6f74207375636365656400000000000000000000000000000000000000000000602082015250565b60006129c3602a83612842565b91506129ce82612967565b604082019050919050565b600060208201905081810360008301526129f2816129b6565b9050919050565b7f416464726573733a20696e73756666696369656e742062616c616e636520666f60008201527f722063616c6c0000000000000000000000000000000000000000000000000000602082015250565b6000612a55602683612842565b9150612a60826129f9565b604082019050919050565b60006020820190508181036000830152612a8481612a48565b9050919050565b600081519050919050565b600081905092915050565b60005b83811015612abf578082015181840152602081019050612aa4565b60008484015250505050565b6000612ad682612a8b565b612ae08185612a96565b9350612af0818560208601612aa1565b80840191505092915050565b6000612b088284612acb565b915081905092915050565b7f416464726573733a2063616c6c20746f206e6f6e2d636f6e7472616374000000600082015250565b6000612b49601d83612842565b9150612b5482612b13565b602082019050919050565b60006020820190508181036000830152612b7881612b3c565b9050919050565b600081519050919050565b6000601f19601f8301169050919050565b6000612ba682612b7f565b612bb08185612842565b9350612bc0818560208601612aa1565b612bc981612b8a565b840191505092915050565b60006020820190508181036000830152612bee8184612b9b565b90509291505056fea26469706673582212205bee183ca04199921b2222961c958043d10d422c901cae9895ae3815e3cd613064736f6c63430008130033",
					"opcodes": "PUSH1 0x80 PUSH1 0x40 MSTORE PUSH20 0x1F98431C8AD98523631AE4A59F267346EA31F984 PUSH1 0x2 PUSH1 0x0 PUSH2 0x100 EXP DUP2 SLOAD DUP2 PUSH20 0xFFFFFFFFFFFFFFFFFFFFFFFFFFFFFFFFFFFFFFFF MUL NOT AND SWAP1 DUP4 PUSH20 0xFFFFFFFFFFFFFFFFFFFFFFFFFFFFFFFFFFFFFFFF AND MUL OR SWAP1 SSTORE POP PUSH20 0xC36442B4A4522E871399CD717ABDD847AB11FE88 PUSH1 0x3 PUSH1 0x0 PUSH2 0x100 EXP DUP2 SLOAD DUP2 PUSH20 0xFFFFFFFFFFFFFFFFFFFFFFFFFFFFFFFFFFFFFFFF MUL NOT AND SWAP1 DUP4 PUSH20 0xFFFFFFFFFFFFFFFFFFFFFFFFFFFFFFFFFFFFFFFF AND MUL OR SWAP1 SSTORE POP CALLVALUE DUP1 ISZERO PUSH3 0xBB JUMPI PUSH1 0x0 DUP1 REVERT JUMPDEST POP PUSH1 0x40 MLOAD PUSH3 0x2E78 CODESIZE SUB DUP1 PUSH3 0x2E78 DUP4 CODECOPY DUP2 DUP2 ADD PUSH1 0x40 MSTORE DUP2 ADD SWAP1 PUSH3 0xE1 SWAP2 SWAP1 PUSH3 0x1F5 JUMP JUMPDEST DUP2 PUSH1 0x1 PUSH1 0x0 PUSH2 0x100 EXP DUP2 SLOAD DUP2 PUSH20 0xFFFFFFFFFFFFFFFFFFFFFFFFFFFFFFFFFFFFFFFF MUL NOT AND SWAP1 DUP4 PUSH20 0xFFFFFFFFFFFFFFFFFFFFFFFFFFFFFFFFFFFFFFFF AND MUL OR SWAP1 SSTORE POP DUP1 PUSH1 0x0 DUP1 PUSH2 0x100 EXP DUP2 SLOAD DUP2 PUSH7 0xFFFFFFFFFFFFFF MUL NOT AND SWAP1 DUP4 PUSH7 0xFFFFFFFFFFFFFF AND MUL OR SWAP1 SSTORE POP POP POP PUSH3 0x23C JUMP JUMPDEST PUSH1 0x0 DUP1 REVERT JUMPDEST PUSH1 0x0 PUSH20 0xFFFFFFFFFFFFFFFFFFFFFFFFFFFFFFFFFFFFFFFF DUP3 AND SWAP1 POP SWAP2 SWAP1 POP JUMP JUMPDEST PUSH1 0x0 PUSH3 0x182 DUP3 PUSH3 0x155 JUMP JUMPDEST SWAP1 POP SWAP2 SWAP1 POP JUMP JUMPDEST PUSH3 0x194 DUP2 PUSH3 0x175 JUMP JUMPDEST DUP2 EQ PUSH3 0x1A0 JUMPI PUSH1 0x0 DUP1 REVERT JUMPDEST POP JUMP JUMPDEST PUSH1 0x0 DUP2 MLOAD SWAP1 POP PUSH3 0x1B4 DUP2 PUSH3 0x189 JUMP JUMPDEST SWAP3 SWAP2 POP POP JUMP JUMPDEST PUSH1 0x0 DUP2 SWAP1 POP SWAP2 SWAP1 POP JUMP JUMPDEST PUSH3 0x1CF DUP2 PUSH3 0x1BA JUMP JUMPDEST DUP2 EQ PUSH3 0x1DB JUMPI PUSH1 0x0 DUP1 REVERT JUMPDEST POP JUMP JUMPDEST PUSH1 0x0 DUP2 MLOAD SWAP1 POP PUSH3 0x1EF DUP2 PUSH3 0x1C4 JUMP JUMPDEST SWAP3 SWAP2 POP POP JUMP JUMPDEST PUSH1 0x0 DUP1 PUSH1 0x40 DUP4 DUP6 SUB SLT ISZERO PUSH3 0x20F JUMPI PUSH3 0x20E PUSH3 0x150 JUMP JUMPDEST JUMPDEST PUSH1 0x0 PUSH3 0x21F DUP6 DUP3 DUP7 ADD PUSH3 0x1A3 JUMP JUMPDEST SWAP3 POP POP PUSH1 0x20 PUSH3 0x232 DUP6 DUP3 DUP7 ADD PUSH3 0x1DE JUMP JUMPDEST SWAP2 POP POP SWAP3 POP SWAP3 SWAP1 POP JUMP JUMPDEST PUSH2 0x2C2C DUP1 PUSH3 0x24C PUSH1 0x0 CODECOPY PUSH1 0x0 RETURN INVALID PUSH1 0x80 PUSH1 0x40 MSTORE CALLVALUE DUP1 ISZERO PUSH2 0x10 JUMPI PUSH1 0x0 DUP1 REVERT JUMPDEST POP PUSH1 0x4 CALLDATASIZE LT PUSH2 0xCF JUMPI PUSH1 0x0 CALLDATALOAD PUSH1 0xE0 SHR DUP1 PUSH4 0x98C50FDD GT PUSH2 0x8C JUMPI DUP1 PUSH4 0xC3CF1AA6 GT PUSH2 0x66 JUMPI DUP1 PUSH4 0xC3CF1AA6 EQ PUSH2 0x220 JUMPI DUP1 PUSH4 0xD91AF492 EQ PUSH2 0x23C JUMPI DUP1 PUSH4 0xDF0905C6 EQ PUSH2 0x258 JUMPI DUP1 PUSH4 0xFC993EA8 EQ PUSH2 0x288 JUMPI PUSH2 0xCF JUMP JUMPDEST DUP1 PUSH4 0x98C50FDD EQ PUSH2 0x1A4 JUMPI DUP1 PUSH4 0xB8D7F980 EQ PUSH2 0x1D4 JUMPI DUP1 PUSH4 0xC0102DE4 EQ PUSH2 0x204 JUMPI PUSH2 0xCF JUMP JUMPDEST DUP1 PUSH4 0xD45431D EQ PUSH2 0xD4 JUMPI DUP1 PUSH4 0x25AC3A73 EQ PUSH2 0xF0 JUMPI DUP1 PUSH4 0x2895CB7B EQ PUSH2 0x10C JUMPI DUP1 PUSH4 0x59DE2F60 EQ PUSH2 0x128 JUMPI DUP1 PUSH4 0x696D6283 EQ PUSH2 0x158 JUMPI DUP1 PUSH4 0x77BCD8A6 EQ PUSH2 0x188 JUMPI JUMPDEST PUSH1 0x0 DUP1 REVERT JUMPDEST PUSH2 0xEE PUSH1 0x4 DUP1 CALLDATASIZE SUB DUP2 ADD SWAP1 PUSH2 0xE9 SWAP2 SWAP1 PUSH2 0x22C4 JUMP JUMPDEST PUSH2 0x2B8 JUMP JUMPDEST STOP JUMPDEST PUSH2 0x10A PUSH1 0x4 DUP1 CALLDATASIZE SUB DUP2 ADD SWAP1 PUSH2 0x105 SWAP2 SWAP1 PUSH2 0x236B JUMP JUMPDEST PUSH2 0x6EA JUMP JUMPDEST STOP JUMPDEST PUSH2 0x126 PUSH1 0x4 DUP1 CALLDATASIZE SUB DUP2 ADD SWAP1 PUSH2 0x121 SWAP2 SWAP1 PUSH2 0x236B JUMP JUMPDEST PUSH2 0x967 JUMP JUMPDEST STOP JUMPDEST PUSH2 0x142 PUSH1 0x4 DUP1 CALLDATASIZE SUB DUP2 ADD SWAP1 PUSH2 0x13D SWAP2 SWAP1 PUSH2 0x23CE JUMP JUMPDEST PUSH2 0xF07 JUMP JUMPDEST PUSH1 0x40 MLOAD PUSH2 0x14F SWAP2 SWAP1 PUSH2 0x2429 JUMP JUMPDEST PUSH1 0x40 MLOAD DUP1 SWAP2 SUB SWAP1 RETURN JUMPDEST PUSH2 0x172 PUSH1 0x4 DUP1 CALLDATASIZE SUB DUP2 ADD SWAP1 PUSH2 0x16D SWAP2 SWAP1 PUSH2 0x247F JUMP JUMPDEST PUSH2 0xF36 JUMP JUMPDEST PUSH1 0x40 MLOAD PUSH2 0x17F SWAP2 SWAP1 PUSH2 0x24E1 JUMP JUMPDEST PUSH1 0x40 MLOAD DUP1 SWAP2 SUB SWAP1 RETURN JUMPDEST PUSH2 0x1A2 PUSH1 0x4 DUP1 CALLDATASIZE SUB DUP2 ADD SWAP1 PUSH2 0x19D SWAP2 SWAP1 PUSH2 0x236B JUMP JUMPDEST PUSH2 0xFE1 JUMP JUMPDEST STOP JUMPDEST PUSH2 0x1BE PUSH1 0x4 DUP1 CALLDATASIZE SUB DUP2 ADD SWAP1 PUSH2 0x1B9 SWAP2 SWAP1 PUSH2 0x24FC JUMP JUMPDEST PUSH2 0x13BA JUMP JUMPDEST PUSH1 0x40 MLOAD PUSH2 0x1CB SWAP2 SWAP1 PUSH2 0x254B JUMP JUMPDEST PUSH1 0x40 MLOAD DUP1 SWAP2 SUB SWAP1 RETURN JUMPDEST PUSH2 0x1EE PUSH1 0x4 DUP1 CALLDATASIZE SUB DUP2 ADD SWAP1 PUSH2 0x1E9 SWAP2 SWAP1 PUSH2 0x23CE JUMP JUMPDEST PUSH2 0x14D7 JUMP JUMPDEST PUSH1 0x40 MLOAD PUSH2 0x1FB SWAP2 SWAP1 PUSH2 0x2429 JUMP JUMPDEST PUSH1 0x40 MLOAD DUP1 SWAP2 SUB SWAP1 RETURN JUMPDEST PUSH2 0x21E PUSH1 0x4 DUP1 CALLDATASIZE SUB DUP2 ADD SWAP1 PUSH2 0x219 SWAP2 SWAP1 PUSH2 0x236B JUMP JUMPDEST PUSH2 0x1506 JUMP JUMPDEST STOP JUMPDEST PUSH2 0x23A PUSH1 0x4 DUP1 CALLDATASIZE SUB DUP2 ADD SWAP1 PUSH2 0x235 SWAP2 SWAP1 PUSH2 0x236B JUMP JUMPDEST PUSH2 0x17AD JUMP JUMPDEST STOP JUMPDEST PUSH2 0x256 PUSH1 0x4 DUP1 CALLDATASIZE SUB DUP2 ADD SWAP1 PUSH2 0x251 SWAP2 SWAP1 PUSH2 0x2566 JUMP JUMPDEST PUSH2 0x17B0 JUMP JUMPDEST STOP JUMPDEST PUSH2 0x272 PUSH1 0x4 DUP1 CALLDATASIZE SUB DUP2 ADD SWAP1 PUSH2 0x26D SWAP2 SWAP1 PUSH2 0x23CE JUMP JUMPDEST PUSH2 0x1B79 JUMP JUMPDEST PUSH1 0x40 MLOAD PUSH2 0x27F SWAP2 SWAP1 PUSH2 0x2429 JUMP JUMPDEST PUSH1 0x40 MLOAD DUP1 SWAP2 SUB SWAP1 RETURN JUMPDEST PUSH2 0x2A2 PUSH1 0x4 DUP1 CALLDATASIZE SUB DUP2 ADD SWAP1 PUSH2 0x29D SWAP2 SWAP1 PUSH2 0x23CE JUMP JUMPDEST PUSH2 0x1BA8 JUMP JUMPDEST PUSH1 0x40 MLOAD PUSH2 0x2AF SWAP2 SWAP1 PUSH2 0x2429 JUMP JUMPDEST PUSH1 0x40 MLOAD DUP1 SWAP2 SUB SWAP1 RETURN JUMPDEST PUSH1 0x0 DUP2 DUP4 PUSH2 0x2C6 SWAP2 SWAP1 PUSH2 0x25D5 JUMP JUMPDEST PUSH16 0xFFFFFFFFFFFFFFFFFFFFFFFFFFFFFFFF AND SWAP1 POP PUSH1 0x0 PUSH2 0x2E9 DUP7 DUP7 PUSH2 0x3E8 PUSH2 0xF36 JUMP JUMPDEST SWAP1 POP PUSH9 0x56BC75E2D63100000 DUP3 LT ISZERO PUSH2 0x32E JUMPI PUSH1 0x40 MLOAD PUSH32 0xE008B5F900000000000000000000000000000000000000000000000000000000 DUP2 MSTORE PUSH1 0x4 ADD PUSH1 0x40 MLOAD DUP1 SWAP2 SUB SWAP1 REVERT JUMPDEST PUSH1 0x0 PUSH1 0x40 MLOAD DUP1 PUSH2 0x100 ADD PUSH1 0x40 MSTORE DUP1 PUSH1 0x1 PUSH1 0xFF AND DUP2 MSTORE PUSH1 0x20 ADD PUSH1 0x0 PUSH1 0x7 SWAP1 SLOAD SWAP1 PUSH2 0x100 EXP SWAP1 DIV PUSH8 0xFFFFFFFFFFFFFFFF AND PUSH8 0xFFFFFFFFFFFFFFFF AND DUP2 MSTORE PUSH1 0x20 ADD TIMESTAMP PUSH7 0xFFFFFFFFFFFFFF AND DUP2 MSTORE PUSH1 0x20 ADD DUP7 PUSH16 0xFFFFFFFFFFFFFFFFFFFFFFFFFFFFFFFF AND DUP2 MSTORE PUSH1 0x20 ADD DUP6 PUSH16 0xFFFFFFFFFFFFFFFFFFFFFFFFFFFFFFFF AND DUP2 MSTORE PUSH1 0x20 ADD DUP9 PUSH20 0xFFFFFFFFFFFFFFFFFFFFFFFFFFFFFFFFFFFFFFFF AND DUP2 MSTORE PUSH1 0x20 ADD CALLER PUSH20 0xFFFFFFFFFFFFFFFFFFFFFFFFFFFFFFFFFFFFFFFF AND DUP2 MSTORE PUSH1 0x20 ADD ADDRESS PUSH20 0xFFFFFFFFFFFFFFFFFFFFFFFFFFFFFFFFFFFFFFFF AND DUP2 MSTORE POP SWAP1 POP DUP1 PUSH1 0x4 PUSH1 0x0 DUP1 PUSH1 0x7 SWAP1 SLOAD SWAP1 PUSH2 0x100 EXP SWAP1 DIV PUSH8 0xFFFFFFFFFFFFFFFF AND PUSH8 0xFFFFFFFFFFFFFFFF AND PUSH8 0xFFFFFFFFFFFFFFFF AND DUP2 MSTORE PUSH1 0x20 ADD SWAP1 DUP2 MSTORE PUSH1 0x20 ADD PUSH1 0x0 KECCAK256 PUSH1 0x0 DUP3 ADD MLOAD DUP2 PUSH1 0x0 ADD PUSH1 0x0 PUSH2 0x100 EXP DUP2 SLOAD DUP2 PUSH1 0xFF MUL NOT AND SWAP1 DUP4 PUSH1 0xFF AND MUL OR SWAP1 SSTORE POP PUSH1 0x20 DUP3 ADD MLOAD DUP2 PUSH1 0x0 ADD PUSH1 0x1 PUSH2 0x100 EXP DUP2 SLOAD DUP2 PUSH8 0xFFFFFFFFFFFFFFFF MUL NOT AND SWAP1 DUP4 PUSH8 0xFFFFFFFFFFFFFFFF AND MUL OR SWAP1 SSTORE POP PUSH1 0x40 DUP3 ADD MLOAD DUP2 PUSH1 0x0 ADD PUSH1 0x9 PUSH2 0x100 EXP DUP2 SLOAD DUP2 PUSH7 0xFFFFFFFFFFFFFF MUL NOT AND SWAP1 DUP4 PUSH7 0xFFFFFFFFFFFFFF AND MUL OR SWAP1 SSTORE POP PUSH1 0x60 DUP3 ADD MLOAD DUP2 PUSH1 0x0 ADD PUSH1 0x10 PUSH2 0x100 EXP DUP2 SLOAD DUP2 PUSH16 0xFFFFFFFFFFFFFFFFFFFFFFFFFFFFFFFF MUL NOT AND SWAP1 DUP4 PUSH16 0xFFFFFFFFFFFFFFFFFFFFFFFFFFFFFFFF AND MUL OR SWAP1 SSTORE POP PUSH1 0x80 DUP3 ADD MLOAD DUP2 PUSH1 0x1 ADD PUSH1 0x0 PUSH2 0x100 EXP DUP2 SLOAD DUP2 PUSH16 0xFFFFFFFFFFFFFFFFFFFFFFFFFFFFFFFF MUL NOT AND SWAP1 DUP4 PUSH16 0xFFFFFFFFFFFFFFFFFFFFFFFFFFFFFFFF AND MUL OR SWAP1 SSTORE POP PUSH1 0xA0 DUP3 ADD MLOAD DUP2 PUSH1 0x2 ADD PUSH1 0x0 PUSH2 0x100 EXP DUP2 SLOAD DUP2 PUSH20 0xFFFFFFFFFFFFFFFFFFFFFFFFFFFFFFFFFFFFFFFF MUL NOT AND SWAP1 DUP4 PUSH20 0xFFFFFFFFFFFFFFFFFFFFFFFFFFFFFFFFFFFFFFFF AND MUL OR SWAP1 SSTORE POP PUSH1 0xC0 DUP3 ADD MLOAD DUP2 PUSH1 0x3 ADD PUSH1 0x0 PUSH2 0x100 EXP DUP2 SLOAD DUP2 PUSH20 0xFFFFFFFFFFFFFFFFFFFFFFFFFFFFFFFFFFFFFFFF MUL NOT AND SWAP1 DUP4 PUSH20 0xFFFFFFFFFFFFFFFFFFFFFFFFFFFFFFFFFFFFFFFF AND MUL OR SWAP1 SSTORE POP PUSH1 0xE0 DUP3 ADD MLOAD DUP2 PUSH1 0x4 ADD PUSH1 0x0 PUSH2 0x100 EXP DUP2 SLOAD DUP2 PUSH20 0xFFFFFFFFFFFFFFFFFFFFFFFFFFFFFFFFFFFFFFFF MUL NOT AND SWAP1 DUP4 PUSH20 0xFFFFFFFFFFFFFFFFFFFFFFFFFFFFFFFFFFFFFFFF AND MUL OR SWAP1 SSTORE POP SWAP1 POP POP PUSH2 0x63C CALLER ADDRESS DUP6 DUP11 PUSH20 0xFFFFFFFFFFFFFFFFFFFFFFFFFFFFFFFFFFFFFFFF AND PUSH2 0x1BD7 SWAP1 SWAP4 SWAP3 SWAP2 SWAP1 PUSH4 0xFFFFFFFF AND JUMP JUMPDEST PUSH2 0x667 DUP3 DUP5 DUP10 PUSH20 0xFFFFFFFFFFFFFFFFFFFFFFFFFFFFFFFFFFFFFFFF AND PUSH2 0x1C60 SWAP1 SWAP3 SWAP2 SWAP1 PUSH4 0xFFFFFFFF AND JUMP JUMPDEST PUSH2 0x694 ADDRESS DUP4 DUP6 DUP11 PUSH20 0xFFFFFFFFFFFFFFFFFFFFFFFFFFFFFFFFFFFFFFFF AND PUSH2 0x1BD7 SWAP1 SWAP4 SWAP3 SWAP2 SWAP1 PUSH4 0xFFFFFFFF AND JUMP JUMPDEST PUSH1 0x0 PUSH1 0x7 DUP2 DUP2 SWAP1 SLOAD SWAP1 PUSH2 0x100 EXP SWAP1 DIV PUSH8 0xFFFFFFFFFFFFFFFF AND DUP1 SWAP3 SWAP2 SWAP1 PUSH2 0x6BA SWAP1 PUSH2 0x2612 JUMP JUMPDEST SWAP2 SWAP1 PUSH2 0x100 EXP DUP2 SLOAD DUP2 PUSH8 0xFFFFFFFFFFFFFFFF MUL NOT AND SWAP1 DUP4 PUSH8 0xFFFFFFFFFFFFFFFF AND MUL OR SWAP1 SSTORE POP POP POP POP POP POP POP POP POP JUMP JUMPDEST PUSH1 0x0 PUSH1 0x5 PUSH1 0x0 CALLER PUSH20 0xFFFFFFFFFFFFFFFFFFFFFFFFFFFFFFFFFFFFFFFF AND PUSH20 0xFFFFFFFFFFFFFFFFFFFFFFFFFFFFFFFFFFFFFFFF AND DUP2 MSTORE PUSH1 0x20 ADD SWAP1 DUP2 MSTORE PUSH1 0x20 ADD PUSH1 0x0 KECCAK256 PUSH1 0x0 DUP4 PUSH8 0xFFFFFFFFFFFFFFFF AND DUP2 MSTORE PUSH1 0x20 ADD SWAP1 DUP2 MSTORE PUSH1 0x20 ADD PUSH1 0x0 KECCAK256 PUSH1 0x0 PUSH2 0x100 EXP DUP2 SLOAD DUP2 PUSH1 0xFF MUL NOT AND SWAP1 DUP4 ISZERO ISZERO MUL OR SWAP1 SSTORE ISZERO PUSH2 0x793 JUMPI PUSH1 0x40 MLOAD PUSH32 0x4232716900000000000000000000000000000000000000000000000000000000 DUP2 MSTORE PUSH1 0x4 ADD PUSH1 0x40 MLOAD DUP1 SWAP2 SUB SWAP1 REVERT JUMPDEST CALLER PUSH20 0xFFFFFFFFFFFFFFFFFFFFFFFFFFFFFFFFFFFFFFFF AND PUSH2 0x7B3 DUP3 PUSH2 0x1DAF JUMP JUMPDEST PUSH20 0xFFFFFFFFFFFFFFFFFFFFFFFFFFFFFFFFFFFFFFFF AND EQ PUSH2 0x800 JUMPI PUSH1 0x40 MLOAD PUSH32 0xD7C498BF00000000000000000000000000000000000000000000000000000000 DUP2 MSTORE PUSH1 0x4 ADD PUSH1 0x40 MLOAD DUP1 SWAP2 SUB SWAP1 REVERT JUMPDEST PUSH1 0x0 PUSH1 0x4 PUSH1 0x0 DUP4 PUSH8 0xFFFFFFFFFFFFFFFF AND PUSH8 0xFFFFFFFFFFFFFFFF AND DUP2 MSTORE PUSH1 0x20 ADD SWAP1 DUP2 MSTORE PUSH1 0x20 ADD PUSH1 0x0 KECCAK256 PUSH1 0x0 ADD PUSH1 0x10 SWAP1 SLOAD SWAP1 PUSH2 0x100 EXP SWAP1 DIV PUSH16 0xFFFFFFFFFFFFFFFFFFFFFFFFFFFFFFFF AND PUSH16 0xFFFFFFFFFFFFFFFFFFFFFFFFFFFFFFFF AND SWAP1 POP PUSH2 0x8AC CALLER ADDRESS DUP4 PUSH1 0x1 PUSH1 0x0 SWAP1 SLOAD SWAP1 PUSH2 0x100 EXP SWAP1 DIV PUSH20 0xFFFFFFFFFFFFFFFFFFFFFFFFFFFFFFFFFFFFFFFF AND PUSH20 0xFFFFFFFFFFFFFFFFFFFFFFFFFFFFFFFFFFFFFFFF AND PUSH2 0x1BD7 SWAP1 SWAP4 SWAP3 SWAP2 SWAP1 PUSH4 0xFFFFFFFF AND JUMP JUMPDEST PUSH1 0x1 PUSH1 0x5 PUSH1 0x0 CALLER PUSH20 0xFFFFFFFFFFFFFFFFFFFFFFFFFFFFFFFFFFFFFFFF AND PUSH20 0xFFFFFFFFFFFFFFFFFFFFFFFFFFFFFFFFFFFFFFFF AND DUP2 MSTORE PUSH1 0x20 ADD SWAP1 DUP2 MSTORE PUSH1 0x20 ADD PUSH1 0x0 KECCAK256 PUSH1 0x0 DUP5 PUSH8 0xFFFFFFFFFFFFFFFF AND DUP2 MSTORE PUSH1 0x20 ADD SWAP1 DUP2 MSTORE PUSH1 0x20 ADD PUSH1 0x0 KECCAK256 PUSH1 0x0 PUSH2 0x100 EXP DUP2 SLOAD DUP2 PUSH1 0xFF MUL NOT AND SWAP1 DUP4 ISZERO ISZERO MUL OR SWAP1 SSTORE POP PUSH1 0x3 PUSH1 0x4 PUSH1 0x0 DUP5 PUSH8 0xFFFFFFFFFFFFFFFF AND PUSH8 0xFFFFFFFFFFFFFFFF AND DUP2 MSTORE PUSH1 0x20 ADD SWAP1 DUP2 MSTORE PUSH1 0x20 ADD PUSH1 0x0 KECCAK256 PUSH1 0x0 ADD PUSH1 0x0 PUSH2 0x100 EXP DUP2 SLOAD DUP2 PUSH1 0xFF MUL NOT AND SWAP1 DUP4 PUSH1 0xFF AND MUL OR SWAP1 SSTORE POP POP POP JUMP JUMPDEST PUSH1 0x0 PUSH2 0x972 DUP3 PUSH2 0x1E03 JUMP JUMPDEST SWAP1 POP PUSH1 0x0 PUSH2 0x97F DUP4 PUSH2 0x1DAF JUMP JUMPDEST SWAP1 POP DUP2 PUSH20 0xFFFFFFFFFFFFFFFFFFFFFFFFFFFFFFFFFFFFFFFF AND CALLER PUSH20 0xFFFFFFFFFFFFFFFFFFFFFFFFFFFFFFFFFFFFFFFF AND EQ PUSH2 0x9B9 JUMPI PUSH1 0x0 DUP1 REVERT JUMPDEST PUSH1 0x0 ISZERO ISZERO PUSH1 0x5 PUSH1 0x0 DUP4 PUSH20 0xFFFFFFFFFFFFFFFFFFFFFFFFFFFFFFFFFFFFFFFF AND PUSH20 0xFFFFFFFFFFFFFFFFFFFFFFFFFFFFFFFFFFFFFFFF AND DUP2 MSTORE PUSH1 0x20 ADD SWAP1 DUP2 MSTORE PUSH1 0x20 ADD PUSH1 0x0 KECCAK256 PUSH1 0x0 DUP6 PUSH8 0xFFFFFFFFFFFFFFFF AND DUP2 MSTORE PUSH1 0x20 ADD SWAP1 DUP2 MSTORE PUSH1 0x20 ADD PUSH1 0x0 KECCAK256 PUSH1 0x0 SWAP1 SLOAD SWAP1 PUSH2 0x100 EXP SWAP1 DIV PUSH1 0xFF AND ISZERO ISZERO EQ PUSH2 0xA31 JUMPI PUSH1 0x0 DUP1 REVERT JUMPDEST PUSH1 0x0 ISZERO ISZERO PUSH1 0x8 PUSH1 0x0 CALLER PUSH20 0xFFFFFFFFFFFFFFFFFFFFFFFFFFFFFFFFFFFFFFFF AND PUSH20 0xFFFFFFFFFFFFFFFFFFFFFFFFFFFFFFFFFFFFFFFF AND DUP2 MSTORE PUSH1 0x20 ADD SWAP1 DUP2 MSTORE PUSH1 0x20 ADD PUSH1 0x0 KECCAK256 PUSH1 0x0 DUP6 PUSH8 0xFFFFFFFFFFFFFFFF AND DUP2 MSTORE PUSH1 0x20 ADD SWAP1 DUP2 MSTORE PUSH1 0x20 ADD PUSH1 0x0 KECCAK256 PUSH1 0x0 SWAP1 SLOAD SWAP1 PUSH2 0x100 EXP SWAP1 DIV PUSH1 0xFF AND ISZERO ISZERO EQ PUSH2 0xAA9 JUMPI PUSH1 0x0 DUP1 REVERT JUMPDEST DUP2 PUSH20 0xFFFFFFFFFFFFFFFFFFFFFFFFFFFFFFFFFFFFFFFF AND CALLER PUSH20 0xFFFFFFFFFFFFFFFFFFFFFFFFFFFFFFFFFFFFFFFF AND EQ PUSH2 0xAE1 JUMPI PUSH1 0x0 DUP1 REVERT JUMPDEST PUSH1 0x0 PUSH1 0x4 PUSH1 0x0 DUP6 PUSH8 0xFFFFFFFFFFFFFFFF AND PUSH8 0xFFFFFFFFFFFFFFFF AND DUP2 MSTORE PUSH1 0x20 ADD SWAP1 DUP2 MSTORE PUSH1 0x20 ADD PUSH1 0x0 KECCAK256 PUSH1 0x2 ADD PUSH1 0x0 SWAP1 SLOAD SWAP1 PUSH2 0x100 EXP SWAP1 DIV PUSH20 0xFFFFFFFFFFFFFFFFFFFFFFFFFFFFFFFFFFFFFFFF AND SWAP1 POP PUSH1 0x0 PUSH2 0xBC8 PUSH1 0x4 PUSH1 0x0 DUP8 PUSH8 0xFFFFFFFFFFFFFFFF AND PUSH8 0xFFFFFFFFFFFFFFFF AND DUP2 MSTORE PUSH1 0x20 ADD SWAP1 DUP2 MSTORE PUSH1 0x20 ADD PUSH1 0x0 KECCAK256 PUSH1 0x1 ADD PUSH1 0x0 SWAP1 SLOAD SWAP1 PUSH2 0x100 EXP SWAP1 DIV PUSH16 0xFFFFFFFFFFFFFFFFFFFFFFFFFFFFFFFF AND PUSH1 0x4 PUSH1 0x0 DUP9 PUSH8 0xFFFFFFFFFFFFFFFF AND PUSH8 0xFFFFFFFFFFFFFFFF AND DUP2 MSTORE PUSH1 0x20 ADD SWAP1 DUP2 MSTORE PUSH1 0x20 ADD PUSH1 0x0 KECCAK256 PUSH1 0x0 ADD PUSH1 0x10 SWAP1 SLOAD SWAP1 PUSH2 0x100 EXP SWAP1 DIV PUSH16 0xFFFFFFFFFFFFFFFFFFFFFFFFFFFFFFFF AND PUSH2 0x13BA JUMP JUMPDEST SWAP1 POP PUSH1 0x0 PUSH2 0xBD5 DUP3 PUSH2 0x1E57 JUMP JUMPDEST SWAP1 POP PUSH2 0xC02 ADDRESS DUP3 DUP6 PUSH20 0xFFFFFFFFFFFFFFFFFFFFFFFFFFFFFFFFFFFFFFFF AND PUSH2 0x1EFE SWAP1 SWAP3 SWAP2 SWAP1 PUSH4 0xFFFFFFFF AND JUMP JUMPDEST PUSH2 0xC38 DUP6 DUP3 DUP5 PUSH2 0xC12 SWAP2 SWAP1 PUSH2 0x2642 JUMP JUMPDEST DUP6 PUSH20 0xFFFFFFFFFFFFFFFFFFFFFFFFFFFFFFFFFFFFFFFF AND PUSH2 0x1EFE SWAP1 SWAP3 SWAP2 SWAP1 PUSH4 0xFFFFFFFF AND JUMP JUMPDEST PUSH1 0x1 PUSH1 0x8 PUSH1 0x0 CALLER PUSH20 0xFFFFFFFFFFFFFFFFFFFFFFFFFFFFFFFFFFFFFFFF AND PUSH20 0xFFFFFFFFFFFFFFFFFFFFFFFFFFFFFFFFFFFFFFFF AND DUP2 MSTORE PUSH1 0x20 ADD SWAP1 DUP2 MSTORE PUSH1 0x20 ADD PUSH1 0x0 KECCAK256 PUSH1 0x0 DUP9 PUSH8 0xFFFFFFFFFFFFFFFF AND DUP2 MSTORE PUSH1 0x20 ADD SWAP1 DUP2 MSTORE PUSH1 0x20 ADD PUSH1 0x0 KECCAK256 PUSH1 0x0 PUSH2 0x100 EXP DUP2 SLOAD DUP2 PUSH1 0xFF MUL NOT AND SWAP1 DUP4 ISZERO ISZERO MUL OR SWAP1 SSTORE POP PUSH1 0x1 PUSH1 0x4 PUSH1 0x0 DUP9 PUSH8 0xFFFFFFFFFFFFFFFF AND PUSH8 0xFFFFFFFFFFFFFFFF AND DUP2 MSTORE PUSH1 0x20 ADD SWAP1 DUP2 MSTORE PUSH1 0x20 ADD PUSH1 0x0 KECCAK256 PUSH1 0x0 ADD PUSH1 0x0 SWAP1 SLOAD SWAP1 PUSH2 0x100 EXP SWAP1 DIV PUSH1 0xFF AND PUSH1 0xFF AND SUB PUSH2 0xEBB JUMPI PUSH1 0x0 ISZERO ISZERO PUSH1 0x9 PUSH1 0x0 CALLER PUSH20 0xFFFFFFFFFFFFFFFFFFFFFFFFFFFFFFFFFFFFFFFF AND PUSH20 0xFFFFFFFFFFFFFFFFFFFFFFFFFFFFFFFFFFFFFFFF AND DUP2 MSTORE PUSH1 0x20 ADD SWAP1 DUP2 MSTORE PUSH1 0x20 ADD PUSH1 0x0 KECCAK256 PUSH1 0x0 DUP9 PUSH8 0xFFFFFFFFFFFFFFFF AND DUP2 MSTORE PUSH1 0x20 ADD SWAP1 DUP2 MSTORE PUSH1 0x20 ADD PUSH1 0x0 KECCAK256 PUSH1 0x0 SWAP1 SLOAD SWAP1 PUSH2 0x100 EXP SWAP1 DIV PUSH1 0xFF AND ISZERO ISZERO EQ PUSH2 0xD65 JUMPI PUSH1 0x0 DUP1 REVERT JUMPDEST PUSH1 0x0 PUSH1 0x4 PUSH1 0x0 DUP9 PUSH8 0xFFFFFFFFFFFFFFFF AND PUSH8 0xFFFFFFFFFFFFFFFF AND DUP2 MSTORE PUSH1 0x20 ADD SWAP1 DUP2 MSTORE PUSH1 0x20 ADD PUSH1 0x0 KECCAK256 PUSH1 0x0 ADD PUSH1 0x10 SWAP1 SLOAD SWAP1 PUSH2 0x100 EXP SWAP1 DIV PUSH16 0xFFFFFFFFFFFFFFFFFFFFFFFFFFFFFFFF AND PUSH1 0x4 PUSH1 0x0 DUP10 PUSH8 0xFFFFFFFFFFFFFFFF AND PUSH8 0xFFFFFFFFFFFFFFFF AND DUP2 MSTORE PUSH1 0x20 ADD SWAP1 DUP2 MSTORE PUSH1 0x20 ADD PUSH1 0x0 KECCAK256 PUSH1 0x1 ADD PUSH1 0x0 SWAP1 SLOAD SWAP1 PUSH2 0x100 EXP SWAP1 DIV PUSH16 0xFFFFFFFFFFFFFFFFFFFFFFFFFFFFFFFF AND PUSH2 0xDFF SWAP2 SWAP1 PUSH2 0x25D5 JUMP JUMPDEST PUSH16 0xFFFFFFFFFFFFFFFFFFFFFFFFFFFFFFFF AND SWAP1 POP PUSH2 0xE46 PUSH2 0xE1F DUP9 PUSH2 0x1E03 JUMP JUMPDEST DUP3 DUP7 PUSH20 0xFFFFFFFFFFFFFFFFFFFFFFFFFFFFFFFFFFFFFFFF AND PUSH2 0x1EFE SWAP1 SWAP3 SWAP2 SWAP1 PUSH4 0xFFFFFFFF AND JUMP JUMPDEST PUSH1 0x1 PUSH1 0x9 PUSH1 0x0 CALLER PUSH20 0xFFFFFFFFFFFFFFFFFFFFFFFFFFFFFFFFFFFFFFFF AND PUSH20 0xFFFFFFFFFFFFFFFFFFFFFFFFFFFFFFFFFFFFFFFF AND DUP2 MSTORE PUSH1 0x20 ADD SWAP1 DUP2 MSTORE PUSH1 0x20 ADD PUSH1 0x0 KECCAK256 PUSH1 0x0 DUP10 PUSH8 0xFFFFFFFFFFFFFFFF AND DUP2 MSTORE PUSH1 0x20 ADD SWAP1 DUP2 MSTORE PUSH1 0x20 ADD PUSH1 0x0 KECCAK256 PUSH1 0x0 PUSH2 0x100 EXP DUP2 SLOAD DUP2 PUSH1 0xFF MUL NOT AND SWAP1 DUP4 ISZERO ISZERO MUL OR SWAP1 SSTORE POP POP JUMPDEST PUSH1 0x5 PUSH1 0x4 PUSH1 0x0 DUP9 PUSH8 0xFFFFFFFFFFFFFFFF AND PUSH8 0xFFFFFFFFFFFFFFFF AND DUP2 MSTORE PUSH1 0x20 ADD SWAP1 DUP2 MSTORE PUSH1 0x20 ADD PUSH1 0x0 KECCAK256 PUSH1 0x0 ADD PUSH1 0x0 PUSH2 0x100 EXP DUP2 SLOAD DUP2 PUSH1 0xFF MUL NOT AND SWAP1 DUP4 PUSH1 0xFF AND MUL OR SWAP1 SSTORE POP POP POP POP POP POP POP JUMP JUMPDEST PUSH1 0x6 PUSH1 0x20 MSTORE DUP2 PUSH1 0x0 MSTORE PUSH1 0x40 PUSH1 0x0 KECCAK256 PUSH1 0x20 MSTORE DUP1 PUSH1 0x0 MSTORE PUSH1 0x40 PUSH1 0x0 KECCAK256 PUSH1 0x0 SWAP2 POP SWAP2 POP SWAP1 SLOAD SWAP1 PUSH2 0x100 EXP SWAP1 DIV PUSH1 0xFF AND DUP2 JUMP JUMPDEST PUSH1 0x0 PUSH1 0x2 PUSH1 0x0 SWAP1 SLOAD SWAP1 PUSH2 0x100 EXP SWAP1 DIV PUSH20 0xFFFFFFFFFFFFFFFFFFFFFFFFFFFFFFFFFFFFFFFF AND PUSH20 0xFFFFFFFFFFFFFFFFFFFFFFFFFFFFFFFFFFFFFFFF AND PUSH4 0x1698EE82 DUP6 DUP6 DUP6 PUSH1 0x40 MLOAD DUP5 PUSH4 0xFFFFFFFF AND PUSH1 0xE0 SHL DUP2 MSTORE PUSH1 0x4 ADD PUSH2 0xF97 SWAP4 SWAP3 SWAP2 SWAP1 PUSH2 0x2685 JUMP JUMPDEST PUSH1 0x20 PUSH1 0x40 MLOAD DUP1 DUP4 SUB DUP2 DUP7 GAS STATICCALL ISZERO DUP1 ISZERO PUSH2 0xFB4 JUMPI RETURNDATASIZE PUSH1 0x0 DUP1 RETURNDATACOPY RETURNDATASIZE PUSH1 0x0 REVERT JUMPDEST POP POP POP POP PUSH1 0x40 MLOAD RETURNDATASIZE PUSH1 0x1F NOT PUSH1 0x1F DUP3 ADD AND DUP3 ADD DUP1 PUSH1 0x40 MSTORE POP DUP2 ADD SWAP1 PUSH2 0xFD8 SWAP2 SWAP1 PUSH2 0x26D1 JUMP JUMPDEST SWAP1 POP SWAP4 SWAP3 POP POP POP JUMP JUMPDEST PUSH1 0x0 PUSH2 0xFEC DUP3 PUSH2 0x1DAF JUMP JUMPDEST SWAP1 POP DUP1 PUSH20 0xFFFFFFFFFFFFFFFFFFFFFFFFFFFFFFFFFFFFFFFF AND CALLER PUSH20 0xFFFFFFFFFFFFFFFFFFFFFFFFFFFFFFFFFFFFFFFF AND EQ PUSH2 0x1026 JUMPI PUSH1 0x0 DUP1 REVERT JUMPDEST PUSH1 0x5 PUSH1 0x0 DUP3 PUSH20 0xFFFFFFFFFFFFFFFFFFFFFFFFFFFFFFFFFFFFFFFF AND PUSH20 0xFFFFFFFFFFFFFFFFFFFFFFFFFFFFFFFFFFFFFFFF AND DUP2 MSTORE PUSH1 0x20 ADD SWAP1 DUP2 MSTORE PUSH1 0x20 ADD PUSH1 0x0 KECCAK256 PUSH1 0x0 DUP4 PUSH8 0xFFFFFFFFFFFFFFFF AND DUP2 MSTORE PUSH1 0x20 ADD SWAP1 DUP2 MSTORE PUSH1 0x20 ADD PUSH1 0x0 KECCAK256 PUSH1 0x0 SWAP1 SLOAD SWAP1 PUSH2 0x100 EXP SWAP1 DIV PUSH1 0xFF AND PUSH2 0x1097 JUMPI PUSH1 0x0 DUP1 REVERT JUMPDEST PUSH1 0x0 ISZERO ISZERO PUSH1 0x7 PUSH1 0x0 CALLER PUSH20 0xFFFFFFFFFFFFFFFFFFFFFFFFFFFFFFFFFFFFFFFF AND PUSH20 0xFFFFFFFFFFFFFFFFFFFFFFFFFFFFFFFFFFFFFFFF AND DUP2 MSTORE PUSH1 0x20 ADD SWAP1 DUP2 MSTORE PUSH1 0x20 ADD PUSH1 0x0 KECCAK256 PUSH1 0x0 DUP5 PUSH8 0xFFFFFFFFFFFFFFFF AND DUP2 MSTORE PUSH1 0x20 ADD SWAP1 DUP2 MSTORE PUSH1 0x20 ADD PUSH1 0x0 KECCAK256 PUSH1 0x0 SWAP1 SLOAD SWAP1 PUSH2 0x100 EXP SWAP1 DIV PUSH1 0xFF AND ISZERO ISZERO EQ PUSH2 0x110F JUMPI PUSH1 0x0 DUP1 REVERT JUMPDEST PUSH1 0x0 PUSH1 0x4 PUSH1 0x0 DUP5 PUSH8 0xFFFFFFFFFFFFFFFF AND PUSH8 0xFFFFFFFFFFFFFFFF AND DUP2 MSTORE PUSH1 0x20 ADD SWAP1 DUP2 MSTORE PUSH1 0x20 ADD PUSH1 0x0 KECCAK256 PUSH1 0x2 ADD PUSH1 0x0 SWAP1 SLOAD SWAP1 PUSH2 0x100 EXP SWAP1 DIV PUSH20 0xFFFFFFFFFFFFFFFFFFFFFFFFFFFFFFFFFFFFFFFF AND SWAP1 POP PUSH1 0x0 PUSH1 0x4 PUSH1 0x0 DUP6 PUSH8 0xFFFFFFFFFFFFFFFF AND PUSH8 0xFFFFFFFFFFFFFFFF AND DUP2 MSTORE PUSH1 0x20 ADD SWAP1 DUP2 MSTORE PUSH1 0x20 ADD PUSH1 0x0 KECCAK256 PUSH1 0x0 ADD PUSH1 0x10 SWAP1 SLOAD SWAP1 PUSH2 0x100 EXP SWAP1 DIV PUSH16 0xFFFFFFFFFFFFFFFFFFFFFFFFFFFFFFFF AND PUSH1 0x4 PUSH1 0x0 DUP7 PUSH8 0xFFFFFFFFFFFFFFFF AND PUSH8 0xFFFFFFFFFFFFFFFF AND DUP2 MSTORE PUSH1 0x20 ADD SWAP1 DUP2 MSTORE PUSH1 0x20 ADD PUSH1 0x0 KECCAK256 PUSH1 0x1 ADD PUSH1 0x0 SWAP1 SLOAD SWAP1 PUSH2 0x100 EXP SWAP1 DIV PUSH16 0xFFFFFFFFFFFFFFFFFFFFFFFFFFFFFFFF AND PUSH2 0x11F8 SWAP2 SWAP1 PUSH2 0x25D5 JUMP JUMPDEST PUSH16 0xFFFFFFFFFFFFFFFFFFFFFFFFFFFFFFFF AND SWAP1 POP PUSH1 0x0 PUSH2 0x12A4 PUSH1 0x4 PUSH1 0x0 DUP8 PUSH8 0xFFFFFFFFFFFFFFFF AND PUSH8 0xFFFFFFFFFFFFFFFF AND DUP2 MSTORE PUSH1 0x20 ADD SWAP1 DUP2 MSTORE PUSH1 0x20 ADD PUSH1 0x0 KECCAK256 PUSH1 0x1 ADD PUSH1 0x0 SWAP1 SLOAD SWAP1 PUSH2 0x100 EXP SWAP1 DIV PUSH16 0xFFFFFFFFFFFFFFFFFFFFFFFFFFFFFFFF AND PUSH1 0x4 PUSH1 0x0 DUP9 PUSH8 0xFFFFFFFFFFFFFFFF AND PUSH8 0xFFFFFFFFFFFFFFFF AND DUP2 MSTORE PUSH1 0x20 ADD SWAP1 DUP2 MSTORE PUSH1 0x20 ADD PUSH1 0x0 KECCAK256 PUSH1 0x0 ADD PUSH1 0x10 SWAP1 SLOAD SWAP1 PUSH2 0x100 EXP SWAP1 DIV PUSH16 0xFFFFFFFFFFFFFFFFFFFFFFFFFFFFFFFF AND PUSH2 0x13BA JUMP JUMPDEST SWAP1 POP PUSH1 0x0 PUSH2 0x12B1 DUP4 PUSH2 0x1E57 JUMP JUMPDEST SWAP1 POP PUSH2 0x12DE ADDRESS DUP3 DUP7 PUSH20 0xFFFFFFFFFFFFFFFFFFFFFFFFFFFFFFFFFFFFFFFF AND PUSH2 0x1EFE SWAP1 SWAP3 SWAP2 SWAP1 PUSH4 0xFFFFFFFF AND JUMP JUMPDEST PUSH2 0x1314 DUP6 DUP3 DUP6 PUSH2 0x12EE SWAP2 SWAP1 PUSH2 0x2642 JUMP JUMPDEST DUP7 PUSH20 0xFFFFFFFFFFFFFFFFFFFFFFFFFFFFFFFFFFFFFFFF AND PUSH2 0x1EFE SWAP1 SWAP3 SWAP2 SWAP1 PUSH4 0xFFFFFFFF AND JUMP JUMPDEST PUSH2 0x133F DUP6 DUP4 DUP7 PUSH20 0xFFFFFFFFFFFFFFFFFFFFFFFFFFFFFFFFFFFFFFFF AND PUSH2 0x1EFE SWAP1 SWAP3 SWAP2 SWAP1 PUSH4 0xFFFFFFFF AND JUMP JUMPDEST PUSH1 0x1 PUSH1 0x7 PUSH1 0x0 CALLER PUSH20 0xFFFFFFFFFFFFFFFFFFFFFFFFFFFFFFFFFFFFFFFF AND PUSH20 0xFFFFFFFFFFFFFFFFFFFFFFFFFFFFFFFFFFFFFFFF AND DUP2 MSTORE PUSH1 0x20 ADD SWAP1 DUP2 MSTORE PUSH1 0x20 ADD PUSH1 0x0 KECCAK256 PUSH1 0x0 DUP9 PUSH8 0xFFFFFFFFFFFFFFFF AND DUP2 MSTORE PUSH1 0x20 ADD SWAP1 DUP2 MSTORE PUSH1 0x20 ADD PUSH1 0x0 KECCAK256 PUSH1 0x0 PUSH2 0x100 EXP DUP2 SLOAD DUP2 PUSH1 0xFF MUL NOT AND SWAP1 DUP4 ISZERO ISZERO MUL OR SWAP1 SSTORE POP POP POP POP POP POP POP JUMP JUMPDEST PUSH1 0x0 DUP1 DUP3 DUP5 PUSH2 0x13C9 SWAP2 SWAP1 PUSH2 0x25D5 JUMP JUMPDEST PUSH16 0xFFFFFFFFFFFFFFFFFFFFFFFFFFFFFFFF AND SWAP1 POP PUSH9 0x56BC75E2D63100000 DUP2 LT ISZERO DUP1 ISZERO PUSH2 0x13FE JUMPI POP PUSH9 0x3635C9ADC5DEA00000 DUP2 LT JUMPDEST ISZERO PUSH2 0x1424 JUMPI PUSH1 0x64 PUSH1 0x32 DUP3 PUSH2 0x1412 SWAP2 SWAP1 PUSH2 0x26FE JUMP JUMPDEST PUSH2 0x141C SWAP2 SWAP1 PUSH2 0x276F JUMP JUMPDEST SWAP2 POP POP PUSH2 0x14D1 JUMP JUMPDEST PUSH9 0x3635C9ADC5DEA00000 DUP2 LT ISZERO DUP1 ISZERO PUSH2 0x1446 JUMPI POP PUSH10 0x21E19E0C9BAB2400000 DUP2 LT JUMPDEST ISZERO PUSH2 0x146C JUMPI PUSH1 0x64 PUSH1 0x28 DUP3 PUSH2 0x145A SWAP2 SWAP1 PUSH2 0x26FE JUMP JUMPDEST PUSH2 0x1464 SWAP2 SWAP1 PUSH2 0x276F JUMP JUMPDEST SWAP2 POP POP PUSH2 0x14D1 JUMP JUMPDEST PUSH10 0x21E19E0C9BAB2400000 DUP2 GT ISZERO PUSH2 0x149F JUMPI PUSH1 0x64 PUSH1 0x19 DUP3 PUSH2 0x148D SWAP2 SWAP1 PUSH2 0x26FE JUMP JUMPDEST PUSH2 0x1497 SWAP2 SWAP1 PUSH2 0x276F JUMP JUMPDEST SWAP2 POP POP PUSH2 0x14D1 JUMP JUMPDEST PUSH1 0x40 MLOAD PUSH32 0xE008B5F900000000000000000000000000000000000000000000000000000000 DUP2 MSTORE PUSH1 0x4 ADD PUSH1 0x40 MLOAD DUP1 SWAP2 SUB SWAP1 REVERT JUMPDEST SWAP3 SWAP2 POP POP JUMP JUMPDEST PUSH1 0x8 PUSH1 0x20 MSTORE DUP2 PUSH1 0x0 MSTORE PUSH1 0x40 PUSH1 0x0 KECCAK256 PUSH1 0x20 MSTORE DUP1 PUSH1 0x0 MSTORE PUSH1 0x40 PUSH1 0x0 KECCAK256 PUSH1 0x0 SWAP2 POP SWAP2 POP SWAP1 SLOAD SWAP1 PUSH2 0x100 EXP SWAP1 DIV PUSH1 0xFF AND DUP2 JUMP JUMPDEST PUSH1 0x0 PUSH2 0x1511 DUP3 PUSH2 0x1E03 JUMP JUMPDEST SWAP1 POP DUP1 PUSH20 0xFFFFFFFFFFFFFFFFFFFFFFFFFFFFFFFFFFFFFFFF AND CALLER PUSH20 0xFFFFFFFFFFFFFFFFFFFFFFFFFFFFFFFFFFFFFFFF AND EQ PUSH2 0x1578 JUMPI PUSH1 0x40 MLOAD PUSH32 0x472E017E00000000000000000000000000000000000000000000000000000000 DUP2 MSTORE PUSH1 0x4 ADD PUSH1 0x40 MLOAD DUP1 SWAP2 SUB SWAP1 REVERT JUMPDEST PUSH1 0x3 PUSH1 0x4 PUSH1 0x0 DUP5 PUSH8 0xFFFFFFFFFFFFFFFF AND PUSH8 0xFFFFFFFFFFFFFFFF AND DUP2 MSTORE PUSH1 0x20 ADD SWAP1 DUP2 MSTORE PUSH1 0x20 ADD PUSH1 0x0 KECCAK256 PUSH1 0x0 ADD PUSH1 0x0 SWAP1 SLOAD SWAP1 PUSH2 0x100 EXP SWAP1 DIV PUSH1 0xFF AND PUSH1 0xFF AND EQ PUSH2 0x15EC JUMPI PUSH1 0x40 MLOAD PUSH32 0xDE4461CD00000000000000000000000000000000000000000000000000000000 DUP2 MSTORE PUSH1 0x4 ADD PUSH1 0x40 MLOAD DUP1 SWAP2 SUB SWAP1 REVERT JUMPDEST PUSH1 0x0 PUSH1 0x4 PUSH1 0x0 DUP5 PUSH8 0xFFFFFFFFFFFFFFFF AND PUSH8 0xFFFFFFFFFFFFFFFF AND DUP2 MSTORE PUSH1 0x20 ADD SWAP1 DUP2 MSTORE PUSH1 0x20 ADD PUSH1 0x0 KECCAK256 PUSH1 0x0 ADD PUSH1 0x10 SWAP1 SLOAD SWAP1 PUSH2 0x100 EXP SWAP1 DIV PUSH16 0xFFFFFFFFFFFFFFFFFFFFFFFFFFFFFFFF AND SWAP1 POP PUSH1 0x0 PUSH1 0x4 PUSH1 0x0 DUP6 PUSH8 0xFFFFFFFFFFFFFFFF AND PUSH8 0xFFFFFFFFFFFFFFFF AND DUP2 MSTORE PUSH1 0x20 ADD SWAP1 DUP2 MSTORE PUSH1 0x20 ADD PUSH1 0x0 KECCAK256 PUSH1 0x1 ADD PUSH1 0x0 SWAP1 SLOAD SWAP1 PUSH2 0x100 EXP SWAP1 DIV PUSH16 0xFFFFFFFFFFFFFFFFFFFFFFFFFFFFFFFF AND SWAP1 POP PUSH1 0x0 PUSH2 0x16AA DUP3 DUP5 PUSH2 0x1693 SWAP2 SWAP1 PUSH2 0x25D5 JUMP JUMPDEST PUSH16 0xFFFFFFFFFFFFFFFFFFFFFFFFFFFFFFFF AND PUSH2 0x1E57 JUMP JUMPDEST SWAP1 POP PUSH2 0x16F9 ADDRESS DUP3 PUSH1 0x1 PUSH1 0x0 SWAP1 SLOAD SWAP1 PUSH2 0x100 EXP SWAP1 DIV PUSH20 0xFFFFFFFFFFFFFFFFFFFFFFFFFFFFFFFFFFFFFFFF AND PUSH20 0xFFFFFFFFFFFFFFFFFFFFFFFFFFFFFFFFFFFFFFFF AND PUSH2 0x1EFE SWAP1 SWAP3 SWAP2 SWAP1 PUSH4 0xFFFFFFFF AND JUMP JUMPDEST PUSH2 0x1763 DUP5 DUP3 DUP6 PUSH16 0xFFFFFFFFFFFFFFFFFFFFFFFFFFFFFFFF AND PUSH2 0x171B SWAP2 SWAP1 PUSH2 0x2642 JUMP JUMPDEST PUSH1 0x1 PUSH1 0x0 SWAP1 SLOAD SWAP1 PUSH2 0x100 EXP SWAP1 DIV PUSH20 0xFFFFFFFFFFFFFFFFFFFFFFFFFFFFFFFFFFFFFFFF AND PUSH20 0xFFFFFFFFFFFFFFFFFFFFFFFFFFFFFFFFFFFFFFFF AND PUSH2 0x1EFE SWAP1 SWAP3 SWAP2 SWAP1 PUSH4 0xFFFFFFFF AND JUMP JUMPDEST PUSH1 0x4 DUP1 PUSH1 0x0 DUP8 PUSH8 0xFFFFFFFFFFFFFFFF AND PUSH8 0xFFFFFFFFFFFFFFFF AND DUP2 MSTORE PUSH1 0x20 ADD SWAP1 DUP2 MSTORE PUSH1 0x20 ADD PUSH1 0x0 KECCAK256 PUSH1 0x0 ADD PUSH1 0x0 PUSH2 0x100 EXP DUP2 SLOAD DUP2 PUSH1 0xFF MUL NOT AND SWAP1 DUP4 PUSH1 0xFF AND MUL OR SWAP1 SSTORE POP POP POP POP POP POP JUMP JUMPDEST POP JUMP JUMPDEST PUSH1 0x0 PUSH1 0x4 PUSH1 0x0 DUP5 PUSH8 0xFFFFFFFFFFFFFFFF AND PUSH8 0xFFFFFFFFFFFFFFFF AND DUP2 MSTORE PUSH1 0x20 ADD SWAP1 DUP2 MSTORE PUSH1 0x20 ADD PUSH1 0x0 KECCAK256 PUSH1 0x40 MLOAD DUP1 PUSH2 0x100 ADD PUSH1 0x40 MSTORE SWAP1 DUP2 PUSH1 0x0 DUP3 ADD PUSH1 0x0 SWAP1 SLOAD SWAP1 PUSH2 0x100 EXP SWAP1 DIV PUSH1 0xFF AND PUSH1 0xFF AND PUSH1 0xFF AND DUP2 MSTORE PUSH1 0x20 ADD PUSH1 0x0 DUP3 ADD PUSH1 0x1 SWAP1 SLOAD SWAP1 PUSH2 0x100 EXP SWAP1 DIV PUSH8 0xFFFFFFFFFFFFFFFF AND PUSH8 0xFFFFFFFFFFFFFFFF AND PUSH8 0xFFFFFFFFFFFFFFFF AND DUP2 MSTORE PUSH1 0x20 ADD PUSH1 0x0 DUP3 ADD PUSH1 0x9 SWAP1 SLOAD SWAP1 PUSH2 0x100 EXP SWAP1 DIV PUSH7 0xFFFFFFFFFFFFFF AND PUSH7 0xFFFFFFFFFFFFFF AND PUSH7 0xFFFFFFFFFFFFFF AND DUP2 MSTORE PUSH1 0x20 ADD PUSH1 0x0 DUP3 ADD PUSH1 0x10 SWAP1 SLOAD SWAP1 PUSH2 0x100 EXP SWAP1 DIV PUSH16 0xFFFFFFFFFFFFFFFFFFFFFFFFFFFFFFFF AND PUSH16 0xFFFFFFFFFFFFFFFFFFFFFFFFFFFFFFFF AND PUSH16 0xFFFFFFFFFFFFFFFFFFFFFFFFFFFFFFFF AND DUP2 MSTORE PUSH1 0x20 ADD PUSH1 0x1 DUP3 ADD PUSH1 0x0 SWAP1 SLOAD SWAP1 PUSH2 0x100 EXP SWAP1 DIV PUSH16 0xFFFFFFFFFFFFFFFFFFFFFFFFFFFFFFFF AND PUSH16 0xFFFFFFFFFFFFFFFFFFFFFFFFFFFFFFFF AND PUSH16 0xFFFFFFFFFFFFFFFFFFFFFFFFFFFFFFFF AND DUP2 MSTORE PUSH1 0x20 ADD PUSH1 0x2 DUP3 ADD PUSH1 0x0 SWAP1 SLOAD SWAP1 PUSH2 0x100 EXP SWAP1 DIV PUSH20 0xFFFFFFFFFFFFFFFFFFFFFFFFFFFFFFFFFFFFFFFF AND PUSH20 0xFFFFFFFFFFFFFFFFFFFFFFFFFFFFFFFFFFFFFFFF AND PUSH20 0xFFFFFFFFFFFFFFFFFFFFFFFFFFFFFFFFFFFFFFFF AND DUP2 MSTORE PUSH1 0x20 ADD PUSH1 0x3 DUP3 ADD PUSH1 0x0 SWAP1 SLOAD SWAP1 PUSH2 0x100 EXP SWAP1 DIV PUSH20 0xFFFFFFFFFFFFFFFFFFFFFFFFFFFFFFFFFFFFFFFF AND PUSH20 0xFFFFFFFFFFFFFFFFFFFFFFFFFFFFFFFFFFFFFFFF AND PUSH20 0xFFFFFFFFFFFFFFFFFFFFFFFFFFFFFFFFFFFFFFFF AND DUP2 MSTORE PUSH1 0x20 ADD PUSH1 0x4 DUP3 ADD PUSH1 0x0 SWAP1 SLOAD SWAP1 PUSH2 0x100 EXP SWAP1 DIV PUSH20 0xFFFFFFFFFFFFFFFFFFFFFFFFFFFFFFFFFFFFFFFF AND PUSH20 0xFFFFFFFFFFFFFFFFFFFFFFFFFFFFFFFFFFFFFFFF AND PUSH20 0xFFFFFFFFFFFFFFFFFFFFFFFFFFFFFFFFFFFFFFFF AND DUP2 MSTORE POP POP SWAP1 POP PUSH1 0x1 DUP2 PUSH1 0x0 ADD MLOAD PUSH1 0xFF AND EQ PUSH2 0x1A0F JUMPI PUSH1 0x0 DUP1 REVERT JUMPDEST PUSH1 0x0 DUP2 PUSH1 0xA0 ADD MLOAD SWAP1 POP PUSH1 0x0 PUSH2 0x1A27 DUP3 DUP6 PUSH2 0x3E8 PUSH2 0xF36 JUMP JUMPDEST SWAP1 POP PUSH1 0x0 PUSH2 0x1A3D DUP5 PUSH1 0x80 ADD MLOAD DUP6 PUSH1 0x60 ADD MLOAD PUSH2 0x13BA JUMP JUMPDEST SWAP1 POP PUSH2 0x1A6C CALLER ADDRESS DUP4 DUP7 PUSH20 0xFFFFFFFFFFFFFFFFFFFFFFFFFFFFFFFFFFFFFFFF AND PUSH2 0x1BD7 SWAP1 SWAP4 SWAP3 SWAP2 SWAP1 PUSH4 0xFFFFFFFF AND JUMP JUMPDEST PUSH2 0x1A97 DUP3 DUP3 DUP6 PUSH20 0xFFFFFFFFFFFFFFFFFFFFFFFFFFFFFFFFFFFFFFFF AND PUSH2 0x1C60 SWAP1 SWAP3 SWAP2 SWAP1 PUSH4 0xFFFFFFFF AND JUMP JUMPDEST PUSH2 0x1AC4 ADDRESS DUP4 DUP4 DUP7 PUSH20 0xFFFFFFFFFFFFFFFFFFFFFFFFFFFFFFFFFFFFFFFF AND PUSH2 0x1BD7 SWAP1 SWAP4 SWAP3 SWAP2 SWAP1 PUSH4 0xFFFFFFFF AND JUMP JUMPDEST CALLER PUSH1 0x4 PUSH1 0x0 DUP9 PUSH8 0xFFFFFFFFFFFFFFFF AND PUSH8 0xFFFFFFFFFFFFFFFF AND DUP2 MSTORE PUSH1 0x20 ADD SWAP1 DUP2 MSTORE PUSH1 0x20 ADD PUSH1 0x0 KECCAK256 PUSH1 0x4 ADD PUSH1 0x0 PUSH2 0x100 EXP DUP2 SLOAD DUP2 PUSH20 0xFFFFFFFFFFFFFFFFFFFFFFFFFFFFFFFFFFFFFFFF MUL NOT AND SWAP1 DUP4 PUSH20 0xFFFFFFFFFFFFFFFFFFFFFFFFFFFFFFFFFFFFFFFF AND MUL OR SWAP1 SSTORE POP PUSH1 0x2 PUSH1 0x4 PUSH1 0x0 DUP9 PUSH8 0xFFFFFFFFFFFFFFFF AND PUSH8 0xFFFFFFFFFFFFFFFF AND DUP2 MSTORE PUSH1 0x20 ADD SWAP1 DUP2 MSTORE PUSH1 0x20 ADD PUSH1 0x0 KECCAK256 PUSH1 0x0 ADD PUSH1 0x0 PUSH2 0x100 EXP DUP2 SLOAD DUP2 PUSH1 0xFF MUL NOT AND SWAP1 DUP4 PUSH1 0xFF AND MUL OR SWAP1 SSTORE POP POP POP POP POP POP POP JUMP JUMPDEST PUSH1 0x7 PUSH1 0x20 MSTORE DUP2 PUSH1 0x0 MSTORE PUSH1 0x40 PUSH1 0x0 KECCAK256 PUSH1 0x20 MSTORE DUP1 PUSH1 0x0 MSTORE PUSH1 0x40 PUSH1 0x0 KECCAK256 PUSH1 0x0 SWAP2 POP SWAP2 POP SWAP1 SLOAD SWAP1 PUSH2 0x100 EXP SWAP1 DIV PUSH1 0xFF AND DUP2 JUMP JUMPDEST PUSH1 0x9 PUSH1 0x20 MSTORE DUP2 PUSH1 0x0 MSTORE PUSH1 0x40 PUSH1 0x0 KECCAK256 PUSH1 0x20 MSTORE DUP1 PUSH1 0x0 MSTORE PUSH1 0x40 PUSH1 0x0 KECCAK256 PUSH1 0x0 SWAP2 POP SWAP2 POP SWAP1 SLOAD SWAP1 PUSH2 0x100 EXP SWAP1 DIV PUSH1 0xFF AND DUP2 JUMP JUMPDEST PUSH2 0x1C5A DUP5 PUSH4 0x23B872DD PUSH1 0xE0 SHL DUP6 DUP6 DUP6 PUSH1 0x40 MLOAD PUSH1 0x24 ADD PUSH2 0x1BF8 SWAP4 SWAP3 SWAP2 SWAP1 PUSH2 0x27A0 JUMP JUMPDEST PUSH1 0x40 MLOAD PUSH1 0x20 DUP2 DUP4 SUB SUB DUP2 MSTORE SWAP1 PUSH1 0x40 MSTORE SWAP1 PUSH28 0xFFFFFFFFFFFFFFFFFFFFFFFFFFFFFFFFFFFFFFFFFFFFFFFFFFFFFFFF NOT AND PUSH1 0x20 DUP3 ADD DUP1 MLOAD PUSH28 0xFFFFFFFFFFFFFFFFFFFFFFFFFFFFFFFFFFFFFFFFFFFFFFFFFFFFFFFF DUP4 DUP2 DUP4 AND OR DUP4 MSTORE POP POP POP POP PUSH2 0x1F84 JUMP JUMPDEST POP POP POP POP JUMP JUMPDEST PUSH1 0x0 DUP2 EQ DUP1 PUSH2 0x1CEA JUMPI POP PUSH1 0x0 DUP4 PUSH20 0xFFFFFFFFFFFFFFFFFFFFFFFFFFFFFFFFFFFFFFFF AND PUSH4 0xDD62ED3E ADDRESS DUP6 PUSH1 0x40 MLOAD DUP4 PUSH4 0xFFFFFFFF AND PUSH1 0xE0 SHL DUP2 MSTORE PUSH1 0x4 ADD PUSH2 0x1CA7 SWAP3 SWAP2 SWAP1 PUSH2 0x27D7 JUMP JUMPDEST PUSH1 0x20 PUSH1 0x40 MLOAD DUP1 DUP4 SUB DUP2 DUP7 GAS STATICCALL ISZERO DUP1 ISZERO PUSH2 0x1CC4 JUMPI RETURNDATASIZE PUSH1 0x0 DUP1 RETURNDATACOPY RETURNDATASIZE PUSH1 0x0 REVERT JUMPDEST POP POP POP POP PUSH1 0x40 MLOAD RETURNDATASIZE PUSH1 0x1F NOT PUSH1 0x1F DUP3 ADD AND DUP3 ADD DUP1 PUSH1 0x40 MSTORE POP DUP2 ADD SWAP1 PUSH2 0x1CE8 SWAP2 SWAP1 PUSH2 0x2815 JUMP JUMPDEST EQ JUMPDEST PUSH2 0x1D29 JUMPI PUSH1 0x40 MLOAD PUSH32 0x8C379A000000000000000000000000000000000000000000000000000000000 DUP2 MSTORE PUSH1 0x4 ADD PUSH2 0x1D20 SWAP1 PUSH2 0x28C5 JUMP JUMPDEST PUSH1 0x40 MLOAD DUP1 SWAP2 SUB SWAP1 REVERT JUMPDEST PUSH2 0x1DAA DUP4 PUSH4 0x95EA7B3 PUSH1 0xE0 SHL DUP5 DUP5 PUSH1 0x40 MLOAD PUSH1 0x24 ADD PUSH2 0x1D48 SWAP3 SWAP2 SWAP1 PUSH2 0x28E5 JUMP JUMPDEST PUSH1 0x40 MLOAD PUSH1 0x20 DUP2 DUP4 SUB SUB DUP2 MSTORE SWAP1 PUSH1 0x40 MSTORE SWAP1 PUSH28 0xFFFFFFFFFFFFFFFFFFFFFFFFFFFFFFFFFFFFFFFFFFFFFFFFFFFFFFFF NOT AND PUSH1 0x20 DUP3 ADD DUP1 MLOAD PUSH28 0xFFFFFFFFFFFFFFFFFFFFFFFFFFFFFFFFFFFFFFFFFFFFFFFFFFFFFFFF DUP4 DUP2 DUP4 AND OR DUP4 MSTORE POP POP POP POP PUSH2 0x1F84 JUMP JUMPDEST POP POP POP JUMP JUMPDEST PUSH1 0x0 PUSH1 0x4 PUSH1 0x0 DUP4 PUSH8 0xFFFFFFFFFFFFFFFF AND PUSH8 0xFFFFFFFFFFFFFFFF AND DUP2 MSTORE PUSH1 0x20 ADD SWAP1 DUP2 MSTORE PUSH1 0x20 ADD PUSH1 0x0 KECCAK256 PUSH1 0x4 ADD PUSH1 0x0 SWAP1 SLOAD SWAP1 PUSH2 0x100 EXP SWAP1 DIV PUSH20 0xFFFFFFFFFFFFFFFFFFFFFFFFFFFFFFFFFFFFFFFF AND SWAP1 POP SWAP2 SWAP1 POP JUMP JUMPDEST PUSH1 0x0 PUSH1 0x4 PUSH1 0x0 DUP4 PUSH8 0xFFFFFFFFFFFFFFFF AND PUSH8 0xFFFFFFFFFFFFFFFF AND DUP2 MSTORE PUSH1 0x20 ADD SWAP1 DUP2 MSTORE PUSH1 0x20 ADD PUSH1 0x0 KECCAK256 PUSH1 0x3 ADD PUSH1 0x0 SWAP1 SLOAD SWAP1 PUSH2 0x100 EXP SWAP1 DIV PUSH20 0xFFFFFFFFFFFFFFFFFFFFFFFFFFFFFFFFFFFFFFFF AND SWAP1 POP SWAP2 SWAP1 POP JUMP JUMPDEST PUSH1 0x0 PUSH9 0x56BC75E2D63100000 DUP3 LT ISZERO DUP1 ISZERO PUSH2 0x1E7A JUMPI POP PUSH9 0x3635C9ADC5DEA00000 DUP3 LT JUMPDEST ISZERO PUSH2 0x1E93 JUMPI PUSH1 0x64 DUP3 PUSH2 0x1E8C SWAP2 SWAP1 PUSH2 0x276F JUMP JUMPDEST SWAP1 POP PUSH2 0x1EF9 JUMP JUMPDEST PUSH9 0x3635C9ADC5DEA00000 DUP3 LT ISZERO DUP1 ISZERO PUSH2 0x1EB5 JUMPI POP PUSH10 0x21E19E0C9BAB2400000 DUP3 LT JUMPDEST ISZERO PUSH2 0x1ECE JUMPI PUSH1 0xC8 DUP3 PUSH2 0x1EC7 SWAP2 SWAP1 PUSH2 0x276F JUMP JUMPDEST SWAP1 POP PUSH2 0x1EF9 JUMP JUMPDEST PUSH10 0x21E19E0C9BAB2400000 DUP3 LT PUSH2 0x1EF4 JUMPI PUSH2 0x190 DUP3 PUSH2 0x1EED SWAP2 SWAP1 PUSH2 0x276F JUMP JUMPDEST SWAP1 POP PUSH2 0x1EF9 JUMP JUMPDEST PUSH1 0x0 SWAP1 POP JUMPDEST SWAP2 SWAP1 POP JUMP JUMPDEST PUSH2 0x1F7F DUP4 PUSH4 0xA9059CBB PUSH1 0xE0 SHL DUP5 DUP5 PUSH1 0x40 MLOAD PUSH1 0x24 ADD PUSH2 0x1F1D SWAP3 SWAP2 SWAP1 PUSH2 0x28E5 JUMP JUMPDEST PUSH1 0x40 MLOAD PUSH1 0x20 DUP2 DUP4 SUB SUB DUP2 MSTORE SWAP1 PUSH1 0x40 MSTORE SWAP1 PUSH28 0xFFFFFFFFFFFFFFFFFFFFFFFFFFFFFFFFFFFFFFFFFFFFFFFFFFFFFFFF NOT AND PUSH1 0x20 DUP3 ADD DUP1 MLOAD PUSH28 0xFFFFFFFFFFFFFFFFFFFFFFFFFFFFFFFFFFFFFFFFFFFFFFFFFFFFFFFF DUP4 DUP2 DUP4 AND OR DUP4 MSTORE POP POP POP POP PUSH2 0x1F84 JUMP JUMPDEST POP POP POP JUMP JUMPDEST PUSH1 0x0 PUSH2 0x1FE6 DUP3 PUSH1 0x40 MLOAD DUP1 PUSH1 0x40 ADD PUSH1 0x40 MSTORE DUP1 PUSH1 0x20 DUP2 MSTORE PUSH1 0x20 ADD PUSH32 0x5361666545524332303A206C6F772D6C6576656C2063616C6C206661696C6564 DUP2 MSTORE POP DUP6 PUSH20 0xFFFFFFFFFFFFFFFFFFFFFFFFFFFFFFFFFFFFFFFF AND PUSH2 0x204C SWAP1 SWAP3 SWAP2 SWAP1 PUSH4 0xFFFFFFFF AND JUMP JUMPDEST SWAP1 POP PUSH1 0x0 DUP2 MLOAD EQ DUP1 PUSH2 0x2008 JUMPI POP DUP1 DUP1 PUSH1 0x20 ADD SWAP1 MLOAD DUP2 ADD SWAP1 PUSH2 0x2007 SWAP2 SWAP1 PUSH2 0x293A JUMP JUMPDEST JUMPDEST PUSH2 0x2047 JUMPI PUSH1 0x40 MLOAD PUSH32 0x8C379A000000000000000000000000000000000000000000000000000000000 DUP2 MSTORE PUSH1 0x4 ADD PUSH2 0x203E SWAP1 PUSH2 0x29D9 JUMP JUMPDEST PUSH1 0x40 MLOAD DUP1 SWAP2 SUB SWAP1 REVERT JUMPDEST POP POP POP JUMP JUMPDEST PUSH1 0x60 PUSH2 0x205B DUP5 DUP5 PUSH1 0x0 DUP6 PUSH2 0x2064 JUMP JUMPDEST SWAP1 POP SWAP4 SWAP3 POP POP POP JUMP JUMPDEST PUSH1 0x60 DUP3 SELFBALANCE LT ISZERO PUSH2 0x20A9 JUMPI PUSH1 0x40 MLOAD PUSH32 0x8C379A000000000000000000000000000000000000000000000000000000000 DUP2 MSTORE PUSH1 0x4 ADD PUSH2 0x20A0 SWAP1 PUSH2 0x2A6B JUMP JUMPDEST PUSH1 0x40 MLOAD DUP1 SWAP2 SUB SWAP1 REVERT JUMPDEST PUSH1 0x0 DUP1 DUP7 PUSH20 0xFFFFFFFFFFFFFFFFFFFFFFFFFFFFFFFFFFFFFFFF AND DUP6 DUP8 PUSH1 0x40 MLOAD PUSH2 0x20D2 SWAP2 SWAP1 PUSH2 0x2AFC JUMP JUMPDEST PUSH1 0x0 PUSH1 0x40 MLOAD DUP1 DUP4 SUB DUP2 DUP6 DUP8 GAS CALL SWAP3 POP POP POP RETURNDATASIZE DUP1 PUSH1 0x0 DUP2 EQ PUSH2 0x210F JUMPI PUSH1 0x40 MLOAD SWAP2 POP PUSH1 0x1F NOT PUSH1 0x3F RETURNDATASIZE ADD AND DUP3 ADD PUSH1 0x40 MSTORE RETURNDATASIZE DUP3 MSTORE RETURNDATASIZE PUSH1 0x0 PUSH1 0x20 DUP5 ADD RETURNDATACOPY PUSH2 0x2114 JUMP JUMPDEST PUSH1 0x60 SWAP2 POP JUMPDEST POP SWAP2 POP SWAP2 POP PUSH2 0x2125 DUP8 DUP4 DUP4 DUP8 PUSH2 0x2131 JUMP JUMPDEST SWAP3 POP POP POP SWAP5 SWAP4 POP POP POP POP JUMP JUMPDEST PUSH1 0x60 DUP4 ISZERO PUSH2 0x2193 JUMPI PUSH1 0x0 DUP4 MLOAD SUB PUSH2 0x218B JUMPI PUSH2 0x214B DUP6 PUSH2 0x21A6 JUMP JUMPDEST PUSH2 0x218A JUMPI PUSH1 0x40 MLOAD PUSH32 0x8C379A000000000000000000000000000000000000000000000000000000000 DUP2 MSTORE PUSH1 0x4 ADD PUSH2 0x2181 SWAP1 PUSH2 0x2B5F JUMP JUMPDEST PUSH1 0x40 MLOAD DUP1 SWAP2 SUB SWAP1 REVERT JUMPDEST JUMPDEST DUP3 SWAP1 POP PUSH2 0x219E JUMP JUMPDEST PUSH2 0x219D DUP4 DUP4 PUSH2 0x21C9 JUMP JUMPDEST JUMPDEST SWAP5 SWAP4 POP POP POP POP JUMP JUMPDEST PUSH1 0x0 DUP1 DUP3 PUSH20 0xFFFFFFFFFFFFFFFFFFFFFFFFFFFFFFFFFFFFFFFF AND EXTCODESIZE GT SWAP1 POP SWAP2 SWAP1 POP JUMP JUMPDEST PUSH1 0x0 DUP3 MLOAD GT ISZERO PUSH2 0x21DC JUMPI DUP2 MLOAD DUP1 DUP4 PUSH1 0x20 ADD REVERT JUMPDEST DUP1 PUSH1 0x40 MLOAD PUSH32 0x8C379A000000000000000000000000000000000000000000000000000000000 DUP2 MSTORE PUSH1 0x4 ADD PUSH2 0x2210 SWAP2 SWAP1 PUSH2 0x2BD4 JUMP JUMPDEST PUSH1 0x40 MLOAD DUP1 SWAP2 SUB SWAP1 REVERT JUMPDEST PUSH1 0x0 DUP1 REVERT JUMPDEST PUSH1 0x0 PUSH20 0xFFFFFFFFFFFFFFFFFFFFFFFFFFFFFFFFFFFFFFFF DUP3 AND SWAP1 POP SWAP2 SWAP1 POP JUMP JUMPDEST PUSH1 0x0 PUSH2 0x2249 DUP3 PUSH2 0x221E JUMP JUMPDEST SWAP1 POP SWAP2 SWAP1 POP JUMP JUMPDEST PUSH2 0x2259 DUP2 PUSH2 0x223E JUMP JUMPDEST DUP2 EQ PUSH2 0x2264 JUMPI PUSH1 0x0 DUP1 REVERT JUMPDEST POP JUMP JUMPDEST PUSH1 0x0 DUP2 CALLDATALOAD SWAP1 POP PUSH2 0x2276 DUP2 PUSH2 0x2250 JUMP JUMPDEST SWAP3 SWAP2 POP POP JUMP JUMPDEST PUSH1 0x0 PUSH16 0xFFFFFFFFFFFFFFFFFFFFFFFFFFFFFFFF DUP3 AND SWAP1 POP SWAP2 SWAP1 POP JUMP JUMPDEST PUSH2 0x22A1 DUP2 PUSH2 0x227C JUMP JUMPDEST DUP2 EQ PUSH2 0x22AC JUMPI PUSH1 0x0 DUP1 REVERT JUMPDEST POP JUMP JUMPDEST PUSH1 0x0 DUP2 CALLDATALOAD SWAP1 POP PUSH2 0x22BE DUP2 PUSH2 0x2298 JUMP JUMPDEST SWAP3 SWAP2 POP POP JUMP JUMPDEST PUSH1 0x0 DUP1 PUSH1 0x0 DUP1 PUSH1 0x80 DUP6 DUP8 SUB SLT ISZERO PUSH2 0x22DE JUMPI PUSH2 0x22DD PUSH2 0x2219 JUMP JUMPDEST JUMPDEST PUSH1 0x0 PUSH2 0x22EC DUP8 DUP3 DUP9 ADD PUSH2 0x2267 JUMP JUMPDEST SWAP5 POP POP PUSH1 0x20 PUSH2 0x22FD DUP8 DUP3 DUP9 ADD PUSH2 0x2267 JUMP JUMPDEST SWAP4 POP POP PUSH1 0x40 PUSH2 0x230E DUP8 DUP3 DUP9 ADD PUSH2 0x22AF JUMP JUMPDEST SWAP3 POP POP PUSH1 0x60 PUSH2 0x231F DUP8 DUP3 DUP9 ADD PUSH2 0x22AF JUMP JUMPDEST SWAP2 POP POP SWAP3 SWAP6 SWAP2 SWAP5 POP SWAP3 POP JUMP JUMPDEST PUSH1 0x0 PUSH8 0xFFFFFFFFFFFFFFFF DUP3 AND SWAP1 POP SWAP2 SWAP1 POP JUMP JUMPDEST PUSH2 0x2348 DUP2 PUSH2 0x232B JUMP JUMPDEST DUP2 EQ PUSH2 0x2353 JUMPI PUSH1 0x0 DUP1 REVERT JUMPDEST POP JUMP JUMPDEST PUSH1 0x0 DUP2 CALLDATALOAD SWAP1 POP PUSH2 0x2365 DUP2 PUSH2 0x233F JUMP JUMPDEST SWAP3 SWAP2 POP POP JUMP JUMPDEST PUSH1 0x0 PUSH1 0x20 DUP3 DUP5 SUB SLT ISZERO PUSH2 0x2381 JUMPI PUSH2 0x2380 PUSH2 0x2219 JUMP JUMPDEST JUMPDEST PUSH1 0x0 PUSH2 0x238F DUP5 DUP3 DUP6 ADD PUSH2 0x2356 JUMP JUMPDEST SWAP2 POP POP SWAP3 SWAP2 POP POP JUMP JUMPDEST PUSH1 0x0 DUP2 SWAP1 POP SWAP2 SWAP1 POP JUMP JUMPDEST PUSH2 0x23AB DUP2 PUSH2 0x2398 JUMP JUMPDEST DUP2 EQ PUSH2 0x23B6 JUMPI PUSH1 0x0 DUP1 REVERT JUMPDEST POP JUMP JUMPDEST PUSH1 0x0 DUP2 CALLDATALOAD SWAP1 POP PUSH2 0x23C8 DUP2 PUSH2 0x23A2 JUMP JUMPDEST SWAP3 SWAP2 POP POP JUMP JUMPDEST PUSH1 0x0 DUP1 PUSH1 0x40 DUP4 DUP6 SUB SLT ISZERO PUSH2 0x23E5 JUMPI PUSH2 0x23E4 PUSH2 0x2219 JUMP JUMPDEST JUMPDEST PUSH1 0x0 PUSH2 0x23F3 DUP6 DUP3 DUP7 ADD PUSH2 0x2267 JUMP JUMPDEST SWAP3 POP POP PUSH1 0x20 PUSH2 0x2404 DUP6 DUP3 DUP7 ADD PUSH2 0x23B9 JUMP JUMPDEST SWAP2 POP POP SWAP3 POP SWAP3 SWAP1 POP JUMP JUMPDEST PUSH1 0x0 DUP2 ISZERO ISZERO SWAP1 POP SWAP2 SWAP1 POP JUMP JUMPDEST PUSH2 0x2423 DUP2 PUSH2 0x240E JUMP JUMPDEST DUP3 MSTORE POP POP JUMP JUMPDEST PUSH1 0x0 PUSH1 0x20 DUP3 ADD SWAP1 POP PUSH2 0x243E PUSH1 0x0 DUP4 ADD DUP5 PUSH2 0x241A JUMP JUMPDEST SWAP3 SWAP2 POP POP JUMP JUMPDEST PUSH1 0x0 PUSH3 0xFFFFFF DUP3 AND SWAP1 POP SWAP2 SWAP1 POP JUMP JUMPDEST PUSH2 0x245C DUP2 PUSH2 0x2444 JUMP JUMPDEST DUP2 EQ PUSH2 0x2467 JUMPI PUSH1 0x0 DUP1 REVERT JUMPDEST POP JUMP JUMPDEST PUSH1 0x0 DUP2 CALLDATALOAD SWAP1 POP PUSH2 0x2479 DUP2 PUSH2 0x2453 JUMP JUMPDEST SWAP3 SWAP2 POP POP JUMP JUMPDEST PUSH1 0x0 DUP1 PUSH1 0x0 PUSH1 0x60 DUP5 DUP7 SUB SLT ISZERO PUSH2 0x2498 JUMPI PUSH2 0x2497 PUSH2 0x2219 JUMP JUMPDEST JUMPDEST PUSH1 0x0 PUSH2 0x24A6 DUP7 DUP3 DUP8 ADD PUSH2 0x2267 JUMP JUMPDEST SWAP4 POP POP PUSH1 0x20 PUSH2 0x24B7 DUP7 DUP3 DUP8 ADD PUSH2 0x2267 JUMP JUMPDEST SWAP3 POP POP PUSH1 0x40 PUSH2 0x24C8 DUP7 DUP3 DUP8 ADD PUSH2 0x246A JUMP JUMPDEST SWAP2 POP POP SWAP3 POP SWAP3 POP SWAP3 JUMP JUMPDEST PUSH2 0x24DB DUP2 PUSH2 0x223E JUMP JUMPDEST DUP3 MSTORE POP POP JUMP JUMPDEST PUSH1 0x0 PUSH1 0x20 DUP3 ADD SWAP1 POP PUSH2 0x24F6 PUSH1 0x0 DUP4 ADD DUP5 PUSH2 0x24D2 JUMP JUMPDEST SWAP3 SWAP2 POP POP JUMP JUMPDEST PUSH1 0x0 DUP1 PUSH1 0x40 DUP4 DUP6 SUB SLT ISZERO PUSH2 0x2513 JUMPI PUSH2 0x2512 PUSH2 0x2219 JUMP JUMPDEST JUMPDEST PUSH1 0x0 PUSH2 0x2521 DUP6 DUP3 DUP7 ADD PUSH2 0x22AF JUMP JUMPDEST SWAP3 POP POP PUSH1 0x20 PUSH2 0x2532 DUP6 DUP3 DUP7 ADD PUSH2 0x22AF JUMP JUMPDEST SWAP2 POP POP SWAP3 POP SWAP3 SWAP1 POP JUMP JUMPDEST PUSH2 0x2545 DUP2 PUSH2 0x2398 JUMP JUMPDEST DUP3 MSTORE POP POP JUMP JUMPDEST PUSH1 0x0 PUSH1 0x20 DUP3 ADD SWAP1 POP PUSH2 0x2560 PUSH1 0x0 DUP4 ADD DUP5 PUSH2 0x253C JUMP JUMPDEST SWAP3 SWAP2 POP POP JUMP JUMPDEST PUSH1 0x0 DUP1 PUSH1 0x40 DUP4 DUP6 SUB SLT ISZERO PUSH2 0x257D JUMPI PUSH2 0x257C PUSH2 0x2219 JUMP JUMPDEST JUMPDEST PUSH1 0x0 PUSH2 0x258B DUP6 DUP3 DUP7 ADD PUSH2 0x2356 JUMP JUMPDEST SWAP3 POP POP PUSH1 0x20 PUSH2 0x259C DUP6 DUP3 DUP7 ADD PUSH2 0x2267 JUMP JUMPDEST SWAP2 POP POP SWAP3 POP SWAP3 SWAP1 POP JUMP JUMPDEST PUSH32 0x4E487B7100000000000000000000000000000000000000000000000000000000 PUSH1 0x0 MSTORE PUSH1 0x11 PUSH1 0x4 MSTORE PUSH1 0x24 PUSH1 0x0 REVERT JUMPDEST PUSH1 0x0 PUSH2 0x25E0 DUP3 PUSH2 0x227C JUMP JUMPDEST SWAP2 POP PUSH2 0x25EB DUP4 PUSH2 0x227C JUMP JUMPDEST SWAP3 POP DUP3 DUP3 MUL PUSH2 0x25F9 DUP2 PUSH2 0x227C JUMP JUMPDEST SWAP2 POP DUP1 DUP3 EQ PUSH2 0x260B JUMPI PUSH2 0x260A PUSH2 0x25A6 JUMP JUMPDEST JUMPDEST POP SWAP3 SWAP2 POP POP JUMP JUMPDEST PUSH1 0x0 PUSH2 0x261D DUP3 PUSH2 0x232B JUMP JUMPDEST SWAP2 POP PUSH8 0xFFFFFFFFFFFFFFFF DUP3 SUB PUSH2 0x2637 JUMPI PUSH2 0x2636 PUSH2 0x25A6 JUMP JUMPDEST JUMPDEST PUSH1 0x1 DUP3 ADD SWAP1 POP SWAP2 SWAP1 POP JUMP JUMPDEST PUSH1 0x0 PUSH2 0x264D DUP3 PUSH2 0x2398 JUMP JUMPDEST SWAP2 POP PUSH2 0x2658 DUP4 PUSH2 0x2398 JUMP JUMPDEST SWAP3 POP DUP3 DUP3 SUB SWAP1 POP DUP2 DUP2 GT ISZERO PUSH2 0x2670 JUMPI PUSH2 0x266F PUSH2 0x25A6 JUMP JUMPDEST JUMPDEST SWAP3 SWAP2 POP POP JUMP JUMPDEST PUSH2 0x267F DUP2 PUSH2 0x2444 JUMP JUMPDEST DUP3 MSTORE POP POP JUMP JUMPDEST PUSH1 0x0 PUSH1 0x60 DUP3 ADD SWAP1 POP PUSH2 0x269A PUSH1 0x0 DUP4 ADD DUP7 PUSH2 0x24D2 JUMP JUMPDEST PUSH2 0x26A7 PUSH1 0x20 DUP4 ADD DUP6 PUSH2 0x24D2 JUMP JUMPDEST PUSH2 0x26B4 PUSH1 0x40 DUP4 ADD DUP5 PUSH2 0x2676 JUMP JUMPDEST SWAP5 SWAP4 POP POP POP POP JUMP JUMPDEST PUSH1 0x0 DUP2 MLOAD SWAP1 POP PUSH2 0x26CB DUP2 PUSH2 0x2250 JUMP JUMPDEST SWAP3 SWAP2 POP POP JUMP JUMPDEST PUSH1 0x0 PUSH1 0x20 DUP3 DUP5 SUB SLT ISZERO PUSH2 0x26E7 JUMPI PUSH2 0x26E6 PUSH2 0x2219 JUMP JUMPDEST JUMPDEST PUSH1 0x0 PUSH2 0x26F5 DUP5 DUP3 DUP6 ADD PUSH2 0x26BC JUMP JUMPDEST SWAP2 POP POP SWAP3 SWAP2 POP POP JUMP JUMPDEST PUSH1 0x0 PUSH2 0x2709 DUP3 PUSH2 0x2398 JUMP JUMPDEST SWAP2 POP PUSH2 0x2714 DUP4 PUSH2 0x2398 JUMP JUMPDEST SWAP3 POP DUP3 DUP3 MUL PUSH2 0x2722 DUP2 PUSH2 0x2398 JUMP JUMPDEST SWAP2 POP DUP3 DUP3 DIV DUP5 EQ DUP4 ISZERO OR PUSH2 0x2739 JUMPI PUSH2 0x2738 PUSH2 0x25A6 JUMP JUMPDEST JUMPDEST POP SWAP3 SWAP2 POP POP JUMP JUMPDEST PUSH32 0x4E487B7100000000000000000000000000000000000000000000000000000000 PUSH1 0x0 MSTORE PUSH1 0x12 PUSH1 0x4 MSTORE PUSH1 0x24 PUSH1 0x0 REVERT JUMPDEST PUSH1 0x0 PUSH2 0x277A DUP3 PUSH2 0x2398 JUMP JUMPDEST SWAP2 POP PUSH2 0x2785 DUP4 PUSH2 0x2398 JUMP JUMPDEST SWAP3 POP DUP3 PUSH2 0x2795 JUMPI PUSH2 0x2794 PUSH2 0x2740 JUMP JUMPDEST JUMPDEST DUP3 DUP3 DIV SWAP1 POP SWAP3 SWAP2 POP POP JUMP JUMPDEST PUSH1 0x0 PUSH1 0x60 DUP3 ADD SWAP1 POP PUSH2 0x27B5 PUSH1 0x0 DUP4 ADD DUP7 PUSH2 0x24D2 JUMP JUMPDEST PUSH2 0x27C2 PUSH1 0x20 DUP4 ADD DUP6 PUSH2 0x24D2 JUMP JUMPDEST PUSH2 0x27CF PUSH1 0x40 DUP4 ADD DUP5 PUSH2 0x253C JUMP JUMPDEST SWAP5 SWAP4 POP POP POP POP JUMP JUMPDEST PUSH1 0x0 PUSH1 0x40 DUP3 ADD SWAP1 POP PUSH2 0x27EC PUSH1 0x0 DUP4 ADD DUP6 PUSH2 0x24D2 JUMP JUMPDEST PUSH2 0x27F9 PUSH1 0x20 DUP4 ADD DUP5 PUSH2 0x24D2 JUMP JUMPDEST SWAP4 SWAP3 POP POP POP JUMP JUMPDEST PUSH1 0x0 DUP2 MLOAD SWAP1 POP PUSH2 0x280F DUP2 PUSH2 0x23A2 JUMP JUMPDEST SWAP3 SWAP2 POP POP JUMP JUMPDEST PUSH1 0x0 PUSH1 0x20 DUP3 DUP5 SUB SLT ISZERO PUSH2 0x282B JUMPI PUSH2 0x282A PUSH2 0x2219 JUMP JUMPDEST JUMPDEST PUSH1 0x0 PUSH2 0x2839 DUP5 DUP3 DUP6 ADD PUSH2 0x2800 JUMP JUMPDEST SWAP2 POP POP SWAP3 SWAP2 POP POP JUMP JUMPDEST PUSH1 0x0 DUP3 DUP3 MSTORE PUSH1 0x20 DUP3 ADD SWAP1 POP SWAP3 SWAP2 POP POP JUMP JUMPDEST PUSH32 0x5361666545524332303A20617070726F76652066726F6D206E6F6E2D7A65726F PUSH1 0x0 DUP3 ADD MSTORE PUSH32 0x20746F206E6F6E2D7A65726F20616C6C6F77616E636500000000000000000000 PUSH1 0x20 DUP3 ADD MSTORE POP JUMP JUMPDEST PUSH1 0x0 PUSH2 0x28AF PUSH1 0x36 DUP4 PUSH2 0x2842 JUMP JUMPDEST SWAP2 POP PUSH2 0x28BA DUP3 PUSH2 0x2853 JUMP JUMPDEST PUSH1 0x40 DUP3 ADD SWAP1 POP SWAP2 SWAP1 POP JUMP JUMPDEST PUSH1 0x0 PUSH1 0x20 DUP3 ADD SWAP1 POP DUP2 DUP2 SUB PUSH1 0x0 DUP4 ADD MSTORE PUSH2 0x28DE DUP2 PUSH2 0x28A2 JUMP JUMPDEST SWAP1 POP SWAP2 SWAP1 POP JUMP JUMPDEST PUSH1 0x0 PUSH1 0x40 DUP3 ADD SWAP1 POP PUSH2 0x28FA PUSH1 0x0 DUP4 ADD DUP6 PUSH2 0x24D2 JUMP JUMPDEST PUSH2 0x2907 PUSH1 0x20 DUP4 ADD DUP5 PUSH2 0x253C JUMP JUMPDEST SWAP4 SWAP3 POP POP POP JUMP JUMPDEST PUSH2 0x2917 DUP2 PUSH2 0x240E JUMP JUMPDEST DUP2 EQ PUSH2 0x2922 JUMPI PUSH1 0x0 DUP1 REVERT JUMPDEST POP JUMP JUMPDEST PUSH1 0x0 DUP2 MLOAD SWAP1 POP PUSH2 0x2934 DUP2 PUSH2 0x290E JUMP JUMPDEST SWAP3 SWAP2 POP POP JUMP JUMPDEST PUSH1 0x0 PUSH1 0x20 DUP3 DUP5 SUB SLT ISZERO PUSH2 0x2950 JUMPI PUSH2 0x294F PUSH2 0x2219 JUMP JUMPDEST JUMPDEST PUSH1 0x0 PUSH2 0x295E DUP5 DUP3 DUP6 ADD PUSH2 0x2925 JUMP JUMPDEST SWAP2 POP POP SWAP3 SWAP2 POP POP JUMP JUMPDEST PUSH32 0x5361666545524332303A204552433230206F7065726174696F6E20646964206E PUSH1 0x0 DUP3 ADD MSTORE PUSH32 0x6F74207375636365656400000000000000000000000000000000000000000000 PUSH1 0x20 DUP3 ADD MSTORE POP JUMP JUMPDEST PUSH1 0x0 PUSH2 0x29C3 PUSH1 0x2A DUP4 PUSH2 0x2842 JUMP JUMPDEST SWAP2 POP PUSH2 0x29CE DUP3 PUSH2 0x2967 JUMP JUMPDEST PUSH1 0x40 DUP3 ADD SWAP1 POP SWAP2 SWAP1 POP JUMP JUMPDEST PUSH1 0x0 PUSH1 0x20 DUP3 ADD SWAP1 POP DUP2 DUP2 SUB PUSH1 0x0 DUP4 ADD MSTORE PUSH2 0x29F2 DUP2 PUSH2 0x29B6 JUMP JUMPDEST SWAP1 POP SWAP2 SWAP1 POP JUMP JUMPDEST PUSH32 0x416464726573733A20696E73756666696369656E742062616C616E636520666F PUSH1 0x0 DUP3 ADD MSTORE PUSH32 0x722063616C6C0000000000000000000000000000000000000000000000000000 PUSH1 0x20 DUP3 ADD MSTORE POP JUMP JUMPDEST PUSH1 0x0 PUSH2 0x2A55 PUSH1 0x26 DUP4 PUSH2 0x2842 JUMP JUMPDEST SWAP2 POP PUSH2 0x2A60 DUP3 PUSH2 0x29F9 JUMP JUMPDEST PUSH1 0x40 DUP3 ADD SWAP1 POP SWAP2 SWAP1 POP JUMP JUMPDEST PUSH1 0x0 PUSH1 0x20 DUP3 ADD SWAP1 POP DUP2 DUP2 SUB PUSH1 0x0 DUP4 ADD MSTORE PUSH2 0x2A84 DUP2 PUSH2 0x2A48 JUMP JUMPDEST SWAP1 POP SWAP2 SWAP1 POP JUMP JUMPDEST PUSH1 0x0 DUP2 MLOAD SWAP1 POP SWAP2 SWAP1 POP JUMP JUMPDEST PUSH1 0x0 DUP2 SWAP1 POP SWAP3 SWAP2 POP POP JUMP JUMPDEST PUSH1 0x0 JUMPDEST DUP4 DUP2 LT ISZERO PUSH2 0x2ABF JUMPI DUP1 DUP3 ADD MLOAD DUP2 DUP5 ADD MSTORE PUSH1 0x20 DUP2 ADD SWAP1 POP PUSH2 0x2AA4 JUMP JUMPDEST PUSH1 0x0 DUP5 DUP5 ADD MSTORE POP POP POP POP JUMP JUMPDEST PUSH1 0x0 PUSH2 0x2AD6 DUP3 PUSH2 0x2A8B JUMP JUMPDEST PUSH2 0x2AE0 DUP2 DUP6 PUSH2 0x2A96 JUMP JUMPDEST SWAP4 POP PUSH2 0x2AF0 DUP2 DUP6 PUSH1 0x20 DUP7 ADD PUSH2 0x2AA1 JUMP JUMPDEST DUP1 DUP5 ADD SWAP2 POP POP SWAP3 SWAP2 POP POP JUMP JUMPDEST PUSH1 0x0 PUSH2 0x2B08 DUP3 DUP5 PUSH2 0x2ACB JUMP JUMPDEST SWAP2 POP DUP2 SWAP1 POP SWAP3 SWAP2 POP POP JUMP JUMPDEST PUSH32 0x416464726573733A2063616C6C20746F206E6F6E2D636F6E7472616374000000 PUSH1 0x0 DUP3 ADD MSTORE POP JUMP JUMPDEST PUSH1 0x0 PUSH2 0x2B49 PUSH1 0x1D DUP4 PUSH2 0x2842 JUMP JUMPDEST SWAP2 POP PUSH2 0x2B54 DUP3 PUSH2 0x2B13 JUMP JUMPDEST PUSH1 0x20 DUP3 ADD SWAP1 POP SWAP2 SWAP1 POP JUMP JUMPDEST PUSH1 0x0 PUSH1 0x20 DUP3 ADD SWAP1 POP DUP2 DUP2 SUB PUSH1 0x0 DUP4 ADD MSTORE PUSH2 0x2B78 DUP2 PUSH2 0x2B3C JUMP JUMPDEST SWAP1 POP SWAP2 SWAP1 POP JUMP JUMPDEST PUSH1 0x0 DUP2 MLOAD SWAP1 POP SWAP2 SWAP1 POP JUMP JUMPDEST PUSH1 0x0 PUSH1 0x1F NOT PUSH1 0x1F DUP4 ADD AND SWAP1 POP SWAP2 SWAP1 POP JUMP JUMPDEST PUSH1 0x0 PUSH2 0x2BA6 DUP3 PUSH2 0x2B7F JUMP JUMPDEST PUSH2 0x2BB0 DUP2 DUP6 PUSH2 0x2842 JUMP JUMPDEST SWAP4 POP PUSH2 0x2BC0 DUP2 DUP6 PUSH1 0x20 DUP7 ADD PUSH2 0x2AA1 JUMP JUMPDEST PUSH2 0x2BC9 DUP2 PUSH2 0x2B8A JUMP JUMPDEST DUP5 ADD SWAP2 POP POP SWAP3 SWAP2 POP POP JUMP JUMPDEST PUSH1 0x0 PUSH1 0x20 DUP3 ADD SWAP1 POP DUP2 DUP2 SUB PUSH1 0x0 DUP4 ADD MSTORE PUSH2 0x2BEE DUP2 DUP5 PUSH2 0x2B9B JUMP JUMPDEST SWAP1 POP SWAP3 SWAP2 POP POP JUMP INVALID LOG2 PUSH5 0x6970667358 0x22 SLT KECCAK256 JUMPDEST 0xEE XOR EXTCODECOPY LOG0 COINBASE SWAP10 SWAP3 SHL 0x22 0x22 SWAP7 SHR SWAP6 DUP1 NUMBER 0xD1 0xD TIMESTAMP 0x2C SWAP1 SHR 0xAE SWAP9 SWAP6 0xAE CODESIZE ISZERO 0xE3 0xCD PUSH2 0x3064 PUSH20 0x6F6C634300081300330000000000000000000000 "
				},
				"gasEstimates": {
					"creation": {
						"codeDepositCost": "2261600",
						"executionCost": "infinite",
						"totalCost": "infinite"
					},
					"external": {
						"Sale(uint64,address)": "infinite",
						"buy(address,address,uint128,uint128)": "infinite",
						"buyerWithdrawAirdorp(uint64)": "infinite",
						"buyerWithdrawRefund(uint64)": "infinite",
						"getPenal(uint128,uint128)": "infinite",
						"getPoolAddress(address,address,uint24)": "infinite",
						"injectFutureToken(uint64)": "infinite",
						"profileEarn(uint64)": "434",
						"solderWithdrawStable(uint64)": "infinite",
						"userIfWithdraw1(address,uint256)": "3154",
						"userIfWithdraw2(address,uint256)": "3153",
						"userIfWithdraw3(address,uint256)": "3132",
						"userIfWithdraw4(address,uint256)": "3175"
					},
					"internal": {
						"getBuyer(uint64)": "2266",
						"getSolder(uint64)": "2266"
					}
				},
				"methodIdentifiers": {
					"Sale(uint64,address)": "d91af492",
					"buy(address,address,uint128,uint128)": "0d45431d",
					"buyerWithdrawAirdorp(uint64)": "c0102de4",
					"buyerWithdrawRefund(uint64)": "2895cb7b",
					"getPenal(uint128,uint128)": "98c50fdd",
					"getPoolAddress(address,address,uint24)": "696d6283",
					"injectFutureToken(uint64)": "25ac3a73",
					"profileEarn(uint64)": "c3cf1aa6",
					"solderWithdrawStable(uint64)": "77bcd8a6",
					"userIfWithdraw1(address,uint256)": "59de2f60",
					"userIfWithdraw2(address,uint256)": "df0905c6",
					"userIfWithdraw3(address,uint256)": "b8d7f980",
					"userIfWithdraw4(address,uint256)": "fc993ea8"
				}
			},
			"storageLayout": {
				"storage": [
					{
						"astId": 19,
						"contract": "contracts/TimeMarket.sol:TimeMarket",
						"label": "clearingTime",
						"offset": 0,
						"slot": "0",
						"type": "t_uint56"
					},
					{
						"astId": 21,
						"contract": "contracts/TimeMarket.sol:TimeMarket",
						"label": "id",
						"offset": 7,
						"slot": "0",
						"type": "t_uint64"
					},
					{
						"astId": 23,
						"contract": "contracts/TimeMarket.sol:TimeMarket",
						"label": "airdropToken",
						"offset": 0,
						"slot": "1",
						"type": "t_address"
					},
					{
						"astId": 26,
						"contract": "contracts/TimeMarket.sol:TimeMarket",
						"label": "univ3Factory",
						"offset": 0,
						"slot": "2",
						"type": "t_address"
					},
					{
						"astId": 29,
						"contract": "contracts/TimeMarket.sol:TimeMarket",
						"label": "NonfungiblePositionManager",
						"offset": 0,
						"slot": "3",
						"type": "t_address"
					},
					{
						"astId": 53,
						"contract": "contracts/TimeMarket.sol:TimeMarket",
						"label": "_tradeMes",
						"offset": 0,
						"slot": "4",
						"type": "t_mapping(t_uint64,t_struct(tradeMes)1177_storage)"
					},
					{
						"astId": 59,
						"contract": "contracts/TimeMarket.sol:TimeMarket",
						"label": "ifInject",
						"offset": 0,
						"slot": "5",
						"type": "t_mapping(t_address,t_mapping(t_uint256,t_bool))"
					},
					{
						"astId": 65,
						"contract": "contracts/TimeMarket.sol:TimeMarket",
						"label": "userIfWithdraw1",
						"offset": 0,
						"slot": "6",
						"type": "t_mapping(t_address,t_mapping(t_uint256,t_bool))"
					},
					{
						"astId": 71,
						"contract": "contracts/TimeMarket.sol:TimeMarket",
						"label": "userIfWithdraw2",
						"offset": 0,
						"slot": "7",
						"type": "t_mapping(t_address,t_mapping(t_uint256,t_bool))"
					},
					{
						"astId": 77,
						"contract": "contracts/TimeMarket.sol:TimeMarket",
						"label": "userIfWithdraw3",
						"offset": 0,
						"slot": "8",
						"type": "t_mapping(t_address,t_mapping(t_uint256,t_bool))"
					},
					{
						"astId": 83,
						"contract": "contracts/TimeMarket.sol:TimeMarket",
						"label": "userIfWithdraw4",
						"offset": 0,
						"slot": "9",
						"type": "t_mapping(t_address,t_mapping(t_uint256,t_bool))"
					}
				],
				"types": {
					"t_address": {
						"encoding": "inplace",
						"label": "address",
						"numberOfBytes": "20"
					},
					"t_bool": {
						"encoding": "inplace",
						"label": "bool",
						"numberOfBytes": "1"
					},
					"t_mapping(t_address,t_mapping(t_uint256,t_bool))": {
						"encoding": "mapping",
						"key": "t_address",
						"label": "mapping(address => mapping(uint256 => bool))",
						"numberOfBytes": "32",
						"value": "t_mapping(t_uint256,t_bool)"
					},
					"t_mapping(t_uint256,t_bool)": {
						"encoding": "mapping",
						"key": "t_uint256",
						"label": "mapping(uint256 => bool)",
						"numberOfBytes": "32",
						"value": "t_bool"
					},
					"t_mapping(t_uint64,t_struct(tradeMes)1177_storage)": {
						"encoding": "mapping",
						"key": "t_uint64",
						"label": "mapping(uint64 => struct ITimeStruct.tradeMes)",
						"numberOfBytes": "32",
						"value": "t_struct(tradeMes)1177_storage"
					},
					"t_struct(tradeMes)1177_storage": {
						"encoding": "inplace",
						"label": "struct ITimeStruct.tradeMes",
						"members": [
							{
								"astId": 1162,
								"contract": "contracts/TimeMarket.sol:TimeMarket",
								"label": "tradeState",
								"offset": 0,
								"slot": "0",
								"type": "t_uint8"
							},
							{
								"astId": 1164,
								"contract": "contracts/TimeMarket.sol:TimeMarket",
								"label": "tradeId",
								"offset": 1,
								"slot": "0",
								"type": "t_uint64"
							},
							{
								"astId": 1166,
								"contract": "contracts/TimeMarket.sol:TimeMarket",
								"label": "buyTime",
								"offset": 9,
								"slot": "0",
								"type": "t_uint56"
							},
							{
								"astId": 1168,
								"contract": "contracts/TimeMarket.sol:TimeMarket",
								"label": "buyTotalAmount",
								"offset": 16,
								"slot": "0",
								"type": "t_uint128"
							},
							{
								"astId": 1170,
								"contract": "contracts/TimeMarket.sol:TimeMarket",
								"label": "buyPrice",
								"offset": 0,
								"slot": "1",
								"type": "t_uint128"
							},
							{
								"astId": 1172,
								"contract": "contracts/TimeMarket.sol:TimeMarket",
								"label": "tokenAddress",
								"offset": 0,
								"slot": "2",
								"type": "t_address"
							},
							{
								"astId": 1174,
								"contract": "contracts/TimeMarket.sol:TimeMarket",
								"label": "buyerAddress",
								"offset": 0,
								"slot": "3",
								"type": "t_address"
							},
							{
								"astId": 1176,
								"contract": "contracts/TimeMarket.sol:TimeMarket",
								"label": "solderAddress",
								"offset": 0,
								"slot": "4",
								"type": "t_address"
							}
						],
						"numberOfBytes": "160"
					},
					"t_uint128": {
						"encoding": "inplace",
						"label": "uint128",
						"numberOfBytes": "16"
					},
					"t_uint256": {
						"encoding": "inplace",
						"label": "uint256",
						"numberOfBytes": "32"
					},
					"t_uint56": {
						"encoding": "inplace",
						"label": "uint56",
						"numberOfBytes": "7"
					},
					"t_uint64": {
						"encoding": "inplace",
						"label": "uint64",
						"numberOfBytes": "8"
					},
					"t_uint8": {
						"encoding": "inplace",
						"label": "uint8",
						"numberOfBytes": "1"
					}
				}
			},
			"userdoc": {
				"kind": "user",
				"methods": {},
				"version": 1
			}
		}
	}
}