{
	"contracts/TimeMiddle.sol": {
		"TimeMiddle": {
			"abi": [
				{
					"anonymous": false,
					"inputs": [
						{
							"indexed": true,
							"internalType": "address",
							"name": "previousOwner",
							"type": "address"
						},
						{
							"indexed": true,
							"internalType": "address",
							"name": "newOwner",
							"type": "address"
						}
					],
					"name": "OwnershipTransferred",
					"type": "event"
				},
				{
					"inputs": [
						{
							"internalType": "address",
							"name": "newSupervisor",
							"type": "address"
						}
					],
					"name": "addSuperVisor",
					"outputs": [],
					"stateMutability": "nonpayable",
					"type": "function"
				},
				{
					"inputs": [
						{
							"internalType": "uint128",
							"name": "_disputeId",
							"type": "uint128"
						}
					],
					"name": "checkDispute",
					"outputs": [],
					"stateMutability": "nonpayable",
					"type": "function"
				},
				{
					"inputs": [
						{
							"internalType": "address",
							"name": "userAddress",
							"type": "address"
						}
					],
					"name": "checkIfSupervisor",
					"outputs": [
						{
							"internalType": "bool",
							"name": "userState",
							"type": "bool"
						}
					],
					"stateMutability": "view",
					"type": "function"
				},
				{
					"inputs": [
						{
							"internalType": "address",
							"name": "_airdropContract",
							"type": "address"
						},
						{
							"internalType": "string",
							"name": "_disputeName",
							"type": "string"
						},
						{
							"internalType": "string",
							"name": "_disputeThing",
							"type": "string"
						},
						{
							"internalType": "uint128",
							"name": "_disputeId",
							"type": "uint128"
						}
					],
					"name": "createDispute",
					"outputs": [],
					"stateMutability": "nonpayable",
					"type": "function"
				},
				{
					"inputs": [],
					"name": "getAllSupervisor",
					"outputs": [
						{
							"internalType": "address[]",
							"name": "",
							"type": "address[]"
						}
					],
					"stateMutability": "view",
					"type": "function"
				},
				{
					"inputs": [
						{
							"internalType": "address",
							"name": "_airdropContract",
							"type": "address"
						}
					],
					"name": "getClearId",
					"outputs": [
						{
							"internalType": "uint256",
							"name": "",
							"type": "uint256"
						}
					],
					"stateMutability": "view",
					"type": "function"
				},
				{
					"inputs": [
						{
							"internalType": "uint256",
							"name": "_number",
							"type": "uint256"
						},
						{
							"internalType": "address",
							"name": "_airdropContract",
							"type": "address"
						}
					],
					"name": "getClearTime",
					"outputs": [
						{
							"internalType": "uint256",
							"name": "",
							"type": "uint256"
						}
					],
					"stateMutability": "view",
					"type": "function"
				},
				{
					"inputs": [],
					"name": "getFutureTokenAddress",
					"outputs": [
						{
							"internalType": "address",
							"name": "",
							"type": "address"
						}
					],
					"stateMutability": "view",
					"type": "function"
				},
				{
					"inputs": [],
					"name": "getLastNumber",
					"outputs": [
						{
							"internalType": "uint256",
							"name": "",
							"type": "uint256"
						}
					],
					"stateMutability": "view",
					"type": "function"
				},
				{
					"inputs": [
						{
							"internalType": "uint256",
							"name": "_disputeId",
							"type": "uint256"
						}
					],
					"name": "ifPass",
					"outputs": [
						{
							"internalType": "bool",
							"name": "",
							"type": "bool"
						}
					],
					"stateMutability": "view",
					"type": "function"
				},
				{
					"inputs": [],
					"name": "owner",
					"outputs": [
						{
							"internalType": "address",
							"name": "",
							"type": "address"
						}
					],
					"stateMutability": "view",
					"type": "function"
				},
				{
					"inputs": [
						{
							"internalType": "address",
							"name": "newSupervisor",
							"type": "address"
						}
					],
					"name": "removeSuperVisor",
					"outputs": [],
					"stateMutability": "nonpayable",
					"type": "function"
				},
				{
					"inputs": [],
					"name": "renounceOwnership",
					"outputs": [],
					"stateMutability": "nonpayable",
					"type": "function"
				},
				{
					"inputs": [
						{
							"internalType": "uint256",
							"name": "_clearTime",
							"type": "uint256"
						},
						{
							"internalType": "address",
							"name": "airdropContract",
							"type": "address"
						},
						{
							"internalType": "address",
							"name": "_futureToken",
							"type": "address"
						}
					],
					"name": "setCleanTime",
					"outputs": [],
					"stateMutability": "nonpayable",
					"type": "function"
				},
				{
					"inputs": [
						{
							"internalType": "address",
							"name": "newOwner",
							"type": "address"
						}
					],
					"name": "transferOwnership",
					"outputs": [],
					"stateMutability": "nonpayable",
					"type": "function"
				}
			],
			"devdoc": {
				"kind": "dev",
				"methods": {
					"owner()": {
						"details": "Returns the address of the current owner."
					},
					"renounceOwnership()": {
						"details": "Leaves the contract without owner. It will not be possible to call `onlyOwner` functions. Can only be called by the current owner. NOTE: Renouncing ownership will leave the contract without an owner, thereby disabling any functionality that is only available to the owner."
					},
					"transferOwnership(address)": {
						"details": "Transfers ownership of the contract to a new account (`newOwner`). Can only be called by the current owner."
					}
				},
				"version": 1
			},
			"evm": {
				"assembly": "    /* \"contracts/TimeMiddle.sol\":112:4427  contract TimeMiddle is Ownable{... */\n  mstore(0x40, 0x80)\n  callvalue\n  dup1\n  iszero\n  tag_1\n  jumpi\n  0x00\n  dup1\n  revert\ntag_1:\n  pop\n    /* \"@openzeppelin/contracts/access/Ownable.sol\":936:968  _transferOwnership(_msgSender()) */\n  tag_4\n    /* \"@openzeppelin/contracts/access/Ownable.sol\":955:967  _msgSender() */\n  tag_5\n    /* \"@openzeppelin/contracts/access/Ownable.sol\":955:965  _msgSender */\n  shl(0x20, tag_6)\n    /* \"@openzeppelin/contracts/access/Ownable.sol\":955:967  _msgSender() */\n  0x20\n  shr\n  jump\t// in\ntag_5:\n    /* \"@openzeppelin/contracts/access/Ownable.sol\":936:954  _transferOwnership */\n  shl(0x20, tag_7)\n    /* \"@openzeppelin/contracts/access/Ownable.sol\":936:968  _transferOwnership(_msgSender()) */\n  0x20\n  shr\n  jump\t// in\ntag_4:\n    /* \"contracts/TimeMiddle.sol\":112:4427  contract TimeMiddle is Ownable{... */\n  jump(tag_8)\n    /* \"@openzeppelin/contracts/utils/Context.sol\":640:736  function _msgSender() internal view virtual returns (address) {... */\ntag_6:\n    /* \"@openzeppelin/contracts/utils/Context.sol\":693:700  address */\n  0x00\n    /* \"@openzeppelin/contracts/utils/Context.sol\":719:729  msg.sender */\n  caller\n    /* \"@openzeppelin/contracts/utils/Context.sol\":712:729  return msg.sender */\n  swap1\n  pop\n    /* \"@openzeppelin/contracts/utils/Context.sol\":640:736  function _msgSender() internal view virtual returns (address) {... */\n  swap1\n  jump\t// out\n    /* \"@openzeppelin/contracts/access/Ownable.sol\":2426:2613  function _transferOwnership(address newOwner) internal virtual {... */\ntag_7:\n    /* \"@openzeppelin/contracts/access/Ownable.sol\":2499:2515  address oldOwner */\n  0x00\n    /* \"@openzeppelin/contracts/access/Ownable.sol\":2518:2524  _owner */\n  dup1\n  0x00\n  swap1\n  sload\n  swap1\n  0x0100\n  exp\n  swap1\n  div\n  0xffffffffffffffffffffffffffffffffffffffff\n  and\n    /* \"@openzeppelin/contracts/access/Ownable.sol\":2499:2524  address oldOwner = _owner */\n  swap1\n  pop\n    /* \"@openzeppelin/contracts/access/Ownable.sol\":2543:2551  newOwner */\n  dup2\n    /* \"@openzeppelin/contracts/access/Ownable.sol\":2534:2540  _owner */\n  0x00\n  dup1\n    /* \"@openzeppelin/contracts/access/Ownable.sol\":2534:2551  _owner = newOwner */\n  0x0100\n  exp\n  dup2\n  sload\n  dup2\n  0xffffffffffffffffffffffffffffffffffffffff\n  mul\n  not\n  and\n  swap1\n  dup4\n  0xffffffffffffffffffffffffffffffffffffffff\n  and\n  mul\n  or\n  swap1\n  sstore\n  pop\n    /* \"@openzeppelin/contracts/access/Ownable.sol\":2597:2605  newOwner */\n  dup2\n    /* \"@openzeppelin/contracts/access/Ownable.sol\":2566:2606  OwnershipTransferred(oldOwner, newOwner) */\n  0xffffffffffffffffffffffffffffffffffffffff\n  and\n    /* \"@openzeppelin/contracts/access/Ownable.sol\":2587:2595  oldOwner */\n  dup2\n    /* \"@openzeppelin/contracts/access/Ownable.sol\":2566:2606  OwnershipTransferred(oldOwner, newOwner) */\n  0xffffffffffffffffffffffffffffffffffffffff\n  and\n  0x8be0079c531659141344cd1fd0a4f28419497f9722a3daafe3b4186f6b6457e0\n  mload(0x40)\n  mload(0x40)\n  dup1\n  swap2\n  sub\n  swap1\n  log3\n    /* \"@openzeppelin/contracts/access/Ownable.sol\":2489:2613  {... */\n  pop\n    /* \"@openzeppelin/contracts/access/Ownable.sol\":2426:2613  function _transferOwnership(address newOwner) internal virtual {... */\n  pop\n  jump\t// out\n    /* \"contracts/TimeMiddle.sol\":112:4427  contract TimeMiddle is Ownable{... */\ntag_8:\n  dataSize(sub_0)\n  dup1\n  dataOffset(sub_0)\n  0x00\n  codecopy\n  0x00\n  return\nstop\n\nsub_0: assembly {\n        /* \"contracts/TimeMiddle.sol\":112:4427  contract TimeMiddle is Ownable{... */\n      mstore(0x40, 0x80)\n      callvalue\n      dup1\n      iszero\n      tag_1\n      jumpi\n      0x00\n      dup1\n      revert\n    tag_1:\n      pop\n      jumpi(tag_2, lt(calldatasize, 0x04))\n      shr(0xe0, calldataload(0x00))\n      dup1\n      0x66bba4f5\n      gt\n      tag_18\n      jumpi\n      dup1\n      0xa72124b7\n      gt\n      tag_19\n      jumpi\n      dup1\n      0xa72124b7\n      eq\n      tag_14\n      jumpi\n      dup1\n      0xd7867905\n      eq\n      tag_15\n      jumpi\n      dup1\n      0xe64aa3e8\n      eq\n      tag_16\n      jumpi\n      dup1\n      0xf2fde38b\n      eq\n      tag_17\n      jumpi\n      jump(tag_2)\n    tag_19:\n      dup1\n      0x66bba4f5\n      eq\n      tag_10\n      jumpi\n      dup1\n      0x682c0fc1\n      eq\n      tag_11\n      jumpi\n      dup1\n      0x715018a6\n      eq\n      tag_12\n      jumpi\n      dup1\n      0x8da5cb5b\n      eq\n      tag_13\n      jumpi\n      jump(tag_2)\n    tag_18:\n      dup1\n      0x479c32ec\n      gt\n      tag_20\n      jumpi\n      dup1\n      0x479c32ec\n      eq\n      tag_6\n      jumpi\n      dup1\n      0x4b6ab77b\n      eq\n      tag_7\n      jumpi\n      dup1\n      0x52950c9a\n      eq\n      tag_8\n      jumpi\n      dup1\n      0x5974b4d5\n      eq\n      tag_9\n      jumpi\n      jump(tag_2)\n    tag_20:\n      dup1\n      0x1049dc34\n      eq\n      tag_3\n      jumpi\n      dup1\n      0x158f2cae\n      eq\n      tag_4\n      jumpi\n      dup1\n      0x1df058f5\n      eq\n      tag_5\n      jumpi\n    tag_2:\n      0x00\n      dup1\n      revert\n        /* \"contracts/TimeMiddle.sol\":1485:1688  function addSuperVisor(address newSupervisor)external onlyOwner{... */\n    tag_3:\n      tag_21\n      0x04\n      dup1\n      calldatasize\n      sub\n      dup2\n      add\n      swap1\n      tag_22\n      swap2\n      swap1\n      tag_23\n      jump\t// in\n    tag_22:\n      tag_24\n      jump\t// in\n    tag_21:\n      stop\n        /* \"contracts/TimeMiddle.sol\":3061:3279  function ifPass(uint256 _disputeId)public view returns(bool){... */\n    tag_4:\n      tag_25\n      0x04\n      dup1\n      calldatasize\n      sub\n      dup2\n      add\n      swap1\n      tag_26\n      swap2\n      swap1\n      tag_27\n      jump\t// in\n    tag_26:\n      tag_28\n      jump\t// in\n    tag_25:\n      mload(0x40)\n      tag_29\n      swap2\n      swap1\n      tag_30\n      jump\t// in\n    tag_29:\n      mload(0x40)\n      dup1\n      swap2\n      sub\n      swap1\n      return\n        /* \"contracts/TimeMiddle.sol\":2521:2970  function checkDispute(uint128 _disputeId)external{... */\n    tag_5:\n      tag_31\n      0x04\n      dup1\n      calldatasize\n      sub\n      dup2\n      add\n      swap1\n      tag_32\n      swap2\n      swap1\n      tag_33\n      jump\t// in\n    tag_32:\n      tag_34\n      jump\t// in\n    tag_31:\n      stop\n        /* \"contracts/TimeMiddle.sol\":4313:4420  function getAllSupervisor()external view returns(address[] memory){... */\n    tag_6:\n      tag_35\n      tag_36\n      jump\t// in\n    tag_35:\n      mload(0x40)\n      tag_37\n      swap2\n      swap1\n      tag_38\n      jump\t// in\n    tag_37:\n      mload(0x40)\n      dup1\n      swap2\n      sub\n      swap1\n      return\n        /* \"contracts/TimeMiddle.sol\":4005:4141  function getClearId(address _airdropContract)external view returns(uint256){... */\n    tag_7:\n      tag_39\n      0x04\n      dup1\n      calldatasize\n      sub\n      dup2\n      add\n      swap1\n      tag_40\n      swap2\n      swap1\n      tag_23\n      jump\t// in\n    tag_40:\n      tag_41\n      jump\t// in\n    tag_39:\n      mload(0x40)\n      tag_42\n      swap2\n      swap1\n      tag_43\n      jump\t// in\n    tag_42:\n      mload(0x40)\n      dup1\n      swap2\n      sub\n      swap1\n      return\n        /* \"contracts/TimeMiddle.sol\":2091:2487  function createDispute(address _airdropContract,string calldata _disputeName,string calldata _disputeThing,uint128 _disputeId)external{... */\n    tag_8:\n      tag_44\n      0x04\n      dup1\n      calldatasize\n      sub\n      dup2\n      add\n      swap1\n      tag_45\n      swap2\n      swap1\n      tag_46\n      jump\t// in\n    tag_45:\n      tag_47\n      jump\t// in\n    tag_44:\n      stop\n        /* \"contracts/TimeMiddle.sol\":1059:1454  function setCleanTime(uint256 _clearTime, address airdropContract, address _futureToken)external onlyOwner{... */\n    tag_9:\n      tag_48\n      0x04\n      dup1\n      calldatasize\n      sub\n      dup2\n      add\n      swap1\n      tag_49\n      swap2\n      swap1\n      tag_50\n      jump\t// in\n    tag_49:\n      tag_51\n      jump\t// in\n    tag_48:\n      stop\n        /* \"contracts/TimeMiddle.sol\":3457:3706  function checkIfSupervisor(address userAddress)public view returns(bool userState){... */\n    tag_10:\n      tag_52\n      0x04\n      dup1\n      calldatasize\n      sub\n      dup2\n      add\n      swap1\n      tag_53\n      swap2\n      swap1\n      tag_23\n      jump\t// in\n    tag_53:\n      tag_54\n      jump\t// in\n    tag_52:\n      mload(0x40)\n      tag_55\n      swap2\n      swap1\n      tag_30\n      jump\t// in\n    tag_55:\n      mload(0x40)\n      dup1\n      swap2\n      sub\n      swap1\n      return\n        /* \"contracts/TimeMiddle.sol\":4190:4276  function getLastNumber()external view returns(uint256){... */\n    tag_11:\n      tag_56\n      tag_57\n      jump\t// in\n    tag_56:\n      mload(0x40)\n      tag_58\n      swap2\n      swap1\n      tag_43\n      jump\t// in\n    tag_58:\n      mload(0x40)\n      dup1\n      swap2\n      sub\n      swap1\n      return\n        /* \"@openzeppelin/contracts/access/Ownable.sol\":1824:1925  function renounceOwnership() public virtual onlyOwner {... */\n    tag_12:\n      tag_59\n      tag_60\n      jump\t// in\n    tag_59:\n      stop\n        /* \"@openzeppelin/contracts/access/Ownable.sol\":1201:1286  function owner() public view virtual returns (address) {... */\n    tag_13:\n      tag_61\n      tag_62\n      jump\t// in\n    tag_61:\n      mload(0x40)\n      tag_63\n      swap2\n      swap1\n      tag_64\n      jump\t// in\n    tag_63:\n      mload(0x40)\n      dup1\n      swap2\n      sub\n      swap1\n      return\n        /* \"contracts/TimeMiddle.sol\":3318:3417  function getFutureTokenAddress()external view returns(address){... */\n    tag_14:\n      tag_65\n      tag_66\n      jump\t// in\n    tag_65:\n      mload(0x40)\n      tag_67\n      swap2\n      swap1\n      tag_64\n      jump\t// in\n    tag_67:\n      mload(0x40)\n      dup1\n      swap2\n      sub\n      swap1\n      return\n        /* \"contracts/TimeMiddle.sol\":3746:3975  function getClearTime(uint256 _number,address _airdropContract)external view returns(uint256){... */\n    tag_15:\n      tag_68\n      0x04\n      dup1\n      calldatasize\n      sub\n      dup2\n      add\n      swap1\n      tag_69\n      swap2\n      swap1\n      tag_70\n      jump\t// in\n    tag_69:\n      tag_71\n      jump\t// in\n    tag_68:\n      mload(0x40)\n      tag_72\n      swap2\n      swap1\n      tag_43\n      jump\t// in\n    tag_72:\n      mload(0x40)\n      dup1\n      swap2\n      sub\n      swap1\n      return\n        /* \"contracts/TimeMiddle.sol\":1719:2048  function removeSuperVisor(address newSupervisor)external onlyOwner{... */\n    tag_16:\n      tag_73\n      0x04\n      dup1\n      calldatasize\n      sub\n      dup2\n      add\n      swap1\n      tag_74\n      swap2\n      swap1\n      tag_23\n      jump\t// in\n    tag_74:\n      tag_75\n      jump\t// in\n    tag_73:\n      stop\n        /* \"@openzeppelin/contracts/access/Ownable.sol\":2074:2272  function transferOwnership(address newOwner) public virtual onlyOwner {... */\n    tag_17:\n      tag_76\n      0x04\n      dup1\n      calldatasize\n      sub\n      dup2\n      add\n      swap1\n      tag_77\n      swap2\n      swap1\n      tag_23\n      jump\t// in\n    tag_77:\n      tag_78\n      jump\t// in\n    tag_76:\n      stop\n        /* \"contracts/TimeMiddle.sol\":1485:1688  function addSuperVisor(address newSupervisor)external onlyOwner{... */\n    tag_24:\n        /* \"@openzeppelin/contracts/access/Ownable.sol\":1094:1107  _checkOwner() */\n      tag_80\n        /* \"@openzeppelin/contracts/access/Ownable.sol\":1094:1105  _checkOwner */\n      tag_81\n        /* \"@openzeppelin/contracts/access/Ownable.sol\":1094:1107  _checkOwner() */\n      jump\t// in\n    tag_80:\n        /* \"contracts/TimeMiddle.sol\":1601:1605  true */\n      0x01\n        /* \"contracts/TimeMiddle.sol\":1567:1605  checkIfSupervisor(newSupervisor)!=true */\n      iszero\n      iszero\n        /* \"contracts/TimeMiddle.sol\":1567:1599  checkIfSupervisor(newSupervisor) */\n      tag_83\n        /* \"contracts/TimeMiddle.sol\":1585:1598  newSupervisor */\n      dup3\n        /* \"contracts/TimeMiddle.sol\":1567:1584  checkIfSupervisor */\n      tag_54\n        /* \"contracts/TimeMiddle.sol\":1567:1599  checkIfSupervisor(newSupervisor) */\n      jump\t// in\n    tag_83:\n        /* \"contracts/TimeMiddle.sol\":1567:1605  checkIfSupervisor(newSupervisor)!=true */\n      iszero\n      iszero\n      sub\n        /* \"contracts/TimeMiddle.sol\":1559:1606  require(checkIfSupervisor(newSupervisor)!=true) */\n      tag_84\n      jumpi\n      0x00\n      dup1\n      revert\n    tag_84:\n        /* \"contracts/TimeMiddle.sol\":1645:1660  supervisorGroup */\n      0x03\n        /* \"contracts/TimeMiddle.sol\":1666:1679  newSupervisor */\n      dup2\n        /* \"contracts/TimeMiddle.sol\":1645:1680  supervisorGroup.push(newSupervisor) */\n      swap1\n      dup1\n      0x01\n      dup2\n      sload\n      add\n      dup1\n      dup3\n      sstore\n      dup1\n      swap2\n      pop\n      pop\n      0x01\n      swap1\n      sub\n      swap1\n      0x00\n      mstore\n      keccak256(0x00, 0x20)\n      add\n      0x00\n      swap1\n      swap2\n      swap1\n      swap2\n      swap1\n      swap2\n      0x0100\n      exp\n      dup2\n      sload\n      dup2\n      0xffffffffffffffffffffffffffffffffffffffff\n      mul\n      not\n      and\n      swap1\n      dup4\n      0xffffffffffffffffffffffffffffffffffffffff\n      and\n      mul\n      or\n      swap1\n      sstore\n      pop\n        /* \"contracts/TimeMiddle.sol\":1485:1688  function addSuperVisor(address newSupervisor)external onlyOwner{... */\n      pop\n      jump\t// out\n        /* \"contracts/TimeMiddle.sol\":3061:3279  function ifPass(uint256 _disputeId)public view returns(bool){... */\n    tag_28:\n        /* \"contracts/TimeMiddle.sol\":3116:3120  bool */\n      0x00\n        /* \"contracts/TimeMiddle.sol\":3188:3189  1 */\n      0x01\n        /* \"contracts/TimeMiddle.sol\":3186:3187  2 */\n      0x02\n        /* \"contracts/TimeMiddle.sol\":3163:3178  supervisorGroup */\n      0x03\n        /* \"contracts/TimeMiddle.sol\":3163:3185  supervisorGroup.length */\n      dup1\n      sload\n      swap1\n      pop\n        /* \"contracts/TimeMiddle.sol\":3163:3187  supervisorGroup.length/2 */\n      tag_87\n      swap2\n      swap1\n      tag_88\n      jump\t// in\n    tag_87:\n        /* \"contracts/TimeMiddle.sol\":3163:3189  supervisorGroup.length/2+1 */\n      tag_89\n      swap2\n      swap1\n      tag_90\n      jump\t// in\n    tag_89:\n        /* \"contracts/TimeMiddle.sol\":3135:3148  disputeIfPass */\n      0x05\n        /* \"contracts/TimeMiddle.sol\":3135:3160  disputeIfPass[_disputeId] */\n      0x00\n        /* \"contracts/TimeMiddle.sol\":3149:3159  _disputeId */\n      dup5\n        /* \"contracts/TimeMiddle.sol\":3135:3160  disputeIfPass[_disputeId] */\n      dup2\n      mstore\n      0x20\n      add\n      swap1\n      dup2\n      mstore\n      0x20\n      add\n      0x00\n      keccak256\n      sload\n        /* \"contracts/TimeMiddle.sol\":3135:3190  disputeIfPass[_disputeId]>=(supervisorGroup.length/2+1) */\n      lt\n        /* \"contracts/TimeMiddle.sol\":3132:3272  if(disputeIfPass[_disputeId]>=(supervisorGroup.length/2+1)){... */\n      tag_91\n      jumpi\n        /* \"contracts/TimeMiddle.sol\":3213:3217  true */\n      0x01\n        /* \"contracts/TimeMiddle.sol\":3206:3217  return true */\n      swap1\n      pop\n      jump(tag_86)\n        /* \"contracts/TimeMiddle.sol\":3132:3272  if(disputeIfPass[_disputeId]>=(supervisorGroup.length/2+1)){... */\n    tag_91:\n        /* \"contracts/TimeMiddle.sol\":3255:3260  false */\n      0x00\n        /* \"contracts/TimeMiddle.sol\":3248:3260  return false */\n      swap1\n      pop\n        /* \"contracts/TimeMiddle.sol\":3061:3279  function ifPass(uint256 _disputeId)public view returns(bool){... */\n    tag_86:\n      swap2\n      swap1\n      pop\n      jump\t// out\n        /* \"contracts/TimeMiddle.sol\":2521:2970  function checkDispute(uint128 _disputeId)external{... */\n    tag_34:\n        /* \"contracts/TimeMiddle.sol\":2630:2635  false */\n      0x00\n        /* \"contracts/TimeMiddle.sol\":2589:2635  ifVoteDispute[msg.sender][_disputeId] == false */\n      iszero\n      iszero\n        /* \"contracts/TimeMiddle.sol\":2589:2602  ifVoteDispute */\n      0x06\n        /* \"contracts/TimeMiddle.sol\":2589:2614  ifVoteDispute[msg.sender] */\n      0x00\n        /* \"contracts/TimeMiddle.sol\":2603:2613  msg.sender */\n      caller\n        /* \"contracts/TimeMiddle.sol\":2589:2614  ifVoteDispute[msg.sender] */\n      0xffffffffffffffffffffffffffffffffffffffff\n      and\n      0xffffffffffffffffffffffffffffffffffffffff\n      and\n      dup2\n      mstore\n      0x20\n      add\n      swap1\n      dup2\n      mstore\n      0x20\n      add\n      0x00\n      keccak256\n        /* \"contracts/TimeMiddle.sol\":2589:2626  ifVoteDispute[msg.sender][_disputeId] */\n      0x00\n        /* \"contracts/TimeMiddle.sol\":2615:2625  _disputeId */\n      dup4\n        /* \"contracts/TimeMiddle.sol\":2589:2626  ifVoteDispute[msg.sender][_disputeId] */\n      0xffffffffffffffffffffffffffffffff\n      and\n      dup2\n      mstore\n      0x20\n      add\n      swap1\n      dup2\n      mstore\n      0x20\n      add\n      0x00\n      keccak256\n      0x00\n      swap1\n      sload\n      swap1\n      0x0100\n      exp\n      swap1\n      div\n      0xff\n      and\n        /* \"contracts/TimeMiddle.sol\":2589:2635  ifVoteDispute[msg.sender][_disputeId] == false */\n      iszero\n      iszero\n      eq\n        /* \"contracts/TimeMiddle.sol\":2581:2651  require(ifVoteDispute[msg.sender][_disputeId] == false,\"Already vote\") */\n      tag_94\n      jumpi\n      mload(0x40)\n      0x08c379a000000000000000000000000000000000000000000000000000000000\n      dup2\n      mstore\n      0x04\n      add\n      tag_95\n      swap1\n      tag_96\n      jump\t// in\n    tag_95:\n      mload(0x40)\n      dup1\n      swap2\n      sub\n      swap1\n      revert\n    tag_94:\n        /* \"contracts/TimeMiddle.sol\":2709:2738  checkIfSupervisor(msg.sender) */\n      tag_97\n        /* \"contracts/TimeMiddle.sol\":2727:2737  msg.sender */\n      caller\n        /* \"contracts/TimeMiddle.sol\":2709:2726  checkIfSupervisor */\n      tag_54\n        /* \"contracts/TimeMiddle.sol\":2709:2738  checkIfSupervisor(msg.sender) */\n      jump\t// in\n    tag_97:\n        /* \"contracts/TimeMiddle.sol\":2701:2756  require(checkIfSupervisor(msg.sender),\"Not supervisor\") */\n      tag_98\n      jumpi\n      mload(0x40)\n      0x08c379a000000000000000000000000000000000000000000000000000000000\n      dup2\n      mstore\n      0x04\n      add\n      tag_99\n      swap1\n      tag_100\n      jump\t// in\n    tag_99:\n      mload(0x40)\n      dup1\n      swap2\n      sub\n      swap1\n      revert\n    tag_98:\n        /* \"contracts/TimeMiddle.sol\":2814:2819  false */\n      0x00\n        /* \"contracts/TimeMiddle.sol\":2794:2819  ifPass(_disputeId)==false */\n      iszero\n      iszero\n        /* \"contracts/TimeMiddle.sol\":2794:2812  ifPass(_disputeId) */\n      tag_101\n        /* \"contracts/TimeMiddle.sol\":2801:2811  _disputeId */\n      dup3\n        /* \"contracts/TimeMiddle.sol\":2794:2812  ifPass(_disputeId) */\n      0xffffffffffffffffffffffffffffffff\n      and\n        /* \"contracts/TimeMiddle.sol\":2794:2800  ifPass */\n      tag_28\n        /* \"contracts/TimeMiddle.sol\":2794:2812  ifPass(_disputeId) */\n      jump\t// in\n    tag_101:\n        /* \"contracts/TimeMiddle.sol\":2794:2819  ifPass(_disputeId)==false */\n      iszero\n      iszero\n      eq\n        /* \"contracts/TimeMiddle.sol\":2786:2827  require(ifPass(_disputeId)==false,\"Pass\") */\n      tag_102\n      jumpi\n      mload(0x40)\n      0x08c379a000000000000000000000000000000000000000000000000000000000\n      dup2\n      mstore\n      0x04\n      add\n      tag_103\n      swap1\n      tag_104\n      jump\t// in\n    tag_103:\n      mload(0x40)\n      dup1\n      swap2\n      sub\n      swap1\n      revert\n    tag_102:\n        /* \"contracts/TimeMiddle.sol\":2882:2895  disputeIfPass */\n      0x05\n        /* \"contracts/TimeMiddle.sol\":2882:2907  disputeIfPass[_disputeId] */\n      0x00\n        /* \"contracts/TimeMiddle.sol\":2896:2906  _disputeId */\n      dup3\n        /* \"contracts/TimeMiddle.sol\":2882:2907  disputeIfPass[_disputeId] */\n      0xffffffffffffffffffffffffffffffff\n      and\n      dup2\n      mstore\n      0x20\n      add\n      swap1\n      dup2\n      mstore\n      0x20\n      add\n      0x00\n      keccak256\n      0x00\n        /* \"contracts/TimeMiddle.sol\":2882:2909  disputeIfPass[_disputeId]++ */\n      dup2\n      sload\n      dup1\n      swap3\n      swap2\n      swap1\n      tag_105\n      swap1\n      tag_106\n      jump\t// in\n    tag_105:\n      swap2\n      swap1\n      pop\n      sstore\n      pop\n        /* \"contracts/TimeMiddle.sol\":2958:2962  true */\n      0x01\n        /* \"contracts/TimeMiddle.sol\":2920:2933  ifVoteDispute */\n      0x06\n        /* \"contracts/TimeMiddle.sol\":2920:2945  ifVoteDispute[msg.sender] */\n      0x00\n        /* \"contracts/TimeMiddle.sol\":2934:2944  msg.sender */\n      caller\n        /* \"contracts/TimeMiddle.sol\":2920:2945  ifVoteDispute[msg.sender] */\n      0xffffffffffffffffffffffffffffffffffffffff\n      and\n      0xffffffffffffffffffffffffffffffffffffffff\n      and\n      dup2\n      mstore\n      0x20\n      add\n      swap1\n      dup2\n      mstore\n      0x20\n      add\n      0x00\n      keccak256\n        /* \"contracts/TimeMiddle.sol\":2920:2957  ifVoteDispute[msg.sender][_disputeId] */\n      0x00\n        /* \"contracts/TimeMiddle.sol\":2946:2956  _disputeId */\n      dup4\n        /* \"contracts/TimeMiddle.sol\":2920:2957  ifVoteDispute[msg.sender][_disputeId] */\n      0xffffffffffffffffffffffffffffffff\n      and\n      dup2\n      mstore\n      0x20\n      add\n      swap1\n      dup2\n      mstore\n      0x20\n      add\n      0x00\n      keccak256\n      0x00\n        /* \"contracts/TimeMiddle.sol\":2920:2962  ifVoteDispute[msg.sender][_disputeId]=true */\n      0x0100\n      exp\n      dup2\n      sload\n      dup2\n      0xff\n      mul\n      not\n      and\n      swap1\n      dup4\n      iszero\n      iszero\n      mul\n      or\n      swap1\n      sstore\n      pop\n        /* \"contracts/TimeMiddle.sol\":2521:2970  function checkDispute(uint128 _disputeId)external{... */\n      pop\n      jump\t// out\n        /* \"contracts/TimeMiddle.sol\":4313:4420  function getAllSupervisor()external view returns(address[] memory){... */\n    tag_36:\n        /* \"contracts/TimeMiddle.sol\":4362:4378  address[] memory */\n      0x60\n        /* \"contracts/TimeMiddle.sol\":4397:4412  supervisorGroup */\n      0x03\n        /* \"contracts/TimeMiddle.sol\":4390:4412  return supervisorGroup */\n      dup1\n      sload\n      dup1\n      0x20\n      mul\n      0x20\n      add\n      mload(0x40)\n      swap1\n      dup2\n      add\n      0x40\n      mstore\n      dup1\n      swap3\n      swap2\n      swap1\n      dup2\n      dup2\n      mstore\n      0x20\n      add\n      dup3\n      dup1\n      sload\n      dup1\n      iszero\n      tag_108\n      jumpi\n      0x20\n      mul\n      dup3\n      add\n      swap2\n      swap1\n      0x00\n      mstore\n      keccak256(0x00, 0x20)\n      swap1\n    tag_109:\n      dup2\n      0x00\n      swap1\n      sload\n      swap1\n      0x0100\n      exp\n      swap1\n      div\n      0xffffffffffffffffffffffffffffffffffffffff\n      and\n      0xffffffffffffffffffffffffffffffffffffffff\n      and\n      dup2\n      mstore\n      0x20\n      add\n      swap1\n      0x01\n      add\n      swap1\n      dup1\n      dup4\n      gt\n      tag_109\n      jumpi\n    tag_108:\n      pop\n      pop\n      pop\n      pop\n      pop\n      swap1\n      pop\n        /* \"contracts/TimeMiddle.sol\":4313:4420  function getAllSupervisor()external view returns(address[] memory){... */\n      swap1\n      jump\t// out\n        /* \"contracts/TimeMiddle.sol\":4005:4141  function getClearId(address _airdropContract)external view returns(uint256){... */\n    tag_41:\n        /* \"contracts/TimeMiddle.sol\":4072:4079  uint256 */\n      0x00\n        /* \"contracts/TimeMiddle.sol\":4098:4115  contractToClearId */\n      0x08\n        /* \"contracts/TimeMiddle.sol\":4098:4133  contractToClearId[_airdropContract] */\n      0x00\n        /* \"contracts/TimeMiddle.sol\":4116:4132  _airdropContract */\n      dup4\n        /* \"contracts/TimeMiddle.sol\":4098:4133  contractToClearId[_airdropContract] */\n      0xffffffffffffffffffffffffffffffffffffffff\n      and\n      0xffffffffffffffffffffffffffffffffffffffff\n      and\n      dup2\n      mstore\n      0x20\n      add\n      swap1\n      dup2\n      mstore\n      0x20\n      add\n      0x00\n      keccak256\n      sload\n        /* \"contracts/TimeMiddle.sol\":4091:4133  return contractToClearId[_airdropContract] */\n      swap1\n      pop\n        /* \"contracts/TimeMiddle.sol\":4005:4141  function getClearId(address _airdropContract)external view returns(uint256){... */\n      swap2\n      swap1\n      pop\n      jump\t// out\n        /* \"contracts/TimeMiddle.sol\":2091:2487  function createDispute(address _airdropContract,string calldata _disputeName,string calldata _disputeThing,uint128 _disputeId)external{... */\n    tag_47:\n        /* \"contracts/TimeMiddle.sol\":2262:2271  clearTime */\n      0x04\n        /* \"contracts/TimeMiddle.sol\":2262:2281  clearTime[number-1] */\n      0x00\n        /* \"contracts/TimeMiddle.sol\":2279:2280  1 */\n      0x01\n        /* \"contracts/TimeMiddle.sol\":2272:2278  number */\n      dup1\n      sload\n        /* \"contracts/TimeMiddle.sol\":2272:2280  number-1 */\n      tag_112\n      swap2\n      swap1\n      tag_113\n      jump\t// in\n    tag_112:\n        /* \"contracts/TimeMiddle.sol\":2262:2281  clearTime[number-1] */\n      dup2\n      mstore\n      0x20\n      add\n      swap1\n      dup2\n      mstore\n      0x20\n      add\n      0x00\n      keccak256\n        /* \"contracts/TimeMiddle.sol\":2262:2299  clearTime[number-1][_airdropContract] */\n      0x00\n        /* \"contracts/TimeMiddle.sol\":2282:2298  _airdropContract */\n      dup8\n        /* \"contracts/TimeMiddle.sol\":2262:2299  clearTime[number-1][_airdropContract] */\n      0xffffffffffffffffffffffffffffffffffffffff\n      and\n      0xffffffffffffffffffffffffffffffffffffffff\n      and\n      dup2\n      mstore\n      0x20\n      add\n      swap1\n      dup2\n      mstore\n      0x20\n      add\n      0x00\n      keccak256\n      sload\n        /* \"contracts/TimeMiddle.sol\":2244:2259  block.timestamp */\n      timestamp\n        /* \"contracts/TimeMiddle.sol\":2244:2299  block.timestamp < clearTime[number-1][_airdropContract] */\n      lt\n        /* \"contracts/TimeMiddle.sol\":2236:2313  require(block.timestamp < clearTime[number-1][_airdropContract],\"Not create\") */\n      tag_114\n      jumpi\n      mload(0x40)\n      0x08c379a000000000000000000000000000000000000000000000000000000000\n      dup2\n      mstore\n      0x04\n      add\n      tag_115\n      swap1\n      tag_116\n      jump\t// in\n    tag_115:\n      mload(0x40)\n      dup1\n      swap2\n      sub\n      swap1\n      revert\n    tag_114:\n        /* \"contracts/TimeMiddle.sol\":2393:2401  _dispute */\n      0x09\n        /* \"contracts/TimeMiddle.sol\":2407:2478  dispute(_disputeId,uint128(block.timestamp),_disputeName,_disputeThing) */\n      mload(0x40)\n      dup1\n      0x80\n      add\n      0x40\n      mstore\n      dup1\n        /* \"contracts/TimeMiddle.sol\":2415:2425  _disputeId */\n      dup4\n        /* \"contracts/TimeMiddle.sol\":2407:2478  dispute(_disputeId,uint128(block.timestamp),_disputeName,_disputeThing) */\n      0xffffffffffffffffffffffffffffffff\n      and\n      dup2\n      mstore\n      0x20\n      add\n        /* \"contracts/TimeMiddle.sol\":2434:2449  block.timestamp */\n      timestamp\n        /* \"contracts/TimeMiddle.sol\":2407:2478  dispute(_disputeId,uint128(block.timestamp),_disputeName,_disputeThing) */\n      0xffffffffffffffffffffffffffffffff\n      and\n      dup2\n      mstore\n      0x20\n      add\n        /* \"contracts/TimeMiddle.sol\":2451:2463  _disputeName */\n      dup8\n      dup8\n        /* \"contracts/TimeMiddle.sol\":2407:2478  dispute(_disputeId,uint128(block.timestamp),_disputeName,_disputeThing) */\n      dup1\n      dup1\n      0x1f\n      add\n      0x20\n      dup1\n      swap2\n      div\n      mul\n      0x20\n      add\n      mload(0x40)\n      swap1\n      dup2\n      add\n      0x40\n      mstore\n      dup1\n      swap4\n      swap3\n      swap2\n      swap1\n      dup2\n      dup2\n      mstore\n      0x20\n      add\n      dup4\n      dup4\n      dup1\n      dup3\n      dup5\n      calldatacopy\n      0x00\n      dup2\n      dup5\n      add\n      mstore\n      not(0x1f)\n      0x1f\n      dup3\n      add\n      and\n      swap1\n      pop\n      dup1\n      dup4\n      add\n      swap3\n      pop\n      pop\n      pop\n      pop\n      pop\n      pop\n      pop\n      dup2\n      mstore\n      0x20\n      add\n        /* \"contracts/TimeMiddle.sol\":2464:2477  _disputeThing */\n      dup6\n      dup6\n        /* \"contracts/TimeMiddle.sol\":2407:2478  dispute(_disputeId,uint128(block.timestamp),_disputeName,_disputeThing) */\n      dup1\n      dup1\n      0x1f\n      add\n      0x20\n      dup1\n      swap2\n      div\n      mul\n      0x20\n      add\n      mload(0x40)\n      swap1\n      dup2\n      add\n      0x40\n      mstore\n      dup1\n      swap4\n      swap3\n      swap2\n      swap1\n      dup2\n      dup2\n      mstore\n      0x20\n      add\n      dup4\n      dup4\n      dup1\n      dup3\n      dup5\n      calldatacopy\n      0x00\n      dup2\n      dup5\n      add\n      mstore\n      not(0x1f)\n      0x1f\n      dup3\n      add\n      and\n      swap1\n      pop\n      dup1\n      dup4\n      add\n      swap3\n      pop\n      pop\n      pop\n      pop\n      pop\n      pop\n      pop\n      dup2\n      mstore\n      pop\n        /* \"contracts/TimeMiddle.sol\":2393:2479  _dispute.push(dispute(_disputeId,uint128(block.timestamp),_disputeName,_disputeThing)) */\n      swap1\n      dup1\n      0x01\n      dup2\n      sload\n      add\n      dup1\n      dup3\n      sstore\n      dup1\n      swap2\n      pop\n      pop\n      0x01\n      swap1\n      sub\n      swap1\n      0x00\n      mstore\n      keccak256(0x00, 0x20)\n      swap1\n      0x03\n      mul\n      add\n      0x00\n      swap1\n      swap2\n      swap1\n      swap2\n      swap1\n      swap2\n      pop\n      0x00\n      dup3\n      add\n      mload\n      dup2\n      0x00\n      add\n      exp(0x0100, 0x00)\n      dup2\n      sload\n      dup2\n      0xffffffffffffffffffffffffffffffff\n      mul\n      not\n      and\n      swap1\n      dup4\n      0xffffffffffffffffffffffffffffffff\n      and\n      mul\n      or\n      swap1\n      sstore\n      pop\n      0x20\n      dup3\n      add\n      mload\n      dup2\n      0x00\n      add\n      exp(0x0100, 0x10)\n      dup2\n      sload\n      dup2\n      0xffffffffffffffffffffffffffffffff\n      mul\n      not\n      and\n      swap1\n      dup4\n      0xffffffffffffffffffffffffffffffff\n      and\n      mul\n      or\n      swap1\n      sstore\n      pop\n      0x40\n      dup3\n      add\n      mload\n      dup2\n      0x01\n      add\n      swap1\n      dup2\n      tag_118\n      swap2\n      swap1\n      tag_119\n      jump\t// in\n    tag_118:\n      pop\n      0x60\n      dup3\n      add\n      mload\n      dup2\n      0x02\n      add\n      swap1\n      dup2\n      tag_120\n      swap2\n      swap1\n      tag_119\n      jump\t// in\n    tag_120:\n      pop\n      pop\n      pop\n        /* \"contracts/TimeMiddle.sol\":2091:2487  function createDispute(address _airdropContract,string calldata _disputeName,string calldata _disputeThing,uint128 _disputeId)external{... */\n      pop\n      pop\n      pop\n      pop\n      pop\n      pop\n      jump\t// out\n        /* \"contracts/TimeMiddle.sol\":1059:1454  function setCleanTime(uint256 _clearTime, address airdropContract, address _futureToken)external onlyOwner{... */\n    tag_51:\n        /* \"@openzeppelin/contracts/access/Ownable.sol\":1094:1107  _checkOwner() */\n      tag_122\n        /* \"@openzeppelin/contracts/access/Ownable.sol\":1094:1105  _checkOwner */\n      tag_81\n        /* \"@openzeppelin/contracts/access/Ownable.sol\":1094:1107  _checkOwner() */\n      jump\t// in\n    tag_122:\n        /* \"contracts/TimeMiddle.sol\":1211:1216  false */\n      0x00\n        /* \"contracts/TimeMiddle.sol\":1184:1216  ifHadSet[airdropContract]==false */\n      iszero\n      iszero\n        /* \"contracts/TimeMiddle.sol\":1184:1192  ifHadSet */\n      0x07\n        /* \"contracts/TimeMiddle.sol\":1184:1209  ifHadSet[airdropContract] */\n      0x00\n        /* \"contracts/TimeMiddle.sol\":1193:1208  airdropContract */\n      dup5\n        /* \"contracts/TimeMiddle.sol\":1184:1209  ifHadSet[airdropContract] */\n      0xffffffffffffffffffffffffffffffffffffffff\n      and\n      0xffffffffffffffffffffffffffffffffffffffff\n      and\n      dup2\n      mstore\n      0x20\n      add\n      swap1\n      dup2\n      mstore\n      0x20\n      add\n      0x00\n      keccak256\n      0x00\n      swap1\n      sload\n      swap1\n      0x0100\n      exp\n      swap1\n      div\n      0xff\n      and\n        /* \"contracts/TimeMiddle.sol\":1184:1216  ifHadSet[airdropContract]==false */\n      iszero\n      iszero\n      eq\n        /* \"contracts/TimeMiddle.sol\":1176:1227  require(ifHadSet[airdropContract]==false,\"Had set\") */\n      tag_124\n      jumpi\n      mload(0x40)\n      0x08c379a000000000000000000000000000000000000000000000000000000000\n      dup2\n      mstore\n      0x04\n      add\n      tag_125\n      swap1\n      tag_126\n      jump\t// in\n    tag_125:\n      mload(0x40)\n      dup1\n      swap2\n      sub\n      swap1\n      revert\n    tag_124:\n        /* \"contracts/TimeMiddle.sol\":1289:1299  _clearTime */\n      dup3\n        /* \"contracts/TimeMiddle.sol\":1273:1288  block.timestamp */\n      timestamp\n        /* \"contracts/TimeMiddle.sol\":1273:1299  block.timestamp+_clearTime */\n      tag_127\n      swap2\n      swap1\n      tag_90\n      jump\t// in\n    tag_127:\n        /* \"contracts/TimeMiddle.sol\":1238:1247  clearTime */\n      0x04\n        /* \"contracts/TimeMiddle.sol\":1238:1255  clearTime[number] */\n      0x00\n        /* \"contracts/TimeMiddle.sol\":1248:1254  number */\n      sload(0x01)\n        /* \"contracts/TimeMiddle.sol\":1238:1255  clearTime[number] */\n      dup2\n      mstore\n      0x20\n      add\n      swap1\n      dup2\n      mstore\n      0x20\n      add\n      0x00\n      keccak256\n        /* \"contracts/TimeMiddle.sol\":1238:1272  clearTime[number][airdropContract] */\n      0x00\n        /* \"contracts/TimeMiddle.sol\":1256:1271  airdropContract */\n      dup5\n        /* \"contracts/TimeMiddle.sol\":1238:1272  clearTime[number][airdropContract] */\n      0xffffffffffffffffffffffffffffffffffffffff\n      and\n      0xffffffffffffffffffffffffffffffffffffffff\n      and\n      dup2\n      mstore\n      0x20\n      add\n      swap1\n      dup2\n      mstore\n      0x20\n      add\n      0x00\n      keccak256\n        /* \"contracts/TimeMiddle.sol\":1238:1299  clearTime[number][airdropContract]=block.timestamp+_clearTime */\n      dup2\n      swap1\n      sstore\n      pop\n        /* \"contracts/TimeMiddle.sol\":1345:1351  number */\n      sload(0x01)\n        /* \"contracts/TimeMiddle.sol\":1310:1327  contractToClearId */\n      0x08\n        /* \"contracts/TimeMiddle.sol\":1310:1344  contractToClearId[airdropContract] */\n      0x00\n        /* \"contracts/TimeMiddle.sol\":1328:1343  airdropContract */\n      dup5\n        /* \"contracts/TimeMiddle.sol\":1310:1344  contractToClearId[airdropContract] */\n      0xffffffffffffffffffffffffffffffffffffffff\n      and\n      0xffffffffffffffffffffffffffffffffffffffff\n      and\n      dup2\n      mstore\n      0x20\n      add\n      swap1\n      dup2\n      mstore\n      0x20\n      add\n      0x00\n      keccak256\n        /* \"contracts/TimeMiddle.sol\":1310:1351  contractToClearId[airdropContract]=number */\n      dup2\n      swap1\n      sstore\n      pop\n        /* \"contracts/TimeMiddle.sol\":1374:1386  _futureToken */\n      dup1\n        /* \"contracts/TimeMiddle.sol\":1362:1373  futureToken */\n      0x02\n      0x00\n        /* \"contracts/TimeMiddle.sol\":1362:1386  futureToken=_futureToken */\n      0x0100\n      exp\n      dup2\n      sload\n      dup2\n      0xffffffffffffffffffffffffffffffffffffffff\n      mul\n      not\n      and\n      swap1\n      dup4\n      0xffffffffffffffffffffffffffffffffffffffff\n      and\n      mul\n      or\n      swap1\n      sstore\n      pop\n        /* \"contracts/TimeMiddle.sol\":1423:1427  true */\n      0x01\n        /* \"contracts/TimeMiddle.sol\":1397:1405  ifHadSet */\n      0x07\n        /* \"contracts/TimeMiddle.sol\":1397:1422  ifHadSet[airdropContract] */\n      0x00\n        /* \"contracts/TimeMiddle.sol\":1406:1421  airdropContract */\n      dup5\n        /* \"contracts/TimeMiddle.sol\":1397:1422  ifHadSet[airdropContract] */\n      0xffffffffffffffffffffffffffffffffffffffff\n      and\n      0xffffffffffffffffffffffffffffffffffffffff\n      and\n      dup2\n      mstore\n      0x20\n      add\n      swap1\n      dup2\n      mstore\n      0x20\n      add\n      0x00\n      keccak256\n      0x00\n        /* \"contracts/TimeMiddle.sol\":1397:1427  ifHadSet[airdropContract]=true */\n      0x0100\n      exp\n      dup2\n      sload\n      dup2\n      0xff\n      mul\n      not\n      and\n      swap1\n      dup4\n      iszero\n      iszero\n      mul\n      or\n      swap1\n      sstore\n      pop\n        /* \"contracts/TimeMiddle.sol\":1438:1444  number */\n      0x01\n      0x00\n        /* \"contracts/TimeMiddle.sol\":1438:1446  number++ */\n      dup2\n      sload\n      dup1\n      swap3\n      swap2\n      swap1\n      tag_128\n      swap1\n      tag_106\n      jump\t// in\n    tag_128:\n      swap2\n      swap1\n      pop\n      sstore\n      pop\n        /* \"contracts/TimeMiddle.sol\":1059:1454  function setCleanTime(uint256 _clearTime, address airdropContract, address _futureToken)external onlyOwner{... */\n      pop\n      pop\n      pop\n      jump\t// out\n        /* \"contracts/TimeMiddle.sol\":3457:3706  function checkIfSupervisor(address userAddress)public view returns(bool userState){... */\n    tag_54:\n        /* \"contracts/TimeMiddle.sol\":3524:3538  bool userState */\n      0x00\n        /* \"contracts/TimeMiddle.sol\":3554:3562  uint16 i */\n      dup1\n        /* \"contracts/TimeMiddle.sol\":3550:3699  for(uint16 i;i<supervisorGroup.length;i++){... */\n    tag_130:\n        /* \"contracts/TimeMiddle.sol\":3565:3580  supervisorGroup */\n      0x03\n        /* \"contracts/TimeMiddle.sol\":3565:3587  supervisorGroup.length */\n      dup1\n      sload\n      swap1\n      pop\n        /* \"contracts/TimeMiddle.sol\":3563:3564  i */\n      dup2\n        /* \"contracts/TimeMiddle.sol\":3563:3587  i<supervisorGroup.length */\n      0xffff\n      and\n      lt\n        /* \"contracts/TimeMiddle.sol\":3550:3699  for(uint16 i;i<supervisorGroup.length;i++){... */\n      iszero\n      tag_131\n      jumpi\n        /* \"contracts/TimeMiddle.sol\":3623:3638  supervisorGroup */\n      0x03\n        /* \"contracts/TimeMiddle.sol\":3639:3640  i */\n      dup2\n        /* \"contracts/TimeMiddle.sol\":3623:3641  supervisorGroup[i] */\n      0xffff\n      and\n      dup2\n      sload\n      dup2\n      lt\n      tag_133\n      jumpi\n      tag_134\n      tag_135\n      jump\t// in\n    tag_134:\n    tag_133:\n      swap1\n      0x00\n      mstore\n      keccak256(0x00, 0x20)\n      add\n      0x00\n      swap1\n      sload\n      swap1\n      0x0100\n      exp\n      swap1\n      div\n      0xffffffffffffffffffffffffffffffffffffffff\n      and\n        /* \"contracts/TimeMiddle.sol\":3610:3641  userAddress==supervisorGroup[i] */\n      0xffffffffffffffffffffffffffffffffffffffff\n      and\n        /* \"contracts/TimeMiddle.sol\":3610:3621  userAddress */\n      dup4\n        /* \"contracts/TimeMiddle.sol\":3610:3641  userAddress==supervisorGroup[i] */\n      0xffffffffffffffffffffffffffffffffffffffff\n      and\n      sub\n        /* \"contracts/TimeMiddle.sol\":3607:3688  if(userAddress==supervisorGroup[i]){... */\n      tag_137\n      jumpi\n        /* \"contracts/TimeMiddle.sol\":3668:3672  true */\n      0x01\n        /* \"contracts/TimeMiddle.sol\":3661:3672  return true */\n      swap2\n      pop\n      pop\n      jump(tag_129)\n        /* \"contracts/TimeMiddle.sol\":3607:3688  if(userAddress==supervisorGroup[i]){... */\n    tag_137:\n        /* \"contracts/TimeMiddle.sol\":3588:3591  i++ */\n      dup1\n      dup1\n      tag_138\n      swap1\n      tag_139\n      jump\t// in\n    tag_138:\n      swap2\n      pop\n      pop\n        /* \"contracts/TimeMiddle.sol\":3550:3699  for(uint16 i;i<supervisorGroup.length;i++){... */\n      jump(tag_130)\n    tag_131:\n      pop\n        /* \"contracts/TimeMiddle.sol\":3457:3706  function checkIfSupervisor(address userAddress)public view returns(bool userState){... */\n    tag_129:\n      swap2\n      swap1\n      pop\n      jump\t// out\n        /* \"contracts/TimeMiddle.sol\":4190:4276  function getLastNumber()external view returns(uint256){... */\n    tag_57:\n        /* \"contracts/TimeMiddle.sol\":4236:4243  uint256 */\n      0x00\n        /* \"contracts/TimeMiddle.sol\":4262:4268  number */\n      sload(0x01)\n        /* \"contracts/TimeMiddle.sol\":4255:4268  return number */\n      swap1\n      pop\n        /* \"contracts/TimeMiddle.sol\":4190:4276  function getLastNumber()external view returns(uint256){... */\n      swap1\n      jump\t// out\n        /* \"@openzeppelin/contracts/access/Ownable.sol\":1824:1925  function renounceOwnership() public virtual onlyOwner {... */\n    tag_60:\n        /* \"@openzeppelin/contracts/access/Ownable.sol\":1094:1107  _checkOwner() */\n      tag_142\n        /* \"@openzeppelin/contracts/access/Ownable.sol\":1094:1105  _checkOwner */\n      tag_81\n        /* \"@openzeppelin/contracts/access/Ownable.sol\":1094:1107  _checkOwner() */\n      jump\t// in\n    tag_142:\n        /* \"@openzeppelin/contracts/access/Ownable.sol\":1888:1918  _transferOwnership(address(0)) */\n      tag_144\n        /* \"@openzeppelin/contracts/access/Ownable.sol\":1915:1916  0 */\n      0x00\n        /* \"@openzeppelin/contracts/access/Ownable.sol\":1888:1906  _transferOwnership */\n      tag_145\n        /* \"@openzeppelin/contracts/access/Ownable.sol\":1888:1918  _transferOwnership(address(0)) */\n      jump\t// in\n    tag_144:\n        /* \"@openzeppelin/contracts/access/Ownable.sol\":1824:1925  function renounceOwnership() public virtual onlyOwner {... */\n      jump\t// out\n        /* \"@openzeppelin/contracts/access/Ownable.sol\":1201:1286  function owner() public view virtual returns (address) {... */\n    tag_62:\n        /* \"@openzeppelin/contracts/access/Ownable.sol\":1247:1254  address */\n      0x00\n        /* \"@openzeppelin/contracts/access/Ownable.sol\":1273:1279  _owner */\n      dup1\n      0x00\n      swap1\n      sload\n      swap1\n      0x0100\n      exp\n      swap1\n      div\n      0xffffffffffffffffffffffffffffffffffffffff\n      and\n        /* \"@openzeppelin/contracts/access/Ownable.sol\":1266:1279  return _owner */\n      swap1\n      pop\n        /* \"@openzeppelin/contracts/access/Ownable.sol\":1201:1286  function owner() public view virtual returns (address) {... */\n      swap1\n      jump\t// out\n        /* \"contracts/TimeMiddle.sol\":3318:3417  function getFutureTokenAddress()external view returns(address){... */\n    tag_66:\n        /* \"contracts/TimeMiddle.sol\":3372:3379  address */\n      0x00\n        /* \"contracts/TimeMiddle.sol\":3398:3409  futureToken */\n      0x02\n      0x00\n      swap1\n      sload\n      swap1\n      0x0100\n      exp\n      swap1\n      div\n      0xffffffffffffffffffffffffffffffffffffffff\n      and\n        /* \"contracts/TimeMiddle.sol\":3391:3409  return futureToken */\n      swap1\n      pop\n        /* \"contracts/TimeMiddle.sol\":3318:3417  function getFutureTokenAddress()external view returns(address){... */\n      swap1\n      jump\t// out\n        /* \"contracts/TimeMiddle.sol\":3746:3975  function getClearTime(uint256 _number,address _airdropContract)external view returns(uint256){... */\n    tag_71:\n        /* \"contracts/TimeMiddle.sol\":3831:3838  uint256 */\n      0x00\n        /* \"contracts/TimeMiddle.sol\":3866:3872  number */\n      sload(0x01)\n        /* \"contracts/TimeMiddle.sol\":3858:3865  _number */\n      dup4\n        /* \"contracts/TimeMiddle.sol\":3858:3872  _number<number */\n      lt\n        /* \"contracts/TimeMiddle.sol\":3850:3888  require(_number<number,\"Number error\") */\n      tag_149\n      jumpi\n      mload(0x40)\n      0x08c379a000000000000000000000000000000000000000000000000000000000\n      dup2\n      mstore\n      0x04\n      add\n      tag_150\n      swap1\n      tag_151\n      jump\t// in\n    tag_150:\n      mload(0x40)\n      dup1\n      swap2\n      sub\n      swap1\n      revert\n    tag_149:\n        /* \"contracts/TimeMiddle.sol\":3931:3940  clearTime */\n      0x04\n        /* \"contracts/TimeMiddle.sol\":3931:3949  clearTime[_number] */\n      0x00\n        /* \"contracts/TimeMiddle.sol\":3941:3948  _number */\n      dup5\n        /* \"contracts/TimeMiddle.sol\":3931:3949  clearTime[_number] */\n      dup2\n      mstore\n      0x20\n      add\n      swap1\n      dup2\n      mstore\n      0x20\n      add\n      0x00\n      keccak256\n        /* \"contracts/TimeMiddle.sol\":3931:3967  clearTime[_number][_airdropContract] */\n      0x00\n        /* \"contracts/TimeMiddle.sol\":3950:3966  _airdropContract */\n      dup4\n        /* \"contracts/TimeMiddle.sol\":3931:3967  clearTime[_number][_airdropContract] */\n      0xffffffffffffffffffffffffffffffffffffffff\n      and\n      0xffffffffffffffffffffffffffffffffffffffff\n      and\n      dup2\n      mstore\n      0x20\n      add\n      swap1\n      dup2\n      mstore\n      0x20\n      add\n      0x00\n      keccak256\n      sload\n        /* \"contracts/TimeMiddle.sol\":3924:3967  return clearTime[_number][_airdropContract] */\n      swap1\n      pop\n        /* \"contracts/TimeMiddle.sol\":3746:3975  function getClearTime(uint256 _number,address _airdropContract)external view returns(uint256){... */\n      swap3\n      swap2\n      pop\n      pop\n      jump\t// out\n        /* \"contracts/TimeMiddle.sol\":1719:2048  function removeSuperVisor(address newSupervisor)external onlyOwner{... */\n    tag_75:\n        /* \"@openzeppelin/contracts/access/Ownable.sol\":1094:1107  _checkOwner() */\n      tag_153\n        /* \"@openzeppelin/contracts/access/Ownable.sol\":1094:1105  _checkOwner */\n      tag_81\n        /* \"@openzeppelin/contracts/access/Ownable.sol\":1094:1107  _checkOwner() */\n      jump\t// in\n    tag_153:\n        /* \"contracts/TimeMiddle.sol\":1804:1836  checkIfSupervisor(newSupervisor) */\n      tag_155\n        /* \"contracts/TimeMiddle.sol\":1822:1835  newSupervisor */\n      dup2\n        /* \"contracts/TimeMiddle.sol\":1804:1821  checkIfSupervisor */\n      tag_54\n        /* \"contracts/TimeMiddle.sol\":1804:1836  checkIfSupervisor(newSupervisor) */\n      jump\t// in\n    tag_155:\n        /* \"contracts/TimeMiddle.sol\":1796:1837  require(checkIfSupervisor(newSupervisor)) */\n      tag_156\n      jumpi\n      0x00\n      dup1\n      revert\n    tag_156:\n        /* \"contracts/TimeMiddle.sol\":1880:1888  uint16 a */\n      0x00\n        /* \"contracts/TimeMiddle.sol\":1876:2041  for(uint16 a;a<supervisorGroup.length;a++){... */\n    tag_157:\n        /* \"contracts/TimeMiddle.sol\":1891:1906  supervisorGroup */\n      0x03\n        /* \"contracts/TimeMiddle.sol\":1891:1913  supervisorGroup.length */\n      dup1\n      sload\n      swap1\n      pop\n        /* \"contracts/TimeMiddle.sol\":1889:1890  a */\n      dup2\n        /* \"contracts/TimeMiddle.sol\":1889:1913  a<supervisorGroup.length */\n      0xffff\n      and\n      lt\n        /* \"contracts/TimeMiddle.sol\":1876:2041  for(uint16 a;a<supervisorGroup.length;a++){... */\n      iszero\n      tag_158\n      jumpi\n        /* \"contracts/TimeMiddle.sol\":1951:1966  supervisorGroup */\n      0x03\n        /* \"contracts/TimeMiddle.sol\":1967:1968  a */\n      dup2\n        /* \"contracts/TimeMiddle.sol\":1951:1969  supervisorGroup[a] */\n      0xffff\n      and\n      dup2\n      sload\n      dup2\n      lt\n      tag_160\n      jumpi\n      tag_161\n      tag_135\n      jump\t// in\n    tag_161:\n    tag_160:\n      swap1\n      0x00\n      mstore\n      keccak256(0x00, 0x20)\n      add\n      0x00\n      swap1\n      sload\n      swap1\n      0x0100\n      exp\n      swap1\n      div\n      0xffffffffffffffffffffffffffffffffffffffff\n      and\n        /* \"contracts/TimeMiddle.sol\":1936:1969  newSupervisor==supervisorGroup[a] */\n      0xffffffffffffffffffffffffffffffffffffffff\n      and\n        /* \"contracts/TimeMiddle.sol\":1936:1949  newSupervisor */\n      dup3\n        /* \"contracts/TimeMiddle.sol\":1936:1969  newSupervisor==supervisorGroup[a] */\n      0xffffffffffffffffffffffffffffffffffffffff\n      and\n      sub\n        /* \"contracts/TimeMiddle.sol\":1933:2030  if(newSupervisor==supervisorGroup[a]){... */\n      tag_163\n      jumpi\n        /* \"contracts/TimeMiddle.sol\":1996:2011  supervisorGroup */\n      0x03\n        /* \"contracts/TimeMiddle.sol\":2012:2013  a */\n      dup2\n        /* \"contracts/TimeMiddle.sol\":1996:2014  supervisorGroup[a] */\n      0xffff\n      and\n      dup2\n      sload\n      dup2\n      lt\n      tag_164\n      jumpi\n      tag_165\n      tag_135\n      jump\t// in\n    tag_165:\n    tag_164:\n      swap1\n      0x00\n      mstore\n      keccak256(0x00, 0x20)\n      add\n      0x00\n        /* \"contracts/TimeMiddle.sol\":1989:2014  delete supervisorGroup[a] */\n      0x0100\n      exp\n      dup2\n      sload\n      swap1\n      0xffffffffffffffffffffffffffffffffffffffff\n      mul\n      not\n      and\n      swap1\n      sstore\n        /* \"contracts/TimeMiddle.sol\":1933:2030  if(newSupervisor==supervisorGroup[a]){... */\n    tag_163:\n        /* \"contracts/TimeMiddle.sol\":1914:1917  a++ */\n      dup1\n      dup1\n      tag_167\n      swap1\n      tag_139\n      jump\t// in\n    tag_167:\n      swap2\n      pop\n      pop\n        /* \"contracts/TimeMiddle.sol\":1876:2041  for(uint16 a;a<supervisorGroup.length;a++){... */\n      jump(tag_157)\n    tag_158:\n      pop\n        /* \"contracts/TimeMiddle.sol\":1719:2048  function removeSuperVisor(address newSupervisor)external onlyOwner{... */\n      pop\n      jump\t// out\n        /* \"@openzeppelin/contracts/access/Ownable.sol\":2074:2272  function transferOwnership(address newOwner) public virtual onlyOwner {... */\n    tag_78:\n        /* \"@openzeppelin/contracts/access/Ownable.sol\":1094:1107  _checkOwner() */\n      tag_169\n        /* \"@openzeppelin/contracts/access/Ownable.sol\":1094:1105  _checkOwner */\n      tag_81\n        /* \"@openzeppelin/contracts/access/Ownable.sol\":1094:1107  _checkOwner() */\n      jump\t// in\n    tag_169:\n        /* \"@openzeppelin/contracts/access/Ownable.sol\":2182:2183  0 */\n      0x00\n        /* \"@openzeppelin/contracts/access/Ownable.sol\":2162:2184  newOwner != address(0) */\n      0xffffffffffffffffffffffffffffffffffffffff\n      and\n        /* \"@openzeppelin/contracts/access/Ownable.sol\":2162:2170  newOwner */\n      dup2\n        /* \"@openzeppelin/contracts/access/Ownable.sol\":2162:2184  newOwner != address(0) */\n      0xffffffffffffffffffffffffffffffffffffffff\n      and\n      sub\n        /* \"@openzeppelin/contracts/access/Ownable.sol\":2154:2227  require(newOwner != address(0), \"Ownable: new owner is the zero address\") */\n      tag_171\n      jumpi\n      mload(0x40)\n      0x08c379a000000000000000000000000000000000000000000000000000000000\n      dup2\n      mstore\n      0x04\n      add\n      tag_172\n      swap1\n      tag_173\n      jump\t// in\n    tag_172:\n      mload(0x40)\n      dup1\n      swap2\n      sub\n      swap1\n      revert\n    tag_171:\n        /* \"@openzeppelin/contracts/access/Ownable.sol\":2237:2265  _transferOwnership(newOwner) */\n      tag_174\n        /* \"@openzeppelin/contracts/access/Ownable.sol\":2256:2264  newOwner */\n      dup2\n        /* \"@openzeppelin/contracts/access/Ownable.sol\":2237:2255  _transferOwnership */\n      tag_145\n        /* \"@openzeppelin/contracts/access/Ownable.sol\":2237:2265  _transferOwnership(newOwner) */\n      jump\t// in\n    tag_174:\n        /* \"@openzeppelin/contracts/access/Ownable.sol\":2074:2272  function transferOwnership(address newOwner) public virtual onlyOwner {... */\n      pop\n      jump\t// out\n        /* \"@openzeppelin/contracts/access/Ownable.sol\":1359:1489  function _checkOwner() internal view virtual {... */\n    tag_81:\n        /* \"@openzeppelin/contracts/access/Ownable.sol\":1433:1445  _msgSender() */\n      tag_176\n        /* \"@openzeppelin/contracts/access/Ownable.sol\":1433:1443  _msgSender */\n      tag_177\n        /* \"@openzeppelin/contracts/access/Ownable.sol\":1433:1445  _msgSender() */\n      jump\t// in\n    tag_176:\n        /* \"@openzeppelin/contracts/access/Ownable.sol\":1422:1445  owner() == _msgSender() */\n      0xffffffffffffffffffffffffffffffffffffffff\n      and\n        /* \"@openzeppelin/contracts/access/Ownable.sol\":1422:1429  owner() */\n      tag_178\n        /* \"@openzeppelin/contracts/access/Ownable.sol\":1422:1427  owner */\n      tag_62\n        /* \"@openzeppelin/contracts/access/Ownable.sol\":1422:1429  owner() */\n      jump\t// in\n    tag_178:\n        /* \"@openzeppelin/contracts/access/Ownable.sol\":1422:1445  owner() == _msgSender() */\n      0xffffffffffffffffffffffffffffffffffffffff\n      and\n      eq\n        /* \"@openzeppelin/contracts/access/Ownable.sol\":1414:1482  require(owner() == _msgSender(), \"Ownable: caller is not the owner\") */\n      tag_179\n      jumpi\n      mload(0x40)\n      0x08c379a000000000000000000000000000000000000000000000000000000000\n      dup2\n      mstore\n      0x04\n      add\n      tag_180\n      swap1\n      tag_181\n      jump\t// in\n    tag_180:\n      mload(0x40)\n      dup1\n      swap2\n      sub\n      swap1\n      revert\n    tag_179:\n        /* \"@openzeppelin/contracts/access/Ownable.sol\":1359:1489  function _checkOwner() internal view virtual {... */\n      jump\t// out\n        /* \"@openzeppelin/contracts/access/Ownable.sol\":2426:2613  function _transferOwnership(address newOwner) internal virtual {... */\n    tag_145:\n        /* \"@openzeppelin/contracts/access/Ownable.sol\":2499:2515  address oldOwner */\n      0x00\n        /* \"@openzeppelin/contracts/access/Ownable.sol\":2518:2524  _owner */\n      dup1\n      0x00\n      swap1\n      sload\n      swap1\n      0x0100\n      exp\n      swap1\n      div\n      0xffffffffffffffffffffffffffffffffffffffff\n      and\n        /* \"@openzeppelin/contracts/access/Ownable.sol\":2499:2524  address oldOwner = _owner */\n      swap1\n      pop\n        /* \"@openzeppelin/contracts/access/Ownable.sol\":2543:2551  newOwner */\n      dup2\n        /* \"@openzeppelin/contracts/access/Ownable.sol\":2534:2540  _owner */\n      0x00\n      dup1\n        /* \"@openzeppelin/contracts/access/Ownable.sol\":2534:2551  _owner = newOwner */\n      0x0100\n      exp\n      dup2\n      sload\n      dup2\n      0xffffffffffffffffffffffffffffffffffffffff\n      mul\n      not\n      and\n      swap1\n      dup4\n      0xffffffffffffffffffffffffffffffffffffffff\n      and\n      mul\n      or\n      swap1\n      sstore\n      pop\n        /* \"@openzeppelin/contracts/access/Ownable.sol\":2597:2605  newOwner */\n      dup2\n        /* \"@openzeppelin/contracts/access/Ownable.sol\":2566:2606  OwnershipTransferred(oldOwner, newOwner) */\n      0xffffffffffffffffffffffffffffffffffffffff\n      and\n        /* \"@openzeppelin/contracts/access/Ownable.sol\":2587:2595  oldOwner */\n      dup2\n        /* \"@openzeppelin/contracts/access/Ownable.sol\":2566:2606  OwnershipTransferred(oldOwner, newOwner) */\n      0xffffffffffffffffffffffffffffffffffffffff\n      and\n      0x8be0079c531659141344cd1fd0a4f28419497f9722a3daafe3b4186f6b6457e0\n      mload(0x40)\n      mload(0x40)\n      dup1\n      swap2\n      sub\n      swap1\n      log3\n        /* \"@openzeppelin/contracts/access/Ownable.sol\":2489:2613  {... */\n      pop\n        /* \"@openzeppelin/contracts/access/Ownable.sol\":2426:2613  function _transferOwnership(address newOwner) internal virtual {... */\n      pop\n      jump\t// out\n        /* \"@openzeppelin/contracts/utils/Context.sol\":640:736  function _msgSender() internal view virtual returns (address) {... */\n    tag_177:\n        /* \"@openzeppelin/contracts/utils/Context.sol\":693:700  address */\n      0x00\n        /* \"@openzeppelin/contracts/utils/Context.sol\":719:729  msg.sender */\n      caller\n        /* \"@openzeppelin/contracts/utils/Context.sol\":712:729  return msg.sender */\n      swap1\n      pop\n        /* \"@openzeppelin/contracts/utils/Context.sol\":640:736  function _msgSender() internal view virtual returns (address) {... */\n      swap1\n      jump\t// out\n        /* \"#utility.yul\":88:205   */\n    tag_185:\n        /* \"#utility.yul\":197:198   */\n      0x00\n        /* \"#utility.yul\":194:195   */\n      dup1\n        /* \"#utility.yul\":187:199   */\n      revert\n        /* \"#utility.yul\":211:328   */\n    tag_186:\n        /* \"#utility.yul\":320:321   */\n      0x00\n        /* \"#utility.yul\":317:318   */\n      dup1\n        /* \"#utility.yul\":310:322   */\n      revert\n        /* \"#utility.yul\":334:460   */\n    tag_187:\n        /* \"#utility.yul\":371:378   */\n      0x00\n        /* \"#utility.yul\":411:453   */\n      0xffffffffffffffffffffffffffffffffffffffff\n        /* \"#utility.yul\":404:409   */\n      dup3\n        /* \"#utility.yul\":400:454   */\n      and\n        /* \"#utility.yul\":389:454   */\n      swap1\n      pop\n        /* \"#utility.yul\":334:460   */\n      swap2\n      swap1\n      pop\n      jump\t// out\n        /* \"#utility.yul\":466:562   */\n    tag_188:\n        /* \"#utility.yul\":503:510   */\n      0x00\n        /* \"#utility.yul\":532:556   */\n      tag_257\n        /* \"#utility.yul\":550:555   */\n      dup3\n        /* \"#utility.yul\":532:556   */\n      tag_187\n      jump\t// in\n    tag_257:\n        /* \"#utility.yul\":521:556   */\n      swap1\n      pop\n        /* \"#utility.yul\":466:562   */\n      swap2\n      swap1\n      pop\n      jump\t// out\n        /* \"#utility.yul\":568:690   */\n    tag_189:\n        /* \"#utility.yul\":641:665   */\n      tag_259\n        /* \"#utility.yul\":659:664   */\n      dup2\n        /* \"#utility.yul\":641:665   */\n      tag_188\n      jump\t// in\n    tag_259:\n        /* \"#utility.yul\":634:639   */\n      dup2\n        /* \"#utility.yul\":631:666   */\n      eq\n        /* \"#utility.yul\":621:684   */\n      tag_260\n      jumpi\n        /* \"#utility.yul\":680:681   */\n      0x00\n        /* \"#utility.yul\":677:678   */\n      dup1\n        /* \"#utility.yul\":670:682   */\n      revert\n        /* \"#utility.yul\":621:684   */\n    tag_260:\n        /* \"#utility.yul\":568:690   */\n      pop\n      jump\t// out\n        /* \"#utility.yul\":696:835   */\n    tag_190:\n        /* \"#utility.yul\":742:747   */\n      0x00\n        /* \"#utility.yul\":780:786   */\n      dup2\n        /* \"#utility.yul\":767:787   */\n      calldataload\n        /* \"#utility.yul\":758:787   */\n      swap1\n      pop\n        /* \"#utility.yul\":796:829   */\n      tag_262\n        /* \"#utility.yul\":823:828   */\n      dup2\n        /* \"#utility.yul\":796:829   */\n      tag_189\n      jump\t// in\n    tag_262:\n        /* \"#utility.yul\":696:835   */\n      swap3\n      swap2\n      pop\n      pop\n      jump\t// out\n        /* \"#utility.yul\":841:1170   */\n    tag_23:\n        /* \"#utility.yul\":900:906   */\n      0x00\n        /* \"#utility.yul\":949:951   */\n      0x20\n        /* \"#utility.yul\":937:946   */\n      dup3\n        /* \"#utility.yul\":928:935   */\n      dup5\n        /* \"#utility.yul\":924:947   */\n      sub\n        /* \"#utility.yul\":920:952   */\n      slt\n        /* \"#utility.yul\":917:1036   */\n      iszero\n      tag_264\n      jumpi\n        /* \"#utility.yul\":955:1034   */\n      tag_265\n      tag_185\n      jump\t// in\n    tag_265:\n        /* \"#utility.yul\":917:1036   */\n    tag_264:\n        /* \"#utility.yul\":1075:1076   */\n      0x00\n        /* \"#utility.yul\":1100:1153   */\n      tag_266\n        /* \"#utility.yul\":1145:1152   */\n      dup5\n        /* \"#utility.yul\":1136:1142   */\n      dup3\n        /* \"#utility.yul\":1125:1134   */\n      dup6\n        /* \"#utility.yul\":1121:1143   */\n      add\n        /* \"#utility.yul\":1100:1153   */\n      tag_190\n      jump\t// in\n    tag_266:\n        /* \"#utility.yul\":1090:1153   */\n      swap2\n      pop\n        /* \"#utility.yul\":1046:1163   */\n      pop\n        /* \"#utility.yul\":841:1170   */\n      swap3\n      swap2\n      pop\n      pop\n      jump\t// out\n        /* \"#utility.yul\":1176:1253   */\n    tag_191:\n        /* \"#utility.yul\":1213:1220   */\n      0x00\n        /* \"#utility.yul\":1242:1247   */\n      dup2\n        /* \"#utility.yul\":1231:1247   */\n      swap1\n      pop\n        /* \"#utility.yul\":1176:1253   */\n      swap2\n      swap1\n      pop\n      jump\t// out\n        /* \"#utility.yul\":1259:1381   */\n    tag_192:\n        /* \"#utility.yul\":1332:1356   */\n      tag_269\n        /* \"#utility.yul\":1350:1355   */\n      dup2\n        /* \"#utility.yul\":1332:1356   */\n      tag_191\n      jump\t// in\n    tag_269:\n        /* \"#utility.yul\":1325:1330   */\n      dup2\n        /* \"#utility.yul\":1322:1357   */\n      eq\n        /* \"#utility.yul\":1312:1375   */\n      tag_270\n      jumpi\n        /* \"#utility.yul\":1371:1372   */\n      0x00\n        /* \"#utility.yul\":1368:1369   */\n      dup1\n        /* \"#utility.yul\":1361:1373   */\n      revert\n        /* \"#utility.yul\":1312:1375   */\n    tag_270:\n        /* \"#utility.yul\":1259:1381   */\n      pop\n      jump\t// out\n        /* \"#utility.yul\":1387:1526   */\n    tag_193:\n        /* \"#utility.yul\":1433:1438   */\n      0x00\n        /* \"#utility.yul\":1471:1477   */\n      dup2\n        /* \"#utility.yul\":1458:1478   */\n      calldataload\n        /* \"#utility.yul\":1449:1478   */\n      swap1\n      pop\n        /* \"#utility.yul\":1487:1520   */\n      tag_272\n        /* \"#utility.yul\":1514:1519   */\n      dup2\n        /* \"#utility.yul\":1487:1520   */\n      tag_192\n      jump\t// in\n    tag_272:\n        /* \"#utility.yul\":1387:1526   */\n      swap3\n      swap2\n      pop\n      pop\n      jump\t// out\n        /* \"#utility.yul\":1532:1861   */\n    tag_27:\n        /* \"#utility.yul\":1591:1597   */\n      0x00\n        /* \"#utility.yul\":1640:1642   */\n      0x20\n        /* \"#utility.yul\":1628:1637   */\n      dup3\n        /* \"#utility.yul\":1619:1626   */\n      dup5\n        /* \"#utility.yul\":1615:1638   */\n      sub\n        /* \"#utility.yul\":1611:1643   */\n      slt\n        /* \"#utility.yul\":1608:1727   */\n      iszero\n      tag_274\n      jumpi\n        /* \"#utility.yul\":1646:1725   */\n      tag_275\n      tag_185\n      jump\t// in\n    tag_275:\n        /* \"#utility.yul\":1608:1727   */\n    tag_274:\n        /* \"#utility.yul\":1766:1767   */\n      0x00\n        /* \"#utility.yul\":1791:1844   */\n      tag_276\n        /* \"#utility.yul\":1836:1843   */\n      dup5\n        /* \"#utility.yul\":1827:1833   */\n      dup3\n        /* \"#utility.yul\":1816:1825   */\n      dup6\n        /* \"#utility.yul\":1812:1834   */\n      add\n        /* \"#utility.yul\":1791:1844   */\n      tag_193\n      jump\t// in\n    tag_276:\n        /* \"#utility.yul\":1781:1844   */\n      swap2\n      pop\n        /* \"#utility.yul\":1737:1854   */\n      pop\n        /* \"#utility.yul\":1532:1861   */\n      swap3\n      swap2\n      pop\n      pop\n      jump\t// out\n        /* \"#utility.yul\":1867:1957   */\n    tag_194:\n        /* \"#utility.yul\":1901:1908   */\n      0x00\n        /* \"#utility.yul\":1944:1949   */\n      dup2\n        /* \"#utility.yul\":1937:1950   */\n      iszero\n        /* \"#utility.yul\":1930:1951   */\n      iszero\n        /* \"#utility.yul\":1919:1951   */\n      swap1\n      pop\n        /* \"#utility.yul\":1867:1957   */\n      swap2\n      swap1\n      pop\n      jump\t// out\n        /* \"#utility.yul\":1963:2072   */\n    tag_195:\n        /* \"#utility.yul\":2044:2065   */\n      tag_279\n        /* \"#utility.yul\":2059:2064   */\n      dup2\n        /* \"#utility.yul\":2044:2065   */\n      tag_194\n      jump\t// in\n    tag_279:\n        /* \"#utility.yul\":2039:2042   */\n      dup3\n        /* \"#utility.yul\":2032:2066   */\n      mstore\n        /* \"#utility.yul\":1963:2072   */\n      pop\n      pop\n      jump\t// out\n        /* \"#utility.yul\":2078:2288   */\n    tag_30:\n        /* \"#utility.yul\":2165:2169   */\n      0x00\n        /* \"#utility.yul\":2203:2205   */\n      0x20\n        /* \"#utility.yul\":2192:2201   */\n      dup3\n        /* \"#utility.yul\":2188:2206   */\n      add\n        /* \"#utility.yul\":2180:2206   */\n      swap1\n      pop\n        /* \"#utility.yul\":2216:2281   */\n      tag_281\n        /* \"#utility.yul\":2278:2279   */\n      0x00\n        /* \"#utility.yul\":2267:2276   */\n      dup4\n        /* \"#utility.yul\":2263:2280   */\n      add\n        /* \"#utility.yul\":2254:2260   */\n      dup5\n        /* \"#utility.yul\":2216:2281   */\n      tag_195\n      jump\t// in\n    tag_281:\n        /* \"#utility.yul\":2078:2288   */\n      swap3\n      swap2\n      pop\n      pop\n      jump\t// out\n        /* \"#utility.yul\":2294:2412   */\n    tag_196:\n        /* \"#utility.yul\":2331:2338   */\n      0x00\n        /* \"#utility.yul\":2371:2405   */\n      0xffffffffffffffffffffffffffffffff\n        /* \"#utility.yul\":2364:2369   */\n      dup3\n        /* \"#utility.yul\":2360:2406   */\n      and\n        /* \"#utility.yul\":2349:2406   */\n      swap1\n      pop\n        /* \"#utility.yul\":2294:2412   */\n      swap2\n      swap1\n      pop\n      jump\t// out\n        /* \"#utility.yul\":2418:2540   */\n    tag_197:\n        /* \"#utility.yul\":2491:2515   */\n      tag_284\n        /* \"#utility.yul\":2509:2514   */\n      dup2\n        /* \"#utility.yul\":2491:2515   */\n      tag_196\n      jump\t// in\n    tag_284:\n        /* \"#utility.yul\":2484:2489   */\n      dup2\n        /* \"#utility.yul\":2481:2516   */\n      eq\n        /* \"#utility.yul\":2471:2534   */\n      tag_285\n      jumpi\n        /* \"#utility.yul\":2530:2531   */\n      0x00\n        /* \"#utility.yul\":2527:2528   */\n      dup1\n        /* \"#utility.yul\":2520:2532   */\n      revert\n        /* \"#utility.yul\":2471:2534   */\n    tag_285:\n        /* \"#utility.yul\":2418:2540   */\n      pop\n      jump\t// out\n        /* \"#utility.yul\":2546:2685   */\n    tag_198:\n        /* \"#utility.yul\":2592:2597   */\n      0x00\n        /* \"#utility.yul\":2630:2636   */\n      dup2\n        /* \"#utility.yul\":2617:2637   */\n      calldataload\n        /* \"#utility.yul\":2608:2637   */\n      swap1\n      pop\n        /* \"#utility.yul\":2646:2679   */\n      tag_287\n        /* \"#utility.yul\":2673:2678   */\n      dup2\n        /* \"#utility.yul\":2646:2679   */\n      tag_197\n      jump\t// in\n    tag_287:\n        /* \"#utility.yul\":2546:2685   */\n      swap3\n      swap2\n      pop\n      pop\n      jump\t// out\n        /* \"#utility.yul\":2691:3020   */\n    tag_33:\n        /* \"#utility.yul\":2750:2756   */\n      0x00\n        /* \"#utility.yul\":2799:2801   */\n      0x20\n        /* \"#utility.yul\":2787:2796   */\n      dup3\n        /* \"#utility.yul\":2778:2785   */\n      dup5\n        /* \"#utility.yul\":2774:2797   */\n      sub\n        /* \"#utility.yul\":2770:2802   */\n      slt\n        /* \"#utility.yul\":2767:2886   */\n      iszero\n      tag_289\n      jumpi\n        /* \"#utility.yul\":2805:2884   */\n      tag_290\n      tag_185\n      jump\t// in\n    tag_290:\n        /* \"#utility.yul\":2767:2886   */\n    tag_289:\n        /* \"#utility.yul\":2925:2926   */\n      0x00\n        /* \"#utility.yul\":2950:3003   */\n      tag_291\n        /* \"#utility.yul\":2995:3002   */\n      dup5\n        /* \"#utility.yul\":2986:2992   */\n      dup3\n        /* \"#utility.yul\":2975:2984   */\n      dup6\n        /* \"#utility.yul\":2971:2993   */\n      add\n        /* \"#utility.yul\":2950:3003   */\n      tag_198\n      jump\t// in\n    tag_291:\n        /* \"#utility.yul\":2940:3003   */\n      swap2\n      pop\n        /* \"#utility.yul\":2896:3013   */\n      pop\n        /* \"#utility.yul\":2691:3020   */\n      swap3\n      swap2\n      pop\n      pop\n      jump\t// out\n        /* \"#utility.yul\":3026:3140   */\n    tag_199:\n        /* \"#utility.yul\":3093:3099   */\n      0x00\n        /* \"#utility.yul\":3127:3132   */\n      dup2\n        /* \"#utility.yul\":3121:3133   */\n      mload\n        /* \"#utility.yul\":3111:3133   */\n      swap1\n      pop\n        /* \"#utility.yul\":3026:3140   */\n      swap2\n      swap1\n      pop\n      jump\t// out\n        /* \"#utility.yul\":3146:3330   */\n    tag_200:\n        /* \"#utility.yul\":3245:3256   */\n      0x00\n        /* \"#utility.yul\":3279:3285   */\n      dup3\n        /* \"#utility.yul\":3274:3277   */\n      dup3\n        /* \"#utility.yul\":3267:3286   */\n      mstore\n        /* \"#utility.yul\":3319:3323   */\n      0x20\n        /* \"#utility.yul\":3314:3317   */\n      dup3\n        /* \"#utility.yul\":3310:3324   */\n      add\n        /* \"#utility.yul\":3295:3324   */\n      swap1\n      pop\n        /* \"#utility.yul\":3146:3330   */\n      swap3\n      swap2\n      pop\n      pop\n      jump\t// out\n        /* \"#utility.yul\":3336:3468   */\n    tag_201:\n        /* \"#utility.yul\":3403:3407   */\n      0x00\n        /* \"#utility.yul\":3426:3429   */\n      dup2\n        /* \"#utility.yul\":3418:3429   */\n      swap1\n      pop\n        /* \"#utility.yul\":3456:3460   */\n      0x20\n        /* \"#utility.yul\":3451:3454   */\n      dup3\n        /* \"#utility.yul\":3447:3461   */\n      add\n        /* \"#utility.yul\":3439:3461   */\n      swap1\n      pop\n        /* \"#utility.yul\":3336:3468   */\n      swap2\n      swap1\n      pop\n      jump\t// out\n        /* \"#utility.yul\":3474:3582   */\n    tag_202:\n        /* \"#utility.yul\":3551:3575   */\n      tag_296\n        /* \"#utility.yul\":3569:3574   */\n      dup2\n        /* \"#utility.yul\":3551:3575   */\n      tag_188\n      jump\t// in\n    tag_296:\n        /* \"#utility.yul\":3546:3549   */\n      dup3\n        /* \"#utility.yul\":3539:3576   */\n      mstore\n        /* \"#utility.yul\":3474:3582   */\n      pop\n      pop\n      jump\t// out\n        /* \"#utility.yul\":3588:3767   */\n    tag_203:\n        /* \"#utility.yul\":3657:3667   */\n      0x00\n        /* \"#utility.yul\":3678:3724   */\n      tag_298\n        /* \"#utility.yul\":3720:3723   */\n      dup4\n        /* \"#utility.yul\":3712:3718   */\n      dup4\n        /* \"#utility.yul\":3678:3724   */\n      tag_202\n      jump\t// in\n    tag_298:\n        /* \"#utility.yul\":3756:3760   */\n      0x20\n        /* \"#utility.yul\":3751:3754   */\n      dup4\n        /* \"#utility.yul\":3747:3761   */\n      add\n        /* \"#utility.yul\":3733:3761   */\n      swap1\n      pop\n        /* \"#utility.yul\":3588:3767   */\n      swap3\n      swap2\n      pop\n      pop\n      jump\t// out\n        /* \"#utility.yul\":3773:3886   */\n    tag_204:\n        /* \"#utility.yul\":3843:3847   */\n      0x00\n        /* \"#utility.yul\":3875:3879   */\n      0x20\n        /* \"#utility.yul\":3870:3873   */\n      dup3\n        /* \"#utility.yul\":3866:3880   */\n      add\n        /* \"#utility.yul\":3858:3880   */\n      swap1\n      pop\n        /* \"#utility.yul\":3773:3886   */\n      swap2\n      swap1\n      pop\n      jump\t// out\n        /* \"#utility.yul\":3922:4654   */\n    tag_205:\n        /* \"#utility.yul\":4041:4044   */\n      0x00\n        /* \"#utility.yul\":4070:4124   */\n      tag_301\n        /* \"#utility.yul\":4118:4123   */\n      dup3\n        /* \"#utility.yul\":4070:4124   */\n      tag_199\n      jump\t// in\n    tag_301:\n        /* \"#utility.yul\":4140:4226   */\n      tag_302\n        /* \"#utility.yul\":4219:4225   */\n      dup2\n        /* \"#utility.yul\":4214:4217   */\n      dup6\n        /* \"#utility.yul\":4140:4226   */\n      tag_200\n      jump\t// in\n    tag_302:\n        /* \"#utility.yul\":4133:4226   */\n      swap4\n      pop\n        /* \"#utility.yul\":4250:4306   */\n      tag_303\n        /* \"#utility.yul\":4300:4305   */\n      dup4\n        /* \"#utility.yul\":4250:4306   */\n      tag_201\n      jump\t// in\n    tag_303:\n        /* \"#utility.yul\":4329:4336   */\n      dup1\n        /* \"#utility.yul\":4360:4361   */\n      0x00\n        /* \"#utility.yul\":4345:4629   */\n    tag_304:\n        /* \"#utility.yul\":4370:4376   */\n      dup4\n        /* \"#utility.yul\":4367:4368   */\n      dup2\n        /* \"#utility.yul\":4364:4377   */\n      lt\n        /* \"#utility.yul\":4345:4629   */\n      iszero\n      tag_306\n      jumpi\n        /* \"#utility.yul\":4446:4452   */\n      dup2\n        /* \"#utility.yul\":4440:4453   */\n      mload\n        /* \"#utility.yul\":4473:4536   */\n      tag_307\n        /* \"#utility.yul\":4532:4535   */\n      dup9\n        /* \"#utility.yul\":4517:4530   */\n      dup3\n        /* \"#utility.yul\":4473:4536   */\n      tag_203\n      jump\t// in\n    tag_307:\n        /* \"#utility.yul\":4466:4536   */\n      swap8\n      pop\n        /* \"#utility.yul\":4559:4619   */\n      tag_308\n        /* \"#utility.yul\":4612:4618   */\n      dup4\n        /* \"#utility.yul\":4559:4619   */\n      tag_204\n      jump\t// in\n    tag_308:\n        /* \"#utility.yul\":4549:4619   */\n      swap3\n      pop\n        /* \"#utility.yul\":4405:4629   */\n      pop\n        /* \"#utility.yul\":4392:4393   */\n      0x01\n        /* \"#utility.yul\":4389:4390   */\n      dup2\n        /* \"#utility.yul\":4385:4394   */\n      add\n        /* \"#utility.yul\":4380:4394   */\n      swap1\n      pop\n        /* \"#utility.yul\":4345:4629   */\n      jump(tag_304)\n    tag_306:\n        /* \"#utility.yul\":4349:4363   */\n      pop\n        /* \"#utility.yul\":4645:4648   */\n      dup6\n        /* \"#utility.yul\":4638:4648   */\n      swap4\n      pop\n        /* \"#utility.yul\":4046:4654   */\n      pop\n      pop\n      pop\n        /* \"#utility.yul\":3922:4654   */\n      swap3\n      swap2\n      pop\n      pop\n      jump\t// out\n        /* \"#utility.yul\":4660:5033   */\n    tag_38:\n        /* \"#utility.yul\":4803:4807   */\n      0x00\n        /* \"#utility.yul\":4841:4843   */\n      0x20\n        /* \"#utility.yul\":4830:4839   */\n      dup3\n        /* \"#utility.yul\":4826:4844   */\n      add\n        /* \"#utility.yul\":4818:4844   */\n      swap1\n      pop\n        /* \"#utility.yul\":4890:4899   */\n      dup2\n        /* \"#utility.yul\":4884:4888   */\n      dup2\n        /* \"#utility.yul\":4880:4900   */\n      sub\n        /* \"#utility.yul\":4876:4877   */\n      0x00\n        /* \"#utility.yul\":4865:4874   */\n      dup4\n        /* \"#utility.yul\":4861:4878   */\n      add\n        /* \"#utility.yul\":4854:4901   */\n      mstore\n        /* \"#utility.yul\":4918:5026   */\n      tag_310\n        /* \"#utility.yul\":5021:5025   */\n      dup2\n        /* \"#utility.yul\":5012:5018   */\n      dup5\n        /* \"#utility.yul\":4918:5026   */\n      tag_205\n      jump\t// in\n    tag_310:\n        /* \"#utility.yul\":4910:5026   */\n      swap1\n      pop\n        /* \"#utility.yul\":4660:5033   */\n      swap3\n      swap2\n      pop\n      pop\n      jump\t// out\n        /* \"#utility.yul\":5039:5157   */\n    tag_206:\n        /* \"#utility.yul\":5126:5150   */\n      tag_312\n        /* \"#utility.yul\":5144:5149   */\n      dup2\n        /* \"#utility.yul\":5126:5150   */\n      tag_191\n      jump\t// in\n    tag_312:\n        /* \"#utility.yul\":5121:5124   */\n      dup3\n        /* \"#utility.yul\":5114:5151   */\n      mstore\n        /* \"#utility.yul\":5039:5157   */\n      pop\n      pop\n      jump\t// out\n        /* \"#utility.yul\":5163:5385   */\n    tag_43:\n        /* \"#utility.yul\":5256:5260   */\n      0x00\n        /* \"#utility.yul\":5294:5296   */\n      0x20\n        /* \"#utility.yul\":5283:5292   */\n      dup3\n        /* \"#utility.yul\":5279:5297   */\n      add\n        /* \"#utility.yul\":5271:5297   */\n      swap1\n      pop\n        /* \"#utility.yul\":5307:5378   */\n      tag_314\n        /* \"#utility.yul\":5375:5376   */\n      0x00\n        /* \"#utility.yul\":5364:5373   */\n      dup4\n        /* \"#utility.yul\":5360:5377   */\n      add\n        /* \"#utility.yul\":5351:5357   */\n      dup5\n        /* \"#utility.yul\":5307:5378   */\n      tag_206\n      jump\t// in\n    tag_314:\n        /* \"#utility.yul\":5163:5385   */\n      swap3\n      swap2\n      pop\n      pop\n      jump\t// out\n        /* \"#utility.yul\":5391:5508   */\n    tag_207:\n        /* \"#utility.yul\":5500:5501   */\n      0x00\n        /* \"#utility.yul\":5497:5498   */\n      dup1\n        /* \"#utility.yul\":5490:5502   */\n      revert\n        /* \"#utility.yul\":5514:5631   */\n    tag_208:\n        /* \"#utility.yul\":5623:5624   */\n      0x00\n        /* \"#utility.yul\":5620:5621   */\n      dup1\n        /* \"#utility.yul\":5613:5625   */\n      revert\n        /* \"#utility.yul\":5637:5754   */\n    tag_209:\n        /* \"#utility.yul\":5746:5747   */\n      0x00\n        /* \"#utility.yul\":5743:5744   */\n      dup1\n        /* \"#utility.yul\":5736:5748   */\n      revert\n        /* \"#utility.yul\":5774:6327   */\n    tag_210:\n        /* \"#utility.yul\":5832:5840   */\n      0x00\n        /* \"#utility.yul\":5842:5848   */\n      dup1\n        /* \"#utility.yul\":5892:5895   */\n      dup4\n        /* \"#utility.yul\":5885:5889   */\n      0x1f\n        /* \"#utility.yul\":5877:5883   */\n      dup5\n        /* \"#utility.yul\":5873:5890   */\n      add\n        /* \"#utility.yul\":5869:5896   */\n      slt\n        /* \"#utility.yul\":5859:5981   */\n      tag_319\n      jumpi\n        /* \"#utility.yul\":5900:5979   */\n      tag_320\n      tag_207\n      jump\t// in\n    tag_320:\n        /* \"#utility.yul\":5859:5981   */\n    tag_319:\n        /* \"#utility.yul\":6013:6019   */\n      dup3\n        /* \"#utility.yul\":6000:6020   */\n      calldataload\n        /* \"#utility.yul\":5990:6020   */\n      swap1\n      pop\n        /* \"#utility.yul\":6043:6061   */\n      0xffffffffffffffff\n        /* \"#utility.yul\":6035:6041   */\n      dup2\n        /* \"#utility.yul\":6032:6062   */\n      gt\n        /* \"#utility.yul\":6029:6146   */\n      iszero\n      tag_321\n      jumpi\n        /* \"#utility.yul\":6065:6144   */\n      tag_322\n      tag_208\n      jump\t// in\n    tag_322:\n        /* \"#utility.yul\":6029:6146   */\n    tag_321:\n        /* \"#utility.yul\":6179:6183   */\n      0x20\n        /* \"#utility.yul\":6171:6177   */\n      dup4\n        /* \"#utility.yul\":6167:6184   */\n      add\n        /* \"#utility.yul\":6155:6184   */\n      swap2\n      pop\n        /* \"#utility.yul\":6233:6236   */\n      dup4\n        /* \"#utility.yul\":6225:6229   */\n      0x01\n        /* \"#utility.yul\":6217:6223   */\n      dup3\n        /* \"#utility.yul\":6213:6230   */\n      mul\n        /* \"#utility.yul\":6203:6211   */\n      dup4\n        /* \"#utility.yul\":6199:6231   */\n      add\n        /* \"#utility.yul\":6196:6237   */\n      gt\n        /* \"#utility.yul\":6193:6321   */\n      iszero\n      tag_323\n      jumpi\n        /* \"#utility.yul\":6240:6319   */\n      tag_324\n      tag_209\n      jump\t// in\n    tag_324:\n        /* \"#utility.yul\":6193:6321   */\n    tag_323:\n        /* \"#utility.yul\":5774:6327   */\n      swap3\n      pop\n      swap3\n      swap1\n      pop\n      jump\t// out\n        /* \"#utility.yul\":6333:7498   */\n    tag_46:\n        /* \"#utility.yul\":6443:6449   */\n      0x00\n        /* \"#utility.yul\":6451:6457   */\n      dup1\n        /* \"#utility.yul\":6459:6465   */\n      0x00\n        /* \"#utility.yul\":6467:6473   */\n      dup1\n        /* \"#utility.yul\":6475:6481   */\n      0x00\n        /* \"#utility.yul\":6483:6489   */\n      dup1\n        /* \"#utility.yul\":6532:6535   */\n      0x80\n        /* \"#utility.yul\":6520:6529   */\n      dup8\n        /* \"#utility.yul\":6511:6518   */\n      dup10\n        /* \"#utility.yul\":6507:6530   */\n      sub\n        /* \"#utility.yul\":6503:6536   */\n      slt\n        /* \"#utility.yul\":6500:6620   */\n      iszero\n      tag_326\n      jumpi\n        /* \"#utility.yul\":6539:6618   */\n      tag_327\n      tag_185\n      jump\t// in\n    tag_327:\n        /* \"#utility.yul\":6500:6620   */\n    tag_326:\n        /* \"#utility.yul\":6659:6660   */\n      0x00\n        /* \"#utility.yul\":6684:6737   */\n      tag_328\n        /* \"#utility.yul\":6729:6736   */\n      dup10\n        /* \"#utility.yul\":6720:6726   */\n      dup3\n        /* \"#utility.yul\":6709:6718   */\n      dup11\n        /* \"#utility.yul\":6705:6727   */\n      add\n        /* \"#utility.yul\":6684:6737   */\n      tag_190\n      jump\t// in\n    tag_328:\n        /* \"#utility.yul\":6674:6737   */\n      swap7\n      pop\n        /* \"#utility.yul\":6630:6747   */\n      pop\n        /* \"#utility.yul\":6814:6816   */\n      0x20\n        /* \"#utility.yul\":6803:6812   */\n      dup8\n        /* \"#utility.yul\":6799:6817   */\n      add\n        /* \"#utility.yul\":6786:6818   */\n      calldataload\n        /* \"#utility.yul\":6845:6863   */\n      0xffffffffffffffff\n        /* \"#utility.yul\":6837:6843   */\n      dup2\n        /* \"#utility.yul\":6834:6864   */\n      gt\n        /* \"#utility.yul\":6831:6948   */\n      iszero\n      tag_329\n      jumpi\n        /* \"#utility.yul\":6867:6946   */\n      tag_330\n      tag_186\n      jump\t// in\n    tag_330:\n        /* \"#utility.yul\":6831:6948   */\n    tag_329:\n        /* \"#utility.yul\":6980:7045   */\n      tag_331\n        /* \"#utility.yul\":7037:7044   */\n      dup10\n        /* \"#utility.yul\":7028:7034   */\n      dup3\n        /* \"#utility.yul\":7017:7026   */\n      dup11\n        /* \"#utility.yul\":7013:7035   */\n      add\n        /* \"#utility.yul\":6980:7045   */\n      tag_210\n      jump\t// in\n    tag_331:\n        /* \"#utility.yul\":6962:7045   */\n      swap6\n      pop\n      swap6\n      pop\n        /* \"#utility.yul\":6757:7055   */\n      pop\n        /* \"#utility.yul\":7122:7124   */\n      0x40\n        /* \"#utility.yul\":7111:7120   */\n      dup8\n        /* \"#utility.yul\":7107:7125   */\n      add\n        /* \"#utility.yul\":7094:7126   */\n      calldataload\n        /* \"#utility.yul\":7153:7171   */\n      0xffffffffffffffff\n        /* \"#utility.yul\":7145:7151   */\n      dup2\n        /* \"#utility.yul\":7142:7172   */\n      gt\n        /* \"#utility.yul\":7139:7256   */\n      iszero\n      tag_332\n      jumpi\n        /* \"#utility.yul\":7175:7254   */\n      tag_333\n      tag_186\n      jump\t// in\n    tag_333:\n        /* \"#utility.yul\":7139:7256   */\n    tag_332:\n        /* \"#utility.yul\":7288:7353   */\n      tag_334\n        /* \"#utility.yul\":7345:7352   */\n      dup10\n        /* \"#utility.yul\":7336:7342   */\n      dup3\n        /* \"#utility.yul\":7325:7334   */\n      dup11\n        /* \"#utility.yul\":7321:7343   */\n      add\n        /* \"#utility.yul\":7288:7353   */\n      tag_210\n      jump\t// in\n    tag_334:\n        /* \"#utility.yul\":7270:7353   */\n      swap4\n      pop\n      swap4\n      pop\n        /* \"#utility.yul\":7065:7363   */\n      pop\n        /* \"#utility.yul\":7402:7404   */\n      0x60\n        /* \"#utility.yul\":7428:7481   */\n      tag_335\n        /* \"#utility.yul\":7473:7480   */\n      dup10\n        /* \"#utility.yul\":7464:7470   */\n      dup3\n        /* \"#utility.yul\":7453:7462   */\n      dup11\n        /* \"#utility.yul\":7449:7471   */\n      add\n        /* \"#utility.yul\":7428:7481   */\n      tag_198\n      jump\t// in\n    tag_335:\n        /* \"#utility.yul\":7418:7481   */\n      swap2\n      pop\n        /* \"#utility.yul\":7373:7491   */\n      pop\n        /* \"#utility.yul\":6333:7498   */\n      swap3\n      swap6\n      pop\n      swap3\n      swap6\n      pop\n      swap3\n      swap6\n      jump\t// out\n        /* \"#utility.yul\":7504:8123   */\n    tag_50:\n        /* \"#utility.yul\":7581:7587   */\n      0x00\n        /* \"#utility.yul\":7589:7595   */\n      dup1\n        /* \"#utility.yul\":7597:7603   */\n      0x00\n        /* \"#utility.yul\":7646:7648   */\n      0x60\n        /* \"#utility.yul\":7634:7643   */\n      dup5\n        /* \"#utility.yul\":7625:7632   */\n      dup7\n        /* \"#utility.yul\":7621:7644   */\n      sub\n        /* \"#utility.yul\":7617:7649   */\n      slt\n        /* \"#utility.yul\":7614:7733   */\n      iszero\n      tag_337\n      jumpi\n        /* \"#utility.yul\":7652:7731   */\n      tag_338\n      tag_185\n      jump\t// in\n    tag_338:\n        /* \"#utility.yul\":7614:7733   */\n    tag_337:\n        /* \"#utility.yul\":7772:7773   */\n      0x00\n        /* \"#utility.yul\":7797:7850   */\n      tag_339\n        /* \"#utility.yul\":7842:7849   */\n      dup7\n        /* \"#utility.yul\":7833:7839   */\n      dup3\n        /* \"#utility.yul\":7822:7831   */\n      dup8\n        /* \"#utility.yul\":7818:7840   */\n      add\n        /* \"#utility.yul\":7797:7850   */\n      tag_193\n      jump\t// in\n    tag_339:\n        /* \"#utility.yul\":7787:7850   */\n      swap4\n      pop\n        /* \"#utility.yul\":7743:7860   */\n      pop\n        /* \"#utility.yul\":7899:7901   */\n      0x20\n        /* \"#utility.yul\":7925:7978   */\n      tag_340\n        /* \"#utility.yul\":7970:7977   */\n      dup7\n        /* \"#utility.yul\":7961:7967   */\n      dup3\n        /* \"#utility.yul\":7950:7959   */\n      dup8\n        /* \"#utility.yul\":7946:7968   */\n      add\n        /* \"#utility.yul\":7925:7978   */\n      tag_190\n      jump\t// in\n    tag_340:\n        /* \"#utility.yul\":7915:7978   */\n      swap3\n      pop\n        /* \"#utility.yul\":7870:7988   */\n      pop\n        /* \"#utility.yul\":8027:8029   */\n      0x40\n        /* \"#utility.yul\":8053:8106   */\n      tag_341\n        /* \"#utility.yul\":8098:8105   */\n      dup7\n        /* \"#utility.yul\":8089:8095   */\n      dup3\n        /* \"#utility.yul\":8078:8087   */\n      dup8\n        /* \"#utility.yul\":8074:8096   */\n      add\n        /* \"#utility.yul\":8053:8106   */\n      tag_190\n      jump\t// in\n    tag_341:\n        /* \"#utility.yul\":8043:8106   */\n      swap2\n      pop\n        /* \"#utility.yul\":7998:8116   */\n      pop\n        /* \"#utility.yul\":7504:8123   */\n      swap3\n      pop\n      swap3\n      pop\n      swap3\n      jump\t// out\n        /* \"#utility.yul\":8129:8247   */\n    tag_211:\n        /* \"#utility.yul\":8216:8240   */\n      tag_343\n        /* \"#utility.yul\":8234:8239   */\n      dup2\n        /* \"#utility.yul\":8216:8240   */\n      tag_188\n      jump\t// in\n    tag_343:\n        /* \"#utility.yul\":8211:8214   */\n      dup3\n        /* \"#utility.yul\":8204:8241   */\n      mstore\n        /* \"#utility.yul\":8129:8247   */\n      pop\n      pop\n      jump\t// out\n        /* \"#utility.yul\":8253:8475   */\n    tag_64:\n        /* \"#utility.yul\":8346:8350   */\n      0x00\n        /* \"#utility.yul\":8384:8386   */\n      0x20\n        /* \"#utility.yul\":8373:8382   */\n      dup3\n        /* \"#utility.yul\":8369:8387   */\n      add\n        /* \"#utility.yul\":8361:8387   */\n      swap1\n      pop\n        /* \"#utility.yul\":8397:8468   */\n      tag_345\n        /* \"#utility.yul\":8465:8466   */\n      0x00\n        /* \"#utility.yul\":8454:8463   */\n      dup4\n        /* \"#utility.yul\":8450:8467   */\n      add\n        /* \"#utility.yul\":8441:8447   */\n      dup5\n        /* \"#utility.yul\":8397:8468   */\n      tag_211\n      jump\t// in\n    tag_345:\n        /* \"#utility.yul\":8253:8475   */\n      swap3\n      swap2\n      pop\n      pop\n      jump\t// out\n        /* \"#utility.yul\":8481:8955   */\n    tag_70:\n        /* \"#utility.yul\":8549:8555   */\n      0x00\n        /* \"#utility.yul\":8557:8563   */\n      dup1\n        /* \"#utility.yul\":8606:8608   */\n      0x40\n        /* \"#utility.yul\":8594:8603   */\n      dup4\n        /* \"#utility.yul\":8585:8592   */\n      dup6\n        /* \"#utility.yul\":8581:8604   */\n      sub\n        /* \"#utility.yul\":8577:8609   */\n      slt\n        /* \"#utility.yul\":8574:8693   */\n      iszero\n      tag_347\n      jumpi\n        /* \"#utility.yul\":8612:8691   */\n      tag_348\n      tag_185\n      jump\t// in\n    tag_348:\n        /* \"#utility.yul\":8574:8693   */\n    tag_347:\n        /* \"#utility.yul\":8732:8733   */\n      0x00\n        /* \"#utility.yul\":8757:8810   */\n      tag_349\n        /* \"#utility.yul\":8802:8809   */\n      dup6\n        /* \"#utility.yul\":8793:8799   */\n      dup3\n        /* \"#utility.yul\":8782:8791   */\n      dup7\n        /* \"#utility.yul\":8778:8800   */\n      add\n        /* \"#utility.yul\":8757:8810   */\n      tag_193\n      jump\t// in\n    tag_349:\n        /* \"#utility.yul\":8747:8810   */\n      swap3\n      pop\n        /* \"#utility.yul\":8703:8820   */\n      pop\n        /* \"#utility.yul\":8859:8861   */\n      0x20\n        /* \"#utility.yul\":8885:8938   */\n      tag_350\n        /* \"#utility.yul\":8930:8937   */\n      dup6\n        /* \"#utility.yul\":8921:8927   */\n      dup3\n        /* \"#utility.yul\":8910:8919   */\n      dup7\n        /* \"#utility.yul\":8906:8928   */\n      add\n        /* \"#utility.yul\":8885:8938   */\n      tag_190\n      jump\t// in\n    tag_350:\n        /* \"#utility.yul\":8875:8938   */\n      swap2\n      pop\n        /* \"#utility.yul\":8830:8948   */\n      pop\n        /* \"#utility.yul\":8481:8955   */\n      swap3\n      pop\n      swap3\n      swap1\n      pop\n      jump\t// out\n        /* \"#utility.yul\":8961:9141   */\n    tag_212:\n        /* \"#utility.yul\":9009:9086   */\n      0x4e487b7100000000000000000000000000000000000000000000000000000000\n        /* \"#utility.yul\":9006:9007   */\n      0x00\n        /* \"#utility.yul\":8999:9087   */\n      mstore\n        /* \"#utility.yul\":9106:9110   */\n      0x12\n        /* \"#utility.yul\":9103:9104   */\n      0x04\n        /* \"#utility.yul\":9096:9111   */\n      mstore\n        /* \"#utility.yul\":9130:9134   */\n      0x24\n        /* \"#utility.yul\":9127:9128   */\n      0x00\n        /* \"#utility.yul\":9120:9135   */\n      revert\n        /* \"#utility.yul\":9147:9327   */\n    tag_213:\n        /* \"#utility.yul\":9195:9272   */\n      0x4e487b7100000000000000000000000000000000000000000000000000000000\n        /* \"#utility.yul\":9192:9193   */\n      0x00\n        /* \"#utility.yul\":9185:9273   */\n      mstore\n        /* \"#utility.yul\":9292:9296   */\n      0x11\n        /* \"#utility.yul\":9289:9290   */\n      0x04\n        /* \"#utility.yul\":9282:9297   */\n      mstore\n        /* \"#utility.yul\":9316:9320   */\n      0x24\n        /* \"#utility.yul\":9313:9314   */\n      0x00\n        /* \"#utility.yul\":9306:9321   */\n      revert\n        /* \"#utility.yul\":9333:9518   */\n    tag_88:\n        /* \"#utility.yul\":9373:9374   */\n      0x00\n        /* \"#utility.yul\":9390:9410   */\n      tag_354\n        /* \"#utility.yul\":9408:9409   */\n      dup3\n        /* \"#utility.yul\":9390:9410   */\n      tag_191\n      jump\t// in\n    tag_354:\n        /* \"#utility.yul\":9385:9410   */\n      swap2\n      pop\n        /* \"#utility.yul\":9424:9444   */\n      tag_355\n        /* \"#utility.yul\":9442:9443   */\n      dup4\n        /* \"#utility.yul\":9424:9444   */\n      tag_191\n      jump\t// in\n    tag_355:\n        /* \"#utility.yul\":9419:9444   */\n      swap3\n      pop\n        /* \"#utility.yul\":9463:9464   */\n      dup3\n        /* \"#utility.yul\":9453:9488   */\n      tag_356\n      jumpi\n        /* \"#utility.yul\":9468:9486   */\n      tag_357\n      tag_212\n      jump\t// in\n    tag_357:\n        /* \"#utility.yul\":9453:9488   */\n    tag_356:\n        /* \"#utility.yul\":9510:9511   */\n      dup3\n        /* \"#utility.yul\":9507:9508   */\n      dup3\n        /* \"#utility.yul\":9503:9512   */\n      div\n        /* \"#utility.yul\":9498:9512   */\n      swap1\n      pop\n        /* \"#utility.yul\":9333:9518   */\n      swap3\n      swap2\n      pop\n      pop\n      jump\t// out\n        /* \"#utility.yul\":9524:9715   */\n    tag_90:\n        /* \"#utility.yul\":9564:9567   */\n      0x00\n        /* \"#utility.yul\":9583:9603   */\n      tag_359\n        /* \"#utility.yul\":9601:9602   */\n      dup3\n        /* \"#utility.yul\":9583:9603   */\n      tag_191\n      jump\t// in\n    tag_359:\n        /* \"#utility.yul\":9578:9603   */\n      swap2\n      pop\n        /* \"#utility.yul\":9617:9637   */\n      tag_360\n        /* \"#utility.yul\":9635:9636   */\n      dup4\n        /* \"#utility.yul\":9617:9637   */\n      tag_191\n      jump\t// in\n    tag_360:\n        /* \"#utility.yul\":9612:9637   */\n      swap3\n      pop\n        /* \"#utility.yul\":9660:9661   */\n      dup3\n        /* \"#utility.yul\":9657:9658   */\n      dup3\n        /* \"#utility.yul\":9653:9662   */\n      add\n        /* \"#utility.yul\":9646:9662   */\n      swap1\n      pop\n        /* \"#utility.yul\":9681:9684   */\n      dup1\n        /* \"#utility.yul\":9678:9679   */\n      dup3\n        /* \"#utility.yul\":9675:9685   */\n      gt\n        /* \"#utility.yul\":9672:9708   */\n      iszero\n      tag_361\n      jumpi\n        /* \"#utility.yul\":9688:9706   */\n      tag_362\n      tag_213\n      jump\t// in\n    tag_362:\n        /* \"#utility.yul\":9672:9708   */\n    tag_361:\n        /* \"#utility.yul\":9524:9715   */\n      swap3\n      swap2\n      pop\n      pop\n      jump\t// out\n        /* \"#utility.yul\":9721:9890   */\n    tag_214:\n        /* \"#utility.yul\":9805:9816   */\n      0x00\n        /* \"#utility.yul\":9839:9845   */\n      dup3\n        /* \"#utility.yul\":9834:9837   */\n      dup3\n        /* \"#utility.yul\":9827:9846   */\n      mstore\n        /* \"#utility.yul\":9879:9883   */\n      0x20\n        /* \"#utility.yul\":9874:9877   */\n      dup3\n        /* \"#utility.yul\":9870:9884   */\n      add\n        /* \"#utility.yul\":9855:9884   */\n      swap1\n      pop\n        /* \"#utility.yul\":9721:9890   */\n      swap3\n      swap2\n      pop\n      pop\n      jump\t// out\n        /* \"#utility.yul\":9896:10058   */\n    tag_215:\n        /* \"#utility.yul\":10036:10050   */\n      0x416c726561647920766f74650000000000000000000000000000000000000000\n        /* \"#utility.yul\":10032:10033   */\n      0x00\n        /* \"#utility.yul\":10024:10030   */\n      dup3\n        /* \"#utility.yul\":10020:10034   */\n      add\n        /* \"#utility.yul\":10013:10051   */\n      mstore\n        /* \"#utility.yul\":9896:10058   */\n      pop\n      jump\t// out\n        /* \"#utility.yul\":10064:10430   */\n    tag_216:\n        /* \"#utility.yul\":10206:10209   */\n      0x00\n        /* \"#utility.yul\":10227:10294   */\n      tag_366\n        /* \"#utility.yul\":10291:10293   */\n      0x0c\n        /* \"#utility.yul\":10286:10289   */\n      dup4\n        /* \"#utility.yul\":10227:10294   */\n      tag_214\n      jump\t// in\n    tag_366:\n        /* \"#utility.yul\":10220:10294   */\n      swap2\n      pop\n        /* \"#utility.yul\":10303:10396   */\n      tag_367\n        /* \"#utility.yul\":10392:10395   */\n      dup3\n        /* \"#utility.yul\":10303:10396   */\n      tag_215\n      jump\t// in\n    tag_367:\n        /* \"#utility.yul\":10421:10423   */\n      0x20\n        /* \"#utility.yul\":10416:10419   */\n      dup3\n        /* \"#utility.yul\":10412:10424   */\n      add\n        /* \"#utility.yul\":10405:10424   */\n      swap1\n      pop\n        /* \"#utility.yul\":10064:10430   */\n      swap2\n      swap1\n      pop\n      jump\t// out\n        /* \"#utility.yul\":10436:10855   */\n    tag_96:\n        /* \"#utility.yul\":10602:10606   */\n      0x00\n        /* \"#utility.yul\":10640:10642   */\n      0x20\n        /* \"#utility.yul\":10629:10638   */\n      dup3\n        /* \"#utility.yul\":10625:10643   */\n      add\n        /* \"#utility.yul\":10617:10643   */\n      swap1\n      pop\n        /* \"#utility.yul\":10689:10698   */\n      dup2\n        /* \"#utility.yul\":10683:10687   */\n      dup2\n        /* \"#utility.yul\":10679:10699   */\n      sub\n        /* \"#utility.yul\":10675:10676   */\n      0x00\n        /* \"#utility.yul\":10664:10673   */\n      dup4\n        /* \"#utility.yul\":10660:10677   */\n      add\n        /* \"#utility.yul\":10653:10700   */\n      mstore\n        /* \"#utility.yul\":10717:10848   */\n      tag_369\n        /* \"#utility.yul\":10843:10847   */\n      dup2\n        /* \"#utility.yul\":10717:10848   */\n      tag_216\n      jump\t// in\n    tag_369:\n        /* \"#utility.yul\":10709:10848   */\n      swap1\n      pop\n        /* \"#utility.yul\":10436:10855   */\n      swap2\n      swap1\n      pop\n      jump\t// out\n        /* \"#utility.yul\":10861:11025   */\n    tag_217:\n        /* \"#utility.yul\":11001:11017   */\n      0x4e6f742073757065727669736f72000000000000000000000000000000000000\n        /* \"#utility.yul\":10997:10998   */\n      0x00\n        /* \"#utility.yul\":10989:10995   */\n      dup3\n        /* \"#utility.yul\":10985:10999   */\n      add\n        /* \"#utility.yul\":10978:11018   */\n      mstore\n        /* \"#utility.yul\":10861:11025   */\n      pop\n      jump\t// out\n        /* \"#utility.yul\":11031:11397   */\n    tag_218:\n        /* \"#utility.yul\":11173:11176   */\n      0x00\n        /* \"#utility.yul\":11194:11261   */\n      tag_372\n        /* \"#utility.yul\":11258:11260   */\n      0x0e\n        /* \"#utility.yul\":11253:11256   */\n      dup4\n        /* \"#utility.yul\":11194:11261   */\n      tag_214\n      jump\t// in\n    tag_372:\n        /* \"#utility.yul\":11187:11261   */\n      swap2\n      pop\n        /* \"#utility.yul\":11270:11363   */\n      tag_373\n        /* \"#utility.yul\":11359:11362   */\n      dup3\n        /* \"#utility.yul\":11270:11363   */\n      tag_217\n      jump\t// in\n    tag_373:\n        /* \"#utility.yul\":11388:11390   */\n      0x20\n        /* \"#utility.yul\":11383:11386   */\n      dup3\n        /* \"#utility.yul\":11379:11391   */\n      add\n        /* \"#utility.yul\":11372:11391   */\n      swap1\n      pop\n        /* \"#utility.yul\":11031:11397   */\n      swap2\n      swap1\n      pop\n      jump\t// out\n        /* \"#utility.yul\":11403:11822   */\n    tag_100:\n        /* \"#utility.yul\":11569:11573   */\n      0x00\n        /* \"#utility.yul\":11607:11609   */\n      0x20\n        /* \"#utility.yul\":11596:11605   */\n      dup3\n        /* \"#utility.yul\":11592:11610   */\n      add\n        /* \"#utility.yul\":11584:11610   */\n      swap1\n      pop\n        /* \"#utility.yul\":11656:11665   */\n      dup2\n        /* \"#utility.yul\":11650:11654   */\n      dup2\n        /* \"#utility.yul\":11646:11666   */\n      sub\n        /* \"#utility.yul\":11642:11643   */\n      0x00\n        /* \"#utility.yul\":11631:11640   */\n      dup4\n        /* \"#utility.yul\":11627:11644   */\n      add\n        /* \"#utility.yul\":11620:11667   */\n      mstore\n        /* \"#utility.yul\":11684:11815   */\n      tag_375\n        /* \"#utility.yul\":11810:11814   */\n      dup2\n        /* \"#utility.yul\":11684:11815   */\n      tag_218\n      jump\t// in\n    tag_375:\n        /* \"#utility.yul\":11676:11815   */\n      swap1\n      pop\n        /* \"#utility.yul\":11403:11822   */\n      swap2\n      swap1\n      pop\n      jump\t// out\n        /* \"#utility.yul\":11828:11982   */\n    tag_219:\n        /* \"#utility.yul\":11968:11974   */\n      0x5061737300000000000000000000000000000000000000000000000000000000\n        /* \"#utility.yul\":11964:11965   */\n      0x00\n        /* \"#utility.yul\":11956:11962   */\n      dup3\n        /* \"#utility.yul\":11952:11966   */\n      add\n        /* \"#utility.yul\":11945:11975   */\n      mstore\n        /* \"#utility.yul\":11828:11982   */\n      pop\n      jump\t// out\n        /* \"#utility.yul\":11988:12353   */\n    tag_220:\n        /* \"#utility.yul\":12130:12133   */\n      0x00\n        /* \"#utility.yul\":12151:12217   */\n      tag_378\n        /* \"#utility.yul\":12215:12216   */\n      0x04\n        /* \"#utility.yul\":12210:12213   */\n      dup4\n        /* \"#utility.yul\":12151:12217   */\n      tag_214\n      jump\t// in\n    tag_378:\n        /* \"#utility.yul\":12144:12217   */\n      swap2\n      pop\n        /* \"#utility.yul\":12226:12319   */\n      tag_379\n        /* \"#utility.yul\":12315:12318   */\n      dup3\n        /* \"#utility.yul\":12226:12319   */\n      tag_219\n      jump\t// in\n    tag_379:\n        /* \"#utility.yul\":12344:12346   */\n      0x20\n        /* \"#utility.yul\":12339:12342   */\n      dup3\n        /* \"#utility.yul\":12335:12347   */\n      add\n        /* \"#utility.yul\":12328:12347   */\n      swap1\n      pop\n        /* \"#utility.yul\":11988:12353   */\n      swap2\n      swap1\n      pop\n      jump\t// out\n        /* \"#utility.yul\":12359:12778   */\n    tag_104:\n        /* \"#utility.yul\":12525:12529   */\n      0x00\n        /* \"#utility.yul\":12563:12565   */\n      0x20\n        /* \"#utility.yul\":12552:12561   */\n      dup3\n        /* \"#utility.yul\":12548:12566   */\n      add\n        /* \"#utility.yul\":12540:12566   */\n      swap1\n      pop\n        /* \"#utility.yul\":12612:12621   */\n      dup2\n        /* \"#utility.yul\":12606:12610   */\n      dup2\n        /* \"#utility.yul\":12602:12622   */\n      sub\n        /* \"#utility.yul\":12598:12599   */\n      0x00\n        /* \"#utility.yul\":12587:12596   */\n      dup4\n        /* \"#utility.yul\":12583:12600   */\n      add\n        /* \"#utility.yul\":12576:12623   */\n      mstore\n        /* \"#utility.yul\":12640:12771   */\n      tag_381\n        /* \"#utility.yul\":12766:12770   */\n      dup2\n        /* \"#utility.yul\":12640:12771   */\n      tag_220\n      jump\t// in\n    tag_381:\n        /* \"#utility.yul\":12632:12771   */\n      swap1\n      pop\n        /* \"#utility.yul\":12359:12778   */\n      swap2\n      swap1\n      pop\n      jump\t// out\n        /* \"#utility.yul\":12784:13017   */\n    tag_106:\n        /* \"#utility.yul\":12823:12826   */\n      0x00\n        /* \"#utility.yul\":12846:12870   */\n      tag_383\n        /* \"#utility.yul\":12864:12869   */\n      dup3\n        /* \"#utility.yul\":12846:12870   */\n      tag_191\n      jump\t// in\n    tag_383:\n        /* \"#utility.yul\":12837:12870   */\n      swap2\n      pop\n        /* \"#utility.yul\":12892:12958   */\n      0xffffffffffffffffffffffffffffffffffffffffffffffffffffffffffffffff\n        /* \"#utility.yul\":12885:12890   */\n      dup3\n        /* \"#utility.yul\":12882:12959   */\n      sub\n        /* \"#utility.yul\":12879:12982   */\n      tag_384\n      jumpi\n        /* \"#utility.yul\":12962:12980   */\n      tag_385\n      tag_213\n      jump\t// in\n    tag_385:\n        /* \"#utility.yul\":12879:12982   */\n    tag_384:\n        /* \"#utility.yul\":13009:13010   */\n      0x01\n        /* \"#utility.yul\":13002:13007   */\n      dup3\n        /* \"#utility.yul\":12998:13011   */\n      add\n        /* \"#utility.yul\":12991:13011   */\n      swap1\n      pop\n        /* \"#utility.yul\":12784:13017   */\n      swap2\n      swap1\n      pop\n      jump\t// out\n        /* \"#utility.yul\":13023:13217   */\n    tag_113:\n        /* \"#utility.yul\":13063:13067   */\n      0x00\n        /* \"#utility.yul\":13083:13103   */\n      tag_387\n        /* \"#utility.yul\":13101:13102   */\n      dup3\n        /* \"#utility.yul\":13083:13103   */\n      tag_191\n      jump\t// in\n    tag_387:\n        /* \"#utility.yul\":13078:13103   */\n      swap2\n      pop\n        /* \"#utility.yul\":13117:13137   */\n      tag_388\n        /* \"#utility.yul\":13135:13136   */\n      dup4\n        /* \"#utility.yul\":13117:13137   */\n      tag_191\n      jump\t// in\n    tag_388:\n        /* \"#utility.yul\":13112:13137   */\n      swap3\n      pop\n        /* \"#utility.yul\":13161:13162   */\n      dup3\n        /* \"#utility.yul\":13158:13159   */\n      dup3\n        /* \"#utility.yul\":13154:13163   */\n      sub\n        /* \"#utility.yul\":13146:13163   */\n      swap1\n      pop\n        /* \"#utility.yul\":13185:13186   */\n      dup2\n        /* \"#utility.yul\":13179:13183   */\n      dup2\n        /* \"#utility.yul\":13176:13187   */\n      gt\n        /* \"#utility.yul\":13173:13210   */\n      iszero\n      tag_389\n      jumpi\n        /* \"#utility.yul\":13190:13208   */\n      tag_390\n      tag_213\n      jump\t// in\n    tag_390:\n        /* \"#utility.yul\":13173:13210   */\n    tag_389:\n        /* \"#utility.yul\":13023:13217   */\n      swap3\n      swap2\n      pop\n      pop\n      jump\t// out\n        /* \"#utility.yul\":13223:13383   */\n    tag_221:\n        /* \"#utility.yul\":13363:13375   */\n      0x4e6f742063726561746500000000000000000000000000000000000000000000\n        /* \"#utility.yul\":13359:13360   */\n      0x00\n        /* \"#utility.yul\":13351:13357   */\n      dup3\n        /* \"#utility.yul\":13347:13361   */\n      add\n        /* \"#utility.yul\":13340:13376   */\n      mstore\n        /* \"#utility.yul\":13223:13383   */\n      pop\n      jump\t// out\n        /* \"#utility.yul\":13389:13755   */\n    tag_222:\n        /* \"#utility.yul\":13531:13534   */\n      0x00\n        /* \"#utility.yul\":13552:13619   */\n      tag_393\n        /* \"#utility.yul\":13616:13618   */\n      0x0a\n        /* \"#utility.yul\":13611:13614   */\n      dup4\n        /* \"#utility.yul\":13552:13619   */\n      tag_214\n      jump\t// in\n    tag_393:\n        /* \"#utility.yul\":13545:13619   */\n      swap2\n      pop\n        /* \"#utility.yul\":13628:13721   */\n      tag_394\n        /* \"#utility.yul\":13717:13720   */\n      dup3\n        /* \"#utility.yul\":13628:13721   */\n      tag_221\n      jump\t// in\n    tag_394:\n        /* \"#utility.yul\":13746:13748   */\n      0x20\n        /* \"#utility.yul\":13741:13744   */\n      dup3\n        /* \"#utility.yul\":13737:13749   */\n      add\n        /* \"#utility.yul\":13730:13749   */\n      swap1\n      pop\n        /* \"#utility.yul\":13389:13755   */\n      swap2\n      swap1\n      pop\n      jump\t// out\n        /* \"#utility.yul\":13761:14180   */\n    tag_116:\n        /* \"#utility.yul\":13927:13931   */\n      0x00\n        /* \"#utility.yul\":13965:13967   */\n      0x20\n        /* \"#utility.yul\":13954:13963   */\n      dup3\n        /* \"#utility.yul\":13950:13968   */\n      add\n        /* \"#utility.yul\":13942:13968   */\n      swap1\n      pop\n        /* \"#utility.yul\":14014:14023   */\n      dup2\n        /* \"#utility.yul\":14008:14012   */\n      dup2\n        /* \"#utility.yul\":14004:14024   */\n      sub\n        /* \"#utility.yul\":14000:14001   */\n      0x00\n        /* \"#utility.yul\":13989:13998   */\n      dup4\n        /* \"#utility.yul\":13985:14002   */\n      add\n        /* \"#utility.yul\":13978:14025   */\n      mstore\n        /* \"#utility.yul\":14042:14173   */\n      tag_396\n        /* \"#utility.yul\":14168:14172   */\n      dup2\n        /* \"#utility.yul\":14042:14173   */\n      tag_222\n      jump\t// in\n    tag_396:\n        /* \"#utility.yul\":14034:14173   */\n      swap1\n      pop\n        /* \"#utility.yul\":13761:14180   */\n      swap2\n      swap1\n      pop\n      jump\t// out\n        /* \"#utility.yul\":14186:14285   */\n    tag_223:\n        /* \"#utility.yul\":14238:14244   */\n      0x00\n        /* \"#utility.yul\":14272:14277   */\n      dup2\n        /* \"#utility.yul\":14266:14278   */\n      mload\n        /* \"#utility.yul\":14256:14278   */\n      swap1\n      pop\n        /* \"#utility.yul\":14186:14285   */\n      swap2\n      swap1\n      pop\n      jump\t// out\n        /* \"#utility.yul\":14291:14471   */\n    tag_224:\n        /* \"#utility.yul\":14339:14416   */\n      0x4e487b7100000000000000000000000000000000000000000000000000000000\n        /* \"#utility.yul\":14336:14337   */\n      0x00\n        /* \"#utility.yul\":14329:14417   */\n      mstore\n        /* \"#utility.yul\":14436:14440   */\n      0x41\n        /* \"#utility.yul\":14433:14434   */\n      0x04\n        /* \"#utility.yul\":14426:14441   */\n      mstore\n        /* \"#utility.yul\":14460:14464   */\n      0x24\n        /* \"#utility.yul\":14457:14458   */\n      0x00\n        /* \"#utility.yul\":14450:14465   */\n      revert\n        /* \"#utility.yul\":14477:14657   */\n    tag_225:\n        /* \"#utility.yul\":14525:14602   */\n      0x4e487b7100000000000000000000000000000000000000000000000000000000\n        /* \"#utility.yul\":14522:14523   */\n      0x00\n        /* \"#utility.yul\":14515:14603   */\n      mstore\n        /* \"#utility.yul\":14622:14626   */\n      0x22\n        /* \"#utility.yul\":14619:14620   */\n      0x04\n        /* \"#utility.yul\":14612:14627   */\n      mstore\n        /* \"#utility.yul\":14646:14650   */\n      0x24\n        /* \"#utility.yul\":14643:14644   */\n      0x00\n        /* \"#utility.yul\":14636:14651   */\n      revert\n        /* \"#utility.yul\":14663:14983   */\n    tag_226:\n        /* \"#utility.yul\":14707:14713   */\n      0x00\n        /* \"#utility.yul\":14744:14745   */\n      0x02\n        /* \"#utility.yul\":14738:14742   */\n      dup3\n        /* \"#utility.yul\":14734:14746   */\n      div\n        /* \"#utility.yul\":14724:14746   */\n      swap1\n      pop\n        /* \"#utility.yul\":14791:14792   */\n      0x01\n        /* \"#utility.yul\":14785:14789   */\n      dup3\n        /* \"#utility.yul\":14781:14793   */\n      and\n        /* \"#utility.yul\":14812:14830   */\n      dup1\n        /* \"#utility.yul\":14802:14883   */\n      tag_401\n      jumpi\n        /* \"#utility.yul\":14868:14872   */\n      0x7f\n        /* \"#utility.yul\":14860:14866   */\n      dup3\n        /* \"#utility.yul\":14856:14873   */\n      and\n        /* \"#utility.yul\":14846:14873   */\n      swap2\n      pop\n        /* \"#utility.yul\":14802:14883   */\n    tag_401:\n        /* \"#utility.yul\":14930:14932   */\n      0x20\n        /* \"#utility.yul\":14922:14928   */\n      dup3\n        /* \"#utility.yul\":14919:14933   */\n      lt\n        /* \"#utility.yul\":14899:14917   */\n      dup2\n        /* \"#utility.yul\":14896:14934   */\n      sub\n        /* \"#utility.yul\":14893:14977   */\n      tag_402\n      jumpi\n        /* \"#utility.yul\":14949:14967   */\n      tag_403\n      tag_225\n      jump\t// in\n    tag_403:\n        /* \"#utility.yul\":14893:14977   */\n    tag_402:\n        /* \"#utility.yul\":14714:14983   */\n      pop\n        /* \"#utility.yul\":14663:14983   */\n      swap2\n      swap1\n      pop\n      jump\t// out\n        /* \"#utility.yul\":14989:15130   */\n    tag_227:\n        /* \"#utility.yul\":15038:15042   */\n      0x00\n        /* \"#utility.yul\":15061:15064   */\n      dup2\n        /* \"#utility.yul\":15053:15064   */\n      swap1\n      pop\n        /* \"#utility.yul\":15084:15087   */\n      dup2\n        /* \"#utility.yul\":15081:15082   */\n      0x00\n        /* \"#utility.yul\":15074:15088   */\n      mstore\n        /* \"#utility.yul\":15118:15122   */\n      0x20\n        /* \"#utility.yul\":15115:15116   */\n      0x00\n        /* \"#utility.yul\":15105:15123   */\n      keccak256\n        /* \"#utility.yul\":15097:15123   */\n      swap1\n      pop\n        /* \"#utility.yul\":14989:15130   */\n      swap2\n      swap1\n      pop\n      jump\t// out\n        /* \"#utility.yul\":15136:15229   */\n    tag_228:\n        /* \"#utility.yul\":15173:15179   */\n      0x00\n        /* \"#utility.yul\":15220:15222   */\n      0x20\n        /* \"#utility.yul\":15215:15217   */\n      0x1f\n        /* \"#utility.yul\":15208:15213   */\n      dup4\n        /* \"#utility.yul\":15204:15218   */\n      add\n        /* \"#utility.yul\":15200:15223   */\n      div\n        /* \"#utility.yul\":15190:15223   */\n      swap1\n      pop\n        /* \"#utility.yul\":15136:15229   */\n      swap2\n      swap1\n      pop\n      jump\t// out\n        /* \"#utility.yul\":15235:15342   */\n    tag_229:\n        /* \"#utility.yul\":15279:15287   */\n      0x00\n        /* \"#utility.yul\":15329:15334   */\n      dup3\n        /* \"#utility.yul\":15323:15327   */\n      dup3\n        /* \"#utility.yul\":15319:15335   */\n      shl\n        /* \"#utility.yul\":15298:15335   */\n      swap1\n      pop\n        /* \"#utility.yul\":15235:15342   */\n      swap3\n      swap2\n      pop\n      pop\n      jump\t// out\n        /* \"#utility.yul\":15348:15741   */\n    tag_230:\n        /* \"#utility.yul\":15417:15423   */\n      0x00\n        /* \"#utility.yul\":15467:15468   */\n      0x08\n        /* \"#utility.yul\":15455:15465   */\n      dup4\n        /* \"#utility.yul\":15451:15469   */\n      mul\n        /* \"#utility.yul\":15490:15587   */\n      tag_408\n        /* \"#utility.yul\":15520:15586   */\n      0xffffffffffffffffffffffffffffffffffffffffffffffffffffffffffffffff\n        /* \"#utility.yul\":15509:15518   */\n      dup3\n        /* \"#utility.yul\":15490:15587   */\n      tag_229\n      jump\t// in\n    tag_408:\n        /* \"#utility.yul\":15608:15647   */\n      tag_409\n        /* \"#utility.yul\":15638:15646   */\n      dup7\n        /* \"#utility.yul\":15627:15636   */\n      dup4\n        /* \"#utility.yul\":15608:15647   */\n      tag_229\n      jump\t// in\n    tag_409:\n        /* \"#utility.yul\":15596:15647   */\n      swap6\n      pop\n        /* \"#utility.yul\":15680:15684   */\n      dup1\n        /* \"#utility.yul\":15676:15685   */\n      not\n        /* \"#utility.yul\":15669:15674   */\n      dup5\n        /* \"#utility.yul\":15665:15686   */\n      and\n        /* \"#utility.yul\":15656:15686   */\n      swap4\n      pop\n        /* \"#utility.yul\":15729:15733   */\n      dup1\n        /* \"#utility.yul\":15719:15727   */\n      dup7\n        /* \"#utility.yul\":15715:15734   */\n      and\n        /* \"#utility.yul\":15708:15713   */\n      dup5\n        /* \"#utility.yul\":15705:15735   */\n      or\n        /* \"#utility.yul\":15695:15735   */\n      swap3\n      pop\n        /* \"#utility.yul\":15424:15741   */\n      pop\n      pop\n        /* \"#utility.yul\":15348:15741   */\n      swap4\n      swap3\n      pop\n      pop\n      pop\n      jump\t// out\n        /* \"#utility.yul\":15747:15807   */\n    tag_231:\n        /* \"#utility.yul\":15775:15778   */\n      0x00\n        /* \"#utility.yul\":15796:15801   */\n      dup2\n        /* \"#utility.yul\":15789:15801   */\n      swap1\n      pop\n        /* \"#utility.yul\":15747:15807   */\n      swap2\n      swap1\n      pop\n      jump\t// out\n        /* \"#utility.yul\":15813:15955   */\n    tag_232:\n        /* \"#utility.yul\":15863:15872   */\n      0x00\n        /* \"#utility.yul\":15896:15949   */\n      tag_412\n        /* \"#utility.yul\":15914:15948   */\n      tag_413\n        /* \"#utility.yul\":15923:15947   */\n      tag_414\n        /* \"#utility.yul\":15941:15946   */\n      dup5\n        /* \"#utility.yul\":15923:15947   */\n      tag_191\n      jump\t// in\n    tag_414:\n        /* \"#utility.yul\":15914:15948   */\n      tag_231\n      jump\t// in\n    tag_413:\n        /* \"#utility.yul\":15896:15949   */\n      tag_191\n      jump\t// in\n    tag_412:\n        /* \"#utility.yul\":15883:15949   */\n      swap1\n      pop\n        /* \"#utility.yul\":15813:15955   */\n      swap2\n      swap1\n      pop\n      jump\t// out\n        /* \"#utility.yul\":15961:16036   */\n    tag_233:\n        /* \"#utility.yul\":16004:16007   */\n      0x00\n        /* \"#utility.yul\":16025:16030   */\n      dup2\n        /* \"#utility.yul\":16018:16030   */\n      swap1\n      pop\n        /* \"#utility.yul\":15961:16036   */\n      swap2\n      swap1\n      pop\n      jump\t// out\n        /* \"#utility.yul\":16042:16311   */\n    tag_234:\n        /* \"#utility.yul\":16152:16191   */\n      tag_417\n        /* \"#utility.yul\":16183:16190   */\n      dup4\n        /* \"#utility.yul\":16152:16191   */\n      tag_232\n      jump\t// in\n    tag_417:\n        /* \"#utility.yul\":16213:16304   */\n      tag_418\n        /* \"#utility.yul\":16262:16303   */\n      tag_419\n        /* \"#utility.yul\":16286:16302   */\n      dup3\n        /* \"#utility.yul\":16262:16303   */\n      tag_233\n      jump\t// in\n    tag_419:\n        /* \"#utility.yul\":16254:16260   */\n      dup5\n        /* \"#utility.yul\":16247:16251   */\n      dup5\n        /* \"#utility.yul\":16241:16252   */\n      sload\n        /* \"#utility.yul\":16213:16304   */\n      tag_230\n      jump\t// in\n    tag_418:\n        /* \"#utility.yul\":16207:16211   */\n      dup3\n        /* \"#utility.yul\":16200:16305   */\n      sstore\n        /* \"#utility.yul\":16118:16311   */\n      pop\n        /* \"#utility.yul\":16042:16311   */\n      pop\n      pop\n      pop\n      jump\t// out\n        /* \"#utility.yul\":16317:16390   */\n    tag_235:\n        /* \"#utility.yul\":16362:16365   */\n      0x00\n        /* \"#utility.yul\":16317:16390   */\n      swap1\n      jump\t// out\n        /* \"#utility.yul\":16396:16585   */\n    tag_236:\n        /* \"#utility.yul\":16473:16505   */\n      tag_422\n      tag_235\n      jump\t// in\n    tag_422:\n        /* \"#utility.yul\":16514:16579   */\n      tag_423\n        /* \"#utility.yul\":16572:16578   */\n      dup2\n        /* \"#utility.yul\":16564:16570   */\n      dup5\n        /* \"#utility.yul\":16558:16562   */\n      dup5\n        /* \"#utility.yul\":16514:16579   */\n      tag_234\n      jump\t// in\n    tag_423:\n        /* \"#utility.yul\":16449:16585   */\n      pop\n        /* \"#utility.yul\":16396:16585   */\n      pop\n      pop\n      jump\t// out\n        /* \"#utility.yul\":16591:16777   */\n    tag_237:\n        /* \"#utility.yul\":16651:16771   */\n    tag_425:\n        /* \"#utility.yul\":16668:16671   */\n      dup2\n        /* \"#utility.yul\":16661:16666   */\n      dup2\n        /* \"#utility.yul\":16658:16672   */\n      lt\n        /* \"#utility.yul\":16651:16771   */\n      iszero\n      tag_427\n      jumpi\n        /* \"#utility.yul\":16722:16761   */\n      tag_428\n        /* \"#utility.yul\":16759:16760   */\n      0x00\n        /* \"#utility.yul\":16752:16757   */\n      dup3\n        /* \"#utility.yul\":16722:16761   */\n      tag_236\n      jump\t// in\n    tag_428:\n        /* \"#utility.yul\":16695:16696   */\n      0x01\n        /* \"#utility.yul\":16688:16693   */\n      dup2\n        /* \"#utility.yul\":16684:16697   */\n      add\n        /* \"#utility.yul\":16675:16697   */\n      swap1\n      pop\n        /* \"#utility.yul\":16651:16771   */\n      jump(tag_425)\n    tag_427:\n        /* \"#utility.yul\":16591:16777   */\n      pop\n      pop\n      jump\t// out\n        /* \"#utility.yul\":16783:17326   */\n    tag_238:\n        /* \"#utility.yul\":16884:16886   */\n      0x1f\n        /* \"#utility.yul\":16879:16882   */\n      dup3\n        /* \"#utility.yul\":16876:16887   */\n      gt\n        /* \"#utility.yul\":16873:17319   */\n      iszero\n      tag_430\n      jumpi\n        /* \"#utility.yul\":16918:16956   */\n      tag_431\n        /* \"#utility.yul\":16950:16955   */\n      dup2\n        /* \"#utility.yul\":16918:16956   */\n      tag_227\n      jump\t// in\n    tag_431:\n        /* \"#utility.yul\":17002:17031   */\n      tag_432\n        /* \"#utility.yul\":17020:17030   */\n      dup5\n        /* \"#utility.yul\":17002:17031   */\n      tag_228\n      jump\t// in\n    tag_432:\n        /* \"#utility.yul\":16992:17000   */\n      dup2\n        /* \"#utility.yul\":16988:17032   */\n      add\n        /* \"#utility.yul\":17185:17187   */\n      0x20\n        /* \"#utility.yul\":17173:17183   */\n      dup6\n        /* \"#utility.yul\":17170:17188   */\n      lt\n        /* \"#utility.yul\":17167:17216   */\n      iszero\n      tag_433\n      jumpi\n        /* \"#utility.yul\":17206:17214   */\n      dup2\n        /* \"#utility.yul\":17191:17214   */\n      swap1\n      pop\n        /* \"#utility.yul\":17167:17216   */\n    tag_433:\n        /* \"#utility.yul\":17229:17309   */\n      tag_434\n        /* \"#utility.yul\":17285:17307   */\n      tag_435\n        /* \"#utility.yul\":17303:17306   */\n      dup6\n        /* \"#utility.yul\":17285:17307   */\n      tag_228\n      jump\t// in\n    tag_435:\n        /* \"#utility.yul\":17275:17283   */\n      dup4\n        /* \"#utility.yul\":17271:17308   */\n      add\n        /* \"#utility.yul\":17258:17269   */\n      dup3\n        /* \"#utility.yul\":17229:17309   */\n      tag_237\n      jump\t// in\n    tag_434:\n        /* \"#utility.yul\":16888:17319   */\n      pop\n      pop\n        /* \"#utility.yul\":16873:17319   */\n    tag_430:\n        /* \"#utility.yul\":16783:17326   */\n      pop\n      pop\n      pop\n      jump\t// out\n        /* \"#utility.yul\":17332:17449   */\n    tag_239:\n        /* \"#utility.yul\":17386:17394   */\n      0x00\n        /* \"#utility.yul\":17436:17441   */\n      dup3\n        /* \"#utility.yul\":17430:17434   */\n      dup3\n        /* \"#utility.yul\":17426:17442   */\n      shr\n        /* \"#utility.yul\":17405:17442   */\n      swap1\n      pop\n        /* \"#utility.yul\":17332:17449   */\n      swap3\n      swap2\n      pop\n      pop\n      jump\t// out\n        /* \"#utility.yul\":17455:17624   */\n    tag_240:\n        /* \"#utility.yul\":17499:17505   */\n      0x00\n        /* \"#utility.yul\":17532:17583   */\n      tag_438\n        /* \"#utility.yul\":17580:17581   */\n      0x00\n        /* \"#utility.yul\":17576:17582   */\n      not\n        /* \"#utility.yul\":17568:17573   */\n      dup5\n        /* \"#utility.yul\":17565:17566   */\n      0x08\n        /* \"#utility.yul\":17561:17574   */\n      mul\n        /* \"#utility.yul\":17532:17583   */\n      tag_239\n      jump\t// in\n    tag_438:\n        /* \"#utility.yul\":17528:17584   */\n      not\n        /* \"#utility.yul\":17613:17617   */\n      dup1\n        /* \"#utility.yul\":17607:17611   */\n      dup4\n        /* \"#utility.yul\":17603:17618   */\n      and\n        /* \"#utility.yul\":17593:17618   */\n      swap2\n      pop\n        /* \"#utility.yul\":17506:17624   */\n      pop\n        /* \"#utility.yul\":17455:17624   */\n      swap3\n      swap2\n      pop\n      pop\n      jump\t// out\n        /* \"#utility.yul\":17629:17924   */\n    tag_241:\n        /* \"#utility.yul\":17705:17709   */\n      0x00\n        /* \"#utility.yul\":17851:17880   */\n      tag_440\n        /* \"#utility.yul\":17876:17879   */\n      dup4\n        /* \"#utility.yul\":17870:17874   */\n      dup4\n        /* \"#utility.yul\":17851:17880   */\n      tag_240\n      jump\t// in\n    tag_440:\n        /* \"#utility.yul\":17843:17880   */\n      swap2\n      pop\n        /* \"#utility.yul\":17913:17916   */\n      dup3\n        /* \"#utility.yul\":17910:17911   */\n      0x02\n        /* \"#utility.yul\":17906:17917   */\n      mul\n        /* \"#utility.yul\":17900:17904   */\n      dup3\n        /* \"#utility.yul\":17897:17918   */\n      or\n        /* \"#utility.yul\":17889:17918   */\n      swap1\n      pop\n        /* \"#utility.yul\":17629:17924   */\n      swap3\n      swap2\n      pop\n      pop\n      jump\t// out\n        /* \"#utility.yul\":17929:19324   */\n    tag_119:\n        /* \"#utility.yul\":18046:18083   */\n      tag_442\n        /* \"#utility.yul\":18079:18082   */\n      dup3\n        /* \"#utility.yul\":18046:18083   */\n      tag_223\n      jump\t// in\n    tag_442:\n        /* \"#utility.yul\":18148:18166   */\n      0xffffffffffffffff\n        /* \"#utility.yul\":18140:18146   */\n      dup2\n        /* \"#utility.yul\":18137:18167   */\n      gt\n        /* \"#utility.yul\":18134:18190   */\n      iszero\n      tag_443\n      jumpi\n        /* \"#utility.yul\":18170:18188   */\n      tag_444\n      tag_224\n      jump\t// in\n    tag_444:\n        /* \"#utility.yul\":18134:18190   */\n    tag_443:\n        /* \"#utility.yul\":18214:18252   */\n      tag_445\n        /* \"#utility.yul\":18246:18250   */\n      dup3\n        /* \"#utility.yul\":18240:18251   */\n      sload\n        /* \"#utility.yul\":18214:18252   */\n      tag_226\n      jump\t// in\n    tag_445:\n        /* \"#utility.yul\":18299:18366   */\n      tag_446\n        /* \"#utility.yul\":18359:18365   */\n      dup3\n        /* \"#utility.yul\":18351:18357   */\n      dup3\n        /* \"#utility.yul\":18345:18349   */\n      dup6\n        /* \"#utility.yul\":18299:18366   */\n      tag_238\n      jump\t// in\n    tag_446:\n        /* \"#utility.yul\":18393:18394   */\n      0x00\n        /* \"#utility.yul\":18417:18421   */\n      0x20\n        /* \"#utility.yul\":18404:18421   */\n      swap1\n      pop\n        /* \"#utility.yul\":18449:18451   */\n      0x1f\n        /* \"#utility.yul\":18441:18447   */\n      dup4\n        /* \"#utility.yul\":18438:18452   */\n      gt\n        /* \"#utility.yul\":18466:18467   */\n      0x01\n        /* \"#utility.yul\":18461:19079   */\n      dup2\n      eq\n      tag_448\n      jumpi\n        /* \"#utility.yul\":19123:19124   */\n      0x00\n        /* \"#utility.yul\":19140:19146   */\n      dup5\n        /* \"#utility.yul\":19137:19214   */\n      iszero\n      tag_449\n      jumpi\n        /* \"#utility.yul\":19189:19198   */\n      dup3\n        /* \"#utility.yul\":19184:19187   */\n      dup8\n        /* \"#utility.yul\":19180:19199   */\n      add\n        /* \"#utility.yul\":19174:19200   */\n      mload\n        /* \"#utility.yul\":19165:19200   */\n      swap1\n      pop\n        /* \"#utility.yul\":19137:19214   */\n    tag_449:\n        /* \"#utility.yul\":19240:19307   */\n      tag_450\n        /* \"#utility.yul\":19300:19306   */\n      dup6\n        /* \"#utility.yul\":19293:19298   */\n      dup3\n        /* \"#utility.yul\":19240:19307   */\n      tag_241\n      jump\t// in\n    tag_450:\n        /* \"#utility.yul\":19234:19238   */\n      dup7\n        /* \"#utility.yul\":19227:19308   */\n      sstore\n        /* \"#utility.yul\":19096:19318   */\n      pop\n        /* \"#utility.yul\":18431:19318   */\n      jump(tag_447)\n        /* \"#utility.yul\":18461:19079   */\n    tag_448:\n        /* \"#utility.yul\":18513:18517   */\n      0x1f\n        /* \"#utility.yul\":18509:18518   */\n      not\n        /* \"#utility.yul\":18501:18507   */\n      dup5\n        /* \"#utility.yul\":18497:18519   */\n      and\n        /* \"#utility.yul\":18547:18584   */\n      tag_451\n        /* \"#utility.yul\":18579:18583   */\n      dup7\n        /* \"#utility.yul\":18547:18584   */\n      tag_227\n      jump\t// in\n    tag_451:\n        /* \"#utility.yul\":18606:18607   */\n      0x00\n        /* \"#utility.yul\":18620:18828   */\n    tag_452:\n        /* \"#utility.yul\":18634:18641   */\n      dup3\n        /* \"#utility.yul\":18631:18632   */\n      dup2\n        /* \"#utility.yul\":18628:18642   */\n      lt\n        /* \"#utility.yul\":18620:18828   */\n      iszero\n      tag_454\n      jumpi\n        /* \"#utility.yul\":18713:18722   */\n      dup5\n        /* \"#utility.yul\":18708:18711   */\n      dup10\n        /* \"#utility.yul\":18704:18723   */\n      add\n        /* \"#utility.yul\":18698:18724   */\n      mload\n        /* \"#utility.yul\":18690:18696   */\n      dup3\n        /* \"#utility.yul\":18683:18725   */\n      sstore\n        /* \"#utility.yul\":18764:18765   */\n      0x01\n        /* \"#utility.yul\":18756:18762   */\n      dup3\n        /* \"#utility.yul\":18752:18766   */\n      add\n        /* \"#utility.yul\":18742:18766   */\n      swap2\n      pop\n        /* \"#utility.yul\":18811:18813   */\n      0x20\n        /* \"#utility.yul\":18800:18809   */\n      dup6\n        /* \"#utility.yul\":18796:18814   */\n      add\n        /* \"#utility.yul\":18783:18814   */\n      swap5\n      pop\n        /* \"#utility.yul\":18657:18661   */\n      0x20\n        /* \"#utility.yul\":18654:18655   */\n      dup2\n        /* \"#utility.yul\":18650:18662   */\n      add\n        /* \"#utility.yul\":18645:18662   */\n      swap1\n      pop\n        /* \"#utility.yul\":18620:18828   */\n      jump(tag_452)\n    tag_454:\n        /* \"#utility.yul\":18856:18862   */\n      dup7\n        /* \"#utility.yul\":18847:18854   */\n      dup4\n        /* \"#utility.yul\":18844:18863   */\n      lt\n        /* \"#utility.yul\":18841:19020   */\n      iszero\n      tag_455\n      jumpi\n        /* \"#utility.yul\":18914:18923   */\n      dup5\n        /* \"#utility.yul\":18909:18912   */\n      dup10\n        /* \"#utility.yul\":18905:18924   */\n      add\n        /* \"#utility.yul\":18899:18925   */\n      mload\n        /* \"#utility.yul\":18957:19005   */\n      tag_456\n        /* \"#utility.yul\":18999:19003   */\n      0x1f\n        /* \"#utility.yul\":18991:18997   */\n      dup10\n        /* \"#utility.yul\":18987:19004   */\n      and\n        /* \"#utility.yul\":18976:18985   */\n      dup3\n        /* \"#utility.yul\":18957:19005   */\n      tag_240\n      jump\t// in\n    tag_456:\n        /* \"#utility.yul\":18949:18955   */\n      dup4\n        /* \"#utility.yul\":18942:19006   */\n      sstore\n        /* \"#utility.yul\":18864:19020   */\n      pop\n        /* \"#utility.yul\":18841:19020   */\n    tag_455:\n        /* \"#utility.yul\":19066:19067   */\n      0x01\n        /* \"#utility.yul\":19062:19063   */\n      0x02\n        /* \"#utility.yul\":19054:19060   */\n      dup9\n        /* \"#utility.yul\":19050:19064   */\n      mul\n        /* \"#utility.yul\":19046:19068   */\n      add\n        /* \"#utility.yul\":19040:19044   */\n      dup9\n        /* \"#utility.yul\":19033:19069   */\n      sstore\n        /* \"#utility.yul\":18468:19079   */\n      pop\n      pop\n      pop\n        /* \"#utility.yul\":18431:19318   */\n    tag_447:\n      pop\n        /* \"#utility.yul\":18021:19324   */\n      pop\n      pop\n      pop\n        /* \"#utility.yul\":17929:19324   */\n      pop\n      pop\n      jump\t// out\n        /* \"#utility.yul\":19330:19487   */\n    tag_242:\n        /* \"#utility.yul\":19470:19479   */\n      0x4861642073657400000000000000000000000000000000000000000000000000\n        /* \"#utility.yul\":19466:19467   */\n      0x00\n        /* \"#utility.yul\":19458:19464   */\n      dup3\n        /* \"#utility.yul\":19454:19468   */\n      add\n        /* \"#utility.yul\":19447:19480   */\n      mstore\n        /* \"#utility.yul\":19330:19487   */\n      pop\n      jump\t// out\n        /* \"#utility.yul\":19493:19858   */\n    tag_243:\n        /* \"#utility.yul\":19635:19638   */\n      0x00\n        /* \"#utility.yul\":19656:19722   */\n      tag_459\n        /* \"#utility.yul\":19720:19721   */\n      0x07\n        /* \"#utility.yul\":19715:19718   */\n      dup4\n        /* \"#utility.yul\":19656:19722   */\n      tag_214\n      jump\t// in\n    tag_459:\n        /* \"#utility.yul\":19649:19722   */\n      swap2\n      pop\n        /* \"#utility.yul\":19731:19824   */\n      tag_460\n        /* \"#utility.yul\":19820:19823   */\n      dup3\n        /* \"#utility.yul\":19731:19824   */\n      tag_242\n      jump\t// in\n    tag_460:\n        /* \"#utility.yul\":19849:19851   */\n      0x20\n        /* \"#utility.yul\":19844:19847   */\n      dup3\n        /* \"#utility.yul\":19840:19852   */\n      add\n        /* \"#utility.yul\":19833:19852   */\n      swap1\n      pop\n        /* \"#utility.yul\":19493:19858   */\n      swap2\n      swap1\n      pop\n      jump\t// out\n        /* \"#utility.yul\":19864:20283   */\n    tag_126:\n        /* \"#utility.yul\":20030:20034   */\n      0x00\n        /* \"#utility.yul\":20068:20070   */\n      0x20\n        /* \"#utility.yul\":20057:20066   */\n      dup3\n        /* \"#utility.yul\":20053:20071   */\n      add\n        /* \"#utility.yul\":20045:20071   */\n      swap1\n      pop\n        /* \"#utility.yul\":20117:20126   */\n      dup2\n        /* \"#utility.yul\":20111:20115   */\n      dup2\n        /* \"#utility.yul\":20107:20127   */\n      sub\n        /* \"#utility.yul\":20103:20104   */\n      0x00\n        /* \"#utility.yul\":20092:20101   */\n      dup4\n        /* \"#utility.yul\":20088:20105   */\n      add\n        /* \"#utility.yul\":20081:20128   */\n      mstore\n        /* \"#utility.yul\":20145:20276   */\n      tag_462\n        /* \"#utility.yul\":20271:20275   */\n      dup2\n        /* \"#utility.yul\":20145:20276   */\n      tag_243\n      jump\t// in\n    tag_462:\n        /* \"#utility.yul\":20137:20276   */\n      swap1\n      pop\n        /* \"#utility.yul\":19864:20283   */\n      swap2\n      swap1\n      pop\n      jump\t// out\n        /* \"#utility.yul\":20289:20469   */\n    tag_135:\n        /* \"#utility.yul\":20337:20414   */\n      0x4e487b7100000000000000000000000000000000000000000000000000000000\n        /* \"#utility.yul\":20334:20335   */\n      0x00\n        /* \"#utility.yul\":20327:20415   */\n      mstore\n        /* \"#utility.yul\":20434:20438   */\n      0x32\n        /* \"#utility.yul\":20431:20432   */\n      0x04\n        /* \"#utility.yul\":20424:20439   */\n      mstore\n        /* \"#utility.yul\":20458:20462   */\n      0x24\n        /* \"#utility.yul\":20455:20456   */\n      0x00\n        /* \"#utility.yul\":20448:20463   */\n      revert\n        /* \"#utility.yul\":20475:20564   */\n    tag_244:\n        /* \"#utility.yul\":20511:20518   */\n      0x00\n        /* \"#utility.yul\":20551:20557   */\n      0xffff\n        /* \"#utility.yul\":20544:20549   */\n      dup3\n        /* \"#utility.yul\":20540:20558   */\n      and\n        /* \"#utility.yul\":20529:20558   */\n      swap1\n      pop\n        /* \"#utility.yul\":20475:20564   */\n      swap2\n      swap1\n      pop\n      jump\t// out\n        /* \"#utility.yul\":20570:20741   */\n    tag_139:\n        /* \"#utility.yul\":20608:20611   */\n      0x00\n        /* \"#utility.yul\":20631:20654   */\n      tag_466\n        /* \"#utility.yul\":20648:20653   */\n      dup3\n        /* \"#utility.yul\":20631:20654   */\n      tag_244\n      jump\t// in\n    tag_466:\n        /* \"#utility.yul\":20622:20654   */\n      swap2\n      pop\n        /* \"#utility.yul\":20676:20682   */\n      0xffff\n        /* \"#utility.yul\":20669:20674   */\n      dup3\n        /* \"#utility.yul\":20666:20683   */\n      sub\n        /* \"#utility.yul\":20663:20706   */\n      tag_467\n      jumpi\n        /* \"#utility.yul\":20686:20704   */\n      tag_468\n      tag_213\n      jump\t// in\n    tag_468:\n        /* \"#utility.yul\":20663:20706   */\n    tag_467:\n        /* \"#utility.yul\":20733:20734   */\n      0x01\n        /* \"#utility.yul\":20726:20731   */\n      dup3\n        /* \"#utility.yul\":20722:20735   */\n      add\n        /* \"#utility.yul\":20715:20735   */\n      swap1\n      pop\n        /* \"#utility.yul\":20570:20741   */\n      swap2\n      swap1\n      pop\n      jump\t// out\n        /* \"#utility.yul\":20747:20909   */\n    tag_245:\n        /* \"#utility.yul\":20887:20901   */\n      0x4e756d626572206572726f720000000000000000000000000000000000000000\n        /* \"#utility.yul\":20883:20884   */\n      0x00\n        /* \"#utility.yul\":20875:20881   */\n      dup3\n        /* \"#utility.yul\":20871:20885   */\n      add\n        /* \"#utility.yul\":20864:20902   */\n      mstore\n        /* \"#utility.yul\":20747:20909   */\n      pop\n      jump\t// out\n        /* \"#utility.yul\":20915:21281   */\n    tag_246:\n        /* \"#utility.yul\":21057:21060   */\n      0x00\n        /* \"#utility.yul\":21078:21145   */\n      tag_471\n        /* \"#utility.yul\":21142:21144   */\n      0x0c\n        /* \"#utility.yul\":21137:21140   */\n      dup4\n        /* \"#utility.yul\":21078:21145   */\n      tag_214\n      jump\t// in\n    tag_471:\n        /* \"#utility.yul\":21071:21145   */\n      swap2\n      pop\n        /* \"#utility.yul\":21154:21247   */\n      tag_472\n        /* \"#utility.yul\":21243:21246   */\n      dup3\n        /* \"#utility.yul\":21154:21247   */\n      tag_245\n      jump\t// in\n    tag_472:\n        /* \"#utility.yul\":21272:21274   */\n      0x20\n        /* \"#utility.yul\":21267:21270   */\n      dup3\n        /* \"#utility.yul\":21263:21275   */\n      add\n        /* \"#utility.yul\":21256:21275   */\n      swap1\n      pop\n        /* \"#utility.yul\":20915:21281   */\n      swap2\n      swap1\n      pop\n      jump\t// out\n        /* \"#utility.yul\":21287:21706   */\n    tag_151:\n        /* \"#utility.yul\":21453:21457   */\n      0x00\n        /* \"#utility.yul\":21491:21493   */\n      0x20\n        /* \"#utility.yul\":21480:21489   */\n      dup3\n        /* \"#utility.yul\":21476:21494   */\n      add\n        /* \"#utility.yul\":21468:21494   */\n      swap1\n      pop\n        /* \"#utility.yul\":21540:21549   */\n      dup2\n        /* \"#utility.yul\":21534:21538   */\n      dup2\n        /* \"#utility.yul\":21530:21550   */\n      sub\n        /* \"#utility.yul\":21526:21527   */\n      0x00\n        /* \"#utility.yul\":21515:21524   */\n      dup4\n        /* \"#utility.yul\":21511:21528   */\n      add\n        /* \"#utility.yul\":21504:21551   */\n      mstore\n        /* \"#utility.yul\":21568:21699   */\n      tag_474\n        /* \"#utility.yul\":21694:21698   */\n      dup2\n        /* \"#utility.yul\":21568:21699   */\n      tag_246\n      jump\t// in\n    tag_474:\n        /* \"#utility.yul\":21560:21699   */\n      swap1\n      pop\n        /* \"#utility.yul\":21287:21706   */\n      swap2\n      swap1\n      pop\n      jump\t// out\n        /* \"#utility.yul\":21712:21937   */\n    tag_247:\n        /* \"#utility.yul\":21852:21886   */\n      0x4f776e61626c653a206e6577206f776e657220697320746865207a65726f2061\n        /* \"#utility.yul\":21848:21849   */\n      0x00\n        /* \"#utility.yul\":21840:21846   */\n      dup3\n        /* \"#utility.yul\":21836:21850   */\n      add\n        /* \"#utility.yul\":21829:21887   */\n      mstore\n        /* \"#utility.yul\":21921:21929   */\n      0x6464726573730000000000000000000000000000000000000000000000000000\n        /* \"#utility.yul\":21916:21918   */\n      0x20\n        /* \"#utility.yul\":21908:21914   */\n      dup3\n        /* \"#utility.yul\":21904:21919   */\n      add\n        /* \"#utility.yul\":21897:21930   */\n      mstore\n        /* \"#utility.yul\":21712:21937   */\n      pop\n      jump\t// out\n        /* \"#utility.yul\":21943:22309   */\n    tag_248:\n        /* \"#utility.yul\":22085:22088   */\n      0x00\n        /* \"#utility.yul\":22106:22173   */\n      tag_477\n        /* \"#utility.yul\":22170:22172   */\n      0x26\n        /* \"#utility.yul\":22165:22168   */\n      dup4\n        /* \"#utility.yul\":22106:22173   */\n      tag_214\n      jump\t// in\n    tag_477:\n        /* \"#utility.yul\":22099:22173   */\n      swap2\n      pop\n        /* \"#utility.yul\":22182:22275   */\n      tag_478\n        /* \"#utility.yul\":22271:22274   */\n      dup3\n        /* \"#utility.yul\":22182:22275   */\n      tag_247\n      jump\t// in\n    tag_478:\n        /* \"#utility.yul\":22300:22302   */\n      0x40\n        /* \"#utility.yul\":22295:22298   */\n      dup3\n        /* \"#utility.yul\":22291:22303   */\n      add\n        /* \"#utility.yul\":22284:22303   */\n      swap1\n      pop\n        /* \"#utility.yul\":21943:22309   */\n      swap2\n      swap1\n      pop\n      jump\t// out\n        /* \"#utility.yul\":22315:22734   */\n    tag_173:\n        /* \"#utility.yul\":22481:22485   */\n      0x00\n        /* \"#utility.yul\":22519:22521   */\n      0x20\n        /* \"#utility.yul\":22508:22517   */\n      dup3\n        /* \"#utility.yul\":22504:22522   */\n      add\n        /* \"#utility.yul\":22496:22522   */\n      swap1\n      pop\n        /* \"#utility.yul\":22568:22577   */\n      dup2\n        /* \"#utility.yul\":22562:22566   */\n      dup2\n        /* \"#utility.yul\":22558:22578   */\n      sub\n        /* \"#utility.yul\":22554:22555   */\n      0x00\n        /* \"#utility.yul\":22543:22552   */\n      dup4\n        /* \"#utility.yul\":22539:22556   */\n      add\n        /* \"#utility.yul\":22532:22579   */\n      mstore\n        /* \"#utility.yul\":22596:22727   */\n      tag_480\n        /* \"#utility.yul\":22722:22726   */\n      dup2\n        /* \"#utility.yul\":22596:22727   */\n      tag_248\n      jump\t// in\n    tag_480:\n        /* \"#utility.yul\":22588:22727   */\n      swap1\n      pop\n        /* \"#utility.yul\":22315:22734   */\n      swap2\n      swap1\n      pop\n      jump\t// out\n        /* \"#utility.yul\":22740:22922   */\n    tag_249:\n        /* \"#utility.yul\":22880:22914   */\n      0x4f776e61626c653a2063616c6c6572206973206e6f7420746865206f776e6572\n        /* \"#utility.yul\":22876:22877   */\n      0x00\n        /* \"#utility.yul\":22868:22874   */\n      dup3\n        /* \"#utility.yul\":22864:22878   */\n      add\n        /* \"#utility.yul\":22857:22915   */\n      mstore\n        /* \"#utility.yul\":22740:22922   */\n      pop\n      jump\t// out\n        /* \"#utility.yul\":22928:23294   */\n    tag_250:\n        /* \"#utility.yul\":23070:23073   */\n      0x00\n        /* \"#utility.yul\":23091:23158   */\n      tag_483\n        /* \"#utility.yul\":23155:23157   */\n      0x20\n        /* \"#utility.yul\":23150:23153   */\n      dup4\n        /* \"#utility.yul\":23091:23158   */\n      tag_214\n      jump\t// in\n    tag_483:\n        /* \"#utility.yul\":23084:23158   */\n      swap2\n      pop\n        /* \"#utility.yul\":23167:23260   */\n      tag_484\n        /* \"#utility.yul\":23256:23259   */\n      dup3\n        /* \"#utility.yul\":23167:23260   */\n      tag_249\n      jump\t// in\n    tag_484:\n        /* \"#utility.yul\":23285:23287   */\n      0x20\n        /* \"#utility.yul\":23280:23283   */\n      dup3\n        /* \"#utility.yul\":23276:23288   */\n      add\n        /* \"#utility.yul\":23269:23288   */\n      swap1\n      pop\n        /* \"#utility.yul\":22928:23294   */\n      swap2\n      swap1\n      pop\n      jump\t// out\n        /* \"#utility.yul\":23300:23719   */\n    tag_181:\n        /* \"#utility.yul\":23466:23470   */\n      0x00\n        /* \"#utility.yul\":23504:23506   */\n      0x20\n        /* \"#utility.yul\":23493:23502   */\n      dup3\n        /* \"#utility.yul\":23489:23507   */\n      add\n        /* \"#utility.yul\":23481:23507   */\n      swap1\n      pop\n        /* \"#utility.yul\":23553:23562   */\n      dup2\n        /* \"#utility.yul\":23547:23551   */\n      dup2\n        /* \"#utility.yul\":23543:23563   */\n      sub\n        /* \"#utility.yul\":23539:23540   */\n      0x00\n        /* \"#utility.yul\":23528:23537   */\n      dup4\n        /* \"#utility.yul\":23524:23541   */\n      add\n        /* \"#utility.yul\":23517:23564   */\n      mstore\n        /* \"#utility.yul\":23581:23712   */\n      tag_486\n        /* \"#utility.yul\":23707:23711   */\n      dup2\n        /* \"#utility.yul\":23581:23712   */\n      tag_250\n      jump\t// in\n    tag_486:\n        /* \"#utility.yul\":23573:23712   */\n      swap1\n      pop\n        /* \"#utility.yul\":23300:23719   */\n      swap2\n      swap1\n      pop\n      jump\t// out\n\n    auxdata: 0xa26469706673582212208b178f87fa8b6d11c3b00dd4faa67f0766d37e167b37d4a7280dc47e9f8e2e0664736f6c63430008130033\n}\n",
				"bytecode": {
					"linkReferences": {},
					"object": "608060405234801561001057600080fd5b5061002d61002261003260201b60201c565b61003a60201b60201c565b6100fe565b600033905090565b60008060009054906101000a900473ffffffffffffffffffffffffffffffffffffffff169050816000806101000a81548173ffffffffffffffffffffffffffffffffffffffff021916908373ffffffffffffffffffffffffffffffffffffffff1602179055508173ffffffffffffffffffffffffffffffffffffffff168173ffffffffffffffffffffffffffffffffffffffff167f8be0079c531659141344cd1fd0a4f28419497f9722a3daafe3b4186f6b6457e060405160405180910390a35050565b611c768061010d6000396000f3fe608060405234801561001057600080fd5b50600436106100f55760003560e01c806366bba4f511610097578063a72124b711610066578063a72124b71461025e578063d78679051461027c578063e64aa3e8146102ac578063f2fde38b146102c8576100f5565b806366bba4f5146101e8578063682c0fc114610218578063715018a6146102365780638da5cb5b14610240576100f5565b8063479c32ec116100d3578063479c32ec146101625780634b6ab77b1461018057806352950c9a146101b05780635974b4d5146101cc576100f5565b80631049dc34146100fa578063158f2cae146101165780631df058f514610146575b600080fd5b610114600480360381019061010f9190610fdd565b6102e4565b005b610130600480360381019061012b9190611040565b61036b565b60405161013d9190611088565b60405180910390f35b610160600480360381019061015b91906110eb565b6103b7565b005b61016a6105cf565b60405161017791906111d6565b60405180910390f35b61019a60048036038101906101959190610fdd565b61065d565b6040516101a79190611207565b60405180910390f35b6101ca60048036038101906101c59190611287565b6106a6565b005b6101e660048036038101906101e1919061132e565b6108f1565b005b61020260048036038101906101fd9190610fdd565b610aea565b60405161020f9190611088565b60405180910390f35b610220610b98565b60405161022d9190611207565b60405180910390f35b61023e610ba2565b005b610248610bb6565b6040516102559190611390565b60405180910390f35b610266610bdf565b6040516102739190611390565b60405180910390f35b610296600480360381019061029191906113ab565b610c09565b6040516102a39190611207565b60405180910390f35b6102c660048036038101906102c19190610fdd565b610ca8565b005b6102e260048036038101906102dd9190610fdd565b610da8565b005b6102ec610e2b565b600115156102f982610aea565b15150361030557600080fd5b6003819080600181540180825580915050600190039060005260206000200160009091909190916101000a81548173ffffffffffffffffffffffffffffffffffffffff021916908373ffffffffffffffffffffffffffffffffffffffff16021790555050565b6000600160026003805490506103819190611449565b61038b919061147a565b6005600084815260200190815260200160002054106103ad57600190506103b2565b600090505b919050565b60001515600660003373ffffffffffffffffffffffffffffffffffffffff1673ffffffffffffffffffffffffffffffffffffffff1681526020019081526020016000206000836fffffffffffffffffffffffffffffffff16815260200190815260200160002060009054906101000a900460ff1615151461046d576040517f08c379a00000000000000000000000000000000000000000000000000000000081526004016104649061150b565b60405180910390fd5b61047633610aea565b6104b5576040517f08c379a00000000000000000000000000000000000000000000000000000000081526004016104ac90611577565b60405180910390fd5b600015156104d4826fffffffffffffffffffffffffffffffff1661036b565b151514610516576040517f08c379a000000000000000000000000000000000000000000000000000000000815260040161050d906115e3565b60405180910390fd5b60056000826fffffffffffffffffffffffffffffffff168152602001908152602001600020600081548092919061054c90611603565b91905055506001600660003373ffffffffffffffffffffffffffffffffffffffff1673ffffffffffffffffffffffffffffffffffffffff1681526020019081526020016000206000836fffffffffffffffffffffffffffffffff16815260200190815260200160002060006101000a81548160ff02191690831515021790555050565b6060600380548060200260200160405190810160405280929190818152602001828054801561065357602002820191906000526020600020905b8160009054906101000a900473ffffffffffffffffffffffffffffffffffffffff1673ffffffffffffffffffffffffffffffffffffffff1681526020019060010190808311610609575b5050505050905090565b6000600860008373ffffffffffffffffffffffffffffffffffffffff1673ffffffffffffffffffffffffffffffffffffffff168152602001908152602001600020549050919050565b60046000600180546106b8919061164b565b815260200190815260200160002060008773ffffffffffffffffffffffffffffffffffffffff1673ffffffffffffffffffffffffffffffffffffffff168152602001908152602001600020544210610745576040517f08c379a000000000000000000000000000000000000000000000000000000000815260040161073c906116cb565b60405180910390fd5b60096040518060800160405280836fffffffffffffffffffffffffffffffff168152602001426fffffffffffffffffffffffffffffffff16815260200187878080601f016020809104026020016040519081016040528093929190818152602001838380828437600081840152601f19601f82011690508083019250505050505050815260200185858080601f016020809104026020016040519081016040528093929190818152602001838380828437600081840152601f19601f82011690508083019250505050505050815250908060018154018082558091505060019003906000526020600020906003020160009091909190915060008201518160000160006101000a8154816fffffffffffffffffffffffffffffffff02191690836fffffffffffffffffffffffffffffffff16021790555060208201518160000160106101000a8154816fffffffffffffffffffffffffffffffff02191690836fffffffffffffffffffffffffffffffff16021790555060408201518160010190816108d09190611931565b5060608201518160020190816108e69190611931565b505050505050505050565b6108f9610e2b565b60001515600760008473ffffffffffffffffffffffffffffffffffffffff1673ffffffffffffffffffffffffffffffffffffffff16815260200190815260200160002060009054906101000a900460ff1615151461098c576040517f08c379a000000000000000000000000000000000000000000000000000000000815260040161098390611a4f565b60405180910390fd5b8242610998919061147a565b60046000600154815260200190815260200160002060008473ffffffffffffffffffffffffffffffffffffffff1673ffffffffffffffffffffffffffffffffffffffff16815260200190815260200160002081905550600154600860008473ffffffffffffffffffffffffffffffffffffffff1673ffffffffffffffffffffffffffffffffffffffff1681526020019081526020016000208190555080600260006101000a81548173ffffffffffffffffffffffffffffffffffffffff021916908373ffffffffffffffffffffffffffffffffffffffff1602179055506001600760008473ffffffffffffffffffffffffffffffffffffffff1673ffffffffffffffffffffffffffffffffffffffff16815260200190815260200160002060006101000a81548160ff02191690831515021790555060016000815480929190610ae090611603565b9190505550505050565b6000805b6003805490508161ffff161015610b915760038161ffff1681548110610b1757610b16611a6f565b5b9060005260206000200160009054906101000a900473ffffffffffffffffffffffffffffffffffffffff1673ffffffffffffffffffffffffffffffffffffffff168373ffffffffffffffffffffffffffffffffffffffff1603610b7e576001915050610b93565b8080610b8990611aac565b915050610aee565b505b919050565b6000600154905090565b610baa610e2b565b610bb46000610ea9565b565b60008060009054906101000a900473ffffffffffffffffffffffffffffffffffffffff16905090565b6000600260009054906101000a900473ffffffffffffffffffffffffffffffffffffffff16905090565b60006001548310610c4f576040517f08c379a0000000000000000000000000000000000000000000000000000000008152600401610c4690611b22565b60405180910390fd5b6004600084815260200190815260200160002060008373ffffffffffffffffffffffffffffffffffffffff1673ffffffffffffffffffffffffffffffffffffffff16815260200190815260200160002054905092915050565b610cb0610e2b565b610cb981610aea565b610cc257600080fd5b60005b6003805490508161ffff161015610da45760038161ffff1681548110610cee57610ced611a6f565b5b9060005260206000200160009054906101000a900473ffffffffffffffffffffffffffffffffffffffff1673ffffffffffffffffffffffffffffffffffffffff168273ffffffffffffffffffffffffffffffffffffffff1603610d915760038161ffff1681548110610d6357610d62611a6f565b5b9060005260206000200160006101000a81549073ffffffffffffffffffffffffffffffffffffffff02191690555b8080610d9c90611aac565b915050610cc5565b5050565b610db0610e2b565b600073ffffffffffffffffffffffffffffffffffffffff168173ffffffffffffffffffffffffffffffffffffffff1603610e1f576040517f08c379a0000000000000000000000000000000000000000000000000000000008152600401610e1690611bb4565b60405180910390fd5b610e2881610ea9565b50565b610e33610f6d565b73ffffffffffffffffffffffffffffffffffffffff16610e51610bb6565b73ffffffffffffffffffffffffffffffffffffffff1614610ea7576040517f08c379a0000000000000000000000000000000000000000000000000000000008152600401610e9e90611c20565b60405180910390fd5b565b60008060009054906101000a900473ffffffffffffffffffffffffffffffffffffffff169050816000806101000a81548173ffffffffffffffffffffffffffffffffffffffff021916908373ffffffffffffffffffffffffffffffffffffffff1602179055508173ffffffffffffffffffffffffffffffffffffffff168173ffffffffffffffffffffffffffffffffffffffff167f8be0079c531659141344cd1fd0a4f28419497f9722a3daafe3b4186f6b6457e060405160405180910390a35050565b600033905090565b600080fd5b600080fd5b600073ffffffffffffffffffffffffffffffffffffffff82169050919050565b6000610faa82610f7f565b9050919050565b610fba81610f9f565b8114610fc557600080fd5b50565b600081359050610fd781610fb1565b92915050565b600060208284031215610ff357610ff2610f75565b5b600061100184828501610fc8565b91505092915050565b6000819050919050565b61101d8161100a565b811461102857600080fd5b50565b60008135905061103a81611014565b92915050565b60006020828403121561105657611055610f75565b5b60006110648482850161102b565b91505092915050565b60008115159050919050565b6110828161106d565b82525050565b600060208201905061109d6000830184611079565b92915050565b60006fffffffffffffffffffffffffffffffff82169050919050565b6110c8816110a3565b81146110d357600080fd5b50565b6000813590506110e5816110bf565b92915050565b60006020828403121561110157611100610f75565b5b600061110f848285016110d6565b91505092915050565b600081519050919050565b600082825260208201905092915050565b6000819050602082019050919050565b61114d81610f9f565b82525050565b600061115f8383611144565b60208301905092915050565b6000602082019050919050565b600061118382611118565b61118d8185611123565b935061119883611134565b8060005b838110156111c95781516111b08882611153565b97506111bb8361116b565b92505060018101905061119c565b5085935050505092915050565b600060208201905081810360008301526111f08184611178565b905092915050565b6112018161100a565b82525050565b600060208201905061121c60008301846111f8565b92915050565b600080fd5b600080fd5b600080fd5b60008083601f84011261124757611246611222565b5b8235905067ffffffffffffffff81111561126457611263611227565b5b6020830191508360018202830111156112805761127f61122c565b5b9250929050565b600080600080600080608087890312156112a4576112a3610f75565b5b60006112b289828a01610fc8565b965050602087013567ffffffffffffffff8111156112d3576112d2610f7a565b5b6112df89828a01611231565b9550955050604087013567ffffffffffffffff81111561130257611301610f7a565b5b61130e89828a01611231565b9350935050606061132189828a016110d6565b9150509295509295509295565b60008060006060848603121561134757611346610f75565b5b60006113558682870161102b565b935050602061136686828701610fc8565b925050604061137786828701610fc8565b9150509250925092565b61138a81610f9f565b82525050565b60006020820190506113a56000830184611381565b92915050565b600080604083850312156113c2576113c1610f75565b5b60006113d08582860161102b565b92505060206113e185828601610fc8565b9150509250929050565b7f4e487b7100000000000000000000000000000000000000000000000000000000600052601260045260246000fd5b7f4e487b7100000000000000000000000000000000000000000000000000000000600052601160045260246000fd5b60006114548261100a565b915061145f8361100a565b92508261146f5761146e6113eb565b5b828204905092915050565b60006114858261100a565b91506114908361100a565b92508282019050808211156114a8576114a761141a565b5b92915050565b600082825260208201905092915050565b7f416c726561647920766f74650000000000000000000000000000000000000000600082015250565b60006114f5600c836114ae565b9150611500826114bf565b602082019050919050565b60006020820190508181036000830152611524816114e8565b9050919050565b7f4e6f742073757065727669736f72000000000000000000000000000000000000600082015250565b6000611561600e836114ae565b915061156c8261152b565b602082019050919050565b6000602082019050818103600083015261159081611554565b9050919050565b7f5061737300000000000000000000000000000000000000000000000000000000600082015250565b60006115cd6004836114ae565b91506115d882611597565b602082019050919050565b600060208201905081810360008301526115fc816115c0565b9050919050565b600061160e8261100a565b91507fffffffffffffffffffffffffffffffffffffffffffffffffffffffffffffffff82036116405761163f61141a565b5b600182019050919050565b60006116568261100a565b91506116618361100a565b92508282039050818111156116795761167861141a565b5b92915050565b7f4e6f742063726561746500000000000000000000000000000000000000000000600082015250565b60006116b5600a836114ae565b91506116c08261167f565b602082019050919050565b600060208201905081810360008301526116e4816116a8565b9050919050565b600081519050919050565b7f4e487b7100000000000000000000000000000000000000000000000000000000600052604160045260246000fd5b7f4e487b7100000000000000000000000000000000000000000000000000000000600052602260045260246000fd5b6000600282049050600182168061176c57607f821691505b60208210810361177f5761177e611725565b5b50919050565b60008190508160005260206000209050919050565b60006020601f8301049050919050565b600082821b905092915050565b6000600883026117e77fffffffffffffffffffffffffffffffffffffffffffffffffffffffffffffffff826117aa565b6117f186836117aa565b95508019841693508086168417925050509392505050565b6000819050919050565b600061182e6118296118248461100a565b611809565b61100a565b9050919050565b6000819050919050565b61184883611813565b61185c61185482611835565b8484546117b7565b825550505050565b600090565b611871611864565b61187c81848461183f565b505050565b5b818110156118a057611895600082611869565b600181019050611882565b5050565b601f8211156118e5576118b681611785565b6118bf8461179a565b810160208510156118ce578190505b6118e26118da8561179a565b830182611881565b50505b505050565b600082821c905092915050565b6000611908600019846008026118ea565b1980831691505092915050565b600061192183836118f7565b9150826002028217905092915050565b61193a826116eb565b67ffffffffffffffff811115611953576119526116f6565b5b61195d8254611754565b6119688282856118a4565b600060209050601f83116001811461199b5760008415611989578287015190505b6119938582611915565b8655506119fb565b601f1984166119a986611785565b60005b828110156119d1578489015182556001820191506020850194506020810190506119ac565b868310156119ee57848901516119ea601f8916826118f7565b8355505b6001600288020188555050505b505050505050565b7f4861642073657400000000000000000000000000000000000000000000000000600082015250565b6000611a396007836114ae565b9150611a4482611a03565b602082019050919050565b60006020820190508181036000830152611a6881611a2c565b9050919050565b7f4e487b7100000000000000000000000000000000000000000000000000000000600052603260045260246000fd5b600061ffff82169050919050565b6000611ab782611a9e565b915061ffff8203611acb57611aca61141a565b5b600182019050919050565b7f4e756d626572206572726f720000000000000000000000000000000000000000600082015250565b6000611b0c600c836114ae565b9150611b1782611ad6565b602082019050919050565b60006020820190508181036000830152611b3b81611aff565b9050919050565b7f4f776e61626c653a206e6577206f776e657220697320746865207a65726f206160008201527f6464726573730000000000000000000000000000000000000000000000000000602082015250565b6000611b9e6026836114ae565b9150611ba982611b42565b604082019050919050565b60006020820190508181036000830152611bcd81611b91565b9050919050565b7f4f776e61626c653a2063616c6c6572206973206e6f7420746865206f776e6572600082015250565b6000611c0a6020836114ae565b9150611c1582611bd4565b602082019050919050565b60006020820190508181036000830152611c3981611bfd565b905091905056fea26469706673582212208b178f87fa8b6d11c3b00dd4faa67f0766d37e167b37d4a7280dc47e9f8e2e0664736f6c63430008130033",
					"opcodes": "PUSH1 0x80 PUSH1 0x40 MSTORE CALLVALUE DUP1 ISZERO PUSH2 0x10 JUMPI PUSH1 0x0 DUP1 REVERT JUMPDEST POP PUSH2 0x2D PUSH2 0x22 PUSH2 0x32 PUSH1 0x20 SHL PUSH1 0x20 SHR JUMP JUMPDEST PUSH2 0x3A PUSH1 0x20 SHL PUSH1 0x20 SHR JUMP JUMPDEST PUSH2 0xFE JUMP JUMPDEST PUSH1 0x0 CALLER SWAP1 POP SWAP1 JUMP JUMPDEST PUSH1 0x0 DUP1 PUSH1 0x0 SWAP1 SLOAD SWAP1 PUSH2 0x100 EXP SWAP1 DIV PUSH20 0xFFFFFFFFFFFFFFFFFFFFFFFFFFFFFFFFFFFFFFFF AND SWAP1 POP DUP2 PUSH1 0x0 DUP1 PUSH2 0x100 EXP DUP2 SLOAD DUP2 PUSH20 0xFFFFFFFFFFFFFFFFFFFFFFFFFFFFFFFFFFFFFFFF MUL NOT AND SWAP1 DUP4 PUSH20 0xFFFFFFFFFFFFFFFFFFFFFFFFFFFFFFFFFFFFFFFF AND MUL OR SWAP1 SSTORE POP DUP2 PUSH20 0xFFFFFFFFFFFFFFFFFFFFFFFFFFFFFFFFFFFFFFFF AND DUP2 PUSH20 0xFFFFFFFFFFFFFFFFFFFFFFFFFFFFFFFFFFFFFFFF AND PUSH32 0x8BE0079C531659141344CD1FD0A4F28419497F9722A3DAAFE3B4186F6B6457E0 PUSH1 0x40 MLOAD PUSH1 0x40 MLOAD DUP1 SWAP2 SUB SWAP1 LOG3 POP POP JUMP JUMPDEST PUSH2 0x1C76 DUP1 PUSH2 0x10D PUSH1 0x0 CODECOPY PUSH1 0x0 RETURN INVALID PUSH1 0x80 PUSH1 0x40 MSTORE CALLVALUE DUP1 ISZERO PUSH2 0x10 JUMPI PUSH1 0x0 DUP1 REVERT JUMPDEST POP PUSH1 0x4 CALLDATASIZE LT PUSH2 0xF5 JUMPI PUSH1 0x0 CALLDATALOAD PUSH1 0xE0 SHR DUP1 PUSH4 0x66BBA4F5 GT PUSH2 0x97 JUMPI DUP1 PUSH4 0xA72124B7 GT PUSH2 0x66 JUMPI DUP1 PUSH4 0xA72124B7 EQ PUSH2 0x25E JUMPI DUP1 PUSH4 0xD7867905 EQ PUSH2 0x27C JUMPI DUP1 PUSH4 0xE64AA3E8 EQ PUSH2 0x2AC JUMPI DUP1 PUSH4 0xF2FDE38B EQ PUSH2 0x2C8 JUMPI PUSH2 0xF5 JUMP JUMPDEST DUP1 PUSH4 0x66BBA4F5 EQ PUSH2 0x1E8 JUMPI DUP1 PUSH4 0x682C0FC1 EQ PUSH2 0x218 JUMPI DUP1 PUSH4 0x715018A6 EQ PUSH2 0x236 JUMPI DUP1 PUSH4 0x8DA5CB5B EQ PUSH2 0x240 JUMPI PUSH2 0xF5 JUMP JUMPDEST DUP1 PUSH4 0x479C32EC GT PUSH2 0xD3 JUMPI DUP1 PUSH4 0x479C32EC EQ PUSH2 0x162 JUMPI DUP1 PUSH4 0x4B6AB77B EQ PUSH2 0x180 JUMPI DUP1 PUSH4 0x52950C9A EQ PUSH2 0x1B0 JUMPI DUP1 PUSH4 0x5974B4D5 EQ PUSH2 0x1CC JUMPI PUSH2 0xF5 JUMP JUMPDEST DUP1 PUSH4 0x1049DC34 EQ PUSH2 0xFA JUMPI DUP1 PUSH4 0x158F2CAE EQ PUSH2 0x116 JUMPI DUP1 PUSH4 0x1DF058F5 EQ PUSH2 0x146 JUMPI JUMPDEST PUSH1 0x0 DUP1 REVERT JUMPDEST PUSH2 0x114 PUSH1 0x4 DUP1 CALLDATASIZE SUB DUP2 ADD SWAP1 PUSH2 0x10F SWAP2 SWAP1 PUSH2 0xFDD JUMP JUMPDEST PUSH2 0x2E4 JUMP JUMPDEST STOP JUMPDEST PUSH2 0x130 PUSH1 0x4 DUP1 CALLDATASIZE SUB DUP2 ADD SWAP1 PUSH2 0x12B SWAP2 SWAP1 PUSH2 0x1040 JUMP JUMPDEST PUSH2 0x36B JUMP JUMPDEST PUSH1 0x40 MLOAD PUSH2 0x13D SWAP2 SWAP1 PUSH2 0x1088 JUMP JUMPDEST PUSH1 0x40 MLOAD DUP1 SWAP2 SUB SWAP1 RETURN JUMPDEST PUSH2 0x160 PUSH1 0x4 DUP1 CALLDATASIZE SUB DUP2 ADD SWAP1 PUSH2 0x15B SWAP2 SWAP1 PUSH2 0x10EB JUMP JUMPDEST PUSH2 0x3B7 JUMP JUMPDEST STOP JUMPDEST PUSH2 0x16A PUSH2 0x5CF JUMP JUMPDEST PUSH1 0x40 MLOAD PUSH2 0x177 SWAP2 SWAP1 PUSH2 0x11D6 JUMP JUMPDEST PUSH1 0x40 MLOAD DUP1 SWAP2 SUB SWAP1 RETURN JUMPDEST PUSH2 0x19A PUSH1 0x4 DUP1 CALLDATASIZE SUB DUP2 ADD SWAP1 PUSH2 0x195 SWAP2 SWAP1 PUSH2 0xFDD JUMP JUMPDEST PUSH2 0x65D JUMP JUMPDEST PUSH1 0x40 MLOAD PUSH2 0x1A7 SWAP2 SWAP1 PUSH2 0x1207 JUMP JUMPDEST PUSH1 0x40 MLOAD DUP1 SWAP2 SUB SWAP1 RETURN JUMPDEST PUSH2 0x1CA PUSH1 0x4 DUP1 CALLDATASIZE SUB DUP2 ADD SWAP1 PUSH2 0x1C5 SWAP2 SWAP1 PUSH2 0x1287 JUMP JUMPDEST PUSH2 0x6A6 JUMP JUMPDEST STOP JUMPDEST PUSH2 0x1E6 PUSH1 0x4 DUP1 CALLDATASIZE SUB DUP2 ADD SWAP1 PUSH2 0x1E1 SWAP2 SWAP1 PUSH2 0x132E JUMP JUMPDEST PUSH2 0x8F1 JUMP JUMPDEST STOP JUMPDEST PUSH2 0x202 PUSH1 0x4 DUP1 CALLDATASIZE SUB DUP2 ADD SWAP1 PUSH2 0x1FD SWAP2 SWAP1 PUSH2 0xFDD JUMP JUMPDEST PUSH2 0xAEA JUMP JUMPDEST PUSH1 0x40 MLOAD PUSH2 0x20F SWAP2 SWAP1 PUSH2 0x1088 JUMP JUMPDEST PUSH1 0x40 MLOAD DUP1 SWAP2 SUB SWAP1 RETURN JUMPDEST PUSH2 0x220 PUSH2 0xB98 JUMP JUMPDEST PUSH1 0x40 MLOAD PUSH2 0x22D SWAP2 SWAP1 PUSH2 0x1207 JUMP JUMPDEST PUSH1 0x40 MLOAD DUP1 SWAP2 SUB SWAP1 RETURN JUMPDEST PUSH2 0x23E PUSH2 0xBA2 JUMP JUMPDEST STOP JUMPDEST PUSH2 0x248 PUSH2 0xBB6 JUMP JUMPDEST PUSH1 0x40 MLOAD PUSH2 0x255 SWAP2 SWAP1 PUSH2 0x1390 JUMP JUMPDEST PUSH1 0x40 MLOAD DUP1 SWAP2 SUB SWAP1 RETURN JUMPDEST PUSH2 0x266 PUSH2 0xBDF JUMP JUMPDEST PUSH1 0x40 MLOAD PUSH2 0x273 SWAP2 SWAP1 PUSH2 0x1390 JUMP JUMPDEST PUSH1 0x40 MLOAD DUP1 SWAP2 SUB SWAP1 RETURN JUMPDEST PUSH2 0x296 PUSH1 0x4 DUP1 CALLDATASIZE SUB DUP2 ADD SWAP1 PUSH2 0x291 SWAP2 SWAP1 PUSH2 0x13AB JUMP JUMPDEST PUSH2 0xC09 JUMP JUMPDEST PUSH1 0x40 MLOAD PUSH2 0x2A3 SWAP2 SWAP1 PUSH2 0x1207 JUMP JUMPDEST PUSH1 0x40 MLOAD DUP1 SWAP2 SUB SWAP1 RETURN JUMPDEST PUSH2 0x2C6 PUSH1 0x4 DUP1 CALLDATASIZE SUB DUP2 ADD SWAP1 PUSH2 0x2C1 SWAP2 SWAP1 PUSH2 0xFDD JUMP JUMPDEST PUSH2 0xCA8 JUMP JUMPDEST STOP JUMPDEST PUSH2 0x2E2 PUSH1 0x4 DUP1 CALLDATASIZE SUB DUP2 ADD SWAP1 PUSH2 0x2DD SWAP2 SWAP1 PUSH2 0xFDD JUMP JUMPDEST PUSH2 0xDA8 JUMP JUMPDEST STOP JUMPDEST PUSH2 0x2EC PUSH2 0xE2B JUMP JUMPDEST PUSH1 0x1 ISZERO ISZERO PUSH2 0x2F9 DUP3 PUSH2 0xAEA JUMP JUMPDEST ISZERO ISZERO SUB PUSH2 0x305 JUMPI PUSH1 0x0 DUP1 REVERT JUMPDEST PUSH1 0x3 DUP2 SWAP1 DUP1 PUSH1 0x1 DUP2 SLOAD ADD DUP1 DUP3 SSTORE DUP1 SWAP2 POP POP PUSH1 0x1 SWAP1 SUB SWAP1 PUSH1 0x0 MSTORE PUSH1 0x20 PUSH1 0x0 KECCAK256 ADD PUSH1 0x0 SWAP1 SWAP2 SWAP1 SWAP2 SWAP1 SWAP2 PUSH2 0x100 EXP DUP2 SLOAD DUP2 PUSH20 0xFFFFFFFFFFFFFFFFFFFFFFFFFFFFFFFFFFFFFFFF MUL NOT AND SWAP1 DUP4 PUSH20 0xFFFFFFFFFFFFFFFFFFFFFFFFFFFFFFFFFFFFFFFF AND MUL OR SWAP1 SSTORE POP POP JUMP JUMPDEST PUSH1 0x0 PUSH1 0x1 PUSH1 0x2 PUSH1 0x3 DUP1 SLOAD SWAP1 POP PUSH2 0x381 SWAP2 SWAP1 PUSH2 0x1449 JUMP JUMPDEST PUSH2 0x38B SWAP2 SWAP1 PUSH2 0x147A JUMP JUMPDEST PUSH1 0x5 PUSH1 0x0 DUP5 DUP2 MSTORE PUSH1 0x20 ADD SWAP1 DUP2 MSTORE PUSH1 0x20 ADD PUSH1 0x0 KECCAK256 SLOAD LT PUSH2 0x3AD JUMPI PUSH1 0x1 SWAP1 POP PUSH2 0x3B2 JUMP JUMPDEST PUSH1 0x0 SWAP1 POP JUMPDEST SWAP2 SWAP1 POP JUMP JUMPDEST PUSH1 0x0 ISZERO ISZERO PUSH1 0x6 PUSH1 0x0 CALLER PUSH20 0xFFFFFFFFFFFFFFFFFFFFFFFFFFFFFFFFFFFFFFFF AND PUSH20 0xFFFFFFFFFFFFFFFFFFFFFFFFFFFFFFFFFFFFFFFF AND DUP2 MSTORE PUSH1 0x20 ADD SWAP1 DUP2 MSTORE PUSH1 0x20 ADD PUSH1 0x0 KECCAK256 PUSH1 0x0 DUP4 PUSH16 0xFFFFFFFFFFFFFFFFFFFFFFFFFFFFFFFF AND DUP2 MSTORE PUSH1 0x20 ADD SWAP1 DUP2 MSTORE PUSH1 0x20 ADD PUSH1 0x0 KECCAK256 PUSH1 0x0 SWAP1 SLOAD SWAP1 PUSH2 0x100 EXP SWAP1 DIV PUSH1 0xFF AND ISZERO ISZERO EQ PUSH2 0x46D JUMPI PUSH1 0x40 MLOAD PUSH32 0x8C379A000000000000000000000000000000000000000000000000000000000 DUP2 MSTORE PUSH1 0x4 ADD PUSH2 0x464 SWAP1 PUSH2 0x150B JUMP JUMPDEST PUSH1 0x40 MLOAD DUP1 SWAP2 SUB SWAP1 REVERT JUMPDEST PUSH2 0x476 CALLER PUSH2 0xAEA JUMP JUMPDEST PUSH2 0x4B5 JUMPI PUSH1 0x40 MLOAD PUSH32 0x8C379A000000000000000000000000000000000000000000000000000000000 DUP2 MSTORE PUSH1 0x4 ADD PUSH2 0x4AC SWAP1 PUSH2 0x1577 JUMP JUMPDEST PUSH1 0x40 MLOAD DUP1 SWAP2 SUB SWAP1 REVERT JUMPDEST PUSH1 0x0 ISZERO ISZERO PUSH2 0x4D4 DUP3 PUSH16 0xFFFFFFFFFFFFFFFFFFFFFFFFFFFFFFFF AND PUSH2 0x36B JUMP JUMPDEST ISZERO ISZERO EQ PUSH2 0x516 JUMPI PUSH1 0x40 MLOAD PUSH32 0x8C379A000000000000000000000000000000000000000000000000000000000 DUP2 MSTORE PUSH1 0x4 ADD PUSH2 0x50D SWAP1 PUSH2 0x15E3 JUMP JUMPDEST PUSH1 0x40 MLOAD DUP1 SWAP2 SUB SWAP1 REVERT JUMPDEST PUSH1 0x5 PUSH1 0x0 DUP3 PUSH16 0xFFFFFFFFFFFFFFFFFFFFFFFFFFFFFFFF AND DUP2 MSTORE PUSH1 0x20 ADD SWAP1 DUP2 MSTORE PUSH1 0x20 ADD PUSH1 0x0 KECCAK256 PUSH1 0x0 DUP2 SLOAD DUP1 SWAP3 SWAP2 SWAP1 PUSH2 0x54C SWAP1 PUSH2 0x1603 JUMP JUMPDEST SWAP2 SWAP1 POP SSTORE POP PUSH1 0x1 PUSH1 0x6 PUSH1 0x0 CALLER PUSH20 0xFFFFFFFFFFFFFFFFFFFFFFFFFFFFFFFFFFFFFFFF AND PUSH20 0xFFFFFFFFFFFFFFFFFFFFFFFFFFFFFFFFFFFFFFFF AND DUP2 MSTORE PUSH1 0x20 ADD SWAP1 DUP2 MSTORE PUSH1 0x20 ADD PUSH1 0x0 KECCAK256 PUSH1 0x0 DUP4 PUSH16 0xFFFFFFFFFFFFFFFFFFFFFFFFFFFFFFFF AND DUP2 MSTORE PUSH1 0x20 ADD SWAP1 DUP2 MSTORE PUSH1 0x20 ADD PUSH1 0x0 KECCAK256 PUSH1 0x0 PUSH2 0x100 EXP DUP2 SLOAD DUP2 PUSH1 0xFF MUL NOT AND SWAP1 DUP4 ISZERO ISZERO MUL OR SWAP1 SSTORE POP POP JUMP JUMPDEST PUSH1 0x60 PUSH1 0x3 DUP1 SLOAD DUP1 PUSH1 0x20 MUL PUSH1 0x20 ADD PUSH1 0x40 MLOAD SWAP1 DUP2 ADD PUSH1 0x40 MSTORE DUP1 SWAP3 SWAP2 SWAP1 DUP2 DUP2 MSTORE PUSH1 0x20 ADD DUP3 DUP1 SLOAD DUP1 ISZERO PUSH2 0x653 JUMPI PUSH1 0x20 MUL DUP3 ADD SWAP2 SWAP1 PUSH1 0x0 MSTORE PUSH1 0x20 PUSH1 0x0 KECCAK256 SWAP1 JUMPDEST DUP2 PUSH1 0x0 SWAP1 SLOAD SWAP1 PUSH2 0x100 EXP SWAP1 DIV PUSH20 0xFFFFFFFFFFFFFFFFFFFFFFFFFFFFFFFFFFFFFFFF AND PUSH20 0xFFFFFFFFFFFFFFFFFFFFFFFFFFFFFFFFFFFFFFFF AND DUP2 MSTORE PUSH1 0x20 ADD SWAP1 PUSH1 0x1 ADD SWAP1 DUP1 DUP4 GT PUSH2 0x609 JUMPI JUMPDEST POP POP POP POP POP SWAP1 POP SWAP1 JUMP JUMPDEST PUSH1 0x0 PUSH1 0x8 PUSH1 0x0 DUP4 PUSH20 0xFFFFFFFFFFFFFFFFFFFFFFFFFFFFFFFFFFFFFFFF AND PUSH20 0xFFFFFFFFFFFFFFFFFFFFFFFFFFFFFFFFFFFFFFFF AND DUP2 MSTORE PUSH1 0x20 ADD SWAP1 DUP2 MSTORE PUSH1 0x20 ADD PUSH1 0x0 KECCAK256 SLOAD SWAP1 POP SWAP2 SWAP1 POP JUMP JUMPDEST PUSH1 0x4 PUSH1 0x0 PUSH1 0x1 DUP1 SLOAD PUSH2 0x6B8 SWAP2 SWAP1 PUSH2 0x164B JUMP JUMPDEST DUP2 MSTORE PUSH1 0x20 ADD SWAP1 DUP2 MSTORE PUSH1 0x20 ADD PUSH1 0x0 KECCAK256 PUSH1 0x0 DUP8 PUSH20 0xFFFFFFFFFFFFFFFFFFFFFFFFFFFFFFFFFFFFFFFF AND PUSH20 0xFFFFFFFFFFFFFFFFFFFFFFFFFFFFFFFFFFFFFFFF AND DUP2 MSTORE PUSH1 0x20 ADD SWAP1 DUP2 MSTORE PUSH1 0x20 ADD PUSH1 0x0 KECCAK256 SLOAD TIMESTAMP LT PUSH2 0x745 JUMPI PUSH1 0x40 MLOAD PUSH32 0x8C379A000000000000000000000000000000000000000000000000000000000 DUP2 MSTORE PUSH1 0x4 ADD PUSH2 0x73C SWAP1 PUSH2 0x16CB JUMP JUMPDEST PUSH1 0x40 MLOAD DUP1 SWAP2 SUB SWAP1 REVERT JUMPDEST PUSH1 0x9 PUSH1 0x40 MLOAD DUP1 PUSH1 0x80 ADD PUSH1 0x40 MSTORE DUP1 DUP4 PUSH16 0xFFFFFFFFFFFFFFFFFFFFFFFFFFFFFFFF AND DUP2 MSTORE PUSH1 0x20 ADD TIMESTAMP PUSH16 0xFFFFFFFFFFFFFFFFFFFFFFFFFFFFFFFF AND DUP2 MSTORE PUSH1 0x20 ADD DUP8 DUP8 DUP1 DUP1 PUSH1 0x1F ADD PUSH1 0x20 DUP1 SWAP2 DIV MUL PUSH1 0x20 ADD PUSH1 0x40 MLOAD SWAP1 DUP2 ADD PUSH1 0x40 MSTORE DUP1 SWAP4 SWAP3 SWAP2 SWAP1 DUP2 DUP2 MSTORE PUSH1 0x20 ADD DUP4 DUP4 DUP1 DUP3 DUP5 CALLDATACOPY PUSH1 0x0 DUP2 DUP5 ADD MSTORE PUSH1 0x1F NOT PUSH1 0x1F DUP3 ADD AND SWAP1 POP DUP1 DUP4 ADD SWAP3 POP POP POP POP POP POP POP DUP2 MSTORE PUSH1 0x20 ADD DUP6 DUP6 DUP1 DUP1 PUSH1 0x1F ADD PUSH1 0x20 DUP1 SWAP2 DIV MUL PUSH1 0x20 ADD PUSH1 0x40 MLOAD SWAP1 DUP2 ADD PUSH1 0x40 MSTORE DUP1 SWAP4 SWAP3 SWAP2 SWAP1 DUP2 DUP2 MSTORE PUSH1 0x20 ADD DUP4 DUP4 DUP1 DUP3 DUP5 CALLDATACOPY PUSH1 0x0 DUP2 DUP5 ADD MSTORE PUSH1 0x1F NOT PUSH1 0x1F DUP3 ADD AND SWAP1 POP DUP1 DUP4 ADD SWAP3 POP POP POP POP POP POP POP DUP2 MSTORE POP SWAP1 DUP1 PUSH1 0x1 DUP2 SLOAD ADD DUP1 DUP3 SSTORE DUP1 SWAP2 POP POP PUSH1 0x1 SWAP1 SUB SWAP1 PUSH1 0x0 MSTORE PUSH1 0x20 PUSH1 0x0 KECCAK256 SWAP1 PUSH1 0x3 MUL ADD PUSH1 0x0 SWAP1 SWAP2 SWAP1 SWAP2 SWAP1 SWAP2 POP PUSH1 0x0 DUP3 ADD MLOAD DUP2 PUSH1 0x0 ADD PUSH1 0x0 PUSH2 0x100 EXP DUP2 SLOAD DUP2 PUSH16 0xFFFFFFFFFFFFFFFFFFFFFFFFFFFFFFFF MUL NOT AND SWAP1 DUP4 PUSH16 0xFFFFFFFFFFFFFFFFFFFFFFFFFFFFFFFF AND MUL OR SWAP1 SSTORE POP PUSH1 0x20 DUP3 ADD MLOAD DUP2 PUSH1 0x0 ADD PUSH1 0x10 PUSH2 0x100 EXP DUP2 SLOAD DUP2 PUSH16 0xFFFFFFFFFFFFFFFFFFFFFFFFFFFFFFFF MUL NOT AND SWAP1 DUP4 PUSH16 0xFFFFFFFFFFFFFFFFFFFFFFFFFFFFFFFF AND MUL OR SWAP1 SSTORE POP PUSH1 0x40 DUP3 ADD MLOAD DUP2 PUSH1 0x1 ADD SWAP1 DUP2 PUSH2 0x8D0 SWAP2 SWAP1 PUSH2 0x1931 JUMP JUMPDEST POP PUSH1 0x60 DUP3 ADD MLOAD DUP2 PUSH1 0x2 ADD SWAP1 DUP2 PUSH2 0x8E6 SWAP2 SWAP1 PUSH2 0x1931 JUMP JUMPDEST POP POP POP POP POP POP POP POP POP JUMP JUMPDEST PUSH2 0x8F9 PUSH2 0xE2B JUMP JUMPDEST PUSH1 0x0 ISZERO ISZERO PUSH1 0x7 PUSH1 0x0 DUP5 PUSH20 0xFFFFFFFFFFFFFFFFFFFFFFFFFFFFFFFFFFFFFFFF AND PUSH20 0xFFFFFFFFFFFFFFFFFFFFFFFFFFFFFFFFFFFFFFFF AND DUP2 MSTORE PUSH1 0x20 ADD SWAP1 DUP2 MSTORE PUSH1 0x20 ADD PUSH1 0x0 KECCAK256 PUSH1 0x0 SWAP1 SLOAD SWAP1 PUSH2 0x100 EXP SWAP1 DIV PUSH1 0xFF AND ISZERO ISZERO EQ PUSH2 0x98C JUMPI PUSH1 0x40 MLOAD PUSH32 0x8C379A000000000000000000000000000000000000000000000000000000000 DUP2 MSTORE PUSH1 0x4 ADD PUSH2 0x983 SWAP1 PUSH2 0x1A4F JUMP JUMPDEST PUSH1 0x40 MLOAD DUP1 SWAP2 SUB SWAP1 REVERT JUMPDEST DUP3 TIMESTAMP PUSH2 0x998 SWAP2 SWAP1 PUSH2 0x147A JUMP JUMPDEST PUSH1 0x4 PUSH1 0x0 PUSH1 0x1 SLOAD DUP2 MSTORE PUSH1 0x20 ADD SWAP1 DUP2 MSTORE PUSH1 0x20 ADD PUSH1 0x0 KECCAK256 PUSH1 0x0 DUP5 PUSH20 0xFFFFFFFFFFFFFFFFFFFFFFFFFFFFFFFFFFFFFFFF AND PUSH20 0xFFFFFFFFFFFFFFFFFFFFFFFFFFFFFFFFFFFFFFFF AND DUP2 MSTORE PUSH1 0x20 ADD SWAP1 DUP2 MSTORE PUSH1 0x20 ADD PUSH1 0x0 KECCAK256 DUP2 SWAP1 SSTORE POP PUSH1 0x1 SLOAD PUSH1 0x8 PUSH1 0x0 DUP5 PUSH20 0xFFFFFFFFFFFFFFFFFFFFFFFFFFFFFFFFFFFFFFFF AND PUSH20 0xFFFFFFFFFFFFFFFFFFFFFFFFFFFFFFFFFFFFFFFF AND DUP2 MSTORE PUSH1 0x20 ADD SWAP1 DUP2 MSTORE PUSH1 0x20 ADD PUSH1 0x0 KECCAK256 DUP2 SWAP1 SSTORE POP DUP1 PUSH1 0x2 PUSH1 0x0 PUSH2 0x100 EXP DUP2 SLOAD DUP2 PUSH20 0xFFFFFFFFFFFFFFFFFFFFFFFFFFFFFFFFFFFFFFFF MUL NOT AND SWAP1 DUP4 PUSH20 0xFFFFFFFFFFFFFFFFFFFFFFFFFFFFFFFFFFFFFFFF AND MUL OR SWAP1 SSTORE POP PUSH1 0x1 PUSH1 0x7 PUSH1 0x0 DUP5 PUSH20 0xFFFFFFFFFFFFFFFFFFFFFFFFFFFFFFFFFFFFFFFF AND PUSH20 0xFFFFFFFFFFFFFFFFFFFFFFFFFFFFFFFFFFFFFFFF AND DUP2 MSTORE PUSH1 0x20 ADD SWAP1 DUP2 MSTORE PUSH1 0x20 ADD PUSH1 0x0 KECCAK256 PUSH1 0x0 PUSH2 0x100 EXP DUP2 SLOAD DUP2 PUSH1 0xFF MUL NOT AND SWAP1 DUP4 ISZERO ISZERO MUL OR SWAP1 SSTORE POP PUSH1 0x1 PUSH1 0x0 DUP2 SLOAD DUP1 SWAP3 SWAP2 SWAP1 PUSH2 0xAE0 SWAP1 PUSH2 0x1603 JUMP JUMPDEST SWAP2 SWAP1 POP SSTORE POP POP POP POP JUMP JUMPDEST PUSH1 0x0 DUP1 JUMPDEST PUSH1 0x3 DUP1 SLOAD SWAP1 POP DUP2 PUSH2 0xFFFF AND LT ISZERO PUSH2 0xB91 JUMPI PUSH1 0x3 DUP2 PUSH2 0xFFFF AND DUP2 SLOAD DUP2 LT PUSH2 0xB17 JUMPI PUSH2 0xB16 PUSH2 0x1A6F JUMP JUMPDEST JUMPDEST SWAP1 PUSH1 0x0 MSTORE PUSH1 0x20 PUSH1 0x0 KECCAK256 ADD PUSH1 0x0 SWAP1 SLOAD SWAP1 PUSH2 0x100 EXP SWAP1 DIV PUSH20 0xFFFFFFFFFFFFFFFFFFFFFFFFFFFFFFFFFFFFFFFF AND PUSH20 0xFFFFFFFFFFFFFFFFFFFFFFFFFFFFFFFFFFFFFFFF AND DUP4 PUSH20 0xFFFFFFFFFFFFFFFFFFFFFFFFFFFFFFFFFFFFFFFF AND SUB PUSH2 0xB7E JUMPI PUSH1 0x1 SWAP2 POP POP PUSH2 0xB93 JUMP JUMPDEST DUP1 DUP1 PUSH2 0xB89 SWAP1 PUSH2 0x1AAC JUMP JUMPDEST SWAP2 POP POP PUSH2 0xAEE JUMP JUMPDEST POP JUMPDEST SWAP2 SWAP1 POP JUMP JUMPDEST PUSH1 0x0 PUSH1 0x1 SLOAD SWAP1 POP SWAP1 JUMP JUMPDEST PUSH2 0xBAA PUSH2 0xE2B JUMP JUMPDEST PUSH2 0xBB4 PUSH1 0x0 PUSH2 0xEA9 JUMP JUMPDEST JUMP JUMPDEST PUSH1 0x0 DUP1 PUSH1 0x0 SWAP1 SLOAD SWAP1 PUSH2 0x100 EXP SWAP1 DIV PUSH20 0xFFFFFFFFFFFFFFFFFFFFFFFFFFFFFFFFFFFFFFFF AND SWAP1 POP SWAP1 JUMP JUMPDEST PUSH1 0x0 PUSH1 0x2 PUSH1 0x0 SWAP1 SLOAD SWAP1 PUSH2 0x100 EXP SWAP1 DIV PUSH20 0xFFFFFFFFFFFFFFFFFFFFFFFFFFFFFFFFFFFFFFFF AND SWAP1 POP SWAP1 JUMP JUMPDEST PUSH1 0x0 PUSH1 0x1 SLOAD DUP4 LT PUSH2 0xC4F JUMPI PUSH1 0x40 MLOAD PUSH32 0x8C379A000000000000000000000000000000000000000000000000000000000 DUP2 MSTORE PUSH1 0x4 ADD PUSH2 0xC46 SWAP1 PUSH2 0x1B22 JUMP JUMPDEST PUSH1 0x40 MLOAD DUP1 SWAP2 SUB SWAP1 REVERT JUMPDEST PUSH1 0x4 PUSH1 0x0 DUP5 DUP2 MSTORE PUSH1 0x20 ADD SWAP1 DUP2 MSTORE PUSH1 0x20 ADD PUSH1 0x0 KECCAK256 PUSH1 0x0 DUP4 PUSH20 0xFFFFFFFFFFFFFFFFFFFFFFFFFFFFFFFFFFFFFFFF AND PUSH20 0xFFFFFFFFFFFFFFFFFFFFFFFFFFFFFFFFFFFFFFFF AND DUP2 MSTORE PUSH1 0x20 ADD SWAP1 DUP2 MSTORE PUSH1 0x20 ADD PUSH1 0x0 KECCAK256 SLOAD SWAP1 POP SWAP3 SWAP2 POP POP JUMP JUMPDEST PUSH2 0xCB0 PUSH2 0xE2B JUMP JUMPDEST PUSH2 0xCB9 DUP2 PUSH2 0xAEA JUMP JUMPDEST PUSH2 0xCC2 JUMPI PUSH1 0x0 DUP1 REVERT JUMPDEST PUSH1 0x0 JUMPDEST PUSH1 0x3 DUP1 SLOAD SWAP1 POP DUP2 PUSH2 0xFFFF AND LT ISZERO PUSH2 0xDA4 JUMPI PUSH1 0x3 DUP2 PUSH2 0xFFFF AND DUP2 SLOAD DUP2 LT PUSH2 0xCEE JUMPI PUSH2 0xCED PUSH2 0x1A6F JUMP JUMPDEST JUMPDEST SWAP1 PUSH1 0x0 MSTORE PUSH1 0x20 PUSH1 0x0 KECCAK256 ADD PUSH1 0x0 SWAP1 SLOAD SWAP1 PUSH2 0x100 EXP SWAP1 DIV PUSH20 0xFFFFFFFFFFFFFFFFFFFFFFFFFFFFFFFFFFFFFFFF AND PUSH20 0xFFFFFFFFFFFFFFFFFFFFFFFFFFFFFFFFFFFFFFFF AND DUP3 PUSH20 0xFFFFFFFFFFFFFFFFFFFFFFFFFFFFFFFFFFFFFFFF AND SUB PUSH2 0xD91 JUMPI PUSH1 0x3 DUP2 PUSH2 0xFFFF AND DUP2 SLOAD DUP2 LT PUSH2 0xD63 JUMPI PUSH2 0xD62 PUSH2 0x1A6F JUMP JUMPDEST JUMPDEST SWAP1 PUSH1 0x0 MSTORE PUSH1 0x20 PUSH1 0x0 KECCAK256 ADD PUSH1 0x0 PUSH2 0x100 EXP DUP2 SLOAD SWAP1 PUSH20 0xFFFFFFFFFFFFFFFFFFFFFFFFFFFFFFFFFFFFFFFF MUL NOT AND SWAP1 SSTORE JUMPDEST DUP1 DUP1 PUSH2 0xD9C SWAP1 PUSH2 0x1AAC JUMP JUMPDEST SWAP2 POP POP PUSH2 0xCC5 JUMP JUMPDEST POP POP JUMP JUMPDEST PUSH2 0xDB0 PUSH2 0xE2B JUMP JUMPDEST PUSH1 0x0 PUSH20 0xFFFFFFFFFFFFFFFFFFFFFFFFFFFFFFFFFFFFFFFF AND DUP2 PUSH20 0xFFFFFFFFFFFFFFFFFFFFFFFFFFFFFFFFFFFFFFFF AND SUB PUSH2 0xE1F JUMPI PUSH1 0x40 MLOAD PUSH32 0x8C379A000000000000000000000000000000000000000000000000000000000 DUP2 MSTORE PUSH1 0x4 ADD PUSH2 0xE16 SWAP1 PUSH2 0x1BB4 JUMP JUMPDEST PUSH1 0x40 MLOAD DUP1 SWAP2 SUB SWAP1 REVERT JUMPDEST PUSH2 0xE28 DUP2 PUSH2 0xEA9 JUMP JUMPDEST POP JUMP JUMPDEST PUSH2 0xE33 PUSH2 0xF6D JUMP JUMPDEST PUSH20 0xFFFFFFFFFFFFFFFFFFFFFFFFFFFFFFFFFFFFFFFF AND PUSH2 0xE51 PUSH2 0xBB6 JUMP JUMPDEST PUSH20 0xFFFFFFFFFFFFFFFFFFFFFFFFFFFFFFFFFFFFFFFF AND EQ PUSH2 0xEA7 JUMPI PUSH1 0x40 MLOAD PUSH32 0x8C379A000000000000000000000000000000000000000000000000000000000 DUP2 MSTORE PUSH1 0x4 ADD PUSH2 0xE9E SWAP1 PUSH2 0x1C20 JUMP JUMPDEST PUSH1 0x40 MLOAD DUP1 SWAP2 SUB SWAP1 REVERT JUMPDEST JUMP JUMPDEST PUSH1 0x0 DUP1 PUSH1 0x0 SWAP1 SLOAD SWAP1 PUSH2 0x100 EXP SWAP1 DIV PUSH20 0xFFFFFFFFFFFFFFFFFFFFFFFFFFFFFFFFFFFFFFFF AND SWAP1 POP DUP2 PUSH1 0x0 DUP1 PUSH2 0x100 EXP DUP2 SLOAD DUP2 PUSH20 0xFFFFFFFFFFFFFFFFFFFFFFFFFFFFFFFFFFFFFFFF MUL NOT AND SWAP1 DUP4 PUSH20 0xFFFFFFFFFFFFFFFFFFFFFFFFFFFFFFFFFFFFFFFF AND MUL OR SWAP1 SSTORE POP DUP2 PUSH20 0xFFFFFFFFFFFFFFFFFFFFFFFFFFFFFFFFFFFFFFFF AND DUP2 PUSH20 0xFFFFFFFFFFFFFFFFFFFFFFFFFFFFFFFFFFFFFFFF AND PUSH32 0x8BE0079C531659141344CD1FD0A4F28419497F9722A3DAAFE3B4186F6B6457E0 PUSH1 0x40 MLOAD PUSH1 0x40 MLOAD DUP1 SWAP2 SUB SWAP1 LOG3 POP POP JUMP JUMPDEST PUSH1 0x0 CALLER SWAP1 POP SWAP1 JUMP JUMPDEST PUSH1 0x0 DUP1 REVERT JUMPDEST PUSH1 0x0 DUP1 REVERT JUMPDEST PUSH1 0x0 PUSH20 0xFFFFFFFFFFFFFFFFFFFFFFFFFFFFFFFFFFFFFFFF DUP3 AND SWAP1 POP SWAP2 SWAP1 POP JUMP JUMPDEST PUSH1 0x0 PUSH2 0xFAA DUP3 PUSH2 0xF7F JUMP JUMPDEST SWAP1 POP SWAP2 SWAP1 POP JUMP JUMPDEST PUSH2 0xFBA DUP2 PUSH2 0xF9F JUMP JUMPDEST DUP2 EQ PUSH2 0xFC5 JUMPI PUSH1 0x0 DUP1 REVERT JUMPDEST POP JUMP JUMPDEST PUSH1 0x0 DUP2 CALLDATALOAD SWAP1 POP PUSH2 0xFD7 DUP2 PUSH2 0xFB1 JUMP JUMPDEST SWAP3 SWAP2 POP POP JUMP JUMPDEST PUSH1 0x0 PUSH1 0x20 DUP3 DUP5 SUB SLT ISZERO PUSH2 0xFF3 JUMPI PUSH2 0xFF2 PUSH2 0xF75 JUMP JUMPDEST JUMPDEST PUSH1 0x0 PUSH2 0x1001 DUP5 DUP3 DUP6 ADD PUSH2 0xFC8 JUMP JUMPDEST SWAP2 POP POP SWAP3 SWAP2 POP POP JUMP JUMPDEST PUSH1 0x0 DUP2 SWAP1 POP SWAP2 SWAP1 POP JUMP JUMPDEST PUSH2 0x101D DUP2 PUSH2 0x100A JUMP JUMPDEST DUP2 EQ PUSH2 0x1028 JUMPI PUSH1 0x0 DUP1 REVERT JUMPDEST POP JUMP JUMPDEST PUSH1 0x0 DUP2 CALLDATALOAD SWAP1 POP PUSH2 0x103A DUP2 PUSH2 0x1014 JUMP JUMPDEST SWAP3 SWAP2 POP POP JUMP JUMPDEST PUSH1 0x0 PUSH1 0x20 DUP3 DUP5 SUB SLT ISZERO PUSH2 0x1056 JUMPI PUSH2 0x1055 PUSH2 0xF75 JUMP JUMPDEST JUMPDEST PUSH1 0x0 PUSH2 0x1064 DUP5 DUP3 DUP6 ADD PUSH2 0x102B JUMP JUMPDEST SWAP2 POP POP SWAP3 SWAP2 POP POP JUMP JUMPDEST PUSH1 0x0 DUP2 ISZERO ISZERO SWAP1 POP SWAP2 SWAP1 POP JUMP JUMPDEST PUSH2 0x1082 DUP2 PUSH2 0x106D JUMP JUMPDEST DUP3 MSTORE POP POP JUMP JUMPDEST PUSH1 0x0 PUSH1 0x20 DUP3 ADD SWAP1 POP PUSH2 0x109D PUSH1 0x0 DUP4 ADD DUP5 PUSH2 0x1079 JUMP JUMPDEST SWAP3 SWAP2 POP POP JUMP JUMPDEST PUSH1 0x0 PUSH16 0xFFFFFFFFFFFFFFFFFFFFFFFFFFFFFFFF DUP3 AND SWAP1 POP SWAP2 SWAP1 POP JUMP JUMPDEST PUSH2 0x10C8 DUP2 PUSH2 0x10A3 JUMP JUMPDEST DUP2 EQ PUSH2 0x10D3 JUMPI PUSH1 0x0 DUP1 REVERT JUMPDEST POP JUMP JUMPDEST PUSH1 0x0 DUP2 CALLDATALOAD SWAP1 POP PUSH2 0x10E5 DUP2 PUSH2 0x10BF JUMP JUMPDEST SWAP3 SWAP2 POP POP JUMP JUMPDEST PUSH1 0x0 PUSH1 0x20 DUP3 DUP5 SUB SLT ISZERO PUSH2 0x1101 JUMPI PUSH2 0x1100 PUSH2 0xF75 JUMP JUMPDEST JUMPDEST PUSH1 0x0 PUSH2 0x110F DUP5 DUP3 DUP6 ADD PUSH2 0x10D6 JUMP JUMPDEST SWAP2 POP POP SWAP3 SWAP2 POP POP JUMP JUMPDEST PUSH1 0x0 DUP2 MLOAD SWAP1 POP SWAP2 SWAP1 POP JUMP JUMPDEST PUSH1 0x0 DUP3 DUP3 MSTORE PUSH1 0x20 DUP3 ADD SWAP1 POP SWAP3 SWAP2 POP POP JUMP JUMPDEST PUSH1 0x0 DUP2 SWAP1 POP PUSH1 0x20 DUP3 ADD SWAP1 POP SWAP2 SWAP1 POP JUMP JUMPDEST PUSH2 0x114D DUP2 PUSH2 0xF9F JUMP JUMPDEST DUP3 MSTORE POP POP JUMP JUMPDEST PUSH1 0x0 PUSH2 0x115F DUP4 DUP4 PUSH2 0x1144 JUMP JUMPDEST PUSH1 0x20 DUP4 ADD SWAP1 POP SWAP3 SWAP2 POP POP JUMP JUMPDEST PUSH1 0x0 PUSH1 0x20 DUP3 ADD SWAP1 POP SWAP2 SWAP1 POP JUMP JUMPDEST PUSH1 0x0 PUSH2 0x1183 DUP3 PUSH2 0x1118 JUMP JUMPDEST PUSH2 0x118D DUP2 DUP6 PUSH2 0x1123 JUMP JUMPDEST SWAP4 POP PUSH2 0x1198 DUP4 PUSH2 0x1134 JUMP JUMPDEST DUP1 PUSH1 0x0 JUMPDEST DUP4 DUP2 LT ISZERO PUSH2 0x11C9 JUMPI DUP2 MLOAD PUSH2 0x11B0 DUP9 DUP3 PUSH2 0x1153 JUMP JUMPDEST SWAP8 POP PUSH2 0x11BB DUP4 PUSH2 0x116B JUMP JUMPDEST SWAP3 POP POP PUSH1 0x1 DUP2 ADD SWAP1 POP PUSH2 0x119C JUMP JUMPDEST POP DUP6 SWAP4 POP POP POP POP SWAP3 SWAP2 POP POP JUMP JUMPDEST PUSH1 0x0 PUSH1 0x20 DUP3 ADD SWAP1 POP DUP2 DUP2 SUB PUSH1 0x0 DUP4 ADD MSTORE PUSH2 0x11F0 DUP2 DUP5 PUSH2 0x1178 JUMP JUMPDEST SWAP1 POP SWAP3 SWAP2 POP POP JUMP JUMPDEST PUSH2 0x1201 DUP2 PUSH2 0x100A JUMP JUMPDEST DUP3 MSTORE POP POP JUMP JUMPDEST PUSH1 0x0 PUSH1 0x20 DUP3 ADD SWAP1 POP PUSH2 0x121C PUSH1 0x0 DUP4 ADD DUP5 PUSH2 0x11F8 JUMP JUMPDEST SWAP3 SWAP2 POP POP JUMP JUMPDEST PUSH1 0x0 DUP1 REVERT JUMPDEST PUSH1 0x0 DUP1 REVERT JUMPDEST PUSH1 0x0 DUP1 REVERT JUMPDEST PUSH1 0x0 DUP1 DUP4 PUSH1 0x1F DUP5 ADD SLT PUSH2 0x1247 JUMPI PUSH2 0x1246 PUSH2 0x1222 JUMP JUMPDEST JUMPDEST DUP3 CALLDATALOAD SWAP1 POP PUSH8 0xFFFFFFFFFFFFFFFF DUP2 GT ISZERO PUSH2 0x1264 JUMPI PUSH2 0x1263 PUSH2 0x1227 JUMP JUMPDEST JUMPDEST PUSH1 0x20 DUP4 ADD SWAP2 POP DUP4 PUSH1 0x1 DUP3 MUL DUP4 ADD GT ISZERO PUSH2 0x1280 JUMPI PUSH2 0x127F PUSH2 0x122C JUMP JUMPDEST JUMPDEST SWAP3 POP SWAP3 SWAP1 POP JUMP JUMPDEST PUSH1 0x0 DUP1 PUSH1 0x0 DUP1 PUSH1 0x0 DUP1 PUSH1 0x80 DUP8 DUP10 SUB SLT ISZERO PUSH2 0x12A4 JUMPI PUSH2 0x12A3 PUSH2 0xF75 JUMP JUMPDEST JUMPDEST PUSH1 0x0 PUSH2 0x12B2 DUP10 DUP3 DUP11 ADD PUSH2 0xFC8 JUMP JUMPDEST SWAP7 POP POP PUSH1 0x20 DUP8 ADD CALLDATALOAD PUSH8 0xFFFFFFFFFFFFFFFF DUP2 GT ISZERO PUSH2 0x12D3 JUMPI PUSH2 0x12D2 PUSH2 0xF7A JUMP JUMPDEST JUMPDEST PUSH2 0x12DF DUP10 DUP3 DUP11 ADD PUSH2 0x1231 JUMP JUMPDEST SWAP6 POP SWAP6 POP POP PUSH1 0x40 DUP8 ADD CALLDATALOAD PUSH8 0xFFFFFFFFFFFFFFFF DUP2 GT ISZERO PUSH2 0x1302 JUMPI PUSH2 0x1301 PUSH2 0xF7A JUMP JUMPDEST JUMPDEST PUSH2 0x130E DUP10 DUP3 DUP11 ADD PUSH2 0x1231 JUMP JUMPDEST SWAP4 POP SWAP4 POP POP PUSH1 0x60 PUSH2 0x1321 DUP10 DUP3 DUP11 ADD PUSH2 0x10D6 JUMP JUMPDEST SWAP2 POP POP SWAP3 SWAP6 POP SWAP3 SWAP6 POP SWAP3 SWAP6 JUMP JUMPDEST PUSH1 0x0 DUP1 PUSH1 0x0 PUSH1 0x60 DUP5 DUP7 SUB SLT ISZERO PUSH2 0x1347 JUMPI PUSH2 0x1346 PUSH2 0xF75 JUMP JUMPDEST JUMPDEST PUSH1 0x0 PUSH2 0x1355 DUP7 DUP3 DUP8 ADD PUSH2 0x102B JUMP JUMPDEST SWAP4 POP POP PUSH1 0x20 PUSH2 0x1366 DUP7 DUP3 DUP8 ADD PUSH2 0xFC8 JUMP JUMPDEST SWAP3 POP POP PUSH1 0x40 PUSH2 0x1377 DUP7 DUP3 DUP8 ADD PUSH2 0xFC8 JUMP JUMPDEST SWAP2 POP POP SWAP3 POP SWAP3 POP SWAP3 JUMP JUMPDEST PUSH2 0x138A DUP2 PUSH2 0xF9F JUMP JUMPDEST DUP3 MSTORE POP POP JUMP JUMPDEST PUSH1 0x0 PUSH1 0x20 DUP3 ADD SWAP1 POP PUSH2 0x13A5 PUSH1 0x0 DUP4 ADD DUP5 PUSH2 0x1381 JUMP JUMPDEST SWAP3 SWAP2 POP POP JUMP JUMPDEST PUSH1 0x0 DUP1 PUSH1 0x40 DUP4 DUP6 SUB SLT ISZERO PUSH2 0x13C2 JUMPI PUSH2 0x13C1 PUSH2 0xF75 JUMP JUMPDEST JUMPDEST PUSH1 0x0 PUSH2 0x13D0 DUP6 DUP3 DUP7 ADD PUSH2 0x102B JUMP JUMPDEST SWAP3 POP POP PUSH1 0x20 PUSH2 0x13E1 DUP6 DUP3 DUP7 ADD PUSH2 0xFC8 JUMP JUMPDEST SWAP2 POP POP SWAP3 POP SWAP3 SWAP1 POP JUMP JUMPDEST PUSH32 0x4E487B7100000000000000000000000000000000000000000000000000000000 PUSH1 0x0 MSTORE PUSH1 0x12 PUSH1 0x4 MSTORE PUSH1 0x24 PUSH1 0x0 REVERT JUMPDEST PUSH32 0x4E487B7100000000000000000000000000000000000000000000000000000000 PUSH1 0x0 MSTORE PUSH1 0x11 PUSH1 0x4 MSTORE PUSH1 0x24 PUSH1 0x0 REVERT JUMPDEST PUSH1 0x0 PUSH2 0x1454 DUP3 PUSH2 0x100A JUMP JUMPDEST SWAP2 POP PUSH2 0x145F DUP4 PUSH2 0x100A JUMP JUMPDEST SWAP3 POP DUP3 PUSH2 0x146F JUMPI PUSH2 0x146E PUSH2 0x13EB JUMP JUMPDEST JUMPDEST DUP3 DUP3 DIV SWAP1 POP SWAP3 SWAP2 POP POP JUMP JUMPDEST PUSH1 0x0 PUSH2 0x1485 DUP3 PUSH2 0x100A JUMP JUMPDEST SWAP2 POP PUSH2 0x1490 DUP4 PUSH2 0x100A JUMP JUMPDEST SWAP3 POP DUP3 DUP3 ADD SWAP1 POP DUP1 DUP3 GT ISZERO PUSH2 0x14A8 JUMPI PUSH2 0x14A7 PUSH2 0x141A JUMP JUMPDEST JUMPDEST SWAP3 SWAP2 POP POP JUMP JUMPDEST PUSH1 0x0 DUP3 DUP3 MSTORE PUSH1 0x20 DUP3 ADD SWAP1 POP SWAP3 SWAP2 POP POP JUMP JUMPDEST PUSH32 0x416C726561647920766F74650000000000000000000000000000000000000000 PUSH1 0x0 DUP3 ADD MSTORE POP JUMP JUMPDEST PUSH1 0x0 PUSH2 0x14F5 PUSH1 0xC DUP4 PUSH2 0x14AE JUMP JUMPDEST SWAP2 POP PUSH2 0x1500 DUP3 PUSH2 0x14BF JUMP JUMPDEST PUSH1 0x20 DUP3 ADD SWAP1 POP SWAP2 SWAP1 POP JUMP JUMPDEST PUSH1 0x0 PUSH1 0x20 DUP3 ADD SWAP1 POP DUP2 DUP2 SUB PUSH1 0x0 DUP4 ADD MSTORE PUSH2 0x1524 DUP2 PUSH2 0x14E8 JUMP JUMPDEST SWAP1 POP SWAP2 SWAP1 POP JUMP JUMPDEST PUSH32 0x4E6F742073757065727669736F72000000000000000000000000000000000000 PUSH1 0x0 DUP3 ADD MSTORE POP JUMP JUMPDEST PUSH1 0x0 PUSH2 0x1561 PUSH1 0xE DUP4 PUSH2 0x14AE JUMP JUMPDEST SWAP2 POP PUSH2 0x156C DUP3 PUSH2 0x152B JUMP JUMPDEST PUSH1 0x20 DUP3 ADD SWAP1 POP SWAP2 SWAP1 POP JUMP JUMPDEST PUSH1 0x0 PUSH1 0x20 DUP3 ADD SWAP1 POP DUP2 DUP2 SUB PUSH1 0x0 DUP4 ADD MSTORE PUSH2 0x1590 DUP2 PUSH2 0x1554 JUMP JUMPDEST SWAP1 POP SWAP2 SWAP1 POP JUMP JUMPDEST PUSH32 0x5061737300000000000000000000000000000000000000000000000000000000 PUSH1 0x0 DUP3 ADD MSTORE POP JUMP JUMPDEST PUSH1 0x0 PUSH2 0x15CD PUSH1 0x4 DUP4 PUSH2 0x14AE JUMP JUMPDEST SWAP2 POP PUSH2 0x15D8 DUP3 PUSH2 0x1597 JUMP JUMPDEST PUSH1 0x20 DUP3 ADD SWAP1 POP SWAP2 SWAP1 POP JUMP JUMPDEST PUSH1 0x0 PUSH1 0x20 DUP3 ADD SWAP1 POP DUP2 DUP2 SUB PUSH1 0x0 DUP4 ADD MSTORE PUSH2 0x15FC DUP2 PUSH2 0x15C0 JUMP JUMPDEST SWAP1 POP SWAP2 SWAP1 POP JUMP JUMPDEST PUSH1 0x0 PUSH2 0x160E DUP3 PUSH2 0x100A JUMP JUMPDEST SWAP2 POP PUSH32 0xFFFFFFFFFFFFFFFFFFFFFFFFFFFFFFFFFFFFFFFFFFFFFFFFFFFFFFFFFFFFFFFF DUP3 SUB PUSH2 0x1640 JUMPI PUSH2 0x163F PUSH2 0x141A JUMP JUMPDEST JUMPDEST PUSH1 0x1 DUP3 ADD SWAP1 POP SWAP2 SWAP1 POP JUMP JUMPDEST PUSH1 0x0 PUSH2 0x1656 DUP3 PUSH2 0x100A JUMP JUMPDEST SWAP2 POP PUSH2 0x1661 DUP4 PUSH2 0x100A JUMP JUMPDEST SWAP3 POP DUP3 DUP3 SUB SWAP1 POP DUP2 DUP2 GT ISZERO PUSH2 0x1679 JUMPI PUSH2 0x1678 PUSH2 0x141A JUMP JUMPDEST JUMPDEST SWAP3 SWAP2 POP POP JUMP JUMPDEST PUSH32 0x4E6F742063726561746500000000000000000000000000000000000000000000 PUSH1 0x0 DUP3 ADD MSTORE POP JUMP JUMPDEST PUSH1 0x0 PUSH2 0x16B5 PUSH1 0xA DUP4 PUSH2 0x14AE JUMP JUMPDEST SWAP2 POP PUSH2 0x16C0 DUP3 PUSH2 0x167F JUMP JUMPDEST PUSH1 0x20 DUP3 ADD SWAP1 POP SWAP2 SWAP1 POP JUMP JUMPDEST PUSH1 0x0 PUSH1 0x20 DUP3 ADD SWAP1 POP DUP2 DUP2 SUB PUSH1 0x0 DUP4 ADD MSTORE PUSH2 0x16E4 DUP2 PUSH2 0x16A8 JUMP JUMPDEST SWAP1 POP SWAP2 SWAP1 POP JUMP JUMPDEST PUSH1 0x0 DUP2 MLOAD SWAP1 POP SWAP2 SWAP1 POP JUMP JUMPDEST PUSH32 0x4E487B7100000000000000000000000000000000000000000000000000000000 PUSH1 0x0 MSTORE PUSH1 0x41 PUSH1 0x4 MSTORE PUSH1 0x24 PUSH1 0x0 REVERT JUMPDEST PUSH32 0x4E487B7100000000000000000000000000000000000000000000000000000000 PUSH1 0x0 MSTORE PUSH1 0x22 PUSH1 0x4 MSTORE PUSH1 0x24 PUSH1 0x0 REVERT JUMPDEST PUSH1 0x0 PUSH1 0x2 DUP3 DIV SWAP1 POP PUSH1 0x1 DUP3 AND DUP1 PUSH2 0x176C JUMPI PUSH1 0x7F DUP3 AND SWAP2 POP JUMPDEST PUSH1 0x20 DUP3 LT DUP2 SUB PUSH2 0x177F JUMPI PUSH2 0x177E PUSH2 0x1725 JUMP JUMPDEST JUMPDEST POP SWAP2 SWAP1 POP JUMP JUMPDEST PUSH1 0x0 DUP2 SWAP1 POP DUP2 PUSH1 0x0 MSTORE PUSH1 0x20 PUSH1 0x0 KECCAK256 SWAP1 POP SWAP2 SWAP1 POP JUMP JUMPDEST PUSH1 0x0 PUSH1 0x20 PUSH1 0x1F DUP4 ADD DIV SWAP1 POP SWAP2 SWAP1 POP JUMP JUMPDEST PUSH1 0x0 DUP3 DUP3 SHL SWAP1 POP SWAP3 SWAP2 POP POP JUMP JUMPDEST PUSH1 0x0 PUSH1 0x8 DUP4 MUL PUSH2 0x17E7 PUSH32 0xFFFFFFFFFFFFFFFFFFFFFFFFFFFFFFFFFFFFFFFFFFFFFFFFFFFFFFFFFFFFFFFF DUP3 PUSH2 0x17AA JUMP JUMPDEST PUSH2 0x17F1 DUP7 DUP4 PUSH2 0x17AA JUMP JUMPDEST SWAP6 POP DUP1 NOT DUP5 AND SWAP4 POP DUP1 DUP7 AND DUP5 OR SWAP3 POP POP POP SWAP4 SWAP3 POP POP POP JUMP JUMPDEST PUSH1 0x0 DUP2 SWAP1 POP SWAP2 SWAP1 POP JUMP JUMPDEST PUSH1 0x0 PUSH2 0x182E PUSH2 0x1829 PUSH2 0x1824 DUP5 PUSH2 0x100A JUMP JUMPDEST PUSH2 0x1809 JUMP JUMPDEST PUSH2 0x100A JUMP JUMPDEST SWAP1 POP SWAP2 SWAP1 POP JUMP JUMPDEST PUSH1 0x0 DUP2 SWAP1 POP SWAP2 SWAP1 POP JUMP JUMPDEST PUSH2 0x1848 DUP4 PUSH2 0x1813 JUMP JUMPDEST PUSH2 0x185C PUSH2 0x1854 DUP3 PUSH2 0x1835 JUMP JUMPDEST DUP5 DUP5 SLOAD PUSH2 0x17B7 JUMP JUMPDEST DUP3 SSTORE POP POP POP POP JUMP JUMPDEST PUSH1 0x0 SWAP1 JUMP JUMPDEST PUSH2 0x1871 PUSH2 0x1864 JUMP JUMPDEST PUSH2 0x187C DUP2 DUP5 DUP5 PUSH2 0x183F JUMP JUMPDEST POP POP POP JUMP JUMPDEST JUMPDEST DUP2 DUP2 LT ISZERO PUSH2 0x18A0 JUMPI PUSH2 0x1895 PUSH1 0x0 DUP3 PUSH2 0x1869 JUMP JUMPDEST PUSH1 0x1 DUP2 ADD SWAP1 POP PUSH2 0x1882 JUMP JUMPDEST POP POP JUMP JUMPDEST PUSH1 0x1F DUP3 GT ISZERO PUSH2 0x18E5 JUMPI PUSH2 0x18B6 DUP2 PUSH2 0x1785 JUMP JUMPDEST PUSH2 0x18BF DUP5 PUSH2 0x179A JUMP JUMPDEST DUP2 ADD PUSH1 0x20 DUP6 LT ISZERO PUSH2 0x18CE JUMPI DUP2 SWAP1 POP JUMPDEST PUSH2 0x18E2 PUSH2 0x18DA DUP6 PUSH2 0x179A JUMP JUMPDEST DUP4 ADD DUP3 PUSH2 0x1881 JUMP JUMPDEST POP POP JUMPDEST POP POP POP JUMP JUMPDEST PUSH1 0x0 DUP3 DUP3 SHR SWAP1 POP SWAP3 SWAP2 POP POP JUMP JUMPDEST PUSH1 0x0 PUSH2 0x1908 PUSH1 0x0 NOT DUP5 PUSH1 0x8 MUL PUSH2 0x18EA JUMP JUMPDEST NOT DUP1 DUP4 AND SWAP2 POP POP SWAP3 SWAP2 POP POP JUMP JUMPDEST PUSH1 0x0 PUSH2 0x1921 DUP4 DUP4 PUSH2 0x18F7 JUMP JUMPDEST SWAP2 POP DUP3 PUSH1 0x2 MUL DUP3 OR SWAP1 POP SWAP3 SWAP2 POP POP JUMP JUMPDEST PUSH2 0x193A DUP3 PUSH2 0x16EB JUMP JUMPDEST PUSH8 0xFFFFFFFFFFFFFFFF DUP2 GT ISZERO PUSH2 0x1953 JUMPI PUSH2 0x1952 PUSH2 0x16F6 JUMP JUMPDEST JUMPDEST PUSH2 0x195D DUP3 SLOAD PUSH2 0x1754 JUMP JUMPDEST PUSH2 0x1968 DUP3 DUP3 DUP6 PUSH2 0x18A4 JUMP JUMPDEST PUSH1 0x0 PUSH1 0x20 SWAP1 POP PUSH1 0x1F DUP4 GT PUSH1 0x1 DUP2 EQ PUSH2 0x199B JUMPI PUSH1 0x0 DUP5 ISZERO PUSH2 0x1989 JUMPI DUP3 DUP8 ADD MLOAD SWAP1 POP JUMPDEST PUSH2 0x1993 DUP6 DUP3 PUSH2 0x1915 JUMP JUMPDEST DUP7 SSTORE POP PUSH2 0x19FB JUMP JUMPDEST PUSH1 0x1F NOT DUP5 AND PUSH2 0x19A9 DUP7 PUSH2 0x1785 JUMP JUMPDEST PUSH1 0x0 JUMPDEST DUP3 DUP2 LT ISZERO PUSH2 0x19D1 JUMPI DUP5 DUP10 ADD MLOAD DUP3 SSTORE PUSH1 0x1 DUP3 ADD SWAP2 POP PUSH1 0x20 DUP6 ADD SWAP5 POP PUSH1 0x20 DUP2 ADD SWAP1 POP PUSH2 0x19AC JUMP JUMPDEST DUP7 DUP4 LT ISZERO PUSH2 0x19EE JUMPI DUP5 DUP10 ADD MLOAD PUSH2 0x19EA PUSH1 0x1F DUP10 AND DUP3 PUSH2 0x18F7 JUMP JUMPDEST DUP4 SSTORE POP JUMPDEST PUSH1 0x1 PUSH1 0x2 DUP9 MUL ADD DUP9 SSTORE POP POP POP JUMPDEST POP POP POP POP POP POP JUMP JUMPDEST PUSH32 0x4861642073657400000000000000000000000000000000000000000000000000 PUSH1 0x0 DUP3 ADD MSTORE POP JUMP JUMPDEST PUSH1 0x0 PUSH2 0x1A39 PUSH1 0x7 DUP4 PUSH2 0x14AE JUMP JUMPDEST SWAP2 POP PUSH2 0x1A44 DUP3 PUSH2 0x1A03 JUMP JUMPDEST PUSH1 0x20 DUP3 ADD SWAP1 POP SWAP2 SWAP1 POP JUMP JUMPDEST PUSH1 0x0 PUSH1 0x20 DUP3 ADD SWAP1 POP DUP2 DUP2 SUB PUSH1 0x0 DUP4 ADD MSTORE PUSH2 0x1A68 DUP2 PUSH2 0x1A2C JUMP JUMPDEST SWAP1 POP SWAP2 SWAP1 POP JUMP JUMPDEST PUSH32 0x4E487B7100000000000000000000000000000000000000000000000000000000 PUSH1 0x0 MSTORE PUSH1 0x32 PUSH1 0x4 MSTORE PUSH1 0x24 PUSH1 0x0 REVERT JUMPDEST PUSH1 0x0 PUSH2 0xFFFF DUP3 AND SWAP1 POP SWAP2 SWAP1 POP JUMP JUMPDEST PUSH1 0x0 PUSH2 0x1AB7 DUP3 PUSH2 0x1A9E JUMP JUMPDEST SWAP2 POP PUSH2 0xFFFF DUP3 SUB PUSH2 0x1ACB JUMPI PUSH2 0x1ACA PUSH2 0x141A JUMP JUMPDEST JUMPDEST PUSH1 0x1 DUP3 ADD SWAP1 POP SWAP2 SWAP1 POP JUMP JUMPDEST PUSH32 0x4E756D626572206572726F720000000000000000000000000000000000000000 PUSH1 0x0 DUP3 ADD MSTORE POP JUMP JUMPDEST PUSH1 0x0 PUSH2 0x1B0C PUSH1 0xC DUP4 PUSH2 0x14AE JUMP JUMPDEST SWAP2 POP PUSH2 0x1B17 DUP3 PUSH2 0x1AD6 JUMP JUMPDEST PUSH1 0x20 DUP3 ADD SWAP1 POP SWAP2 SWAP1 POP JUMP JUMPDEST PUSH1 0x0 PUSH1 0x20 DUP3 ADD SWAP1 POP DUP2 DUP2 SUB PUSH1 0x0 DUP4 ADD MSTORE PUSH2 0x1B3B DUP2 PUSH2 0x1AFF JUMP JUMPDEST SWAP1 POP SWAP2 SWAP1 POP JUMP JUMPDEST PUSH32 0x4F776E61626C653A206E6577206F776E657220697320746865207A65726F2061 PUSH1 0x0 DUP3 ADD MSTORE PUSH32 0x6464726573730000000000000000000000000000000000000000000000000000 PUSH1 0x20 DUP3 ADD MSTORE POP JUMP JUMPDEST PUSH1 0x0 PUSH2 0x1B9E PUSH1 0x26 DUP4 PUSH2 0x14AE JUMP JUMPDEST SWAP2 POP PUSH2 0x1BA9 DUP3 PUSH2 0x1B42 JUMP JUMPDEST PUSH1 0x40 DUP3 ADD SWAP1 POP SWAP2 SWAP1 POP JUMP JUMPDEST PUSH1 0x0 PUSH1 0x20 DUP3 ADD SWAP1 POP DUP2 DUP2 SUB PUSH1 0x0 DUP4 ADD MSTORE PUSH2 0x1BCD DUP2 PUSH2 0x1B91 JUMP JUMPDEST SWAP1 POP SWAP2 SWAP1 POP JUMP JUMPDEST PUSH32 0x4F776E61626C653A2063616C6C6572206973206E6F7420746865206F776E6572 PUSH1 0x0 DUP3 ADD MSTORE POP JUMP JUMPDEST PUSH1 0x0 PUSH2 0x1C0A PUSH1 0x20 DUP4 PUSH2 0x14AE JUMP JUMPDEST SWAP2 POP PUSH2 0x1C15 DUP3 PUSH2 0x1BD4 JUMP JUMPDEST PUSH1 0x20 DUP3 ADD SWAP1 POP SWAP2 SWAP1 POP JUMP JUMPDEST PUSH1 0x0 PUSH1 0x20 DUP3 ADD SWAP1 POP DUP2 DUP2 SUB PUSH1 0x0 DUP4 ADD MSTORE PUSH2 0x1C39 DUP2 PUSH2 0x1BFD JUMP JUMPDEST SWAP1 POP SWAP2 SWAP1 POP JUMP INVALID LOG2 PUSH5 0x6970667358 0x22 SLT KECCAK256 DUP12 OR DUP16 DUP8 STATICCALL DUP12 PUSH14 0x11C3B00DD4FAA67F0766D37E167B CALLDATACOPY 0xD4 0xA7 0x28 0xD 0xC4 PUSH31 0x9F8E2E0664736F6C6343000813003300000000000000000000000000000000 "
				},
				"gasEstimates": {
					"creation": {
						"codeDepositCost": "1457200",
						"executionCost": "infinite",
						"totalCost": "infinite"
					},
					"external": {
						"addSuperVisor(address)": "infinite",
						"checkDispute(uint128)": "infinite",
						"checkIfSupervisor(address)": "infinite",
						"createDispute(address,string,string,uint128)": "infinite",
						"getAllSupervisor()": "infinite",
						"getClearId(address)": "2886",
						"getClearTime(uint256,address)": "infinite",
						"getFutureTokenAddress()": "2544",
						"getLastNumber()": "2482",
						"ifPass(uint256)": "infinite",
						"owner()": "2611",
						"removeSuperVisor(address)": "infinite",
						"renounceOwnership()": "30465",
						"setCleanTime(uint256,address,address)": "infinite",
						"transferOwnership(address)": "30832"
					}
				},
				"methodIdentifiers": {
					"addSuperVisor(address)": "1049dc34",
					"checkDispute(uint128)": "1df058f5",
					"checkIfSupervisor(address)": "66bba4f5",
					"createDispute(address,string,string,uint128)": "52950c9a",
					"getAllSupervisor()": "479c32ec",
					"getClearId(address)": "4b6ab77b",
					"getClearTime(uint256,address)": "d7867905",
					"getFutureTokenAddress()": "a72124b7",
					"getLastNumber()": "682c0fc1",
					"ifPass(uint256)": "158f2cae",
					"owner()": "8da5cb5b",
					"removeSuperVisor(address)": "e64aa3e8",
					"renounceOwnership()": "715018a6",
					"setCleanTime(uint256,address,address)": "5974b4d5",
					"transferOwnership(address)": "f2fde38b"
				}
			},
			"storageLayout": {
				"storage": [
					{
						"astId": 7,
						"contract": "contracts/TimeMiddle.sol:TimeMiddle",
						"label": "_owner",
						"offset": 0,
						"slot": "0",
						"type": "t_address"
					},
					{
						"astId": 141,
						"contract": "contracts/TimeMiddle.sol:TimeMiddle",
						"label": "number",
						"offset": 0,
						"slot": "1",
						"type": "t_uint256"
					},
					{
						"astId": 143,
						"contract": "contracts/TimeMiddle.sol:TimeMiddle",
						"label": "futureToken",
						"offset": 0,
						"slot": "2",
						"type": "t_address"
					},
					{
						"astId": 146,
						"contract": "contracts/TimeMiddle.sol:TimeMiddle",
						"label": "supervisorGroup",
						"offset": 0,
						"slot": "3",
						"type": "t_array(t_address)dyn_storage"
					},
					{
						"astId": 152,
						"contract": "contracts/TimeMiddle.sol:TimeMiddle",
						"label": "clearTime",
						"offset": 0,
						"slot": "4",
						"type": "t_mapping(t_uint256,t_mapping(t_address,t_uint256))"
					},
					{
						"astId": 156,
						"contract": "contracts/TimeMiddle.sol:TimeMiddle",
						"label": "disputeIfPass",
						"offset": 0,
						"slot": "5",
						"type": "t_mapping(t_uint256,t_uint256)"
					},
					{
						"astId": 162,
						"contract": "contracts/TimeMiddle.sol:TimeMiddle",
						"label": "ifVoteDispute",
						"offset": 0,
						"slot": "6",
						"type": "t_mapping(t_address,t_mapping(t_uint256,t_bool))"
					},
					{
						"astId": 166,
						"contract": "contracts/TimeMiddle.sol:TimeMiddle",
						"label": "ifHadSet",
						"offset": 0,
						"slot": "7",
						"type": "t_mapping(t_address,t_bool)"
					},
					{
						"astId": 170,
						"contract": "contracts/TimeMiddle.sol:TimeMiddle",
						"label": "contractToClearId",
						"offset": 0,
						"slot": "8",
						"type": "t_mapping(t_address,t_uint256)"
					},
					{
						"astId": 183,
						"contract": "contracts/TimeMiddle.sol:TimeMiddle",
						"label": "_dispute",
						"offset": 0,
						"slot": "9",
						"type": "t_array(t_struct(dispute)179_storage)dyn_storage"
					}
				],
				"types": {
					"t_address": {
						"encoding": "inplace",
						"label": "address",
						"numberOfBytes": "20"
					},
					"t_array(t_address)dyn_storage": {
						"base": "t_address",
						"encoding": "dynamic_array",
						"label": "address[]",
						"numberOfBytes": "32"
					},
					"t_array(t_struct(dispute)179_storage)dyn_storage": {
						"base": "t_struct(dispute)179_storage",
						"encoding": "dynamic_array",
						"label": "struct TimeMiddle.dispute[]",
						"numberOfBytes": "32"
					},
					"t_bool": {
						"encoding": "inplace",
						"label": "bool",
						"numberOfBytes": "1"
					},
					"t_mapping(t_address,t_bool)": {
						"encoding": "mapping",
						"key": "t_address",
						"label": "mapping(address => bool)",
						"numberOfBytes": "32",
						"value": "t_bool"
					},
					"t_mapping(t_address,t_mapping(t_uint256,t_bool))": {
						"encoding": "mapping",
						"key": "t_address",
						"label": "mapping(address => mapping(uint256 => bool))",
						"numberOfBytes": "32",
						"value": "t_mapping(t_uint256,t_bool)"
					},
					"t_mapping(t_address,t_uint256)": {
						"encoding": "mapping",
						"key": "t_address",
						"label": "mapping(address => uint256)",
						"numberOfBytes": "32",
						"value": "t_uint256"
					},
					"t_mapping(t_uint256,t_bool)": {
						"encoding": "mapping",
						"key": "t_uint256",
						"label": "mapping(uint256 => bool)",
						"numberOfBytes": "32",
						"value": "t_bool"
					},
					"t_mapping(t_uint256,t_mapping(t_address,t_uint256))": {
						"encoding": "mapping",
						"key": "t_uint256",
						"label": "mapping(uint256 => mapping(address => uint256))",
						"numberOfBytes": "32",
						"value": "t_mapping(t_address,t_uint256)"
					},
					"t_mapping(t_uint256,t_uint256)": {
						"encoding": "mapping",
						"key": "t_uint256",
						"label": "mapping(uint256 => uint256)",
						"numberOfBytes": "32",
						"value": "t_uint256"
					},
					"t_string_storage": {
						"encoding": "bytes",
						"label": "string",
						"numberOfBytes": "32"
					},
					"t_struct(dispute)179_storage": {
						"encoding": "inplace",
						"label": "struct TimeMiddle.dispute",
						"members": [
							{
								"astId": 172,
								"contract": "contracts/TimeMiddle.sol:TimeMiddle",
								"label": "disputeId",
								"offset": 0,
								"slot": "0",
								"type": "t_uint128"
							},
							{
								"astId": 174,
								"contract": "contracts/TimeMiddle.sol:TimeMiddle",
								"label": "disputeTime",
								"offset": 16,
								"slot": "0",
								"type": "t_uint128"
							},
							{
								"astId": 176,
								"contract": "contracts/TimeMiddle.sol:TimeMiddle",
								"label": "disputeName",
								"offset": 0,
								"slot": "1",
								"type": "t_string_storage"
							},
							{
								"astId": 178,
								"contract": "contracts/TimeMiddle.sol:TimeMiddle",
								"label": "disputeThing",
								"offset": 0,
								"slot": "2",
								"type": "t_string_storage"
							}
						],
						"numberOfBytes": "96"
					},
					"t_uint128": {
						"encoding": "inplace",
						"label": "uint128",
						"numberOfBytes": "16"
					},
					"t_uint256": {
						"encoding": "inplace",
						"label": "uint256",
						"numberOfBytes": "32"
					}
				}
			},
			"userdoc": {
				"kind": "user",
				"methods": {},
				"version": 1
			}
		}
	}
}