{
	"contracts/TimeFactory.sol": {
		"TimeFactory": {
			"abi": [
				{
					"inputs": [
						{
							"internalType": "address",
							"name": "_airdropToken",
							"type": "address"
						},
						{
							"internalType": "uint256",
							"name": "_clearingTime",
							"type": "uint256"
						}
					],
					"stateMutability": "nonpayable",
					"type": "constructor"
				},
				{
					"inputs": [],
					"name": "AlreadyInjectToken",
					"type": "error"
				},
				{
					"inputs": [],
					"name": "NorSolder",
					"type": "error"
				},
				{
					"inputs": [],
					"name": "NotBuyer",
					"type": "error"
				},
				{
					"inputs": [],
					"name": "NotEnoughAmount",
					"type": "error"
				},
				{
					"inputs": [],
					"name": "NotInjectToken",
					"type": "error"
				},
				{
					"inputs": [
						{
							"internalType": "uint64",
							"name": "_id",
							"type": "uint64"
						}
					],
					"name": "Sale",
					"outputs": [],
					"stateMutability": "nonpayable",
					"type": "function"
				},
				{
					"inputs": [
						{
							"internalType": "address",
							"name": "_tokenAddress",
							"type": "address"
						},
						{
							"internalType": "uint128",
							"name": "_buyAmount",
							"type": "uint128"
						},
						{
							"internalType": "uint128",
							"name": "_buyPrice",
							"type": "uint128"
						}
					],
					"name": "buy",
					"outputs": [],
					"stateMutability": "nonpayable",
					"type": "function"
				},
				{
					"inputs": [
						{
							"internalType": "uint64",
							"name": "_id",
							"type": "uint64"
						}
					],
					"name": "buyerWithdrawAirdorp",
					"outputs": [],
					"stateMutability": "nonpayable",
					"type": "function"
				},
				{
					"inputs": [
						{
							"internalType": "uint64",
							"name": "_id",
							"type": "uint64"
						}
					],
					"name": "buyerWithdrawRefund",
					"outputs": [],
					"stateMutability": "nonpayable",
					"type": "function"
				},
				{
					"inputs": [
						{
							"internalType": "uint128",
							"name": "_soldPrice",
							"type": "uint128"
						},
						{
							"internalType": "uint128",
							"name": "_soldAmount",
							"type": "uint128"
						}
					],
					"name": "getPenal",
					"outputs": [
						{
							"internalType": "uint256",
							"name": "",
							"type": "uint256"
						}
					],
					"stateMutability": "pure",
					"type": "function"
				},
				{
					"inputs": [
						{
							"internalType": "uint64",
							"name": "_id",
							"type": "uint64"
						}
					],
					"name": "injectFutureToken",
					"outputs": [],
					"stateMutability": "nonpayable",
					"type": "function"
				},
				{
					"inputs": [
						{
							"internalType": "uint64",
							"name": "_id",
							"type": "uint64"
						}
					],
					"name": "solderWithdrawStable",
					"outputs": [],
					"stateMutability": "nonpayable",
					"type": "function"
				},
				{
					"inputs": [
						{
							"internalType": "address",
							"name": "",
							"type": "address"
						},
						{
							"internalType": "uint256",
							"name": "",
							"type": "uint256"
						}
					],
					"name": "userIfWithdraw1",
					"outputs": [
						{
							"internalType": "bool",
							"name": "",
							"type": "bool"
						}
					],
					"stateMutability": "view",
					"type": "function"
				},
				{
					"inputs": [
						{
							"internalType": "address",
							"name": "",
							"type": "address"
						},
						{
							"internalType": "uint256",
							"name": "",
							"type": "uint256"
						}
					],
					"name": "userIfWithdraw2",
					"outputs": [
						{
							"internalType": "bool",
							"name": "",
							"type": "bool"
						}
					],
					"stateMutability": "view",
					"type": "function"
				},
				{
					"inputs": [
						{
							"internalType": "address",
							"name": "",
							"type": "address"
						},
						{
							"internalType": "uint256",
							"name": "",
							"type": "uint256"
						}
					],
					"name": "userIfWithdraw3",
					"outputs": [
						{
							"internalType": "bool",
							"name": "",
							"type": "bool"
						}
					],
					"stateMutability": "view",
					"type": "function"
				},
				{
					"inputs": [
						{
							"internalType": "address",
							"name": "",
							"type": "address"
						},
						{
							"internalType": "uint256",
							"name": "",
							"type": "uint256"
						}
					],
					"name": "userIfWithdraw4",
					"outputs": [
						{
							"internalType": "bool",
							"name": "",
							"type": "bool"
						}
					],
					"stateMutability": "view",
					"type": "function"
				}
			],
			"devdoc": {
				"kind": "dev",
				"methods": {},
				"version": 1
			},
			"evm": {
				"assembly": "    /* \"contracts/TimeFactory.sol\":273:7796  contract TimeFactory is ITimeStruct, IError{... */\n  mstore(0x40, 0x80)\n    /* \"contracts/TimeFactory.sol\":443:586  constructor(address _airdropToken,uint _clearingTime){... */\n  callvalue\n  dup1\n  iszero\n  tag_1\n  jumpi\n  0x00\n  dup1\n  revert\ntag_1:\n  pop\n  mload(0x40)\n  sub(codesize, bytecodeSize)\n  dup1\n  bytecodeSize\n  dup4\n  codecopy\n  dup2\n  dup2\n  add\n  0x40\n  mstore\n  dup2\n  add\n  swap1\n  tag_2\n  swap2\n  swap1\n  tag_3\n  jump\t// in\ntag_2:\n    /* \"contracts/TimeFactory.sol\":520:533  _airdropToken */\n  dup2\n    /* \"contracts/TimeFactory.sol\":507:519  airdropToken */\n  0x01\n  0x00\n    /* \"contracts/TimeFactory.sol\":507:533  airdropToken=_airdropToken */\n  0x0100\n  exp\n  dup2\n  sload\n  dup2\n  0xffffffffffffffffffffffffffffffffffffffff\n  mul\n  not\n  and\n  swap1\n  dup4\n  0xffffffffffffffffffffffffffffffffffffffff\n  and\n  mul\n  or\n  swap1\n  sstore\n  pop\n    /* \"contracts/TimeFactory.sol\":564:577  _clearingTime */\n  dup1\n    /* \"contracts/TimeFactory.sol\":544:556  clearingTime */\n  0x00\n  dup1\n    /* \"contracts/TimeFactory.sol\":544:578  clearingTime=uint56(_clearingTime) */\n  0x0100\n  exp\n  dup2\n  sload\n  dup2\n  0xffffffffffffff\n  mul\n  not\n  and\n  swap1\n  dup4\n  0xffffffffffffff\n  and\n  mul\n  or\n  swap1\n  sstore\n  pop\n    /* \"contracts/TimeFactory.sol\":443:586  constructor(address _airdropToken,uint _clearingTime){... */\n  pop\n  pop\n    /* \"contracts/TimeFactory.sol\":273:7796  contract TimeFactory is ITimeStruct, IError{... */\n  jump(tag_6)\n    /* \"#utility.yul\":88:205   */\ntag_8:\n    /* \"#utility.yul\":197:198   */\n  0x00\n    /* \"#utility.yul\":194:195   */\n  dup1\n    /* \"#utility.yul\":187:199   */\n  revert\n    /* \"#utility.yul\":334:460   */\ntag_10:\n    /* \"#utility.yul\":371:378   */\n  0x00\n    /* \"#utility.yul\":411:453   */\n  0xffffffffffffffffffffffffffffffffffffffff\n    /* \"#utility.yul\":404:409   */\n  dup3\n    /* \"#utility.yul\":400:454   */\n  and\n    /* \"#utility.yul\":389:454   */\n  swap1\n  pop\n    /* \"#utility.yul\":334:460   */\n  swap2\n  swap1\n  pop\n  jump\t// out\n    /* \"#utility.yul\":466:562   */\ntag_11:\n    /* \"#utility.yul\":503:510   */\n  0x00\n    /* \"#utility.yul\":532:556   */\n  tag_23\n    /* \"#utility.yul\":550:555   */\n  dup3\n    /* \"#utility.yul\":532:556   */\n  tag_10\n  jump\t// in\ntag_23:\n    /* \"#utility.yul\":521:556   */\n  swap1\n  pop\n    /* \"#utility.yul\":466:562   */\n  swap2\n  swap1\n  pop\n  jump\t// out\n    /* \"#utility.yul\":568:690   */\ntag_12:\n    /* \"#utility.yul\":641:665   */\n  tag_25\n    /* \"#utility.yul\":659:664   */\n  dup2\n    /* \"#utility.yul\":641:665   */\n  tag_11\n  jump\t// in\ntag_25:\n    /* \"#utility.yul\":634:639   */\n  dup2\n    /* \"#utility.yul\":631:666   */\n  eq\n    /* \"#utility.yul\":621:684   */\n  tag_26\n  jumpi\n    /* \"#utility.yul\":680:681   */\n  0x00\n    /* \"#utility.yul\":677:678   */\n  dup1\n    /* \"#utility.yul\":670:682   */\n  revert\n    /* \"#utility.yul\":621:684   */\ntag_26:\n    /* \"#utility.yul\":568:690   */\n  pop\n  jump\t// out\n    /* \"#utility.yul\":696:839   */\ntag_13:\n    /* \"#utility.yul\":753:758   */\n  0x00\n    /* \"#utility.yul\":784:790   */\n  dup2\n    /* \"#utility.yul\":778:791   */\n  mload\n    /* \"#utility.yul\":769:791   */\n  swap1\n  pop\n    /* \"#utility.yul\":800:833   */\n  tag_28\n    /* \"#utility.yul\":827:832   */\n  dup2\n    /* \"#utility.yul\":800:833   */\n  tag_12\n  jump\t// in\ntag_28:\n    /* \"#utility.yul\":696:839   */\n  swap3\n  swap2\n  pop\n  pop\n  jump\t// out\n    /* \"#utility.yul\":845:922   */\ntag_14:\n    /* \"#utility.yul\":882:889   */\n  0x00\n    /* \"#utility.yul\":911:916   */\n  dup2\n    /* \"#utility.yul\":900:916   */\n  swap1\n  pop\n    /* \"#utility.yul\":845:922   */\n  swap2\n  swap1\n  pop\n  jump\t// out\n    /* \"#utility.yul\":928:1050   */\ntag_15:\n    /* \"#utility.yul\":1001:1025   */\n  tag_31\n    /* \"#utility.yul\":1019:1024   */\n  dup2\n    /* \"#utility.yul\":1001:1025   */\n  tag_14\n  jump\t// in\ntag_31:\n    /* \"#utility.yul\":994:999   */\n  dup2\n    /* \"#utility.yul\":991:1026   */\n  eq\n    /* \"#utility.yul\":981:1044   */\n  tag_32\n  jumpi\n    /* \"#utility.yul\":1040:1041   */\n  0x00\n    /* \"#utility.yul\":1037:1038   */\n  dup1\n    /* \"#utility.yul\":1030:1042   */\n  revert\n    /* \"#utility.yul\":981:1044   */\ntag_32:\n    /* \"#utility.yul\":928:1050   */\n  pop\n  jump\t// out\n    /* \"#utility.yul\":1056:1199   */\ntag_16:\n    /* \"#utility.yul\":1113:1118   */\n  0x00\n    /* \"#utility.yul\":1144:1150   */\n  dup2\n    /* \"#utility.yul\":1138:1151   */\n  mload\n    /* \"#utility.yul\":1129:1151   */\n  swap1\n  pop\n    /* \"#utility.yul\":1160:1193   */\n  tag_34\n    /* \"#utility.yul\":1187:1192   */\n  dup2\n    /* \"#utility.yul\":1160:1193   */\n  tag_15\n  jump\t// in\ntag_34:\n    /* \"#utility.yul\":1056:1199   */\n  swap3\n  swap2\n  pop\n  pop\n  jump\t// out\n    /* \"#utility.yul\":1205:1712   */\ntag_3:\n    /* \"#utility.yul\":1284:1290   */\n  0x00\n    /* \"#utility.yul\":1292:1298   */\n  dup1\n    /* \"#utility.yul\":1341:1343   */\n  0x40\n    /* \"#utility.yul\":1329:1338   */\n  dup4\n    /* \"#utility.yul\":1320:1327   */\n  dup6\n    /* \"#utility.yul\":1316:1339   */\n  sub\n    /* \"#utility.yul\":1312:1344   */\n  slt\n    /* \"#utility.yul\":1309:1428   */\n  iszero\n  tag_36\n  jumpi\n    /* \"#utility.yul\":1347:1426   */\n  tag_37\n  tag_8\n  jump\t// in\ntag_37:\n    /* \"#utility.yul\":1309:1428   */\ntag_36:\n    /* \"#utility.yul\":1467:1468   */\n  0x00\n    /* \"#utility.yul\":1492:1556   */\n  tag_38\n    /* \"#utility.yul\":1548:1555   */\n  dup6\n    /* \"#utility.yul\":1539:1545   */\n  dup3\n    /* \"#utility.yul\":1528:1537   */\n  dup7\n    /* \"#utility.yul\":1524:1546   */\n  add\n    /* \"#utility.yul\":1492:1556   */\n  tag_13\n  jump\t// in\ntag_38:\n    /* \"#utility.yul\":1482:1556   */\n  swap3\n  pop\n    /* \"#utility.yul\":1438:1566   */\n  pop\n    /* \"#utility.yul\":1605:1607   */\n  0x20\n    /* \"#utility.yul\":1631:1695   */\n  tag_39\n    /* \"#utility.yul\":1687:1694   */\n  dup6\n    /* \"#utility.yul\":1678:1684   */\n  dup3\n    /* \"#utility.yul\":1667:1676   */\n  dup7\n    /* \"#utility.yul\":1663:1685   */\n  add\n    /* \"#utility.yul\":1631:1695   */\n  tag_16\n  jump\t// in\ntag_39:\n    /* \"#utility.yul\":1621:1695   */\n  swap2\n  pop\n    /* \"#utility.yul\":1576:1705   */\n  pop\n    /* \"#utility.yul\":1205:1712   */\n  swap3\n  pop\n  swap3\n  swap1\n  pop\n  jump\t// out\n    /* \"contracts/TimeFactory.sol\":273:7796  contract TimeFactory is ITimeStruct, IError{... */\ntag_6:\n  dataSize(sub_0)\n  dup1\n  dataOffset(sub_0)\n  0x00\n  codecopy\n  0x00\n  return\nstop\n\nsub_0: assembly {\n        /* \"contracts/TimeFactory.sol\":273:7796  contract TimeFactory is ITimeStruct, IError{... */\n      mstore(0x40, 0x80)\n      callvalue\n      dup1\n      iszero\n      tag_1\n      jumpi\n      0x00\n      dup1\n      revert\n    tag_1:\n      pop\n      jumpi(tag_2, lt(calldatasize, 0x04))\n      shr(0xe0, calldataload(0x00))\n      dup1\n      0x98c50fdd\n      gt\n      tag_14\n      jumpi\n      dup1\n      0x98c50fdd\n      eq\n      tag_8\n      jumpi\n      dup1\n      0xb8d7f980\n      eq\n      tag_9\n      jumpi\n      dup1\n      0xc0102de4\n      eq\n      tag_10\n      jumpi\n      dup1\n      0xd14485a2\n      eq\n      tag_11\n      jumpi\n      dup1\n      0xdf0905c6\n      eq\n      tag_12\n      jumpi\n      dup1\n      0xfc993ea8\n      eq\n      tag_13\n      jumpi\n      jump(tag_2)\n    tag_14:\n      dup1\n      0x25ac3a73\n      eq\n      tag_3\n      jumpi\n      dup1\n      0x2895cb7b\n      eq\n      tag_4\n      jumpi\n      dup1\n      0x59de2f60\n      eq\n      tag_5\n      jumpi\n      dup1\n      0x762e9d30\n      eq\n      tag_6\n      jumpi\n      dup1\n      0x77bcd8a6\n      eq\n      tag_7\n      jumpi\n    tag_2:\n      0x00\n      dup1\n      revert\n        /* \"contracts/TimeFactory.sol\":2770:3377  function injectFutureToken(uint64 _id)external{... */\n    tag_3:\n      tag_15\n      0x04\n      dup1\n      calldatasize\n      sub\n      dup2\n      add\n      swap1\n      tag_16\n      swap2\n      swap1\n      tag_17\n      jump\t// in\n    tag_16:\n      tag_18\n      jump\t// in\n    tag_15:\n      stop\n        /* \"contracts/TimeFactory.sol\":5422:6855  function buyerWithdrawRefund(uint64 _id)external{... */\n    tag_4:\n      tag_19\n      0x04\n      dup1\n      calldatasize\n      sub\n      dup2\n      add\n      swap1\n      tag_20\n      swap2\n      swap1\n      tag_17\n      jump\t// in\n    tag_20:\n      tag_21\n      jump\t// in\n    tag_19:\n      stop\n        /* \"contracts/TimeFactory.sol\":847:911  mapping(address => mapping(uint256=>bool))public userIfWithdraw1 */\n    tag_5:\n      tag_22\n      0x04\n      dup1\n      calldatasize\n      sub\n      dup2\n      add\n      swap1\n      tag_23\n      swap2\n      swap1\n      tag_24\n      jump\t// in\n    tag_23:\n      tag_25\n      jump\t// in\n    tag_22:\n      mload(0x40)\n      tag_26\n      swap2\n      swap1\n      tag_27\n      jump\t// in\n    tag_26:\n      mload(0x40)\n      dup1\n      swap2\n      sub\n      swap1\n      return\n        /* \"contracts/TimeFactory.sol\":2059:2641  function Sale(uint64 _id) external {... */\n    tag_6:\n      tag_28\n      0x04\n      dup1\n      calldatasize\n      sub\n      dup2\n      add\n      swap1\n      tag_29\n      swap2\n      swap1\n      tag_17\n      jump\t// in\n    tag_29:\n      tag_30\n      jump\t// in\n    tag_28:\n      stop\n        /* \"contracts/TimeFactory.sol\":4198:5335  function solderWithdrawStable(uint64 _id)external{... */\n    tag_7:\n      tag_31\n      0x04\n      dup1\n      calldatasize\n      sub\n      dup2\n      add\n      swap1\n      tag_32\n      swap2\n      swap1\n      tag_17\n      jump\t// in\n    tag_32:\n      tag_33\n      jump\t// in\n    tag_31:\n      stop\n        /* \"contracts/TimeFactory.sol\":7248:7791  function getPenal(uint128 _soldPrice, uint128 _soldAmount)public pure returns (uint256){... */\n    tag_8:\n      tag_34\n      0x04\n      dup1\n      calldatasize\n      sub\n      dup2\n      add\n      swap1\n      tag_35\n      swap2\n      swap1\n      tag_36\n      jump\t// in\n    tag_35:\n      tag_37\n      jump\t// in\n    tag_34:\n      mload(0x40)\n      tag_38\n      swap2\n      swap1\n      tag_39\n      jump\t// in\n    tag_38:\n      mload(0x40)\n      dup1\n      swap2\n      sub\n      swap1\n      return\n        /* \"contracts/TimeFactory.sol\":1095:1159  mapping(address => mapping(uint256=>bool))public userIfWithdraw3 */\n    tag_9:\n      tag_40\n      0x04\n      dup1\n      calldatasize\n      sub\n      dup2\n      add\n      swap1\n      tag_41\n      swap2\n      swap1\n      tag_24\n      jump\t// in\n    tag_41:\n      tag_42\n      jump\t// in\n    tag_40:\n      mload(0x40)\n      tag_43\n      swap2\n      swap1\n      tag_27\n      jump\t// in\n    tag_43:\n      mload(0x40)\n      dup1\n      swap2\n      sub\n      swap1\n      return\n        /* \"contracts/TimeFactory.sol\":3385:4145  function buyerWithdrawAirdorp(uint64 _id)external{... */\n    tag_10:\n      tag_44\n      0x04\n      dup1\n      calldatasize\n      sub\n      dup2\n      add\n      swap1\n      tag_45\n      swap2\n      swap1\n      tag_17\n      jump\t// in\n    tag_45:\n      tag_46\n      jump\t// in\n    tag_44:\n      stop\n        /* \"contracts/TimeFactory.sol\":1293:2037  function buy(address _tokenAddress,uint128 _buyAmount,uint128 _buyPrice)external{... */\n    tag_11:\n      tag_47\n      0x04\n      dup1\n      calldatasize\n      sub\n      dup2\n      add\n      swap1\n      tag_48\n      swap2\n      swap1\n      tag_49\n      jump\t// in\n    tag_48:\n      tag_50\n      jump\t// in\n    tag_47:\n      stop\n        /* \"contracts/TimeFactory.sol\":971:1035  mapping(address => mapping(uint256=>bool))public userIfWithdraw2 */\n    tag_12:\n      tag_51\n      0x04\n      dup1\n      calldatasize\n      sub\n      dup2\n      add\n      swap1\n      tag_52\n      swap2\n      swap1\n      tag_24\n      jump\t// in\n    tag_52:\n      tag_53\n      jump\t// in\n    tag_51:\n      mload(0x40)\n      tag_54\n      swap2\n      swap1\n      tag_27\n      jump\t// in\n    tag_54:\n      mload(0x40)\n      dup1\n      swap2\n      sub\n      swap1\n      return\n        /* \"contracts/TimeFactory.sol\":1206:1270  mapping(address => mapping(uint256=>bool))public userIfWithdraw4 */\n    tag_13:\n      tag_55\n      0x04\n      dup1\n      calldatasize\n      sub\n      dup2\n      add\n      swap1\n      tag_56\n      swap2\n      swap1\n      tag_24\n      jump\t// in\n    tag_56:\n      tag_57\n      jump\t// in\n    tag_55:\n      mload(0x40)\n      tag_58\n      swap2\n      swap1\n      tag_27\n      jump\t// in\n    tag_58:\n      mload(0x40)\n      dup1\n      swap2\n      sub\n      swap1\n      return\n        /* \"contracts/TimeFactory.sol\":2770:3377  function injectFutureToken(uint64 _id)external{... */\n    tag_18:\n        /* \"contracts/TimeFactory.sol\":2910:2915  false */\n      0x00\n        /* \"contracts/TimeFactory.sol\":2884:2892  ifInject */\n      0x03\n        /* \"contracts/TimeFactory.sol\":2884:2904  ifInject[msg.sender] */\n      0x00\n        /* \"contracts/TimeFactory.sol\":2893:2903  msg.sender */\n      caller\n        /* \"contracts/TimeFactory.sol\":2884:2904  ifInject[msg.sender] */\n      0xffffffffffffffffffffffffffffffffffffffff\n      and\n      0xffffffffffffffffffffffffffffffffffffffff\n      and\n      dup2\n      mstore\n      0x20\n      add\n      swap1\n      dup2\n      mstore\n      0x20\n      add\n      0x00\n      keccak256\n        /* \"contracts/TimeFactory.sol\":2884:2909  ifInject[msg.sender][_id] */\n      0x00\n        /* \"contracts/TimeFactory.sol\":2905:2908  _id */\n      dup4\n        /* \"contracts/TimeFactory.sol\":2884:2909  ifInject[msg.sender][_id] */\n      0xffffffffffffffff\n      and\n      dup2\n      mstore\n      0x20\n      add\n      swap1\n      dup2\n      mstore\n      0x20\n      add\n      0x00\n      keccak256\n      0x00\n        /* \"contracts/TimeFactory.sol\":2884:2915  ifInject[msg.sender][_id]=false */\n      0x0100\n      exp\n      dup2\n      sload\n      dup2\n      0xff\n      mul\n      not\n      and\n      swap1\n      dup4\n      iszero\n      iszero\n      mul\n      or\n      swap1\n      sstore\n        /* \"contracts/TimeFactory.sol\":2881:2946  if(ifInject[msg.sender][_id]=false){revert AlreadyInjectToken();} */\n      iszero\n      tag_60\n      jumpi\n        /* \"contracts/TimeFactory.sol\":2924:2944  AlreadyInjectToken() */\n      mload(0x40)\n      0x4232716900000000000000000000000000000000000000000000000000000000\n      dup2\n      mstore\n      0x04\n      add\n      mload(0x40)\n      dup1\n      swap2\n      sub\n      swap1\n      revert\n        /* \"contracts/TimeFactory.sol\":2881:2946  if(ifInject[msg.sender][_id]=false){revert AlreadyInjectToken();} */\n    tag_60:\n        /* \"contracts/TimeFactory.sol\":3054:3064  msg.sender */\n      caller\n        /* \"contracts/TimeFactory.sol\":3038:3064  getSolder(_id)!=msg.sender */\n      0xffffffffffffffffffffffffffffffffffffffff\n      and\n        /* \"contracts/TimeFactory.sol\":3038:3052  getSolder(_id) */\n      tag_61\n        /* \"contracts/TimeFactory.sol\":3048:3051  _id */\n      dup3\n        /* \"contracts/TimeFactory.sol\":3038:3047  getSolder */\n      tag_62\n        /* \"contracts/TimeFactory.sol\":3038:3052  getSolder(_id) */\n      jump\t// in\n    tag_61:\n        /* \"contracts/TimeFactory.sol\":3038:3064  getSolder(_id)!=msg.sender */\n      0xffffffffffffffffffffffffffffffffffffffff\n      and\n      eq\n        /* \"contracts/TimeFactory.sol\":3035:3086  if(getSolder(_id)!=msg.sender){revert NorSolder();} */\n      tag_63\n      jumpi\n        /* \"contracts/TimeFactory.sol\":3073:3084  NorSolder() */\n      mload(0x40)\n      0xd7c498bf00000000000000000000000000000000000000000000000000000000\n      dup2\n      mstore\n      0x04\n      add\n      mload(0x40)\n      dup1\n      swap2\n      sub\n      swap1\n      revert\n        /* \"contracts/TimeFactory.sol\":3035:3086  if(getSolder(_id)!=msg.sender){revert NorSolder();} */\n    tag_63:\n        /* \"contracts/TimeFactory.sol\":3143:3168  uint256 thisAirdropAmount */\n      0x00\n        /* \"contracts/TimeFactory.sol\":3169:3178  _tradeMes */\n      0x02\n        /* \"contracts/TimeFactory.sol\":3169:3183  _tradeMes[_id] */\n      0x00\n        /* \"contracts/TimeFactory.sol\":3179:3182  _id */\n      dup4\n        /* \"contracts/TimeFactory.sol\":3169:3183  _tradeMes[_id] */\n      0xffffffffffffffff\n      and\n      0xffffffffffffffff\n      and\n      dup2\n      mstore\n      0x20\n      add\n      swap1\n      dup2\n      mstore\n      0x20\n      add\n      0x00\n      keccak256\n        /* \"contracts/TimeFactory.sol\":3169:3198  _tradeMes[_id].buyTotalAmount */\n      0x00\n      add\n      0x10\n      swap1\n      sload\n      swap1\n      0x0100\n      exp\n      swap1\n      div\n      0xffffffffffffffffffffffffffffffff\n      and\n        /* \"contracts/TimeFactory.sol\":3143:3198  uint256 thisAirdropAmount=_tradeMes[_id].buyTotalAmount */\n      0xffffffffffffffffffffffffffffffff\n      and\n      swap1\n      pop\n        /* \"contracts/TimeFactory.sol\":3209:3290  IERC20(airdropToken).safeTransferFrom(msg.sender,address(this),thisAirdropAmount) */\n      tag_64\n        /* \"contracts/TimeFactory.sol\":3247:3257  msg.sender */\n      caller\n        /* \"contracts/TimeFactory.sol\":3266:3270  this */\n      address\n        /* \"contracts/TimeFactory.sol\":3272:3289  thisAirdropAmount */\n      dup4\n        /* \"contracts/TimeFactory.sol\":3216:3228  airdropToken */\n      0x01\n      0x00\n      swap1\n      sload\n      swap1\n      0x0100\n      exp\n      swap1\n      div\n      0xffffffffffffffffffffffffffffffffffffffff\n      and\n        /* \"contracts/TimeFactory.sol\":3209:3246  IERC20(airdropToken).safeTransferFrom */\n      0xffffffffffffffffffffffffffffffffffffffff\n      and\n      tag_65\n      swap1\n        /* \"contracts/TimeFactory.sol\":3209:3290  IERC20(airdropToken).safeTransferFrom(msg.sender,address(this),thisAirdropAmount) */\n      swap4\n      swap3\n      swap2\n      swap1\n      0xffffffff\n      and\n      jump\t// in\n    tag_64:\n        /* \"contracts/TimeFactory.sol\":3327:3331  true */\n      0x01\n        /* \"contracts/TimeFactory.sol\":3301:3309  ifInject */\n      0x03\n        /* \"contracts/TimeFactory.sol\":3301:3321  ifInject[msg.sender] */\n      0x00\n        /* \"contracts/TimeFactory.sol\":3310:3320  msg.sender */\n      caller\n        /* \"contracts/TimeFactory.sol\":3301:3321  ifInject[msg.sender] */\n      0xffffffffffffffffffffffffffffffffffffffff\n      and\n      0xffffffffffffffffffffffffffffffffffffffff\n      and\n      dup2\n      mstore\n      0x20\n      add\n      swap1\n      dup2\n      mstore\n      0x20\n      add\n      0x00\n      keccak256\n        /* \"contracts/TimeFactory.sol\":3301:3326  ifInject[msg.sender][_id] */\n      0x00\n        /* \"contracts/TimeFactory.sol\":3322:3325  _id */\n      dup5\n        /* \"contracts/TimeFactory.sol\":3301:3326  ifInject[msg.sender][_id] */\n      0xffffffffffffffff\n      and\n      dup2\n      mstore\n      0x20\n      add\n      swap1\n      dup2\n      mstore\n      0x20\n      add\n      0x00\n      keccak256\n      0x00\n        /* \"contracts/TimeFactory.sol\":3301:3331  ifInject[msg.sender][_id]=true */\n      0x0100\n      exp\n      dup2\n      sload\n      dup2\n      0xff\n      mul\n      not\n      and\n      swap1\n      dup4\n      iszero\n      iszero\n      mul\n      or\n      swap1\n      sstore\n      pop\n        /* \"contracts/TimeFactory.sol\":3368:3369  3 */\n      0x03\n        /* \"contracts/TimeFactory.sol\":3342:3351  _tradeMes */\n      0x02\n        /* \"contracts/TimeFactory.sol\":3342:3356  _tradeMes[_id] */\n      0x00\n        /* \"contracts/TimeFactory.sol\":3352:3355  _id */\n      dup5\n        /* \"contracts/TimeFactory.sol\":3342:3356  _tradeMes[_id] */\n      0xffffffffffffffff\n      and\n      0xffffffffffffffff\n      and\n      dup2\n      mstore\n      0x20\n      add\n      swap1\n      dup2\n      mstore\n      0x20\n      add\n      0x00\n      keccak256\n        /* \"contracts/TimeFactory.sol\":3342:3367  _tradeMes[_id].tradeState */\n      0x00\n      add\n      0x00\n        /* \"contracts/TimeFactory.sol\":3342:3369  _tradeMes[_id].tradeState=3 */\n      0x0100\n      exp\n      dup2\n      sload\n      dup2\n      0xff\n      mul\n      not\n      and\n      swap1\n      dup4\n      0xff\n      and\n      mul\n      or\n      swap1\n      sstore\n      pop\n        /* \"contracts/TimeFactory.sol\":2816:3377  {... */\n      pop\n        /* \"contracts/TimeFactory.sol\":2770:3377  function injectFutureToken(uint64 _id)external{... */\n      pop\n      jump\t// out\n        /* \"contracts/TimeFactory.sol\":5422:6855  function buyerWithdrawRefund(uint64 _id)external{... */\n    tag_21:\n        /* \"contracts/TimeFactory.sol\":5481:5494  address buyer */\n      0x00\n        /* \"contracts/TimeFactory.sol\":5495:5508  getBuyer(_id) */\n      tag_67\n        /* \"contracts/TimeFactory.sol\":5504:5507  _id */\n      dup3\n        /* \"contracts/TimeFactory.sol\":5495:5503  getBuyer */\n      tag_68\n        /* \"contracts/TimeFactory.sol\":5495:5508  getBuyer(_id) */\n      jump\t// in\n    tag_67:\n        /* \"contracts/TimeFactory.sol\":5481:5508  address buyer=getBuyer(_id) */\n      swap1\n      pop\n        /* \"contracts/TimeFactory.sol\":5519:5533  address solder */\n      0x00\n        /* \"contracts/TimeFactory.sol\":5534:5548  getSolder(_id) */\n      tag_69\n        /* \"contracts/TimeFactory.sol\":5544:5547  _id */\n      dup4\n        /* \"contracts/TimeFactory.sol\":5534:5543  getSolder */\n      tag_62\n        /* \"contracts/TimeFactory.sol\":5534:5548  getSolder(_id) */\n      jump\t// in\n    tag_69:\n        /* \"contracts/TimeFactory.sol\":5519:5548  address solder=getSolder(_id) */\n      swap1\n      pop\n        /* \"contracts/TimeFactory.sol\":5612:5617  buyer */\n      dup2\n        /* \"contracts/TimeFactory.sol\":5600:5617  msg.sender==buyer */\n      0xffffffffffffffffffffffffffffffffffffffff\n      and\n        /* \"contracts/TimeFactory.sol\":5600:5610  msg.sender */\n      caller\n        /* \"contracts/TimeFactory.sol\":5600:5617  msg.sender==buyer */\n      0xffffffffffffffffffffffffffffffffffffffff\n      and\n      eq\n        /* \"contracts/TimeFactory.sol\":5592:5618  require(msg.sender==buyer) */\n      tag_70\n      jumpi\n      0x00\n      dup1\n      revert\n    tag_70:\n        /* \"contracts/TimeFactory.sol\":5723:5728  false */\n      0x00\n        /* \"contracts/TimeFactory.sol\":5700:5728  ifInject[solder][_id]==false */\n      iszero\n      iszero\n        /* \"contracts/TimeFactory.sol\":5700:5708  ifInject */\n      0x03\n        /* \"contracts/TimeFactory.sol\":5700:5716  ifInject[solder] */\n      0x00\n        /* \"contracts/TimeFactory.sol\":5709:5715  solder */\n      dup4\n        /* \"contracts/TimeFactory.sol\":5700:5716  ifInject[solder] */\n      0xffffffffffffffffffffffffffffffffffffffff\n      and\n      0xffffffffffffffffffffffffffffffffffffffff\n      and\n      dup2\n      mstore\n      0x20\n      add\n      swap1\n      dup2\n      mstore\n      0x20\n      add\n      0x00\n      keccak256\n        /* \"contracts/TimeFactory.sol\":5700:5721  ifInject[solder][_id] */\n      0x00\n        /* \"contracts/TimeFactory.sol\":5717:5720  _id */\n      dup6\n        /* \"contracts/TimeFactory.sol\":5700:5721  ifInject[solder][_id] */\n      0xffffffffffffffff\n      and\n      dup2\n      mstore\n      0x20\n      add\n      swap1\n      dup2\n      mstore\n      0x20\n      add\n      0x00\n      keccak256\n      0x00\n      swap1\n      sload\n      swap1\n      0x0100\n      exp\n      swap1\n      div\n      0xff\n      and\n        /* \"contracts/TimeFactory.sol\":5700:5728  ifInject[solder][_id]==false */\n      iszero\n      iszero\n      eq\n        /* \"contracts/TimeFactory.sol\":5692:5729  require(ifInject[solder][_id]==false) */\n      tag_71\n      jumpi\n      0x00\n      dup1\n      revert\n    tag_71:\n        /* \"contracts/TimeFactory.sol\":5782:5787  false */\n      0x00\n        /* \"contracts/TimeFactory.sol\":5748:5787  userIfWithdraw3[msg.sender][_id]==false */\n      iszero\n      iszero\n        /* \"contracts/TimeFactory.sol\":5748:5763  userIfWithdraw3 */\n      0x06\n        /* \"contracts/TimeFactory.sol\":5748:5775  userIfWithdraw3[msg.sender] */\n      0x00\n        /* \"contracts/TimeFactory.sol\":5764:5774  msg.sender */\n      caller\n        /* \"contracts/TimeFactory.sol\":5748:5775  userIfWithdraw3[msg.sender] */\n      0xffffffffffffffffffffffffffffffffffffffff\n      and\n      0xffffffffffffffffffffffffffffffffffffffff\n      and\n      dup2\n      mstore\n      0x20\n      add\n      swap1\n      dup2\n      mstore\n      0x20\n      add\n      0x00\n      keccak256\n        /* \"contracts/TimeFactory.sol\":5748:5780  userIfWithdraw3[msg.sender][_id] */\n      0x00\n        /* \"contracts/TimeFactory.sol\":5776:5779  _id */\n      dup6\n        /* \"contracts/TimeFactory.sol\":5748:5780  userIfWithdraw3[msg.sender][_id] */\n      0xffffffffffffffff\n      and\n      dup2\n      mstore\n      0x20\n      add\n      swap1\n      dup2\n      mstore\n      0x20\n      add\n      0x00\n      keccak256\n      0x00\n      swap1\n      sload\n      swap1\n      0x0100\n      exp\n      swap1\n      div\n      0xff\n      and\n        /* \"contracts/TimeFactory.sol\":5748:5787  userIfWithdraw3[msg.sender][_id]==false */\n      iszero\n      iszero\n      eq\n        /* \"contracts/TimeFactory.sol\":5740:5788  require(userIfWithdraw3[msg.sender][_id]==false) */\n      tag_72\n      jumpi\n      0x00\n      dup1\n      revert\n    tag_72:\n        /* \"contracts/TimeFactory.sol\":5852:5857  buyer */\n      dup2\n        /* \"contracts/TimeFactory.sol\":5840:5857  msg.sender==buyer */\n      0xffffffffffffffffffffffffffffffffffffffff\n      and\n        /* \"contracts/TimeFactory.sol\":5840:5850  msg.sender */\n      caller\n        /* \"contracts/TimeFactory.sol\":5840:5857  msg.sender==buyer */\n      0xffffffffffffffffffffffffffffffffffffffff\n      and\n      eq\n        /* \"contracts/TimeFactory.sol\":5832:5858  require(msg.sender==buyer) */\n      tag_73\n      jumpi\n      0x00\n      dup1\n      revert\n    tag_73:\n        /* \"contracts/TimeFactory.sol\":5871:5897  address promiseStableToken */\n      0x00\n        /* \"contracts/TimeFactory.sol\":5898:5907  _tradeMes */\n      0x02\n        /* \"contracts/TimeFactory.sol\":5898:5912  _tradeMes[_id] */\n      0x00\n        /* \"contracts/TimeFactory.sol\":5908:5911  _id */\n      dup6\n        /* \"contracts/TimeFactory.sol\":5898:5912  _tradeMes[_id] */\n      0xffffffffffffffff\n      and\n      0xffffffffffffffff\n      and\n      dup2\n      mstore\n      0x20\n      add\n      swap1\n      dup2\n      mstore\n      0x20\n      add\n      0x00\n      keccak256\n        /* \"contracts/TimeFactory.sol\":5898:5925  _tradeMes[_id].tokenAddress */\n      0x02\n      add\n      0x00\n      swap1\n      sload\n      swap1\n      0x0100\n      exp\n      swap1\n      div\n      0xffffffffffffffffffffffffffffffffffffffff\n      and\n        /* \"contracts/TimeFactory.sol\":5871:5925  address promiseStableToken=_tradeMes[_id].tokenAddress */\n      swap1\n      pop\n        /* \"contracts/TimeFactory.sol\":5936:5958  uint256 penalSumAmount */\n      0x00\n        /* \"contracts/TimeFactory.sol\":5959:6022  getPenal(_tradeMes[_id].buyPrice,_tradeMes[_id].buyTotalAmount) */\n      tag_74\n        /* \"contracts/TimeFactory.sol\":5968:5977  _tradeMes */\n      0x02\n        /* \"contracts/TimeFactory.sol\":5968:5982  _tradeMes[_id] */\n      0x00\n        /* \"contracts/TimeFactory.sol\":5978:5981  _id */\n      dup8\n        /* \"contracts/TimeFactory.sol\":5968:5982  _tradeMes[_id] */\n      0xffffffffffffffff\n      and\n      0xffffffffffffffff\n      and\n      dup2\n      mstore\n      0x20\n      add\n      swap1\n      dup2\n      mstore\n      0x20\n      add\n      0x00\n      keccak256\n        /* \"contracts/TimeFactory.sol\":5968:5991  _tradeMes[_id].buyPrice */\n      0x01\n      add\n      0x00\n      swap1\n      sload\n      swap1\n      0x0100\n      exp\n      swap1\n      div\n      0xffffffffffffffffffffffffffffffff\n      and\n        /* \"contracts/TimeFactory.sol\":5992:6001  _tradeMes */\n      0x02\n        /* \"contracts/TimeFactory.sol\":5992:6006  _tradeMes[_id] */\n      0x00\n        /* \"contracts/TimeFactory.sol\":6002:6005  _id */\n      dup9\n        /* \"contracts/TimeFactory.sol\":5992:6006  _tradeMes[_id] */\n      0xffffffffffffffff\n      and\n      0xffffffffffffffff\n      and\n      dup2\n      mstore\n      0x20\n      add\n      swap1\n      dup2\n      mstore\n      0x20\n      add\n      0x00\n      keccak256\n        /* \"contracts/TimeFactory.sol\":5992:6021  _tradeMes[_id].buyTotalAmount */\n      0x00\n      add\n      0x10\n      swap1\n      sload\n      swap1\n      0x0100\n      exp\n      swap1\n      div\n      0xffffffffffffffffffffffffffffffff\n      and\n        /* \"contracts/TimeFactory.sol\":5959:5967  getPenal */\n      tag_37\n        /* \"contracts/TimeFactory.sol\":5959:6022  getPenal(_tradeMes[_id].buyPrice,_tradeMes[_id].buyTotalAmount) */\n      jump\t// in\n    tag_74:\n        /* \"contracts/TimeFactory.sol\":5936:6022  uint256 penalSumAmount=getPenal(_tradeMes[_id].buyPrice,_tradeMes[_id].buyTotalAmount) */\n      swap1\n      pop\n        /* \"contracts/TimeFactory.sol\":6033:6044  uint256 fee */\n      0x00\n        /* \"contracts/TimeFactory.sol\":6045:6072  TimeFee.fee(penalSumAmount) */\n      tag_75\n        /* \"contracts/TimeFactory.sol\":6057:6071  penalSumAmount */\n      dup3\n        /* \"contracts/TimeFactory.sol\":6045:6056  TimeFee.fee */\n      tag_76\n        /* \"contracts/TimeFactory.sol\":6045:6072  TimeFee.fee(penalSumAmount) */\n      jump\t// in\n    tag_75:\n        /* \"contracts/TimeFactory.sol\":6033:6072  uint256 fee=TimeFee.fee(penalSumAmount) */\n      swap1\n      pop\n        /* \"contracts/TimeFactory.sol\":6101:6197  IERC20(promiseStableToken).safeTransfer(... */\n      tag_77\n        /* \"contracts/TimeFactory.sol\":6163:6167  this */\n      address\n        /* \"contracts/TimeFactory.sol\":6183:6186  fee */\n      dup3\n        /* \"contracts/TimeFactory.sol\":6108:6126  promiseStableToken */\n      dup6\n        /* \"contracts/TimeFactory.sol\":6101:6140  IERC20(promiseStableToken).safeTransfer */\n      0xffffffffffffffffffffffffffffffffffffffff\n      and\n      tag_78\n      swap1\n        /* \"contracts/TimeFactory.sol\":6101:6197  IERC20(promiseStableToken).safeTransfer(... */\n      swap3\n      swap2\n      swap1\n      0xffffffff\n      and\n      jump\t// in\n    tag_77:\n        /* \"contracts/TimeFactory.sol\":6253:6356  IERC20(promiseStableToken).safeTransfer(... */\n      tag_79\n        /* \"contracts/TimeFactory.sol\":6307:6312  buyer */\n      dup6\n        /* \"contracts/TimeFactory.sol\":6342:6345  fee */\n      dup3\n        /* \"contracts/TimeFactory.sol\":6327:6341  penalSumAmount */\n      dup5\n        /* \"contracts/TimeFactory.sol\":6327:6345  penalSumAmount-fee */\n      tag_80\n      swap2\n      swap1\n      tag_81\n      jump\t// in\n    tag_80:\n        /* \"contracts/TimeFactory.sol\":6260:6278  promiseStableToken */\n      dup6\n        /* \"contracts/TimeFactory.sol\":6253:6292  IERC20(promiseStableToken).safeTransfer */\n      0xffffffffffffffffffffffffffffffffffffffff\n      and\n      tag_78\n      swap1\n        /* \"contracts/TimeFactory.sol\":6253:6356  IERC20(promiseStableToken).safeTransfer(... */\n      swap3\n      swap2\n      swap1\n      0xffffffff\n      and\n      jump\t// in\n    tag_79:\n        /* \"contracts/TimeFactory.sol\":6400:6404  true */\n      0x01\n        /* \"contracts/TimeFactory.sol\":6367:6382  userIfWithdraw3 */\n      0x06\n        /* \"contracts/TimeFactory.sol\":6367:6394  userIfWithdraw3[msg.sender] */\n      0x00\n        /* \"contracts/TimeFactory.sol\":6383:6393  msg.sender */\n      caller\n        /* \"contracts/TimeFactory.sol\":6367:6394  userIfWithdraw3[msg.sender] */\n      0xffffffffffffffffffffffffffffffffffffffff\n      and\n      0xffffffffffffffffffffffffffffffffffffffff\n      and\n      dup2\n      mstore\n      0x20\n      add\n      swap1\n      dup2\n      mstore\n      0x20\n      add\n      0x00\n      keccak256\n        /* \"contracts/TimeFactory.sol\":6367:6399  userIfWithdraw3[msg.sender][_id] */\n      0x00\n        /* \"contracts/TimeFactory.sol\":6395:6398  _id */\n      dup9\n        /* \"contracts/TimeFactory.sol\":6367:6399  userIfWithdraw3[msg.sender][_id] */\n      0xffffffffffffffff\n      and\n      dup2\n      mstore\n      0x20\n      add\n      swap1\n      dup2\n      mstore\n      0x20\n      add\n      0x00\n      keccak256\n      0x00\n        /* \"contracts/TimeFactory.sol\":6367:6404  userIfWithdraw3[msg.sender][_id]=true */\n      0x0100\n      exp\n      dup2\n      sload\n      dup2\n      0xff\n      mul\n      not\n      and\n      swap1\n      dup4\n      iszero\n      iszero\n      mul\n      or\n      swap1\n      sstore\n      pop\n        /* \"contracts/TimeFactory.sol\":6447:6448  1 */\n      0x01\n        /* \"contracts/TimeFactory.sol\":6420:6429  _tradeMes */\n      0x02\n        /* \"contracts/TimeFactory.sol\":6420:6434  _tradeMes[_id] */\n      0x00\n        /* \"contracts/TimeFactory.sol\":6430:6433  _id */\n      dup9\n        /* \"contracts/TimeFactory.sol\":6420:6434  _tradeMes[_id] */\n      0xffffffffffffffff\n      and\n      0xffffffffffffffff\n      and\n      dup2\n      mstore\n      0x20\n      add\n      swap1\n      dup2\n      mstore\n      0x20\n      add\n      0x00\n      keccak256\n        /* \"contracts/TimeFactory.sol\":6420:6445  _tradeMes[_id].tradeState */\n      0x00\n      add\n      0x00\n      swap1\n      sload\n      swap1\n      0x0100\n      exp\n      swap1\n      div\n      0xff\n      and\n        /* \"contracts/TimeFactory.sol\":6420:6448  _tradeMes[_id].tradeState==1 */\n      0xff\n      and\n      sub\n        /* \"contracts/TimeFactory.sol\":6417:6810  if(_tradeMes[_id].tradeState==1){... */\n      tag_82\n      jumpi\n        /* \"contracts/TimeFactory.sol\":6506:6511  false */\n      0x00\n        /* \"contracts/TimeFactory.sol\":6472:6511  userIfWithdraw4[msg.sender][_id]==false */\n      iszero\n      iszero\n        /* \"contracts/TimeFactory.sol\":6472:6487  userIfWithdraw4 */\n      0x07\n        /* \"contracts/TimeFactory.sol\":6472:6499  userIfWithdraw4[msg.sender] */\n      0x00\n        /* \"contracts/TimeFactory.sol\":6488:6498  msg.sender */\n      caller\n        /* \"contracts/TimeFactory.sol\":6472:6499  userIfWithdraw4[msg.sender] */\n      0xffffffffffffffffffffffffffffffffffffffff\n      and\n      0xffffffffffffffffffffffffffffffffffffffff\n      and\n      dup2\n      mstore\n      0x20\n      add\n      swap1\n      dup2\n      mstore\n      0x20\n      add\n      0x00\n      keccak256\n        /* \"contracts/TimeFactory.sol\":6472:6504  userIfWithdraw4[msg.sender][_id] */\n      0x00\n        /* \"contracts/TimeFactory.sol\":6500:6503  _id */\n      dup9\n        /* \"contracts/TimeFactory.sol\":6472:6504  userIfWithdraw4[msg.sender][_id] */\n      0xffffffffffffffff\n      and\n      dup2\n      mstore\n      0x20\n      add\n      swap1\n      dup2\n      mstore\n      0x20\n      add\n      0x00\n      keccak256\n      0x00\n      swap1\n      sload\n      swap1\n      0x0100\n      exp\n      swap1\n      div\n      0xff\n      and\n        /* \"contracts/TimeFactory.sol\":6472:6511  userIfWithdraw4[msg.sender][_id]==false */\n      iszero\n      iszero\n      eq\n        /* \"contracts/TimeFactory.sol\":6464:6512  require(userIfWithdraw4[msg.sender][_id]==false) */\n      tag_83\n      jumpi\n      0x00\n      dup1\n      revert\n    tag_83:\n        /* \"contracts/TimeFactory.sol\":6527:6540  uint256 total */\n      0x00\n        /* \"contracts/TimeFactory.sol\":6565:6574  _tradeMes */\n      0x02\n        /* \"contracts/TimeFactory.sol\":6565:6579  _tradeMes[_id] */\n      0x00\n        /* \"contracts/TimeFactory.sol\":6575:6578  _id */\n      dup9\n        /* \"contracts/TimeFactory.sol\":6565:6579  _tradeMes[_id] */\n      0xffffffffffffffff\n      and\n      0xffffffffffffffff\n      and\n      dup2\n      mstore\n      0x20\n      add\n      swap1\n      dup2\n      mstore\n      0x20\n      add\n      0x00\n      keccak256\n        /* \"contracts/TimeFactory.sol\":6565:6594  _tradeMes[_id].buyTotalAmount */\n      0x00\n      add\n      0x10\n      swap1\n      sload\n      swap1\n      0x0100\n      exp\n      swap1\n      div\n      0xffffffffffffffffffffffffffffffff\n      and\n        /* \"contracts/TimeFactory.sol\":6541:6550  _tradeMes */\n      0x02\n        /* \"contracts/TimeFactory.sol\":6541:6555  _tradeMes[_id] */\n      0x00\n        /* \"contracts/TimeFactory.sol\":6551:6554  _id */\n      dup10\n        /* \"contracts/TimeFactory.sol\":6541:6555  _tradeMes[_id] */\n      0xffffffffffffffff\n      and\n      0xffffffffffffffff\n      and\n      dup2\n      mstore\n      0x20\n      add\n      swap1\n      dup2\n      mstore\n      0x20\n      add\n      0x00\n      keccak256\n        /* \"contracts/TimeFactory.sol\":6541:6564  _tradeMes[_id].buyPrice */\n      0x01\n      add\n      0x00\n      swap1\n      sload\n      swap1\n      0x0100\n      exp\n      swap1\n      div\n      0xffffffffffffffffffffffffffffffff\n      and\n        /* \"contracts/TimeFactory.sol\":6541:6594  _tradeMes[_id].buyPrice*_tradeMes[_id].buyTotalAmount */\n      tag_84\n      swap2\n      swap1\n      tag_85\n      jump\t// in\n    tag_84:\n        /* \"contracts/TimeFactory.sol\":6527:6594  uint256 total=_tradeMes[_id].buyPrice*_tradeMes[_id].buyTotalAmount */\n      0xffffffffffffffffffffffffffffffff\n      and\n      swap1\n      pop\n        /* \"contracts/TimeFactory.sol\":6636:6746  IERC20(promiseStableToken).safeTransfer(... */\n      tag_86\n        /* \"contracts/TimeFactory.sol\":6694:6707  getBuyer(_id) */\n      tag_87\n        /* \"contracts/TimeFactory.sol\":6703:6706  _id */\n      dup9\n        /* \"contracts/TimeFactory.sol\":6694:6702  getBuyer */\n      tag_68\n        /* \"contracts/TimeFactory.sol\":6694:6707  getBuyer(_id) */\n      jump\t// in\n    tag_87:\n        /* \"contracts/TimeFactory.sol\":6726:6731  total */\n      dup3\n        /* \"contracts/TimeFactory.sol\":6643:6661  promiseStableToken */\n      dup7\n        /* \"contracts/TimeFactory.sol\":6636:6675  IERC20(promiseStableToken).safeTransfer */\n      0xffffffffffffffffffffffffffffffffffffffff\n      and\n      tag_78\n      swap1\n        /* \"contracts/TimeFactory.sol\":6636:6746  IERC20(promiseStableToken).safeTransfer(... */\n      swap3\n      swap2\n      swap1\n      0xffffffff\n      and\n      jump\t// in\n    tag_86:\n        /* \"contracts/TimeFactory.sol\":6794:6798  true */\n      0x01\n        /* \"contracts/TimeFactory.sol\":6761:6776  userIfWithdraw4 */\n      0x07\n        /* \"contracts/TimeFactory.sol\":6761:6788  userIfWithdraw4[msg.sender] */\n      0x00\n        /* \"contracts/TimeFactory.sol\":6777:6787  msg.sender */\n      caller\n        /* \"contracts/TimeFactory.sol\":6761:6788  userIfWithdraw4[msg.sender] */\n      0xffffffffffffffffffffffffffffffffffffffff\n      and\n      0xffffffffffffffffffffffffffffffffffffffff\n      and\n      dup2\n      mstore\n      0x20\n      add\n      swap1\n      dup2\n      mstore\n      0x20\n      add\n      0x00\n      keccak256\n        /* \"contracts/TimeFactory.sol\":6761:6793  userIfWithdraw4[msg.sender][_id] */\n      0x00\n        /* \"contracts/TimeFactory.sol\":6789:6792  _id */\n      dup10\n        /* \"contracts/TimeFactory.sol\":6761:6793  userIfWithdraw4[msg.sender][_id] */\n      0xffffffffffffffff\n      and\n      dup2\n      mstore\n      0x20\n      add\n      swap1\n      dup2\n      mstore\n      0x20\n      add\n      0x00\n      keccak256\n      0x00\n        /* \"contracts/TimeFactory.sol\":6761:6798  userIfWithdraw4[msg.sender][_id]=true */\n      0x0100\n      exp\n      dup2\n      sload\n      dup2\n      0xff\n      mul\n      not\n      and\n      swap1\n      dup4\n      iszero\n      iszero\n      mul\n      or\n      swap1\n      sstore\n      pop\n        /* \"contracts/TimeFactory.sol\":6449:6810  {... */\n      pop\n        /* \"contracts/TimeFactory.sol\":6417:6810  if(_tradeMes[_id].tradeState==1){... */\n    tag_82:\n        /* \"contracts/TimeFactory.sol\":6846:6847  5 */\n      0x05\n        /* \"contracts/TimeFactory.sol\":6820:6829  _tradeMes */\n      0x02\n        /* \"contracts/TimeFactory.sol\":6820:6834  _tradeMes[_id] */\n      0x00\n        /* \"contracts/TimeFactory.sol\":6830:6833  _id */\n      dup9\n        /* \"contracts/TimeFactory.sol\":6820:6834  _tradeMes[_id] */\n      0xffffffffffffffff\n      and\n      0xffffffffffffffff\n      and\n      dup2\n      mstore\n      0x20\n      add\n      swap1\n      dup2\n      mstore\n      0x20\n      add\n      0x00\n      keccak256\n        /* \"contracts/TimeFactory.sol\":6820:6845  _tradeMes[_id].tradeState */\n      0x00\n      add\n      0x00\n        /* \"contracts/TimeFactory.sol\":6820:6847  _tradeMes[_id].tradeState=5 */\n      0x0100\n      exp\n      dup2\n      sload\n      dup2\n      0xff\n      mul\n      not\n      and\n      swap1\n      dup4\n      0xff\n      and\n      mul\n      or\n      swap1\n      sstore\n      pop\n        /* \"contracts/TimeFactory.sol\":5470:6855  {... */\n      pop\n      pop\n      pop\n      pop\n      pop\n        /* \"contracts/TimeFactory.sol\":5422:6855  function buyerWithdrawRefund(uint64 _id)external{... */\n      pop\n      jump\t// out\n        /* \"contracts/TimeFactory.sol\":847:911  mapping(address => mapping(uint256=>bool))public userIfWithdraw1 */\n    tag_25:\n      mstore(0x20, 0x04)\n      dup2\n      0x00\n      mstore\n      mstore(0x20, keccak256(0x00, 0x40))\n      dup1\n      0x00\n      mstore\n      keccak256(0x00, 0x40)\n      0x00\n      swap2\n      pop\n      swap2\n      pop\n      swap1\n      sload\n      swap1\n      0x0100\n      exp\n      swap1\n      div\n      0xff\n      and\n      dup2\n      jump\t// out\n        /* \"contracts/TimeFactory.sol\":2059:2641  function Sale(uint64 _id) external {... */\n    tag_30:\n        /* \"contracts/TimeFactory.sol\":2105:2132  tradeMes memory maxTradeMes */\n      0x00\n        /* \"contracts/TimeFactory.sol\":2133:2142  _tradeMes */\n      0x02\n        /* \"contracts/TimeFactory.sol\":2133:2147  _tradeMes[_id] */\n      0x00\n        /* \"contracts/TimeFactory.sol\":2143:2146  _id */\n      dup4\n        /* \"contracts/TimeFactory.sol\":2133:2147  _tradeMes[_id] */\n      0xffffffffffffffff\n      and\n      0xffffffffffffffff\n      and\n      dup2\n      mstore\n      0x20\n      add\n      swap1\n      dup2\n      mstore\n      0x20\n      add\n      0x00\n      keccak256\n        /* \"contracts/TimeFactory.sol\":2105:2147  tradeMes memory maxTradeMes=_tradeMes[_id] */\n      mload(0x40)\n      dup1\n      0x0100\n      add\n      0x40\n      mstore\n      swap1\n      dup2\n      0x00\n      dup3\n      add\n      0x00\n      swap1\n      sload\n      swap1\n      0x0100\n      exp\n      swap1\n      div\n      0xff\n      and\n      0xff\n      and\n      0xff\n      and\n      dup2\n      mstore\n      0x20\n      add\n      0x00\n      dup3\n      add\n      0x01\n      swap1\n      sload\n      swap1\n      0x0100\n      exp\n      swap1\n      div\n      0xffffffffffffffff\n      and\n      0xffffffffffffffff\n      and\n      0xffffffffffffffff\n      and\n      dup2\n      mstore\n      0x20\n      add\n      0x00\n      dup3\n      add\n      0x09\n      swap1\n      sload\n      swap1\n      0x0100\n      exp\n      swap1\n      div\n      0xffffffffffffff\n      and\n      0xffffffffffffff\n      and\n      0xffffffffffffff\n      and\n      dup2\n      mstore\n      0x20\n      add\n      0x00\n      dup3\n      add\n      0x10\n      swap1\n      sload\n      swap1\n      0x0100\n      exp\n      swap1\n      div\n      0xffffffffffffffffffffffffffffffff\n      and\n      0xffffffffffffffffffffffffffffffff\n      and\n      0xffffffffffffffffffffffffffffffff\n      and\n      dup2\n      mstore\n      0x20\n      add\n      0x01\n      dup3\n      add\n      0x00\n      swap1\n      sload\n      swap1\n      0x0100\n      exp\n      swap1\n      div\n      0xffffffffffffffffffffffffffffffff\n      and\n      0xffffffffffffffffffffffffffffffff\n      and\n      0xffffffffffffffffffffffffffffffff\n      and\n      dup2\n      mstore\n      0x20\n      add\n      0x02\n      dup3\n      add\n      0x00\n      swap1\n      sload\n      swap1\n      0x0100\n      exp\n      swap1\n      div\n      0xffffffffffffffffffffffffffffffffffffffff\n      and\n      0xffffffffffffffffffffffffffffffffffffffff\n      and\n      0xffffffffffffffffffffffffffffffffffffffff\n      and\n      dup2\n      mstore\n      0x20\n      add\n      0x03\n      dup3\n      add\n      0x00\n      swap1\n      sload\n      swap1\n      0x0100\n      exp\n      swap1\n      div\n      0xffffffffffffffffffffffffffffffffffffffff\n      and\n      0xffffffffffffffffffffffffffffffffffffffff\n      and\n      0xffffffffffffffffffffffffffffffffffffffff\n      and\n      dup2\n      mstore\n      0x20\n      add\n      0x04\n      dup3\n      add\n      0x00\n      swap1\n      sload\n      swap1\n      0x0100\n      exp\n      swap1\n      div\n      0xffffffffffffffffffffffffffffffffffffffff\n      and\n      0xffffffffffffffffffffffffffffffffffffffff\n      and\n      0xffffffffffffffffffffffffffffffffffffffff\n      and\n      dup2\n      mstore\n      pop\n      pop\n      swap1\n      pop\n        /* \"contracts/TimeFactory.sol\":2190:2191  1 */\n      0x01\n        /* \"contracts/TimeFactory.sol\":2166:2177  maxTradeMes */\n      dup2\n        /* \"contracts/TimeFactory.sol\":2166:2188  maxTradeMes.tradeState */\n      0x00\n      add\n      mload\n        /* \"contracts/TimeFactory.sol\":2166:2191  maxTradeMes.tradeState==1 */\n      0xff\n      and\n      eq\n        /* \"contracts/TimeFactory.sol\":2158:2192  require(maxTradeMes.tradeState==1) */\n      tag_89\n      jumpi\n      0x00\n      dup1\n      revert\n    tag_89:\n        /* \"contracts/TimeFactory.sol\":2233:2259  address promiseStableToken */\n      0x00\n        /* \"contracts/TimeFactory.sol\":2260:2271  maxTradeMes */\n      dup2\n        /* \"contracts/TimeFactory.sol\":2260:2284  maxTradeMes.tokenAddress */\n      0xa0\n      add\n      mload\n        /* \"contracts/TimeFactory.sol\":2233:2284  address promiseStableToken=maxTradeMes.tokenAddress */\n      swap1\n      pop\n        /* \"contracts/TimeFactory.sol\":2322:2502  IERC20(promiseStableToken).safeTransferFrom(... */\n      tag_90\n        /* \"contracts/TimeFactory.sol\":2380:2390  msg.sender */\n      caller\n        /* \"contracts/TimeFactory.sol\":2413:2417  this */\n      address\n        /* \"contracts/TimeFactory.sol\":2433:2491  getPenal(maxTradeMes.buyPrice, maxTradeMes.buyTotalAmount) */\n      tag_91\n        /* \"contracts/TimeFactory.sol\":2442:2453  maxTradeMes */\n      dup6\n        /* \"contracts/TimeFactory.sol\":2442:2462  maxTradeMes.buyPrice */\n      0x80\n      add\n      mload\n        /* \"contracts/TimeFactory.sol\":2464:2475  maxTradeMes */\n      dup7\n        /* \"contracts/TimeFactory.sol\":2464:2490  maxTradeMes.buyTotalAmount */\n      0x60\n      add\n      mload\n        /* \"contracts/TimeFactory.sol\":2433:2441  getPenal */\n      tag_37\n        /* \"contracts/TimeFactory.sol\":2433:2491  getPenal(maxTradeMes.buyPrice, maxTradeMes.buyTotalAmount) */\n      jump\t// in\n    tag_91:\n        /* \"contracts/TimeFactory.sol\":2329:2347  promiseStableToken */\n      dup5\n        /* \"contracts/TimeFactory.sol\":2322:2365  IERC20(promiseStableToken).safeTransferFrom */\n      0xffffffffffffffffffffffffffffffffffffffff\n      and\n      tag_65\n      swap1\n        /* \"contracts/TimeFactory.sol\":2322:2502  IERC20(promiseStableToken).safeTransferFrom(... */\n      swap4\n      swap3\n      swap2\n      swap1\n      0xffffffff\n      and\n      jump\t// in\n    tag_90:\n        /* \"contracts/TimeFactory.sol\":2542:2552  msg.sender */\n      caller\n        /* \"contracts/TimeFactory.sol\":2513:2522  _tradeMes */\n      0x02\n        /* \"contracts/TimeFactory.sol\":2513:2527  _tradeMes[_id] */\n      0x00\n        /* \"contracts/TimeFactory.sol\":2523:2526  _id */\n      dup6\n        /* \"contracts/TimeFactory.sol\":2513:2527  _tradeMes[_id] */\n      0xffffffffffffffff\n      and\n      0xffffffffffffffff\n      and\n      dup2\n      mstore\n      0x20\n      add\n      swap1\n      dup2\n      mstore\n      0x20\n      add\n      0x00\n      keccak256\n        /* \"contracts/TimeFactory.sol\":2513:2541  _tradeMes[_id].solderAddress */\n      0x04\n      add\n      0x00\n        /* \"contracts/TimeFactory.sol\":2513:2552  _tradeMes[_id].solderAddress=msg.sender */\n      0x0100\n      exp\n      dup2\n      sload\n      dup2\n      0xffffffffffffffffffffffffffffffffffffffff\n      mul\n      not\n      and\n      swap1\n      dup4\n      0xffffffffffffffffffffffffffffffffffffffff\n      and\n      mul\n      or\n      swap1\n      sstore\n      pop\n        /* \"contracts/TimeFactory.sol\":2632:2633  2 */\n      0x02\n        /* \"contracts/TimeFactory.sol\":2606:2615  _tradeMes */\n      dup1\n        /* \"contracts/TimeFactory.sol\":2606:2620  _tradeMes[_id] */\n      0x00\n        /* \"contracts/TimeFactory.sol\":2616:2619  _id */\n      dup6\n        /* \"contracts/TimeFactory.sol\":2606:2620  _tradeMes[_id] */\n      0xffffffffffffffff\n      and\n      0xffffffffffffffff\n      and\n      dup2\n      mstore\n      0x20\n      add\n      swap1\n      dup2\n      mstore\n      0x20\n      add\n      0x00\n      keccak256\n        /* \"contracts/TimeFactory.sol\":2606:2631  _tradeMes[_id].tradeState */\n      0x00\n      add\n      0x00\n        /* \"contracts/TimeFactory.sol\":2606:2633  _tradeMes[_id].tradeState=2 */\n      0x0100\n      exp\n      dup2\n      sload\n      dup2\n      0xff\n      mul\n      not\n      and\n      swap1\n      dup4\n      0xff\n      and\n      mul\n      or\n      swap1\n      sstore\n      pop\n        /* \"contracts/TimeFactory.sol\":2094:2641  {... */\n      pop\n      pop\n        /* \"contracts/TimeFactory.sol\":2059:2641  function Sale(uint64 _id) external {... */\n      pop\n      jump\t// out\n        /* \"contracts/TimeFactory.sol\":4198:5335  function solderWithdrawStable(uint64 _id)external{... */\n    tag_33:\n        /* \"contracts/TimeFactory.sol\":4258:4272  address solder */\n      0x00\n        /* \"contracts/TimeFactory.sol\":4273:4287  getSolder(_id) */\n      tag_93\n        /* \"contracts/TimeFactory.sol\":4283:4286  _id */\n      dup3\n        /* \"contracts/TimeFactory.sol\":4273:4282  getSolder */\n      tag_62\n        /* \"contracts/TimeFactory.sol\":4273:4287  getSolder(_id) */\n      jump\t// in\n    tag_93:\n        /* \"contracts/TimeFactory.sol\":4258:4287  address solder=getSolder(_id) */\n      swap1\n      pop\n        /* \"contracts/TimeFactory.sol\":4351:4357  solder */\n      dup1\n        /* \"contracts/TimeFactory.sol\":4339:4357  msg.sender==solder */\n      0xffffffffffffffffffffffffffffffffffffffff\n      and\n        /* \"contracts/TimeFactory.sol\":4339:4349  msg.sender */\n      caller\n        /* \"contracts/TimeFactory.sol\":4339:4357  msg.sender==solder */\n      0xffffffffffffffffffffffffffffffffffffffff\n      and\n      eq\n        /* \"contracts/TimeFactory.sol\":4331:4358  require(msg.sender==solder) */\n      tag_94\n      jumpi\n      0x00\n      dup1\n      revert\n    tag_94:\n        /* \"contracts/TimeFactory.sol\":4440:4448  ifInject */\n      0x03\n        /* \"contracts/TimeFactory.sol\":4440:4456  ifInject[solder] */\n      0x00\n        /* \"contracts/TimeFactory.sol\":4449:4455  solder */\n      dup3\n        /* \"contracts/TimeFactory.sol\":4440:4456  ifInject[solder] */\n      0xffffffffffffffffffffffffffffffffffffffff\n      and\n      0xffffffffffffffffffffffffffffffffffffffff\n      and\n      dup2\n      mstore\n      0x20\n      add\n      swap1\n      dup2\n      mstore\n      0x20\n      add\n      0x00\n      keccak256\n        /* \"contracts/TimeFactory.sol\":4440:4461  ifInject[solder][_id] */\n      0x00\n        /* \"contracts/TimeFactory.sol\":4457:4460  _id */\n      dup4\n        /* \"contracts/TimeFactory.sol\":4440:4461  ifInject[solder][_id] */\n      0xffffffffffffffff\n      and\n      dup2\n      mstore\n      0x20\n      add\n      swap1\n      dup2\n      mstore\n      0x20\n      add\n      0x00\n      keccak256\n      0x00\n      swap1\n      sload\n      swap1\n      0x0100\n      exp\n      swap1\n      div\n      0xff\n      and\n        /* \"contracts/TimeFactory.sol\":4432:4462  require(ifInject[solder][_id]) */\n      tag_95\n      jumpi\n      0x00\n      dup1\n      revert\n    tag_95:\n        /* \"contracts/TimeFactory.sol\":4548:4553  false */\n      0x00\n        /* \"contracts/TimeFactory.sol\":4514:4553  userIfWithdraw2[msg.sender][_id]==false */\n      iszero\n      iszero\n        /* \"contracts/TimeFactory.sol\":4514:4529  userIfWithdraw2 */\n      0x05\n        /* \"contracts/TimeFactory.sol\":4514:4541  userIfWithdraw2[msg.sender] */\n      0x00\n        /* \"contracts/TimeFactory.sol\":4530:4540  msg.sender */\n      caller\n        /* \"contracts/TimeFactory.sol\":4514:4541  userIfWithdraw2[msg.sender] */\n      0xffffffffffffffffffffffffffffffffffffffff\n      and\n      0xffffffffffffffffffffffffffffffffffffffff\n      and\n      dup2\n      mstore\n      0x20\n      add\n      swap1\n      dup2\n      mstore\n      0x20\n      add\n      0x00\n      keccak256\n        /* \"contracts/TimeFactory.sol\":4514:4546  userIfWithdraw2[msg.sender][_id] */\n      0x00\n        /* \"contracts/TimeFactory.sol\":4542:4545  _id */\n      dup5\n        /* \"contracts/TimeFactory.sol\":4514:4546  userIfWithdraw2[msg.sender][_id] */\n      0xffffffffffffffff\n      and\n      dup2\n      mstore\n      0x20\n      add\n      swap1\n      dup2\n      mstore\n      0x20\n      add\n      0x00\n      keccak256\n      0x00\n      swap1\n      sload\n      swap1\n      0x0100\n      exp\n      swap1\n      div\n      0xff\n      and\n        /* \"contracts/TimeFactory.sol\":4514:4553  userIfWithdraw2[msg.sender][_id]==false */\n      iszero\n      iszero\n      eq\n        /* \"contracts/TimeFactory.sol\":4506:4554  require(userIfWithdraw2[msg.sender][_id]==false) */\n      tag_96\n      jumpi\n      0x00\n      dup1\n      revert\n    tag_96:\n        /* \"contracts/TimeFactory.sol\":4565:4591  address promiseStableToken */\n      0x00\n        /* \"contracts/TimeFactory.sol\":4592:4601  _tradeMes */\n      0x02\n        /* \"contracts/TimeFactory.sol\":4592:4606  _tradeMes[_id] */\n      0x00\n        /* \"contracts/TimeFactory.sol\":4602:4605  _id */\n      dup5\n        /* \"contracts/TimeFactory.sol\":4592:4606  _tradeMes[_id] */\n      0xffffffffffffffff\n      and\n      0xffffffffffffffff\n      and\n      dup2\n      mstore\n      0x20\n      add\n      swap1\n      dup2\n      mstore\n      0x20\n      add\n      0x00\n      keccak256\n        /* \"contracts/TimeFactory.sol\":4592:4619  _tradeMes[_id].tokenAddress */\n      0x02\n      add\n      0x00\n      swap1\n      sload\n      swap1\n      0x0100\n      exp\n      swap1\n      div\n      0xffffffffffffffffffffffffffffffffffffffff\n      and\n        /* \"contracts/TimeFactory.sol\":4565:4619  address promiseStableToken=_tradeMes[_id].tokenAddress */\n      swap1\n      pop\n        /* \"contracts/TimeFactory.sol\":4630:4643  uint256 total */\n      0x00\n        /* \"contracts/TimeFactory.sol\":4668:4677  _tradeMes */\n      0x02\n        /* \"contracts/TimeFactory.sol\":4668:4682  _tradeMes[_id] */\n      0x00\n        /* \"contracts/TimeFactory.sol\":4678:4681  _id */\n      dup6\n        /* \"contracts/TimeFactory.sol\":4668:4682  _tradeMes[_id] */\n      0xffffffffffffffff\n      and\n      0xffffffffffffffff\n      and\n      dup2\n      mstore\n      0x20\n      add\n      swap1\n      dup2\n      mstore\n      0x20\n      add\n      0x00\n      keccak256\n        /* \"contracts/TimeFactory.sol\":4668:4697  _tradeMes[_id].buyTotalAmount */\n      0x00\n      add\n      0x10\n      swap1\n      sload\n      swap1\n      0x0100\n      exp\n      swap1\n      div\n      0xffffffffffffffffffffffffffffffff\n      and\n        /* \"contracts/TimeFactory.sol\":4644:4653  _tradeMes */\n      0x02\n        /* \"contracts/TimeFactory.sol\":4644:4658  _tradeMes[_id] */\n      0x00\n        /* \"contracts/TimeFactory.sol\":4654:4657  _id */\n      dup7\n        /* \"contracts/TimeFactory.sol\":4644:4658  _tradeMes[_id] */\n      0xffffffffffffffff\n      and\n      0xffffffffffffffff\n      and\n      dup2\n      mstore\n      0x20\n      add\n      swap1\n      dup2\n      mstore\n      0x20\n      add\n      0x00\n      keccak256\n        /* \"contracts/TimeFactory.sol\":4644:4667  _tradeMes[_id].buyPrice */\n      0x01\n      add\n      0x00\n      swap1\n      sload\n      swap1\n      0x0100\n      exp\n      swap1\n      div\n      0xffffffffffffffffffffffffffffffff\n      and\n        /* \"contracts/TimeFactory.sol\":4644:4697  _tradeMes[_id].buyPrice*_tradeMes[_id].buyTotalAmount */\n      tag_97\n      swap2\n      swap1\n      tag_85\n      jump\t// in\n    tag_97:\n        /* \"contracts/TimeFactory.sol\":4630:4697  uint256 total=_tradeMes[_id].buyPrice*_tradeMes[_id].buyTotalAmount */\n      0xffffffffffffffffffffffffffffffff\n      and\n      swap1\n      pop\n        /* \"contracts/TimeFactory.sol\":4708:4730  uint256 penalSumAmount */\n      0x00\n        /* \"contracts/TimeFactory.sol\":4731:4794  getPenal(_tradeMes[_id].buyPrice,_tradeMes[_id].buyTotalAmount) */\n      tag_98\n        /* \"contracts/TimeFactory.sol\":4740:4749  _tradeMes */\n      0x02\n        /* \"contracts/TimeFactory.sol\":4740:4754  _tradeMes[_id] */\n      0x00\n        /* \"contracts/TimeFactory.sol\":4750:4753  _id */\n      dup8\n        /* \"contracts/TimeFactory.sol\":4740:4754  _tradeMes[_id] */\n      0xffffffffffffffff\n      and\n      0xffffffffffffffff\n      and\n      dup2\n      mstore\n      0x20\n      add\n      swap1\n      dup2\n      mstore\n      0x20\n      add\n      0x00\n      keccak256\n        /* \"contracts/TimeFactory.sol\":4740:4763  _tradeMes[_id].buyPrice */\n      0x01\n      add\n      0x00\n      swap1\n      sload\n      swap1\n      0x0100\n      exp\n      swap1\n      div\n      0xffffffffffffffffffffffffffffffff\n      and\n        /* \"contracts/TimeFactory.sol\":4764:4773  _tradeMes */\n      0x02\n        /* \"contracts/TimeFactory.sol\":4764:4778  _tradeMes[_id] */\n      0x00\n        /* \"contracts/TimeFactory.sol\":4774:4777  _id */\n      dup9\n        /* \"contracts/TimeFactory.sol\":4764:4778  _tradeMes[_id] */\n      0xffffffffffffffff\n      and\n      0xffffffffffffffff\n      and\n      dup2\n      mstore\n      0x20\n      add\n      swap1\n      dup2\n      mstore\n      0x20\n      add\n      0x00\n      keccak256\n        /* \"contracts/TimeFactory.sol\":4764:4793  _tradeMes[_id].buyTotalAmount */\n      0x00\n      add\n      0x10\n      swap1\n      sload\n      swap1\n      0x0100\n      exp\n      swap1\n      div\n      0xffffffffffffffffffffffffffffffff\n      and\n        /* \"contracts/TimeFactory.sol\":4731:4739  getPenal */\n      tag_37\n        /* \"contracts/TimeFactory.sol\":4731:4794  getPenal(_tradeMes[_id].buyPrice,_tradeMes[_id].buyTotalAmount) */\n      jump\t// in\n    tag_98:\n        /* \"contracts/TimeFactory.sol\":4708:4794  uint256 penalSumAmount=getPenal(_tradeMes[_id].buyPrice,_tradeMes[_id].buyTotalAmount) */\n      swap1\n      pop\n        /* \"contracts/TimeFactory.sol\":4805:4816  uint256 fee */\n      0x00\n        /* \"contracts/TimeFactory.sol\":4817:4835  TimeFee.fee(total) */\n      tag_99\n        /* \"contracts/TimeFactory.sol\":4829:4834  total */\n      dup4\n        /* \"contracts/TimeFactory.sol\":4817:4828  TimeFee.fee */\n      tag_76\n        /* \"contracts/TimeFactory.sol\":4817:4835  TimeFee.fee(total) */\n      jump\t// in\n    tag_99:\n        /* \"contracts/TimeFactory.sol\":4805:4835  uint256 fee=TimeFee.fee(total) */\n      swap1\n      pop\n        /* \"contracts/TimeFactory.sol\":4888:4946  IERC20(promiseStableToken).safeTransfer(address(this),fee) */\n      tag_100\n        /* \"contracts/TimeFactory.sol\":4936:4940  this */\n      address\n        /* \"contracts/TimeFactory.sol\":4942:4945  fee */\n      dup3\n        /* \"contracts/TimeFactory.sol\":4895:4913  promiseStableToken */\n      dup7\n        /* \"contracts/TimeFactory.sol\":4888:4927  IERC20(promiseStableToken).safeTransfer */\n      0xffffffffffffffffffffffffffffffffffffffff\n      and\n      tag_78\n      swap1\n        /* \"contracts/TimeFactory.sol\":4888:4946  IERC20(promiseStableToken).safeTransfer(address(this),fee) */\n      swap3\n      swap2\n      swap1\n      0xffffffff\n      and\n      jump\t// in\n    tag_100:\n        /* \"contracts/TimeFactory.sol\":4987:5082  IERC20(promiseStableToken).safeTransfer(... */\n      tag_101\n        /* \"contracts/TimeFactory.sol\":5041:5047  solder */\n      dup6\n        /* \"contracts/TimeFactory.sol\":5068:5071  fee */\n      dup3\n        /* \"contracts/TimeFactory.sol\":5062:5067  total */\n      dup6\n        /* \"contracts/TimeFactory.sol\":5062:5071  total-fee */\n      tag_102\n      swap2\n      swap1\n      tag_81\n      jump\t// in\n    tag_102:\n        /* \"contracts/TimeFactory.sol\":4994:5012  promiseStableToken */\n      dup7\n        /* \"contracts/TimeFactory.sol\":4987:5026  IERC20(promiseStableToken).safeTransfer */\n      0xffffffffffffffffffffffffffffffffffffffff\n      and\n      tag_78\n      swap1\n        /* \"contracts/TimeFactory.sol\":4987:5082  IERC20(promiseStableToken).safeTransfer(... */\n      swap3\n      swap2\n      swap1\n      0xffffffff\n      and\n      jump\t// in\n    tag_101:\n        /* \"contracts/TimeFactory.sol\":5141:5241  IERC20(promiseStableToken).safeTransfer(... */\n      tag_103\n        /* \"contracts/TimeFactory.sol\":5195:5201  solder */\n      dup6\n        /* \"contracts/TimeFactory.sol\":5216:5230  penalSumAmount */\n      dup4\n        /* \"contracts/TimeFactory.sol\":5148:5166  promiseStableToken */\n      dup7\n        /* \"contracts/TimeFactory.sol\":5141:5180  IERC20(promiseStableToken).safeTransfer */\n      0xffffffffffffffffffffffffffffffffffffffff\n      and\n      tag_78\n      swap1\n        /* \"contracts/TimeFactory.sol\":5141:5241  IERC20(promiseStableToken).safeTransfer(... */\n      swap3\n      swap2\n      swap1\n      0xffffffff\n      and\n      jump\t// in\n    tag_103:\n        /* \"contracts/TimeFactory.sol\":5322:5326  true */\n      0x01\n        /* \"contracts/TimeFactory.sol\":5289:5304  userIfWithdraw2 */\n      0x05\n        /* \"contracts/TimeFactory.sol\":5289:5316  userIfWithdraw2[msg.sender] */\n      0x00\n        /* \"contracts/TimeFactory.sol\":5305:5315  msg.sender */\n      caller\n        /* \"contracts/TimeFactory.sol\":5289:5316  userIfWithdraw2[msg.sender] */\n      0xffffffffffffffffffffffffffffffffffffffff\n      and\n      0xffffffffffffffffffffffffffffffffffffffff\n      and\n      dup2\n      mstore\n      0x20\n      add\n      swap1\n      dup2\n      mstore\n      0x20\n      add\n      0x00\n      keccak256\n        /* \"contracts/TimeFactory.sol\":5289:5321  userIfWithdraw2[msg.sender][_id] */\n      0x00\n        /* \"contracts/TimeFactory.sol\":5317:5320  _id */\n      dup9\n        /* \"contracts/TimeFactory.sol\":5289:5321  userIfWithdraw2[msg.sender][_id] */\n      0xffffffffffffffff\n      and\n      dup2\n      mstore\n      0x20\n      add\n      swap1\n      dup2\n      mstore\n      0x20\n      add\n      0x00\n      keccak256\n      0x00\n        /* \"contracts/TimeFactory.sol\":5289:5326  userIfWithdraw2[msg.sender][_id]=true */\n      0x0100\n      exp\n      dup2\n      sload\n      dup2\n      0xff\n      mul\n      not\n      and\n      swap1\n      dup4\n      iszero\n      iszero\n      mul\n      or\n      swap1\n      sstore\n      pop\n        /* \"contracts/TimeFactory.sol\":4247:5335  {... */\n      pop\n      pop\n      pop\n      pop\n      pop\n        /* \"contracts/TimeFactory.sol\":4198:5335  function solderWithdrawStable(uint64 _id)external{... */\n      pop\n      jump\t// out\n        /* \"contracts/TimeFactory.sol\":7248:7791  function getPenal(uint128 _soldPrice, uint128 _soldAmount)public pure returns (uint256){... */\n    tag_37:\n        /* \"contracts/TimeFactory.sol\":7327:7334  uint256 */\n      0x00\n        /* \"contracts/TimeFactory.sol\":7346:7364  uint256 thisAmount */\n      dup1\n        /* \"contracts/TimeFactory.sol\":7378:7389  _soldAmount */\n      dup3\n        /* \"contracts/TimeFactory.sol\":7367:7377  _soldPrice */\n      dup5\n        /* \"contracts/TimeFactory.sol\":7367:7389  _soldPrice*_soldAmount */\n      tag_105\n      swap2\n      swap1\n      tag_85\n      jump\t// in\n    tag_105:\n        /* \"contracts/TimeFactory.sol\":7346:7389  uint256 thisAmount = _soldPrice*_soldAmount */\n      0xffffffffffffffffffffffffffffffff\n      and\n      swap1\n      pop\n        /* \"contracts/TimeFactory.sol\":7418:7427  100 ether */\n      0x056bc75e2d63100000\n        /* \"contracts/TimeFactory.sol\":7404:7414  thisAmount */\n      dup2\n        /* \"contracts/TimeFactory.sol\":7404:7427  thisAmount >= 100 ether */\n      lt\n      iszero\n        /* \"contracts/TimeFactory.sol\":7404:7454  thisAmount >= 100 ether && thisAmount < 1000 ether */\n      dup1\n      iszero\n      tag_106\n      jumpi\n      pop\n        /* \"contracts/TimeFactory.sol\":7444:7454  1000 ether */\n      0x3635c9adc5dea00000\n        /* \"contracts/TimeFactory.sol\":7431:7441  thisAmount */\n      dup2\n        /* \"contracts/TimeFactory.sol\":7431:7454  thisAmount < 1000 ether */\n      lt\n        /* \"contracts/TimeFactory.sol\":7404:7454  thisAmount >= 100 ether && thisAmount < 1000 ether */\n    tag_106:\n        /* \"contracts/TimeFactory.sol\":7400:7784  if (thisAmount >= 100 ether && thisAmount < 1000 ether) {... */\n      iszero\n      tag_107\n      jumpi\n        /* \"contracts/TimeFactory.sol\":7498:7501  100 */\n      0x64\n        /* \"contracts/TimeFactory.sol\":7492:7494  50 */\n      0x32\n        /* \"contracts/TimeFactory.sol\":7479:7489  thisAmount */\n      dup3\n        /* \"contracts/TimeFactory.sol\":7479:7494  thisAmount * 50 */\n      tag_108\n      swap2\n      swap1\n      tag_109\n      jump\t// in\n    tag_108:\n        /* \"contracts/TimeFactory.sol\":7478:7501  (thisAmount * 50) / 100 */\n      tag_110\n      swap2\n      swap1\n      tag_111\n      jump\t// in\n    tag_110:\n        /* \"contracts/TimeFactory.sol\":7471:7501  return (thisAmount * 50) / 100 */\n      swap2\n      pop\n      pop\n      jump(tag_104)\n        /* \"contracts/TimeFactory.sol\":7400:7784  if (thisAmount >= 100 ether && thisAmount < 1000 ether) {... */\n    tag_107:\n        /* \"contracts/TimeFactory.sol\":7537:7547  1000 ether */\n      0x3635c9adc5dea00000\n        /* \"contracts/TimeFactory.sol\":7523:7533  thisAmount */\n      dup2\n        /* \"contracts/TimeFactory.sol\":7523:7547  thisAmount >= 1000 ether */\n      lt\n      iszero\n        /* \"contracts/TimeFactory.sol\":7523:7575  thisAmount >= 1000 ether && thisAmount < 10000 ether */\n      dup1\n      iszero\n      tag_113\n      jumpi\n      pop\n        /* \"contracts/TimeFactory.sol\":7564:7575  10000 ether */\n      0x021e19e0c9bab2400000\n        /* \"contracts/TimeFactory.sol\":7551:7561  thisAmount */\n      dup2\n        /* \"contracts/TimeFactory.sol\":7551:7575  thisAmount < 10000 ether */\n      lt\n        /* \"contracts/TimeFactory.sol\":7523:7575  thisAmount >= 1000 ether && thisAmount < 10000 ether */\n    tag_113:\n        /* \"contracts/TimeFactory.sol\":7519:7784  if (thisAmount >= 1000 ether && thisAmount < 10000 ether) {... */\n      iszero\n      tag_114\n      jumpi\n        /* \"contracts/TimeFactory.sol\":7619:7622  100 */\n      0x64\n        /* \"contracts/TimeFactory.sol\":7613:7615  40 */\n      0x28\n        /* \"contracts/TimeFactory.sol\":7600:7610  thisAmount */\n      dup3\n        /* \"contracts/TimeFactory.sol\":7600:7615  thisAmount * 40 */\n      tag_115\n      swap2\n      swap1\n      tag_109\n      jump\t// in\n    tag_115:\n        /* \"contracts/TimeFactory.sol\":7599:7622  (thisAmount * 40) / 100 */\n      tag_116\n      swap2\n      swap1\n      tag_111\n      jump\t// in\n    tag_116:\n        /* \"contracts/TimeFactory.sol\":7592:7622  return (thisAmount * 40) / 100 */\n      swap2\n      pop\n      pop\n      jump(tag_104)\n        /* \"contracts/TimeFactory.sol\":7519:7784  if (thisAmount >= 1000 ether && thisAmount < 10000 ether) {... */\n    tag_114:\n        /* \"contracts/TimeFactory.sol\":7657:7668  10000 ether */\n      0x021e19e0c9bab2400000\n        /* \"contracts/TimeFactory.sol\":7644:7654  thisAmount */\n      dup2\n        /* \"contracts/TimeFactory.sol\":7644:7668  thisAmount > 10000 ether */\n      gt\n        /* \"contracts/TimeFactory.sol\":7640:7784  if (thisAmount > 10000 ether) {... */\n      iszero\n      tag_118\n      jumpi\n        /* \"contracts/TimeFactory.sol\":7712:7715  100 */\n      0x64\n        /* \"contracts/TimeFactory.sol\":7706:7708  25 */\n      0x19\n        /* \"contracts/TimeFactory.sol\":7693:7703  thisAmount */\n      dup3\n        /* \"contracts/TimeFactory.sol\":7693:7708  thisAmount * 25 */\n      tag_119\n      swap2\n      swap1\n      tag_109\n      jump\t// in\n    tag_119:\n        /* \"contracts/TimeFactory.sol\":7692:7715  (thisAmount * 25) / 100 */\n      tag_120\n      swap2\n      swap1\n      tag_111\n      jump\t// in\n    tag_120:\n        /* \"contracts/TimeFactory.sol\":7685:7715  return (thisAmount * 25) / 100 */\n      swap2\n      pop\n      pop\n      jump(tag_104)\n        /* \"contracts/TimeFactory.sol\":7640:7784  if (thisAmount > 10000 ether) {... */\n    tag_118:\n        /* \"contracts/TimeFactory.sol\":7755:7772  NotEnoughAmount() */\n      mload(0x40)\n      0xe008b5f900000000000000000000000000000000000000000000000000000000\n      dup2\n      mstore\n      0x04\n      add\n      mload(0x40)\n      dup1\n      swap2\n      sub\n      swap1\n      revert\n        /* \"contracts/TimeFactory.sol\":7248:7791  function getPenal(uint128 _soldPrice, uint128 _soldAmount)public pure returns (uint256){... */\n    tag_104:\n      swap3\n      swap2\n      pop\n      pop\n      jump\t// out\n        /* \"contracts/TimeFactory.sol\":1095:1159  mapping(address => mapping(uint256=>bool))public userIfWithdraw3 */\n    tag_42:\n      mstore(0x20, 0x06)\n      dup2\n      0x00\n      mstore\n      mstore(0x20, keccak256(0x00, 0x40))\n      dup1\n      0x00\n      mstore\n      keccak256(0x00, 0x40)\n      0x00\n      swap2\n      pop\n      swap2\n      pop\n      swap1\n      sload\n      swap1\n      0x0100\n      exp\n      swap1\n      div\n      0xff\n      and\n      dup2\n      jump\t// out\n        /* \"contracts/TimeFactory.sol\":3385:4145  function buyerWithdrawAirdorp(uint64 _id)external{... */\n    tag_46:\n        /* \"contracts/TimeFactory.sol\":3445:3458  address buyer */\n      0x00\n        /* \"contracts/TimeFactory.sol\":3459:3472  getBuyer(_id) */\n      tag_123\n        /* \"contracts/TimeFactory.sol\":3468:3471  _id */\n      dup3\n        /* \"contracts/TimeFactory.sol\":3459:3467  getBuyer */\n      tag_68\n        /* \"contracts/TimeFactory.sol\":3459:3472  getBuyer(_id) */\n      jump\t// in\n    tag_123:\n        /* \"contracts/TimeFactory.sol\":3445:3472  address buyer=getBuyer(_id) */\n      swap1\n      pop\n        /* \"contracts/TimeFactory.sol\":3531:3536  buyer */\n      dup1\n        /* \"contracts/TimeFactory.sol\":3519:3536  msg.sender!=buyer */\n      0xffffffffffffffffffffffffffffffffffffffff\n      and\n        /* \"contracts/TimeFactory.sol\":3519:3529  msg.sender */\n      caller\n        /* \"contracts/TimeFactory.sol\":3519:3536  msg.sender!=buyer */\n      0xffffffffffffffffffffffffffffffffffffffff\n      and\n      eq\n        /* \"contracts/TimeFactory.sol\":3516:3557  if(msg.sender!=buyer){revert NotBuyer();} */\n      tag_124\n      jumpi\n        /* \"contracts/TimeFactory.sol\":3545:3555  NotBuyer() */\n      mload(0x40)\n      0x472e017e00000000000000000000000000000000000000000000000000000000\n      dup2\n      mstore\n      0x04\n      add\n      mload(0x40)\n      dup1\n      swap2\n      sub\n      swap1\n      revert\n        /* \"contracts/TimeFactory.sol\":3516:3557  if(msg.sender!=buyer){revert NotBuyer();} */\n    tag_124:\n        /* \"contracts/TimeFactory.sol\":3660:3661  3 */\n      0x03\n        /* \"contracts/TimeFactory.sol\":3633:3642  _tradeMes */\n      0x02\n        /* \"contracts/TimeFactory.sol\":3633:3647  _tradeMes[_id] */\n      0x00\n        /* \"contracts/TimeFactory.sol\":3643:3646  _id */\n      dup5\n        /* \"contracts/TimeFactory.sol\":3633:3647  _tradeMes[_id] */\n      0xffffffffffffffff\n      and\n      0xffffffffffffffff\n      and\n      dup2\n      mstore\n      0x20\n      add\n      swap1\n      dup2\n      mstore\n      0x20\n      add\n      0x00\n      keccak256\n        /* \"contracts/TimeFactory.sol\":3633:3658  _tradeMes[_id].tradeState */\n      0x00\n      add\n      0x00\n      swap1\n      sload\n      swap1\n      0x0100\n      exp\n      swap1\n      div\n      0xff\n      and\n        /* \"contracts/TimeFactory.sol\":3633:3661  _tradeMes[_id].tradeState!=3 */\n      0xff\n      and\n      eq\n        /* \"contracts/TimeFactory.sol\":3630:3688  if(_tradeMes[_id].tradeState!=3){revert NotInjectToken();} */\n      tag_125\n      jumpi\n        /* \"contracts/TimeFactory.sol\":3670:3686  NotInjectToken() */\n      mload(0x40)\n      0xde4461cd00000000000000000000000000000000000000000000000000000000\n      dup2\n      mstore\n      0x04\n      add\n      mload(0x40)\n      dup1\n      swap2\n      sub\n      swap1\n      revert\n        /* \"contracts/TimeFactory.sol\":3630:3688  if(_tradeMes[_id].tradeState!=3){revert NotInjectToken();} */\n    tag_125:\n        /* \"contracts/TimeFactory.sol\":3699:3716  uint128 buyAmount */\n      0x00\n        /* \"contracts/TimeFactory.sol\":3717:3726  _tradeMes */\n      0x02\n        /* \"contracts/TimeFactory.sol\":3717:3731  _tradeMes[_id] */\n      0x00\n        /* \"contracts/TimeFactory.sol\":3727:3730  _id */\n      dup5\n        /* \"contracts/TimeFactory.sol\":3717:3731  _tradeMes[_id] */\n      0xffffffffffffffff\n      and\n      0xffffffffffffffff\n      and\n      dup2\n      mstore\n      0x20\n      add\n      swap1\n      dup2\n      mstore\n      0x20\n      add\n      0x00\n      keccak256\n        /* \"contracts/TimeFactory.sol\":3717:3746  _tradeMes[_id].buyTotalAmount */\n      0x00\n      add\n      0x10\n      swap1\n      sload\n      swap1\n      0x0100\n      exp\n      swap1\n      div\n      0xffffffffffffffffffffffffffffffff\n      and\n        /* \"contracts/TimeFactory.sol\":3699:3746  uint128 buyAmount=_tradeMes[_id].buyTotalAmount */\n      swap1\n      pop\n        /* \"contracts/TimeFactory.sol\":3757:3775  uint128 buyerPrice */\n      0x00\n        /* \"contracts/TimeFactory.sol\":3776:3785  _tradeMes */\n      0x02\n        /* \"contracts/TimeFactory.sol\":3776:3790  _tradeMes[_id] */\n      0x00\n        /* \"contracts/TimeFactory.sol\":3786:3789  _id */\n      dup6\n        /* \"contracts/TimeFactory.sol\":3776:3790  _tradeMes[_id] */\n      0xffffffffffffffff\n      and\n      0xffffffffffffffff\n      and\n      dup2\n      mstore\n      0x20\n      add\n      swap1\n      dup2\n      mstore\n      0x20\n      add\n      0x00\n      keccak256\n        /* \"contracts/TimeFactory.sol\":3776:3799  _tradeMes[_id].buyPrice */\n      0x01\n      add\n      0x00\n      swap1\n      sload\n      swap1\n      0x0100\n      exp\n      swap1\n      div\n      0xffffffffffffffffffffffffffffffff\n      and\n        /* \"contracts/TimeFactory.sol\":3757:3799  uint128 buyerPrice=_tradeMes[_id].buyPrice */\n      swap1\n      pop\n        /* \"contracts/TimeFactory.sol\":3854:3865  uint256 fee */\n      0x00\n        /* \"contracts/TimeFactory.sol\":3866:3899  TimeFee.fee(buyAmount*buyerPrice) */\n      tag_126\n        /* \"contracts/TimeFactory.sol\":3888:3898  buyerPrice */\n      dup3\n        /* \"contracts/TimeFactory.sol\":3878:3887  buyAmount */\n      dup5\n        /* \"contracts/TimeFactory.sol\":3878:3898  buyAmount*buyerPrice */\n      tag_127\n      swap2\n      swap1\n      tag_85\n      jump\t// in\n    tag_127:\n        /* \"contracts/TimeFactory.sol\":3866:3899  TimeFee.fee(buyAmount*buyerPrice) */\n      0xffffffffffffffffffffffffffffffff\n      and\n        /* \"contracts/TimeFactory.sol\":3866:3877  TimeFee.fee */\n      tag_76\n        /* \"contracts/TimeFactory.sol\":3866:3899  TimeFee.fee(buyAmount*buyerPrice) */\n      jump\t// in\n    tag_126:\n        /* \"contracts/TimeFactory.sol\":3854:3899  uint256 fee=TimeFee.fee(buyAmount*buyerPrice) */\n      swap1\n      pop\n        /* \"contracts/TimeFactory.sol\":3952:4004  IERC20(airdropToken).safeTransfer(address(this),fee) */\n      tag_128\n        /* \"contracts/TimeFactory.sol\":3994:3998  this */\n      address\n        /* \"contracts/TimeFactory.sol\":4000:4003  fee */\n      dup3\n        /* \"contracts/TimeFactory.sol\":3959:3971  airdropToken */\n      0x01\n      0x00\n      swap1\n      sload\n      swap1\n      0x0100\n      exp\n      swap1\n      div\n      0xffffffffffffffffffffffffffffffffffffffff\n      and\n        /* \"contracts/TimeFactory.sol\":3952:3985  IERC20(airdropToken).safeTransfer */\n      0xffffffffffffffffffffffffffffffffffffffff\n      and\n      tag_78\n      swap1\n        /* \"contracts/TimeFactory.sol\":3952:4004  IERC20(airdropToken).safeTransfer(address(this),fee) */\n      swap3\n      swap2\n      swap1\n      0xffffffff\n      and\n      jump\t// in\n    tag_128:\n        /* \"contracts/TimeFactory.sol\":4045:4099  IERC20(airdropToken).safeTransfer(buyer,buyAmount-fee) */\n      tag_129\n        /* \"contracts/TimeFactory.sol\":4079:4084  buyer */\n      dup5\n        /* \"contracts/TimeFactory.sol\":4095:4098  fee */\n      dup3\n        /* \"contracts/TimeFactory.sol\":4085:4094  buyAmount */\n      dup6\n        /* \"contracts/TimeFactory.sol\":4085:4098  buyAmount-fee */\n      0xffffffffffffffffffffffffffffffff\n      and\n      tag_130\n      swap2\n      swap1\n      tag_81\n      jump\t// in\n    tag_130:\n        /* \"contracts/TimeFactory.sol\":4052:4064  airdropToken */\n      0x01\n      0x00\n      swap1\n      sload\n      swap1\n      0x0100\n      exp\n      swap1\n      div\n      0xffffffffffffffffffffffffffffffffffffffff\n      and\n        /* \"contracts/TimeFactory.sol\":4045:4078  IERC20(airdropToken).safeTransfer */\n      0xffffffffffffffffffffffffffffffffffffffff\n      and\n      tag_78\n      swap1\n        /* \"contracts/TimeFactory.sol\":4045:4099  IERC20(airdropToken).safeTransfer(buyer,buyAmount-fee) */\n      swap3\n      swap2\n      swap1\n      0xffffffff\n      and\n      jump\t// in\n    tag_129:\n        /* \"contracts/TimeFactory.sol\":4136:4137  4 */\n      0x04\n        /* \"contracts/TimeFactory.sol\":4110:4119  _tradeMes */\n      0x02\n        /* \"contracts/TimeFactory.sol\":4110:4124  _tradeMes[_id] */\n      0x00\n        /* \"contracts/TimeFactory.sol\":4120:4123  _id */\n      dup8\n        /* \"contracts/TimeFactory.sol\":4110:4124  _tradeMes[_id] */\n      0xffffffffffffffff\n      and\n      0xffffffffffffffff\n      and\n      dup2\n      mstore\n      0x20\n      add\n      swap1\n      dup2\n      mstore\n      0x20\n      add\n      0x00\n      keccak256\n        /* \"contracts/TimeFactory.sol\":4110:4135  _tradeMes[_id].tradeState */\n      0x00\n      add\n      0x00\n        /* \"contracts/TimeFactory.sol\":4110:4137  _tradeMes[_id].tradeState=4 */\n      0x0100\n      exp\n      dup2\n      sload\n      dup2\n      0xff\n      mul\n      not\n      and\n      swap1\n      dup4\n      0xff\n      and\n      mul\n      or\n      swap1\n      sstore\n      pop\n        /* \"contracts/TimeFactory.sol\":3434:4145  {... */\n      pop\n      pop\n      pop\n      pop\n        /* \"contracts/TimeFactory.sol\":3385:4145  function buyerWithdrawAirdorp(uint64 _id)external{... */\n      pop\n      jump\t// out\n        /* \"contracts/TimeFactory.sol\":1293:2037  function buy(address _tokenAddress,uint128 _buyAmount,uint128 _buyPrice)external{... */\n    tag_50:\n        /* \"contracts/TimeFactory.sol\":1384:1394  uint total */\n      0x00\n        /* \"contracts/TimeFactory.sol\":1406:1415  _buyPrice */\n      dup2\n        /* \"contracts/TimeFactory.sol\":1395:1405  _buyAmount */\n      dup4\n        /* \"contracts/TimeFactory.sol\":1395:1415  _buyAmount*_buyPrice */\n      tag_132\n      swap2\n      swap1\n      tag_85\n      jump\t// in\n    tag_132:\n        /* \"contracts/TimeFactory.sol\":1384:1415  uint total=_buyAmount*_buyPrice */\n      0xffffffffffffffffffffffffffffffff\n      and\n      swap1\n      pop\n        /* \"contracts/TimeFactory.sol\":1435:1444  100 ether */\n      0x056bc75e2d63100000\n        /* \"contracts/TimeFactory.sol\":1429:1434  total */\n      dup2\n        /* \"contracts/TimeFactory.sol\":1429:1444  total<100 ether */\n      lt\n        /* \"contracts/TimeFactory.sol\":1426:1496  if(total<100 ether){... */\n      iszero\n      tag_133\n      jumpi\n        /* \"contracts/TimeFactory.sol\":1467:1484  NotEnoughAmount() */\n      mload(0x40)\n      0xe008b5f900000000000000000000000000000000000000000000000000000000\n      dup2\n      mstore\n      0x04\n      add\n      mload(0x40)\n      dup1\n      swap2\n      sub\n      swap1\n      revert\n        /* \"contracts/TimeFactory.sol\":1426:1496  if(total<100 ether){... */\n    tag_133:\n        /* \"contracts/TimeFactory.sol\":1506:1533  tradeMes memory newTradeMes */\n      0x00\n        /* \"contracts/TimeFactory.sol\":1534:1847  tradeMes({... */\n      mload(0x40)\n      dup1\n      0x0100\n      add\n      0x40\n      mstore\n      dup1\n        /* \"contracts/TimeFactory.sol\":1569:1570  1 */\n      0x01\n        /* \"contracts/TimeFactory.sol\":1534:1847  tradeMes({... */\n      0xff\n      and\n      dup2\n      mstore\n      0x20\n      add\n        /* \"contracts/TimeFactory.sol\":1593:1595  id */\n      0x00\n      0x07\n      swap1\n      sload\n      swap1\n      0x0100\n      exp\n      swap1\n      div\n      0xffffffffffffffff\n      and\n        /* \"contracts/TimeFactory.sol\":1534:1847  tradeMes({... */\n      0xffffffffffffffff\n      and\n      dup2\n      mstore\n      0x20\n      add\n        /* \"contracts/TimeFactory.sol\":1625:1640  block.timestamp */\n      timestamp\n        /* \"contracts/TimeFactory.sol\":1534:1847  tradeMes({... */\n      0xffffffffffffff\n      and\n      dup2\n      mstore\n      0x20\n      add\n        /* \"contracts/TimeFactory.sol\":1671:1681  _buyAmount */\n      dup6\n        /* \"contracts/TimeFactory.sol\":1534:1847  tradeMes({... */\n      0xffffffffffffffffffffffffffffffff\n      and\n      dup2\n      mstore\n      0x20\n      add\n        /* \"contracts/TimeFactory.sol\":1705:1714  _buyPrice */\n      dup5\n        /* \"contracts/TimeFactory.sol\":1534:1847  tradeMes({... */\n      0xffffffffffffffffffffffffffffffff\n      and\n      dup2\n      mstore\n      0x20\n      add\n        /* \"contracts/TimeFactory.sol\":1742:1755  _tokenAddress */\n      dup7\n        /* \"contracts/TimeFactory.sol\":1534:1847  tradeMes({... */\n      0xffffffffffffffffffffffffffffffffffffffff\n      and\n      dup2\n      mstore\n      0x20\n      add\n        /* \"contracts/TimeFactory.sol\":1783:1793  msg.sender */\n      caller\n        /* \"contracts/TimeFactory.sol\":1534:1847  tradeMes({... */\n      0xffffffffffffffffffffffffffffffffffffffff\n      and\n      dup2\n      mstore\n      0x20\n      add\n        /* \"contracts/TimeFactory.sol\":1830:1834  this */\n      address\n        /* \"contracts/TimeFactory.sol\":1534:1847  tradeMes({... */\n      0xffffffffffffffffffffffffffffffffffffffff\n      and\n      dup2\n      mstore\n      pop\n        /* \"contracts/TimeFactory.sol\":1506:1847  tradeMes memory newTradeMes=tradeMes({... */\n      swap1\n      pop\n        /* \"contracts/TimeFactory.sol\":1872:1883  newTradeMes */\n      dup1\n        /* \"contracts/TimeFactory.sol\":1858:1867  _tradeMes */\n      0x02\n        /* \"contracts/TimeFactory.sol\":1858:1871  _tradeMes[id] */\n      0x00\n        /* \"contracts/TimeFactory.sol\":1868:1870  id */\n      dup1\n      0x07\n      swap1\n      sload\n      swap1\n      0x0100\n      exp\n      swap1\n      div\n      0xffffffffffffffff\n      and\n        /* \"contracts/TimeFactory.sol\":1858:1871  _tradeMes[id] */\n      0xffffffffffffffff\n      and\n      0xffffffffffffffff\n      and\n      dup2\n      mstore\n      0x20\n      add\n      swap1\n      dup2\n      mstore\n      0x20\n      add\n      0x00\n      keccak256\n        /* \"contracts/TimeFactory.sol\":1858:1883  _tradeMes[id]=newTradeMes */\n      0x00\n      dup3\n      add\n      mload\n      dup2\n      0x00\n      add\n      exp(0x0100, 0x00)\n      dup2\n      sload\n      dup2\n      0xff\n      mul\n      not\n      and\n      swap1\n      dup4\n      0xff\n      and\n      mul\n      or\n      swap1\n      sstore\n      pop\n      0x20\n      dup3\n      add\n      mload\n      dup2\n      0x00\n      add\n      exp(0x0100, 0x01)\n      dup2\n      sload\n      dup2\n      0xffffffffffffffff\n      mul\n      not\n      and\n      swap1\n      dup4\n      0xffffffffffffffff\n      and\n      mul\n      or\n      swap1\n      sstore\n      pop\n      0x40\n      dup3\n      add\n      mload\n      dup2\n      0x00\n      add\n      exp(0x0100, 0x09)\n      dup2\n      sload\n      dup2\n      0xffffffffffffff\n      mul\n      not\n      and\n      swap1\n      dup4\n      0xffffffffffffff\n      and\n      mul\n      or\n      swap1\n      sstore\n      pop\n      0x60\n      dup3\n      add\n      mload\n      dup2\n      0x00\n      add\n      exp(0x0100, 0x10)\n      dup2\n      sload\n      dup2\n      0xffffffffffffffffffffffffffffffff\n      mul\n      not\n      and\n      swap1\n      dup4\n      0xffffffffffffffffffffffffffffffff\n      and\n      mul\n      or\n      swap1\n      sstore\n      pop\n      0x80\n      dup3\n      add\n      mload\n      dup2\n      0x01\n      add\n      exp(0x0100, 0x00)\n      dup2\n      sload\n      dup2\n      0xffffffffffffffffffffffffffffffff\n      mul\n      not\n      and\n      swap1\n      dup4\n      0xffffffffffffffffffffffffffffffff\n      and\n      mul\n      or\n      swap1\n      sstore\n      pop\n      0xa0\n      dup3\n      add\n      mload\n      dup2\n      0x02\n      add\n      exp(0x0100, 0x00)\n      dup2\n      sload\n      dup2\n      0xffffffffffffffffffffffffffffffffffffffff\n      mul\n      not\n      and\n      swap1\n      dup4\n      0xffffffffffffffffffffffffffffffffffffffff\n      and\n      mul\n      or\n      swap1\n      sstore\n      pop\n      0xc0\n      dup3\n      add\n      mload\n      dup2\n      0x03\n      add\n      exp(0x0100, 0x00)\n      dup2\n      sload\n      dup2\n      0xffffffffffffffffffffffffffffffffffffffff\n      mul\n      not\n      and\n      swap1\n      dup4\n      0xffffffffffffffffffffffffffffffffffffffff\n      and\n      mul\n      or\n      swap1\n      sstore\n      pop\n      0xe0\n      dup3\n      add\n      mload\n      dup2\n      0x04\n      add\n      exp(0x0100, 0x00)\n      dup2\n      sload\n      dup2\n      0xffffffffffffffffffffffffffffffffffffffff\n      mul\n      not\n      and\n      swap1\n      dup4\n      0xffffffffffffffffffffffffffffffffffffffff\n      and\n      mul\n      or\n      swap1\n      sstore\n      pop\n      swap1\n      pop\n      pop\n        /* \"contracts/TimeFactory.sol\":1944:2014  IERC20(_tokenAddress).safeTransferFrom(msg.sender,address(this),total) */\n      tag_134\n        /* \"contracts/TimeFactory.sol\":1983:1993  msg.sender */\n      caller\n        /* \"contracts/TimeFactory.sol\":2002:2006  this */\n      address\n        /* \"contracts/TimeFactory.sol\":2008:2013  total */\n      dup5\n        /* \"contracts/TimeFactory.sol\":1951:1964  _tokenAddress */\n      dup9\n        /* \"contracts/TimeFactory.sol\":1944:1982  IERC20(_tokenAddress).safeTransferFrom */\n      0xffffffffffffffffffffffffffffffffffffffff\n      and\n      tag_65\n      swap1\n        /* \"contracts/TimeFactory.sol\":1944:2014  IERC20(_tokenAddress).safeTransferFrom(msg.sender,address(this),total) */\n      swap4\n      swap3\n      swap2\n      swap1\n      0xffffffff\n      and\n      jump\t// in\n    tag_134:\n        /* \"contracts/TimeFactory.sol\":2025:2027  id */\n      0x00\n      0x07\n        /* \"contracts/TimeFactory.sol\":2025:2029  id++ */\n      dup2\n      dup2\n      swap1\n      sload\n      swap1\n      0x0100\n      exp\n      swap1\n      div\n      0xffffffffffffffff\n      and\n      dup1\n      swap3\n      swap2\n      swap1\n      tag_135\n      swap1\n      tag_136\n      jump\t// in\n    tag_135:\n      swap2\n      swap1\n      0x0100\n      exp\n      dup2\n      sload\n      dup2\n      0xffffffffffffffff\n      mul\n      not\n      and\n      swap1\n      dup4\n      0xffffffffffffffff\n      and\n      mul\n      or\n      swap1\n      sstore\n      pop\n      pop\n        /* \"contracts/TimeFactory.sol\":1373:2037  {... */\n      pop\n      pop\n        /* \"contracts/TimeFactory.sol\":1293:2037  function buy(address _tokenAddress,uint128 _buyAmount,uint128 _buyPrice)external{... */\n      pop\n      pop\n      pop\n      jump\t// out\n        /* \"contracts/TimeFactory.sol\":971:1035  mapping(address => mapping(uint256=>bool))public userIfWithdraw2 */\n    tag_53:\n      mstore(0x20, 0x05)\n      dup2\n      0x00\n      mstore\n      mstore(0x20, keccak256(0x00, 0x40))\n      dup1\n      0x00\n      mstore\n      keccak256(0x00, 0x40)\n      0x00\n      swap2\n      pop\n      swap2\n      pop\n      swap1\n      sload\n      swap1\n      0x0100\n      exp\n      swap1\n      div\n      0xff\n      and\n      dup2\n      jump\t// out\n        /* \"contracts/TimeFactory.sol\":1206:1270  mapping(address => mapping(uint256=>bool))public userIfWithdraw4 */\n    tag_57:\n      mstore(0x20, 0x07)\n      dup2\n      0x00\n      mstore\n      mstore(0x20, keccak256(0x00, 0x40))\n      dup1\n      0x00\n      mstore\n      keccak256(0x00, 0x40)\n      0x00\n      swap2\n      pop\n      swap2\n      pop\n      swap1\n      sload\n      swap1\n      0x0100\n      exp\n      swap1\n      div\n      0xff\n      and\n      dup2\n      jump\t// out\n        /* \"contracts/TimeFactory.sol\":7068:7182  function getSolder(uint64 _id)internal view returns(address){... */\n    tag_62:\n        /* \"contracts/TimeFactory.sol\":7120:7127  address */\n      0x00\n        /* \"contracts/TimeFactory.sol\":7146:7155  _tradeMes */\n      0x02\n        /* \"contracts/TimeFactory.sol\":7146:7160  _tradeMes[_id] */\n      0x00\n        /* \"contracts/TimeFactory.sol\":7156:7159  _id */\n      dup4\n        /* \"contracts/TimeFactory.sol\":7146:7160  _tradeMes[_id] */\n      0xffffffffffffffff\n      and\n      0xffffffffffffffff\n      and\n      dup2\n      mstore\n      0x20\n      add\n      swap1\n      dup2\n      mstore\n      0x20\n      add\n      0x00\n      keccak256\n        /* \"contracts/TimeFactory.sol\":7146:7174  _tradeMes[_id].solderAddress */\n      0x04\n      add\n      0x00\n      swap1\n      sload\n      swap1\n      0x0100\n      exp\n      swap1\n      div\n      0xffffffffffffffffffffffffffffffffffffffff\n      and\n        /* \"contracts/TimeFactory.sol\":7139:7174  return _tradeMes[_id].solderAddress */\n      swap1\n      pop\n        /* \"contracts/TimeFactory.sol\":7068:7182  function getSolder(uint64 _id)internal view returns(address){... */\n      swap2\n      swap1\n      pop\n      jump\t// out\n        /* \"@openzeppelin/contracts/token/ERC20/utils/SafeERC20.sol\":1355:1558  function safeTransferFrom(IERC20 token, address from, address to, uint256 value) internal {... */\n    tag_65:\n        /* \"@openzeppelin/contracts/token/ERC20/utils/SafeERC20.sol\":1455:1551  _callOptionalReturn(token, abi.encodeWithSelector(token.transferFrom.selector, from, to, value)) */\n      tag_139\n        /* \"@openzeppelin/contracts/token/ERC20/utils/SafeERC20.sol\":1475:1480  token */\n      dup5\n        /* \"@openzeppelin/contracts/token/ERC20/utils/SafeERC20.sol\":1505:1532  token.transferFrom.selector */\n      shl(0xe0, 0x23b872dd)\n        /* \"@openzeppelin/contracts/token/ERC20/utils/SafeERC20.sol\":1534:1538  from */\n      dup6\n        /* \"@openzeppelin/contracts/token/ERC20/utils/SafeERC20.sol\":1540:1542  to */\n      dup6\n        /* \"@openzeppelin/contracts/token/ERC20/utils/SafeERC20.sol\":1544:1549  value */\n      dup6\n        /* \"@openzeppelin/contracts/token/ERC20/utils/SafeERC20.sol\":1482:1550  abi.encodeWithSelector(token.transferFrom.selector, from, to, value) */\n      add(0x24, mload(0x40))\n      tag_140\n      swap4\n      swap3\n      swap2\n      swap1\n      tag_141\n      jump\t// in\n    tag_140:\n      mload(0x40)\n      0x20\n      dup2\n      dup4\n      sub\n      sub\n      dup2\n      mstore\n      swap1\n      0x40\n      mstore\n      swap1\n      not(0xffffffffffffffffffffffffffffffffffffffffffffffffffffffff)\n      and\n      0x20\n      dup3\n      add\n      dup1\n      mload\n      0xffffffffffffffffffffffffffffffffffffffffffffffffffffffff\n      dup4\n      dup2\n      dup4\n      and\n      or\n      dup4\n      mstore\n      pop\n      pop\n      pop\n      pop\n        /* \"@openzeppelin/contracts/token/ERC20/utils/SafeERC20.sol\":1455:1474  _callOptionalReturn */\n      tag_142\n        /* \"@openzeppelin/contracts/token/ERC20/utils/SafeERC20.sol\":1455:1551  _callOptionalReturn(token, abi.encodeWithSelector(token.transferFrom.selector, from, to, value)) */\n      jump\t// in\n    tag_139:\n        /* \"@openzeppelin/contracts/token/ERC20/utils/SafeERC20.sol\":1355:1558  function safeTransferFrom(IERC20 token, address from, address to, uint256 value) internal {... */\n      pop\n      pop\n      pop\n      pop\n      jump\t// out\n        /* \"contracts/TimeFactory.sol\":6908:7020  function getBuyer(uint64 _id)internal view returns(address){... */\n    tag_68:\n        /* \"contracts/TimeFactory.sol\":6959:6966  address */\n      0x00\n        /* \"contracts/TimeFactory.sol\":6985:6994  _tradeMes */\n      0x02\n        /* \"contracts/TimeFactory.sol\":6985:6999  _tradeMes[_id] */\n      0x00\n        /* \"contracts/TimeFactory.sol\":6995:6998  _id */\n      dup4\n        /* \"contracts/TimeFactory.sol\":6985:6999  _tradeMes[_id] */\n      0xffffffffffffffff\n      and\n      0xffffffffffffffff\n      and\n      dup2\n      mstore\n      0x20\n      add\n      swap1\n      dup2\n      mstore\n      0x20\n      add\n      0x00\n      keccak256\n        /* \"contracts/TimeFactory.sol\":6985:7012  _tradeMes[_id].buyerAddress */\n      0x03\n      add\n      0x00\n      swap1\n      sload\n      swap1\n      0x0100\n      exp\n      swap1\n      div\n      0xffffffffffffffffffffffffffffffffffffffff\n      and\n        /* \"contracts/TimeFactory.sol\":6978:7012  return _tradeMes[_id].buyerAddress */\n      swap1\n      pop\n        /* \"contracts/TimeFactory.sol\":6908:7020  function getBuyer(uint64 _id)internal view returns(address){... */\n      swap2\n      swap1\n      pop\n      jump\t// out\n        /* \"libraries/TimeFee.sol\":250:680  function fee(uint256 stableAmount)internal pure returns(uint256 stableFee){... */\n    tag_76:\n        /* \"libraries/TimeFee.sol\":306:323  uint256 stableFee */\n      0x00\n        /* \"libraries/TimeFee.sol\":352:361  100 ether */\n      0x056bc75e2d63100000\n        /* \"libraries/TimeFee.sol\":338:350  stableAmount */\n      dup3\n        /* \"libraries/TimeFee.sol\":338:361  stableAmount>=100 ether */\n      lt\n      iszero\n        /* \"libraries/TimeFee.sol\":338:388  stableAmount>=100 ether && stableAmount<1000 ether */\n      dup1\n      iszero\n      tag_145\n      jumpi\n      pop\n        /* \"libraries/TimeFee.sol\":378:388  1000 ether */\n      0x3635c9adc5dea00000\n        /* \"libraries/TimeFee.sol\":365:377  stableAmount */\n      dup3\n        /* \"libraries/TimeFee.sol\":365:388  stableAmount<1000 ether */\n      lt\n        /* \"libraries/TimeFee.sol\":338:388  stableAmount>=100 ether && stableAmount<1000 ether */\n    tag_145:\n        /* \"libraries/TimeFee.sol\":335:673  if(stableAmount>=100 ether && stableAmount<1000 ether){... */\n      iszero\n      tag_146\n      jumpi\n        /* \"libraries/TimeFee.sol\":424:427  100 */\n      0x64\n        /* \"libraries/TimeFee.sol\":411:423  stableAmount */\n      dup3\n        /* \"libraries/TimeFee.sol\":411:427  stableAmount/100 */\n      tag_147\n      swap2\n      swap1\n      tag_111\n      jump\t// in\n    tag_147:\n        /* \"libraries/TimeFee.sol\":404:427  return stableAmount/100 */\n      swap1\n      pop\n      jump(tag_144)\n        /* \"libraries/TimeFee.sol\":335:673  if(stableAmount>=100 ether && stableAmount<1000 ether){... */\n    tag_146:\n        /* \"libraries/TimeFee.sol\":461:471  1000 ether */\n      0x3635c9adc5dea00000\n        /* \"libraries/TimeFee.sol\":447:459  stableAmount */\n      dup3\n        /* \"libraries/TimeFee.sol\":447:471  stableAmount>=1000 ether */\n      lt\n      iszero\n        /* \"libraries/TimeFee.sol\":447:499  stableAmount>=1000 ether && stableAmount<10000 ether */\n      dup1\n      iszero\n      tag_149\n      jumpi\n      pop\n        /* \"libraries/TimeFee.sol\":488:499  10000 ether */\n      0x021e19e0c9bab2400000\n        /* \"libraries/TimeFee.sol\":475:487  stableAmount */\n      dup3\n        /* \"libraries/TimeFee.sol\":475:499  stableAmount<10000 ether */\n      lt\n        /* \"libraries/TimeFee.sol\":447:499  stableAmount>=1000 ether && stableAmount<10000 ether */\n    tag_149:\n        /* \"libraries/TimeFee.sol\":444:673  if(stableAmount>=1000 ether && stableAmount<10000 ether){... */\n      iszero\n      tag_150\n      jumpi\n        /* \"libraries/TimeFee.sol\":535:538  200 */\n      0xc8\n        /* \"libraries/TimeFee.sol\":522:534  stableAmount */\n      dup3\n        /* \"libraries/TimeFee.sol\":522:538  stableAmount/200 */\n      tag_151\n      swap2\n      swap1\n      tag_111\n      jump\t// in\n    tag_151:\n        /* \"libraries/TimeFee.sol\":515:538  return stableAmount/200 */\n      swap1\n      pop\n      jump(tag_144)\n        /* \"libraries/TimeFee.sol\":444:673  if(stableAmount>=1000 ether && stableAmount<10000 ether){... */\n    tag_150:\n        /* \"libraries/TimeFee.sol\":572:583  10000 ether */\n      0x021e19e0c9bab2400000\n        /* \"libraries/TimeFee.sol\":558:570  stableAmount */\n      dup3\n        /* \"libraries/TimeFee.sol\":558:583  stableAmount>=10000 ether */\n      lt\n        /* \"libraries/TimeFee.sol\":555:673  if(stableAmount>=10000 ether){... */\n      tag_153\n      jumpi\n        /* \"libraries/TimeFee.sol\":619:622  400 */\n      0x0190\n        /* \"libraries/TimeFee.sol\":606:618  stableAmount */\n      dup3\n        /* \"libraries/TimeFee.sol\":606:622  stableAmount/400 */\n      tag_154\n      swap2\n      swap1\n      tag_111\n      jump\t// in\n    tag_154:\n        /* \"libraries/TimeFee.sol\":599:622  return stableAmount/400 */\n      swap1\n      pop\n      jump(tag_144)\n        /* \"libraries/TimeFee.sol\":555:673  if(stableAmount>=10000 ether){... */\n    tag_153:\n        /* \"libraries/TimeFee.sol\":660:661  0 */\n      0x00\n        /* \"libraries/TimeFee.sol\":653:661  return 0 */\n      swap1\n      pop\n        /* \"libraries/TimeFee.sol\":250:680  function fee(uint256 stableAmount)internal pure returns(uint256 stableFee){... */\n    tag_144:\n      swap2\n      swap1\n      pop\n      jump\t// out\n        /* \"@openzeppelin/contracts/token/ERC20/utils/SafeERC20.sol\":941:1116  function safeTransfer(IERC20 token, address to, uint256 value) internal {... */\n    tag_78:\n        /* \"@openzeppelin/contracts/token/ERC20/utils/SafeERC20.sol\":1023:1109  _callOptionalReturn(token, abi.encodeWithSelector(token.transfer.selector, to, value)) */\n      tag_157\n        /* \"@openzeppelin/contracts/token/ERC20/utils/SafeERC20.sol\":1043:1048  token */\n      dup4\n        /* \"@openzeppelin/contracts/token/ERC20/utils/SafeERC20.sol\":1073:1096  token.transfer.selector */\n      shl(0xe0, 0xa9059cbb)\n        /* \"@openzeppelin/contracts/token/ERC20/utils/SafeERC20.sol\":1098:1100  to */\n      dup5\n        /* \"@openzeppelin/contracts/token/ERC20/utils/SafeERC20.sol\":1102:1107  value */\n      dup5\n        /* \"@openzeppelin/contracts/token/ERC20/utils/SafeERC20.sol\":1050:1108  abi.encodeWithSelector(token.transfer.selector, to, value) */\n      add(0x24, mload(0x40))\n      tag_158\n      swap3\n      swap2\n      swap1\n      tag_159\n      jump\t// in\n    tag_158:\n      mload(0x40)\n      0x20\n      dup2\n      dup4\n      sub\n      sub\n      dup2\n      mstore\n      swap1\n      0x40\n      mstore\n      swap1\n      not(0xffffffffffffffffffffffffffffffffffffffffffffffffffffffff)\n      and\n      0x20\n      dup3\n      add\n      dup1\n      mload\n      0xffffffffffffffffffffffffffffffffffffffffffffffffffffffff\n      dup4\n      dup2\n      dup4\n      and\n      or\n      dup4\n      mstore\n      pop\n      pop\n      pop\n      pop\n        /* \"@openzeppelin/contracts/token/ERC20/utils/SafeERC20.sol\":1023:1042  _callOptionalReturn */\n      tag_142\n        /* \"@openzeppelin/contracts/token/ERC20/utils/SafeERC20.sol\":1023:1109  _callOptionalReturn(token, abi.encodeWithSelector(token.transfer.selector, to, value)) */\n      jump\t// in\n    tag_157:\n        /* \"@openzeppelin/contracts/token/ERC20/utils/SafeERC20.sol\":941:1116  function safeTransfer(IERC20 token, address to, uint256 value) internal {... */\n      pop\n      pop\n      pop\n      jump\t// out\n        /* \"@openzeppelin/contracts/token/ERC20/utils/SafeERC20.sol\":5196:5838  function _callOptionalReturn(IERC20 token, bytes memory data) private {... */\n    tag_142:\n        /* \"@openzeppelin/contracts/token/ERC20/utils/SafeERC20.sol\":5615:5638  bytes memory returndata */\n      0x00\n        /* \"@openzeppelin/contracts/token/ERC20/utils/SafeERC20.sol\":5641:5710  address(token).functionCall(data, \"SafeERC20: low-level call failed\") */\n      tag_161\n        /* \"@openzeppelin/contracts/token/ERC20/utils/SafeERC20.sol\":5669:5673  data */\n      dup3\n        /* \"@openzeppelin/contracts/token/ERC20/utils/SafeERC20.sol\":5641:5710  address(token).functionCall(data, \"SafeERC20: low-level call failed\") */\n      mload(0x40)\n      dup1\n      0x40\n      add\n      0x40\n      mstore\n      dup1\n      0x20\n      dup2\n      mstore\n      0x20\n      add\n      0x5361666545524332303a206c6f772d6c6576656c2063616c6c206661696c6564\n      dup2\n      mstore\n      pop\n        /* \"@openzeppelin/contracts/token/ERC20/utils/SafeERC20.sol\":5649:5654  token */\n      dup6\n        /* \"@openzeppelin/contracts/token/ERC20/utils/SafeERC20.sol\":5641:5668  address(token).functionCall */\n      0xffffffffffffffffffffffffffffffffffffffff\n      and\n      tag_162\n      swap1\n        /* \"@openzeppelin/contracts/token/ERC20/utils/SafeERC20.sol\":5641:5710  address(token).functionCall(data, \"SafeERC20: low-level call failed\") */\n      swap3\n      swap2\n      swap1\n      0xffffffff\n      and\n      jump\t// in\n    tag_161:\n        /* \"@openzeppelin/contracts/token/ERC20/utils/SafeERC20.sol\":5615:5710  bytes memory returndata = address(token).functionCall(data, \"SafeERC20: low-level call failed\") */\n      swap1\n      pop\n        /* \"@openzeppelin/contracts/token/ERC20/utils/SafeERC20.sol\":5749:5750  0 */\n      0x00\n        /* \"@openzeppelin/contracts/token/ERC20/utils/SafeERC20.sol\":5728:5738  returndata */\n      dup2\n        /* \"@openzeppelin/contracts/token/ERC20/utils/SafeERC20.sol\":5728:5745  returndata.length */\n      mload\n        /* \"@openzeppelin/contracts/token/ERC20/utils/SafeERC20.sol\":5728:5750  returndata.length == 0 */\n      eq\n        /* \"@openzeppelin/contracts/token/ERC20/utils/SafeERC20.sol\":5728:5784  returndata.length == 0 || abi.decode(returndata, (bool)) */\n      dup1\n      tag_163\n      jumpi\n      pop\n        /* \"@openzeppelin/contracts/token/ERC20/utils/SafeERC20.sol\":5765:5775  returndata */\n      dup1\n        /* \"@openzeppelin/contracts/token/ERC20/utils/SafeERC20.sol\":5754:5784  abi.decode(returndata, (bool)) */\n      dup1\n      0x20\n      add\n      swap1\n      mload\n      dup2\n      add\n      swap1\n      tag_164\n      swap2\n      swap1\n      tag_165\n      jump\t// in\n    tag_164:\n        /* \"@openzeppelin/contracts/token/ERC20/utils/SafeERC20.sol\":5728:5784  returndata.length == 0 || abi.decode(returndata, (bool)) */\n    tag_163:\n        /* \"@openzeppelin/contracts/token/ERC20/utils/SafeERC20.sol\":5720:5831  require(returndata.length == 0 || abi.decode(returndata, (bool)), \"SafeERC20: ERC20 operation did not succeed\") */\n      tag_166\n      jumpi\n      mload(0x40)\n      0x08c379a000000000000000000000000000000000000000000000000000000000\n      dup2\n      mstore\n      0x04\n      add\n      tag_167\n      swap1\n      tag_168\n      jump\t// in\n    tag_167:\n      mload(0x40)\n      dup1\n      swap2\n      sub\n      swap1\n      revert\n    tag_166:\n        /* \"@openzeppelin/contracts/token/ERC20/utils/SafeERC20.sol\":5266:5838  {... */\n      pop\n        /* \"@openzeppelin/contracts/token/ERC20/utils/SafeERC20.sol\":5196:5838  function _callOptionalReturn(IERC20 token, bytes memory data) private {... */\n      pop\n      pop\n      jump\t// out\n        /* \"@openzeppelin/contracts/utils/Address.sol\":4108:4331  function functionCall(... */\n    tag_162:\n        /* \"@openzeppelin/contracts/utils/Address.sol\":4241:4253  bytes memory */\n      0x60\n        /* \"@openzeppelin/contracts/utils/Address.sol\":4272:4324  functionCallWithValue(target, data, 0, errorMessage) */\n      tag_170\n        /* \"@openzeppelin/contracts/utils/Address.sol\":4294:4300  target */\n      dup5\n        /* \"@openzeppelin/contracts/utils/Address.sol\":4302:4306  data */\n      dup5\n        /* \"@openzeppelin/contracts/utils/Address.sol\":4308:4309  0 */\n      0x00\n        /* \"@openzeppelin/contracts/utils/Address.sol\":4311:4323  errorMessage */\n      dup6\n        /* \"@openzeppelin/contracts/utils/Address.sol\":4272:4293  functionCallWithValue */\n      tag_171\n        /* \"@openzeppelin/contracts/utils/Address.sol\":4272:4324  functionCallWithValue(target, data, 0, errorMessage) */\n      jump\t// in\n    tag_170:\n        /* \"@openzeppelin/contracts/utils/Address.sol\":4265:4324  return functionCallWithValue(target, data, 0, errorMessage) */\n      swap1\n      pop\n        /* \"@openzeppelin/contracts/utils/Address.sol\":4108:4331  function functionCall(... */\n      swap4\n      swap3\n      pop\n      pop\n      pop\n      jump\t// out\n        /* \"@openzeppelin/contracts/utils/Address.sol\":5165:5611  function functionCallWithValue(... */\n    tag_171:\n        /* \"@openzeppelin/contracts/utils/Address.sol\":5330:5342  bytes memory */\n      0x60\n        /* \"@openzeppelin/contracts/utils/Address.sol\":5387:5392  value */\n      dup3\n        /* \"@openzeppelin/contracts/utils/Address.sol\":5362:5383  address(this).balance */\n      selfbalance\n        /* \"@openzeppelin/contracts/utils/Address.sol\":5362:5392  address(this).balance >= value */\n      lt\n      iszero\n        /* \"@openzeppelin/contracts/utils/Address.sol\":5354:5435  require(address(this).balance >= value, \"Address: insufficient balance for call\") */\n      tag_173\n      jumpi\n      mload(0x40)\n      0x08c379a000000000000000000000000000000000000000000000000000000000\n      dup2\n      mstore\n      0x04\n      add\n      tag_174\n      swap1\n      tag_175\n      jump\t// in\n    tag_174:\n      mload(0x40)\n      dup1\n      swap2\n      sub\n      swap1\n      revert\n    tag_173:\n        /* \"@openzeppelin/contracts/utils/Address.sol\":5446:5458  bool success */\n      0x00\n        /* \"@openzeppelin/contracts/utils/Address.sol\":5460:5483  bytes memory returndata */\n      dup1\n        /* \"@openzeppelin/contracts/utils/Address.sol\":5487:5493  target */\n      dup7\n        /* \"@openzeppelin/contracts/utils/Address.sol\":5487:5498  target.call */\n      0xffffffffffffffffffffffffffffffffffffffff\n      and\n        /* \"@openzeppelin/contracts/utils/Address.sol\":5506:5511  value */\n      dup6\n        /* \"@openzeppelin/contracts/utils/Address.sol\":5513:5517  data */\n      dup8\n        /* \"@openzeppelin/contracts/utils/Address.sol\":5487:5518  target.call{value: value}(data) */\n      mload(0x40)\n      tag_176\n      swap2\n      swap1\n      tag_177\n      jump\t// in\n    tag_176:\n      0x00\n      mload(0x40)\n      dup1\n      dup4\n      sub\n      dup2\n      dup6\n      dup8\n      gas\n      call\n      swap3\n      pop\n      pop\n      pop\n      returndatasize\n      dup1\n      0x00\n      dup2\n      eq\n      tag_180\n      jumpi\n      mload(0x40)\n      swap2\n      pop\n      and(add(returndatasize, 0x3f), not(0x1f))\n      dup3\n      add\n      0x40\n      mstore\n      returndatasize\n      dup3\n      mstore\n      returndatasize\n      0x00\n      0x20\n      dup5\n      add\n      returndatacopy\n      jump(tag_179)\n    tag_180:\n      0x60\n      swap2\n      pop\n    tag_179:\n      pop\n        /* \"@openzeppelin/contracts/utils/Address.sol\":5445:5518  (bool success, bytes memory returndata) = target.call{value: value}(data) */\n      swap2\n      pop\n      swap2\n      pop\n        /* \"@openzeppelin/contracts/utils/Address.sol\":5535:5604  verifyCallResultFromTarget(target, success, returndata, errorMessage) */\n      tag_181\n        /* \"@openzeppelin/contracts/utils/Address.sol\":5562:5568  target */\n      dup8\n        /* \"@openzeppelin/contracts/utils/Address.sol\":5570:5577  success */\n      dup4\n        /* \"@openzeppelin/contracts/utils/Address.sol\":5579:5589  returndata */\n      dup4\n        /* \"@openzeppelin/contracts/utils/Address.sol\":5591:5603  errorMessage */\n      dup8\n        /* \"@openzeppelin/contracts/utils/Address.sol\":5535:5561  verifyCallResultFromTarget */\n      tag_182\n        /* \"@openzeppelin/contracts/utils/Address.sol\":5535:5604  verifyCallResultFromTarget(target, success, returndata, errorMessage) */\n      jump\t// in\n    tag_181:\n        /* \"@openzeppelin/contracts/utils/Address.sol\":5528:5604  return verifyCallResultFromTarget(target, success, returndata, errorMessage) */\n      swap3\n      pop\n      pop\n      pop\n        /* \"@openzeppelin/contracts/utils/Address.sol\":5165:5611  function functionCallWithValue(... */\n      swap5\n      swap4\n      pop\n      pop\n      pop\n      pop\n      jump\t// out\n        /* \"@openzeppelin/contracts/utils/Address.sol\":7671:8299  function verifyCallResultFromTarget(... */\n    tag_182:\n        /* \"@openzeppelin/contracts/utils/Address.sol\":7851:7863  bytes memory */\n      0x60\n        /* \"@openzeppelin/contracts/utils/Address.sol\":7879:7886  success */\n      dup4\n        /* \"@openzeppelin/contracts/utils/Address.sol\":7875:8293  if (success) {... */\n      iszero\n      tag_184\n      jumpi\n        /* \"@openzeppelin/contracts/utils/Address.sol\":7927:7928  0 */\n      0x00\n        /* \"@openzeppelin/contracts/utils/Address.sol\":7906:7916  returndata */\n      dup4\n        /* \"@openzeppelin/contracts/utils/Address.sol\":7906:7923  returndata.length */\n      mload\n        /* \"@openzeppelin/contracts/utils/Address.sol\":7906:7928  returndata.length == 0 */\n      sub\n        /* \"@openzeppelin/contracts/utils/Address.sol\":7902:8188  if (returndata.length == 0) {... */\n      tag_185\n      jumpi\n        /* \"@openzeppelin/contracts/utils/Address.sol\":8121:8139  isContract(target) */\n      tag_186\n        /* \"@openzeppelin/contracts/utils/Address.sol\":8132:8138  target */\n      dup6\n        /* \"@openzeppelin/contracts/utils/Address.sol\":8121:8131  isContract */\n      tag_187\n        /* \"@openzeppelin/contracts/utils/Address.sol\":8121:8139  isContract(target) */\n      jump\t// in\n    tag_186:\n        /* \"@openzeppelin/contracts/utils/Address.sol\":8113:8173  require(isContract(target), \"Address: call to non-contract\") */\n      tag_188\n      jumpi\n      mload(0x40)\n      0x08c379a000000000000000000000000000000000000000000000000000000000\n      dup2\n      mstore\n      0x04\n      add\n      tag_189\n      swap1\n      tag_190\n      jump\t// in\n    tag_189:\n      mload(0x40)\n      dup1\n      swap2\n      sub\n      swap1\n      revert\n    tag_188:\n        /* \"@openzeppelin/contracts/utils/Address.sol\":7902:8188  if (returndata.length == 0) {... */\n    tag_185:\n        /* \"@openzeppelin/contracts/utils/Address.sol\":8208:8218  returndata */\n      dup3\n        /* \"@openzeppelin/contracts/utils/Address.sol\":8201:8218  return returndata */\n      swap1\n      pop\n      jump(tag_183)\n        /* \"@openzeppelin/contracts/utils/Address.sol\":7875:8293  if (success) {... */\n    tag_184:\n        /* \"@openzeppelin/contracts/utils/Address.sol\":8249:8282  _revert(returndata, errorMessage) */\n      tag_192\n        /* \"@openzeppelin/contracts/utils/Address.sol\":8257:8267  returndata */\n      dup4\n        /* \"@openzeppelin/contracts/utils/Address.sol\":8269:8281  errorMessage */\n      dup4\n        /* \"@openzeppelin/contracts/utils/Address.sol\":8249:8256  _revert */\n      tag_193\n        /* \"@openzeppelin/contracts/utils/Address.sol\":8249:8282  _revert(returndata, errorMessage) */\n      jump\t// in\n    tag_192:\n        /* \"@openzeppelin/contracts/utils/Address.sol\":7671:8299  function verifyCallResultFromTarget(... */\n    tag_183:\n      swap5\n      swap4\n      pop\n      pop\n      pop\n      pop\n      jump\t// out\n        /* \"@openzeppelin/contracts/utils/Address.sol\":1412:1732  function isContract(address account) internal view returns (bool) {... */\n    tag_187:\n        /* \"@openzeppelin/contracts/utils/Address.sol\":1472:1476  bool */\n      0x00\n        /* \"@openzeppelin/contracts/utils/Address.sol\":1724:1725  0 */\n      dup1\n        /* \"@openzeppelin/contracts/utils/Address.sol\":1702:1709  account */\n      dup3\n        /* \"@openzeppelin/contracts/utils/Address.sol\":1702:1721  account.code.length */\n      0xffffffffffffffffffffffffffffffffffffffff\n      and\n      extcodesize\n        /* \"@openzeppelin/contracts/utils/Address.sol\":1702:1725  account.code.length > 0 */\n      gt\n        /* \"@openzeppelin/contracts/utils/Address.sol\":1695:1725  return account.code.length > 0 */\n      swap1\n      pop\n        /* \"@openzeppelin/contracts/utils/Address.sol\":1412:1732  function isContract(address account) internal view returns (bool) {... */\n      swap2\n      swap1\n      pop\n      jump\t// out\n        /* \"@openzeppelin/contracts/utils/Address.sol\":8821:9361  function _revert(bytes memory returndata, string memory errorMessage) private pure {... */\n    tag_193:\n        /* \"@openzeppelin/contracts/utils/Address.sol\":9000:9001  0 */\n      0x00\n        /* \"@openzeppelin/contracts/utils/Address.sol\":8980:8990  returndata */\n      dup3\n        /* \"@openzeppelin/contracts/utils/Address.sol\":8980:8997  returndata.length */\n      mload\n        /* \"@openzeppelin/contracts/utils/Address.sol\":8980:9001  returndata.length > 0 */\n      gt\n        /* \"@openzeppelin/contracts/utils/Address.sol\":8976:9355  if (returndata.length > 0) {... */\n      iszero\n      tag_196\n      jumpi\n        /* \"@openzeppelin/contracts/utils/Address.sol\":9208:9218  returndata */\n      dup2\n        /* \"@openzeppelin/contracts/utils/Address.sol\":9202:9219  mload(returndata) */\n      mload\n        /* \"@openzeppelin/contracts/utils/Address.sol\":9264:9279  returndata_size */\n      dup1\n        /* \"@openzeppelin/contracts/utils/Address.sol\":9251:9261  returndata */\n      dup4\n        /* \"@openzeppelin/contracts/utils/Address.sol\":9247:9249  32 */\n      0x20\n        /* \"@openzeppelin/contracts/utils/Address.sol\":9243:9262  add(32, returndata) */\n      add\n        /* \"@openzeppelin/contracts/utils/Address.sol\":9236:9280  revert(add(32, returndata), returndata_size) */\n      revert\n        /* \"@openzeppelin/contracts/utils/Address.sol\":8976:9355  if (returndata.length > 0) {... */\n    tag_196:\n        /* \"@openzeppelin/contracts/utils/Address.sol\":9331:9343  errorMessage */\n      dup1\n        /* \"@openzeppelin/contracts/utils/Address.sol\":9324:9344  revert(errorMessage) */\n      mload(0x40)\n      0x08c379a000000000000000000000000000000000000000000000000000000000\n      dup2\n      mstore\n      0x04\n      add\n      tag_198\n      swap2\n      swap1\n      tag_199\n      jump\t// in\n    tag_198:\n      mload(0x40)\n      dup1\n      swap2\n      sub\n      swap1\n      revert\n        /* \"#utility.yul\":88:205   */\n    tag_201:\n        /* \"#utility.yul\":197:198   */\n      0x00\n        /* \"#utility.yul\":194:195   */\n      dup1\n        /* \"#utility.yul\":187:199   */\n      revert\n        /* \"#utility.yul\":334:435   */\n    tag_203:\n        /* \"#utility.yul\":370:377   */\n      0x00\n        /* \"#utility.yul\":410:428   */\n      0xffffffffffffffff\n        /* \"#utility.yul\":403:408   */\n      dup3\n        /* \"#utility.yul\":399:429   */\n      and\n        /* \"#utility.yul\":388:429   */\n      swap1\n      pop\n        /* \"#utility.yul\":334:435   */\n      swap2\n      swap1\n      pop\n      jump\t// out\n        /* \"#utility.yul\":441:561   */\n    tag_204:\n        /* \"#utility.yul\":513:536   */\n      tag_244\n        /* \"#utility.yul\":530:535   */\n      dup2\n        /* \"#utility.yul\":513:536   */\n      tag_203\n      jump\t// in\n    tag_244:\n        /* \"#utility.yul\":506:511   */\n      dup2\n        /* \"#utility.yul\":503:537   */\n      eq\n        /* \"#utility.yul\":493:555   */\n      tag_245\n      jumpi\n        /* \"#utility.yul\":551:552   */\n      0x00\n        /* \"#utility.yul\":548:549   */\n      dup1\n        /* \"#utility.yul\":541:553   */\n      revert\n        /* \"#utility.yul\":493:555   */\n    tag_245:\n        /* \"#utility.yul\":441:561   */\n      pop\n      jump\t// out\n        /* \"#utility.yul\":567:704   */\n    tag_205:\n        /* \"#utility.yul\":612:617   */\n      0x00\n        /* \"#utility.yul\":650:656   */\n      dup2\n        /* \"#utility.yul\":637:657   */\n      calldataload\n        /* \"#utility.yul\":628:657   */\n      swap1\n      pop\n        /* \"#utility.yul\":666:698   */\n      tag_247\n        /* \"#utility.yul\":692:697   */\n      dup2\n        /* \"#utility.yul\":666:698   */\n      tag_204\n      jump\t// in\n    tag_247:\n        /* \"#utility.yul\":567:704   */\n      swap3\n      swap2\n      pop\n      pop\n      jump\t// out\n        /* \"#utility.yul\":710:1037   */\n    tag_17:\n        /* \"#utility.yul\":768:774   */\n      0x00\n        /* \"#utility.yul\":817:819   */\n      0x20\n        /* \"#utility.yul\":805:814   */\n      dup3\n        /* \"#utility.yul\":796:803   */\n      dup5\n        /* \"#utility.yul\":792:815   */\n      sub\n        /* \"#utility.yul\":788:820   */\n      slt\n        /* \"#utility.yul\":785:904   */\n      iszero\n      tag_249\n      jumpi\n        /* \"#utility.yul\":823:902   */\n      tag_250\n      tag_201\n      jump\t// in\n    tag_250:\n        /* \"#utility.yul\":785:904   */\n    tag_249:\n        /* \"#utility.yul\":943:944   */\n      0x00\n        /* \"#utility.yul\":968:1020   */\n      tag_251\n        /* \"#utility.yul\":1012:1019   */\n      dup5\n        /* \"#utility.yul\":1003:1009   */\n      dup3\n        /* \"#utility.yul\":992:1001   */\n      dup6\n        /* \"#utility.yul\":988:1010   */\n      add\n        /* \"#utility.yul\":968:1020   */\n      tag_205\n      jump\t// in\n    tag_251:\n        /* \"#utility.yul\":958:1020   */\n      swap2\n      pop\n        /* \"#utility.yul\":914:1030   */\n      pop\n        /* \"#utility.yul\":710:1037   */\n      swap3\n      swap2\n      pop\n      pop\n      jump\t// out\n        /* \"#utility.yul\":1043:1169   */\n    tag_206:\n        /* \"#utility.yul\":1080:1087   */\n      0x00\n        /* \"#utility.yul\":1120:1162   */\n      0xffffffffffffffffffffffffffffffffffffffff\n        /* \"#utility.yul\":1113:1118   */\n      dup3\n        /* \"#utility.yul\":1109:1163   */\n      and\n        /* \"#utility.yul\":1098:1163   */\n      swap1\n      pop\n        /* \"#utility.yul\":1043:1169   */\n      swap2\n      swap1\n      pop\n      jump\t// out\n        /* \"#utility.yul\":1175:1271   */\n    tag_207:\n        /* \"#utility.yul\":1212:1219   */\n      0x00\n        /* \"#utility.yul\":1241:1265   */\n      tag_254\n        /* \"#utility.yul\":1259:1264   */\n      dup3\n        /* \"#utility.yul\":1241:1265   */\n      tag_206\n      jump\t// in\n    tag_254:\n        /* \"#utility.yul\":1230:1265   */\n      swap1\n      pop\n        /* \"#utility.yul\":1175:1271   */\n      swap2\n      swap1\n      pop\n      jump\t// out\n        /* \"#utility.yul\":1277:1399   */\n    tag_208:\n        /* \"#utility.yul\":1350:1374   */\n      tag_256\n        /* \"#utility.yul\":1368:1373   */\n      dup2\n        /* \"#utility.yul\":1350:1374   */\n      tag_207\n      jump\t// in\n    tag_256:\n        /* \"#utility.yul\":1343:1348   */\n      dup2\n        /* \"#utility.yul\":1340:1375   */\n      eq\n        /* \"#utility.yul\":1330:1393   */\n      tag_257\n      jumpi\n        /* \"#utility.yul\":1389:1390   */\n      0x00\n        /* \"#utility.yul\":1386:1387   */\n      dup1\n        /* \"#utility.yul\":1379:1391   */\n      revert\n        /* \"#utility.yul\":1330:1393   */\n    tag_257:\n        /* \"#utility.yul\":1277:1399   */\n      pop\n      jump\t// out\n        /* \"#utility.yul\":1405:1544   */\n    tag_209:\n        /* \"#utility.yul\":1451:1456   */\n      0x00\n        /* \"#utility.yul\":1489:1495   */\n      dup2\n        /* \"#utility.yul\":1476:1496   */\n      calldataload\n        /* \"#utility.yul\":1467:1496   */\n      swap1\n      pop\n        /* \"#utility.yul\":1505:1538   */\n      tag_259\n        /* \"#utility.yul\":1532:1537   */\n      dup2\n        /* \"#utility.yul\":1505:1538   */\n      tag_208\n      jump\t// in\n    tag_259:\n        /* \"#utility.yul\":1405:1544   */\n      swap3\n      swap2\n      pop\n      pop\n      jump\t// out\n        /* \"#utility.yul\":1550:1627   */\n    tag_210:\n        /* \"#utility.yul\":1587:1594   */\n      0x00\n        /* \"#utility.yul\":1616:1621   */\n      dup2\n        /* \"#utility.yul\":1605:1621   */\n      swap1\n      pop\n        /* \"#utility.yul\":1550:1627   */\n      swap2\n      swap1\n      pop\n      jump\t// out\n        /* \"#utility.yul\":1633:1755   */\n    tag_211:\n        /* \"#utility.yul\":1706:1730   */\n      tag_262\n        /* \"#utility.yul\":1724:1729   */\n      dup2\n        /* \"#utility.yul\":1706:1730   */\n      tag_210\n      jump\t// in\n    tag_262:\n        /* \"#utility.yul\":1699:1704   */\n      dup2\n        /* \"#utility.yul\":1696:1731   */\n      eq\n        /* \"#utility.yul\":1686:1749   */\n      tag_263\n      jumpi\n        /* \"#utility.yul\":1745:1746   */\n      0x00\n        /* \"#utility.yul\":1742:1743   */\n      dup1\n        /* \"#utility.yul\":1735:1747   */\n      revert\n        /* \"#utility.yul\":1686:1749   */\n    tag_263:\n        /* \"#utility.yul\":1633:1755   */\n      pop\n      jump\t// out\n        /* \"#utility.yul\":1761:1900   */\n    tag_212:\n        /* \"#utility.yul\":1807:1812   */\n      0x00\n        /* \"#utility.yul\":1845:1851   */\n      dup2\n        /* \"#utility.yul\":1832:1852   */\n      calldataload\n        /* \"#utility.yul\":1823:1852   */\n      swap1\n      pop\n        /* \"#utility.yul\":1861:1894   */\n      tag_265\n        /* \"#utility.yul\":1888:1893   */\n      dup2\n        /* \"#utility.yul\":1861:1894   */\n      tag_211\n      jump\t// in\n    tag_265:\n        /* \"#utility.yul\":1761:1900   */\n      swap3\n      swap2\n      pop\n      pop\n      jump\t// out\n        /* \"#utility.yul\":1906:2380   */\n    tag_24:\n        /* \"#utility.yul\":1974:1980   */\n      0x00\n        /* \"#utility.yul\":1982:1988   */\n      dup1\n        /* \"#utility.yul\":2031:2033   */\n      0x40\n        /* \"#utility.yul\":2019:2028   */\n      dup4\n        /* \"#utility.yul\":2010:2017   */\n      dup6\n        /* \"#utility.yul\":2006:2029   */\n      sub\n        /* \"#utility.yul\":2002:2034   */\n      slt\n        /* \"#utility.yul\":1999:2118   */\n      iszero\n      tag_267\n      jumpi\n        /* \"#utility.yul\":2037:2116   */\n      tag_268\n      tag_201\n      jump\t// in\n    tag_268:\n        /* \"#utility.yul\":1999:2118   */\n    tag_267:\n        /* \"#utility.yul\":2157:2158   */\n      0x00\n        /* \"#utility.yul\":2182:2235   */\n      tag_269\n        /* \"#utility.yul\":2227:2234   */\n      dup6\n        /* \"#utility.yul\":2218:2224   */\n      dup3\n        /* \"#utility.yul\":2207:2216   */\n      dup7\n        /* \"#utility.yul\":2203:2225   */\n      add\n        /* \"#utility.yul\":2182:2235   */\n      tag_209\n      jump\t// in\n    tag_269:\n        /* \"#utility.yul\":2172:2235   */\n      swap3\n      pop\n        /* \"#utility.yul\":2128:2245   */\n      pop\n        /* \"#utility.yul\":2284:2286   */\n      0x20\n        /* \"#utility.yul\":2310:2363   */\n      tag_270\n        /* \"#utility.yul\":2355:2362   */\n      dup6\n        /* \"#utility.yul\":2346:2352   */\n      dup3\n        /* \"#utility.yul\":2335:2344   */\n      dup7\n        /* \"#utility.yul\":2331:2353   */\n      add\n        /* \"#utility.yul\":2310:2363   */\n      tag_212\n      jump\t// in\n    tag_270:\n        /* \"#utility.yul\":2300:2363   */\n      swap2\n      pop\n        /* \"#utility.yul\":2255:2373   */\n      pop\n        /* \"#utility.yul\":1906:2380   */\n      swap3\n      pop\n      swap3\n      swap1\n      pop\n      jump\t// out\n        /* \"#utility.yul\":2386:2476   */\n    tag_213:\n        /* \"#utility.yul\":2420:2427   */\n      0x00\n        /* \"#utility.yul\":2463:2468   */\n      dup2\n        /* \"#utility.yul\":2456:2469   */\n      iszero\n        /* \"#utility.yul\":2449:2470   */\n      iszero\n        /* \"#utility.yul\":2438:2470   */\n      swap1\n      pop\n        /* \"#utility.yul\":2386:2476   */\n      swap2\n      swap1\n      pop\n      jump\t// out\n        /* \"#utility.yul\":2482:2591   */\n    tag_214:\n        /* \"#utility.yul\":2563:2584   */\n      tag_273\n        /* \"#utility.yul\":2578:2583   */\n      dup2\n        /* \"#utility.yul\":2563:2584   */\n      tag_213\n      jump\t// in\n    tag_273:\n        /* \"#utility.yul\":2558:2561   */\n      dup3\n        /* \"#utility.yul\":2551:2585   */\n      mstore\n        /* \"#utility.yul\":2482:2591   */\n      pop\n      pop\n      jump\t// out\n        /* \"#utility.yul\":2597:2807   */\n    tag_27:\n        /* \"#utility.yul\":2684:2688   */\n      0x00\n        /* \"#utility.yul\":2722:2724   */\n      0x20\n        /* \"#utility.yul\":2711:2720   */\n      dup3\n        /* \"#utility.yul\":2707:2725   */\n      add\n        /* \"#utility.yul\":2699:2725   */\n      swap1\n      pop\n        /* \"#utility.yul\":2735:2800   */\n      tag_275\n        /* \"#utility.yul\":2797:2798   */\n      0x00\n        /* \"#utility.yul\":2786:2795   */\n      dup4\n        /* \"#utility.yul\":2782:2799   */\n      add\n        /* \"#utility.yul\":2773:2779   */\n      dup5\n        /* \"#utility.yul\":2735:2800   */\n      tag_214\n      jump\t// in\n    tag_275:\n        /* \"#utility.yul\":2597:2807   */\n      swap3\n      swap2\n      pop\n      pop\n      jump\t// out\n        /* \"#utility.yul\":2813:2931   */\n    tag_215:\n        /* \"#utility.yul\":2850:2857   */\n      0x00\n        /* \"#utility.yul\":2890:2924   */\n      0xffffffffffffffffffffffffffffffff\n        /* \"#utility.yul\":2883:2888   */\n      dup3\n        /* \"#utility.yul\":2879:2925   */\n      and\n        /* \"#utility.yul\":2868:2925   */\n      swap1\n      pop\n        /* \"#utility.yul\":2813:2931   */\n      swap2\n      swap1\n      pop\n      jump\t// out\n        /* \"#utility.yul\":2937:3059   */\n    tag_216:\n        /* \"#utility.yul\":3010:3034   */\n      tag_278\n        /* \"#utility.yul\":3028:3033   */\n      dup2\n        /* \"#utility.yul\":3010:3034   */\n      tag_215\n      jump\t// in\n    tag_278:\n        /* \"#utility.yul\":3003:3008   */\n      dup2\n        /* \"#utility.yul\":3000:3035   */\n      eq\n        /* \"#utility.yul\":2990:3053   */\n      tag_279\n      jumpi\n        /* \"#utility.yul\":3049:3050   */\n      0x00\n        /* \"#utility.yul\":3046:3047   */\n      dup1\n        /* \"#utility.yul\":3039:3051   */\n      revert\n        /* \"#utility.yul\":2990:3053   */\n    tag_279:\n        /* \"#utility.yul\":2937:3059   */\n      pop\n      jump\t// out\n        /* \"#utility.yul\":3065:3204   */\n    tag_217:\n        /* \"#utility.yul\":3111:3116   */\n      0x00\n        /* \"#utility.yul\":3149:3155   */\n      dup2\n        /* \"#utility.yul\":3136:3156   */\n      calldataload\n        /* \"#utility.yul\":3127:3156   */\n      swap1\n      pop\n        /* \"#utility.yul\":3165:3198   */\n      tag_281\n        /* \"#utility.yul\":3192:3197   */\n      dup2\n        /* \"#utility.yul\":3165:3198   */\n      tag_216\n      jump\t// in\n    tag_281:\n        /* \"#utility.yul\":3065:3204   */\n      swap3\n      swap2\n      pop\n      pop\n      jump\t// out\n        /* \"#utility.yul\":3210:3684   */\n    tag_36:\n        /* \"#utility.yul\":3278:3284   */\n      0x00\n        /* \"#utility.yul\":3286:3292   */\n      dup1\n        /* \"#utility.yul\":3335:3337   */\n      0x40\n        /* \"#utility.yul\":3323:3332   */\n      dup4\n        /* \"#utility.yul\":3314:3321   */\n      dup6\n        /* \"#utility.yul\":3310:3333   */\n      sub\n        /* \"#utility.yul\":3306:3338   */\n      slt\n        /* \"#utility.yul\":3303:3422   */\n      iszero\n      tag_283\n      jumpi\n        /* \"#utility.yul\":3341:3420   */\n      tag_284\n      tag_201\n      jump\t// in\n    tag_284:\n        /* \"#utility.yul\":3303:3422   */\n    tag_283:\n        /* \"#utility.yul\":3461:3462   */\n      0x00\n        /* \"#utility.yul\":3486:3539   */\n      tag_285\n        /* \"#utility.yul\":3531:3538   */\n      dup6\n        /* \"#utility.yul\":3522:3528   */\n      dup3\n        /* \"#utility.yul\":3511:3520   */\n      dup7\n        /* \"#utility.yul\":3507:3529   */\n      add\n        /* \"#utility.yul\":3486:3539   */\n      tag_217\n      jump\t// in\n    tag_285:\n        /* \"#utility.yul\":3476:3539   */\n      swap3\n      pop\n        /* \"#utility.yul\":3432:3549   */\n      pop\n        /* \"#utility.yul\":3588:3590   */\n      0x20\n        /* \"#utility.yul\":3614:3667   */\n      tag_286\n        /* \"#utility.yul\":3659:3666   */\n      dup6\n        /* \"#utility.yul\":3650:3656   */\n      dup3\n        /* \"#utility.yul\":3639:3648   */\n      dup7\n        /* \"#utility.yul\":3635:3657   */\n      add\n        /* \"#utility.yul\":3614:3667   */\n      tag_217\n      jump\t// in\n    tag_286:\n        /* \"#utility.yul\":3604:3667   */\n      swap2\n      pop\n        /* \"#utility.yul\":3559:3677   */\n      pop\n        /* \"#utility.yul\":3210:3684   */\n      swap3\n      pop\n      swap3\n      swap1\n      pop\n      jump\t// out\n        /* \"#utility.yul\":3690:3808   */\n    tag_218:\n        /* \"#utility.yul\":3777:3801   */\n      tag_288\n        /* \"#utility.yul\":3795:3800   */\n      dup2\n        /* \"#utility.yul\":3777:3801   */\n      tag_210\n      jump\t// in\n    tag_288:\n        /* \"#utility.yul\":3772:3775   */\n      dup3\n        /* \"#utility.yul\":3765:3802   */\n      mstore\n        /* \"#utility.yul\":3690:3808   */\n      pop\n      pop\n      jump\t// out\n        /* \"#utility.yul\":3814:4036   */\n    tag_39:\n        /* \"#utility.yul\":3907:3911   */\n      0x00\n        /* \"#utility.yul\":3945:3947   */\n      0x20\n        /* \"#utility.yul\":3934:3943   */\n      dup3\n        /* \"#utility.yul\":3930:3948   */\n      add\n        /* \"#utility.yul\":3922:3948   */\n      swap1\n      pop\n        /* \"#utility.yul\":3958:4029   */\n      tag_290\n        /* \"#utility.yul\":4026:4027   */\n      0x00\n        /* \"#utility.yul\":4015:4024   */\n      dup4\n        /* \"#utility.yul\":4011:4028   */\n      add\n        /* \"#utility.yul\":4002:4008   */\n      dup5\n        /* \"#utility.yul\":3958:4029   */\n      tag_218\n      jump\t// in\n    tag_290:\n        /* \"#utility.yul\":3814:4036   */\n      swap3\n      swap2\n      pop\n      pop\n      jump\t// out\n        /* \"#utility.yul\":4042:4661   */\n    tag_49:\n        /* \"#utility.yul\":4119:4125   */\n      0x00\n        /* \"#utility.yul\":4127:4133   */\n      dup1\n        /* \"#utility.yul\":4135:4141   */\n      0x00\n        /* \"#utility.yul\":4184:4186   */\n      0x60\n        /* \"#utility.yul\":4172:4181   */\n      dup5\n        /* \"#utility.yul\":4163:4170   */\n      dup7\n        /* \"#utility.yul\":4159:4182   */\n      sub\n        /* \"#utility.yul\":4155:4187   */\n      slt\n        /* \"#utility.yul\":4152:4271   */\n      iszero\n      tag_292\n      jumpi\n        /* \"#utility.yul\":4190:4269   */\n      tag_293\n      tag_201\n      jump\t// in\n    tag_293:\n        /* \"#utility.yul\":4152:4271   */\n    tag_292:\n        /* \"#utility.yul\":4310:4311   */\n      0x00\n        /* \"#utility.yul\":4335:4388   */\n      tag_294\n        /* \"#utility.yul\":4380:4387   */\n      dup7\n        /* \"#utility.yul\":4371:4377   */\n      dup3\n        /* \"#utility.yul\":4360:4369   */\n      dup8\n        /* \"#utility.yul\":4356:4378   */\n      add\n        /* \"#utility.yul\":4335:4388   */\n      tag_209\n      jump\t// in\n    tag_294:\n        /* \"#utility.yul\":4325:4388   */\n      swap4\n      pop\n        /* \"#utility.yul\":4281:4398   */\n      pop\n        /* \"#utility.yul\":4437:4439   */\n      0x20\n        /* \"#utility.yul\":4463:4516   */\n      tag_295\n        /* \"#utility.yul\":4508:4515   */\n      dup7\n        /* \"#utility.yul\":4499:4505   */\n      dup3\n        /* \"#utility.yul\":4488:4497   */\n      dup8\n        /* \"#utility.yul\":4484:4506   */\n      add\n        /* \"#utility.yul\":4463:4516   */\n      tag_217\n      jump\t// in\n    tag_295:\n        /* \"#utility.yul\":4453:4516   */\n      swap3\n      pop\n        /* \"#utility.yul\":4408:4526   */\n      pop\n        /* \"#utility.yul\":4565:4567   */\n      0x40\n        /* \"#utility.yul\":4591:4644   */\n      tag_296\n        /* \"#utility.yul\":4636:4643   */\n      dup7\n        /* \"#utility.yul\":4627:4633   */\n      dup3\n        /* \"#utility.yul\":4616:4625   */\n      dup8\n        /* \"#utility.yul\":4612:4634   */\n      add\n        /* \"#utility.yul\":4591:4644   */\n      tag_217\n      jump\t// in\n    tag_296:\n        /* \"#utility.yul\":4581:4644   */\n      swap2\n      pop\n        /* \"#utility.yul\":4536:4654   */\n      pop\n        /* \"#utility.yul\":4042:4661   */\n      swap3\n      pop\n      swap3\n      pop\n      swap3\n      jump\t// out\n        /* \"#utility.yul\":4667:4847   */\n    tag_219:\n        /* \"#utility.yul\":4715:4792   */\n      0x4e487b7100000000000000000000000000000000000000000000000000000000\n        /* \"#utility.yul\":4712:4713   */\n      0x00\n        /* \"#utility.yul\":4705:4793   */\n      mstore\n        /* \"#utility.yul\":4812:4816   */\n      0x11\n        /* \"#utility.yul\":4809:4810   */\n      0x04\n        /* \"#utility.yul\":4802:4817   */\n      mstore\n        /* \"#utility.yul\":4836:4840   */\n      0x24\n        /* \"#utility.yul\":4833:4834   */\n      0x00\n        /* \"#utility.yul\":4826:4841   */\n      revert\n        /* \"#utility.yul\":4853:5047   */\n    tag_81:\n        /* \"#utility.yul\":4893:4897   */\n      0x00\n        /* \"#utility.yul\":4913:4933   */\n      tag_299\n        /* \"#utility.yul\":4931:4932   */\n      dup3\n        /* \"#utility.yul\":4913:4933   */\n      tag_210\n      jump\t// in\n    tag_299:\n        /* \"#utility.yul\":4908:4933   */\n      swap2\n      pop\n        /* \"#utility.yul\":4947:4967   */\n      tag_300\n        /* \"#utility.yul\":4965:4966   */\n      dup4\n        /* \"#utility.yul\":4947:4967   */\n      tag_210\n      jump\t// in\n    tag_300:\n        /* \"#utility.yul\":4942:4967   */\n      swap3\n      pop\n        /* \"#utility.yul\":4991:4992   */\n      dup3\n        /* \"#utility.yul\":4988:4989   */\n      dup3\n        /* \"#utility.yul\":4984:4993   */\n      sub\n        /* \"#utility.yul\":4976:4993   */\n      swap1\n      pop\n        /* \"#utility.yul\":5015:5016   */\n      dup2\n        /* \"#utility.yul\":5009:5013   */\n      dup2\n        /* \"#utility.yul\":5006:5017   */\n      gt\n        /* \"#utility.yul\":5003:5040   */\n      iszero\n      tag_301\n      jumpi\n        /* \"#utility.yul\":5020:5038   */\n      tag_302\n      tag_219\n      jump\t// in\n    tag_302:\n        /* \"#utility.yul\":5003:5040   */\n    tag_301:\n        /* \"#utility.yul\":4853:5047   */\n      swap3\n      swap2\n      pop\n      pop\n      jump\t// out\n        /* \"#utility.yul\":5053:5332   */\n    tag_85:\n        /* \"#utility.yul\":5093:5100   */\n      0x00\n        /* \"#utility.yul\":5116:5136   */\n      tag_304\n        /* \"#utility.yul\":5134:5135   */\n      dup3\n        /* \"#utility.yul\":5116:5136   */\n      tag_215\n      jump\t// in\n    tag_304:\n        /* \"#utility.yul\":5111:5136   */\n      swap2\n      pop\n        /* \"#utility.yul\":5150:5170   */\n      tag_305\n        /* \"#utility.yul\":5168:5169   */\n      dup4\n        /* \"#utility.yul\":5150:5170   */\n      tag_215\n      jump\t// in\n    tag_305:\n        /* \"#utility.yul\":5145:5170   */\n      swap3\n      pop\n        /* \"#utility.yul\":5205:5206   */\n      dup3\n        /* \"#utility.yul\":5202:5203   */\n      dup3\n        /* \"#utility.yul\":5198:5207   */\n      mul\n        /* \"#utility.yul\":5227:5257   */\n      tag_306\n        /* \"#utility.yul\":5245:5256   */\n      dup2\n        /* \"#utility.yul\":5227:5257   */\n      tag_215\n      jump\t// in\n    tag_306:\n        /* \"#utility.yul\":5216:5257   */\n      swap2\n      pop\n        /* \"#utility.yul\":5289:5300   */\n      dup1\n        /* \"#utility.yul\":5280:5287   */\n      dup3\n        /* \"#utility.yul\":5277:5301   */\n      eq\n        /* \"#utility.yul\":5267:5325   */\n      tag_307\n      jumpi\n        /* \"#utility.yul\":5305:5323   */\n      tag_308\n      tag_219\n      jump\t// in\n    tag_308:\n        /* \"#utility.yul\":5267:5325   */\n    tag_307:\n        /* \"#utility.yul\":5101:5332   */\n      pop\n        /* \"#utility.yul\":5053:5332   */\n      swap3\n      swap2\n      pop\n      pop\n      jump\t// out\n        /* \"#utility.yul\":5338:5748   */\n    tag_109:\n        /* \"#utility.yul\":5378:5385   */\n      0x00\n        /* \"#utility.yul\":5401:5421   */\n      tag_310\n        /* \"#utility.yul\":5419:5420   */\n      dup3\n        /* \"#utility.yul\":5401:5421   */\n      tag_210\n      jump\t// in\n    tag_310:\n        /* \"#utility.yul\":5396:5421   */\n      swap2\n      pop\n        /* \"#utility.yul\":5435:5455   */\n      tag_311\n        /* \"#utility.yul\":5453:5454   */\n      dup4\n        /* \"#utility.yul\":5435:5455   */\n      tag_210\n      jump\t// in\n    tag_311:\n        /* \"#utility.yul\":5430:5455   */\n      swap3\n      pop\n        /* \"#utility.yul\":5490:5491   */\n      dup3\n        /* \"#utility.yul\":5487:5488   */\n      dup3\n        /* \"#utility.yul\":5483:5492   */\n      mul\n        /* \"#utility.yul\":5512:5542   */\n      tag_312\n        /* \"#utility.yul\":5530:5541   */\n      dup2\n        /* \"#utility.yul\":5512:5542   */\n      tag_210\n      jump\t// in\n    tag_312:\n        /* \"#utility.yul\":5501:5542   */\n      swap2\n      pop\n        /* \"#utility.yul\":5691:5692   */\n      dup3\n        /* \"#utility.yul\":5682:5689   */\n      dup3\n        /* \"#utility.yul\":5678:5693   */\n      div\n        /* \"#utility.yul\":5675:5676   */\n      dup5\n        /* \"#utility.yul\":5672:5694   */\n      eq\n        /* \"#utility.yul\":5652:5653   */\n      dup4\n        /* \"#utility.yul\":5645:5654   */\n      iszero\n        /* \"#utility.yul\":5625:5708   */\n      or\n        /* \"#utility.yul\":5602:5741   */\n      tag_313\n      jumpi\n        /* \"#utility.yul\":5721:5739   */\n      tag_314\n      tag_219\n      jump\t// in\n    tag_314:\n        /* \"#utility.yul\":5602:5741   */\n    tag_313:\n        /* \"#utility.yul\":5386:5748   */\n      pop\n        /* \"#utility.yul\":5338:5748   */\n      swap3\n      swap2\n      pop\n      pop\n      jump\t// out\n        /* \"#utility.yul\":5754:5934   */\n    tag_220:\n        /* \"#utility.yul\":5802:5879   */\n      0x4e487b7100000000000000000000000000000000000000000000000000000000\n        /* \"#utility.yul\":5799:5800   */\n      0x00\n        /* \"#utility.yul\":5792:5880   */\n      mstore\n        /* \"#utility.yul\":5899:5903   */\n      0x12\n        /* \"#utility.yul\":5896:5897   */\n      0x04\n        /* \"#utility.yul\":5889:5904   */\n      mstore\n        /* \"#utility.yul\":5923:5927   */\n      0x24\n        /* \"#utility.yul\":5920:5921   */\n      0x00\n        /* \"#utility.yul\":5913:5928   */\n      revert\n        /* \"#utility.yul\":5940:6125   */\n    tag_111:\n        /* \"#utility.yul\":5980:5981   */\n      0x00\n        /* \"#utility.yul\":5997:6017   */\n      tag_317\n        /* \"#utility.yul\":6015:6016   */\n      dup3\n        /* \"#utility.yul\":5997:6017   */\n      tag_210\n      jump\t// in\n    tag_317:\n        /* \"#utility.yul\":5992:6017   */\n      swap2\n      pop\n        /* \"#utility.yul\":6031:6051   */\n      tag_318\n        /* \"#utility.yul\":6049:6050   */\n      dup4\n        /* \"#utility.yul\":6031:6051   */\n      tag_210\n      jump\t// in\n    tag_318:\n        /* \"#utility.yul\":6026:6051   */\n      swap3\n      pop\n        /* \"#utility.yul\":6070:6071   */\n      dup3\n        /* \"#utility.yul\":6060:6095   */\n      tag_319\n      jumpi\n        /* \"#utility.yul\":6075:6093   */\n      tag_320\n      tag_220\n      jump\t// in\n    tag_320:\n        /* \"#utility.yul\":6060:6095   */\n    tag_319:\n        /* \"#utility.yul\":6117:6118   */\n      dup3\n        /* \"#utility.yul\":6114:6115   */\n      dup3\n        /* \"#utility.yul\":6110:6119   */\n      div\n        /* \"#utility.yul\":6105:6119   */\n      swap1\n      pop\n        /* \"#utility.yul\":5940:6125   */\n      swap3\n      swap2\n      pop\n      pop\n      jump\t// out\n        /* \"#utility.yul\":6131:6314   */\n    tag_136:\n        /* \"#utility.yul\":6169:6172   */\n      0x00\n        /* \"#utility.yul\":6192:6215   */\n      tag_322\n        /* \"#utility.yul\":6209:6214   */\n      dup3\n        /* \"#utility.yul\":6192:6215   */\n      tag_203\n      jump\t// in\n    tag_322:\n        /* \"#utility.yul\":6183:6215   */\n      swap2\n      pop\n        /* \"#utility.yul\":6237:6255   */\n      0xffffffffffffffff\n        /* \"#utility.yul\":6230:6235   */\n      dup3\n        /* \"#utility.yul\":6227:6256   */\n      sub\n        /* \"#utility.yul\":6224:6279   */\n      tag_323\n      jumpi\n        /* \"#utility.yul\":6259:6277   */\n      tag_324\n      tag_219\n      jump\t// in\n    tag_324:\n        /* \"#utility.yul\":6224:6279   */\n    tag_323:\n        /* \"#utility.yul\":6306:6307   */\n      0x01\n        /* \"#utility.yul\":6299:6304   */\n      dup3\n        /* \"#utility.yul\":6295:6308   */\n      add\n        /* \"#utility.yul\":6288:6308   */\n      swap1\n      pop\n        /* \"#utility.yul\":6131:6314   */\n      swap2\n      swap1\n      pop\n      jump\t// out\n        /* \"#utility.yul\":6320:6438   */\n    tag_221:\n        /* \"#utility.yul\":6407:6431   */\n      tag_326\n        /* \"#utility.yul\":6425:6430   */\n      dup2\n        /* \"#utility.yul\":6407:6431   */\n      tag_207\n      jump\t// in\n    tag_326:\n        /* \"#utility.yul\":6402:6405   */\n      dup3\n        /* \"#utility.yul\":6395:6432   */\n      mstore\n        /* \"#utility.yul\":6320:6438   */\n      pop\n      pop\n      jump\t// out\n        /* \"#utility.yul\":6444:6886   */\n    tag_141:\n        /* \"#utility.yul\":6593:6597   */\n      0x00\n        /* \"#utility.yul\":6631:6633   */\n      0x60\n        /* \"#utility.yul\":6620:6629   */\n      dup3\n        /* \"#utility.yul\":6616:6634   */\n      add\n        /* \"#utility.yul\":6608:6634   */\n      swap1\n      pop\n        /* \"#utility.yul\":6644:6715   */\n      tag_328\n        /* \"#utility.yul\":6712:6713   */\n      0x00\n        /* \"#utility.yul\":6701:6710   */\n      dup4\n        /* \"#utility.yul\":6697:6714   */\n      add\n        /* \"#utility.yul\":6688:6694   */\n      dup7\n        /* \"#utility.yul\":6644:6715   */\n      tag_221\n      jump\t// in\n    tag_328:\n        /* \"#utility.yul\":6725:6797   */\n      tag_329\n        /* \"#utility.yul\":6793:6795   */\n      0x20\n        /* \"#utility.yul\":6782:6791   */\n      dup4\n        /* \"#utility.yul\":6778:6796   */\n      add\n        /* \"#utility.yul\":6769:6775   */\n      dup6\n        /* \"#utility.yul\":6725:6797   */\n      tag_221\n      jump\t// in\n    tag_329:\n        /* \"#utility.yul\":6807:6879   */\n      tag_330\n        /* \"#utility.yul\":6875:6877   */\n      0x40\n        /* \"#utility.yul\":6864:6873   */\n      dup4\n        /* \"#utility.yul\":6860:6878   */\n      add\n        /* \"#utility.yul\":6851:6857   */\n      dup5\n        /* \"#utility.yul\":6807:6879   */\n      tag_218\n      jump\t// in\n    tag_330:\n        /* \"#utility.yul\":6444:6886   */\n      swap5\n      swap4\n      pop\n      pop\n      pop\n      pop\n      jump\t// out\n        /* \"#utility.yul\":6892:7224   */\n    tag_159:\n        /* \"#utility.yul\":7013:7017   */\n      0x00\n        /* \"#utility.yul\":7051:7053   */\n      0x40\n        /* \"#utility.yul\":7040:7049   */\n      dup3\n        /* \"#utility.yul\":7036:7054   */\n      add\n        /* \"#utility.yul\":7028:7054   */\n      swap1\n      pop\n        /* \"#utility.yul\":7064:7135   */\n      tag_332\n        /* \"#utility.yul\":7132:7133   */\n      0x00\n        /* \"#utility.yul\":7121:7130   */\n      dup4\n        /* \"#utility.yul\":7117:7134   */\n      add\n        /* \"#utility.yul\":7108:7114   */\n      dup6\n        /* \"#utility.yul\":7064:7135   */\n      tag_221\n      jump\t// in\n    tag_332:\n        /* \"#utility.yul\":7145:7217   */\n      tag_333\n        /* \"#utility.yul\":7213:7215   */\n      0x20\n        /* \"#utility.yul\":7202:7211   */\n      dup4\n        /* \"#utility.yul\":7198:7216   */\n      add\n        /* \"#utility.yul\":7189:7195   */\n      dup5\n        /* \"#utility.yul\":7145:7217   */\n      tag_218\n      jump\t// in\n    tag_333:\n        /* \"#utility.yul\":6892:7224   */\n      swap4\n      swap3\n      pop\n      pop\n      pop\n      jump\t// out\n        /* \"#utility.yul\":7230:7346   */\n    tag_222:\n        /* \"#utility.yul\":7300:7321   */\n      tag_335\n        /* \"#utility.yul\":7315:7320   */\n      dup2\n        /* \"#utility.yul\":7300:7321   */\n      tag_213\n      jump\t// in\n    tag_335:\n        /* \"#utility.yul\":7293:7298   */\n      dup2\n        /* \"#utility.yul\":7290:7322   */\n      eq\n        /* \"#utility.yul\":7280:7340   */\n      tag_336\n      jumpi\n        /* \"#utility.yul\":7336:7337   */\n      0x00\n        /* \"#utility.yul\":7333:7334   */\n      dup1\n        /* \"#utility.yul\":7326:7338   */\n      revert\n        /* \"#utility.yul\":7280:7340   */\n    tag_336:\n        /* \"#utility.yul\":7230:7346   */\n      pop\n      jump\t// out\n        /* \"#utility.yul\":7352:7489   */\n    tag_223:\n        /* \"#utility.yul\":7406:7411   */\n      0x00\n        /* \"#utility.yul\":7437:7443   */\n      dup2\n        /* \"#utility.yul\":7431:7444   */\n      mload\n        /* \"#utility.yul\":7422:7444   */\n      swap1\n      pop\n        /* \"#utility.yul\":7453:7483   */\n      tag_338\n        /* \"#utility.yul\":7477:7482   */\n      dup2\n        /* \"#utility.yul\":7453:7483   */\n      tag_222\n      jump\t// in\n    tag_338:\n        /* \"#utility.yul\":7352:7489   */\n      swap3\n      swap2\n      pop\n      pop\n      jump\t// out\n        /* \"#utility.yul\":7495:7840   */\n    tag_165:\n        /* \"#utility.yul\":7562:7568   */\n      0x00\n        /* \"#utility.yul\":7611:7613   */\n      0x20\n        /* \"#utility.yul\":7599:7608   */\n      dup3\n        /* \"#utility.yul\":7590:7597   */\n      dup5\n        /* \"#utility.yul\":7586:7609   */\n      sub\n        /* \"#utility.yul\":7582:7614   */\n      slt\n        /* \"#utility.yul\":7579:7698   */\n      iszero\n      tag_340\n      jumpi\n        /* \"#utility.yul\":7617:7696   */\n      tag_341\n      tag_201\n      jump\t// in\n    tag_341:\n        /* \"#utility.yul\":7579:7698   */\n    tag_340:\n        /* \"#utility.yul\":7737:7738   */\n      0x00\n        /* \"#utility.yul\":7762:7823   */\n      tag_342\n        /* \"#utility.yul\":7815:7822   */\n      dup5\n        /* \"#utility.yul\":7806:7812   */\n      dup3\n        /* \"#utility.yul\":7795:7804   */\n      dup6\n        /* \"#utility.yul\":7791:7813   */\n      add\n        /* \"#utility.yul\":7762:7823   */\n      tag_223\n      jump\t// in\n    tag_342:\n        /* \"#utility.yul\":7752:7823   */\n      swap2\n      pop\n        /* \"#utility.yul\":7708:7833   */\n      pop\n        /* \"#utility.yul\":7495:7840   */\n      swap3\n      swap2\n      pop\n      pop\n      jump\t// out\n        /* \"#utility.yul\":7846:8015   */\n    tag_224:\n        /* \"#utility.yul\":7930:7941   */\n      0x00\n        /* \"#utility.yul\":7964:7970   */\n      dup3\n        /* \"#utility.yul\":7959:7962   */\n      dup3\n        /* \"#utility.yul\":7952:7971   */\n      mstore\n        /* \"#utility.yul\":8004:8008   */\n      0x20\n        /* \"#utility.yul\":7999:8002   */\n      dup3\n        /* \"#utility.yul\":7995:8009   */\n      add\n        /* \"#utility.yul\":7980:8009   */\n      swap1\n      pop\n        /* \"#utility.yul\":7846:8015   */\n      swap3\n      swap2\n      pop\n      pop\n      jump\t// out\n        /* \"#utility.yul\":8021:8250   */\n    tag_225:\n        /* \"#utility.yul\":8161:8195   */\n      0x5361666545524332303a204552433230206f7065726174696f6e20646964206e\n        /* \"#utility.yul\":8157:8158   */\n      0x00\n        /* \"#utility.yul\":8149:8155   */\n      dup3\n        /* \"#utility.yul\":8145:8159   */\n      add\n        /* \"#utility.yul\":8138:8196   */\n      mstore\n        /* \"#utility.yul\":8230:8242   */\n      0x6f74207375636365656400000000000000000000000000000000000000000000\n        /* \"#utility.yul\":8225:8227   */\n      0x20\n        /* \"#utility.yul\":8217:8223   */\n      dup3\n        /* \"#utility.yul\":8213:8228   */\n      add\n        /* \"#utility.yul\":8206:8243   */\n      mstore\n        /* \"#utility.yul\":8021:8250   */\n      pop\n      jump\t// out\n        /* \"#utility.yul\":8256:8622   */\n    tag_226:\n        /* \"#utility.yul\":8398:8401   */\n      0x00\n        /* \"#utility.yul\":8419:8486   */\n      tag_346\n        /* \"#utility.yul\":8483:8485   */\n      0x2a\n        /* \"#utility.yul\":8478:8481   */\n      dup4\n        /* \"#utility.yul\":8419:8486   */\n      tag_224\n      jump\t// in\n    tag_346:\n        /* \"#utility.yul\":8412:8486   */\n      swap2\n      pop\n        /* \"#utility.yul\":8495:8588   */\n      tag_347\n        /* \"#utility.yul\":8584:8587   */\n      dup3\n        /* \"#utility.yul\":8495:8588   */\n      tag_225\n      jump\t// in\n    tag_347:\n        /* \"#utility.yul\":8613:8615   */\n      0x40\n        /* \"#utility.yul\":8608:8611   */\n      dup3\n        /* \"#utility.yul\":8604:8616   */\n      add\n        /* \"#utility.yul\":8597:8616   */\n      swap1\n      pop\n        /* \"#utility.yul\":8256:8622   */\n      swap2\n      swap1\n      pop\n      jump\t// out\n        /* \"#utility.yul\":8628:9047   */\n    tag_168:\n        /* \"#utility.yul\":8794:8798   */\n      0x00\n        /* \"#utility.yul\":8832:8834   */\n      0x20\n        /* \"#utility.yul\":8821:8830   */\n      dup3\n        /* \"#utility.yul\":8817:8835   */\n      add\n        /* \"#utility.yul\":8809:8835   */\n      swap1\n      pop\n        /* \"#utility.yul\":8881:8890   */\n      dup2\n        /* \"#utility.yul\":8875:8879   */\n      dup2\n        /* \"#utility.yul\":8871:8891   */\n      sub\n        /* \"#utility.yul\":8867:8868   */\n      0x00\n        /* \"#utility.yul\":8856:8865   */\n      dup4\n        /* \"#utility.yul\":8852:8869   */\n      add\n        /* \"#utility.yul\":8845:8892   */\n      mstore\n        /* \"#utility.yul\":8909:9040   */\n      tag_349\n        /* \"#utility.yul\":9035:9039   */\n      dup2\n        /* \"#utility.yul\":8909:9040   */\n      tag_226\n      jump\t// in\n    tag_349:\n        /* \"#utility.yul\":8901:9040   */\n      swap1\n      pop\n        /* \"#utility.yul\":8628:9047   */\n      swap2\n      swap1\n      pop\n      jump\t// out\n        /* \"#utility.yul\":9053:9278   */\n    tag_227:\n        /* \"#utility.yul\":9193:9227   */\n      0x416464726573733a20696e73756666696369656e742062616c616e636520666f\n        /* \"#utility.yul\":9189:9190   */\n      0x00\n        /* \"#utility.yul\":9181:9187   */\n      dup3\n        /* \"#utility.yul\":9177:9191   */\n      add\n        /* \"#utility.yul\":9170:9228   */\n      mstore\n        /* \"#utility.yul\":9262:9270   */\n      0x722063616c6c0000000000000000000000000000000000000000000000000000\n        /* \"#utility.yul\":9257:9259   */\n      0x20\n        /* \"#utility.yul\":9249:9255   */\n      dup3\n        /* \"#utility.yul\":9245:9260   */\n      add\n        /* \"#utility.yul\":9238:9271   */\n      mstore\n        /* \"#utility.yul\":9053:9278   */\n      pop\n      jump\t// out\n        /* \"#utility.yul\":9284:9650   */\n    tag_228:\n        /* \"#utility.yul\":9426:9429   */\n      0x00\n        /* \"#utility.yul\":9447:9514   */\n      tag_352\n        /* \"#utility.yul\":9511:9513   */\n      0x26\n        /* \"#utility.yul\":9506:9509   */\n      dup4\n        /* \"#utility.yul\":9447:9514   */\n      tag_224\n      jump\t// in\n    tag_352:\n        /* \"#utility.yul\":9440:9514   */\n      swap2\n      pop\n        /* \"#utility.yul\":9523:9616   */\n      tag_353\n        /* \"#utility.yul\":9612:9615   */\n      dup3\n        /* \"#utility.yul\":9523:9616   */\n      tag_227\n      jump\t// in\n    tag_353:\n        /* \"#utility.yul\":9641:9643   */\n      0x40\n        /* \"#utility.yul\":9636:9639   */\n      dup3\n        /* \"#utility.yul\":9632:9644   */\n      add\n        /* \"#utility.yul\":9625:9644   */\n      swap1\n      pop\n        /* \"#utility.yul\":9284:9650   */\n      swap2\n      swap1\n      pop\n      jump\t// out\n        /* \"#utility.yul\":9656:10075   */\n    tag_175:\n        /* \"#utility.yul\":9822:9826   */\n      0x00\n        /* \"#utility.yul\":9860:9862   */\n      0x20\n        /* \"#utility.yul\":9849:9858   */\n      dup3\n        /* \"#utility.yul\":9845:9863   */\n      add\n        /* \"#utility.yul\":9837:9863   */\n      swap1\n      pop\n        /* \"#utility.yul\":9909:9918   */\n      dup2\n        /* \"#utility.yul\":9903:9907   */\n      dup2\n        /* \"#utility.yul\":9899:9919   */\n      sub\n        /* \"#utility.yul\":9895:9896   */\n      0x00\n        /* \"#utility.yul\":9884:9893   */\n      dup4\n        /* \"#utility.yul\":9880:9897   */\n      add\n        /* \"#utility.yul\":9873:9920   */\n      mstore\n        /* \"#utility.yul\":9937:10068   */\n      tag_355\n        /* \"#utility.yul\":10063:10067   */\n      dup2\n        /* \"#utility.yul\":9937:10068   */\n      tag_228\n      jump\t// in\n    tag_355:\n        /* \"#utility.yul\":9929:10068   */\n      swap1\n      pop\n        /* \"#utility.yul\":9656:10075   */\n      swap2\n      swap1\n      pop\n      jump\t// out\n        /* \"#utility.yul\":10081:10179   */\n    tag_229:\n        /* \"#utility.yul\":10132:10138   */\n      0x00\n        /* \"#utility.yul\":10166:10171   */\n      dup2\n        /* \"#utility.yul\":10160:10172   */\n      mload\n        /* \"#utility.yul\":10150:10172   */\n      swap1\n      pop\n        /* \"#utility.yul\":10081:10179   */\n      swap2\n      swap1\n      pop\n      jump\t// out\n        /* \"#utility.yul\":10185:10332   */\n    tag_230:\n        /* \"#utility.yul\":10286:10297   */\n      0x00\n        /* \"#utility.yul\":10323:10326   */\n      dup2\n        /* \"#utility.yul\":10308:10326   */\n      swap1\n      pop\n        /* \"#utility.yul\":10185:10332   */\n      swap3\n      swap2\n      pop\n      pop\n      jump\t// out\n        /* \"#utility.yul\":10338:10584   */\n    tag_231:\n        /* \"#utility.yul\":10419:10420   */\n      0x00\n        /* \"#utility.yul\":10429:10542   */\n    tag_359:\n        /* \"#utility.yul\":10443:10449   */\n      dup4\n        /* \"#utility.yul\":10440:10441   */\n      dup2\n        /* \"#utility.yul\":10437:10450   */\n      lt\n        /* \"#utility.yul\":10429:10542   */\n      iszero\n      tag_361\n      jumpi\n        /* \"#utility.yul\":10528:10529   */\n      dup1\n        /* \"#utility.yul\":10523:10526   */\n      dup3\n        /* \"#utility.yul\":10519:10530   */\n      add\n        /* \"#utility.yul\":10513:10531   */\n      mload\n        /* \"#utility.yul\":10509:10510   */\n      dup2\n        /* \"#utility.yul\":10504:10507   */\n      dup5\n        /* \"#utility.yul\":10500:10511   */\n      add\n        /* \"#utility.yul\":10493:10532   */\n      mstore\n        /* \"#utility.yul\":10465:10467   */\n      0x20\n        /* \"#utility.yul\":10462:10463   */\n      dup2\n        /* \"#utility.yul\":10458:10468   */\n      add\n        /* \"#utility.yul\":10453:10468   */\n      swap1\n      pop\n        /* \"#utility.yul\":10429:10542   */\n      jump(tag_359)\n    tag_361:\n        /* \"#utility.yul\":10576:10577   */\n      0x00\n        /* \"#utility.yul\":10567:10573   */\n      dup5\n        /* \"#utility.yul\":10562:10565   */\n      dup5\n        /* \"#utility.yul\":10558:10574   */\n      add\n        /* \"#utility.yul\":10551:10578   */\n      mstore\n        /* \"#utility.yul\":10400:10584   */\n      pop\n        /* \"#utility.yul\":10338:10584   */\n      pop\n      pop\n      pop\n      jump\t// out\n        /* \"#utility.yul\":10590:10976   */\n    tag_232:\n        /* \"#utility.yul\":10694:10697   */\n      0x00\n        /* \"#utility.yul\":10722:10760   */\n      tag_363\n        /* \"#utility.yul\":10754:10759   */\n      dup3\n        /* \"#utility.yul\":10722:10760   */\n      tag_229\n      jump\t// in\n    tag_363:\n        /* \"#utility.yul\":10776:10864   */\n      tag_364\n        /* \"#utility.yul\":10857:10863   */\n      dup2\n        /* \"#utility.yul\":10852:10855   */\n      dup6\n        /* \"#utility.yul\":10776:10864   */\n      tag_230\n      jump\t// in\n    tag_364:\n        /* \"#utility.yul\":10769:10864   */\n      swap4\n      pop\n        /* \"#utility.yul\":10873:10938   */\n      tag_365\n        /* \"#utility.yul\":10931:10937   */\n      dup2\n        /* \"#utility.yul\":10926:10929   */\n      dup6\n        /* \"#utility.yul\":10919:10923   */\n      0x20\n        /* \"#utility.yul\":10912:10917   */\n      dup7\n        /* \"#utility.yul\":10908:10924   */\n      add\n        /* \"#utility.yul\":10873:10938   */\n      tag_231\n      jump\t// in\n    tag_365:\n        /* \"#utility.yul\":10963:10969   */\n      dup1\n        /* \"#utility.yul\":10958:10961   */\n      dup5\n        /* \"#utility.yul\":10954:10970   */\n      add\n        /* \"#utility.yul\":10947:10970   */\n      swap2\n      pop\n        /* \"#utility.yul\":10698:10976   */\n      pop\n        /* \"#utility.yul\":10590:10976   */\n      swap3\n      swap2\n      pop\n      pop\n      jump\t// out\n        /* \"#utility.yul\":10982:11253   */\n    tag_177:\n        /* \"#utility.yul\":11112:11115   */\n      0x00\n        /* \"#utility.yul\":11134:11227   */\n      tag_367\n        /* \"#utility.yul\":11223:11226   */\n      dup3\n        /* \"#utility.yul\":11214:11220   */\n      dup5\n        /* \"#utility.yul\":11134:11227   */\n      tag_232\n      jump\t// in\n    tag_367:\n        /* \"#utility.yul\":11127:11227   */\n      swap2\n      pop\n        /* \"#utility.yul\":11244:11247   */\n      dup2\n        /* \"#utility.yul\":11237:11247   */\n      swap1\n      pop\n        /* \"#utility.yul\":10982:11253   */\n      swap3\n      swap2\n      pop\n      pop\n      jump\t// out\n        /* \"#utility.yul\":11259:11438   */\n    tag_233:\n        /* \"#utility.yul\":11399:11430   */\n      0x416464726573733a2063616c6c20746f206e6f6e2d636f6e7472616374000000\n        /* \"#utility.yul\":11395:11396   */\n      0x00\n        /* \"#utility.yul\":11387:11393   */\n      dup3\n        /* \"#utility.yul\":11383:11397   */\n      add\n        /* \"#utility.yul\":11376:11431   */\n      mstore\n        /* \"#utility.yul\":11259:11438   */\n      pop\n      jump\t// out\n        /* \"#utility.yul\":11444:11810   */\n    tag_234:\n        /* \"#utility.yul\":11586:11589   */\n      0x00\n        /* \"#utility.yul\":11607:11674   */\n      tag_370\n        /* \"#utility.yul\":11671:11673   */\n      0x1d\n        /* \"#utility.yul\":11666:11669   */\n      dup4\n        /* \"#utility.yul\":11607:11674   */\n      tag_224\n      jump\t// in\n    tag_370:\n        /* \"#utility.yul\":11600:11674   */\n      swap2\n      pop\n        /* \"#utility.yul\":11683:11776   */\n      tag_371\n        /* \"#utility.yul\":11772:11775   */\n      dup3\n        /* \"#utility.yul\":11683:11776   */\n      tag_233\n      jump\t// in\n    tag_371:\n        /* \"#utility.yul\":11801:11803   */\n      0x20\n        /* \"#utility.yul\":11796:11799   */\n      dup3\n        /* \"#utility.yul\":11792:11804   */\n      add\n        /* \"#utility.yul\":11785:11804   */\n      swap1\n      pop\n        /* \"#utility.yul\":11444:11810   */\n      swap2\n      swap1\n      pop\n      jump\t// out\n        /* \"#utility.yul\":11816:12235   */\n    tag_190:\n        /* \"#utility.yul\":11982:11986   */\n      0x00\n        /* \"#utility.yul\":12020:12022   */\n      0x20\n        /* \"#utility.yul\":12009:12018   */\n      dup3\n        /* \"#utility.yul\":12005:12023   */\n      add\n        /* \"#utility.yul\":11997:12023   */\n      swap1\n      pop\n        /* \"#utility.yul\":12069:12078   */\n      dup2\n        /* \"#utility.yul\":12063:12067   */\n      dup2\n        /* \"#utility.yul\":12059:12079   */\n      sub\n        /* \"#utility.yul\":12055:12056   */\n      0x00\n        /* \"#utility.yul\":12044:12053   */\n      dup4\n        /* \"#utility.yul\":12040:12057   */\n      add\n        /* \"#utility.yul\":12033:12080   */\n      mstore\n        /* \"#utility.yul\":12097:12228   */\n      tag_373\n        /* \"#utility.yul\":12223:12227   */\n      dup2\n        /* \"#utility.yul\":12097:12228   */\n      tag_234\n      jump\t// in\n    tag_373:\n        /* \"#utility.yul\":12089:12228   */\n      swap1\n      pop\n        /* \"#utility.yul\":11816:12235   */\n      swap2\n      swap1\n      pop\n      jump\t// out\n        /* \"#utility.yul\":12241:12340   */\n    tag_235:\n        /* \"#utility.yul\":12293:12299   */\n      0x00\n        /* \"#utility.yul\":12327:12332   */\n      dup2\n        /* \"#utility.yul\":12321:12333   */\n      mload\n        /* \"#utility.yul\":12311:12333   */\n      swap1\n      pop\n        /* \"#utility.yul\":12241:12340   */\n      swap2\n      swap1\n      pop\n      jump\t// out\n        /* \"#utility.yul\":12346:12448   */\n    tag_236:\n        /* \"#utility.yul\":12387:12393   */\n      0x00\n        /* \"#utility.yul\":12438:12440   */\n      0x1f\n        /* \"#utility.yul\":12434:12441   */\n      not\n        /* \"#utility.yul\":12429:12431   */\n      0x1f\n        /* \"#utility.yul\":12422:12427   */\n      dup4\n        /* \"#utility.yul\":12418:12432   */\n      add\n        /* \"#utility.yul\":12414:12442   */\n      and\n        /* \"#utility.yul\":12404:12442   */\n      swap1\n      pop\n        /* \"#utility.yul\":12346:12448   */\n      swap2\n      swap1\n      pop\n      jump\t// out\n        /* \"#utility.yul\":12454:12831   */\n    tag_237:\n        /* \"#utility.yul\":12542:12545   */\n      0x00\n        /* \"#utility.yul\":12570:12609   */\n      tag_377\n        /* \"#utility.yul\":12603:12608   */\n      dup3\n        /* \"#utility.yul\":12570:12609   */\n      tag_235\n      jump\t// in\n    tag_377:\n        /* \"#utility.yul\":12625:12696   */\n      tag_378\n        /* \"#utility.yul\":12689:12695   */\n      dup2\n        /* \"#utility.yul\":12684:12687   */\n      dup6\n        /* \"#utility.yul\":12625:12696   */\n      tag_224\n      jump\t// in\n    tag_378:\n        /* \"#utility.yul\":12618:12696   */\n      swap4\n      pop\n        /* \"#utility.yul\":12705:12770   */\n      tag_379\n        /* \"#utility.yul\":12763:12769   */\n      dup2\n        /* \"#utility.yul\":12758:12761   */\n      dup6\n        /* \"#utility.yul\":12751:12755   */\n      0x20\n        /* \"#utility.yul\":12744:12749   */\n      dup7\n        /* \"#utility.yul\":12740:12756   */\n      add\n        /* \"#utility.yul\":12705:12770   */\n      tag_231\n      jump\t// in\n    tag_379:\n        /* \"#utility.yul\":12795:12824   */\n      tag_380\n        /* \"#utility.yul\":12817:12823   */\n      dup2\n        /* \"#utility.yul\":12795:12824   */\n      tag_236\n      jump\t// in\n    tag_380:\n        /* \"#utility.yul\":12790:12793   */\n      dup5\n        /* \"#utility.yul\":12786:12825   */\n      add\n        /* \"#utility.yul\":12779:12825   */\n      swap2\n      pop\n        /* \"#utility.yul\":12546:12831   */\n      pop\n        /* \"#utility.yul\":12454:12831   */\n      swap3\n      swap2\n      pop\n      pop\n      jump\t// out\n        /* \"#utility.yul\":12837:13150   */\n    tag_199:\n        /* \"#utility.yul\":12950:12954   */\n      0x00\n        /* \"#utility.yul\":12988:12990   */\n      0x20\n        /* \"#utility.yul\":12977:12986   */\n      dup3\n        /* \"#utility.yul\":12973:12991   */\n      add\n        /* \"#utility.yul\":12965:12991   */\n      swap1\n      pop\n        /* \"#utility.yul\":13037:13046   */\n      dup2\n        /* \"#utility.yul\":13031:13035   */\n      dup2\n        /* \"#utility.yul\":13027:13047   */\n      sub\n        /* \"#utility.yul\":13023:13024   */\n      0x00\n        /* \"#utility.yul\":13012:13021   */\n      dup4\n        /* \"#utility.yul\":13008:13025   */\n      add\n        /* \"#utility.yul\":13001:13048   */\n      mstore\n        /* \"#utility.yul\":13065:13143   */\n      tag_382\n        /* \"#utility.yul\":13138:13142   */\n      dup2\n        /* \"#utility.yul\":13129:13135   */\n      dup5\n        /* \"#utility.yul\":13065:13143   */\n      tag_237\n      jump\t// in\n    tag_382:\n        /* \"#utility.yul\":13057:13143   */\n      swap1\n      pop\n        /* \"#utility.yul\":12837:13150   */\n      swap3\n      swap2\n      pop\n      pop\n      jump\t// out\n\n    auxdata: 0xa264697066735822122014372a75d2b696db3c694e856806e1e2ef064fdff3c93059215680dd0af2eb2764736f6c63430008130033\n}\n",
				"bytecode": {
					"linkReferences": {},
					"object": "60806040523480156200001157600080fd5b50604051620028013803806200280183398181016040528101906200003791906200014b565b81600160006101000a81548173ffffffffffffffffffffffffffffffffffffffff021916908373ffffffffffffffffffffffffffffffffffffffff160217905550806000806101000a81548166ffffffffffffff021916908366ffffffffffffff160217905550505062000192565b600080fd5b600073ffffffffffffffffffffffffffffffffffffffff82169050919050565b6000620000d882620000ab565b9050919050565b620000ea81620000cb565b8114620000f657600080fd5b50565b6000815190506200010a81620000df565b92915050565b6000819050919050565b620001258162000110565b81146200013157600080fd5b50565b60008151905062000145816200011a565b92915050565b60008060408385031215620001655762000164620000a6565b5b60006200017585828601620000f9565b9250506020620001888582860162000134565b9150509250929050565b61265f80620001a26000396000f3fe608060405234801561001057600080fd5b50600436106100a95760003560e01c806398c50fdd1161007157806398c50fdd1461014e578063b8d7f9801461017e578063c0102de4146101ae578063d14485a2146101ca578063df0905c6146101e6578063fc993ea814610216576100a9565b806325ac3a73146100ae5780632895cb7b146100ca57806359de2f60146100e6578063762e9d301461011657806377bcd8a614610132575b600080fd5b6100c860048036038101906100c39190611f13565b610246565b005b6100e460048036038101906100df9190611f13565b6104c3565b005b61010060048036038101906100fb9190611fd4565b610a63565b60405161010d919061202f565b60405180910390f35b610130600480360381019061012b9190611f13565b610a92565b005b61014c60048036038101906101479190611f13565b610de9565b005b61016860048036038101906101639190612092565b6111c2565b60405161017591906120e1565b60405180910390f35b61019860048036038101906101939190611fd4565b6112df565b6040516101a5919061202f565b60405180910390f35b6101c860048036038101906101c39190611f13565b61130e565b005b6101e460048036038101906101df91906120fc565b6115b6565b005b61020060048036038101906101fb9190611fd4565b61197d565b60405161020d919061202f565b60405180910390f35b610230600480360381019061022b9190611fd4565b6119ac565b60405161023d919061202f565b60405180910390f35b6000600360003373ffffffffffffffffffffffffffffffffffffffff1673ffffffffffffffffffffffffffffffffffffffff16815260200190815260200160002060008367ffffffffffffffff16815260200190815260200160002060006101000a81548160ff0219169083151502179055156102ef576040517f4232716900000000000000000000000000000000000000000000000000000000815260040160405180910390fd5b3373ffffffffffffffffffffffffffffffffffffffff1661030f826119db565b73ffffffffffffffffffffffffffffffffffffffff161461035c576040517fd7c498bf00000000000000000000000000000000000000000000000000000000815260040160405180910390fd5b6000600260008367ffffffffffffffff1667ffffffffffffffff16815260200190815260200160002060000160109054906101000a90046fffffffffffffffffffffffffffffffff166fffffffffffffffffffffffffffffffff169050610408333083600160009054906101000a900473ffffffffffffffffffffffffffffffffffffffff1673ffffffffffffffffffffffffffffffffffffffff16611a2f909392919063ffffffff16565b6001600360003373ffffffffffffffffffffffffffffffffffffffff1673ffffffffffffffffffffffffffffffffffffffff16815260200190815260200160002060008467ffffffffffffffff16815260200190815260200160002060006101000a81548160ff0219169083151502179055506003600260008467ffffffffffffffff1667ffffffffffffffff16815260200190815260200160002060000160006101000a81548160ff021916908360ff1602179055505050565b60006104ce82611ab8565b905060006104db836119db565b90508173ffffffffffffffffffffffffffffffffffffffff163373ffffffffffffffffffffffffffffffffffffffff161461051557600080fd5b60001515600360008373ffffffffffffffffffffffffffffffffffffffff1673ffffffffffffffffffffffffffffffffffffffff16815260200190815260200160002060008567ffffffffffffffff16815260200190815260200160002060009054906101000a900460ff1615151461058d57600080fd5b60001515600660003373ffffffffffffffffffffffffffffffffffffffff1673ffffffffffffffffffffffffffffffffffffffff16815260200190815260200160002060008567ffffffffffffffff16815260200190815260200160002060009054906101000a900460ff1615151461060557600080fd5b8173ffffffffffffffffffffffffffffffffffffffff163373ffffffffffffffffffffffffffffffffffffffff161461063d57600080fd5b6000600260008567ffffffffffffffff1667ffffffffffffffff16815260200190815260200160002060020160009054906101000a900473ffffffffffffffffffffffffffffffffffffffff1690506000610724600260008767ffffffffffffffff1667ffffffffffffffff16815260200190815260200160002060010160009054906101000a90046fffffffffffffffffffffffffffffffff16600260008867ffffffffffffffff1667ffffffffffffffff16815260200190815260200160002060000160109054906101000a90046fffffffffffffffffffffffffffffffff166111c2565b9050600061073182611b0c565b905061075e30828573ffffffffffffffffffffffffffffffffffffffff16611bb39092919063ffffffff16565b61079485828461076e919061217e565b8573ffffffffffffffffffffffffffffffffffffffff16611bb39092919063ffffffff16565b6001600660003373ffffffffffffffffffffffffffffffffffffffff1673ffffffffffffffffffffffffffffffffffffffff16815260200190815260200160002060008867ffffffffffffffff16815260200190815260200160002060006101000a81548160ff0219169083151502179055506001600260008867ffffffffffffffff1667ffffffffffffffff16815260200190815260200160002060000160009054906101000a900460ff1660ff1603610a175760001515600760003373ffffffffffffffffffffffffffffffffffffffff1673ffffffffffffffffffffffffffffffffffffffff16815260200190815260200160002060008867ffffffffffffffff16815260200190815260200160002060009054906101000a900460ff161515146108c157600080fd5b6000600260008867ffffffffffffffff1667ffffffffffffffff16815260200190815260200160002060000160109054906101000a90046fffffffffffffffffffffffffffffffff16600260008967ffffffffffffffff1667ffffffffffffffff16815260200190815260200160002060010160009054906101000a90046fffffffffffffffffffffffffffffffff1661095b91906121b2565b6fffffffffffffffffffffffffffffffff1690506109a261097b88611ab8565b828673ffffffffffffffffffffffffffffffffffffffff16611bb39092919063ffffffff16565b6001600760003373ffffffffffffffffffffffffffffffffffffffff1673ffffffffffffffffffffffffffffffffffffffff16815260200190815260200160002060008967ffffffffffffffff16815260200190815260200160002060006101000a81548160ff021916908315150217905550505b6005600260008867ffffffffffffffff1667ffffffffffffffff16815260200190815260200160002060000160006101000a81548160ff021916908360ff160217905550505050505050565b60046020528160005260406000206020528060005260406000206000915091509054906101000a900460ff1681565b6000600260008367ffffffffffffffff1667ffffffffffffffff168152602001908152602001600020604051806101000160405290816000820160009054906101000a900460ff1660ff1660ff1681526020016000820160019054906101000a900467ffffffffffffffff1667ffffffffffffffff1667ffffffffffffffff1681526020016000820160099054906101000a900466ffffffffffffff1666ffffffffffffff1666ffffffffffffff1681526020016000820160109054906101000a90046fffffffffffffffffffffffffffffffff166fffffffffffffffffffffffffffffffff166fffffffffffffffffffffffffffffffff1681526020016001820160009054906101000a90046fffffffffffffffffffffffffffffffff166fffffffffffffffffffffffffffffffff166fffffffffffffffffffffffffffffffff1681526020016002820160009054906101000a900473ffffffffffffffffffffffffffffffffffffffff1673ffffffffffffffffffffffffffffffffffffffff1673ffffffffffffffffffffffffffffffffffffffff1681526020016003820160009054906101000a900473ffffffffffffffffffffffffffffffffffffffff1673ffffffffffffffffffffffffffffffffffffffff1673ffffffffffffffffffffffffffffffffffffffff1681526020016004820160009054906101000a900473ffffffffffffffffffffffffffffffffffffffff1673ffffffffffffffffffffffffffffffffffffffff1673ffffffffffffffffffffffffffffffffffffffff168152505090506001816000015160ff1614610cf157600080fd5b60008160a001519050610d383330610d11856080015186606001516111c2565b8473ffffffffffffffffffffffffffffffffffffffff16611a2f909392919063ffffffff16565b33600260008567ffffffffffffffff1667ffffffffffffffff16815260200190815260200160002060040160006101000a81548173ffffffffffffffffffffffffffffffffffffffff021916908373ffffffffffffffffffffffffffffffffffffffff16021790555060028060008567ffffffffffffffff1667ffffffffffffffff16815260200190815260200160002060000160006101000a81548160ff021916908360ff160217905550505050565b6000610df4826119db565b90508073ffffffffffffffffffffffffffffffffffffffff163373ffffffffffffffffffffffffffffffffffffffff1614610e2e57600080fd5b600360008273ffffffffffffffffffffffffffffffffffffffff1673ffffffffffffffffffffffffffffffffffffffff16815260200190815260200160002060008367ffffffffffffffff16815260200190815260200160002060009054906101000a900460ff16610e9f57600080fd5b60001515600560003373ffffffffffffffffffffffffffffffffffffffff1673ffffffffffffffffffffffffffffffffffffffff16815260200190815260200160002060008467ffffffffffffffff16815260200190815260200160002060009054906101000a900460ff16151514610f1757600080fd5b6000600260008467ffffffffffffffff1667ffffffffffffffff16815260200190815260200160002060020160009054906101000a900473ffffffffffffffffffffffffffffffffffffffff1690506000600260008567ffffffffffffffff1667ffffffffffffffff16815260200190815260200160002060000160109054906101000a90046fffffffffffffffffffffffffffffffff16600260008667ffffffffffffffff1667ffffffffffffffff16815260200190815260200160002060010160009054906101000a90046fffffffffffffffffffffffffffffffff1661100091906121b2565b6fffffffffffffffffffffffffffffffff16905060006110ac600260008767ffffffffffffffff1667ffffffffffffffff16815260200190815260200160002060010160009054906101000a90046fffffffffffffffffffffffffffffffff16600260008867ffffffffffffffff1667ffffffffffffffff16815260200190815260200160002060000160109054906101000a90046fffffffffffffffffffffffffffffffff166111c2565b905060006110b983611b0c565b90506110e630828673ffffffffffffffffffffffffffffffffffffffff16611bb39092919063ffffffff16565b61111c8582856110f6919061217e565b8673ffffffffffffffffffffffffffffffffffffffff16611bb39092919063ffffffff16565b61114785838673ffffffffffffffffffffffffffffffffffffffff16611bb39092919063ffffffff16565b6001600560003373ffffffffffffffffffffffffffffffffffffffff1673ffffffffffffffffffffffffffffffffffffffff16815260200190815260200160002060008867ffffffffffffffff16815260200190815260200160002060006101000a81548160ff021916908315150217905550505050505050565b60008082846111d191906121b2565b6fffffffffffffffffffffffffffffffff16905068056bc75e2d6310000081101580156112065750683635c9adc5dea0000081105b1561122c57606460328261121a91906121ef565b6112249190612260565b9150506112d9565b683635c9adc5dea00000811015801561124e575069021e19e0c9bab240000081105b1561127457606460288261126291906121ef565b61126c9190612260565b9150506112d9565b69021e19e0c9bab24000008111156112a757606460198261129591906121ef565b61129f9190612260565b9150506112d9565b6040517fe008b5f900000000000000000000000000000000000000000000000000000000815260040160405180910390fd5b92915050565b60066020528160005260406000206020528060005260406000206000915091509054906101000a900460ff1681565b600061131982611ab8565b90508073ffffffffffffffffffffffffffffffffffffffff163373ffffffffffffffffffffffffffffffffffffffff1614611380576040517f472e017e00000000000000000000000000000000000000000000000000000000815260040160405180910390fd5b6003600260008467ffffffffffffffff1667ffffffffffffffff16815260200190815260200160002060000160009054906101000a900460ff1660ff16146113f4576040517fde4461cd00000000000000000000000000000000000000000000000000000000815260040160405180910390fd5b6000600260008467ffffffffffffffff1667ffffffffffffffff16815260200190815260200160002060000160109054906101000a90046fffffffffffffffffffffffffffffffff1690506000600260008567ffffffffffffffff1667ffffffffffffffff16815260200190815260200160002060010160009054906101000a90046fffffffffffffffffffffffffffffffff16905060006114b2828461149b91906121b2565b6fffffffffffffffffffffffffffffffff16611b0c565b90506115013082600160009054906101000a900473ffffffffffffffffffffffffffffffffffffffff1673ffffffffffffffffffffffffffffffffffffffff16611bb39092919063ffffffff16565b61156b8482856fffffffffffffffffffffffffffffffff16611523919061217e565b600160009054906101000a900473ffffffffffffffffffffffffffffffffffffffff1673ffffffffffffffffffffffffffffffffffffffff16611bb39092919063ffffffff16565b6004600260008767ffffffffffffffff1667ffffffffffffffff16815260200190815260200160002060000160006101000a81548160ff021916908360ff1602179055505050505050565b600081836115c491906121b2565b6fffffffffffffffffffffffffffffffff16905068056bc75e2d6310000081101561161b576040517fe008b5f900000000000000000000000000000000000000000000000000000000815260040160405180910390fd5b6000604051806101000160405280600160ff168152602001600060079054906101000a900467ffffffffffffffff1667ffffffffffffffff1681526020014266ffffffffffffff168152602001856fffffffffffffffffffffffffffffffff168152602001846fffffffffffffffffffffffffffffffff1681526020018673ffffffffffffffffffffffffffffffffffffffff1681526020013373ffffffffffffffffffffffffffffffffffffffff1681526020013073ffffffffffffffffffffffffffffffffffffffff16815250905080600260008060079054906101000a900467ffffffffffffffff1667ffffffffffffffff1667ffffffffffffffff16815260200190815260200160002060008201518160000160006101000a81548160ff021916908360ff16021790555060208201518160000160016101000a81548167ffffffffffffffff021916908367ffffffffffffffff16021790555060408201518160000160096101000a81548166ffffffffffffff021916908366ffffffffffffff16021790555060608201518160000160106101000a8154816fffffffffffffffffffffffffffffffff02191690836fffffffffffffffffffffffffffffffff16021790555060808201518160010160006101000a8154816fffffffffffffffffffffffffffffffff02191690836fffffffffffffffffffffffffffffffff16021790555060a08201518160020160006101000a81548173ffffffffffffffffffffffffffffffffffffffff021916908373ffffffffffffffffffffffffffffffffffffffff16021790555060c08201518160030160006101000a81548173ffffffffffffffffffffffffffffffffffffffff021916908373ffffffffffffffffffffffffffffffffffffffff16021790555060e08201518160040160006101000a81548173ffffffffffffffffffffffffffffffffffffffff021916908373ffffffffffffffffffffffffffffffffffffffff1602179055509050506119293330848873ffffffffffffffffffffffffffffffffffffffff16611a2f909392919063ffffffff16565b6000600781819054906101000a900467ffffffffffffffff168092919061194f90612291565b91906101000a81548167ffffffffffffffff021916908367ffffffffffffffff160217905550505050505050565b60056020528160005260406000206020528060005260406000206000915091509054906101000a900460ff1681565b60076020528160005260406000206020528060005260406000206000915091509054906101000a900460ff1681565b6000600260008367ffffffffffffffff1667ffffffffffffffff16815260200190815260200160002060040160009054906101000a900473ffffffffffffffffffffffffffffffffffffffff169050919050565b611ab2846323b872dd60e01b858585604051602401611a50939291906122d0565b604051602081830303815290604052907bffffffffffffffffffffffffffffffffffffffffffffffffffffffff19166020820180517bffffffffffffffffffffffffffffffffffffffffffffffffffffffff8381831617835250505050611c39565b50505050565b6000600260008367ffffffffffffffff1667ffffffffffffffff16815260200190815260200160002060030160009054906101000a900473ffffffffffffffffffffffffffffffffffffffff169050919050565b600068056bc75e2d631000008210158015611b2f5750683635c9adc5dea0000082105b15611b4857606482611b419190612260565b9050611bae565b683635c9adc5dea000008210158015611b6a575069021e19e0c9bab240000082105b15611b835760c882611b7c9190612260565b9050611bae565b69021e19e0c9bab24000008210611ba95761019082611ba29190612260565b9050611bae565b600090505b919050565b611c348363a9059cbb60e01b8484604051602401611bd2929190612307565b604051602081830303815290604052907bffffffffffffffffffffffffffffffffffffffffffffffffffffffff19166020820180517bffffffffffffffffffffffffffffffffffffffffffffffffffffffff8381831617835250505050611c39565b505050565b6000611c9b826040518060400160405280602081526020017f5361666545524332303a206c6f772d6c6576656c2063616c6c206661696c65648152508573ffffffffffffffffffffffffffffffffffffffff16611d019092919063ffffffff16565b9050600081511480611cbd575080806020019051810190611cbc919061235c565b5b611cfc576040517f08c379a0000000000000000000000000000000000000000000000000000000008152600401611cf39061240c565b60405180910390fd5b505050565b6060611d108484600085611d19565b90509392505050565b606082471015611d5e576040517f08c379a0000000000000000000000000000000000000000000000000000000008152600401611d559061249e565b60405180910390fd5b6000808673ffffffffffffffffffffffffffffffffffffffff168587604051611d87919061252f565b60006040518083038185875af1925050503d8060008114611dc4576040519150601f19603f3d011682016040523d82523d6000602084013e611dc9565b606091505b5091509150611dda87838387611de6565b92505050949350505050565b60608315611e48576000835103611e4057611e0085611e5b565b611e3f576040517f08c379a0000000000000000000000000000000000000000000000000000000008152600401611e3690612592565b60405180910390fd5b5b829050611e53565b611e528383611e7e565b5b949350505050565b6000808273ffffffffffffffffffffffffffffffffffffffff163b119050919050565b600082511115611e915781518083602001fd5b806040517f08c379a0000000000000000000000000000000000000000000000000000000008152600401611ec59190612607565b60405180910390fd5b600080fd5b600067ffffffffffffffff82169050919050565b611ef081611ed3565b8114611efb57600080fd5b50565b600081359050611f0d81611ee7565b92915050565b600060208284031215611f2957611f28611ece565b5b6000611f3784828501611efe565b91505092915050565b600073ffffffffffffffffffffffffffffffffffffffff82169050919050565b6000611f6b82611f40565b9050919050565b611f7b81611f60565b8114611f8657600080fd5b50565b600081359050611f9881611f72565b92915050565b6000819050919050565b611fb181611f9e565b8114611fbc57600080fd5b50565b600081359050611fce81611fa8565b92915050565b60008060408385031215611feb57611fea611ece565b5b6000611ff985828601611f89565b925050602061200a85828601611fbf565b9150509250929050565b60008115159050919050565b61202981612014565b82525050565b60006020820190506120446000830184612020565b92915050565b60006fffffffffffffffffffffffffffffffff82169050919050565b61206f8161204a565b811461207a57600080fd5b50565b60008135905061208c81612066565b92915050565b600080604083850312156120a9576120a8611ece565b5b60006120b78582860161207d565b92505060206120c88582860161207d565b9150509250929050565b6120db81611f9e565b82525050565b60006020820190506120f660008301846120d2565b92915050565b60008060006060848603121561211557612114611ece565b5b600061212386828701611f89565b93505060206121348682870161207d565b92505060406121458682870161207d565b9150509250925092565b7f4e487b7100000000000000000000000000000000000000000000000000000000600052601160045260246000fd5b600061218982611f9e565b915061219483611f9e565b92508282039050818111156121ac576121ab61214f565b5b92915050565b60006121bd8261204a565b91506121c88361204a565b92508282026121d68161204a565b91508082146121e8576121e761214f565b5b5092915050565b60006121fa82611f9e565b915061220583611f9e565b925082820261221381611f9e565b9150828204841483151761222a5761222961214f565b5b5092915050565b7f4e487b7100000000000000000000000000000000000000000000000000000000600052601260045260246000fd5b600061226b82611f9e565b915061227683611f9e565b92508261228657612285612231565b5b828204905092915050565b600061229c82611ed3565b915067ffffffffffffffff82036122b6576122b561214f565b5b600182019050919050565b6122ca81611f60565b82525050565b60006060820190506122e560008301866122c1565b6122f260208301856122c1565b6122ff60408301846120d2565b949350505050565b600060408201905061231c60008301856122c1565b61232960208301846120d2565b9392505050565b61233981612014565b811461234457600080fd5b50565b60008151905061235681612330565b92915050565b60006020828403121561237257612371611ece565b5b600061238084828501612347565b91505092915050565b600082825260208201905092915050565b7f5361666545524332303a204552433230206f7065726174696f6e20646964206e60008201527f6f74207375636365656400000000000000000000000000000000000000000000602082015250565b60006123f6602a83612389565b91506124018261239a565b604082019050919050565b60006020820190508181036000830152612425816123e9565b9050919050565b7f416464726573733a20696e73756666696369656e742062616c616e636520666f60008201527f722063616c6c0000000000000000000000000000000000000000000000000000602082015250565b6000612488602683612389565b91506124938261242c565b604082019050919050565b600060208201905081810360008301526124b78161247b565b9050919050565b600081519050919050565b600081905092915050565b60005b838110156124f25780820151818401526020810190506124d7565b60008484015250505050565b6000612509826124be565b61251381856124c9565b93506125238185602086016124d4565b80840191505092915050565b600061253b82846124fe565b915081905092915050565b7f416464726573733a2063616c6c20746f206e6f6e2d636f6e7472616374000000600082015250565b600061257c601d83612389565b915061258782612546565b602082019050919050565b600060208201905081810360008301526125ab8161256f565b9050919050565b600081519050919050565b6000601f19601f8301169050919050565b60006125d9826125b2565b6125e38185612389565b93506125f38185602086016124d4565b6125fc816125bd565b840191505092915050565b6000602082019050818103600083015261262181846125ce565b90509291505056fea264697066735822122014372a75d2b696db3c694e856806e1e2ef064fdff3c93059215680dd0af2eb2764736f6c63430008130033",
					"opcodes": "PUSH1 0x80 PUSH1 0x40 MSTORE CALLVALUE DUP1 ISZERO PUSH3 0x11 JUMPI PUSH1 0x0 DUP1 REVERT JUMPDEST POP PUSH1 0x40 MLOAD PUSH3 0x2801 CODESIZE SUB DUP1 PUSH3 0x2801 DUP4 CODECOPY DUP2 DUP2 ADD PUSH1 0x40 MSTORE DUP2 ADD SWAP1 PUSH3 0x37 SWAP2 SWAP1 PUSH3 0x14B JUMP JUMPDEST DUP2 PUSH1 0x1 PUSH1 0x0 PUSH2 0x100 EXP DUP2 SLOAD DUP2 PUSH20 0xFFFFFFFFFFFFFFFFFFFFFFFFFFFFFFFFFFFFFFFF MUL NOT AND SWAP1 DUP4 PUSH20 0xFFFFFFFFFFFFFFFFFFFFFFFFFFFFFFFFFFFFFFFF AND MUL OR SWAP1 SSTORE POP DUP1 PUSH1 0x0 DUP1 PUSH2 0x100 EXP DUP2 SLOAD DUP2 PUSH7 0xFFFFFFFFFFFFFF MUL NOT AND SWAP1 DUP4 PUSH7 0xFFFFFFFFFFFFFF AND MUL OR SWAP1 SSTORE POP POP POP PUSH3 0x192 JUMP JUMPDEST PUSH1 0x0 DUP1 REVERT JUMPDEST PUSH1 0x0 PUSH20 0xFFFFFFFFFFFFFFFFFFFFFFFFFFFFFFFFFFFFFFFF DUP3 AND SWAP1 POP SWAP2 SWAP1 POP JUMP JUMPDEST PUSH1 0x0 PUSH3 0xD8 DUP3 PUSH3 0xAB JUMP JUMPDEST SWAP1 POP SWAP2 SWAP1 POP JUMP JUMPDEST PUSH3 0xEA DUP2 PUSH3 0xCB JUMP JUMPDEST DUP2 EQ PUSH3 0xF6 JUMPI PUSH1 0x0 DUP1 REVERT JUMPDEST POP JUMP JUMPDEST PUSH1 0x0 DUP2 MLOAD SWAP1 POP PUSH3 0x10A DUP2 PUSH3 0xDF JUMP JUMPDEST SWAP3 SWAP2 POP POP JUMP JUMPDEST PUSH1 0x0 DUP2 SWAP1 POP SWAP2 SWAP1 POP JUMP JUMPDEST PUSH3 0x125 DUP2 PUSH3 0x110 JUMP JUMPDEST DUP2 EQ PUSH3 0x131 JUMPI PUSH1 0x0 DUP1 REVERT JUMPDEST POP JUMP JUMPDEST PUSH1 0x0 DUP2 MLOAD SWAP1 POP PUSH3 0x145 DUP2 PUSH3 0x11A JUMP JUMPDEST SWAP3 SWAP2 POP POP JUMP JUMPDEST PUSH1 0x0 DUP1 PUSH1 0x40 DUP4 DUP6 SUB SLT ISZERO PUSH3 0x165 JUMPI PUSH3 0x164 PUSH3 0xA6 JUMP JUMPDEST JUMPDEST PUSH1 0x0 PUSH3 0x175 DUP6 DUP3 DUP7 ADD PUSH3 0xF9 JUMP JUMPDEST SWAP3 POP POP PUSH1 0x20 PUSH3 0x188 DUP6 DUP3 DUP7 ADD PUSH3 0x134 JUMP JUMPDEST SWAP2 POP POP SWAP3 POP SWAP3 SWAP1 POP JUMP JUMPDEST PUSH2 0x265F DUP1 PUSH3 0x1A2 PUSH1 0x0 CODECOPY PUSH1 0x0 RETURN INVALID PUSH1 0x80 PUSH1 0x40 MSTORE CALLVALUE DUP1 ISZERO PUSH2 0x10 JUMPI PUSH1 0x0 DUP1 REVERT JUMPDEST POP PUSH1 0x4 CALLDATASIZE LT PUSH2 0xA9 JUMPI PUSH1 0x0 CALLDATALOAD PUSH1 0xE0 SHR DUP1 PUSH4 0x98C50FDD GT PUSH2 0x71 JUMPI DUP1 PUSH4 0x98C50FDD EQ PUSH2 0x14E JUMPI DUP1 PUSH4 0xB8D7F980 EQ PUSH2 0x17E JUMPI DUP1 PUSH4 0xC0102DE4 EQ PUSH2 0x1AE JUMPI DUP1 PUSH4 0xD14485A2 EQ PUSH2 0x1CA JUMPI DUP1 PUSH4 0xDF0905C6 EQ PUSH2 0x1E6 JUMPI DUP1 PUSH4 0xFC993EA8 EQ PUSH2 0x216 JUMPI PUSH2 0xA9 JUMP JUMPDEST DUP1 PUSH4 0x25AC3A73 EQ PUSH2 0xAE JUMPI DUP1 PUSH4 0x2895CB7B EQ PUSH2 0xCA JUMPI DUP1 PUSH4 0x59DE2F60 EQ PUSH2 0xE6 JUMPI DUP1 PUSH4 0x762E9D30 EQ PUSH2 0x116 JUMPI DUP1 PUSH4 0x77BCD8A6 EQ PUSH2 0x132 JUMPI JUMPDEST PUSH1 0x0 DUP1 REVERT JUMPDEST PUSH2 0xC8 PUSH1 0x4 DUP1 CALLDATASIZE SUB DUP2 ADD SWAP1 PUSH2 0xC3 SWAP2 SWAP1 PUSH2 0x1F13 JUMP JUMPDEST PUSH2 0x246 JUMP JUMPDEST STOP JUMPDEST PUSH2 0xE4 PUSH1 0x4 DUP1 CALLDATASIZE SUB DUP2 ADD SWAP1 PUSH2 0xDF SWAP2 SWAP1 PUSH2 0x1F13 JUMP JUMPDEST PUSH2 0x4C3 JUMP JUMPDEST STOP JUMPDEST PUSH2 0x100 PUSH1 0x4 DUP1 CALLDATASIZE SUB DUP2 ADD SWAP1 PUSH2 0xFB SWAP2 SWAP1 PUSH2 0x1FD4 JUMP JUMPDEST PUSH2 0xA63 JUMP JUMPDEST PUSH1 0x40 MLOAD PUSH2 0x10D SWAP2 SWAP1 PUSH2 0x202F JUMP JUMPDEST PUSH1 0x40 MLOAD DUP1 SWAP2 SUB SWAP1 RETURN JUMPDEST PUSH2 0x130 PUSH1 0x4 DUP1 CALLDATASIZE SUB DUP2 ADD SWAP1 PUSH2 0x12B SWAP2 SWAP1 PUSH2 0x1F13 JUMP JUMPDEST PUSH2 0xA92 JUMP JUMPDEST STOP JUMPDEST PUSH2 0x14C PUSH1 0x4 DUP1 CALLDATASIZE SUB DUP2 ADD SWAP1 PUSH2 0x147 SWAP2 SWAP1 PUSH2 0x1F13 JUMP JUMPDEST PUSH2 0xDE9 JUMP JUMPDEST STOP JUMPDEST PUSH2 0x168 PUSH1 0x4 DUP1 CALLDATASIZE SUB DUP2 ADD SWAP1 PUSH2 0x163 SWAP2 SWAP1 PUSH2 0x2092 JUMP JUMPDEST PUSH2 0x11C2 JUMP JUMPDEST PUSH1 0x40 MLOAD PUSH2 0x175 SWAP2 SWAP1 PUSH2 0x20E1 JUMP JUMPDEST PUSH1 0x40 MLOAD DUP1 SWAP2 SUB SWAP1 RETURN JUMPDEST PUSH2 0x198 PUSH1 0x4 DUP1 CALLDATASIZE SUB DUP2 ADD SWAP1 PUSH2 0x193 SWAP2 SWAP1 PUSH2 0x1FD4 JUMP JUMPDEST PUSH2 0x12DF JUMP JUMPDEST PUSH1 0x40 MLOAD PUSH2 0x1A5 SWAP2 SWAP1 PUSH2 0x202F JUMP JUMPDEST PUSH1 0x40 MLOAD DUP1 SWAP2 SUB SWAP1 RETURN JUMPDEST PUSH2 0x1C8 PUSH1 0x4 DUP1 CALLDATASIZE SUB DUP2 ADD SWAP1 PUSH2 0x1C3 SWAP2 SWAP1 PUSH2 0x1F13 JUMP JUMPDEST PUSH2 0x130E JUMP JUMPDEST STOP JUMPDEST PUSH2 0x1E4 PUSH1 0x4 DUP1 CALLDATASIZE SUB DUP2 ADD SWAP1 PUSH2 0x1DF SWAP2 SWAP1 PUSH2 0x20FC JUMP JUMPDEST PUSH2 0x15B6 JUMP JUMPDEST STOP JUMPDEST PUSH2 0x200 PUSH1 0x4 DUP1 CALLDATASIZE SUB DUP2 ADD SWAP1 PUSH2 0x1FB SWAP2 SWAP1 PUSH2 0x1FD4 JUMP JUMPDEST PUSH2 0x197D JUMP JUMPDEST PUSH1 0x40 MLOAD PUSH2 0x20D SWAP2 SWAP1 PUSH2 0x202F JUMP JUMPDEST PUSH1 0x40 MLOAD DUP1 SWAP2 SUB SWAP1 RETURN JUMPDEST PUSH2 0x230 PUSH1 0x4 DUP1 CALLDATASIZE SUB DUP2 ADD SWAP1 PUSH2 0x22B SWAP2 SWAP1 PUSH2 0x1FD4 JUMP JUMPDEST PUSH2 0x19AC JUMP JUMPDEST PUSH1 0x40 MLOAD PUSH2 0x23D SWAP2 SWAP1 PUSH2 0x202F JUMP JUMPDEST PUSH1 0x40 MLOAD DUP1 SWAP2 SUB SWAP1 RETURN JUMPDEST PUSH1 0x0 PUSH1 0x3 PUSH1 0x0 CALLER PUSH20 0xFFFFFFFFFFFFFFFFFFFFFFFFFFFFFFFFFFFFFFFF AND PUSH20 0xFFFFFFFFFFFFFFFFFFFFFFFFFFFFFFFFFFFFFFFF AND DUP2 MSTORE PUSH1 0x20 ADD SWAP1 DUP2 MSTORE PUSH1 0x20 ADD PUSH1 0x0 KECCAK256 PUSH1 0x0 DUP4 PUSH8 0xFFFFFFFFFFFFFFFF AND DUP2 MSTORE PUSH1 0x20 ADD SWAP1 DUP2 MSTORE PUSH1 0x20 ADD PUSH1 0x0 KECCAK256 PUSH1 0x0 PUSH2 0x100 EXP DUP2 SLOAD DUP2 PUSH1 0xFF MUL NOT AND SWAP1 DUP4 ISZERO ISZERO MUL OR SWAP1 SSTORE ISZERO PUSH2 0x2EF JUMPI PUSH1 0x40 MLOAD PUSH32 0x4232716900000000000000000000000000000000000000000000000000000000 DUP2 MSTORE PUSH1 0x4 ADD PUSH1 0x40 MLOAD DUP1 SWAP2 SUB SWAP1 REVERT JUMPDEST CALLER PUSH20 0xFFFFFFFFFFFFFFFFFFFFFFFFFFFFFFFFFFFFFFFF AND PUSH2 0x30F DUP3 PUSH2 0x19DB JUMP JUMPDEST PUSH20 0xFFFFFFFFFFFFFFFFFFFFFFFFFFFFFFFFFFFFFFFF AND EQ PUSH2 0x35C JUMPI PUSH1 0x40 MLOAD PUSH32 0xD7C498BF00000000000000000000000000000000000000000000000000000000 DUP2 MSTORE PUSH1 0x4 ADD PUSH1 0x40 MLOAD DUP1 SWAP2 SUB SWAP1 REVERT JUMPDEST PUSH1 0x0 PUSH1 0x2 PUSH1 0x0 DUP4 PUSH8 0xFFFFFFFFFFFFFFFF AND PUSH8 0xFFFFFFFFFFFFFFFF AND DUP2 MSTORE PUSH1 0x20 ADD SWAP1 DUP2 MSTORE PUSH1 0x20 ADD PUSH1 0x0 KECCAK256 PUSH1 0x0 ADD PUSH1 0x10 SWAP1 SLOAD SWAP1 PUSH2 0x100 EXP SWAP1 DIV PUSH16 0xFFFFFFFFFFFFFFFFFFFFFFFFFFFFFFFF AND PUSH16 0xFFFFFFFFFFFFFFFFFFFFFFFFFFFFFFFF AND SWAP1 POP PUSH2 0x408 CALLER ADDRESS DUP4 PUSH1 0x1 PUSH1 0x0 SWAP1 SLOAD SWAP1 PUSH2 0x100 EXP SWAP1 DIV PUSH20 0xFFFFFFFFFFFFFFFFFFFFFFFFFFFFFFFFFFFFFFFF AND PUSH20 0xFFFFFFFFFFFFFFFFFFFFFFFFFFFFFFFFFFFFFFFF AND PUSH2 0x1A2F SWAP1 SWAP4 SWAP3 SWAP2 SWAP1 PUSH4 0xFFFFFFFF AND JUMP JUMPDEST PUSH1 0x1 PUSH1 0x3 PUSH1 0x0 CALLER PUSH20 0xFFFFFFFFFFFFFFFFFFFFFFFFFFFFFFFFFFFFFFFF AND PUSH20 0xFFFFFFFFFFFFFFFFFFFFFFFFFFFFFFFFFFFFFFFF AND DUP2 MSTORE PUSH1 0x20 ADD SWAP1 DUP2 MSTORE PUSH1 0x20 ADD PUSH1 0x0 KECCAK256 PUSH1 0x0 DUP5 PUSH8 0xFFFFFFFFFFFFFFFF AND DUP2 MSTORE PUSH1 0x20 ADD SWAP1 DUP2 MSTORE PUSH1 0x20 ADD PUSH1 0x0 KECCAK256 PUSH1 0x0 PUSH2 0x100 EXP DUP2 SLOAD DUP2 PUSH1 0xFF MUL NOT AND SWAP1 DUP4 ISZERO ISZERO MUL OR SWAP1 SSTORE POP PUSH1 0x3 PUSH1 0x2 PUSH1 0x0 DUP5 PUSH8 0xFFFFFFFFFFFFFFFF AND PUSH8 0xFFFFFFFFFFFFFFFF AND DUP2 MSTORE PUSH1 0x20 ADD SWAP1 DUP2 MSTORE PUSH1 0x20 ADD PUSH1 0x0 KECCAK256 PUSH1 0x0 ADD PUSH1 0x0 PUSH2 0x100 EXP DUP2 SLOAD DUP2 PUSH1 0xFF MUL NOT AND SWAP1 DUP4 PUSH1 0xFF AND MUL OR SWAP1 SSTORE POP POP POP JUMP JUMPDEST PUSH1 0x0 PUSH2 0x4CE DUP3 PUSH2 0x1AB8 JUMP JUMPDEST SWAP1 POP PUSH1 0x0 PUSH2 0x4DB DUP4 PUSH2 0x19DB JUMP JUMPDEST SWAP1 POP DUP2 PUSH20 0xFFFFFFFFFFFFFFFFFFFFFFFFFFFFFFFFFFFFFFFF AND CALLER PUSH20 0xFFFFFFFFFFFFFFFFFFFFFFFFFFFFFFFFFFFFFFFF AND EQ PUSH2 0x515 JUMPI PUSH1 0x0 DUP1 REVERT JUMPDEST PUSH1 0x0 ISZERO ISZERO PUSH1 0x3 PUSH1 0x0 DUP4 PUSH20 0xFFFFFFFFFFFFFFFFFFFFFFFFFFFFFFFFFFFFFFFF AND PUSH20 0xFFFFFFFFFFFFFFFFFFFFFFFFFFFFFFFFFFFFFFFF AND DUP2 MSTORE PUSH1 0x20 ADD SWAP1 DUP2 MSTORE PUSH1 0x20 ADD PUSH1 0x0 KECCAK256 PUSH1 0x0 DUP6 PUSH8 0xFFFFFFFFFFFFFFFF AND DUP2 MSTORE PUSH1 0x20 ADD SWAP1 DUP2 MSTORE PUSH1 0x20 ADD PUSH1 0x0 KECCAK256 PUSH1 0x0 SWAP1 SLOAD SWAP1 PUSH2 0x100 EXP SWAP1 DIV PUSH1 0xFF AND ISZERO ISZERO EQ PUSH2 0x58D JUMPI PUSH1 0x0 DUP1 REVERT JUMPDEST PUSH1 0x0 ISZERO ISZERO PUSH1 0x6 PUSH1 0x0 CALLER PUSH20 0xFFFFFFFFFFFFFFFFFFFFFFFFFFFFFFFFFFFFFFFF AND PUSH20 0xFFFFFFFFFFFFFFFFFFFFFFFFFFFFFFFFFFFFFFFF AND DUP2 MSTORE PUSH1 0x20 ADD SWAP1 DUP2 MSTORE PUSH1 0x20 ADD PUSH1 0x0 KECCAK256 PUSH1 0x0 DUP6 PUSH8 0xFFFFFFFFFFFFFFFF AND DUP2 MSTORE PUSH1 0x20 ADD SWAP1 DUP2 MSTORE PUSH1 0x20 ADD PUSH1 0x0 KECCAK256 PUSH1 0x0 SWAP1 SLOAD SWAP1 PUSH2 0x100 EXP SWAP1 DIV PUSH1 0xFF AND ISZERO ISZERO EQ PUSH2 0x605 JUMPI PUSH1 0x0 DUP1 REVERT JUMPDEST DUP2 PUSH20 0xFFFFFFFFFFFFFFFFFFFFFFFFFFFFFFFFFFFFFFFF AND CALLER PUSH20 0xFFFFFFFFFFFFFFFFFFFFFFFFFFFFFFFFFFFFFFFF AND EQ PUSH2 0x63D JUMPI PUSH1 0x0 DUP1 REVERT JUMPDEST PUSH1 0x0 PUSH1 0x2 PUSH1 0x0 DUP6 PUSH8 0xFFFFFFFFFFFFFFFF AND PUSH8 0xFFFFFFFFFFFFFFFF AND DUP2 MSTORE PUSH1 0x20 ADD SWAP1 DUP2 MSTORE PUSH1 0x20 ADD PUSH1 0x0 KECCAK256 PUSH1 0x2 ADD PUSH1 0x0 SWAP1 SLOAD SWAP1 PUSH2 0x100 EXP SWAP1 DIV PUSH20 0xFFFFFFFFFFFFFFFFFFFFFFFFFFFFFFFFFFFFFFFF AND SWAP1 POP PUSH1 0x0 PUSH2 0x724 PUSH1 0x2 PUSH1 0x0 DUP8 PUSH8 0xFFFFFFFFFFFFFFFF AND PUSH8 0xFFFFFFFFFFFFFFFF AND DUP2 MSTORE PUSH1 0x20 ADD SWAP1 DUP2 MSTORE PUSH1 0x20 ADD PUSH1 0x0 KECCAK256 PUSH1 0x1 ADD PUSH1 0x0 SWAP1 SLOAD SWAP1 PUSH2 0x100 EXP SWAP1 DIV PUSH16 0xFFFFFFFFFFFFFFFFFFFFFFFFFFFFFFFF AND PUSH1 0x2 PUSH1 0x0 DUP9 PUSH8 0xFFFFFFFFFFFFFFFF AND PUSH8 0xFFFFFFFFFFFFFFFF AND DUP2 MSTORE PUSH1 0x20 ADD SWAP1 DUP2 MSTORE PUSH1 0x20 ADD PUSH1 0x0 KECCAK256 PUSH1 0x0 ADD PUSH1 0x10 SWAP1 SLOAD SWAP1 PUSH2 0x100 EXP SWAP1 DIV PUSH16 0xFFFFFFFFFFFFFFFFFFFFFFFFFFFFFFFF AND PUSH2 0x11C2 JUMP JUMPDEST SWAP1 POP PUSH1 0x0 PUSH2 0x731 DUP3 PUSH2 0x1B0C JUMP JUMPDEST SWAP1 POP PUSH2 0x75E ADDRESS DUP3 DUP6 PUSH20 0xFFFFFFFFFFFFFFFFFFFFFFFFFFFFFFFFFFFFFFFF AND PUSH2 0x1BB3 SWAP1 SWAP3 SWAP2 SWAP1 PUSH4 0xFFFFFFFF AND JUMP JUMPDEST PUSH2 0x794 DUP6 DUP3 DUP5 PUSH2 0x76E SWAP2 SWAP1 PUSH2 0x217E JUMP JUMPDEST DUP6 PUSH20 0xFFFFFFFFFFFFFFFFFFFFFFFFFFFFFFFFFFFFFFFF AND PUSH2 0x1BB3 SWAP1 SWAP3 SWAP2 SWAP1 PUSH4 0xFFFFFFFF AND JUMP JUMPDEST PUSH1 0x1 PUSH1 0x6 PUSH1 0x0 CALLER PUSH20 0xFFFFFFFFFFFFFFFFFFFFFFFFFFFFFFFFFFFFFFFF AND PUSH20 0xFFFFFFFFFFFFFFFFFFFFFFFFFFFFFFFFFFFFFFFF AND DUP2 MSTORE PUSH1 0x20 ADD SWAP1 DUP2 MSTORE PUSH1 0x20 ADD PUSH1 0x0 KECCAK256 PUSH1 0x0 DUP9 PUSH8 0xFFFFFFFFFFFFFFFF AND DUP2 MSTORE PUSH1 0x20 ADD SWAP1 DUP2 MSTORE PUSH1 0x20 ADD PUSH1 0x0 KECCAK256 PUSH1 0x0 PUSH2 0x100 EXP DUP2 SLOAD DUP2 PUSH1 0xFF MUL NOT AND SWAP1 DUP4 ISZERO ISZERO MUL OR SWAP1 SSTORE POP PUSH1 0x1 PUSH1 0x2 PUSH1 0x0 DUP9 PUSH8 0xFFFFFFFFFFFFFFFF AND PUSH8 0xFFFFFFFFFFFFFFFF AND DUP2 MSTORE PUSH1 0x20 ADD SWAP1 DUP2 MSTORE PUSH1 0x20 ADD PUSH1 0x0 KECCAK256 PUSH1 0x0 ADD PUSH1 0x0 SWAP1 SLOAD SWAP1 PUSH2 0x100 EXP SWAP1 DIV PUSH1 0xFF AND PUSH1 0xFF AND SUB PUSH2 0xA17 JUMPI PUSH1 0x0 ISZERO ISZERO PUSH1 0x7 PUSH1 0x0 CALLER PUSH20 0xFFFFFFFFFFFFFFFFFFFFFFFFFFFFFFFFFFFFFFFF AND PUSH20 0xFFFFFFFFFFFFFFFFFFFFFFFFFFFFFFFFFFFFFFFF AND DUP2 MSTORE PUSH1 0x20 ADD SWAP1 DUP2 MSTORE PUSH1 0x20 ADD PUSH1 0x0 KECCAK256 PUSH1 0x0 DUP9 PUSH8 0xFFFFFFFFFFFFFFFF AND DUP2 MSTORE PUSH1 0x20 ADD SWAP1 DUP2 MSTORE PUSH1 0x20 ADD PUSH1 0x0 KECCAK256 PUSH1 0x0 SWAP1 SLOAD SWAP1 PUSH2 0x100 EXP SWAP1 DIV PUSH1 0xFF AND ISZERO ISZERO EQ PUSH2 0x8C1 JUMPI PUSH1 0x0 DUP1 REVERT JUMPDEST PUSH1 0x0 PUSH1 0x2 PUSH1 0x0 DUP9 PUSH8 0xFFFFFFFFFFFFFFFF AND PUSH8 0xFFFFFFFFFFFFFFFF AND DUP2 MSTORE PUSH1 0x20 ADD SWAP1 DUP2 MSTORE PUSH1 0x20 ADD PUSH1 0x0 KECCAK256 PUSH1 0x0 ADD PUSH1 0x10 SWAP1 SLOAD SWAP1 PUSH2 0x100 EXP SWAP1 DIV PUSH16 0xFFFFFFFFFFFFFFFFFFFFFFFFFFFFFFFF AND PUSH1 0x2 PUSH1 0x0 DUP10 PUSH8 0xFFFFFFFFFFFFFFFF AND PUSH8 0xFFFFFFFFFFFFFFFF AND DUP2 MSTORE PUSH1 0x20 ADD SWAP1 DUP2 MSTORE PUSH1 0x20 ADD PUSH1 0x0 KECCAK256 PUSH1 0x1 ADD PUSH1 0x0 SWAP1 SLOAD SWAP1 PUSH2 0x100 EXP SWAP1 DIV PUSH16 0xFFFFFFFFFFFFFFFFFFFFFFFFFFFFFFFF AND PUSH2 0x95B SWAP2 SWAP1 PUSH2 0x21B2 JUMP JUMPDEST PUSH16 0xFFFFFFFFFFFFFFFFFFFFFFFFFFFFFFFF AND SWAP1 POP PUSH2 0x9A2 PUSH2 0x97B DUP9 PUSH2 0x1AB8 JUMP JUMPDEST DUP3 DUP7 PUSH20 0xFFFFFFFFFFFFFFFFFFFFFFFFFFFFFFFFFFFFFFFF AND PUSH2 0x1BB3 SWAP1 SWAP3 SWAP2 SWAP1 PUSH4 0xFFFFFFFF AND JUMP JUMPDEST PUSH1 0x1 PUSH1 0x7 PUSH1 0x0 CALLER PUSH20 0xFFFFFFFFFFFFFFFFFFFFFFFFFFFFFFFFFFFFFFFF AND PUSH20 0xFFFFFFFFFFFFFFFFFFFFFFFFFFFFFFFFFFFFFFFF AND DUP2 MSTORE PUSH1 0x20 ADD SWAP1 DUP2 MSTORE PUSH1 0x20 ADD PUSH1 0x0 KECCAK256 PUSH1 0x0 DUP10 PUSH8 0xFFFFFFFFFFFFFFFF AND DUP2 MSTORE PUSH1 0x20 ADD SWAP1 DUP2 MSTORE PUSH1 0x20 ADD PUSH1 0x0 KECCAK256 PUSH1 0x0 PUSH2 0x100 EXP DUP2 SLOAD DUP2 PUSH1 0xFF MUL NOT AND SWAP1 DUP4 ISZERO ISZERO MUL OR SWAP1 SSTORE POP POP JUMPDEST PUSH1 0x5 PUSH1 0x2 PUSH1 0x0 DUP9 PUSH8 0xFFFFFFFFFFFFFFFF AND PUSH8 0xFFFFFFFFFFFFFFFF AND DUP2 MSTORE PUSH1 0x20 ADD SWAP1 DUP2 MSTORE PUSH1 0x20 ADD PUSH1 0x0 KECCAK256 PUSH1 0x0 ADD PUSH1 0x0 PUSH2 0x100 EXP DUP2 SLOAD DUP2 PUSH1 0xFF MUL NOT AND SWAP1 DUP4 PUSH1 0xFF AND MUL OR SWAP1 SSTORE POP POP POP POP POP POP POP JUMP JUMPDEST PUSH1 0x4 PUSH1 0x20 MSTORE DUP2 PUSH1 0x0 MSTORE PUSH1 0x40 PUSH1 0x0 KECCAK256 PUSH1 0x20 MSTORE DUP1 PUSH1 0x0 MSTORE PUSH1 0x40 PUSH1 0x0 KECCAK256 PUSH1 0x0 SWAP2 POP SWAP2 POP SWAP1 SLOAD SWAP1 PUSH2 0x100 EXP SWAP1 DIV PUSH1 0xFF AND DUP2 JUMP JUMPDEST PUSH1 0x0 PUSH1 0x2 PUSH1 0x0 DUP4 PUSH8 0xFFFFFFFFFFFFFFFF AND PUSH8 0xFFFFFFFFFFFFFFFF AND DUP2 MSTORE PUSH1 0x20 ADD SWAP1 DUP2 MSTORE PUSH1 0x20 ADD PUSH1 0x0 KECCAK256 PUSH1 0x40 MLOAD DUP1 PUSH2 0x100 ADD PUSH1 0x40 MSTORE SWAP1 DUP2 PUSH1 0x0 DUP3 ADD PUSH1 0x0 SWAP1 SLOAD SWAP1 PUSH2 0x100 EXP SWAP1 DIV PUSH1 0xFF AND PUSH1 0xFF AND PUSH1 0xFF AND DUP2 MSTORE PUSH1 0x20 ADD PUSH1 0x0 DUP3 ADD PUSH1 0x1 SWAP1 SLOAD SWAP1 PUSH2 0x100 EXP SWAP1 DIV PUSH8 0xFFFFFFFFFFFFFFFF AND PUSH8 0xFFFFFFFFFFFFFFFF AND PUSH8 0xFFFFFFFFFFFFFFFF AND DUP2 MSTORE PUSH1 0x20 ADD PUSH1 0x0 DUP3 ADD PUSH1 0x9 SWAP1 SLOAD SWAP1 PUSH2 0x100 EXP SWAP1 DIV PUSH7 0xFFFFFFFFFFFFFF AND PUSH7 0xFFFFFFFFFFFFFF AND PUSH7 0xFFFFFFFFFFFFFF AND DUP2 MSTORE PUSH1 0x20 ADD PUSH1 0x0 DUP3 ADD PUSH1 0x10 SWAP1 SLOAD SWAP1 PUSH2 0x100 EXP SWAP1 DIV PUSH16 0xFFFFFFFFFFFFFFFFFFFFFFFFFFFFFFFF AND PUSH16 0xFFFFFFFFFFFFFFFFFFFFFFFFFFFFFFFF AND PUSH16 0xFFFFFFFFFFFFFFFFFFFFFFFFFFFFFFFF AND DUP2 MSTORE PUSH1 0x20 ADD PUSH1 0x1 DUP3 ADD PUSH1 0x0 SWAP1 SLOAD SWAP1 PUSH2 0x100 EXP SWAP1 DIV PUSH16 0xFFFFFFFFFFFFFFFFFFFFFFFFFFFFFFFF AND PUSH16 0xFFFFFFFFFFFFFFFFFFFFFFFFFFFFFFFF AND PUSH16 0xFFFFFFFFFFFFFFFFFFFFFFFFFFFFFFFF AND DUP2 MSTORE PUSH1 0x20 ADD PUSH1 0x2 DUP3 ADD PUSH1 0x0 SWAP1 SLOAD SWAP1 PUSH2 0x100 EXP SWAP1 DIV PUSH20 0xFFFFFFFFFFFFFFFFFFFFFFFFFFFFFFFFFFFFFFFF AND PUSH20 0xFFFFFFFFFFFFFFFFFFFFFFFFFFFFFFFFFFFFFFFF AND PUSH20 0xFFFFFFFFFFFFFFFFFFFFFFFFFFFFFFFFFFFFFFFF AND DUP2 MSTORE PUSH1 0x20 ADD PUSH1 0x3 DUP3 ADD PUSH1 0x0 SWAP1 SLOAD SWAP1 PUSH2 0x100 EXP SWAP1 DIV PUSH20 0xFFFFFFFFFFFFFFFFFFFFFFFFFFFFFFFFFFFFFFFF AND PUSH20 0xFFFFFFFFFFFFFFFFFFFFFFFFFFFFFFFFFFFFFFFF AND PUSH20 0xFFFFFFFFFFFFFFFFFFFFFFFFFFFFFFFFFFFFFFFF AND DUP2 MSTORE PUSH1 0x20 ADD PUSH1 0x4 DUP3 ADD PUSH1 0x0 SWAP1 SLOAD SWAP1 PUSH2 0x100 EXP SWAP1 DIV PUSH20 0xFFFFFFFFFFFFFFFFFFFFFFFFFFFFFFFFFFFFFFFF AND PUSH20 0xFFFFFFFFFFFFFFFFFFFFFFFFFFFFFFFFFFFFFFFF AND PUSH20 0xFFFFFFFFFFFFFFFFFFFFFFFFFFFFFFFFFFFFFFFF AND DUP2 MSTORE POP POP SWAP1 POP PUSH1 0x1 DUP2 PUSH1 0x0 ADD MLOAD PUSH1 0xFF AND EQ PUSH2 0xCF1 JUMPI PUSH1 0x0 DUP1 REVERT JUMPDEST PUSH1 0x0 DUP2 PUSH1 0xA0 ADD MLOAD SWAP1 POP PUSH2 0xD38 CALLER ADDRESS PUSH2 0xD11 DUP6 PUSH1 0x80 ADD MLOAD DUP7 PUSH1 0x60 ADD MLOAD PUSH2 0x11C2 JUMP JUMPDEST DUP5 PUSH20 0xFFFFFFFFFFFFFFFFFFFFFFFFFFFFFFFFFFFFFFFF AND PUSH2 0x1A2F SWAP1 SWAP4 SWAP3 SWAP2 SWAP1 PUSH4 0xFFFFFFFF AND JUMP JUMPDEST CALLER PUSH1 0x2 PUSH1 0x0 DUP6 PUSH8 0xFFFFFFFFFFFFFFFF AND PUSH8 0xFFFFFFFFFFFFFFFF AND DUP2 MSTORE PUSH1 0x20 ADD SWAP1 DUP2 MSTORE PUSH1 0x20 ADD PUSH1 0x0 KECCAK256 PUSH1 0x4 ADD PUSH1 0x0 PUSH2 0x100 EXP DUP2 SLOAD DUP2 PUSH20 0xFFFFFFFFFFFFFFFFFFFFFFFFFFFFFFFFFFFFFFFF MUL NOT AND SWAP1 DUP4 PUSH20 0xFFFFFFFFFFFFFFFFFFFFFFFFFFFFFFFFFFFFFFFF AND MUL OR SWAP1 SSTORE POP PUSH1 0x2 DUP1 PUSH1 0x0 DUP6 PUSH8 0xFFFFFFFFFFFFFFFF AND PUSH8 0xFFFFFFFFFFFFFFFF AND DUP2 MSTORE PUSH1 0x20 ADD SWAP1 DUP2 MSTORE PUSH1 0x20 ADD PUSH1 0x0 KECCAK256 PUSH1 0x0 ADD PUSH1 0x0 PUSH2 0x100 EXP DUP2 SLOAD DUP2 PUSH1 0xFF MUL NOT AND SWAP1 DUP4 PUSH1 0xFF AND MUL OR SWAP1 SSTORE POP POP POP POP JUMP JUMPDEST PUSH1 0x0 PUSH2 0xDF4 DUP3 PUSH2 0x19DB JUMP JUMPDEST SWAP1 POP DUP1 PUSH20 0xFFFFFFFFFFFFFFFFFFFFFFFFFFFFFFFFFFFFFFFF AND CALLER PUSH20 0xFFFFFFFFFFFFFFFFFFFFFFFFFFFFFFFFFFFFFFFF AND EQ PUSH2 0xE2E JUMPI PUSH1 0x0 DUP1 REVERT JUMPDEST PUSH1 0x3 PUSH1 0x0 DUP3 PUSH20 0xFFFFFFFFFFFFFFFFFFFFFFFFFFFFFFFFFFFFFFFF AND PUSH20 0xFFFFFFFFFFFFFFFFFFFFFFFFFFFFFFFFFFFFFFFF AND DUP2 MSTORE PUSH1 0x20 ADD SWAP1 DUP2 MSTORE PUSH1 0x20 ADD PUSH1 0x0 KECCAK256 PUSH1 0x0 DUP4 PUSH8 0xFFFFFFFFFFFFFFFF AND DUP2 MSTORE PUSH1 0x20 ADD SWAP1 DUP2 MSTORE PUSH1 0x20 ADD PUSH1 0x0 KECCAK256 PUSH1 0x0 SWAP1 SLOAD SWAP1 PUSH2 0x100 EXP SWAP1 DIV PUSH1 0xFF AND PUSH2 0xE9F JUMPI PUSH1 0x0 DUP1 REVERT JUMPDEST PUSH1 0x0 ISZERO ISZERO PUSH1 0x5 PUSH1 0x0 CALLER PUSH20 0xFFFFFFFFFFFFFFFFFFFFFFFFFFFFFFFFFFFFFFFF AND PUSH20 0xFFFFFFFFFFFFFFFFFFFFFFFFFFFFFFFFFFFFFFFF AND DUP2 MSTORE PUSH1 0x20 ADD SWAP1 DUP2 MSTORE PUSH1 0x20 ADD PUSH1 0x0 KECCAK256 PUSH1 0x0 DUP5 PUSH8 0xFFFFFFFFFFFFFFFF AND DUP2 MSTORE PUSH1 0x20 ADD SWAP1 DUP2 MSTORE PUSH1 0x20 ADD PUSH1 0x0 KECCAK256 PUSH1 0x0 SWAP1 SLOAD SWAP1 PUSH2 0x100 EXP SWAP1 DIV PUSH1 0xFF AND ISZERO ISZERO EQ PUSH2 0xF17 JUMPI PUSH1 0x0 DUP1 REVERT JUMPDEST PUSH1 0x0 PUSH1 0x2 PUSH1 0x0 DUP5 PUSH8 0xFFFFFFFFFFFFFFFF AND PUSH8 0xFFFFFFFFFFFFFFFF AND DUP2 MSTORE PUSH1 0x20 ADD SWAP1 DUP2 MSTORE PUSH1 0x20 ADD PUSH1 0x0 KECCAK256 PUSH1 0x2 ADD PUSH1 0x0 SWAP1 SLOAD SWAP1 PUSH2 0x100 EXP SWAP1 DIV PUSH20 0xFFFFFFFFFFFFFFFFFFFFFFFFFFFFFFFFFFFFFFFF AND SWAP1 POP PUSH1 0x0 PUSH1 0x2 PUSH1 0x0 DUP6 PUSH8 0xFFFFFFFFFFFFFFFF AND PUSH8 0xFFFFFFFFFFFFFFFF AND DUP2 MSTORE PUSH1 0x20 ADD SWAP1 DUP2 MSTORE PUSH1 0x20 ADD PUSH1 0x0 KECCAK256 PUSH1 0x0 ADD PUSH1 0x10 SWAP1 SLOAD SWAP1 PUSH2 0x100 EXP SWAP1 DIV PUSH16 0xFFFFFFFFFFFFFFFFFFFFFFFFFFFFFFFF AND PUSH1 0x2 PUSH1 0x0 DUP7 PUSH8 0xFFFFFFFFFFFFFFFF AND PUSH8 0xFFFFFFFFFFFFFFFF AND DUP2 MSTORE PUSH1 0x20 ADD SWAP1 DUP2 MSTORE PUSH1 0x20 ADD PUSH1 0x0 KECCAK256 PUSH1 0x1 ADD PUSH1 0x0 SWAP1 SLOAD SWAP1 PUSH2 0x100 EXP SWAP1 DIV PUSH16 0xFFFFFFFFFFFFFFFFFFFFFFFFFFFFFFFF AND PUSH2 0x1000 SWAP2 SWAP1 PUSH2 0x21B2 JUMP JUMPDEST PUSH16 0xFFFFFFFFFFFFFFFFFFFFFFFFFFFFFFFF AND SWAP1 POP PUSH1 0x0 PUSH2 0x10AC PUSH1 0x2 PUSH1 0x0 DUP8 PUSH8 0xFFFFFFFFFFFFFFFF AND PUSH8 0xFFFFFFFFFFFFFFFF AND DUP2 MSTORE PUSH1 0x20 ADD SWAP1 DUP2 MSTORE PUSH1 0x20 ADD PUSH1 0x0 KECCAK256 PUSH1 0x1 ADD PUSH1 0x0 SWAP1 SLOAD SWAP1 PUSH2 0x100 EXP SWAP1 DIV PUSH16 0xFFFFFFFFFFFFFFFFFFFFFFFFFFFFFFFF AND PUSH1 0x2 PUSH1 0x0 DUP9 PUSH8 0xFFFFFFFFFFFFFFFF AND PUSH8 0xFFFFFFFFFFFFFFFF AND DUP2 MSTORE PUSH1 0x20 ADD SWAP1 DUP2 MSTORE PUSH1 0x20 ADD PUSH1 0x0 KECCAK256 PUSH1 0x0 ADD PUSH1 0x10 SWAP1 SLOAD SWAP1 PUSH2 0x100 EXP SWAP1 DIV PUSH16 0xFFFFFFFFFFFFFFFFFFFFFFFFFFFFFFFF AND PUSH2 0x11C2 JUMP JUMPDEST SWAP1 POP PUSH1 0x0 PUSH2 0x10B9 DUP4 PUSH2 0x1B0C JUMP JUMPDEST SWAP1 POP PUSH2 0x10E6 ADDRESS DUP3 DUP7 PUSH20 0xFFFFFFFFFFFFFFFFFFFFFFFFFFFFFFFFFFFFFFFF AND PUSH2 0x1BB3 SWAP1 SWAP3 SWAP2 SWAP1 PUSH4 0xFFFFFFFF AND JUMP JUMPDEST PUSH2 0x111C DUP6 DUP3 DUP6 PUSH2 0x10F6 SWAP2 SWAP1 PUSH2 0x217E JUMP JUMPDEST DUP7 PUSH20 0xFFFFFFFFFFFFFFFFFFFFFFFFFFFFFFFFFFFFFFFF AND PUSH2 0x1BB3 SWAP1 SWAP3 SWAP2 SWAP1 PUSH4 0xFFFFFFFF AND JUMP JUMPDEST PUSH2 0x1147 DUP6 DUP4 DUP7 PUSH20 0xFFFFFFFFFFFFFFFFFFFFFFFFFFFFFFFFFFFFFFFF AND PUSH2 0x1BB3 SWAP1 SWAP3 SWAP2 SWAP1 PUSH4 0xFFFFFFFF AND JUMP JUMPDEST PUSH1 0x1 PUSH1 0x5 PUSH1 0x0 CALLER PUSH20 0xFFFFFFFFFFFFFFFFFFFFFFFFFFFFFFFFFFFFFFFF AND PUSH20 0xFFFFFFFFFFFFFFFFFFFFFFFFFFFFFFFFFFFFFFFF AND DUP2 MSTORE PUSH1 0x20 ADD SWAP1 DUP2 MSTORE PUSH1 0x20 ADD PUSH1 0x0 KECCAK256 PUSH1 0x0 DUP9 PUSH8 0xFFFFFFFFFFFFFFFF AND DUP2 MSTORE PUSH1 0x20 ADD SWAP1 DUP2 MSTORE PUSH1 0x20 ADD PUSH1 0x0 KECCAK256 PUSH1 0x0 PUSH2 0x100 EXP DUP2 SLOAD DUP2 PUSH1 0xFF MUL NOT AND SWAP1 DUP4 ISZERO ISZERO MUL OR SWAP1 SSTORE POP POP POP POP POP POP POP JUMP JUMPDEST PUSH1 0x0 DUP1 DUP3 DUP5 PUSH2 0x11D1 SWAP2 SWAP1 PUSH2 0x21B2 JUMP JUMPDEST PUSH16 0xFFFFFFFFFFFFFFFFFFFFFFFFFFFFFFFF AND SWAP1 POP PUSH9 0x56BC75E2D63100000 DUP2 LT ISZERO DUP1 ISZERO PUSH2 0x1206 JUMPI POP PUSH9 0x3635C9ADC5DEA00000 DUP2 LT JUMPDEST ISZERO PUSH2 0x122C JUMPI PUSH1 0x64 PUSH1 0x32 DUP3 PUSH2 0x121A SWAP2 SWAP1 PUSH2 0x21EF JUMP JUMPDEST PUSH2 0x1224 SWAP2 SWAP1 PUSH2 0x2260 JUMP JUMPDEST SWAP2 POP POP PUSH2 0x12D9 JUMP JUMPDEST PUSH9 0x3635C9ADC5DEA00000 DUP2 LT ISZERO DUP1 ISZERO PUSH2 0x124E JUMPI POP PUSH10 0x21E19E0C9BAB2400000 DUP2 LT JUMPDEST ISZERO PUSH2 0x1274 JUMPI PUSH1 0x64 PUSH1 0x28 DUP3 PUSH2 0x1262 SWAP2 SWAP1 PUSH2 0x21EF JUMP JUMPDEST PUSH2 0x126C SWAP2 SWAP1 PUSH2 0x2260 JUMP JUMPDEST SWAP2 POP POP PUSH2 0x12D9 JUMP JUMPDEST PUSH10 0x21E19E0C9BAB2400000 DUP2 GT ISZERO PUSH2 0x12A7 JUMPI PUSH1 0x64 PUSH1 0x19 DUP3 PUSH2 0x1295 SWAP2 SWAP1 PUSH2 0x21EF JUMP JUMPDEST PUSH2 0x129F SWAP2 SWAP1 PUSH2 0x2260 JUMP JUMPDEST SWAP2 POP POP PUSH2 0x12D9 JUMP JUMPDEST PUSH1 0x40 MLOAD PUSH32 0xE008B5F900000000000000000000000000000000000000000000000000000000 DUP2 MSTORE PUSH1 0x4 ADD PUSH1 0x40 MLOAD DUP1 SWAP2 SUB SWAP1 REVERT JUMPDEST SWAP3 SWAP2 POP POP JUMP JUMPDEST PUSH1 0x6 PUSH1 0x20 MSTORE DUP2 PUSH1 0x0 MSTORE PUSH1 0x40 PUSH1 0x0 KECCAK256 PUSH1 0x20 MSTORE DUP1 PUSH1 0x0 MSTORE PUSH1 0x40 PUSH1 0x0 KECCAK256 PUSH1 0x0 SWAP2 POP SWAP2 POP SWAP1 SLOAD SWAP1 PUSH2 0x100 EXP SWAP1 DIV PUSH1 0xFF AND DUP2 JUMP JUMPDEST PUSH1 0x0 PUSH2 0x1319 DUP3 PUSH2 0x1AB8 JUMP JUMPDEST SWAP1 POP DUP1 PUSH20 0xFFFFFFFFFFFFFFFFFFFFFFFFFFFFFFFFFFFFFFFF AND CALLER PUSH20 0xFFFFFFFFFFFFFFFFFFFFFFFFFFFFFFFFFFFFFFFF AND EQ PUSH2 0x1380 JUMPI PUSH1 0x40 MLOAD PUSH32 0x472E017E00000000000000000000000000000000000000000000000000000000 DUP2 MSTORE PUSH1 0x4 ADD PUSH1 0x40 MLOAD DUP1 SWAP2 SUB SWAP1 REVERT JUMPDEST PUSH1 0x3 PUSH1 0x2 PUSH1 0x0 DUP5 PUSH8 0xFFFFFFFFFFFFFFFF AND PUSH8 0xFFFFFFFFFFFFFFFF AND DUP2 MSTORE PUSH1 0x20 ADD SWAP1 DUP2 MSTORE PUSH1 0x20 ADD PUSH1 0x0 KECCAK256 PUSH1 0x0 ADD PUSH1 0x0 SWAP1 SLOAD SWAP1 PUSH2 0x100 EXP SWAP1 DIV PUSH1 0xFF AND PUSH1 0xFF AND EQ PUSH2 0x13F4 JUMPI PUSH1 0x40 MLOAD PUSH32 0xDE4461CD00000000000000000000000000000000000000000000000000000000 DUP2 MSTORE PUSH1 0x4 ADD PUSH1 0x40 MLOAD DUP1 SWAP2 SUB SWAP1 REVERT JUMPDEST PUSH1 0x0 PUSH1 0x2 PUSH1 0x0 DUP5 PUSH8 0xFFFFFFFFFFFFFFFF AND PUSH8 0xFFFFFFFFFFFFFFFF AND DUP2 MSTORE PUSH1 0x20 ADD SWAP1 DUP2 MSTORE PUSH1 0x20 ADD PUSH1 0x0 KECCAK256 PUSH1 0x0 ADD PUSH1 0x10 SWAP1 SLOAD SWAP1 PUSH2 0x100 EXP SWAP1 DIV PUSH16 0xFFFFFFFFFFFFFFFFFFFFFFFFFFFFFFFF AND SWAP1 POP PUSH1 0x0 PUSH1 0x2 PUSH1 0x0 DUP6 PUSH8 0xFFFFFFFFFFFFFFFF AND PUSH8 0xFFFFFFFFFFFFFFFF AND DUP2 MSTORE PUSH1 0x20 ADD SWAP1 DUP2 MSTORE PUSH1 0x20 ADD PUSH1 0x0 KECCAK256 PUSH1 0x1 ADD PUSH1 0x0 SWAP1 SLOAD SWAP1 PUSH2 0x100 EXP SWAP1 DIV PUSH16 0xFFFFFFFFFFFFFFFFFFFFFFFFFFFFFFFF AND SWAP1 POP PUSH1 0x0 PUSH2 0x14B2 DUP3 DUP5 PUSH2 0x149B SWAP2 SWAP1 PUSH2 0x21B2 JUMP JUMPDEST PUSH16 0xFFFFFFFFFFFFFFFFFFFFFFFFFFFFFFFF AND PUSH2 0x1B0C JUMP JUMPDEST SWAP1 POP PUSH2 0x1501 ADDRESS DUP3 PUSH1 0x1 PUSH1 0x0 SWAP1 SLOAD SWAP1 PUSH2 0x100 EXP SWAP1 DIV PUSH20 0xFFFFFFFFFFFFFFFFFFFFFFFFFFFFFFFFFFFFFFFF AND PUSH20 0xFFFFFFFFFFFFFFFFFFFFFFFFFFFFFFFFFFFFFFFF AND PUSH2 0x1BB3 SWAP1 SWAP3 SWAP2 SWAP1 PUSH4 0xFFFFFFFF AND JUMP JUMPDEST PUSH2 0x156B DUP5 DUP3 DUP6 PUSH16 0xFFFFFFFFFFFFFFFFFFFFFFFFFFFFFFFF AND PUSH2 0x1523 SWAP2 SWAP1 PUSH2 0x217E JUMP JUMPDEST PUSH1 0x1 PUSH1 0x0 SWAP1 SLOAD SWAP1 PUSH2 0x100 EXP SWAP1 DIV PUSH20 0xFFFFFFFFFFFFFFFFFFFFFFFFFFFFFFFFFFFFFFFF AND PUSH20 0xFFFFFFFFFFFFFFFFFFFFFFFFFFFFFFFFFFFFFFFF AND PUSH2 0x1BB3 SWAP1 SWAP3 SWAP2 SWAP1 PUSH4 0xFFFFFFFF AND JUMP JUMPDEST PUSH1 0x4 PUSH1 0x2 PUSH1 0x0 DUP8 PUSH8 0xFFFFFFFFFFFFFFFF AND PUSH8 0xFFFFFFFFFFFFFFFF AND DUP2 MSTORE PUSH1 0x20 ADD SWAP1 DUP2 MSTORE PUSH1 0x20 ADD PUSH1 0x0 KECCAK256 PUSH1 0x0 ADD PUSH1 0x0 PUSH2 0x100 EXP DUP2 SLOAD DUP2 PUSH1 0xFF MUL NOT AND SWAP1 DUP4 PUSH1 0xFF AND MUL OR SWAP1 SSTORE POP POP POP POP POP POP JUMP JUMPDEST PUSH1 0x0 DUP2 DUP4 PUSH2 0x15C4 SWAP2 SWAP1 PUSH2 0x21B2 JUMP JUMPDEST PUSH16 0xFFFFFFFFFFFFFFFFFFFFFFFFFFFFFFFF AND SWAP1 POP PUSH9 0x56BC75E2D63100000 DUP2 LT ISZERO PUSH2 0x161B JUMPI PUSH1 0x40 MLOAD PUSH32 0xE008B5F900000000000000000000000000000000000000000000000000000000 DUP2 MSTORE PUSH1 0x4 ADD PUSH1 0x40 MLOAD DUP1 SWAP2 SUB SWAP1 REVERT JUMPDEST PUSH1 0x0 PUSH1 0x40 MLOAD DUP1 PUSH2 0x100 ADD PUSH1 0x40 MSTORE DUP1 PUSH1 0x1 PUSH1 0xFF AND DUP2 MSTORE PUSH1 0x20 ADD PUSH1 0x0 PUSH1 0x7 SWAP1 SLOAD SWAP1 PUSH2 0x100 EXP SWAP1 DIV PUSH8 0xFFFFFFFFFFFFFFFF AND PUSH8 0xFFFFFFFFFFFFFFFF AND DUP2 MSTORE PUSH1 0x20 ADD TIMESTAMP PUSH7 0xFFFFFFFFFFFFFF AND DUP2 MSTORE PUSH1 0x20 ADD DUP6 PUSH16 0xFFFFFFFFFFFFFFFFFFFFFFFFFFFFFFFF AND DUP2 MSTORE PUSH1 0x20 ADD DUP5 PUSH16 0xFFFFFFFFFFFFFFFFFFFFFFFFFFFFFFFF AND DUP2 MSTORE PUSH1 0x20 ADD DUP7 PUSH20 0xFFFFFFFFFFFFFFFFFFFFFFFFFFFFFFFFFFFFFFFF AND DUP2 MSTORE PUSH1 0x20 ADD CALLER PUSH20 0xFFFFFFFFFFFFFFFFFFFFFFFFFFFFFFFFFFFFFFFF AND DUP2 MSTORE PUSH1 0x20 ADD ADDRESS PUSH20 0xFFFFFFFFFFFFFFFFFFFFFFFFFFFFFFFFFFFFFFFF AND DUP2 MSTORE POP SWAP1 POP DUP1 PUSH1 0x2 PUSH1 0x0 DUP1 PUSH1 0x7 SWAP1 SLOAD SWAP1 PUSH2 0x100 EXP SWAP1 DIV PUSH8 0xFFFFFFFFFFFFFFFF AND PUSH8 0xFFFFFFFFFFFFFFFF AND PUSH8 0xFFFFFFFFFFFFFFFF AND DUP2 MSTORE PUSH1 0x20 ADD SWAP1 DUP2 MSTORE PUSH1 0x20 ADD PUSH1 0x0 KECCAK256 PUSH1 0x0 DUP3 ADD MLOAD DUP2 PUSH1 0x0 ADD PUSH1 0x0 PUSH2 0x100 EXP DUP2 SLOAD DUP2 PUSH1 0xFF MUL NOT AND SWAP1 DUP4 PUSH1 0xFF AND MUL OR SWAP1 SSTORE POP PUSH1 0x20 DUP3 ADD MLOAD DUP2 PUSH1 0x0 ADD PUSH1 0x1 PUSH2 0x100 EXP DUP2 SLOAD DUP2 PUSH8 0xFFFFFFFFFFFFFFFF MUL NOT AND SWAP1 DUP4 PUSH8 0xFFFFFFFFFFFFFFFF AND MUL OR SWAP1 SSTORE POP PUSH1 0x40 DUP3 ADD MLOAD DUP2 PUSH1 0x0 ADD PUSH1 0x9 PUSH2 0x100 EXP DUP2 SLOAD DUP2 PUSH7 0xFFFFFFFFFFFFFF MUL NOT AND SWAP1 DUP4 PUSH7 0xFFFFFFFFFFFFFF AND MUL OR SWAP1 SSTORE POP PUSH1 0x60 DUP3 ADD MLOAD DUP2 PUSH1 0x0 ADD PUSH1 0x10 PUSH2 0x100 EXP DUP2 SLOAD DUP2 PUSH16 0xFFFFFFFFFFFFFFFFFFFFFFFFFFFFFFFF MUL NOT AND SWAP1 DUP4 PUSH16 0xFFFFFFFFFFFFFFFFFFFFFFFFFFFFFFFF AND MUL OR SWAP1 SSTORE POP PUSH1 0x80 DUP3 ADD MLOAD DUP2 PUSH1 0x1 ADD PUSH1 0x0 PUSH2 0x100 EXP DUP2 SLOAD DUP2 PUSH16 0xFFFFFFFFFFFFFFFFFFFFFFFFFFFFFFFF MUL NOT AND SWAP1 DUP4 PUSH16 0xFFFFFFFFFFFFFFFFFFFFFFFFFFFFFFFF AND MUL OR SWAP1 SSTORE POP PUSH1 0xA0 DUP3 ADD MLOAD DUP2 PUSH1 0x2 ADD PUSH1 0x0 PUSH2 0x100 EXP DUP2 SLOAD DUP2 PUSH20 0xFFFFFFFFFFFFFFFFFFFFFFFFFFFFFFFFFFFFFFFF MUL NOT AND SWAP1 DUP4 PUSH20 0xFFFFFFFFFFFFFFFFFFFFFFFFFFFFFFFFFFFFFFFF AND MUL OR SWAP1 SSTORE POP PUSH1 0xC0 DUP3 ADD MLOAD DUP2 PUSH1 0x3 ADD PUSH1 0x0 PUSH2 0x100 EXP DUP2 SLOAD DUP2 PUSH20 0xFFFFFFFFFFFFFFFFFFFFFFFFFFFFFFFFFFFFFFFF MUL NOT AND SWAP1 DUP4 PUSH20 0xFFFFFFFFFFFFFFFFFFFFFFFFFFFFFFFFFFFFFFFF AND MUL OR SWAP1 SSTORE POP PUSH1 0xE0 DUP3 ADD MLOAD DUP2 PUSH1 0x4 ADD PUSH1 0x0 PUSH2 0x100 EXP DUP2 SLOAD DUP2 PUSH20 0xFFFFFFFFFFFFFFFFFFFFFFFFFFFFFFFFFFFFFFFF MUL NOT AND SWAP1 DUP4 PUSH20 0xFFFFFFFFFFFFFFFFFFFFFFFFFFFFFFFFFFFFFFFF AND MUL OR SWAP1 SSTORE POP SWAP1 POP POP PUSH2 0x1929 CALLER ADDRESS DUP5 DUP9 PUSH20 0xFFFFFFFFFFFFFFFFFFFFFFFFFFFFFFFFFFFFFFFF AND PUSH2 0x1A2F SWAP1 SWAP4 SWAP3 SWAP2 SWAP1 PUSH4 0xFFFFFFFF AND JUMP JUMPDEST PUSH1 0x0 PUSH1 0x7 DUP2 DUP2 SWAP1 SLOAD SWAP1 PUSH2 0x100 EXP SWAP1 DIV PUSH8 0xFFFFFFFFFFFFFFFF AND DUP1 SWAP3 SWAP2 SWAP1 PUSH2 0x194F SWAP1 PUSH2 0x2291 JUMP JUMPDEST SWAP2 SWAP1 PUSH2 0x100 EXP DUP2 SLOAD DUP2 PUSH8 0xFFFFFFFFFFFFFFFF MUL NOT AND SWAP1 DUP4 PUSH8 0xFFFFFFFFFFFFFFFF AND MUL OR SWAP1 SSTORE POP POP POP POP POP POP POP JUMP JUMPDEST PUSH1 0x5 PUSH1 0x20 MSTORE DUP2 PUSH1 0x0 MSTORE PUSH1 0x40 PUSH1 0x0 KECCAK256 PUSH1 0x20 MSTORE DUP1 PUSH1 0x0 MSTORE PUSH1 0x40 PUSH1 0x0 KECCAK256 PUSH1 0x0 SWAP2 POP SWAP2 POP SWAP1 SLOAD SWAP1 PUSH2 0x100 EXP SWAP1 DIV PUSH1 0xFF AND DUP2 JUMP JUMPDEST PUSH1 0x7 PUSH1 0x20 MSTORE DUP2 PUSH1 0x0 MSTORE PUSH1 0x40 PUSH1 0x0 KECCAK256 PUSH1 0x20 MSTORE DUP1 PUSH1 0x0 MSTORE PUSH1 0x40 PUSH1 0x0 KECCAK256 PUSH1 0x0 SWAP2 POP SWAP2 POP SWAP1 SLOAD SWAP1 PUSH2 0x100 EXP SWAP1 DIV PUSH1 0xFF AND DUP2 JUMP JUMPDEST PUSH1 0x0 PUSH1 0x2 PUSH1 0x0 DUP4 PUSH8 0xFFFFFFFFFFFFFFFF AND PUSH8 0xFFFFFFFFFFFFFFFF AND DUP2 MSTORE PUSH1 0x20 ADD SWAP1 DUP2 MSTORE PUSH1 0x20 ADD PUSH1 0x0 KECCAK256 PUSH1 0x4 ADD PUSH1 0x0 SWAP1 SLOAD SWAP1 PUSH2 0x100 EXP SWAP1 DIV PUSH20 0xFFFFFFFFFFFFFFFFFFFFFFFFFFFFFFFFFFFFFFFF AND SWAP1 POP SWAP2 SWAP1 POP JUMP JUMPDEST PUSH2 0x1AB2 DUP5 PUSH4 0x23B872DD PUSH1 0xE0 SHL DUP6 DUP6 DUP6 PUSH1 0x40 MLOAD PUSH1 0x24 ADD PUSH2 0x1A50 SWAP4 SWAP3 SWAP2 SWAP1 PUSH2 0x22D0 JUMP JUMPDEST PUSH1 0x40 MLOAD PUSH1 0x20 DUP2 DUP4 SUB SUB DUP2 MSTORE SWAP1 PUSH1 0x40 MSTORE SWAP1 PUSH28 0xFFFFFFFFFFFFFFFFFFFFFFFFFFFFFFFFFFFFFFFFFFFFFFFFFFFFFFFF NOT AND PUSH1 0x20 DUP3 ADD DUP1 MLOAD PUSH28 0xFFFFFFFFFFFFFFFFFFFFFFFFFFFFFFFFFFFFFFFFFFFFFFFFFFFFFFFF DUP4 DUP2 DUP4 AND OR DUP4 MSTORE POP POP POP POP PUSH2 0x1C39 JUMP JUMPDEST POP POP POP POP JUMP JUMPDEST PUSH1 0x0 PUSH1 0x2 PUSH1 0x0 DUP4 PUSH8 0xFFFFFFFFFFFFFFFF AND PUSH8 0xFFFFFFFFFFFFFFFF AND DUP2 MSTORE PUSH1 0x20 ADD SWAP1 DUP2 MSTORE PUSH1 0x20 ADD PUSH1 0x0 KECCAK256 PUSH1 0x3 ADD PUSH1 0x0 SWAP1 SLOAD SWAP1 PUSH2 0x100 EXP SWAP1 DIV PUSH20 0xFFFFFFFFFFFFFFFFFFFFFFFFFFFFFFFFFFFFFFFF AND SWAP1 POP SWAP2 SWAP1 POP JUMP JUMPDEST PUSH1 0x0 PUSH9 0x56BC75E2D63100000 DUP3 LT ISZERO DUP1 ISZERO PUSH2 0x1B2F JUMPI POP PUSH9 0x3635C9ADC5DEA00000 DUP3 LT JUMPDEST ISZERO PUSH2 0x1B48 JUMPI PUSH1 0x64 DUP3 PUSH2 0x1B41 SWAP2 SWAP1 PUSH2 0x2260 JUMP JUMPDEST SWAP1 POP PUSH2 0x1BAE JUMP JUMPDEST PUSH9 0x3635C9ADC5DEA00000 DUP3 LT ISZERO DUP1 ISZERO PUSH2 0x1B6A JUMPI POP PUSH10 0x21E19E0C9BAB2400000 DUP3 LT JUMPDEST ISZERO PUSH2 0x1B83 JUMPI PUSH1 0xC8 DUP3 PUSH2 0x1B7C SWAP2 SWAP1 PUSH2 0x2260 JUMP JUMPDEST SWAP1 POP PUSH2 0x1BAE JUMP JUMPDEST PUSH10 0x21E19E0C9BAB2400000 DUP3 LT PUSH2 0x1BA9 JUMPI PUSH2 0x190 DUP3 PUSH2 0x1BA2 SWAP2 SWAP1 PUSH2 0x2260 JUMP JUMPDEST SWAP1 POP PUSH2 0x1BAE JUMP JUMPDEST PUSH1 0x0 SWAP1 POP JUMPDEST SWAP2 SWAP1 POP JUMP JUMPDEST PUSH2 0x1C34 DUP4 PUSH4 0xA9059CBB PUSH1 0xE0 SHL DUP5 DUP5 PUSH1 0x40 MLOAD PUSH1 0x24 ADD PUSH2 0x1BD2 SWAP3 SWAP2 SWAP1 PUSH2 0x2307 JUMP JUMPDEST PUSH1 0x40 MLOAD PUSH1 0x20 DUP2 DUP4 SUB SUB DUP2 MSTORE SWAP1 PUSH1 0x40 MSTORE SWAP1 PUSH28 0xFFFFFFFFFFFFFFFFFFFFFFFFFFFFFFFFFFFFFFFFFFFFFFFFFFFFFFFF NOT AND PUSH1 0x20 DUP3 ADD DUP1 MLOAD PUSH28 0xFFFFFFFFFFFFFFFFFFFFFFFFFFFFFFFFFFFFFFFFFFFFFFFFFFFFFFFF DUP4 DUP2 DUP4 AND OR DUP4 MSTORE POP POP POP POP PUSH2 0x1C39 JUMP JUMPDEST POP POP POP JUMP JUMPDEST PUSH1 0x0 PUSH2 0x1C9B DUP3 PUSH1 0x40 MLOAD DUP1 PUSH1 0x40 ADD PUSH1 0x40 MSTORE DUP1 PUSH1 0x20 DUP2 MSTORE PUSH1 0x20 ADD PUSH32 0x5361666545524332303A206C6F772D6C6576656C2063616C6C206661696C6564 DUP2 MSTORE POP DUP6 PUSH20 0xFFFFFFFFFFFFFFFFFFFFFFFFFFFFFFFFFFFFFFFF AND PUSH2 0x1D01 SWAP1 SWAP3 SWAP2 SWAP1 PUSH4 0xFFFFFFFF AND JUMP JUMPDEST SWAP1 POP PUSH1 0x0 DUP2 MLOAD EQ DUP1 PUSH2 0x1CBD JUMPI POP DUP1 DUP1 PUSH1 0x20 ADD SWAP1 MLOAD DUP2 ADD SWAP1 PUSH2 0x1CBC SWAP2 SWAP1 PUSH2 0x235C JUMP JUMPDEST JUMPDEST PUSH2 0x1CFC JUMPI PUSH1 0x40 MLOAD PUSH32 0x8C379A000000000000000000000000000000000000000000000000000000000 DUP2 MSTORE PUSH1 0x4 ADD PUSH2 0x1CF3 SWAP1 PUSH2 0x240C JUMP JUMPDEST PUSH1 0x40 MLOAD DUP1 SWAP2 SUB SWAP1 REVERT JUMPDEST POP POP POP JUMP JUMPDEST PUSH1 0x60 PUSH2 0x1D10 DUP5 DUP5 PUSH1 0x0 DUP6 PUSH2 0x1D19 JUMP JUMPDEST SWAP1 POP SWAP4 SWAP3 POP POP POP JUMP JUMPDEST PUSH1 0x60 DUP3 SELFBALANCE LT ISZERO PUSH2 0x1D5E JUMPI PUSH1 0x40 MLOAD PUSH32 0x8C379A000000000000000000000000000000000000000000000000000000000 DUP2 MSTORE PUSH1 0x4 ADD PUSH2 0x1D55 SWAP1 PUSH2 0x249E JUMP JUMPDEST PUSH1 0x40 MLOAD DUP1 SWAP2 SUB SWAP1 REVERT JUMPDEST PUSH1 0x0 DUP1 DUP7 PUSH20 0xFFFFFFFFFFFFFFFFFFFFFFFFFFFFFFFFFFFFFFFF AND DUP6 DUP8 PUSH1 0x40 MLOAD PUSH2 0x1D87 SWAP2 SWAP1 PUSH2 0x252F JUMP JUMPDEST PUSH1 0x0 PUSH1 0x40 MLOAD DUP1 DUP4 SUB DUP2 DUP6 DUP8 GAS CALL SWAP3 POP POP POP RETURNDATASIZE DUP1 PUSH1 0x0 DUP2 EQ PUSH2 0x1DC4 JUMPI PUSH1 0x40 MLOAD SWAP2 POP PUSH1 0x1F NOT PUSH1 0x3F RETURNDATASIZE ADD AND DUP3 ADD PUSH1 0x40 MSTORE RETURNDATASIZE DUP3 MSTORE RETURNDATASIZE PUSH1 0x0 PUSH1 0x20 DUP5 ADD RETURNDATACOPY PUSH2 0x1DC9 JUMP JUMPDEST PUSH1 0x60 SWAP2 POP JUMPDEST POP SWAP2 POP SWAP2 POP PUSH2 0x1DDA DUP8 DUP4 DUP4 DUP8 PUSH2 0x1DE6 JUMP JUMPDEST SWAP3 POP POP POP SWAP5 SWAP4 POP POP POP POP JUMP JUMPDEST PUSH1 0x60 DUP4 ISZERO PUSH2 0x1E48 JUMPI PUSH1 0x0 DUP4 MLOAD SUB PUSH2 0x1E40 JUMPI PUSH2 0x1E00 DUP6 PUSH2 0x1E5B JUMP JUMPDEST PUSH2 0x1E3F JUMPI PUSH1 0x40 MLOAD PUSH32 0x8C379A000000000000000000000000000000000000000000000000000000000 DUP2 MSTORE PUSH1 0x4 ADD PUSH2 0x1E36 SWAP1 PUSH2 0x2592 JUMP JUMPDEST PUSH1 0x40 MLOAD DUP1 SWAP2 SUB SWAP1 REVERT JUMPDEST JUMPDEST DUP3 SWAP1 POP PUSH2 0x1E53 JUMP JUMPDEST PUSH2 0x1E52 DUP4 DUP4 PUSH2 0x1E7E JUMP JUMPDEST JUMPDEST SWAP5 SWAP4 POP POP POP POP JUMP JUMPDEST PUSH1 0x0 DUP1 DUP3 PUSH20 0xFFFFFFFFFFFFFFFFFFFFFFFFFFFFFFFFFFFFFFFF AND EXTCODESIZE GT SWAP1 POP SWAP2 SWAP1 POP JUMP JUMPDEST PUSH1 0x0 DUP3 MLOAD GT ISZERO PUSH2 0x1E91 JUMPI DUP2 MLOAD DUP1 DUP4 PUSH1 0x20 ADD REVERT JUMPDEST DUP1 PUSH1 0x40 MLOAD PUSH32 0x8C379A000000000000000000000000000000000000000000000000000000000 DUP2 MSTORE PUSH1 0x4 ADD PUSH2 0x1EC5 SWAP2 SWAP1 PUSH2 0x2607 JUMP JUMPDEST PUSH1 0x40 MLOAD DUP1 SWAP2 SUB SWAP1 REVERT JUMPDEST PUSH1 0x0 DUP1 REVERT JUMPDEST PUSH1 0x0 PUSH8 0xFFFFFFFFFFFFFFFF DUP3 AND SWAP1 POP SWAP2 SWAP1 POP JUMP JUMPDEST PUSH2 0x1EF0 DUP2 PUSH2 0x1ED3 JUMP JUMPDEST DUP2 EQ PUSH2 0x1EFB JUMPI PUSH1 0x0 DUP1 REVERT JUMPDEST POP JUMP JUMPDEST PUSH1 0x0 DUP2 CALLDATALOAD SWAP1 POP PUSH2 0x1F0D DUP2 PUSH2 0x1EE7 JUMP JUMPDEST SWAP3 SWAP2 POP POP JUMP JUMPDEST PUSH1 0x0 PUSH1 0x20 DUP3 DUP5 SUB SLT ISZERO PUSH2 0x1F29 JUMPI PUSH2 0x1F28 PUSH2 0x1ECE JUMP JUMPDEST JUMPDEST PUSH1 0x0 PUSH2 0x1F37 DUP5 DUP3 DUP6 ADD PUSH2 0x1EFE JUMP JUMPDEST SWAP2 POP POP SWAP3 SWAP2 POP POP JUMP JUMPDEST PUSH1 0x0 PUSH20 0xFFFFFFFFFFFFFFFFFFFFFFFFFFFFFFFFFFFFFFFF DUP3 AND SWAP1 POP SWAP2 SWAP1 POP JUMP JUMPDEST PUSH1 0x0 PUSH2 0x1F6B DUP3 PUSH2 0x1F40 JUMP JUMPDEST SWAP1 POP SWAP2 SWAP1 POP JUMP JUMPDEST PUSH2 0x1F7B DUP2 PUSH2 0x1F60 JUMP JUMPDEST DUP2 EQ PUSH2 0x1F86 JUMPI PUSH1 0x0 DUP1 REVERT JUMPDEST POP JUMP JUMPDEST PUSH1 0x0 DUP2 CALLDATALOAD SWAP1 POP PUSH2 0x1F98 DUP2 PUSH2 0x1F72 JUMP JUMPDEST SWAP3 SWAP2 POP POP JUMP JUMPDEST PUSH1 0x0 DUP2 SWAP1 POP SWAP2 SWAP1 POP JUMP JUMPDEST PUSH2 0x1FB1 DUP2 PUSH2 0x1F9E JUMP JUMPDEST DUP2 EQ PUSH2 0x1FBC JUMPI PUSH1 0x0 DUP1 REVERT JUMPDEST POP JUMP JUMPDEST PUSH1 0x0 DUP2 CALLDATALOAD SWAP1 POP PUSH2 0x1FCE DUP2 PUSH2 0x1FA8 JUMP JUMPDEST SWAP3 SWAP2 POP POP JUMP JUMPDEST PUSH1 0x0 DUP1 PUSH1 0x40 DUP4 DUP6 SUB SLT ISZERO PUSH2 0x1FEB JUMPI PUSH2 0x1FEA PUSH2 0x1ECE JUMP JUMPDEST JUMPDEST PUSH1 0x0 PUSH2 0x1FF9 DUP6 DUP3 DUP7 ADD PUSH2 0x1F89 JUMP JUMPDEST SWAP3 POP POP PUSH1 0x20 PUSH2 0x200A DUP6 DUP3 DUP7 ADD PUSH2 0x1FBF JUMP JUMPDEST SWAP2 POP POP SWAP3 POP SWAP3 SWAP1 POP JUMP JUMPDEST PUSH1 0x0 DUP2 ISZERO ISZERO SWAP1 POP SWAP2 SWAP1 POP JUMP JUMPDEST PUSH2 0x2029 DUP2 PUSH2 0x2014 JUMP JUMPDEST DUP3 MSTORE POP POP JUMP JUMPDEST PUSH1 0x0 PUSH1 0x20 DUP3 ADD SWAP1 POP PUSH2 0x2044 PUSH1 0x0 DUP4 ADD DUP5 PUSH2 0x2020 JUMP JUMPDEST SWAP3 SWAP2 POP POP JUMP JUMPDEST PUSH1 0x0 PUSH16 0xFFFFFFFFFFFFFFFFFFFFFFFFFFFFFFFF DUP3 AND SWAP1 POP SWAP2 SWAP1 POP JUMP JUMPDEST PUSH2 0x206F DUP2 PUSH2 0x204A JUMP JUMPDEST DUP2 EQ PUSH2 0x207A JUMPI PUSH1 0x0 DUP1 REVERT JUMPDEST POP JUMP JUMPDEST PUSH1 0x0 DUP2 CALLDATALOAD SWAP1 POP PUSH2 0x208C DUP2 PUSH2 0x2066 JUMP JUMPDEST SWAP3 SWAP2 POP POP JUMP JUMPDEST PUSH1 0x0 DUP1 PUSH1 0x40 DUP4 DUP6 SUB SLT ISZERO PUSH2 0x20A9 JUMPI PUSH2 0x20A8 PUSH2 0x1ECE JUMP JUMPDEST JUMPDEST PUSH1 0x0 PUSH2 0x20B7 DUP6 DUP3 DUP7 ADD PUSH2 0x207D JUMP JUMPDEST SWAP3 POP POP PUSH1 0x20 PUSH2 0x20C8 DUP6 DUP3 DUP7 ADD PUSH2 0x207D JUMP JUMPDEST SWAP2 POP POP SWAP3 POP SWAP3 SWAP1 POP JUMP JUMPDEST PUSH2 0x20DB DUP2 PUSH2 0x1F9E JUMP JUMPDEST DUP3 MSTORE POP POP JUMP JUMPDEST PUSH1 0x0 PUSH1 0x20 DUP3 ADD SWAP1 POP PUSH2 0x20F6 PUSH1 0x0 DUP4 ADD DUP5 PUSH2 0x20D2 JUMP JUMPDEST SWAP3 SWAP2 POP POP JUMP JUMPDEST PUSH1 0x0 DUP1 PUSH1 0x0 PUSH1 0x60 DUP5 DUP7 SUB SLT ISZERO PUSH2 0x2115 JUMPI PUSH2 0x2114 PUSH2 0x1ECE JUMP JUMPDEST JUMPDEST PUSH1 0x0 PUSH2 0x2123 DUP7 DUP3 DUP8 ADD PUSH2 0x1F89 JUMP JUMPDEST SWAP4 POP POP PUSH1 0x20 PUSH2 0x2134 DUP7 DUP3 DUP8 ADD PUSH2 0x207D JUMP JUMPDEST SWAP3 POP POP PUSH1 0x40 PUSH2 0x2145 DUP7 DUP3 DUP8 ADD PUSH2 0x207D JUMP JUMPDEST SWAP2 POP POP SWAP3 POP SWAP3 POP SWAP3 JUMP JUMPDEST PUSH32 0x4E487B7100000000000000000000000000000000000000000000000000000000 PUSH1 0x0 MSTORE PUSH1 0x11 PUSH1 0x4 MSTORE PUSH1 0x24 PUSH1 0x0 REVERT JUMPDEST PUSH1 0x0 PUSH2 0x2189 DUP3 PUSH2 0x1F9E JUMP JUMPDEST SWAP2 POP PUSH2 0x2194 DUP4 PUSH2 0x1F9E JUMP JUMPDEST SWAP3 POP DUP3 DUP3 SUB SWAP1 POP DUP2 DUP2 GT ISZERO PUSH2 0x21AC JUMPI PUSH2 0x21AB PUSH2 0x214F JUMP JUMPDEST JUMPDEST SWAP3 SWAP2 POP POP JUMP JUMPDEST PUSH1 0x0 PUSH2 0x21BD DUP3 PUSH2 0x204A JUMP JUMPDEST SWAP2 POP PUSH2 0x21C8 DUP4 PUSH2 0x204A JUMP JUMPDEST SWAP3 POP DUP3 DUP3 MUL PUSH2 0x21D6 DUP2 PUSH2 0x204A JUMP JUMPDEST SWAP2 POP DUP1 DUP3 EQ PUSH2 0x21E8 JUMPI PUSH2 0x21E7 PUSH2 0x214F JUMP JUMPDEST JUMPDEST POP SWAP3 SWAP2 POP POP JUMP JUMPDEST PUSH1 0x0 PUSH2 0x21FA DUP3 PUSH2 0x1F9E JUMP JUMPDEST SWAP2 POP PUSH2 0x2205 DUP4 PUSH2 0x1F9E JUMP JUMPDEST SWAP3 POP DUP3 DUP3 MUL PUSH2 0x2213 DUP2 PUSH2 0x1F9E JUMP JUMPDEST SWAP2 POP DUP3 DUP3 DIV DUP5 EQ DUP4 ISZERO OR PUSH2 0x222A JUMPI PUSH2 0x2229 PUSH2 0x214F JUMP JUMPDEST JUMPDEST POP SWAP3 SWAP2 POP POP JUMP JUMPDEST PUSH32 0x4E487B7100000000000000000000000000000000000000000000000000000000 PUSH1 0x0 MSTORE PUSH1 0x12 PUSH1 0x4 MSTORE PUSH1 0x24 PUSH1 0x0 REVERT JUMPDEST PUSH1 0x0 PUSH2 0x226B DUP3 PUSH2 0x1F9E JUMP JUMPDEST SWAP2 POP PUSH2 0x2276 DUP4 PUSH2 0x1F9E JUMP JUMPDEST SWAP3 POP DUP3 PUSH2 0x2286 JUMPI PUSH2 0x2285 PUSH2 0x2231 JUMP JUMPDEST JUMPDEST DUP3 DUP3 DIV SWAP1 POP SWAP3 SWAP2 POP POP JUMP JUMPDEST PUSH1 0x0 PUSH2 0x229C DUP3 PUSH2 0x1ED3 JUMP JUMPDEST SWAP2 POP PUSH8 0xFFFFFFFFFFFFFFFF DUP3 SUB PUSH2 0x22B6 JUMPI PUSH2 0x22B5 PUSH2 0x214F JUMP JUMPDEST JUMPDEST PUSH1 0x1 DUP3 ADD SWAP1 POP SWAP2 SWAP1 POP JUMP JUMPDEST PUSH2 0x22CA DUP2 PUSH2 0x1F60 JUMP JUMPDEST DUP3 MSTORE POP POP JUMP JUMPDEST PUSH1 0x0 PUSH1 0x60 DUP3 ADD SWAP1 POP PUSH2 0x22E5 PUSH1 0x0 DUP4 ADD DUP7 PUSH2 0x22C1 JUMP JUMPDEST PUSH2 0x22F2 PUSH1 0x20 DUP4 ADD DUP6 PUSH2 0x22C1 JUMP JUMPDEST PUSH2 0x22FF PUSH1 0x40 DUP4 ADD DUP5 PUSH2 0x20D2 JUMP JUMPDEST SWAP5 SWAP4 POP POP POP POP JUMP JUMPDEST PUSH1 0x0 PUSH1 0x40 DUP3 ADD SWAP1 POP PUSH2 0x231C PUSH1 0x0 DUP4 ADD DUP6 PUSH2 0x22C1 JUMP JUMPDEST PUSH2 0x2329 PUSH1 0x20 DUP4 ADD DUP5 PUSH2 0x20D2 JUMP JUMPDEST SWAP4 SWAP3 POP POP POP JUMP JUMPDEST PUSH2 0x2339 DUP2 PUSH2 0x2014 JUMP JUMPDEST DUP2 EQ PUSH2 0x2344 JUMPI PUSH1 0x0 DUP1 REVERT JUMPDEST POP JUMP JUMPDEST PUSH1 0x0 DUP2 MLOAD SWAP1 POP PUSH2 0x2356 DUP2 PUSH2 0x2330 JUMP JUMPDEST SWAP3 SWAP2 POP POP JUMP JUMPDEST PUSH1 0x0 PUSH1 0x20 DUP3 DUP5 SUB SLT ISZERO PUSH2 0x2372 JUMPI PUSH2 0x2371 PUSH2 0x1ECE JUMP JUMPDEST JUMPDEST PUSH1 0x0 PUSH2 0x2380 DUP5 DUP3 DUP6 ADD PUSH2 0x2347 JUMP JUMPDEST SWAP2 POP POP SWAP3 SWAP2 POP POP JUMP JUMPDEST PUSH1 0x0 DUP3 DUP3 MSTORE PUSH1 0x20 DUP3 ADD SWAP1 POP SWAP3 SWAP2 POP POP JUMP JUMPDEST PUSH32 0x5361666545524332303A204552433230206F7065726174696F6E20646964206E PUSH1 0x0 DUP3 ADD MSTORE PUSH32 0x6F74207375636365656400000000000000000000000000000000000000000000 PUSH1 0x20 DUP3 ADD MSTORE POP JUMP JUMPDEST PUSH1 0x0 PUSH2 0x23F6 PUSH1 0x2A DUP4 PUSH2 0x2389 JUMP JUMPDEST SWAP2 POP PUSH2 0x2401 DUP3 PUSH2 0x239A JUMP JUMPDEST PUSH1 0x40 DUP3 ADD SWAP1 POP SWAP2 SWAP1 POP JUMP JUMPDEST PUSH1 0x0 PUSH1 0x20 DUP3 ADD SWAP1 POP DUP2 DUP2 SUB PUSH1 0x0 DUP4 ADD MSTORE PUSH2 0x2425 DUP2 PUSH2 0x23E9 JUMP JUMPDEST SWAP1 POP SWAP2 SWAP1 POP JUMP JUMPDEST PUSH32 0x416464726573733A20696E73756666696369656E742062616C616E636520666F PUSH1 0x0 DUP3 ADD MSTORE PUSH32 0x722063616C6C0000000000000000000000000000000000000000000000000000 PUSH1 0x20 DUP3 ADD MSTORE POP JUMP JUMPDEST PUSH1 0x0 PUSH2 0x2488 PUSH1 0x26 DUP4 PUSH2 0x2389 JUMP JUMPDEST SWAP2 POP PUSH2 0x2493 DUP3 PUSH2 0x242C JUMP JUMPDEST PUSH1 0x40 DUP3 ADD SWAP1 POP SWAP2 SWAP1 POP JUMP JUMPDEST PUSH1 0x0 PUSH1 0x20 DUP3 ADD SWAP1 POP DUP2 DUP2 SUB PUSH1 0x0 DUP4 ADD MSTORE PUSH2 0x24B7 DUP2 PUSH2 0x247B JUMP JUMPDEST SWAP1 POP SWAP2 SWAP1 POP JUMP JUMPDEST PUSH1 0x0 DUP2 MLOAD SWAP1 POP SWAP2 SWAP1 POP JUMP JUMPDEST PUSH1 0x0 DUP2 SWAP1 POP SWAP3 SWAP2 POP POP JUMP JUMPDEST PUSH1 0x0 JUMPDEST DUP4 DUP2 LT ISZERO PUSH2 0x24F2 JUMPI DUP1 DUP3 ADD MLOAD DUP2 DUP5 ADD MSTORE PUSH1 0x20 DUP2 ADD SWAP1 POP PUSH2 0x24D7 JUMP JUMPDEST PUSH1 0x0 DUP5 DUP5 ADD MSTORE POP POP POP POP JUMP JUMPDEST PUSH1 0x0 PUSH2 0x2509 DUP3 PUSH2 0x24BE JUMP JUMPDEST PUSH2 0x2513 DUP2 DUP6 PUSH2 0x24C9 JUMP JUMPDEST SWAP4 POP PUSH2 0x2523 DUP2 DUP6 PUSH1 0x20 DUP7 ADD PUSH2 0x24D4 JUMP JUMPDEST DUP1 DUP5 ADD SWAP2 POP POP SWAP3 SWAP2 POP POP JUMP JUMPDEST PUSH1 0x0 PUSH2 0x253B DUP3 DUP5 PUSH2 0x24FE JUMP JUMPDEST SWAP2 POP DUP2 SWAP1 POP SWAP3 SWAP2 POP POP JUMP JUMPDEST PUSH32 0x416464726573733A2063616C6C20746F206E6F6E2D636F6E7472616374000000 PUSH1 0x0 DUP3 ADD MSTORE POP JUMP JUMPDEST PUSH1 0x0 PUSH2 0x257C PUSH1 0x1D DUP4 PUSH2 0x2389 JUMP JUMPDEST SWAP2 POP PUSH2 0x2587 DUP3 PUSH2 0x2546 JUMP JUMPDEST PUSH1 0x20 DUP3 ADD SWAP1 POP SWAP2 SWAP1 POP JUMP JUMPDEST PUSH1 0x0 PUSH1 0x20 DUP3 ADD SWAP1 POP DUP2 DUP2 SUB PUSH1 0x0 DUP4 ADD MSTORE PUSH2 0x25AB DUP2 PUSH2 0x256F JUMP JUMPDEST SWAP1 POP SWAP2 SWAP1 POP JUMP JUMPDEST PUSH1 0x0 DUP2 MLOAD SWAP1 POP SWAP2 SWAP1 POP JUMP JUMPDEST PUSH1 0x0 PUSH1 0x1F NOT PUSH1 0x1F DUP4 ADD AND SWAP1 POP SWAP2 SWAP1 POP JUMP JUMPDEST PUSH1 0x0 PUSH2 0x25D9 DUP3 PUSH2 0x25B2 JUMP JUMPDEST PUSH2 0x25E3 DUP2 DUP6 PUSH2 0x2389 JUMP JUMPDEST SWAP4 POP PUSH2 0x25F3 DUP2 DUP6 PUSH1 0x20 DUP7 ADD PUSH2 0x24D4 JUMP JUMPDEST PUSH2 0x25FC DUP2 PUSH2 0x25BD JUMP JUMPDEST DUP5 ADD SWAP2 POP POP SWAP3 SWAP2 POP POP JUMP JUMPDEST PUSH1 0x0 PUSH1 0x20 DUP3 ADD SWAP1 POP DUP2 DUP2 SUB PUSH1 0x0 DUP4 ADD MSTORE PUSH2 0x2621 DUP2 DUP5 PUSH2 0x25CE JUMP JUMPDEST SWAP1 POP SWAP3 SWAP2 POP POP JUMP INVALID LOG2 PUSH5 0x6970667358 0x22 SLT KECCAK256 EQ CALLDATACOPY 0x2A PUSH22 0xD2B696DB3C694E856806E1E2EF064FDFF3C930592156 DUP1 0xDD EXP CALLCODE 0xEB 0x27 PUSH5 0x736F6C6343 STOP ADDMOD SGT STOP CALLER "
				},
				"gasEstimates": {
					"creation": {
						"codeDepositCost": "1964600",
						"executionCost": "infinite",
						"totalCost": "infinite"
					},
					"external": {
						"Sale(uint64)": "infinite",
						"buy(address,uint128,uint128)": "infinite",
						"buyerWithdrawAirdorp(uint64)": "infinite",
						"buyerWithdrawRefund(uint64)": "infinite",
						"getPenal(uint128,uint128)": "infinite",
						"injectFutureToken(uint64)": "infinite",
						"solderWithdrawStable(uint64)": "infinite",
						"userIfWithdraw1(address,uint256)": "3132",
						"userIfWithdraw2(address,uint256)": "3175",
						"userIfWithdraw3(address,uint256)": "3109",
						"userIfWithdraw4(address,uint256)": "3197"
					},
					"internal": {
						"getBuyer(uint64)": "2266",
						"getSolder(uint64)": "2266"
					}
				},
				"methodIdentifiers": {
					"Sale(uint64)": "762e9d30",
					"buy(address,uint128,uint128)": "d14485a2",
					"buyerWithdrawAirdorp(uint64)": "c0102de4",
					"buyerWithdrawRefund(uint64)": "2895cb7b",
					"getPenal(uint128,uint128)": "98c50fdd",
					"injectFutureToken(uint64)": "25ac3a73",
					"solderWithdrawStable(uint64)": "77bcd8a6",
					"userIfWithdraw1(address,uint256)": "59de2f60",
					"userIfWithdraw2(address,uint256)": "df0905c6",
					"userIfWithdraw3(address,uint256)": "b8d7f980",
					"userIfWithdraw4(address,uint256)": "fc993ea8"
				}
			},
			"storageLayout": {
				"storage": [
					{
						"astId": 836,
						"contract": "contracts/TimeFactory.sol:TimeFactory",
						"label": "clearingTime",
						"offset": 0,
						"slot": "0",
						"type": "t_uint56"
					},
					{
						"astId": 838,
						"contract": "contracts/TimeFactory.sol:TimeFactory",
						"label": "id",
						"offset": 7,
						"slot": "0",
						"type": "t_uint64"
					},
					{
						"astId": 840,
						"contract": "contracts/TimeFactory.sol:TimeFactory",
						"label": "airdropToken",
						"offset": 0,
						"slot": "1",
						"type": "t_address"
					},
					{
						"astId": 864,
						"contract": "contracts/TimeFactory.sol:TimeFactory",
						"label": "_tradeMes",
						"offset": 0,
						"slot": "2",
						"type": "t_mapping(t_uint64,t_struct(tradeMes)1574_storage)"
					},
					{
						"astId": 870,
						"contract": "contracts/TimeFactory.sol:TimeFactory",
						"label": "ifInject",
						"offset": 0,
						"slot": "3",
						"type": "t_mapping(t_address,t_mapping(t_uint256,t_bool))"
					},
					{
						"astId": 876,
						"contract": "contracts/TimeFactory.sol:TimeFactory",
						"label": "userIfWithdraw1",
						"offset": 0,
						"slot": "4",
						"type": "t_mapping(t_address,t_mapping(t_uint256,t_bool))"
					},
					{
						"astId": 882,
						"contract": "contracts/TimeFactory.sol:TimeFactory",
						"label": "userIfWithdraw2",
						"offset": 0,
						"slot": "5",
						"type": "t_mapping(t_address,t_mapping(t_uint256,t_bool))"
					},
					{
						"astId": 888,
						"contract": "contracts/TimeFactory.sol:TimeFactory",
						"label": "userIfWithdraw3",
						"offset": 0,
						"slot": "6",
						"type": "t_mapping(t_address,t_mapping(t_uint256,t_bool))"
					},
					{
						"astId": 894,
						"contract": "contracts/TimeFactory.sol:TimeFactory",
						"label": "userIfWithdraw4",
						"offset": 0,
						"slot": "7",
						"type": "t_mapping(t_address,t_mapping(t_uint256,t_bool))"
					}
				],
				"types": {
					"t_address": {
						"encoding": "inplace",
						"label": "address",
						"numberOfBytes": "20"
					},
					"t_bool": {
						"encoding": "inplace",
						"label": "bool",
						"numberOfBytes": "1"
					},
					"t_mapping(t_address,t_mapping(t_uint256,t_bool))": {
						"encoding": "mapping",
						"key": "t_address",
						"label": "mapping(address => mapping(uint256 => bool))",
						"numberOfBytes": "32",
						"value": "t_mapping(t_uint256,t_bool)"
					},
					"t_mapping(t_uint256,t_bool)": {
						"encoding": "mapping",
						"key": "t_uint256",
						"label": "mapping(uint256 => bool)",
						"numberOfBytes": "32",
						"value": "t_bool"
					},
					"t_mapping(t_uint64,t_struct(tradeMes)1574_storage)": {
						"encoding": "mapping",
						"key": "t_uint64",
						"label": "mapping(uint64 => struct ITimeStruct.tradeMes)",
						"numberOfBytes": "32",
						"value": "t_struct(tradeMes)1574_storage"
					},
					"t_struct(tradeMes)1574_storage": {
						"encoding": "inplace",
						"label": "struct ITimeStruct.tradeMes",
						"members": [
							{
								"astId": 1559,
								"contract": "contracts/TimeFactory.sol:TimeFactory",
								"label": "tradeState",
								"offset": 0,
								"slot": "0",
								"type": "t_uint8"
							},
							{
								"astId": 1561,
								"contract": "contracts/TimeFactory.sol:TimeFactory",
								"label": "tradeId",
								"offset": 1,
								"slot": "0",
								"type": "t_uint64"
							},
							{
								"astId": 1563,
								"contract": "contracts/TimeFactory.sol:TimeFactory",
								"label": "buyTime",
								"offset": 9,
								"slot": "0",
								"type": "t_uint56"
							},
							{
								"astId": 1565,
								"contract": "contracts/TimeFactory.sol:TimeFactory",
								"label": "buyTotalAmount",
								"offset": 16,
								"slot": "0",
								"type": "t_uint128"
							},
							{
								"astId": 1567,
								"contract": "contracts/TimeFactory.sol:TimeFactory",
								"label": "buyPrice",
								"offset": 0,
								"slot": "1",
								"type": "t_uint128"
							},
							{
								"astId": 1569,
								"contract": "contracts/TimeFactory.sol:TimeFactory",
								"label": "tokenAddress",
								"offset": 0,
								"slot": "2",
								"type": "t_address"
							},
							{
								"astId": 1571,
								"contract": "contracts/TimeFactory.sol:TimeFactory",
								"label": "buyerAddress",
								"offset": 0,
								"slot": "3",
								"type": "t_address"
							},
							{
								"astId": 1573,
								"contract": "contracts/TimeFactory.sol:TimeFactory",
								"label": "solderAddress",
								"offset": 0,
								"slot": "4",
								"type": "t_address"
							}
						],
						"numberOfBytes": "160"
					},
					"t_uint128": {
						"encoding": "inplace",
						"label": "uint128",
						"numberOfBytes": "16"
					},
					"t_uint256": {
						"encoding": "inplace",
						"label": "uint256",
						"numberOfBytes": "32"
					},
					"t_uint56": {
						"encoding": "inplace",
						"label": "uint56",
						"numberOfBytes": "7"
					},
					"t_uint64": {
						"encoding": "inplace",
						"label": "uint64",
						"numberOfBytes": "8"
					},
					"t_uint8": {
						"encoding": "inplace",
						"label": "uint8",
						"numberOfBytes": "1"
					}
				}
			},
			"userdoc": {
				"kind": "user",
				"methods": {},
				"version": 1
			}
		}
	}
}