{
	"contracts/TimeMarket.sol": {
		"TimeMarket": {
			"abi": [
				{
					"inputs": [
						{
							"internalType": "address",
							"name": "_airdropToken",
							"type": "address"
						},
						{
							"internalType": "uint256",
							"name": "_clearingTime",
							"type": "uint256"
						}
					],
					"stateMutability": "nonpayable",
					"type": "constructor"
				},
				{
					"inputs": [],
					"name": "AlreadyInjectToken",
					"type": "error"
				},
				{
					"inputs": [],
					"name": "NorSolder",
					"type": "error"
				},
				{
					"inputs": [],
					"name": "NotBuyer",
					"type": "error"
				},
				{
					"inputs": [],
					"name": "NotEnoughAmount",
					"type": "error"
				},
				{
					"inputs": [],
					"name": "NotInjectToken",
					"type": "error"
				},
				{
					"inputs": [
						{
							"internalType": "uint64",
							"name": "_id",
							"type": "uint64"
						},
						{
							"internalType": "address",
							"name": "token1",
							"type": "address"
						}
					],
					"name": "Sale",
					"outputs": [],
					"stateMutability": "nonpayable",
					"type": "function"
				},
				{
					"inputs": [
						{
							"internalType": "address",
							"name": "_tokenAddress",
							"type": "address"
						},
						{
							"internalType": "address",
							"name": "token1",
							"type": "address"
						},
						{
							"internalType": "uint128",
							"name": "_buyAmount",
							"type": "uint128"
						},
						{
							"internalType": "uint128",
							"name": "_buyPrice",
							"type": "uint128"
						}
					],
					"name": "buy",
					"outputs": [],
					"stateMutability": "nonpayable",
					"type": "function"
				},
				{
					"inputs": [
						{
							"internalType": "uint64",
							"name": "_id",
							"type": "uint64"
						}
					],
					"name": "buyerWithdrawAirdorp",
					"outputs": [],
					"stateMutability": "nonpayable",
					"type": "function"
				},
				{
					"inputs": [
						{
							"internalType": "uint64",
							"name": "_id",
							"type": "uint64"
						}
					],
					"name": "buyerWithdrawRefund",
					"outputs": [],
					"stateMutability": "nonpayable",
					"type": "function"
				},
				{
					"inputs": [
						{
							"internalType": "uint128",
							"name": "_soldPrice",
							"type": "uint128"
						},
						{
							"internalType": "uint128",
							"name": "_soldAmount",
							"type": "uint128"
						}
					],
					"name": "getPenal",
					"outputs": [
						{
							"internalType": "uint256",
							"name": "",
							"type": "uint256"
						}
					],
					"stateMutability": "pure",
					"type": "function"
				},
				{
					"inputs": [
						{
							"internalType": "address",
							"name": "token0",
							"type": "address"
						},
						{
							"internalType": "address",
							"name": "token1",
							"type": "address"
						},
						{
							"internalType": "uint24",
							"name": "_fee",
							"type": "uint24"
						}
					],
					"name": "getPoolAddress",
					"outputs": [
						{
							"internalType": "address",
							"name": "thisPool",
							"type": "address"
						}
					],
					"stateMutability": "view",
					"type": "function"
				},
				{
					"inputs": [
						{
							"internalType": "uint64",
							"name": "_id",
							"type": "uint64"
						}
					],
					"name": "injectFutureToken",
					"outputs": [],
					"stateMutability": "nonpayable",
					"type": "function"
				},
				{
					"inputs": [
						{
							"internalType": "uint64",
							"name": "_id",
							"type": "uint64"
						}
					],
					"name": "profileEarn",
					"outputs": [],
					"stateMutability": "nonpayable",
					"type": "function"
				},
				{
					"inputs": [
						{
							"internalType": "uint64",
							"name": "_id",
							"type": "uint64"
						}
					],
					"name": "solderWithdrawStable",
					"outputs": [],
					"stateMutability": "nonpayable",
					"type": "function"
				},
				{
					"inputs": [
						{
							"internalType": "address",
							"name": "",
							"type": "address"
						},
						{
							"internalType": "uint256",
							"name": "",
							"type": "uint256"
						}
					],
					"name": "userIfWithdraw1",
					"outputs": [
						{
							"internalType": "bool",
							"name": "",
							"type": "bool"
						}
					],
					"stateMutability": "view",
					"type": "function"
				},
				{
					"inputs": [
						{
							"internalType": "address",
							"name": "",
							"type": "address"
						},
						{
							"internalType": "uint256",
							"name": "",
							"type": "uint256"
						}
					],
					"name": "userIfWithdraw2",
					"outputs": [
						{
							"internalType": "bool",
							"name": "",
							"type": "bool"
						}
					],
					"stateMutability": "view",
					"type": "function"
				},
				{
					"inputs": [
						{
							"internalType": "address",
							"name": "",
							"type": "address"
						},
						{
							"internalType": "uint256",
							"name": "",
							"type": "uint256"
						}
					],
					"name": "userIfWithdraw3",
					"outputs": [
						{
							"internalType": "bool",
							"name": "",
							"type": "bool"
						}
					],
					"stateMutability": "view",
					"type": "function"
				},
				{
					"inputs": [
						{
							"internalType": "address",
							"name": "",
							"type": "address"
						},
						{
							"internalType": "uint256",
							"name": "",
							"type": "uint256"
						}
					],
					"name": "userIfWithdraw4",
					"outputs": [
						{
							"internalType": "bool",
							"name": "",
							"type": "bool"
						}
					],
					"stateMutability": "view",
					"type": "function"
				}
			],
			"devdoc": {
				"kind": "dev",
				"methods": {},
				"version": 1
			},
			"evm": {
				"assembly": "    /* \"contracts/TimeMarket.sol\":536:10015  contract TimeMarket is ITimeStruct, IError{... */\n  mstore(0x40, 0x80)\n    /* \"contracts/TimeMarket.sol\":835:877  0x1F98431c8aD98523631AE4a59f267346ea31F984 */\n  0x1f98431c8ad98523631ae4a59f267346ea31f984\n    /* \"contracts/TimeMarket.sol\":806:877  address private uniV3Factory=0x1F98431c8aD98523631AE4a59f267346ea31F984 */\n  0x04\n  exp(0x0100, 0x00)\n  dup2\n  sload\n  dup2\n  0xffffffffffffffffffffffffffffffffffffffff\n  mul\n  not\n  and\n  swap1\n  dup4\n  0xffffffffffffffffffffffffffffffffffffffff\n  and\n  mul\n  or\n  swap1\n  sstore\n  pop\n    /* \"contracts/TimeMarket.sol\":927:969  0xC36442b4a4522E871399CD717aBDD847Ab11FE88 */\n  0xc36442b4a4522e871399cd717abdd847ab11fe88\n    /* \"contracts/TimeMarket.sol\":884:969  address private NonfungiblePositionManager=0xC36442b4a4522E871399CD717aBDD847Ab11FE88 */\n  0x05\n  exp(0x0100, 0x00)\n  dup2\n  sload\n  dup2\n  0xffffffffffffffffffffffffffffffffffffffff\n  mul\n  not\n  and\n  swap1\n  dup4\n  0xffffffffffffffffffffffffffffffffffffffff\n  and\n  mul\n  or\n  swap1\n  sstore\n  pop\n    /* \"contracts/TimeMarket.sol\":978:1121  constructor(address _airdropToken,uint _clearingTime){... */\n  callvalue\n  dup1\n  iszero\n  tag_1\n  jumpi\n  0x00\n  dup1\n  revert\ntag_1:\n  pop\n  mload(0x40)\n  sub(codesize, bytecodeSize)\n  dup1\n  bytecodeSize\n  dup4\n  codecopy\n  dup2\n  dup2\n  add\n  0x40\n  mstore\n  dup2\n  add\n  swap1\n  tag_2\n  swap2\n  swap1\n  tag_3\n  jump\t// in\ntag_2:\n    /* \"contracts/TimeMarket.sol\":1055:1068  _airdropToken */\n  dup2\n    /* \"contracts/TimeMarket.sol\":1042:1054  airdropToken */\n  0x01\n  0x00\n    /* \"contracts/TimeMarket.sol\":1042:1068  airdropToken=_airdropToken */\n  0x0100\n  exp\n  dup2\n  sload\n  dup2\n  0xffffffffffffffffffffffffffffffffffffffff\n  mul\n  not\n  and\n  swap1\n  dup4\n  0xffffffffffffffffffffffffffffffffffffffff\n  and\n  mul\n  or\n  swap1\n  sstore\n  pop\n    /* \"contracts/TimeMarket.sol\":1099:1112  _clearingTime */\n  dup1\n    /* \"contracts/TimeMarket.sol\":1079:1091  clearingTime */\n  0x00\n  dup1\n    /* \"contracts/TimeMarket.sol\":1079:1113  clearingTime=uint56(_clearingTime) */\n  0x0100\n  exp\n  dup2\n  sload\n  dup2\n  0xffffffffffffff\n  mul\n  not\n  and\n  swap1\n  dup4\n  0xffffffffffffff\n  and\n  mul\n  or\n  swap1\n  sstore\n  pop\n    /* \"contracts/TimeMarket.sol\":978:1121  constructor(address _airdropToken,uint _clearingTime){... */\n  pop\n  pop\n    /* \"contracts/TimeMarket.sol\":536:10015  contract TimeMarket is ITimeStruct, IError{... */\n  jump(tag_6)\n    /* \"#utility.yul\":88:205   */\ntag_8:\n    /* \"#utility.yul\":197:198   */\n  0x00\n    /* \"#utility.yul\":194:195   */\n  dup1\n    /* \"#utility.yul\":187:199   */\n  revert\n    /* \"#utility.yul\":334:460   */\ntag_10:\n    /* \"#utility.yul\":371:378   */\n  0x00\n    /* \"#utility.yul\":411:453   */\n  0xffffffffffffffffffffffffffffffffffffffff\n    /* \"#utility.yul\":404:409   */\n  dup3\n    /* \"#utility.yul\":400:454   */\n  and\n    /* \"#utility.yul\":389:454   */\n  swap1\n  pop\n    /* \"#utility.yul\":334:460   */\n  swap2\n  swap1\n  pop\n  jump\t// out\n    /* \"#utility.yul\":466:562   */\ntag_11:\n    /* \"#utility.yul\":503:510   */\n  0x00\n    /* \"#utility.yul\":532:556   */\n  tag_23\n    /* \"#utility.yul\":550:555   */\n  dup3\n    /* \"#utility.yul\":532:556   */\n  tag_10\n  jump\t// in\ntag_23:\n    /* \"#utility.yul\":521:556   */\n  swap1\n  pop\n    /* \"#utility.yul\":466:562   */\n  swap2\n  swap1\n  pop\n  jump\t// out\n    /* \"#utility.yul\":568:690   */\ntag_12:\n    /* \"#utility.yul\":641:665   */\n  tag_25\n    /* \"#utility.yul\":659:664   */\n  dup2\n    /* \"#utility.yul\":641:665   */\n  tag_11\n  jump\t// in\ntag_25:\n    /* \"#utility.yul\":634:639   */\n  dup2\n    /* \"#utility.yul\":631:666   */\n  eq\n    /* \"#utility.yul\":621:684   */\n  tag_26\n  jumpi\n    /* \"#utility.yul\":680:681   */\n  0x00\n    /* \"#utility.yul\":677:678   */\n  dup1\n    /* \"#utility.yul\":670:682   */\n  revert\n    /* \"#utility.yul\":621:684   */\ntag_26:\n    /* \"#utility.yul\":568:690   */\n  pop\n  jump\t// out\n    /* \"#utility.yul\":696:839   */\ntag_13:\n    /* \"#utility.yul\":753:758   */\n  0x00\n    /* \"#utility.yul\":784:790   */\n  dup2\n    /* \"#utility.yul\":778:791   */\n  mload\n    /* \"#utility.yul\":769:791   */\n  swap1\n  pop\n    /* \"#utility.yul\":800:833   */\n  tag_28\n    /* \"#utility.yul\":827:832   */\n  dup2\n    /* \"#utility.yul\":800:833   */\n  tag_12\n  jump\t// in\ntag_28:\n    /* \"#utility.yul\":696:839   */\n  swap3\n  swap2\n  pop\n  pop\n  jump\t// out\n    /* \"#utility.yul\":845:922   */\ntag_14:\n    /* \"#utility.yul\":882:889   */\n  0x00\n    /* \"#utility.yul\":911:916   */\n  dup2\n    /* \"#utility.yul\":900:916   */\n  swap1\n  pop\n    /* \"#utility.yul\":845:922   */\n  swap2\n  swap1\n  pop\n  jump\t// out\n    /* \"#utility.yul\":928:1050   */\ntag_15:\n    /* \"#utility.yul\":1001:1025   */\n  tag_31\n    /* \"#utility.yul\":1019:1024   */\n  dup2\n    /* \"#utility.yul\":1001:1025   */\n  tag_14\n  jump\t// in\ntag_31:\n    /* \"#utility.yul\":994:999   */\n  dup2\n    /* \"#utility.yul\":991:1026   */\n  eq\n    /* \"#utility.yul\":981:1044   */\n  tag_32\n  jumpi\n    /* \"#utility.yul\":1040:1041   */\n  0x00\n    /* \"#utility.yul\":1037:1038   */\n  dup1\n    /* \"#utility.yul\":1030:1042   */\n  revert\n    /* \"#utility.yul\":981:1044   */\ntag_32:\n    /* \"#utility.yul\":928:1050   */\n  pop\n  jump\t// out\n    /* \"#utility.yul\":1056:1199   */\ntag_16:\n    /* \"#utility.yul\":1113:1118   */\n  0x00\n    /* \"#utility.yul\":1144:1150   */\n  dup2\n    /* \"#utility.yul\":1138:1151   */\n  mload\n    /* \"#utility.yul\":1129:1151   */\n  swap1\n  pop\n    /* \"#utility.yul\":1160:1193   */\n  tag_34\n    /* \"#utility.yul\":1187:1192   */\n  dup2\n    /* \"#utility.yul\":1160:1193   */\n  tag_15\n  jump\t// in\ntag_34:\n    /* \"#utility.yul\":1056:1199   */\n  swap3\n  swap2\n  pop\n  pop\n  jump\t// out\n    /* \"#utility.yul\":1205:1712   */\ntag_3:\n    /* \"#utility.yul\":1284:1290   */\n  0x00\n    /* \"#utility.yul\":1292:1298   */\n  dup1\n    /* \"#utility.yul\":1341:1343   */\n  0x40\n    /* \"#utility.yul\":1329:1338   */\n  dup4\n    /* \"#utility.yul\":1320:1327   */\n  dup6\n    /* \"#utility.yul\":1316:1339   */\n  sub\n    /* \"#utility.yul\":1312:1344   */\n  slt\n    /* \"#utility.yul\":1309:1428   */\n  iszero\n  tag_36\n  jumpi\n    /* \"#utility.yul\":1347:1426   */\n  tag_37\n  tag_8\n  jump\t// in\ntag_37:\n    /* \"#utility.yul\":1309:1428   */\ntag_36:\n    /* \"#utility.yul\":1467:1468   */\n  0x00\n    /* \"#utility.yul\":1492:1556   */\n  tag_38\n    /* \"#utility.yul\":1548:1555   */\n  dup6\n    /* \"#utility.yul\":1539:1545   */\n  dup3\n    /* \"#utility.yul\":1528:1537   */\n  dup7\n    /* \"#utility.yul\":1524:1546   */\n  add\n    /* \"#utility.yul\":1492:1556   */\n  tag_13\n  jump\t// in\ntag_38:\n    /* \"#utility.yul\":1482:1556   */\n  swap3\n  pop\n    /* \"#utility.yul\":1438:1566   */\n  pop\n    /* \"#utility.yul\":1605:1607   */\n  0x20\n    /* \"#utility.yul\":1631:1695   */\n  tag_39\n    /* \"#utility.yul\":1687:1694   */\n  dup6\n    /* \"#utility.yul\":1678:1684   */\n  dup3\n    /* \"#utility.yul\":1667:1676   */\n  dup7\n    /* \"#utility.yul\":1663:1685   */\n  add\n    /* \"#utility.yul\":1631:1695   */\n  tag_16\n  jump\t// in\ntag_39:\n    /* \"#utility.yul\":1621:1695   */\n  swap2\n  pop\n    /* \"#utility.yul\":1576:1705   */\n  pop\n    /* \"#utility.yul\":1205:1712   */\n  swap3\n  pop\n  swap3\n  swap1\n  pop\n  jump\t// out\n    /* \"contracts/TimeMarket.sol\":536:10015  contract TimeMarket is ITimeStruct, IError{... */\ntag_6:\n  dataSize(sub_0)\n  dup1\n  dataOffset(sub_0)\n  0x00\n  codecopy\n  0x00\n  return\nstop\n\nsub_0: assembly {\n        /* \"contracts/TimeMarket.sol\":536:10015  contract TimeMarket is ITimeStruct, IError{... */\n      mstore(0x40, 0x80)\n      callvalue\n      dup1\n      iszero\n      tag_1\n      jumpi\n      0x00\n      dup1\n      revert\n    tag_1:\n      pop\n      jumpi(tag_2, lt(calldatasize, 0x04))\n      shr(0xe0, calldataload(0x00))\n      dup1\n      0x98c50fdd\n      gt\n      tag_16\n      jumpi\n      dup1\n      0xc3cf1aa6\n      gt\n      tag_17\n      jumpi\n      dup1\n      0xc3cf1aa6\n      eq\n      tag_12\n      jumpi\n      dup1\n      0xd91af492\n      eq\n      tag_13\n      jumpi\n      dup1\n      0xdf0905c6\n      eq\n      tag_14\n      jumpi\n      dup1\n      0xfc993ea8\n      eq\n      tag_15\n      jumpi\n      jump(tag_2)\n    tag_17:\n      dup1\n      0x98c50fdd\n      eq\n      tag_9\n      jumpi\n      dup1\n      0xb8d7f980\n      eq\n      tag_10\n      jumpi\n      dup1\n      0xc0102de4\n      eq\n      tag_11\n      jumpi\n      jump(tag_2)\n    tag_16:\n      dup1\n      0x0d45431d\n      eq\n      tag_3\n      jumpi\n      dup1\n      0x25ac3a73\n      eq\n      tag_4\n      jumpi\n      dup1\n      0x2895cb7b\n      eq\n      tag_5\n      jumpi\n      dup1\n      0x59de2f60\n      eq\n      tag_6\n      jumpi\n      dup1\n      0x696d6283\n      eq\n      tag_7\n      jumpi\n      dup1\n      0x77bcd8a6\n      eq\n      tag_8\n      jumpi\n    tag_2:\n      0x00\n      dup1\n      revert\n        /* \"contracts/TimeMarket.sol\":1828:3096  function buy(address _tokenAddress,address token1,uint128 _buyAmount,uint128 _buyPrice)external{... */\n    tag_3:\n      tag_18\n      0x04\n      dup1\n      calldatasize\n      sub\n      dup2\n      add\n      swap1\n      tag_19\n      swap2\n      swap1\n      tag_20\n      jump\t// in\n    tag_19:\n      tag_21\n      jump\t// in\n    tag_18:\n      stop\n        /* \"contracts/TimeMarket.sol\":4534:5141  function injectFutureToken(uint64 _id)external{... */\n    tag_4:\n      tag_22\n      0x04\n      dup1\n      calldatasize\n      sub\n      dup2\n      add\n      swap1\n      tag_23\n      swap2\n      swap1\n      tag_24\n      jump\t// in\n    tag_23:\n      tag_25\n      jump\t// in\n    tag_22:\n      stop\n        /* \"contracts/TimeMarket.sol\":7186:8619  function buyerWithdrawRefund(uint64 _id)external{... */\n    tag_5:\n      tag_26\n      0x04\n      dup1\n      calldatasize\n      sub\n      dup2\n      add\n      swap1\n      tag_27\n      swap2\n      swap1\n      tag_24\n      jump\t// in\n    tag_27:\n      tag_28\n      jump\t// in\n    tag_26:\n      stop\n        /* \"contracts/TimeMarket.sol\":1382:1446  mapping(address => mapping(uint256=>bool))public userIfWithdraw1 */\n    tag_6:\n      tag_29\n      0x04\n      dup1\n      calldatasize\n      sub\n      dup2\n      add\n      swap1\n      tag_30\n      swap2\n      swap1\n      tag_31\n      jump\t// in\n    tag_30:\n      tag_32\n      jump\t// in\n    tag_29:\n      mload(0x40)\n      tag_33\n      swap2\n      swap1\n      tag_34\n      jump\t// in\n    tag_33:\n      mload(0x40)\n      dup1\n      swap2\n      sub\n      swap1\n      return\n        /* \"contracts/TimeMarket.sol\":8806:9076  function getPoolAddress(address token0,address token1,uint24 _fee)public view returns(address thisPool){... */\n    tag_7:\n      tag_35\n      0x04\n      dup1\n      calldatasize\n      sub\n      dup2\n      add\n      swap1\n      tag_36\n      swap2\n      swap1\n      tag_37\n      jump\t// in\n    tag_36:\n      tag_38\n      jump\t// in\n    tag_35:\n      mload(0x40)\n      tag_39\n      swap2\n      swap1\n      tag_40\n      jump\t// in\n    tag_39:\n      mload(0x40)\n      dup1\n      swap2\n      sub\n      swap1\n      return\n        /* \"contracts/TimeMarket.sol\":5962:7099  function solderWithdrawStable(uint64 _id)external{... */\n    tag_8:\n      tag_41\n      0x04\n      dup1\n      calldatasize\n      sub\n      dup2\n      add\n      swap1\n      tag_42\n      swap2\n      swap1\n      tag_24\n      jump\t// in\n    tag_42:\n      tag_43\n      jump\t// in\n    tag_41:\n      stop\n        /* \"contracts/TimeMarket.sol\":9467:10010  function getPenal(uint128 _soldPrice, uint128 _soldAmount)public pure returns (uint256){... */\n    tag_9:\n      tag_44\n      0x04\n      dup1\n      calldatasize\n      sub\n      dup2\n      add\n      swap1\n      tag_45\n      swap2\n      swap1\n      tag_46\n      jump\t// in\n    tag_45:\n      tag_47\n      jump\t// in\n    tag_44:\n      mload(0x40)\n      tag_48\n      swap2\n      swap1\n      tag_49\n      jump\t// in\n    tag_48:\n      mload(0x40)\n      dup1\n      swap2\n      sub\n      swap1\n      return\n        /* \"contracts/TimeMarket.sol\":1630:1694  mapping(address => mapping(uint256=>bool))public userIfWithdraw3 */\n    tag_10:\n      tag_50\n      0x04\n      dup1\n      calldatasize\n      sub\n      dup2\n      add\n      swap1\n      tag_51\n      swap2\n      swap1\n      tag_31\n      jump\t// in\n    tag_51:\n      tag_52\n      jump\t// in\n    tag_50:\n      mload(0x40)\n      tag_53\n      swap2\n      swap1\n      tag_34\n      jump\t// in\n    tag_53:\n      mload(0x40)\n      dup1\n      swap2\n      sub\n      swap1\n      return\n        /* \"contracts/TimeMarket.sol\":5149:5909  function buyerWithdrawAirdorp(uint64 _id)external{... */\n    tag_11:\n      tag_54\n      0x04\n      dup1\n      calldatasize\n      sub\n      dup2\n      add\n      swap1\n      tag_55\n      swap2\n      swap1\n      tag_24\n      jump\t// in\n    tag_55:\n      tag_56\n      jump\t// in\n    tag_54:\n      stop\n        /* \"contracts/TimeMarket.sol\":8682:8731  function profileEarn(uint64 _id)public {... */\n    tag_12:\n      tag_57\n      0x04\n      dup1\n      calldatasize\n      sub\n      dup2\n      add\n      swap1\n      tag_58\n      swap2\n      swap1\n      tag_24\n      jump\t// in\n    tag_58:\n      tag_59\n      jump\t// in\n    tag_57:\n      stop\n        /* \"contracts/TimeMarket.sol\":3125:4405  function Sale(uint64 _id,address token1) external {... */\n    tag_13:\n      tag_60\n      0x04\n      dup1\n      calldatasize\n      sub\n      dup2\n      add\n      swap1\n      tag_61\n      swap2\n      swap1\n      tag_62\n      jump\t// in\n    tag_61:\n      tag_63\n      jump\t// in\n    tag_60:\n      stop\n        /* \"contracts/TimeMarket.sol\":1506:1570  mapping(address => mapping(uint256=>bool))public userIfWithdraw2 */\n    tag_14:\n      tag_64\n      0x04\n      dup1\n      calldatasize\n      sub\n      dup2\n      add\n      swap1\n      tag_65\n      swap2\n      swap1\n      tag_31\n      jump\t// in\n    tag_65:\n      tag_66\n      jump\t// in\n    tag_64:\n      mload(0x40)\n      tag_67\n      swap2\n      swap1\n      tag_34\n      jump\t// in\n    tag_67:\n      mload(0x40)\n      dup1\n      swap2\n      sub\n      swap1\n      return\n        /* \"contracts/TimeMarket.sol\":1741:1805  mapping(address => mapping(uint256=>bool))public userIfWithdraw4 */\n    tag_15:\n      tag_68\n      0x04\n      dup1\n      calldatasize\n      sub\n      dup2\n      add\n      swap1\n      tag_69\n      swap2\n      swap1\n      tag_31\n      jump\t// in\n    tag_69:\n      tag_70\n      jump\t// in\n    tag_68:\n      mload(0x40)\n      tag_71\n      swap2\n      swap1\n      tag_34\n      jump\t// in\n    tag_71:\n      mload(0x40)\n      dup1\n      swap2\n      sub\n      swap1\n      return\n        /* \"contracts/TimeMarket.sol\":1828:3096  function buy(address _tokenAddress,address token1,uint128 _buyAmount,uint128 _buyPrice)external{... */\n    tag_21:\n        /* \"contracts/TimeMarket.sol\":1934:1944  uint total */\n      0x00\n        /* \"contracts/TimeMarket.sol\":1956:1965  _buyPrice */\n      dup2\n        /* \"contracts/TimeMarket.sol\":1945:1955  _buyAmount */\n      dup4\n        /* \"contracts/TimeMarket.sol\":1945:1965  _buyAmount*_buyPrice */\n      tag_73\n      swap2\n      swap1\n      tag_74\n      jump\t// in\n    tag_73:\n        /* \"contracts/TimeMarket.sol\":1934:1965  uint total=_buyAmount*_buyPrice */\n      0xffffffffffffffffffffffffffffffff\n      and\n      swap1\n      pop\n        /* \"contracts/TimeMarket.sol\":2052:2068  address thisPool */\n      0x00\n        /* \"contracts/TimeMarket.sol\":2069:2110  getPoolAddress(_tokenAddress,token1,1000) */\n      tag_75\n        /* \"contracts/TimeMarket.sol\":2084:2097  _tokenAddress */\n      dup7\n        /* \"contracts/TimeMarket.sol\":2098:2104  token1 */\n      dup7\n        /* \"contracts/TimeMarket.sol\":2105:2109  1000 */\n      0x03e8\n        /* \"contracts/TimeMarket.sol\":2069:2083  getPoolAddress */\n      tag_38\n        /* \"contracts/TimeMarket.sol\":2069:2110  getPoolAddress(_tokenAddress,token1,1000) */\n      jump\t// in\n    tag_75:\n        /* \"contracts/TimeMarket.sol\":2052:2110  address thisPool=getPoolAddress(_tokenAddress,token1,1000) */\n      swap1\n      pop\n        /* \"contracts/TimeMarket.sol\":2130:2139  100 ether */\n      0x056bc75e2d63100000\n        /* \"contracts/TimeMarket.sol\":2124:2129  total */\n      dup3\n        /* \"contracts/TimeMarket.sol\":2124:2139  total<100 ether */\n      lt\n        /* \"contracts/TimeMarket.sol\":2121:2191  if(total<100 ether){... */\n      iszero\n      tag_76\n      jumpi\n        /* \"contracts/TimeMarket.sol\":2162:2179  NotEnoughAmount() */\n      mload(0x40)\n      0xe008b5f900000000000000000000000000000000000000000000000000000000\n      dup2\n      mstore\n      0x04\n      add\n      mload(0x40)\n      dup1\n      swap2\n      sub\n      swap1\n      revert\n        /* \"contracts/TimeMarket.sol\":2121:2191  if(total<100 ether){... */\n    tag_76:\n        /* \"contracts/TimeMarket.sol\":2201:2228  tradeMes memory newTradeMes */\n      0x00\n        /* \"contracts/TimeMarket.sol\":2229:2542  tradeMes({... */\n      mload(0x40)\n      dup1\n      0x0100\n      add\n      0x40\n      mstore\n      dup1\n        /* \"contracts/TimeMarket.sol\":2264:2265  1 */\n      0x01\n        /* \"contracts/TimeMarket.sol\":2229:2542  tradeMes({... */\n      0xff\n      and\n      dup2\n      mstore\n      0x20\n      add\n        /* \"contracts/TimeMarket.sol\":2288:2290  id */\n      0x00\n      0x07\n      swap1\n      sload\n      swap1\n      0x0100\n      exp\n      swap1\n      div\n      0xffffffffffffffff\n      and\n        /* \"contracts/TimeMarket.sol\":2229:2542  tradeMes({... */\n      0xffffffffffffffff\n      and\n      dup2\n      mstore\n      0x20\n      add\n        /* \"contracts/TimeMarket.sol\":2320:2335  block.timestamp */\n      timestamp\n        /* \"contracts/TimeMarket.sol\":2229:2542  tradeMes({... */\n      0xffffffffffffff\n      and\n      dup2\n      mstore\n      0x20\n      add\n        /* \"contracts/TimeMarket.sol\":2366:2376  _buyAmount */\n      dup7\n        /* \"contracts/TimeMarket.sol\":2229:2542  tradeMes({... */\n      0xffffffffffffffffffffffffffffffff\n      and\n      dup2\n      mstore\n      0x20\n      add\n        /* \"contracts/TimeMarket.sol\":2400:2409  _buyPrice */\n      dup6\n        /* \"contracts/TimeMarket.sol\":2229:2542  tradeMes({... */\n      0xffffffffffffffffffffffffffffffff\n      and\n      dup2\n      mstore\n      0x20\n      add\n        /* \"contracts/TimeMarket.sol\":2437:2450  _tokenAddress */\n      dup9\n        /* \"contracts/TimeMarket.sol\":2229:2542  tradeMes({... */\n      0xffffffffffffffffffffffffffffffffffffffff\n      and\n      dup2\n      mstore\n      0x20\n      add\n        /* \"contracts/TimeMarket.sol\":2478:2488  msg.sender */\n      caller\n        /* \"contracts/TimeMarket.sol\":2229:2542  tradeMes({... */\n      0xffffffffffffffffffffffffffffffffffffffff\n      and\n      dup2\n      mstore\n      0x20\n      add\n        /* \"contracts/TimeMarket.sol\":2525:2529  this */\n      address\n        /* \"contracts/TimeMarket.sol\":2229:2542  tradeMes({... */\n      0xffffffffffffffffffffffffffffffffffffffff\n      and\n      dup2\n      mstore\n      pop\n        /* \"contracts/TimeMarket.sol\":2201:2542  tradeMes memory newTradeMes=tradeMes({... */\n      swap1\n      pop\n        /* \"contracts/TimeMarket.sol\":2567:2578  newTradeMes */\n      dup1\n        /* \"contracts/TimeMarket.sol\":2553:2562  _tradeMes */\n      0x06\n        /* \"contracts/TimeMarket.sol\":2553:2566  _tradeMes[id] */\n      0x00\n        /* \"contracts/TimeMarket.sol\":2563:2565  id */\n      dup1\n      0x07\n      swap1\n      sload\n      swap1\n      0x0100\n      exp\n      swap1\n      div\n      0xffffffffffffffff\n      and\n        /* \"contracts/TimeMarket.sol\":2553:2566  _tradeMes[id] */\n      0xffffffffffffffff\n      and\n      0xffffffffffffffff\n      and\n      dup2\n      mstore\n      0x20\n      add\n      swap1\n      dup2\n      mstore\n      0x20\n      add\n      0x00\n      keccak256\n        /* \"contracts/TimeMarket.sol\":2553:2578  _tradeMes[id]=newTradeMes */\n      0x00\n      dup3\n      add\n      mload\n      dup2\n      0x00\n      add\n      exp(0x0100, 0x00)\n      dup2\n      sload\n      dup2\n      0xff\n      mul\n      not\n      and\n      swap1\n      dup4\n      0xff\n      and\n      mul\n      or\n      swap1\n      sstore\n      pop\n      0x20\n      dup3\n      add\n      mload\n      dup2\n      0x00\n      add\n      exp(0x0100, 0x01)\n      dup2\n      sload\n      dup2\n      0xffffffffffffffff\n      mul\n      not\n      and\n      swap1\n      dup4\n      0xffffffffffffffff\n      and\n      mul\n      or\n      swap1\n      sstore\n      pop\n      0x40\n      dup3\n      add\n      mload\n      dup2\n      0x00\n      add\n      exp(0x0100, 0x09)\n      dup2\n      sload\n      dup2\n      0xffffffffffffff\n      mul\n      not\n      and\n      swap1\n      dup4\n      0xffffffffffffff\n      and\n      mul\n      or\n      swap1\n      sstore\n      pop\n      0x60\n      dup3\n      add\n      mload\n      dup2\n      0x00\n      add\n      exp(0x0100, 0x10)\n      dup2\n      sload\n      dup2\n      0xffffffffffffffffffffffffffffffff\n      mul\n      not\n      and\n      swap1\n      dup4\n      0xffffffffffffffffffffffffffffffff\n      and\n      mul\n      or\n      swap1\n      sstore\n      pop\n      0x80\n      dup3\n      add\n      mload\n      dup2\n      0x01\n      add\n      exp(0x0100, 0x00)\n      dup2\n      sload\n      dup2\n      0xffffffffffffffffffffffffffffffff\n      mul\n      not\n      and\n      swap1\n      dup4\n      0xffffffffffffffffffffffffffffffff\n      and\n      mul\n      or\n      swap1\n      sstore\n      pop\n      0xa0\n      dup3\n      add\n      mload\n      dup2\n      0x02\n      add\n      exp(0x0100, 0x00)\n      dup2\n      sload\n      dup2\n      0xffffffffffffffffffffffffffffffffffffffff\n      mul\n      not\n      and\n      swap1\n      dup4\n      0xffffffffffffffffffffffffffffffffffffffff\n      and\n      mul\n      or\n      swap1\n      sstore\n      pop\n      0xc0\n      dup3\n      add\n      mload\n      dup2\n      0x03\n      add\n      exp(0x0100, 0x00)\n      dup2\n      sload\n      dup2\n      0xffffffffffffffffffffffffffffffffffffffff\n      mul\n      not\n      and\n      swap1\n      dup4\n      0xffffffffffffffffffffffffffffffffffffffff\n      and\n      mul\n      or\n      swap1\n      sstore\n      pop\n      0xe0\n      dup3\n      add\n      mload\n      dup2\n      0x04\n      add\n      exp(0x0100, 0x00)\n      dup2\n      sload\n      dup2\n      0xffffffffffffffffffffffffffffffffffffffff\n      mul\n      not\n      and\n      swap1\n      dup4\n      0xffffffffffffffffffffffffffffffffffffffff\n      and\n      mul\n      or\n      swap1\n      sstore\n      pop\n      swap1\n      pop\n      pop\n        /* \"contracts/TimeMarket.sol\":2625:2695  IERC20(_tokenAddress).safeTransferFrom(msg.sender,address(this),total) */\n      tag_77\n        /* \"contracts/TimeMarket.sol\":2664:2674  msg.sender */\n      caller\n        /* \"contracts/TimeMarket.sol\":2683:2687  this */\n      address\n        /* \"contracts/TimeMarket.sol\":2689:2694  total */\n      dup6\n        /* \"contracts/TimeMarket.sol\":2632:2645  _tokenAddress */\n      dup11\n        /* \"contracts/TimeMarket.sol\":2625:2663  IERC20(_tokenAddress).safeTransferFrom */\n      0xffffffffffffffffffffffffffffffffffffffff\n      and\n      tag_78\n      swap1\n        /* \"contracts/TimeMarket.sol\":2625:2695  IERC20(_tokenAddress).safeTransferFrom(msg.sender,address(this),total) */\n      swap4\n      swap3\n      swap2\n      swap1\n      0xffffffff\n      and\n      jump\t// in\n    tag_77:\n        /* \"contracts/TimeMarket.sol\":2770:2819  IERC20(_tokenAddress).safeApprove(thisPool,total) */\n      tag_79\n        /* \"contracts/TimeMarket.sol\":2804:2812  thisPool */\n      dup3\n        /* \"contracts/TimeMarket.sol\":2813:2818  total */\n      dup5\n        /* \"contracts/TimeMarket.sol\":2777:2790  _tokenAddress */\n      dup10\n        /* \"contracts/TimeMarket.sol\":2770:2803  IERC20(_tokenAddress).safeApprove */\n      0xffffffffffffffffffffffffffffffffffffffff\n      and\n      tag_80\n      swap1\n        /* \"contracts/TimeMarket.sol\":2770:2819  IERC20(_tokenAddress).safeApprove(thisPool,total) */\n      swap3\n      swap2\n      swap1\n      0xffffffff\n      and\n      jump\t// in\n    tag_79:\n        /* \"contracts/TimeMarket.sol\":2849:2862  uniV2Router02 */\n      0x03\n      0x00\n      swap1\n      sload\n      swap1\n      0x0100\n      exp\n      swap1\n      div\n      0xffffffffffffffffffffffffffffffffffffffff\n      and\n        /* \"contracts/TimeMarket.sol\":2830:2876  IUniswapV2Router02(uniV2Router02).addLiquidity */\n      0xffffffffffffffffffffffffffffffffffffffff\n      and\n      0xe8e33700\n        /* \"contracts/TimeMarket.sol\":2891:2904  _tokenAddress */\n      dup9\n        /* \"contracts/TimeMarket.sol\":2919:2925  token1 */\n      dup9\n        /* \"contracts/TimeMarket.sol\":2940:2945  total */\n      dup7\n        /* \"contracts/TimeMarket.sol\":2960:2961  0 */\n      0x00\n        /* \"contracts/TimeMarket.sol\":2976:2980  1000 */\n      0x03e8\n        /* \"contracts/TimeMarket.sol\":2995:2996  0 */\n      0x00\n        /* \"contracts/TimeMarket.sol\":3019:3023  this */\n      address\n        /* \"contracts/TimeMarket.sol\":3055:3062  1 hours */\n      0x0e10\n        /* \"contracts/TimeMarket.sol\":3039:3054  block.timestamp */\n      timestamp\n        /* \"contracts/TimeMarket.sol\":3039:3062  block.timestamp+1 hours */\n      tag_81\n      swap2\n      swap1\n      tag_82\n      jump\t// in\n    tag_81:\n        /* \"contracts/TimeMarket.sol\":2830:3073  IUniswapV2Router02(uniV2Router02).addLiquidity(... */\n      mload(0x40)\n      dup10\n      0xffffffff\n      and\n      0xe0\n      shl\n      dup2\n      mstore\n      0x04\n      add\n      tag_83\n      swap9\n      swap8\n      swap7\n      swap6\n      swap5\n      swap4\n      swap3\n      swap2\n      swap1\n      tag_84\n      jump\t// in\n    tag_83:\n      0x60\n      mload(0x40)\n      dup1\n      dup4\n      sub\n      dup2\n      0x00\n      dup8\n      gas\n      call\n      iszero\n      dup1\n      iszero\n      tag_86\n      jumpi\n      returndatasize\n      0x00\n      dup1\n      returndatacopy\n      revert(0x00, returndatasize)\n    tag_86:\n      pop\n      pop\n      pop\n      pop\n      mload(0x40)\n      returndatasize\n      not(0x1f)\n      0x1f\n      dup3\n      add\n      and\n      dup3\n      add\n      dup1\n      0x40\n      mstore\n      pop\n      dup2\n      add\n      swap1\n      tag_87\n      swap2\n      swap1\n      tag_88\n      jump\t// in\n    tag_87:\n      pop\n      pop\n      pop\n        /* \"contracts/TimeMarket.sol\":3084:3086  id */\n      0x00\n      0x07\n        /* \"contracts/TimeMarket.sol\":3084:3088  id++ */\n      dup2\n      dup2\n      swap1\n      sload\n      swap1\n      0x0100\n      exp\n      swap1\n      div\n      0xffffffffffffffff\n      and\n      dup1\n      swap3\n      swap2\n      swap1\n      tag_89\n      swap1\n      tag_90\n      jump\t// in\n    tag_89:\n      swap2\n      swap1\n      0x0100\n      exp\n      dup2\n      sload\n      dup2\n      0xffffffffffffffff\n      mul\n      not\n      and\n      swap1\n      dup4\n      0xffffffffffffffff\n      and\n      mul\n      or\n      swap1\n      sstore\n      pop\n      pop\n        /* \"contracts/TimeMarket.sol\":1923:3096  {... */\n      pop\n      pop\n      pop\n        /* \"contracts/TimeMarket.sol\":1828:3096  function buy(address _tokenAddress,address token1,uint128 _buyAmount,uint128 _buyPrice)external{... */\n      pop\n      pop\n      pop\n      pop\n      jump\t// out\n        /* \"contracts/TimeMarket.sol\":4534:5141  function injectFutureToken(uint64 _id)external{... */\n    tag_25:\n        /* \"contracts/TimeMarket.sol\":4674:4679  false */\n      0x00\n        /* \"contracts/TimeMarket.sol\":4648:4656  ifInject */\n      0x07\n        /* \"contracts/TimeMarket.sol\":4648:4668  ifInject[msg.sender] */\n      0x00\n        /* \"contracts/TimeMarket.sol\":4657:4667  msg.sender */\n      caller\n        /* \"contracts/TimeMarket.sol\":4648:4668  ifInject[msg.sender] */\n      0xffffffffffffffffffffffffffffffffffffffff\n      and\n      0xffffffffffffffffffffffffffffffffffffffff\n      and\n      dup2\n      mstore\n      0x20\n      add\n      swap1\n      dup2\n      mstore\n      0x20\n      add\n      0x00\n      keccak256\n        /* \"contracts/TimeMarket.sol\":4648:4673  ifInject[msg.sender][_id] */\n      0x00\n        /* \"contracts/TimeMarket.sol\":4669:4672  _id */\n      dup4\n        /* \"contracts/TimeMarket.sol\":4648:4673  ifInject[msg.sender][_id] */\n      0xffffffffffffffff\n      and\n      dup2\n      mstore\n      0x20\n      add\n      swap1\n      dup2\n      mstore\n      0x20\n      add\n      0x00\n      keccak256\n      0x00\n        /* \"contracts/TimeMarket.sol\":4648:4679  ifInject[msg.sender][_id]=false */\n      0x0100\n      exp\n      dup2\n      sload\n      dup2\n      0xff\n      mul\n      not\n      and\n      swap1\n      dup4\n      iszero\n      iszero\n      mul\n      or\n      swap1\n      sstore\n        /* \"contracts/TimeMarket.sol\":4645:4710  if(ifInject[msg.sender][_id]=false){revert AlreadyInjectToken();} */\n      iszero\n      tag_92\n      jumpi\n        /* \"contracts/TimeMarket.sol\":4688:4708  AlreadyInjectToken() */\n      mload(0x40)\n      0x4232716900000000000000000000000000000000000000000000000000000000\n      dup2\n      mstore\n      0x04\n      add\n      mload(0x40)\n      dup1\n      swap2\n      sub\n      swap1\n      revert\n        /* \"contracts/TimeMarket.sol\":4645:4710  if(ifInject[msg.sender][_id]=false){revert AlreadyInjectToken();} */\n    tag_92:\n        /* \"contracts/TimeMarket.sol\":4818:4828  msg.sender */\n      caller\n        /* \"contracts/TimeMarket.sol\":4802:4828  getSolder(_id)!=msg.sender */\n      0xffffffffffffffffffffffffffffffffffffffff\n      and\n        /* \"contracts/TimeMarket.sol\":4802:4816  getSolder(_id) */\n      tag_93\n        /* \"contracts/TimeMarket.sol\":4812:4815  _id */\n      dup3\n        /* \"contracts/TimeMarket.sol\":4802:4811  getSolder */\n      tag_94\n        /* \"contracts/TimeMarket.sol\":4802:4816  getSolder(_id) */\n      jump\t// in\n    tag_93:\n        /* \"contracts/TimeMarket.sol\":4802:4828  getSolder(_id)!=msg.sender */\n      0xffffffffffffffffffffffffffffffffffffffff\n      and\n      eq\n        /* \"contracts/TimeMarket.sol\":4799:4850  if(getSolder(_id)!=msg.sender){revert NorSolder();} */\n      tag_95\n      jumpi\n        /* \"contracts/TimeMarket.sol\":4837:4848  NorSolder() */\n      mload(0x40)\n      0xd7c498bf00000000000000000000000000000000000000000000000000000000\n      dup2\n      mstore\n      0x04\n      add\n      mload(0x40)\n      dup1\n      swap2\n      sub\n      swap1\n      revert\n        /* \"contracts/TimeMarket.sol\":4799:4850  if(getSolder(_id)!=msg.sender){revert NorSolder();} */\n    tag_95:\n        /* \"contracts/TimeMarket.sol\":4907:4932  uint256 thisAirdropAmount */\n      0x00\n        /* \"contracts/TimeMarket.sol\":4933:4942  _tradeMes */\n      0x06\n        /* \"contracts/TimeMarket.sol\":4933:4947  _tradeMes[_id] */\n      0x00\n        /* \"contracts/TimeMarket.sol\":4943:4946  _id */\n      dup4\n        /* \"contracts/TimeMarket.sol\":4933:4947  _tradeMes[_id] */\n      0xffffffffffffffff\n      and\n      0xffffffffffffffff\n      and\n      dup2\n      mstore\n      0x20\n      add\n      swap1\n      dup2\n      mstore\n      0x20\n      add\n      0x00\n      keccak256\n        /* \"contracts/TimeMarket.sol\":4933:4962  _tradeMes[_id].buyTotalAmount */\n      0x00\n      add\n      0x10\n      swap1\n      sload\n      swap1\n      0x0100\n      exp\n      swap1\n      div\n      0xffffffffffffffffffffffffffffffff\n      and\n        /* \"contracts/TimeMarket.sol\":4907:4962  uint256 thisAirdropAmount=_tradeMes[_id].buyTotalAmount */\n      0xffffffffffffffffffffffffffffffff\n      and\n      swap1\n      pop\n        /* \"contracts/TimeMarket.sol\":4973:5054  IERC20(airdropToken).safeTransferFrom(msg.sender,address(this),thisAirdropAmount) */\n      tag_96\n        /* \"contracts/TimeMarket.sol\":5011:5021  msg.sender */\n      caller\n        /* \"contracts/TimeMarket.sol\":5030:5034  this */\n      address\n        /* \"contracts/TimeMarket.sol\":5036:5053  thisAirdropAmount */\n      dup4\n        /* \"contracts/TimeMarket.sol\":4980:4992  airdropToken */\n      0x01\n      0x00\n      swap1\n      sload\n      swap1\n      0x0100\n      exp\n      swap1\n      div\n      0xffffffffffffffffffffffffffffffffffffffff\n      and\n        /* \"contracts/TimeMarket.sol\":4973:5010  IERC20(airdropToken).safeTransferFrom */\n      0xffffffffffffffffffffffffffffffffffffffff\n      and\n      tag_78\n      swap1\n        /* \"contracts/TimeMarket.sol\":4973:5054  IERC20(airdropToken).safeTransferFrom(msg.sender,address(this),thisAirdropAmount) */\n      swap4\n      swap3\n      swap2\n      swap1\n      0xffffffff\n      and\n      jump\t// in\n    tag_96:\n        /* \"contracts/TimeMarket.sol\":5091:5095  true */\n      0x01\n        /* \"contracts/TimeMarket.sol\":5065:5073  ifInject */\n      0x07\n        /* \"contracts/TimeMarket.sol\":5065:5085  ifInject[msg.sender] */\n      0x00\n        /* \"contracts/TimeMarket.sol\":5074:5084  msg.sender */\n      caller\n        /* \"contracts/TimeMarket.sol\":5065:5085  ifInject[msg.sender] */\n      0xffffffffffffffffffffffffffffffffffffffff\n      and\n      0xffffffffffffffffffffffffffffffffffffffff\n      and\n      dup2\n      mstore\n      0x20\n      add\n      swap1\n      dup2\n      mstore\n      0x20\n      add\n      0x00\n      keccak256\n        /* \"contracts/TimeMarket.sol\":5065:5090  ifInject[msg.sender][_id] */\n      0x00\n        /* \"contracts/TimeMarket.sol\":5086:5089  _id */\n      dup5\n        /* \"contracts/TimeMarket.sol\":5065:5090  ifInject[msg.sender][_id] */\n      0xffffffffffffffff\n      and\n      dup2\n      mstore\n      0x20\n      add\n      swap1\n      dup2\n      mstore\n      0x20\n      add\n      0x00\n      keccak256\n      0x00\n        /* \"contracts/TimeMarket.sol\":5065:5095  ifInject[msg.sender][_id]=true */\n      0x0100\n      exp\n      dup2\n      sload\n      dup2\n      0xff\n      mul\n      not\n      and\n      swap1\n      dup4\n      iszero\n      iszero\n      mul\n      or\n      swap1\n      sstore\n      pop\n        /* \"contracts/TimeMarket.sol\":5132:5133  3 */\n      0x03\n        /* \"contracts/TimeMarket.sol\":5106:5115  _tradeMes */\n      0x06\n        /* \"contracts/TimeMarket.sol\":5106:5120  _tradeMes[_id] */\n      0x00\n        /* \"contracts/TimeMarket.sol\":5116:5119  _id */\n      dup5\n        /* \"contracts/TimeMarket.sol\":5106:5120  _tradeMes[_id] */\n      0xffffffffffffffff\n      and\n      0xffffffffffffffff\n      and\n      dup2\n      mstore\n      0x20\n      add\n      swap1\n      dup2\n      mstore\n      0x20\n      add\n      0x00\n      keccak256\n        /* \"contracts/TimeMarket.sol\":5106:5131  _tradeMes[_id].tradeState */\n      0x00\n      add\n      0x00\n        /* \"contracts/TimeMarket.sol\":5106:5133  _tradeMes[_id].tradeState=3 */\n      0x0100\n      exp\n      dup2\n      sload\n      dup2\n      0xff\n      mul\n      not\n      and\n      swap1\n      dup4\n      0xff\n      and\n      mul\n      or\n      swap1\n      sstore\n      pop\n        /* \"contracts/TimeMarket.sol\":4580:5141  {... */\n      pop\n        /* \"contracts/TimeMarket.sol\":4534:5141  function injectFutureToken(uint64 _id)external{... */\n      pop\n      jump\t// out\n        /* \"contracts/TimeMarket.sol\":7186:8619  function buyerWithdrawRefund(uint64 _id)external{... */\n    tag_28:\n        /* \"contracts/TimeMarket.sol\":7245:7258  address buyer */\n      0x00\n        /* \"contracts/TimeMarket.sol\":7259:7272  getBuyer(_id) */\n      tag_98\n        /* \"contracts/TimeMarket.sol\":7268:7271  _id */\n      dup3\n        /* \"contracts/TimeMarket.sol\":7259:7267  getBuyer */\n      tag_99\n        /* \"contracts/TimeMarket.sol\":7259:7272  getBuyer(_id) */\n      jump\t// in\n    tag_98:\n        /* \"contracts/TimeMarket.sol\":7245:7272  address buyer=getBuyer(_id) */\n      swap1\n      pop\n        /* \"contracts/TimeMarket.sol\":7283:7297  address solder */\n      0x00\n        /* \"contracts/TimeMarket.sol\":7298:7312  getSolder(_id) */\n      tag_100\n        /* \"contracts/TimeMarket.sol\":7308:7311  _id */\n      dup4\n        /* \"contracts/TimeMarket.sol\":7298:7307  getSolder */\n      tag_94\n        /* \"contracts/TimeMarket.sol\":7298:7312  getSolder(_id) */\n      jump\t// in\n    tag_100:\n        /* \"contracts/TimeMarket.sol\":7283:7312  address solder=getSolder(_id) */\n      swap1\n      pop\n        /* \"contracts/TimeMarket.sol\":7376:7381  buyer */\n      dup2\n        /* \"contracts/TimeMarket.sol\":7364:7381  msg.sender==buyer */\n      0xffffffffffffffffffffffffffffffffffffffff\n      and\n        /* \"contracts/TimeMarket.sol\":7364:7374  msg.sender */\n      caller\n        /* \"contracts/TimeMarket.sol\":7364:7381  msg.sender==buyer */\n      0xffffffffffffffffffffffffffffffffffffffff\n      and\n      eq\n        /* \"contracts/TimeMarket.sol\":7356:7382  require(msg.sender==buyer) */\n      tag_101\n      jumpi\n      0x00\n      dup1\n      revert\n    tag_101:\n        /* \"contracts/TimeMarket.sol\":7487:7492  false */\n      0x00\n        /* \"contracts/TimeMarket.sol\":7464:7492  ifInject[solder][_id]==false */\n      iszero\n      iszero\n        /* \"contracts/TimeMarket.sol\":7464:7472  ifInject */\n      0x07\n        /* \"contracts/TimeMarket.sol\":7464:7480  ifInject[solder] */\n      0x00\n        /* \"contracts/TimeMarket.sol\":7473:7479  solder */\n      dup4\n        /* \"contracts/TimeMarket.sol\":7464:7480  ifInject[solder] */\n      0xffffffffffffffffffffffffffffffffffffffff\n      and\n      0xffffffffffffffffffffffffffffffffffffffff\n      and\n      dup2\n      mstore\n      0x20\n      add\n      swap1\n      dup2\n      mstore\n      0x20\n      add\n      0x00\n      keccak256\n        /* \"contracts/TimeMarket.sol\":7464:7485  ifInject[solder][_id] */\n      0x00\n        /* \"contracts/TimeMarket.sol\":7481:7484  _id */\n      dup6\n        /* \"contracts/TimeMarket.sol\":7464:7485  ifInject[solder][_id] */\n      0xffffffffffffffff\n      and\n      dup2\n      mstore\n      0x20\n      add\n      swap1\n      dup2\n      mstore\n      0x20\n      add\n      0x00\n      keccak256\n      0x00\n      swap1\n      sload\n      swap1\n      0x0100\n      exp\n      swap1\n      div\n      0xff\n      and\n        /* \"contracts/TimeMarket.sol\":7464:7492  ifInject[solder][_id]==false */\n      iszero\n      iszero\n      eq\n        /* \"contracts/TimeMarket.sol\":7456:7493  require(ifInject[solder][_id]==false) */\n      tag_102\n      jumpi\n      0x00\n      dup1\n      revert\n    tag_102:\n        /* \"contracts/TimeMarket.sol\":7546:7551  false */\n      0x00\n        /* \"contracts/TimeMarket.sol\":7512:7551  userIfWithdraw3[msg.sender][_id]==false */\n      iszero\n      iszero\n        /* \"contracts/TimeMarket.sol\":7512:7527  userIfWithdraw3 */\n      0x0a\n        /* \"contracts/TimeMarket.sol\":7512:7539  userIfWithdraw3[msg.sender] */\n      0x00\n        /* \"contracts/TimeMarket.sol\":7528:7538  msg.sender */\n      caller\n        /* \"contracts/TimeMarket.sol\":7512:7539  userIfWithdraw3[msg.sender] */\n      0xffffffffffffffffffffffffffffffffffffffff\n      and\n      0xffffffffffffffffffffffffffffffffffffffff\n      and\n      dup2\n      mstore\n      0x20\n      add\n      swap1\n      dup2\n      mstore\n      0x20\n      add\n      0x00\n      keccak256\n        /* \"contracts/TimeMarket.sol\":7512:7544  userIfWithdraw3[msg.sender][_id] */\n      0x00\n        /* \"contracts/TimeMarket.sol\":7540:7543  _id */\n      dup6\n        /* \"contracts/TimeMarket.sol\":7512:7544  userIfWithdraw3[msg.sender][_id] */\n      0xffffffffffffffff\n      and\n      dup2\n      mstore\n      0x20\n      add\n      swap1\n      dup2\n      mstore\n      0x20\n      add\n      0x00\n      keccak256\n      0x00\n      swap1\n      sload\n      swap1\n      0x0100\n      exp\n      swap1\n      div\n      0xff\n      and\n        /* \"contracts/TimeMarket.sol\":7512:7551  userIfWithdraw3[msg.sender][_id]==false */\n      iszero\n      iszero\n      eq\n        /* \"contracts/TimeMarket.sol\":7504:7552  require(userIfWithdraw3[msg.sender][_id]==false) */\n      tag_103\n      jumpi\n      0x00\n      dup1\n      revert\n    tag_103:\n        /* \"contracts/TimeMarket.sol\":7616:7621  buyer */\n      dup2\n        /* \"contracts/TimeMarket.sol\":7604:7621  msg.sender==buyer */\n      0xffffffffffffffffffffffffffffffffffffffff\n      and\n        /* \"contracts/TimeMarket.sol\":7604:7614  msg.sender */\n      caller\n        /* \"contracts/TimeMarket.sol\":7604:7621  msg.sender==buyer */\n      0xffffffffffffffffffffffffffffffffffffffff\n      and\n      eq\n        /* \"contracts/TimeMarket.sol\":7596:7622  require(msg.sender==buyer) */\n      tag_104\n      jumpi\n      0x00\n      dup1\n      revert\n    tag_104:\n        /* \"contracts/TimeMarket.sol\":7635:7661  address promiseStableToken */\n      0x00\n        /* \"contracts/TimeMarket.sol\":7662:7671  _tradeMes */\n      0x06\n        /* \"contracts/TimeMarket.sol\":7662:7676  _tradeMes[_id] */\n      0x00\n        /* \"contracts/TimeMarket.sol\":7672:7675  _id */\n      dup6\n        /* \"contracts/TimeMarket.sol\":7662:7676  _tradeMes[_id] */\n      0xffffffffffffffff\n      and\n      0xffffffffffffffff\n      and\n      dup2\n      mstore\n      0x20\n      add\n      swap1\n      dup2\n      mstore\n      0x20\n      add\n      0x00\n      keccak256\n        /* \"contracts/TimeMarket.sol\":7662:7689  _tradeMes[_id].tokenAddress */\n      0x02\n      add\n      0x00\n      swap1\n      sload\n      swap1\n      0x0100\n      exp\n      swap1\n      div\n      0xffffffffffffffffffffffffffffffffffffffff\n      and\n        /* \"contracts/TimeMarket.sol\":7635:7689  address promiseStableToken=_tradeMes[_id].tokenAddress */\n      swap1\n      pop\n        /* \"contracts/TimeMarket.sol\":7700:7722  uint256 penalSumAmount */\n      0x00\n        /* \"contracts/TimeMarket.sol\":7723:7786  getPenal(_tradeMes[_id].buyPrice,_tradeMes[_id].buyTotalAmount) */\n      tag_105\n        /* \"contracts/TimeMarket.sol\":7732:7741  _tradeMes */\n      0x06\n        /* \"contracts/TimeMarket.sol\":7732:7746  _tradeMes[_id] */\n      0x00\n        /* \"contracts/TimeMarket.sol\":7742:7745  _id */\n      dup8\n        /* \"contracts/TimeMarket.sol\":7732:7746  _tradeMes[_id] */\n      0xffffffffffffffff\n      and\n      0xffffffffffffffff\n      and\n      dup2\n      mstore\n      0x20\n      add\n      swap1\n      dup2\n      mstore\n      0x20\n      add\n      0x00\n      keccak256\n        /* \"contracts/TimeMarket.sol\":7732:7755  _tradeMes[_id].buyPrice */\n      0x01\n      add\n      0x00\n      swap1\n      sload\n      swap1\n      0x0100\n      exp\n      swap1\n      div\n      0xffffffffffffffffffffffffffffffff\n      and\n        /* \"contracts/TimeMarket.sol\":7756:7765  _tradeMes */\n      0x06\n        /* \"contracts/TimeMarket.sol\":7756:7770  _tradeMes[_id] */\n      0x00\n        /* \"contracts/TimeMarket.sol\":7766:7769  _id */\n      dup9\n        /* \"contracts/TimeMarket.sol\":7756:7770  _tradeMes[_id] */\n      0xffffffffffffffff\n      and\n      0xffffffffffffffff\n      and\n      dup2\n      mstore\n      0x20\n      add\n      swap1\n      dup2\n      mstore\n      0x20\n      add\n      0x00\n      keccak256\n        /* \"contracts/TimeMarket.sol\":7756:7785  _tradeMes[_id].buyTotalAmount */\n      0x00\n      add\n      0x10\n      swap1\n      sload\n      swap1\n      0x0100\n      exp\n      swap1\n      div\n      0xffffffffffffffffffffffffffffffff\n      and\n        /* \"contracts/TimeMarket.sol\":7723:7731  getPenal */\n      tag_47\n        /* \"contracts/TimeMarket.sol\":7723:7786  getPenal(_tradeMes[_id].buyPrice,_tradeMes[_id].buyTotalAmount) */\n      jump\t// in\n    tag_105:\n        /* \"contracts/TimeMarket.sol\":7700:7786  uint256 penalSumAmount=getPenal(_tradeMes[_id].buyPrice,_tradeMes[_id].buyTotalAmount) */\n      swap1\n      pop\n        /* \"contracts/TimeMarket.sol\":7797:7808  uint256 fee */\n      0x00\n        /* \"contracts/TimeMarket.sol\":7809:7836  TimeFee.fee(penalSumAmount) */\n      tag_106\n        /* \"contracts/TimeMarket.sol\":7821:7835  penalSumAmount */\n      dup3\n        /* \"contracts/TimeMarket.sol\":7809:7820  TimeFee.fee */\n      tag_107\n        /* \"contracts/TimeMarket.sol\":7809:7836  TimeFee.fee(penalSumAmount) */\n      jump\t// in\n    tag_106:\n        /* \"contracts/TimeMarket.sol\":7797:7836  uint256 fee=TimeFee.fee(penalSumAmount) */\n      swap1\n      pop\n        /* \"contracts/TimeMarket.sol\":7865:7961  IERC20(promiseStableToken).safeTransfer(... */\n      tag_108\n        /* \"contracts/TimeMarket.sol\":7927:7931  this */\n      address\n        /* \"contracts/TimeMarket.sol\":7947:7950  fee */\n      dup3\n        /* \"contracts/TimeMarket.sol\":7872:7890  promiseStableToken */\n      dup6\n        /* \"contracts/TimeMarket.sol\":7865:7904  IERC20(promiseStableToken).safeTransfer */\n      0xffffffffffffffffffffffffffffffffffffffff\n      and\n      tag_109\n      swap1\n        /* \"contracts/TimeMarket.sol\":7865:7961  IERC20(promiseStableToken).safeTransfer(... */\n      swap3\n      swap2\n      swap1\n      0xffffffff\n      and\n      jump\t// in\n    tag_108:\n        /* \"contracts/TimeMarket.sol\":8017:8120  IERC20(promiseStableToken).safeTransfer(... */\n      tag_110\n        /* \"contracts/TimeMarket.sol\":8071:8076  buyer */\n      dup6\n        /* \"contracts/TimeMarket.sol\":8106:8109  fee */\n      dup3\n        /* \"contracts/TimeMarket.sol\":8091:8105  penalSumAmount */\n      dup5\n        /* \"contracts/TimeMarket.sol\":8091:8109  penalSumAmount-fee */\n      tag_111\n      swap2\n      swap1\n      tag_112\n      jump\t// in\n    tag_111:\n        /* \"contracts/TimeMarket.sol\":8024:8042  promiseStableToken */\n      dup6\n        /* \"contracts/TimeMarket.sol\":8017:8056  IERC20(promiseStableToken).safeTransfer */\n      0xffffffffffffffffffffffffffffffffffffffff\n      and\n      tag_109\n      swap1\n        /* \"contracts/TimeMarket.sol\":8017:8120  IERC20(promiseStableToken).safeTransfer(... */\n      swap3\n      swap2\n      swap1\n      0xffffffff\n      and\n      jump\t// in\n    tag_110:\n        /* \"contracts/TimeMarket.sol\":8164:8168  true */\n      0x01\n        /* \"contracts/TimeMarket.sol\":8131:8146  userIfWithdraw3 */\n      0x0a\n        /* \"contracts/TimeMarket.sol\":8131:8158  userIfWithdraw3[msg.sender] */\n      0x00\n        /* \"contracts/TimeMarket.sol\":8147:8157  msg.sender */\n      caller\n        /* \"contracts/TimeMarket.sol\":8131:8158  userIfWithdraw3[msg.sender] */\n      0xffffffffffffffffffffffffffffffffffffffff\n      and\n      0xffffffffffffffffffffffffffffffffffffffff\n      and\n      dup2\n      mstore\n      0x20\n      add\n      swap1\n      dup2\n      mstore\n      0x20\n      add\n      0x00\n      keccak256\n        /* \"contracts/TimeMarket.sol\":8131:8163  userIfWithdraw3[msg.sender][_id] */\n      0x00\n        /* \"contracts/TimeMarket.sol\":8159:8162  _id */\n      dup9\n        /* \"contracts/TimeMarket.sol\":8131:8163  userIfWithdraw3[msg.sender][_id] */\n      0xffffffffffffffff\n      and\n      dup2\n      mstore\n      0x20\n      add\n      swap1\n      dup2\n      mstore\n      0x20\n      add\n      0x00\n      keccak256\n      0x00\n        /* \"contracts/TimeMarket.sol\":8131:8168  userIfWithdraw3[msg.sender][_id]=true */\n      0x0100\n      exp\n      dup2\n      sload\n      dup2\n      0xff\n      mul\n      not\n      and\n      swap1\n      dup4\n      iszero\n      iszero\n      mul\n      or\n      swap1\n      sstore\n      pop\n        /* \"contracts/TimeMarket.sol\":8211:8212  1 */\n      0x01\n        /* \"contracts/TimeMarket.sol\":8184:8193  _tradeMes */\n      0x06\n        /* \"contracts/TimeMarket.sol\":8184:8198  _tradeMes[_id] */\n      0x00\n        /* \"contracts/TimeMarket.sol\":8194:8197  _id */\n      dup9\n        /* \"contracts/TimeMarket.sol\":8184:8198  _tradeMes[_id] */\n      0xffffffffffffffff\n      and\n      0xffffffffffffffff\n      and\n      dup2\n      mstore\n      0x20\n      add\n      swap1\n      dup2\n      mstore\n      0x20\n      add\n      0x00\n      keccak256\n        /* \"contracts/TimeMarket.sol\":8184:8209  _tradeMes[_id].tradeState */\n      0x00\n      add\n      0x00\n      swap1\n      sload\n      swap1\n      0x0100\n      exp\n      swap1\n      div\n      0xff\n      and\n        /* \"contracts/TimeMarket.sol\":8184:8212  _tradeMes[_id].tradeState==1 */\n      0xff\n      and\n      sub\n        /* \"contracts/TimeMarket.sol\":8181:8574  if(_tradeMes[_id].tradeState==1){... */\n      tag_113\n      jumpi\n        /* \"contracts/TimeMarket.sol\":8270:8275  false */\n      0x00\n        /* \"contracts/TimeMarket.sol\":8236:8275  userIfWithdraw4[msg.sender][_id]==false */\n      iszero\n      iszero\n        /* \"contracts/TimeMarket.sol\":8236:8251  userIfWithdraw4 */\n      0x0b\n        /* \"contracts/TimeMarket.sol\":8236:8263  userIfWithdraw4[msg.sender] */\n      0x00\n        /* \"contracts/TimeMarket.sol\":8252:8262  msg.sender */\n      caller\n        /* \"contracts/TimeMarket.sol\":8236:8263  userIfWithdraw4[msg.sender] */\n      0xffffffffffffffffffffffffffffffffffffffff\n      and\n      0xffffffffffffffffffffffffffffffffffffffff\n      and\n      dup2\n      mstore\n      0x20\n      add\n      swap1\n      dup2\n      mstore\n      0x20\n      add\n      0x00\n      keccak256\n        /* \"contracts/TimeMarket.sol\":8236:8268  userIfWithdraw4[msg.sender][_id] */\n      0x00\n        /* \"contracts/TimeMarket.sol\":8264:8267  _id */\n      dup9\n        /* \"contracts/TimeMarket.sol\":8236:8268  userIfWithdraw4[msg.sender][_id] */\n      0xffffffffffffffff\n      and\n      dup2\n      mstore\n      0x20\n      add\n      swap1\n      dup2\n      mstore\n      0x20\n      add\n      0x00\n      keccak256\n      0x00\n      swap1\n      sload\n      swap1\n      0x0100\n      exp\n      swap1\n      div\n      0xff\n      and\n        /* \"contracts/TimeMarket.sol\":8236:8275  userIfWithdraw4[msg.sender][_id]==false */\n      iszero\n      iszero\n      eq\n        /* \"contracts/TimeMarket.sol\":8228:8276  require(userIfWithdraw4[msg.sender][_id]==false) */\n      tag_114\n      jumpi\n      0x00\n      dup1\n      revert\n    tag_114:\n        /* \"contracts/TimeMarket.sol\":8291:8304  uint256 total */\n      0x00\n        /* \"contracts/TimeMarket.sol\":8329:8338  _tradeMes */\n      0x06\n        /* \"contracts/TimeMarket.sol\":8329:8343  _tradeMes[_id] */\n      0x00\n        /* \"contracts/TimeMarket.sol\":8339:8342  _id */\n      dup9\n        /* \"contracts/TimeMarket.sol\":8329:8343  _tradeMes[_id] */\n      0xffffffffffffffff\n      and\n      0xffffffffffffffff\n      and\n      dup2\n      mstore\n      0x20\n      add\n      swap1\n      dup2\n      mstore\n      0x20\n      add\n      0x00\n      keccak256\n        /* \"contracts/TimeMarket.sol\":8329:8358  _tradeMes[_id].buyTotalAmount */\n      0x00\n      add\n      0x10\n      swap1\n      sload\n      swap1\n      0x0100\n      exp\n      swap1\n      div\n      0xffffffffffffffffffffffffffffffff\n      and\n        /* \"contracts/TimeMarket.sol\":8305:8314  _tradeMes */\n      0x06\n        /* \"contracts/TimeMarket.sol\":8305:8319  _tradeMes[_id] */\n      0x00\n        /* \"contracts/TimeMarket.sol\":8315:8318  _id */\n      dup10\n        /* \"contracts/TimeMarket.sol\":8305:8319  _tradeMes[_id] */\n      0xffffffffffffffff\n      and\n      0xffffffffffffffff\n      and\n      dup2\n      mstore\n      0x20\n      add\n      swap1\n      dup2\n      mstore\n      0x20\n      add\n      0x00\n      keccak256\n        /* \"contracts/TimeMarket.sol\":8305:8328  _tradeMes[_id].buyPrice */\n      0x01\n      add\n      0x00\n      swap1\n      sload\n      swap1\n      0x0100\n      exp\n      swap1\n      div\n      0xffffffffffffffffffffffffffffffff\n      and\n        /* \"contracts/TimeMarket.sol\":8305:8358  _tradeMes[_id].buyPrice*_tradeMes[_id].buyTotalAmount */\n      tag_115\n      swap2\n      swap1\n      tag_74\n      jump\t// in\n    tag_115:\n        /* \"contracts/TimeMarket.sol\":8291:8358  uint256 total=_tradeMes[_id].buyPrice*_tradeMes[_id].buyTotalAmount */\n      0xffffffffffffffffffffffffffffffff\n      and\n      swap1\n      pop\n        /* \"contracts/TimeMarket.sol\":8400:8510  IERC20(promiseStableToken).safeTransfer(... */\n      tag_116\n        /* \"contracts/TimeMarket.sol\":8458:8471  getBuyer(_id) */\n      tag_117\n        /* \"contracts/TimeMarket.sol\":8467:8470  _id */\n      dup9\n        /* \"contracts/TimeMarket.sol\":8458:8466  getBuyer */\n      tag_99\n        /* \"contracts/TimeMarket.sol\":8458:8471  getBuyer(_id) */\n      jump\t// in\n    tag_117:\n        /* \"contracts/TimeMarket.sol\":8490:8495  total */\n      dup3\n        /* \"contracts/TimeMarket.sol\":8407:8425  promiseStableToken */\n      dup7\n        /* \"contracts/TimeMarket.sol\":8400:8439  IERC20(promiseStableToken).safeTransfer */\n      0xffffffffffffffffffffffffffffffffffffffff\n      and\n      tag_109\n      swap1\n        /* \"contracts/TimeMarket.sol\":8400:8510  IERC20(promiseStableToken).safeTransfer(... */\n      swap3\n      swap2\n      swap1\n      0xffffffff\n      and\n      jump\t// in\n    tag_116:\n        /* \"contracts/TimeMarket.sol\":8558:8562  true */\n      0x01\n        /* \"contracts/TimeMarket.sol\":8525:8540  userIfWithdraw4 */\n      0x0b\n        /* \"contracts/TimeMarket.sol\":8525:8552  userIfWithdraw4[msg.sender] */\n      0x00\n        /* \"contracts/TimeMarket.sol\":8541:8551  msg.sender */\n      caller\n        /* \"contracts/TimeMarket.sol\":8525:8552  userIfWithdraw4[msg.sender] */\n      0xffffffffffffffffffffffffffffffffffffffff\n      and\n      0xffffffffffffffffffffffffffffffffffffffff\n      and\n      dup2\n      mstore\n      0x20\n      add\n      swap1\n      dup2\n      mstore\n      0x20\n      add\n      0x00\n      keccak256\n        /* \"contracts/TimeMarket.sol\":8525:8557  userIfWithdraw4[msg.sender][_id] */\n      0x00\n        /* \"contracts/TimeMarket.sol\":8553:8556  _id */\n      dup10\n        /* \"contracts/TimeMarket.sol\":8525:8557  userIfWithdraw4[msg.sender][_id] */\n      0xffffffffffffffff\n      and\n      dup2\n      mstore\n      0x20\n      add\n      swap1\n      dup2\n      mstore\n      0x20\n      add\n      0x00\n      keccak256\n      0x00\n        /* \"contracts/TimeMarket.sol\":8525:8562  userIfWithdraw4[msg.sender][_id]=true */\n      0x0100\n      exp\n      dup2\n      sload\n      dup2\n      0xff\n      mul\n      not\n      and\n      swap1\n      dup4\n      iszero\n      iszero\n      mul\n      or\n      swap1\n      sstore\n      pop\n        /* \"contracts/TimeMarket.sol\":8213:8574  {... */\n      pop\n        /* \"contracts/TimeMarket.sol\":8181:8574  if(_tradeMes[_id].tradeState==1){... */\n    tag_113:\n        /* \"contracts/TimeMarket.sol\":8610:8611  5 */\n      0x05\n        /* \"contracts/TimeMarket.sol\":8584:8593  _tradeMes */\n      0x06\n        /* \"contracts/TimeMarket.sol\":8584:8598  _tradeMes[_id] */\n      0x00\n        /* \"contracts/TimeMarket.sol\":8594:8597  _id */\n      dup9\n        /* \"contracts/TimeMarket.sol\":8584:8598  _tradeMes[_id] */\n      0xffffffffffffffff\n      and\n      0xffffffffffffffff\n      and\n      dup2\n      mstore\n      0x20\n      add\n      swap1\n      dup2\n      mstore\n      0x20\n      add\n      0x00\n      keccak256\n        /* \"contracts/TimeMarket.sol\":8584:8609  _tradeMes[_id].tradeState */\n      0x00\n      add\n      0x00\n        /* \"contracts/TimeMarket.sol\":8584:8611  _tradeMes[_id].tradeState=5 */\n      0x0100\n      exp\n      dup2\n      sload\n      dup2\n      0xff\n      mul\n      not\n      and\n      swap1\n      dup4\n      0xff\n      and\n      mul\n      or\n      swap1\n      sstore\n      pop\n        /* \"contracts/TimeMarket.sol\":7234:8619  {... */\n      pop\n      pop\n      pop\n      pop\n      pop\n        /* \"contracts/TimeMarket.sol\":7186:8619  function buyerWithdrawRefund(uint64 _id)external{... */\n      pop\n      jump\t// out\n        /* \"contracts/TimeMarket.sol\":1382:1446  mapping(address => mapping(uint256=>bool))public userIfWithdraw1 */\n    tag_32:\n      mstore(0x20, 0x08)\n      dup2\n      0x00\n      mstore\n      mstore(0x20, keccak256(0x00, 0x40))\n      dup1\n      0x00\n      mstore\n      keccak256(0x00, 0x40)\n      0x00\n      swap2\n      pop\n      swap2\n      pop\n      swap1\n      sload\n      swap1\n      0x0100\n      exp\n      swap1\n      div\n      0xff\n      and\n      dup2\n      jump\t// out\n        /* \"contracts/TimeMarket.sol\":8806:9076  function getPoolAddress(address token0,address token1,uint24 _fee)public view returns(address thisPool){... */\n    tag_38:\n        /* \"contracts/TimeMarket.sol\":8892:8908  address thisPool */\n      0x00\n        /* \"contracts/TimeMarket.sol\":8949:8961  uniV3Factory */\n      0x04\n      0x00\n      swap1\n      sload\n      swap1\n      0x0100\n      exp\n      swap1\n      div\n      0xffffffffffffffffffffffffffffffffffffffff\n      and\n        /* \"contracts/TimeMarket.sol\":8931:8970  IUniswapV3Factory(uniV3Factory).getPool */\n      0xffffffffffffffffffffffffffffffffffffffff\n      and\n      0x1698ee82\n        /* \"contracts/TimeMarket.sol\":8985:8991  token0 */\n      dup6\n        /* \"contracts/TimeMarket.sol\":9006:9012  token1 */\n      dup6\n        /* \"contracts/TimeMarket.sol\":9027:9031  _fee */\n      dup6\n        /* \"contracts/TimeMarket.sol\":8931:9042  IUniswapV3Factory(uniV3Factory).getPool(... */\n      mload(0x40)\n      dup5\n      0xffffffff\n      and\n      0xe0\n      shl\n      dup2\n      mstore\n      0x04\n      add\n      tag_119\n      swap4\n      swap3\n      swap2\n      swap1\n      tag_120\n      jump\t// in\n    tag_119:\n      0x20\n      mload(0x40)\n      dup1\n      dup4\n      sub\n      dup2\n      dup7\n      gas\n      staticcall\n      iszero\n      dup1\n      iszero\n      tag_122\n      jumpi\n      returndatasize\n      0x00\n      dup1\n      returndatacopy\n      revert(0x00, returndatasize)\n    tag_122:\n      pop\n      pop\n      pop\n      pop\n      mload(0x40)\n      returndatasize\n      not(0x1f)\n      0x1f\n      dup3\n      add\n      and\n      dup3\n      add\n      dup1\n      0x40\n      mstore\n      pop\n      dup2\n      add\n      swap1\n      tag_123\n      swap2\n      swap1\n      tag_124\n      jump\t// in\n    tag_123:\n        /* \"contracts/TimeMarket.sol\":8920:9042  thisPool = IUniswapV3Factory(uniV3Factory).getPool(... */\n      swap1\n      pop\n        /* \"contracts/TimeMarket.sol\":8806:9076  function getPoolAddress(address token0,address token1,uint24 _fee)public view returns(address thisPool){... */\n      swap4\n      swap3\n      pop\n      pop\n      pop\n      jump\t// out\n        /* \"contracts/TimeMarket.sol\":5962:7099  function solderWithdrawStable(uint64 _id)external{... */\n    tag_43:\n        /* \"contracts/TimeMarket.sol\":6022:6036  address solder */\n      0x00\n        /* \"contracts/TimeMarket.sol\":6037:6051  getSolder(_id) */\n      tag_126\n        /* \"contracts/TimeMarket.sol\":6047:6050  _id */\n      dup3\n        /* \"contracts/TimeMarket.sol\":6037:6046  getSolder */\n      tag_94\n        /* \"contracts/TimeMarket.sol\":6037:6051  getSolder(_id) */\n      jump\t// in\n    tag_126:\n        /* \"contracts/TimeMarket.sol\":6022:6051  address solder=getSolder(_id) */\n      swap1\n      pop\n        /* \"contracts/TimeMarket.sol\":6115:6121  solder */\n      dup1\n        /* \"contracts/TimeMarket.sol\":6103:6121  msg.sender==solder */\n      0xffffffffffffffffffffffffffffffffffffffff\n      and\n        /* \"contracts/TimeMarket.sol\":6103:6113  msg.sender */\n      caller\n        /* \"contracts/TimeMarket.sol\":6103:6121  msg.sender==solder */\n      0xffffffffffffffffffffffffffffffffffffffff\n      and\n      eq\n        /* \"contracts/TimeMarket.sol\":6095:6122  require(msg.sender==solder) */\n      tag_127\n      jumpi\n      0x00\n      dup1\n      revert\n    tag_127:\n        /* \"contracts/TimeMarket.sol\":6204:6212  ifInject */\n      0x07\n        /* \"contracts/TimeMarket.sol\":6204:6220  ifInject[solder] */\n      0x00\n        /* \"contracts/TimeMarket.sol\":6213:6219  solder */\n      dup3\n        /* \"contracts/TimeMarket.sol\":6204:6220  ifInject[solder] */\n      0xffffffffffffffffffffffffffffffffffffffff\n      and\n      0xffffffffffffffffffffffffffffffffffffffff\n      and\n      dup2\n      mstore\n      0x20\n      add\n      swap1\n      dup2\n      mstore\n      0x20\n      add\n      0x00\n      keccak256\n        /* \"contracts/TimeMarket.sol\":6204:6225  ifInject[solder][_id] */\n      0x00\n        /* \"contracts/TimeMarket.sol\":6221:6224  _id */\n      dup4\n        /* \"contracts/TimeMarket.sol\":6204:6225  ifInject[solder][_id] */\n      0xffffffffffffffff\n      and\n      dup2\n      mstore\n      0x20\n      add\n      swap1\n      dup2\n      mstore\n      0x20\n      add\n      0x00\n      keccak256\n      0x00\n      swap1\n      sload\n      swap1\n      0x0100\n      exp\n      swap1\n      div\n      0xff\n      and\n        /* \"contracts/TimeMarket.sol\":6196:6226  require(ifInject[solder][_id]) */\n      tag_128\n      jumpi\n      0x00\n      dup1\n      revert\n    tag_128:\n        /* \"contracts/TimeMarket.sol\":6312:6317  false */\n      0x00\n        /* \"contracts/TimeMarket.sol\":6278:6317  userIfWithdraw2[msg.sender][_id]==false */\n      iszero\n      iszero\n        /* \"contracts/TimeMarket.sol\":6278:6293  userIfWithdraw2 */\n      0x09\n        /* \"contracts/TimeMarket.sol\":6278:6305  userIfWithdraw2[msg.sender] */\n      0x00\n        /* \"contracts/TimeMarket.sol\":6294:6304  msg.sender */\n      caller\n        /* \"contracts/TimeMarket.sol\":6278:6305  userIfWithdraw2[msg.sender] */\n      0xffffffffffffffffffffffffffffffffffffffff\n      and\n      0xffffffffffffffffffffffffffffffffffffffff\n      and\n      dup2\n      mstore\n      0x20\n      add\n      swap1\n      dup2\n      mstore\n      0x20\n      add\n      0x00\n      keccak256\n        /* \"contracts/TimeMarket.sol\":6278:6310  userIfWithdraw2[msg.sender][_id] */\n      0x00\n        /* \"contracts/TimeMarket.sol\":6306:6309  _id */\n      dup5\n        /* \"contracts/TimeMarket.sol\":6278:6310  userIfWithdraw2[msg.sender][_id] */\n      0xffffffffffffffff\n      and\n      dup2\n      mstore\n      0x20\n      add\n      swap1\n      dup2\n      mstore\n      0x20\n      add\n      0x00\n      keccak256\n      0x00\n      swap1\n      sload\n      swap1\n      0x0100\n      exp\n      swap1\n      div\n      0xff\n      and\n        /* \"contracts/TimeMarket.sol\":6278:6317  userIfWithdraw2[msg.sender][_id]==false */\n      iszero\n      iszero\n      eq\n        /* \"contracts/TimeMarket.sol\":6270:6318  require(userIfWithdraw2[msg.sender][_id]==false) */\n      tag_129\n      jumpi\n      0x00\n      dup1\n      revert\n    tag_129:\n        /* \"contracts/TimeMarket.sol\":6329:6355  address promiseStableToken */\n      0x00\n        /* \"contracts/TimeMarket.sol\":6356:6365  _tradeMes */\n      0x06\n        /* \"contracts/TimeMarket.sol\":6356:6370  _tradeMes[_id] */\n      0x00\n        /* \"contracts/TimeMarket.sol\":6366:6369  _id */\n      dup5\n        /* \"contracts/TimeMarket.sol\":6356:6370  _tradeMes[_id] */\n      0xffffffffffffffff\n      and\n      0xffffffffffffffff\n      and\n      dup2\n      mstore\n      0x20\n      add\n      swap1\n      dup2\n      mstore\n      0x20\n      add\n      0x00\n      keccak256\n        /* \"contracts/TimeMarket.sol\":6356:6383  _tradeMes[_id].tokenAddress */\n      0x02\n      add\n      0x00\n      swap1\n      sload\n      swap1\n      0x0100\n      exp\n      swap1\n      div\n      0xffffffffffffffffffffffffffffffffffffffff\n      and\n        /* \"contracts/TimeMarket.sol\":6329:6383  address promiseStableToken=_tradeMes[_id].tokenAddress */\n      swap1\n      pop\n        /* \"contracts/TimeMarket.sol\":6394:6407  uint256 total */\n      0x00\n        /* \"contracts/TimeMarket.sol\":6432:6441  _tradeMes */\n      0x06\n        /* \"contracts/TimeMarket.sol\":6432:6446  _tradeMes[_id] */\n      0x00\n        /* \"contracts/TimeMarket.sol\":6442:6445  _id */\n      dup6\n        /* \"contracts/TimeMarket.sol\":6432:6446  _tradeMes[_id] */\n      0xffffffffffffffff\n      and\n      0xffffffffffffffff\n      and\n      dup2\n      mstore\n      0x20\n      add\n      swap1\n      dup2\n      mstore\n      0x20\n      add\n      0x00\n      keccak256\n        /* \"contracts/TimeMarket.sol\":6432:6461  _tradeMes[_id].buyTotalAmount */\n      0x00\n      add\n      0x10\n      swap1\n      sload\n      swap1\n      0x0100\n      exp\n      swap1\n      div\n      0xffffffffffffffffffffffffffffffff\n      and\n        /* \"contracts/TimeMarket.sol\":6408:6417  _tradeMes */\n      0x06\n        /* \"contracts/TimeMarket.sol\":6408:6422  _tradeMes[_id] */\n      0x00\n        /* \"contracts/TimeMarket.sol\":6418:6421  _id */\n      dup7\n        /* \"contracts/TimeMarket.sol\":6408:6422  _tradeMes[_id] */\n      0xffffffffffffffff\n      and\n      0xffffffffffffffff\n      and\n      dup2\n      mstore\n      0x20\n      add\n      swap1\n      dup2\n      mstore\n      0x20\n      add\n      0x00\n      keccak256\n        /* \"contracts/TimeMarket.sol\":6408:6431  _tradeMes[_id].buyPrice */\n      0x01\n      add\n      0x00\n      swap1\n      sload\n      swap1\n      0x0100\n      exp\n      swap1\n      div\n      0xffffffffffffffffffffffffffffffff\n      and\n        /* \"contracts/TimeMarket.sol\":6408:6461  _tradeMes[_id].buyPrice*_tradeMes[_id].buyTotalAmount */\n      tag_130\n      swap2\n      swap1\n      tag_74\n      jump\t// in\n    tag_130:\n        /* \"contracts/TimeMarket.sol\":6394:6461  uint256 total=_tradeMes[_id].buyPrice*_tradeMes[_id].buyTotalAmount */\n      0xffffffffffffffffffffffffffffffff\n      and\n      swap1\n      pop\n        /* \"contracts/TimeMarket.sol\":6472:6494  uint256 penalSumAmount */\n      0x00\n        /* \"contracts/TimeMarket.sol\":6495:6558  getPenal(_tradeMes[_id].buyPrice,_tradeMes[_id].buyTotalAmount) */\n      tag_131\n        /* \"contracts/TimeMarket.sol\":6504:6513  _tradeMes */\n      0x06\n        /* \"contracts/TimeMarket.sol\":6504:6518  _tradeMes[_id] */\n      0x00\n        /* \"contracts/TimeMarket.sol\":6514:6517  _id */\n      dup8\n        /* \"contracts/TimeMarket.sol\":6504:6518  _tradeMes[_id] */\n      0xffffffffffffffff\n      and\n      0xffffffffffffffff\n      and\n      dup2\n      mstore\n      0x20\n      add\n      swap1\n      dup2\n      mstore\n      0x20\n      add\n      0x00\n      keccak256\n        /* \"contracts/TimeMarket.sol\":6504:6527  _tradeMes[_id].buyPrice */\n      0x01\n      add\n      0x00\n      swap1\n      sload\n      swap1\n      0x0100\n      exp\n      swap1\n      div\n      0xffffffffffffffffffffffffffffffff\n      and\n        /* \"contracts/TimeMarket.sol\":6528:6537  _tradeMes */\n      0x06\n        /* \"contracts/TimeMarket.sol\":6528:6542  _tradeMes[_id] */\n      0x00\n        /* \"contracts/TimeMarket.sol\":6538:6541  _id */\n      dup9\n        /* \"contracts/TimeMarket.sol\":6528:6542  _tradeMes[_id] */\n      0xffffffffffffffff\n      and\n      0xffffffffffffffff\n      and\n      dup2\n      mstore\n      0x20\n      add\n      swap1\n      dup2\n      mstore\n      0x20\n      add\n      0x00\n      keccak256\n        /* \"contracts/TimeMarket.sol\":6528:6557  _tradeMes[_id].buyTotalAmount */\n      0x00\n      add\n      0x10\n      swap1\n      sload\n      swap1\n      0x0100\n      exp\n      swap1\n      div\n      0xffffffffffffffffffffffffffffffff\n      and\n        /* \"contracts/TimeMarket.sol\":6495:6503  getPenal */\n      tag_47\n        /* \"contracts/TimeMarket.sol\":6495:6558  getPenal(_tradeMes[_id].buyPrice,_tradeMes[_id].buyTotalAmount) */\n      jump\t// in\n    tag_131:\n        /* \"contracts/TimeMarket.sol\":6472:6558  uint256 penalSumAmount=getPenal(_tradeMes[_id].buyPrice,_tradeMes[_id].buyTotalAmount) */\n      swap1\n      pop\n        /* \"contracts/TimeMarket.sol\":6569:6580  uint256 fee */\n      0x00\n        /* \"contracts/TimeMarket.sol\":6581:6599  TimeFee.fee(total) */\n      tag_132\n        /* \"contracts/TimeMarket.sol\":6593:6598  total */\n      dup4\n        /* \"contracts/TimeMarket.sol\":6581:6592  TimeFee.fee */\n      tag_107\n        /* \"contracts/TimeMarket.sol\":6581:6599  TimeFee.fee(total) */\n      jump\t// in\n    tag_132:\n        /* \"contracts/TimeMarket.sol\":6569:6599  uint256 fee=TimeFee.fee(total) */\n      swap1\n      pop\n        /* \"contracts/TimeMarket.sol\":6652:6710  IERC20(promiseStableToken).safeTransfer(address(this),fee) */\n      tag_133\n        /* \"contracts/TimeMarket.sol\":6700:6704  this */\n      address\n        /* \"contracts/TimeMarket.sol\":6706:6709  fee */\n      dup3\n        /* \"contracts/TimeMarket.sol\":6659:6677  promiseStableToken */\n      dup7\n        /* \"contracts/TimeMarket.sol\":6652:6691  IERC20(promiseStableToken).safeTransfer */\n      0xffffffffffffffffffffffffffffffffffffffff\n      and\n      tag_109\n      swap1\n        /* \"contracts/TimeMarket.sol\":6652:6710  IERC20(promiseStableToken).safeTransfer(address(this),fee) */\n      swap3\n      swap2\n      swap1\n      0xffffffff\n      and\n      jump\t// in\n    tag_133:\n        /* \"contracts/TimeMarket.sol\":6751:6846  IERC20(promiseStableToken).safeTransfer(... */\n      tag_134\n        /* \"contracts/TimeMarket.sol\":6805:6811  solder */\n      dup6\n        /* \"contracts/TimeMarket.sol\":6832:6835  fee */\n      dup3\n        /* \"contracts/TimeMarket.sol\":6826:6831  total */\n      dup6\n        /* \"contracts/TimeMarket.sol\":6826:6835  total-fee */\n      tag_135\n      swap2\n      swap1\n      tag_112\n      jump\t// in\n    tag_135:\n        /* \"contracts/TimeMarket.sol\":6758:6776  promiseStableToken */\n      dup7\n        /* \"contracts/TimeMarket.sol\":6751:6790  IERC20(promiseStableToken).safeTransfer */\n      0xffffffffffffffffffffffffffffffffffffffff\n      and\n      tag_109\n      swap1\n        /* \"contracts/TimeMarket.sol\":6751:6846  IERC20(promiseStableToken).safeTransfer(... */\n      swap3\n      swap2\n      swap1\n      0xffffffff\n      and\n      jump\t// in\n    tag_134:\n        /* \"contracts/TimeMarket.sol\":6905:7005  IERC20(promiseStableToken).safeTransfer(... */\n      tag_136\n        /* \"contracts/TimeMarket.sol\":6959:6965  solder */\n      dup6\n        /* \"contracts/TimeMarket.sol\":6980:6994  penalSumAmount */\n      dup4\n        /* \"contracts/TimeMarket.sol\":6912:6930  promiseStableToken */\n      dup7\n        /* \"contracts/TimeMarket.sol\":6905:6944  IERC20(promiseStableToken).safeTransfer */\n      0xffffffffffffffffffffffffffffffffffffffff\n      and\n      tag_109\n      swap1\n        /* \"contracts/TimeMarket.sol\":6905:7005  IERC20(promiseStableToken).safeTransfer(... */\n      swap3\n      swap2\n      swap1\n      0xffffffff\n      and\n      jump\t// in\n    tag_136:\n        /* \"contracts/TimeMarket.sol\":7086:7090  true */\n      0x01\n        /* \"contracts/TimeMarket.sol\":7053:7068  userIfWithdraw2 */\n      0x09\n        /* \"contracts/TimeMarket.sol\":7053:7080  userIfWithdraw2[msg.sender] */\n      0x00\n        /* \"contracts/TimeMarket.sol\":7069:7079  msg.sender */\n      caller\n        /* \"contracts/TimeMarket.sol\":7053:7080  userIfWithdraw2[msg.sender] */\n      0xffffffffffffffffffffffffffffffffffffffff\n      and\n      0xffffffffffffffffffffffffffffffffffffffff\n      and\n      dup2\n      mstore\n      0x20\n      add\n      swap1\n      dup2\n      mstore\n      0x20\n      add\n      0x00\n      keccak256\n        /* \"contracts/TimeMarket.sol\":7053:7085  userIfWithdraw2[msg.sender][_id] */\n      0x00\n        /* \"contracts/TimeMarket.sol\":7081:7084  _id */\n      dup9\n        /* \"contracts/TimeMarket.sol\":7053:7085  userIfWithdraw2[msg.sender][_id] */\n      0xffffffffffffffff\n      and\n      dup2\n      mstore\n      0x20\n      add\n      swap1\n      dup2\n      mstore\n      0x20\n      add\n      0x00\n      keccak256\n      0x00\n        /* \"contracts/TimeMarket.sol\":7053:7090  userIfWithdraw2[msg.sender][_id]=true */\n      0x0100\n      exp\n      dup2\n      sload\n      dup2\n      0xff\n      mul\n      not\n      and\n      swap1\n      dup4\n      iszero\n      iszero\n      mul\n      or\n      swap1\n      sstore\n      pop\n        /* \"contracts/TimeMarket.sol\":6011:7099  {... */\n      pop\n      pop\n      pop\n      pop\n      pop\n        /* \"contracts/TimeMarket.sol\":5962:7099  function solderWithdrawStable(uint64 _id)external{... */\n      pop\n      jump\t// out\n        /* \"contracts/TimeMarket.sol\":9467:10010  function getPenal(uint128 _soldPrice, uint128 _soldAmount)public pure returns (uint256){... */\n    tag_47:\n        /* \"contracts/TimeMarket.sol\":9546:9553  uint256 */\n      0x00\n        /* \"contracts/TimeMarket.sol\":9565:9583  uint256 thisAmount */\n      dup1\n        /* \"contracts/TimeMarket.sol\":9597:9608  _soldAmount */\n      dup3\n        /* \"contracts/TimeMarket.sol\":9586:9596  _soldPrice */\n      dup5\n        /* \"contracts/TimeMarket.sol\":9586:9608  _soldPrice*_soldAmount */\n      tag_138\n      swap2\n      swap1\n      tag_74\n      jump\t// in\n    tag_138:\n        /* \"contracts/TimeMarket.sol\":9565:9608  uint256 thisAmount = _soldPrice*_soldAmount */\n      0xffffffffffffffffffffffffffffffff\n      and\n      swap1\n      pop\n        /* \"contracts/TimeMarket.sol\":9637:9646  100 ether */\n      0x056bc75e2d63100000\n        /* \"contracts/TimeMarket.sol\":9623:9633  thisAmount */\n      dup2\n        /* \"contracts/TimeMarket.sol\":9623:9646  thisAmount >= 100 ether */\n      lt\n      iszero\n        /* \"contracts/TimeMarket.sol\":9623:9673  thisAmount >= 100 ether && thisAmount < 1000 ether */\n      dup1\n      iszero\n      tag_139\n      jumpi\n      pop\n        /* \"contracts/TimeMarket.sol\":9663:9673  1000 ether */\n      0x3635c9adc5dea00000\n        /* \"contracts/TimeMarket.sol\":9650:9660  thisAmount */\n      dup2\n        /* \"contracts/TimeMarket.sol\":9650:9673  thisAmount < 1000 ether */\n      lt\n        /* \"contracts/TimeMarket.sol\":9623:9673  thisAmount >= 100 ether && thisAmount < 1000 ether */\n    tag_139:\n        /* \"contracts/TimeMarket.sol\":9619:10003  if (thisAmount >= 100 ether && thisAmount < 1000 ether) {... */\n      iszero\n      tag_140\n      jumpi\n        /* \"contracts/TimeMarket.sol\":9717:9720  100 */\n      0x64\n        /* \"contracts/TimeMarket.sol\":9711:9713  50 */\n      0x32\n        /* \"contracts/TimeMarket.sol\":9698:9708  thisAmount */\n      dup3\n        /* \"contracts/TimeMarket.sol\":9698:9713  thisAmount * 50 */\n      tag_141\n      swap2\n      swap1\n      tag_142\n      jump\t// in\n    tag_141:\n        /* \"contracts/TimeMarket.sol\":9697:9720  (thisAmount * 50) / 100 */\n      tag_143\n      swap2\n      swap1\n      tag_144\n      jump\t// in\n    tag_143:\n        /* \"contracts/TimeMarket.sol\":9690:9720  return (thisAmount * 50) / 100 */\n      swap2\n      pop\n      pop\n      jump(tag_137)\n        /* \"contracts/TimeMarket.sol\":9619:10003  if (thisAmount >= 100 ether && thisAmount < 1000 ether) {... */\n    tag_140:\n        /* \"contracts/TimeMarket.sol\":9756:9766  1000 ether */\n      0x3635c9adc5dea00000\n        /* \"contracts/TimeMarket.sol\":9742:9752  thisAmount */\n      dup2\n        /* \"contracts/TimeMarket.sol\":9742:9766  thisAmount >= 1000 ether */\n      lt\n      iszero\n        /* \"contracts/TimeMarket.sol\":9742:9794  thisAmount >= 1000 ether && thisAmount < 10000 ether */\n      dup1\n      iszero\n      tag_146\n      jumpi\n      pop\n        /* \"contracts/TimeMarket.sol\":9783:9794  10000 ether */\n      0x021e19e0c9bab2400000\n        /* \"contracts/TimeMarket.sol\":9770:9780  thisAmount */\n      dup2\n        /* \"contracts/TimeMarket.sol\":9770:9794  thisAmount < 10000 ether */\n      lt\n        /* \"contracts/TimeMarket.sol\":9742:9794  thisAmount >= 1000 ether && thisAmount < 10000 ether */\n    tag_146:\n        /* \"contracts/TimeMarket.sol\":9738:10003  if (thisAmount >= 1000 ether && thisAmount < 10000 ether) {... */\n      iszero\n      tag_147\n      jumpi\n        /* \"contracts/TimeMarket.sol\":9838:9841  100 */\n      0x64\n        /* \"contracts/TimeMarket.sol\":9832:9834  40 */\n      0x28\n        /* \"contracts/TimeMarket.sol\":9819:9829  thisAmount */\n      dup3\n        /* \"contracts/TimeMarket.sol\":9819:9834  thisAmount * 40 */\n      tag_148\n      swap2\n      swap1\n      tag_142\n      jump\t// in\n    tag_148:\n        /* \"contracts/TimeMarket.sol\":9818:9841  (thisAmount * 40) / 100 */\n      tag_149\n      swap2\n      swap1\n      tag_144\n      jump\t// in\n    tag_149:\n        /* \"contracts/TimeMarket.sol\":9811:9841  return (thisAmount * 40) / 100 */\n      swap2\n      pop\n      pop\n      jump(tag_137)\n        /* \"contracts/TimeMarket.sol\":9738:10003  if (thisAmount >= 1000 ether && thisAmount < 10000 ether) {... */\n    tag_147:\n        /* \"contracts/TimeMarket.sol\":9876:9887  10000 ether */\n      0x021e19e0c9bab2400000\n        /* \"contracts/TimeMarket.sol\":9863:9873  thisAmount */\n      dup2\n        /* \"contracts/TimeMarket.sol\":9863:9887  thisAmount > 10000 ether */\n      gt\n        /* \"contracts/TimeMarket.sol\":9859:10003  if (thisAmount > 10000 ether) {... */\n      iszero\n      tag_151\n      jumpi\n        /* \"contracts/TimeMarket.sol\":9931:9934  100 */\n      0x64\n        /* \"contracts/TimeMarket.sol\":9925:9927  25 */\n      0x19\n        /* \"contracts/TimeMarket.sol\":9912:9922  thisAmount */\n      dup3\n        /* \"contracts/TimeMarket.sol\":9912:9927  thisAmount * 25 */\n      tag_152\n      swap2\n      swap1\n      tag_142\n      jump\t// in\n    tag_152:\n        /* \"contracts/TimeMarket.sol\":9911:9934  (thisAmount * 25) / 100 */\n      tag_153\n      swap2\n      swap1\n      tag_144\n      jump\t// in\n    tag_153:\n        /* \"contracts/TimeMarket.sol\":9904:9934  return (thisAmount * 25) / 100 */\n      swap2\n      pop\n      pop\n      jump(tag_137)\n        /* \"contracts/TimeMarket.sol\":9859:10003  if (thisAmount > 10000 ether) {... */\n    tag_151:\n        /* \"contracts/TimeMarket.sol\":9974:9991  NotEnoughAmount() */\n      mload(0x40)\n      0xe008b5f900000000000000000000000000000000000000000000000000000000\n      dup2\n      mstore\n      0x04\n      add\n      mload(0x40)\n      dup1\n      swap2\n      sub\n      swap1\n      revert\n        /* \"contracts/TimeMarket.sol\":9467:10010  function getPenal(uint128 _soldPrice, uint128 _soldAmount)public pure returns (uint256){... */\n    tag_137:\n      swap3\n      swap2\n      pop\n      pop\n      jump\t// out\n        /* \"contracts/TimeMarket.sol\":1630:1694  mapping(address => mapping(uint256=>bool))public userIfWithdraw3 */\n    tag_52:\n      mstore(0x20, 0x0a)\n      dup2\n      0x00\n      mstore\n      mstore(0x20, keccak256(0x00, 0x40))\n      dup1\n      0x00\n      mstore\n      keccak256(0x00, 0x40)\n      0x00\n      swap2\n      pop\n      swap2\n      pop\n      swap1\n      sload\n      swap1\n      0x0100\n      exp\n      swap1\n      div\n      0xff\n      and\n      dup2\n      jump\t// out\n        /* \"contracts/TimeMarket.sol\":5149:5909  function buyerWithdrawAirdorp(uint64 _id)external{... */\n    tag_56:\n        /* \"contracts/TimeMarket.sol\":5209:5222  address buyer */\n      0x00\n        /* \"contracts/TimeMarket.sol\":5223:5236  getBuyer(_id) */\n      tag_156\n        /* \"contracts/TimeMarket.sol\":5232:5235  _id */\n      dup3\n        /* \"contracts/TimeMarket.sol\":5223:5231  getBuyer */\n      tag_99\n        /* \"contracts/TimeMarket.sol\":5223:5236  getBuyer(_id) */\n      jump\t// in\n    tag_156:\n        /* \"contracts/TimeMarket.sol\":5209:5236  address buyer=getBuyer(_id) */\n      swap1\n      pop\n        /* \"contracts/TimeMarket.sol\":5295:5300  buyer */\n      dup1\n        /* \"contracts/TimeMarket.sol\":5283:5300  msg.sender!=buyer */\n      0xffffffffffffffffffffffffffffffffffffffff\n      and\n        /* \"contracts/TimeMarket.sol\":5283:5293  msg.sender */\n      caller\n        /* \"contracts/TimeMarket.sol\":5283:5300  msg.sender!=buyer */\n      0xffffffffffffffffffffffffffffffffffffffff\n      and\n      eq\n        /* \"contracts/TimeMarket.sol\":5280:5321  if(msg.sender!=buyer){revert NotBuyer();} */\n      tag_157\n      jumpi\n        /* \"contracts/TimeMarket.sol\":5309:5319  NotBuyer() */\n      mload(0x40)\n      0x472e017e00000000000000000000000000000000000000000000000000000000\n      dup2\n      mstore\n      0x04\n      add\n      mload(0x40)\n      dup1\n      swap2\n      sub\n      swap1\n      revert\n        /* \"contracts/TimeMarket.sol\":5280:5321  if(msg.sender!=buyer){revert NotBuyer();} */\n    tag_157:\n        /* \"contracts/TimeMarket.sol\":5424:5425  3 */\n      0x03\n        /* \"contracts/TimeMarket.sol\":5397:5406  _tradeMes */\n      0x06\n        /* \"contracts/TimeMarket.sol\":5397:5411  _tradeMes[_id] */\n      0x00\n        /* \"contracts/TimeMarket.sol\":5407:5410  _id */\n      dup5\n        /* \"contracts/TimeMarket.sol\":5397:5411  _tradeMes[_id] */\n      0xffffffffffffffff\n      and\n      0xffffffffffffffff\n      and\n      dup2\n      mstore\n      0x20\n      add\n      swap1\n      dup2\n      mstore\n      0x20\n      add\n      0x00\n      keccak256\n        /* \"contracts/TimeMarket.sol\":5397:5422  _tradeMes[_id].tradeState */\n      0x00\n      add\n      0x00\n      swap1\n      sload\n      swap1\n      0x0100\n      exp\n      swap1\n      div\n      0xff\n      and\n        /* \"contracts/TimeMarket.sol\":5397:5425  _tradeMes[_id].tradeState!=3 */\n      0xff\n      and\n      eq\n        /* \"contracts/TimeMarket.sol\":5394:5452  if(_tradeMes[_id].tradeState!=3){revert NotInjectToken();} */\n      tag_158\n      jumpi\n        /* \"contracts/TimeMarket.sol\":5434:5450  NotInjectToken() */\n      mload(0x40)\n      0xde4461cd00000000000000000000000000000000000000000000000000000000\n      dup2\n      mstore\n      0x04\n      add\n      mload(0x40)\n      dup1\n      swap2\n      sub\n      swap1\n      revert\n        /* \"contracts/TimeMarket.sol\":5394:5452  if(_tradeMes[_id].tradeState!=3){revert NotInjectToken();} */\n    tag_158:\n        /* \"contracts/TimeMarket.sol\":5463:5480  uint128 buyAmount */\n      0x00\n        /* \"contracts/TimeMarket.sol\":5481:5490  _tradeMes */\n      0x06\n        /* \"contracts/TimeMarket.sol\":5481:5495  _tradeMes[_id] */\n      0x00\n        /* \"contracts/TimeMarket.sol\":5491:5494  _id */\n      dup5\n        /* \"contracts/TimeMarket.sol\":5481:5495  _tradeMes[_id] */\n      0xffffffffffffffff\n      and\n      0xffffffffffffffff\n      and\n      dup2\n      mstore\n      0x20\n      add\n      swap1\n      dup2\n      mstore\n      0x20\n      add\n      0x00\n      keccak256\n        /* \"contracts/TimeMarket.sol\":5481:5510  _tradeMes[_id].buyTotalAmount */\n      0x00\n      add\n      0x10\n      swap1\n      sload\n      swap1\n      0x0100\n      exp\n      swap1\n      div\n      0xffffffffffffffffffffffffffffffff\n      and\n        /* \"contracts/TimeMarket.sol\":5463:5510  uint128 buyAmount=_tradeMes[_id].buyTotalAmount */\n      swap1\n      pop\n        /* \"contracts/TimeMarket.sol\":5521:5539  uint128 buyerPrice */\n      0x00\n        /* \"contracts/TimeMarket.sol\":5540:5549  _tradeMes */\n      0x06\n        /* \"contracts/TimeMarket.sol\":5540:5554  _tradeMes[_id] */\n      0x00\n        /* \"contracts/TimeMarket.sol\":5550:5553  _id */\n      dup6\n        /* \"contracts/TimeMarket.sol\":5540:5554  _tradeMes[_id] */\n      0xffffffffffffffff\n      and\n      0xffffffffffffffff\n      and\n      dup2\n      mstore\n      0x20\n      add\n      swap1\n      dup2\n      mstore\n      0x20\n      add\n      0x00\n      keccak256\n        /* \"contracts/TimeMarket.sol\":5540:5563  _tradeMes[_id].buyPrice */\n      0x01\n      add\n      0x00\n      swap1\n      sload\n      swap1\n      0x0100\n      exp\n      swap1\n      div\n      0xffffffffffffffffffffffffffffffff\n      and\n        /* \"contracts/TimeMarket.sol\":5521:5563  uint128 buyerPrice=_tradeMes[_id].buyPrice */\n      swap1\n      pop\n        /* \"contracts/TimeMarket.sol\":5618:5629  uint256 fee */\n      0x00\n        /* \"contracts/TimeMarket.sol\":5630:5663  TimeFee.fee(buyAmount*buyerPrice) */\n      tag_159\n        /* \"contracts/TimeMarket.sol\":5652:5662  buyerPrice */\n      dup3\n        /* \"contracts/TimeMarket.sol\":5642:5651  buyAmount */\n      dup5\n        /* \"contracts/TimeMarket.sol\":5642:5662  buyAmount*buyerPrice */\n      tag_160\n      swap2\n      swap1\n      tag_74\n      jump\t// in\n    tag_160:\n        /* \"contracts/TimeMarket.sol\":5630:5663  TimeFee.fee(buyAmount*buyerPrice) */\n      0xffffffffffffffffffffffffffffffff\n      and\n        /* \"contracts/TimeMarket.sol\":5630:5641  TimeFee.fee */\n      tag_107\n        /* \"contracts/TimeMarket.sol\":5630:5663  TimeFee.fee(buyAmount*buyerPrice) */\n      jump\t// in\n    tag_159:\n        /* \"contracts/TimeMarket.sol\":5618:5663  uint256 fee=TimeFee.fee(buyAmount*buyerPrice) */\n      swap1\n      pop\n        /* \"contracts/TimeMarket.sol\":5716:5768  IERC20(airdropToken).safeTransfer(address(this),fee) */\n      tag_161\n        /* \"contracts/TimeMarket.sol\":5758:5762  this */\n      address\n        /* \"contracts/TimeMarket.sol\":5764:5767  fee */\n      dup3\n        /* \"contracts/TimeMarket.sol\":5723:5735  airdropToken */\n      0x01\n      0x00\n      swap1\n      sload\n      swap1\n      0x0100\n      exp\n      swap1\n      div\n      0xffffffffffffffffffffffffffffffffffffffff\n      and\n        /* \"contracts/TimeMarket.sol\":5716:5749  IERC20(airdropToken).safeTransfer */\n      0xffffffffffffffffffffffffffffffffffffffff\n      and\n      tag_109\n      swap1\n        /* \"contracts/TimeMarket.sol\":5716:5768  IERC20(airdropToken).safeTransfer(address(this),fee) */\n      swap3\n      swap2\n      swap1\n      0xffffffff\n      and\n      jump\t// in\n    tag_161:\n        /* \"contracts/TimeMarket.sol\":5809:5863  IERC20(airdropToken).safeTransfer(buyer,buyAmount-fee) */\n      tag_162\n        /* \"contracts/TimeMarket.sol\":5843:5848  buyer */\n      dup5\n        /* \"contracts/TimeMarket.sol\":5859:5862  fee */\n      dup3\n        /* \"contracts/TimeMarket.sol\":5849:5858  buyAmount */\n      dup6\n        /* \"contracts/TimeMarket.sol\":5849:5862  buyAmount-fee */\n      0xffffffffffffffffffffffffffffffff\n      and\n      tag_163\n      swap2\n      swap1\n      tag_112\n      jump\t// in\n    tag_163:\n        /* \"contracts/TimeMarket.sol\":5816:5828  airdropToken */\n      0x01\n      0x00\n      swap1\n      sload\n      swap1\n      0x0100\n      exp\n      swap1\n      div\n      0xffffffffffffffffffffffffffffffffffffffff\n      and\n        /* \"contracts/TimeMarket.sol\":5809:5842  IERC20(airdropToken).safeTransfer */\n      0xffffffffffffffffffffffffffffffffffffffff\n      and\n      tag_109\n      swap1\n        /* \"contracts/TimeMarket.sol\":5809:5863  IERC20(airdropToken).safeTransfer(buyer,buyAmount-fee) */\n      swap3\n      swap2\n      swap1\n      0xffffffff\n      and\n      jump\t// in\n    tag_162:\n        /* \"contracts/TimeMarket.sol\":5900:5901  4 */\n      0x04\n        /* \"contracts/TimeMarket.sol\":5874:5883  _tradeMes */\n      0x06\n        /* \"contracts/TimeMarket.sol\":5874:5888  _tradeMes[_id] */\n      0x00\n        /* \"contracts/TimeMarket.sol\":5884:5887  _id */\n      dup8\n        /* \"contracts/TimeMarket.sol\":5874:5888  _tradeMes[_id] */\n      0xffffffffffffffff\n      and\n      0xffffffffffffffff\n      and\n      dup2\n      mstore\n      0x20\n      add\n      swap1\n      dup2\n      mstore\n      0x20\n      add\n      0x00\n      keccak256\n        /* \"contracts/TimeMarket.sol\":5874:5899  _tradeMes[_id].tradeState */\n      0x00\n      add\n      0x00\n        /* \"contracts/TimeMarket.sol\":5874:5901  _tradeMes[_id].tradeState=4 */\n      0x0100\n      exp\n      dup2\n      sload\n      dup2\n      0xff\n      mul\n      not\n      and\n      swap1\n      dup4\n      0xff\n      and\n      mul\n      or\n      swap1\n      sstore\n      pop\n        /* \"contracts/TimeMarket.sol\":5198:5909  {... */\n      pop\n      pop\n      pop\n      pop\n        /* \"contracts/TimeMarket.sol\":5149:5909  function buyerWithdrawAirdorp(uint64 _id)external{... */\n      pop\n      jump\t// out\n        /* \"contracts/TimeMarket.sol\":8682:8731  function profileEarn(uint64 _id)public {... */\n    tag_59:\n      pop\n      jump\t// out\n        /* \"contracts/TimeMarket.sol\":3125:4405  function Sale(uint64 _id,address token1) external {... */\n    tag_63:\n        /* \"contracts/TimeMarket.sol\":3186:3213  tradeMes memory maxTradeMes */\n      0x00\n        /* \"contracts/TimeMarket.sol\":3214:3223  _tradeMes */\n      0x06\n        /* \"contracts/TimeMarket.sol\":3214:3228  _tradeMes[_id] */\n      0x00\n        /* \"contracts/TimeMarket.sol\":3224:3227  _id */\n      dup5\n        /* \"contracts/TimeMarket.sol\":3214:3228  _tradeMes[_id] */\n      0xffffffffffffffff\n      and\n      0xffffffffffffffff\n      and\n      dup2\n      mstore\n      0x20\n      add\n      swap1\n      dup2\n      mstore\n      0x20\n      add\n      0x00\n      keccak256\n        /* \"contracts/TimeMarket.sol\":3186:3228  tradeMes memory maxTradeMes=_tradeMes[_id] */\n      mload(0x40)\n      dup1\n      0x0100\n      add\n      0x40\n      mstore\n      swap1\n      dup2\n      0x00\n      dup3\n      add\n      0x00\n      swap1\n      sload\n      swap1\n      0x0100\n      exp\n      swap1\n      div\n      0xff\n      and\n      0xff\n      and\n      0xff\n      and\n      dup2\n      mstore\n      0x20\n      add\n      0x00\n      dup3\n      add\n      0x01\n      swap1\n      sload\n      swap1\n      0x0100\n      exp\n      swap1\n      div\n      0xffffffffffffffff\n      and\n      0xffffffffffffffff\n      and\n      0xffffffffffffffff\n      and\n      dup2\n      mstore\n      0x20\n      add\n      0x00\n      dup3\n      add\n      0x09\n      swap1\n      sload\n      swap1\n      0x0100\n      exp\n      swap1\n      div\n      0xffffffffffffff\n      and\n      0xffffffffffffff\n      and\n      0xffffffffffffff\n      and\n      dup2\n      mstore\n      0x20\n      add\n      0x00\n      dup3\n      add\n      0x10\n      swap1\n      sload\n      swap1\n      0x0100\n      exp\n      swap1\n      div\n      0xffffffffffffffffffffffffffffffff\n      and\n      0xffffffffffffffffffffffffffffffff\n      and\n      0xffffffffffffffffffffffffffffffff\n      and\n      dup2\n      mstore\n      0x20\n      add\n      0x01\n      dup3\n      add\n      0x00\n      swap1\n      sload\n      swap1\n      0x0100\n      exp\n      swap1\n      div\n      0xffffffffffffffffffffffffffffffff\n      and\n      0xffffffffffffffffffffffffffffffff\n      and\n      0xffffffffffffffffffffffffffffffff\n      and\n      dup2\n      mstore\n      0x20\n      add\n      0x02\n      dup3\n      add\n      0x00\n      swap1\n      sload\n      swap1\n      0x0100\n      exp\n      swap1\n      div\n      0xffffffffffffffffffffffffffffffffffffffff\n      and\n      0xffffffffffffffffffffffffffffffffffffffff\n      and\n      0xffffffffffffffffffffffffffffffffffffffff\n      and\n      dup2\n      mstore\n      0x20\n      add\n      0x03\n      dup3\n      add\n      0x00\n      swap1\n      sload\n      swap1\n      0x0100\n      exp\n      swap1\n      div\n      0xffffffffffffffffffffffffffffffffffffffff\n      and\n      0xffffffffffffffffffffffffffffffffffffffff\n      and\n      0xffffffffffffffffffffffffffffffffffffffff\n      and\n      dup2\n      mstore\n      0x20\n      add\n      0x04\n      dup3\n      add\n      0x00\n      swap1\n      sload\n      swap1\n      0x0100\n      exp\n      swap1\n      div\n      0xffffffffffffffffffffffffffffffffffffffff\n      and\n      0xffffffffffffffffffffffffffffffffffffffff\n      and\n      0xffffffffffffffffffffffffffffffffffffffff\n      and\n      dup2\n      mstore\n      pop\n      pop\n      swap1\n      pop\n        /* \"contracts/TimeMarket.sol\":3271:3272  1 */\n      0x01\n        /* \"contracts/TimeMarket.sol\":3247:3258  maxTradeMes */\n      dup2\n        /* \"contracts/TimeMarket.sol\":3247:3269  maxTradeMes.tradeState */\n      0x00\n      add\n      mload\n        /* \"contracts/TimeMarket.sol\":3247:3272  maxTradeMes.tradeState==1 */\n      0xff\n      and\n      eq\n        /* \"contracts/TimeMarket.sol\":3239:3273  require(maxTradeMes.tradeState==1) */\n      tag_166\n      jumpi\n      0x00\n      dup1\n      revert\n    tag_166:\n        /* \"contracts/TimeMarket.sol\":3312:3338  address promiseStableToken */\n      0x00\n        /* \"contracts/TimeMarket.sol\":3339:3350  maxTradeMes */\n      dup2\n        /* \"contracts/TimeMarket.sol\":3339:3363  maxTradeMes.tokenAddress */\n      0xa0\n      add\n      mload\n        /* \"contracts/TimeMarket.sol\":3312:3363  address promiseStableToken=maxTradeMes.tokenAddress */\n      swap1\n      pop\n        /* \"contracts/TimeMarket.sol\":3456:3472  address thisPool */\n      0x00\n        /* \"contracts/TimeMarket.sol\":3473:3519  getPoolAddress(promiseStableToken,token1,1000) */\n      tag_167\n        /* \"contracts/TimeMarket.sol\":3488:3506  promiseStableToken */\n      dup3\n        /* \"contracts/TimeMarket.sol\":3507:3513  token1 */\n      dup6\n        /* \"contracts/TimeMarket.sol\":3514:3518  1000 */\n      0x03e8\n        /* \"contracts/TimeMarket.sol\":3473:3487  getPoolAddress */\n      tag_38\n        /* \"contracts/TimeMarket.sol\":3473:3519  getPoolAddress(promiseStableToken,token1,1000) */\n      jump\t// in\n    tag_167:\n        /* \"contracts/TimeMarket.sol\":3456:3519  address thisPool=getPoolAddress(promiseStableToken,token1,1000) */\n      swap1\n      pop\n        /* \"contracts/TimeMarket.sol\":3530:3546  uint penalAmount */\n      0x00\n        /* \"contracts/TimeMarket.sol\":3547:3605  getPenal(maxTradeMes.buyPrice, maxTradeMes.buyTotalAmount) */\n      tag_168\n        /* \"contracts/TimeMarket.sol\":3556:3567  maxTradeMes */\n      dup5\n        /* \"contracts/TimeMarket.sol\":3556:3576  maxTradeMes.buyPrice */\n      0x80\n      add\n      mload\n        /* \"contracts/TimeMarket.sol\":3578:3589  maxTradeMes */\n      dup6\n        /* \"contracts/TimeMarket.sol\":3578:3604  maxTradeMes.buyTotalAmount */\n      0x60\n      add\n      mload\n        /* \"contracts/TimeMarket.sol\":3547:3555  getPenal */\n      tag_47\n        /* \"contracts/TimeMarket.sol\":3547:3605  getPenal(maxTradeMes.buyPrice, maxTradeMes.buyTotalAmount) */\n      jump\t// in\n    tag_168:\n        /* \"contracts/TimeMarket.sol\":3530:3605  uint penalAmount=getPenal(maxTradeMes.buyPrice, maxTradeMes.buyTotalAmount) */\n      swap1\n      pop\n        /* \"contracts/TimeMarket.sol\":3643:3776  IERC20(promiseStableToken).safeTransferFrom(... */\n      tag_169\n        /* \"contracts/TimeMarket.sol\":3701:3711  msg.sender */\n      caller\n        /* \"contracts/TimeMarket.sol\":3734:3738  this */\n      address\n        /* \"contracts/TimeMarket.sol\":3754:3765  penalAmount */\n      dup4\n        /* \"contracts/TimeMarket.sol\":3650:3668  promiseStableToken */\n      dup7\n        /* \"contracts/TimeMarket.sol\":3643:3686  IERC20(promiseStableToken).safeTransferFrom */\n      0xffffffffffffffffffffffffffffffffffffffff\n      and\n      tag_78\n      swap1\n        /* \"contracts/TimeMarket.sol\":3643:3776  IERC20(promiseStableToken).safeTransferFrom(... */\n      swap4\n      swap3\n      swap2\n      swap1\n      0xffffffff\n      and\n      jump\t// in\n    tag_169:\n        /* \"contracts/TimeMarket.sol\":3851:3911  IERC20(promiseStableToken).safeApprove(thisPool,penalAmount) */\n      tag_170\n        /* \"contracts/TimeMarket.sol\":3890:3898  thisPool */\n      dup3\n        /* \"contracts/TimeMarket.sol\":3899:3910  penalAmount */\n      dup3\n        /* \"contracts/TimeMarket.sol\":3858:3876  promiseStableToken */\n      dup6\n        /* \"contracts/TimeMarket.sol\":3851:3889  IERC20(promiseStableToken).safeApprove */\n      0xffffffffffffffffffffffffffffffffffffffff\n      and\n      tag_80\n      swap1\n        /* \"contracts/TimeMarket.sol\":3851:3911  IERC20(promiseStableToken).safeApprove(thisPool,penalAmount) */\n      swap3\n      swap2\n      swap1\n      0xffffffff\n      and\n      jump\t// in\n    tag_170:\n        /* \"contracts/TimeMarket.sol\":3922:4001  IERC20(promiseStableToken).safeTransferFrom(address(this),thisPool,penalAmount) */\n      tag_171\n        /* \"contracts/TimeMarket.sol\":3974:3978  this */\n      address\n        /* \"contracts/TimeMarket.sol\":3980:3988  thisPool */\n      dup4\n        /* \"contracts/TimeMarket.sol\":3989:4000  penalAmount */\n      dup4\n        /* \"contracts/TimeMarket.sol\":3929:3947  promiseStableToken */\n      dup7\n        /* \"contracts/TimeMarket.sol\":3922:3965  IERC20(promiseStableToken).safeTransferFrom */\n      0xffffffffffffffffffffffffffffffffffffffff\n      and\n      tag_78\n      swap1\n        /* \"contracts/TimeMarket.sol\":3922:4001  IERC20(promiseStableToken).safeTransferFrom(address(this),thisPool,penalAmount) */\n      swap4\n      swap3\n      swap2\n      swap1\n      0xffffffff\n      and\n      jump\t// in\n    tag_171:\n        /* \"contracts/TimeMarket.sol\":4031:4044  uniV2Router02 */\n      0x03\n      0x00\n      swap1\n      sload\n      swap1\n      0x0100\n      exp\n      swap1\n      div\n      0xffffffffffffffffffffffffffffffffffffffff\n      and\n        /* \"contracts/TimeMarket.sol\":4012:4058  IUniswapV2Router02(uniV2Router02).addLiquidity */\n      0xffffffffffffffffffffffffffffffffffffffff\n      and\n      0xe8e33700\n        /* \"contracts/TimeMarket.sol\":4073:4091  promiseStableToken */\n      dup5\n        /* \"contracts/TimeMarket.sol\":4106:4112  token1 */\n      dup8\n        /* \"contracts/TimeMarket.sol\":4127:4138  penalAmount */\n      dup5\n        /* \"contracts/TimeMarket.sol\":4153:4154  0 */\n      0x00\n        /* \"contracts/TimeMarket.sol\":4169:4173  1000 */\n      0x03e8\n        /* \"contracts/TimeMarket.sol\":4188:4189  0 */\n      0x00\n        /* \"contracts/TimeMarket.sol\":4212:4216  this */\n      address\n        /* \"contracts/TimeMarket.sol\":4248:4255  1 hours */\n      0x0e10\n        /* \"contracts/TimeMarket.sol\":4232:4247  block.timestamp */\n      timestamp\n        /* \"contracts/TimeMarket.sol\":4232:4255  block.timestamp+1 hours */\n      tag_172\n      swap2\n      swap1\n      tag_82\n      jump\t// in\n    tag_172:\n        /* \"contracts/TimeMarket.sol\":4012:4266  IUniswapV2Router02(uniV2Router02).addLiquidity(... */\n      mload(0x40)\n      dup10\n      0xffffffff\n      and\n      0xe0\n      shl\n      dup2\n      mstore\n      0x04\n      add\n      tag_173\n      swap9\n      swap8\n      swap7\n      swap6\n      swap5\n      swap4\n      swap3\n      swap2\n      swap1\n      tag_84\n      jump\t// in\n    tag_173:\n      0x60\n      mload(0x40)\n      dup1\n      dup4\n      sub\n      dup2\n      0x00\n      dup8\n      gas\n      call\n      iszero\n      dup1\n      iszero\n      tag_175\n      jumpi\n      returndatasize\n      0x00\n      dup1\n      returndatacopy\n      revert(0x00, returndatasize)\n    tag_175:\n      pop\n      pop\n      pop\n      pop\n      mload(0x40)\n      returndatasize\n      not(0x1f)\n      0x1f\n      dup3\n      add\n      and\n      dup3\n      add\n      dup1\n      0x40\n      mstore\n      pop\n      dup2\n      add\n      swap1\n      tag_176\n      swap2\n      swap1\n      tag_88\n      jump\t// in\n    tag_176:\n      pop\n      pop\n      pop\n        /* \"contracts/TimeMarket.sol\":4306:4316  msg.sender */\n      caller\n        /* \"contracts/TimeMarket.sol\":4277:4286  _tradeMes */\n      0x06\n        /* \"contracts/TimeMarket.sol\":4277:4291  _tradeMes[_id] */\n      0x00\n        /* \"contracts/TimeMarket.sol\":4287:4290  _id */\n      dup9\n        /* \"contracts/TimeMarket.sol\":4277:4291  _tradeMes[_id] */\n      0xffffffffffffffff\n      and\n      0xffffffffffffffff\n      and\n      dup2\n      mstore\n      0x20\n      add\n      swap1\n      dup2\n      mstore\n      0x20\n      add\n      0x00\n      keccak256\n        /* \"contracts/TimeMarket.sol\":4277:4305  _tradeMes[_id].solderAddress */\n      0x04\n      add\n      0x00\n        /* \"contracts/TimeMarket.sol\":4277:4316  _tradeMes[_id].solderAddress=msg.sender */\n      0x0100\n      exp\n      dup2\n      sload\n      dup2\n      0xffffffffffffffffffffffffffffffffffffffff\n      mul\n      not\n      and\n      swap1\n      dup4\n      0xffffffffffffffffffffffffffffffffffffffff\n      and\n      mul\n      or\n      swap1\n      sstore\n      pop\n        /* \"contracts/TimeMarket.sol\":4396:4397  2 */\n      0x02\n        /* \"contracts/TimeMarket.sol\":4370:4379  _tradeMes */\n      0x06\n        /* \"contracts/TimeMarket.sol\":4370:4384  _tradeMes[_id] */\n      0x00\n        /* \"contracts/TimeMarket.sol\":4380:4383  _id */\n      dup9\n        /* \"contracts/TimeMarket.sol\":4370:4384  _tradeMes[_id] */\n      0xffffffffffffffff\n      and\n      0xffffffffffffffff\n      and\n      dup2\n      mstore\n      0x20\n      add\n      swap1\n      dup2\n      mstore\n      0x20\n      add\n      0x00\n      keccak256\n        /* \"contracts/TimeMarket.sol\":4370:4395  _tradeMes[_id].tradeState */\n      0x00\n      add\n      0x00\n        /* \"contracts/TimeMarket.sol\":4370:4397  _tradeMes[_id].tradeState=2 */\n      0x0100\n      exp\n      dup2\n      sload\n      dup2\n      0xff\n      mul\n      not\n      and\n      swap1\n      dup4\n      0xff\n      and\n      mul\n      or\n      swap1\n      sstore\n      pop\n        /* \"contracts/TimeMarket.sol\":3175:4405  {... */\n      pop\n      pop\n      pop\n      pop\n        /* \"contracts/TimeMarket.sol\":3125:4405  function Sale(uint64 _id,address token1) external {... */\n      pop\n      pop\n      jump\t// out\n        /* \"contracts/TimeMarket.sol\":1506:1570  mapping(address => mapping(uint256=>bool))public userIfWithdraw2 */\n    tag_66:\n      mstore(0x20, 0x09)\n      dup2\n      0x00\n      mstore\n      mstore(0x20, keccak256(0x00, 0x40))\n      dup1\n      0x00\n      mstore\n      keccak256(0x00, 0x40)\n      0x00\n      swap2\n      pop\n      swap2\n      pop\n      swap1\n      sload\n      swap1\n      0x0100\n      exp\n      swap1\n      div\n      0xff\n      and\n      dup2\n      jump\t// out\n        /* \"contracts/TimeMarket.sol\":1741:1805  mapping(address => mapping(uint256=>bool))public userIfWithdraw4 */\n    tag_70:\n      mstore(0x20, 0x0b)\n      dup2\n      0x00\n      mstore\n      mstore(0x20, keccak256(0x00, 0x40))\n      dup1\n      0x00\n      mstore\n      keccak256(0x00, 0x40)\n      0x00\n      swap2\n      pop\n      swap2\n      pop\n      swap1\n      sload\n      swap1\n      0x0100\n      exp\n      swap1\n      div\n      0xff\n      and\n      dup2\n      jump\t// out\n        /* \"libraries/SafeERC20.sol\":1447:1652  function safeTransferFrom(IERC20 token, address from, address to, uint256 value) internal {... */\n    tag_78:\n        /* \"libraries/SafeERC20.sol\":1548:1644  _callOptionalReturn(token, abi.encodeWithSelector(token.transferFrom.selector, from, to, value)) */\n      tag_178\n        /* \"libraries/SafeERC20.sol\":1568:1573  token */\n      dup5\n        /* \"libraries/SafeERC20.sol\":1598:1625  token.transferFrom.selector */\n      shl(0xe0, 0x23b872dd)\n        /* \"libraries/SafeERC20.sol\":1627:1631  from */\n      dup6\n        /* \"libraries/SafeERC20.sol\":1633:1635  to */\n      dup6\n        /* \"libraries/SafeERC20.sol\":1637:1642  value */\n      dup6\n        /* \"libraries/SafeERC20.sol\":1575:1643  abi.encodeWithSelector(token.transferFrom.selector, from, to, value) */\n      add(0x24, mload(0x40))\n      tag_179\n      swap4\n      swap3\n      swap2\n      swap1\n      tag_180\n      jump\t// in\n    tag_179:\n      mload(0x40)\n      0x20\n      dup2\n      dup4\n      sub\n      sub\n      dup2\n      mstore\n      swap1\n      0x40\n      mstore\n      swap1\n      not(0xffffffffffffffffffffffffffffffffffffffffffffffffffffffff)\n      and\n      0x20\n      dup3\n      add\n      dup1\n      mload\n      0xffffffffffffffffffffffffffffffffffffffffffffffffffffffff\n      dup4\n      dup2\n      dup4\n      and\n      or\n      dup4\n      mstore\n      pop\n      pop\n      pop\n      pop\n        /* \"libraries/SafeERC20.sol\":1548:1567  _callOptionalReturn */\n      tag_181\n        /* \"libraries/SafeERC20.sol\":1548:1644  _callOptionalReturn(token, abi.encodeWithSelector(token.transferFrom.selector, from, to, value)) */\n      jump\t// in\n    tag_178:\n        /* \"libraries/SafeERC20.sol\":1447:1652  function safeTransferFrom(IERC20 token, address from, address to, uint256 value) internal {... */\n      pop\n      pop\n      pop\n      pop\n      jump\t// out\n        /* \"libraries/SafeERC20.sol\":1921:2503  function safeApprove(IERC20 token, address spender, uint256 value) internal {... */\n    tag_80:\n        /* \"libraries/SafeERC20.sol\":2260:2261  0 */\n      0x00\n        /* \"libraries/SafeERC20.sol\":2251:2256  value */\n      dup2\n        /* \"libraries/SafeERC20.sol\":2251:2261  value == 0 */\n      eq\n        /* \"libraries/SafeERC20.sol\":2250:2312  (value == 0) || (token.allowance(address(this), spender) == 0) */\n      dup1\n      tag_183\n      jumpi\n      pop\n        /* \"libraries/SafeERC20.sol\":2310:2311  0 */\n      0x00\n        /* \"libraries/SafeERC20.sol\":2267:2272  token */\n      dup4\n        /* \"libraries/SafeERC20.sol\":2267:2282  token.allowance */\n      0xffffffffffffffffffffffffffffffffffffffff\n      and\n      0xdd62ed3e\n        /* \"libraries/SafeERC20.sol\":2291:2295  this */\n      address\n        /* \"libraries/SafeERC20.sol\":2298:2305  spender */\n      dup6\n        /* \"libraries/SafeERC20.sol\":2267:2306  token.allowance(address(this), spender) */\n      mload(0x40)\n      dup4\n      0xffffffff\n      and\n      0xe0\n      shl\n      dup2\n      mstore\n      0x04\n      add\n      tag_184\n      swap3\n      swap2\n      swap1\n      tag_185\n      jump\t// in\n    tag_184:\n      0x20\n      mload(0x40)\n      dup1\n      dup4\n      sub\n      dup2\n      dup7\n      gas\n      staticcall\n      iszero\n      dup1\n      iszero\n      tag_187\n      jumpi\n      returndatasize\n      0x00\n      dup1\n      returndatacopy\n      revert(0x00, returndatasize)\n    tag_187:\n      pop\n      pop\n      pop\n      pop\n      mload(0x40)\n      returndatasize\n      not(0x1f)\n      0x1f\n      dup3\n      add\n      and\n      dup3\n      add\n      dup1\n      0x40\n      mstore\n      pop\n      dup2\n      add\n      swap1\n      tag_188\n      swap2\n      swap1\n      tag_189\n      jump\t// in\n    tag_188:\n        /* \"libraries/SafeERC20.sol\":2267:2311  token.allowance(address(this), spender) == 0 */\n      eq\n        /* \"libraries/SafeERC20.sol\":2250:2312  (value == 0) || (token.allowance(address(this), spender) == 0) */\n    tag_183:\n        /* \"libraries/SafeERC20.sol\":2228:2394  require(... */\n      tag_190\n      jumpi\n      mload(0x40)\n      0x08c379a000000000000000000000000000000000000000000000000000000000\n      dup2\n      mstore\n      0x04\n      add\n      tag_191\n      swap1\n      tag_192\n      jump\t// in\n    tag_191:\n      mload(0x40)\n      dup1\n      swap2\n      sub\n      swap1\n      revert\n    tag_190:\n        /* \"libraries/SafeERC20.sol\":2405:2495  _callOptionalReturn(token, abi.encodeWithSelector(token.approve.selector, spender, value)) */\n      tag_193\n        /* \"libraries/SafeERC20.sol\":2425:2430  token */\n      dup4\n        /* \"libraries/SafeERC20.sol\":2455:2477  token.approve.selector */\n      shl(0xe0, 0x095ea7b3)\n        /* \"libraries/SafeERC20.sol\":2479:2486  spender */\n      dup5\n        /* \"libraries/SafeERC20.sol\":2488:2493  value */\n      dup5\n        /* \"libraries/SafeERC20.sol\":2432:2494  abi.encodeWithSelector(token.approve.selector, spender, value) */\n      add(0x24, mload(0x40))\n      tag_194\n      swap3\n      swap2\n      swap1\n      tag_195\n      jump\t// in\n    tag_194:\n      mload(0x40)\n      0x20\n      dup2\n      dup4\n      sub\n      sub\n      dup2\n      mstore\n      swap1\n      0x40\n      mstore\n      swap1\n      not(0xffffffffffffffffffffffffffffffffffffffffffffffffffffffff)\n      and\n      0x20\n      dup3\n      add\n      dup1\n      mload\n      0xffffffffffffffffffffffffffffffffffffffffffffffffffffffff\n      dup4\n      dup2\n      dup4\n      and\n      or\n      dup4\n      mstore\n      pop\n      pop\n      pop\n      pop\n        /* \"libraries/SafeERC20.sol\":2405:2424  _callOptionalReturn */\n      tag_181\n        /* \"libraries/SafeERC20.sol\":2405:2495  _callOptionalReturn(token, abi.encodeWithSelector(token.approve.selector, spender, value)) */\n      jump\t// in\n    tag_193:\n        /* \"libraries/SafeERC20.sol\":1921:2503  function safeApprove(IERC20 token, address spender, uint256 value) internal {... */\n      pop\n      pop\n      pop\n      jump\t// out\n        /* \"contracts/TimeMarket.sol\":9287:9401  function getSolder(uint64 _id)internal view returns(address){... */\n    tag_94:\n        /* \"contracts/TimeMarket.sol\":9339:9346  address */\n      0x00\n        /* \"contracts/TimeMarket.sol\":9365:9374  _tradeMes */\n      0x06\n        /* \"contracts/TimeMarket.sol\":9365:9379  _tradeMes[_id] */\n      0x00\n        /* \"contracts/TimeMarket.sol\":9375:9378  _id */\n      dup4\n        /* \"contracts/TimeMarket.sol\":9365:9379  _tradeMes[_id] */\n      0xffffffffffffffff\n      and\n      0xffffffffffffffff\n      and\n      dup2\n      mstore\n      0x20\n      add\n      swap1\n      dup2\n      mstore\n      0x20\n      add\n      0x00\n      keccak256\n        /* \"contracts/TimeMarket.sol\":9365:9393  _tradeMes[_id].solderAddress */\n      0x04\n      add\n      0x00\n      swap1\n      sload\n      swap1\n      0x0100\n      exp\n      swap1\n      div\n      0xffffffffffffffffffffffffffffffffffffffff\n      and\n        /* \"contracts/TimeMarket.sol\":9358:9393  return _tradeMes[_id].solderAddress */\n      swap1\n      pop\n        /* \"contracts/TimeMarket.sol\":9287:9401  function getSolder(uint64 _id)internal view returns(address){... */\n      swap2\n      swap1\n      pop\n      jump\t// out\n        /* \"contracts/TimeMarket.sol\":9127:9239  function getBuyer(uint64 _id)internal view returns(address){... */\n    tag_99:\n        /* \"contracts/TimeMarket.sol\":9178:9185  address */\n      0x00\n        /* \"contracts/TimeMarket.sol\":9204:9213  _tradeMes */\n      0x06\n        /* \"contracts/TimeMarket.sol\":9204:9218  _tradeMes[_id] */\n      0x00\n        /* \"contracts/TimeMarket.sol\":9214:9217  _id */\n      dup4\n        /* \"contracts/TimeMarket.sol\":9204:9218  _tradeMes[_id] */\n      0xffffffffffffffff\n      and\n      0xffffffffffffffff\n      and\n      dup2\n      mstore\n      0x20\n      add\n      swap1\n      dup2\n      mstore\n      0x20\n      add\n      0x00\n      keccak256\n        /* \"contracts/TimeMarket.sol\":9204:9231  _tradeMes[_id].buyerAddress */\n      0x03\n      add\n      0x00\n      swap1\n      sload\n      swap1\n      0x0100\n      exp\n      swap1\n      div\n      0xffffffffffffffffffffffffffffffffffffffff\n      and\n        /* \"contracts/TimeMarket.sol\":9197:9231  return _tradeMes[_id].buyerAddress */\n      swap1\n      pop\n        /* \"contracts/TimeMarket.sol\":9127:9239  function getBuyer(uint64 _id)internal view returns(address){... */\n      swap2\n      swap1\n      pop\n      jump\t// out\n        /* \"libraries/TimeFee.sol\":250:680  function fee(uint256 stableAmount)internal pure returns(uint256 stableFee){... */\n    tag_107:\n        /* \"libraries/TimeFee.sol\":306:323  uint256 stableFee */\n      0x00\n        /* \"libraries/TimeFee.sol\":352:361  100 ether */\n      0x056bc75e2d63100000\n        /* \"libraries/TimeFee.sol\":338:350  stableAmount */\n      dup3\n        /* \"libraries/TimeFee.sol\":338:361  stableAmount>=100 ether */\n      lt\n      iszero\n        /* \"libraries/TimeFee.sol\":338:388  stableAmount>=100 ether && stableAmount<1000 ether */\n      dup1\n      iszero\n      tag_199\n      jumpi\n      pop\n        /* \"libraries/TimeFee.sol\":378:388  1000 ether */\n      0x3635c9adc5dea00000\n        /* \"libraries/TimeFee.sol\":365:377  stableAmount */\n      dup3\n        /* \"libraries/TimeFee.sol\":365:388  stableAmount<1000 ether */\n      lt\n        /* \"libraries/TimeFee.sol\":338:388  stableAmount>=100 ether && stableAmount<1000 ether */\n    tag_199:\n        /* \"libraries/TimeFee.sol\":335:673  if(stableAmount>=100 ether && stableAmount<1000 ether){... */\n      iszero\n      tag_200\n      jumpi\n        /* \"libraries/TimeFee.sol\":424:427  100 */\n      0x64\n        /* \"libraries/TimeFee.sol\":411:423  stableAmount */\n      dup3\n        /* \"libraries/TimeFee.sol\":411:427  stableAmount/100 */\n      tag_201\n      swap2\n      swap1\n      tag_144\n      jump\t// in\n    tag_201:\n        /* \"libraries/TimeFee.sol\":404:427  return stableAmount/100 */\n      swap1\n      pop\n      jump(tag_198)\n        /* \"libraries/TimeFee.sol\":335:673  if(stableAmount>=100 ether && stableAmount<1000 ether){... */\n    tag_200:\n        /* \"libraries/TimeFee.sol\":461:471  1000 ether */\n      0x3635c9adc5dea00000\n        /* \"libraries/TimeFee.sol\":447:459  stableAmount */\n      dup3\n        /* \"libraries/TimeFee.sol\":447:471  stableAmount>=1000 ether */\n      lt\n      iszero\n        /* \"libraries/TimeFee.sol\":447:499  stableAmount>=1000 ether && stableAmount<10000 ether */\n      dup1\n      iszero\n      tag_203\n      jumpi\n      pop\n        /* \"libraries/TimeFee.sol\":488:499  10000 ether */\n      0x021e19e0c9bab2400000\n        /* \"libraries/TimeFee.sol\":475:487  stableAmount */\n      dup3\n        /* \"libraries/TimeFee.sol\":475:499  stableAmount<10000 ether */\n      lt\n        /* \"libraries/TimeFee.sol\":447:499  stableAmount>=1000 ether && stableAmount<10000 ether */\n    tag_203:\n        /* \"libraries/TimeFee.sol\":444:673  if(stableAmount>=1000 ether && stableAmount<10000 ether){... */\n      iszero\n      tag_204\n      jumpi\n        /* \"libraries/TimeFee.sol\":535:538  200 */\n      0xc8\n        /* \"libraries/TimeFee.sol\":522:534  stableAmount */\n      dup3\n        /* \"libraries/TimeFee.sol\":522:538  stableAmount/200 */\n      tag_205\n      swap2\n      swap1\n      tag_144\n      jump\t// in\n    tag_205:\n        /* \"libraries/TimeFee.sol\":515:538  return stableAmount/200 */\n      swap1\n      pop\n      jump(tag_198)\n        /* \"libraries/TimeFee.sol\":444:673  if(stableAmount>=1000 ether && stableAmount<10000 ether){... */\n    tag_204:\n        /* \"libraries/TimeFee.sol\":572:583  10000 ether */\n      0x021e19e0c9bab2400000\n        /* \"libraries/TimeFee.sol\":558:570  stableAmount */\n      dup3\n        /* \"libraries/TimeFee.sol\":558:583  stableAmount>=10000 ether */\n      lt\n        /* \"libraries/TimeFee.sol\":555:673  if(stableAmount>=10000 ether){... */\n      tag_207\n      jumpi\n        /* \"libraries/TimeFee.sol\":619:622  400 */\n      0x0190\n        /* \"libraries/TimeFee.sol\":606:618  stableAmount */\n      dup3\n        /* \"libraries/TimeFee.sol\":606:622  stableAmount/400 */\n      tag_208\n      swap2\n      swap1\n      tag_144\n      jump\t// in\n    tag_208:\n        /* \"libraries/TimeFee.sol\":599:622  return stableAmount/400 */\n      swap1\n      pop\n      jump(tag_198)\n        /* \"libraries/TimeFee.sol\":555:673  if(stableAmount>=10000 ether){... */\n    tag_207:\n        /* \"libraries/TimeFee.sol\":660:661  0 */\n      0x00\n        /* \"libraries/TimeFee.sol\":653:661  return 0 */\n      swap1\n      pop\n        /* \"libraries/TimeFee.sol\":250:680  function fee(uint256 stableAmount)internal pure returns(uint256 stableFee){... */\n    tag_198:\n      swap2\n      swap1\n      pop\n      jump\t// out\n        /* \"libraries/SafeERC20.sol\":1025:1202  function safeTransfer(IERC20 token, address to, uint256 value) internal {... */\n    tag_109:\n        /* \"libraries/SafeERC20.sol\":1108:1194  _callOptionalReturn(token, abi.encodeWithSelector(token.transfer.selector, to, value)) */\n      tag_211\n        /* \"libraries/SafeERC20.sol\":1128:1133  token */\n      dup4\n        /* \"libraries/SafeERC20.sol\":1158:1181  token.transfer.selector */\n      shl(0xe0, 0xa9059cbb)\n        /* \"libraries/SafeERC20.sol\":1183:1185  to */\n      dup5\n        /* \"libraries/SafeERC20.sol\":1187:1192  value */\n      dup5\n        /* \"libraries/SafeERC20.sol\":1135:1193  abi.encodeWithSelector(token.transfer.selector, to, value) */\n      add(0x24, mload(0x40))\n      tag_212\n      swap3\n      swap2\n      swap1\n      tag_195\n      jump\t// in\n    tag_212:\n      mload(0x40)\n      0x20\n      dup2\n      dup4\n      sub\n      sub\n      dup2\n      mstore\n      swap1\n      0x40\n      mstore\n      swap1\n      not(0xffffffffffffffffffffffffffffffffffffffffffffffffffffffff)\n      and\n      0x20\n      dup3\n      add\n      dup1\n      mload\n      0xffffffffffffffffffffffffffffffffffffffffffffffffffffffff\n      dup4\n      dup2\n      dup4\n      and\n      or\n      dup4\n      mstore\n      pop\n      pop\n      pop\n      pop\n        /* \"libraries/SafeERC20.sol\":1108:1127  _callOptionalReturn */\n      tag_181\n        /* \"libraries/SafeERC20.sol\":1108:1194  _callOptionalReturn(token, abi.encodeWithSelector(token.transfer.selector, to, value)) */\n      jump\t// in\n    tag_211:\n        /* \"libraries/SafeERC20.sol\":1025:1202  function safeTransfer(IERC20 token, address to, uint256 value) internal {... */\n      pop\n      pop\n      pop\n      jump\t// out\n        /* \"libraries/SafeERC20.sol\":5371:6020  function _callOptionalReturn(IERC20 token, bytes memory data) private {... */\n    tag_181:\n        /* \"libraries/SafeERC20.sol\":5795:5818  bytes memory returndata */\n      0x00\n        /* \"libraries/SafeERC20.sol\":5821:5890  address(token).functionCall(data, \"SafeERC20: low-level call failed\") */\n      tag_214\n        /* \"libraries/SafeERC20.sol\":5849:5853  data */\n      dup3\n        /* \"libraries/SafeERC20.sol\":5821:5890  address(token).functionCall(data, \"SafeERC20: low-level call failed\") */\n      mload(0x40)\n      dup1\n      0x40\n      add\n      0x40\n      mstore\n      dup1\n      0x20\n      dup2\n      mstore\n      0x20\n      add\n      0x5361666545524332303a206c6f772d6c6576656c2063616c6c206661696c6564\n      dup2\n      mstore\n      pop\n        /* \"libraries/SafeERC20.sol\":5829:5834  token */\n      dup6\n        /* \"libraries/SafeERC20.sol\":5821:5848  address(token).functionCall */\n      0xffffffffffffffffffffffffffffffffffffffff\n      and\n      tag_215\n      swap1\n        /* \"libraries/SafeERC20.sol\":5821:5890  address(token).functionCall(data, \"SafeERC20: low-level call failed\") */\n      swap3\n      swap2\n      swap1\n      0xffffffff\n      and\n      jump\t// in\n    tag_214:\n        /* \"libraries/SafeERC20.sol\":5795:5890  bytes memory returndata = address(token).functionCall(data, \"SafeERC20: low-level call failed\") */\n      swap1\n      pop\n        /* \"libraries/SafeERC20.sol\":5930:5931  0 */\n      0x00\n        /* \"libraries/SafeERC20.sol\":5909:5919  returndata */\n      dup2\n        /* \"libraries/SafeERC20.sol\":5909:5926  returndata.length */\n      mload\n        /* \"libraries/SafeERC20.sol\":5909:5931  returndata.length == 0 */\n      eq\n        /* \"libraries/SafeERC20.sol\":5909:5965  returndata.length == 0 || abi.decode(returndata, (bool)) */\n      dup1\n      tag_216\n      jumpi\n      pop\n        /* \"libraries/SafeERC20.sol\":5946:5956  returndata */\n      dup1\n        /* \"libraries/SafeERC20.sol\":5935:5965  abi.decode(returndata, (bool)) */\n      dup1\n      0x20\n      add\n      swap1\n      mload\n      dup2\n      add\n      swap1\n      tag_217\n      swap2\n      swap1\n      tag_218\n      jump\t// in\n    tag_217:\n        /* \"libraries/SafeERC20.sol\":5909:5965  returndata.length == 0 || abi.decode(returndata, (bool)) */\n    tag_216:\n        /* \"libraries/SafeERC20.sol\":5901:6012  require(returndata.length == 0 || abi.decode(returndata, (bool)), \"SafeERC20: ERC20 operation did not succeed\") */\n      tag_219\n      jumpi\n      mload(0x40)\n      0x08c379a000000000000000000000000000000000000000000000000000000000\n      dup2\n      mstore\n      0x04\n      add\n      tag_220\n      swap1\n      tag_221\n      jump\t// in\n    tag_220:\n      mload(0x40)\n      dup1\n      swap2\n      sub\n      swap1\n      revert\n    tag_219:\n        /* \"libraries/SafeERC20.sol\":5441:6020  {... */\n      pop\n        /* \"libraries/SafeERC20.sol\":5371:6020  function _callOptionalReturn(IERC20 token, bytes memory data) private {... */\n      pop\n      pop\n      jump\t// out\n        /* \"libraries/Address.sol\":4207:4436  function functionCall(... */\n    tag_215:\n        /* \"libraries/Address.sol\":4344:4356  bytes memory */\n      0x60\n        /* \"libraries/Address.sol\":4376:4428  functionCallWithValue(target, data, 0, errorMessage) */\n      tag_223\n        /* \"libraries/Address.sol\":4398:4404  target */\n      dup5\n        /* \"libraries/Address.sol\":4406:4410  data */\n      dup5\n        /* \"libraries/Address.sol\":4412:4413  0 */\n      0x00\n        /* \"libraries/Address.sol\":4415:4427  errorMessage */\n      dup6\n        /* \"libraries/Address.sol\":4376:4397  functionCallWithValue */\n      tag_224\n        /* \"libraries/Address.sol\":4376:4428  functionCallWithValue(target, data, 0, errorMessage) */\n      jump\t// in\n    tag_223:\n        /* \"libraries/Address.sol\":4369:4428  return functionCallWithValue(target, data, 0, errorMessage) */\n      swap1\n      pop\n        /* \"libraries/Address.sol\":4207:4436  function functionCall(... */\n      swap4\n      swap3\n      pop\n      pop\n      pop\n      jump\t// out\n        /* \"libraries/Address.sol\":5293:5748  function functionCallWithValue(... */\n    tag_224:\n        /* \"libraries/Address.sol\":5463:5475  bytes memory */\n      0x60\n        /* \"libraries/Address.sol\":5521:5526  value */\n      dup3\n        /* \"libraries/Address.sol\":5496:5517  address(this).balance */\n      selfbalance\n        /* \"libraries/Address.sol\":5496:5526  address(this).balance >= value */\n      lt\n      iszero\n        /* \"libraries/Address.sol\":5488:5569  require(address(this).balance >= value, \"Address: insufficient balance for call\") */\n      tag_226\n      jumpi\n      mload(0x40)\n      0x08c379a000000000000000000000000000000000000000000000000000000000\n      dup2\n      mstore\n      0x04\n      add\n      tag_227\n      swap1\n      tag_228\n      jump\t// in\n    tag_227:\n      mload(0x40)\n      dup1\n      swap2\n      sub\n      swap1\n      revert\n    tag_226:\n        /* \"libraries/Address.sol\":5581:5593  bool success */\n      0x00\n        /* \"libraries/Address.sol\":5595:5618  bytes memory returndata */\n      dup1\n        /* \"libraries/Address.sol\":5622:5628  target */\n      dup7\n        /* \"libraries/Address.sol\":5622:5633  target.call */\n      0xffffffffffffffffffffffffffffffffffffffff\n      and\n        /* \"libraries/Address.sol\":5641:5646  value */\n      dup6\n        /* \"libraries/Address.sol\":5648:5652  data */\n      dup8\n        /* \"libraries/Address.sol\":5622:5653  target.call{value: value}(data) */\n      mload(0x40)\n      tag_229\n      swap2\n      swap1\n      tag_230\n      jump\t// in\n    tag_229:\n      0x00\n      mload(0x40)\n      dup1\n      dup4\n      sub\n      dup2\n      dup6\n      dup8\n      gas\n      call\n      swap3\n      pop\n      pop\n      pop\n      returndatasize\n      dup1\n      0x00\n      dup2\n      eq\n      tag_233\n      jumpi\n      mload(0x40)\n      swap2\n      pop\n      and(add(returndatasize, 0x3f), not(0x1f))\n      dup3\n      add\n      0x40\n      mstore\n      returndatasize\n      dup3\n      mstore\n      returndatasize\n      0x00\n      0x20\n      dup5\n      add\n      returndatacopy\n      jump(tag_232)\n    tag_233:\n      0x60\n      swap2\n      pop\n    tag_232:\n      pop\n        /* \"libraries/Address.sol\":5580:5653  (bool success, bytes memory returndata) = target.call{value: value}(data) */\n      swap2\n      pop\n      swap2\n      pop\n        /* \"libraries/Address.sol\":5671:5740  verifyCallResultFromTarget(target, success, returndata, errorMessage) */\n      tag_234\n        /* \"libraries/Address.sol\":5698:5704  target */\n      dup8\n        /* \"libraries/Address.sol\":5706:5713  success */\n      dup4\n        /* \"libraries/Address.sol\":5715:5725  returndata */\n      dup4\n        /* \"libraries/Address.sol\":5727:5739  errorMessage */\n      dup8\n        /* \"libraries/Address.sol\":5671:5697  verifyCallResultFromTarget */\n      tag_235\n        /* \"libraries/Address.sol\":5671:5740  verifyCallResultFromTarget(target, success, returndata, errorMessage) */\n      jump\t// in\n    tag_234:\n        /* \"libraries/Address.sol\":5664:5740  return verifyCallResultFromTarget(target, success, returndata, errorMessage) */\n      swap3\n      pop\n      pop\n      pop\n        /* \"libraries/Address.sol\":5293:5748  function functionCallWithValue(... */\n      swap5\n      swap4\n      pop\n      pop\n      pop\n      pop\n      jump\t// out\n        /* \"libraries/Address.sol\":7866:8510  function verifyCallResultFromTarget(... */\n    tag_235:\n        /* \"libraries/Address.sol\":8051:8063  bytes memory */\n      0x60\n        /* \"libraries/Address.sol\":8080:8087  success */\n      dup4\n        /* \"libraries/Address.sol\":8076:8503  if (success) {... */\n      iszero\n      tag_237\n      jumpi\n        /* \"libraries/Address.sol\":8129:8130  0 */\n      0x00\n        /* \"libraries/Address.sol\":8108:8118  returndata */\n      dup4\n        /* \"libraries/Address.sol\":8108:8125  returndata.length */\n      mload\n        /* \"libraries/Address.sol\":8108:8130  returndata.length == 0 */\n      sub\n        /* \"libraries/Address.sol\":8104:8394  if (returndata.length == 0) {... */\n      tag_238\n      jumpi\n        /* \"libraries/Address.sol\":8326:8344  isContract(target) */\n      tag_239\n        /* \"libraries/Address.sol\":8337:8343  target */\n      dup6\n        /* \"libraries/Address.sol\":8326:8336  isContract */\n      tag_240\n        /* \"libraries/Address.sol\":8326:8344  isContract(target) */\n      jump\t// in\n    tag_239:\n        /* \"libraries/Address.sol\":8318:8378  require(isContract(target), \"Address: call to non-contract\") */\n      tag_241\n      jumpi\n      mload(0x40)\n      0x08c379a000000000000000000000000000000000000000000000000000000000\n      dup2\n      mstore\n      0x04\n      add\n      tag_242\n      swap1\n      tag_243\n      jump\t// in\n    tag_242:\n      mload(0x40)\n      dup1\n      swap2\n      sub\n      swap1\n      revert\n    tag_241:\n        /* \"libraries/Address.sol\":8104:8394  if (returndata.length == 0) {... */\n    tag_238:\n        /* \"libraries/Address.sol\":8415:8425  returndata */\n      dup3\n        /* \"libraries/Address.sol\":8408:8425  return returndata */\n      swap1\n      pop\n      jump(tag_236)\n        /* \"libraries/Address.sol\":8076:8503  if (success) {... */\n    tag_237:\n        /* \"libraries/Address.sol\":8458:8491  _revert(returndata, errorMessage) */\n      tag_245\n        /* \"libraries/Address.sol\":8466:8476  returndata */\n      dup4\n        /* \"libraries/Address.sol\":8478:8490  errorMessage */\n      dup4\n        /* \"libraries/Address.sol\":8458:8465  _revert */\n      tag_246\n        /* \"libraries/Address.sol\":8458:8491  _revert(returndata, errorMessage) */\n      jump\t// in\n    tag_245:\n        /* \"libraries/Address.sol\":7866:8510  function verifyCallResultFromTarget(... */\n    tag_236:\n      swap5\n      swap4\n      pop\n      pop\n      pop\n      pop\n      jump\t// out\n        /* \"libraries/Address.sol\":1452:1778  function isContract(address account) internal view returns (bool) {... */\n    tag_240:\n        /* \"libraries/Address.sol\":1512:1516  bool */\n      0x00\n        /* \"libraries/Address.sol\":1769:1770  0 */\n      dup1\n        /* \"libraries/Address.sol\":1747:1754  account */\n      dup3\n        /* \"libraries/Address.sol\":1747:1766  account.code.length */\n      0xffffffffffffffffffffffffffffffffffffffff\n      and\n      extcodesize\n        /* \"libraries/Address.sol\":1747:1770  account.code.length > 0 */\n      gt\n        /* \"libraries/Address.sol\":1740:1770  return account.code.length > 0 */\n      swap1\n      pop\n        /* \"libraries/Address.sol\":1452:1778  function isContract(address account) internal view returns (bool) {... */\n      swap2\n      swap1\n      pop\n      jump\t// out\n        /* \"libraries/Address.sol\":9052:9604  function _revert(bytes memory returndata, string memory errorMessage) private pure {... */\n    tag_246:\n        /* \"libraries/Address.sol\":9233:9234  0 */\n      0x00\n        /* \"libraries/Address.sol\":9213:9223  returndata */\n      dup3\n        /* \"libraries/Address.sol\":9213:9230  returndata.length */\n      mload\n        /* \"libraries/Address.sol\":9213:9234  returndata.length > 0 */\n      gt\n        /* \"libraries/Address.sol\":9209:9597  if (returndata.length > 0) {... */\n      iszero\n      tag_249\n      jumpi\n        /* \"libraries/Address.sol\":9445:9455  returndata */\n      dup2\n        /* \"libraries/Address.sol\":9439:9456  mload(returndata) */\n      mload\n        /* \"libraries/Address.sol\":9502:9517  returndata_size */\n      dup1\n        /* \"libraries/Address.sol\":9489:9499  returndata */\n      dup4\n        /* \"libraries/Address.sol\":9485:9487  32 */\n      0x20\n        /* \"libraries/Address.sol\":9481:9500  add(32, returndata) */\n      add\n        /* \"libraries/Address.sol\":9474:9518  revert(add(32, returndata), returndata_size) */\n      revert\n        /* \"libraries/Address.sol\":9209:9597  if (returndata.length > 0) {... */\n    tag_249:\n        /* \"libraries/Address.sol\":9572:9584  errorMessage */\n      dup1\n        /* \"libraries/Address.sol\":9565:9585  revert(errorMessage) */\n      mload(0x40)\n      0x08c379a000000000000000000000000000000000000000000000000000000000\n      dup2\n      mstore\n      0x04\n      add\n      tag_251\n      swap2\n      swap1\n      tag_252\n      jump\t// in\n    tag_251:\n      mload(0x40)\n      dup1\n      swap2\n      sub\n      swap1\n      revert\n        /* \"#utility.yul\":88:205   */\n    tag_254:\n        /* \"#utility.yul\":197:198   */\n      0x00\n        /* \"#utility.yul\":194:195   */\n      dup1\n        /* \"#utility.yul\":187:199   */\n      revert\n        /* \"#utility.yul\":334:460   */\n    tag_256:\n        /* \"#utility.yul\":371:378   */\n      0x00\n        /* \"#utility.yul\":411:453   */\n      0xffffffffffffffffffffffffffffffffffffffff\n        /* \"#utility.yul\":404:409   */\n      dup3\n        /* \"#utility.yul\":400:454   */\n      and\n        /* \"#utility.yul\":389:454   */\n      swap1\n      pop\n        /* \"#utility.yul\":334:460   */\n      swap2\n      swap1\n      pop\n      jump\t// out\n        /* \"#utility.yul\":466:562   */\n    tag_257:\n        /* \"#utility.yul\":503:510   */\n      0x00\n        /* \"#utility.yul\":532:556   */\n      tag_312\n        /* \"#utility.yul\":550:555   */\n      dup3\n        /* \"#utility.yul\":532:556   */\n      tag_256\n      jump\t// in\n    tag_312:\n        /* \"#utility.yul\":521:556   */\n      swap1\n      pop\n        /* \"#utility.yul\":466:562   */\n      swap2\n      swap1\n      pop\n      jump\t// out\n        /* \"#utility.yul\":568:690   */\n    tag_258:\n        /* \"#utility.yul\":641:665   */\n      tag_314\n        /* \"#utility.yul\":659:664   */\n      dup2\n        /* \"#utility.yul\":641:665   */\n      tag_257\n      jump\t// in\n    tag_314:\n        /* \"#utility.yul\":634:639   */\n      dup2\n        /* \"#utility.yul\":631:666   */\n      eq\n        /* \"#utility.yul\":621:684   */\n      tag_315\n      jumpi\n        /* \"#utility.yul\":680:681   */\n      0x00\n        /* \"#utility.yul\":677:678   */\n      dup1\n        /* \"#utility.yul\":670:682   */\n      revert\n        /* \"#utility.yul\":621:684   */\n    tag_315:\n        /* \"#utility.yul\":568:690   */\n      pop\n      jump\t// out\n        /* \"#utility.yul\":696:835   */\n    tag_259:\n        /* \"#utility.yul\":742:747   */\n      0x00\n        /* \"#utility.yul\":780:786   */\n      dup2\n        /* \"#utility.yul\":767:787   */\n      calldataload\n        /* \"#utility.yul\":758:787   */\n      swap1\n      pop\n        /* \"#utility.yul\":796:829   */\n      tag_317\n        /* \"#utility.yul\":823:828   */\n      dup2\n        /* \"#utility.yul\":796:829   */\n      tag_258\n      jump\t// in\n    tag_317:\n        /* \"#utility.yul\":696:835   */\n      swap3\n      swap2\n      pop\n      pop\n      jump\t// out\n        /* \"#utility.yul\":841:959   */\n    tag_260:\n        /* \"#utility.yul\":878:885   */\n      0x00\n        /* \"#utility.yul\":918:952   */\n      0xffffffffffffffffffffffffffffffff\n        /* \"#utility.yul\":911:916   */\n      dup3\n        /* \"#utility.yul\":907:953   */\n      and\n        /* \"#utility.yul\":896:953   */\n      swap1\n      pop\n        /* \"#utility.yul\":841:959   */\n      swap2\n      swap1\n      pop\n      jump\t// out\n        /* \"#utility.yul\":965:1087   */\n    tag_261:\n        /* \"#utility.yul\":1038:1062   */\n      tag_320\n        /* \"#utility.yul\":1056:1061   */\n      dup2\n        /* \"#utility.yul\":1038:1062   */\n      tag_260\n      jump\t// in\n    tag_320:\n        /* \"#utility.yul\":1031:1036   */\n      dup2\n        /* \"#utility.yul\":1028:1063   */\n      eq\n        /* \"#utility.yul\":1018:1081   */\n      tag_321\n      jumpi\n        /* \"#utility.yul\":1077:1078   */\n      0x00\n        /* \"#utility.yul\":1074:1075   */\n      dup1\n        /* \"#utility.yul\":1067:1079   */\n      revert\n        /* \"#utility.yul\":1018:1081   */\n    tag_321:\n        /* \"#utility.yul\":965:1087   */\n      pop\n      jump\t// out\n        /* \"#utility.yul\":1093:1232   */\n    tag_262:\n        /* \"#utility.yul\":1139:1144   */\n      0x00\n        /* \"#utility.yul\":1177:1183   */\n      dup2\n        /* \"#utility.yul\":1164:1184   */\n      calldataload\n        /* \"#utility.yul\":1155:1184   */\n      swap1\n      pop\n        /* \"#utility.yul\":1193:1226   */\n      tag_323\n        /* \"#utility.yul\":1220:1225   */\n      dup2\n        /* \"#utility.yul\":1193:1226   */\n      tag_261\n      jump\t// in\n    tag_323:\n        /* \"#utility.yul\":1093:1232   */\n      swap3\n      swap2\n      pop\n      pop\n      jump\t// out\n        /* \"#utility.yul\":1238:2003   */\n    tag_20:\n        /* \"#utility.yul\":1324:1330   */\n      0x00\n        /* \"#utility.yul\":1332:1338   */\n      dup1\n        /* \"#utility.yul\":1340:1346   */\n      0x00\n        /* \"#utility.yul\":1348:1354   */\n      dup1\n        /* \"#utility.yul\":1397:1400   */\n      0x80\n        /* \"#utility.yul\":1385:1394   */\n      dup6\n        /* \"#utility.yul\":1376:1383   */\n      dup8\n        /* \"#utility.yul\":1372:1395   */\n      sub\n        /* \"#utility.yul\":1368:1401   */\n      slt\n        /* \"#utility.yul\":1365:1485   */\n      iszero\n      tag_325\n      jumpi\n        /* \"#utility.yul\":1404:1483   */\n      tag_326\n      tag_254\n      jump\t// in\n    tag_326:\n        /* \"#utility.yul\":1365:1485   */\n    tag_325:\n        /* \"#utility.yul\":1524:1525   */\n      0x00\n        /* \"#utility.yul\":1549:1602   */\n      tag_327\n        /* \"#utility.yul\":1594:1601   */\n      dup8\n        /* \"#utility.yul\":1585:1591   */\n      dup3\n        /* \"#utility.yul\":1574:1583   */\n      dup9\n        /* \"#utility.yul\":1570:1592   */\n      add\n        /* \"#utility.yul\":1549:1602   */\n      tag_259\n      jump\t// in\n    tag_327:\n        /* \"#utility.yul\":1539:1602   */\n      swap5\n      pop\n        /* \"#utility.yul\":1495:1612   */\n      pop\n        /* \"#utility.yul\":1651:1653   */\n      0x20\n        /* \"#utility.yul\":1677:1730   */\n      tag_328\n        /* \"#utility.yul\":1722:1729   */\n      dup8\n        /* \"#utility.yul\":1713:1719   */\n      dup3\n        /* \"#utility.yul\":1702:1711   */\n      dup9\n        /* \"#utility.yul\":1698:1720   */\n      add\n        /* \"#utility.yul\":1677:1730   */\n      tag_259\n      jump\t// in\n    tag_328:\n        /* \"#utility.yul\":1667:1730   */\n      swap4\n      pop\n        /* \"#utility.yul\":1622:1740   */\n      pop\n        /* \"#utility.yul\":1779:1781   */\n      0x40\n        /* \"#utility.yul\":1805:1858   */\n      tag_329\n        /* \"#utility.yul\":1850:1857   */\n      dup8\n        /* \"#utility.yul\":1841:1847   */\n      dup3\n        /* \"#utility.yul\":1830:1839   */\n      dup9\n        /* \"#utility.yul\":1826:1848   */\n      add\n        /* \"#utility.yul\":1805:1858   */\n      tag_262\n      jump\t// in\n    tag_329:\n        /* \"#utility.yul\":1795:1858   */\n      swap3\n      pop\n        /* \"#utility.yul\":1750:1868   */\n      pop\n        /* \"#utility.yul\":1907:1909   */\n      0x60\n        /* \"#utility.yul\":1933:1986   */\n      tag_330\n        /* \"#utility.yul\":1978:1985   */\n      dup8\n        /* \"#utility.yul\":1969:1975   */\n      dup3\n        /* \"#utility.yul\":1958:1967   */\n      dup9\n        /* \"#utility.yul\":1954:1976   */\n      add\n        /* \"#utility.yul\":1933:1986   */\n      tag_262\n      jump\t// in\n    tag_330:\n        /* \"#utility.yul\":1923:1986   */\n      swap2\n      pop\n        /* \"#utility.yul\":1878:1996   */\n      pop\n        /* \"#utility.yul\":1238:2003   */\n      swap3\n      swap6\n      swap2\n      swap5\n      pop\n      swap3\n      pop\n      jump\t// out\n        /* \"#utility.yul\":2009:2110   */\n    tag_263:\n        /* \"#utility.yul\":2045:2052   */\n      0x00\n        /* \"#utility.yul\":2085:2103   */\n      0xffffffffffffffff\n        /* \"#utility.yul\":2078:2083   */\n      dup3\n        /* \"#utility.yul\":2074:2104   */\n      and\n        /* \"#utility.yul\":2063:2104   */\n      swap1\n      pop\n        /* \"#utility.yul\":2009:2110   */\n      swap2\n      swap1\n      pop\n      jump\t// out\n        /* \"#utility.yul\":2116:2236   */\n    tag_264:\n        /* \"#utility.yul\":2188:2211   */\n      tag_333\n        /* \"#utility.yul\":2205:2210   */\n      dup2\n        /* \"#utility.yul\":2188:2211   */\n      tag_263\n      jump\t// in\n    tag_333:\n        /* \"#utility.yul\":2181:2186   */\n      dup2\n        /* \"#utility.yul\":2178:2212   */\n      eq\n        /* \"#utility.yul\":2168:2230   */\n      tag_334\n      jumpi\n        /* \"#utility.yul\":2226:2227   */\n      0x00\n        /* \"#utility.yul\":2223:2224   */\n      dup1\n        /* \"#utility.yul\":2216:2228   */\n      revert\n        /* \"#utility.yul\":2168:2230   */\n    tag_334:\n        /* \"#utility.yul\":2116:2236   */\n      pop\n      jump\t// out\n        /* \"#utility.yul\":2242:2379   */\n    tag_265:\n        /* \"#utility.yul\":2287:2292   */\n      0x00\n        /* \"#utility.yul\":2325:2331   */\n      dup2\n        /* \"#utility.yul\":2312:2332   */\n      calldataload\n        /* \"#utility.yul\":2303:2332   */\n      swap1\n      pop\n        /* \"#utility.yul\":2341:2373   */\n      tag_336\n        /* \"#utility.yul\":2367:2372   */\n      dup2\n        /* \"#utility.yul\":2341:2373   */\n      tag_264\n      jump\t// in\n    tag_336:\n        /* \"#utility.yul\":2242:2379   */\n      swap3\n      swap2\n      pop\n      pop\n      jump\t// out\n        /* \"#utility.yul\":2385:2712   */\n    tag_24:\n        /* \"#utility.yul\":2443:2449   */\n      0x00\n        /* \"#utility.yul\":2492:2494   */\n      0x20\n        /* \"#utility.yul\":2480:2489   */\n      dup3\n        /* \"#utility.yul\":2471:2478   */\n      dup5\n        /* \"#utility.yul\":2467:2490   */\n      sub\n        /* \"#utility.yul\":2463:2495   */\n      slt\n        /* \"#utility.yul\":2460:2579   */\n      iszero\n      tag_338\n      jumpi\n        /* \"#utility.yul\":2498:2577   */\n      tag_339\n      tag_254\n      jump\t// in\n    tag_339:\n        /* \"#utility.yul\":2460:2579   */\n    tag_338:\n        /* \"#utility.yul\":2618:2619   */\n      0x00\n        /* \"#utility.yul\":2643:2695   */\n      tag_340\n        /* \"#utility.yul\":2687:2694   */\n      dup5\n        /* \"#utility.yul\":2678:2684   */\n      dup3\n        /* \"#utility.yul\":2667:2676   */\n      dup6\n        /* \"#utility.yul\":2663:2685   */\n      add\n        /* \"#utility.yul\":2643:2695   */\n      tag_265\n      jump\t// in\n    tag_340:\n        /* \"#utility.yul\":2633:2695   */\n      swap2\n      pop\n        /* \"#utility.yul\":2589:2705   */\n      pop\n        /* \"#utility.yul\":2385:2712   */\n      swap3\n      swap2\n      pop\n      pop\n      jump\t// out\n        /* \"#utility.yul\":2718:2795   */\n    tag_266:\n        /* \"#utility.yul\":2755:2762   */\n      0x00\n        /* \"#utility.yul\":2784:2789   */\n      dup2\n        /* \"#utility.yul\":2773:2789   */\n      swap1\n      pop\n        /* \"#utility.yul\":2718:2795   */\n      swap2\n      swap1\n      pop\n      jump\t// out\n        /* \"#utility.yul\":2801:2923   */\n    tag_267:\n        /* \"#utility.yul\":2874:2898   */\n      tag_343\n        /* \"#utility.yul\":2892:2897   */\n      dup2\n        /* \"#utility.yul\":2874:2898   */\n      tag_266\n      jump\t// in\n    tag_343:\n        /* \"#utility.yul\":2867:2872   */\n      dup2\n        /* \"#utility.yul\":2864:2899   */\n      eq\n        /* \"#utility.yul\":2854:2917   */\n      tag_344\n      jumpi\n        /* \"#utility.yul\":2913:2914   */\n      0x00\n        /* \"#utility.yul\":2910:2911   */\n      dup1\n        /* \"#utility.yul\":2903:2915   */\n      revert\n        /* \"#utility.yul\":2854:2917   */\n    tag_344:\n        /* \"#utility.yul\":2801:2923   */\n      pop\n      jump\t// out\n        /* \"#utility.yul\":2929:3068   */\n    tag_268:\n        /* \"#utility.yul\":2975:2980   */\n      0x00\n        /* \"#utility.yul\":3013:3019   */\n      dup2\n        /* \"#utility.yul\":3000:3020   */\n      calldataload\n        /* \"#utility.yul\":2991:3020   */\n      swap1\n      pop\n        /* \"#utility.yul\":3029:3062   */\n      tag_346\n        /* \"#utility.yul\":3056:3061   */\n      dup2\n        /* \"#utility.yul\":3029:3062   */\n      tag_267\n      jump\t// in\n    tag_346:\n        /* \"#utility.yul\":2929:3068   */\n      swap3\n      swap2\n      pop\n      pop\n      jump\t// out\n        /* \"#utility.yul\":3074:3548   */\n    tag_31:\n        /* \"#utility.yul\":3142:3148   */\n      0x00\n        /* \"#utility.yul\":3150:3156   */\n      dup1\n        /* \"#utility.yul\":3199:3201   */\n      0x40\n        /* \"#utility.yul\":3187:3196   */\n      dup4\n        /* \"#utility.yul\":3178:3185   */\n      dup6\n        /* \"#utility.yul\":3174:3197   */\n      sub\n        /* \"#utility.yul\":3170:3202   */\n      slt\n        /* \"#utility.yul\":3167:3286   */\n      iszero\n      tag_348\n      jumpi\n        /* \"#utility.yul\":3205:3284   */\n      tag_349\n      tag_254\n      jump\t// in\n    tag_349:\n        /* \"#utility.yul\":3167:3286   */\n    tag_348:\n        /* \"#utility.yul\":3325:3326   */\n      0x00\n        /* \"#utility.yul\":3350:3403   */\n      tag_350\n        /* \"#utility.yul\":3395:3402   */\n      dup6\n        /* \"#utility.yul\":3386:3392   */\n      dup3\n        /* \"#utility.yul\":3375:3384   */\n      dup7\n        /* \"#utility.yul\":3371:3393   */\n      add\n        /* \"#utility.yul\":3350:3403   */\n      tag_259\n      jump\t// in\n    tag_350:\n        /* \"#utility.yul\":3340:3403   */\n      swap3\n      pop\n        /* \"#utility.yul\":3296:3413   */\n      pop\n        /* \"#utility.yul\":3452:3454   */\n      0x20\n        /* \"#utility.yul\":3478:3531   */\n      tag_351\n        /* \"#utility.yul\":3523:3530   */\n      dup6\n        /* \"#utility.yul\":3514:3520   */\n      dup3\n        /* \"#utility.yul\":3503:3512   */\n      dup7\n        /* \"#utility.yul\":3499:3521   */\n      add\n        /* \"#utility.yul\":3478:3531   */\n      tag_268\n      jump\t// in\n    tag_351:\n        /* \"#utility.yul\":3468:3531   */\n      swap2\n      pop\n        /* \"#utility.yul\":3423:3541   */\n      pop\n        /* \"#utility.yul\":3074:3548   */\n      swap3\n      pop\n      swap3\n      swap1\n      pop\n      jump\t// out\n        /* \"#utility.yul\":3554:3644   */\n    tag_269:\n        /* \"#utility.yul\":3588:3595   */\n      0x00\n        /* \"#utility.yul\":3631:3636   */\n      dup2\n        /* \"#utility.yul\":3624:3637   */\n      iszero\n        /* \"#utility.yul\":3617:3638   */\n      iszero\n        /* \"#utility.yul\":3606:3638   */\n      swap1\n      pop\n        /* \"#utility.yul\":3554:3644   */\n      swap2\n      swap1\n      pop\n      jump\t// out\n        /* \"#utility.yul\":3650:3759   */\n    tag_270:\n        /* \"#utility.yul\":3731:3752   */\n      tag_354\n        /* \"#utility.yul\":3746:3751   */\n      dup2\n        /* \"#utility.yul\":3731:3752   */\n      tag_269\n      jump\t// in\n    tag_354:\n        /* \"#utility.yul\":3726:3729   */\n      dup3\n        /* \"#utility.yul\":3719:3753   */\n      mstore\n        /* \"#utility.yul\":3650:3759   */\n      pop\n      pop\n      jump\t// out\n        /* \"#utility.yul\":3765:3975   */\n    tag_34:\n        /* \"#utility.yul\":3852:3856   */\n      0x00\n        /* \"#utility.yul\":3890:3892   */\n      0x20\n        /* \"#utility.yul\":3879:3888   */\n      dup3\n        /* \"#utility.yul\":3875:3893   */\n      add\n        /* \"#utility.yul\":3867:3893   */\n      swap1\n      pop\n        /* \"#utility.yul\":3903:3968   */\n      tag_356\n        /* \"#utility.yul\":3965:3966   */\n      0x00\n        /* \"#utility.yul\":3954:3963   */\n      dup4\n        /* \"#utility.yul\":3950:3967   */\n      add\n        /* \"#utility.yul\":3941:3947   */\n      dup5\n        /* \"#utility.yul\":3903:3968   */\n      tag_270\n      jump\t// in\n    tag_356:\n        /* \"#utility.yul\":3765:3975   */\n      swap3\n      swap2\n      pop\n      pop\n      jump\t// out\n        /* \"#utility.yul\":3981:4072   */\n    tag_271:\n        /* \"#utility.yul\":4017:4024   */\n      0x00\n        /* \"#utility.yul\":4057:4065   */\n      0xffffff\n        /* \"#utility.yul\":4050:4055   */\n      dup3\n        /* \"#utility.yul\":4046:4066   */\n      and\n        /* \"#utility.yul\":4035:4066   */\n      swap1\n      pop\n        /* \"#utility.yul\":3981:4072   */\n      swap2\n      swap1\n      pop\n      jump\t// out\n        /* \"#utility.yul\":4078:4198   */\n    tag_272:\n        /* \"#utility.yul\":4150:4173   */\n      tag_359\n        /* \"#utility.yul\":4167:4172   */\n      dup2\n        /* \"#utility.yul\":4150:4173   */\n      tag_271\n      jump\t// in\n    tag_359:\n        /* \"#utility.yul\":4143:4148   */\n      dup2\n        /* \"#utility.yul\":4140:4174   */\n      eq\n        /* \"#utility.yul\":4130:4192   */\n      tag_360\n      jumpi\n        /* \"#utility.yul\":4188:4189   */\n      0x00\n        /* \"#utility.yul\":4185:4186   */\n      dup1\n        /* \"#utility.yul\":4178:4190   */\n      revert\n        /* \"#utility.yul\":4130:4192   */\n    tag_360:\n        /* \"#utility.yul\":4078:4198   */\n      pop\n      jump\t// out\n        /* \"#utility.yul\":4204:4341   */\n    tag_273:\n        /* \"#utility.yul\":4249:4254   */\n      0x00\n        /* \"#utility.yul\":4287:4293   */\n      dup2\n        /* \"#utility.yul\":4274:4294   */\n      calldataload\n        /* \"#utility.yul\":4265:4294   */\n      swap1\n      pop\n        /* \"#utility.yul\":4303:4335   */\n      tag_362\n        /* \"#utility.yul\":4329:4334   */\n      dup2\n        /* \"#utility.yul\":4303:4335   */\n      tag_272\n      jump\t// in\n    tag_362:\n        /* \"#utility.yul\":4204:4341   */\n      swap3\n      swap2\n      pop\n      pop\n      jump\t// out\n        /* \"#utility.yul\":4347:4964   */\n    tag_37:\n        /* \"#utility.yul\":4423:4429   */\n      0x00\n        /* \"#utility.yul\":4431:4437   */\n      dup1\n        /* \"#utility.yul\":4439:4445   */\n      0x00\n        /* \"#utility.yul\":4488:4490   */\n      0x60\n        /* \"#utility.yul\":4476:4485   */\n      dup5\n        /* \"#utility.yul\":4467:4474   */\n      dup7\n        /* \"#utility.yul\":4463:4486   */\n      sub\n        /* \"#utility.yul\":4459:4491   */\n      slt\n        /* \"#utility.yul\":4456:4575   */\n      iszero\n      tag_364\n      jumpi\n        /* \"#utility.yul\":4494:4573   */\n      tag_365\n      tag_254\n      jump\t// in\n    tag_365:\n        /* \"#utility.yul\":4456:4575   */\n    tag_364:\n        /* \"#utility.yul\":4614:4615   */\n      0x00\n        /* \"#utility.yul\":4639:4692   */\n      tag_366\n        /* \"#utility.yul\":4684:4691   */\n      dup7\n        /* \"#utility.yul\":4675:4681   */\n      dup3\n        /* \"#utility.yul\":4664:4673   */\n      dup8\n        /* \"#utility.yul\":4660:4682   */\n      add\n        /* \"#utility.yul\":4639:4692   */\n      tag_259\n      jump\t// in\n    tag_366:\n        /* \"#utility.yul\":4629:4692   */\n      swap4\n      pop\n        /* \"#utility.yul\":4585:4702   */\n      pop\n        /* \"#utility.yul\":4741:4743   */\n      0x20\n        /* \"#utility.yul\":4767:4820   */\n      tag_367\n        /* \"#utility.yul\":4812:4819   */\n      dup7\n        /* \"#utility.yul\":4803:4809   */\n      dup3\n        /* \"#utility.yul\":4792:4801   */\n      dup8\n        /* \"#utility.yul\":4788:4810   */\n      add\n        /* \"#utility.yul\":4767:4820   */\n      tag_259\n      jump\t// in\n    tag_367:\n        /* \"#utility.yul\":4757:4820   */\n      swap3\n      pop\n        /* \"#utility.yul\":4712:4830   */\n      pop\n        /* \"#utility.yul\":4869:4871   */\n      0x40\n        /* \"#utility.yul\":4895:4947   */\n      tag_368\n        /* \"#utility.yul\":4939:4946   */\n      dup7\n        /* \"#utility.yul\":4930:4936   */\n      dup3\n        /* \"#utility.yul\":4919:4928   */\n      dup8\n        /* \"#utility.yul\":4915:4937   */\n      add\n        /* \"#utility.yul\":4895:4947   */\n      tag_273\n      jump\t// in\n    tag_368:\n        /* \"#utility.yul\":4885:4947   */\n      swap2\n      pop\n        /* \"#utility.yul\":4840:4957   */\n      pop\n        /* \"#utility.yul\":4347:4964   */\n      swap3\n      pop\n      swap3\n      pop\n      swap3\n      jump\t// out\n        /* \"#utility.yul\":4970:5088   */\n    tag_274:\n        /* \"#utility.yul\":5057:5081   */\n      tag_370\n        /* \"#utility.yul\":5075:5080   */\n      dup2\n        /* \"#utility.yul\":5057:5081   */\n      tag_257\n      jump\t// in\n    tag_370:\n        /* \"#utility.yul\":5052:5055   */\n      dup3\n        /* \"#utility.yul\":5045:5082   */\n      mstore\n        /* \"#utility.yul\":4970:5088   */\n      pop\n      pop\n      jump\t// out\n        /* \"#utility.yul\":5094:5316   */\n    tag_40:\n        /* \"#utility.yul\":5187:5191   */\n      0x00\n        /* \"#utility.yul\":5225:5227   */\n      0x20\n        /* \"#utility.yul\":5214:5223   */\n      dup3\n        /* \"#utility.yul\":5210:5228   */\n      add\n        /* \"#utility.yul\":5202:5228   */\n      swap1\n      pop\n        /* \"#utility.yul\":5238:5309   */\n      tag_372\n        /* \"#utility.yul\":5306:5307   */\n      0x00\n        /* \"#utility.yul\":5295:5304   */\n      dup4\n        /* \"#utility.yul\":5291:5308   */\n      add\n        /* \"#utility.yul\":5282:5288   */\n      dup5\n        /* \"#utility.yul\":5238:5309   */\n      tag_274\n      jump\t// in\n    tag_372:\n        /* \"#utility.yul\":5094:5316   */\n      swap3\n      swap2\n      pop\n      pop\n      jump\t// out\n        /* \"#utility.yul\":5322:5796   */\n    tag_46:\n        /* \"#utility.yul\":5390:5396   */\n      0x00\n        /* \"#utility.yul\":5398:5404   */\n      dup1\n        /* \"#utility.yul\":5447:5449   */\n      0x40\n        /* \"#utility.yul\":5435:5444   */\n      dup4\n        /* \"#utility.yul\":5426:5433   */\n      dup6\n        /* \"#utility.yul\":5422:5445   */\n      sub\n        /* \"#utility.yul\":5418:5450   */\n      slt\n        /* \"#utility.yul\":5415:5534   */\n      iszero\n      tag_374\n      jumpi\n        /* \"#utility.yul\":5453:5532   */\n      tag_375\n      tag_254\n      jump\t// in\n    tag_375:\n        /* \"#utility.yul\":5415:5534   */\n    tag_374:\n        /* \"#utility.yul\":5573:5574   */\n      0x00\n        /* \"#utility.yul\":5598:5651   */\n      tag_376\n        /* \"#utility.yul\":5643:5650   */\n      dup6\n        /* \"#utility.yul\":5634:5640   */\n      dup3\n        /* \"#utility.yul\":5623:5632   */\n      dup7\n        /* \"#utility.yul\":5619:5641   */\n      add\n        /* \"#utility.yul\":5598:5651   */\n      tag_262\n      jump\t// in\n    tag_376:\n        /* \"#utility.yul\":5588:5651   */\n      swap3\n      pop\n        /* \"#utility.yul\":5544:5661   */\n      pop\n        /* \"#utility.yul\":5700:5702   */\n      0x20\n        /* \"#utility.yul\":5726:5779   */\n      tag_377\n        /* \"#utility.yul\":5771:5778   */\n      dup6\n        /* \"#utility.yul\":5762:5768   */\n      dup3\n        /* \"#utility.yul\":5751:5760   */\n      dup7\n        /* \"#utility.yul\":5747:5769   */\n      add\n        /* \"#utility.yul\":5726:5779   */\n      tag_262\n      jump\t// in\n    tag_377:\n        /* \"#utility.yul\":5716:5779   */\n      swap2\n      pop\n        /* \"#utility.yul\":5671:5789   */\n      pop\n        /* \"#utility.yul\":5322:5796   */\n      swap3\n      pop\n      swap3\n      swap1\n      pop\n      jump\t// out\n        /* \"#utility.yul\":5802:5920   */\n    tag_275:\n        /* \"#utility.yul\":5889:5913   */\n      tag_379\n        /* \"#utility.yul\":5907:5912   */\n      dup2\n        /* \"#utility.yul\":5889:5913   */\n      tag_266\n      jump\t// in\n    tag_379:\n        /* \"#utility.yul\":5884:5887   */\n      dup3\n        /* \"#utility.yul\":5877:5914   */\n      mstore\n        /* \"#utility.yul\":5802:5920   */\n      pop\n      pop\n      jump\t// out\n        /* \"#utility.yul\":5926:6148   */\n    tag_49:\n        /* \"#utility.yul\":6019:6023   */\n      0x00\n        /* \"#utility.yul\":6057:6059   */\n      0x20\n        /* \"#utility.yul\":6046:6055   */\n      dup3\n        /* \"#utility.yul\":6042:6060   */\n      add\n        /* \"#utility.yul\":6034:6060   */\n      swap1\n      pop\n        /* \"#utility.yul\":6070:6141   */\n      tag_381\n        /* \"#utility.yul\":6138:6139   */\n      0x00\n        /* \"#utility.yul\":6127:6136   */\n      dup4\n        /* \"#utility.yul\":6123:6140   */\n      add\n        /* \"#utility.yul\":6114:6120   */\n      dup5\n        /* \"#utility.yul\":6070:6141   */\n      tag_275\n      jump\t// in\n    tag_381:\n        /* \"#utility.yul\":5926:6148   */\n      swap3\n      swap2\n      pop\n      pop\n      jump\t// out\n        /* \"#utility.yul\":6154:6626   */\n    tag_62:\n        /* \"#utility.yul\":6221:6227   */\n      0x00\n        /* \"#utility.yul\":6229:6235   */\n      dup1\n        /* \"#utility.yul\":6278:6280   */\n      0x40\n        /* \"#utility.yul\":6266:6275   */\n      dup4\n        /* \"#utility.yul\":6257:6264   */\n      dup6\n        /* \"#utility.yul\":6253:6276   */\n      sub\n        /* \"#utility.yul\":6249:6281   */\n      slt\n        /* \"#utility.yul\":6246:6365   */\n      iszero\n      tag_383\n      jumpi\n        /* \"#utility.yul\":6284:6363   */\n      tag_384\n      tag_254\n      jump\t// in\n    tag_384:\n        /* \"#utility.yul\":6246:6365   */\n    tag_383:\n        /* \"#utility.yul\":6404:6405   */\n      0x00\n        /* \"#utility.yul\":6429:6481   */\n      tag_385\n        /* \"#utility.yul\":6473:6480   */\n      dup6\n        /* \"#utility.yul\":6464:6470   */\n      dup3\n        /* \"#utility.yul\":6453:6462   */\n      dup7\n        /* \"#utility.yul\":6449:6471   */\n      add\n        /* \"#utility.yul\":6429:6481   */\n      tag_265\n      jump\t// in\n    tag_385:\n        /* \"#utility.yul\":6419:6481   */\n      swap3\n      pop\n        /* \"#utility.yul\":6375:6491   */\n      pop\n        /* \"#utility.yul\":6530:6532   */\n      0x20\n        /* \"#utility.yul\":6556:6609   */\n      tag_386\n        /* \"#utility.yul\":6601:6608   */\n      dup6\n        /* \"#utility.yul\":6592:6598   */\n      dup3\n        /* \"#utility.yul\":6581:6590   */\n      dup7\n        /* \"#utility.yul\":6577:6599   */\n      add\n        /* \"#utility.yul\":6556:6609   */\n      tag_259\n      jump\t// in\n    tag_386:\n        /* \"#utility.yul\":6546:6609   */\n      swap2\n      pop\n        /* \"#utility.yul\":6501:6619   */\n      pop\n        /* \"#utility.yul\":6154:6626   */\n      swap3\n      pop\n      swap3\n      swap1\n      pop\n      jump\t// out\n        /* \"#utility.yul\":6632:6812   */\n    tag_276:\n        /* \"#utility.yul\":6680:6757   */\n      0x4e487b7100000000000000000000000000000000000000000000000000000000\n        /* \"#utility.yul\":6677:6678   */\n      0x00\n        /* \"#utility.yul\":6670:6758   */\n      mstore\n        /* \"#utility.yul\":6777:6781   */\n      0x11\n        /* \"#utility.yul\":6774:6775   */\n      0x04\n        /* \"#utility.yul\":6767:6782   */\n      mstore\n        /* \"#utility.yul\":6801:6805   */\n      0x24\n        /* \"#utility.yul\":6798:6799   */\n      0x00\n        /* \"#utility.yul\":6791:6806   */\n      revert\n        /* \"#utility.yul\":6818:7097   */\n    tag_74:\n        /* \"#utility.yul\":6858:6865   */\n      0x00\n        /* \"#utility.yul\":6881:6901   */\n      tag_389\n        /* \"#utility.yul\":6899:6900   */\n      dup3\n        /* \"#utility.yul\":6881:6901   */\n      tag_260\n      jump\t// in\n    tag_389:\n        /* \"#utility.yul\":6876:6901   */\n      swap2\n      pop\n        /* \"#utility.yul\":6915:6935   */\n      tag_390\n        /* \"#utility.yul\":6933:6934   */\n      dup4\n        /* \"#utility.yul\":6915:6935   */\n      tag_260\n      jump\t// in\n    tag_390:\n        /* \"#utility.yul\":6910:6935   */\n      swap3\n      pop\n        /* \"#utility.yul\":6970:6971   */\n      dup3\n        /* \"#utility.yul\":6967:6968   */\n      dup3\n        /* \"#utility.yul\":6963:6972   */\n      mul\n        /* \"#utility.yul\":6992:7022   */\n      tag_391\n        /* \"#utility.yul\":7010:7021   */\n      dup2\n        /* \"#utility.yul\":6992:7022   */\n      tag_260\n      jump\t// in\n    tag_391:\n        /* \"#utility.yul\":6981:7022   */\n      swap2\n      pop\n        /* \"#utility.yul\":7054:7065   */\n      dup1\n        /* \"#utility.yul\":7045:7052   */\n      dup3\n        /* \"#utility.yul\":7042:7066   */\n      eq\n        /* \"#utility.yul\":7032:7090   */\n      tag_392\n      jumpi\n        /* \"#utility.yul\":7070:7088   */\n      tag_393\n      tag_276\n      jump\t// in\n    tag_393:\n        /* \"#utility.yul\":7032:7090   */\n    tag_392:\n        /* \"#utility.yul\":6866:7097   */\n      pop\n        /* \"#utility.yul\":6818:7097   */\n      swap3\n      swap2\n      pop\n      pop\n      jump\t// out\n        /* \"#utility.yul\":7103:7294   */\n    tag_82:\n        /* \"#utility.yul\":7143:7146   */\n      0x00\n        /* \"#utility.yul\":7162:7182   */\n      tag_395\n        /* \"#utility.yul\":7180:7181   */\n      dup3\n        /* \"#utility.yul\":7162:7182   */\n      tag_266\n      jump\t// in\n    tag_395:\n        /* \"#utility.yul\":7157:7182   */\n      swap2\n      pop\n        /* \"#utility.yul\":7196:7216   */\n      tag_396\n        /* \"#utility.yul\":7214:7215   */\n      dup4\n        /* \"#utility.yul\":7196:7216   */\n      tag_266\n      jump\t// in\n    tag_396:\n        /* \"#utility.yul\":7191:7216   */\n      swap3\n      pop\n        /* \"#utility.yul\":7239:7240   */\n      dup3\n        /* \"#utility.yul\":7236:7237   */\n      dup3\n        /* \"#utility.yul\":7232:7241   */\n      add\n        /* \"#utility.yul\":7225:7241   */\n      swap1\n      pop\n        /* \"#utility.yul\":7260:7263   */\n      dup1\n        /* \"#utility.yul\":7257:7258   */\n      dup3\n        /* \"#utility.yul\":7254:7264   */\n      gt\n        /* \"#utility.yul\":7251:7287   */\n      iszero\n      tag_397\n      jumpi\n        /* \"#utility.yul\":7267:7285   */\n      tag_398\n      tag_276\n      jump\t// in\n    tag_398:\n        /* \"#utility.yul\":7251:7287   */\n    tag_397:\n        /* \"#utility.yul\":7103:7294   */\n      swap3\n      swap2\n      pop\n      pop\n      jump\t// out\n        /* \"#utility.yul\":7300:7385   */\n    tag_277:\n        /* \"#utility.yul\":7345:7352   */\n      0x00\n        /* \"#utility.yul\":7374:7379   */\n      dup2\n        /* \"#utility.yul\":7363:7379   */\n      swap1\n      pop\n        /* \"#utility.yul\":7300:7385   */\n      swap2\n      swap1\n      pop\n      jump\t// out\n        /* \"#utility.yul\":7391:7451   */\n    tag_278:\n        /* \"#utility.yul\":7419:7422   */\n      0x00\n        /* \"#utility.yul\":7440:7445   */\n      dup2\n        /* \"#utility.yul\":7433:7445   */\n      swap1\n      pop\n        /* \"#utility.yul\":7391:7451   */\n      swap2\n      swap1\n      pop\n      jump\t// out\n        /* \"#utility.yul\":7457:7615   */\n    tag_279:\n        /* \"#utility.yul\":7515:7524   */\n      0x00\n        /* \"#utility.yul\":7548:7609   */\n      tag_402\n        /* \"#utility.yul\":7566:7608   */\n      tag_403\n        /* \"#utility.yul\":7575:7607   */\n      tag_404\n        /* \"#utility.yul\":7601:7606   */\n      dup5\n        /* \"#utility.yul\":7575:7607   */\n      tag_277\n      jump\t// in\n    tag_404:\n        /* \"#utility.yul\":7566:7608   */\n      tag_278\n      jump\t// in\n    tag_403:\n        /* \"#utility.yul\":7548:7609   */\n      tag_266\n      jump\t// in\n    tag_402:\n        /* \"#utility.yul\":7535:7609   */\n      swap1\n      pop\n        /* \"#utility.yul\":7457:7615   */\n      swap2\n      swap1\n      pop\n      jump\t// out\n        /* \"#utility.yul\":7621:7768   */\n    tag_280:\n        /* \"#utility.yul\":7716:7761   */\n      tag_406\n        /* \"#utility.yul\":7755:7760   */\n      dup2\n        /* \"#utility.yul\":7716:7761   */\n      tag_279\n      jump\t// in\n    tag_406:\n        /* \"#utility.yul\":7711:7714   */\n      dup3\n        /* \"#utility.yul\":7704:7762   */\n      mstore\n        /* \"#utility.yul\":7621:7768   */\n      pop\n      pop\n      jump\t// out\n        /* \"#utility.yul\":7774:7862   */\n    tag_281:\n        /* \"#utility.yul\":7822:7829   */\n      0x00\n        /* \"#utility.yul\":7851:7856   */\n      dup2\n        /* \"#utility.yul\":7840:7856   */\n      swap1\n      pop\n        /* \"#utility.yul\":7774:7862   */\n      swap2\n      swap1\n      pop\n      jump\t// out\n        /* \"#utility.yul\":7868:8032   */\n    tag_282:\n        /* \"#utility.yul\":7929:7938   */\n      0x00\n        /* \"#utility.yul\":7962:8026   */\n      tag_409\n        /* \"#utility.yul\":7980:8025   */\n      tag_410\n        /* \"#utility.yul\":7989:8024   */\n      tag_411\n        /* \"#utility.yul\":8018:8023   */\n      dup5\n        /* \"#utility.yul\":7989:8024   */\n      tag_281\n      jump\t// in\n    tag_411:\n        /* \"#utility.yul\":7980:8025   */\n      tag_278\n      jump\t// in\n    tag_410:\n        /* \"#utility.yul\":7962:8026   */\n      tag_266\n      jump\t// in\n    tag_409:\n        /* \"#utility.yul\":7949:8026   */\n      swap1\n      pop\n        /* \"#utility.yul\":7868:8032   */\n      swap2\n      swap1\n      pop\n      jump\t// out\n        /* \"#utility.yul\":8038:8191   */\n    tag_283:\n        /* \"#utility.yul\":8136:8184   */\n      tag_413\n        /* \"#utility.yul\":8178:8183   */\n      dup2\n        /* \"#utility.yul\":8136:8184   */\n      tag_282\n      jump\t// in\n    tag_413:\n        /* \"#utility.yul\":8131:8134   */\n      dup3\n        /* \"#utility.yul\":8124:8185   */\n      mstore\n        /* \"#utility.yul\":8038:8191   */\n      pop\n      pop\n      jump\t// out\n        /* \"#utility.yul\":8197:9248   */\n    tag_84:\n        /* \"#utility.yul\":8513:8517   */\n      0x00\n        /* \"#utility.yul\":8551:8554   */\n      0x0100\n        /* \"#utility.yul\":8540:8549   */\n      dup3\n        /* \"#utility.yul\":8536:8555   */\n      add\n        /* \"#utility.yul\":8528:8555   */\n      swap1\n      pop\n        /* \"#utility.yul\":8565:8636   */\n      tag_415\n        /* \"#utility.yul\":8633:8634   */\n      0x00\n        /* \"#utility.yul\":8622:8631   */\n      dup4\n        /* \"#utility.yul\":8618:8635   */\n      add\n        /* \"#utility.yul\":8609:8615   */\n      dup12\n        /* \"#utility.yul\":8565:8636   */\n      tag_274\n      jump\t// in\n    tag_415:\n        /* \"#utility.yul\":8646:8718   */\n      tag_416\n        /* \"#utility.yul\":8714:8716   */\n      0x20\n        /* \"#utility.yul\":8703:8712   */\n      dup4\n        /* \"#utility.yul\":8699:8717   */\n      add\n        /* \"#utility.yul\":8690:8696   */\n      dup11\n        /* \"#utility.yul\":8646:8718   */\n      tag_274\n      jump\t// in\n    tag_416:\n        /* \"#utility.yul\":8728:8800   */\n      tag_417\n        /* \"#utility.yul\":8796:8798   */\n      0x40\n        /* \"#utility.yul\":8785:8794   */\n      dup4\n        /* \"#utility.yul\":8781:8799   */\n      add\n        /* \"#utility.yul\":8772:8778   */\n      dup10\n        /* \"#utility.yul\":8728:8800   */\n      tag_275\n      jump\t// in\n    tag_417:\n        /* \"#utility.yul\":8810:8890   */\n      tag_418\n        /* \"#utility.yul\":8886:8888   */\n      0x60\n        /* \"#utility.yul\":8875:8884   */\n      dup4\n        /* \"#utility.yul\":8871:8889   */\n      add\n        /* \"#utility.yul\":8862:8868   */\n      dup9\n        /* \"#utility.yul\":8810:8890   */\n      tag_280\n      jump\t// in\n    tag_418:\n        /* \"#utility.yul\":8900:8984   */\n      tag_419\n        /* \"#utility.yul\":8979:8982   */\n      0x80\n        /* \"#utility.yul\":8968:8977   */\n      dup4\n        /* \"#utility.yul\":8964:8983   */\n      add\n        /* \"#utility.yul\":8955:8961   */\n      dup8\n        /* \"#utility.yul\":8900:8984   */\n      tag_283\n      jump\t// in\n    tag_419:\n        /* \"#utility.yul\":8994:9075   */\n      tag_420\n        /* \"#utility.yul\":9070:9073   */\n      0xa0\n        /* \"#utility.yul\":9059:9068   */\n      dup4\n        /* \"#utility.yul\":9055:9074   */\n      add\n        /* \"#utility.yul\":9046:9052   */\n      dup7\n        /* \"#utility.yul\":8994:9075   */\n      tag_280\n      jump\t// in\n    tag_420:\n        /* \"#utility.yul\":9085:9158   */\n      tag_421\n        /* \"#utility.yul\":9153:9156   */\n      0xc0\n        /* \"#utility.yul\":9142:9151   */\n      dup4\n        /* \"#utility.yul\":9138:9157   */\n      add\n        /* \"#utility.yul\":9129:9135   */\n      dup6\n        /* \"#utility.yul\":9085:9158   */\n      tag_274\n      jump\t// in\n    tag_421:\n        /* \"#utility.yul\":9168:9241   */\n      tag_422\n        /* \"#utility.yul\":9236:9239   */\n      0xe0\n        /* \"#utility.yul\":9225:9234   */\n      dup4\n        /* \"#utility.yul\":9221:9240   */\n      add\n        /* \"#utility.yul\":9212:9218   */\n      dup5\n        /* \"#utility.yul\":9168:9241   */\n      tag_275\n      jump\t// in\n    tag_422:\n        /* \"#utility.yul\":8197:9248   */\n      swap10\n      swap9\n      pop\n      pop\n      pop\n      pop\n      pop\n      pop\n      pop\n      pop\n      pop\n      jump\t// out\n        /* \"#utility.yul\":9254:9397   */\n    tag_284:\n        /* \"#utility.yul\":9311:9316   */\n      0x00\n        /* \"#utility.yul\":9342:9348   */\n      dup2\n        /* \"#utility.yul\":9336:9349   */\n      mload\n        /* \"#utility.yul\":9327:9349   */\n      swap1\n      pop\n        /* \"#utility.yul\":9358:9391   */\n      tag_424\n        /* \"#utility.yul\":9385:9390   */\n      dup2\n        /* \"#utility.yul\":9358:9391   */\n      tag_267\n      jump\t// in\n    tag_424:\n        /* \"#utility.yul\":9254:9397   */\n      swap3\n      swap2\n      pop\n      pop\n      jump\t// out\n        /* \"#utility.yul\":9403:10066   */\n    tag_88:\n        /* \"#utility.yul\":9491:9497   */\n      0x00\n        /* \"#utility.yul\":9499:9505   */\n      dup1\n        /* \"#utility.yul\":9507:9513   */\n      0x00\n        /* \"#utility.yul\":9556:9558   */\n      0x60\n        /* \"#utility.yul\":9544:9553   */\n      dup5\n        /* \"#utility.yul\":9535:9542   */\n      dup7\n        /* \"#utility.yul\":9531:9554   */\n      sub\n        /* \"#utility.yul\":9527:9559   */\n      slt\n        /* \"#utility.yul\":9524:9643   */\n      iszero\n      tag_426\n      jumpi\n        /* \"#utility.yul\":9562:9641   */\n      tag_427\n      tag_254\n      jump\t// in\n    tag_427:\n        /* \"#utility.yul\":9524:9643   */\n    tag_426:\n        /* \"#utility.yul\":9682:9683   */\n      0x00\n        /* \"#utility.yul\":9707:9771   */\n      tag_428\n        /* \"#utility.yul\":9763:9770   */\n      dup7\n        /* \"#utility.yul\":9754:9760   */\n      dup3\n        /* \"#utility.yul\":9743:9752   */\n      dup8\n        /* \"#utility.yul\":9739:9761   */\n      add\n        /* \"#utility.yul\":9707:9771   */\n      tag_284\n      jump\t// in\n    tag_428:\n        /* \"#utility.yul\":9697:9771   */\n      swap4\n      pop\n        /* \"#utility.yul\":9653:9781   */\n      pop\n        /* \"#utility.yul\":9820:9822   */\n      0x20\n        /* \"#utility.yul\":9846:9910   */\n      tag_429\n        /* \"#utility.yul\":9902:9909   */\n      dup7\n        /* \"#utility.yul\":9893:9899   */\n      dup3\n        /* \"#utility.yul\":9882:9891   */\n      dup8\n        /* \"#utility.yul\":9878:9900   */\n      add\n        /* \"#utility.yul\":9846:9910   */\n      tag_284\n      jump\t// in\n    tag_429:\n        /* \"#utility.yul\":9836:9910   */\n      swap3\n      pop\n        /* \"#utility.yul\":9791:9920   */\n      pop\n        /* \"#utility.yul\":9959:9961   */\n      0x40\n        /* \"#utility.yul\":9985:10049   */\n      tag_430\n        /* \"#utility.yul\":10041:10048   */\n      dup7\n        /* \"#utility.yul\":10032:10038   */\n      dup3\n        /* \"#utility.yul\":10021:10030   */\n      dup8\n        /* \"#utility.yul\":10017:10039   */\n      add\n        /* \"#utility.yul\":9985:10049   */\n      tag_284\n      jump\t// in\n    tag_430:\n        /* \"#utility.yul\":9975:10049   */\n      swap2\n      pop\n        /* \"#utility.yul\":9930:10059   */\n      pop\n        /* \"#utility.yul\":9403:10066   */\n      swap3\n      pop\n      swap3\n      pop\n      swap3\n      jump\t// out\n        /* \"#utility.yul\":10072:10255   */\n    tag_90:\n        /* \"#utility.yul\":10110:10113   */\n      0x00\n        /* \"#utility.yul\":10133:10156   */\n      tag_432\n        /* \"#utility.yul\":10150:10155   */\n      dup3\n        /* \"#utility.yul\":10133:10156   */\n      tag_263\n      jump\t// in\n    tag_432:\n        /* \"#utility.yul\":10124:10156   */\n      swap2\n      pop\n        /* \"#utility.yul\":10178:10196   */\n      0xffffffffffffffff\n        /* \"#utility.yul\":10171:10176   */\n      dup3\n        /* \"#utility.yul\":10168:10197   */\n      sub\n        /* \"#utility.yul\":10165:10220   */\n      tag_433\n      jumpi\n        /* \"#utility.yul\":10200:10218   */\n      tag_434\n      tag_276\n      jump\t// in\n    tag_434:\n        /* \"#utility.yul\":10165:10220   */\n    tag_433:\n        /* \"#utility.yul\":10247:10248   */\n      0x01\n        /* \"#utility.yul\":10240:10245   */\n      dup3\n        /* \"#utility.yul\":10236:10249   */\n      add\n        /* \"#utility.yul\":10229:10249   */\n      swap1\n      pop\n        /* \"#utility.yul\":10072:10255   */\n      swap2\n      swap1\n      pop\n      jump\t// out\n        /* \"#utility.yul\":10261:10455   */\n    tag_112:\n        /* \"#utility.yul\":10301:10305   */\n      0x00\n        /* \"#utility.yul\":10321:10341   */\n      tag_436\n        /* \"#utility.yul\":10339:10340   */\n      dup3\n        /* \"#utility.yul\":10321:10341   */\n      tag_266\n      jump\t// in\n    tag_436:\n        /* \"#utility.yul\":10316:10341   */\n      swap2\n      pop\n        /* \"#utility.yul\":10355:10375   */\n      tag_437\n        /* \"#utility.yul\":10373:10374   */\n      dup4\n        /* \"#utility.yul\":10355:10375   */\n      tag_266\n      jump\t// in\n    tag_437:\n        /* \"#utility.yul\":10350:10375   */\n      swap3\n      pop\n        /* \"#utility.yul\":10399:10400   */\n      dup3\n        /* \"#utility.yul\":10396:10397   */\n      dup3\n        /* \"#utility.yul\":10392:10401   */\n      sub\n        /* \"#utility.yul\":10384:10401   */\n      swap1\n      pop\n        /* \"#utility.yul\":10423:10424   */\n      dup2\n        /* \"#utility.yul\":10417:10421   */\n      dup2\n        /* \"#utility.yul\":10414:10425   */\n      gt\n        /* \"#utility.yul\":10411:10448   */\n      iszero\n      tag_438\n      jumpi\n        /* \"#utility.yul\":10428:10446   */\n      tag_439\n      tag_276\n      jump\t// in\n    tag_439:\n        /* \"#utility.yul\":10411:10448   */\n    tag_438:\n        /* \"#utility.yul\":10261:10455   */\n      swap3\n      swap2\n      pop\n      pop\n      jump\t// out\n        /* \"#utility.yul\":10461:10576   */\n    tag_285:\n        /* \"#utility.yul\":10546:10569   */\n      tag_441\n        /* \"#utility.yul\":10563:10568   */\n      dup2\n        /* \"#utility.yul\":10546:10569   */\n      tag_271\n      jump\t// in\n    tag_441:\n        /* \"#utility.yul\":10541:10544   */\n      dup3\n        /* \"#utility.yul\":10534:10570   */\n      mstore\n        /* \"#utility.yul\":10461:10576   */\n      pop\n      pop\n      jump\t// out\n        /* \"#utility.yul\":10582:11020   */\n    tag_120:\n        /* \"#utility.yul\":10729:10733   */\n      0x00\n        /* \"#utility.yul\":10767:10769   */\n      0x60\n        /* \"#utility.yul\":10756:10765   */\n      dup3\n        /* \"#utility.yul\":10752:10770   */\n      add\n        /* \"#utility.yul\":10744:10770   */\n      swap1\n      pop\n        /* \"#utility.yul\":10780:10851   */\n      tag_443\n        /* \"#utility.yul\":10848:10849   */\n      0x00\n        /* \"#utility.yul\":10837:10846   */\n      dup4\n        /* \"#utility.yul\":10833:10850   */\n      add\n        /* \"#utility.yul\":10824:10830   */\n      dup7\n        /* \"#utility.yul\":10780:10851   */\n      tag_274\n      jump\t// in\n    tag_443:\n        /* \"#utility.yul\":10861:10933   */\n      tag_444\n        /* \"#utility.yul\":10929:10931   */\n      0x20\n        /* \"#utility.yul\":10918:10927   */\n      dup4\n        /* \"#utility.yul\":10914:10932   */\n      add\n        /* \"#utility.yul\":10905:10911   */\n      dup6\n        /* \"#utility.yul\":10861:10933   */\n      tag_274\n      jump\t// in\n    tag_444:\n        /* \"#utility.yul\":10943:11013   */\n      tag_445\n        /* \"#utility.yul\":11009:11011   */\n      0x40\n        /* \"#utility.yul\":10998:11007   */\n      dup4\n        /* \"#utility.yul\":10994:11012   */\n      add\n        /* \"#utility.yul\":10985:10991   */\n      dup5\n        /* \"#utility.yul\":10943:11013   */\n      tag_285\n      jump\t// in\n    tag_445:\n        /* \"#utility.yul\":10582:11020   */\n      swap5\n      swap4\n      pop\n      pop\n      pop\n      pop\n      jump\t// out\n        /* \"#utility.yul\":11026:11169   */\n    tag_286:\n        /* \"#utility.yul\":11083:11088   */\n      0x00\n        /* \"#utility.yul\":11114:11120   */\n      dup2\n        /* \"#utility.yul\":11108:11121   */\n      mload\n        /* \"#utility.yul\":11099:11121   */\n      swap1\n      pop\n        /* \"#utility.yul\":11130:11163   */\n      tag_447\n        /* \"#utility.yul\":11157:11162   */\n      dup2\n        /* \"#utility.yul\":11130:11163   */\n      tag_258\n      jump\t// in\n    tag_447:\n        /* \"#utility.yul\":11026:11169   */\n      swap3\n      swap2\n      pop\n      pop\n      jump\t// out\n        /* \"#utility.yul\":11175:11526   */\n    tag_124:\n        /* \"#utility.yul\":11245:11251   */\n      0x00\n        /* \"#utility.yul\":11294:11296   */\n      0x20\n        /* \"#utility.yul\":11282:11291   */\n      dup3\n        /* \"#utility.yul\":11273:11280   */\n      dup5\n        /* \"#utility.yul\":11269:11292   */\n      sub\n        /* \"#utility.yul\":11265:11297   */\n      slt\n        /* \"#utility.yul\":11262:11381   */\n      iszero\n      tag_449\n      jumpi\n        /* \"#utility.yul\":11300:11379   */\n      tag_450\n      tag_254\n      jump\t// in\n    tag_450:\n        /* \"#utility.yul\":11262:11381   */\n    tag_449:\n        /* \"#utility.yul\":11420:11421   */\n      0x00\n        /* \"#utility.yul\":11445:11509   */\n      tag_451\n        /* \"#utility.yul\":11501:11508   */\n      dup5\n        /* \"#utility.yul\":11492:11498   */\n      dup3\n        /* \"#utility.yul\":11481:11490   */\n      dup6\n        /* \"#utility.yul\":11477:11499   */\n      add\n        /* \"#utility.yul\":11445:11509   */\n      tag_286\n      jump\t// in\n    tag_451:\n        /* \"#utility.yul\":11435:11509   */\n      swap2\n      pop\n        /* \"#utility.yul\":11391:11519   */\n      pop\n        /* \"#utility.yul\":11175:11526   */\n      swap3\n      swap2\n      pop\n      pop\n      jump\t// out\n        /* \"#utility.yul\":11532:11942   */\n    tag_142:\n        /* \"#utility.yul\":11572:11579   */\n      0x00\n        /* \"#utility.yul\":11595:11615   */\n      tag_453\n        /* \"#utility.yul\":11613:11614   */\n      dup3\n        /* \"#utility.yul\":11595:11615   */\n      tag_266\n      jump\t// in\n    tag_453:\n        /* \"#utility.yul\":11590:11615   */\n      swap2\n      pop\n        /* \"#utility.yul\":11629:11649   */\n      tag_454\n        /* \"#utility.yul\":11647:11648   */\n      dup4\n        /* \"#utility.yul\":11629:11649   */\n      tag_266\n      jump\t// in\n    tag_454:\n        /* \"#utility.yul\":11624:11649   */\n      swap3\n      pop\n        /* \"#utility.yul\":11684:11685   */\n      dup3\n        /* \"#utility.yul\":11681:11682   */\n      dup3\n        /* \"#utility.yul\":11677:11686   */\n      mul\n        /* \"#utility.yul\":11706:11736   */\n      tag_455\n        /* \"#utility.yul\":11724:11735   */\n      dup2\n        /* \"#utility.yul\":11706:11736   */\n      tag_266\n      jump\t// in\n    tag_455:\n        /* \"#utility.yul\":11695:11736   */\n      swap2\n      pop\n        /* \"#utility.yul\":11885:11886   */\n      dup3\n        /* \"#utility.yul\":11876:11883   */\n      dup3\n        /* \"#utility.yul\":11872:11887   */\n      div\n        /* \"#utility.yul\":11869:11870   */\n      dup5\n        /* \"#utility.yul\":11866:11888   */\n      eq\n        /* \"#utility.yul\":11846:11847   */\n      dup4\n        /* \"#utility.yul\":11839:11848   */\n      iszero\n        /* \"#utility.yul\":11819:11902   */\n      or\n        /* \"#utility.yul\":11796:11935   */\n      tag_456\n      jumpi\n        /* \"#utility.yul\":11915:11933   */\n      tag_457\n      tag_276\n      jump\t// in\n    tag_457:\n        /* \"#utility.yul\":11796:11935   */\n    tag_456:\n        /* \"#utility.yul\":11580:11942   */\n      pop\n        /* \"#utility.yul\":11532:11942   */\n      swap3\n      swap2\n      pop\n      pop\n      jump\t// out\n        /* \"#utility.yul\":11948:12128   */\n    tag_287:\n        /* \"#utility.yul\":11996:12073   */\n      0x4e487b7100000000000000000000000000000000000000000000000000000000\n        /* \"#utility.yul\":11993:11994   */\n      0x00\n        /* \"#utility.yul\":11986:12074   */\n      mstore\n        /* \"#utility.yul\":12093:12097   */\n      0x12\n        /* \"#utility.yul\":12090:12091   */\n      0x04\n        /* \"#utility.yul\":12083:12098   */\n      mstore\n        /* \"#utility.yul\":12117:12121   */\n      0x24\n        /* \"#utility.yul\":12114:12115   */\n      0x00\n        /* \"#utility.yul\":12107:12122   */\n      revert\n        /* \"#utility.yul\":12134:12319   */\n    tag_144:\n        /* \"#utility.yul\":12174:12175   */\n      0x00\n        /* \"#utility.yul\":12191:12211   */\n      tag_460\n        /* \"#utility.yul\":12209:12210   */\n      dup3\n        /* \"#utility.yul\":12191:12211   */\n      tag_266\n      jump\t// in\n    tag_460:\n        /* \"#utility.yul\":12186:12211   */\n      swap2\n      pop\n        /* \"#utility.yul\":12225:12245   */\n      tag_461\n        /* \"#utility.yul\":12243:12244   */\n      dup4\n        /* \"#utility.yul\":12225:12245   */\n      tag_266\n      jump\t// in\n    tag_461:\n        /* \"#utility.yul\":12220:12245   */\n      swap3\n      pop\n        /* \"#utility.yul\":12264:12265   */\n      dup3\n        /* \"#utility.yul\":12254:12289   */\n      tag_462\n      jumpi\n        /* \"#utility.yul\":12269:12287   */\n      tag_463\n      tag_287\n      jump\t// in\n    tag_463:\n        /* \"#utility.yul\":12254:12289   */\n    tag_462:\n        /* \"#utility.yul\":12311:12312   */\n      dup3\n        /* \"#utility.yul\":12308:12309   */\n      dup3\n        /* \"#utility.yul\":12304:12313   */\n      div\n        /* \"#utility.yul\":12299:12313   */\n      swap1\n      pop\n        /* \"#utility.yul\":12134:12319   */\n      swap3\n      swap2\n      pop\n      pop\n      jump\t// out\n        /* \"#utility.yul\":12325:12767   */\n    tag_180:\n        /* \"#utility.yul\":12474:12478   */\n      0x00\n        /* \"#utility.yul\":12512:12514   */\n      0x60\n        /* \"#utility.yul\":12501:12510   */\n      dup3\n        /* \"#utility.yul\":12497:12515   */\n      add\n        /* \"#utility.yul\":12489:12515   */\n      swap1\n      pop\n        /* \"#utility.yul\":12525:12596   */\n      tag_465\n        /* \"#utility.yul\":12593:12594   */\n      0x00\n        /* \"#utility.yul\":12582:12591   */\n      dup4\n        /* \"#utility.yul\":12578:12595   */\n      add\n        /* \"#utility.yul\":12569:12575   */\n      dup7\n        /* \"#utility.yul\":12525:12596   */\n      tag_274\n      jump\t// in\n    tag_465:\n        /* \"#utility.yul\":12606:12678   */\n      tag_466\n        /* \"#utility.yul\":12674:12676   */\n      0x20\n        /* \"#utility.yul\":12663:12672   */\n      dup4\n        /* \"#utility.yul\":12659:12677   */\n      add\n        /* \"#utility.yul\":12650:12656   */\n      dup6\n        /* \"#utility.yul\":12606:12678   */\n      tag_274\n      jump\t// in\n    tag_466:\n        /* \"#utility.yul\":12688:12760   */\n      tag_467\n        /* \"#utility.yul\":12756:12758   */\n      0x40\n        /* \"#utility.yul\":12745:12754   */\n      dup4\n        /* \"#utility.yul\":12741:12759   */\n      add\n        /* \"#utility.yul\":12732:12738   */\n      dup5\n        /* \"#utility.yul\":12688:12760   */\n      tag_275\n      jump\t// in\n    tag_467:\n        /* \"#utility.yul\":12325:12767   */\n      swap5\n      swap4\n      pop\n      pop\n      pop\n      pop\n      jump\t// out\n        /* \"#utility.yul\":12773:13105   */\n    tag_185:\n        /* \"#utility.yul\":12894:12898   */\n      0x00\n        /* \"#utility.yul\":12932:12934   */\n      0x40\n        /* \"#utility.yul\":12921:12930   */\n      dup3\n        /* \"#utility.yul\":12917:12935   */\n      add\n        /* \"#utility.yul\":12909:12935   */\n      swap1\n      pop\n        /* \"#utility.yul\":12945:13016   */\n      tag_469\n        /* \"#utility.yul\":13013:13014   */\n      0x00\n        /* \"#utility.yul\":13002:13011   */\n      dup4\n        /* \"#utility.yul\":12998:13015   */\n      add\n        /* \"#utility.yul\":12989:12995   */\n      dup6\n        /* \"#utility.yul\":12945:13016   */\n      tag_274\n      jump\t// in\n    tag_469:\n        /* \"#utility.yul\":13026:13098   */\n      tag_470\n        /* \"#utility.yul\":13094:13096   */\n      0x20\n        /* \"#utility.yul\":13083:13092   */\n      dup4\n        /* \"#utility.yul\":13079:13097   */\n      add\n        /* \"#utility.yul\":13070:13076   */\n      dup5\n        /* \"#utility.yul\":13026:13098   */\n      tag_274\n      jump\t// in\n    tag_470:\n        /* \"#utility.yul\":12773:13105   */\n      swap4\n      swap3\n      pop\n      pop\n      pop\n      jump\t// out\n        /* \"#utility.yul\":13111:13462   */\n    tag_189:\n        /* \"#utility.yul\":13181:13187   */\n      0x00\n        /* \"#utility.yul\":13230:13232   */\n      0x20\n        /* \"#utility.yul\":13218:13227   */\n      dup3\n        /* \"#utility.yul\":13209:13216   */\n      dup5\n        /* \"#utility.yul\":13205:13228   */\n      sub\n        /* \"#utility.yul\":13201:13233   */\n      slt\n        /* \"#utility.yul\":13198:13317   */\n      iszero\n      tag_472\n      jumpi\n        /* \"#utility.yul\":13236:13315   */\n      tag_473\n      tag_254\n      jump\t// in\n    tag_473:\n        /* \"#utility.yul\":13198:13317   */\n    tag_472:\n        /* \"#utility.yul\":13356:13357   */\n      0x00\n        /* \"#utility.yul\":13381:13445   */\n      tag_474\n        /* \"#utility.yul\":13437:13444   */\n      dup5\n        /* \"#utility.yul\":13428:13434   */\n      dup3\n        /* \"#utility.yul\":13417:13426   */\n      dup6\n        /* \"#utility.yul\":13413:13435   */\n      add\n        /* \"#utility.yul\":13381:13445   */\n      tag_284\n      jump\t// in\n    tag_474:\n        /* \"#utility.yul\":13371:13445   */\n      swap2\n      pop\n        /* \"#utility.yul\":13327:13455   */\n      pop\n        /* \"#utility.yul\":13111:13462   */\n      swap3\n      swap2\n      pop\n      pop\n      jump\t// out\n        /* \"#utility.yul\":13468:13637   */\n    tag_288:\n        /* \"#utility.yul\":13552:13563   */\n      0x00\n        /* \"#utility.yul\":13586:13592   */\n      dup3\n        /* \"#utility.yul\":13581:13584   */\n      dup3\n        /* \"#utility.yul\":13574:13593   */\n      mstore\n        /* \"#utility.yul\":13626:13630   */\n      0x20\n        /* \"#utility.yul\":13621:13624   */\n      dup3\n        /* \"#utility.yul\":13617:13631   */\n      add\n        /* \"#utility.yul\":13602:13631   */\n      swap1\n      pop\n        /* \"#utility.yul\":13468:13637   */\n      swap3\n      swap2\n      pop\n      pop\n      jump\t// out\n        /* \"#utility.yul\":13643:13884   */\n    tag_289:\n        /* \"#utility.yul\":13783:13817   */\n      0x5361666545524332303a20617070726f76652066726f6d206e6f6e2d7a65726f\n        /* \"#utility.yul\":13779:13780   */\n      0x00\n        /* \"#utility.yul\":13771:13777   */\n      dup3\n        /* \"#utility.yul\":13767:13781   */\n      add\n        /* \"#utility.yul\":13760:13818   */\n      mstore\n        /* \"#utility.yul\":13852:13876   */\n      0x20746f206e6f6e2d7a65726f20616c6c6f77616e636500000000000000000000\n        /* \"#utility.yul\":13847:13849   */\n      0x20\n        /* \"#utility.yul\":13839:13845   */\n      dup3\n        /* \"#utility.yul\":13835:13850   */\n      add\n        /* \"#utility.yul\":13828:13877   */\n      mstore\n        /* \"#utility.yul\":13643:13884   */\n      pop\n      jump\t// out\n        /* \"#utility.yul\":13890:14256   */\n    tag_290:\n        /* \"#utility.yul\":14032:14035   */\n      0x00\n        /* \"#utility.yul\":14053:14120   */\n      tag_478\n        /* \"#utility.yul\":14117:14119   */\n      0x36\n        /* \"#utility.yul\":14112:14115   */\n      dup4\n        /* \"#utility.yul\":14053:14120   */\n      tag_288\n      jump\t// in\n    tag_478:\n        /* \"#utility.yul\":14046:14120   */\n      swap2\n      pop\n        /* \"#utility.yul\":14129:14222   */\n      tag_479\n        /* \"#utility.yul\":14218:14221   */\n      dup3\n        /* \"#utility.yul\":14129:14222   */\n      tag_289\n      jump\t// in\n    tag_479:\n        /* \"#utility.yul\":14247:14249   */\n      0x40\n        /* \"#utility.yul\":14242:14245   */\n      dup3\n        /* \"#utility.yul\":14238:14250   */\n      add\n        /* \"#utility.yul\":14231:14250   */\n      swap1\n      pop\n        /* \"#utility.yul\":13890:14256   */\n      swap2\n      swap1\n      pop\n      jump\t// out\n        /* \"#utility.yul\":14262:14681   */\n    tag_192:\n        /* \"#utility.yul\":14428:14432   */\n      0x00\n        /* \"#utility.yul\":14466:14468   */\n      0x20\n        /* \"#utility.yul\":14455:14464   */\n      dup3\n        /* \"#utility.yul\":14451:14469   */\n      add\n        /* \"#utility.yul\":14443:14469   */\n      swap1\n      pop\n        /* \"#utility.yul\":14515:14524   */\n      dup2\n        /* \"#utility.yul\":14509:14513   */\n      dup2\n        /* \"#utility.yul\":14505:14525   */\n      sub\n        /* \"#utility.yul\":14501:14502   */\n      0x00\n        /* \"#utility.yul\":14490:14499   */\n      dup4\n        /* \"#utility.yul\":14486:14503   */\n      add\n        /* \"#utility.yul\":14479:14526   */\n      mstore\n        /* \"#utility.yul\":14543:14674   */\n      tag_481\n        /* \"#utility.yul\":14669:14673   */\n      dup2\n        /* \"#utility.yul\":14543:14674   */\n      tag_290\n      jump\t// in\n    tag_481:\n        /* \"#utility.yul\":14535:14674   */\n      swap1\n      pop\n        /* \"#utility.yul\":14262:14681   */\n      swap2\n      swap1\n      pop\n      jump\t// out\n        /* \"#utility.yul\":14687:15019   */\n    tag_195:\n        /* \"#utility.yul\":14808:14812   */\n      0x00\n        /* \"#utility.yul\":14846:14848   */\n      0x40\n        /* \"#utility.yul\":14835:14844   */\n      dup3\n        /* \"#utility.yul\":14831:14849   */\n      add\n        /* \"#utility.yul\":14823:14849   */\n      swap1\n      pop\n        /* \"#utility.yul\":14859:14930   */\n      tag_483\n        /* \"#utility.yul\":14927:14928   */\n      0x00\n        /* \"#utility.yul\":14916:14925   */\n      dup4\n        /* \"#utility.yul\":14912:14929   */\n      add\n        /* \"#utility.yul\":14903:14909   */\n      dup6\n        /* \"#utility.yul\":14859:14930   */\n      tag_274\n      jump\t// in\n    tag_483:\n        /* \"#utility.yul\":14940:15012   */\n      tag_484\n        /* \"#utility.yul\":15008:15010   */\n      0x20\n        /* \"#utility.yul\":14997:15006   */\n      dup4\n        /* \"#utility.yul\":14993:15011   */\n      add\n        /* \"#utility.yul\":14984:14990   */\n      dup5\n        /* \"#utility.yul\":14940:15012   */\n      tag_275\n      jump\t// in\n    tag_484:\n        /* \"#utility.yul\":14687:15019   */\n      swap4\n      swap3\n      pop\n      pop\n      pop\n      jump\t// out\n        /* \"#utility.yul\":15025:15141   */\n    tag_291:\n        /* \"#utility.yul\":15095:15116   */\n      tag_486\n        /* \"#utility.yul\":15110:15115   */\n      dup2\n        /* \"#utility.yul\":15095:15116   */\n      tag_269\n      jump\t// in\n    tag_486:\n        /* \"#utility.yul\":15088:15093   */\n      dup2\n        /* \"#utility.yul\":15085:15117   */\n      eq\n        /* \"#utility.yul\":15075:15135   */\n      tag_487\n      jumpi\n        /* \"#utility.yul\":15131:15132   */\n      0x00\n        /* \"#utility.yul\":15128:15129   */\n      dup1\n        /* \"#utility.yul\":15121:15133   */\n      revert\n        /* \"#utility.yul\":15075:15135   */\n    tag_487:\n        /* \"#utility.yul\":15025:15141   */\n      pop\n      jump\t// out\n        /* \"#utility.yul\":15147:15284   */\n    tag_292:\n        /* \"#utility.yul\":15201:15206   */\n      0x00\n        /* \"#utility.yul\":15232:15238   */\n      dup2\n        /* \"#utility.yul\":15226:15239   */\n      mload\n        /* \"#utility.yul\":15217:15239   */\n      swap1\n      pop\n        /* \"#utility.yul\":15248:15278   */\n      tag_489\n        /* \"#utility.yul\":15272:15277   */\n      dup2\n        /* \"#utility.yul\":15248:15278   */\n      tag_291\n      jump\t// in\n    tag_489:\n        /* \"#utility.yul\":15147:15284   */\n      swap3\n      swap2\n      pop\n      pop\n      jump\t// out\n        /* \"#utility.yul\":15290:15635   */\n    tag_218:\n        /* \"#utility.yul\":15357:15363   */\n      0x00\n        /* \"#utility.yul\":15406:15408   */\n      0x20\n        /* \"#utility.yul\":15394:15403   */\n      dup3\n        /* \"#utility.yul\":15385:15392   */\n      dup5\n        /* \"#utility.yul\":15381:15404   */\n      sub\n        /* \"#utility.yul\":15377:15409   */\n      slt\n        /* \"#utility.yul\":15374:15493   */\n      iszero\n      tag_491\n      jumpi\n        /* \"#utility.yul\":15412:15491   */\n      tag_492\n      tag_254\n      jump\t// in\n    tag_492:\n        /* \"#utility.yul\":15374:15493   */\n    tag_491:\n        /* \"#utility.yul\":15532:15533   */\n      0x00\n        /* \"#utility.yul\":15557:15618   */\n      tag_493\n        /* \"#utility.yul\":15610:15617   */\n      dup5\n        /* \"#utility.yul\":15601:15607   */\n      dup3\n        /* \"#utility.yul\":15590:15599   */\n      dup6\n        /* \"#utility.yul\":15586:15608   */\n      add\n        /* \"#utility.yul\":15557:15618   */\n      tag_292\n      jump\t// in\n    tag_493:\n        /* \"#utility.yul\":15547:15618   */\n      swap2\n      pop\n        /* \"#utility.yul\":15503:15628   */\n      pop\n        /* \"#utility.yul\":15290:15635   */\n      swap3\n      swap2\n      pop\n      pop\n      jump\t// out\n        /* \"#utility.yul\":15641:15870   */\n    tag_293:\n        /* \"#utility.yul\":15781:15815   */\n      0x5361666545524332303a204552433230206f7065726174696f6e20646964206e\n        /* \"#utility.yul\":15777:15778   */\n      0x00\n        /* \"#utility.yul\":15769:15775   */\n      dup3\n        /* \"#utility.yul\":15765:15779   */\n      add\n        /* \"#utility.yul\":15758:15816   */\n      mstore\n        /* \"#utility.yul\":15850:15862   */\n      0x6f74207375636365656400000000000000000000000000000000000000000000\n        /* \"#utility.yul\":15845:15847   */\n      0x20\n        /* \"#utility.yul\":15837:15843   */\n      dup3\n        /* \"#utility.yul\":15833:15848   */\n      add\n        /* \"#utility.yul\":15826:15863   */\n      mstore\n        /* \"#utility.yul\":15641:15870   */\n      pop\n      jump\t// out\n        /* \"#utility.yul\":15876:16242   */\n    tag_294:\n        /* \"#utility.yul\":16018:16021   */\n      0x00\n        /* \"#utility.yul\":16039:16106   */\n      tag_496\n        /* \"#utility.yul\":16103:16105   */\n      0x2a\n        /* \"#utility.yul\":16098:16101   */\n      dup4\n        /* \"#utility.yul\":16039:16106   */\n      tag_288\n      jump\t// in\n    tag_496:\n        /* \"#utility.yul\":16032:16106   */\n      swap2\n      pop\n        /* \"#utility.yul\":16115:16208   */\n      tag_497\n        /* \"#utility.yul\":16204:16207   */\n      dup3\n        /* \"#utility.yul\":16115:16208   */\n      tag_293\n      jump\t// in\n    tag_497:\n        /* \"#utility.yul\":16233:16235   */\n      0x40\n        /* \"#utility.yul\":16228:16231   */\n      dup3\n        /* \"#utility.yul\":16224:16236   */\n      add\n        /* \"#utility.yul\":16217:16236   */\n      swap1\n      pop\n        /* \"#utility.yul\":15876:16242   */\n      swap2\n      swap1\n      pop\n      jump\t// out\n        /* \"#utility.yul\":16248:16667   */\n    tag_221:\n        /* \"#utility.yul\":16414:16418   */\n      0x00\n        /* \"#utility.yul\":16452:16454   */\n      0x20\n        /* \"#utility.yul\":16441:16450   */\n      dup3\n        /* \"#utility.yul\":16437:16455   */\n      add\n        /* \"#utility.yul\":16429:16455   */\n      swap1\n      pop\n        /* \"#utility.yul\":16501:16510   */\n      dup2\n        /* \"#utility.yul\":16495:16499   */\n      dup2\n        /* \"#utility.yul\":16491:16511   */\n      sub\n        /* \"#utility.yul\":16487:16488   */\n      0x00\n        /* \"#utility.yul\":16476:16485   */\n      dup4\n        /* \"#utility.yul\":16472:16489   */\n      add\n        /* \"#utility.yul\":16465:16512   */\n      mstore\n        /* \"#utility.yul\":16529:16660   */\n      tag_499\n        /* \"#utility.yul\":16655:16659   */\n      dup2\n        /* \"#utility.yul\":16529:16660   */\n      tag_294\n      jump\t// in\n    tag_499:\n        /* \"#utility.yul\":16521:16660   */\n      swap1\n      pop\n        /* \"#utility.yul\":16248:16667   */\n      swap2\n      swap1\n      pop\n      jump\t// out\n        /* \"#utility.yul\":16673:16898   */\n    tag_295:\n        /* \"#utility.yul\":16813:16847   */\n      0x416464726573733a20696e73756666696369656e742062616c616e636520666f\n        /* \"#utility.yul\":16809:16810   */\n      0x00\n        /* \"#utility.yul\":16801:16807   */\n      dup3\n        /* \"#utility.yul\":16797:16811   */\n      add\n        /* \"#utility.yul\":16790:16848   */\n      mstore\n        /* \"#utility.yul\":16882:16890   */\n      0x722063616c6c0000000000000000000000000000000000000000000000000000\n        /* \"#utility.yul\":16877:16879   */\n      0x20\n        /* \"#utility.yul\":16869:16875   */\n      dup3\n        /* \"#utility.yul\":16865:16880   */\n      add\n        /* \"#utility.yul\":16858:16891   */\n      mstore\n        /* \"#utility.yul\":16673:16898   */\n      pop\n      jump\t// out\n        /* \"#utility.yul\":16904:17270   */\n    tag_296:\n        /* \"#utility.yul\":17046:17049   */\n      0x00\n        /* \"#utility.yul\":17067:17134   */\n      tag_502\n        /* \"#utility.yul\":17131:17133   */\n      0x26\n        /* \"#utility.yul\":17126:17129   */\n      dup4\n        /* \"#utility.yul\":17067:17134   */\n      tag_288\n      jump\t// in\n    tag_502:\n        /* \"#utility.yul\":17060:17134   */\n      swap2\n      pop\n        /* \"#utility.yul\":17143:17236   */\n      tag_503\n        /* \"#utility.yul\":17232:17235   */\n      dup3\n        /* \"#utility.yul\":17143:17236   */\n      tag_295\n      jump\t// in\n    tag_503:\n        /* \"#utility.yul\":17261:17263   */\n      0x40\n        /* \"#utility.yul\":17256:17259   */\n      dup3\n        /* \"#utility.yul\":17252:17264   */\n      add\n        /* \"#utility.yul\":17245:17264   */\n      swap1\n      pop\n        /* \"#utility.yul\":16904:17270   */\n      swap2\n      swap1\n      pop\n      jump\t// out\n        /* \"#utility.yul\":17276:17695   */\n    tag_228:\n        /* \"#utility.yul\":17442:17446   */\n      0x00\n        /* \"#utility.yul\":17480:17482   */\n      0x20\n        /* \"#utility.yul\":17469:17478   */\n      dup3\n        /* \"#utility.yul\":17465:17483   */\n      add\n        /* \"#utility.yul\":17457:17483   */\n      swap1\n      pop\n        /* \"#utility.yul\":17529:17538   */\n      dup2\n        /* \"#utility.yul\":17523:17527   */\n      dup2\n        /* \"#utility.yul\":17519:17539   */\n      sub\n        /* \"#utility.yul\":17515:17516   */\n      0x00\n        /* \"#utility.yul\":17504:17513   */\n      dup4\n        /* \"#utility.yul\":17500:17517   */\n      add\n        /* \"#utility.yul\":17493:17540   */\n      mstore\n        /* \"#utility.yul\":17557:17688   */\n      tag_505\n        /* \"#utility.yul\":17683:17687   */\n      dup2\n        /* \"#utility.yul\":17557:17688   */\n      tag_296\n      jump\t// in\n    tag_505:\n        /* \"#utility.yul\":17549:17688   */\n      swap1\n      pop\n        /* \"#utility.yul\":17276:17695   */\n      swap2\n      swap1\n      pop\n      jump\t// out\n        /* \"#utility.yul\":17701:17799   */\n    tag_297:\n        /* \"#utility.yul\":17752:17758   */\n      0x00\n        /* \"#utility.yul\":17786:17791   */\n      dup2\n        /* \"#utility.yul\":17780:17792   */\n      mload\n        /* \"#utility.yul\":17770:17792   */\n      swap1\n      pop\n        /* \"#utility.yul\":17701:17799   */\n      swap2\n      swap1\n      pop\n      jump\t// out\n        /* \"#utility.yul\":17805:17952   */\n    tag_298:\n        /* \"#utility.yul\":17906:17917   */\n      0x00\n        /* \"#utility.yul\":17943:17946   */\n      dup2\n        /* \"#utility.yul\":17928:17946   */\n      swap1\n      pop\n        /* \"#utility.yul\":17805:17952   */\n      swap3\n      swap2\n      pop\n      pop\n      jump\t// out\n        /* \"#utility.yul\":17958:18204   */\n    tag_299:\n        /* \"#utility.yul\":18039:18040   */\n      0x00\n        /* \"#utility.yul\":18049:18162   */\n    tag_509:\n        /* \"#utility.yul\":18063:18069   */\n      dup4\n        /* \"#utility.yul\":18060:18061   */\n      dup2\n        /* \"#utility.yul\":18057:18070   */\n      lt\n        /* \"#utility.yul\":18049:18162   */\n      iszero\n      tag_511\n      jumpi\n        /* \"#utility.yul\":18148:18149   */\n      dup1\n        /* \"#utility.yul\":18143:18146   */\n      dup3\n        /* \"#utility.yul\":18139:18150   */\n      add\n        /* \"#utility.yul\":18133:18151   */\n      mload\n        /* \"#utility.yul\":18129:18130   */\n      dup2\n        /* \"#utility.yul\":18124:18127   */\n      dup5\n        /* \"#utility.yul\":18120:18131   */\n      add\n        /* \"#utility.yul\":18113:18152   */\n      mstore\n        /* \"#utility.yul\":18085:18087   */\n      0x20\n        /* \"#utility.yul\":18082:18083   */\n      dup2\n        /* \"#utility.yul\":18078:18088   */\n      add\n        /* \"#utility.yul\":18073:18088   */\n      swap1\n      pop\n        /* \"#utility.yul\":18049:18162   */\n      jump(tag_509)\n    tag_511:\n        /* \"#utility.yul\":18196:18197   */\n      0x00\n        /* \"#utility.yul\":18187:18193   */\n      dup5\n        /* \"#utility.yul\":18182:18185   */\n      dup5\n        /* \"#utility.yul\":18178:18194   */\n      add\n        /* \"#utility.yul\":18171:18198   */\n      mstore\n        /* \"#utility.yul\":18020:18204   */\n      pop\n        /* \"#utility.yul\":17958:18204   */\n      pop\n      pop\n      pop\n      jump\t// out\n        /* \"#utility.yul\":18210:18596   */\n    tag_300:\n        /* \"#utility.yul\":18314:18317   */\n      0x00\n        /* \"#utility.yul\":18342:18380   */\n      tag_513\n        /* \"#utility.yul\":18374:18379   */\n      dup3\n        /* \"#utility.yul\":18342:18380   */\n      tag_297\n      jump\t// in\n    tag_513:\n        /* \"#utility.yul\":18396:18484   */\n      tag_514\n        /* \"#utility.yul\":18477:18483   */\n      dup2\n        /* \"#utility.yul\":18472:18475   */\n      dup6\n        /* \"#utility.yul\":18396:18484   */\n      tag_298\n      jump\t// in\n    tag_514:\n        /* \"#utility.yul\":18389:18484   */\n      swap4\n      pop\n        /* \"#utility.yul\":18493:18558   */\n      tag_515\n        /* \"#utility.yul\":18551:18557   */\n      dup2\n        /* \"#utility.yul\":18546:18549   */\n      dup6\n        /* \"#utility.yul\":18539:18543   */\n      0x20\n        /* \"#utility.yul\":18532:18537   */\n      dup7\n        /* \"#utility.yul\":18528:18544   */\n      add\n        /* \"#utility.yul\":18493:18558   */\n      tag_299\n      jump\t// in\n    tag_515:\n        /* \"#utility.yul\":18583:18589   */\n      dup1\n        /* \"#utility.yul\":18578:18581   */\n      dup5\n        /* \"#utility.yul\":18574:18590   */\n      add\n        /* \"#utility.yul\":18567:18590   */\n      swap2\n      pop\n        /* \"#utility.yul\":18318:18596   */\n      pop\n        /* \"#utility.yul\":18210:18596   */\n      swap3\n      swap2\n      pop\n      pop\n      jump\t// out\n        /* \"#utility.yul\":18602:18873   */\n    tag_230:\n        /* \"#utility.yul\":18732:18735   */\n      0x00\n        /* \"#utility.yul\":18754:18847   */\n      tag_517\n        /* \"#utility.yul\":18843:18846   */\n      dup3\n        /* \"#utility.yul\":18834:18840   */\n      dup5\n        /* \"#utility.yul\":18754:18847   */\n      tag_300\n      jump\t// in\n    tag_517:\n        /* \"#utility.yul\":18747:18847   */\n      swap2\n      pop\n        /* \"#utility.yul\":18864:18867   */\n      dup2\n        /* \"#utility.yul\":18857:18867   */\n      swap1\n      pop\n        /* \"#utility.yul\":18602:18873   */\n      swap3\n      swap2\n      pop\n      pop\n      jump\t// out\n        /* \"#utility.yul\":18879:19058   */\n    tag_301:\n        /* \"#utility.yul\":19019:19050   */\n      0x416464726573733a2063616c6c20746f206e6f6e2d636f6e7472616374000000\n        /* \"#utility.yul\":19015:19016   */\n      0x00\n        /* \"#utility.yul\":19007:19013   */\n      dup3\n        /* \"#utility.yul\":19003:19017   */\n      add\n        /* \"#utility.yul\":18996:19051   */\n      mstore\n        /* \"#utility.yul\":18879:19058   */\n      pop\n      jump\t// out\n        /* \"#utility.yul\":19064:19430   */\n    tag_302:\n        /* \"#utility.yul\":19206:19209   */\n      0x00\n        /* \"#utility.yul\":19227:19294   */\n      tag_520\n        /* \"#utility.yul\":19291:19293   */\n      0x1d\n        /* \"#utility.yul\":19286:19289   */\n      dup4\n        /* \"#utility.yul\":19227:19294   */\n      tag_288\n      jump\t// in\n    tag_520:\n        /* \"#utility.yul\":19220:19294   */\n      swap2\n      pop\n        /* \"#utility.yul\":19303:19396   */\n      tag_521\n        /* \"#utility.yul\":19392:19395   */\n      dup3\n        /* \"#utility.yul\":19303:19396   */\n      tag_301\n      jump\t// in\n    tag_521:\n        /* \"#utility.yul\":19421:19423   */\n      0x20\n        /* \"#utility.yul\":19416:19419   */\n      dup3\n        /* \"#utility.yul\":19412:19424   */\n      add\n        /* \"#utility.yul\":19405:19424   */\n      swap1\n      pop\n        /* \"#utility.yul\":19064:19430   */\n      swap2\n      swap1\n      pop\n      jump\t// out\n        /* \"#utility.yul\":19436:19855   */\n    tag_243:\n        /* \"#utility.yul\":19602:19606   */\n      0x00\n        /* \"#utility.yul\":19640:19642   */\n      0x20\n        /* \"#utility.yul\":19629:19638   */\n      dup3\n        /* \"#utility.yul\":19625:19643   */\n      add\n        /* \"#utility.yul\":19617:19643   */\n      swap1\n      pop\n        /* \"#utility.yul\":19689:19698   */\n      dup2\n        /* \"#utility.yul\":19683:19687   */\n      dup2\n        /* \"#utility.yul\":19679:19699   */\n      sub\n        /* \"#utility.yul\":19675:19676   */\n      0x00\n        /* \"#utility.yul\":19664:19673   */\n      dup4\n        /* \"#utility.yul\":19660:19677   */\n      add\n        /* \"#utility.yul\":19653:19700   */\n      mstore\n        /* \"#utility.yul\":19717:19848   */\n      tag_523\n        /* \"#utility.yul\":19843:19847   */\n      dup2\n        /* \"#utility.yul\":19717:19848   */\n      tag_302\n      jump\t// in\n    tag_523:\n        /* \"#utility.yul\":19709:19848   */\n      swap1\n      pop\n        /* \"#utility.yul\":19436:19855   */\n      swap2\n      swap1\n      pop\n      jump\t// out\n        /* \"#utility.yul\":19861:19960   */\n    tag_303:\n        /* \"#utility.yul\":19913:19919   */\n      0x00\n        /* \"#utility.yul\":19947:19952   */\n      dup2\n        /* \"#utility.yul\":19941:19953   */\n      mload\n        /* \"#utility.yul\":19931:19953   */\n      swap1\n      pop\n        /* \"#utility.yul\":19861:19960   */\n      swap2\n      swap1\n      pop\n      jump\t// out\n        /* \"#utility.yul\":19966:20068   */\n    tag_304:\n        /* \"#utility.yul\":20007:20013   */\n      0x00\n        /* \"#utility.yul\":20058:20060   */\n      0x1f\n        /* \"#utility.yul\":20054:20061   */\n      not\n        /* \"#utility.yul\":20049:20051   */\n      0x1f\n        /* \"#utility.yul\":20042:20047   */\n      dup4\n        /* \"#utility.yul\":20038:20052   */\n      add\n        /* \"#utility.yul\":20034:20062   */\n      and\n        /* \"#utility.yul\":20024:20062   */\n      swap1\n      pop\n        /* \"#utility.yul\":19966:20068   */\n      swap2\n      swap1\n      pop\n      jump\t// out\n        /* \"#utility.yul\":20074:20451   */\n    tag_305:\n        /* \"#utility.yul\":20162:20165   */\n      0x00\n        /* \"#utility.yul\":20190:20229   */\n      tag_527\n        /* \"#utility.yul\":20223:20228   */\n      dup3\n        /* \"#utility.yul\":20190:20229   */\n      tag_303\n      jump\t// in\n    tag_527:\n        /* \"#utility.yul\":20245:20316   */\n      tag_528\n        /* \"#utility.yul\":20309:20315   */\n      dup2\n        /* \"#utility.yul\":20304:20307   */\n      dup6\n        /* \"#utility.yul\":20245:20316   */\n      tag_288\n      jump\t// in\n    tag_528:\n        /* \"#utility.yul\":20238:20316   */\n      swap4\n      pop\n        /* \"#utility.yul\":20325:20390   */\n      tag_529\n        /* \"#utility.yul\":20383:20389   */\n      dup2\n        /* \"#utility.yul\":20378:20381   */\n      dup6\n        /* \"#utility.yul\":20371:20375   */\n      0x20\n        /* \"#utility.yul\":20364:20369   */\n      dup7\n        /* \"#utility.yul\":20360:20376   */\n      add\n        /* \"#utility.yul\":20325:20390   */\n      tag_299\n      jump\t// in\n    tag_529:\n        /* \"#utility.yul\":20415:20444   */\n      tag_530\n        /* \"#utility.yul\":20437:20443   */\n      dup2\n        /* \"#utility.yul\":20415:20444   */\n      tag_304\n      jump\t// in\n    tag_530:\n        /* \"#utility.yul\":20410:20413   */\n      dup5\n        /* \"#utility.yul\":20406:20445   */\n      add\n        /* \"#utility.yul\":20399:20445   */\n      swap2\n      pop\n        /* \"#utility.yul\":20166:20451   */\n      pop\n        /* \"#utility.yul\":20074:20451   */\n      swap3\n      swap2\n      pop\n      pop\n      jump\t// out\n        /* \"#utility.yul\":20457:20770   */\n    tag_252:\n        /* \"#utility.yul\":20570:20574   */\n      0x00\n        /* \"#utility.yul\":20608:20610   */\n      0x20\n        /* \"#utility.yul\":20597:20606   */\n      dup3\n        /* \"#utility.yul\":20593:20611   */\n      add\n        /* \"#utility.yul\":20585:20611   */\n      swap1\n      pop\n        /* \"#utility.yul\":20657:20666   */\n      dup2\n        /* \"#utility.yul\":20651:20655   */\n      dup2\n        /* \"#utility.yul\":20647:20667   */\n      sub\n        /* \"#utility.yul\":20643:20644   */\n      0x00\n        /* \"#utility.yul\":20632:20641   */\n      dup4\n        /* \"#utility.yul\":20628:20645   */\n      add\n        /* \"#utility.yul\":20621:20668   */\n      mstore\n        /* \"#utility.yul\":20685:20763   */\n      tag_532\n        /* \"#utility.yul\":20758:20762   */\n      dup2\n        /* \"#utility.yul\":20749:20755   */\n      dup5\n        /* \"#utility.yul\":20685:20763   */\n      tag_305\n      jump\t// in\n    tag_532:\n        /* \"#utility.yul\":20677:20763   */\n      swap1\n      pop\n        /* \"#utility.yul\":20457:20770   */\n      swap3\n      swap2\n      pop\n      pop\n      jump\t// out\n\n    auxdata: 0xa26469706673582212201c9df1b035e4fabdd704b7c1b9093b589a4419f25669a21492bb2f973d19f01864736f6c63430008130033\n}\n",
				"bytecode": {
					"linkReferences": {},
					"object": "6080604052731f98431c8ad98523631ae4a59f267346ea31f984600460006101000a81548173ffffffffffffffffffffffffffffffffffffffff021916908373ffffffffffffffffffffffffffffffffffffffff16021790555073c36442b4a4522e871399cd717abdd847ab11fe88600560006101000a81548173ffffffffffffffffffffffffffffffffffffffff021916908373ffffffffffffffffffffffffffffffffffffffff160217905550348015620000bb57600080fd5b5060405162003151380380620031518339818101604052810190620000e19190620001f5565b81600160006101000a81548173ffffffffffffffffffffffffffffffffffffffff021916908373ffffffffffffffffffffffffffffffffffffffff160217905550806000806101000a81548166ffffffffffffff021916908366ffffffffffffff16021790555050506200023c565b600080fd5b600073ffffffffffffffffffffffffffffffffffffffff82169050919050565b6000620001828262000155565b9050919050565b620001948162000175565b8114620001a057600080fd5b50565b600081519050620001b48162000189565b92915050565b6000819050919050565b620001cf81620001ba565b8114620001db57600080fd5b50565b600081519050620001ef81620001c4565b92915050565b600080604083850312156200020f576200020e62000150565b5b60006200021f85828601620001a3565b92505060206200023285828601620001de565b9150509250929050565b612f05806200024c6000396000f3fe608060405234801561001057600080fd5b50600436106100cf5760003560e01c806398c50fdd1161008c578063c3cf1aa611610066578063c3cf1aa614610220578063d91af4921461023c578063df0905c614610258578063fc993ea814610288576100cf565b806398c50fdd146101a4578063b8d7f980146101d4578063c0102de414610204576100cf565b80630d45431d146100d457806325ac3a73146100f05780632895cb7b1461010c57806359de2f6014610128578063696d62831461015857806377bcd8a614610188575b600080fd5b6100ee60048036038101906100e99190612418565b6102b8565b005b61010a600480360381019061010591906124bf565b61077d565b005b610126600480360381019061012191906124bf565b6109fa565b005b610142600480360381019061013d9190612522565b610f9a565b60405161014f919061257d565b60405180910390f35b610172600480360381019061016d91906125d3565b610fc9565b60405161017f9190612635565b60405180910390f35b6101a2600480360381019061019d91906124bf565b611074565b005b6101be60048036038101906101b99190612650565b61144d565b6040516101cb919061269f565b60405180910390f35b6101ee60048036038101906101e99190612522565b61156a565b6040516101fb919061257d565b60405180910390f35b61021e600480360381019061021991906124bf565b611599565b005b61023a600480360381019061023591906124bf565b611841565b005b610256600480360381019061025191906126ba565b611844565b005b610272600480360381019061026d9190612522565b611ccd565b60405161027f919061257d565b60405180910390f35b6102a2600480360381019061029d9190612522565b611cfc565b6040516102af919061257d565b60405180910390f35b600081836102c69190612729565b6fffffffffffffffffffffffffffffffff16905060006102e986866103e8610fc9565b905068056bc75e2d6310000082101561032e576040517fe008b5f900000000000000000000000000000000000000000000000000000000815260040160405180910390fd5b6000604051806101000160405280600160ff168152602001600060079054906101000a900467ffffffffffffffff1667ffffffffffffffff1681526020014266ffffffffffffff168152602001866fffffffffffffffffffffffffffffffff168152602001856fffffffffffffffffffffffffffffffff1681526020018873ffffffffffffffffffffffffffffffffffffffff1681526020013373ffffffffffffffffffffffffffffffffffffffff1681526020013073ffffffffffffffffffffffffffffffffffffffff16815250905080600660008060079054906101000a900467ffffffffffffffff1667ffffffffffffffff1667ffffffffffffffff16815260200190815260200160002060008201518160000160006101000a81548160ff021916908360ff16021790555060208201518160000160016101000a81548167ffffffffffffffff021916908367ffffffffffffffff16021790555060408201518160000160096101000a81548166ffffffffffffff021916908366ffffffffffffff16021790555060608201518160000160106101000a8154816fffffffffffffffffffffffffffffffff02191690836fffffffffffffffffffffffffffffffff16021790555060808201518160010160006101000a8154816fffffffffffffffffffffffffffffffff02191690836fffffffffffffffffffffffffffffffff16021790555060a08201518160020160006101000a81548173ffffffffffffffffffffffffffffffffffffffff021916908373ffffffffffffffffffffffffffffffffffffffff16021790555060c08201518160030160006101000a81548173ffffffffffffffffffffffffffffffffffffffff021916908373ffffffffffffffffffffffffffffffffffffffff16021790555060e08201518160040160006101000a81548173ffffffffffffffffffffffffffffffffffffffff021916908373ffffffffffffffffffffffffffffffffffffffff16021790555090505061063c3330858a73ffffffffffffffffffffffffffffffffffffffff16611d2b909392919063ffffffff16565b61066782848973ffffffffffffffffffffffffffffffffffffffff16611db49092919063ffffffff16565b600360009054906101000a900473ffffffffffffffffffffffffffffffffffffffff1673ffffffffffffffffffffffffffffffffffffffff1663e8e3370088888660006103e8600030610e10426106be9190612766565b6040518963ffffffff1660e01b81526004016106e198979695949392919061281a565b6060604051808303816000875af1158015610700573d6000803e3d6000fd5b505050506040513d601f19601f8201168201806040525081019061072491906128ad565b5050506000600781819054906101000a900467ffffffffffffffff168092919061074d90612900565b91906101000a81548167ffffffffffffffff021916908367ffffffffffffffff1602179055505050505050505050565b6000600760003373ffffffffffffffffffffffffffffffffffffffff1673ffffffffffffffffffffffffffffffffffffffff16815260200190815260200160002060008367ffffffffffffffff16815260200190815260200160002060006101000a81548160ff021916908315150217905515610826576040517f4232716900000000000000000000000000000000000000000000000000000000815260040160405180910390fd5b3373ffffffffffffffffffffffffffffffffffffffff1661084682611f03565b73ffffffffffffffffffffffffffffffffffffffff1614610893576040517fd7c498bf00000000000000000000000000000000000000000000000000000000815260040160405180910390fd5b6000600660008367ffffffffffffffff1667ffffffffffffffff16815260200190815260200160002060000160109054906101000a90046fffffffffffffffffffffffffffffffff166fffffffffffffffffffffffffffffffff16905061093f333083600160009054906101000a900473ffffffffffffffffffffffffffffffffffffffff1673ffffffffffffffffffffffffffffffffffffffff16611d2b909392919063ffffffff16565b6001600760003373ffffffffffffffffffffffffffffffffffffffff1673ffffffffffffffffffffffffffffffffffffffff16815260200190815260200160002060008467ffffffffffffffff16815260200190815260200160002060006101000a81548160ff0219169083151502179055506003600660008467ffffffffffffffff1667ffffffffffffffff16815260200190815260200160002060000160006101000a81548160ff021916908360ff1602179055505050565b6000610a0582611f57565b90506000610a1283611f03565b90508173ffffffffffffffffffffffffffffffffffffffff163373ffffffffffffffffffffffffffffffffffffffff1614610a4c57600080fd5b60001515600760008373ffffffffffffffffffffffffffffffffffffffff1673ffffffffffffffffffffffffffffffffffffffff16815260200190815260200160002060008567ffffffffffffffff16815260200190815260200160002060009054906101000a900460ff16151514610ac457600080fd5b60001515600a60003373ffffffffffffffffffffffffffffffffffffffff1673ffffffffffffffffffffffffffffffffffffffff16815260200190815260200160002060008567ffffffffffffffff16815260200190815260200160002060009054906101000a900460ff16151514610b3c57600080fd5b8173ffffffffffffffffffffffffffffffffffffffff163373ffffffffffffffffffffffffffffffffffffffff1614610b7457600080fd5b6000600660008567ffffffffffffffff1667ffffffffffffffff16815260200190815260200160002060020160009054906101000a900473ffffffffffffffffffffffffffffffffffffffff1690506000610c5b600660008767ffffffffffffffff1667ffffffffffffffff16815260200190815260200160002060010160009054906101000a90046fffffffffffffffffffffffffffffffff16600660008867ffffffffffffffff1667ffffffffffffffff16815260200190815260200160002060000160109054906101000a90046fffffffffffffffffffffffffffffffff1661144d565b90506000610c6882611fab565b9050610c9530828573ffffffffffffffffffffffffffffffffffffffff166120529092919063ffffffff16565b610ccb858284610ca59190612930565b8573ffffffffffffffffffffffffffffffffffffffff166120529092919063ffffffff16565b6001600a60003373ffffffffffffffffffffffffffffffffffffffff1673ffffffffffffffffffffffffffffffffffffffff16815260200190815260200160002060008867ffffffffffffffff16815260200190815260200160002060006101000a81548160ff0219169083151502179055506001600660008867ffffffffffffffff1667ffffffffffffffff16815260200190815260200160002060000160009054906101000a900460ff1660ff1603610f4e5760001515600b60003373ffffffffffffffffffffffffffffffffffffffff1673ffffffffffffffffffffffffffffffffffffffff16815260200190815260200160002060008867ffffffffffffffff16815260200190815260200160002060009054906101000a900460ff16151514610df857600080fd5b6000600660008867ffffffffffffffff1667ffffffffffffffff16815260200190815260200160002060000160109054906101000a90046fffffffffffffffffffffffffffffffff16600660008967ffffffffffffffff1667ffffffffffffffff16815260200190815260200160002060010160009054906101000a90046fffffffffffffffffffffffffffffffff16610e929190612729565b6fffffffffffffffffffffffffffffffff169050610ed9610eb288611f57565b828673ffffffffffffffffffffffffffffffffffffffff166120529092919063ffffffff16565b6001600b60003373ffffffffffffffffffffffffffffffffffffffff1673ffffffffffffffffffffffffffffffffffffffff16815260200190815260200160002060008967ffffffffffffffff16815260200190815260200160002060006101000a81548160ff021916908315150217905550505b6005600660008867ffffffffffffffff1667ffffffffffffffff16815260200190815260200160002060000160006101000a81548160ff021916908360ff160217905550505050505050565b60086020528160005260406000206020528060005260406000206000915091509054906101000a900460ff1681565b6000600460009054906101000a900473ffffffffffffffffffffffffffffffffffffffff1673ffffffffffffffffffffffffffffffffffffffff16631698ee828585856040518463ffffffff1660e01b815260040161102a93929190612973565b602060405180830381865afa158015611047573d6000803e3d6000fd5b505050506040513d601f19601f8201168201806040525081019061106b91906129bf565b90509392505050565b600061107f82611f03565b90508073ffffffffffffffffffffffffffffffffffffffff163373ffffffffffffffffffffffffffffffffffffffff16146110b957600080fd5b600760008273ffffffffffffffffffffffffffffffffffffffff1673ffffffffffffffffffffffffffffffffffffffff16815260200190815260200160002060008367ffffffffffffffff16815260200190815260200160002060009054906101000a900460ff1661112a57600080fd5b60001515600960003373ffffffffffffffffffffffffffffffffffffffff1673ffffffffffffffffffffffffffffffffffffffff16815260200190815260200160002060008467ffffffffffffffff16815260200190815260200160002060009054906101000a900460ff161515146111a257600080fd5b6000600660008467ffffffffffffffff1667ffffffffffffffff16815260200190815260200160002060020160009054906101000a900473ffffffffffffffffffffffffffffffffffffffff1690506000600660008567ffffffffffffffff1667ffffffffffffffff16815260200190815260200160002060000160109054906101000a90046fffffffffffffffffffffffffffffffff16600660008667ffffffffffffffff1667ffffffffffffffff16815260200190815260200160002060010160009054906101000a90046fffffffffffffffffffffffffffffffff1661128b9190612729565b6fffffffffffffffffffffffffffffffff1690506000611337600660008767ffffffffffffffff1667ffffffffffffffff16815260200190815260200160002060010160009054906101000a90046fffffffffffffffffffffffffffffffff16600660008867ffffffffffffffff1667ffffffffffffffff16815260200190815260200160002060000160109054906101000a90046fffffffffffffffffffffffffffffffff1661144d565b9050600061134483611fab565b905061137130828673ffffffffffffffffffffffffffffffffffffffff166120529092919063ffffffff16565b6113a78582856113819190612930565b8673ffffffffffffffffffffffffffffffffffffffff166120529092919063ffffffff16565b6113d285838673ffffffffffffffffffffffffffffffffffffffff166120529092919063ffffffff16565b6001600960003373ffffffffffffffffffffffffffffffffffffffff1673ffffffffffffffffffffffffffffffffffffffff16815260200190815260200160002060008867ffffffffffffffff16815260200190815260200160002060006101000a81548160ff021916908315150217905550505050505050565b600080828461145c9190612729565b6fffffffffffffffffffffffffffffffff16905068056bc75e2d6310000081101580156114915750683635c9adc5dea0000081105b156114b75760646032826114a591906129ec565b6114af9190612a5d565b915050611564565b683635c9adc5dea0000081101580156114d9575069021e19e0c9bab240000081105b156114ff5760646028826114ed91906129ec565b6114f79190612a5d565b915050611564565b69021e19e0c9bab240000081111561153257606460198261152091906129ec565b61152a9190612a5d565b915050611564565b6040517fe008b5f900000000000000000000000000000000000000000000000000000000815260040160405180910390fd5b92915050565b600a6020528160005260406000206020528060005260406000206000915091509054906101000a900460ff1681565b60006115a482611f57565b90508073ffffffffffffffffffffffffffffffffffffffff163373ffffffffffffffffffffffffffffffffffffffff161461160b576040517f472e017e00000000000000000000000000000000000000000000000000000000815260040160405180910390fd5b6003600660008467ffffffffffffffff1667ffffffffffffffff16815260200190815260200160002060000160009054906101000a900460ff1660ff161461167f576040517fde4461cd00000000000000000000000000000000000000000000000000000000815260040160405180910390fd5b6000600660008467ffffffffffffffff1667ffffffffffffffff16815260200190815260200160002060000160109054906101000a90046fffffffffffffffffffffffffffffffff1690506000600660008567ffffffffffffffff1667ffffffffffffffff16815260200190815260200160002060010160009054906101000a90046fffffffffffffffffffffffffffffffff169050600061173d82846117269190612729565b6fffffffffffffffffffffffffffffffff16611fab565b905061178c3082600160009054906101000a900473ffffffffffffffffffffffffffffffffffffffff1673ffffffffffffffffffffffffffffffffffffffff166120529092919063ffffffff16565b6117f68482856fffffffffffffffffffffffffffffffff166117ae9190612930565b600160009054906101000a900473ffffffffffffffffffffffffffffffffffffffff1673ffffffffffffffffffffffffffffffffffffffff166120529092919063ffffffff16565b6004600660008767ffffffffffffffff1667ffffffffffffffff16815260200190815260200160002060000160006101000a81548160ff021916908360ff1602179055505050505050565b50565b6000600660008467ffffffffffffffff1667ffffffffffffffff168152602001908152602001600020604051806101000160405290816000820160009054906101000a900460ff1660ff1660ff1681526020016000820160019054906101000a900467ffffffffffffffff1667ffffffffffffffff1667ffffffffffffffff1681526020016000820160099054906101000a900466ffffffffffffff1666ffffffffffffff1666ffffffffffffff1681526020016000820160109054906101000a90046fffffffffffffffffffffffffffffffff166fffffffffffffffffffffffffffffffff166fffffffffffffffffffffffffffffffff1681526020016001820160009054906101000a90046fffffffffffffffffffffffffffffffff166fffffffffffffffffffffffffffffffff166fffffffffffffffffffffffffffffffff1681526020016002820160009054906101000a900473ffffffffffffffffffffffffffffffffffffffff1673ffffffffffffffffffffffffffffffffffffffff1673ffffffffffffffffffffffffffffffffffffffff1681526020016003820160009054906101000a900473ffffffffffffffffffffffffffffffffffffffff1673ffffffffffffffffffffffffffffffffffffffff1673ffffffffffffffffffffffffffffffffffffffff1681526020016004820160009054906101000a900473ffffffffffffffffffffffffffffffffffffffff1673ffffffffffffffffffffffffffffffffffffffff1673ffffffffffffffffffffffffffffffffffffffff168152505090506001816000015160ff1614611aa357600080fd5b60008160a0015190506000611abb82856103e8610fc9565b90506000611ad18460800151856060015161144d565b9050611b003330838673ffffffffffffffffffffffffffffffffffffffff16611d2b909392919063ffffffff16565b611b2b82828573ffffffffffffffffffffffffffffffffffffffff16611db49092919063ffffffff16565b611b583083838673ffffffffffffffffffffffffffffffffffffffff16611d2b909392919063ffffffff16565b600360009054906101000a900473ffffffffffffffffffffffffffffffffffffffff1673ffffffffffffffffffffffffffffffffffffffff1663e8e3370084878460006103e8600030610e1042611baf9190612766565b6040518963ffffffff1660e01b8152600401611bd298979695949392919061281a565b6060604051808303816000875af1158015611bf1573d6000803e3d6000fd5b505050506040513d601f19601f82011682018060405250810190611c1591906128ad565b50505033600660008867ffffffffffffffff1667ffffffffffffffff16815260200190815260200160002060040160006101000a81548173ffffffffffffffffffffffffffffffffffffffff021916908373ffffffffffffffffffffffffffffffffffffffff1602179055506002600660008867ffffffffffffffff1667ffffffffffffffff16815260200190815260200160002060000160006101000a81548160ff021916908360ff160217905550505050505050565b60096020528160005260406000206020528060005260406000206000915091509054906101000a900460ff1681565b600b6020528160005260406000206020528060005260406000206000915091509054906101000a900460ff1681565b611dae846323b872dd60e01b858585604051602401611d4c93929190612a8e565b604051602081830303815290604052907bffffffffffffffffffffffffffffffffffffffffffffffffffffffff19166020820180517bffffffffffffffffffffffffffffffffffffffffffffffffffffffff83818316178352505050506120d8565b50505050565b6000811480611e3e575060008373ffffffffffffffffffffffffffffffffffffffff1663dd62ed3e30856040518363ffffffff1660e01b8152600401611dfb929190612ac5565b602060405180830381865afa158015611e18573d6000803e3d6000fd5b505050506040513d601f19601f82011682018060405250810190611e3c9190612aee565b145b611e7d576040517f08c379a0000000000000000000000000000000000000000000000000000000008152600401611e7490612b9e565b60405180910390fd5b611efe8363095ea7b360e01b8484604051602401611e9c929190612bbe565b604051602081830303815290604052907bffffffffffffffffffffffffffffffffffffffffffffffffffffffff19166020820180517bffffffffffffffffffffffffffffffffffffffffffffffffffffffff83818316178352505050506120d8565b505050565b6000600660008367ffffffffffffffff1667ffffffffffffffff16815260200190815260200160002060040160009054906101000a900473ffffffffffffffffffffffffffffffffffffffff169050919050565b6000600660008367ffffffffffffffff1667ffffffffffffffff16815260200190815260200160002060030160009054906101000a900473ffffffffffffffffffffffffffffffffffffffff169050919050565b600068056bc75e2d631000008210158015611fce5750683635c9adc5dea0000082105b15611fe757606482611fe09190612a5d565b905061204d565b683635c9adc5dea000008210158015612009575069021e19e0c9bab240000082105b156120225760c88261201b9190612a5d565b905061204d565b69021e19e0c9bab2400000821061204857610190826120419190612a5d565b905061204d565b600090505b919050565b6120d38363a9059cbb60e01b8484604051602401612071929190612bbe565b604051602081830303815290604052907bffffffffffffffffffffffffffffffffffffffffffffffffffffffff19166020820180517bffffffffffffffffffffffffffffffffffffffffffffffffffffffff83818316178352505050506120d8565b505050565b600061213a826040518060400160405280602081526020017f5361666545524332303a206c6f772d6c6576656c2063616c6c206661696c65648152508573ffffffffffffffffffffffffffffffffffffffff166121a09092919063ffffffff16565b905060008151148061215c57508080602001905181019061215b9190612c13565b5b61219b576040517f08c379a000000000000000000000000000000000000000000000000000000000815260040161219290612cb2565b60405180910390fd5b505050565b60606121af84846000856121b8565b90509392505050565b6060824710156121fd576040517f08c379a00000000000000000000000000000000000000000000000000000000081526004016121f490612d44565b60405180910390fd5b6000808673ffffffffffffffffffffffffffffffffffffffff1685876040516122269190612dd5565b60006040518083038185875af1925050503d8060008114612263576040519150601f19603f3d011682016040523d82523d6000602084013e612268565b606091505b509150915061227987838387612285565b92505050949350505050565b606083156122e75760008351036122df5761229f856122fa565b6122de576040517f08c379a00000000000000000000000000000000000000000000000000000000081526004016122d590612e38565b60405180910390fd5b5b8290506122f2565b6122f1838361231d565b5b949350505050565b6000808273ffffffffffffffffffffffffffffffffffffffff163b119050919050565b6000825111156123305781518083602001fd5b806040517f08c379a00000000000000000000000000000000000000000000000000000000081526004016123649190612ead565b60405180910390fd5b600080fd5b600073ffffffffffffffffffffffffffffffffffffffff82169050919050565b600061239d82612372565b9050919050565b6123ad81612392565b81146123b857600080fd5b50565b6000813590506123ca816123a4565b92915050565b60006fffffffffffffffffffffffffffffffff82169050919050565b6123f5816123d0565b811461240057600080fd5b50565b600081359050612412816123ec565b92915050565b600080600080608085870312156124325761243161236d565b5b6000612440878288016123bb565b9450506020612451878288016123bb565b935050604061246287828801612403565b925050606061247387828801612403565b91505092959194509250565b600067ffffffffffffffff82169050919050565b61249c8161247f565b81146124a757600080fd5b50565b6000813590506124b981612493565b92915050565b6000602082840312156124d5576124d461236d565b5b60006124e3848285016124aa565b91505092915050565b6000819050919050565b6124ff816124ec565b811461250a57600080fd5b50565b60008135905061251c816124f6565b92915050565b600080604083850312156125395761253861236d565b5b6000612547858286016123bb565b92505060206125588582860161250d565b9150509250929050565b60008115159050919050565b61257781612562565b82525050565b6000602082019050612592600083018461256e565b92915050565b600062ffffff82169050919050565b6125b081612598565b81146125bb57600080fd5b50565b6000813590506125cd816125a7565b92915050565b6000806000606084860312156125ec576125eb61236d565b5b60006125fa868287016123bb565b935050602061260b868287016123bb565b925050604061261c868287016125be565b9150509250925092565b61262f81612392565b82525050565b600060208201905061264a6000830184612626565b92915050565b600080604083850312156126675761266661236d565b5b600061267585828601612403565b925050602061268685828601612403565b9150509250929050565b612699816124ec565b82525050565b60006020820190506126b46000830184612690565b92915050565b600080604083850312156126d1576126d061236d565b5b60006126df858286016124aa565b92505060206126f0858286016123bb565b9150509250929050565b7f4e487b7100000000000000000000000000000000000000000000000000000000600052601160045260246000fd5b6000612734826123d0565b915061273f836123d0565b925082820261274d816123d0565b915080821461275f5761275e6126fa565b5b5092915050565b6000612771826124ec565b915061277c836124ec565b9250828201905080821115612794576127936126fa565b5b92915050565b6000819050919050565b6000819050919050565b60006127c96127c46127bf8461279a565b6127a4565b6124ec565b9050919050565b6127d9816127ae565b82525050565b6000819050919050565b60006128046127ff6127fa846127df565b6127a4565b6124ec565b9050919050565b612814816127e9565b82525050565b600061010082019050612830600083018b612626565b61283d602083018a612626565b61284a6040830189612690565b61285760608301886127d0565b612864608083018761280b565b61287160a08301866127d0565b61287e60c0830185612626565b61288b60e0830184612690565b9998505050505050505050565b6000815190506128a7816124f6565b92915050565b6000806000606084860312156128c6576128c561236d565b5b60006128d486828701612898565b93505060206128e586828701612898565b92505060406128f686828701612898565b9150509250925092565b600061290b8261247f565b915067ffffffffffffffff8203612925576129246126fa565b5b600182019050919050565b600061293b826124ec565b9150612946836124ec565b925082820390508181111561295e5761295d6126fa565b5b92915050565b61296d81612598565b82525050565b60006060820190506129886000830186612626565b6129956020830185612626565b6129a26040830184612964565b949350505050565b6000815190506129b9816123a4565b92915050565b6000602082840312156129d5576129d461236d565b5b60006129e3848285016129aa565b91505092915050565b60006129f7826124ec565b9150612a02836124ec565b9250828202612a10816124ec565b91508282048414831517612a2757612a266126fa565b5b5092915050565b7f4e487b7100000000000000000000000000000000000000000000000000000000600052601260045260246000fd5b6000612a68826124ec565b9150612a73836124ec565b925082612a8357612a82612a2e565b5b828204905092915050565b6000606082019050612aa36000830186612626565b612ab06020830185612626565b612abd6040830184612690565b949350505050565b6000604082019050612ada6000830185612626565b612ae76020830184612626565b9392505050565b600060208284031215612b0457612b0361236d565b5b6000612b1284828501612898565b91505092915050565b600082825260208201905092915050565b7f5361666545524332303a20617070726f76652066726f6d206e6f6e2d7a65726f60008201527f20746f206e6f6e2d7a65726f20616c6c6f77616e636500000000000000000000602082015250565b6000612b88603683612b1b565b9150612b9382612b2c565b604082019050919050565b60006020820190508181036000830152612bb781612b7b565b9050919050565b6000604082019050612bd36000830185612626565b612be06020830184612690565b9392505050565b612bf081612562565b8114612bfb57600080fd5b50565b600081519050612c0d81612be7565b92915050565b600060208284031215612c2957612c2861236d565b5b6000612c3784828501612bfe565b91505092915050565b7f5361666545524332303a204552433230206f7065726174696f6e20646964206e60008201527f6f74207375636365656400000000000000000000000000000000000000000000602082015250565b6000612c9c602a83612b1b565b9150612ca782612c40565b604082019050919050565b60006020820190508181036000830152612ccb81612c8f565b9050919050565b7f416464726573733a20696e73756666696369656e742062616c616e636520666f60008201527f722063616c6c0000000000000000000000000000000000000000000000000000602082015250565b6000612d2e602683612b1b565b9150612d3982612cd2565b604082019050919050565b60006020820190508181036000830152612d5d81612d21565b9050919050565b600081519050919050565b600081905092915050565b60005b83811015612d98578082015181840152602081019050612d7d565b60008484015250505050565b6000612daf82612d64565b612db98185612d6f565b9350612dc9818560208601612d7a565b80840191505092915050565b6000612de18284612da4565b915081905092915050565b7f416464726573733a2063616c6c20746f206e6f6e2d636f6e7472616374000000600082015250565b6000612e22601d83612b1b565b9150612e2d82612dec565b602082019050919050565b60006020820190508181036000830152612e5181612e15565b9050919050565b600081519050919050565b6000601f19601f8301169050919050565b6000612e7f82612e58565b612e898185612b1b565b9350612e99818560208601612d7a565b612ea281612e63565b840191505092915050565b60006020820190508181036000830152612ec78184612e74565b90509291505056fea26469706673582212201c9df1b035e4fabdd704b7c1b9093b589a4419f25669a21492bb2f973d19f01864736f6c63430008130033",
					"opcodes": "PUSH1 0x80 PUSH1 0x40 MSTORE PUSH20 0x1F98431C8AD98523631AE4A59F267346EA31F984 PUSH1 0x4 PUSH1 0x0 PUSH2 0x100 EXP DUP2 SLOAD DUP2 PUSH20 0xFFFFFFFFFFFFFFFFFFFFFFFFFFFFFFFFFFFFFFFF MUL NOT AND SWAP1 DUP4 PUSH20 0xFFFFFFFFFFFFFFFFFFFFFFFFFFFFFFFFFFFFFFFF AND MUL OR SWAP1 SSTORE POP PUSH20 0xC36442B4A4522E871399CD717ABDD847AB11FE88 PUSH1 0x5 PUSH1 0x0 PUSH2 0x100 EXP DUP2 SLOAD DUP2 PUSH20 0xFFFFFFFFFFFFFFFFFFFFFFFFFFFFFFFFFFFFFFFF MUL NOT AND SWAP1 DUP4 PUSH20 0xFFFFFFFFFFFFFFFFFFFFFFFFFFFFFFFFFFFFFFFF AND MUL OR SWAP1 SSTORE POP CALLVALUE DUP1 ISZERO PUSH3 0xBB JUMPI PUSH1 0x0 DUP1 REVERT JUMPDEST POP PUSH1 0x40 MLOAD PUSH3 0x3151 CODESIZE SUB DUP1 PUSH3 0x3151 DUP4 CODECOPY DUP2 DUP2 ADD PUSH1 0x40 MSTORE DUP2 ADD SWAP1 PUSH3 0xE1 SWAP2 SWAP1 PUSH3 0x1F5 JUMP JUMPDEST DUP2 PUSH1 0x1 PUSH1 0x0 PUSH2 0x100 EXP DUP2 SLOAD DUP2 PUSH20 0xFFFFFFFFFFFFFFFFFFFFFFFFFFFFFFFFFFFFFFFF MUL NOT AND SWAP1 DUP4 PUSH20 0xFFFFFFFFFFFFFFFFFFFFFFFFFFFFFFFFFFFFFFFF AND MUL OR SWAP1 SSTORE POP DUP1 PUSH1 0x0 DUP1 PUSH2 0x100 EXP DUP2 SLOAD DUP2 PUSH7 0xFFFFFFFFFFFFFF MUL NOT AND SWAP1 DUP4 PUSH7 0xFFFFFFFFFFFFFF AND MUL OR SWAP1 SSTORE POP POP POP PUSH3 0x23C JUMP JUMPDEST PUSH1 0x0 DUP1 REVERT JUMPDEST PUSH1 0x0 PUSH20 0xFFFFFFFFFFFFFFFFFFFFFFFFFFFFFFFFFFFFFFFF DUP3 AND SWAP1 POP SWAP2 SWAP1 POP JUMP JUMPDEST PUSH1 0x0 PUSH3 0x182 DUP3 PUSH3 0x155 JUMP JUMPDEST SWAP1 POP SWAP2 SWAP1 POP JUMP JUMPDEST PUSH3 0x194 DUP2 PUSH3 0x175 JUMP JUMPDEST DUP2 EQ PUSH3 0x1A0 JUMPI PUSH1 0x0 DUP1 REVERT JUMPDEST POP JUMP JUMPDEST PUSH1 0x0 DUP2 MLOAD SWAP1 POP PUSH3 0x1B4 DUP2 PUSH3 0x189 JUMP JUMPDEST SWAP3 SWAP2 POP POP JUMP JUMPDEST PUSH1 0x0 DUP2 SWAP1 POP SWAP2 SWAP1 POP JUMP JUMPDEST PUSH3 0x1CF DUP2 PUSH3 0x1BA JUMP JUMPDEST DUP2 EQ PUSH3 0x1DB JUMPI PUSH1 0x0 DUP1 REVERT JUMPDEST POP JUMP JUMPDEST PUSH1 0x0 DUP2 MLOAD SWAP1 POP PUSH3 0x1EF DUP2 PUSH3 0x1C4 JUMP JUMPDEST SWAP3 SWAP2 POP POP JUMP JUMPDEST PUSH1 0x0 DUP1 PUSH1 0x40 DUP4 DUP6 SUB SLT ISZERO PUSH3 0x20F JUMPI PUSH3 0x20E PUSH3 0x150 JUMP JUMPDEST JUMPDEST PUSH1 0x0 PUSH3 0x21F DUP6 DUP3 DUP7 ADD PUSH3 0x1A3 JUMP JUMPDEST SWAP3 POP POP PUSH1 0x20 PUSH3 0x232 DUP6 DUP3 DUP7 ADD PUSH3 0x1DE JUMP JUMPDEST SWAP2 POP POP SWAP3 POP SWAP3 SWAP1 POP JUMP JUMPDEST PUSH2 0x2F05 DUP1 PUSH3 0x24C PUSH1 0x0 CODECOPY PUSH1 0x0 RETURN INVALID PUSH1 0x80 PUSH1 0x40 MSTORE CALLVALUE DUP1 ISZERO PUSH2 0x10 JUMPI PUSH1 0x0 DUP1 REVERT JUMPDEST POP PUSH1 0x4 CALLDATASIZE LT PUSH2 0xCF JUMPI PUSH1 0x0 CALLDATALOAD PUSH1 0xE0 SHR DUP1 PUSH4 0x98C50FDD GT PUSH2 0x8C JUMPI DUP1 PUSH4 0xC3CF1AA6 GT PUSH2 0x66 JUMPI DUP1 PUSH4 0xC3CF1AA6 EQ PUSH2 0x220 JUMPI DUP1 PUSH4 0xD91AF492 EQ PUSH2 0x23C JUMPI DUP1 PUSH4 0xDF0905C6 EQ PUSH2 0x258 JUMPI DUP1 PUSH4 0xFC993EA8 EQ PUSH2 0x288 JUMPI PUSH2 0xCF JUMP JUMPDEST DUP1 PUSH4 0x98C50FDD EQ PUSH2 0x1A4 JUMPI DUP1 PUSH4 0xB8D7F980 EQ PUSH2 0x1D4 JUMPI DUP1 PUSH4 0xC0102DE4 EQ PUSH2 0x204 JUMPI PUSH2 0xCF JUMP JUMPDEST DUP1 PUSH4 0xD45431D EQ PUSH2 0xD4 JUMPI DUP1 PUSH4 0x25AC3A73 EQ PUSH2 0xF0 JUMPI DUP1 PUSH4 0x2895CB7B EQ PUSH2 0x10C JUMPI DUP1 PUSH4 0x59DE2F60 EQ PUSH2 0x128 JUMPI DUP1 PUSH4 0x696D6283 EQ PUSH2 0x158 JUMPI DUP1 PUSH4 0x77BCD8A6 EQ PUSH2 0x188 JUMPI JUMPDEST PUSH1 0x0 DUP1 REVERT JUMPDEST PUSH2 0xEE PUSH1 0x4 DUP1 CALLDATASIZE SUB DUP2 ADD SWAP1 PUSH2 0xE9 SWAP2 SWAP1 PUSH2 0x2418 JUMP JUMPDEST PUSH2 0x2B8 JUMP JUMPDEST STOP JUMPDEST PUSH2 0x10A PUSH1 0x4 DUP1 CALLDATASIZE SUB DUP2 ADD SWAP1 PUSH2 0x105 SWAP2 SWAP1 PUSH2 0x24BF JUMP JUMPDEST PUSH2 0x77D JUMP JUMPDEST STOP JUMPDEST PUSH2 0x126 PUSH1 0x4 DUP1 CALLDATASIZE SUB DUP2 ADD SWAP1 PUSH2 0x121 SWAP2 SWAP1 PUSH2 0x24BF JUMP JUMPDEST PUSH2 0x9FA JUMP JUMPDEST STOP JUMPDEST PUSH2 0x142 PUSH1 0x4 DUP1 CALLDATASIZE SUB DUP2 ADD SWAP1 PUSH2 0x13D SWAP2 SWAP1 PUSH2 0x2522 JUMP JUMPDEST PUSH2 0xF9A JUMP JUMPDEST PUSH1 0x40 MLOAD PUSH2 0x14F SWAP2 SWAP1 PUSH2 0x257D JUMP JUMPDEST PUSH1 0x40 MLOAD DUP1 SWAP2 SUB SWAP1 RETURN JUMPDEST PUSH2 0x172 PUSH1 0x4 DUP1 CALLDATASIZE SUB DUP2 ADD SWAP1 PUSH2 0x16D SWAP2 SWAP1 PUSH2 0x25D3 JUMP JUMPDEST PUSH2 0xFC9 JUMP JUMPDEST PUSH1 0x40 MLOAD PUSH2 0x17F SWAP2 SWAP1 PUSH2 0x2635 JUMP JUMPDEST PUSH1 0x40 MLOAD DUP1 SWAP2 SUB SWAP1 RETURN JUMPDEST PUSH2 0x1A2 PUSH1 0x4 DUP1 CALLDATASIZE SUB DUP2 ADD SWAP1 PUSH2 0x19D SWAP2 SWAP1 PUSH2 0x24BF JUMP JUMPDEST PUSH2 0x1074 JUMP JUMPDEST STOP JUMPDEST PUSH2 0x1BE PUSH1 0x4 DUP1 CALLDATASIZE SUB DUP2 ADD SWAP1 PUSH2 0x1B9 SWAP2 SWAP1 PUSH2 0x2650 JUMP JUMPDEST PUSH2 0x144D JUMP JUMPDEST PUSH1 0x40 MLOAD PUSH2 0x1CB SWAP2 SWAP1 PUSH2 0x269F JUMP JUMPDEST PUSH1 0x40 MLOAD DUP1 SWAP2 SUB SWAP1 RETURN JUMPDEST PUSH2 0x1EE PUSH1 0x4 DUP1 CALLDATASIZE SUB DUP2 ADD SWAP1 PUSH2 0x1E9 SWAP2 SWAP1 PUSH2 0x2522 JUMP JUMPDEST PUSH2 0x156A JUMP JUMPDEST PUSH1 0x40 MLOAD PUSH2 0x1FB SWAP2 SWAP1 PUSH2 0x257D JUMP JUMPDEST PUSH1 0x40 MLOAD DUP1 SWAP2 SUB SWAP1 RETURN JUMPDEST PUSH2 0x21E PUSH1 0x4 DUP1 CALLDATASIZE SUB DUP2 ADD SWAP1 PUSH2 0x219 SWAP2 SWAP1 PUSH2 0x24BF JUMP JUMPDEST PUSH2 0x1599 JUMP JUMPDEST STOP JUMPDEST PUSH2 0x23A PUSH1 0x4 DUP1 CALLDATASIZE SUB DUP2 ADD SWAP1 PUSH2 0x235 SWAP2 SWAP1 PUSH2 0x24BF JUMP JUMPDEST PUSH2 0x1841 JUMP JUMPDEST STOP JUMPDEST PUSH2 0x256 PUSH1 0x4 DUP1 CALLDATASIZE SUB DUP2 ADD SWAP1 PUSH2 0x251 SWAP2 SWAP1 PUSH2 0x26BA JUMP JUMPDEST PUSH2 0x1844 JUMP JUMPDEST STOP JUMPDEST PUSH2 0x272 PUSH1 0x4 DUP1 CALLDATASIZE SUB DUP2 ADD SWAP1 PUSH2 0x26D SWAP2 SWAP1 PUSH2 0x2522 JUMP JUMPDEST PUSH2 0x1CCD JUMP JUMPDEST PUSH1 0x40 MLOAD PUSH2 0x27F SWAP2 SWAP1 PUSH2 0x257D JUMP JUMPDEST PUSH1 0x40 MLOAD DUP1 SWAP2 SUB SWAP1 RETURN JUMPDEST PUSH2 0x2A2 PUSH1 0x4 DUP1 CALLDATASIZE SUB DUP2 ADD SWAP1 PUSH2 0x29D SWAP2 SWAP1 PUSH2 0x2522 JUMP JUMPDEST PUSH2 0x1CFC JUMP JUMPDEST PUSH1 0x40 MLOAD PUSH2 0x2AF SWAP2 SWAP1 PUSH2 0x257D JUMP JUMPDEST PUSH1 0x40 MLOAD DUP1 SWAP2 SUB SWAP1 RETURN JUMPDEST PUSH1 0x0 DUP2 DUP4 PUSH2 0x2C6 SWAP2 SWAP1 PUSH2 0x2729 JUMP JUMPDEST PUSH16 0xFFFFFFFFFFFFFFFFFFFFFFFFFFFFFFFF AND SWAP1 POP PUSH1 0x0 PUSH2 0x2E9 DUP7 DUP7 PUSH2 0x3E8 PUSH2 0xFC9 JUMP JUMPDEST SWAP1 POP PUSH9 0x56BC75E2D63100000 DUP3 LT ISZERO PUSH2 0x32E JUMPI PUSH1 0x40 MLOAD PUSH32 0xE008B5F900000000000000000000000000000000000000000000000000000000 DUP2 MSTORE PUSH1 0x4 ADD PUSH1 0x40 MLOAD DUP1 SWAP2 SUB SWAP1 REVERT JUMPDEST PUSH1 0x0 PUSH1 0x40 MLOAD DUP1 PUSH2 0x100 ADD PUSH1 0x40 MSTORE DUP1 PUSH1 0x1 PUSH1 0xFF AND DUP2 MSTORE PUSH1 0x20 ADD PUSH1 0x0 PUSH1 0x7 SWAP1 SLOAD SWAP1 PUSH2 0x100 EXP SWAP1 DIV PUSH8 0xFFFFFFFFFFFFFFFF AND PUSH8 0xFFFFFFFFFFFFFFFF AND DUP2 MSTORE PUSH1 0x20 ADD TIMESTAMP PUSH7 0xFFFFFFFFFFFFFF AND DUP2 MSTORE PUSH1 0x20 ADD DUP7 PUSH16 0xFFFFFFFFFFFFFFFFFFFFFFFFFFFFFFFF AND DUP2 MSTORE PUSH1 0x20 ADD DUP6 PUSH16 0xFFFFFFFFFFFFFFFFFFFFFFFFFFFFFFFF AND DUP2 MSTORE PUSH1 0x20 ADD DUP9 PUSH20 0xFFFFFFFFFFFFFFFFFFFFFFFFFFFFFFFFFFFFFFFF AND DUP2 MSTORE PUSH1 0x20 ADD CALLER PUSH20 0xFFFFFFFFFFFFFFFFFFFFFFFFFFFFFFFFFFFFFFFF AND DUP2 MSTORE PUSH1 0x20 ADD ADDRESS PUSH20 0xFFFFFFFFFFFFFFFFFFFFFFFFFFFFFFFFFFFFFFFF AND DUP2 MSTORE POP SWAP1 POP DUP1 PUSH1 0x6 PUSH1 0x0 DUP1 PUSH1 0x7 SWAP1 SLOAD SWAP1 PUSH2 0x100 EXP SWAP1 DIV PUSH8 0xFFFFFFFFFFFFFFFF AND PUSH8 0xFFFFFFFFFFFFFFFF AND PUSH8 0xFFFFFFFFFFFFFFFF AND DUP2 MSTORE PUSH1 0x20 ADD SWAP1 DUP2 MSTORE PUSH1 0x20 ADD PUSH1 0x0 KECCAK256 PUSH1 0x0 DUP3 ADD MLOAD DUP2 PUSH1 0x0 ADD PUSH1 0x0 PUSH2 0x100 EXP DUP2 SLOAD DUP2 PUSH1 0xFF MUL NOT AND SWAP1 DUP4 PUSH1 0xFF AND MUL OR SWAP1 SSTORE POP PUSH1 0x20 DUP3 ADD MLOAD DUP2 PUSH1 0x0 ADD PUSH1 0x1 PUSH2 0x100 EXP DUP2 SLOAD DUP2 PUSH8 0xFFFFFFFFFFFFFFFF MUL NOT AND SWAP1 DUP4 PUSH8 0xFFFFFFFFFFFFFFFF AND MUL OR SWAP1 SSTORE POP PUSH1 0x40 DUP3 ADD MLOAD DUP2 PUSH1 0x0 ADD PUSH1 0x9 PUSH2 0x100 EXP DUP2 SLOAD DUP2 PUSH7 0xFFFFFFFFFFFFFF MUL NOT AND SWAP1 DUP4 PUSH7 0xFFFFFFFFFFFFFF AND MUL OR SWAP1 SSTORE POP PUSH1 0x60 DUP3 ADD MLOAD DUP2 PUSH1 0x0 ADD PUSH1 0x10 PUSH2 0x100 EXP DUP2 SLOAD DUP2 PUSH16 0xFFFFFFFFFFFFFFFFFFFFFFFFFFFFFFFF MUL NOT AND SWAP1 DUP4 PUSH16 0xFFFFFFFFFFFFFFFFFFFFFFFFFFFFFFFF AND MUL OR SWAP1 SSTORE POP PUSH1 0x80 DUP3 ADD MLOAD DUP2 PUSH1 0x1 ADD PUSH1 0x0 PUSH2 0x100 EXP DUP2 SLOAD DUP2 PUSH16 0xFFFFFFFFFFFFFFFFFFFFFFFFFFFFFFFF MUL NOT AND SWAP1 DUP4 PUSH16 0xFFFFFFFFFFFFFFFFFFFFFFFFFFFFFFFF AND MUL OR SWAP1 SSTORE POP PUSH1 0xA0 DUP3 ADD MLOAD DUP2 PUSH1 0x2 ADD PUSH1 0x0 PUSH2 0x100 EXP DUP2 SLOAD DUP2 PUSH20 0xFFFFFFFFFFFFFFFFFFFFFFFFFFFFFFFFFFFFFFFF MUL NOT AND SWAP1 DUP4 PUSH20 0xFFFFFFFFFFFFFFFFFFFFFFFFFFFFFFFFFFFFFFFF AND MUL OR SWAP1 SSTORE POP PUSH1 0xC0 DUP3 ADD MLOAD DUP2 PUSH1 0x3 ADD PUSH1 0x0 PUSH2 0x100 EXP DUP2 SLOAD DUP2 PUSH20 0xFFFFFFFFFFFFFFFFFFFFFFFFFFFFFFFFFFFFFFFF MUL NOT AND SWAP1 DUP4 PUSH20 0xFFFFFFFFFFFFFFFFFFFFFFFFFFFFFFFFFFFFFFFF AND MUL OR SWAP1 SSTORE POP PUSH1 0xE0 DUP3 ADD MLOAD DUP2 PUSH1 0x4 ADD PUSH1 0x0 PUSH2 0x100 EXP DUP2 SLOAD DUP2 PUSH20 0xFFFFFFFFFFFFFFFFFFFFFFFFFFFFFFFFFFFFFFFF MUL NOT AND SWAP1 DUP4 PUSH20 0xFFFFFFFFFFFFFFFFFFFFFFFFFFFFFFFFFFFFFFFF AND MUL OR SWAP1 SSTORE POP SWAP1 POP POP PUSH2 0x63C CALLER ADDRESS DUP6 DUP11 PUSH20 0xFFFFFFFFFFFFFFFFFFFFFFFFFFFFFFFFFFFFFFFF AND PUSH2 0x1D2B SWAP1 SWAP4 SWAP3 SWAP2 SWAP1 PUSH4 0xFFFFFFFF AND JUMP JUMPDEST PUSH2 0x667 DUP3 DUP5 DUP10 PUSH20 0xFFFFFFFFFFFFFFFFFFFFFFFFFFFFFFFFFFFFFFFF AND PUSH2 0x1DB4 SWAP1 SWAP3 SWAP2 SWAP1 PUSH4 0xFFFFFFFF AND JUMP JUMPDEST PUSH1 0x3 PUSH1 0x0 SWAP1 SLOAD SWAP1 PUSH2 0x100 EXP SWAP1 DIV PUSH20 0xFFFFFFFFFFFFFFFFFFFFFFFFFFFFFFFFFFFFFFFF AND PUSH20 0xFFFFFFFFFFFFFFFFFFFFFFFFFFFFFFFFFFFFFFFF AND PUSH4 0xE8E33700 DUP9 DUP9 DUP7 PUSH1 0x0 PUSH2 0x3E8 PUSH1 0x0 ADDRESS PUSH2 0xE10 TIMESTAMP PUSH2 0x6BE SWAP2 SWAP1 PUSH2 0x2766 JUMP JUMPDEST PUSH1 0x40 MLOAD DUP10 PUSH4 0xFFFFFFFF AND PUSH1 0xE0 SHL DUP2 MSTORE PUSH1 0x4 ADD PUSH2 0x6E1 SWAP9 SWAP8 SWAP7 SWAP6 SWAP5 SWAP4 SWAP3 SWAP2 SWAP1 PUSH2 0x281A JUMP JUMPDEST PUSH1 0x60 PUSH1 0x40 MLOAD DUP1 DUP4 SUB DUP2 PUSH1 0x0 DUP8 GAS CALL ISZERO DUP1 ISZERO PUSH2 0x700 JUMPI RETURNDATASIZE PUSH1 0x0 DUP1 RETURNDATACOPY RETURNDATASIZE PUSH1 0x0 REVERT JUMPDEST POP POP POP POP PUSH1 0x40 MLOAD RETURNDATASIZE PUSH1 0x1F NOT PUSH1 0x1F DUP3 ADD AND DUP3 ADD DUP1 PUSH1 0x40 MSTORE POP DUP2 ADD SWAP1 PUSH2 0x724 SWAP2 SWAP1 PUSH2 0x28AD JUMP JUMPDEST POP POP POP PUSH1 0x0 PUSH1 0x7 DUP2 DUP2 SWAP1 SLOAD SWAP1 PUSH2 0x100 EXP SWAP1 DIV PUSH8 0xFFFFFFFFFFFFFFFF AND DUP1 SWAP3 SWAP2 SWAP1 PUSH2 0x74D SWAP1 PUSH2 0x2900 JUMP JUMPDEST SWAP2 SWAP1 PUSH2 0x100 EXP DUP2 SLOAD DUP2 PUSH8 0xFFFFFFFFFFFFFFFF MUL NOT AND SWAP1 DUP4 PUSH8 0xFFFFFFFFFFFFFFFF AND MUL OR SWAP1 SSTORE POP POP POP POP POP POP POP POP POP JUMP JUMPDEST PUSH1 0x0 PUSH1 0x7 PUSH1 0x0 CALLER PUSH20 0xFFFFFFFFFFFFFFFFFFFFFFFFFFFFFFFFFFFFFFFF AND PUSH20 0xFFFFFFFFFFFFFFFFFFFFFFFFFFFFFFFFFFFFFFFF AND DUP2 MSTORE PUSH1 0x20 ADD SWAP1 DUP2 MSTORE PUSH1 0x20 ADD PUSH1 0x0 KECCAK256 PUSH1 0x0 DUP4 PUSH8 0xFFFFFFFFFFFFFFFF AND DUP2 MSTORE PUSH1 0x20 ADD SWAP1 DUP2 MSTORE PUSH1 0x20 ADD PUSH1 0x0 KECCAK256 PUSH1 0x0 PUSH2 0x100 EXP DUP2 SLOAD DUP2 PUSH1 0xFF MUL NOT AND SWAP1 DUP4 ISZERO ISZERO MUL OR SWAP1 SSTORE ISZERO PUSH2 0x826 JUMPI PUSH1 0x40 MLOAD PUSH32 0x4232716900000000000000000000000000000000000000000000000000000000 DUP2 MSTORE PUSH1 0x4 ADD PUSH1 0x40 MLOAD DUP1 SWAP2 SUB SWAP1 REVERT JUMPDEST CALLER PUSH20 0xFFFFFFFFFFFFFFFFFFFFFFFFFFFFFFFFFFFFFFFF AND PUSH2 0x846 DUP3 PUSH2 0x1F03 JUMP JUMPDEST PUSH20 0xFFFFFFFFFFFFFFFFFFFFFFFFFFFFFFFFFFFFFFFF AND EQ PUSH2 0x893 JUMPI PUSH1 0x40 MLOAD PUSH32 0xD7C498BF00000000000000000000000000000000000000000000000000000000 DUP2 MSTORE PUSH1 0x4 ADD PUSH1 0x40 MLOAD DUP1 SWAP2 SUB SWAP1 REVERT JUMPDEST PUSH1 0x0 PUSH1 0x6 PUSH1 0x0 DUP4 PUSH8 0xFFFFFFFFFFFFFFFF AND PUSH8 0xFFFFFFFFFFFFFFFF AND DUP2 MSTORE PUSH1 0x20 ADD SWAP1 DUP2 MSTORE PUSH1 0x20 ADD PUSH1 0x0 KECCAK256 PUSH1 0x0 ADD PUSH1 0x10 SWAP1 SLOAD SWAP1 PUSH2 0x100 EXP SWAP1 DIV PUSH16 0xFFFFFFFFFFFFFFFFFFFFFFFFFFFFFFFF AND PUSH16 0xFFFFFFFFFFFFFFFFFFFFFFFFFFFFFFFF AND SWAP1 POP PUSH2 0x93F CALLER ADDRESS DUP4 PUSH1 0x1 PUSH1 0x0 SWAP1 SLOAD SWAP1 PUSH2 0x100 EXP SWAP1 DIV PUSH20 0xFFFFFFFFFFFFFFFFFFFFFFFFFFFFFFFFFFFFFFFF AND PUSH20 0xFFFFFFFFFFFFFFFFFFFFFFFFFFFFFFFFFFFFFFFF AND PUSH2 0x1D2B SWAP1 SWAP4 SWAP3 SWAP2 SWAP1 PUSH4 0xFFFFFFFF AND JUMP JUMPDEST PUSH1 0x1 PUSH1 0x7 PUSH1 0x0 CALLER PUSH20 0xFFFFFFFFFFFFFFFFFFFFFFFFFFFFFFFFFFFFFFFF AND PUSH20 0xFFFFFFFFFFFFFFFFFFFFFFFFFFFFFFFFFFFFFFFF AND DUP2 MSTORE PUSH1 0x20 ADD SWAP1 DUP2 MSTORE PUSH1 0x20 ADD PUSH1 0x0 KECCAK256 PUSH1 0x0 DUP5 PUSH8 0xFFFFFFFFFFFFFFFF AND DUP2 MSTORE PUSH1 0x20 ADD SWAP1 DUP2 MSTORE PUSH1 0x20 ADD PUSH1 0x0 KECCAK256 PUSH1 0x0 PUSH2 0x100 EXP DUP2 SLOAD DUP2 PUSH1 0xFF MUL NOT AND SWAP1 DUP4 ISZERO ISZERO MUL OR SWAP1 SSTORE POP PUSH1 0x3 PUSH1 0x6 PUSH1 0x0 DUP5 PUSH8 0xFFFFFFFFFFFFFFFF AND PUSH8 0xFFFFFFFFFFFFFFFF AND DUP2 MSTORE PUSH1 0x20 ADD SWAP1 DUP2 MSTORE PUSH1 0x20 ADD PUSH1 0x0 KECCAK256 PUSH1 0x0 ADD PUSH1 0x0 PUSH2 0x100 EXP DUP2 SLOAD DUP2 PUSH1 0xFF MUL NOT AND SWAP1 DUP4 PUSH1 0xFF AND MUL OR SWAP1 SSTORE POP POP POP JUMP JUMPDEST PUSH1 0x0 PUSH2 0xA05 DUP3 PUSH2 0x1F57 JUMP JUMPDEST SWAP1 POP PUSH1 0x0 PUSH2 0xA12 DUP4 PUSH2 0x1F03 JUMP JUMPDEST SWAP1 POP DUP2 PUSH20 0xFFFFFFFFFFFFFFFFFFFFFFFFFFFFFFFFFFFFFFFF AND CALLER PUSH20 0xFFFFFFFFFFFFFFFFFFFFFFFFFFFFFFFFFFFFFFFF AND EQ PUSH2 0xA4C JUMPI PUSH1 0x0 DUP1 REVERT JUMPDEST PUSH1 0x0 ISZERO ISZERO PUSH1 0x7 PUSH1 0x0 DUP4 PUSH20 0xFFFFFFFFFFFFFFFFFFFFFFFFFFFFFFFFFFFFFFFF AND PUSH20 0xFFFFFFFFFFFFFFFFFFFFFFFFFFFFFFFFFFFFFFFF AND DUP2 MSTORE PUSH1 0x20 ADD SWAP1 DUP2 MSTORE PUSH1 0x20 ADD PUSH1 0x0 KECCAK256 PUSH1 0x0 DUP6 PUSH8 0xFFFFFFFFFFFFFFFF AND DUP2 MSTORE PUSH1 0x20 ADD SWAP1 DUP2 MSTORE PUSH1 0x20 ADD PUSH1 0x0 KECCAK256 PUSH1 0x0 SWAP1 SLOAD SWAP1 PUSH2 0x100 EXP SWAP1 DIV PUSH1 0xFF AND ISZERO ISZERO EQ PUSH2 0xAC4 JUMPI PUSH1 0x0 DUP1 REVERT JUMPDEST PUSH1 0x0 ISZERO ISZERO PUSH1 0xA PUSH1 0x0 CALLER PUSH20 0xFFFFFFFFFFFFFFFFFFFFFFFFFFFFFFFFFFFFFFFF AND PUSH20 0xFFFFFFFFFFFFFFFFFFFFFFFFFFFFFFFFFFFFFFFF AND DUP2 MSTORE PUSH1 0x20 ADD SWAP1 DUP2 MSTORE PUSH1 0x20 ADD PUSH1 0x0 KECCAK256 PUSH1 0x0 DUP6 PUSH8 0xFFFFFFFFFFFFFFFF AND DUP2 MSTORE PUSH1 0x20 ADD SWAP1 DUP2 MSTORE PUSH1 0x20 ADD PUSH1 0x0 KECCAK256 PUSH1 0x0 SWAP1 SLOAD SWAP1 PUSH2 0x100 EXP SWAP1 DIV PUSH1 0xFF AND ISZERO ISZERO EQ PUSH2 0xB3C JUMPI PUSH1 0x0 DUP1 REVERT JUMPDEST DUP2 PUSH20 0xFFFFFFFFFFFFFFFFFFFFFFFFFFFFFFFFFFFFFFFF AND CALLER PUSH20 0xFFFFFFFFFFFFFFFFFFFFFFFFFFFFFFFFFFFFFFFF AND EQ PUSH2 0xB74 JUMPI PUSH1 0x0 DUP1 REVERT JUMPDEST PUSH1 0x0 PUSH1 0x6 PUSH1 0x0 DUP6 PUSH8 0xFFFFFFFFFFFFFFFF AND PUSH8 0xFFFFFFFFFFFFFFFF AND DUP2 MSTORE PUSH1 0x20 ADD SWAP1 DUP2 MSTORE PUSH1 0x20 ADD PUSH1 0x0 KECCAK256 PUSH1 0x2 ADD PUSH1 0x0 SWAP1 SLOAD SWAP1 PUSH2 0x100 EXP SWAP1 DIV PUSH20 0xFFFFFFFFFFFFFFFFFFFFFFFFFFFFFFFFFFFFFFFF AND SWAP1 POP PUSH1 0x0 PUSH2 0xC5B PUSH1 0x6 PUSH1 0x0 DUP8 PUSH8 0xFFFFFFFFFFFFFFFF AND PUSH8 0xFFFFFFFFFFFFFFFF AND DUP2 MSTORE PUSH1 0x20 ADD SWAP1 DUP2 MSTORE PUSH1 0x20 ADD PUSH1 0x0 KECCAK256 PUSH1 0x1 ADD PUSH1 0x0 SWAP1 SLOAD SWAP1 PUSH2 0x100 EXP SWAP1 DIV PUSH16 0xFFFFFFFFFFFFFFFFFFFFFFFFFFFFFFFF AND PUSH1 0x6 PUSH1 0x0 DUP9 PUSH8 0xFFFFFFFFFFFFFFFF AND PUSH8 0xFFFFFFFFFFFFFFFF AND DUP2 MSTORE PUSH1 0x20 ADD SWAP1 DUP2 MSTORE PUSH1 0x20 ADD PUSH1 0x0 KECCAK256 PUSH1 0x0 ADD PUSH1 0x10 SWAP1 SLOAD SWAP1 PUSH2 0x100 EXP SWAP1 DIV PUSH16 0xFFFFFFFFFFFFFFFFFFFFFFFFFFFFFFFF AND PUSH2 0x144D JUMP JUMPDEST SWAP1 POP PUSH1 0x0 PUSH2 0xC68 DUP3 PUSH2 0x1FAB JUMP JUMPDEST SWAP1 POP PUSH2 0xC95 ADDRESS DUP3 DUP6 PUSH20 0xFFFFFFFFFFFFFFFFFFFFFFFFFFFFFFFFFFFFFFFF AND PUSH2 0x2052 SWAP1 SWAP3 SWAP2 SWAP1 PUSH4 0xFFFFFFFF AND JUMP JUMPDEST PUSH2 0xCCB DUP6 DUP3 DUP5 PUSH2 0xCA5 SWAP2 SWAP1 PUSH2 0x2930 JUMP JUMPDEST DUP6 PUSH20 0xFFFFFFFFFFFFFFFFFFFFFFFFFFFFFFFFFFFFFFFF AND PUSH2 0x2052 SWAP1 SWAP3 SWAP2 SWAP1 PUSH4 0xFFFFFFFF AND JUMP JUMPDEST PUSH1 0x1 PUSH1 0xA PUSH1 0x0 CALLER PUSH20 0xFFFFFFFFFFFFFFFFFFFFFFFFFFFFFFFFFFFFFFFF AND PUSH20 0xFFFFFFFFFFFFFFFFFFFFFFFFFFFFFFFFFFFFFFFF AND DUP2 MSTORE PUSH1 0x20 ADD SWAP1 DUP2 MSTORE PUSH1 0x20 ADD PUSH1 0x0 KECCAK256 PUSH1 0x0 DUP9 PUSH8 0xFFFFFFFFFFFFFFFF AND DUP2 MSTORE PUSH1 0x20 ADD SWAP1 DUP2 MSTORE PUSH1 0x20 ADD PUSH1 0x0 KECCAK256 PUSH1 0x0 PUSH2 0x100 EXP DUP2 SLOAD DUP2 PUSH1 0xFF MUL NOT AND SWAP1 DUP4 ISZERO ISZERO MUL OR SWAP1 SSTORE POP PUSH1 0x1 PUSH1 0x6 PUSH1 0x0 DUP9 PUSH8 0xFFFFFFFFFFFFFFFF AND PUSH8 0xFFFFFFFFFFFFFFFF AND DUP2 MSTORE PUSH1 0x20 ADD SWAP1 DUP2 MSTORE PUSH1 0x20 ADD PUSH1 0x0 KECCAK256 PUSH1 0x0 ADD PUSH1 0x0 SWAP1 SLOAD SWAP1 PUSH2 0x100 EXP SWAP1 DIV PUSH1 0xFF AND PUSH1 0xFF AND SUB PUSH2 0xF4E JUMPI PUSH1 0x0 ISZERO ISZERO PUSH1 0xB PUSH1 0x0 CALLER PUSH20 0xFFFFFFFFFFFFFFFFFFFFFFFFFFFFFFFFFFFFFFFF AND PUSH20 0xFFFFFFFFFFFFFFFFFFFFFFFFFFFFFFFFFFFFFFFF AND DUP2 MSTORE PUSH1 0x20 ADD SWAP1 DUP2 MSTORE PUSH1 0x20 ADD PUSH1 0x0 KECCAK256 PUSH1 0x0 DUP9 PUSH8 0xFFFFFFFFFFFFFFFF AND DUP2 MSTORE PUSH1 0x20 ADD SWAP1 DUP2 MSTORE PUSH1 0x20 ADD PUSH1 0x0 KECCAK256 PUSH1 0x0 SWAP1 SLOAD SWAP1 PUSH2 0x100 EXP SWAP1 DIV PUSH1 0xFF AND ISZERO ISZERO EQ PUSH2 0xDF8 JUMPI PUSH1 0x0 DUP1 REVERT JUMPDEST PUSH1 0x0 PUSH1 0x6 PUSH1 0x0 DUP9 PUSH8 0xFFFFFFFFFFFFFFFF AND PUSH8 0xFFFFFFFFFFFFFFFF AND DUP2 MSTORE PUSH1 0x20 ADD SWAP1 DUP2 MSTORE PUSH1 0x20 ADD PUSH1 0x0 KECCAK256 PUSH1 0x0 ADD PUSH1 0x10 SWAP1 SLOAD SWAP1 PUSH2 0x100 EXP SWAP1 DIV PUSH16 0xFFFFFFFFFFFFFFFFFFFFFFFFFFFFFFFF AND PUSH1 0x6 PUSH1 0x0 DUP10 PUSH8 0xFFFFFFFFFFFFFFFF AND PUSH8 0xFFFFFFFFFFFFFFFF AND DUP2 MSTORE PUSH1 0x20 ADD SWAP1 DUP2 MSTORE PUSH1 0x20 ADD PUSH1 0x0 KECCAK256 PUSH1 0x1 ADD PUSH1 0x0 SWAP1 SLOAD SWAP1 PUSH2 0x100 EXP SWAP1 DIV PUSH16 0xFFFFFFFFFFFFFFFFFFFFFFFFFFFFFFFF AND PUSH2 0xE92 SWAP2 SWAP1 PUSH2 0x2729 JUMP JUMPDEST PUSH16 0xFFFFFFFFFFFFFFFFFFFFFFFFFFFFFFFF AND SWAP1 POP PUSH2 0xED9 PUSH2 0xEB2 DUP9 PUSH2 0x1F57 JUMP JUMPDEST DUP3 DUP7 PUSH20 0xFFFFFFFFFFFFFFFFFFFFFFFFFFFFFFFFFFFFFFFF AND PUSH2 0x2052 SWAP1 SWAP3 SWAP2 SWAP1 PUSH4 0xFFFFFFFF AND JUMP JUMPDEST PUSH1 0x1 PUSH1 0xB PUSH1 0x0 CALLER PUSH20 0xFFFFFFFFFFFFFFFFFFFFFFFFFFFFFFFFFFFFFFFF AND PUSH20 0xFFFFFFFFFFFFFFFFFFFFFFFFFFFFFFFFFFFFFFFF AND DUP2 MSTORE PUSH1 0x20 ADD SWAP1 DUP2 MSTORE PUSH1 0x20 ADD PUSH1 0x0 KECCAK256 PUSH1 0x0 DUP10 PUSH8 0xFFFFFFFFFFFFFFFF AND DUP2 MSTORE PUSH1 0x20 ADD SWAP1 DUP2 MSTORE PUSH1 0x20 ADD PUSH1 0x0 KECCAK256 PUSH1 0x0 PUSH2 0x100 EXP DUP2 SLOAD DUP2 PUSH1 0xFF MUL NOT AND SWAP1 DUP4 ISZERO ISZERO MUL OR SWAP1 SSTORE POP POP JUMPDEST PUSH1 0x5 PUSH1 0x6 PUSH1 0x0 DUP9 PUSH8 0xFFFFFFFFFFFFFFFF AND PUSH8 0xFFFFFFFFFFFFFFFF AND DUP2 MSTORE PUSH1 0x20 ADD SWAP1 DUP2 MSTORE PUSH1 0x20 ADD PUSH1 0x0 KECCAK256 PUSH1 0x0 ADD PUSH1 0x0 PUSH2 0x100 EXP DUP2 SLOAD DUP2 PUSH1 0xFF MUL NOT AND SWAP1 DUP4 PUSH1 0xFF AND MUL OR SWAP1 SSTORE POP POP POP POP POP POP POP JUMP JUMPDEST PUSH1 0x8 PUSH1 0x20 MSTORE DUP2 PUSH1 0x0 MSTORE PUSH1 0x40 PUSH1 0x0 KECCAK256 PUSH1 0x20 MSTORE DUP1 PUSH1 0x0 MSTORE PUSH1 0x40 PUSH1 0x0 KECCAK256 PUSH1 0x0 SWAP2 POP SWAP2 POP SWAP1 SLOAD SWAP1 PUSH2 0x100 EXP SWAP1 DIV PUSH1 0xFF AND DUP2 JUMP JUMPDEST PUSH1 0x0 PUSH1 0x4 PUSH1 0x0 SWAP1 SLOAD SWAP1 PUSH2 0x100 EXP SWAP1 DIV PUSH20 0xFFFFFFFFFFFFFFFFFFFFFFFFFFFFFFFFFFFFFFFF AND PUSH20 0xFFFFFFFFFFFFFFFFFFFFFFFFFFFFFFFFFFFFFFFF AND PUSH4 0x1698EE82 DUP6 DUP6 DUP6 PUSH1 0x40 MLOAD DUP5 PUSH4 0xFFFFFFFF AND PUSH1 0xE0 SHL DUP2 MSTORE PUSH1 0x4 ADD PUSH2 0x102A SWAP4 SWAP3 SWAP2 SWAP1 PUSH2 0x2973 JUMP JUMPDEST PUSH1 0x20 PUSH1 0x40 MLOAD DUP1 DUP4 SUB DUP2 DUP7 GAS STATICCALL ISZERO DUP1 ISZERO PUSH2 0x1047 JUMPI RETURNDATASIZE PUSH1 0x0 DUP1 RETURNDATACOPY RETURNDATASIZE PUSH1 0x0 REVERT JUMPDEST POP POP POP POP PUSH1 0x40 MLOAD RETURNDATASIZE PUSH1 0x1F NOT PUSH1 0x1F DUP3 ADD AND DUP3 ADD DUP1 PUSH1 0x40 MSTORE POP DUP2 ADD SWAP1 PUSH2 0x106B SWAP2 SWAP1 PUSH2 0x29BF JUMP JUMPDEST SWAP1 POP SWAP4 SWAP3 POP POP POP JUMP JUMPDEST PUSH1 0x0 PUSH2 0x107F DUP3 PUSH2 0x1F03 JUMP JUMPDEST SWAP1 POP DUP1 PUSH20 0xFFFFFFFFFFFFFFFFFFFFFFFFFFFFFFFFFFFFFFFF AND CALLER PUSH20 0xFFFFFFFFFFFFFFFFFFFFFFFFFFFFFFFFFFFFFFFF AND EQ PUSH2 0x10B9 JUMPI PUSH1 0x0 DUP1 REVERT JUMPDEST PUSH1 0x7 PUSH1 0x0 DUP3 PUSH20 0xFFFFFFFFFFFFFFFFFFFFFFFFFFFFFFFFFFFFFFFF AND PUSH20 0xFFFFFFFFFFFFFFFFFFFFFFFFFFFFFFFFFFFFFFFF AND DUP2 MSTORE PUSH1 0x20 ADD SWAP1 DUP2 MSTORE PUSH1 0x20 ADD PUSH1 0x0 KECCAK256 PUSH1 0x0 DUP4 PUSH8 0xFFFFFFFFFFFFFFFF AND DUP2 MSTORE PUSH1 0x20 ADD SWAP1 DUP2 MSTORE PUSH1 0x20 ADD PUSH1 0x0 KECCAK256 PUSH1 0x0 SWAP1 SLOAD SWAP1 PUSH2 0x100 EXP SWAP1 DIV PUSH1 0xFF AND PUSH2 0x112A JUMPI PUSH1 0x0 DUP1 REVERT JUMPDEST PUSH1 0x0 ISZERO ISZERO PUSH1 0x9 PUSH1 0x0 CALLER PUSH20 0xFFFFFFFFFFFFFFFFFFFFFFFFFFFFFFFFFFFFFFFF AND PUSH20 0xFFFFFFFFFFFFFFFFFFFFFFFFFFFFFFFFFFFFFFFF AND DUP2 MSTORE PUSH1 0x20 ADD SWAP1 DUP2 MSTORE PUSH1 0x20 ADD PUSH1 0x0 KECCAK256 PUSH1 0x0 DUP5 PUSH8 0xFFFFFFFFFFFFFFFF AND DUP2 MSTORE PUSH1 0x20 ADD SWAP1 DUP2 MSTORE PUSH1 0x20 ADD PUSH1 0x0 KECCAK256 PUSH1 0x0 SWAP1 SLOAD SWAP1 PUSH2 0x100 EXP SWAP1 DIV PUSH1 0xFF AND ISZERO ISZERO EQ PUSH2 0x11A2 JUMPI PUSH1 0x0 DUP1 REVERT JUMPDEST PUSH1 0x0 PUSH1 0x6 PUSH1 0x0 DUP5 PUSH8 0xFFFFFFFFFFFFFFFF AND PUSH8 0xFFFFFFFFFFFFFFFF AND DUP2 MSTORE PUSH1 0x20 ADD SWAP1 DUP2 MSTORE PUSH1 0x20 ADD PUSH1 0x0 KECCAK256 PUSH1 0x2 ADD PUSH1 0x0 SWAP1 SLOAD SWAP1 PUSH2 0x100 EXP SWAP1 DIV PUSH20 0xFFFFFFFFFFFFFFFFFFFFFFFFFFFFFFFFFFFFFFFF AND SWAP1 POP PUSH1 0x0 PUSH1 0x6 PUSH1 0x0 DUP6 PUSH8 0xFFFFFFFFFFFFFFFF AND PUSH8 0xFFFFFFFFFFFFFFFF AND DUP2 MSTORE PUSH1 0x20 ADD SWAP1 DUP2 MSTORE PUSH1 0x20 ADD PUSH1 0x0 KECCAK256 PUSH1 0x0 ADD PUSH1 0x10 SWAP1 SLOAD SWAP1 PUSH2 0x100 EXP SWAP1 DIV PUSH16 0xFFFFFFFFFFFFFFFFFFFFFFFFFFFFFFFF AND PUSH1 0x6 PUSH1 0x0 DUP7 PUSH8 0xFFFFFFFFFFFFFFFF AND PUSH8 0xFFFFFFFFFFFFFFFF AND DUP2 MSTORE PUSH1 0x20 ADD SWAP1 DUP2 MSTORE PUSH1 0x20 ADD PUSH1 0x0 KECCAK256 PUSH1 0x1 ADD PUSH1 0x0 SWAP1 SLOAD SWAP1 PUSH2 0x100 EXP SWAP1 DIV PUSH16 0xFFFFFFFFFFFFFFFFFFFFFFFFFFFFFFFF AND PUSH2 0x128B SWAP2 SWAP1 PUSH2 0x2729 JUMP JUMPDEST PUSH16 0xFFFFFFFFFFFFFFFFFFFFFFFFFFFFFFFF AND SWAP1 POP PUSH1 0x0 PUSH2 0x1337 PUSH1 0x6 PUSH1 0x0 DUP8 PUSH8 0xFFFFFFFFFFFFFFFF AND PUSH8 0xFFFFFFFFFFFFFFFF AND DUP2 MSTORE PUSH1 0x20 ADD SWAP1 DUP2 MSTORE PUSH1 0x20 ADD PUSH1 0x0 KECCAK256 PUSH1 0x1 ADD PUSH1 0x0 SWAP1 SLOAD SWAP1 PUSH2 0x100 EXP SWAP1 DIV PUSH16 0xFFFFFFFFFFFFFFFFFFFFFFFFFFFFFFFF AND PUSH1 0x6 PUSH1 0x0 DUP9 PUSH8 0xFFFFFFFFFFFFFFFF AND PUSH8 0xFFFFFFFFFFFFFFFF AND DUP2 MSTORE PUSH1 0x20 ADD SWAP1 DUP2 MSTORE PUSH1 0x20 ADD PUSH1 0x0 KECCAK256 PUSH1 0x0 ADD PUSH1 0x10 SWAP1 SLOAD SWAP1 PUSH2 0x100 EXP SWAP1 DIV PUSH16 0xFFFFFFFFFFFFFFFFFFFFFFFFFFFFFFFF AND PUSH2 0x144D JUMP JUMPDEST SWAP1 POP PUSH1 0x0 PUSH2 0x1344 DUP4 PUSH2 0x1FAB JUMP JUMPDEST SWAP1 POP PUSH2 0x1371 ADDRESS DUP3 DUP7 PUSH20 0xFFFFFFFFFFFFFFFFFFFFFFFFFFFFFFFFFFFFFFFF AND PUSH2 0x2052 SWAP1 SWAP3 SWAP2 SWAP1 PUSH4 0xFFFFFFFF AND JUMP JUMPDEST PUSH2 0x13A7 DUP6 DUP3 DUP6 PUSH2 0x1381 SWAP2 SWAP1 PUSH2 0x2930 JUMP JUMPDEST DUP7 PUSH20 0xFFFFFFFFFFFFFFFFFFFFFFFFFFFFFFFFFFFFFFFF AND PUSH2 0x2052 SWAP1 SWAP3 SWAP2 SWAP1 PUSH4 0xFFFFFFFF AND JUMP JUMPDEST PUSH2 0x13D2 DUP6 DUP4 DUP7 PUSH20 0xFFFFFFFFFFFFFFFFFFFFFFFFFFFFFFFFFFFFFFFF AND PUSH2 0x2052 SWAP1 SWAP3 SWAP2 SWAP1 PUSH4 0xFFFFFFFF AND JUMP JUMPDEST PUSH1 0x1 PUSH1 0x9 PUSH1 0x0 CALLER PUSH20 0xFFFFFFFFFFFFFFFFFFFFFFFFFFFFFFFFFFFFFFFF AND PUSH20 0xFFFFFFFFFFFFFFFFFFFFFFFFFFFFFFFFFFFFFFFF AND DUP2 MSTORE PUSH1 0x20 ADD SWAP1 DUP2 MSTORE PUSH1 0x20 ADD PUSH1 0x0 KECCAK256 PUSH1 0x0 DUP9 PUSH8 0xFFFFFFFFFFFFFFFF AND DUP2 MSTORE PUSH1 0x20 ADD SWAP1 DUP2 MSTORE PUSH1 0x20 ADD PUSH1 0x0 KECCAK256 PUSH1 0x0 PUSH2 0x100 EXP DUP2 SLOAD DUP2 PUSH1 0xFF MUL NOT AND SWAP1 DUP4 ISZERO ISZERO MUL OR SWAP1 SSTORE POP POP POP POP POP POP POP JUMP JUMPDEST PUSH1 0x0 DUP1 DUP3 DUP5 PUSH2 0x145C SWAP2 SWAP1 PUSH2 0x2729 JUMP JUMPDEST PUSH16 0xFFFFFFFFFFFFFFFFFFFFFFFFFFFFFFFF AND SWAP1 POP PUSH9 0x56BC75E2D63100000 DUP2 LT ISZERO DUP1 ISZERO PUSH2 0x1491 JUMPI POP PUSH9 0x3635C9ADC5DEA00000 DUP2 LT JUMPDEST ISZERO PUSH2 0x14B7 JUMPI PUSH1 0x64 PUSH1 0x32 DUP3 PUSH2 0x14A5 SWAP2 SWAP1 PUSH2 0x29EC JUMP JUMPDEST PUSH2 0x14AF SWAP2 SWAP1 PUSH2 0x2A5D JUMP JUMPDEST SWAP2 POP POP PUSH2 0x1564 JUMP JUMPDEST PUSH9 0x3635C9ADC5DEA00000 DUP2 LT ISZERO DUP1 ISZERO PUSH2 0x14D9 JUMPI POP PUSH10 0x21E19E0C9BAB2400000 DUP2 LT JUMPDEST ISZERO PUSH2 0x14FF JUMPI PUSH1 0x64 PUSH1 0x28 DUP3 PUSH2 0x14ED SWAP2 SWAP1 PUSH2 0x29EC JUMP JUMPDEST PUSH2 0x14F7 SWAP2 SWAP1 PUSH2 0x2A5D JUMP JUMPDEST SWAP2 POP POP PUSH2 0x1564 JUMP JUMPDEST PUSH10 0x21E19E0C9BAB2400000 DUP2 GT ISZERO PUSH2 0x1532 JUMPI PUSH1 0x64 PUSH1 0x19 DUP3 PUSH2 0x1520 SWAP2 SWAP1 PUSH2 0x29EC JUMP JUMPDEST PUSH2 0x152A SWAP2 SWAP1 PUSH2 0x2A5D JUMP JUMPDEST SWAP2 POP POP PUSH2 0x1564 JUMP JUMPDEST PUSH1 0x40 MLOAD PUSH32 0xE008B5F900000000000000000000000000000000000000000000000000000000 DUP2 MSTORE PUSH1 0x4 ADD PUSH1 0x40 MLOAD DUP1 SWAP2 SUB SWAP1 REVERT JUMPDEST SWAP3 SWAP2 POP POP JUMP JUMPDEST PUSH1 0xA PUSH1 0x20 MSTORE DUP2 PUSH1 0x0 MSTORE PUSH1 0x40 PUSH1 0x0 KECCAK256 PUSH1 0x20 MSTORE DUP1 PUSH1 0x0 MSTORE PUSH1 0x40 PUSH1 0x0 KECCAK256 PUSH1 0x0 SWAP2 POP SWAP2 POP SWAP1 SLOAD SWAP1 PUSH2 0x100 EXP SWAP1 DIV PUSH1 0xFF AND DUP2 JUMP JUMPDEST PUSH1 0x0 PUSH2 0x15A4 DUP3 PUSH2 0x1F57 JUMP JUMPDEST SWAP1 POP DUP1 PUSH20 0xFFFFFFFFFFFFFFFFFFFFFFFFFFFFFFFFFFFFFFFF AND CALLER PUSH20 0xFFFFFFFFFFFFFFFFFFFFFFFFFFFFFFFFFFFFFFFF AND EQ PUSH2 0x160B JUMPI PUSH1 0x40 MLOAD PUSH32 0x472E017E00000000000000000000000000000000000000000000000000000000 DUP2 MSTORE PUSH1 0x4 ADD PUSH1 0x40 MLOAD DUP1 SWAP2 SUB SWAP1 REVERT JUMPDEST PUSH1 0x3 PUSH1 0x6 PUSH1 0x0 DUP5 PUSH8 0xFFFFFFFFFFFFFFFF AND PUSH8 0xFFFFFFFFFFFFFFFF AND DUP2 MSTORE PUSH1 0x20 ADD SWAP1 DUP2 MSTORE PUSH1 0x20 ADD PUSH1 0x0 KECCAK256 PUSH1 0x0 ADD PUSH1 0x0 SWAP1 SLOAD SWAP1 PUSH2 0x100 EXP SWAP1 DIV PUSH1 0xFF AND PUSH1 0xFF AND EQ PUSH2 0x167F JUMPI PUSH1 0x40 MLOAD PUSH32 0xDE4461CD00000000000000000000000000000000000000000000000000000000 DUP2 MSTORE PUSH1 0x4 ADD PUSH1 0x40 MLOAD DUP1 SWAP2 SUB SWAP1 REVERT JUMPDEST PUSH1 0x0 PUSH1 0x6 PUSH1 0x0 DUP5 PUSH8 0xFFFFFFFFFFFFFFFF AND PUSH8 0xFFFFFFFFFFFFFFFF AND DUP2 MSTORE PUSH1 0x20 ADD SWAP1 DUP2 MSTORE PUSH1 0x20 ADD PUSH1 0x0 KECCAK256 PUSH1 0x0 ADD PUSH1 0x10 SWAP1 SLOAD SWAP1 PUSH2 0x100 EXP SWAP1 DIV PUSH16 0xFFFFFFFFFFFFFFFFFFFFFFFFFFFFFFFF AND SWAP1 POP PUSH1 0x0 PUSH1 0x6 PUSH1 0x0 DUP6 PUSH8 0xFFFFFFFFFFFFFFFF AND PUSH8 0xFFFFFFFFFFFFFFFF AND DUP2 MSTORE PUSH1 0x20 ADD SWAP1 DUP2 MSTORE PUSH1 0x20 ADD PUSH1 0x0 KECCAK256 PUSH1 0x1 ADD PUSH1 0x0 SWAP1 SLOAD SWAP1 PUSH2 0x100 EXP SWAP1 DIV PUSH16 0xFFFFFFFFFFFFFFFFFFFFFFFFFFFFFFFF AND SWAP1 POP PUSH1 0x0 PUSH2 0x173D DUP3 DUP5 PUSH2 0x1726 SWAP2 SWAP1 PUSH2 0x2729 JUMP JUMPDEST PUSH16 0xFFFFFFFFFFFFFFFFFFFFFFFFFFFFFFFF AND PUSH2 0x1FAB JUMP JUMPDEST SWAP1 POP PUSH2 0x178C ADDRESS DUP3 PUSH1 0x1 PUSH1 0x0 SWAP1 SLOAD SWAP1 PUSH2 0x100 EXP SWAP1 DIV PUSH20 0xFFFFFFFFFFFFFFFFFFFFFFFFFFFFFFFFFFFFFFFF AND PUSH20 0xFFFFFFFFFFFFFFFFFFFFFFFFFFFFFFFFFFFFFFFF AND PUSH2 0x2052 SWAP1 SWAP3 SWAP2 SWAP1 PUSH4 0xFFFFFFFF AND JUMP JUMPDEST PUSH2 0x17F6 DUP5 DUP3 DUP6 PUSH16 0xFFFFFFFFFFFFFFFFFFFFFFFFFFFFFFFF AND PUSH2 0x17AE SWAP2 SWAP1 PUSH2 0x2930 JUMP JUMPDEST PUSH1 0x1 PUSH1 0x0 SWAP1 SLOAD SWAP1 PUSH2 0x100 EXP SWAP1 DIV PUSH20 0xFFFFFFFFFFFFFFFFFFFFFFFFFFFFFFFFFFFFFFFF AND PUSH20 0xFFFFFFFFFFFFFFFFFFFFFFFFFFFFFFFFFFFFFFFF AND PUSH2 0x2052 SWAP1 SWAP3 SWAP2 SWAP1 PUSH4 0xFFFFFFFF AND JUMP JUMPDEST PUSH1 0x4 PUSH1 0x6 PUSH1 0x0 DUP8 PUSH8 0xFFFFFFFFFFFFFFFF AND PUSH8 0xFFFFFFFFFFFFFFFF AND DUP2 MSTORE PUSH1 0x20 ADD SWAP1 DUP2 MSTORE PUSH1 0x20 ADD PUSH1 0x0 KECCAK256 PUSH1 0x0 ADD PUSH1 0x0 PUSH2 0x100 EXP DUP2 SLOAD DUP2 PUSH1 0xFF MUL NOT AND SWAP1 DUP4 PUSH1 0xFF AND MUL OR SWAP1 SSTORE POP POP POP POP POP POP JUMP JUMPDEST POP JUMP JUMPDEST PUSH1 0x0 PUSH1 0x6 PUSH1 0x0 DUP5 PUSH8 0xFFFFFFFFFFFFFFFF AND PUSH8 0xFFFFFFFFFFFFFFFF AND DUP2 MSTORE PUSH1 0x20 ADD SWAP1 DUP2 MSTORE PUSH1 0x20 ADD PUSH1 0x0 KECCAK256 PUSH1 0x40 MLOAD DUP1 PUSH2 0x100 ADD PUSH1 0x40 MSTORE SWAP1 DUP2 PUSH1 0x0 DUP3 ADD PUSH1 0x0 SWAP1 SLOAD SWAP1 PUSH2 0x100 EXP SWAP1 DIV PUSH1 0xFF AND PUSH1 0xFF AND PUSH1 0xFF AND DUP2 MSTORE PUSH1 0x20 ADD PUSH1 0x0 DUP3 ADD PUSH1 0x1 SWAP1 SLOAD SWAP1 PUSH2 0x100 EXP SWAP1 DIV PUSH8 0xFFFFFFFFFFFFFFFF AND PUSH8 0xFFFFFFFFFFFFFFFF AND PUSH8 0xFFFFFFFFFFFFFFFF AND DUP2 MSTORE PUSH1 0x20 ADD PUSH1 0x0 DUP3 ADD PUSH1 0x9 SWAP1 SLOAD SWAP1 PUSH2 0x100 EXP SWAP1 DIV PUSH7 0xFFFFFFFFFFFFFF AND PUSH7 0xFFFFFFFFFFFFFF AND PUSH7 0xFFFFFFFFFFFFFF AND DUP2 MSTORE PUSH1 0x20 ADD PUSH1 0x0 DUP3 ADD PUSH1 0x10 SWAP1 SLOAD SWAP1 PUSH2 0x100 EXP SWAP1 DIV PUSH16 0xFFFFFFFFFFFFFFFFFFFFFFFFFFFFFFFF AND PUSH16 0xFFFFFFFFFFFFFFFFFFFFFFFFFFFFFFFF AND PUSH16 0xFFFFFFFFFFFFFFFFFFFFFFFFFFFFFFFF AND DUP2 MSTORE PUSH1 0x20 ADD PUSH1 0x1 DUP3 ADD PUSH1 0x0 SWAP1 SLOAD SWAP1 PUSH2 0x100 EXP SWAP1 DIV PUSH16 0xFFFFFFFFFFFFFFFFFFFFFFFFFFFFFFFF AND PUSH16 0xFFFFFFFFFFFFFFFFFFFFFFFFFFFFFFFF AND PUSH16 0xFFFFFFFFFFFFFFFFFFFFFFFFFFFFFFFF AND DUP2 MSTORE PUSH1 0x20 ADD PUSH1 0x2 DUP3 ADD PUSH1 0x0 SWAP1 SLOAD SWAP1 PUSH2 0x100 EXP SWAP1 DIV PUSH20 0xFFFFFFFFFFFFFFFFFFFFFFFFFFFFFFFFFFFFFFFF AND PUSH20 0xFFFFFFFFFFFFFFFFFFFFFFFFFFFFFFFFFFFFFFFF AND PUSH20 0xFFFFFFFFFFFFFFFFFFFFFFFFFFFFFFFFFFFFFFFF AND DUP2 MSTORE PUSH1 0x20 ADD PUSH1 0x3 DUP3 ADD PUSH1 0x0 SWAP1 SLOAD SWAP1 PUSH2 0x100 EXP SWAP1 DIV PUSH20 0xFFFFFFFFFFFFFFFFFFFFFFFFFFFFFFFFFFFFFFFF AND PUSH20 0xFFFFFFFFFFFFFFFFFFFFFFFFFFFFFFFFFFFFFFFF AND PUSH20 0xFFFFFFFFFFFFFFFFFFFFFFFFFFFFFFFFFFFFFFFF AND DUP2 MSTORE PUSH1 0x20 ADD PUSH1 0x4 DUP3 ADD PUSH1 0x0 SWAP1 SLOAD SWAP1 PUSH2 0x100 EXP SWAP1 DIV PUSH20 0xFFFFFFFFFFFFFFFFFFFFFFFFFFFFFFFFFFFFFFFF AND PUSH20 0xFFFFFFFFFFFFFFFFFFFFFFFFFFFFFFFFFFFFFFFF AND PUSH20 0xFFFFFFFFFFFFFFFFFFFFFFFFFFFFFFFFFFFFFFFF AND DUP2 MSTORE POP POP SWAP1 POP PUSH1 0x1 DUP2 PUSH1 0x0 ADD MLOAD PUSH1 0xFF AND EQ PUSH2 0x1AA3 JUMPI PUSH1 0x0 DUP1 REVERT JUMPDEST PUSH1 0x0 DUP2 PUSH1 0xA0 ADD MLOAD SWAP1 POP PUSH1 0x0 PUSH2 0x1ABB DUP3 DUP6 PUSH2 0x3E8 PUSH2 0xFC9 JUMP JUMPDEST SWAP1 POP PUSH1 0x0 PUSH2 0x1AD1 DUP5 PUSH1 0x80 ADD MLOAD DUP6 PUSH1 0x60 ADD MLOAD PUSH2 0x144D JUMP JUMPDEST SWAP1 POP PUSH2 0x1B00 CALLER ADDRESS DUP4 DUP7 PUSH20 0xFFFFFFFFFFFFFFFFFFFFFFFFFFFFFFFFFFFFFFFF AND PUSH2 0x1D2B SWAP1 SWAP4 SWAP3 SWAP2 SWAP1 PUSH4 0xFFFFFFFF AND JUMP JUMPDEST PUSH2 0x1B2B DUP3 DUP3 DUP6 PUSH20 0xFFFFFFFFFFFFFFFFFFFFFFFFFFFFFFFFFFFFFFFF AND PUSH2 0x1DB4 SWAP1 SWAP3 SWAP2 SWAP1 PUSH4 0xFFFFFFFF AND JUMP JUMPDEST PUSH2 0x1B58 ADDRESS DUP4 DUP4 DUP7 PUSH20 0xFFFFFFFFFFFFFFFFFFFFFFFFFFFFFFFFFFFFFFFF AND PUSH2 0x1D2B SWAP1 SWAP4 SWAP3 SWAP2 SWAP1 PUSH4 0xFFFFFFFF AND JUMP JUMPDEST PUSH1 0x3 PUSH1 0x0 SWAP1 SLOAD SWAP1 PUSH2 0x100 EXP SWAP1 DIV PUSH20 0xFFFFFFFFFFFFFFFFFFFFFFFFFFFFFFFFFFFFFFFF AND PUSH20 0xFFFFFFFFFFFFFFFFFFFFFFFFFFFFFFFFFFFFFFFF AND PUSH4 0xE8E33700 DUP5 DUP8 DUP5 PUSH1 0x0 PUSH2 0x3E8 PUSH1 0x0 ADDRESS PUSH2 0xE10 TIMESTAMP PUSH2 0x1BAF SWAP2 SWAP1 PUSH2 0x2766 JUMP JUMPDEST PUSH1 0x40 MLOAD DUP10 PUSH4 0xFFFFFFFF AND PUSH1 0xE0 SHL DUP2 MSTORE PUSH1 0x4 ADD PUSH2 0x1BD2 SWAP9 SWAP8 SWAP7 SWAP6 SWAP5 SWAP4 SWAP3 SWAP2 SWAP1 PUSH2 0x281A JUMP JUMPDEST PUSH1 0x60 PUSH1 0x40 MLOAD DUP1 DUP4 SUB DUP2 PUSH1 0x0 DUP8 GAS CALL ISZERO DUP1 ISZERO PUSH2 0x1BF1 JUMPI RETURNDATASIZE PUSH1 0x0 DUP1 RETURNDATACOPY RETURNDATASIZE PUSH1 0x0 REVERT JUMPDEST POP POP POP POP PUSH1 0x40 MLOAD RETURNDATASIZE PUSH1 0x1F NOT PUSH1 0x1F DUP3 ADD AND DUP3 ADD DUP1 PUSH1 0x40 MSTORE POP DUP2 ADD SWAP1 PUSH2 0x1C15 SWAP2 SWAP1 PUSH2 0x28AD JUMP JUMPDEST POP POP POP CALLER PUSH1 0x6 PUSH1 0x0 DUP9 PUSH8 0xFFFFFFFFFFFFFFFF AND PUSH8 0xFFFFFFFFFFFFFFFF AND DUP2 MSTORE PUSH1 0x20 ADD SWAP1 DUP2 MSTORE PUSH1 0x20 ADD PUSH1 0x0 KECCAK256 PUSH1 0x4 ADD PUSH1 0x0 PUSH2 0x100 EXP DUP2 SLOAD DUP2 PUSH20 0xFFFFFFFFFFFFFFFFFFFFFFFFFFFFFFFFFFFFFFFF MUL NOT AND SWAP1 DUP4 PUSH20 0xFFFFFFFFFFFFFFFFFFFFFFFFFFFFFFFFFFFFFFFF AND MUL OR SWAP1 SSTORE POP PUSH1 0x2 PUSH1 0x6 PUSH1 0x0 DUP9 PUSH8 0xFFFFFFFFFFFFFFFF AND PUSH8 0xFFFFFFFFFFFFFFFF AND DUP2 MSTORE PUSH1 0x20 ADD SWAP1 DUP2 MSTORE PUSH1 0x20 ADD PUSH1 0x0 KECCAK256 PUSH1 0x0 ADD PUSH1 0x0 PUSH2 0x100 EXP DUP2 SLOAD DUP2 PUSH1 0xFF MUL NOT AND SWAP1 DUP4 PUSH1 0xFF AND MUL OR SWAP1 SSTORE POP POP POP POP POP POP POP JUMP JUMPDEST PUSH1 0x9 PUSH1 0x20 MSTORE DUP2 PUSH1 0x0 MSTORE PUSH1 0x40 PUSH1 0x0 KECCAK256 PUSH1 0x20 MSTORE DUP1 PUSH1 0x0 MSTORE PUSH1 0x40 PUSH1 0x0 KECCAK256 PUSH1 0x0 SWAP2 POP SWAP2 POP SWAP1 SLOAD SWAP1 PUSH2 0x100 EXP SWAP1 DIV PUSH1 0xFF AND DUP2 JUMP JUMPDEST PUSH1 0xB PUSH1 0x20 MSTORE DUP2 PUSH1 0x0 MSTORE PUSH1 0x40 PUSH1 0x0 KECCAK256 PUSH1 0x20 MSTORE DUP1 PUSH1 0x0 MSTORE PUSH1 0x40 PUSH1 0x0 KECCAK256 PUSH1 0x0 SWAP2 POP SWAP2 POP SWAP1 SLOAD SWAP1 PUSH2 0x100 EXP SWAP1 DIV PUSH1 0xFF AND DUP2 JUMP JUMPDEST PUSH2 0x1DAE DUP5 PUSH4 0x23B872DD PUSH1 0xE0 SHL DUP6 DUP6 DUP6 PUSH1 0x40 MLOAD PUSH1 0x24 ADD PUSH2 0x1D4C SWAP4 SWAP3 SWAP2 SWAP1 PUSH2 0x2A8E JUMP JUMPDEST PUSH1 0x40 MLOAD PUSH1 0x20 DUP2 DUP4 SUB SUB DUP2 MSTORE SWAP1 PUSH1 0x40 MSTORE SWAP1 PUSH28 0xFFFFFFFFFFFFFFFFFFFFFFFFFFFFFFFFFFFFFFFFFFFFFFFFFFFFFFFF NOT AND PUSH1 0x20 DUP3 ADD DUP1 MLOAD PUSH28 0xFFFFFFFFFFFFFFFFFFFFFFFFFFFFFFFFFFFFFFFFFFFFFFFFFFFFFFFF DUP4 DUP2 DUP4 AND OR DUP4 MSTORE POP POP POP POP PUSH2 0x20D8 JUMP JUMPDEST POP POP POP POP JUMP JUMPDEST PUSH1 0x0 DUP2 EQ DUP1 PUSH2 0x1E3E JUMPI POP PUSH1 0x0 DUP4 PUSH20 0xFFFFFFFFFFFFFFFFFFFFFFFFFFFFFFFFFFFFFFFF AND PUSH4 0xDD62ED3E ADDRESS DUP6 PUSH1 0x40 MLOAD DUP4 PUSH4 0xFFFFFFFF AND PUSH1 0xE0 SHL DUP2 MSTORE PUSH1 0x4 ADD PUSH2 0x1DFB SWAP3 SWAP2 SWAP1 PUSH2 0x2AC5 JUMP JUMPDEST PUSH1 0x20 PUSH1 0x40 MLOAD DUP1 DUP4 SUB DUP2 DUP7 GAS STATICCALL ISZERO DUP1 ISZERO PUSH2 0x1E18 JUMPI RETURNDATASIZE PUSH1 0x0 DUP1 RETURNDATACOPY RETURNDATASIZE PUSH1 0x0 REVERT JUMPDEST POP POP POP POP PUSH1 0x40 MLOAD RETURNDATASIZE PUSH1 0x1F NOT PUSH1 0x1F DUP3 ADD AND DUP3 ADD DUP1 PUSH1 0x40 MSTORE POP DUP2 ADD SWAP1 PUSH2 0x1E3C SWAP2 SWAP1 PUSH2 0x2AEE JUMP JUMPDEST EQ JUMPDEST PUSH2 0x1E7D JUMPI PUSH1 0x40 MLOAD PUSH32 0x8C379A000000000000000000000000000000000000000000000000000000000 DUP2 MSTORE PUSH1 0x4 ADD PUSH2 0x1E74 SWAP1 PUSH2 0x2B9E JUMP JUMPDEST PUSH1 0x40 MLOAD DUP1 SWAP2 SUB SWAP1 REVERT JUMPDEST PUSH2 0x1EFE DUP4 PUSH4 0x95EA7B3 PUSH1 0xE0 SHL DUP5 DUP5 PUSH1 0x40 MLOAD PUSH1 0x24 ADD PUSH2 0x1E9C SWAP3 SWAP2 SWAP1 PUSH2 0x2BBE JUMP JUMPDEST PUSH1 0x40 MLOAD PUSH1 0x20 DUP2 DUP4 SUB SUB DUP2 MSTORE SWAP1 PUSH1 0x40 MSTORE SWAP1 PUSH28 0xFFFFFFFFFFFFFFFFFFFFFFFFFFFFFFFFFFFFFFFFFFFFFFFFFFFFFFFF NOT AND PUSH1 0x20 DUP3 ADD DUP1 MLOAD PUSH28 0xFFFFFFFFFFFFFFFFFFFFFFFFFFFFFFFFFFFFFFFFFFFFFFFFFFFFFFFF DUP4 DUP2 DUP4 AND OR DUP4 MSTORE POP POP POP POP PUSH2 0x20D8 JUMP JUMPDEST POP POP POP JUMP JUMPDEST PUSH1 0x0 PUSH1 0x6 PUSH1 0x0 DUP4 PUSH8 0xFFFFFFFFFFFFFFFF AND PUSH8 0xFFFFFFFFFFFFFFFF AND DUP2 MSTORE PUSH1 0x20 ADD SWAP1 DUP2 MSTORE PUSH1 0x20 ADD PUSH1 0x0 KECCAK256 PUSH1 0x4 ADD PUSH1 0x0 SWAP1 SLOAD SWAP1 PUSH2 0x100 EXP SWAP1 DIV PUSH20 0xFFFFFFFFFFFFFFFFFFFFFFFFFFFFFFFFFFFFFFFF AND SWAP1 POP SWAP2 SWAP1 POP JUMP JUMPDEST PUSH1 0x0 PUSH1 0x6 PUSH1 0x0 DUP4 PUSH8 0xFFFFFFFFFFFFFFFF AND PUSH8 0xFFFFFFFFFFFFFFFF AND DUP2 MSTORE PUSH1 0x20 ADD SWAP1 DUP2 MSTORE PUSH1 0x20 ADD PUSH1 0x0 KECCAK256 PUSH1 0x3 ADD PUSH1 0x0 SWAP1 SLOAD SWAP1 PUSH2 0x100 EXP SWAP1 DIV PUSH20 0xFFFFFFFFFFFFFFFFFFFFFFFFFFFFFFFFFFFFFFFF AND SWAP1 POP SWAP2 SWAP1 POP JUMP JUMPDEST PUSH1 0x0 PUSH9 0x56BC75E2D63100000 DUP3 LT ISZERO DUP1 ISZERO PUSH2 0x1FCE JUMPI POP PUSH9 0x3635C9ADC5DEA00000 DUP3 LT JUMPDEST ISZERO PUSH2 0x1FE7 JUMPI PUSH1 0x64 DUP3 PUSH2 0x1FE0 SWAP2 SWAP1 PUSH2 0x2A5D JUMP JUMPDEST SWAP1 POP PUSH2 0x204D JUMP JUMPDEST PUSH9 0x3635C9ADC5DEA00000 DUP3 LT ISZERO DUP1 ISZERO PUSH2 0x2009 JUMPI POP PUSH10 0x21E19E0C9BAB2400000 DUP3 LT JUMPDEST ISZERO PUSH2 0x2022 JUMPI PUSH1 0xC8 DUP3 PUSH2 0x201B SWAP2 SWAP1 PUSH2 0x2A5D JUMP JUMPDEST SWAP1 POP PUSH2 0x204D JUMP JUMPDEST PUSH10 0x21E19E0C9BAB2400000 DUP3 LT PUSH2 0x2048 JUMPI PUSH2 0x190 DUP3 PUSH2 0x2041 SWAP2 SWAP1 PUSH2 0x2A5D JUMP JUMPDEST SWAP1 POP PUSH2 0x204D JUMP JUMPDEST PUSH1 0x0 SWAP1 POP JUMPDEST SWAP2 SWAP1 POP JUMP JUMPDEST PUSH2 0x20D3 DUP4 PUSH4 0xA9059CBB PUSH1 0xE0 SHL DUP5 DUP5 PUSH1 0x40 MLOAD PUSH1 0x24 ADD PUSH2 0x2071 SWAP3 SWAP2 SWAP1 PUSH2 0x2BBE JUMP JUMPDEST PUSH1 0x40 MLOAD PUSH1 0x20 DUP2 DUP4 SUB SUB DUP2 MSTORE SWAP1 PUSH1 0x40 MSTORE SWAP1 PUSH28 0xFFFFFFFFFFFFFFFFFFFFFFFFFFFFFFFFFFFFFFFFFFFFFFFFFFFFFFFF NOT AND PUSH1 0x20 DUP3 ADD DUP1 MLOAD PUSH28 0xFFFFFFFFFFFFFFFFFFFFFFFFFFFFFFFFFFFFFFFFFFFFFFFFFFFFFFFF DUP4 DUP2 DUP4 AND OR DUP4 MSTORE POP POP POP POP PUSH2 0x20D8 JUMP JUMPDEST POP POP POP JUMP JUMPDEST PUSH1 0x0 PUSH2 0x213A DUP3 PUSH1 0x40 MLOAD DUP1 PUSH1 0x40 ADD PUSH1 0x40 MSTORE DUP1 PUSH1 0x20 DUP2 MSTORE PUSH1 0x20 ADD PUSH32 0x5361666545524332303A206C6F772D6C6576656C2063616C6C206661696C6564 DUP2 MSTORE POP DUP6 PUSH20 0xFFFFFFFFFFFFFFFFFFFFFFFFFFFFFFFFFFFFFFFF AND PUSH2 0x21A0 SWAP1 SWAP3 SWAP2 SWAP1 PUSH4 0xFFFFFFFF AND JUMP JUMPDEST SWAP1 POP PUSH1 0x0 DUP2 MLOAD EQ DUP1 PUSH2 0x215C JUMPI POP DUP1 DUP1 PUSH1 0x20 ADD SWAP1 MLOAD DUP2 ADD SWAP1 PUSH2 0x215B SWAP2 SWAP1 PUSH2 0x2C13 JUMP JUMPDEST JUMPDEST PUSH2 0x219B JUMPI PUSH1 0x40 MLOAD PUSH32 0x8C379A000000000000000000000000000000000000000000000000000000000 DUP2 MSTORE PUSH1 0x4 ADD PUSH2 0x2192 SWAP1 PUSH2 0x2CB2 JUMP JUMPDEST PUSH1 0x40 MLOAD DUP1 SWAP2 SUB SWAP1 REVERT JUMPDEST POP POP POP JUMP JUMPDEST PUSH1 0x60 PUSH2 0x21AF DUP5 DUP5 PUSH1 0x0 DUP6 PUSH2 0x21B8 JUMP JUMPDEST SWAP1 POP SWAP4 SWAP3 POP POP POP JUMP JUMPDEST PUSH1 0x60 DUP3 SELFBALANCE LT ISZERO PUSH2 0x21FD JUMPI PUSH1 0x40 MLOAD PUSH32 0x8C379A000000000000000000000000000000000000000000000000000000000 DUP2 MSTORE PUSH1 0x4 ADD PUSH2 0x21F4 SWAP1 PUSH2 0x2D44 JUMP JUMPDEST PUSH1 0x40 MLOAD DUP1 SWAP2 SUB SWAP1 REVERT JUMPDEST PUSH1 0x0 DUP1 DUP7 PUSH20 0xFFFFFFFFFFFFFFFFFFFFFFFFFFFFFFFFFFFFFFFF AND DUP6 DUP8 PUSH1 0x40 MLOAD PUSH2 0x2226 SWAP2 SWAP1 PUSH2 0x2DD5 JUMP JUMPDEST PUSH1 0x0 PUSH1 0x40 MLOAD DUP1 DUP4 SUB DUP2 DUP6 DUP8 GAS CALL SWAP3 POP POP POP RETURNDATASIZE DUP1 PUSH1 0x0 DUP2 EQ PUSH2 0x2263 JUMPI PUSH1 0x40 MLOAD SWAP2 POP PUSH1 0x1F NOT PUSH1 0x3F RETURNDATASIZE ADD AND DUP3 ADD PUSH1 0x40 MSTORE RETURNDATASIZE DUP3 MSTORE RETURNDATASIZE PUSH1 0x0 PUSH1 0x20 DUP5 ADD RETURNDATACOPY PUSH2 0x2268 JUMP JUMPDEST PUSH1 0x60 SWAP2 POP JUMPDEST POP SWAP2 POP SWAP2 POP PUSH2 0x2279 DUP8 DUP4 DUP4 DUP8 PUSH2 0x2285 JUMP JUMPDEST SWAP3 POP POP POP SWAP5 SWAP4 POP POP POP POP JUMP JUMPDEST PUSH1 0x60 DUP4 ISZERO PUSH2 0x22E7 JUMPI PUSH1 0x0 DUP4 MLOAD SUB PUSH2 0x22DF JUMPI PUSH2 0x229F DUP6 PUSH2 0x22FA JUMP JUMPDEST PUSH2 0x22DE JUMPI PUSH1 0x40 MLOAD PUSH32 0x8C379A000000000000000000000000000000000000000000000000000000000 DUP2 MSTORE PUSH1 0x4 ADD PUSH2 0x22D5 SWAP1 PUSH2 0x2E38 JUMP JUMPDEST PUSH1 0x40 MLOAD DUP1 SWAP2 SUB SWAP1 REVERT JUMPDEST JUMPDEST DUP3 SWAP1 POP PUSH2 0x22F2 JUMP JUMPDEST PUSH2 0x22F1 DUP4 DUP4 PUSH2 0x231D JUMP JUMPDEST JUMPDEST SWAP5 SWAP4 POP POP POP POP JUMP JUMPDEST PUSH1 0x0 DUP1 DUP3 PUSH20 0xFFFFFFFFFFFFFFFFFFFFFFFFFFFFFFFFFFFFFFFF AND EXTCODESIZE GT SWAP1 POP SWAP2 SWAP1 POP JUMP JUMPDEST PUSH1 0x0 DUP3 MLOAD GT ISZERO PUSH2 0x2330 JUMPI DUP2 MLOAD DUP1 DUP4 PUSH1 0x20 ADD REVERT JUMPDEST DUP1 PUSH1 0x40 MLOAD PUSH32 0x8C379A000000000000000000000000000000000000000000000000000000000 DUP2 MSTORE PUSH1 0x4 ADD PUSH2 0x2364 SWAP2 SWAP1 PUSH2 0x2EAD JUMP JUMPDEST PUSH1 0x40 MLOAD DUP1 SWAP2 SUB SWAP1 REVERT JUMPDEST PUSH1 0x0 DUP1 REVERT JUMPDEST PUSH1 0x0 PUSH20 0xFFFFFFFFFFFFFFFFFFFFFFFFFFFFFFFFFFFFFFFF DUP3 AND SWAP1 POP SWAP2 SWAP1 POP JUMP JUMPDEST PUSH1 0x0 PUSH2 0x239D DUP3 PUSH2 0x2372 JUMP JUMPDEST SWAP1 POP SWAP2 SWAP1 POP JUMP JUMPDEST PUSH2 0x23AD DUP2 PUSH2 0x2392 JUMP JUMPDEST DUP2 EQ PUSH2 0x23B8 JUMPI PUSH1 0x0 DUP1 REVERT JUMPDEST POP JUMP JUMPDEST PUSH1 0x0 DUP2 CALLDATALOAD SWAP1 POP PUSH2 0x23CA DUP2 PUSH2 0x23A4 JUMP JUMPDEST SWAP3 SWAP2 POP POP JUMP JUMPDEST PUSH1 0x0 PUSH16 0xFFFFFFFFFFFFFFFFFFFFFFFFFFFFFFFF DUP3 AND SWAP1 POP SWAP2 SWAP1 POP JUMP JUMPDEST PUSH2 0x23F5 DUP2 PUSH2 0x23D0 JUMP JUMPDEST DUP2 EQ PUSH2 0x2400 JUMPI PUSH1 0x0 DUP1 REVERT JUMPDEST POP JUMP JUMPDEST PUSH1 0x0 DUP2 CALLDATALOAD SWAP1 POP PUSH2 0x2412 DUP2 PUSH2 0x23EC JUMP JUMPDEST SWAP3 SWAP2 POP POP JUMP JUMPDEST PUSH1 0x0 DUP1 PUSH1 0x0 DUP1 PUSH1 0x80 DUP6 DUP8 SUB SLT ISZERO PUSH2 0x2432 JUMPI PUSH2 0x2431 PUSH2 0x236D JUMP JUMPDEST JUMPDEST PUSH1 0x0 PUSH2 0x2440 DUP8 DUP3 DUP9 ADD PUSH2 0x23BB JUMP JUMPDEST SWAP5 POP POP PUSH1 0x20 PUSH2 0x2451 DUP8 DUP3 DUP9 ADD PUSH2 0x23BB JUMP JUMPDEST SWAP4 POP POP PUSH1 0x40 PUSH2 0x2462 DUP8 DUP3 DUP9 ADD PUSH2 0x2403 JUMP JUMPDEST SWAP3 POP POP PUSH1 0x60 PUSH2 0x2473 DUP8 DUP3 DUP9 ADD PUSH2 0x2403 JUMP JUMPDEST SWAP2 POP POP SWAP3 SWAP6 SWAP2 SWAP5 POP SWAP3 POP JUMP JUMPDEST PUSH1 0x0 PUSH8 0xFFFFFFFFFFFFFFFF DUP3 AND SWAP1 POP SWAP2 SWAP1 POP JUMP JUMPDEST PUSH2 0x249C DUP2 PUSH2 0x247F JUMP JUMPDEST DUP2 EQ PUSH2 0x24A7 JUMPI PUSH1 0x0 DUP1 REVERT JUMPDEST POP JUMP JUMPDEST PUSH1 0x0 DUP2 CALLDATALOAD SWAP1 POP PUSH2 0x24B9 DUP2 PUSH2 0x2493 JUMP JUMPDEST SWAP3 SWAP2 POP POP JUMP JUMPDEST PUSH1 0x0 PUSH1 0x20 DUP3 DUP5 SUB SLT ISZERO PUSH2 0x24D5 JUMPI PUSH2 0x24D4 PUSH2 0x236D JUMP JUMPDEST JUMPDEST PUSH1 0x0 PUSH2 0x24E3 DUP5 DUP3 DUP6 ADD PUSH2 0x24AA JUMP JUMPDEST SWAP2 POP POP SWAP3 SWAP2 POP POP JUMP JUMPDEST PUSH1 0x0 DUP2 SWAP1 POP SWAP2 SWAP1 POP JUMP JUMPDEST PUSH2 0x24FF DUP2 PUSH2 0x24EC JUMP JUMPDEST DUP2 EQ PUSH2 0x250A JUMPI PUSH1 0x0 DUP1 REVERT JUMPDEST POP JUMP JUMPDEST PUSH1 0x0 DUP2 CALLDATALOAD SWAP1 POP PUSH2 0x251C DUP2 PUSH2 0x24F6 JUMP JUMPDEST SWAP3 SWAP2 POP POP JUMP JUMPDEST PUSH1 0x0 DUP1 PUSH1 0x40 DUP4 DUP6 SUB SLT ISZERO PUSH2 0x2539 JUMPI PUSH2 0x2538 PUSH2 0x236D JUMP JUMPDEST JUMPDEST PUSH1 0x0 PUSH2 0x2547 DUP6 DUP3 DUP7 ADD PUSH2 0x23BB JUMP JUMPDEST SWAP3 POP POP PUSH1 0x20 PUSH2 0x2558 DUP6 DUP3 DUP7 ADD PUSH2 0x250D JUMP JUMPDEST SWAP2 POP POP SWAP3 POP SWAP3 SWAP1 POP JUMP JUMPDEST PUSH1 0x0 DUP2 ISZERO ISZERO SWAP1 POP SWAP2 SWAP1 POP JUMP JUMPDEST PUSH2 0x2577 DUP2 PUSH2 0x2562 JUMP JUMPDEST DUP3 MSTORE POP POP JUMP JUMPDEST PUSH1 0x0 PUSH1 0x20 DUP3 ADD SWAP1 POP PUSH2 0x2592 PUSH1 0x0 DUP4 ADD DUP5 PUSH2 0x256E JUMP JUMPDEST SWAP3 SWAP2 POP POP JUMP JUMPDEST PUSH1 0x0 PUSH3 0xFFFFFF DUP3 AND SWAP1 POP SWAP2 SWAP1 POP JUMP JUMPDEST PUSH2 0x25B0 DUP2 PUSH2 0x2598 JUMP JUMPDEST DUP2 EQ PUSH2 0x25BB JUMPI PUSH1 0x0 DUP1 REVERT JUMPDEST POP JUMP JUMPDEST PUSH1 0x0 DUP2 CALLDATALOAD SWAP1 POP PUSH2 0x25CD DUP2 PUSH2 0x25A7 JUMP JUMPDEST SWAP3 SWAP2 POP POP JUMP JUMPDEST PUSH1 0x0 DUP1 PUSH1 0x0 PUSH1 0x60 DUP5 DUP7 SUB SLT ISZERO PUSH2 0x25EC JUMPI PUSH2 0x25EB PUSH2 0x236D JUMP JUMPDEST JUMPDEST PUSH1 0x0 PUSH2 0x25FA DUP7 DUP3 DUP8 ADD PUSH2 0x23BB JUMP JUMPDEST SWAP4 POP POP PUSH1 0x20 PUSH2 0x260B DUP7 DUP3 DUP8 ADD PUSH2 0x23BB JUMP JUMPDEST SWAP3 POP POP PUSH1 0x40 PUSH2 0x261C DUP7 DUP3 DUP8 ADD PUSH2 0x25BE JUMP JUMPDEST SWAP2 POP POP SWAP3 POP SWAP3 POP SWAP3 JUMP JUMPDEST PUSH2 0x262F DUP2 PUSH2 0x2392 JUMP JUMPDEST DUP3 MSTORE POP POP JUMP JUMPDEST PUSH1 0x0 PUSH1 0x20 DUP3 ADD SWAP1 POP PUSH2 0x264A PUSH1 0x0 DUP4 ADD DUP5 PUSH2 0x2626 JUMP JUMPDEST SWAP3 SWAP2 POP POP JUMP JUMPDEST PUSH1 0x0 DUP1 PUSH1 0x40 DUP4 DUP6 SUB SLT ISZERO PUSH2 0x2667 JUMPI PUSH2 0x2666 PUSH2 0x236D JUMP JUMPDEST JUMPDEST PUSH1 0x0 PUSH2 0x2675 DUP6 DUP3 DUP7 ADD PUSH2 0x2403 JUMP JUMPDEST SWAP3 POP POP PUSH1 0x20 PUSH2 0x2686 DUP6 DUP3 DUP7 ADD PUSH2 0x2403 JUMP JUMPDEST SWAP2 POP POP SWAP3 POP SWAP3 SWAP1 POP JUMP JUMPDEST PUSH2 0x2699 DUP2 PUSH2 0x24EC JUMP JUMPDEST DUP3 MSTORE POP POP JUMP JUMPDEST PUSH1 0x0 PUSH1 0x20 DUP3 ADD SWAP1 POP PUSH2 0x26B4 PUSH1 0x0 DUP4 ADD DUP5 PUSH2 0x2690 JUMP JUMPDEST SWAP3 SWAP2 POP POP JUMP JUMPDEST PUSH1 0x0 DUP1 PUSH1 0x40 DUP4 DUP6 SUB SLT ISZERO PUSH2 0x26D1 JUMPI PUSH2 0x26D0 PUSH2 0x236D JUMP JUMPDEST JUMPDEST PUSH1 0x0 PUSH2 0x26DF DUP6 DUP3 DUP7 ADD PUSH2 0x24AA JUMP JUMPDEST SWAP3 POP POP PUSH1 0x20 PUSH2 0x26F0 DUP6 DUP3 DUP7 ADD PUSH2 0x23BB JUMP JUMPDEST SWAP2 POP POP SWAP3 POP SWAP3 SWAP1 POP JUMP JUMPDEST PUSH32 0x4E487B7100000000000000000000000000000000000000000000000000000000 PUSH1 0x0 MSTORE PUSH1 0x11 PUSH1 0x4 MSTORE PUSH1 0x24 PUSH1 0x0 REVERT JUMPDEST PUSH1 0x0 PUSH2 0x2734 DUP3 PUSH2 0x23D0 JUMP JUMPDEST SWAP2 POP PUSH2 0x273F DUP4 PUSH2 0x23D0 JUMP JUMPDEST SWAP3 POP DUP3 DUP3 MUL PUSH2 0x274D DUP2 PUSH2 0x23D0 JUMP JUMPDEST SWAP2 POP DUP1 DUP3 EQ PUSH2 0x275F JUMPI PUSH2 0x275E PUSH2 0x26FA JUMP JUMPDEST JUMPDEST POP SWAP3 SWAP2 POP POP JUMP JUMPDEST PUSH1 0x0 PUSH2 0x2771 DUP3 PUSH2 0x24EC JUMP JUMPDEST SWAP2 POP PUSH2 0x277C DUP4 PUSH2 0x24EC JUMP JUMPDEST SWAP3 POP DUP3 DUP3 ADD SWAP1 POP DUP1 DUP3 GT ISZERO PUSH2 0x2794 JUMPI PUSH2 0x2793 PUSH2 0x26FA JUMP JUMPDEST JUMPDEST SWAP3 SWAP2 POP POP JUMP JUMPDEST PUSH1 0x0 DUP2 SWAP1 POP SWAP2 SWAP1 POP JUMP JUMPDEST PUSH1 0x0 DUP2 SWAP1 POP SWAP2 SWAP1 POP JUMP JUMPDEST PUSH1 0x0 PUSH2 0x27C9 PUSH2 0x27C4 PUSH2 0x27BF DUP5 PUSH2 0x279A JUMP JUMPDEST PUSH2 0x27A4 JUMP JUMPDEST PUSH2 0x24EC JUMP JUMPDEST SWAP1 POP SWAP2 SWAP1 POP JUMP JUMPDEST PUSH2 0x27D9 DUP2 PUSH2 0x27AE JUMP JUMPDEST DUP3 MSTORE POP POP JUMP JUMPDEST PUSH1 0x0 DUP2 SWAP1 POP SWAP2 SWAP1 POP JUMP JUMPDEST PUSH1 0x0 PUSH2 0x2804 PUSH2 0x27FF PUSH2 0x27FA DUP5 PUSH2 0x27DF JUMP JUMPDEST PUSH2 0x27A4 JUMP JUMPDEST PUSH2 0x24EC JUMP JUMPDEST SWAP1 POP SWAP2 SWAP1 POP JUMP JUMPDEST PUSH2 0x2814 DUP2 PUSH2 0x27E9 JUMP JUMPDEST DUP3 MSTORE POP POP JUMP JUMPDEST PUSH1 0x0 PUSH2 0x100 DUP3 ADD SWAP1 POP PUSH2 0x2830 PUSH1 0x0 DUP4 ADD DUP12 PUSH2 0x2626 JUMP JUMPDEST PUSH2 0x283D PUSH1 0x20 DUP4 ADD DUP11 PUSH2 0x2626 JUMP JUMPDEST PUSH2 0x284A PUSH1 0x40 DUP4 ADD DUP10 PUSH2 0x2690 JUMP JUMPDEST PUSH2 0x2857 PUSH1 0x60 DUP4 ADD DUP9 PUSH2 0x27D0 JUMP JUMPDEST PUSH2 0x2864 PUSH1 0x80 DUP4 ADD DUP8 PUSH2 0x280B JUMP JUMPDEST PUSH2 0x2871 PUSH1 0xA0 DUP4 ADD DUP7 PUSH2 0x27D0 JUMP JUMPDEST PUSH2 0x287E PUSH1 0xC0 DUP4 ADD DUP6 PUSH2 0x2626 JUMP JUMPDEST PUSH2 0x288B PUSH1 0xE0 DUP4 ADD DUP5 PUSH2 0x2690 JUMP JUMPDEST SWAP10 SWAP9 POP POP POP POP POP POP POP POP POP JUMP JUMPDEST PUSH1 0x0 DUP2 MLOAD SWAP1 POP PUSH2 0x28A7 DUP2 PUSH2 0x24F6 JUMP JUMPDEST SWAP3 SWAP2 POP POP JUMP JUMPDEST PUSH1 0x0 DUP1 PUSH1 0x0 PUSH1 0x60 DUP5 DUP7 SUB SLT ISZERO PUSH2 0x28C6 JUMPI PUSH2 0x28C5 PUSH2 0x236D JUMP JUMPDEST JUMPDEST PUSH1 0x0 PUSH2 0x28D4 DUP7 DUP3 DUP8 ADD PUSH2 0x2898 JUMP JUMPDEST SWAP4 POP POP PUSH1 0x20 PUSH2 0x28E5 DUP7 DUP3 DUP8 ADD PUSH2 0x2898 JUMP JUMPDEST SWAP3 POP POP PUSH1 0x40 PUSH2 0x28F6 DUP7 DUP3 DUP8 ADD PUSH2 0x2898 JUMP JUMPDEST SWAP2 POP POP SWAP3 POP SWAP3 POP SWAP3 JUMP JUMPDEST PUSH1 0x0 PUSH2 0x290B DUP3 PUSH2 0x247F JUMP JUMPDEST SWAP2 POP PUSH8 0xFFFFFFFFFFFFFFFF DUP3 SUB PUSH2 0x2925 JUMPI PUSH2 0x2924 PUSH2 0x26FA JUMP JUMPDEST JUMPDEST PUSH1 0x1 DUP3 ADD SWAP1 POP SWAP2 SWAP1 POP JUMP JUMPDEST PUSH1 0x0 PUSH2 0x293B DUP3 PUSH2 0x24EC JUMP JUMPDEST SWAP2 POP PUSH2 0x2946 DUP4 PUSH2 0x24EC JUMP JUMPDEST SWAP3 POP DUP3 DUP3 SUB SWAP1 POP DUP2 DUP2 GT ISZERO PUSH2 0x295E JUMPI PUSH2 0x295D PUSH2 0x26FA JUMP JUMPDEST JUMPDEST SWAP3 SWAP2 POP POP JUMP JUMPDEST PUSH2 0x296D DUP2 PUSH2 0x2598 JUMP JUMPDEST DUP3 MSTORE POP POP JUMP JUMPDEST PUSH1 0x0 PUSH1 0x60 DUP3 ADD SWAP1 POP PUSH2 0x2988 PUSH1 0x0 DUP4 ADD DUP7 PUSH2 0x2626 JUMP JUMPDEST PUSH2 0x2995 PUSH1 0x20 DUP4 ADD DUP6 PUSH2 0x2626 JUMP JUMPDEST PUSH2 0x29A2 PUSH1 0x40 DUP4 ADD DUP5 PUSH2 0x2964 JUMP JUMPDEST SWAP5 SWAP4 POP POP POP POP JUMP JUMPDEST PUSH1 0x0 DUP2 MLOAD SWAP1 POP PUSH2 0x29B9 DUP2 PUSH2 0x23A4 JUMP JUMPDEST SWAP3 SWAP2 POP POP JUMP JUMPDEST PUSH1 0x0 PUSH1 0x20 DUP3 DUP5 SUB SLT ISZERO PUSH2 0x29D5 JUMPI PUSH2 0x29D4 PUSH2 0x236D JUMP JUMPDEST JUMPDEST PUSH1 0x0 PUSH2 0x29E3 DUP5 DUP3 DUP6 ADD PUSH2 0x29AA JUMP JUMPDEST SWAP2 POP POP SWAP3 SWAP2 POP POP JUMP JUMPDEST PUSH1 0x0 PUSH2 0x29F7 DUP3 PUSH2 0x24EC JUMP JUMPDEST SWAP2 POP PUSH2 0x2A02 DUP4 PUSH2 0x24EC JUMP JUMPDEST SWAP3 POP DUP3 DUP3 MUL PUSH2 0x2A10 DUP2 PUSH2 0x24EC JUMP JUMPDEST SWAP2 POP DUP3 DUP3 DIV DUP5 EQ DUP4 ISZERO OR PUSH2 0x2A27 JUMPI PUSH2 0x2A26 PUSH2 0x26FA JUMP JUMPDEST JUMPDEST POP SWAP3 SWAP2 POP POP JUMP JUMPDEST PUSH32 0x4E487B7100000000000000000000000000000000000000000000000000000000 PUSH1 0x0 MSTORE PUSH1 0x12 PUSH1 0x4 MSTORE PUSH1 0x24 PUSH1 0x0 REVERT JUMPDEST PUSH1 0x0 PUSH2 0x2A68 DUP3 PUSH2 0x24EC JUMP JUMPDEST SWAP2 POP PUSH2 0x2A73 DUP4 PUSH2 0x24EC JUMP JUMPDEST SWAP3 POP DUP3 PUSH2 0x2A83 JUMPI PUSH2 0x2A82 PUSH2 0x2A2E JUMP JUMPDEST JUMPDEST DUP3 DUP3 DIV SWAP1 POP SWAP3 SWAP2 POP POP JUMP JUMPDEST PUSH1 0x0 PUSH1 0x60 DUP3 ADD SWAP1 POP PUSH2 0x2AA3 PUSH1 0x0 DUP4 ADD DUP7 PUSH2 0x2626 JUMP JUMPDEST PUSH2 0x2AB0 PUSH1 0x20 DUP4 ADD DUP6 PUSH2 0x2626 JUMP JUMPDEST PUSH2 0x2ABD PUSH1 0x40 DUP4 ADD DUP5 PUSH2 0x2690 JUMP JUMPDEST SWAP5 SWAP4 POP POP POP POP JUMP JUMPDEST PUSH1 0x0 PUSH1 0x40 DUP3 ADD SWAP1 POP PUSH2 0x2ADA PUSH1 0x0 DUP4 ADD DUP6 PUSH2 0x2626 JUMP JUMPDEST PUSH2 0x2AE7 PUSH1 0x20 DUP4 ADD DUP5 PUSH2 0x2626 JUMP JUMPDEST SWAP4 SWAP3 POP POP POP JUMP JUMPDEST PUSH1 0x0 PUSH1 0x20 DUP3 DUP5 SUB SLT ISZERO PUSH2 0x2B04 JUMPI PUSH2 0x2B03 PUSH2 0x236D JUMP JUMPDEST JUMPDEST PUSH1 0x0 PUSH2 0x2B12 DUP5 DUP3 DUP6 ADD PUSH2 0x2898 JUMP JUMPDEST SWAP2 POP POP SWAP3 SWAP2 POP POP JUMP JUMPDEST PUSH1 0x0 DUP3 DUP3 MSTORE PUSH1 0x20 DUP3 ADD SWAP1 POP SWAP3 SWAP2 POP POP JUMP JUMPDEST PUSH32 0x5361666545524332303A20617070726F76652066726F6D206E6F6E2D7A65726F PUSH1 0x0 DUP3 ADD MSTORE PUSH32 0x20746F206E6F6E2D7A65726F20616C6C6F77616E636500000000000000000000 PUSH1 0x20 DUP3 ADD MSTORE POP JUMP JUMPDEST PUSH1 0x0 PUSH2 0x2B88 PUSH1 0x36 DUP4 PUSH2 0x2B1B JUMP JUMPDEST SWAP2 POP PUSH2 0x2B93 DUP3 PUSH2 0x2B2C JUMP JUMPDEST PUSH1 0x40 DUP3 ADD SWAP1 POP SWAP2 SWAP1 POP JUMP JUMPDEST PUSH1 0x0 PUSH1 0x20 DUP3 ADD SWAP1 POP DUP2 DUP2 SUB PUSH1 0x0 DUP4 ADD MSTORE PUSH2 0x2BB7 DUP2 PUSH2 0x2B7B JUMP JUMPDEST SWAP1 POP SWAP2 SWAP1 POP JUMP JUMPDEST PUSH1 0x0 PUSH1 0x40 DUP3 ADD SWAP1 POP PUSH2 0x2BD3 PUSH1 0x0 DUP4 ADD DUP6 PUSH2 0x2626 JUMP JUMPDEST PUSH2 0x2BE0 PUSH1 0x20 DUP4 ADD DUP5 PUSH2 0x2690 JUMP JUMPDEST SWAP4 SWAP3 POP POP POP JUMP JUMPDEST PUSH2 0x2BF0 DUP2 PUSH2 0x2562 JUMP JUMPDEST DUP2 EQ PUSH2 0x2BFB JUMPI PUSH1 0x0 DUP1 REVERT JUMPDEST POP JUMP JUMPDEST PUSH1 0x0 DUP2 MLOAD SWAP1 POP PUSH2 0x2C0D DUP2 PUSH2 0x2BE7 JUMP JUMPDEST SWAP3 SWAP2 POP POP JUMP JUMPDEST PUSH1 0x0 PUSH1 0x20 DUP3 DUP5 SUB SLT ISZERO PUSH2 0x2C29 JUMPI PUSH2 0x2C28 PUSH2 0x236D JUMP JUMPDEST JUMPDEST PUSH1 0x0 PUSH2 0x2C37 DUP5 DUP3 DUP6 ADD PUSH2 0x2BFE JUMP JUMPDEST SWAP2 POP POP SWAP3 SWAP2 POP POP JUMP JUMPDEST PUSH32 0x5361666545524332303A204552433230206F7065726174696F6E20646964206E PUSH1 0x0 DUP3 ADD MSTORE PUSH32 0x6F74207375636365656400000000000000000000000000000000000000000000 PUSH1 0x20 DUP3 ADD MSTORE POP JUMP JUMPDEST PUSH1 0x0 PUSH2 0x2C9C PUSH1 0x2A DUP4 PUSH2 0x2B1B JUMP JUMPDEST SWAP2 POP PUSH2 0x2CA7 DUP3 PUSH2 0x2C40 JUMP JUMPDEST PUSH1 0x40 DUP3 ADD SWAP1 POP SWAP2 SWAP1 POP JUMP JUMPDEST PUSH1 0x0 PUSH1 0x20 DUP3 ADD SWAP1 POP DUP2 DUP2 SUB PUSH1 0x0 DUP4 ADD MSTORE PUSH2 0x2CCB DUP2 PUSH2 0x2C8F JUMP JUMPDEST SWAP1 POP SWAP2 SWAP1 POP JUMP JUMPDEST PUSH32 0x416464726573733A20696E73756666696369656E742062616C616E636520666F PUSH1 0x0 DUP3 ADD MSTORE PUSH32 0x722063616C6C0000000000000000000000000000000000000000000000000000 PUSH1 0x20 DUP3 ADD MSTORE POP JUMP JUMPDEST PUSH1 0x0 PUSH2 0x2D2E PUSH1 0x26 DUP4 PUSH2 0x2B1B JUMP JUMPDEST SWAP2 POP PUSH2 0x2D39 DUP3 PUSH2 0x2CD2 JUMP JUMPDEST PUSH1 0x40 DUP3 ADD SWAP1 POP SWAP2 SWAP1 POP JUMP JUMPDEST PUSH1 0x0 PUSH1 0x20 DUP3 ADD SWAP1 POP DUP2 DUP2 SUB PUSH1 0x0 DUP4 ADD MSTORE PUSH2 0x2D5D DUP2 PUSH2 0x2D21 JUMP JUMPDEST SWAP1 POP SWAP2 SWAP1 POP JUMP JUMPDEST PUSH1 0x0 DUP2 MLOAD SWAP1 POP SWAP2 SWAP1 POP JUMP JUMPDEST PUSH1 0x0 DUP2 SWAP1 POP SWAP3 SWAP2 POP POP JUMP JUMPDEST PUSH1 0x0 JUMPDEST DUP4 DUP2 LT ISZERO PUSH2 0x2D98 JUMPI DUP1 DUP3 ADD MLOAD DUP2 DUP5 ADD MSTORE PUSH1 0x20 DUP2 ADD SWAP1 POP PUSH2 0x2D7D JUMP JUMPDEST PUSH1 0x0 DUP5 DUP5 ADD MSTORE POP POP POP POP JUMP JUMPDEST PUSH1 0x0 PUSH2 0x2DAF DUP3 PUSH2 0x2D64 JUMP JUMPDEST PUSH2 0x2DB9 DUP2 DUP6 PUSH2 0x2D6F JUMP JUMPDEST SWAP4 POP PUSH2 0x2DC9 DUP2 DUP6 PUSH1 0x20 DUP7 ADD PUSH2 0x2D7A JUMP JUMPDEST DUP1 DUP5 ADD SWAP2 POP POP SWAP3 SWAP2 POP POP JUMP JUMPDEST PUSH1 0x0 PUSH2 0x2DE1 DUP3 DUP5 PUSH2 0x2DA4 JUMP JUMPDEST SWAP2 POP DUP2 SWAP1 POP SWAP3 SWAP2 POP POP JUMP JUMPDEST PUSH32 0x416464726573733A2063616C6C20746F206E6F6E2D636F6E7472616374000000 PUSH1 0x0 DUP3 ADD MSTORE POP JUMP JUMPDEST PUSH1 0x0 PUSH2 0x2E22 PUSH1 0x1D DUP4 PUSH2 0x2B1B JUMP JUMPDEST SWAP2 POP PUSH2 0x2E2D DUP3 PUSH2 0x2DEC JUMP JUMPDEST PUSH1 0x20 DUP3 ADD SWAP1 POP SWAP2 SWAP1 POP JUMP JUMPDEST PUSH1 0x0 PUSH1 0x20 DUP3 ADD SWAP1 POP DUP2 DUP2 SUB PUSH1 0x0 DUP4 ADD MSTORE PUSH2 0x2E51 DUP2 PUSH2 0x2E15 JUMP JUMPDEST SWAP1 POP SWAP2 SWAP1 POP JUMP JUMPDEST PUSH1 0x0 DUP2 MLOAD SWAP1 POP SWAP2 SWAP1 POP JUMP JUMPDEST PUSH1 0x0 PUSH1 0x1F NOT PUSH1 0x1F DUP4 ADD AND SWAP1 POP SWAP2 SWAP1 POP JUMP JUMPDEST PUSH1 0x0 PUSH2 0x2E7F DUP3 PUSH2 0x2E58 JUMP JUMPDEST PUSH2 0x2E89 DUP2 DUP6 PUSH2 0x2B1B JUMP JUMPDEST SWAP4 POP PUSH2 0x2E99 DUP2 DUP6 PUSH1 0x20 DUP7 ADD PUSH2 0x2D7A JUMP JUMPDEST PUSH2 0x2EA2 DUP2 PUSH2 0x2E63 JUMP JUMPDEST DUP5 ADD SWAP2 POP POP SWAP3 SWAP2 POP POP JUMP JUMPDEST PUSH1 0x0 PUSH1 0x20 DUP3 ADD SWAP1 POP DUP2 DUP2 SUB PUSH1 0x0 DUP4 ADD MSTORE PUSH2 0x2EC7 DUP2 DUP5 PUSH2 0x2E74 JUMP JUMPDEST SWAP1 POP SWAP3 SWAP2 POP POP JUMP INVALID LOG2 PUSH5 0x6970667358 0x22 SLT KECCAK256 SHR SWAP14 CALL 0xB0 CALLDATALOAD 0xE4 STATICCALL 0xBD 0xD7 DIV 0xB7 0xC1 0xB9 MULMOD EXTCODESIZE PC SWAP11 PREVRANDAO NOT CALLCODE JUMP PUSH10 0xA21492BB2F973D19F018 PUSH5 0x736F6C6343 STOP ADDMOD SGT STOP CALLER "
				},
				"gasEstimates": {
					"creation": {
						"codeDepositCost": "2407400",
						"executionCost": "infinite",
						"totalCost": "infinite"
					},
					"external": {
						"Sale(uint64,address)": "infinite",
						"buy(address,address,uint128,uint128)": "infinite",
						"buyerWithdrawAirdorp(uint64)": "infinite",
						"buyerWithdrawRefund(uint64)": "infinite",
						"getPenal(uint128,uint128)": "infinite",
						"getPoolAddress(address,address,uint24)": "infinite",
						"injectFutureToken(uint64)": "infinite",
						"profileEarn(uint64)": "434",
						"solderWithdrawStable(uint64)": "infinite",
						"userIfWithdraw1(address,uint256)": "3154",
						"userIfWithdraw2(address,uint256)": "3153",
						"userIfWithdraw3(address,uint256)": "3132",
						"userIfWithdraw4(address,uint256)": "3175"
					},
					"internal": {
						"getBuyer(uint64)": "2266",
						"getSolder(uint64)": "2266"
					}
				},
				"methodIdentifiers": {
					"Sale(uint64,address)": "d91af492",
					"buy(address,address,uint128,uint128)": "0d45431d",
					"buyerWithdrawAirdorp(uint64)": "c0102de4",
					"buyerWithdrawRefund(uint64)": "2895cb7b",
					"getPenal(uint128,uint128)": "98c50fdd",
					"getPoolAddress(address,address,uint24)": "696d6283",
					"injectFutureToken(uint64)": "25ac3a73",
					"profileEarn(uint64)": "c3cf1aa6",
					"solderWithdrawStable(uint64)": "77bcd8a6",
					"userIfWithdraw1(address,uint256)": "59de2f60",
					"userIfWithdraw2(address,uint256)": "df0905c6",
					"userIfWithdraw3(address,uint256)": "b8d7f980",
					"userIfWithdraw4(address,uint256)": "fc993ea8"
				}
			},
			"storageLayout": {
				"storage": [
					{
						"astId": 21,
						"contract": "contracts/TimeMarket.sol:TimeMarket",
						"label": "clearingTime",
						"offset": 0,
						"slot": "0",
						"type": "t_uint56"
					},
					{
						"astId": 23,
						"contract": "contracts/TimeMarket.sol:TimeMarket",
						"label": "id",
						"offset": 7,
						"slot": "0",
						"type": "t_uint64"
					},
					{
						"astId": 25,
						"contract": "contracts/TimeMarket.sol:TimeMarket",
						"label": "airdropToken",
						"offset": 0,
						"slot": "1",
						"type": "t_address"
					},
					{
						"astId": 27,
						"contract": "contracts/TimeMarket.sol:TimeMarket",
						"label": "uniV2Factory",
						"offset": 0,
						"slot": "2",
						"type": "t_address"
					},
					{
						"astId": 29,
						"contract": "contracts/TimeMarket.sol:TimeMarket",
						"label": "uniV2Router02",
						"offset": 0,
						"slot": "3",
						"type": "t_address"
					},
					{
						"astId": 32,
						"contract": "contracts/TimeMarket.sol:TimeMarket",
						"label": "uniV3Factory",
						"offset": 0,
						"slot": "4",
						"type": "t_address"
					},
					{
						"astId": 35,
						"contract": "contracts/TimeMarket.sol:TimeMarket",
						"label": "NonfungiblePositionManager",
						"offset": 0,
						"slot": "5",
						"type": "t_address"
					},
					{
						"astId": 59,
						"contract": "contracts/TimeMarket.sol:TimeMarket",
						"label": "_tradeMes",
						"offset": 0,
						"slot": "6",
						"type": "t_mapping(t_uint64,t_struct(tradeMes)1211_storage)"
					},
					{
						"astId": 65,
						"contract": "contracts/TimeMarket.sol:TimeMarket",
						"label": "ifInject",
						"offset": 0,
						"slot": "7",
						"type": "t_mapping(t_address,t_mapping(t_uint256,t_bool))"
					},
					{
						"astId": 71,
						"contract": "contracts/TimeMarket.sol:TimeMarket",
						"label": "userIfWithdraw1",
						"offset": 0,
						"slot": "8",
						"type": "t_mapping(t_address,t_mapping(t_uint256,t_bool))"
					},
					{
						"astId": 77,
						"contract": "contracts/TimeMarket.sol:TimeMarket",
						"label": "userIfWithdraw2",
						"offset": 0,
						"slot": "9",
						"type": "t_mapping(t_address,t_mapping(t_uint256,t_bool))"
					},
					{
						"astId": 83,
						"contract": "contracts/TimeMarket.sol:TimeMarket",
						"label": "userIfWithdraw3",
						"offset": 0,
						"slot": "10",
						"type": "t_mapping(t_address,t_mapping(t_uint256,t_bool))"
					},
					{
						"astId": 89,
						"contract": "contracts/TimeMarket.sol:TimeMarket",
						"label": "userIfWithdraw4",
						"offset": 0,
						"slot": "11",
						"type": "t_mapping(t_address,t_mapping(t_uint256,t_bool))"
					}
				],
				"types": {
					"t_address": {
						"encoding": "inplace",
						"label": "address",
						"numberOfBytes": "20"
					},
					"t_bool": {
						"encoding": "inplace",
						"label": "bool",
						"numberOfBytes": "1"
					},
					"t_mapping(t_address,t_mapping(t_uint256,t_bool))": {
						"encoding": "mapping",
						"key": "t_address",
						"label": "mapping(address => mapping(uint256 => bool))",
						"numberOfBytes": "32",
						"value": "t_mapping(t_uint256,t_bool)"
					},
					"t_mapping(t_uint256,t_bool)": {
						"encoding": "mapping",
						"key": "t_uint256",
						"label": "mapping(uint256 => bool)",
						"numberOfBytes": "32",
						"value": "t_bool"
					},
					"t_mapping(t_uint64,t_struct(tradeMes)1211_storage)": {
						"encoding": "mapping",
						"key": "t_uint64",
						"label": "mapping(uint64 => struct ITimeStruct.tradeMes)",
						"numberOfBytes": "32",
						"value": "t_struct(tradeMes)1211_storage"
					},
					"t_struct(tradeMes)1211_storage": {
						"encoding": "inplace",
						"label": "struct ITimeStruct.tradeMes",
						"members": [
							{
								"astId": 1196,
								"contract": "contracts/TimeMarket.sol:TimeMarket",
								"label": "tradeState",
								"offset": 0,
								"slot": "0",
								"type": "t_uint8"
							},
							{
								"astId": 1198,
								"contract": "contracts/TimeMarket.sol:TimeMarket",
								"label": "tradeId",
								"offset": 1,
								"slot": "0",
								"type": "t_uint64"
							},
							{
								"astId": 1200,
								"contract": "contracts/TimeMarket.sol:TimeMarket",
								"label": "buyTime",
								"offset": 9,
								"slot": "0",
								"type": "t_uint56"
							},
							{
								"astId": 1202,
								"contract": "contracts/TimeMarket.sol:TimeMarket",
								"label": "buyTotalAmount",
								"offset": 16,
								"slot": "0",
								"type": "t_uint128"
							},
							{
								"astId": 1204,
								"contract": "contracts/TimeMarket.sol:TimeMarket",
								"label": "buyPrice",
								"offset": 0,
								"slot": "1",
								"type": "t_uint128"
							},
							{
								"astId": 1206,
								"contract": "contracts/TimeMarket.sol:TimeMarket",
								"label": "tokenAddress",
								"offset": 0,
								"slot": "2",
								"type": "t_address"
							},
							{
								"astId": 1208,
								"contract": "contracts/TimeMarket.sol:TimeMarket",
								"label": "buyerAddress",
								"offset": 0,
								"slot": "3",
								"type": "t_address"
							},
							{
								"astId": 1210,
								"contract": "contracts/TimeMarket.sol:TimeMarket",
								"label": "solderAddress",
								"offset": 0,
								"slot": "4",
								"type": "t_address"
							}
						],
						"numberOfBytes": "160"
					},
					"t_uint128": {
						"encoding": "inplace",
						"label": "uint128",
						"numberOfBytes": "16"
					},
					"t_uint256": {
						"encoding": "inplace",
						"label": "uint256",
						"numberOfBytes": "32"
					},
					"t_uint56": {
						"encoding": "inplace",
						"label": "uint56",
						"numberOfBytes": "7"
					},
					"t_uint64": {
						"encoding": "inplace",
						"label": "uint64",
						"numberOfBytes": "8"
					},
					"t_uint8": {
						"encoding": "inplace",
						"label": "uint8",
						"numberOfBytes": "1"
					}
				}
			},
			"userdoc": {
				"kind": "user",
				"methods": {},
				"version": 1
			}
		}
	}
}