{
	"contracts/RewradPool.sol": {
		"RewardPool": {
			"abi": [
				{
					"inputs": [
						{
							"internalType": "address",
							"name": "_TFAddress",
							"type": "address"
						}
					],
					"stateMutability": "nonpayable",
					"type": "constructor"
				},
				{
					"inputs": [],
					"name": "AlreadyWithdraw",
					"type": "error"
				},
				{
					"inputs": [],
					"name": "FailTransfer",
					"type": "error"
				},
				{
					"inputs": [],
					"name": "NoTFERC20",
					"type": "error"
				},
				{
					"inputs": [
						{
							"internalType": "address",
							"name": "userAddress",
							"type": "address"
						}
					],
					"name": "getTFERC20Amount",
					"outputs": [
						{
							"internalType": "uint256",
							"name": "",
							"type": "uint256"
						}
					],
					"stateMutability": "view",
					"type": "function"
				},
				{
					"inputs": [],
					"name": "getTotal",
					"outputs": [
						{
							"internalType": "uint256",
							"name": "",
							"type": "uint256"
						}
					],
					"stateMutability": "view",
					"type": "function"
				},
				{
					"inputs": [
						{
							"internalType": "address",
							"name": "stableAddress",
							"type": "address"
						}
					],
					"name": "profit",
					"outputs": [
						{
							"internalType": "uint256",
							"name": "userEarn",
							"type": "uint256"
						}
					],
					"stateMutability": "view",
					"type": "function"
				},
				{
					"inputs": [
						{
							"internalType": "address",
							"name": "stableAddress",
							"type": "address"
						}
					],
					"name": "withdrawReward",
					"outputs": [],
					"stateMutability": "nonpayable",
					"type": "function"
				}
			],
			"devdoc": {
				"kind": "dev",
				"methods": {},
				"version": 1
			},
			"evm": {
				"assembly": "    /* \"contracts/RewradPool.sol\":181:1754  contract RewardPool is IRewardPool{... */\n  mstore(0x40, 0x80)\n    /* \"contracts/RewradPool.sol\":308:378  constructor(address _TFAddress){... */\n  callvalue\n  dup1\n  iszero\n  tag_1\n  jumpi\n  0x00\n  dup1\n  revert\ntag_1:\n  pop\n  mload(0x40)\n  sub(codesize, bytecodeSize)\n  dup1\n  bytecodeSize\n  dup4\n  codecopy\n  dup2\n  dup2\n  add\n  0x40\n  mstore\n  dup2\n  add\n  swap1\n  tag_2\n  swap2\n  swap1\n  tag_3\n  jump\t// in\ntag_2:\n    /* \"contracts/RewradPool.sol\":360:370  _TFAddress */\n  dup1\n    /* \"contracts/RewradPool.sol\":350:359  TFAddress */\n  0x00\n  dup1\n    /* \"contracts/RewradPool.sol\":350:370  TFAddress=_TFAddress */\n  0x0100\n  exp\n  dup2\n  sload\n  dup2\n  0xffffffffffffffffffffffffffffffffffffffff\n  mul\n  not\n  and\n  swap1\n  dup4\n  0xffffffffffffffffffffffffffffffffffffffff\n  and\n  mul\n  or\n  swap1\n  sstore\n  pop\n    /* \"contracts/RewradPool.sol\":308:378  constructor(address _TFAddress){... */\n  pop\n    /* \"contracts/RewradPool.sol\":181:1754  contract RewardPool is IRewardPool{... */\n  jump(tag_6)\n    /* \"#utility.yul\":88:205   */\ntag_8:\n    /* \"#utility.yul\":197:198   */\n  0x00\n    /* \"#utility.yul\":194:195   */\n  dup1\n    /* \"#utility.yul\":187:199   */\n  revert\n    /* \"#utility.yul\":334:460   */\ntag_10:\n    /* \"#utility.yul\":371:378   */\n  0x00\n    /* \"#utility.yul\":411:453   */\n  0xffffffffffffffffffffffffffffffffffffffff\n    /* \"#utility.yul\":404:409   */\n  dup3\n    /* \"#utility.yul\":400:454   */\n  and\n    /* \"#utility.yul\":389:454   */\n  swap1\n  pop\n    /* \"#utility.yul\":334:460   */\n  swap2\n  swap1\n  pop\n  jump\t// out\n    /* \"#utility.yul\":466:562   */\ntag_11:\n    /* \"#utility.yul\":503:510   */\n  0x00\n    /* \"#utility.yul\":532:556   */\n  tag_20\n    /* \"#utility.yul\":550:555   */\n  dup3\n    /* \"#utility.yul\":532:556   */\n  tag_10\n  jump\t// in\ntag_20:\n    /* \"#utility.yul\":521:556   */\n  swap1\n  pop\n    /* \"#utility.yul\":466:562   */\n  swap2\n  swap1\n  pop\n  jump\t// out\n    /* \"#utility.yul\":568:690   */\ntag_12:\n    /* \"#utility.yul\":641:665   */\n  tag_22\n    /* \"#utility.yul\":659:664   */\n  dup2\n    /* \"#utility.yul\":641:665   */\n  tag_11\n  jump\t// in\ntag_22:\n    /* \"#utility.yul\":634:639   */\n  dup2\n    /* \"#utility.yul\":631:666   */\n  eq\n    /* \"#utility.yul\":621:684   */\n  tag_23\n  jumpi\n    /* \"#utility.yul\":680:681   */\n  0x00\n    /* \"#utility.yul\":677:678   */\n  dup1\n    /* \"#utility.yul\":670:682   */\n  revert\n    /* \"#utility.yul\":621:684   */\ntag_23:\n    /* \"#utility.yul\":568:690   */\n  pop\n  jump\t// out\n    /* \"#utility.yul\":696:839   */\ntag_13:\n    /* \"#utility.yul\":753:758   */\n  0x00\n    /* \"#utility.yul\":784:790   */\n  dup2\n    /* \"#utility.yul\":778:791   */\n  mload\n    /* \"#utility.yul\":769:791   */\n  swap1\n  pop\n    /* \"#utility.yul\":800:833   */\n  tag_25\n    /* \"#utility.yul\":827:832   */\n  dup2\n    /* \"#utility.yul\":800:833   */\n  tag_12\n  jump\t// in\ntag_25:\n    /* \"#utility.yul\":696:839   */\n  swap3\n  swap2\n  pop\n  pop\n  jump\t// out\n    /* \"#utility.yul\":845:1196   */\ntag_3:\n    /* \"#utility.yul\":915:921   */\n  0x00\n    /* \"#utility.yul\":964:966   */\n  0x20\n    /* \"#utility.yul\":952:961   */\n  dup3\n    /* \"#utility.yul\":943:950   */\n  dup5\n    /* \"#utility.yul\":939:962   */\n  sub\n    /* \"#utility.yul\":935:967   */\n  slt\n    /* \"#utility.yul\":932:1051   */\n  iszero\n  tag_27\n  jumpi\n    /* \"#utility.yul\":970:1049   */\n  tag_28\n  tag_8\n  jump\t// in\ntag_28:\n    /* \"#utility.yul\":932:1051   */\ntag_27:\n    /* \"#utility.yul\":1090:1091   */\n  0x00\n    /* \"#utility.yul\":1115:1179   */\n  tag_29\n    /* \"#utility.yul\":1171:1178   */\n  dup5\n    /* \"#utility.yul\":1162:1168   */\n  dup3\n    /* \"#utility.yul\":1151:1160   */\n  dup6\n    /* \"#utility.yul\":1147:1169   */\n  add\n    /* \"#utility.yul\":1115:1179   */\n  tag_13\n  jump\t// in\ntag_29:\n    /* \"#utility.yul\":1105:1179   */\n  swap2\n  pop\n    /* \"#utility.yul\":1061:1189   */\n  pop\n    /* \"#utility.yul\":845:1196   */\n  swap3\n  swap2\n  pop\n  pop\n  jump\t// out\n    /* \"contracts/RewradPool.sol\":181:1754  contract RewardPool is IRewardPool{... */\ntag_6:\n  dataSize(sub_0)\n  dup1\n  dataOffset(sub_0)\n  0x00\n  codecopy\n  0x00\n  return\nstop\n\nsub_0: assembly {\n        /* \"contracts/RewradPool.sol\":181:1754  contract RewardPool is IRewardPool{... */\n      mstore(0x40, 0x80)\n      callvalue\n      dup1\n      iszero\n      tag_1\n      jumpi\n      0x00\n      dup1\n      revert\n    tag_1:\n      pop\n      jumpi(tag_2, lt(calldatasize, 0x04))\n      shr(0xe0, calldataload(0x00))\n      dup1\n      0x02550e4d\n      eq\n      tag_3\n      jumpi\n      dup1\n      0x775a25e3\n      eq\n      tag_4\n      jumpi\n      dup1\n      0xaf32b7a1\n      eq\n      tag_5\n      jumpi\n      dup1\n      0xb86e321c\n      eq\n      tag_6\n      jumpi\n    tag_2:\n      0x00\n      dup1\n      revert\n        /* \"contracts/RewradPool.sol\":999:1415  function profit(address stableAddress)public view returns(uint256 userEarn){... */\n    tag_3:\n      tag_7\n      0x04\n      dup1\n      calldatasize\n      sub\n      dup2\n      add\n      swap1\n      tag_8\n      swap2\n      swap1\n      tag_9\n      jump\t// in\n    tag_8:\n      tag_10\n      jump\t// in\n    tag_7:\n      mload(0x40)\n      tag_11\n      swap2\n      swap1\n      tag_12\n      jump\t// in\n    tag_11:\n      mload(0x40)\n      dup1\n      swap2\n      sub\n      swap1\n      return\n        /* \"contracts/RewradPool.sol\":1451:1563  function getTotal()public view returns(uint256){... */\n    tag_4:\n      tag_13\n      tag_14\n      jump\t// in\n    tag_13:\n      mload(0x40)\n      tag_15\n      swap2\n      swap1\n      tag_12\n      jump\t// in\n    tag_15:\n      mload(0x40)\n      dup1\n      swap2\n      sub\n      swap1\n      return\n        /* \"contracts/RewradPool.sol\":1611:1751  function getTFERC20Amount(address userAddress)public view returns(uint256){... */\n    tag_5:\n      tag_16\n      0x04\n      dup1\n      calldatasize\n      sub\n      dup2\n      add\n      swap1\n      tag_17\n      swap2\n      swap1\n      tag_9\n      jump\t// in\n    tag_17:\n      tag_18\n      jump\t// in\n    tag_16:\n      mload(0x40)\n      tag_19\n      swap2\n      swap1\n      tag_12\n      jump\t// in\n    tag_19:\n      mload(0x40)\n      dup1\n      swap2\n      sub\n      swap1\n      return\n        /* \"contracts/RewradPool.sol\":490:962  function withdrawReward(address stableAddress)external{... */\n    tag_6:\n      tag_20\n      0x04\n      dup1\n      calldatasize\n      sub\n      dup2\n      add\n      swap1\n      tag_21\n      swap2\n      swap1\n      tag_9\n      jump\t// in\n    tag_21:\n      tag_22\n      jump\t// in\n    tag_20:\n      stop\n        /* \"contracts/RewradPool.sol\":999:1415  function profit(address stableAddress)public view returns(uint256 userEarn){... */\n    tag_10:\n        /* \"contracts/RewradPool.sol\":1057:1073  uint256 userEarn */\n      0x00\n        /* \"contracts/RewradPool.sol\":1085:1105  uint256 stableAmount */\n      dup1\n        /* \"contracts/RewradPool.sol\":1113:1126  stableAddress */\n      dup3\n        /* \"contracts/RewradPool.sol\":1106:1137  IERC20(stableAddress).balanceOf */\n      0xffffffffffffffffffffffffffffffffffffffff\n      and\n      0x70a08231\n        /* \"contracts/RewradPool.sol\":1146:1150  this */\n      address\n        /* \"contracts/RewradPool.sol\":1106:1152  IERC20(stableAddress).balanceOf(address(this)) */\n      mload(0x40)\n      dup3\n      0xffffffff\n      and\n      0xe0\n      shl\n      dup2\n      mstore\n      0x04\n      add\n      tag_24\n      swap2\n      swap1\n      tag_25\n      jump\t// in\n    tag_24:\n      0x20\n      mload(0x40)\n      dup1\n      dup4\n      sub\n      dup2\n      dup7\n      dup1\n      extcodesize\n      iszero\n      dup1\n      iszero\n      tag_26\n      jumpi\n      0x00\n      dup1\n      revert\n    tag_26:\n      pop\n      gas\n      staticcall\n      iszero\n      dup1\n      iszero\n      tag_28\n      jumpi\n      returndatasize\n      0x00\n      dup1\n      returndatacopy\n      revert(0x00, returndatasize)\n    tag_28:\n      pop\n      pop\n      pop\n      pop\n      mload(0x40)\n      returndatasize\n      not(0x1f)\n      0x1f\n      dup3\n      add\n      and\n      dup3\n      add\n      dup1\n      0x40\n      mstore\n      pop\n      dup2\n      add\n      swap1\n      tag_29\n      swap2\n      swap1\n      tag_30\n      jump\t// in\n    tag_29:\n        /* \"contracts/RewradPool.sol\":1085:1152  uint256 stableAmount=IERC20(stableAddress).balanceOf(address(this)) */\n      swap1\n      pop\n        /* \"contracts/RewradPool.sol\":1163:1191  uint256 personlTFERC20Amount */\n      0x00\n        /* \"contracts/RewradPool.sol\":1192:1220  getTFERC20Amount(msg.sender) */\n      tag_31\n        /* \"contracts/RewradPool.sol\":1209:1219  msg.sender */\n      caller\n        /* \"contracts/RewradPool.sol\":1192:1208  getTFERC20Amount */\n      tag_18\n        /* \"contracts/RewradPool.sol\":1192:1220  getTFERC20Amount(msg.sender) */\n      jump\t// in\n    tag_31:\n        /* \"contracts/RewradPool.sol\":1163:1220  uint256 personlTFERC20Amount=getTFERC20Amount(msg.sender) */\n      swap1\n      pop\n        /* \"contracts/RewradPool.sol\":1234:1248  userIfWithdraw */\n      0x01\n        /* \"contracts/RewradPool.sol\":1234:1260  userIfWithdraw[msg.sender] */\n      0x00\n        /* \"contracts/RewradPool.sol\":1249:1259  msg.sender */\n      caller\n        /* \"contracts/RewradPool.sol\":1234:1260  userIfWithdraw[msg.sender] */\n      0xffffffffffffffffffffffffffffffffffffffff\n      and\n      0xffffffffffffffffffffffffffffffffffffffff\n      and\n      dup2\n      mstore\n      0x20\n      add\n      swap1\n      dup2\n      mstore\n      0x20\n      add\n      0x00\n      keccak256\n      0x00\n      swap1\n      sload\n      swap1\n      0x0100\n      exp\n      swap1\n      div\n      0xff\n      and\n        /* \"contracts/RewradPool.sol\":1231:1288  if(userIfWithdraw[msg.sender]){revert AlreadyWithdraw();} */\n      iszero\n      tag_32\n      jumpi\n        /* \"contracts/RewradPool.sol\":1269:1286  AlreadyWithdraw() */\n      mload(0x40)\n      0xa727014000000000000000000000000000000000000000000000000000000000\n      dup2\n      mstore\n      0x04\n      add\n      mload(0x40)\n      dup1\n      swap2\n      sub\n      swap1\n      revert\n        /* \"contracts/RewradPool.sol\":1231:1288  if(userIfWithdraw[msg.sender]){revert AlreadyWithdraw();} */\n    tag_32:\n        /* \"contracts/RewradPool.sol\":1395:1407  stableAmount */\n      dup2\n        /* \"contracts/RewradPool.sol\":1384:1394  getTotal() */\n      tag_33\n        /* \"contracts/RewradPool.sol\":1384:1392  getTotal */\n      tag_14\n        /* \"contracts/RewradPool.sol\":1384:1394  getTotal() */\n      jump\t// in\n    tag_33:\n        /* \"contracts/RewradPool.sol\":1363:1383  personlTFERC20Amount */\n      dup3\n        /* \"contracts/RewradPool.sol\":1363:1394  personlTFERC20Amount/getTotal() */\n      tag_34\n      swap2\n      swap1\n      tag_35\n      jump\t// in\n    tag_34:\n        /* \"contracts/RewradPool.sol\":1363:1407  personlTFERC20Amount/getTotal()*stableAmount */\n      tag_36\n      swap2\n      swap1\n      tag_37\n      jump\t// in\n    tag_36:\n        /* \"contracts/RewradPool.sol\":1352:1407  userEarn = personlTFERC20Amount/getTotal()*stableAmount */\n      swap3\n      pop\n        /* \"contracts/RewradPool.sol\":1074:1415  {... */\n      pop\n      pop\n        /* \"contracts/RewradPool.sol\":999:1415  function profit(address stableAddress)public view returns(uint256 userEarn){... */\n      swap2\n      swap1\n      pop\n      jump\t// out\n        /* \"contracts/RewradPool.sol\":1451:1563  function getTotal()public view returns(uint256){... */\n    tag_14:\n        /* \"contracts/RewradPool.sol\":1490:1497  uint256 */\n      0x00\n        /* \"contracts/RewradPool.sol\":1531:1540  TFAddress */\n      dup1\n      0x00\n      swap1\n      sload\n      swap1\n      0x0100\n      exp\n      swap1\n      div\n      0xffffffffffffffffffffffffffffffffffffffff\n      and\n        /* \"contracts/RewradPool.sol\":1516:1553  IERC20Metadata(TFAddress).totalSupply */\n      0xffffffffffffffffffffffffffffffffffffffff\n      and\n      0x18160ddd\n        /* \"contracts/RewradPool.sol\":1516:1555  IERC20Metadata(TFAddress).totalSupply() */\n      mload(0x40)\n      dup2\n      0xffffffff\n      and\n      0xe0\n      shl\n      dup2\n      mstore\n      0x04\n      add\n      0x20\n      mload(0x40)\n      dup1\n      dup4\n      sub\n      dup2\n      dup7\n      dup1\n      extcodesize\n      iszero\n      dup1\n      iszero\n      tag_39\n      jumpi\n      0x00\n      dup1\n      revert\n    tag_39:\n      pop\n      gas\n      staticcall\n      iszero\n      dup1\n      iszero\n      tag_41\n      jumpi\n      returndatasize\n      0x00\n      dup1\n      returndatacopy\n      revert(0x00, returndatasize)\n    tag_41:\n      pop\n      pop\n      pop\n      pop\n      mload(0x40)\n      returndatasize\n      not(0x1f)\n      0x1f\n      dup3\n      add\n      and\n      dup3\n      add\n      dup1\n      0x40\n      mstore\n      pop\n      dup2\n      add\n      swap1\n      tag_42\n      swap2\n      swap1\n      tag_30\n      jump\t// in\n    tag_42:\n        /* \"contracts/RewradPool.sol\":1509:1555  return IERC20Metadata(TFAddress).totalSupply() */\n      swap1\n      pop\n        /* \"contracts/RewradPool.sol\":1451:1563  function getTotal()public view returns(uint256){... */\n      swap1\n      jump\t// out\n        /* \"contracts/RewradPool.sol\":1611:1751  function getTFERC20Amount(address userAddress)public view returns(uint256){... */\n    tag_18:\n        /* \"contracts/RewradPool.sol\":1677:1684  uint256 */\n      0x00\n        /* \"contracts/RewradPool.sol\":1710:1719  TFAddress */\n      dup1\n      0x00\n      swap1\n      sload\n      swap1\n      0x0100\n      exp\n      swap1\n      div\n      0xffffffffffffffffffffffffffffffffffffffff\n      and\n        /* \"contracts/RewradPool.sol\":1703:1730  IERC20(TFAddress).balanceOf */\n      0xffffffffffffffffffffffffffffffffffffffff\n      and\n      0x70a08231\n        /* \"contracts/RewradPool.sol\":1731:1742  userAddress */\n      dup4\n        /* \"contracts/RewradPool.sol\":1703:1743  IERC20(TFAddress).balanceOf(userAddress) */\n      mload(0x40)\n      dup3\n      0xffffffff\n      and\n      0xe0\n      shl\n      dup2\n      mstore\n      0x04\n      add\n      tag_44\n      swap2\n      swap1\n      tag_25\n      jump\t// in\n    tag_44:\n      0x20\n      mload(0x40)\n      dup1\n      dup4\n      sub\n      dup2\n      dup7\n      dup1\n      extcodesize\n      iszero\n      dup1\n      iszero\n      tag_45\n      jumpi\n      0x00\n      dup1\n      revert\n    tag_45:\n      pop\n      gas\n      staticcall\n      iszero\n      dup1\n      iszero\n      tag_47\n      jumpi\n      returndatasize\n      0x00\n      dup1\n      returndatacopy\n      revert(0x00, returndatasize)\n    tag_47:\n      pop\n      pop\n      pop\n      pop\n      mload(0x40)\n      returndatasize\n      not(0x1f)\n      0x1f\n      dup3\n      add\n      and\n      dup3\n      add\n      dup1\n      0x40\n      mstore\n      pop\n      dup2\n      add\n      swap1\n      tag_48\n      swap2\n      swap1\n      tag_30\n      jump\t// in\n    tag_48:\n        /* \"contracts/RewradPool.sol\":1696:1743  return IERC20(TFAddress).balanceOf(userAddress) */\n      swap1\n      pop\n        /* \"contracts/RewradPool.sol\":1611:1751  function getTFERC20Amount(address userAddress)public view returns(uint256){... */\n      swap2\n      swap1\n      pop\n      jump\t// out\n        /* \"contracts/RewradPool.sol\":490:962  function withdrawReward(address stableAddress)external{... */\n    tag_22:\n        /* \"contracts/RewradPool.sol\":555:583  uint256 personlTFERC20Amount */\n      0x00\n        /* \"contracts/RewradPool.sol\":584:612  getTFERC20Amount(msg.sender) */\n      tag_50\n        /* \"contracts/RewradPool.sol\":601:611  msg.sender */\n      caller\n        /* \"contracts/RewradPool.sol\":584:600  getTFERC20Amount */\n      tag_18\n        /* \"contracts/RewradPool.sol\":584:612  getTFERC20Amount(msg.sender) */\n      jump\t// in\n    tag_50:\n        /* \"contracts/RewradPool.sol\":555:612  uint256 personlTFERC20Amount=getTFERC20Amount(msg.sender) */\n      swap1\n      pop\n        /* \"contracts/RewradPool.sol\":647:648  0 */\n      0x00\n        /* \"contracts/RewradPool.sol\":626:646  personlTFERC20Amount */\n      dup2\n        /* \"contracts/RewradPool.sol\":626:648  personlTFERC20Amount>0 */\n      gt\n        /* \"contracts/RewradPool.sol\":623:670  if(personlTFERC20Amount>0){revert NoTFERC20();} */\n      iszero\n      tag_51\n      jumpi\n        /* \"contracts/RewradPool.sol\":657:668  NoTFERC20() */\n      mload(0x40)\n      0x5695054900000000000000000000000000000000000000000000000000000000\n      dup2\n      mstore\n      0x04\n      add\n      mload(0x40)\n      dup1\n      swap2\n      sub\n      swap1\n      revert\n        /* \"contracts/RewradPool.sol\":623:670  if(personlTFERC20Amount>0){revert NoTFERC20();} */\n    tag_51:\n        /* \"contracts/RewradPool.sol\":680:698  uint256 userProfit */\n      0x00\n        /* \"contracts/RewradPool.sol\":699:720  profit(stableAddress) */\n      tag_52\n        /* \"contracts/RewradPool.sol\":706:719  stableAddress */\n      dup4\n        /* \"contracts/RewradPool.sol\":699:705  profit */\n      tag_10\n        /* \"contracts/RewradPool.sol\":699:720  profit(stableAddress) */\n      jump\t// in\n    tag_52:\n        /* \"contracts/RewradPool.sol\":680:720  uint256 userProfit=profit(stableAddress) */\n      swap1\n      pop\n        /* \"contracts/RewradPool.sol\":781:844  IERC20(TFAddress).safeTransfer(address(0),personlTFERC20Amount) */\n      tag_53\n        /* \"contracts/RewradPool.sol\":820:821  0 */\n      0x00\n        /* \"contracts/RewradPool.sol\":823:843  personlTFERC20Amount */\n      dup4\n        /* \"contracts/RewradPool.sol\":788:797  TFAddress */\n      0x00\n      dup1\n      sload\n      swap1\n      0x0100\n      exp\n      swap1\n      div\n      0xffffffffffffffffffffffffffffffffffffffff\n      and\n        /* \"contracts/RewradPool.sol\":781:811  IERC20(TFAddress).safeTransfer */\n      0xffffffffffffffffffffffffffffffffffffffff\n      and\n      tag_54\n      swap1\n        /* \"contracts/RewradPool.sol\":781:844  IERC20(TFAddress).safeTransfer(address(0),personlTFERC20Amount) */\n      swap3\n      swap2\n      swap1\n      0xffffffff\n      and\n      jump\t// in\n    tag_53:\n        /* \"contracts/RewradPool.sol\":855:912  IERC20(stableAddress).safeTransfer(msg.sender,userProfit) */\n      tag_55\n        /* \"contracts/RewradPool.sol\":890:900  msg.sender */\n      caller\n        /* \"contracts/RewradPool.sol\":901:911  userProfit */\n      dup3\n        /* \"contracts/RewradPool.sol\":862:875  stableAddress */\n      dup6\n        /* \"contracts/RewradPool.sol\":855:889  IERC20(stableAddress).safeTransfer */\n      0xffffffffffffffffffffffffffffffffffffffff\n      and\n      tag_54\n      swap1\n        /* \"contracts/RewradPool.sol\":855:912  IERC20(stableAddress).safeTransfer(msg.sender,userProfit) */\n      swap3\n      swap2\n      swap1\n      0xffffffff\n      and\n      jump\t// in\n    tag_55:\n        /* \"contracts/RewradPool.sol\":950:954  true */\n      0x01\n        /* \"contracts/RewradPool.sol\":923:937  userIfWithdraw */\n      dup1\n        /* \"contracts/RewradPool.sol\":923:949  userIfWithdraw[msg.sender] */\n      0x00\n        /* \"contracts/RewradPool.sol\":938:948  msg.sender */\n      caller\n        /* \"contracts/RewradPool.sol\":923:949  userIfWithdraw[msg.sender] */\n      0xffffffffffffffffffffffffffffffffffffffff\n      and\n      0xffffffffffffffffffffffffffffffffffffffff\n      and\n      dup2\n      mstore\n      0x20\n      add\n      swap1\n      dup2\n      mstore\n      0x20\n      add\n      0x00\n      keccak256\n      0x00\n        /* \"contracts/RewradPool.sol\":923:954  userIfWithdraw[msg.sender]=true */\n      0x0100\n      exp\n      dup2\n      sload\n      dup2\n      0xff\n      mul\n      not\n      and\n      swap1\n      dup4\n      iszero\n      iszero\n      mul\n      or\n      swap1\n      sstore\n      pop\n        /* \"contracts/RewradPool.sol\":544:962  {... */\n      pop\n      pop\n        /* \"contracts/RewradPool.sol\":490:962  function withdrawReward(address stableAddress)external{... */\n      pop\n      jump\t// out\n        /* \"libraries/SafeERC20.sol\":1025:1202  function safeTransfer(IERC20 token, address to, uint256 value) internal {... */\n    tag_54:\n        /* \"libraries/SafeERC20.sol\":1108:1194  _callOptionalReturn(token, abi.encodeWithSelector(token.transfer.selector, to, value)) */\n      tag_57\n        /* \"libraries/SafeERC20.sol\":1128:1133  token */\n      dup4\n        /* \"libraries/SafeERC20.sol\":1158:1181  token.transfer.selector */\n      shl(0xe0, 0xa9059cbb)\n        /* \"libraries/SafeERC20.sol\":1183:1185  to */\n      dup5\n        /* \"libraries/SafeERC20.sol\":1187:1192  value */\n      dup5\n        /* \"libraries/SafeERC20.sol\":1135:1193  abi.encodeWithSelector(token.transfer.selector, to, value) */\n      add(0x24, mload(0x40))\n      tag_58\n      swap3\n      swap2\n      swap1\n      tag_59\n      jump\t// in\n    tag_58:\n      mload(0x40)\n      0x20\n      dup2\n      dup4\n      sub\n      sub\n      dup2\n      mstore\n      swap1\n      0x40\n      mstore\n      swap1\n      not(0xffffffffffffffffffffffffffffffffffffffffffffffffffffffff)\n      and\n      0x20\n      dup3\n      add\n      dup1\n      mload\n      0xffffffffffffffffffffffffffffffffffffffffffffffffffffffff\n      dup4\n      dup2\n      dup4\n      and\n      or\n      dup4\n      mstore\n      pop\n      pop\n      pop\n      pop\n        /* \"libraries/SafeERC20.sol\":1108:1127  _callOptionalReturn */\n      tag_60\n        /* \"libraries/SafeERC20.sol\":1108:1194  _callOptionalReturn(token, abi.encodeWithSelector(token.transfer.selector, to, value)) */\n      jump\t// in\n    tag_57:\n        /* \"libraries/SafeERC20.sol\":1025:1202  function safeTransfer(IERC20 token, address to, uint256 value) internal {... */\n      pop\n      pop\n      pop\n      jump\t// out\n        /* \"libraries/SafeERC20.sol\":5371:6020  function _callOptionalReturn(IERC20 token, bytes memory data) private {... */\n    tag_60:\n        /* \"libraries/SafeERC20.sol\":5795:5818  bytes memory returndata */\n      0x00\n        /* \"libraries/SafeERC20.sol\":5821:5890  address(token).functionCall(data, \"SafeERC20: low-level call failed\") */\n      tag_62\n        /* \"libraries/SafeERC20.sol\":5849:5853  data */\n      dup3\n        /* \"libraries/SafeERC20.sol\":5821:5890  address(token).functionCall(data, \"SafeERC20: low-level call failed\") */\n      mload(0x40)\n      dup1\n      0x40\n      add\n      0x40\n      mstore\n      dup1\n      0x20\n      dup2\n      mstore\n      0x20\n      add\n      0x5361666545524332303a206c6f772d6c6576656c2063616c6c206661696c6564\n      dup2\n      mstore\n      pop\n        /* \"libraries/SafeERC20.sol\":5829:5834  token */\n      dup6\n        /* \"libraries/SafeERC20.sol\":5821:5848  address(token).functionCall */\n      0xffffffffffffffffffffffffffffffffffffffff\n      and\n      tag_63\n      swap1\n        /* \"libraries/SafeERC20.sol\":5821:5890  address(token).functionCall(data, \"SafeERC20: low-level call failed\") */\n      swap3\n      swap2\n      swap1\n      0xffffffff\n      and\n      jump\t// in\n    tag_62:\n        /* \"libraries/SafeERC20.sol\":5795:5890  bytes memory returndata = address(token).functionCall(data, \"SafeERC20: low-level call failed\") */\n      swap1\n      pop\n        /* \"libraries/SafeERC20.sol\":5930:5931  0 */\n      0x00\n        /* \"libraries/SafeERC20.sol\":5909:5919  returndata */\n      dup2\n        /* \"libraries/SafeERC20.sol\":5909:5926  returndata.length */\n      mload\n        /* \"libraries/SafeERC20.sol\":5909:5931  returndata.length == 0 */\n      eq\n        /* \"libraries/SafeERC20.sol\":5909:5965  returndata.length == 0 || abi.decode(returndata, (bool)) */\n      dup1\n      tag_64\n      jumpi\n      pop\n        /* \"libraries/SafeERC20.sol\":5946:5956  returndata */\n      dup1\n        /* \"libraries/SafeERC20.sol\":5935:5965  abi.decode(returndata, (bool)) */\n      dup1\n      0x20\n      add\n      swap1\n      mload\n      dup2\n      add\n      swap1\n      tag_65\n      swap2\n      swap1\n      tag_66\n      jump\t// in\n    tag_65:\n        /* \"libraries/SafeERC20.sol\":5909:5965  returndata.length == 0 || abi.decode(returndata, (bool)) */\n    tag_64:\n        /* \"libraries/SafeERC20.sol\":5901:6012  require(returndata.length == 0 || abi.decode(returndata, (bool)), \"SafeERC20: ERC20 operation did not succeed\") */\n      tag_67\n      jumpi\n      mload(0x40)\n      0x08c379a000000000000000000000000000000000000000000000000000000000\n      dup2\n      mstore\n      0x04\n      add\n      tag_68\n      swap1\n      tag_69\n      jump\t// in\n    tag_68:\n      mload(0x40)\n      dup1\n      swap2\n      sub\n      swap1\n      revert\n    tag_67:\n        /* \"libraries/SafeERC20.sol\":5441:6020  {... */\n      pop\n        /* \"libraries/SafeERC20.sol\":5371:6020  function _callOptionalReturn(IERC20 token, bytes memory data) private {... */\n      pop\n      pop\n      jump\t// out\n        /* \"libraries/Address.sol\":4207:4436  function functionCall(... */\n    tag_63:\n        /* \"libraries/Address.sol\":4344:4356  bytes memory */\n      0x60\n        /* \"libraries/Address.sol\":4376:4428  functionCallWithValue(target, data, 0, errorMessage) */\n      tag_71\n        /* \"libraries/Address.sol\":4398:4404  target */\n      dup5\n        /* \"libraries/Address.sol\":4406:4410  data */\n      dup5\n        /* \"libraries/Address.sol\":4412:4413  0 */\n      0x00\n        /* \"libraries/Address.sol\":4415:4427  errorMessage */\n      dup6\n        /* \"libraries/Address.sol\":4376:4397  functionCallWithValue */\n      tag_72\n        /* \"libraries/Address.sol\":4376:4428  functionCallWithValue(target, data, 0, errorMessage) */\n      jump\t// in\n    tag_71:\n        /* \"libraries/Address.sol\":4369:4428  return functionCallWithValue(target, data, 0, errorMessage) */\n      swap1\n      pop\n        /* \"libraries/Address.sol\":4207:4436  function functionCall(... */\n      swap4\n      swap3\n      pop\n      pop\n      pop\n      jump\t// out\n        /* \"libraries/Address.sol\":5293:5748  function functionCallWithValue(... */\n    tag_72:\n        /* \"libraries/Address.sol\":5463:5475  bytes memory */\n      0x60\n        /* \"libraries/Address.sol\":5521:5526  value */\n      dup3\n        /* \"libraries/Address.sol\":5496:5517  address(this).balance */\n      selfbalance\n        /* \"libraries/Address.sol\":5496:5526  address(this).balance >= value */\n      lt\n      iszero\n        /* \"libraries/Address.sol\":5488:5569  require(address(this).balance >= value, \"Address: insufficient balance for call\") */\n      tag_74\n      jumpi\n      mload(0x40)\n      0x08c379a000000000000000000000000000000000000000000000000000000000\n      dup2\n      mstore\n      0x04\n      add\n      tag_75\n      swap1\n      tag_76\n      jump\t// in\n    tag_75:\n      mload(0x40)\n      dup1\n      swap2\n      sub\n      swap1\n      revert\n    tag_74:\n        /* \"libraries/Address.sol\":5581:5593  bool success */\n      0x00\n        /* \"libraries/Address.sol\":5595:5618  bytes memory returndata */\n      dup1\n        /* \"libraries/Address.sol\":5622:5628  target */\n      dup7\n        /* \"libraries/Address.sol\":5622:5633  target.call */\n      0xffffffffffffffffffffffffffffffffffffffff\n      and\n        /* \"libraries/Address.sol\":5641:5646  value */\n      dup6\n        /* \"libraries/Address.sol\":5648:5652  data */\n      dup8\n        /* \"libraries/Address.sol\":5622:5653  target.call{value: value}(data) */\n      mload(0x40)\n      tag_77\n      swap2\n      swap1\n      tag_78\n      jump\t// in\n    tag_77:\n      0x00\n      mload(0x40)\n      dup1\n      dup4\n      sub\n      dup2\n      dup6\n      dup8\n      gas\n      call\n      swap3\n      pop\n      pop\n      pop\n      returndatasize\n      dup1\n      0x00\n      dup2\n      eq\n      tag_81\n      jumpi\n      mload(0x40)\n      swap2\n      pop\n      and(add(returndatasize, 0x3f), not(0x1f))\n      dup3\n      add\n      0x40\n      mstore\n      returndatasize\n      dup3\n      mstore\n      returndatasize\n      0x00\n      0x20\n      dup5\n      add\n      returndatacopy\n      jump(tag_80)\n    tag_81:\n      0x60\n      swap2\n      pop\n    tag_80:\n      pop\n        /* \"libraries/Address.sol\":5580:5653  (bool success, bytes memory returndata) = target.call{value: value}(data) */\n      swap2\n      pop\n      swap2\n      pop\n        /* \"libraries/Address.sol\":5671:5740  verifyCallResultFromTarget(target, success, returndata, errorMessage) */\n      tag_82\n        /* \"libraries/Address.sol\":5698:5704  target */\n      dup8\n        /* \"libraries/Address.sol\":5706:5713  success */\n      dup4\n        /* \"libraries/Address.sol\":5715:5725  returndata */\n      dup4\n        /* \"libraries/Address.sol\":5727:5739  errorMessage */\n      dup8\n        /* \"libraries/Address.sol\":5671:5697  verifyCallResultFromTarget */\n      tag_83\n        /* \"libraries/Address.sol\":5671:5740  verifyCallResultFromTarget(target, success, returndata, errorMessage) */\n      jump\t// in\n    tag_82:\n        /* \"libraries/Address.sol\":5664:5740  return verifyCallResultFromTarget(target, success, returndata, errorMessage) */\n      swap3\n      pop\n      pop\n      pop\n        /* \"libraries/Address.sol\":5293:5748  function functionCallWithValue(... */\n      swap5\n      swap4\n      pop\n      pop\n      pop\n      pop\n      jump\t// out\n        /* \"libraries/Address.sol\":7866:8510  function verifyCallResultFromTarget(... */\n    tag_83:\n        /* \"libraries/Address.sol\":8051:8063  bytes memory */\n      0x60\n        /* \"libraries/Address.sol\":8080:8087  success */\n      dup4\n        /* \"libraries/Address.sol\":8076:8503  if (success) {... */\n      iszero\n      tag_85\n      jumpi\n        /* \"libraries/Address.sol\":8129:8130  0 */\n      0x00\n        /* \"libraries/Address.sol\":8108:8118  returndata */\n      dup4\n        /* \"libraries/Address.sol\":8108:8125  returndata.length */\n      mload\n        /* \"libraries/Address.sol\":8108:8130  returndata.length == 0 */\n      eq\n        /* \"libraries/Address.sol\":8104:8394  if (returndata.length == 0) {... */\n      iszero\n      tag_86\n      jumpi\n        /* \"libraries/Address.sol\":8326:8344  isContract(target) */\n      tag_87\n        /* \"libraries/Address.sol\":8337:8343  target */\n      dup6\n        /* \"libraries/Address.sol\":8326:8336  isContract */\n      tag_88\n        /* \"libraries/Address.sol\":8326:8344  isContract(target) */\n      jump\t// in\n    tag_87:\n        /* \"libraries/Address.sol\":8318:8378  require(isContract(target), \"Address: call to non-contract\") */\n      tag_89\n      jumpi\n      mload(0x40)\n      0x08c379a000000000000000000000000000000000000000000000000000000000\n      dup2\n      mstore\n      0x04\n      add\n      tag_90\n      swap1\n      tag_91\n      jump\t// in\n    tag_90:\n      mload(0x40)\n      dup1\n      swap2\n      sub\n      swap1\n      revert\n    tag_89:\n        /* \"libraries/Address.sol\":8104:8394  if (returndata.length == 0) {... */\n    tag_86:\n        /* \"libraries/Address.sol\":8415:8425  returndata */\n      dup3\n        /* \"libraries/Address.sol\":8408:8425  return returndata */\n      swap1\n      pop\n      jump(tag_84)\n        /* \"libraries/Address.sol\":8076:8503  if (success) {... */\n    tag_85:\n        /* \"libraries/Address.sol\":8458:8491  _revert(returndata, errorMessage) */\n      tag_93\n        /* \"libraries/Address.sol\":8466:8476  returndata */\n      dup4\n        /* \"libraries/Address.sol\":8478:8490  errorMessage */\n      dup4\n        /* \"libraries/Address.sol\":8458:8465  _revert */\n      tag_94\n        /* \"libraries/Address.sol\":8458:8491  _revert(returndata, errorMessage) */\n      jump\t// in\n    tag_93:\n        /* \"libraries/Address.sol\":7866:8510  function verifyCallResultFromTarget(... */\n    tag_84:\n      swap5\n      swap4\n      pop\n      pop\n      pop\n      pop\n      jump\t// out\n        /* \"libraries/Address.sol\":1452:1778  function isContract(address account) internal view returns (bool) {... */\n    tag_88:\n        /* \"libraries/Address.sol\":1512:1516  bool */\n      0x00\n        /* \"libraries/Address.sol\":1769:1770  0 */\n      dup1\n        /* \"libraries/Address.sol\":1747:1754  account */\n      dup3\n        /* \"libraries/Address.sol\":1747:1766  account.code.length */\n      0xffffffffffffffffffffffffffffffffffffffff\n      and\n      extcodesize\n        /* \"libraries/Address.sol\":1747:1770  account.code.length > 0 */\n      gt\n        /* \"libraries/Address.sol\":1740:1770  return account.code.length > 0 */\n      swap1\n      pop\n        /* \"libraries/Address.sol\":1452:1778  function isContract(address account) internal view returns (bool) {... */\n      swap2\n      swap1\n      pop\n      jump\t// out\n        /* \"libraries/Address.sol\":9052:9604  function _revert(bytes memory returndata, string memory errorMessage) private pure {... */\n    tag_94:\n        /* \"libraries/Address.sol\":9233:9234  0 */\n      0x00\n        /* \"libraries/Address.sol\":9213:9223  returndata */\n      dup3\n        /* \"libraries/Address.sol\":9213:9230  returndata.length */\n      mload\n        /* \"libraries/Address.sol\":9213:9234  returndata.length > 0 */\n      gt\n        /* \"libraries/Address.sol\":9209:9597  if (returndata.length > 0) {... */\n      iszero\n      tag_97\n      jumpi\n        /* \"libraries/Address.sol\":9445:9455  returndata */\n      dup2\n        /* \"libraries/Address.sol\":9439:9456  mload(returndata) */\n      mload\n        /* \"libraries/Address.sol\":9502:9517  returndata_size */\n      dup1\n        /* \"libraries/Address.sol\":9489:9499  returndata */\n      dup4\n        /* \"libraries/Address.sol\":9485:9487  32 */\n      0x20\n        /* \"libraries/Address.sol\":9481:9500  add(32, returndata) */\n      add\n        /* \"libraries/Address.sol\":9474:9518  revert(add(32, returndata), returndata_size) */\n      revert\n        /* \"libraries/Address.sol\":9209:9597  if (returndata.length > 0) {... */\n    tag_97:\n        /* \"libraries/Address.sol\":9572:9584  errorMessage */\n      dup1\n        /* \"libraries/Address.sol\":9565:9585  revert(errorMessage) */\n      mload(0x40)\n      0x08c379a000000000000000000000000000000000000000000000000000000000\n      dup2\n      mstore\n      0x04\n      add\n      tag_99\n      swap2\n      swap1\n      tag_100\n      jump\t// in\n    tag_99:\n      mload(0x40)\n      dup1\n      swap2\n      sub\n      swap1\n      revert\n        /* \"#utility.yul\":88:205   */\n    tag_102:\n        /* \"#utility.yul\":197:198   */\n      0x00\n        /* \"#utility.yul\":194:195   */\n      dup1\n        /* \"#utility.yul\":187:199   */\n      revert\n        /* \"#utility.yul\":334:460   */\n    tag_104:\n        /* \"#utility.yul\":371:378   */\n      0x00\n        /* \"#utility.yul\":411:453   */\n      0xffffffffffffffffffffffffffffffffffffffff\n        /* \"#utility.yul\":404:409   */\n      dup3\n        /* \"#utility.yul\":400:454   */\n      and\n        /* \"#utility.yul\":389:454   */\n      swap1\n      pop\n        /* \"#utility.yul\":334:460   */\n      swap2\n      swap1\n      pop\n      jump\t// out\n        /* \"#utility.yul\":466:562   */\n    tag_105:\n        /* \"#utility.yul\":503:510   */\n      0x00\n        /* \"#utility.yul\":532:556   */\n      tag_138\n        /* \"#utility.yul\":550:555   */\n      dup3\n        /* \"#utility.yul\":532:556   */\n      tag_104\n      jump\t// in\n    tag_138:\n        /* \"#utility.yul\":521:556   */\n      swap1\n      pop\n        /* \"#utility.yul\":466:562   */\n      swap2\n      swap1\n      pop\n      jump\t// out\n        /* \"#utility.yul\":568:690   */\n    tag_106:\n        /* \"#utility.yul\":641:665   */\n      tag_140\n        /* \"#utility.yul\":659:664   */\n      dup2\n        /* \"#utility.yul\":641:665   */\n      tag_105\n      jump\t// in\n    tag_140:\n        /* \"#utility.yul\":634:639   */\n      dup2\n        /* \"#utility.yul\":631:666   */\n      eq\n        /* \"#utility.yul\":621:684   */\n      tag_141\n      jumpi\n        /* \"#utility.yul\":680:681   */\n      0x00\n        /* \"#utility.yul\":677:678   */\n      dup1\n        /* \"#utility.yul\":670:682   */\n      revert\n        /* \"#utility.yul\":621:684   */\n    tag_141:\n        /* \"#utility.yul\":568:690   */\n      pop\n      jump\t// out\n        /* \"#utility.yul\":696:835   */\n    tag_107:\n        /* \"#utility.yul\":742:747   */\n      0x00\n        /* \"#utility.yul\":780:786   */\n      dup2\n        /* \"#utility.yul\":767:787   */\n      calldataload\n        /* \"#utility.yul\":758:787   */\n      swap1\n      pop\n        /* \"#utility.yul\":796:829   */\n      tag_143\n        /* \"#utility.yul\":823:828   */\n      dup2\n        /* \"#utility.yul\":796:829   */\n      tag_106\n      jump\t// in\n    tag_143:\n        /* \"#utility.yul\":696:835   */\n      swap3\n      swap2\n      pop\n      pop\n      jump\t// out\n        /* \"#utility.yul\":841:1170   */\n    tag_9:\n        /* \"#utility.yul\":900:906   */\n      0x00\n        /* \"#utility.yul\":949:951   */\n      0x20\n        /* \"#utility.yul\":937:946   */\n      dup3\n        /* \"#utility.yul\":928:935   */\n      dup5\n        /* \"#utility.yul\":924:947   */\n      sub\n        /* \"#utility.yul\":920:952   */\n      slt\n        /* \"#utility.yul\":917:1036   */\n      iszero\n      tag_145\n      jumpi\n        /* \"#utility.yul\":955:1034   */\n      tag_146\n      tag_102\n      jump\t// in\n    tag_146:\n        /* \"#utility.yul\":917:1036   */\n    tag_145:\n        /* \"#utility.yul\":1075:1076   */\n      0x00\n        /* \"#utility.yul\":1100:1153   */\n      tag_147\n        /* \"#utility.yul\":1145:1152   */\n      dup5\n        /* \"#utility.yul\":1136:1142   */\n      dup3\n        /* \"#utility.yul\":1125:1134   */\n      dup6\n        /* \"#utility.yul\":1121:1143   */\n      add\n        /* \"#utility.yul\":1100:1153   */\n      tag_107\n      jump\t// in\n    tag_147:\n        /* \"#utility.yul\":1090:1153   */\n      swap2\n      pop\n        /* \"#utility.yul\":1046:1163   */\n      pop\n        /* \"#utility.yul\":841:1170   */\n      swap3\n      swap2\n      pop\n      pop\n      jump\t// out\n        /* \"#utility.yul\":1176:1253   */\n    tag_108:\n        /* \"#utility.yul\":1213:1220   */\n      0x00\n        /* \"#utility.yul\":1242:1247   */\n      dup2\n        /* \"#utility.yul\":1231:1247   */\n      swap1\n      pop\n        /* \"#utility.yul\":1176:1253   */\n      swap2\n      swap1\n      pop\n      jump\t// out\n        /* \"#utility.yul\":1259:1377   */\n    tag_109:\n        /* \"#utility.yul\":1346:1370   */\n      tag_150\n        /* \"#utility.yul\":1364:1369   */\n      dup2\n        /* \"#utility.yul\":1346:1370   */\n      tag_108\n      jump\t// in\n    tag_150:\n        /* \"#utility.yul\":1341:1344   */\n      dup3\n        /* \"#utility.yul\":1334:1371   */\n      mstore\n        /* \"#utility.yul\":1259:1377   */\n      pop\n      pop\n      jump\t// out\n        /* \"#utility.yul\":1383:1605   */\n    tag_12:\n        /* \"#utility.yul\":1476:1480   */\n      0x00\n        /* \"#utility.yul\":1514:1516   */\n      0x20\n        /* \"#utility.yul\":1503:1512   */\n      dup3\n        /* \"#utility.yul\":1499:1517   */\n      add\n        /* \"#utility.yul\":1491:1517   */\n      swap1\n      pop\n        /* \"#utility.yul\":1527:1598   */\n      tag_152\n        /* \"#utility.yul\":1595:1596   */\n      0x00\n        /* \"#utility.yul\":1584:1593   */\n      dup4\n        /* \"#utility.yul\":1580:1597   */\n      add\n        /* \"#utility.yul\":1571:1577   */\n      dup5\n        /* \"#utility.yul\":1527:1598   */\n      tag_109\n      jump\t// in\n    tag_152:\n        /* \"#utility.yul\":1383:1605   */\n      swap3\n      swap2\n      pop\n      pop\n      jump\t// out\n        /* \"#utility.yul\":1611:1729   */\n    tag_110:\n        /* \"#utility.yul\":1698:1722   */\n      tag_154\n        /* \"#utility.yul\":1716:1721   */\n      dup2\n        /* \"#utility.yul\":1698:1722   */\n      tag_105\n      jump\t// in\n    tag_154:\n        /* \"#utility.yul\":1693:1696   */\n      dup3\n        /* \"#utility.yul\":1686:1723   */\n      mstore\n        /* \"#utility.yul\":1611:1729   */\n      pop\n      pop\n      jump\t// out\n        /* \"#utility.yul\":1735:1957   */\n    tag_25:\n        /* \"#utility.yul\":1828:1832   */\n      0x00\n        /* \"#utility.yul\":1866:1868   */\n      0x20\n        /* \"#utility.yul\":1855:1864   */\n      dup3\n        /* \"#utility.yul\":1851:1869   */\n      add\n        /* \"#utility.yul\":1843:1869   */\n      swap1\n      pop\n        /* \"#utility.yul\":1879:1950   */\n      tag_156\n        /* \"#utility.yul\":1947:1948   */\n      0x00\n        /* \"#utility.yul\":1936:1945   */\n      dup4\n        /* \"#utility.yul\":1932:1949   */\n      add\n        /* \"#utility.yul\":1923:1929   */\n      dup5\n        /* \"#utility.yul\":1879:1950   */\n      tag_110\n      jump\t// in\n    tag_156:\n        /* \"#utility.yul\":1735:1957   */\n      swap3\n      swap2\n      pop\n      pop\n      jump\t// out\n        /* \"#utility.yul\":1963:2085   */\n    tag_111:\n        /* \"#utility.yul\":2036:2060   */\n      tag_158\n        /* \"#utility.yul\":2054:2059   */\n      dup2\n        /* \"#utility.yul\":2036:2060   */\n      tag_108\n      jump\t// in\n    tag_158:\n        /* \"#utility.yul\":2029:2034   */\n      dup2\n        /* \"#utility.yul\":2026:2061   */\n      eq\n        /* \"#utility.yul\":2016:2079   */\n      tag_159\n      jumpi\n        /* \"#utility.yul\":2075:2076   */\n      0x00\n        /* \"#utility.yul\":2072:2073   */\n      dup1\n        /* \"#utility.yul\":2065:2077   */\n      revert\n        /* \"#utility.yul\":2016:2079   */\n    tag_159:\n        /* \"#utility.yul\":1963:2085   */\n      pop\n      jump\t// out\n        /* \"#utility.yul\":2091:2234   */\n    tag_112:\n        /* \"#utility.yul\":2148:2153   */\n      0x00\n        /* \"#utility.yul\":2179:2185   */\n      dup2\n        /* \"#utility.yul\":2173:2186   */\n      mload\n        /* \"#utility.yul\":2164:2186   */\n      swap1\n      pop\n        /* \"#utility.yul\":2195:2228   */\n      tag_161\n        /* \"#utility.yul\":2222:2227   */\n      dup2\n        /* \"#utility.yul\":2195:2228   */\n      tag_111\n      jump\t// in\n    tag_161:\n        /* \"#utility.yul\":2091:2234   */\n      swap3\n      swap2\n      pop\n      pop\n      jump\t// out\n        /* \"#utility.yul\":2240:2591   */\n    tag_30:\n        /* \"#utility.yul\":2310:2316   */\n      0x00\n        /* \"#utility.yul\":2359:2361   */\n      0x20\n        /* \"#utility.yul\":2347:2356   */\n      dup3\n        /* \"#utility.yul\":2338:2345   */\n      dup5\n        /* \"#utility.yul\":2334:2357   */\n      sub\n        /* \"#utility.yul\":2330:2362   */\n      slt\n        /* \"#utility.yul\":2327:2446   */\n      iszero\n      tag_163\n      jumpi\n        /* \"#utility.yul\":2365:2444   */\n      tag_164\n      tag_102\n      jump\t// in\n    tag_164:\n        /* \"#utility.yul\":2327:2446   */\n    tag_163:\n        /* \"#utility.yul\":2485:2486   */\n      0x00\n        /* \"#utility.yul\":2510:2574   */\n      tag_165\n        /* \"#utility.yul\":2566:2573   */\n      dup5\n        /* \"#utility.yul\":2557:2563   */\n      dup3\n        /* \"#utility.yul\":2546:2555   */\n      dup6\n        /* \"#utility.yul\":2542:2564   */\n      add\n        /* \"#utility.yul\":2510:2574   */\n      tag_112\n      jump\t// in\n    tag_165:\n        /* \"#utility.yul\":2500:2574   */\n      swap2\n      pop\n        /* \"#utility.yul\":2456:2584   */\n      pop\n        /* \"#utility.yul\":2240:2591   */\n      swap3\n      swap2\n      pop\n      pop\n      jump\t// out\n        /* \"#utility.yul\":2597:2777   */\n    tag_113:\n        /* \"#utility.yul\":2645:2722   */\n      0x4e487b7100000000000000000000000000000000000000000000000000000000\n        /* \"#utility.yul\":2642:2643   */\n      0x00\n        /* \"#utility.yul\":2635:2723   */\n      mstore\n        /* \"#utility.yul\":2742:2746   */\n      0x12\n        /* \"#utility.yul\":2739:2740   */\n      0x04\n        /* \"#utility.yul\":2732:2747   */\n      mstore\n        /* \"#utility.yul\":2766:2770   */\n      0x24\n        /* \"#utility.yul\":2763:2764   */\n      0x00\n        /* \"#utility.yul\":2756:2771   */\n      revert\n        /* \"#utility.yul\":2783:2963   */\n    tag_114:\n        /* \"#utility.yul\":2831:2908   */\n      0x4e487b7100000000000000000000000000000000000000000000000000000000\n        /* \"#utility.yul\":2828:2829   */\n      0x00\n        /* \"#utility.yul\":2821:2909   */\n      mstore\n        /* \"#utility.yul\":2928:2932   */\n      0x11\n        /* \"#utility.yul\":2925:2926   */\n      0x04\n        /* \"#utility.yul\":2918:2933   */\n      mstore\n        /* \"#utility.yul\":2952:2956   */\n      0x24\n        /* \"#utility.yul\":2949:2950   */\n      0x00\n        /* \"#utility.yul\":2942:2957   */\n      revert\n        /* \"#utility.yul\":2969:3154   */\n    tag_35:\n        /* \"#utility.yul\":3009:3010   */\n      0x00\n        /* \"#utility.yul\":3026:3046   */\n      tag_169\n        /* \"#utility.yul\":3044:3045   */\n      dup3\n        /* \"#utility.yul\":3026:3046   */\n      tag_108\n      jump\t// in\n    tag_169:\n        /* \"#utility.yul\":3021:3046   */\n      swap2\n      pop\n        /* \"#utility.yul\":3060:3080   */\n      tag_170\n        /* \"#utility.yul\":3078:3079   */\n      dup4\n        /* \"#utility.yul\":3060:3080   */\n      tag_108\n      jump\t// in\n    tag_170:\n        /* \"#utility.yul\":3055:3080   */\n      swap3\n      pop\n        /* \"#utility.yul\":3099:3100   */\n      dup3\n        /* \"#utility.yul\":3089:3124   */\n      tag_171\n      jumpi\n        /* \"#utility.yul\":3104:3122   */\n      tag_172\n      tag_113\n      jump\t// in\n    tag_172:\n        /* \"#utility.yul\":3089:3124   */\n    tag_171:\n        /* \"#utility.yul\":3146:3147   */\n      dup3\n        /* \"#utility.yul\":3143:3144   */\n      dup3\n        /* \"#utility.yul\":3139:3148   */\n      div\n        /* \"#utility.yul\":3134:3148   */\n      swap1\n      pop\n        /* \"#utility.yul\":2969:3154   */\n      swap3\n      swap2\n      pop\n      pop\n      jump\t// out\n        /* \"#utility.yul\":3160:3508   */\n    tag_37:\n        /* \"#utility.yul\":3200:3207   */\n      0x00\n        /* \"#utility.yul\":3223:3243   */\n      tag_174\n        /* \"#utility.yul\":3241:3242   */\n      dup3\n        /* \"#utility.yul\":3223:3243   */\n      tag_108\n      jump\t// in\n    tag_174:\n        /* \"#utility.yul\":3218:3243   */\n      swap2\n      pop\n        /* \"#utility.yul\":3257:3277   */\n      tag_175\n        /* \"#utility.yul\":3275:3276   */\n      dup4\n        /* \"#utility.yul\":3257:3277   */\n      tag_108\n      jump\t// in\n    tag_175:\n        /* \"#utility.yul\":3252:3277   */\n      swap3\n      pop\n        /* \"#utility.yul\":3445:3446   */\n      dup2\n        /* \"#utility.yul\":3377:3443   */\n      0xffffffffffffffffffffffffffffffffffffffffffffffffffffffffffffffff\n        /* \"#utility.yul\":3373:3447   */\n      div\n        /* \"#utility.yul\":3370:3371   */\n      dup4\n        /* \"#utility.yul\":3367:3448   */\n      gt\n        /* \"#utility.yul\":3362:3363   */\n      dup3\n        /* \"#utility.yul\":3355:3364   */\n      iszero\n        /* \"#utility.yul\":3348:3365   */\n      iszero\n        /* \"#utility.yul\":3344:3449   */\n      and\n        /* \"#utility.yul\":3341:3472   */\n      iszero\n      tag_176\n      jumpi\n        /* \"#utility.yul\":3452:3470   */\n      tag_177\n      tag_114\n      jump\t// in\n    tag_177:\n        /* \"#utility.yul\":3341:3472   */\n    tag_176:\n        /* \"#utility.yul\":3500:3501   */\n      dup3\n        /* \"#utility.yul\":3497:3498   */\n      dup3\n        /* \"#utility.yul\":3493:3502   */\n      mul\n        /* \"#utility.yul\":3482:3502   */\n      swap1\n      pop\n        /* \"#utility.yul\":3160:3508   */\n      swap3\n      swap2\n      pop\n      pop\n      jump\t// out\n        /* \"#utility.yul\":3514:3846   */\n    tag_59:\n        /* \"#utility.yul\":3635:3639   */\n      0x00\n        /* \"#utility.yul\":3673:3675   */\n      0x40\n        /* \"#utility.yul\":3662:3671   */\n      dup3\n        /* \"#utility.yul\":3658:3676   */\n      add\n        /* \"#utility.yul\":3650:3676   */\n      swap1\n      pop\n        /* \"#utility.yul\":3686:3757   */\n      tag_179\n        /* \"#utility.yul\":3754:3755   */\n      0x00\n        /* \"#utility.yul\":3743:3752   */\n      dup4\n        /* \"#utility.yul\":3739:3756   */\n      add\n        /* \"#utility.yul\":3730:3736   */\n      dup6\n        /* \"#utility.yul\":3686:3757   */\n      tag_110\n      jump\t// in\n    tag_179:\n        /* \"#utility.yul\":3767:3839   */\n      tag_180\n        /* \"#utility.yul\":3835:3837   */\n      0x20\n        /* \"#utility.yul\":3824:3833   */\n      dup4\n        /* \"#utility.yul\":3820:3838   */\n      add\n        /* \"#utility.yul\":3811:3817   */\n      dup5\n        /* \"#utility.yul\":3767:3839   */\n      tag_109\n      jump\t// in\n    tag_180:\n        /* \"#utility.yul\":3514:3846   */\n      swap4\n      swap3\n      pop\n      pop\n      pop\n      jump\t// out\n        /* \"#utility.yul\":3852:3942   */\n    tag_115:\n        /* \"#utility.yul\":3886:3893   */\n      0x00\n        /* \"#utility.yul\":3929:3934   */\n      dup2\n        /* \"#utility.yul\":3922:3935   */\n      iszero\n        /* \"#utility.yul\":3915:3936   */\n      iszero\n        /* \"#utility.yul\":3904:3936   */\n      swap1\n      pop\n        /* \"#utility.yul\":3852:3942   */\n      swap2\n      swap1\n      pop\n      jump\t// out\n        /* \"#utility.yul\":3948:4064   */\n    tag_116:\n        /* \"#utility.yul\":4018:4039   */\n      tag_183\n        /* \"#utility.yul\":4033:4038   */\n      dup2\n        /* \"#utility.yul\":4018:4039   */\n      tag_115\n      jump\t// in\n    tag_183:\n        /* \"#utility.yul\":4011:4016   */\n      dup2\n        /* \"#utility.yul\":4008:4040   */\n      eq\n        /* \"#utility.yul\":3998:4058   */\n      tag_184\n      jumpi\n        /* \"#utility.yul\":4054:4055   */\n      0x00\n        /* \"#utility.yul\":4051:4052   */\n      dup1\n        /* \"#utility.yul\":4044:4056   */\n      revert\n        /* \"#utility.yul\":3998:4058   */\n    tag_184:\n        /* \"#utility.yul\":3948:4064   */\n      pop\n      jump\t// out\n        /* \"#utility.yul\":4070:4207   */\n    tag_117:\n        /* \"#utility.yul\":4124:4129   */\n      0x00\n        /* \"#utility.yul\":4155:4161   */\n      dup2\n        /* \"#utility.yul\":4149:4162   */\n      mload\n        /* \"#utility.yul\":4140:4162   */\n      swap1\n      pop\n        /* \"#utility.yul\":4171:4201   */\n      tag_186\n        /* \"#utility.yul\":4195:4200   */\n      dup2\n        /* \"#utility.yul\":4171:4201   */\n      tag_116\n      jump\t// in\n    tag_186:\n        /* \"#utility.yul\":4070:4207   */\n      swap3\n      swap2\n      pop\n      pop\n      jump\t// out\n        /* \"#utility.yul\":4213:4558   */\n    tag_66:\n        /* \"#utility.yul\":4280:4286   */\n      0x00\n        /* \"#utility.yul\":4329:4331   */\n      0x20\n        /* \"#utility.yul\":4317:4326   */\n      dup3\n        /* \"#utility.yul\":4308:4315   */\n      dup5\n        /* \"#utility.yul\":4304:4327   */\n      sub\n        /* \"#utility.yul\":4300:4332   */\n      slt\n        /* \"#utility.yul\":4297:4416   */\n      iszero\n      tag_188\n      jumpi\n        /* \"#utility.yul\":4335:4414   */\n      tag_189\n      tag_102\n      jump\t// in\n    tag_189:\n        /* \"#utility.yul\":4297:4416   */\n    tag_188:\n        /* \"#utility.yul\":4455:4456   */\n      0x00\n        /* \"#utility.yul\":4480:4541   */\n      tag_190\n        /* \"#utility.yul\":4533:4540   */\n      dup5\n        /* \"#utility.yul\":4524:4530   */\n      dup3\n        /* \"#utility.yul\":4513:4522   */\n      dup6\n        /* \"#utility.yul\":4509:4531   */\n      add\n        /* \"#utility.yul\":4480:4541   */\n      tag_117\n      jump\t// in\n    tag_190:\n        /* \"#utility.yul\":4470:4541   */\n      swap2\n      pop\n        /* \"#utility.yul\":4426:4551   */\n      pop\n        /* \"#utility.yul\":4213:4558   */\n      swap3\n      swap2\n      pop\n      pop\n      jump\t// out\n        /* \"#utility.yul\":4564:4733   */\n    tag_118:\n        /* \"#utility.yul\":4648:4659   */\n      0x00\n        /* \"#utility.yul\":4682:4688   */\n      dup3\n        /* \"#utility.yul\":4677:4680   */\n      dup3\n        /* \"#utility.yul\":4670:4689   */\n      mstore\n        /* \"#utility.yul\":4722:4726   */\n      0x20\n        /* \"#utility.yul\":4717:4720   */\n      dup3\n        /* \"#utility.yul\":4713:4727   */\n      add\n        /* \"#utility.yul\":4698:4727   */\n      swap1\n      pop\n        /* \"#utility.yul\":4564:4733   */\n      swap3\n      swap2\n      pop\n      pop\n      jump\t// out\n        /* \"#utility.yul\":4739:4968   */\n    tag_119:\n        /* \"#utility.yul\":4879:4913   */\n      0x5361666545524332303a204552433230206f7065726174696f6e20646964206e\n        /* \"#utility.yul\":4875:4876   */\n      0x00\n        /* \"#utility.yul\":4867:4873   */\n      dup3\n        /* \"#utility.yul\":4863:4877   */\n      add\n        /* \"#utility.yul\":4856:4914   */\n      mstore\n        /* \"#utility.yul\":4948:4960   */\n      0x6f74207375636365656400000000000000000000000000000000000000000000\n        /* \"#utility.yul\":4943:4945   */\n      0x20\n        /* \"#utility.yul\":4935:4941   */\n      dup3\n        /* \"#utility.yul\":4931:4946   */\n      add\n        /* \"#utility.yul\":4924:4961   */\n      mstore\n        /* \"#utility.yul\":4739:4968   */\n      pop\n      jump\t// out\n        /* \"#utility.yul\":4974:5340   */\n    tag_120:\n        /* \"#utility.yul\":5116:5119   */\n      0x00\n        /* \"#utility.yul\":5137:5204   */\n      tag_194\n        /* \"#utility.yul\":5201:5203   */\n      0x2a\n        /* \"#utility.yul\":5196:5199   */\n      dup4\n        /* \"#utility.yul\":5137:5204   */\n      tag_118\n      jump\t// in\n    tag_194:\n        /* \"#utility.yul\":5130:5204   */\n      swap2\n      pop\n        /* \"#utility.yul\":5213:5306   */\n      tag_195\n        /* \"#utility.yul\":5302:5305   */\n      dup3\n        /* \"#utility.yul\":5213:5306   */\n      tag_119\n      jump\t// in\n    tag_195:\n        /* \"#utility.yul\":5331:5333   */\n      0x40\n        /* \"#utility.yul\":5326:5329   */\n      dup3\n        /* \"#utility.yul\":5322:5334   */\n      add\n        /* \"#utility.yul\":5315:5334   */\n      swap1\n      pop\n        /* \"#utility.yul\":4974:5340   */\n      swap2\n      swap1\n      pop\n      jump\t// out\n        /* \"#utility.yul\":5346:5765   */\n    tag_69:\n        /* \"#utility.yul\":5512:5516   */\n      0x00\n        /* \"#utility.yul\":5550:5552   */\n      0x20\n        /* \"#utility.yul\":5539:5548   */\n      dup3\n        /* \"#utility.yul\":5535:5553   */\n      add\n        /* \"#utility.yul\":5527:5553   */\n      swap1\n      pop\n        /* \"#utility.yul\":5599:5608   */\n      dup2\n        /* \"#utility.yul\":5593:5597   */\n      dup2\n        /* \"#utility.yul\":5589:5609   */\n      sub\n        /* \"#utility.yul\":5585:5586   */\n      0x00\n        /* \"#utility.yul\":5574:5583   */\n      dup4\n        /* \"#utility.yul\":5570:5587   */\n      add\n        /* \"#utility.yul\":5563:5610   */\n      mstore\n        /* \"#utility.yul\":5627:5758   */\n      tag_197\n        /* \"#utility.yul\":5753:5757   */\n      dup2\n        /* \"#utility.yul\":5627:5758   */\n      tag_120\n      jump\t// in\n    tag_197:\n        /* \"#utility.yul\":5619:5758   */\n      swap1\n      pop\n        /* \"#utility.yul\":5346:5765   */\n      swap2\n      swap1\n      pop\n      jump\t// out\n        /* \"#utility.yul\":5771:5996   */\n    tag_121:\n        /* \"#utility.yul\":5911:5945   */\n      0x416464726573733a20696e73756666696369656e742062616c616e636520666f\n        /* \"#utility.yul\":5907:5908   */\n      0x00\n        /* \"#utility.yul\":5899:5905   */\n      dup3\n        /* \"#utility.yul\":5895:5909   */\n      add\n        /* \"#utility.yul\":5888:5946   */\n      mstore\n        /* \"#utility.yul\":5980:5988   */\n      0x722063616c6c0000000000000000000000000000000000000000000000000000\n        /* \"#utility.yul\":5975:5977   */\n      0x20\n        /* \"#utility.yul\":5967:5973   */\n      dup3\n        /* \"#utility.yul\":5963:5978   */\n      add\n        /* \"#utility.yul\":5956:5989   */\n      mstore\n        /* \"#utility.yul\":5771:5996   */\n      pop\n      jump\t// out\n        /* \"#utility.yul\":6002:6368   */\n    tag_122:\n        /* \"#utility.yul\":6144:6147   */\n      0x00\n        /* \"#utility.yul\":6165:6232   */\n      tag_200\n        /* \"#utility.yul\":6229:6231   */\n      0x26\n        /* \"#utility.yul\":6224:6227   */\n      dup4\n        /* \"#utility.yul\":6165:6232   */\n      tag_118\n      jump\t// in\n    tag_200:\n        /* \"#utility.yul\":6158:6232   */\n      swap2\n      pop\n        /* \"#utility.yul\":6241:6334   */\n      tag_201\n        /* \"#utility.yul\":6330:6333   */\n      dup3\n        /* \"#utility.yul\":6241:6334   */\n      tag_121\n      jump\t// in\n    tag_201:\n        /* \"#utility.yul\":6359:6361   */\n      0x40\n        /* \"#utility.yul\":6354:6357   */\n      dup3\n        /* \"#utility.yul\":6350:6362   */\n      add\n        /* \"#utility.yul\":6343:6362   */\n      swap1\n      pop\n        /* \"#utility.yul\":6002:6368   */\n      swap2\n      swap1\n      pop\n      jump\t// out\n        /* \"#utility.yul\":6374:6793   */\n    tag_76:\n        /* \"#utility.yul\":6540:6544   */\n      0x00\n        /* \"#utility.yul\":6578:6580   */\n      0x20\n        /* \"#utility.yul\":6567:6576   */\n      dup3\n        /* \"#utility.yul\":6563:6581   */\n      add\n        /* \"#utility.yul\":6555:6581   */\n      swap1\n      pop\n        /* \"#utility.yul\":6627:6636   */\n      dup2\n        /* \"#utility.yul\":6621:6625   */\n      dup2\n        /* \"#utility.yul\":6617:6637   */\n      sub\n        /* \"#utility.yul\":6613:6614   */\n      0x00\n        /* \"#utility.yul\":6602:6611   */\n      dup4\n        /* \"#utility.yul\":6598:6615   */\n      add\n        /* \"#utility.yul\":6591:6638   */\n      mstore\n        /* \"#utility.yul\":6655:6786   */\n      tag_203\n        /* \"#utility.yul\":6781:6785   */\n      dup2\n        /* \"#utility.yul\":6655:6786   */\n      tag_122\n      jump\t// in\n    tag_203:\n        /* \"#utility.yul\":6647:6786   */\n      swap1\n      pop\n        /* \"#utility.yul\":6374:6793   */\n      swap2\n      swap1\n      pop\n      jump\t// out\n        /* \"#utility.yul\":6799:6897   */\n    tag_123:\n        /* \"#utility.yul\":6850:6856   */\n      0x00\n        /* \"#utility.yul\":6884:6889   */\n      dup2\n        /* \"#utility.yul\":6878:6890   */\n      mload\n        /* \"#utility.yul\":6868:6890   */\n      swap1\n      pop\n        /* \"#utility.yul\":6799:6897   */\n      swap2\n      swap1\n      pop\n      jump\t// out\n        /* \"#utility.yul\":6903:7050   */\n    tag_124:\n        /* \"#utility.yul\":7004:7015   */\n      0x00\n        /* \"#utility.yul\":7041:7044   */\n      dup2\n        /* \"#utility.yul\":7026:7044   */\n      swap1\n      pop\n        /* \"#utility.yul\":6903:7050   */\n      swap3\n      swap2\n      pop\n      pop\n      jump\t// out\n        /* \"#utility.yul\":7056:7363   */\n    tag_125:\n        /* \"#utility.yul\":7124:7125   */\n      0x00\n        /* \"#utility.yul\":7134:7247   */\n    tag_207:\n        /* \"#utility.yul\":7148:7154   */\n      dup4\n        /* \"#utility.yul\":7145:7146   */\n      dup2\n        /* \"#utility.yul\":7142:7155   */\n      lt\n        /* \"#utility.yul\":7134:7247   */\n      iszero\n      tag_209\n      jumpi\n        /* \"#utility.yul\":7233:7234   */\n      dup1\n        /* \"#utility.yul\":7228:7231   */\n      dup3\n        /* \"#utility.yul\":7224:7235   */\n      add\n        /* \"#utility.yul\":7218:7236   */\n      mload\n        /* \"#utility.yul\":7214:7215   */\n      dup2\n        /* \"#utility.yul\":7209:7212   */\n      dup5\n        /* \"#utility.yul\":7205:7216   */\n      add\n        /* \"#utility.yul\":7198:7237   */\n      mstore\n        /* \"#utility.yul\":7170:7172   */\n      0x20\n        /* \"#utility.yul\":7167:7168   */\n      dup2\n        /* \"#utility.yul\":7163:7173   */\n      add\n        /* \"#utility.yul\":7158:7173   */\n      swap1\n      pop\n        /* \"#utility.yul\":7134:7247   */\n      jump(tag_207)\n    tag_209:\n        /* \"#utility.yul\":7265:7271   */\n      dup4\n        /* \"#utility.yul\":7262:7263   */\n      dup2\n        /* \"#utility.yul\":7259:7272   */\n      gt\n        /* \"#utility.yul\":7256:7357   */\n      iszero\n      tag_210\n      jumpi\n        /* \"#utility.yul\":7345:7346   */\n      0x00\n        /* \"#utility.yul\":7336:7342   */\n      dup5\n        /* \"#utility.yul\":7331:7334   */\n      dup5\n        /* \"#utility.yul\":7327:7343   */\n      add\n        /* \"#utility.yul\":7320:7347   */\n      mstore\n        /* \"#utility.yul\":7256:7357   */\n    tag_210:\n        /* \"#utility.yul\":7105:7363   */\n      pop\n        /* \"#utility.yul\":7056:7363   */\n      pop\n      pop\n      pop\n      jump\t// out\n        /* \"#utility.yul\":7369:7742   */\n    tag_126:\n        /* \"#utility.yul\":7473:7476   */\n      0x00\n        /* \"#utility.yul\":7501:7539   */\n      tag_212\n        /* \"#utility.yul\":7533:7538   */\n      dup3\n        /* \"#utility.yul\":7501:7539   */\n      tag_123\n      jump\t// in\n    tag_212:\n        /* \"#utility.yul\":7555:7643   */\n      tag_213\n        /* \"#utility.yul\":7636:7642   */\n      dup2\n        /* \"#utility.yul\":7631:7634   */\n      dup6\n        /* \"#utility.yul\":7555:7643   */\n      tag_124\n      jump\t// in\n    tag_213:\n        /* \"#utility.yul\":7548:7643   */\n      swap4\n      pop\n        /* \"#utility.yul\":7652:7704   */\n      tag_214\n        /* \"#utility.yul\":7697:7703   */\n      dup2\n        /* \"#utility.yul\":7692:7695   */\n      dup6\n        /* \"#utility.yul\":7685:7689   */\n      0x20\n        /* \"#utility.yul\":7678:7683   */\n      dup7\n        /* \"#utility.yul\":7674:7690   */\n      add\n        /* \"#utility.yul\":7652:7704   */\n      tag_125\n      jump\t// in\n    tag_214:\n        /* \"#utility.yul\":7729:7735   */\n      dup1\n        /* \"#utility.yul\":7724:7727   */\n      dup5\n        /* \"#utility.yul\":7720:7736   */\n      add\n        /* \"#utility.yul\":7713:7736   */\n      swap2\n      pop\n        /* \"#utility.yul\":7477:7742   */\n      pop\n        /* \"#utility.yul\":7369:7742   */\n      swap3\n      swap2\n      pop\n      pop\n      jump\t// out\n        /* \"#utility.yul\":7748:8019   */\n    tag_78:\n        /* \"#utility.yul\":7878:7881   */\n      0x00\n        /* \"#utility.yul\":7900:7993   */\n      tag_216\n        /* \"#utility.yul\":7989:7992   */\n      dup3\n        /* \"#utility.yul\":7980:7986   */\n      dup5\n        /* \"#utility.yul\":7900:7993   */\n      tag_126\n      jump\t// in\n    tag_216:\n        /* \"#utility.yul\":7893:7993   */\n      swap2\n      pop\n        /* \"#utility.yul\":8010:8013   */\n      dup2\n        /* \"#utility.yul\":8003:8013   */\n      swap1\n      pop\n        /* \"#utility.yul\":7748:8019   */\n      swap3\n      swap2\n      pop\n      pop\n      jump\t// out\n        /* \"#utility.yul\":8025:8204   */\n    tag_127:\n        /* \"#utility.yul\":8165:8196   */\n      0x416464726573733a2063616c6c20746f206e6f6e2d636f6e7472616374000000\n        /* \"#utility.yul\":8161:8162   */\n      0x00\n        /* \"#utility.yul\":8153:8159   */\n      dup3\n        /* \"#utility.yul\":8149:8163   */\n      add\n        /* \"#utility.yul\":8142:8197   */\n      mstore\n        /* \"#utility.yul\":8025:8204   */\n      pop\n      jump\t// out\n        /* \"#utility.yul\":8210:8576   */\n    tag_128:\n        /* \"#utility.yul\":8352:8355   */\n      0x00\n        /* \"#utility.yul\":8373:8440   */\n      tag_219\n        /* \"#utility.yul\":8437:8439   */\n      0x1d\n        /* \"#utility.yul\":8432:8435   */\n      dup4\n        /* \"#utility.yul\":8373:8440   */\n      tag_118\n      jump\t// in\n    tag_219:\n        /* \"#utility.yul\":8366:8440   */\n      swap2\n      pop\n        /* \"#utility.yul\":8449:8542   */\n      tag_220\n        /* \"#utility.yul\":8538:8541   */\n      dup3\n        /* \"#utility.yul\":8449:8542   */\n      tag_127\n      jump\t// in\n    tag_220:\n        /* \"#utility.yul\":8567:8569   */\n      0x20\n        /* \"#utility.yul\":8562:8565   */\n      dup3\n        /* \"#utility.yul\":8558:8570   */\n      add\n        /* \"#utility.yul\":8551:8570   */\n      swap1\n      pop\n        /* \"#utility.yul\":8210:8576   */\n      swap2\n      swap1\n      pop\n      jump\t// out\n        /* \"#utility.yul\":8582:9001   */\n    tag_91:\n        /* \"#utility.yul\":8748:8752   */\n      0x00\n        /* \"#utility.yul\":8786:8788   */\n      0x20\n        /* \"#utility.yul\":8775:8784   */\n      dup3\n        /* \"#utility.yul\":8771:8789   */\n      add\n        /* \"#utility.yul\":8763:8789   */\n      swap1\n      pop\n        /* \"#utility.yul\":8835:8844   */\n      dup2\n        /* \"#utility.yul\":8829:8833   */\n      dup2\n        /* \"#utility.yul\":8825:8845   */\n      sub\n        /* \"#utility.yul\":8821:8822   */\n      0x00\n        /* \"#utility.yul\":8810:8819   */\n      dup4\n        /* \"#utility.yul\":8806:8823   */\n      add\n        /* \"#utility.yul\":8799:8846   */\n      mstore\n        /* \"#utility.yul\":8863:8994   */\n      tag_222\n        /* \"#utility.yul\":8989:8993   */\n      dup2\n        /* \"#utility.yul\":8863:8994   */\n      tag_128\n      jump\t// in\n    tag_222:\n        /* \"#utility.yul\":8855:8994   */\n      swap1\n      pop\n        /* \"#utility.yul\":8582:9001   */\n      swap2\n      swap1\n      pop\n      jump\t// out\n        /* \"#utility.yul\":9007:9106   */\n    tag_129:\n        /* \"#utility.yul\":9059:9065   */\n      0x00\n        /* \"#utility.yul\":9093:9098   */\n      dup2\n        /* \"#utility.yul\":9087:9099   */\n      mload\n        /* \"#utility.yul\":9077:9099   */\n      swap1\n      pop\n        /* \"#utility.yul\":9007:9106   */\n      swap2\n      swap1\n      pop\n      jump\t// out\n        /* \"#utility.yul\":9112:9214   */\n    tag_130:\n        /* \"#utility.yul\":9153:9159   */\n      0x00\n        /* \"#utility.yul\":9204:9206   */\n      0x1f\n        /* \"#utility.yul\":9200:9207   */\n      not\n        /* \"#utility.yul\":9195:9197   */\n      0x1f\n        /* \"#utility.yul\":9188:9193   */\n      dup4\n        /* \"#utility.yul\":9184:9198   */\n      add\n        /* \"#utility.yul\":9180:9208   */\n      and\n        /* \"#utility.yul\":9170:9208   */\n      swap1\n      pop\n        /* \"#utility.yul\":9112:9214   */\n      swap2\n      swap1\n      pop\n      jump\t// out\n        /* \"#utility.yul\":9220:9584   */\n    tag_131:\n        /* \"#utility.yul\":9308:9311   */\n      0x00\n        /* \"#utility.yul\":9336:9375   */\n      tag_226\n        /* \"#utility.yul\":9369:9374   */\n      dup3\n        /* \"#utility.yul\":9336:9375   */\n      tag_129\n      jump\t// in\n    tag_226:\n        /* \"#utility.yul\":9391:9462   */\n      tag_227\n        /* \"#utility.yul\":9455:9461   */\n      dup2\n        /* \"#utility.yul\":9450:9453   */\n      dup6\n        /* \"#utility.yul\":9391:9462   */\n      tag_118\n      jump\t// in\n    tag_227:\n        /* \"#utility.yul\":9384:9462   */\n      swap4\n      pop\n        /* \"#utility.yul\":9471:9523   */\n      tag_228\n        /* \"#utility.yul\":9516:9522   */\n      dup2\n        /* \"#utility.yul\":9511:9514   */\n      dup6\n        /* \"#utility.yul\":9504:9508   */\n      0x20\n        /* \"#utility.yul\":9497:9502   */\n      dup7\n        /* \"#utility.yul\":9493:9509   */\n      add\n        /* \"#utility.yul\":9471:9523   */\n      tag_125\n      jump\t// in\n    tag_228:\n        /* \"#utility.yul\":9548:9577   */\n      tag_229\n        /* \"#utility.yul\":9570:9576   */\n      dup2\n        /* \"#utility.yul\":9548:9577   */\n      tag_130\n      jump\t// in\n    tag_229:\n        /* \"#utility.yul\":9543:9546   */\n      dup5\n        /* \"#utility.yul\":9539:9578   */\n      add\n        /* \"#utility.yul\":9532:9578   */\n      swap2\n      pop\n        /* \"#utility.yul\":9312:9584   */\n      pop\n        /* \"#utility.yul\":9220:9584   */\n      swap3\n      swap2\n      pop\n      pop\n      jump\t// out\n        /* \"#utility.yul\":9590:9903   */\n    tag_100:\n        /* \"#utility.yul\":9703:9707   */\n      0x00\n        /* \"#utility.yul\":9741:9743   */\n      0x20\n        /* \"#utility.yul\":9730:9739   */\n      dup3\n        /* \"#utility.yul\":9726:9744   */\n      add\n        /* \"#utility.yul\":9718:9744   */\n      swap1\n      pop\n        /* \"#utility.yul\":9790:9799   */\n      dup2\n        /* \"#utility.yul\":9784:9788   */\n      dup2\n        /* \"#utility.yul\":9780:9800   */\n      sub\n        /* \"#utility.yul\":9776:9777   */\n      0x00\n        /* \"#utility.yul\":9765:9774   */\n      dup4\n        /* \"#utility.yul\":9761:9778   */\n      add\n        /* \"#utility.yul\":9754:9801   */\n      mstore\n        /* \"#utility.yul\":9818:9896   */\n      tag_231\n        /* \"#utility.yul\":9891:9895   */\n      dup2\n        /* \"#utility.yul\":9882:9888   */\n      dup5\n        /* \"#utility.yul\":9818:9896   */\n      tag_131\n      jump\t// in\n    tag_231:\n        /* \"#utility.yul\":9810:9896   */\n      swap1\n      pop\n        /* \"#utility.yul\":9590:9903   */\n      swap3\n      swap2\n      pop\n      pop\n      jump\t// out\n\n    auxdata: 0xa2646970667358221220026139e24ddcdbeaab4e4888e2a2881aa716b2e33f8227fdbb61a9f60792253c64736f6c63430008090033\n}\n",
				"bytecode": {
					"linkReferences": {},
					"object": "608060405234801561001057600080fd5b50604051610e82380380610e82833981810160405281019061003291906100db565b806000806101000a81548173ffffffffffffffffffffffffffffffffffffffff021916908373ffffffffffffffffffffffffffffffffffffffff16021790555050610108565b600080fd5b600073ffffffffffffffffffffffffffffffffffffffff82169050919050565b60006100a88261007d565b9050919050565b6100b88161009d565b81146100c357600080fd5b50565b6000815190506100d5816100af565b92915050565b6000602082840312156100f1576100f0610078565b5b60006100ff848285016100c6565b91505092915050565b610d6b806101176000396000f3fe608060405234801561001057600080fd5b506004361061004c5760003560e01c806302550e4d14610051578063775a25e314610081578063af32b7a11461009f578063b86e321c146100cf575b600080fd5b61006b60048036038101906100669190610831565b6100eb565b6040516100789190610877565b60405180910390f35b610089610231565b6040516100969190610877565b60405180910390f35b6100b960048036038101906100b49190610831565b6102d7565b6040516100c69190610877565b60405180910390f35b6100e960048036038101906100e49190610831565b61038a565b005b6000808273ffffffffffffffffffffffffffffffffffffffff166370a08231306040518263ffffffff1660e01b815260040161012791906108a1565b60206040518083038186803b15801561013f57600080fd5b505afa158015610153573d6000803e3d6000fd5b505050506040513d601f19601f8201168201806040525081019061017791906108e8565b90506000610184336102d7565b9050600160003373ffffffffffffffffffffffffffffffffffffffff1673ffffffffffffffffffffffffffffffffffffffff16815260200190815260200160002060009054906101000a900460ff161561020a576040517fa727014000000000000000000000000000000000000000000000000000000000815260040160405180910390fd5b81610213610231565b8261021e9190610973565b61022891906109a4565b92505050919050565b60008060009054906101000a900473ffffffffffffffffffffffffffffffffffffffff1673ffffffffffffffffffffffffffffffffffffffff166318160ddd6040518163ffffffff1660e01b815260040160206040518083038186803b15801561029a57600080fd5b505afa1580156102ae573d6000803e3d6000fd5b505050506040513d601f19601f820116820180604052508101906102d291906108e8565b905090565b60008060009054906101000a900473ffffffffffffffffffffffffffffffffffffffff1673ffffffffffffffffffffffffffffffffffffffff166370a08231836040518263ffffffff1660e01b815260040161033391906108a1565b60206040518083038186803b15801561034b57600080fd5b505afa15801561035f573d6000803e3d6000fd5b505050506040513d601f19601f8201168201806040525081019061038391906108e8565b9050919050565b6000610395336102d7565b905060008111156103d2576040517f5695054900000000000000000000000000000000000000000000000000000000815260040160405180910390fd5b60006103dd836100eb565b905061042b60008360008054906101000a900473ffffffffffffffffffffffffffffffffffffffff1673ffffffffffffffffffffffffffffffffffffffff166104b29092919063ffffffff16565b61045633828573ffffffffffffffffffffffffffffffffffffffff166104b29092919063ffffffff16565b60018060003373ffffffffffffffffffffffffffffffffffffffff1673ffffffffffffffffffffffffffffffffffffffff16815260200190815260200160002060006101000a81548160ff021916908315150217905550505050565b6105338363a9059cbb60e01b84846040516024016104d19291906109fe565b604051602081830303815290604052907bffffffffffffffffffffffffffffffffffffffffffffffffffffffff19166020820180517bffffffffffffffffffffffffffffffffffffffffffffffffffffffff8381831617835250505050610538565b505050565b600061059a826040518060400160405280602081526020017f5361666545524332303a206c6f772d6c6576656c2063616c6c206661696c65648152508573ffffffffffffffffffffffffffffffffffffffff166106009092919063ffffffff16565b90506000815114806105bc5750808060200190518101906105bb9190610a5f565b5b6105fb576040517f08c379a00000000000000000000000000000000000000000000000000000000081526004016105f290610b0f565b60405180910390fd5b505050565b606061060f8484600085610618565b90509392505050565b60608247101561065d576040517f08c379a000000000000000000000000000000000000000000000000000000000815260040161065490610ba1565b60405180910390fd5b6000808673ffffffffffffffffffffffffffffffffffffffff1685876040516106869190610c3b565b60006040518083038185875af1925050503d80600081146106c3576040519150601f19603f3d011682016040523d82523d6000602084013e6106c8565b606091505b50915091506106d9878383876106e5565b92505050949350505050565b6060831561074857600083511415610740576107008561075b565b61073f576040517f08c379a000000000000000000000000000000000000000000000000000000000815260040161073690610c9e565b60405180910390fd5b5b829050610753565b610752838361077e565b5b949350505050565b6000808273ffffffffffffffffffffffffffffffffffffffff163b119050919050565b6000825111156107915781518083602001fd5b806040517f08c379a00000000000000000000000000000000000000000000000000000000081526004016107c59190610d13565b60405180910390fd5b600080fd5b600073ffffffffffffffffffffffffffffffffffffffff82169050919050565b60006107fe826107d3565b9050919050565b61080e816107f3565b811461081957600080fd5b50565b60008135905061082b81610805565b92915050565b600060208284031215610847576108466107ce565b5b60006108558482850161081c565b91505092915050565b6000819050919050565b6108718161085e565b82525050565b600060208201905061088c6000830184610868565b92915050565b61089b816107f3565b82525050565b60006020820190506108b66000830184610892565b92915050565b6108c58161085e565b81146108d057600080fd5b50565b6000815190506108e2816108bc565b92915050565b6000602082840312156108fe576108fd6107ce565b5b600061090c848285016108d3565b91505092915050565b7f4e487b7100000000000000000000000000000000000000000000000000000000600052601260045260246000fd5b7f4e487b7100000000000000000000000000000000000000000000000000000000600052601160045260246000fd5b600061097e8261085e565b91506109898361085e565b92508261099957610998610915565b5b828204905092915050565b60006109af8261085e565b91506109ba8361085e565b9250817fffffffffffffffffffffffffffffffffffffffffffffffffffffffffffffffff04831182151516156109f3576109f2610944565b5b828202905092915050565b6000604082019050610a136000830185610892565b610a206020830184610868565b9392505050565b60008115159050919050565b610a3c81610a27565b8114610a4757600080fd5b50565b600081519050610a5981610a33565b92915050565b600060208284031215610a7557610a746107ce565b5b6000610a8384828501610a4a565b91505092915050565b600082825260208201905092915050565b7f5361666545524332303a204552433230206f7065726174696f6e20646964206e60008201527f6f74207375636365656400000000000000000000000000000000000000000000602082015250565b6000610af9602a83610a8c565b9150610b0482610a9d565b604082019050919050565b60006020820190508181036000830152610b2881610aec565b9050919050565b7f416464726573733a20696e73756666696369656e742062616c616e636520666f60008201527f722063616c6c0000000000000000000000000000000000000000000000000000602082015250565b6000610b8b602683610a8c565b9150610b9682610b2f565b604082019050919050565b60006020820190508181036000830152610bba81610b7e565b9050919050565b600081519050919050565b600081905092915050565b60005b83811015610bf5578082015181840152602081019050610bda565b83811115610c04576000848401525b50505050565b6000610c1582610bc1565b610c1f8185610bcc565b9350610c2f818560208601610bd7565b80840191505092915050565b6000610c478284610c0a565b915081905092915050565b7f416464726573733a2063616c6c20746f206e6f6e2d636f6e7472616374000000600082015250565b6000610c88601d83610a8c565b9150610c9382610c52565b602082019050919050565b60006020820190508181036000830152610cb781610c7b565b9050919050565b600081519050919050565b6000601f19601f8301169050919050565b6000610ce582610cbe565b610cef8185610a8c565b9350610cff818560208601610bd7565b610d0881610cc9565b840191505092915050565b60006020820190508181036000830152610d2d8184610cda565b90509291505056fea2646970667358221220026139e24ddcdbeaab4e4888e2a2881aa716b2e33f8227fdbb61a9f60792253c64736f6c63430008090033",
					"opcodes": "PUSH1 0x80 PUSH1 0x40 MSTORE CALLVALUE DUP1 ISZERO PUSH2 0x10 JUMPI PUSH1 0x0 DUP1 REVERT JUMPDEST POP PUSH1 0x40 MLOAD PUSH2 0xE82 CODESIZE SUB DUP1 PUSH2 0xE82 DUP4 CODECOPY DUP2 DUP2 ADD PUSH1 0x40 MSTORE DUP2 ADD SWAP1 PUSH2 0x32 SWAP2 SWAP1 PUSH2 0xDB JUMP JUMPDEST DUP1 PUSH1 0x0 DUP1 PUSH2 0x100 EXP DUP2 SLOAD DUP2 PUSH20 0xFFFFFFFFFFFFFFFFFFFFFFFFFFFFFFFFFFFFFFFF MUL NOT AND SWAP1 DUP4 PUSH20 0xFFFFFFFFFFFFFFFFFFFFFFFFFFFFFFFFFFFFFFFF AND MUL OR SWAP1 SSTORE POP POP PUSH2 0x108 JUMP JUMPDEST PUSH1 0x0 DUP1 REVERT JUMPDEST PUSH1 0x0 PUSH20 0xFFFFFFFFFFFFFFFFFFFFFFFFFFFFFFFFFFFFFFFF DUP3 AND SWAP1 POP SWAP2 SWAP1 POP JUMP JUMPDEST PUSH1 0x0 PUSH2 0xA8 DUP3 PUSH2 0x7D JUMP JUMPDEST SWAP1 POP SWAP2 SWAP1 POP JUMP JUMPDEST PUSH2 0xB8 DUP2 PUSH2 0x9D JUMP JUMPDEST DUP2 EQ PUSH2 0xC3 JUMPI PUSH1 0x0 DUP1 REVERT JUMPDEST POP JUMP JUMPDEST PUSH1 0x0 DUP2 MLOAD SWAP1 POP PUSH2 0xD5 DUP2 PUSH2 0xAF JUMP JUMPDEST SWAP3 SWAP2 POP POP JUMP JUMPDEST PUSH1 0x0 PUSH1 0x20 DUP3 DUP5 SUB SLT ISZERO PUSH2 0xF1 JUMPI PUSH2 0xF0 PUSH2 0x78 JUMP JUMPDEST JUMPDEST PUSH1 0x0 PUSH2 0xFF DUP5 DUP3 DUP6 ADD PUSH2 0xC6 JUMP JUMPDEST SWAP2 POP POP SWAP3 SWAP2 POP POP JUMP JUMPDEST PUSH2 0xD6B DUP1 PUSH2 0x117 PUSH1 0x0 CODECOPY PUSH1 0x0 RETURN INVALID PUSH1 0x80 PUSH1 0x40 MSTORE CALLVALUE DUP1 ISZERO PUSH2 0x10 JUMPI PUSH1 0x0 DUP1 REVERT JUMPDEST POP PUSH1 0x4 CALLDATASIZE LT PUSH2 0x4C JUMPI PUSH1 0x0 CALLDATALOAD PUSH1 0xE0 SHR DUP1 PUSH4 0x2550E4D EQ PUSH2 0x51 JUMPI DUP1 PUSH4 0x775A25E3 EQ PUSH2 0x81 JUMPI DUP1 PUSH4 0xAF32B7A1 EQ PUSH2 0x9F JUMPI DUP1 PUSH4 0xB86E321C EQ PUSH2 0xCF JUMPI JUMPDEST PUSH1 0x0 DUP1 REVERT JUMPDEST PUSH2 0x6B PUSH1 0x4 DUP1 CALLDATASIZE SUB DUP2 ADD SWAP1 PUSH2 0x66 SWAP2 SWAP1 PUSH2 0x831 JUMP JUMPDEST PUSH2 0xEB JUMP JUMPDEST PUSH1 0x40 MLOAD PUSH2 0x78 SWAP2 SWAP1 PUSH2 0x877 JUMP JUMPDEST PUSH1 0x40 MLOAD DUP1 SWAP2 SUB SWAP1 RETURN JUMPDEST PUSH2 0x89 PUSH2 0x231 JUMP JUMPDEST PUSH1 0x40 MLOAD PUSH2 0x96 SWAP2 SWAP1 PUSH2 0x877 JUMP JUMPDEST PUSH1 0x40 MLOAD DUP1 SWAP2 SUB SWAP1 RETURN JUMPDEST PUSH2 0xB9 PUSH1 0x4 DUP1 CALLDATASIZE SUB DUP2 ADD SWAP1 PUSH2 0xB4 SWAP2 SWAP1 PUSH2 0x831 JUMP JUMPDEST PUSH2 0x2D7 JUMP JUMPDEST PUSH1 0x40 MLOAD PUSH2 0xC6 SWAP2 SWAP1 PUSH2 0x877 JUMP JUMPDEST PUSH1 0x40 MLOAD DUP1 SWAP2 SUB SWAP1 RETURN JUMPDEST PUSH2 0xE9 PUSH1 0x4 DUP1 CALLDATASIZE SUB DUP2 ADD SWAP1 PUSH2 0xE4 SWAP2 SWAP1 PUSH2 0x831 JUMP JUMPDEST PUSH2 0x38A JUMP JUMPDEST STOP JUMPDEST PUSH1 0x0 DUP1 DUP3 PUSH20 0xFFFFFFFFFFFFFFFFFFFFFFFFFFFFFFFFFFFFFFFF AND PUSH4 0x70A08231 ADDRESS PUSH1 0x40 MLOAD DUP3 PUSH4 0xFFFFFFFF AND PUSH1 0xE0 SHL DUP2 MSTORE PUSH1 0x4 ADD PUSH2 0x127 SWAP2 SWAP1 PUSH2 0x8A1 JUMP JUMPDEST PUSH1 0x20 PUSH1 0x40 MLOAD DUP1 DUP4 SUB DUP2 DUP7 DUP1 EXTCODESIZE ISZERO DUP1 ISZERO PUSH2 0x13F JUMPI PUSH1 0x0 DUP1 REVERT JUMPDEST POP GAS STATICCALL ISZERO DUP1 ISZERO PUSH2 0x153 JUMPI RETURNDATASIZE PUSH1 0x0 DUP1 RETURNDATACOPY RETURNDATASIZE PUSH1 0x0 REVERT JUMPDEST POP POP POP POP PUSH1 0x40 MLOAD RETURNDATASIZE PUSH1 0x1F NOT PUSH1 0x1F DUP3 ADD AND DUP3 ADD DUP1 PUSH1 0x40 MSTORE POP DUP2 ADD SWAP1 PUSH2 0x177 SWAP2 SWAP1 PUSH2 0x8E8 JUMP JUMPDEST SWAP1 POP PUSH1 0x0 PUSH2 0x184 CALLER PUSH2 0x2D7 JUMP JUMPDEST SWAP1 POP PUSH1 0x1 PUSH1 0x0 CALLER PUSH20 0xFFFFFFFFFFFFFFFFFFFFFFFFFFFFFFFFFFFFFFFF AND PUSH20 0xFFFFFFFFFFFFFFFFFFFFFFFFFFFFFFFFFFFFFFFF AND DUP2 MSTORE PUSH1 0x20 ADD SWAP1 DUP2 MSTORE PUSH1 0x20 ADD PUSH1 0x0 KECCAK256 PUSH1 0x0 SWAP1 SLOAD SWAP1 PUSH2 0x100 EXP SWAP1 DIV PUSH1 0xFF AND ISZERO PUSH2 0x20A JUMPI PUSH1 0x40 MLOAD PUSH32 0xA727014000000000000000000000000000000000000000000000000000000000 DUP2 MSTORE PUSH1 0x4 ADD PUSH1 0x40 MLOAD DUP1 SWAP2 SUB SWAP1 REVERT JUMPDEST DUP2 PUSH2 0x213 PUSH2 0x231 JUMP JUMPDEST DUP3 PUSH2 0x21E SWAP2 SWAP1 PUSH2 0x973 JUMP JUMPDEST PUSH2 0x228 SWAP2 SWAP1 PUSH2 0x9A4 JUMP JUMPDEST SWAP3 POP POP POP SWAP2 SWAP1 POP JUMP JUMPDEST PUSH1 0x0 DUP1 PUSH1 0x0 SWAP1 SLOAD SWAP1 PUSH2 0x100 EXP SWAP1 DIV PUSH20 0xFFFFFFFFFFFFFFFFFFFFFFFFFFFFFFFFFFFFFFFF AND PUSH20 0xFFFFFFFFFFFFFFFFFFFFFFFFFFFFFFFFFFFFFFFF AND PUSH4 0x18160DDD PUSH1 0x40 MLOAD DUP2 PUSH4 0xFFFFFFFF AND PUSH1 0xE0 SHL DUP2 MSTORE PUSH1 0x4 ADD PUSH1 0x20 PUSH1 0x40 MLOAD DUP1 DUP4 SUB DUP2 DUP7 DUP1 EXTCODESIZE ISZERO DUP1 ISZERO PUSH2 0x29A JUMPI PUSH1 0x0 DUP1 REVERT JUMPDEST POP GAS STATICCALL ISZERO DUP1 ISZERO PUSH2 0x2AE JUMPI RETURNDATASIZE PUSH1 0x0 DUP1 RETURNDATACOPY RETURNDATASIZE PUSH1 0x0 REVERT JUMPDEST POP POP POP POP PUSH1 0x40 MLOAD RETURNDATASIZE PUSH1 0x1F NOT PUSH1 0x1F DUP3 ADD AND DUP3 ADD DUP1 PUSH1 0x40 MSTORE POP DUP2 ADD SWAP1 PUSH2 0x2D2 SWAP2 SWAP1 PUSH2 0x8E8 JUMP JUMPDEST SWAP1 POP SWAP1 JUMP JUMPDEST PUSH1 0x0 DUP1 PUSH1 0x0 SWAP1 SLOAD SWAP1 PUSH2 0x100 EXP SWAP1 DIV PUSH20 0xFFFFFFFFFFFFFFFFFFFFFFFFFFFFFFFFFFFFFFFF AND PUSH20 0xFFFFFFFFFFFFFFFFFFFFFFFFFFFFFFFFFFFFFFFF AND PUSH4 0x70A08231 DUP4 PUSH1 0x40 MLOAD DUP3 PUSH4 0xFFFFFFFF AND PUSH1 0xE0 SHL DUP2 MSTORE PUSH1 0x4 ADD PUSH2 0x333 SWAP2 SWAP1 PUSH2 0x8A1 JUMP JUMPDEST PUSH1 0x20 PUSH1 0x40 MLOAD DUP1 DUP4 SUB DUP2 DUP7 DUP1 EXTCODESIZE ISZERO DUP1 ISZERO PUSH2 0x34B JUMPI PUSH1 0x0 DUP1 REVERT JUMPDEST POP GAS STATICCALL ISZERO DUP1 ISZERO PUSH2 0x35F JUMPI RETURNDATASIZE PUSH1 0x0 DUP1 RETURNDATACOPY RETURNDATASIZE PUSH1 0x0 REVERT JUMPDEST POP POP POP POP PUSH1 0x40 MLOAD RETURNDATASIZE PUSH1 0x1F NOT PUSH1 0x1F DUP3 ADD AND DUP3 ADD DUP1 PUSH1 0x40 MSTORE POP DUP2 ADD SWAP1 PUSH2 0x383 SWAP2 SWAP1 PUSH2 0x8E8 JUMP JUMPDEST SWAP1 POP SWAP2 SWAP1 POP JUMP JUMPDEST PUSH1 0x0 PUSH2 0x395 CALLER PUSH2 0x2D7 JUMP JUMPDEST SWAP1 POP PUSH1 0x0 DUP2 GT ISZERO PUSH2 0x3D2 JUMPI PUSH1 0x40 MLOAD PUSH32 0x5695054900000000000000000000000000000000000000000000000000000000 DUP2 MSTORE PUSH1 0x4 ADD PUSH1 0x40 MLOAD DUP1 SWAP2 SUB SWAP1 REVERT JUMPDEST PUSH1 0x0 PUSH2 0x3DD DUP4 PUSH2 0xEB JUMP JUMPDEST SWAP1 POP PUSH2 0x42B PUSH1 0x0 DUP4 PUSH1 0x0 DUP1 SLOAD SWAP1 PUSH2 0x100 EXP SWAP1 DIV PUSH20 0xFFFFFFFFFFFFFFFFFFFFFFFFFFFFFFFFFFFFFFFF AND PUSH20 0xFFFFFFFFFFFFFFFFFFFFFFFFFFFFFFFFFFFFFFFF AND PUSH2 0x4B2 SWAP1 SWAP3 SWAP2 SWAP1 PUSH4 0xFFFFFFFF AND JUMP JUMPDEST PUSH2 0x456 CALLER DUP3 DUP6 PUSH20 0xFFFFFFFFFFFFFFFFFFFFFFFFFFFFFFFFFFFFFFFF AND PUSH2 0x4B2 SWAP1 SWAP3 SWAP2 SWAP1 PUSH4 0xFFFFFFFF AND JUMP JUMPDEST PUSH1 0x1 DUP1 PUSH1 0x0 CALLER PUSH20 0xFFFFFFFFFFFFFFFFFFFFFFFFFFFFFFFFFFFFFFFF AND PUSH20 0xFFFFFFFFFFFFFFFFFFFFFFFFFFFFFFFFFFFFFFFF AND DUP2 MSTORE PUSH1 0x20 ADD SWAP1 DUP2 MSTORE PUSH1 0x20 ADD PUSH1 0x0 KECCAK256 PUSH1 0x0 PUSH2 0x100 EXP DUP2 SLOAD DUP2 PUSH1 0xFF MUL NOT AND SWAP1 DUP4 ISZERO ISZERO MUL OR SWAP1 SSTORE POP POP POP POP JUMP JUMPDEST PUSH2 0x533 DUP4 PUSH4 0xA9059CBB PUSH1 0xE0 SHL DUP5 DUP5 PUSH1 0x40 MLOAD PUSH1 0x24 ADD PUSH2 0x4D1 SWAP3 SWAP2 SWAP1 PUSH2 0x9FE JUMP JUMPDEST PUSH1 0x40 MLOAD PUSH1 0x20 DUP2 DUP4 SUB SUB DUP2 MSTORE SWAP1 PUSH1 0x40 MSTORE SWAP1 PUSH28 0xFFFFFFFFFFFFFFFFFFFFFFFFFFFFFFFFFFFFFFFFFFFFFFFFFFFFFFFF NOT AND PUSH1 0x20 DUP3 ADD DUP1 MLOAD PUSH28 0xFFFFFFFFFFFFFFFFFFFFFFFFFFFFFFFFFFFFFFFFFFFFFFFFFFFFFFFF DUP4 DUP2 DUP4 AND OR DUP4 MSTORE POP POP POP POP PUSH2 0x538 JUMP JUMPDEST POP POP POP JUMP JUMPDEST PUSH1 0x0 PUSH2 0x59A DUP3 PUSH1 0x40 MLOAD DUP1 PUSH1 0x40 ADD PUSH1 0x40 MSTORE DUP1 PUSH1 0x20 DUP2 MSTORE PUSH1 0x20 ADD PUSH32 0x5361666545524332303A206C6F772D6C6576656C2063616C6C206661696C6564 DUP2 MSTORE POP DUP6 PUSH20 0xFFFFFFFFFFFFFFFFFFFFFFFFFFFFFFFFFFFFFFFF AND PUSH2 0x600 SWAP1 SWAP3 SWAP2 SWAP1 PUSH4 0xFFFFFFFF AND JUMP JUMPDEST SWAP1 POP PUSH1 0x0 DUP2 MLOAD EQ DUP1 PUSH2 0x5BC JUMPI POP DUP1 DUP1 PUSH1 0x20 ADD SWAP1 MLOAD DUP2 ADD SWAP1 PUSH2 0x5BB SWAP2 SWAP1 PUSH2 0xA5F JUMP JUMPDEST JUMPDEST PUSH2 0x5FB JUMPI PUSH1 0x40 MLOAD PUSH32 0x8C379A000000000000000000000000000000000000000000000000000000000 DUP2 MSTORE PUSH1 0x4 ADD PUSH2 0x5F2 SWAP1 PUSH2 0xB0F JUMP JUMPDEST PUSH1 0x40 MLOAD DUP1 SWAP2 SUB SWAP1 REVERT JUMPDEST POP POP POP JUMP JUMPDEST PUSH1 0x60 PUSH2 0x60F DUP5 DUP5 PUSH1 0x0 DUP6 PUSH2 0x618 JUMP JUMPDEST SWAP1 POP SWAP4 SWAP3 POP POP POP JUMP JUMPDEST PUSH1 0x60 DUP3 SELFBALANCE LT ISZERO PUSH2 0x65D JUMPI PUSH1 0x40 MLOAD PUSH32 0x8C379A000000000000000000000000000000000000000000000000000000000 DUP2 MSTORE PUSH1 0x4 ADD PUSH2 0x654 SWAP1 PUSH2 0xBA1 JUMP JUMPDEST PUSH1 0x40 MLOAD DUP1 SWAP2 SUB SWAP1 REVERT JUMPDEST PUSH1 0x0 DUP1 DUP7 PUSH20 0xFFFFFFFFFFFFFFFFFFFFFFFFFFFFFFFFFFFFFFFF AND DUP6 DUP8 PUSH1 0x40 MLOAD PUSH2 0x686 SWAP2 SWAP1 PUSH2 0xC3B JUMP JUMPDEST PUSH1 0x0 PUSH1 0x40 MLOAD DUP1 DUP4 SUB DUP2 DUP6 DUP8 GAS CALL SWAP3 POP POP POP RETURNDATASIZE DUP1 PUSH1 0x0 DUP2 EQ PUSH2 0x6C3 JUMPI PUSH1 0x40 MLOAD SWAP2 POP PUSH1 0x1F NOT PUSH1 0x3F RETURNDATASIZE ADD AND DUP3 ADD PUSH1 0x40 MSTORE RETURNDATASIZE DUP3 MSTORE RETURNDATASIZE PUSH1 0x0 PUSH1 0x20 DUP5 ADD RETURNDATACOPY PUSH2 0x6C8 JUMP JUMPDEST PUSH1 0x60 SWAP2 POP JUMPDEST POP SWAP2 POP SWAP2 POP PUSH2 0x6D9 DUP8 DUP4 DUP4 DUP8 PUSH2 0x6E5 JUMP JUMPDEST SWAP3 POP POP POP SWAP5 SWAP4 POP POP POP POP JUMP JUMPDEST PUSH1 0x60 DUP4 ISZERO PUSH2 0x748 JUMPI PUSH1 0x0 DUP4 MLOAD EQ ISZERO PUSH2 0x740 JUMPI PUSH2 0x700 DUP6 PUSH2 0x75B JUMP JUMPDEST PUSH2 0x73F JUMPI PUSH1 0x40 MLOAD PUSH32 0x8C379A000000000000000000000000000000000000000000000000000000000 DUP2 MSTORE PUSH1 0x4 ADD PUSH2 0x736 SWAP1 PUSH2 0xC9E JUMP JUMPDEST PUSH1 0x40 MLOAD DUP1 SWAP2 SUB SWAP1 REVERT JUMPDEST JUMPDEST DUP3 SWAP1 POP PUSH2 0x753 JUMP JUMPDEST PUSH2 0x752 DUP4 DUP4 PUSH2 0x77E JUMP JUMPDEST JUMPDEST SWAP5 SWAP4 POP POP POP POP JUMP JUMPDEST PUSH1 0x0 DUP1 DUP3 PUSH20 0xFFFFFFFFFFFFFFFFFFFFFFFFFFFFFFFFFFFFFFFF AND EXTCODESIZE GT SWAP1 POP SWAP2 SWAP1 POP JUMP JUMPDEST PUSH1 0x0 DUP3 MLOAD GT ISZERO PUSH2 0x791 JUMPI DUP2 MLOAD DUP1 DUP4 PUSH1 0x20 ADD REVERT JUMPDEST DUP1 PUSH1 0x40 MLOAD PUSH32 0x8C379A000000000000000000000000000000000000000000000000000000000 DUP2 MSTORE PUSH1 0x4 ADD PUSH2 0x7C5 SWAP2 SWAP1 PUSH2 0xD13 JUMP JUMPDEST PUSH1 0x40 MLOAD DUP1 SWAP2 SUB SWAP1 REVERT JUMPDEST PUSH1 0x0 DUP1 REVERT JUMPDEST PUSH1 0x0 PUSH20 0xFFFFFFFFFFFFFFFFFFFFFFFFFFFFFFFFFFFFFFFF DUP3 AND SWAP1 POP SWAP2 SWAP1 POP JUMP JUMPDEST PUSH1 0x0 PUSH2 0x7FE DUP3 PUSH2 0x7D3 JUMP JUMPDEST SWAP1 POP SWAP2 SWAP1 POP JUMP JUMPDEST PUSH2 0x80E DUP2 PUSH2 0x7F3 JUMP JUMPDEST DUP2 EQ PUSH2 0x819 JUMPI PUSH1 0x0 DUP1 REVERT JUMPDEST POP JUMP JUMPDEST PUSH1 0x0 DUP2 CALLDATALOAD SWAP1 POP PUSH2 0x82B DUP2 PUSH2 0x805 JUMP JUMPDEST SWAP3 SWAP2 POP POP JUMP JUMPDEST PUSH1 0x0 PUSH1 0x20 DUP3 DUP5 SUB SLT ISZERO PUSH2 0x847 JUMPI PUSH2 0x846 PUSH2 0x7CE JUMP JUMPDEST JUMPDEST PUSH1 0x0 PUSH2 0x855 DUP5 DUP3 DUP6 ADD PUSH2 0x81C JUMP JUMPDEST SWAP2 POP POP SWAP3 SWAP2 POP POP JUMP JUMPDEST PUSH1 0x0 DUP2 SWAP1 POP SWAP2 SWAP1 POP JUMP JUMPDEST PUSH2 0x871 DUP2 PUSH2 0x85E JUMP JUMPDEST DUP3 MSTORE POP POP JUMP JUMPDEST PUSH1 0x0 PUSH1 0x20 DUP3 ADD SWAP1 POP PUSH2 0x88C PUSH1 0x0 DUP4 ADD DUP5 PUSH2 0x868 JUMP JUMPDEST SWAP3 SWAP2 POP POP JUMP JUMPDEST PUSH2 0x89B DUP2 PUSH2 0x7F3 JUMP JUMPDEST DUP3 MSTORE POP POP JUMP JUMPDEST PUSH1 0x0 PUSH1 0x20 DUP3 ADD SWAP1 POP PUSH2 0x8B6 PUSH1 0x0 DUP4 ADD DUP5 PUSH2 0x892 JUMP JUMPDEST SWAP3 SWAP2 POP POP JUMP JUMPDEST PUSH2 0x8C5 DUP2 PUSH2 0x85E JUMP JUMPDEST DUP2 EQ PUSH2 0x8D0 JUMPI PUSH1 0x0 DUP1 REVERT JUMPDEST POP JUMP JUMPDEST PUSH1 0x0 DUP2 MLOAD SWAP1 POP PUSH2 0x8E2 DUP2 PUSH2 0x8BC JUMP JUMPDEST SWAP3 SWAP2 POP POP JUMP JUMPDEST PUSH1 0x0 PUSH1 0x20 DUP3 DUP5 SUB SLT ISZERO PUSH2 0x8FE JUMPI PUSH2 0x8FD PUSH2 0x7CE JUMP JUMPDEST JUMPDEST PUSH1 0x0 PUSH2 0x90C DUP5 DUP3 DUP6 ADD PUSH2 0x8D3 JUMP JUMPDEST SWAP2 POP POP SWAP3 SWAP2 POP POP JUMP JUMPDEST PUSH32 0x4E487B7100000000000000000000000000000000000000000000000000000000 PUSH1 0x0 MSTORE PUSH1 0x12 PUSH1 0x4 MSTORE PUSH1 0x24 PUSH1 0x0 REVERT JUMPDEST PUSH32 0x4E487B7100000000000000000000000000000000000000000000000000000000 PUSH1 0x0 MSTORE PUSH1 0x11 PUSH1 0x4 MSTORE PUSH1 0x24 PUSH1 0x0 REVERT JUMPDEST PUSH1 0x0 PUSH2 0x97E DUP3 PUSH2 0x85E JUMP JUMPDEST SWAP2 POP PUSH2 0x989 DUP4 PUSH2 0x85E JUMP JUMPDEST SWAP3 POP DUP3 PUSH2 0x999 JUMPI PUSH2 0x998 PUSH2 0x915 JUMP JUMPDEST JUMPDEST DUP3 DUP3 DIV SWAP1 POP SWAP3 SWAP2 POP POP JUMP JUMPDEST PUSH1 0x0 PUSH2 0x9AF DUP3 PUSH2 0x85E JUMP JUMPDEST SWAP2 POP PUSH2 0x9BA DUP4 PUSH2 0x85E JUMP JUMPDEST SWAP3 POP DUP2 PUSH32 0xFFFFFFFFFFFFFFFFFFFFFFFFFFFFFFFFFFFFFFFFFFFFFFFFFFFFFFFFFFFFFFFF DIV DUP4 GT DUP3 ISZERO ISZERO AND ISZERO PUSH2 0x9F3 JUMPI PUSH2 0x9F2 PUSH2 0x944 JUMP JUMPDEST JUMPDEST DUP3 DUP3 MUL SWAP1 POP SWAP3 SWAP2 POP POP JUMP JUMPDEST PUSH1 0x0 PUSH1 0x40 DUP3 ADD SWAP1 POP PUSH2 0xA13 PUSH1 0x0 DUP4 ADD DUP6 PUSH2 0x892 JUMP JUMPDEST PUSH2 0xA20 PUSH1 0x20 DUP4 ADD DUP5 PUSH2 0x868 JUMP JUMPDEST SWAP4 SWAP3 POP POP POP JUMP JUMPDEST PUSH1 0x0 DUP2 ISZERO ISZERO SWAP1 POP SWAP2 SWAP1 POP JUMP JUMPDEST PUSH2 0xA3C DUP2 PUSH2 0xA27 JUMP JUMPDEST DUP2 EQ PUSH2 0xA47 JUMPI PUSH1 0x0 DUP1 REVERT JUMPDEST POP JUMP JUMPDEST PUSH1 0x0 DUP2 MLOAD SWAP1 POP PUSH2 0xA59 DUP2 PUSH2 0xA33 JUMP JUMPDEST SWAP3 SWAP2 POP POP JUMP JUMPDEST PUSH1 0x0 PUSH1 0x20 DUP3 DUP5 SUB SLT ISZERO PUSH2 0xA75 JUMPI PUSH2 0xA74 PUSH2 0x7CE JUMP JUMPDEST JUMPDEST PUSH1 0x0 PUSH2 0xA83 DUP5 DUP3 DUP6 ADD PUSH2 0xA4A JUMP JUMPDEST SWAP2 POP POP SWAP3 SWAP2 POP POP JUMP JUMPDEST PUSH1 0x0 DUP3 DUP3 MSTORE PUSH1 0x20 DUP3 ADD SWAP1 POP SWAP3 SWAP2 POP POP JUMP JUMPDEST PUSH32 0x5361666545524332303A204552433230206F7065726174696F6E20646964206E PUSH1 0x0 DUP3 ADD MSTORE PUSH32 0x6F74207375636365656400000000000000000000000000000000000000000000 PUSH1 0x20 DUP3 ADD MSTORE POP JUMP JUMPDEST PUSH1 0x0 PUSH2 0xAF9 PUSH1 0x2A DUP4 PUSH2 0xA8C JUMP JUMPDEST SWAP2 POP PUSH2 0xB04 DUP3 PUSH2 0xA9D JUMP JUMPDEST PUSH1 0x40 DUP3 ADD SWAP1 POP SWAP2 SWAP1 POP JUMP JUMPDEST PUSH1 0x0 PUSH1 0x20 DUP3 ADD SWAP1 POP DUP2 DUP2 SUB PUSH1 0x0 DUP4 ADD MSTORE PUSH2 0xB28 DUP2 PUSH2 0xAEC JUMP JUMPDEST SWAP1 POP SWAP2 SWAP1 POP JUMP JUMPDEST PUSH32 0x416464726573733A20696E73756666696369656E742062616C616E636520666F PUSH1 0x0 DUP3 ADD MSTORE PUSH32 0x722063616C6C0000000000000000000000000000000000000000000000000000 PUSH1 0x20 DUP3 ADD MSTORE POP JUMP JUMPDEST PUSH1 0x0 PUSH2 0xB8B PUSH1 0x26 DUP4 PUSH2 0xA8C JUMP JUMPDEST SWAP2 POP PUSH2 0xB96 DUP3 PUSH2 0xB2F JUMP JUMPDEST PUSH1 0x40 DUP3 ADD SWAP1 POP SWAP2 SWAP1 POP JUMP JUMPDEST PUSH1 0x0 PUSH1 0x20 DUP3 ADD SWAP1 POP DUP2 DUP2 SUB PUSH1 0x0 DUP4 ADD MSTORE PUSH2 0xBBA DUP2 PUSH2 0xB7E JUMP JUMPDEST SWAP1 POP SWAP2 SWAP1 POP JUMP JUMPDEST PUSH1 0x0 DUP2 MLOAD SWAP1 POP SWAP2 SWAP1 POP JUMP JUMPDEST PUSH1 0x0 DUP2 SWAP1 POP SWAP3 SWAP2 POP POP JUMP JUMPDEST PUSH1 0x0 JUMPDEST DUP4 DUP2 LT ISZERO PUSH2 0xBF5 JUMPI DUP1 DUP3 ADD MLOAD DUP2 DUP5 ADD MSTORE PUSH1 0x20 DUP2 ADD SWAP1 POP PUSH2 0xBDA JUMP JUMPDEST DUP4 DUP2 GT ISZERO PUSH2 0xC04 JUMPI PUSH1 0x0 DUP5 DUP5 ADD MSTORE JUMPDEST POP POP POP POP JUMP JUMPDEST PUSH1 0x0 PUSH2 0xC15 DUP3 PUSH2 0xBC1 JUMP JUMPDEST PUSH2 0xC1F DUP2 DUP6 PUSH2 0xBCC JUMP JUMPDEST SWAP4 POP PUSH2 0xC2F DUP2 DUP6 PUSH1 0x20 DUP7 ADD PUSH2 0xBD7 JUMP JUMPDEST DUP1 DUP5 ADD SWAP2 POP POP SWAP3 SWAP2 POP POP JUMP JUMPDEST PUSH1 0x0 PUSH2 0xC47 DUP3 DUP5 PUSH2 0xC0A JUMP JUMPDEST SWAP2 POP DUP2 SWAP1 POP SWAP3 SWAP2 POP POP JUMP JUMPDEST PUSH32 0x416464726573733A2063616C6C20746F206E6F6E2D636F6E7472616374000000 PUSH1 0x0 DUP3 ADD MSTORE POP JUMP JUMPDEST PUSH1 0x0 PUSH2 0xC88 PUSH1 0x1D DUP4 PUSH2 0xA8C JUMP JUMPDEST SWAP2 POP PUSH2 0xC93 DUP3 PUSH2 0xC52 JUMP JUMPDEST PUSH1 0x20 DUP3 ADD SWAP1 POP SWAP2 SWAP1 POP JUMP JUMPDEST PUSH1 0x0 PUSH1 0x20 DUP3 ADD SWAP1 POP DUP2 DUP2 SUB PUSH1 0x0 DUP4 ADD MSTORE PUSH2 0xCB7 DUP2 PUSH2 0xC7B JUMP JUMPDEST SWAP1 POP SWAP2 SWAP1 POP JUMP JUMPDEST PUSH1 0x0 DUP2 MLOAD SWAP1 POP SWAP2 SWAP1 POP JUMP JUMPDEST PUSH1 0x0 PUSH1 0x1F NOT PUSH1 0x1F DUP4 ADD AND SWAP1 POP SWAP2 SWAP1 POP JUMP JUMPDEST PUSH1 0x0 PUSH2 0xCE5 DUP3 PUSH2 0xCBE JUMP JUMPDEST PUSH2 0xCEF DUP2 DUP6 PUSH2 0xA8C JUMP JUMPDEST SWAP4 POP PUSH2 0xCFF DUP2 DUP6 PUSH1 0x20 DUP7 ADD PUSH2 0xBD7 JUMP JUMPDEST PUSH2 0xD08 DUP2 PUSH2 0xCC9 JUMP JUMPDEST DUP5 ADD SWAP2 POP POP SWAP3 SWAP2 POP POP JUMP JUMPDEST PUSH1 0x0 PUSH1 0x20 DUP3 ADD SWAP1 POP DUP2 DUP2 SUB PUSH1 0x0 DUP4 ADD MSTORE PUSH2 0xD2D DUP2 DUP5 PUSH2 0xCDA JUMP JUMPDEST SWAP1 POP SWAP3 SWAP2 POP POP JUMP INVALID LOG2 PUSH5 0x6970667358 0x22 SLT KECCAK256 MUL PUSH2 0x39E2 0x4D 0xDC 0xDB 0xEA 0xAB 0x4E BASEFEE DUP9 0xE2 LOG2 DUP9 BYTE 0xA7 AND 0xB2 0xE3 EXTCODEHASH DUP3 0x27 REVERT 0xBB PUSH2 0xA9F6 SMOD SWAP3 0x25 EXTCODECOPY PUSH5 0x736F6C6343 STOP ADDMOD MULMOD STOP CALLER "
				},
				"gasEstimates": {
					"creation": {
						"codeDepositCost": "687000",
						"executionCost": "infinite",
						"totalCost": "infinite"
					},
					"external": {
						"getTFERC20Amount(address)": "infinite",
						"getTotal()": "infinite",
						"profit(address)": "infinite",
						"withdrawReward(address)": "infinite"
					}
				},
				"methodIdentifiers": {
					"getTFERC20Amount(address)": "af32b7a1",
					"getTotal()": "775a25e3",
					"profit(address)": "02550e4d",
					"withdrawReward(address)": "b86e321c"
				}
			},
			"storageLayout": {
				"storage": [
					{
						"astId": 12,
						"contract": "contracts/RewradPool.sol:RewardPool",
						"label": "TFAddress",
						"offset": 0,
						"slot": "0",
						"type": "t_address"
					},
					{
						"astId": 26,
						"contract": "contracts/RewradPool.sol:RewardPool",
						"label": "userIfWithdraw",
						"offset": 0,
						"slot": "1",
						"type": "t_mapping(t_address,t_bool)"
					}
				],
				"types": {
					"t_address": {
						"encoding": "inplace",
						"label": "address",
						"numberOfBytes": "20"
					},
					"t_bool": {
						"encoding": "inplace",
						"label": "bool",
						"numberOfBytes": "1"
					},
					"t_mapping(t_address,t_bool)": {
						"encoding": "mapping",
						"key": "t_address",
						"label": "mapping(address => bool)",
						"numberOfBytes": "32",
						"value": "t_bool"
					}
				}
			},
			"userdoc": {
				"kind": "user",
				"methods": {},
				"version": 1
			}
		}
	}
}