{
	"contracts/TimeERC721Storage.sol": {
		"TimeERC721Storage": {
			"abi": [
				{
					"anonymous": false,
					"inputs": [
						{
							"indexed": true,
							"internalType": "address",
							"name": "previousOwner",
							"type": "address"
						},
						{
							"indexed": true,
							"internalType": "address",
							"name": "newOwner",
							"type": "address"
						}
					],
					"name": "OwnershipTransferred",
					"type": "event"
				},
				{
					"anonymous": false,
					"inputs": [
						{
							"indexed": true,
							"internalType": "address",
							"name": "marketAddress",
							"type": "address"
						},
						{
							"indexed": false,
							"internalType": "uint256",
							"name": "tradeId",
							"type": "uint256"
						},
						{
							"indexed": false,
							"internalType": "uint256",
							"name": "nftId",
							"type": "uint256"
						},
						{
							"indexed": false,
							"internalType": "uint256",
							"name": "value",
							"type": "uint256"
						},
						{
							"indexed": false,
							"internalType": "address",
							"name": "usedToken",
							"type": "address"
						},
						{
							"indexed": false,
							"internalType": "string",
							"name": "nftType",
							"type": "string"
						}
					],
					"name": "storageNft",
					"type": "event"
				},
				{
					"inputs": [
						{
							"internalType": "address",
							"name": "capitalPoolAddress",
							"type": "address"
						},
						{
							"internalType": "uint256",
							"name": "_nftId",
							"type": "uint256"
						}
					],
					"name": "getTokenUri",
					"outputs": [
						{
							"internalType": "string",
							"name": "",
							"type": "string"
						}
					],
					"stateMutability": "view",
					"type": "function"
				},
				{
					"inputs": [
						{
							"internalType": "address",
							"name": "_timeCapitalPoolFactory",
							"type": "address"
						}
					],
					"name": "initialize",
					"outputs": [],
					"stateMutability": "nonpayable",
					"type": "function"
				},
				{
					"inputs": [],
					"name": "owner",
					"outputs": [
						{
							"internalType": "address",
							"name": "",
							"type": "address"
						}
					],
					"stateMutability": "view",
					"type": "function"
				},
				{
					"inputs": [],
					"name": "renounceOwnership",
					"outputs": [],
					"stateMutability": "nonpayable",
					"type": "function"
				},
				{
					"inputs": [
						{
							"internalType": "uint256",
							"name": "marketId",
							"type": "uint256"
						},
						{
							"internalType": "uint256",
							"name": "tardeId",
							"type": "uint256"
						},
						{
							"internalType": "uint256",
							"name": "nftId",
							"type": "uint256"
						},
						{
							"internalType": "uint256",
							"name": "value",
							"type": "uint256"
						},
						{
							"internalType": "uint256",
							"name": "state",
							"type": "uint256"
						},
						{
							"internalType": "address",
							"name": "token",
							"type": "address"
						}
					],
					"name": "storageImage",
					"outputs": [],
					"stateMutability": "nonpayable",
					"type": "function"
				},
				{
					"inputs": [],
					"name": "timeCapitalPoolFactory",
					"outputs": [
						{
							"internalType": "address",
							"name": "",
							"type": "address"
						}
					],
					"stateMutability": "view",
					"type": "function"
				},
				{
					"inputs": [
						{
							"internalType": "address",
							"name": "newOwner",
							"type": "address"
						}
					],
					"name": "transferOwnership",
					"outputs": [],
					"stateMutability": "nonpayable",
					"type": "function"
				}
			],
			"devdoc": {
				"kind": "dev",
				"methods": {
					"owner()": {
						"details": "Returns the address of the current owner."
					},
					"renounceOwnership()": {
						"details": "Leaves the contract without owner. It will not be possible to call `onlyOwner` functions. Can only be called by the current owner. NOTE: Renouncing ownership will leave the contract without an owner, thereby disabling any functionality that is only available to the owner."
					},
					"transferOwnership(address)": {
						"details": "Transfers ownership of the contract to a new account (`newOwner`). Can only be called by the current owner."
					}
				},
				"version": 1
			},
			"evm": {
				"assembly": "    /* \"contracts/TimeERC721Storage.sol\":289:4998  contract TimeERC721Storage is Ownable {... */\n  mstore(0x40, 0x80)\n    /* \"contracts/TimeERC721Storage.sol\":840:1233  string svgPart1 =... */\n  mload(0x40)\n  dup1\n  0x0180\n  add\n  0x40\n  mstore\n  dup1\n  0x0155\n  dup2\n  mstore\n  0x20\n  add\n  data_07f6f1de62c2227d6d3f13e74adc28393d9fcbf68aa481567bc9b1b53c87714a\n  0x0155\n  swap2\n  codecopy\n  0x03\n  swap1\n  dup1\n  mload\n  swap1\n  0x20\n  add\n  swap1\n  tag_1\n  swap3\n  swap2\n  swap1\n  tag_2\n  jump\t// in\ntag_1:\n  pop\n    /* \"contracts/TimeERC721Storage.sol\":1239:1482  string bgColor1 =... */\n  mload(0x40)\n  dup1\n  0x0100\n  add\n  0x40\n  mstore\n  dup1\n  0xcb\n  dup2\n  mstore\n  0x20\n  add\n  data_537b6f9493c0e356e5eabdef347bb244e218f722bb3a4531b1340182aeb2275a\n  0xcb\n  swap2\n  codecopy\n  0x04\n  swap1\n  dup1\n  mload\n  swap1\n  0x20\n  add\n  swap1\n  tag_3\n  swap3\n  swap2\n  swap1\n  tag_2\n  jump\t// in\ntag_3:\n  pop\n    /* \"contracts/TimeERC721Storage.sol\":1488:1731  string bgColor2 =... */\n  mload(0x40)\n  dup1\n  0x0100\n  add\n  0x40\n  mstore\n  dup1\n  0xcb\n  dup2\n  mstore\n  0x20\n  add\n  data_959ca9e909aef56c2680b016ed7c1f9dec9290ed26d3bb9fc56ff7d263bad507\n  0xcb\n  swap2\n  codecopy\n  0x05\n  swap1\n  dup1\n  mload\n  swap1\n  0x20\n  add\n  swap1\n  tag_4\n  swap3\n  swap2\n  swap1\n  tag_2\n  jump\t// in\ntag_4:\n  pop\n    /* \"contracts/TimeERC721Storage.sol\":1737:1980  string bgColor3 =... */\n  mload(0x40)\n  dup1\n  0x0100\n  add\n  0x40\n  mstore\n  dup1\n  0xcb\n  dup2\n  mstore\n  0x20\n  add\n  data_e157bbe56edcadc88a98542aba7077d49e84435f988aaecd63e6f4b70d772454\n  0xcb\n  swap2\n  codecopy\n  0x06\n  swap1\n  dup1\n  mload\n  swap1\n  0x20\n  add\n  swap1\n  tag_5\n  swap3\n  swap2\n  swap1\n  tag_2\n  jump\t// in\ntag_5:\n  pop\n    /* \"contracts/TimeERC721Storage.sol\":1986:2107  string svgPart2 =... */\n  mload(0x40)\n  dup1\n  0x80\n  add\n  0x40\n  mstore\n  dup1\n  0x5d\n  dup2\n  mstore\n  0x20\n  add\n  data_b425f1404d429a4122112f4439ffba02b0303b4ccc2d30b01095ded6962ded55\n  0x5d\n  swap2\n  codecopy\n  0x07\n  swap1\n  dup1\n  mload\n  swap1\n  0x20\n  add\n  swap1\n  tag_6\n  swap3\n  swap2\n  swap1\n  tag_2\n  jump\t// in\ntag_6:\n  pop\n    /* \"contracts/TimeERC721Storage.sol\":2113:2233  string svgPart3 =... */\n  mload(0x40)\n  dup1\n  0x80\n  add\n  0x40\n  mstore\n  dup1\n  0x5c\n  dup2\n  mstore\n  0x20\n  add\n  data_d65c77e4acdf7842ab3b315b0b13343b7341a2f7f6c612dabf1659bee68dc945\n  0x5c\n  swap2\n  codecopy\n  0x08\n  swap1\n  dup1\n  mload\n  swap1\n  0x20\n  add\n  swap1\n  tag_7\n  swap3\n  swap2\n  swap1\n  tag_2\n  jump\t// in\ntag_7:\n  pop\n    /* \"contracts/TimeERC721Storage.sol\":2239:2361  string svgPart4 =... */\n  mload(0x40)\n  dup1\n  0x80\n  add\n  0x40\n  mstore\n  dup1\n  0x5e\n  dup2\n  mstore\n  0x20\n  add\n  data_1483bf1f08b83008a72adef45b9cbd10d5eace79ea3b9e4e2bdec0687b1f62ec\n  0x5e\n  swap2\n  codecopy\n  0x09\n  swap1\n  dup1\n  mload\n  swap1\n  0x20\n  add\n  swap1\n  tag_8\n  swap3\n  swap2\n  swap1\n  tag_2\n  jump\t// in\ntag_8:\n  pop\n    /* \"contracts/TimeERC721Storage.sol\":2367:2400  string svgPart5 = \"</text></svg>\" */\n  mload(0x40)\n  dup1\n  0x40\n  add\n  0x40\n  mstore\n  dup1\n  0x0d\n  dup2\n  mstore\n  0x20\n  add\n  0x3c2f746578743e3c2f7376673e00000000000000000000000000000000000000\n  dup2\n  mstore\n  pop\n  0x0a\n  swap1\n  dup1\n  mload\n  swap1\n  0x20\n  add\n  swap1\n  tag_9\n  swap3\n  swap2\n  swap1\n  tag_2\n  jump\t// in\ntag_9:\n  pop\n    /* \"contracts/TimeERC721Storage.sol\":2406:2432  string svgText = \"</text>\" */\n  mload(0x40)\n  dup1\n  0x40\n  add\n  0x40\n  mstore\n  dup1\n  0x07\n  dup2\n  mstore\n  0x20\n  add\n  0x3c2f746578743e00000000000000000000000000000000000000000000000000\n  dup2\n  mstore\n  pop\n  0x0b\n  swap1\n  dup1\n  mload\n  swap1\n  0x20\n  add\n  swap1\n  tag_10\n  swap3\n  swap2\n  swap1\n  tag_2\n  jump\t// in\ntag_10:\n  pop\n    /* \"contracts/TimeERC721Storage.sol\":289:4998  contract TimeERC721Storage is Ownable {... */\n  callvalue\n  dup1\n  iszero\n  tag_11\n  jumpi\n  0x00\n  dup1\n  revert\ntag_11:\n  pop\n    /* \"contracts/Ownable.sol\":957:989  _transferOwnership(_msgSender()) */\n  tag_14\n    /* \"contracts/Ownable.sol\":976:988  _msgSender() */\n  tag_15\n    /* \"contracts/Ownable.sol\":976:986  _msgSender */\n  shl(0x20, tag_16)\n    /* \"contracts/Ownable.sol\":976:988  _msgSender() */\n  0x20\n  shr\n  jump\t// in\ntag_15:\n    /* \"contracts/Ownable.sol\":957:975  _transferOwnership */\n  shl(0x20, tag_17)\n    /* \"contracts/Ownable.sol\":957:989  _transferOwnership(_msgSender()) */\n  0x20\n  shr\n  jump\t// in\ntag_14:\n    /* \"contracts/TimeERC721Storage.sol\":289:4998  contract TimeERC721Storage is Ownable {... */\n  jump(tag_18)\n    /* \"contracts/Context.sol\":671:769  function _msgSender() internal view virtual returns (address) {... */\ntag_16:\n    /* \"contracts/Context.sol\":724:731  address */\n  0x00\n    /* \"contracts/Context.sol\":751:761  msg.sender */\n  caller\n    /* \"contracts/Context.sol\":744:761  return msg.sender */\n  swap1\n  pop\n    /* \"contracts/Context.sol\":671:769  function _msgSender() internal view virtual returns (address) {... */\n  swap1\n  jump\t// out\n    /* \"contracts/Ownable.sol\":2496:2687  function _transferOwnership(address newOwner) internal virtual {... */\ntag_17:\n    /* \"contracts/Ownable.sol\":2570:2586  address oldOwner */\n  0x00\n    /* \"contracts/Ownable.sol\":2589:2595  _owner */\n  dup1\n  0x00\n  swap1\n  sload\n  swap1\n  0x0100\n  exp\n  swap1\n  div\n  0xffffffffffffffffffffffffffffffffffffffff\n  and\n    /* \"contracts/Ownable.sol\":2570:2595  address oldOwner = _owner */\n  swap1\n  pop\n    /* \"contracts/Ownable.sol\":2615:2623  newOwner */\n  dup2\n    /* \"contracts/Ownable.sol\":2606:2612  _owner */\n  0x00\n  dup1\n    /* \"contracts/Ownable.sol\":2606:2623  _owner = newOwner */\n  0x0100\n  exp\n  dup2\n  sload\n  dup2\n  0xffffffffffffffffffffffffffffffffffffffff\n  mul\n  not\n  and\n  swap1\n  dup4\n  0xffffffffffffffffffffffffffffffffffffffff\n  and\n  mul\n  or\n  swap1\n  sstore\n  pop\n    /* \"contracts/Ownable.sol\":2670:2678  newOwner */\n  dup2\n    /* \"contracts/Ownable.sol\":2639:2679  OwnershipTransferred(oldOwner, newOwner) */\n  0xffffffffffffffffffffffffffffffffffffffff\n  and\n    /* \"contracts/Ownable.sol\":2660:2668  oldOwner */\n  dup2\n    /* \"contracts/Ownable.sol\":2639:2679  OwnershipTransferred(oldOwner, newOwner) */\n  0xffffffffffffffffffffffffffffffffffffffff\n  and\n  0x8be0079c531659141344cd1fd0a4f28419497f9722a3daafe3b4186f6b6457e0\n  mload(0x40)\n  mload(0x40)\n  dup1\n  swap2\n  sub\n  swap1\n  log3\n    /* \"contracts/Ownable.sol\":2559:2687  {... */\n  pop\n    /* \"contracts/Ownable.sol\":2496:2687  function _transferOwnership(address newOwner) internal virtual {... */\n  pop\n  jump\t// out\n    /* \"contracts/TimeERC721Storage.sol\":289:4998  contract TimeERC721Storage is Ownable {... */\ntag_2:\n  dup3\n  dup1\n  sload\n  tag_21\n  swap1\n  tag_22\n  jump\t// in\ntag_21:\n  swap1\n  0x00\n  mstore\n  keccak256(0x00, 0x20)\n  swap1\n  0x1f\n  add\n  0x20\n  swap1\n  div\n  dup2\n  add\n  swap3\n  dup3\n  tag_24\n  jumpi\n  0x00\n  dup6\n  sstore\n  jump(tag_23)\ntag_24:\n  dup3\n  0x1f\n  lt\n  tag_25\n  jumpi\n  dup1\n  mload\n  not(0xff)\n  and\n  dup4\n  dup1\n  add\n  or\n  dup6\n  sstore\n  jump(tag_23)\ntag_25:\n  dup3\n  dup1\n  add\n  0x01\n  add\n  dup6\n  sstore\n  dup3\n  iszero\n  tag_23\n  jumpi\n  swap2\n  dup3\n  add\ntag_26:\n  dup3\n  dup2\n  gt\n  iszero\n  tag_27\n  jumpi\n  dup3\n  mload\n  dup3\n  sstore\n  swap2\n  0x20\n  add\n  swap2\n  swap1\n  0x01\n  add\n  swap1\n  jump(tag_26)\ntag_27:\ntag_23:\n  pop\n  swap1\n  pop\n  tag_28\n  swap2\n  swap1\n  tag_29\n  jump\t// in\ntag_28:\n  pop\n  swap1\n  jump\t// out\ntag_29:\ntag_30:\n  dup1\n  dup3\n  gt\n  iszero\n  tag_31\n  jumpi\n  0x00\n  dup2\n  0x00\n  swap1\n  sstore\n  pop\n  0x01\n  add\n  jump(tag_30)\ntag_31:\n  pop\n  swap1\n  jump\t// out\n    /* \"#utility.yul\":7:187   */\ntag_32:\n    /* \"#utility.yul\":55:132   */\n  0x4e487b7100000000000000000000000000000000000000000000000000000000\n    /* \"#utility.yul\":52:53   */\n  0x00\n    /* \"#utility.yul\":45:133   */\n  mstore\n    /* \"#utility.yul\":152:156   */\n  0x22\n    /* \"#utility.yul\":149:150   */\n  0x04\n    /* \"#utility.yul\":142:157   */\n  mstore\n    /* \"#utility.yul\":176:180   */\n  0x24\n    /* \"#utility.yul\":173:174   */\n  0x00\n    /* \"#utility.yul\":166:181   */\n  revert\n    /* \"#utility.yul\":193:513   */\ntag_22:\n    /* \"#utility.yul\":237:243   */\n  0x00\n    /* \"#utility.yul\":274:275   */\n  0x02\n    /* \"#utility.yul\":268:272   */\n  dup3\n    /* \"#utility.yul\":264:276   */\n  div\n    /* \"#utility.yul\":254:276   */\n  swap1\n  pop\n    /* \"#utility.yul\":321:322   */\n  0x01\n    /* \"#utility.yul\":315:319   */\n  dup3\n    /* \"#utility.yul\":311:323   */\n  and\n    /* \"#utility.yul\":342:360   */\n  dup1\n    /* \"#utility.yul\":332:413   */\n  tag_36\n  jumpi\n    /* \"#utility.yul\":398:402   */\n  0x7f\n    /* \"#utility.yul\":390:396   */\n  dup3\n    /* \"#utility.yul\":386:403   */\n  and\n    /* \"#utility.yul\":376:403   */\n  swap2\n  pop\n    /* \"#utility.yul\":332:413   */\ntag_36:\n    /* \"#utility.yul\":460:462   */\n  0x20\n    /* \"#utility.yul\":452:458   */\n  dup3\n    /* \"#utility.yul\":449:463   */\n  lt\n    /* \"#utility.yul\":429:447   */\n  dup2\n    /* \"#utility.yul\":426:464   */\n  eq\n    /* \"#utility.yul\":423:507   */\n  iszero\n  tag_37\n  jumpi\n    /* \"#utility.yul\":479:497   */\n  tag_38\n  tag_32\n  jump\t// in\ntag_38:\n    /* \"#utility.yul\":423:507   */\ntag_37:\n    /* \"#utility.yul\":244:513   */\n  pop\n    /* \"#utility.yul\":193:513   */\n  swap2\n  swap1\n  pop\n  jump\t// out\n    /* \"contracts/TimeERC721Storage.sol\":289:4998  contract TimeERC721Storage is Ownable {... */\ntag_18:\n  dataSize(sub_0)\n  dup1\n  dataOffset(sub_0)\n  0x00\n  codecopy\n  0x00\n  return\nstop\ndata_07f6f1de62c2227d6d3f13e74adc28393d9fcbf68aa481567bc9b1b53c87714a 3c73766720786d6c6e733d22687474703a2f2f7777772e77332e6f72672f323030302f737667222077696474683d2232373022206865696768743d22323730222066696c6c3d226e6f6e65223e3c706174682066696c6c3d2275726c282342292220643d224d302030683237307632373048307a222f3e0a3c646566733e3c66696c7465722069643d22412220636f6c6f722d696e746572706f6c6174696f6e2d66696c746572733d2273524742222066696c746572556e6974733d227573657253706163654f6e55736522206865696768743d22323730222077696474683d22323730223e0a3c666544726f70536861646f772064783d2230222064793d22312220737464446576696174696f6e3d22322220666c6f6f642d6f7061636974793d222e323235222077696474683d223230302522206865696768743d2232303025222f3e3c2f66696c7465723e3c2f646566733e\ndata_1483bf1f08b83008a72adef45b9cbd10d5eace79ea3b9e4e2bdec0687b1f62ec 3c7465787420783d2233322e352220793d223135302220666f6e742d73697a653d223237222066696c6c3d2223666666222066696c7465723d2275726c282341292220666f6e742d7765696768743d22626f6c64223e6e6674547970653a\ndata_537b6f9493c0e356e5eabdef347bb244e218f722bb3a4531b1340182aeb2275a 3c646566733e3c6c696e6561724772616469656e742069643d2242222078313d2230222079313d2230222078323d22323730222079323d2232373022206772616469656e74556e6974733d227573657253706163654f6e557365223e3c73746f702073746f702d636f6c6f723d2223666263326562222f3e0a3c73746f70206f66667365743d2231222073746f702d636f6c6f723d2223613663316565222073746f702d6f7061636974793d222e3939222f3e3c2f6c696e6561724772616469656e743e3c2f646566733e\ndata_959ca9e909aef56c2680b016ed7c1f9dec9290ed26d3bb9fc56ff7d263bad507 3c646566733e3c6c696e6561724772616469656e742069643d2242222078313d2230222079313d2230222078323d22323730222079323d2232373022206772616469656e74556e6974733d227573657253706163654f6e557365223e3c73746f702073746f702d636f6c6f723d2223653063336663222f3e0a3c73746f70206f66667365743d2231222073746f702d636f6c6f723d2223386563356663222073746f702d6f7061636974793d222e3939222f3e3c2f6c696e6561724772616469656e743e3c2f646566733e\ndata_b425f1404d429a4122112f4439ffba02b0303b4ccc2d30b01095ded6962ded55 3c7465787420783d2233322e352220793d2235302220666f6e742d73697a653d223237222066696c6c3d2223666666222066696c7465723d2275726c282341292220666f6e742d7765696768743d22626f6c64223e747261646549643a\ndata_d65c77e4acdf7842ab3b315b0b13343b7341a2f7f6c612dabf1659bee68dc945 3c7465787420783d2233322e352220793d223130302220666f6e742d73697a653d223237222066696c6c3d2223666666222066696c7465723d2275726c282341292220666f6e742d7765696768743d22626f6c64223e76616c75653a\ndata_e157bbe56edcadc88a98542aba7077d49e84435f988aaecd63e6f4b70d772454 3c646566733e3c6c696e6561724772616469656e742069643d2242222078313d2230222079313d2230222078323d22323730222079323d2232373022206772616469656e74556e6974733d227573657253706163654f6e557365223e3c73746f702073746f702d636f6c6f723d2223613865646561222f3e0a3c73746f70206f66667365743d2231222073746f702d636f6c6f723d2223666564366533222073746f702d6f7061636974793d222e3939222f3e3c2f6c696e6561724772616469656e743e3c2f646566733e\n\nsub_0: assembly {\n        /* \"contracts/TimeERC721Storage.sol\":289:4998  contract TimeERC721Storage is Ownable {... */\n      mstore(0x40, 0x80)\n      callvalue\n      dup1\n      iszero\n      tag_1\n      jumpi\n      0x00\n      dup1\n      revert\n    tag_1:\n      pop\n      jumpi(tag_2, lt(calldatasize, 0x04))\n      shr(0xe0, calldataload(0x00))\n      dup1\n      0x8da5cb5b\n      gt\n      tag_10\n      jumpi\n      dup1\n      0x8da5cb5b\n      eq\n      tag_6\n      jumpi\n      dup1\n      0xc4d66de8\n      eq\n      tag_7\n      jumpi\n      dup1\n      0xf2fde38b\n      eq\n      tag_8\n      jumpi\n      dup1\n      0xfab95f36\n      eq\n      tag_9\n      jumpi\n      jump(tag_2)\n    tag_10:\n      dup1\n      0x44ed5c0a\n      eq\n      tag_3\n      jumpi\n      dup1\n      0x4a49e0ef\n      eq\n      tag_4\n      jumpi\n      dup1\n      0x715018a6\n      eq\n      tag_5\n      jumpi\n    tag_2:\n      0x00\n      dup1\n      revert\n        /* \"contracts/TimeERC721Storage.sol\":333:370  address public timeCapitalPoolFactory */\n    tag_3:\n      tag_11\n      tag_12\n      jump\t// in\n    tag_11:\n      mload(0x40)\n      tag_13\n      swap2\n      swap1\n      tag_14\n      jump\t// in\n    tag_13:\n      mload(0x40)\n      dup1\n      swap2\n      sub\n      swap1\n      return\n        /* \"contracts/TimeERC721Storage.sol\":2439:4773  function storageImage(... */\n    tag_4:\n      tag_15\n      0x04\n      dup1\n      calldatasize\n      sub\n      dup2\n      add\n      swap1\n      tag_16\n      swap2\n      swap1\n      tag_17\n      jump\t// in\n    tag_16:\n      tag_18\n      jump\t// in\n    tag_15:\n      stop\n        /* \"contracts/Ownable.sol\":1877:1980  function renounceOwnership() public virtual onlyOwner {... */\n    tag_5:\n      tag_19\n      tag_20\n      jump\t// in\n    tag_19:\n      stop\n        /* \"contracts/Ownable.sol\":1236:1323  function owner() public view virtual returns (address) {... */\n    tag_6:\n      tag_21\n      tag_22\n      jump\t// in\n    tag_21:\n      mload(0x40)\n      tag_23\n      swap2\n      swap1\n      tag_14\n      jump\t// in\n    tag_23:\n      mload(0x40)\n      dup1\n      swap2\n      sub\n      swap1\n      return\n        /* \"contracts/TimeERC721Storage.sol\":377:514  function initialize(address _timeCapitalPoolFactory) external onlyOwner {... */\n    tag_7:\n      tag_24\n      0x04\n      dup1\n      calldatasize\n      sub\n      dup2\n      add\n      swap1\n      tag_25\n      swap2\n      swap1\n      tag_26\n      jump\t// in\n    tag_25:\n      tag_27\n      jump\t// in\n    tag_24:\n      stop\n        /* \"contracts/Ownable.sol\":2135:2336  function transferOwnership(address newOwner) public virtual onlyOwner {... */\n    tag_8:\n      tag_28\n      0x04\n      dup1\n      calldatasize\n      sub\n      dup2\n      add\n      swap1\n      tag_29\n      swap2\n      swap1\n      tag_26\n      jump\t// in\n    tag_29:\n      tag_30\n      jump\t// in\n    tag_28:\n      stop\n        /* \"contracts/TimeERC721Storage.sol\":4795:4996  function getTokenUri(address capitalPoolAddress, uint256 _nftId)... */\n    tag_9:\n      tag_31\n      0x04\n      dup1\n      calldatasize\n      sub\n      dup2\n      add\n      swap1\n      tag_32\n      swap2\n      swap1\n      tag_33\n      jump\t// in\n    tag_32:\n      tag_34\n      jump\t// in\n    tag_31:\n      mload(0x40)\n      tag_35\n      swap2\n      swap1\n      tag_36\n      jump\t// in\n    tag_35:\n      mload(0x40)\n      dup1\n      swap2\n      sub\n      swap1\n      return\n        /* \"contracts/TimeERC721Storage.sol\":333:370  address public timeCapitalPoolFactory */\n    tag_12:\n      0x01\n      0x00\n      swap1\n      sload\n      swap1\n      0x0100\n      exp\n      swap1\n      div\n      0xffffffffffffffffffffffffffffffffffffffff\n      and\n      dup2\n      jump\t// out\n        /* \"contracts/TimeERC721Storage.sol\":2439:4773  function storageImage(... */\n    tag_18:\n        /* \"contracts/TimeERC721Storage.sol\":2704:2726  timeCapitalPoolFactory */\n      0x01\n      0x00\n      swap1\n      sload\n      swap1\n      0x0100\n      exp\n      swap1\n      div\n      0xffffffffffffffffffffffffffffffffffffffff\n      and\n        /* \"contracts/TimeERC721Storage.sol\":2680:2742  ITimeCapitalPoolFactory(timeCapitalPoolFactory).getCapitalPool */\n      0xffffffffffffffffffffffffffffffffffffffff\n      and\n      0xbd2014bf\n        /* \"contracts/TimeERC721Storage.sol\":2764:2772  marketId */\n      dup8\n        /* \"contracts/TimeERC721Storage.sol\":2680:2790  ITimeCapitalPoolFactory(timeCapitalPoolFactory).getCapitalPool(... */\n      mload(0x40)\n      dup3\n      0xffffffff\n      and\n      0xe0\n      shl\n      dup2\n      mstore\n      0x04\n      add\n      tag_38\n      swap2\n      swap1\n      tag_39\n      jump\t// in\n    tag_38:\n      0x20\n      mload(0x40)\n      dup1\n      dup4\n      sub\n      dup2\n      dup7\n      dup1\n      extcodesize\n      iszero\n      dup1\n      iszero\n      tag_40\n      jumpi\n      0x00\n      dup1\n      revert\n    tag_40:\n      pop\n      gas\n      staticcall\n      iszero\n      dup1\n      iszero\n      tag_42\n      jumpi\n      returndatasize\n      0x00\n      dup1\n      returndatacopy\n      revert(0x00, returndatasize)\n    tag_42:\n      pop\n      pop\n      pop\n      pop\n      mload(0x40)\n      returndatasize\n      not(0x1f)\n      0x1f\n      dup3\n      add\n      and\n      dup3\n      add\n      dup1\n      0x40\n      mstore\n      pop\n      dup2\n      add\n      swap1\n      tag_43\n      swap2\n      swap1\n      tag_44\n      jump\t// in\n    tag_43:\n        /* \"contracts/TimeERC721Storage.sol\":2650:2790  msg.sender ==... */\n      0xffffffffffffffffffffffffffffffffffffffff\n      and\n        /* \"contracts/TimeERC721Storage.sol\":2650:2660  msg.sender */\n      caller\n        /* \"contracts/TimeERC721Storage.sol\":2650:2790  msg.sender ==... */\n      0xffffffffffffffffffffffffffffffffffffffff\n      and\n      eq\n        /* \"contracts/TimeERC721Storage.sol\":2629:2826  require(... */\n      tag_45\n      jumpi\n      mload(0x40)\n      0x08c379a000000000000000000000000000000000000000000000000000000000\n      dup2\n      mstore\n      0x04\n      add\n      tag_46\n      swap1\n      tag_47\n      jump\t// in\n    tag_46:\n      mload(0x40)\n      dup1\n      swap2\n      sub\n      swap1\n      revert\n    tag_45:\n        /* \"contracts/TimeERC721Storage.sol\":2836:2856  string memory symbol */\n      0x00\n        /* \"contracts/TimeERC721Storage.sol\":2875:2885  msg.sender */\n      caller\n        /* \"contracts/TimeERC721Storage.sol\":2859:2893  IERC721Metadata(msg.sender).symbol */\n      0xffffffffffffffffffffffffffffffffffffffff\n      and\n      0x95d89b41\n        /* \"contracts/TimeERC721Storage.sol\":2859:2895  IERC721Metadata(msg.sender).symbol() */\n      mload(0x40)\n      dup2\n      0xffffffff\n      and\n      0xe0\n      shl\n      dup2\n      mstore\n      0x04\n      add\n      0x00\n      mload(0x40)\n      dup1\n      dup4\n      sub\n      dup2\n      dup7\n      dup1\n      extcodesize\n      iszero\n      dup1\n      iszero\n      tag_48\n      jumpi\n      0x00\n      dup1\n      revert\n    tag_48:\n      pop\n      gas\n      staticcall\n      iszero\n      dup1\n      iszero\n      tag_50\n      jumpi\n      returndatasize\n      0x00\n      dup1\n      returndatacopy\n      revert(0x00, returndatasize)\n    tag_50:\n      pop\n      pop\n      pop\n      pop\n      mload(0x40)\n      returndatasize\n      0x00\n      dup3\n      returndatacopy\n      returndatasize\n      not(0x1f)\n      0x1f\n      dup3\n      add\n      and\n      dup3\n      add\n      dup1\n      0x40\n      mstore\n      pop\n      dup2\n      add\n      swap1\n      tag_51\n      swap2\n      swap1\n      tag_52\n      jump\t// in\n    tag_51:\n        /* \"contracts/TimeERC721Storage.sol\":2836:2895  string memory symbol = IERC721Metadata(msg.sender).symbol() */\n      swap1\n      pop\n        /* \"contracts/TimeERC721Storage.sol\":2905:2930  string memory thisTradeId */\n      0x00\n        /* \"contracts/TimeERC721Storage.sol\":2931:2956  Strings.toString(tardeId) */\n      tag_53\n        /* \"contracts/TimeERC721Storage.sol\":2948:2955  tardeId */\n      dup8\n        /* \"contracts/TimeERC721Storage.sol\":2931:2947  Strings.toString */\n      tag_54\n        /* \"contracts/TimeERC721Storage.sol\":2931:2956  Strings.toString(tardeId) */\n      jump\t// in\n    tag_53:\n        /* \"contracts/TimeERC721Storage.sol\":2905:2956  string memory thisTradeId=Strings.toString(tardeId) */\n      swap1\n      pop\n        /* \"contracts/TimeERC721Storage.sol\":2966:2987  string memory nftType */\n      0x60\n        /* \"contracts/TimeERC721Storage.sol\":2997:3018  string memory bgColor */\n      dup1\n        /* \"contracts/TimeERC721Storage.sol\":3041:3042  0 */\n      0x00\n        /* \"contracts/TimeERC721Storage.sol\":3032:3037  state */\n      dup7\n        /* \"contracts/TimeERC721Storage.sol\":3032:3042  state == 0 */\n      eq\n        /* \"contracts/TimeERC721Storage.sol\":3028:3351  if (state == 0) {... */\n      iszero\n      tag_55\n      jumpi\n        /* \"contracts/TimeERC721Storage.sol\":3058:3075  nftType = \"buyer\" */\n      mload(0x40)\n      dup1\n      0x40\n      add\n      0x40\n      mstore\n      dup1\n      0x05\n      dup2\n      mstore\n      0x20\n      add\n      0x6275796572000000000000000000000000000000000000000000000000000000\n      dup2\n      mstore\n      pop\n      swap2\n      pop\n        /* \"contracts/TimeERC721Storage.sol\":3099:3107  bgColor1 */\n      0x04\n        /* \"contracts/TimeERC721Storage.sol\":3089:3107  bgColor = bgColor1 */\n      dup1\n      sload\n      tag_56\n      swap1\n      tag_57\n      jump\t// in\n    tag_56:\n      dup1\n      0x1f\n      add\n      0x20\n      dup1\n      swap2\n      div\n      mul\n      0x20\n      add\n      mload(0x40)\n      swap1\n      dup2\n      add\n      0x40\n      mstore\n      dup1\n      swap3\n      swap2\n      swap1\n      dup2\n      dup2\n      mstore\n      0x20\n      add\n      dup3\n      dup1\n      sload\n      tag_58\n      swap1\n      tag_57\n      jump\t// in\n    tag_58:\n      dup1\n      iszero\n      tag_59\n      jumpi\n      dup1\n      0x1f\n      lt\n      tag_60\n      jumpi\n      0x0100\n      dup1\n      dup4\n      sload\n      div\n      mul\n      dup4\n      mstore\n      swap2\n      0x20\n      add\n      swap2\n      jump(tag_59)\n    tag_60:\n      dup3\n      add\n      swap2\n      swap1\n      0x00\n      mstore\n      keccak256(0x00, 0x20)\n      swap1\n    tag_61:\n      dup2\n      sload\n      dup2\n      mstore\n      swap1\n      0x01\n      add\n      swap1\n      0x20\n      add\n      dup1\n      dup4\n      gt\n      tag_61\n      jumpi\n      dup3\n      swap1\n      sub\n      0x1f\n      and\n      dup3\n      add\n      swap2\n    tag_59:\n      pop\n      pop\n      pop\n      pop\n      pop\n      swap1\n      pop\n        /* \"contracts/TimeERC721Storage.sol\":3028:3351  if (state == 0) {... */\n      jump(tag_62)\n    tag_55:\n        /* \"contracts/TimeERC721Storage.sol\":3137:3138  1 */\n      0x01\n        /* \"contracts/TimeERC721Storage.sol\":3128:3133  state */\n      dup7\n        /* \"contracts/TimeERC721Storage.sol\":3128:3138  state == 1 */\n      eq\n        /* \"contracts/TimeERC721Storage.sol\":3124:3351  if (state == 1) {... */\n      iszero\n      tag_63\n      jumpi\n        /* \"contracts/TimeERC721Storage.sol\":3154:3172  nftType = \"seller\" */\n      mload(0x40)\n      dup1\n      0x40\n      add\n      0x40\n      mstore\n      dup1\n      0x06\n      dup2\n      mstore\n      0x20\n      add\n      0x73656c6c65720000000000000000000000000000000000000000000000000000\n      dup2\n      mstore\n      pop\n      swap2\n      pop\n        /* \"contracts/TimeERC721Storage.sol\":3196:3204  bgColor2 */\n      0x05\n        /* \"contracts/TimeERC721Storage.sol\":3186:3204  bgColor = bgColor2 */\n      dup1\n      sload\n      tag_64\n      swap1\n      tag_57\n      jump\t// in\n    tag_64:\n      dup1\n      0x1f\n      add\n      0x20\n      dup1\n      swap2\n      div\n      mul\n      0x20\n      add\n      mload(0x40)\n      swap1\n      dup2\n      add\n      0x40\n      mstore\n      dup1\n      swap3\n      swap2\n      swap1\n      dup2\n      dup2\n      mstore\n      0x20\n      add\n      dup3\n      dup1\n      sload\n      tag_65\n      swap1\n      tag_57\n      jump\t// in\n    tag_65:\n      dup1\n      iszero\n      tag_66\n      jumpi\n      dup1\n      0x1f\n      lt\n      tag_67\n      jumpi\n      0x0100\n      dup1\n      dup4\n      sload\n      div\n      mul\n      dup4\n      mstore\n      swap2\n      0x20\n      add\n      swap2\n      jump(tag_66)\n    tag_67:\n      dup3\n      add\n      swap2\n      swap1\n      0x00\n      mstore\n      keccak256(0x00, 0x20)\n      swap1\n    tag_68:\n      dup2\n      sload\n      dup2\n      mstore\n      swap1\n      0x01\n      add\n      swap1\n      0x20\n      add\n      dup1\n      dup4\n      gt\n      tag_68\n      jumpi\n      dup3\n      swap1\n      sub\n      0x1f\n      and\n      dup3\n      add\n      swap2\n    tag_66:\n      pop\n      pop\n      pop\n      pop\n      pop\n      swap1\n      pop\n        /* \"contracts/TimeERC721Storage.sol\":3124:3351  if (state == 1) {... */\n      jump(tag_69)\n    tag_63:\n        /* \"contracts/TimeERC721Storage.sol\":3234:3235  2 */\n      0x02\n        /* \"contracts/TimeERC721Storage.sol\":3225:3230  state */\n      dup7\n        /* \"contracts/TimeERC721Storage.sol\":3225:3235  state == 2 */\n      eq\n        /* \"contracts/TimeERC721Storage.sol\":3221:3351  if (state == 2) {... */\n      iszero\n      tag_70\n      jumpi\n        /* \"contracts/TimeERC721Storage.sol\":3251:3269  nftType = \"inject\" */\n      mload(0x40)\n      dup1\n      0x40\n      add\n      0x40\n      mstore\n      dup1\n      0x06\n      dup2\n      mstore\n      0x20\n      add\n      0x696e6a6563740000000000000000000000000000000000000000000000000000\n      dup2\n      mstore\n      pop\n      swap2\n      pop\n        /* \"contracts/TimeERC721Storage.sol\":3293:3301  bgColor3 */\n      0x06\n        /* \"contracts/TimeERC721Storage.sol\":3283:3301  bgColor = bgColor3 */\n      dup1\n      sload\n      tag_71\n      swap1\n      tag_57\n      jump\t// in\n    tag_71:\n      dup1\n      0x1f\n      add\n      0x20\n      dup1\n      swap2\n      div\n      mul\n      0x20\n      add\n      mload(0x40)\n      swap1\n      dup2\n      add\n      0x40\n      mstore\n      dup1\n      swap3\n      swap2\n      swap1\n      dup2\n      dup2\n      mstore\n      0x20\n      add\n      dup3\n      dup1\n      sload\n      tag_72\n      swap1\n      tag_57\n      jump\t// in\n    tag_72:\n      dup1\n      iszero\n      tag_73\n      jumpi\n      dup1\n      0x1f\n      lt\n      tag_74\n      jumpi\n      0x0100\n      dup1\n      dup4\n      sload\n      div\n      mul\n      dup4\n      mstore\n      swap2\n      0x20\n      add\n      swap2\n      jump(tag_73)\n    tag_74:\n      dup3\n      add\n      swap2\n      swap1\n      0x00\n      mstore\n      keccak256(0x00, 0x20)\n      swap1\n    tag_75:\n      dup2\n      sload\n      dup2\n      mstore\n      swap1\n      0x01\n      add\n      swap1\n      0x20\n      add\n      dup1\n      dup4\n      gt\n      tag_75\n      jumpi\n      dup3\n      swap1\n      sub\n      0x1f\n      and\n      dup3\n      add\n      swap2\n    tag_73:\n      pop\n      pop\n      pop\n      pop\n      pop\n      swap1\n      pop\n        /* \"contracts/TimeERC721Storage.sol\":3221:3351  if (state == 2) {... */\n      jump(tag_76)\n    tag_70:\n        /* \"contracts/TimeERC721Storage.sol\":3332:3340  revert() */\n      0x00\n      dup1\n      revert\n        /* \"contracts/TimeERC721Storage.sol\":3221:3351  if (state == 2) {... */\n    tag_76:\n        /* \"contracts/TimeERC721Storage.sol\":3124:3351  if (state == 1) {... */\n    tag_69:\n        /* \"contracts/TimeERC721Storage.sol\":3028:3351  if (state == 0) {... */\n    tag_62:\n        /* \"contracts/TimeERC721Storage.sol\":3360:3382  string memory finalSvg */\n      0x00\n        /* \"contracts/TimeERC721Storage.sol\":3439:3447  svgPart1 */\n      0x03\n        /* \"contracts/TimeERC721Storage.sol\":3465:3472  bgColor */\n      dup3\n        /* \"contracts/TimeERC721Storage.sol\":3490:3498  svgPart2 */\n      0x07\n        /* \"contracts/TimeERC721Storage.sol\":3516:3527  thisTradeId */\n      dup7\n        /* \"contracts/TimeERC721Storage.sol\":3545:3552  svgText */\n      0x0b\n        /* \"contracts/TimeERC721Storage.sol\":3570:3578  svgPart3 */\n      0x08\n        /* \"contracts/TimeERC721Storage.sol\":3596:3619  Strings.toString(value) */\n      tag_77\n        /* \"contracts/TimeERC721Storage.sol\":3613:3618  value */\n      dup15\n        /* \"contracts/TimeERC721Storage.sol\":3596:3612  Strings.toString */\n      tag_54\n        /* \"contracts/TimeERC721Storage.sol\":3596:3619  Strings.toString(value) */\n      jump\t// in\n    tag_77:\n        /* \"contracts/TimeERC721Storage.sol\":3637:3644  svgText */\n      0x0b\n        /* \"contracts/TimeERC721Storage.sol\":3662:3670  svgPart4 */\n      0x09\n        /* \"contracts/TimeERC721Storage.sol\":3688:3695  nftType */\n      dup12\n        /* \"contracts/TimeERC721Storage.sol\":3713:3721  svgPart5 */\n      0x0a\n        /* \"contracts/TimeERC721Storage.sol\":3405:3735  abi.encodePacked(... */\n      add(0x20, mload(0x40))\n      tag_78\n      swap12\n      swap11\n      swap10\n      swap9\n      swap8\n      swap7\n      swap6\n      swap5\n      swap4\n      swap3\n      swap2\n      swap1\n      tag_79\n      jump\t// in\n    tag_78:\n      mload(0x40)\n      0x20\n      dup2\n      dup4\n      sub\n      sub\n      dup2\n      mstore\n      swap1\n      0x40\n      mstore\n        /* \"contracts/TimeERC721Storage.sol\":3360:3745  string memory finalSvg = string(... */\n      swap1\n      pop\n        /* \"contracts/TimeERC721Storage.sol\":3755:3773  string memory json */\n      0x00\n        /* \"contracts/TimeERC721Storage.sol\":3776:4502  Base64.encode(... */\n      tag_80\n        /* \"contracts/TimeERC721Storage.sol\":3867:3873  symbol */\n      dup7\n        /* \"contracts/TimeERC721Storage.sol\":4009:4039  Base64.encode(bytes(finalSvg)) */\n      tag_81\n        /* \"contracts/TimeERC721Storage.sol\":4029:4037  finalSvg */\n      dup5\n        /* \"contracts/TimeERC721Storage.sol\":4009:4022  Base64.encode */\n      tag_82\n        /* \"contracts/TimeERC721Storage.sol\":4009:4039  Base64.encode(bytes(finalSvg)) */\n      jump\t// in\n    tag_81:\n        /* \"contracts/TimeERC721Storage.sol\":4091:4117  Strings.toString(marketId) */\n      tag_83\n        /* \"contracts/TimeERC721Storage.sol\":4108:4116  marketId */\n      dup16\n        /* \"contracts/TimeERC721Storage.sol\":4091:4107  Strings.toString */\n      tag_54\n        /* \"contracts/TimeERC721Storage.sol\":4091:4117  Strings.toString(marketId) */\n      jump\t// in\n    tag_83:\n        /* \"contracts/TimeERC721Storage.sol\":4168:4179  thisTradeId */\n      dup9\n        /* \"contracts/TimeERC721Storage.sol\":4228:4251  Strings.toString(nftId) */\n      tag_84\n        /* \"contracts/TimeERC721Storage.sol\":4245:4250  nftId */\n      dup16\n        /* \"contracts/TimeERC721Storage.sol\":4228:4244  Strings.toString */\n      tag_54\n        /* \"contracts/TimeERC721Storage.sol\":4228:4251  Strings.toString(nftId) */\n      jump\t// in\n    tag_84:\n        /* \"contracts/TimeERC721Storage.sol\":4300:4323  Strings.toString(value) */\n      tag_85\n        /* \"contracts/TimeERC721Storage.sol\":4317:4322  value */\n      dup16\n        /* \"contracts/TimeERC721Storage.sol\":4300:4316  Strings.toString */\n      tag_54\n        /* \"contracts/TimeERC721Storage.sol\":4300:4323  Strings.toString(value) */\n      jump\t// in\n    tag_85:\n        /* \"contracts/TimeERC721Storage.sol\":4374:4381  nftType */\n      dup11\n        /* \"contracts/TimeERC721Storage.sol\":4430:4456  Strings.toHexString(token) */\n      tag_86\n        /* \"contracts/TimeERC721Storage.sol\":4450:4455  token */\n      dup16\n        /* \"contracts/TimeERC721Storage.sol\":4430:4449  Strings.toHexString */\n      tag_87\n        /* \"contracts/TimeERC721Storage.sol\":4430:4456  Strings.toHexString(token) */\n      jump\t// in\n    tag_86:\n        /* \"contracts/TimeERC721Storage.sol\":3803:4492  abi.encodePacked(... */\n      add(0x20, mload(0x40))\n      tag_88\n      swap9\n      swap8\n      swap7\n      swap6\n      swap5\n      swap4\n      swap3\n      swap2\n      swap1\n      tag_89\n      jump\t// in\n    tag_88:\n      mload(0x40)\n      0x20\n      dup2\n      dup4\n      sub\n      sub\n      dup2\n      mstore\n      swap1\n      0x40\n      mstore\n        /* \"contracts/TimeERC721Storage.sol\":3776:3789  Base64.encode */\n      tag_82\n        /* \"contracts/TimeERC721Storage.sol\":3776:4502  Base64.encode(... */\n      jump\t// in\n    tag_80:\n        /* \"contracts/TimeERC721Storage.sol\":3755:4502  string memory json = Base64.encode(... */\n      swap1\n      pop\n        /* \"contracts/TimeERC721Storage.sol\":4512:4539  string memory finalTokenUri */\n      0x00\n        /* \"contracts/TimeERC721Storage.sol\":4612:4616  json */\n      dup2\n        /* \"contracts/TimeERC721Storage.sol\":4562:4617  abi.encodePacked(\"data:application/json;base64,\", json) */\n      add(0x20, mload(0x40))\n      tag_90\n      swap2\n      swap1\n      tag_91\n      jump\t// in\n    tag_90:\n      mload(0x40)\n      0x20\n      dup2\n      dup4\n      sub\n      sub\n      dup2\n      mstore\n      swap1\n      0x40\n      mstore\n        /* \"contracts/TimeERC721Storage.sol\":4512:4627  string memory finalTokenUri = string(... */\n      swap1\n      pop\n        /* \"contracts/TimeERC721Storage.sol\":4677:4690  finalTokenUri */\n      dup1\n        /* \"contracts/TimeERC721Storage.sol\":4637:4655  timeERC721TokenUri */\n      0x02\n        /* \"contracts/TimeERC721Storage.sol\":4637:4667  timeERC721TokenUri[msg.sender] */\n      0x00\n        /* \"contracts/TimeERC721Storage.sol\":4656:4666  msg.sender */\n      caller\n        /* \"contracts/TimeERC721Storage.sol\":4637:4667  timeERC721TokenUri[msg.sender] */\n      0xffffffffffffffffffffffffffffffffffffffff\n      and\n      0xffffffffffffffffffffffffffffffffffffffff\n      and\n      dup2\n      mstore\n      0x20\n      add\n      swap1\n      dup2\n      mstore\n      0x20\n      add\n      0x00\n      keccak256\n        /* \"contracts/TimeERC721Storage.sol\":4637:4674  timeERC721TokenUri[msg.sender][nftId] */\n      0x00\n        /* \"contracts/TimeERC721Storage.sol\":4668:4673  nftId */\n      dup14\n        /* \"contracts/TimeERC721Storage.sol\":4637:4674  timeERC721TokenUri[msg.sender][nftId] */\n      dup2\n      mstore\n      0x20\n      add\n      swap1\n      dup2\n      mstore\n      0x20\n      add\n      0x00\n      keccak256\n        /* \"contracts/TimeERC721Storage.sol\":4637:4690  timeERC721TokenUri[msg.sender][nftId] = finalTokenUri */\n      swap1\n      dup1\n      mload\n      swap1\n      0x20\n      add\n      swap1\n      tag_92\n      swap3\n      swap2\n      swap1\n      tag_93\n      jump\t// in\n    tag_92:\n      pop\n        /* \"contracts/TimeERC721Storage.sol\":4716:4726  msg.sender */\n      caller\n        /* \"contracts/TimeERC721Storage.sol\":4705:4766  storageNft(msg.sender, tardeId, nftId, value, token, nftType) */\n      0xffffffffffffffffffffffffffffffffffffffff\n      and\n      0x2143b158f321db6c4f6e14cd6cb53bb4fa16fdb16808bb5863c802db705de227\n        /* \"contracts/TimeERC721Storage.sol\":4728:4735  tardeId */\n      dup14\n        /* \"contracts/TimeERC721Storage.sol\":4737:4742  nftId */\n      dup14\n        /* \"contracts/TimeERC721Storage.sol\":4744:4749  value */\n      dup14\n        /* \"contracts/TimeERC721Storage.sol\":4751:4756  token */\n      dup13\n        /* \"contracts/TimeERC721Storage.sol\":4758:4765  nftType */\n      dup11\n        /* \"contracts/TimeERC721Storage.sol\":4705:4766  storageNft(msg.sender, tardeId, nftId, value, token, nftType) */\n      mload(0x40)\n      tag_94\n      swap6\n      swap5\n      swap4\n      swap3\n      swap2\n      swap1\n      tag_95\n      jump\t// in\n    tag_94:\n      mload(0x40)\n      dup1\n      swap2\n      sub\n      swap1\n      log2\n        /* \"contracts/TimeERC721Storage.sol\":2619:4773  {... */\n      pop\n      pop\n      pop\n      pop\n      pop\n      pop\n      pop\n        /* \"contracts/TimeERC721Storage.sol\":2439:4773  function storageImage(... */\n      pop\n      pop\n      pop\n      pop\n      pop\n      pop\n      jump\t// out\n        /* \"contracts/Ownable.sol\":1877:1980  function renounceOwnership() public virtual onlyOwner {... */\n    tag_20:\n        /* \"contracts/Ownable.sol\":1122:1135  _checkOwner() */\n      tag_97\n        /* \"contracts/Ownable.sol\":1122:1133  _checkOwner */\n      tag_98\n        /* \"contracts/Ownable.sol\":1122:1135  _checkOwner() */\n      jump\t// in\n    tag_97:\n        /* \"contracts/Ownable.sol\":1942:1972  _transferOwnership(address(0)) */\n      tag_100\n        /* \"contracts/Ownable.sol\":1969:1970  0 */\n      0x00\n        /* \"contracts/Ownable.sol\":1942:1960  _transferOwnership */\n      tag_101\n        /* \"contracts/Ownable.sol\":1942:1972  _transferOwnership(address(0)) */\n      jump\t// in\n    tag_100:\n        /* \"contracts/Ownable.sol\":1877:1980  function renounceOwnership() public virtual onlyOwner {... */\n      jump\t// out\n        /* \"contracts/Ownable.sol\":1236:1323  function owner() public view virtual returns (address) {... */\n    tag_22:\n        /* \"contracts/Ownable.sol\":1282:1289  address */\n      0x00\n        /* \"contracts/Ownable.sol\":1309:1315  _owner */\n      dup1\n      0x00\n      swap1\n      sload\n      swap1\n      0x0100\n      exp\n      swap1\n      div\n      0xffffffffffffffffffffffffffffffffffffffff\n      and\n        /* \"contracts/Ownable.sol\":1302:1315  return _owner */\n      swap1\n      pop\n        /* \"contracts/Ownable.sol\":1236:1323  function owner() public view virtual returns (address) {... */\n      swap1\n      jump\t// out\n        /* \"contracts/TimeERC721Storage.sol\":377:514  function initialize(address _timeCapitalPoolFactory) external onlyOwner {... */\n    tag_27:\n        /* \"contracts/Ownable.sol\":1122:1135  _checkOwner() */\n      tag_104\n        /* \"contracts/Ownable.sol\":1122:1133  _checkOwner */\n      tag_98\n        /* \"contracts/Ownable.sol\":1122:1135  _checkOwner() */\n      jump\t// in\n    tag_104:\n        /* \"contracts/TimeERC721Storage.sol\":484:507  _timeCapitalPoolFactory */\n      dup1\n        /* \"contracts/TimeERC721Storage.sol\":459:481  timeCapitalPoolFactory */\n      0x01\n      0x00\n        /* \"contracts/TimeERC721Storage.sol\":459:507  timeCapitalPoolFactory = _timeCapitalPoolFactory */\n      0x0100\n      exp\n      dup2\n      sload\n      dup2\n      0xffffffffffffffffffffffffffffffffffffffff\n      mul\n      not\n      and\n      swap1\n      dup4\n      0xffffffffffffffffffffffffffffffffffffffff\n      and\n      mul\n      or\n      swap1\n      sstore\n      pop\n        /* \"contracts/TimeERC721Storage.sol\":377:514  function initialize(address _timeCapitalPoolFactory) external onlyOwner {... */\n      pop\n      jump\t// out\n        /* \"contracts/Ownable.sol\":2135:2336  function transferOwnership(address newOwner) public virtual onlyOwner {... */\n    tag_30:\n        /* \"contracts/Ownable.sol\":1122:1135  _checkOwner() */\n      tag_107\n        /* \"contracts/Ownable.sol\":1122:1133  _checkOwner */\n      tag_98\n        /* \"contracts/Ownable.sol\":1122:1135  _checkOwner() */\n      jump\t// in\n    tag_107:\n        /* \"contracts/Ownable.sol\":2244:2245  0 */\n      0x00\n        /* \"contracts/Ownable.sol\":2224:2246  newOwner != address(0) */\n      0xffffffffffffffffffffffffffffffffffffffff\n      and\n        /* \"contracts/Ownable.sol\":2224:2232  newOwner */\n      dup2\n        /* \"contracts/Ownable.sol\":2224:2246  newOwner != address(0) */\n      0xffffffffffffffffffffffffffffffffffffffff\n      and\n      eq\n      iszero\n        /* \"contracts/Ownable.sol\":2216:2289  require(newOwner != address(0), \"Ownable: new owner is the zero address\") */\n      tag_109\n      jumpi\n      mload(0x40)\n      0x08c379a000000000000000000000000000000000000000000000000000000000\n      dup2\n      mstore\n      0x04\n      add\n      tag_110\n      swap1\n      tag_111\n      jump\t// in\n    tag_110:\n      mload(0x40)\n      dup1\n      swap2\n      sub\n      swap1\n      revert\n    tag_109:\n        /* \"contracts/Ownable.sol\":2300:2328  _transferOwnership(newOwner) */\n      tag_112\n        /* \"contracts/Ownable.sol\":2319:2327  newOwner */\n      dup2\n        /* \"contracts/Ownable.sol\":2300:2318  _transferOwnership */\n      tag_101\n        /* \"contracts/Ownable.sol\":2300:2328  _transferOwnership(newOwner) */\n      jump\t// in\n    tag_112:\n        /* \"contracts/Ownable.sol\":2135:2336  function transferOwnership(address newOwner) public virtual onlyOwner {... */\n      pop\n      jump\t// out\n        /* \"contracts/TimeERC721Storage.sol\":4795:4996  function getTokenUri(address capitalPoolAddress, uint256 _nftId)... */\n    tag_34:\n        /* \"contracts/TimeERC721Storage.sol\":4907:4920  string memory */\n      0x60\n        /* \"contracts/TimeERC721Storage.sol\":4943:4961  timeERC721TokenUri */\n      0x02\n        /* \"contracts/TimeERC721Storage.sol\":4943:4981  timeERC721TokenUri[capitalPoolAddress] */\n      0x00\n        /* \"contracts/TimeERC721Storage.sol\":4962:4980  capitalPoolAddress */\n      dup5\n        /* \"contracts/TimeERC721Storage.sol\":4943:4981  timeERC721TokenUri[capitalPoolAddress] */\n      0xffffffffffffffffffffffffffffffffffffffff\n      and\n      0xffffffffffffffffffffffffffffffffffffffff\n      and\n      dup2\n      mstore\n      0x20\n      add\n      swap1\n      dup2\n      mstore\n      0x20\n      add\n      0x00\n      keccak256\n        /* \"contracts/TimeERC721Storage.sol\":4943:4989  timeERC721TokenUri[capitalPoolAddress][_nftId] */\n      0x00\n        /* \"contracts/TimeERC721Storage.sol\":4982:4988  _nftId */\n      dup4\n        /* \"contracts/TimeERC721Storage.sol\":4943:4989  timeERC721TokenUri[capitalPoolAddress][_nftId] */\n      dup2\n      mstore\n      0x20\n      add\n      swap1\n      dup2\n      mstore\n      0x20\n      add\n      0x00\n      keccak256\n        /* \"contracts/TimeERC721Storage.sol\":4936:4989  return timeERC721TokenUri[capitalPoolAddress][_nftId] */\n      dup1\n      sload\n      tag_114\n      swap1\n      tag_57\n      jump\t// in\n    tag_114:\n      dup1\n      0x1f\n      add\n      0x20\n      dup1\n      swap2\n      div\n      mul\n      0x20\n      add\n      mload(0x40)\n      swap1\n      dup2\n      add\n      0x40\n      mstore\n      dup1\n      swap3\n      swap2\n      swap1\n      dup2\n      dup2\n      mstore\n      0x20\n      add\n      dup3\n      dup1\n      sload\n      tag_115\n      swap1\n      tag_57\n      jump\t// in\n    tag_115:\n      dup1\n      iszero\n      tag_116\n      jumpi\n      dup1\n      0x1f\n      lt\n      tag_117\n      jumpi\n      0x0100\n      dup1\n      dup4\n      sload\n      div\n      mul\n      dup4\n      mstore\n      swap2\n      0x20\n      add\n      swap2\n      jump(tag_116)\n    tag_117:\n      dup3\n      add\n      swap2\n      swap1\n      0x00\n      mstore\n      keccak256(0x00, 0x20)\n      swap1\n    tag_118:\n      dup2\n      sload\n      dup2\n      mstore\n      swap1\n      0x01\n      add\n      swap1\n      0x20\n      add\n      dup1\n      dup4\n      gt\n      tag_118\n      jumpi\n      dup3\n      swap1\n      sub\n      0x1f\n      and\n      dup3\n      add\n      swap2\n    tag_116:\n      pop\n      pop\n      pop\n      pop\n      pop\n      swap1\n      pop\n        /* \"contracts/TimeERC721Storage.sol\":4795:4996  function getTokenUri(address capitalPoolAddress, uint256 _nftId)... */\n      swap3\n      swap2\n      pop\n      pop\n      jump\t// out\n        /* \"libraries/Strings.sol\":455:1171  function toString(uint256 value) internal pure returns (string memory) {... */\n    tag_54:\n        /* \"libraries/Strings.sol\":511:524  string memory */\n      0x60\n        /* \"libraries/Strings.sol\":562:576  uint256 length */\n      0x00\n        /* \"libraries/Strings.sol\":599:600  1 */\n      0x01\n        /* \"libraries/Strings.sol\":579:596  Math.log10(value) */\n      tag_120\n        /* \"libraries/Strings.sol\":590:595  value */\n      dup5\n        /* \"libraries/Strings.sol\":579:589  Math.log10 */\n      tag_121\n        /* \"libraries/Strings.sol\":579:596  Math.log10(value) */\n      jump\t// in\n    tag_120:\n        /* \"libraries/Strings.sol\":579:600  Math.log10(value) + 1 */\n      add\n        /* \"libraries/Strings.sol\":562:600  uint256 length = Math.log10(value) + 1 */\n      swap1\n      pop\n        /* \"libraries/Strings.sol\":615:635  string memory buffer */\n      0x00\n        /* \"libraries/Strings.sol\":649:655  length */\n      dup2\n        /* \"libraries/Strings.sol\":638:656  new string(length) */\n      0xffffffffffffffff\n      dup2\n      gt\n      iszero\n      tag_122\n      jumpi\n      tag_123\n      tag_124\n      jump\t// in\n    tag_123:\n    tag_122:\n      mload(0x40)\n      swap1\n      dup1\n      dup3\n      mstore\n      dup1\n      0x1f\n      add\n      not(0x1f)\n      and\n      0x20\n      add\n      dup3\n      add\n      0x40\n      mstore\n      dup1\n      iszero\n      tag_125\n      jumpi\n      dup2\n      0x20\n      add\n      0x01\n      dup3\n      mul\n      dup1\n      calldatasize\n      dup4\n      calldatacopy\n      dup1\n      dup3\n      add\n      swap2\n      pop\n      pop\n      swap1\n      pop\n    tag_125:\n      pop\n        /* \"libraries/Strings.sol\":615:656  string memory buffer = new string(length) */\n      swap1\n      pop\n        /* \"libraries/Strings.sol\":671:682  uint256 ptr */\n      0x00\n        /* \"libraries/Strings.sol\":800:806  length */\n      dup3\n        /* \"libraries/Strings.sol\":796:798  32 */\n      0x20\n        /* \"libraries/Strings.sol\":792:807  add(32, length) */\n      add\n        /* \"libraries/Strings.sol\":784:790  buffer */\n      dup3\n        /* \"libraries/Strings.sol\":780:808  add(buffer, add(32, length)) */\n      add\n        /* \"libraries/Strings.sol\":773:808  ptr := add(buffer, add(32, length)) */\n      swap1\n      pop\n        /* \"libraries/Strings.sol\":837:1125  while (true) {... */\n    tag_126:\n        /* \"libraries/Strings.sol\":844:848  true */\n      0x01\n        /* \"libraries/Strings.sol\":837:1125  while (true) {... */\n      iszero\n      tag_127\n      jumpi\n        /* \"libraries/Strings.sol\":869:874  ptr-- */\n      dup1\n      dup1\n      0x01\n      swap1\n      sub\n      swap2\n      pop\n      pop\n        /* \"libraries/Strings.sol\":1011:1019  _SYMBOLS */\n      0x3031323334353637383961626364656600000000000000000000000000000000\n        /* \"libraries/Strings.sol\":1006:1008  10 */\n      0x0a\n        /* \"libraries/Strings.sol\":999:1004  value */\n      dup7\n        /* \"libraries/Strings.sol\":995:1009  mod(value, 10) */\n      mod\n        /* \"libraries/Strings.sol\":990:1020  byte(mod(value, 10), _SYMBOLS) */\n      byte\n        /* \"libraries/Strings.sol\":985:988  ptr */\n      dup2\n        /* \"libraries/Strings.sol\":977:1021  mstore8(ptr, byte(mod(value, 10), _SYMBOLS)) */\n      mstore8\n        /* \"libraries/Strings.sol\":1067:1069  10 */\n      0x0a\n        /* \"libraries/Strings.sol\":1058:1069  value /= 10 */\n      dup6\n      dup2\n      tag_128\n      jumpi\n      tag_129\n      tag_130\n      jump\t// in\n    tag_129:\n    tag_128:\n      div\n      swap5\n      pop\n        /* \"libraries/Strings.sol\":1101:1102  0 */\n      0x00\n        /* \"libraries/Strings.sol\":1092:1097  value */\n      dup6\n        /* \"libraries/Strings.sol\":1092:1102  value == 0 */\n      eq\n        /* \"libraries/Strings.sol\":1088:1109  if (value == 0) break */\n      iszero\n      tag_131\n      jumpi\n        /* \"libraries/Strings.sol\":1104:1109  break */\n      jump(tag_127)\n        /* \"libraries/Strings.sol\":1088:1109  if (value == 0) break */\n    tag_131:\n        /* \"libraries/Strings.sol\":837:1125  while (true) {... */\n      jump(tag_126)\n    tag_127:\n        /* \"libraries/Strings.sol\":1146:1152  buffer */\n      dup2\n        /* \"libraries/Strings.sol\":1139:1152  return buffer */\n      swap4\n      pop\n      pop\n      pop\n      pop\n        /* \"libraries/Strings.sol\":455:1171  function toString(uint256 value) internal pure returns (string memory) {... */\n      swap2\n      swap1\n      pop\n      jump\t// out\n        /* \"libraries/Base64.sol\":524:3986  function encode(bytes memory data) internal pure returns (string memory) {... */\n    tag_82:\n        /* \"libraries/Base64.sol\":582:595  string memory */\n      0x60\n        /* \"libraries/Base64.sol\":834:835  0 */\n      0x00\n        /* \"libraries/Base64.sol\":819:823  data */\n      dup3\n        /* \"libraries/Base64.sol\":819:830  data.length */\n      mload\n        /* \"libraries/Base64.sol\":819:835  data.length == 0 */\n      eq\n        /* \"libraries/Base64.sol\":815:846  if (data.length == 0) return \"\" */\n      iszero\n      tag_133\n      jumpi\n        /* \"libraries/Base64.sol\":837:846  return \"\" */\n      mload(0x40)\n      dup1\n      0x20\n      add\n      0x40\n      mstore\n      dup1\n      0x00\n      dup2\n      mstore\n      pop\n      swap1\n      pop\n      jump(tag_132)\n        /* \"libraries/Base64.sol\":815:846  if (data.length == 0) return \"\" */\n    tag_133:\n        /* \"libraries/Base64.sol\":899:918  string memory table */\n      0x00\n        /* \"libraries/Base64.sol\":921:927  _TABLE */\n      mload(0x40)\n      dup1\n      0x60\n      add\n      0x40\n      mstore\n      dup1\n      0x40\n      dup2\n      mstore\n      0x20\n      add\n      data_84d8a590de33e00cbdc16e1f28c3506f5ec15c599fab9a6a4bcd575cc2f110ce\n      0x40\n      swap2\n      codecopy\n        /* \"libraries/Base64.sol\":899:927  string memory table = _TABLE */\n      swap1\n      pop\n        /* \"libraries/Base64.sol\":1338:1358  string memory result */\n      0x00\n        /* \"libraries/Base64.sol\":1397:1398  3 */\n      0x03\n        /* \"libraries/Base64.sol\":1392:1393  2 */\n      0x02\n        /* \"libraries/Base64.sol\":1378:1382  data */\n      dup6\n        /* \"libraries/Base64.sol\":1378:1389  data.length */\n      mload\n        /* \"libraries/Base64.sol\":1378:1393  data.length + 2 */\n      tag_134\n      swap2\n      swap1\n      tag_135\n      jump\t// in\n    tag_134:\n        /* \"libraries/Base64.sol\":1377:1398  (data.length + 2) / 3 */\n      tag_136\n      swap2\n      swap1\n      tag_137\n      jump\t// in\n    tag_136:\n        /* \"libraries/Base64.sol\":1372:1373  4 */\n      0x04\n        /* \"libraries/Base64.sol\":1372:1399  4 * ((data.length + 2) / 3) */\n      tag_138\n      swap2\n      swap1\n      tag_139\n      jump\t// in\n    tag_138:\n        /* \"libraries/Base64.sol\":1361:1400  new string(4 * ((data.length + 2) / 3)) */\n      0xffffffffffffffff\n      dup2\n      gt\n      iszero\n      tag_140\n      jumpi\n      tag_141\n      tag_124\n      jump\t// in\n    tag_141:\n    tag_140:\n      mload(0x40)\n      swap1\n      dup1\n      dup3\n      mstore\n      dup1\n      0x1f\n      add\n      not(0x1f)\n      and\n      0x20\n      add\n      dup3\n      add\n      0x40\n      mstore\n      dup1\n      iszero\n      tag_142\n      jumpi\n      dup2\n      0x20\n      add\n      0x01\n      dup3\n      mul\n      dup1\n      calldatasize\n      dup4\n      calldatacopy\n      dup1\n      dup3\n      add\n      swap2\n      pop\n      pop\n      swap1\n      pop\n    tag_142:\n      pop\n        /* \"libraries/Base64.sol\":1338:1400  string memory result = new string(4 * ((data.length + 2) / 3)) */\n      swap1\n      pop\n        /* \"libraries/Base64.sol\":1580:1581  1 */\n      0x01\n        /* \"libraries/Base64.sol\":1573:1578  table */\n      dup3\n        /* \"libraries/Base64.sol\":1569:1582  add(table, 1) */\n      add\n        /* \"libraries/Base64.sol\":1684:1688  0x20 */\n      0x20\n        /* \"libraries/Base64.sol\":1676:1682  result */\n      dup3\n        /* \"libraries/Base64.sol\":1672:1689  add(result, 0x20) */\n      add\n        /* \"libraries/Base64.sol\":1718:1722  data */\n      dup6\n        /* \"libraries/Base64.sol\":1766:1770  data */\n      dup7\n        /* \"libraries/Base64.sol\":1760:1771  mload(data) */\n      mload\n        /* \"libraries/Base64.sol\":1754:1758  data */\n      dup8\n        /* \"libraries/Base64.sol\":1750:1772  add(data, mload(data)) */\n      add\n        /* \"libraries/Base64.sol\":2018:2022  0x20 */\n      0x20\n        /* \"libraries/Base64.sol\":2010:2016  endPtr */\n      dup2\n        /* \"libraries/Base64.sol\":2006:2023  add(endPtr, 0x20) */\n      add\n        /* \"libraries/Base64.sol\":2061:2069  afterPtr */\n      dup1\n        /* \"libraries/Base64.sol\":2055:2070  mload(afterPtr) */\n      mload\n        /* \"libraries/Base64.sol\":2101:2105  0x00 */\n      0x00\n        /* \"libraries/Base64.sol\":2091:2099  afterPtr */\n      dup3\n        /* \"libraries/Base64.sol\":2084:2106  mstore(afterPtr, 0x00) */\n      mstore\n        /* \"libraries/Base64.sol\":2176:3462  for {... */\n    tag_143:\n        /* \"libraries/Base64.sol\":2211:2217  endPtr */\n      dup3\n        /* \"libraries/Base64.sol\":2202:2209  dataPtr */\n      dup5\n        /* \"libraries/Base64.sol\":2199:2218  lt(dataPtr, endPtr) */\n      lt\n        /* \"libraries/Base64.sol\":2176:3462  for {... */\n      iszero\n      tag_145\n      jumpi\n        /* \"libraries/Base64.sol\":2317:2318  3 */\n      0x03\n        /* \"libraries/Base64.sol\":2308:2315  dataPtr */\n      dup5\n        /* \"libraries/Base64.sol\":2304:2319  add(dataPtr, 3) */\n      add\n        /* \"libraries/Base64.sol\":2293:2319  dataPtr := add(dataPtr, 3) */\n      swap4\n      pop\n        /* \"libraries/Base64.sol\":2356:2363  dataPtr */\n      dup4\n        /* \"libraries/Base64.sol\":2350:2364  mload(dataPtr) */\n      mload\n        /* \"libraries/Base64.sol\":2952:2956  0x3F */\n      0x3f\n        /* \"libraries/Base64.sol\":2944:2949  input */\n      dup2\n        /* \"libraries/Base64.sol\":2940:2942  18 */\n      0x12\n        /* \"libraries/Base64.sol\":2936:2950  shr(18, input) */\n      shr\n        /* \"libraries/Base64.sol\":2932:2957  and(shr(18, input), 0x3F) */\n      and\n        /* \"libraries/Base64.sol\":2922:2930  tablePtr */\n      dup8\n        /* \"libraries/Base64.sol\":2918:2958  add(tablePtr, and(shr(18, input), 0x3F)) */\n      add\n        /* \"libraries/Base64.sol\":2912:2959  mload(add(tablePtr, and(shr(18, input), 0x3F))) */\n      mload\n        /* \"libraries/Base64.sol\":2901:2910  resultPtr */\n      dup7\n        /* \"libraries/Base64.sol\":2893:2960  mstore8(resultPtr, mload(add(tablePtr, and(shr(18, input), 0x3F)))) */\n      mstore8\n        /* \"libraries/Base64.sol\":3006:3007  1 */\n      0x01\n        /* \"libraries/Base64.sol\":2995:3004  resultPtr */\n      dup7\n        /* \"libraries/Base64.sol\":2991:3008  add(resultPtr, 1) */\n      add\n        /* \"libraries/Base64.sol\":2978:3008  resultPtr := add(resultPtr, 1) */\n      swap6\n      pop\n        /* \"libraries/Base64.sol\":3098:3102  0x3F */\n      0x3f\n        /* \"libraries/Base64.sol\":3090:3095  input */\n      dup2\n        /* \"libraries/Base64.sol\":3086:3088  12 */\n      0x0c\n        /* \"libraries/Base64.sol\":3082:3096  shr(12, input) */\n      shr\n        /* \"libraries/Base64.sol\":3078:3103  and(shr(12, input), 0x3F) */\n      and\n        /* \"libraries/Base64.sol\":3068:3076  tablePtr */\n      dup8\n        /* \"libraries/Base64.sol\":3064:3104  add(tablePtr, and(shr(12, input), 0x3F)) */\n      add\n        /* \"libraries/Base64.sol\":3058:3105  mload(add(tablePtr, and(shr(12, input), 0x3F))) */\n      mload\n        /* \"libraries/Base64.sol\":3047:3056  resultPtr */\n      dup7\n        /* \"libraries/Base64.sol\":3039:3106  mstore8(resultPtr, mload(add(tablePtr, and(shr(12, input), 0x3F)))) */\n      mstore8\n        /* \"libraries/Base64.sol\":3152:3153  1 */\n      0x01\n        /* \"libraries/Base64.sol\":3141:3150  resultPtr */\n      dup7\n        /* \"libraries/Base64.sol\":3137:3154  add(resultPtr, 1) */\n      add\n        /* \"libraries/Base64.sol\":3124:3154  resultPtr := add(resultPtr, 1) */\n      swap6\n      pop\n        /* \"libraries/Base64.sol\":3243:3247  0x3F */\n      0x3f\n        /* \"libraries/Base64.sol\":3235:3240  input */\n      dup2\n        /* \"libraries/Base64.sol\":3232:3233  6 */\n      0x06\n        /* \"libraries/Base64.sol\":3228:3241  shr(6, input) */\n      shr\n        /* \"libraries/Base64.sol\":3224:3248  and(shr(6, input), 0x3F) */\n      and\n        /* \"libraries/Base64.sol\":3214:3222  tablePtr */\n      dup8\n        /* \"libraries/Base64.sol\":3210:3249  add(tablePtr, and(shr(6, input), 0x3F)) */\n      add\n        /* \"libraries/Base64.sol\":3204:3250  mload(add(tablePtr, and(shr(6, input), 0x3F))) */\n      mload\n        /* \"libraries/Base64.sol\":3193:3202  resultPtr */\n      dup7\n        /* \"libraries/Base64.sol\":3185:3251  mstore8(resultPtr, mload(add(tablePtr, and(shr(6, input), 0x3F)))) */\n      mstore8\n        /* \"libraries/Base64.sol\":3297:3298  1 */\n      0x01\n        /* \"libraries/Base64.sol\":3286:3295  resultPtr */\n      dup7\n        /* \"libraries/Base64.sol\":3282:3299  add(resultPtr, 1) */\n      add\n        /* \"libraries/Base64.sol\":3269:3299  resultPtr := add(resultPtr, 1) */\n      swap6\n      pop\n        /* \"libraries/Base64.sol\":3380:3384  0x3F */\n      0x3f\n        /* \"libraries/Base64.sol\":3373:3378  input */\n      dup2\n        /* \"libraries/Base64.sol\":3369:3385  and(input, 0x3F) */\n      and\n        /* \"libraries/Base64.sol\":3359:3367  tablePtr */\n      dup8\n        /* \"libraries/Base64.sol\":3355:3386  add(tablePtr, and(input, 0x3F)) */\n      add\n        /* \"libraries/Base64.sol\":3349:3387  mload(add(tablePtr, and(input, 0x3F))) */\n      mload\n        /* \"libraries/Base64.sol\":3338:3347  resultPtr */\n      dup7\n        /* \"libraries/Base64.sol\":3330:3388  mstore8(resultPtr, mload(add(tablePtr, and(input, 0x3F)))) */\n      mstore8\n        /* \"libraries/Base64.sol\":3434:3435  1 */\n      0x01\n        /* \"libraries/Base64.sol\":3423:3432  resultPtr */\n      dup7\n        /* \"libraries/Base64.sol\":3419:3436  add(resultPtr, 1) */\n      add\n        /* \"libraries/Base64.sol\":3406:3436  resultPtr := add(resultPtr, 1) */\n      swap6\n      pop\n        /* \"libraries/Base64.sol\":2238:3462  {... */\n      pop\n        /* \"libraries/Base64.sol\":2176:3462  for {... */\n      jump(tag_143)\n    tag_145:\n        /* \"libraries/Base64.sol\":3543:3553  afterCache */\n      dup1\n        /* \"libraries/Base64.sol\":3533:3541  afterPtr */\n      dup3\n        /* \"libraries/Base64.sol\":3526:3554  mstore(afterPtr, afterCache) */\n      mstore\n        /* \"libraries/Base64.sol\":3716:3717  3 */\n      0x03\n        /* \"libraries/Base64.sol\":3709:3713  data */\n      dup11\n        /* \"libraries/Base64.sol\":3703:3714  mload(data) */\n      mload\n        /* \"libraries/Base64.sol\":3699:3718  mod(mload(data), 3) */\n      mod\n        /* \"libraries/Base64.sol\":3737:3738  1 */\n      0x01\n        /* \"libraries/Base64.sol\":3732:3855  case 1 {... */\n      dup2\n      eq\n      tag_147\n      jumpi\n        /* \"libraries/Base64.sol\":3874:3875  2 */\n      0x02\n        /* \"libraries/Base64.sol\":3869:3942  case 2 {... */\n      dup2\n      eq\n      tag_148\n      jumpi\n        /* \"libraries/Base64.sol\":3692:3942  switch mod(mload(data), 3)... */\n      jump(tag_146)\n        /* \"libraries/Base64.sol\":3732:3855  case 1 {... */\n    tag_147:\n        /* \"libraries/Base64.sol\":3785:3789  0x3d */\n      0x3d\n        /* \"libraries/Base64.sol\":3781:3782  1 */\n      0x01\n        /* \"libraries/Base64.sol\":3770:3779  resultPtr */\n      dup8\n        /* \"libraries/Base64.sol\":3766:3783  sub(resultPtr, 1) */\n      sub\n        /* \"libraries/Base64.sol\":3758:3790  mstore8(sub(resultPtr, 1), 0x3d) */\n      mstore8\n        /* \"libraries/Base64.sol\":3835:3839  0x3d */\n      0x3d\n        /* \"libraries/Base64.sol\":3831:3832  2 */\n      0x02\n        /* \"libraries/Base64.sol\":3820:3829  resultPtr */\n      dup8\n        /* \"libraries/Base64.sol\":3816:3833  sub(resultPtr, 2) */\n      sub\n        /* \"libraries/Base64.sol\":3808:3840  mstore8(sub(resultPtr, 2), 0x3d) */\n      mstore8\n        /* \"libraries/Base64.sol\":3732:3855  case 1 {... */\n      jump(tag_146)\n        /* \"libraries/Base64.sol\":3869:3942  case 2 {... */\n    tag_148:\n        /* \"libraries/Base64.sol\":3922:3926  0x3d */\n      0x3d\n        /* \"libraries/Base64.sol\":3918:3919  1 */\n      0x01\n        /* \"libraries/Base64.sol\":3907:3916  resultPtr */\n      dup8\n        /* \"libraries/Base64.sol\":3903:3920  sub(resultPtr, 1) */\n      sub\n        /* \"libraries/Base64.sol\":3895:3927  mstore8(sub(resultPtr, 1), 0x3d) */\n      mstore8\n        /* \"libraries/Base64.sol\":3692:3942  switch mod(mload(data), 3)... */\n    tag_146:\n      pop\n        /* \"libraries/Base64.sol\":1466:3953  {... */\n      pop\n      pop\n      pop\n      pop\n      pop\n      pop\n        /* \"libraries/Base64.sol\":3972:3978  result */\n      dup1\n        /* \"libraries/Base64.sol\":3965:3978  return result */\n      swap3\n      pop\n      pop\n      pop\n        /* \"libraries/Base64.sol\":524:3986  function encode(bytes memory data) internal pure returns (string memory) {... */\n    tag_132:\n      swap2\n      swap1\n      pop\n      jump\t// out\n        /* \"libraries/Strings.sol\":2471:2622  function toHexString(address addr) internal pure returns (string memory) {... */\n    tag_87:\n        /* \"libraries/Strings.sol\":2529:2542  string memory */\n      0x60\n        /* \"libraries/Strings.sol\":2562:2614  toHexString(uint256(uint160(addr)), _ADDRESS_LENGTH) */\n      tag_150\n        /* \"libraries/Strings.sol\":2590:2594  addr */\n      dup3\n        /* \"libraries/Strings.sol\":2574:2596  uint256(uint160(addr)) */\n      0xffffffffffffffffffffffffffffffffffffffff\n      and\n        /* \"libraries/Strings.sol\":346:348  20 */\n      0x14\n        /* \"libraries/Strings.sol\":2562:2614  toHexString(uint256(uint160(addr)), _ADDRESS_LENGTH) */\n      0xff\n      and\n        /* \"libraries/Strings.sol\":2562:2573  toHexString */\n      tag_151\n        /* \"libraries/Strings.sol\":2562:2614  toHexString(uint256(uint160(addr)), _ADDRESS_LENGTH) */\n      jump\t// in\n    tag_150:\n        /* \"libraries/Strings.sol\":2555:2614  return toHexString(uint256(uint160(addr)), _ADDRESS_LENGTH) */\n      swap1\n      pop\n        /* \"libraries/Strings.sol\":2471:2622  function toHexString(address addr) internal pure returns (string memory) {... */\n      swap2\n      swap1\n      pop\n      jump\t// out\n        /* \"contracts/Ownable.sol\":1401:1533  function _checkOwner() internal view virtual {... */\n    tag_98:\n        /* \"contracts/Ownable.sol\":1476:1488  _msgSender() */\n      tag_153\n        /* \"contracts/Ownable.sol\":1476:1486  _msgSender */\n      tag_154\n        /* \"contracts/Ownable.sol\":1476:1488  _msgSender() */\n      jump\t// in\n    tag_153:\n        /* \"contracts/Ownable.sol\":1465:1488  owner() == _msgSender() */\n      0xffffffffffffffffffffffffffffffffffffffff\n      and\n        /* \"contracts/Ownable.sol\":1465:1472  owner() */\n      tag_155\n        /* \"contracts/Ownable.sol\":1465:1470  owner */\n      tag_22\n        /* \"contracts/Ownable.sol\":1465:1472  owner() */\n      jump\t// in\n    tag_155:\n        /* \"contracts/Ownable.sol\":1465:1488  owner() == _msgSender() */\n      0xffffffffffffffffffffffffffffffffffffffff\n      and\n      eq\n        /* \"contracts/Ownable.sol\":1457:1525  require(owner() == _msgSender(), \"Ownable: caller is not the owner\") */\n      tag_156\n      jumpi\n      mload(0x40)\n      0x08c379a000000000000000000000000000000000000000000000000000000000\n      dup2\n      mstore\n      0x04\n      add\n      tag_157\n      swap1\n      tag_158\n      jump\t// in\n    tag_157:\n      mload(0x40)\n      dup1\n      swap2\n      sub\n      swap1\n      revert\n    tag_156:\n        /* \"contracts/Ownable.sol\":1401:1533  function _checkOwner() internal view virtual {... */\n      jump\t// out\n        /* \"contracts/Ownable.sol\":2496:2687  function _transferOwnership(address newOwner) internal virtual {... */\n    tag_101:\n        /* \"contracts/Ownable.sol\":2570:2586  address oldOwner */\n      0x00\n        /* \"contracts/Ownable.sol\":2589:2595  _owner */\n      dup1\n      0x00\n      swap1\n      sload\n      swap1\n      0x0100\n      exp\n      swap1\n      div\n      0xffffffffffffffffffffffffffffffffffffffff\n      and\n        /* \"contracts/Ownable.sol\":2570:2595  address oldOwner = _owner */\n      swap1\n      pop\n        /* \"contracts/Ownable.sol\":2615:2623  newOwner */\n      dup2\n        /* \"contracts/Ownable.sol\":2606:2612  _owner */\n      0x00\n      dup1\n        /* \"contracts/Ownable.sol\":2606:2623  _owner = newOwner */\n      0x0100\n      exp\n      dup2\n      sload\n      dup2\n      0xffffffffffffffffffffffffffffffffffffffff\n      mul\n      not\n      and\n      swap1\n      dup4\n      0xffffffffffffffffffffffffffffffffffffffff\n      and\n      mul\n      or\n      swap1\n      sstore\n      pop\n        /* \"contracts/Ownable.sol\":2670:2678  newOwner */\n      dup2\n        /* \"contracts/Ownable.sol\":2639:2679  OwnershipTransferred(oldOwner, newOwner) */\n      0xffffffffffffffffffffffffffffffffffffffff\n      and\n        /* \"contracts/Ownable.sol\":2660:2668  oldOwner */\n      dup2\n        /* \"contracts/Ownable.sol\":2639:2679  OwnershipTransferred(oldOwner, newOwner) */\n      0xffffffffffffffffffffffffffffffffffffffff\n      and\n      0x8be0079c531659141344cd1fd0a4f28419497f9722a3daafe3b4186f6b6457e0\n      mload(0x40)\n      mload(0x40)\n      dup1\n      swap2\n      sub\n      swap1\n      log3\n        /* \"contracts/Ownable.sol\":2559:2687  {... */\n      pop\n        /* \"contracts/Ownable.sol\":2496:2687  function _transferOwnership(address newOwner) internal virtual {... */\n      pop\n      jump\t// out\n        /* \"libraries/Math.sol\":10390:11338  function log10(uint256 value) internal pure returns (uint256) {... */\n    tag_121:\n        /* \"libraries/Math.sol\":10443:10450  uint256 */\n      0x00\n        /* \"libraries/Math.sol\":10463:10477  uint256 result */\n      dup1\n        /* \"libraries/Math.sol\":10480:10481  0 */\n      0x00\n        /* \"libraries/Math.sol\":10463:10481  uint256 result = 0 */\n      swap1\n      pop\n        /* \"libraries/Math.sol\":10530:10538  10 ** 64 */\n      0x184f03e93ff9f4daa797ed6e38ed64bf6a1f010000000000000000\n        /* \"libraries/Math.sol\":10521:10526  value */\n      dup4\n        /* \"libraries/Math.sol\":10521:10538  value >= 10 ** 64 */\n      lt\n        /* \"libraries/Math.sol\":10517:10623  if (value >= 10 ** 64) {... */\n      tag_161\n      jumpi\n        /* \"libraries/Math.sol\":10568:10576  10 ** 64 */\n      0x184f03e93ff9f4daa797ed6e38ed64bf6a1f010000000000000000\n        /* \"libraries/Math.sol\":10559:10576  value /= 10 ** 64 */\n      dup4\n      dup2\n      tag_162\n      jumpi\n      tag_163\n      tag_130\n      jump\t// in\n    tag_163:\n    tag_162:\n      div\n      swap3\n      pop\n        /* \"libraries/Math.sol\":10605:10607  64 */\n      0x40\n        /* \"libraries/Math.sol\":10595:10607  result += 64 */\n      dup2\n      add\n      swap1\n      pop\n        /* \"libraries/Math.sol\":10517:10623  if (value >= 10 ** 64) {... */\n    tag_161:\n        /* \"libraries/Math.sol\":10650:10658  10 ** 32 */\n      0x04ee2d6d415b85acef8100000000\n        /* \"libraries/Math.sol\":10641:10646  value */\n      dup4\n        /* \"libraries/Math.sol\":10641:10658  value >= 10 ** 32 */\n      lt\n        /* \"libraries/Math.sol\":10637:10743  if (value >= 10 ** 32) {... */\n      tag_164\n      jumpi\n        /* \"libraries/Math.sol\":10688:10696  10 ** 32 */\n      0x04ee2d6d415b85acef8100000000\n        /* \"libraries/Math.sol\":10679:10696  value /= 10 ** 32 */\n      dup4\n      dup2\n      tag_165\n      jumpi\n      tag_166\n      tag_130\n      jump\t// in\n    tag_166:\n    tag_165:\n      div\n      swap3\n      pop\n        /* \"libraries/Math.sol\":10725:10727  32 */\n      0x20\n        /* \"libraries/Math.sol\":10715:10727  result += 32 */\n      dup2\n      add\n      swap1\n      pop\n        /* \"libraries/Math.sol\":10637:10743  if (value >= 10 ** 32) {... */\n    tag_164:\n        /* \"libraries/Math.sol\":10770:10778  10 ** 16 */\n      0x2386f26fc10000\n        /* \"libraries/Math.sol\":10761:10766  value */\n      dup4\n        /* \"libraries/Math.sol\":10761:10778  value >= 10 ** 16 */\n      lt\n        /* \"libraries/Math.sol\":10757:10863  if (value >= 10 ** 16) {... */\n      tag_167\n      jumpi\n        /* \"libraries/Math.sol\":10808:10816  10 ** 16 */\n      0x2386f26fc10000\n        /* \"libraries/Math.sol\":10799:10816  value /= 10 ** 16 */\n      dup4\n      dup2\n      tag_168\n      jumpi\n      tag_169\n      tag_130\n      jump\t// in\n    tag_169:\n    tag_168:\n      div\n      swap3\n      pop\n        /* \"libraries/Math.sol\":10845:10847  16 */\n      0x10\n        /* \"libraries/Math.sol\":10835:10847  result += 16 */\n      dup2\n      add\n      swap1\n      pop\n        /* \"libraries/Math.sol\":10757:10863  if (value >= 10 ** 16) {... */\n    tag_167:\n        /* \"libraries/Math.sol\":10890:10897  10 ** 8 */\n      0x05f5e100\n        /* \"libraries/Math.sol\":10881:10886  value */\n      dup4\n        /* \"libraries/Math.sol\":10881:10897  value >= 10 ** 8 */\n      lt\n        /* \"libraries/Math.sol\":10877:10980  if (value >= 10 ** 8) {... */\n      tag_170\n      jumpi\n        /* \"libraries/Math.sol\":10927:10934  10 ** 8 */\n      0x05f5e100\n        /* \"libraries/Math.sol\":10918:10934  value /= 10 ** 8 */\n      dup4\n      dup2\n      tag_171\n      jumpi\n      tag_172\n      tag_130\n      jump\t// in\n    tag_172:\n    tag_171:\n      div\n      swap3\n      pop\n        /* \"libraries/Math.sol\":10963:10964  8 */\n      0x08\n        /* \"libraries/Math.sol\":10953:10964  result += 8 */\n      dup2\n      add\n      swap1\n      pop\n        /* \"libraries/Math.sol\":10877:10980  if (value >= 10 ** 8) {... */\n    tag_170:\n        /* \"libraries/Math.sol\":11007:11014  10 ** 4 */\n      0x2710\n        /* \"libraries/Math.sol\":10998:11003  value */\n      dup4\n        /* \"libraries/Math.sol\":10998:11014  value >= 10 ** 4 */\n      lt\n        /* \"libraries/Math.sol\":10994:11097  if (value >= 10 ** 4) {... */\n      tag_173\n      jumpi\n        /* \"libraries/Math.sol\":11044:11051  10 ** 4 */\n      0x2710\n        /* \"libraries/Math.sol\":11035:11051  value /= 10 ** 4 */\n      dup4\n      dup2\n      tag_174\n      jumpi\n      tag_175\n      tag_130\n      jump\t// in\n    tag_175:\n    tag_174:\n      div\n      swap3\n      pop\n        /* \"libraries/Math.sol\":11080:11081  4 */\n      0x04\n        /* \"libraries/Math.sol\":11070:11081  result += 4 */\n      dup2\n      add\n      swap1\n      pop\n        /* \"libraries/Math.sol\":10994:11097  if (value >= 10 ** 4) {... */\n    tag_173:\n        /* \"libraries/Math.sol\":11124:11131  10 ** 2 */\n      0x64\n        /* \"libraries/Math.sol\":11115:11120  value */\n      dup4\n        /* \"libraries/Math.sol\":11115:11131  value >= 10 ** 2 */\n      lt\n        /* \"libraries/Math.sol\":11111:11214  if (value >= 10 ** 2) {... */\n      tag_176\n      jumpi\n        /* \"libraries/Math.sol\":11161:11168  10 ** 2 */\n      0x64\n        /* \"libraries/Math.sol\":11152:11168  value /= 10 ** 2 */\n      dup4\n      dup2\n      tag_177\n      jumpi\n      tag_178\n      tag_130\n      jump\t// in\n    tag_178:\n    tag_177:\n      div\n      swap3\n      pop\n        /* \"libraries/Math.sol\":11197:11198  2 */\n      0x02\n        /* \"libraries/Math.sol\":11187:11198  result += 2 */\n      dup2\n      add\n      swap1\n      pop\n        /* \"libraries/Math.sol\":11111:11214  if (value >= 10 ** 2) {... */\n    tag_176:\n        /* \"libraries/Math.sol\":11241:11248  10 ** 1 */\n      0x0a\n        /* \"libraries/Math.sol\":11232:11237  value */\n      dup4\n        /* \"libraries/Math.sol\":11232:11248  value >= 10 ** 1 */\n      lt\n        /* \"libraries/Math.sol\":11228:11296  if (value >= 10 ** 1) {... */\n      tag_179\n      jumpi\n        /* \"libraries/Math.sol\":11279:11280  1 */\n      0x01\n        /* \"libraries/Math.sol\":11269:11280  result += 1 */\n      dup2\n      add\n      swap1\n      pop\n        /* \"libraries/Math.sol\":11228:11296  if (value >= 10 ** 1) {... */\n    tag_179:\n        /* \"libraries/Math.sol\":11324:11330  result */\n      dup1\n        /* \"libraries/Math.sol\":11317:11330  return result */\n      swap2\n      pop\n      pop\n        /* \"libraries/Math.sol\":10390:11338  function log10(uint256 value) internal pure returns (uint256) {... */\n      swap2\n      swap1\n      pop\n      jump\t// out\n        /* \"libraries/Strings.sol\":1867:2314  function toHexString(uint256 value, uint256 length) internal pure returns (string memory) {... */\n    tag_151:\n        /* \"libraries/Strings.sol\":1942:1955  string memory */\n      0x60\n        /* \"libraries/Strings.sol\":1968:1987  bytes memory buffer */\n      0x00\n        /* \"libraries/Strings.sol\":2013:2014  2 */\n      0x02\n        /* \"libraries/Strings.sol\":2004:2010  length */\n      dup4\n        /* \"libraries/Strings.sol\":2000:2001  2 */\n      0x02\n        /* \"libraries/Strings.sol\":2000:2010  2 * length */\n      tag_181\n      swap2\n      swap1\n      tag_139\n      jump\t// in\n    tag_181:\n        /* \"libraries/Strings.sol\":2000:2014  2 * length + 2 */\n      tag_182\n      swap2\n      swap1\n      tag_135\n      jump\t// in\n    tag_182:\n        /* \"libraries/Strings.sol\":1990:2015  new bytes(2 * length + 2) */\n      0xffffffffffffffff\n      dup2\n      gt\n      iszero\n      tag_183\n      jumpi\n      tag_184\n      tag_124\n      jump\t// in\n    tag_184:\n    tag_183:\n      mload(0x40)\n      swap1\n      dup1\n      dup3\n      mstore\n      dup1\n      0x1f\n      add\n      not(0x1f)\n      and\n      0x20\n      add\n      dup3\n      add\n      0x40\n      mstore\n      dup1\n      iszero\n      tag_185\n      jumpi\n      dup2\n      0x20\n      add\n      0x01\n      dup3\n      mul\n      dup1\n      calldatasize\n      dup4\n      calldatacopy\n      dup1\n      dup3\n      add\n      swap2\n      pop\n      pop\n      swap1\n      pop\n    tag_185:\n      pop\n        /* \"libraries/Strings.sol\":1968:2015  bytes memory buffer = new bytes(2 * length + 2) */\n      swap1\n      pop\n        /* \"libraries/Strings.sol\":2026:2041  buffer[0] = \"0\" */\n      0x3000000000000000000000000000000000000000000000000000000000000000\n        /* \"libraries/Strings.sol\":2026:2032  buffer */\n      dup2\n        /* \"libraries/Strings.sol\":2033:2034  0 */\n      0x00\n        /* \"libraries/Strings.sol\":2026:2035  buffer[0] */\n      dup2\n      mload\n      dup2\n      lt\n      tag_186\n      jumpi\n      tag_187\n      tag_188\n      jump\t// in\n    tag_187:\n    tag_186:\n      0x20\n      add\n      add\n        /* \"libraries/Strings.sol\":2026:2041  buffer[0] = \"0\" */\n      swap1\n      not(0xffffffffffffffffffffffffffffffffffffffffffffffffffffffffffffff)\n      and\n      swap1\n      dup2\n      0x00\n      byte\n      swap1\n      mstore8\n      pop\n        /* \"libraries/Strings.sol\":2052:2067  buffer[1] = \"x\" */\n      0x7800000000000000000000000000000000000000000000000000000000000000\n        /* \"libraries/Strings.sol\":2052:2058  buffer */\n      dup2\n        /* \"libraries/Strings.sol\":2059:2060  1 */\n      0x01\n        /* \"libraries/Strings.sol\":2052:2061  buffer[1] */\n      dup2\n      mload\n      dup2\n      lt\n      tag_189\n      jumpi\n      tag_190\n      tag_188\n      jump\t// in\n    tag_190:\n    tag_189:\n      0x20\n      add\n      add\n        /* \"libraries/Strings.sol\":2052:2067  buffer[1] = \"x\" */\n      swap1\n      not(0xffffffffffffffffffffffffffffffffffffffffffffffffffffffffffffff)\n      and\n      swap1\n      dup2\n      0x00\n      byte\n      swap1\n      mstore8\n      pop\n        /* \"libraries/Strings.sol\":2083:2092  uint256 i */\n      0x00\n        /* \"libraries/Strings.sol\":2108:2109  1 */\n      0x01\n        /* \"libraries/Strings.sol\":2099:2105  length */\n      dup5\n        /* \"libraries/Strings.sol\":2095:2096  2 */\n      0x02\n        /* \"libraries/Strings.sol\":2095:2105  2 * length */\n      tag_194\n      swap2\n      swap1\n      tag_139\n      jump\t// in\n    tag_194:\n        /* \"libraries/Strings.sol\":2095:2109  2 * length + 1 */\n      tag_195\n      swap2\n      swap1\n      tag_135\n      jump\t// in\n    tag_195:\n        /* \"libraries/Strings.sol\":2083:2109  uint256 i = 2 * length + 1 */\n      swap1\n      pop\n        /* \"libraries/Strings.sol\":2078:2209  for (uint256 i = 2 * length + 1; i > 1; --i) {... */\n    tag_191:\n        /* \"libraries/Strings.sol\":2115:2116  1 */\n      0x01\n        /* \"libraries/Strings.sol\":2111:2112  i */\n      dup2\n        /* \"libraries/Strings.sol\":2111:2116  i > 1 */\n      gt\n        /* \"libraries/Strings.sol\":2078:2209  for (uint256 i = 2 * length + 1; i > 1; --i) {... */\n      iszero\n      tag_192\n      jumpi\n        /* \"libraries/Strings.sol\":2150:2158  _SYMBOLS */\n      0x3031323334353637383961626364656600000000000000000000000000000000\n        /* \"libraries/Strings.sol\":2167:2170  0xf */\n      0x0f\n        /* \"libraries/Strings.sol\":2159:2164  value */\n      dup7\n        /* \"libraries/Strings.sol\":2159:2170  value & 0xf */\n      and\n        /* \"libraries/Strings.sol\":2150:2171  _SYMBOLS[value & 0xf] */\n      0x10\n      dup2\n      lt\n      tag_196\n      jumpi\n      tag_197\n      tag_188\n      jump\t// in\n    tag_197:\n    tag_196:\n      byte\n      0xf8\n      shl\n        /* \"libraries/Strings.sol\":2138:2144  buffer */\n      dup3\n        /* \"libraries/Strings.sol\":2145:2146  i */\n      dup3\n        /* \"libraries/Strings.sol\":2138:2147  buffer[i] */\n      dup2\n      mload\n      dup2\n      lt\n      tag_198\n      jumpi\n      tag_199\n      tag_188\n      jump\t// in\n    tag_199:\n    tag_198:\n      0x20\n      add\n      add\n        /* \"libraries/Strings.sol\":2138:2171  buffer[i] = _SYMBOLS[value & 0xf] */\n      swap1\n      not(0xffffffffffffffffffffffffffffffffffffffffffffffffffffffffffffff)\n      and\n      swap1\n      dup2\n      0x00\n      byte\n      swap1\n      mstore8\n      pop\n        /* \"libraries/Strings.sol\":2196:2197  4 */\n      0x04\n        /* \"libraries/Strings.sol\":2186:2197  value >>= 4 */\n      dup6\n      swap1\n      shr\n      swap5\n      pop\n        /* \"libraries/Strings.sol\":2118:2121  --i */\n      dup1\n      tag_200\n      swap1\n      tag_201\n      jump\t// in\n    tag_200:\n      swap1\n      pop\n        /* \"libraries/Strings.sol\":2078:2209  for (uint256 i = 2 * length + 1; i > 1; --i) {... */\n      jump(tag_191)\n    tag_192:\n      pop\n        /* \"libraries/Strings.sol\":2236:2237  0 */\n      0x00\n        /* \"libraries/Strings.sol\":2227:2232  value */\n      dup5\n        /* \"libraries/Strings.sol\":2227:2237  value == 0 */\n      eq\n        /* \"libraries/Strings.sol\":2219:2274  require(value == 0, \"Strings: hex length insufficient\") */\n      tag_202\n      jumpi\n      mload(0x40)\n      0x08c379a000000000000000000000000000000000000000000000000000000000\n      dup2\n      mstore\n      0x04\n      add\n      tag_203\n      swap1\n      tag_204\n      jump\t// in\n    tag_203:\n      mload(0x40)\n      dup1\n      swap2\n      sub\n      swap1\n      revert\n    tag_202:\n        /* \"libraries/Strings.sol\":2299:2305  buffer */\n      dup1\n        /* \"libraries/Strings.sol\":2285:2306  return string(buffer) */\n      swap2\n      pop\n      pop\n        /* \"libraries/Strings.sol\":1867:2314  function toHexString(uint256 value, uint256 length) internal pure returns (string memory) {... */\n      swap3\n      swap2\n      pop\n      pop\n      jump\t// out\n        /* \"contracts/Context.sol\":671:769  function _msgSender() internal view virtual returns (address) {... */\n    tag_154:\n        /* \"contracts/Context.sol\":724:731  address */\n      0x00\n        /* \"contracts/Context.sol\":751:761  msg.sender */\n      caller\n        /* \"contracts/Context.sol\":744:761  return msg.sender */\n      swap1\n      pop\n        /* \"contracts/Context.sol\":671:769  function _msgSender() internal view virtual returns (address) {... */\n      swap1\n      jump\t// out\n    tag_93:\n      dup3\n      dup1\n      sload\n      tag_206\n      swap1\n      tag_57\n      jump\t// in\n    tag_206:\n      swap1\n      0x00\n      mstore\n      keccak256(0x00, 0x20)\n      swap1\n      0x1f\n      add\n      0x20\n      swap1\n      div\n      dup2\n      add\n      swap3\n      dup3\n      tag_208\n      jumpi\n      0x00\n      dup6\n      sstore\n      jump(tag_207)\n    tag_208:\n      dup3\n      0x1f\n      lt\n      tag_209\n      jumpi\n      dup1\n      mload\n      not(0xff)\n      and\n      dup4\n      dup1\n      add\n      or\n      dup6\n      sstore\n      jump(tag_207)\n    tag_209:\n      dup3\n      dup1\n      add\n      0x01\n      add\n      dup6\n      sstore\n      dup3\n      iszero\n      tag_207\n      jumpi\n      swap2\n      dup3\n      add\n    tag_210:\n      dup3\n      dup2\n      gt\n      iszero\n      tag_211\n      jumpi\n      dup3\n      mload\n      dup3\n      sstore\n      swap2\n      0x20\n      add\n      swap2\n      swap1\n      0x01\n      add\n      swap1\n      jump(tag_210)\n    tag_211:\n    tag_207:\n      pop\n      swap1\n      pop\n      tag_212\n      swap2\n      swap1\n      tag_213\n      jump\t// in\n    tag_212:\n      pop\n      swap1\n      jump\t// out\n    tag_213:\n    tag_214:\n      dup1\n      dup3\n      gt\n      iszero\n      tag_215\n      jumpi\n      0x00\n      dup2\n      0x00\n      swap1\n      sstore\n      pop\n      0x01\n      add\n      jump(tag_214)\n    tag_215:\n      pop\n      swap1\n      jump\t// out\n        /* \"#utility.yul\":7:133   */\n    tag_216:\n        /* \"#utility.yul\":44:51   */\n      0x00\n        /* \"#utility.yul\":84:126   */\n      0xffffffffffffffffffffffffffffffffffffffff\n        /* \"#utility.yul\":77:82   */\n      dup3\n        /* \"#utility.yul\":73:127   */\n      and\n        /* \"#utility.yul\":62:127   */\n      swap1\n      pop\n        /* \"#utility.yul\":7:133   */\n      swap2\n      swap1\n      pop\n      jump\t// out\n        /* \"#utility.yul\":139:235   */\n    tag_217:\n        /* \"#utility.yul\":176:183   */\n      0x00\n        /* \"#utility.yul\":205:229   */\n      tag_278\n        /* \"#utility.yul\":223:228   */\n      dup3\n        /* \"#utility.yul\":205:229   */\n      tag_216\n      jump\t// in\n    tag_278:\n        /* \"#utility.yul\":194:229   */\n      swap1\n      pop\n        /* \"#utility.yul\":139:235   */\n      swap2\n      swap1\n      pop\n      jump\t// out\n        /* \"#utility.yul\":241:359   */\n    tag_218:\n        /* \"#utility.yul\":328:352   */\n      tag_280\n        /* \"#utility.yul\":346:351   */\n      dup2\n        /* \"#utility.yul\":328:352   */\n      tag_217\n      jump\t// in\n    tag_280:\n        /* \"#utility.yul\":323:326   */\n      dup3\n        /* \"#utility.yul\":316:353   */\n      mstore\n        /* \"#utility.yul\":241:359   */\n      pop\n      pop\n      jump\t// out\n        /* \"#utility.yul\":365:587   */\n    tag_14:\n        /* \"#utility.yul\":458:462   */\n      0x00\n        /* \"#utility.yul\":496:498   */\n      0x20\n        /* \"#utility.yul\":485:494   */\n      dup3\n        /* \"#utility.yul\":481:499   */\n      add\n        /* \"#utility.yul\":473:499   */\n      swap1\n      pop\n        /* \"#utility.yul\":509:580   */\n      tag_282\n        /* \"#utility.yul\":577:578   */\n      0x00\n        /* \"#utility.yul\":566:575   */\n      dup4\n        /* \"#utility.yul\":562:579   */\n      add\n        /* \"#utility.yul\":553:559   */\n      dup5\n        /* \"#utility.yul\":509:580   */\n      tag_218\n      jump\t// in\n    tag_282:\n        /* \"#utility.yul\":365:587   */\n      swap3\n      swap2\n      pop\n      pop\n      jump\t// out\n        /* \"#utility.yul\":593:668   */\n    tag_219:\n        /* \"#utility.yul\":626:632   */\n      0x00\n        /* \"#utility.yul\":659:661   */\n      0x40\n        /* \"#utility.yul\":653:662   */\n      mload\n        /* \"#utility.yul\":643:662   */\n      swap1\n      pop\n        /* \"#utility.yul\":593:668   */\n      swap1\n      jump\t// out\n        /* \"#utility.yul\":674:791   */\n    tag_220:\n        /* \"#utility.yul\":783:784   */\n      0x00\n        /* \"#utility.yul\":780:781   */\n      dup1\n        /* \"#utility.yul\":773:785   */\n      revert\n        /* \"#utility.yul\":797:914   */\n    tag_221:\n        /* \"#utility.yul\":906:907   */\n      0x00\n        /* \"#utility.yul\":903:904   */\n      dup1\n        /* \"#utility.yul\":896:908   */\n      revert\n        /* \"#utility.yul\":920:997   */\n    tag_222:\n        /* \"#utility.yul\":957:964   */\n      0x00\n        /* \"#utility.yul\":986:991   */\n      dup2\n        /* \"#utility.yul\":975:991   */\n      swap1\n      pop\n        /* \"#utility.yul\":920:997   */\n      swap2\n      swap1\n      pop\n      jump\t// out\n        /* \"#utility.yul\":1003:1125   */\n    tag_223:\n        /* \"#utility.yul\":1076:1100   */\n      tag_288\n        /* \"#utility.yul\":1094:1099   */\n      dup2\n        /* \"#utility.yul\":1076:1100   */\n      tag_222\n      jump\t// in\n    tag_288:\n        /* \"#utility.yul\":1069:1074   */\n      dup2\n        /* \"#utility.yul\":1066:1101   */\n      eq\n        /* \"#utility.yul\":1056:1119   */\n      tag_289\n      jumpi\n        /* \"#utility.yul\":1115:1116   */\n      0x00\n        /* \"#utility.yul\":1112:1113   */\n      dup1\n        /* \"#utility.yul\":1105:1117   */\n      revert\n        /* \"#utility.yul\":1056:1119   */\n    tag_289:\n        /* \"#utility.yul\":1003:1125   */\n      pop\n      jump\t// out\n        /* \"#utility.yul\":1131:1270   */\n    tag_224:\n        /* \"#utility.yul\":1177:1182   */\n      0x00\n        /* \"#utility.yul\":1215:1221   */\n      dup2\n        /* \"#utility.yul\":1202:1222   */\n      calldataload\n        /* \"#utility.yul\":1193:1222   */\n      swap1\n      pop\n        /* \"#utility.yul\":1231:1264   */\n      tag_291\n        /* \"#utility.yul\":1258:1263   */\n      dup2\n        /* \"#utility.yul\":1231:1264   */\n      tag_223\n      jump\t// in\n    tag_291:\n        /* \"#utility.yul\":1131:1270   */\n      swap3\n      swap2\n      pop\n      pop\n      jump\t// out\n        /* \"#utility.yul\":1276:1398   */\n    tag_225:\n        /* \"#utility.yul\":1349:1373   */\n      tag_293\n        /* \"#utility.yul\":1367:1372   */\n      dup2\n        /* \"#utility.yul\":1349:1373   */\n      tag_217\n      jump\t// in\n    tag_293:\n        /* \"#utility.yul\":1342:1347   */\n      dup2\n        /* \"#utility.yul\":1339:1374   */\n      eq\n        /* \"#utility.yul\":1329:1392   */\n      tag_294\n      jumpi\n        /* \"#utility.yul\":1388:1389   */\n      0x00\n        /* \"#utility.yul\":1385:1386   */\n      dup1\n        /* \"#utility.yul\":1378:1390   */\n      revert\n        /* \"#utility.yul\":1329:1392   */\n    tag_294:\n        /* \"#utility.yul\":1276:1398   */\n      pop\n      jump\t// out\n        /* \"#utility.yul\":1404:1543   */\n    tag_226:\n        /* \"#utility.yul\":1450:1455   */\n      0x00\n        /* \"#utility.yul\":1488:1494   */\n      dup2\n        /* \"#utility.yul\":1475:1495   */\n      calldataload\n        /* \"#utility.yul\":1466:1495   */\n      swap1\n      pop\n        /* \"#utility.yul\":1504:1537   */\n      tag_296\n        /* \"#utility.yul\":1531:1536   */\n      dup2\n        /* \"#utility.yul\":1504:1537   */\n      tag_225\n      jump\t// in\n    tag_296:\n        /* \"#utility.yul\":1404:1543   */\n      swap3\n      swap2\n      pop\n      pop\n      jump\t// out\n        /* \"#utility.yul\":1549:2606   */\n    tag_17:\n        /* \"#utility.yul\":1653:1659   */\n      0x00\n        /* \"#utility.yul\":1661:1667   */\n      dup1\n        /* \"#utility.yul\":1669:1675   */\n      0x00\n        /* \"#utility.yul\":1677:1683   */\n      dup1\n        /* \"#utility.yul\":1685:1691   */\n      0x00\n        /* \"#utility.yul\":1693:1699   */\n      dup1\n        /* \"#utility.yul\":1742:1745   */\n      0xc0\n        /* \"#utility.yul\":1730:1739   */\n      dup8\n        /* \"#utility.yul\":1721:1728   */\n      dup10\n        /* \"#utility.yul\":1717:1740   */\n      sub\n        /* \"#utility.yul\":1713:1746   */\n      slt\n        /* \"#utility.yul\":1710:1830   */\n      iszero\n      tag_298\n      jumpi\n        /* \"#utility.yul\":1749:1828   */\n      tag_299\n      tag_220\n      jump\t// in\n    tag_299:\n        /* \"#utility.yul\":1710:1830   */\n    tag_298:\n        /* \"#utility.yul\":1869:1870   */\n      0x00\n        /* \"#utility.yul\":1894:1947   */\n      tag_300\n        /* \"#utility.yul\":1939:1946   */\n      dup10\n        /* \"#utility.yul\":1930:1936   */\n      dup3\n        /* \"#utility.yul\":1919:1928   */\n      dup11\n        /* \"#utility.yul\":1915:1937   */\n      add\n        /* \"#utility.yul\":1894:1947   */\n      tag_224\n      jump\t// in\n    tag_300:\n        /* \"#utility.yul\":1884:1947   */\n      swap7\n      pop\n        /* \"#utility.yul\":1840:1957   */\n      pop\n        /* \"#utility.yul\":1996:1998   */\n      0x20\n        /* \"#utility.yul\":2022:2075   */\n      tag_301\n        /* \"#utility.yul\":2067:2074   */\n      dup10\n        /* \"#utility.yul\":2058:2064   */\n      dup3\n        /* \"#utility.yul\":2047:2056   */\n      dup11\n        /* \"#utility.yul\":2043:2065   */\n      add\n        /* \"#utility.yul\":2022:2075   */\n      tag_224\n      jump\t// in\n    tag_301:\n        /* \"#utility.yul\":2012:2075   */\n      swap6\n      pop\n        /* \"#utility.yul\":1967:2085   */\n      pop\n        /* \"#utility.yul\":2124:2126   */\n      0x40\n        /* \"#utility.yul\":2150:2203   */\n      tag_302\n        /* \"#utility.yul\":2195:2202   */\n      dup10\n        /* \"#utility.yul\":2186:2192   */\n      dup3\n        /* \"#utility.yul\":2175:2184   */\n      dup11\n        /* \"#utility.yul\":2171:2193   */\n      add\n        /* \"#utility.yul\":2150:2203   */\n      tag_224\n      jump\t// in\n    tag_302:\n        /* \"#utility.yul\":2140:2203   */\n      swap5\n      pop\n        /* \"#utility.yul\":2095:2213   */\n      pop\n        /* \"#utility.yul\":2252:2254   */\n      0x60\n        /* \"#utility.yul\":2278:2331   */\n      tag_303\n        /* \"#utility.yul\":2323:2330   */\n      dup10\n        /* \"#utility.yul\":2314:2320   */\n      dup3\n        /* \"#utility.yul\":2303:2312   */\n      dup11\n        /* \"#utility.yul\":2299:2321   */\n      add\n        /* \"#utility.yul\":2278:2331   */\n      tag_224\n      jump\t// in\n    tag_303:\n        /* \"#utility.yul\":2268:2331   */\n      swap4\n      pop\n        /* \"#utility.yul\":2223:2341   */\n      pop\n        /* \"#utility.yul\":2380:2383   */\n      0x80\n        /* \"#utility.yul\":2407:2460   */\n      tag_304\n        /* \"#utility.yul\":2452:2459   */\n      dup10\n        /* \"#utility.yul\":2443:2449   */\n      dup3\n        /* \"#utility.yul\":2432:2441   */\n      dup11\n        /* \"#utility.yul\":2428:2450   */\n      add\n        /* \"#utility.yul\":2407:2460   */\n      tag_224\n      jump\t// in\n    tag_304:\n        /* \"#utility.yul\":2397:2460   */\n      swap3\n      pop\n        /* \"#utility.yul\":2351:2470   */\n      pop\n        /* \"#utility.yul\":2509:2512   */\n      0xa0\n        /* \"#utility.yul\":2536:2589   */\n      tag_305\n        /* \"#utility.yul\":2581:2588   */\n      dup10\n        /* \"#utility.yul\":2572:2578   */\n      dup3\n        /* \"#utility.yul\":2561:2570   */\n      dup11\n        /* \"#utility.yul\":2557:2579   */\n      add\n        /* \"#utility.yul\":2536:2589   */\n      tag_226\n      jump\t// in\n    tag_305:\n        /* \"#utility.yul\":2526:2589   */\n      swap2\n      pop\n        /* \"#utility.yul\":2480:2599   */\n      pop\n        /* \"#utility.yul\":1549:2606   */\n      swap3\n      swap6\n      pop\n      swap3\n      swap6\n      pop\n      swap3\n      swap6\n      jump\t// out\n        /* \"#utility.yul\":2612:2941   */\n    tag_26:\n        /* \"#utility.yul\":2671:2677   */\n      0x00\n        /* \"#utility.yul\":2720:2722   */\n      0x20\n        /* \"#utility.yul\":2708:2717   */\n      dup3\n        /* \"#utility.yul\":2699:2706   */\n      dup5\n        /* \"#utility.yul\":2695:2718   */\n      sub\n        /* \"#utility.yul\":2691:2723   */\n      slt\n        /* \"#utility.yul\":2688:2807   */\n      iszero\n      tag_307\n      jumpi\n        /* \"#utility.yul\":2726:2805   */\n      tag_308\n      tag_220\n      jump\t// in\n    tag_308:\n        /* \"#utility.yul\":2688:2807   */\n    tag_307:\n        /* \"#utility.yul\":2846:2847   */\n      0x00\n        /* \"#utility.yul\":2871:2924   */\n      tag_309\n        /* \"#utility.yul\":2916:2923   */\n      dup5\n        /* \"#utility.yul\":2907:2913   */\n      dup3\n        /* \"#utility.yul\":2896:2905   */\n      dup6\n        /* \"#utility.yul\":2892:2914   */\n      add\n        /* \"#utility.yul\":2871:2924   */\n      tag_226\n      jump\t// in\n    tag_309:\n        /* \"#utility.yul\":2861:2924   */\n      swap2\n      pop\n        /* \"#utility.yul\":2817:2934   */\n      pop\n        /* \"#utility.yul\":2612:2941   */\n      swap3\n      swap2\n      pop\n      pop\n      jump\t// out\n        /* \"#utility.yul\":2947:3421   */\n    tag_33:\n        /* \"#utility.yul\":3015:3021   */\n      0x00\n        /* \"#utility.yul\":3023:3029   */\n      dup1\n        /* \"#utility.yul\":3072:3074   */\n      0x40\n        /* \"#utility.yul\":3060:3069   */\n      dup4\n        /* \"#utility.yul\":3051:3058   */\n      dup6\n        /* \"#utility.yul\":3047:3070   */\n      sub\n        /* \"#utility.yul\":3043:3075   */\n      slt\n        /* \"#utility.yul\":3040:3159   */\n      iszero\n      tag_311\n      jumpi\n        /* \"#utility.yul\":3078:3157   */\n      tag_312\n      tag_220\n      jump\t// in\n    tag_312:\n        /* \"#utility.yul\":3040:3159   */\n    tag_311:\n        /* \"#utility.yul\":3198:3199   */\n      0x00\n        /* \"#utility.yul\":3223:3276   */\n      tag_313\n        /* \"#utility.yul\":3268:3275   */\n      dup6\n        /* \"#utility.yul\":3259:3265   */\n      dup3\n        /* \"#utility.yul\":3248:3257   */\n      dup7\n        /* \"#utility.yul\":3244:3266   */\n      add\n        /* \"#utility.yul\":3223:3276   */\n      tag_226\n      jump\t// in\n    tag_313:\n        /* \"#utility.yul\":3213:3276   */\n      swap3\n      pop\n        /* \"#utility.yul\":3169:3286   */\n      pop\n        /* \"#utility.yul\":3325:3327   */\n      0x20\n        /* \"#utility.yul\":3351:3404   */\n      tag_314\n        /* \"#utility.yul\":3396:3403   */\n      dup6\n        /* \"#utility.yul\":3387:3393   */\n      dup3\n        /* \"#utility.yul\":3376:3385   */\n      dup7\n        /* \"#utility.yul\":3372:3394   */\n      add\n        /* \"#utility.yul\":3351:3404   */\n      tag_224\n      jump\t// in\n    tag_314:\n        /* \"#utility.yul\":3341:3404   */\n      swap2\n      pop\n        /* \"#utility.yul\":3296:3414   */\n      pop\n        /* \"#utility.yul\":2947:3421   */\n      swap3\n      pop\n      swap3\n      swap1\n      pop\n      jump\t// out\n        /* \"#utility.yul\":3427:3526   */\n    tag_227:\n        /* \"#utility.yul\":3479:3485   */\n      0x00\n        /* \"#utility.yul\":3513:3518   */\n      dup2\n        /* \"#utility.yul\":3507:3519   */\n      mload\n        /* \"#utility.yul\":3497:3519   */\n      swap1\n      pop\n        /* \"#utility.yul\":3427:3526   */\n      swap2\n      swap1\n      pop\n      jump\t// out\n        /* \"#utility.yul\":3532:3701   */\n    tag_228:\n        /* \"#utility.yul\":3616:3627   */\n      0x00\n        /* \"#utility.yul\":3650:3656   */\n      dup3\n        /* \"#utility.yul\":3645:3648   */\n      dup3\n        /* \"#utility.yul\":3638:3657   */\n      mstore\n        /* \"#utility.yul\":3690:3694   */\n      0x20\n        /* \"#utility.yul\":3685:3688   */\n      dup3\n        /* \"#utility.yul\":3681:3695   */\n      add\n        /* \"#utility.yul\":3666:3695   */\n      swap1\n      pop\n        /* \"#utility.yul\":3532:3701   */\n      swap3\n      swap2\n      pop\n      pop\n      jump\t// out\n        /* \"#utility.yul\":3707:4014   */\n    tag_229:\n        /* \"#utility.yul\":3775:3776   */\n      0x00\n        /* \"#utility.yul\":3785:3898   */\n    tag_318:\n        /* \"#utility.yul\":3799:3805   */\n      dup4\n        /* \"#utility.yul\":3796:3797   */\n      dup2\n        /* \"#utility.yul\":3793:3806   */\n      lt\n        /* \"#utility.yul\":3785:3898   */\n      iszero\n      tag_320\n      jumpi\n        /* \"#utility.yul\":3884:3885   */\n      dup1\n        /* \"#utility.yul\":3879:3882   */\n      dup3\n        /* \"#utility.yul\":3875:3886   */\n      add\n        /* \"#utility.yul\":3869:3887   */\n      mload\n        /* \"#utility.yul\":3865:3866   */\n      dup2\n        /* \"#utility.yul\":3860:3863   */\n      dup5\n        /* \"#utility.yul\":3856:3867   */\n      add\n        /* \"#utility.yul\":3849:3888   */\n      mstore\n        /* \"#utility.yul\":3821:3823   */\n      0x20\n        /* \"#utility.yul\":3818:3819   */\n      dup2\n        /* \"#utility.yul\":3814:3824   */\n      add\n        /* \"#utility.yul\":3809:3824   */\n      swap1\n      pop\n        /* \"#utility.yul\":3785:3898   */\n      jump(tag_318)\n    tag_320:\n        /* \"#utility.yul\":3916:3922   */\n      dup4\n        /* \"#utility.yul\":3913:3914   */\n      dup2\n        /* \"#utility.yul\":3910:3923   */\n      gt\n        /* \"#utility.yul\":3907:4008   */\n      iszero\n      tag_321\n      jumpi\n        /* \"#utility.yul\":3996:3997   */\n      0x00\n        /* \"#utility.yul\":3987:3993   */\n      dup5\n        /* \"#utility.yul\":3982:3985   */\n      dup5\n        /* \"#utility.yul\":3978:3994   */\n      add\n        /* \"#utility.yul\":3971:3998   */\n      mstore\n        /* \"#utility.yul\":3907:4008   */\n    tag_321:\n        /* \"#utility.yul\":3756:4014   */\n      pop\n        /* \"#utility.yul\":3707:4014   */\n      pop\n      pop\n      pop\n      jump\t// out\n        /* \"#utility.yul\":4020:4122   */\n    tag_230:\n        /* \"#utility.yul\":4061:4067   */\n      0x00\n        /* \"#utility.yul\":4112:4114   */\n      0x1f\n        /* \"#utility.yul\":4108:4115   */\n      not\n        /* \"#utility.yul\":4103:4105   */\n      0x1f\n        /* \"#utility.yul\":4096:4101   */\n      dup4\n        /* \"#utility.yul\":4092:4106   */\n      add\n        /* \"#utility.yul\":4088:4116   */\n      and\n        /* \"#utility.yul\":4078:4116   */\n      swap1\n      pop\n        /* \"#utility.yul\":4020:4122   */\n      swap2\n      swap1\n      pop\n      jump\t// out\n        /* \"#utility.yul\":4128:4492   */\n    tag_231:\n        /* \"#utility.yul\":4216:4219   */\n      0x00\n        /* \"#utility.yul\":4244:4283   */\n      tag_324\n        /* \"#utility.yul\":4277:4282   */\n      dup3\n        /* \"#utility.yul\":4244:4283   */\n      tag_227\n      jump\t// in\n    tag_324:\n        /* \"#utility.yul\":4299:4370   */\n      tag_325\n        /* \"#utility.yul\":4363:4369   */\n      dup2\n        /* \"#utility.yul\":4358:4361   */\n      dup6\n        /* \"#utility.yul\":4299:4370   */\n      tag_228\n      jump\t// in\n    tag_325:\n        /* \"#utility.yul\":4292:4370   */\n      swap4\n      pop\n        /* \"#utility.yul\":4379:4431   */\n      tag_326\n        /* \"#utility.yul\":4424:4430   */\n      dup2\n        /* \"#utility.yul\":4419:4422   */\n      dup6\n        /* \"#utility.yul\":4412:4416   */\n      0x20\n        /* \"#utility.yul\":4405:4410   */\n      dup7\n        /* \"#utility.yul\":4401:4417   */\n      add\n        /* \"#utility.yul\":4379:4431   */\n      tag_229\n      jump\t// in\n    tag_326:\n        /* \"#utility.yul\":4456:4485   */\n      tag_327\n        /* \"#utility.yul\":4478:4484   */\n      dup2\n        /* \"#utility.yul\":4456:4485   */\n      tag_230\n      jump\t// in\n    tag_327:\n        /* \"#utility.yul\":4451:4454   */\n      dup5\n        /* \"#utility.yul\":4447:4486   */\n      add\n        /* \"#utility.yul\":4440:4486   */\n      swap2\n      pop\n        /* \"#utility.yul\":4220:4492   */\n      pop\n        /* \"#utility.yul\":4128:4492   */\n      swap3\n      swap2\n      pop\n      pop\n      jump\t// out\n        /* \"#utility.yul\":4498:4811   */\n    tag_36:\n        /* \"#utility.yul\":4611:4615   */\n      0x00\n        /* \"#utility.yul\":4649:4651   */\n      0x20\n        /* \"#utility.yul\":4638:4647   */\n      dup3\n        /* \"#utility.yul\":4634:4652   */\n      add\n        /* \"#utility.yul\":4626:4652   */\n      swap1\n      pop\n        /* \"#utility.yul\":4698:4707   */\n      dup2\n        /* \"#utility.yul\":4692:4696   */\n      dup2\n        /* \"#utility.yul\":4688:4708   */\n      sub\n        /* \"#utility.yul\":4684:4685   */\n      0x00\n        /* \"#utility.yul\":4673:4682   */\n      dup4\n        /* \"#utility.yul\":4669:4686   */\n      add\n        /* \"#utility.yul\":4662:4709   */\n      mstore\n        /* \"#utility.yul\":4726:4804   */\n      tag_329\n        /* \"#utility.yul\":4799:4803   */\n      dup2\n        /* \"#utility.yul\":4790:4796   */\n      dup5\n        /* \"#utility.yul\":4726:4804   */\n      tag_231\n      jump\t// in\n    tag_329:\n        /* \"#utility.yul\":4718:4804   */\n      swap1\n      pop\n        /* \"#utility.yul\":4498:4811   */\n      swap3\n      swap2\n      pop\n      pop\n      jump\t// out\n        /* \"#utility.yul\":4817:4935   */\n    tag_232:\n        /* \"#utility.yul\":4904:4928   */\n      tag_331\n        /* \"#utility.yul\":4922:4927   */\n      dup2\n        /* \"#utility.yul\":4904:4928   */\n      tag_222\n      jump\t// in\n    tag_331:\n        /* \"#utility.yul\":4899:4902   */\n      dup3\n        /* \"#utility.yul\":4892:4929   */\n      mstore\n        /* \"#utility.yul\":4817:4935   */\n      pop\n      pop\n      jump\t// out\n        /* \"#utility.yul\":4941:5163   */\n    tag_39:\n        /* \"#utility.yul\":5034:5038   */\n      0x00\n        /* \"#utility.yul\":5072:5074   */\n      0x20\n        /* \"#utility.yul\":5061:5070   */\n      dup3\n        /* \"#utility.yul\":5057:5075   */\n      add\n        /* \"#utility.yul\":5049:5075   */\n      swap1\n      pop\n        /* \"#utility.yul\":5085:5156   */\n      tag_333\n        /* \"#utility.yul\":5153:5154   */\n      0x00\n        /* \"#utility.yul\":5142:5151   */\n      dup4\n        /* \"#utility.yul\":5138:5155   */\n      add\n        /* \"#utility.yul\":5129:5135   */\n      dup5\n        /* \"#utility.yul\":5085:5156   */\n      tag_232\n      jump\t// in\n    tag_333:\n        /* \"#utility.yul\":4941:5163   */\n      swap3\n      swap2\n      pop\n      pop\n      jump\t// out\n        /* \"#utility.yul\":5169:5312   */\n    tag_233:\n        /* \"#utility.yul\":5226:5231   */\n      0x00\n        /* \"#utility.yul\":5257:5263   */\n      dup2\n        /* \"#utility.yul\":5251:5264   */\n      mload\n        /* \"#utility.yul\":5242:5264   */\n      swap1\n      pop\n        /* \"#utility.yul\":5273:5306   */\n      tag_335\n        /* \"#utility.yul\":5300:5305   */\n      dup2\n        /* \"#utility.yul\":5273:5306   */\n      tag_225\n      jump\t// in\n    tag_335:\n        /* \"#utility.yul\":5169:5312   */\n      swap3\n      swap2\n      pop\n      pop\n      jump\t// out\n        /* \"#utility.yul\":5318:5669   */\n    tag_44:\n        /* \"#utility.yul\":5388:5394   */\n      0x00\n        /* \"#utility.yul\":5437:5439   */\n      0x20\n        /* \"#utility.yul\":5425:5434   */\n      dup3\n        /* \"#utility.yul\":5416:5423   */\n      dup5\n        /* \"#utility.yul\":5412:5435   */\n      sub\n        /* \"#utility.yul\":5408:5440   */\n      slt\n        /* \"#utility.yul\":5405:5524   */\n      iszero\n      tag_337\n      jumpi\n        /* \"#utility.yul\":5443:5522   */\n      tag_338\n      tag_220\n      jump\t// in\n    tag_338:\n        /* \"#utility.yul\":5405:5524   */\n    tag_337:\n        /* \"#utility.yul\":5563:5564   */\n      0x00\n        /* \"#utility.yul\":5588:5652   */\n      tag_339\n        /* \"#utility.yul\":5644:5651   */\n      dup5\n        /* \"#utility.yul\":5635:5641   */\n      dup3\n        /* \"#utility.yul\":5624:5633   */\n      dup6\n        /* \"#utility.yul\":5620:5642   */\n      add\n        /* \"#utility.yul\":5588:5652   */\n      tag_233\n      jump\t// in\n    tag_339:\n        /* \"#utility.yul\":5578:5652   */\n      swap2\n      pop\n        /* \"#utility.yul\":5534:5662   */\n      pop\n        /* \"#utility.yul\":5318:5669   */\n      swap3\n      swap2\n      pop\n      pop\n      jump\t// out\n        /* \"#utility.yul\":5675:5835   */\n    tag_234:\n        /* \"#utility.yul\":5815:5827   */\n      0x4e6f6e206d61726b657400000000000000000000000000000000000000000000\n        /* \"#utility.yul\":5811:5812   */\n      0x00\n        /* \"#utility.yul\":5803:5809   */\n      dup3\n        /* \"#utility.yul\":5799:5813   */\n      add\n        /* \"#utility.yul\":5792:5828   */\n      mstore\n        /* \"#utility.yul\":5675:5835   */\n      pop\n      jump\t// out\n        /* \"#utility.yul\":5841:6207   */\n    tag_235:\n        /* \"#utility.yul\":5983:5986   */\n      0x00\n        /* \"#utility.yul\":6004:6071   */\n      tag_342\n        /* \"#utility.yul\":6068:6070   */\n      0x0a\n        /* \"#utility.yul\":6063:6066   */\n      dup4\n        /* \"#utility.yul\":6004:6071   */\n      tag_228\n      jump\t// in\n    tag_342:\n        /* \"#utility.yul\":5997:6071   */\n      swap2\n      pop\n        /* \"#utility.yul\":6080:6173   */\n      tag_343\n        /* \"#utility.yul\":6169:6172   */\n      dup3\n        /* \"#utility.yul\":6080:6173   */\n      tag_234\n      jump\t// in\n    tag_343:\n        /* \"#utility.yul\":6198:6200   */\n      0x20\n        /* \"#utility.yul\":6193:6196   */\n      dup3\n        /* \"#utility.yul\":6189:6201   */\n      add\n        /* \"#utility.yul\":6182:6201   */\n      swap1\n      pop\n        /* \"#utility.yul\":5841:6207   */\n      swap2\n      swap1\n      pop\n      jump\t// out\n        /* \"#utility.yul\":6213:6632   */\n    tag_47:\n        /* \"#utility.yul\":6379:6383   */\n      0x00\n        /* \"#utility.yul\":6417:6419   */\n      0x20\n        /* \"#utility.yul\":6406:6415   */\n      dup3\n        /* \"#utility.yul\":6402:6420   */\n      add\n        /* \"#utility.yul\":6394:6420   */\n      swap1\n      pop\n        /* \"#utility.yul\":6466:6475   */\n      dup2\n        /* \"#utility.yul\":6460:6464   */\n      dup2\n        /* \"#utility.yul\":6456:6476   */\n      sub\n        /* \"#utility.yul\":6452:6453   */\n      0x00\n        /* \"#utility.yul\":6441:6450   */\n      dup4\n        /* \"#utility.yul\":6437:6454   */\n      add\n        /* \"#utility.yul\":6430:6477   */\n      mstore\n        /* \"#utility.yul\":6494:6625   */\n      tag_345\n        /* \"#utility.yul\":6620:6624   */\n      dup2\n        /* \"#utility.yul\":6494:6625   */\n      tag_235\n      jump\t// in\n    tag_345:\n        /* \"#utility.yul\":6486:6625   */\n      swap1\n      pop\n        /* \"#utility.yul\":6213:6632   */\n      swap2\n      swap1\n      pop\n      jump\t// out\n        /* \"#utility.yul\":6638:6755   */\n    tag_236:\n        /* \"#utility.yul\":6747:6748   */\n      0x00\n        /* \"#utility.yul\":6744:6745   */\n      dup1\n        /* \"#utility.yul\":6737:6749   */\n      revert\n        /* \"#utility.yul\":6761:6878   */\n    tag_237:\n        /* \"#utility.yul\":6870:6871   */\n      0x00\n        /* \"#utility.yul\":6867:6868   */\n      dup1\n        /* \"#utility.yul\":6860:6872   */\n      revert\n        /* \"#utility.yul\":6884:7064   */\n    tag_124:\n        /* \"#utility.yul\":6932:7009   */\n      0x4e487b7100000000000000000000000000000000000000000000000000000000\n        /* \"#utility.yul\":6929:6930   */\n      0x00\n        /* \"#utility.yul\":6922:7010   */\n      mstore\n        /* \"#utility.yul\":7029:7033   */\n      0x41\n        /* \"#utility.yul\":7026:7027   */\n      0x04\n        /* \"#utility.yul\":7019:7034   */\n      mstore\n        /* \"#utility.yul\":7053:7057   */\n      0x24\n        /* \"#utility.yul\":7050:7051   */\n      0x00\n        /* \"#utility.yul\":7043:7058   */\n      revert\n        /* \"#utility.yul\":7070:7351   */\n    tag_238:\n        /* \"#utility.yul\":7153:7180   */\n      tag_350\n        /* \"#utility.yul\":7175:7179   */\n      dup3\n        /* \"#utility.yul\":7153:7180   */\n      tag_230\n      jump\t// in\n    tag_350:\n        /* \"#utility.yul\":7145:7151   */\n      dup2\n        /* \"#utility.yul\":7141:7181   */\n      add\n        /* \"#utility.yul\":7283:7289   */\n      dup2\n        /* \"#utility.yul\":7271:7281   */\n      dup2\n        /* \"#utility.yul\":7268:7290   */\n      lt\n        /* \"#utility.yul\":7247:7265   */\n      0xffffffffffffffff\n        /* \"#utility.yul\":7235:7245   */\n      dup3\n        /* \"#utility.yul\":7232:7266   */\n      gt\n        /* \"#utility.yul\":7229:7291   */\n      or\n        /* \"#utility.yul\":7226:7314   */\n      iszero\n      tag_351\n      jumpi\n        /* \"#utility.yul\":7294:7312   */\n      tag_352\n      tag_124\n      jump\t// in\n    tag_352:\n        /* \"#utility.yul\":7226:7314   */\n    tag_351:\n        /* \"#utility.yul\":7334:7344   */\n      dup1\n        /* \"#utility.yul\":7330:7332   */\n      0x40\n        /* \"#utility.yul\":7323:7345   */\n      mstore\n        /* \"#utility.yul\":7113:7351   */\n      pop\n        /* \"#utility.yul\":7070:7351   */\n      pop\n      pop\n      jump\t// out\n        /* \"#utility.yul\":7357:7486   */\n    tag_239:\n        /* \"#utility.yul\":7391:7397   */\n      0x00\n        /* \"#utility.yul\":7418:7438   */\n      tag_354\n      tag_219\n      jump\t// in\n    tag_354:\n        /* \"#utility.yul\":7408:7438   */\n      swap1\n      pop\n        /* \"#utility.yul\":7447:7480   */\n      tag_355\n        /* \"#utility.yul\":7475:7479   */\n      dup3\n        /* \"#utility.yul\":7467:7473   */\n      dup3\n        /* \"#utility.yul\":7447:7480   */\n      tag_238\n      jump\t// in\n    tag_355:\n        /* \"#utility.yul\":7357:7486   */\n      swap2\n      swap1\n      pop\n      jump\t// out\n        /* \"#utility.yul\":7492:7800   */\n    tag_240:\n        /* \"#utility.yul\":7554:7558   */\n      0x00\n        /* \"#utility.yul\":7644:7662   */\n      0xffffffffffffffff\n        /* \"#utility.yul\":7636:7642   */\n      dup3\n        /* \"#utility.yul\":7633:7663   */\n      gt\n        /* \"#utility.yul\":7630:7686   */\n      iszero\n      tag_357\n      jumpi\n        /* \"#utility.yul\":7666:7684   */\n      tag_358\n      tag_124\n      jump\t// in\n    tag_358:\n        /* \"#utility.yul\":7630:7686   */\n    tag_357:\n        /* \"#utility.yul\":7704:7733   */\n      tag_359\n        /* \"#utility.yul\":7726:7732   */\n      dup3\n        /* \"#utility.yul\":7704:7733   */\n      tag_230\n      jump\t// in\n    tag_359:\n        /* \"#utility.yul\":7696:7733   */\n      swap1\n      pop\n        /* \"#utility.yul\":7788:7792   */\n      0x20\n        /* \"#utility.yul\":7782:7786   */\n      dup2\n        /* \"#utility.yul\":7778:7793   */\n      add\n        /* \"#utility.yul\":7770:7793   */\n      swap1\n      pop\n        /* \"#utility.yul\":7492:7800   */\n      swap2\n      swap1\n      pop\n      jump\t// out\n        /* \"#utility.yul\":7806:8227   */\n    tag_241:\n        /* \"#utility.yul\":7895:7900   */\n      0x00\n        /* \"#utility.yul\":7920:7986   */\n      tag_361\n        /* \"#utility.yul\":7936:7985   */\n      tag_362\n        /* \"#utility.yul\":7978:7984   */\n      dup5\n        /* \"#utility.yul\":7936:7985   */\n      tag_240\n      jump\t// in\n    tag_362:\n        /* \"#utility.yul\":7920:7986   */\n      tag_239\n      jump\t// in\n    tag_361:\n        /* \"#utility.yul\":7911:7986   */\n      swap1\n      pop\n        /* \"#utility.yul\":8009:8015   */\n      dup3\n        /* \"#utility.yul\":8002:8007   */\n      dup2\n        /* \"#utility.yul\":7995:8016   */\n      mstore\n        /* \"#utility.yul\":8047:8051   */\n      0x20\n        /* \"#utility.yul\":8040:8045   */\n      dup2\n        /* \"#utility.yul\":8036:8052   */\n      add\n        /* \"#utility.yul\":8085:8088   */\n      dup5\n        /* \"#utility.yul\":8076:8082   */\n      dup5\n        /* \"#utility.yul\":8071:8074   */\n      dup5\n        /* \"#utility.yul\":8067:8083   */\n      add\n        /* \"#utility.yul\":8064:8089   */\n      gt\n        /* \"#utility.yul\":8061:8173   */\n      iszero\n      tag_363\n      jumpi\n        /* \"#utility.yul\":8092:8171   */\n      tag_364\n      tag_237\n      jump\t// in\n    tag_364:\n        /* \"#utility.yul\":8061:8173   */\n    tag_363:\n        /* \"#utility.yul\":8182:8221   */\n      tag_365\n        /* \"#utility.yul\":8214:8220   */\n      dup5\n        /* \"#utility.yul\":8209:8212   */\n      dup3\n        /* \"#utility.yul\":8204:8207   */\n      dup6\n        /* \"#utility.yul\":8182:8221   */\n      tag_229\n      jump\t// in\n    tag_365:\n        /* \"#utility.yul\":7901:8227   */\n      pop\n        /* \"#utility.yul\":7806:8227   */\n      swap4\n      swap3\n      pop\n      pop\n      pop\n      jump\t// out\n        /* \"#utility.yul\":8247:8602   */\n    tag_242:\n        /* \"#utility.yul\":8314:8319   */\n      0x00\n        /* \"#utility.yul\":8363:8366   */\n      dup3\n        /* \"#utility.yul\":8356:8360   */\n      0x1f\n        /* \"#utility.yul\":8348:8354   */\n      dup4\n        /* \"#utility.yul\":8344:8361   */\n      add\n        /* \"#utility.yul\":8340:8367   */\n      slt\n        /* \"#utility.yul\":8330:8452   */\n      tag_367\n      jumpi\n        /* \"#utility.yul\":8371:8450   */\n      tag_368\n      tag_236\n      jump\t// in\n    tag_368:\n        /* \"#utility.yul\":8330:8452   */\n    tag_367:\n        /* \"#utility.yul\":8481:8487   */\n      dup2\n        /* \"#utility.yul\":8475:8488   */\n      mload\n        /* \"#utility.yul\":8506:8596   */\n      tag_369\n        /* \"#utility.yul\":8592:8595   */\n      dup5\n        /* \"#utility.yul\":8584:8590   */\n      dup3\n        /* \"#utility.yul\":8577:8581   */\n      0x20\n        /* \"#utility.yul\":8569:8575   */\n      dup7\n        /* \"#utility.yul\":8565:8582   */\n      add\n        /* \"#utility.yul\":8506:8596   */\n      tag_241\n      jump\t// in\n    tag_369:\n        /* \"#utility.yul\":8497:8596   */\n      swap2\n      pop\n        /* \"#utility.yul\":8320:8602   */\n      pop\n        /* \"#utility.yul\":8247:8602   */\n      swap3\n      swap2\n      pop\n      pop\n      jump\t// out\n        /* \"#utility.yul\":8608:9132   */\n    tag_52:\n        /* \"#utility.yul\":8688:8694   */\n      0x00\n        /* \"#utility.yul\":8737:8739   */\n      0x20\n        /* \"#utility.yul\":8725:8734   */\n      dup3\n        /* \"#utility.yul\":8716:8723   */\n      dup5\n        /* \"#utility.yul\":8712:8735   */\n      sub\n        /* \"#utility.yul\":8708:8740   */\n      slt\n        /* \"#utility.yul\":8705:8824   */\n      iszero\n      tag_371\n      jumpi\n        /* \"#utility.yul\":8743:8822   */\n      tag_372\n      tag_220\n      jump\t// in\n    tag_372:\n        /* \"#utility.yul\":8705:8824   */\n    tag_371:\n        /* \"#utility.yul\":8884:8885   */\n      0x00\n        /* \"#utility.yul\":8873:8882   */\n      dup3\n        /* \"#utility.yul\":8869:8886   */\n      add\n        /* \"#utility.yul\":8863:8887   */\n      mload\n        /* \"#utility.yul\":8914:8932   */\n      0xffffffffffffffff\n        /* \"#utility.yul\":8906:8912   */\n      dup2\n        /* \"#utility.yul\":8903:8933   */\n      gt\n        /* \"#utility.yul\":8900:9017   */\n      iszero\n      tag_373\n      jumpi\n        /* \"#utility.yul\":8936:9015   */\n      tag_374\n      tag_221\n      jump\t// in\n    tag_374:\n        /* \"#utility.yul\":8900:9017   */\n    tag_373:\n        /* \"#utility.yul\":9041:9115   */\n      tag_375\n        /* \"#utility.yul\":9107:9114   */\n      dup5\n        /* \"#utility.yul\":9098:9104   */\n      dup3\n        /* \"#utility.yul\":9087:9096   */\n      dup6\n        /* \"#utility.yul\":9083:9105   */\n      add\n        /* \"#utility.yul\":9041:9115   */\n      tag_242\n      jump\t// in\n    tag_375:\n        /* \"#utility.yul\":9031:9115   */\n      swap2\n      pop\n        /* \"#utility.yul\":8834:9125   */\n      pop\n        /* \"#utility.yul\":8608:9132   */\n      swap3\n      swap2\n      pop\n      pop\n      jump\t// out\n        /* \"#utility.yul\":9138:9318   */\n    tag_243:\n        /* \"#utility.yul\":9186:9263   */\n      0x4e487b7100000000000000000000000000000000000000000000000000000000\n        /* \"#utility.yul\":9183:9184   */\n      0x00\n        /* \"#utility.yul\":9176:9264   */\n      mstore\n        /* \"#utility.yul\":9283:9287   */\n      0x22\n        /* \"#utility.yul\":9280:9281   */\n      0x04\n        /* \"#utility.yul\":9273:9288   */\n      mstore\n        /* \"#utility.yul\":9307:9311   */\n      0x24\n        /* \"#utility.yul\":9304:9305   */\n      0x00\n        /* \"#utility.yul\":9297:9312   */\n      revert\n        /* \"#utility.yul\":9324:9644   */\n    tag_57:\n        /* \"#utility.yul\":9368:9374   */\n      0x00\n        /* \"#utility.yul\":9405:9406   */\n      0x02\n        /* \"#utility.yul\":9399:9403   */\n      dup3\n        /* \"#utility.yul\":9395:9407   */\n      div\n        /* \"#utility.yul\":9385:9407   */\n      swap1\n      pop\n        /* \"#utility.yul\":9452:9453   */\n      0x01\n        /* \"#utility.yul\":9446:9450   */\n      dup3\n        /* \"#utility.yul\":9442:9454   */\n      and\n        /* \"#utility.yul\":9473:9491   */\n      dup1\n        /* \"#utility.yul\":9463:9544   */\n      tag_378\n      jumpi\n        /* \"#utility.yul\":9529:9533   */\n      0x7f\n        /* \"#utility.yul\":9521:9527   */\n      dup3\n        /* \"#utility.yul\":9517:9534   */\n      and\n        /* \"#utility.yul\":9507:9534   */\n      swap2\n      pop\n        /* \"#utility.yul\":9463:9544   */\n    tag_378:\n        /* \"#utility.yul\":9591:9593   */\n      0x20\n        /* \"#utility.yul\":9583:9589   */\n      dup3\n        /* \"#utility.yul\":9580:9594   */\n      lt\n        /* \"#utility.yul\":9560:9578   */\n      dup2\n        /* \"#utility.yul\":9557:9595   */\n      eq\n        /* \"#utility.yul\":9554:9638   */\n      iszero\n      tag_379\n      jumpi\n        /* \"#utility.yul\":9610:9628   */\n      tag_380\n      tag_243\n      jump\t// in\n    tag_380:\n        /* \"#utility.yul\":9554:9638   */\n    tag_379:\n        /* \"#utility.yul\":9375:9644   */\n      pop\n        /* \"#utility.yul\":9324:9644   */\n      swap2\n      swap1\n      pop\n      jump\t// out\n        /* \"#utility.yul\":9650:9798   */\n    tag_244:\n        /* \"#utility.yul\":9752:9763   */\n      0x00\n        /* \"#utility.yul\":9789:9792   */\n      dup2\n        /* \"#utility.yul\":9774:9792   */\n      swap1\n      pop\n        /* \"#utility.yul\":9650:9798   */\n      swap3\n      swap2\n      pop\n      pop\n      jump\t// out\n        /* \"#utility.yul\":9804:9945   */\n    tag_245:\n        /* \"#utility.yul\":9853:9857   */\n      0x00\n        /* \"#utility.yul\":9876:9879   */\n      dup2\n        /* \"#utility.yul\":9868:9879   */\n      swap1\n      pop\n        /* \"#utility.yul\":9899:9902   */\n      dup2\n        /* \"#utility.yul\":9896:9897   */\n      0x00\n        /* \"#utility.yul\":9889:9903   */\n      mstore\n        /* \"#utility.yul\":9933:9937   */\n      0x20\n        /* \"#utility.yul\":9930:9931   */\n      0x00\n        /* \"#utility.yul\":9920:9938   */\n      keccak256\n        /* \"#utility.yul\":9912:9938   */\n      swap1\n      pop\n        /* \"#utility.yul\":9804:9945   */\n      swap2\n      swap1\n      pop\n      jump\t// out\n        /* \"#utility.yul\":9975:10820   */\n    tag_246:\n        /* \"#utility.yul\":10078:10081   */\n      0x00\n        /* \"#utility.yul\":10115:10120   */\n      dup2\n        /* \"#utility.yul\":10109:10121   */\n      sload\n        /* \"#utility.yul\":10144:10180   */\n      tag_384\n        /* \"#utility.yul\":10170:10179   */\n      dup2\n        /* \"#utility.yul\":10144:10180   */\n      tag_57\n      jump\t// in\n    tag_384:\n        /* \"#utility.yul\":10196:10285   */\n      tag_385\n        /* \"#utility.yul\":10278:10284   */\n      dup2\n        /* \"#utility.yul\":10273:10276   */\n      dup7\n        /* \"#utility.yul\":10196:10285   */\n      tag_244\n      jump\t// in\n    tag_385:\n        /* \"#utility.yul\":10189:10285   */\n      swap5\n      pop\n        /* \"#utility.yul\":10316:10317   */\n      0x01\n        /* \"#utility.yul\":10305:10314   */\n      dup3\n        /* \"#utility.yul\":10301:10318   */\n      and\n        /* \"#utility.yul\":10332:10333   */\n      0x00\n        /* \"#utility.yul\":10327:10464   */\n      dup2\n      eq\n      tag_387\n      jumpi\n        /* \"#utility.yul\":10478:10479   */\n      0x01\n        /* \"#utility.yul\":10473:10814   */\n      dup2\n      eq\n      tag_388\n      jumpi\n        /* \"#utility.yul\":10294:10814   */\n      jump(tag_386)\n        /* \"#utility.yul\":10327:10464   */\n    tag_387:\n        /* \"#utility.yul\":10411:10415   */\n      0xff\n        /* \"#utility.yul\":10407:10416   */\n      not\n        /* \"#utility.yul\":10396:10405   */\n      dup4\n        /* \"#utility.yul\":10392:10417   */\n      and\n        /* \"#utility.yul\":10387:10390   */\n      dup7\n        /* \"#utility.yul\":10380:10418   */\n      mstore\n        /* \"#utility.yul\":10447:10453   */\n      dup2\n        /* \"#utility.yul\":10442:10445   */\n      dup7\n        /* \"#utility.yul\":10438:10454   */\n      add\n        /* \"#utility.yul\":10431:10454   */\n      swap4\n      pop\n        /* \"#utility.yul\":10327:10464   */\n      jump(tag_386)\n        /* \"#utility.yul\":10473:10814   */\n    tag_388:\n        /* \"#utility.yul\":10540:10578   */\n      tag_389\n        /* \"#utility.yul\":10572:10577   */\n      dup6\n        /* \"#utility.yul\":10540:10578   */\n      tag_245\n      jump\t// in\n    tag_389:\n        /* \"#utility.yul\":10600:10601   */\n      0x00\n        /* \"#utility.yul\":10614:10768   */\n    tag_390:\n        /* \"#utility.yul\":10628:10634   */\n      dup4\n        /* \"#utility.yul\":10625:10626   */\n      dup2\n        /* \"#utility.yul\":10622:10635   */\n      lt\n        /* \"#utility.yul\":10614:10768   */\n      iszero\n      tag_392\n      jumpi\n        /* \"#utility.yul\":10702:10709   */\n      dup2\n        /* \"#utility.yul\":10696:10710   */\n      sload\n        /* \"#utility.yul\":10692:10693   */\n      dup2\n        /* \"#utility.yul\":10687:10690   */\n      dup10\n        /* \"#utility.yul\":10683:10694   */\n      add\n        /* \"#utility.yul\":10676:10711   */\n      mstore\n        /* \"#utility.yul\":10752:10753   */\n      0x01\n        /* \"#utility.yul\":10743:10750   */\n      dup3\n        /* \"#utility.yul\":10739:10754   */\n      add\n        /* \"#utility.yul\":10728:10754   */\n      swap2\n      pop\n        /* \"#utility.yul\":10650:10654   */\n      0x20\n        /* \"#utility.yul\":10647:10648   */\n      dup2\n        /* \"#utility.yul\":10643:10655   */\n      add\n        /* \"#utility.yul\":10638:10655   */\n      swap1\n      pop\n        /* \"#utility.yul\":10614:10768   */\n      jump(tag_390)\n    tag_392:\n        /* \"#utility.yul\":10797:10803   */\n      dup4\n        /* \"#utility.yul\":10792:10795   */\n      dup9\n        /* \"#utility.yul\":10788:10804   */\n      add\n        /* \"#utility.yul\":10781:10804   */\n      swap6\n      pop\n        /* \"#utility.yul\":10480:10814   */\n      pop\n      pop\n        /* \"#utility.yul\":10294:10814   */\n    tag_386:\n      pop\n        /* \"#utility.yul\":10082:10820   */\n      pop\n      pop\n        /* \"#utility.yul\":9975:10820   */\n      swap3\n      swap2\n      pop\n      pop\n      jump\t// out\n        /* \"#utility.yul\":10826:11203   */\n    tag_247:\n        /* \"#utility.yul\":10932:10935   */\n      0x00\n        /* \"#utility.yul\":10960:10999   */\n      tag_394\n        /* \"#utility.yul\":10993:10998   */\n      dup3\n        /* \"#utility.yul\":10960:10999   */\n      tag_227\n      jump\t// in\n    tag_394:\n        /* \"#utility.yul\":11015:11104   */\n      tag_395\n        /* \"#utility.yul\":11097:11103   */\n      dup2\n        /* \"#utility.yul\":11092:11095   */\n      dup6\n        /* \"#utility.yul\":11015:11104   */\n      tag_244\n      jump\t// in\n    tag_395:\n        /* \"#utility.yul\":11008:11104   */\n      swap4\n      pop\n        /* \"#utility.yul\":11113:11165   */\n      tag_396\n        /* \"#utility.yul\":11158:11164   */\n      dup2\n        /* \"#utility.yul\":11153:11156   */\n      dup6\n        /* \"#utility.yul\":11146:11150   */\n      0x20\n        /* \"#utility.yul\":11139:11144   */\n      dup7\n        /* \"#utility.yul\":11135:11151   */\n      add\n        /* \"#utility.yul\":11113:11165   */\n      tag_229\n      jump\t// in\n    tag_396:\n        /* \"#utility.yul\":11190:11196   */\n      dup1\n        /* \"#utility.yul\":11185:11188   */\n      dup5\n        /* \"#utility.yul\":11181:11197   */\n      add\n        /* \"#utility.yul\":11174:11197   */\n      swap2\n      pop\n        /* \"#utility.yul\":10936:11203   */\n      pop\n        /* \"#utility.yul\":10826:11203   */\n      swap3\n      swap2\n      pop\n      pop\n      jump\t// out\n        /* \"#utility.yul\":11209:13044   */\n    tag_79:\n        /* \"#utility.yul\":11801:11804   */\n      0x00\n        /* \"#utility.yul\":11823:11915   */\n      tag_398\n        /* \"#utility.yul\":11911:11914   */\n      dup3\n        /* \"#utility.yul\":11902:11908   */\n      dup15\n        /* \"#utility.yul\":11823:11915   */\n      tag_246\n      jump\t// in\n    tag_398:\n        /* \"#utility.yul\":11816:11915   */\n      swap2\n      pop\n        /* \"#utility.yul\":11932:12027   */\n      tag_399\n        /* \"#utility.yul\":12023:12026   */\n      dup3\n        /* \"#utility.yul\":12014:12020   */\n      dup14\n        /* \"#utility.yul\":11932:12027   */\n      tag_247\n      jump\t// in\n    tag_399:\n        /* \"#utility.yul\":11925:12027   */\n      swap2\n      pop\n        /* \"#utility.yul\":12044:12136   */\n      tag_400\n        /* \"#utility.yul\":12132:12135   */\n      dup3\n        /* \"#utility.yul\":12123:12129   */\n      dup13\n        /* \"#utility.yul\":12044:12136   */\n      tag_246\n      jump\t// in\n    tag_400:\n        /* \"#utility.yul\":12037:12136   */\n      swap2\n      pop\n        /* \"#utility.yul\":12153:12248   */\n      tag_401\n        /* \"#utility.yul\":12244:12247   */\n      dup3\n        /* \"#utility.yul\":12235:12241   */\n      dup12\n        /* \"#utility.yul\":12153:12248   */\n      tag_247\n      jump\t// in\n    tag_401:\n        /* \"#utility.yul\":12146:12248   */\n      swap2\n      pop\n        /* \"#utility.yul\":12265:12357   */\n      tag_402\n        /* \"#utility.yul\":12353:12356   */\n      dup3\n        /* \"#utility.yul\":12344:12350   */\n      dup11\n        /* \"#utility.yul\":12265:12357   */\n      tag_246\n      jump\t// in\n    tag_402:\n        /* \"#utility.yul\":12258:12357   */\n      swap2\n      pop\n        /* \"#utility.yul\":12374:12466   */\n      tag_403\n        /* \"#utility.yul\":12462:12465   */\n      dup3\n        /* \"#utility.yul\":12453:12459   */\n      dup10\n        /* \"#utility.yul\":12374:12466   */\n      tag_246\n      jump\t// in\n    tag_403:\n        /* \"#utility.yul\":12367:12466   */\n      swap2\n      pop\n        /* \"#utility.yul\":12483:12578   */\n      tag_404\n        /* \"#utility.yul\":12574:12577   */\n      dup3\n        /* \"#utility.yul\":12565:12571   */\n      dup9\n        /* \"#utility.yul\":12483:12578   */\n      tag_247\n      jump\t// in\n    tag_404:\n        /* \"#utility.yul\":12476:12578   */\n      swap2\n      pop\n        /* \"#utility.yul\":12595:12687   */\n      tag_405\n        /* \"#utility.yul\":12683:12686   */\n      dup3\n        /* \"#utility.yul\":12674:12680   */\n      dup8\n        /* \"#utility.yul\":12595:12687   */\n      tag_246\n      jump\t// in\n    tag_405:\n        /* \"#utility.yul\":12588:12687   */\n      swap2\n      pop\n        /* \"#utility.yul\":12704:12796   */\n      tag_406\n        /* \"#utility.yul\":12792:12795   */\n      dup3\n        /* \"#utility.yul\":12783:12789   */\n      dup7\n        /* \"#utility.yul\":12704:12796   */\n      tag_246\n      jump\t// in\n    tag_406:\n        /* \"#utility.yul\":12697:12796   */\n      swap2\n      pop\n        /* \"#utility.yul\":12813:12908   */\n      tag_407\n        /* \"#utility.yul\":12904:12907   */\n      dup3\n        /* \"#utility.yul\":12895:12901   */\n      dup6\n        /* \"#utility.yul\":12813:12908   */\n      tag_247\n      jump\t// in\n    tag_407:\n        /* \"#utility.yul\":12806:12908   */\n      swap2\n      pop\n        /* \"#utility.yul\":12925:13018   */\n      tag_408\n        /* \"#utility.yul\":13014:13017   */\n      dup3\n        /* \"#utility.yul\":13004:13011   */\n      dup5\n        /* \"#utility.yul\":12925:13018   */\n      tag_246\n      jump\t// in\n    tag_408:\n        /* \"#utility.yul\":12918:13018   */\n      swap2\n      pop\n        /* \"#utility.yul\":13035:13038   */\n      dup2\n        /* \"#utility.yul\":13028:13038   */\n      swap1\n      pop\n        /* \"#utility.yul\":11209:13044   */\n      swap13\n      swap12\n      pop\n      pop\n      pop\n      pop\n      pop\n      pop\n      pop\n      pop\n      pop\n      pop\n      pop\n      pop\n      jump\t// out\n        /* \"#utility.yul\":13050:13264   */\n    tag_248:\n        /* \"#utility.yul\":13190:13256   */\n      0x7b226e616d65223a202200000000000000000000000000000000000000000000\n        /* \"#utility.yul\":13186:13187   */\n      0x00\n        /* \"#utility.yul\":13178:13184   */\n      dup3\n        /* \"#utility.yul\":13174:13188   */\n      add\n        /* \"#utility.yul\":13167:13257   */\n      mstore\n        /* \"#utility.yul\":13050:13264   */\n      pop\n      jump\t// out\n        /* \"#utility.yul\":13270:13672   */\n    tag_249:\n        /* \"#utility.yul\":13430:13433   */\n      0x00\n        /* \"#utility.yul\":13451:13536   */\n      tag_411\n        /* \"#utility.yul\":13533:13535   */\n      0x0a\n        /* \"#utility.yul\":13528:13531   */\n      dup4\n        /* \"#utility.yul\":13451:13536   */\n      tag_244\n      jump\t// in\n    tag_411:\n        /* \"#utility.yul\":13444:13536   */\n      swap2\n      pop\n        /* \"#utility.yul\":13545:13638   */\n      tag_412\n        /* \"#utility.yul\":13634:13637   */\n      dup3\n        /* \"#utility.yul\":13545:13638   */\n      tag_248\n      jump\t// in\n    tag_412:\n        /* \"#utility.yul\":13663:13665   */\n      0x0a\n        /* \"#utility.yul\":13658:13661   */\n      dup3\n        /* \"#utility.yul\":13654:13666   */\n      add\n        /* \"#utility.yul\":13647:13666   */\n      swap1\n      pop\n        /* \"#utility.yul\":13270:13672   */\n      swap2\n      swap1\n      pop\n      jump\t// out\n        /* \"#utility.yul\":13678:14133   */\n    tag_250:\n        /* \"#utility.yul\":13818:13884   */\n      0x222c20226465736372697074696f6e223a202257656c636f6d6520746f207468\n        /* \"#utility.yul\":13814:13815   */\n      0x00\n        /* \"#utility.yul\":13806:13812   */\n      dup3\n        /* \"#utility.yul\":13802:13816   */\n      add\n        /* \"#utility.yul\":13795:13885   */\n      mstore\n        /* \"#utility.yul\":13919:13985   */\n      0x65206d61676963616c20776f726c64206f662074696d65666c6f77222c202269\n        /* \"#utility.yul\":13914:13916   */\n      0x20\n        /* \"#utility.yul\":13906:13912   */\n      dup3\n        /* \"#utility.yul\":13902:13917   */\n      add\n        /* \"#utility.yul\":13895:13986   */\n      mstore\n        /* \"#utility.yul\":14020:14086   */\n      0x6d616765223a2022646174613a696d6167652f7376672b786d6c3b6261736536\n        /* \"#utility.yul\":14015:14017   */\n      0x40\n        /* \"#utility.yul\":14007:14013   */\n      dup3\n        /* \"#utility.yul\":14003:14018   */\n      add\n        /* \"#utility.yul\":13996:14087   */\n      mstore\n        /* \"#utility.yul\":14121:14125   */\n      0x342c000000000000000000000000000000000000000000000000000000000000\n        /* \"#utility.yul\":14116:14118   */\n      0x60\n        /* \"#utility.yul\":14108:14114   */\n      dup3\n        /* \"#utility.yul\":14104:14119   */\n      add\n        /* \"#utility.yul\":14097:14126   */\n      mstore\n        /* \"#utility.yul\":13678:14133   */\n      pop\n      jump\t// out\n        /* \"#utility.yul\":14139:14541   */\n    tag_251:\n        /* \"#utility.yul\":14299:14302   */\n      0x00\n        /* \"#utility.yul\":14320:14405   */\n      tag_415\n        /* \"#utility.yul\":14402:14404   */\n      0x62\n        /* \"#utility.yul\":14397:14400   */\n      dup4\n        /* \"#utility.yul\":14320:14405   */\n      tag_244\n      jump\t// in\n    tag_415:\n        /* \"#utility.yul\":14313:14405   */\n      swap2\n      pop\n        /* \"#utility.yul\":14414:14507   */\n      tag_416\n        /* \"#utility.yul\":14503:14506   */\n      dup3\n        /* \"#utility.yul\":14414:14507   */\n      tag_250\n      jump\t// in\n    tag_416:\n        /* \"#utility.yul\":14532:14534   */\n      0x62\n        /* \"#utility.yul\":14527:14530   */\n      dup3\n        /* \"#utility.yul\":14523:14535   */\n      add\n        /* \"#utility.yul\":14516:14535   */\n      swap1\n      pop\n        /* \"#utility.yul\":14139:14541   */\n      swap2\n      swap1\n      pop\n      jump\t// out\n        /* \"#utility.yul\":14547:14761   */\n    tag_252:\n        /* \"#utility.yul\":14687:14753   */\n      0x222c226d61726b65744964223a22000000000000000000000000000000000000\n        /* \"#utility.yul\":14683:14684   */\n      0x00\n        /* \"#utility.yul\":14675:14681   */\n      dup3\n        /* \"#utility.yul\":14671:14685   */\n      add\n        /* \"#utility.yul\":14664:14754   */\n      mstore\n        /* \"#utility.yul\":14547:14761   */\n      pop\n      jump\t// out\n        /* \"#utility.yul\":14767:15169   */\n    tag_253:\n        /* \"#utility.yul\":14927:14930   */\n      0x00\n        /* \"#utility.yul\":14948:15033   */\n      tag_419\n        /* \"#utility.yul\":15030:15032   */\n      0x0e\n        /* \"#utility.yul\":15025:15028   */\n      dup4\n        /* \"#utility.yul\":14948:15033   */\n      tag_244\n      jump\t// in\n    tag_419:\n        /* \"#utility.yul\":14941:15033   */\n      swap2\n      pop\n        /* \"#utility.yul\":15042:15135   */\n      tag_420\n        /* \"#utility.yul\":15131:15134   */\n      dup3\n        /* \"#utility.yul\":15042:15135   */\n      tag_252\n      jump\t// in\n    tag_420:\n        /* \"#utility.yul\":15160:15162   */\n      0x0e\n        /* \"#utility.yul\":15155:15158   */\n      dup3\n        /* \"#utility.yul\":15151:15163   */\n      add\n        /* \"#utility.yul\":15144:15163   */\n      swap1\n      pop\n        /* \"#utility.yul\":14767:15169   */\n      swap2\n      swap1\n      pop\n      jump\t// out\n        /* \"#utility.yul\":15175:15389   */\n    tag_254:\n        /* \"#utility.yul\":15315:15381   */\n      0x222c2274617264654964223a2200000000000000000000000000000000000000\n        /* \"#utility.yul\":15311:15312   */\n      0x00\n        /* \"#utility.yul\":15303:15309   */\n      dup3\n        /* \"#utility.yul\":15299:15313   */\n      add\n        /* \"#utility.yul\":15292:15382   */\n      mstore\n        /* \"#utility.yul\":15175:15389   */\n      pop\n      jump\t// out\n        /* \"#utility.yul\":15395:15797   */\n    tag_255:\n        /* \"#utility.yul\":15555:15558   */\n      0x00\n        /* \"#utility.yul\":15576:15661   */\n      tag_423\n        /* \"#utility.yul\":15658:15660   */\n      0x0d\n        /* \"#utility.yul\":15653:15656   */\n      dup4\n        /* \"#utility.yul\":15576:15661   */\n      tag_244\n      jump\t// in\n    tag_423:\n        /* \"#utility.yul\":15569:15661   */\n      swap2\n      pop\n        /* \"#utility.yul\":15670:15763   */\n      tag_424\n        /* \"#utility.yul\":15759:15762   */\n      dup3\n        /* \"#utility.yul\":15670:15763   */\n      tag_254\n      jump\t// in\n    tag_424:\n        /* \"#utility.yul\":15788:15790   */\n      0x0d\n        /* \"#utility.yul\":15783:15786   */\n      dup3\n        /* \"#utility.yul\":15779:15791   */\n      add\n        /* \"#utility.yul\":15772:15791   */\n      swap1\n      pop\n        /* \"#utility.yul\":15395:15797   */\n      swap2\n      swap1\n      pop\n      jump\t// out\n        /* \"#utility.yul\":15803:16017   */\n    tag_256:\n        /* \"#utility.yul\":15943:16009   */\n      0x222c226e66744964223a22000000000000000000000000000000000000000000\n        /* \"#utility.yul\":15939:15940   */\n      0x00\n        /* \"#utility.yul\":15931:15937   */\n      dup3\n        /* \"#utility.yul\":15927:15941   */\n      add\n        /* \"#utility.yul\":15920:16010   */\n      mstore\n        /* \"#utility.yul\":15803:16017   */\n      pop\n      jump\t// out\n        /* \"#utility.yul\":16023:16425   */\n    tag_257:\n        /* \"#utility.yul\":16183:16186   */\n      0x00\n        /* \"#utility.yul\":16204:16289   */\n      tag_427\n        /* \"#utility.yul\":16286:16288   */\n      0x0b\n        /* \"#utility.yul\":16281:16284   */\n      dup4\n        /* \"#utility.yul\":16204:16289   */\n      tag_244\n      jump\t// in\n    tag_427:\n        /* \"#utility.yul\":16197:16289   */\n      swap2\n      pop\n        /* \"#utility.yul\":16298:16391   */\n      tag_428\n        /* \"#utility.yul\":16387:16390   */\n      dup3\n        /* \"#utility.yul\":16298:16391   */\n      tag_256\n      jump\t// in\n    tag_428:\n        /* \"#utility.yul\":16416:16418   */\n      0x0b\n        /* \"#utility.yul\":16411:16414   */\n      dup3\n        /* \"#utility.yul\":16407:16419   */\n      add\n        /* \"#utility.yul\":16400:16419   */\n      swap1\n      pop\n        /* \"#utility.yul\":16023:16425   */\n      swap2\n      swap1\n      pop\n      jump\t// out\n        /* \"#utility.yul\":16431:16645   */\n    tag_258:\n        /* \"#utility.yul\":16571:16637   */\n      0x222c2276616c7565223a22000000000000000000000000000000000000000000\n        /* \"#utility.yul\":16567:16568   */\n      0x00\n        /* \"#utility.yul\":16559:16565   */\n      dup3\n        /* \"#utility.yul\":16555:16569   */\n      add\n        /* \"#utility.yul\":16548:16638   */\n      mstore\n        /* \"#utility.yul\":16431:16645   */\n      pop\n      jump\t// out\n        /* \"#utility.yul\":16651:17053   */\n    tag_259:\n        /* \"#utility.yul\":16811:16814   */\n      0x00\n        /* \"#utility.yul\":16832:16917   */\n      tag_431\n        /* \"#utility.yul\":16914:16916   */\n      0x0b\n        /* \"#utility.yul\":16909:16912   */\n      dup4\n        /* \"#utility.yul\":16832:16917   */\n      tag_244\n      jump\t// in\n    tag_431:\n        /* \"#utility.yul\":16825:16917   */\n      swap2\n      pop\n        /* \"#utility.yul\":16926:17019   */\n      tag_432\n        /* \"#utility.yul\":17015:17018   */\n      dup3\n        /* \"#utility.yul\":16926:17019   */\n      tag_258\n      jump\t// in\n    tag_432:\n        /* \"#utility.yul\":17044:17046   */\n      0x0b\n        /* \"#utility.yul\":17039:17042   */\n      dup3\n        /* \"#utility.yul\":17035:17047   */\n      add\n        /* \"#utility.yul\":17028:17047   */\n      swap1\n      pop\n        /* \"#utility.yul\":16651:17053   */\n      swap2\n      swap1\n      pop\n      jump\t// out\n        /* \"#utility.yul\":17059:17273   */\n    tag_260:\n        /* \"#utility.yul\":17199:17265   */\n      0x222c226e667454797065223a2200000000000000000000000000000000000000\n        /* \"#utility.yul\":17195:17196   */\n      0x00\n        /* \"#utility.yul\":17187:17193   */\n      dup3\n        /* \"#utility.yul\":17183:17197   */\n      add\n        /* \"#utility.yul\":17176:17266   */\n      mstore\n        /* \"#utility.yul\":17059:17273   */\n      pop\n      jump\t// out\n        /* \"#utility.yul\":17279:17681   */\n    tag_261:\n        /* \"#utility.yul\":17439:17442   */\n      0x00\n        /* \"#utility.yul\":17460:17545   */\n      tag_435\n        /* \"#utility.yul\":17542:17544   */\n      0x0d\n        /* \"#utility.yul\":17537:17540   */\n      dup4\n        /* \"#utility.yul\":17460:17545   */\n      tag_244\n      jump\t// in\n    tag_435:\n        /* \"#utility.yul\":17453:17545   */\n      swap2\n      pop\n        /* \"#utility.yul\":17554:17647   */\n      tag_436\n        /* \"#utility.yul\":17643:17646   */\n      dup3\n        /* \"#utility.yul\":17554:17647   */\n      tag_260\n      jump\t// in\n    tag_436:\n        /* \"#utility.yul\":17672:17674   */\n      0x0d\n        /* \"#utility.yul\":17667:17670   */\n      dup3\n        /* \"#utility.yul\":17663:17675   */\n      add\n        /* \"#utility.yul\":17656:17675   */\n      swap1\n      pop\n        /* \"#utility.yul\":17279:17681   */\n      swap2\n      swap1\n      pop\n      jump\t// out\n        /* \"#utility.yul\":17687:17901   */\n    tag_262:\n        /* \"#utility.yul\":17827:17893   */\n      0x222c22746f6b656e223a22000000000000000000000000000000000000000000\n        /* \"#utility.yul\":17823:17824   */\n      0x00\n        /* \"#utility.yul\":17815:17821   */\n      dup3\n        /* \"#utility.yul\":17811:17825   */\n      add\n        /* \"#utility.yul\":17804:17894   */\n      mstore\n        /* \"#utility.yul\":17687:17901   */\n      pop\n      jump\t// out\n        /* \"#utility.yul\":17907:18309   */\n    tag_263:\n        /* \"#utility.yul\":18067:18070   */\n      0x00\n        /* \"#utility.yul\":18088:18173   */\n      tag_439\n        /* \"#utility.yul\":18170:18172   */\n      0x0b\n        /* \"#utility.yul\":18165:18168   */\n      dup4\n        /* \"#utility.yul\":18088:18173   */\n      tag_244\n      jump\t// in\n    tag_439:\n        /* \"#utility.yul\":18081:18173   */\n      swap2\n      pop\n        /* \"#utility.yul\":18182:18275   */\n      tag_440\n        /* \"#utility.yul\":18271:18274   */\n      dup3\n        /* \"#utility.yul\":18182:18275   */\n      tag_262\n      jump\t// in\n    tag_440:\n        /* \"#utility.yul\":18300:18302   */\n      0x0b\n        /* \"#utility.yul\":18295:18298   */\n      dup3\n        /* \"#utility.yul\":18291:18303   */\n      add\n        /* \"#utility.yul\":18284:18303   */\n      swap1\n      pop\n        /* \"#utility.yul\":17907:18309   */\n      swap2\n      swap1\n      pop\n      jump\t// out\n        /* \"#utility.yul\":18315:18529   */\n    tag_264:\n        /* \"#utility.yul\":18455:18521   */\n      0x227d000000000000000000000000000000000000000000000000000000000000\n        /* \"#utility.yul\":18451:18452   */\n      0x00\n        /* \"#utility.yul\":18443:18449   */\n      dup3\n        /* \"#utility.yul\":18439:18453   */\n      add\n        /* \"#utility.yul\":18432:18522   */\n      mstore\n        /* \"#utility.yul\":18315:18529   */\n      pop\n      jump\t// out\n        /* \"#utility.yul\":18535:18935   */\n    tag_265:\n        /* \"#utility.yul\":18695:18698   */\n      0x00\n        /* \"#utility.yul\":18716:18800   */\n      tag_443\n        /* \"#utility.yul\":18798:18799   */\n      0x02\n        /* \"#utility.yul\":18793:18796   */\n      dup4\n        /* \"#utility.yul\":18716:18800   */\n      tag_244\n      jump\t// in\n    tag_443:\n        /* \"#utility.yul\":18709:18800   */\n      swap2\n      pop\n        /* \"#utility.yul\":18809:18902   */\n      tag_444\n        /* \"#utility.yul\":18898:18901   */\n      dup3\n        /* \"#utility.yul\":18809:18902   */\n      tag_264\n      jump\t// in\n    tag_444:\n        /* \"#utility.yul\":18927:18928   */\n      0x02\n        /* \"#utility.yul\":18922:18925   */\n      dup3\n        /* \"#utility.yul\":18918:18929   */\n      add\n        /* \"#utility.yul\":18911:18929   */\n      swap1\n      pop\n        /* \"#utility.yul\":18535:18935   */\n      swap2\n      swap1\n      pop\n      jump\t// out\n        /* \"#utility.yul\":18941:22730   */\n    tag_89:\n        /* \"#utility.yul\":20318:20321   */\n      0x00\n        /* \"#utility.yul\":20340:20488   */\n      tag_446\n        /* \"#utility.yul\":20484:20487   */\n      dup3\n        /* \"#utility.yul\":20340:20488   */\n      tag_249\n      jump\t// in\n    tag_446:\n        /* \"#utility.yul\":20333:20488   */\n      swap2\n      pop\n        /* \"#utility.yul\":20505:20600   */\n      tag_447\n        /* \"#utility.yul\":20596:20599   */\n      dup3\n        /* \"#utility.yul\":20587:20593   */\n      dup12\n        /* \"#utility.yul\":20505:20600   */\n      tag_247\n      jump\t// in\n    tag_447:\n        /* \"#utility.yul\":20498:20600   */\n      swap2\n      pop\n        /* \"#utility.yul\":20617:20765   */\n      tag_448\n        /* \"#utility.yul\":20761:20764   */\n      dup3\n        /* \"#utility.yul\":20617:20765   */\n      tag_251\n      jump\t// in\n    tag_448:\n        /* \"#utility.yul\":20610:20765   */\n      swap2\n      pop\n        /* \"#utility.yul\":20782:20877   */\n      tag_449\n        /* \"#utility.yul\":20873:20876   */\n      dup3\n        /* \"#utility.yul\":20864:20870   */\n      dup11\n        /* \"#utility.yul\":20782:20877   */\n      tag_247\n      jump\t// in\n    tag_449:\n        /* \"#utility.yul\":20775:20877   */\n      swap2\n      pop\n        /* \"#utility.yul\":20894:21042   */\n      tag_450\n        /* \"#utility.yul\":21038:21041   */\n      dup3\n        /* \"#utility.yul\":20894:21042   */\n      tag_253\n      jump\t// in\n    tag_450:\n        /* \"#utility.yul\":20887:21042   */\n      swap2\n      pop\n        /* \"#utility.yul\":21059:21154   */\n      tag_451\n        /* \"#utility.yul\":21150:21153   */\n      dup3\n        /* \"#utility.yul\":21141:21147   */\n      dup10\n        /* \"#utility.yul\":21059:21154   */\n      tag_247\n      jump\t// in\n    tag_451:\n        /* \"#utility.yul\":21052:21154   */\n      swap2\n      pop\n        /* \"#utility.yul\":21171:21319   */\n      tag_452\n        /* \"#utility.yul\":21315:21318   */\n      dup3\n        /* \"#utility.yul\":21171:21319   */\n      tag_255\n      jump\t// in\n    tag_452:\n        /* \"#utility.yul\":21164:21319   */\n      swap2\n      pop\n        /* \"#utility.yul\":21336:21431   */\n      tag_453\n        /* \"#utility.yul\":21427:21430   */\n      dup3\n        /* \"#utility.yul\":21418:21424   */\n      dup9\n        /* \"#utility.yul\":21336:21431   */\n      tag_247\n      jump\t// in\n    tag_453:\n        /* \"#utility.yul\":21329:21431   */\n      swap2\n      pop\n        /* \"#utility.yul\":21448:21596   */\n      tag_454\n        /* \"#utility.yul\":21592:21595   */\n      dup3\n        /* \"#utility.yul\":21448:21596   */\n      tag_257\n      jump\t// in\n    tag_454:\n        /* \"#utility.yul\":21441:21596   */\n      swap2\n      pop\n        /* \"#utility.yul\":21613:21708   */\n      tag_455\n        /* \"#utility.yul\":21704:21707   */\n      dup3\n        /* \"#utility.yul\":21695:21701   */\n      dup8\n        /* \"#utility.yul\":21613:21708   */\n      tag_247\n      jump\t// in\n    tag_455:\n        /* \"#utility.yul\":21606:21708   */\n      swap2\n      pop\n        /* \"#utility.yul\":21725:21873   */\n      tag_456\n        /* \"#utility.yul\":21869:21872   */\n      dup3\n        /* \"#utility.yul\":21725:21873   */\n      tag_259\n      jump\t// in\n    tag_456:\n        /* \"#utility.yul\":21718:21873   */\n      swap2\n      pop\n        /* \"#utility.yul\":21890:21985   */\n      tag_457\n        /* \"#utility.yul\":21981:21984   */\n      dup3\n        /* \"#utility.yul\":21972:21978   */\n      dup7\n        /* \"#utility.yul\":21890:21985   */\n      tag_247\n      jump\t// in\n    tag_457:\n        /* \"#utility.yul\":21883:21985   */\n      swap2\n      pop\n        /* \"#utility.yul\":22002:22150   */\n      tag_458\n        /* \"#utility.yul\":22146:22149   */\n      dup3\n        /* \"#utility.yul\":22002:22150   */\n      tag_261\n      jump\t// in\n    tag_458:\n        /* \"#utility.yul\":21995:22150   */\n      swap2\n      pop\n        /* \"#utility.yul\":22167:22262   */\n      tag_459\n        /* \"#utility.yul\":22258:22261   */\n      dup3\n        /* \"#utility.yul\":22249:22255   */\n      dup6\n        /* \"#utility.yul\":22167:22262   */\n      tag_247\n      jump\t// in\n    tag_459:\n        /* \"#utility.yul\":22160:22262   */\n      swap2\n      pop\n        /* \"#utility.yul\":22279:22427   */\n      tag_460\n        /* \"#utility.yul\":22423:22426   */\n      dup3\n        /* \"#utility.yul\":22279:22427   */\n      tag_263\n      jump\t// in\n    tag_460:\n        /* \"#utility.yul\":22272:22427   */\n      swap2\n      pop\n        /* \"#utility.yul\":22444:22539   */\n      tag_461\n        /* \"#utility.yul\":22535:22538   */\n      dup3\n        /* \"#utility.yul\":22526:22532   */\n      dup5\n        /* \"#utility.yul\":22444:22539   */\n      tag_247\n      jump\t// in\n    tag_461:\n        /* \"#utility.yul\":22437:22539   */\n      swap2\n      pop\n        /* \"#utility.yul\":22556:22704   */\n      tag_462\n        /* \"#utility.yul\":22700:22703   */\n      dup3\n        /* \"#utility.yul\":22556:22704   */\n      tag_265\n      jump\t// in\n    tag_462:\n        /* \"#utility.yul\":22549:22704   */\n      swap2\n      pop\n        /* \"#utility.yul\":22721:22724   */\n      dup2\n        /* \"#utility.yul\":22714:22724   */\n      swap1\n      pop\n        /* \"#utility.yul\":18941:22730   */\n      swap10\n      swap9\n      pop\n      pop\n      pop\n      pop\n      pop\n      pop\n      pop\n      pop\n      pop\n      jump\t// out\n        /* \"#utility.yul\":22736:22915   */\n    tag_266:\n        /* \"#utility.yul\":22876:22907   */\n      0x646174613a6170706c69636174696f6e2f6a736f6e3b6261736536342c000000\n        /* \"#utility.yul\":22872:22873   */\n      0x00\n        /* \"#utility.yul\":22864:22870   */\n      dup3\n        /* \"#utility.yul\":22860:22874   */\n      add\n        /* \"#utility.yul\":22853:22908   */\n      mstore\n        /* \"#utility.yul\":22736:22915   */\n      pop\n      jump\t// out\n        /* \"#utility.yul\":22921:23323   */\n    tag_267:\n        /* \"#utility.yul\":23081:23084   */\n      0x00\n        /* \"#utility.yul\":23102:23187   */\n      tag_465\n        /* \"#utility.yul\":23184:23186   */\n      0x1d\n        /* \"#utility.yul\":23179:23182   */\n      dup4\n        /* \"#utility.yul\":23102:23187   */\n      tag_244\n      jump\t// in\n    tag_465:\n        /* \"#utility.yul\":23095:23187   */\n      swap2\n      pop\n        /* \"#utility.yul\":23196:23289   */\n      tag_466\n        /* \"#utility.yul\":23285:23288   */\n      dup3\n        /* \"#utility.yul\":23196:23289   */\n      tag_266\n      jump\t// in\n    tag_466:\n        /* \"#utility.yul\":23314:23316   */\n      0x1d\n        /* \"#utility.yul\":23309:23312   */\n      dup3\n        /* \"#utility.yul\":23305:23317   */\n      add\n        /* \"#utility.yul\":23298:23317   */\n      swap1\n      pop\n        /* \"#utility.yul\":22921:23323   */\n      swap2\n      swap1\n      pop\n      jump\t// out\n        /* \"#utility.yul\":23329:23870   */\n    tag_91:\n        /* \"#utility.yul\":23562:23565   */\n      0x00\n        /* \"#utility.yul\":23584:23732   */\n      tag_468\n        /* \"#utility.yul\":23728:23731   */\n      dup3\n        /* \"#utility.yul\":23584:23732   */\n      tag_267\n      jump\t// in\n    tag_468:\n        /* \"#utility.yul\":23577:23732   */\n      swap2\n      pop\n        /* \"#utility.yul\":23749:23844   */\n      tag_469\n        /* \"#utility.yul\":23840:23843   */\n      dup3\n        /* \"#utility.yul\":23831:23837   */\n      dup5\n        /* \"#utility.yul\":23749:23844   */\n      tag_247\n      jump\t// in\n    tag_469:\n        /* \"#utility.yul\":23742:23844   */\n      swap2\n      pop\n        /* \"#utility.yul\":23861:23864   */\n      dup2\n        /* \"#utility.yul\":23854:23864   */\n      swap1\n      pop\n        /* \"#utility.yul\":23329:23870   */\n      swap3\n      swap2\n      pop\n      pop\n      jump\t// out\n        /* \"#utility.yul\":23876:24631   */\n    tag_95:\n        /* \"#utility.yul\":24101:24105   */\n      0x00\n        /* \"#utility.yul\":24139:24142   */\n      0xa0\n        /* \"#utility.yul\":24128:24137   */\n      dup3\n        /* \"#utility.yul\":24124:24143   */\n      add\n        /* \"#utility.yul\":24116:24143   */\n      swap1\n      pop\n        /* \"#utility.yul\":24153:24224   */\n      tag_471\n        /* \"#utility.yul\":24221:24222   */\n      0x00\n        /* \"#utility.yul\":24210:24219   */\n      dup4\n        /* \"#utility.yul\":24206:24223   */\n      add\n        /* \"#utility.yul\":24197:24203   */\n      dup9\n        /* \"#utility.yul\":24153:24224   */\n      tag_232\n      jump\t// in\n    tag_471:\n        /* \"#utility.yul\":24234:24306   */\n      tag_472\n        /* \"#utility.yul\":24302:24304   */\n      0x20\n        /* \"#utility.yul\":24291:24300   */\n      dup4\n        /* \"#utility.yul\":24287:24305   */\n      add\n        /* \"#utility.yul\":24278:24284   */\n      dup8\n        /* \"#utility.yul\":24234:24306   */\n      tag_232\n      jump\t// in\n    tag_472:\n        /* \"#utility.yul\":24316:24388   */\n      tag_473\n        /* \"#utility.yul\":24384:24386   */\n      0x40\n        /* \"#utility.yul\":24373:24382   */\n      dup4\n        /* \"#utility.yul\":24369:24387   */\n      add\n        /* \"#utility.yul\":24360:24366   */\n      dup7\n        /* \"#utility.yul\":24316:24388   */\n      tag_232\n      jump\t// in\n    tag_473:\n        /* \"#utility.yul\":24398:24470   */\n      tag_474\n        /* \"#utility.yul\":24466:24468   */\n      0x60\n        /* \"#utility.yul\":24455:24464   */\n      dup4\n        /* \"#utility.yul\":24451:24469   */\n      add\n        /* \"#utility.yul\":24442:24448   */\n      dup6\n        /* \"#utility.yul\":24398:24470   */\n      tag_218\n      jump\t// in\n    tag_474:\n        /* \"#utility.yul\":24518:24527   */\n      dup2\n        /* \"#utility.yul\":24512:24516   */\n      dup2\n        /* \"#utility.yul\":24508:24528   */\n      sub\n        /* \"#utility.yul\":24502:24505   */\n      0x80\n        /* \"#utility.yul\":24491:24500   */\n      dup4\n        /* \"#utility.yul\":24487:24506   */\n      add\n        /* \"#utility.yul\":24480:24529   */\n      mstore\n        /* \"#utility.yul\":24546:24624   */\n      tag_475\n        /* \"#utility.yul\":24619:24623   */\n      dup2\n        /* \"#utility.yul\":24610:24616   */\n      dup5\n        /* \"#utility.yul\":24546:24624   */\n      tag_231\n      jump\t// in\n    tag_475:\n        /* \"#utility.yul\":24538:24624   */\n      swap1\n      pop\n        /* \"#utility.yul\":23876:24631   */\n      swap7\n      swap6\n      pop\n      pop\n      pop\n      pop\n      pop\n      pop\n      jump\t// out\n        /* \"#utility.yul\":24637:24862   */\n    tag_268:\n        /* \"#utility.yul\":24777:24811   */\n      0x4f776e61626c653a206e6577206f776e657220697320746865207a65726f2061\n        /* \"#utility.yul\":24773:24774   */\n      0x00\n        /* \"#utility.yul\":24765:24771   */\n      dup3\n        /* \"#utility.yul\":24761:24775   */\n      add\n        /* \"#utility.yul\":24754:24812   */\n      mstore\n        /* \"#utility.yul\":24846:24854   */\n      0x6464726573730000000000000000000000000000000000000000000000000000\n        /* \"#utility.yul\":24841:24843   */\n      0x20\n        /* \"#utility.yul\":24833:24839   */\n      dup3\n        /* \"#utility.yul\":24829:24844   */\n      add\n        /* \"#utility.yul\":24822:24855   */\n      mstore\n        /* \"#utility.yul\":24637:24862   */\n      pop\n      jump\t// out\n        /* \"#utility.yul\":24868:25234   */\n    tag_269:\n        /* \"#utility.yul\":25010:25013   */\n      0x00\n        /* \"#utility.yul\":25031:25098   */\n      tag_478\n        /* \"#utility.yul\":25095:25097   */\n      0x26\n        /* \"#utility.yul\":25090:25093   */\n      dup4\n        /* \"#utility.yul\":25031:25098   */\n      tag_228\n      jump\t// in\n    tag_478:\n        /* \"#utility.yul\":25024:25098   */\n      swap2\n      pop\n        /* \"#utility.yul\":25107:25200   */\n      tag_479\n        /* \"#utility.yul\":25196:25199   */\n      dup3\n        /* \"#utility.yul\":25107:25200   */\n      tag_268\n      jump\t// in\n    tag_479:\n        /* \"#utility.yul\":25225:25227   */\n      0x40\n        /* \"#utility.yul\":25220:25223   */\n      dup3\n        /* \"#utility.yul\":25216:25228   */\n      add\n        /* \"#utility.yul\":25209:25228   */\n      swap1\n      pop\n        /* \"#utility.yul\":24868:25234   */\n      swap2\n      swap1\n      pop\n      jump\t// out\n        /* \"#utility.yul\":25240:25659   */\n    tag_111:\n        /* \"#utility.yul\":25406:25410   */\n      0x00\n        /* \"#utility.yul\":25444:25446   */\n      0x20\n        /* \"#utility.yul\":25433:25442   */\n      dup3\n        /* \"#utility.yul\":25429:25447   */\n      add\n        /* \"#utility.yul\":25421:25447   */\n      swap1\n      pop\n        /* \"#utility.yul\":25493:25502   */\n      dup2\n        /* \"#utility.yul\":25487:25491   */\n      dup2\n        /* \"#utility.yul\":25483:25503   */\n      sub\n        /* \"#utility.yul\":25479:25480   */\n      0x00\n        /* \"#utility.yul\":25468:25477   */\n      dup4\n        /* \"#utility.yul\":25464:25481   */\n      add\n        /* \"#utility.yul\":25457:25504   */\n      mstore\n        /* \"#utility.yul\":25521:25652   */\n      tag_481\n        /* \"#utility.yul\":25647:25651   */\n      dup2\n        /* \"#utility.yul\":25521:25652   */\n      tag_269\n      jump\t// in\n    tag_481:\n        /* \"#utility.yul\":25513:25652   */\n      swap1\n      pop\n        /* \"#utility.yul\":25240:25659   */\n      swap2\n      swap1\n      pop\n      jump\t// out\n        /* \"#utility.yul\":25665:25845   */\n    tag_130:\n        /* \"#utility.yul\":25713:25790   */\n      0x4e487b7100000000000000000000000000000000000000000000000000000000\n        /* \"#utility.yul\":25710:25711   */\n      0x00\n        /* \"#utility.yul\":25703:25791   */\n      mstore\n        /* \"#utility.yul\":25810:25814   */\n      0x12\n        /* \"#utility.yul\":25807:25808   */\n      0x04\n        /* \"#utility.yul\":25800:25815   */\n      mstore\n        /* \"#utility.yul\":25834:25838   */\n      0x24\n        /* \"#utility.yul\":25831:25832   */\n      0x00\n        /* \"#utility.yul\":25824:25839   */\n      revert\n        /* \"#utility.yul\":25851:26031   */\n    tag_270:\n        /* \"#utility.yul\":25899:25976   */\n      0x4e487b7100000000000000000000000000000000000000000000000000000000\n        /* \"#utility.yul\":25896:25897   */\n      0x00\n        /* \"#utility.yul\":25889:25977   */\n      mstore\n        /* \"#utility.yul\":25996:26000   */\n      0x11\n        /* \"#utility.yul\":25993:25994   */\n      0x04\n        /* \"#utility.yul\":25986:26001   */\n      mstore\n        /* \"#utility.yul\":26020:26024   */\n      0x24\n        /* \"#utility.yul\":26017:26018   */\n      0x00\n        /* \"#utility.yul\":26010:26025   */\n      revert\n        /* \"#utility.yul\":26037:26342   */\n    tag_135:\n        /* \"#utility.yul\":26077:26080   */\n      0x00\n        /* \"#utility.yul\":26096:26116   */\n      tag_485\n        /* \"#utility.yul\":26114:26115   */\n      dup3\n        /* \"#utility.yul\":26096:26116   */\n      tag_222\n      jump\t// in\n    tag_485:\n        /* \"#utility.yul\":26091:26116   */\n      swap2\n      pop\n        /* \"#utility.yul\":26130:26150   */\n      tag_486\n        /* \"#utility.yul\":26148:26149   */\n      dup4\n        /* \"#utility.yul\":26130:26150   */\n      tag_222\n      jump\t// in\n    tag_486:\n        /* \"#utility.yul\":26125:26150   */\n      swap3\n      pop\n        /* \"#utility.yul\":26284:26285   */\n      dup3\n        /* \"#utility.yul\":26216:26282   */\n      0xffffffffffffffffffffffffffffffffffffffffffffffffffffffffffffffff\n        /* \"#utility.yul\":26212:26286   */\n      sub\n        /* \"#utility.yul\":26209:26210   */\n      dup3\n        /* \"#utility.yul\":26206:26287   */\n      gt\n        /* \"#utility.yul\":26203:26310   */\n      iszero\n      tag_487\n      jumpi\n        /* \"#utility.yul\":26290:26308   */\n      tag_488\n      tag_270\n      jump\t// in\n    tag_488:\n        /* \"#utility.yul\":26203:26310   */\n    tag_487:\n        /* \"#utility.yul\":26334:26335   */\n      dup3\n        /* \"#utility.yul\":26331:26332   */\n      dup3\n        /* \"#utility.yul\":26327:26336   */\n      add\n        /* \"#utility.yul\":26320:26336   */\n      swap1\n      pop\n        /* \"#utility.yul\":26037:26342   */\n      swap3\n      swap2\n      pop\n      pop\n      jump\t// out\n        /* \"#utility.yul\":26348:26533   */\n    tag_137:\n        /* \"#utility.yul\":26388:26389   */\n      0x00\n        /* \"#utility.yul\":26405:26425   */\n      tag_490\n        /* \"#utility.yul\":26423:26424   */\n      dup3\n        /* \"#utility.yul\":26405:26425   */\n      tag_222\n      jump\t// in\n    tag_490:\n        /* \"#utility.yul\":26400:26425   */\n      swap2\n      pop\n        /* \"#utility.yul\":26439:26459   */\n      tag_491\n        /* \"#utility.yul\":26457:26458   */\n      dup4\n        /* \"#utility.yul\":26439:26459   */\n      tag_222\n      jump\t// in\n    tag_491:\n        /* \"#utility.yul\":26434:26459   */\n      swap3\n      pop\n        /* \"#utility.yul\":26478:26479   */\n      dup3\n        /* \"#utility.yul\":26468:26503   */\n      tag_492\n      jumpi\n        /* \"#utility.yul\":26483:26501   */\n      tag_493\n      tag_130\n      jump\t// in\n    tag_493:\n        /* \"#utility.yul\":26468:26503   */\n    tag_492:\n        /* \"#utility.yul\":26525:26526   */\n      dup3\n        /* \"#utility.yul\":26522:26523   */\n      dup3\n        /* \"#utility.yul\":26518:26527   */\n      div\n        /* \"#utility.yul\":26513:26527   */\n      swap1\n      pop\n        /* \"#utility.yul\":26348:26533   */\n      swap3\n      swap2\n      pop\n      pop\n      jump\t// out\n        /* \"#utility.yul\":26539:26887   */\n    tag_139:\n        /* \"#utility.yul\":26579:26586   */\n      0x00\n        /* \"#utility.yul\":26602:26622   */\n      tag_495\n        /* \"#utility.yul\":26620:26621   */\n      dup3\n        /* \"#utility.yul\":26602:26622   */\n      tag_222\n      jump\t// in\n    tag_495:\n        /* \"#utility.yul\":26597:26622   */\n      swap2\n      pop\n        /* \"#utility.yul\":26636:26656   */\n      tag_496\n        /* \"#utility.yul\":26654:26655   */\n      dup4\n        /* \"#utility.yul\":26636:26656   */\n      tag_222\n      jump\t// in\n    tag_496:\n        /* \"#utility.yul\":26631:26656   */\n      swap3\n      pop\n        /* \"#utility.yul\":26824:26825   */\n      dup2\n        /* \"#utility.yul\":26756:26822   */\n      0xffffffffffffffffffffffffffffffffffffffffffffffffffffffffffffffff\n        /* \"#utility.yul\":26752:26826   */\n      div\n        /* \"#utility.yul\":26749:26750   */\n      dup4\n        /* \"#utility.yul\":26746:26827   */\n      gt\n        /* \"#utility.yul\":26741:26742   */\n      dup3\n        /* \"#utility.yul\":26734:26743   */\n      iszero\n        /* \"#utility.yul\":26727:26744   */\n      iszero\n        /* \"#utility.yul\":26723:26828   */\n      and\n        /* \"#utility.yul\":26720:26851   */\n      iszero\n      tag_497\n      jumpi\n        /* \"#utility.yul\":26831:26849   */\n      tag_498\n      tag_270\n      jump\t// in\n    tag_498:\n        /* \"#utility.yul\":26720:26851   */\n    tag_497:\n        /* \"#utility.yul\":26879:26880   */\n      dup3\n        /* \"#utility.yul\":26876:26877   */\n      dup3\n        /* \"#utility.yul\":26872:26881   */\n      mul\n        /* \"#utility.yul\":26861:26881   */\n      swap1\n      pop\n        /* \"#utility.yul\":26539:26887   */\n      swap3\n      swap2\n      pop\n      pop\n      jump\t// out\n        /* \"#utility.yul\":26893:27075   */\n    tag_271:\n        /* \"#utility.yul\":27033:27067   */\n      0x4f776e61626c653a2063616c6c6572206973206e6f7420746865206f776e6572\n        /* \"#utility.yul\":27029:27030   */\n      0x00\n        /* \"#utility.yul\":27021:27027   */\n      dup3\n        /* \"#utility.yul\":27017:27031   */\n      add\n        /* \"#utility.yul\":27010:27068   */\n      mstore\n        /* \"#utility.yul\":26893:27075   */\n      pop\n      jump\t// out\n        /* \"#utility.yul\":27081:27447   */\n    tag_272:\n        /* \"#utility.yul\":27223:27226   */\n      0x00\n        /* \"#utility.yul\":27244:27311   */\n      tag_501\n        /* \"#utility.yul\":27308:27310   */\n      0x20\n        /* \"#utility.yul\":27303:27306   */\n      dup4\n        /* \"#utility.yul\":27244:27311   */\n      tag_228\n      jump\t// in\n    tag_501:\n        /* \"#utility.yul\":27237:27311   */\n      swap2\n      pop\n        /* \"#utility.yul\":27320:27413   */\n      tag_502\n        /* \"#utility.yul\":27409:27412   */\n      dup3\n        /* \"#utility.yul\":27320:27413   */\n      tag_271\n      jump\t// in\n    tag_502:\n        /* \"#utility.yul\":27438:27440   */\n      0x20\n        /* \"#utility.yul\":27433:27436   */\n      dup3\n        /* \"#utility.yul\":27429:27441   */\n      add\n        /* \"#utility.yul\":27422:27441   */\n      swap1\n      pop\n        /* \"#utility.yul\":27081:27447   */\n      swap2\n      swap1\n      pop\n      jump\t// out\n        /* \"#utility.yul\":27453:27872   */\n    tag_158:\n        /* \"#utility.yul\":27619:27623   */\n      0x00\n        /* \"#utility.yul\":27657:27659   */\n      0x20\n        /* \"#utility.yul\":27646:27655   */\n      dup3\n        /* \"#utility.yul\":27642:27660   */\n      add\n        /* \"#utility.yul\":27634:27660   */\n      swap1\n      pop\n        /* \"#utility.yul\":27706:27715   */\n      dup2\n        /* \"#utility.yul\":27700:27704   */\n      dup2\n        /* \"#utility.yul\":27696:27716   */\n      sub\n        /* \"#utility.yul\":27692:27693   */\n      0x00\n        /* \"#utility.yul\":27681:27690   */\n      dup4\n        /* \"#utility.yul\":27677:27694   */\n      add\n        /* \"#utility.yul\":27670:27717   */\n      mstore\n        /* \"#utility.yul\":27734:27865   */\n      tag_504\n        /* \"#utility.yul\":27860:27864   */\n      dup2\n        /* \"#utility.yul\":27734:27865   */\n      tag_272\n      jump\t// in\n    tag_504:\n        /* \"#utility.yul\":27726:27865   */\n      swap1\n      pop\n        /* \"#utility.yul\":27453:27872   */\n      swap2\n      swap1\n      pop\n      jump\t// out\n        /* \"#utility.yul\":27878:28058   */\n    tag_188:\n        /* \"#utility.yul\":27926:28003   */\n      0x4e487b7100000000000000000000000000000000000000000000000000000000\n        /* \"#utility.yul\":27923:27924   */\n      0x00\n        /* \"#utility.yul\":27916:28004   */\n      mstore\n        /* \"#utility.yul\":28023:28027   */\n      0x32\n        /* \"#utility.yul\":28020:28021   */\n      0x04\n        /* \"#utility.yul\":28013:28028   */\n      mstore\n        /* \"#utility.yul\":28047:28051   */\n      0x24\n        /* \"#utility.yul\":28044:28045   */\n      0x00\n        /* \"#utility.yul\":28037:28052   */\n      revert\n        /* \"#utility.yul\":28064:28235   */\n    tag_201:\n        /* \"#utility.yul\":28103:28106   */\n      0x00\n        /* \"#utility.yul\":28126:28150   */\n      tag_507\n        /* \"#utility.yul\":28144:28149   */\n      dup3\n        /* \"#utility.yul\":28126:28150   */\n      tag_222\n      jump\t// in\n    tag_507:\n        /* \"#utility.yul\":28117:28150   */\n      swap2\n      pop\n        /* \"#utility.yul\":28172:28176   */\n      0x00\n        /* \"#utility.yul\":28165:28170   */\n      dup3\n        /* \"#utility.yul\":28162:28177   */\n      eq\n        /* \"#utility.yul\":28159:28200   */\n      iszero\n      tag_508\n      jumpi\n        /* \"#utility.yul\":28180:28198   */\n      tag_509\n      tag_270\n      jump\t// in\n    tag_509:\n        /* \"#utility.yul\":28159:28200   */\n    tag_508:\n        /* \"#utility.yul\":28227:28228   */\n      0x01\n        /* \"#utility.yul\":28220:28225   */\n      dup3\n        /* \"#utility.yul\":28216:28229   */\n      sub\n        /* \"#utility.yul\":28209:28229   */\n      swap1\n      pop\n        /* \"#utility.yul\":28064:28235   */\n      swap2\n      swap1\n      pop\n      jump\t// out\n        /* \"#utility.yul\":28241:28423   */\n    tag_273:\n        /* \"#utility.yul\":28381:28415   */\n      0x537472696e67733a20686578206c656e67746820696e73756666696369656e74\n        /* \"#utility.yul\":28377:28378   */\n      0x00\n        /* \"#utility.yul\":28369:28375   */\n      dup3\n        /* \"#utility.yul\":28365:28379   */\n      add\n        /* \"#utility.yul\":28358:28416   */\n      mstore\n        /* \"#utility.yul\":28241:28423   */\n      pop\n      jump\t// out\n        /* \"#utility.yul\":28429:28795   */\n    tag_274:\n        /* \"#utility.yul\":28571:28574   */\n      0x00\n        /* \"#utility.yul\":28592:28659   */\n      tag_512\n        /* \"#utility.yul\":28656:28658   */\n      0x20\n        /* \"#utility.yul\":28651:28654   */\n      dup4\n        /* \"#utility.yul\":28592:28659   */\n      tag_228\n      jump\t// in\n    tag_512:\n        /* \"#utility.yul\":28585:28659   */\n      swap2\n      pop\n        /* \"#utility.yul\":28668:28761   */\n      tag_513\n        /* \"#utility.yul\":28757:28760   */\n      dup3\n        /* \"#utility.yul\":28668:28761   */\n      tag_273\n      jump\t// in\n    tag_513:\n        /* \"#utility.yul\":28786:28788   */\n      0x20\n        /* \"#utility.yul\":28781:28784   */\n      dup3\n        /* \"#utility.yul\":28777:28789   */\n      add\n        /* \"#utility.yul\":28770:28789   */\n      swap1\n      pop\n        /* \"#utility.yul\":28429:28795   */\n      swap2\n      swap1\n      pop\n      jump\t// out\n        /* \"#utility.yul\":28801:29220   */\n    tag_204:\n        /* \"#utility.yul\":28967:28971   */\n      0x00\n        /* \"#utility.yul\":29005:29007   */\n      0x20\n        /* \"#utility.yul\":28994:29003   */\n      dup3\n        /* \"#utility.yul\":28990:29008   */\n      add\n        /* \"#utility.yul\":28982:29008   */\n      swap1\n      pop\n        /* \"#utility.yul\":29054:29063   */\n      dup2\n        /* \"#utility.yul\":29048:29052   */\n      dup2\n        /* \"#utility.yul\":29044:29064   */\n      sub\n        /* \"#utility.yul\":29040:29041   */\n      0x00\n        /* \"#utility.yul\":29029:29038   */\n      dup4\n        /* \"#utility.yul\":29025:29042   */\n      add\n        /* \"#utility.yul\":29018:29065   */\n      mstore\n        /* \"#utility.yul\":29082:29213   */\n      tag_515\n        /* \"#utility.yul\":29208:29212   */\n      dup2\n        /* \"#utility.yul\":29082:29213   */\n      tag_274\n      jump\t// in\n    tag_515:\n        /* \"#utility.yul\":29074:29213   */\n      swap1\n      pop\n        /* \"#utility.yul\":28801:29220   */\n      swap2\n      swap1\n      pop\n      jump\t// out\n    stop\n    data_84d8a590de33e00cbdc16e1f28c3506f5ec15c599fab9a6a4bcd575cc2f110ce 4142434445464748494a4b4c4d4e4f505152535455565758595a6162636465666768696a6b6c6d6e6f707172737475767778797a303132333435363738392b2f\n\n    auxdata: 0xa2646970667358221220501f0dfa527a1ccba1f904be3514ab6c52e168f797811ae6899d44e3b8aad10c64736f6c63430008090033\n}\n",
				"bytecode": {
					"linkReferences": {},
					"object": "60806040526040518061018001604052806101558152602001620024106101559139600390805190602001906200003892919062000304565b5060405180610100016040528060cb8152602001620025c360cb9139600490805190602001906200006b92919062000304565b5060405180610100016040528060cb81526020016200268e60cb9139600590805190602001906200009e92919062000304565b5060405180610100016040528060cb81526020016200281260cb913960069080519060200190620000d192919062000304565b506040518060800160405280605d815260200162002759605d9139600790805190602001906200010392919062000304565b506040518060800160405280605c8152602001620027b6605c9139600890805190602001906200013592919062000304565b506040518060800160405280605e815260200162002565605e9139600990805190602001906200016792919062000304565b506040518060400160405280600d81526020017f3c2f746578743e3c2f7376673e00000000000000000000000000000000000000815250600a9080519060200190620001b592919062000304565b506040518060400160405280600781526020017f3c2f746578743e00000000000000000000000000000000000000000000000000815250600b90805190602001906200020392919062000304565b503480156200021157600080fd5b5062000232620002266200023860201b60201c565b6200024060201b60201c565b62000419565b600033905090565b60008060009054906101000a900473ffffffffffffffffffffffffffffffffffffffff169050816000806101000a81548173ffffffffffffffffffffffffffffffffffffffff021916908373ffffffffffffffffffffffffffffffffffffffff1602179055508173ffffffffffffffffffffffffffffffffffffffff168173ffffffffffffffffffffffffffffffffffffffff167f8be0079c531659141344cd1fd0a4f28419497f9722a3daafe3b4186f6b6457e060405160405180910390a35050565b8280546200031290620003e3565b90600052602060002090601f01602090048101928262000336576000855562000382565b82601f106200035157805160ff191683800117855562000382565b8280016001018555821562000382579182015b828111156200038157825182559160200191906001019062000364565b5b50905062000391919062000395565b5090565b5b80821115620003b057600081600090555060010162000396565b5090565b7f4e487b7100000000000000000000000000000000000000000000000000000000600052602260045260246000fd5b60006002820490506001821680620003fc57607f821691505b60208210811415620004135762000412620003b4565b5b50919050565b611fe780620004296000396000f3fe608060405234801561001057600080fd5b506004361061007d5760003560e01c80638da5cb5b1161005b5780638da5cb5b146100c6578063c4d66de8146100e4578063f2fde38b14610100578063fab95f361461011c5761007d565b806344ed5c0a146100825780634a49e0ef146100a0578063715018a6146100bc575b600080fd5b61008a61014c565b604051610097919061115d565b60405180910390f35b6100ba60048036038101906100b591906111ee565b610172565b005b6100c4610738565b005b6100ce61074c565b6040516100db919061115d565b60405180910390f35b6100fe60048036038101906100f9919061127b565b610775565b005b61011a6004803603810190610115919061127b565b6107c1565b005b610136600480360381019061013191906112a8565b610845565b6040516101439190611381565b60405180910390f35b600160009054906101000a900473ffffffffffffffffffffffffffffffffffffffff1681565b600160009054906101000a900473ffffffffffffffffffffffffffffffffffffffff1673ffffffffffffffffffffffffffffffffffffffff1663bd2014bf876040518263ffffffff1660e01b81526004016101cd91906113b2565b60206040518083038186803b1580156101e557600080fd5b505afa1580156101f9573d6000803e3d6000fd5b505050506040513d601f19601f8201168201806040525081019061021d91906113e2565b73ffffffffffffffffffffffffffffffffffffffff163373ffffffffffffffffffffffffffffffffffffffff161461028a576040517f08c379a00000000000000000000000000000000000000000000000000000000081526004016102819061145b565b60405180910390fd5b60003373ffffffffffffffffffffffffffffffffffffffff166395d89b416040518163ffffffff1660e01b815260040160006040518083038186803b1580156102d257600080fd5b505afa1580156102e6573d6000803e3d6000fd5b505050506040513d6000823e3d601f19601f8201168201806040525081019061030f91906115a1565b9050600061031c87610928565b905060608060008614156103f4576040518060400160405280600581526020017f627579657200000000000000000000000000000000000000000000000000000081525091506004805461036f90611619565b80601f016020809104026020016040519081016040528092919081815260200182805461039b90611619565b80156103e85780601f106103bd576101008083540402835291602001916103e8565b820191906000526020600020905b8154815290600101906020018083116103cb57829003601f168201915b505050505090506105a1565b60018614156104c7576040518060400160405280600681526020017f73656c6c6572000000000000000000000000000000000000000000000000000081525091506005805461044290611619565b80601f016020809104026020016040519081016040528092919081815260200182805461046e90611619565b80156104bb5780601f10610490576101008083540402835291602001916104bb565b820191906000526020600020905b81548152906001019060200180831161049e57829003601f168201915b505050505090506105a0565b600286141561059a576040518060400160405280600681526020017f696e6a656374000000000000000000000000000000000000000000000000000081525091506006805461051590611619565b80601f016020809104026020016040519081016040528092919081815260200182805461054190611619565b801561058e5780601f106105635761010080835404028352916020019161058e565b820191906000526020600020905b81548152906001019060200180831161057157829003601f168201915b5050505050905061059f565b600080fd5b5b5b6000600382600786600b60086105b68e610928565b600b60098b600a6040516020016105d79b9a9998979695949392919061171b565b60405160208183030381529060405290506000610648866105f784610a00565b6106008f610928565b8861060a8f610928565b6106138f610928565b8a61061d8f610b73565b604051602001610634989796959493929190611ad2565b604051602081830303815290604052610a00565b905060008160405160200161065d9190611bf3565b604051602081830303815290604052905080600260003373ffffffffffffffffffffffffffffffffffffffff1673ffffffffffffffffffffffffffffffffffffffff16815260200190815260200160002060008d815260200190815260200160002090805190602001906106d2929190611079565b503373ffffffffffffffffffffffffffffffffffffffff167f2143b158f321db6c4f6e14cd6cb53bb4fa16fdb16808bb5863c802db705de2278d8d8d8c8a604051610721959493929190611c15565b60405180910390a250505050505050505050505050565b610740610ba0565b61074a6000610c1e565b565b60008060009054906101000a900473ffffffffffffffffffffffffffffffffffffffff16905090565b61077d610ba0565b80600160006101000a81548173ffffffffffffffffffffffffffffffffffffffff021916908373ffffffffffffffffffffffffffffffffffffffff16021790555050565b6107c9610ba0565b600073ffffffffffffffffffffffffffffffffffffffff168173ffffffffffffffffffffffffffffffffffffffff161415610839576040517f08c379a000000000000000000000000000000000000000000000000000000000815260040161083090611ce1565b60405180910390fd5b61084281610c1e565b50565b6060600260008473ffffffffffffffffffffffffffffffffffffffff1673ffffffffffffffffffffffffffffffffffffffff168152602001908152602001600020600083815260200190815260200160002080546108a290611619565b80601f01602080910402602001604051908101604052809291908181526020018280546108ce90611619565b801561091b5780601f106108f05761010080835404028352916020019161091b565b820191906000526020600020905b8154815290600101906020018083116108fe57829003601f168201915b5050505050905092915050565b60606000600161093784610ce2565b01905060008167ffffffffffffffff81111561095657610955611485565b5b6040519080825280601f01601f1916602001820160405280156109885781602001600182028036833780820191505090505b509050600082602001820190505b6001156109f5578080600190039150507f3031323334353637383961626364656600000000000000000000000000000000600a86061a8153600a85816109df576109de611d01565b5b04945060008514156109f0576109f5565b610996565b819350505050919050565b6060600082511415610a2357604051806020016040528060008152509050610b6e565b6000604051806060016040528060408152602001611f726040913990506000600360028551610a529190611d5f565b610a5c9190611db5565b6004610a689190611de6565b67ffffffffffffffff811115610a8157610a80611485565b5b6040519080825280601f01601f191660200182016040528015610ab35781602001600182028036833780820191505090505b50905060018201602082018586518701602081018051600082525b82841015610b29576003840193508351603f8160121c168701518653600186019550603f81600c1c168701518653600186019550603f8160061c168701518653600186019550603f8116870151865360018601955050610ace565b80825260038a510660018114610b465760028114610b5957610b61565b603d6001870353603d6002870353610b61565b603d60018703535b5050505050505080925050505b919050565b6060610b998273ffffffffffffffffffffffffffffffffffffffff16601460ff16610e35565b9050919050565b610ba8611071565b73ffffffffffffffffffffffffffffffffffffffff16610bc661074c565b73ffffffffffffffffffffffffffffffffffffffff1614610c1c576040517f08c379a0000000000000000000000000000000000000000000000000000000008152600401610c1390611e8c565b60405180910390fd5b565b60008060009054906101000a900473ffffffffffffffffffffffffffffffffffffffff169050816000806101000a81548173ffffffffffffffffffffffffffffffffffffffff021916908373ffffffffffffffffffffffffffffffffffffffff1602179055508173ffffffffffffffffffffffffffffffffffffffff168173ffffffffffffffffffffffffffffffffffffffff167f8be0079c531659141344cd1fd0a4f28419497f9722a3daafe3b4186f6b6457e060405160405180910390a35050565b600080600090507a184f03e93ff9f4daa797ed6e38ed64bf6a1f0100000000000000008310610d40577a184f03e93ff9f4daa797ed6e38ed64bf6a1f0100000000000000008381610d3657610d35611d01565b5b0492506040810190505b6d04ee2d6d415b85acef81000000008310610d7d576d04ee2d6d415b85acef81000000008381610d7357610d72611d01565b5b0492506020810190505b662386f26fc100008310610dac57662386f26fc100008381610da257610da1611d01565b5b0492506010810190505b6305f5e1008310610dd5576305f5e1008381610dcb57610dca611d01565b5b0492506008810190505b6127108310610dfa576127108381610df057610def611d01565b5b0492506004810190505b60648310610e1d5760648381610e1357610e12611d01565b5b0492506002810190505b600a8310610e2c576001810190505b80915050919050565b606060006002836002610e489190611de6565b610e529190611d5f565b67ffffffffffffffff811115610e6b57610e6a611485565b5b6040519080825280601f01601f191660200182016040528015610e9d5781602001600182028036833780820191505090505b5090507f300000000000000000000000000000000000000000000000000000000000000081600081518110610ed557610ed4611eac565b5b60200101907effffffffffffffffffffffffffffffffffffffffffffffffffffffffffffff1916908160001a9053507f780000000000000000000000000000000000000000000000000000000000000081600181518110610f3957610f38611eac565b5b60200101907effffffffffffffffffffffffffffffffffffffffffffffffffffffffffffff1916908160001a90535060006001846002610f799190611de6565b610f839190611d5f565b90505b6001811115611023577f3031323334353637383961626364656600000000000000000000000000000000600f861660108110610fc557610fc4611eac565b5b1a60f81b828281518110610fdc57610fdb611eac565b5b60200101907effffffffffffffffffffffffffffffffffffffffffffffffffffffffffffff1916908160001a905350600485901c94508061101c90611edb565b9050610f86565b5060008414611067576040517f08c379a000000000000000000000000000000000000000000000000000000000815260040161105e90611f51565b60405180910390fd5b8091505092915050565b600033905090565b82805461108590611619565b90600052602060002090601f0160209004810192826110a757600085556110ee565b82601f106110c057805160ff19168380011785556110ee565b828001600101855582156110ee579182015b828111156110ed5782518255916020019190600101906110d2565b5b5090506110fb91906110ff565b5090565b5b80821115611118576000816000905550600101611100565b5090565b600073ffffffffffffffffffffffffffffffffffffffff82169050919050565b60006111478261111c565b9050919050565b6111578161113c565b82525050565b6000602082019050611172600083018461114e565b92915050565b6000604051905090565b600080fd5b600080fd5b6000819050919050565b61119f8161118c565b81146111aa57600080fd5b50565b6000813590506111bc81611196565b92915050565b6111cb8161113c565b81146111d657600080fd5b50565b6000813590506111e8816111c2565b92915050565b60008060008060008060c0878903121561120b5761120a611182565b5b600061121989828a016111ad565b965050602061122a89828a016111ad565b955050604061123b89828a016111ad565b945050606061124c89828a016111ad565b935050608061125d89828a016111ad565b92505060a061126e89828a016111d9565b9150509295509295509295565b60006020828403121561129157611290611182565b5b600061129f848285016111d9565b91505092915050565b600080604083850312156112bf576112be611182565b5b60006112cd858286016111d9565b92505060206112de858286016111ad565b9150509250929050565b600081519050919050565b600082825260208201905092915050565b60005b83811015611322578082015181840152602081019050611307565b83811115611331576000848401525b50505050565b6000601f19601f8301169050919050565b6000611353826112e8565b61135d81856112f3565b935061136d818560208601611304565b61137681611337565b840191505092915050565b6000602082019050818103600083015261139b8184611348565b905092915050565b6113ac8161118c565b82525050565b60006020820190506113c760008301846113a3565b92915050565b6000815190506113dc816111c2565b92915050565b6000602082840312156113f8576113f7611182565b5b6000611406848285016113cd565b91505092915050565b7f4e6f6e206d61726b657400000000000000000000000000000000000000000000600082015250565b6000611445600a836112f3565b91506114508261140f565b602082019050919050565b6000602082019050818103600083015261147481611438565b9050919050565b600080fd5b600080fd5b7f4e487b7100000000000000000000000000000000000000000000000000000000600052604160045260246000fd5b6114bd82611337565b810181811067ffffffffffffffff821117156114dc576114db611485565b5b80604052505050565b60006114ef611178565b90506114fb82826114b4565b919050565b600067ffffffffffffffff82111561151b5761151a611485565b5b61152482611337565b9050602081019050919050565b600061154461153f84611500565b6114e5565b9050828152602081018484840111156115605761155f611480565b5b61156b848285611304565b509392505050565b600082601f8301126115885761158761147b565b5b8151611598848260208601611531565b91505092915050565b6000602082840312156115b7576115b6611182565b5b600082015167ffffffffffffffff8111156115d5576115d4611187565b5b6115e184828501611573565b91505092915050565b7f4e487b7100000000000000000000000000000000000000000000000000000000600052602260045260246000fd5b6000600282049050600182168061163157607f821691505b60208210811415611645576116446115ea565b5b50919050565b600081905092915050565b60008190508160005260206000209050919050565b6000815461167881611619565b611682818661164b565b9450600182166000811461169d57600181146116ae576116e1565b60ff198316865281860193506116e1565b6116b785611656565b60005b838110156116d9578154818901526001820191506020810190506116ba565b838801955050505b50505092915050565b60006116f5826112e8565b6116ff818561164b565b935061170f818560208601611304565b80840191505092915050565b6000611727828e61166b565b9150611733828d6116ea565b915061173f828c61166b565b915061174b828b6116ea565b9150611757828a61166b565b9150611763828961166b565b915061176f82886116ea565b915061177b828761166b565b9150611787828661166b565b915061179382856116ea565b915061179f828461166b565b91508190509c9b505050505050505050505050565b7f7b226e616d65223a202200000000000000000000000000000000000000000000600082015250565b60006117ea600a8361164b565b91506117f5826117b4565b600a82019050919050565b7f222c20226465736372697074696f6e223a202257656c636f6d6520746f20746860008201527f65206d61676963616c20776f726c64206f662074696d65666c6f77222c20226960208201527f6d616765223a2022646174613a696d6167652f7376672b786d6c3b626173653660408201527f342c000000000000000000000000000000000000000000000000000000000000606082015250565b60006118a860628361164b565b91506118b382611800565b606282019050919050565b7f222c226d61726b65744964223a22000000000000000000000000000000000000600082015250565b60006118f4600e8361164b565b91506118ff826118be565b600e82019050919050565b7f222c2274617264654964223a2200000000000000000000000000000000000000600082015250565b6000611940600d8361164b565b915061194b8261190a565b600d82019050919050565b7f222c226e66744964223a22000000000000000000000000000000000000000000600082015250565b600061198c600b8361164b565b915061199782611956565b600b82019050919050565b7f222c2276616c7565223a22000000000000000000000000000000000000000000600082015250565b60006119d8600b8361164b565b91506119e3826119a2565b600b82019050919050565b7f222c226e667454797065223a2200000000000000000000000000000000000000600082015250565b6000611a24600d8361164b565b9150611a2f826119ee565b600d82019050919050565b7f222c22746f6b656e223a22000000000000000000000000000000000000000000600082015250565b6000611a70600b8361164b565b9150611a7b82611a3a565b600b82019050919050565b7f227d000000000000000000000000000000000000000000000000000000000000600082015250565b6000611abc60028361164b565b9150611ac782611a86565b600282019050919050565b6000611add826117dd565b9150611ae9828b6116ea565b9150611af48261189b565b9150611b00828a6116ea565b9150611b0b826118e7565b9150611b1782896116ea565b9150611b2282611933565b9150611b2e82886116ea565b9150611b398261197f565b9150611b4582876116ea565b9150611b50826119cb565b9150611b5c82866116ea565b9150611b6782611a17565b9150611b7382856116ea565b9150611b7e82611a63565b9150611b8a82846116ea565b9150611b9582611aaf565b91508190509998505050505050505050565b7f646174613a6170706c69636174696f6e2f6a736f6e3b6261736536342c000000600082015250565b6000611bdd601d8361164b565b9150611be882611ba7565b601d82019050919050565b6000611bfe82611bd0565b9150611c0a82846116ea565b915081905092915050565b600060a082019050611c2a60008301886113a3565b611c3760208301876113a3565b611c4460408301866113a3565b611c51606083018561114e565b8181036080830152611c638184611348565b90509695505050505050565b7f4f776e61626c653a206e6577206f776e657220697320746865207a65726f206160008201527f6464726573730000000000000000000000000000000000000000000000000000602082015250565b6000611ccb6026836112f3565b9150611cd682611c6f565b604082019050919050565b60006020820190508181036000830152611cfa81611cbe565b9050919050565b7f4e487b7100000000000000000000000000000000000000000000000000000000600052601260045260246000fd5b7f4e487b7100000000000000000000000000000000000000000000000000000000600052601160045260246000fd5b6000611d6a8261118c565b9150611d758361118c565b9250827fffffffffffffffffffffffffffffffffffffffffffffffffffffffffffffffff03821115611daa57611da9611d30565b5b828201905092915050565b6000611dc08261118c565b9150611dcb8361118c565b925082611ddb57611dda611d01565b5b828204905092915050565b6000611df18261118c565b9150611dfc8361118c565b9250817fffffffffffffffffffffffffffffffffffffffffffffffffffffffffffffffff0483118215151615611e3557611e34611d30565b5b828202905092915050565b7f4f776e61626c653a2063616c6c6572206973206e6f7420746865206f776e6572600082015250565b6000611e766020836112f3565b9150611e8182611e40565b602082019050919050565b60006020820190508181036000830152611ea581611e69565b9050919050565b7f4e487b7100000000000000000000000000000000000000000000000000000000600052603260045260246000fd5b6000611ee68261118c565b91506000821415611efa57611ef9611d30565b5b600182039050919050565b7f537472696e67733a20686578206c656e67746820696e73756666696369656e74600082015250565b6000611f3b6020836112f3565b9150611f4682611f05565b602082019050919050565b60006020820190508181036000830152611f6a81611f2e565b905091905056fe4142434445464748494a4b4c4d4e4f505152535455565758595a6162636465666768696a6b6c6d6e6f707172737475767778797a303132333435363738392b2fa2646970667358221220501f0dfa527a1ccba1f904be3514ab6c52e168f797811ae6899d44e3b8aad10c64736f6c634300080900333c73766720786d6c6e733d22687474703a2f2f7777772e77332e6f72672f323030302f737667222077696474683d2232373022206865696768743d22323730222066696c6c3d226e6f6e65223e3c706174682066696c6c3d2275726c282342292220643d224d302030683237307632373048307a222f3e0a3c646566733e3c66696c7465722069643d22412220636f6c6f722d696e746572706f6c6174696f6e2d66696c746572733d2273524742222066696c746572556e6974733d227573657253706163654f6e55736522206865696768743d22323730222077696474683d22323730223e0a3c666544726f70536861646f772064783d2230222064793d22312220737464446576696174696f6e3d22322220666c6f6f642d6f7061636974793d222e323235222077696474683d223230302522206865696768743d2232303025222f3e3c2f66696c7465723e3c2f646566733e3c7465787420783d2233322e352220793d223135302220666f6e742d73697a653d223237222066696c6c3d2223666666222066696c7465723d2275726c282341292220666f6e742d7765696768743d22626f6c64223e6e6674547970653a3c646566733e3c6c696e6561724772616469656e742069643d2242222078313d2230222079313d2230222078323d22323730222079323d2232373022206772616469656e74556e6974733d227573657253706163654f6e557365223e3c73746f702073746f702d636f6c6f723d2223666263326562222f3e0a3c73746f70206f66667365743d2231222073746f702d636f6c6f723d2223613663316565222073746f702d6f7061636974793d222e3939222f3e3c2f6c696e6561724772616469656e743e3c2f646566733e3c646566733e3c6c696e6561724772616469656e742069643d2242222078313d2230222079313d2230222078323d22323730222079323d2232373022206772616469656e74556e6974733d227573657253706163654f6e557365223e3c73746f702073746f702d636f6c6f723d2223653063336663222f3e0a3c73746f70206f66667365743d2231222073746f702d636f6c6f723d2223386563356663222073746f702d6f7061636974793d222e3939222f3e3c2f6c696e6561724772616469656e743e3c2f646566733e3c7465787420783d2233322e352220793d2235302220666f6e742d73697a653d223237222066696c6c3d2223666666222066696c7465723d2275726c282341292220666f6e742d7765696768743d22626f6c64223e747261646549643a3c7465787420783d2233322e352220793d223130302220666f6e742d73697a653d223237222066696c6c3d2223666666222066696c7465723d2275726c282341292220666f6e742d7765696768743d22626f6c64223e76616c75653a3c646566733e3c6c696e6561724772616469656e742069643d2242222078313d2230222079313d2230222078323d22323730222079323d2232373022206772616469656e74556e6974733d227573657253706163654f6e557365223e3c73746f702073746f702d636f6c6f723d2223613865646561222f3e0a3c73746f70206f66667365743d2231222073746f702d636f6c6f723d2223666564366533222073746f702d6f7061636974793d222e3939222f3e3c2f6c696e6561724772616469656e743e3c2f646566733e",
					"opcodes": "PUSH1 0x80 PUSH1 0x40 MSTORE PUSH1 0x40 MLOAD DUP1 PUSH2 0x180 ADD PUSH1 0x40 MSTORE DUP1 PUSH2 0x155 DUP2 MSTORE PUSH1 0x20 ADD PUSH3 0x2410 PUSH2 0x155 SWAP2 CODECOPY PUSH1 0x3 SWAP1 DUP1 MLOAD SWAP1 PUSH1 0x20 ADD SWAP1 PUSH3 0x38 SWAP3 SWAP2 SWAP1 PUSH3 0x304 JUMP JUMPDEST POP PUSH1 0x40 MLOAD DUP1 PUSH2 0x100 ADD PUSH1 0x40 MSTORE DUP1 PUSH1 0xCB DUP2 MSTORE PUSH1 0x20 ADD PUSH3 0x25C3 PUSH1 0xCB SWAP2 CODECOPY PUSH1 0x4 SWAP1 DUP1 MLOAD SWAP1 PUSH1 0x20 ADD SWAP1 PUSH3 0x6B SWAP3 SWAP2 SWAP1 PUSH3 0x304 JUMP JUMPDEST POP PUSH1 0x40 MLOAD DUP1 PUSH2 0x100 ADD PUSH1 0x40 MSTORE DUP1 PUSH1 0xCB DUP2 MSTORE PUSH1 0x20 ADD PUSH3 0x268E PUSH1 0xCB SWAP2 CODECOPY PUSH1 0x5 SWAP1 DUP1 MLOAD SWAP1 PUSH1 0x20 ADD SWAP1 PUSH3 0x9E SWAP3 SWAP2 SWAP1 PUSH3 0x304 JUMP JUMPDEST POP PUSH1 0x40 MLOAD DUP1 PUSH2 0x100 ADD PUSH1 0x40 MSTORE DUP1 PUSH1 0xCB DUP2 MSTORE PUSH1 0x20 ADD PUSH3 0x2812 PUSH1 0xCB SWAP2 CODECOPY PUSH1 0x6 SWAP1 DUP1 MLOAD SWAP1 PUSH1 0x20 ADD SWAP1 PUSH3 0xD1 SWAP3 SWAP2 SWAP1 PUSH3 0x304 JUMP JUMPDEST POP PUSH1 0x40 MLOAD DUP1 PUSH1 0x80 ADD PUSH1 0x40 MSTORE DUP1 PUSH1 0x5D DUP2 MSTORE PUSH1 0x20 ADD PUSH3 0x2759 PUSH1 0x5D SWAP2 CODECOPY PUSH1 0x7 SWAP1 DUP1 MLOAD SWAP1 PUSH1 0x20 ADD SWAP1 PUSH3 0x103 SWAP3 SWAP2 SWAP1 PUSH3 0x304 JUMP JUMPDEST POP PUSH1 0x40 MLOAD DUP1 PUSH1 0x80 ADD PUSH1 0x40 MSTORE DUP1 PUSH1 0x5C DUP2 MSTORE PUSH1 0x20 ADD PUSH3 0x27B6 PUSH1 0x5C SWAP2 CODECOPY PUSH1 0x8 SWAP1 DUP1 MLOAD SWAP1 PUSH1 0x20 ADD SWAP1 PUSH3 0x135 SWAP3 SWAP2 SWAP1 PUSH3 0x304 JUMP JUMPDEST POP PUSH1 0x40 MLOAD DUP1 PUSH1 0x80 ADD PUSH1 0x40 MSTORE DUP1 PUSH1 0x5E DUP2 MSTORE PUSH1 0x20 ADD PUSH3 0x2565 PUSH1 0x5E SWAP2 CODECOPY PUSH1 0x9 SWAP1 DUP1 MLOAD SWAP1 PUSH1 0x20 ADD SWAP1 PUSH3 0x167 SWAP3 SWAP2 SWAP1 PUSH3 0x304 JUMP JUMPDEST POP PUSH1 0x40 MLOAD DUP1 PUSH1 0x40 ADD PUSH1 0x40 MSTORE DUP1 PUSH1 0xD DUP2 MSTORE PUSH1 0x20 ADD PUSH32 0x3C2F746578743E3C2F7376673E00000000000000000000000000000000000000 DUP2 MSTORE POP PUSH1 0xA SWAP1 DUP1 MLOAD SWAP1 PUSH1 0x20 ADD SWAP1 PUSH3 0x1B5 SWAP3 SWAP2 SWAP1 PUSH3 0x304 JUMP JUMPDEST POP PUSH1 0x40 MLOAD DUP1 PUSH1 0x40 ADD PUSH1 0x40 MSTORE DUP1 PUSH1 0x7 DUP2 MSTORE PUSH1 0x20 ADD PUSH32 0x3C2F746578743E00000000000000000000000000000000000000000000000000 DUP2 MSTORE POP PUSH1 0xB SWAP1 DUP1 MLOAD SWAP1 PUSH1 0x20 ADD SWAP1 PUSH3 0x203 SWAP3 SWAP2 SWAP1 PUSH3 0x304 JUMP JUMPDEST POP CALLVALUE DUP1 ISZERO PUSH3 0x211 JUMPI PUSH1 0x0 DUP1 REVERT JUMPDEST POP PUSH3 0x232 PUSH3 0x226 PUSH3 0x238 PUSH1 0x20 SHL PUSH1 0x20 SHR JUMP JUMPDEST PUSH3 0x240 PUSH1 0x20 SHL PUSH1 0x20 SHR JUMP JUMPDEST PUSH3 0x419 JUMP JUMPDEST PUSH1 0x0 CALLER SWAP1 POP SWAP1 JUMP JUMPDEST PUSH1 0x0 DUP1 PUSH1 0x0 SWAP1 SLOAD SWAP1 PUSH2 0x100 EXP SWAP1 DIV PUSH20 0xFFFFFFFFFFFFFFFFFFFFFFFFFFFFFFFFFFFFFFFF AND SWAP1 POP DUP2 PUSH1 0x0 DUP1 PUSH2 0x100 EXP DUP2 SLOAD DUP2 PUSH20 0xFFFFFFFFFFFFFFFFFFFFFFFFFFFFFFFFFFFFFFFF MUL NOT AND SWAP1 DUP4 PUSH20 0xFFFFFFFFFFFFFFFFFFFFFFFFFFFFFFFFFFFFFFFF AND MUL OR SWAP1 SSTORE POP DUP2 PUSH20 0xFFFFFFFFFFFFFFFFFFFFFFFFFFFFFFFFFFFFFFFF AND DUP2 PUSH20 0xFFFFFFFFFFFFFFFFFFFFFFFFFFFFFFFFFFFFFFFF AND PUSH32 0x8BE0079C531659141344CD1FD0A4F28419497F9722A3DAAFE3B4186F6B6457E0 PUSH1 0x40 MLOAD PUSH1 0x40 MLOAD DUP1 SWAP2 SUB SWAP1 LOG3 POP POP JUMP JUMPDEST DUP3 DUP1 SLOAD PUSH3 0x312 SWAP1 PUSH3 0x3E3 JUMP JUMPDEST SWAP1 PUSH1 0x0 MSTORE PUSH1 0x20 PUSH1 0x0 KECCAK256 SWAP1 PUSH1 0x1F ADD PUSH1 0x20 SWAP1 DIV DUP2 ADD SWAP3 DUP3 PUSH3 0x336 JUMPI PUSH1 0x0 DUP6 SSTORE PUSH3 0x382 JUMP JUMPDEST DUP3 PUSH1 0x1F LT PUSH3 0x351 JUMPI DUP1 MLOAD PUSH1 0xFF NOT AND DUP4 DUP1 ADD OR DUP6 SSTORE PUSH3 0x382 JUMP JUMPDEST DUP3 DUP1 ADD PUSH1 0x1 ADD DUP6 SSTORE DUP3 ISZERO PUSH3 0x382 JUMPI SWAP2 DUP3 ADD JUMPDEST DUP3 DUP2 GT ISZERO PUSH3 0x381 JUMPI DUP3 MLOAD DUP3 SSTORE SWAP2 PUSH1 0x20 ADD SWAP2 SWAP1 PUSH1 0x1 ADD SWAP1 PUSH3 0x364 JUMP JUMPDEST JUMPDEST POP SWAP1 POP PUSH3 0x391 SWAP2 SWAP1 PUSH3 0x395 JUMP JUMPDEST POP SWAP1 JUMP JUMPDEST JUMPDEST DUP1 DUP3 GT ISZERO PUSH3 0x3B0 JUMPI PUSH1 0x0 DUP2 PUSH1 0x0 SWAP1 SSTORE POP PUSH1 0x1 ADD PUSH3 0x396 JUMP JUMPDEST POP SWAP1 JUMP JUMPDEST PUSH32 0x4E487B7100000000000000000000000000000000000000000000000000000000 PUSH1 0x0 MSTORE PUSH1 0x22 PUSH1 0x4 MSTORE PUSH1 0x24 PUSH1 0x0 REVERT JUMPDEST PUSH1 0x0 PUSH1 0x2 DUP3 DIV SWAP1 POP PUSH1 0x1 DUP3 AND DUP1 PUSH3 0x3FC JUMPI PUSH1 0x7F DUP3 AND SWAP2 POP JUMPDEST PUSH1 0x20 DUP3 LT DUP2 EQ ISZERO PUSH3 0x413 JUMPI PUSH3 0x412 PUSH3 0x3B4 JUMP JUMPDEST JUMPDEST POP SWAP2 SWAP1 POP JUMP JUMPDEST PUSH2 0x1FE7 DUP1 PUSH3 0x429 PUSH1 0x0 CODECOPY PUSH1 0x0 RETURN INVALID PUSH1 0x80 PUSH1 0x40 MSTORE CALLVALUE DUP1 ISZERO PUSH2 0x10 JUMPI PUSH1 0x0 DUP1 REVERT JUMPDEST POP PUSH1 0x4 CALLDATASIZE LT PUSH2 0x7D JUMPI PUSH1 0x0 CALLDATALOAD PUSH1 0xE0 SHR DUP1 PUSH4 0x8DA5CB5B GT PUSH2 0x5B JUMPI DUP1 PUSH4 0x8DA5CB5B EQ PUSH2 0xC6 JUMPI DUP1 PUSH4 0xC4D66DE8 EQ PUSH2 0xE4 JUMPI DUP1 PUSH4 0xF2FDE38B EQ PUSH2 0x100 JUMPI DUP1 PUSH4 0xFAB95F36 EQ PUSH2 0x11C JUMPI PUSH2 0x7D JUMP JUMPDEST DUP1 PUSH4 0x44ED5C0A EQ PUSH2 0x82 JUMPI DUP1 PUSH4 0x4A49E0EF EQ PUSH2 0xA0 JUMPI DUP1 PUSH4 0x715018A6 EQ PUSH2 0xBC JUMPI JUMPDEST PUSH1 0x0 DUP1 REVERT JUMPDEST PUSH2 0x8A PUSH2 0x14C JUMP JUMPDEST PUSH1 0x40 MLOAD PUSH2 0x97 SWAP2 SWAP1 PUSH2 0x115D JUMP JUMPDEST PUSH1 0x40 MLOAD DUP1 SWAP2 SUB SWAP1 RETURN JUMPDEST PUSH2 0xBA PUSH1 0x4 DUP1 CALLDATASIZE SUB DUP2 ADD SWAP1 PUSH2 0xB5 SWAP2 SWAP1 PUSH2 0x11EE JUMP JUMPDEST PUSH2 0x172 JUMP JUMPDEST STOP JUMPDEST PUSH2 0xC4 PUSH2 0x738 JUMP JUMPDEST STOP JUMPDEST PUSH2 0xCE PUSH2 0x74C JUMP JUMPDEST PUSH1 0x40 MLOAD PUSH2 0xDB SWAP2 SWAP1 PUSH2 0x115D JUMP JUMPDEST PUSH1 0x40 MLOAD DUP1 SWAP2 SUB SWAP1 RETURN JUMPDEST PUSH2 0xFE PUSH1 0x4 DUP1 CALLDATASIZE SUB DUP2 ADD SWAP1 PUSH2 0xF9 SWAP2 SWAP1 PUSH2 0x127B JUMP JUMPDEST PUSH2 0x775 JUMP JUMPDEST STOP JUMPDEST PUSH2 0x11A PUSH1 0x4 DUP1 CALLDATASIZE SUB DUP2 ADD SWAP1 PUSH2 0x115 SWAP2 SWAP1 PUSH2 0x127B JUMP JUMPDEST PUSH2 0x7C1 JUMP JUMPDEST STOP JUMPDEST PUSH2 0x136 PUSH1 0x4 DUP1 CALLDATASIZE SUB DUP2 ADD SWAP1 PUSH2 0x131 SWAP2 SWAP1 PUSH2 0x12A8 JUMP JUMPDEST PUSH2 0x845 JUMP JUMPDEST PUSH1 0x40 MLOAD PUSH2 0x143 SWAP2 SWAP1 PUSH2 0x1381 JUMP JUMPDEST PUSH1 0x40 MLOAD DUP1 SWAP2 SUB SWAP1 RETURN JUMPDEST PUSH1 0x1 PUSH1 0x0 SWAP1 SLOAD SWAP1 PUSH2 0x100 EXP SWAP1 DIV PUSH20 0xFFFFFFFFFFFFFFFFFFFFFFFFFFFFFFFFFFFFFFFF AND DUP2 JUMP JUMPDEST PUSH1 0x1 PUSH1 0x0 SWAP1 SLOAD SWAP1 PUSH2 0x100 EXP SWAP1 DIV PUSH20 0xFFFFFFFFFFFFFFFFFFFFFFFFFFFFFFFFFFFFFFFF AND PUSH20 0xFFFFFFFFFFFFFFFFFFFFFFFFFFFFFFFFFFFFFFFF AND PUSH4 0xBD2014BF DUP8 PUSH1 0x40 MLOAD DUP3 PUSH4 0xFFFFFFFF AND PUSH1 0xE0 SHL DUP2 MSTORE PUSH1 0x4 ADD PUSH2 0x1CD SWAP2 SWAP1 PUSH2 0x13B2 JUMP JUMPDEST PUSH1 0x20 PUSH1 0x40 MLOAD DUP1 DUP4 SUB DUP2 DUP7 DUP1 EXTCODESIZE ISZERO DUP1 ISZERO PUSH2 0x1E5 JUMPI PUSH1 0x0 DUP1 REVERT JUMPDEST POP GAS STATICCALL ISZERO DUP1 ISZERO PUSH2 0x1F9 JUMPI RETURNDATASIZE PUSH1 0x0 DUP1 RETURNDATACOPY RETURNDATASIZE PUSH1 0x0 REVERT JUMPDEST POP POP POP POP PUSH1 0x40 MLOAD RETURNDATASIZE PUSH1 0x1F NOT PUSH1 0x1F DUP3 ADD AND DUP3 ADD DUP1 PUSH1 0x40 MSTORE POP DUP2 ADD SWAP1 PUSH2 0x21D SWAP2 SWAP1 PUSH2 0x13E2 JUMP JUMPDEST PUSH20 0xFFFFFFFFFFFFFFFFFFFFFFFFFFFFFFFFFFFFFFFF AND CALLER PUSH20 0xFFFFFFFFFFFFFFFFFFFFFFFFFFFFFFFFFFFFFFFF AND EQ PUSH2 0x28A JUMPI PUSH1 0x40 MLOAD PUSH32 0x8C379A000000000000000000000000000000000000000000000000000000000 DUP2 MSTORE PUSH1 0x4 ADD PUSH2 0x281 SWAP1 PUSH2 0x145B JUMP JUMPDEST PUSH1 0x40 MLOAD DUP1 SWAP2 SUB SWAP1 REVERT JUMPDEST PUSH1 0x0 CALLER PUSH20 0xFFFFFFFFFFFFFFFFFFFFFFFFFFFFFFFFFFFFFFFF AND PUSH4 0x95D89B41 PUSH1 0x40 MLOAD DUP2 PUSH4 0xFFFFFFFF AND PUSH1 0xE0 SHL DUP2 MSTORE PUSH1 0x4 ADD PUSH1 0x0 PUSH1 0x40 MLOAD DUP1 DUP4 SUB DUP2 DUP7 DUP1 EXTCODESIZE ISZERO DUP1 ISZERO PUSH2 0x2D2 JUMPI PUSH1 0x0 DUP1 REVERT JUMPDEST POP GAS STATICCALL ISZERO DUP1 ISZERO PUSH2 0x2E6 JUMPI RETURNDATASIZE PUSH1 0x0 DUP1 RETURNDATACOPY RETURNDATASIZE PUSH1 0x0 REVERT JUMPDEST POP POP POP POP PUSH1 0x40 MLOAD RETURNDATASIZE PUSH1 0x0 DUP3 RETURNDATACOPY RETURNDATASIZE PUSH1 0x1F NOT PUSH1 0x1F DUP3 ADD AND DUP3 ADD DUP1 PUSH1 0x40 MSTORE POP DUP2 ADD SWAP1 PUSH2 0x30F SWAP2 SWAP1 PUSH2 0x15A1 JUMP JUMPDEST SWAP1 POP PUSH1 0x0 PUSH2 0x31C DUP8 PUSH2 0x928 JUMP JUMPDEST SWAP1 POP PUSH1 0x60 DUP1 PUSH1 0x0 DUP7 EQ ISZERO PUSH2 0x3F4 JUMPI PUSH1 0x40 MLOAD DUP1 PUSH1 0x40 ADD PUSH1 0x40 MSTORE DUP1 PUSH1 0x5 DUP2 MSTORE PUSH1 0x20 ADD PUSH32 0x6275796572000000000000000000000000000000000000000000000000000000 DUP2 MSTORE POP SWAP2 POP PUSH1 0x4 DUP1 SLOAD PUSH2 0x36F SWAP1 PUSH2 0x1619 JUMP JUMPDEST DUP1 PUSH1 0x1F ADD PUSH1 0x20 DUP1 SWAP2 DIV MUL PUSH1 0x20 ADD PUSH1 0x40 MLOAD SWAP1 DUP2 ADD PUSH1 0x40 MSTORE DUP1 SWAP3 SWAP2 SWAP1 DUP2 DUP2 MSTORE PUSH1 0x20 ADD DUP3 DUP1 SLOAD PUSH2 0x39B SWAP1 PUSH2 0x1619 JUMP JUMPDEST DUP1 ISZERO PUSH2 0x3E8 JUMPI DUP1 PUSH1 0x1F LT PUSH2 0x3BD JUMPI PUSH2 0x100 DUP1 DUP4 SLOAD DIV MUL DUP4 MSTORE SWAP2 PUSH1 0x20 ADD SWAP2 PUSH2 0x3E8 JUMP JUMPDEST DUP3 ADD SWAP2 SWAP1 PUSH1 0x0 MSTORE PUSH1 0x20 PUSH1 0x0 KECCAK256 SWAP1 JUMPDEST DUP2 SLOAD DUP2 MSTORE SWAP1 PUSH1 0x1 ADD SWAP1 PUSH1 0x20 ADD DUP1 DUP4 GT PUSH2 0x3CB JUMPI DUP3 SWAP1 SUB PUSH1 0x1F AND DUP3 ADD SWAP2 JUMPDEST POP POP POP POP POP SWAP1 POP PUSH2 0x5A1 JUMP JUMPDEST PUSH1 0x1 DUP7 EQ ISZERO PUSH2 0x4C7 JUMPI PUSH1 0x40 MLOAD DUP1 PUSH1 0x40 ADD PUSH1 0x40 MSTORE DUP1 PUSH1 0x6 DUP2 MSTORE PUSH1 0x20 ADD PUSH32 0x73656C6C65720000000000000000000000000000000000000000000000000000 DUP2 MSTORE POP SWAP2 POP PUSH1 0x5 DUP1 SLOAD PUSH2 0x442 SWAP1 PUSH2 0x1619 JUMP JUMPDEST DUP1 PUSH1 0x1F ADD PUSH1 0x20 DUP1 SWAP2 DIV MUL PUSH1 0x20 ADD PUSH1 0x40 MLOAD SWAP1 DUP2 ADD PUSH1 0x40 MSTORE DUP1 SWAP3 SWAP2 SWAP1 DUP2 DUP2 MSTORE PUSH1 0x20 ADD DUP3 DUP1 SLOAD PUSH2 0x46E SWAP1 PUSH2 0x1619 JUMP JUMPDEST DUP1 ISZERO PUSH2 0x4BB JUMPI DUP1 PUSH1 0x1F LT PUSH2 0x490 JUMPI PUSH2 0x100 DUP1 DUP4 SLOAD DIV MUL DUP4 MSTORE SWAP2 PUSH1 0x20 ADD SWAP2 PUSH2 0x4BB JUMP JUMPDEST DUP3 ADD SWAP2 SWAP1 PUSH1 0x0 MSTORE PUSH1 0x20 PUSH1 0x0 KECCAK256 SWAP1 JUMPDEST DUP2 SLOAD DUP2 MSTORE SWAP1 PUSH1 0x1 ADD SWAP1 PUSH1 0x20 ADD DUP1 DUP4 GT PUSH2 0x49E JUMPI DUP3 SWAP1 SUB PUSH1 0x1F AND DUP3 ADD SWAP2 JUMPDEST POP POP POP POP POP SWAP1 POP PUSH2 0x5A0 JUMP JUMPDEST PUSH1 0x2 DUP7 EQ ISZERO PUSH2 0x59A JUMPI PUSH1 0x40 MLOAD DUP1 PUSH1 0x40 ADD PUSH1 0x40 MSTORE DUP1 PUSH1 0x6 DUP2 MSTORE PUSH1 0x20 ADD PUSH32 0x696E6A6563740000000000000000000000000000000000000000000000000000 DUP2 MSTORE POP SWAP2 POP PUSH1 0x6 DUP1 SLOAD PUSH2 0x515 SWAP1 PUSH2 0x1619 JUMP JUMPDEST DUP1 PUSH1 0x1F ADD PUSH1 0x20 DUP1 SWAP2 DIV MUL PUSH1 0x20 ADD PUSH1 0x40 MLOAD SWAP1 DUP2 ADD PUSH1 0x40 MSTORE DUP1 SWAP3 SWAP2 SWAP1 DUP2 DUP2 MSTORE PUSH1 0x20 ADD DUP3 DUP1 SLOAD PUSH2 0x541 SWAP1 PUSH2 0x1619 JUMP JUMPDEST DUP1 ISZERO PUSH2 0x58E JUMPI DUP1 PUSH1 0x1F LT PUSH2 0x563 JUMPI PUSH2 0x100 DUP1 DUP4 SLOAD DIV MUL DUP4 MSTORE SWAP2 PUSH1 0x20 ADD SWAP2 PUSH2 0x58E JUMP JUMPDEST DUP3 ADD SWAP2 SWAP1 PUSH1 0x0 MSTORE PUSH1 0x20 PUSH1 0x0 KECCAK256 SWAP1 JUMPDEST DUP2 SLOAD DUP2 MSTORE SWAP1 PUSH1 0x1 ADD SWAP1 PUSH1 0x20 ADD DUP1 DUP4 GT PUSH2 0x571 JUMPI DUP3 SWAP1 SUB PUSH1 0x1F AND DUP3 ADD SWAP2 JUMPDEST POP POP POP POP POP SWAP1 POP PUSH2 0x59F JUMP JUMPDEST PUSH1 0x0 DUP1 REVERT JUMPDEST JUMPDEST JUMPDEST PUSH1 0x0 PUSH1 0x3 DUP3 PUSH1 0x7 DUP7 PUSH1 0xB PUSH1 0x8 PUSH2 0x5B6 DUP15 PUSH2 0x928 JUMP JUMPDEST PUSH1 0xB PUSH1 0x9 DUP12 PUSH1 0xA PUSH1 0x40 MLOAD PUSH1 0x20 ADD PUSH2 0x5D7 SWAP12 SWAP11 SWAP10 SWAP9 SWAP8 SWAP7 SWAP6 SWAP5 SWAP4 SWAP3 SWAP2 SWAP1 PUSH2 0x171B JUMP JUMPDEST PUSH1 0x40 MLOAD PUSH1 0x20 DUP2 DUP4 SUB SUB DUP2 MSTORE SWAP1 PUSH1 0x40 MSTORE SWAP1 POP PUSH1 0x0 PUSH2 0x648 DUP7 PUSH2 0x5F7 DUP5 PUSH2 0xA00 JUMP JUMPDEST PUSH2 0x600 DUP16 PUSH2 0x928 JUMP JUMPDEST DUP9 PUSH2 0x60A DUP16 PUSH2 0x928 JUMP JUMPDEST PUSH2 0x613 DUP16 PUSH2 0x928 JUMP JUMPDEST DUP11 PUSH2 0x61D DUP16 PUSH2 0xB73 JUMP JUMPDEST PUSH1 0x40 MLOAD PUSH1 0x20 ADD PUSH2 0x634 SWAP9 SWAP8 SWAP7 SWAP6 SWAP5 SWAP4 SWAP3 SWAP2 SWAP1 PUSH2 0x1AD2 JUMP JUMPDEST PUSH1 0x40 MLOAD PUSH1 0x20 DUP2 DUP4 SUB SUB DUP2 MSTORE SWAP1 PUSH1 0x40 MSTORE PUSH2 0xA00 JUMP JUMPDEST SWAP1 POP PUSH1 0x0 DUP2 PUSH1 0x40 MLOAD PUSH1 0x20 ADD PUSH2 0x65D SWAP2 SWAP1 PUSH2 0x1BF3 JUMP JUMPDEST PUSH1 0x40 MLOAD PUSH1 0x20 DUP2 DUP4 SUB SUB DUP2 MSTORE SWAP1 PUSH1 0x40 MSTORE SWAP1 POP DUP1 PUSH1 0x2 PUSH1 0x0 CALLER PUSH20 0xFFFFFFFFFFFFFFFFFFFFFFFFFFFFFFFFFFFFFFFF AND PUSH20 0xFFFFFFFFFFFFFFFFFFFFFFFFFFFFFFFFFFFFFFFF AND DUP2 MSTORE PUSH1 0x20 ADD SWAP1 DUP2 MSTORE PUSH1 0x20 ADD PUSH1 0x0 KECCAK256 PUSH1 0x0 DUP14 DUP2 MSTORE PUSH1 0x20 ADD SWAP1 DUP2 MSTORE PUSH1 0x20 ADD PUSH1 0x0 KECCAK256 SWAP1 DUP1 MLOAD SWAP1 PUSH1 0x20 ADD SWAP1 PUSH2 0x6D2 SWAP3 SWAP2 SWAP1 PUSH2 0x1079 JUMP JUMPDEST POP CALLER PUSH20 0xFFFFFFFFFFFFFFFFFFFFFFFFFFFFFFFFFFFFFFFF AND PUSH32 0x2143B158F321DB6C4F6E14CD6CB53BB4FA16FDB16808BB5863C802DB705DE227 DUP14 DUP14 DUP14 DUP13 DUP11 PUSH1 0x40 MLOAD PUSH2 0x721 SWAP6 SWAP5 SWAP4 SWAP3 SWAP2 SWAP1 PUSH2 0x1C15 JUMP JUMPDEST PUSH1 0x40 MLOAD DUP1 SWAP2 SUB SWAP1 LOG2 POP POP POP POP POP POP POP POP POP POP POP POP POP JUMP JUMPDEST PUSH2 0x740 PUSH2 0xBA0 JUMP JUMPDEST PUSH2 0x74A PUSH1 0x0 PUSH2 0xC1E JUMP JUMPDEST JUMP JUMPDEST PUSH1 0x0 DUP1 PUSH1 0x0 SWAP1 SLOAD SWAP1 PUSH2 0x100 EXP SWAP1 DIV PUSH20 0xFFFFFFFFFFFFFFFFFFFFFFFFFFFFFFFFFFFFFFFF AND SWAP1 POP SWAP1 JUMP JUMPDEST PUSH2 0x77D PUSH2 0xBA0 JUMP JUMPDEST DUP1 PUSH1 0x1 PUSH1 0x0 PUSH2 0x100 EXP DUP2 SLOAD DUP2 PUSH20 0xFFFFFFFFFFFFFFFFFFFFFFFFFFFFFFFFFFFFFFFF MUL NOT AND SWAP1 DUP4 PUSH20 0xFFFFFFFFFFFFFFFFFFFFFFFFFFFFFFFFFFFFFFFF AND MUL OR SWAP1 SSTORE POP POP JUMP JUMPDEST PUSH2 0x7C9 PUSH2 0xBA0 JUMP JUMPDEST PUSH1 0x0 PUSH20 0xFFFFFFFFFFFFFFFFFFFFFFFFFFFFFFFFFFFFFFFF AND DUP2 PUSH20 0xFFFFFFFFFFFFFFFFFFFFFFFFFFFFFFFFFFFFFFFF AND EQ ISZERO PUSH2 0x839 JUMPI PUSH1 0x40 MLOAD PUSH32 0x8C379A000000000000000000000000000000000000000000000000000000000 DUP2 MSTORE PUSH1 0x4 ADD PUSH2 0x830 SWAP1 PUSH2 0x1CE1 JUMP JUMPDEST PUSH1 0x40 MLOAD DUP1 SWAP2 SUB SWAP1 REVERT JUMPDEST PUSH2 0x842 DUP2 PUSH2 0xC1E JUMP JUMPDEST POP JUMP JUMPDEST PUSH1 0x60 PUSH1 0x2 PUSH1 0x0 DUP5 PUSH20 0xFFFFFFFFFFFFFFFFFFFFFFFFFFFFFFFFFFFFFFFF AND PUSH20 0xFFFFFFFFFFFFFFFFFFFFFFFFFFFFFFFFFFFFFFFF AND DUP2 MSTORE PUSH1 0x20 ADD SWAP1 DUP2 MSTORE PUSH1 0x20 ADD PUSH1 0x0 KECCAK256 PUSH1 0x0 DUP4 DUP2 MSTORE PUSH1 0x20 ADD SWAP1 DUP2 MSTORE PUSH1 0x20 ADD PUSH1 0x0 KECCAK256 DUP1 SLOAD PUSH2 0x8A2 SWAP1 PUSH2 0x1619 JUMP JUMPDEST DUP1 PUSH1 0x1F ADD PUSH1 0x20 DUP1 SWAP2 DIV MUL PUSH1 0x20 ADD PUSH1 0x40 MLOAD SWAP1 DUP2 ADD PUSH1 0x40 MSTORE DUP1 SWAP3 SWAP2 SWAP1 DUP2 DUP2 MSTORE PUSH1 0x20 ADD DUP3 DUP1 SLOAD PUSH2 0x8CE SWAP1 PUSH2 0x1619 JUMP JUMPDEST DUP1 ISZERO PUSH2 0x91B JUMPI DUP1 PUSH1 0x1F LT PUSH2 0x8F0 JUMPI PUSH2 0x100 DUP1 DUP4 SLOAD DIV MUL DUP4 MSTORE SWAP2 PUSH1 0x20 ADD SWAP2 PUSH2 0x91B JUMP JUMPDEST DUP3 ADD SWAP2 SWAP1 PUSH1 0x0 MSTORE PUSH1 0x20 PUSH1 0x0 KECCAK256 SWAP1 JUMPDEST DUP2 SLOAD DUP2 MSTORE SWAP1 PUSH1 0x1 ADD SWAP1 PUSH1 0x20 ADD DUP1 DUP4 GT PUSH2 0x8FE JUMPI DUP3 SWAP1 SUB PUSH1 0x1F AND DUP3 ADD SWAP2 JUMPDEST POP POP POP POP POP SWAP1 POP SWAP3 SWAP2 POP POP JUMP JUMPDEST PUSH1 0x60 PUSH1 0x0 PUSH1 0x1 PUSH2 0x937 DUP5 PUSH2 0xCE2 JUMP JUMPDEST ADD SWAP1 POP PUSH1 0x0 DUP2 PUSH8 0xFFFFFFFFFFFFFFFF DUP2 GT ISZERO PUSH2 0x956 JUMPI PUSH2 0x955 PUSH2 0x1485 JUMP JUMPDEST JUMPDEST PUSH1 0x40 MLOAD SWAP1 DUP1 DUP3 MSTORE DUP1 PUSH1 0x1F ADD PUSH1 0x1F NOT AND PUSH1 0x20 ADD DUP3 ADD PUSH1 0x40 MSTORE DUP1 ISZERO PUSH2 0x988 JUMPI DUP2 PUSH1 0x20 ADD PUSH1 0x1 DUP3 MUL DUP1 CALLDATASIZE DUP4 CALLDATACOPY DUP1 DUP3 ADD SWAP2 POP POP SWAP1 POP JUMPDEST POP SWAP1 POP PUSH1 0x0 DUP3 PUSH1 0x20 ADD DUP3 ADD SWAP1 POP JUMPDEST PUSH1 0x1 ISZERO PUSH2 0x9F5 JUMPI DUP1 DUP1 PUSH1 0x1 SWAP1 SUB SWAP2 POP POP PUSH32 0x3031323334353637383961626364656600000000000000000000000000000000 PUSH1 0xA DUP7 MOD BYTE DUP2 MSTORE8 PUSH1 0xA DUP6 DUP2 PUSH2 0x9DF JUMPI PUSH2 0x9DE PUSH2 0x1D01 JUMP JUMPDEST JUMPDEST DIV SWAP5 POP PUSH1 0x0 DUP6 EQ ISZERO PUSH2 0x9F0 JUMPI PUSH2 0x9F5 JUMP JUMPDEST PUSH2 0x996 JUMP JUMPDEST DUP2 SWAP4 POP POP POP POP SWAP2 SWAP1 POP JUMP JUMPDEST PUSH1 0x60 PUSH1 0x0 DUP3 MLOAD EQ ISZERO PUSH2 0xA23 JUMPI PUSH1 0x40 MLOAD DUP1 PUSH1 0x20 ADD PUSH1 0x40 MSTORE DUP1 PUSH1 0x0 DUP2 MSTORE POP SWAP1 POP PUSH2 0xB6E JUMP JUMPDEST PUSH1 0x0 PUSH1 0x40 MLOAD DUP1 PUSH1 0x60 ADD PUSH1 0x40 MSTORE DUP1 PUSH1 0x40 DUP2 MSTORE PUSH1 0x20 ADD PUSH2 0x1F72 PUSH1 0x40 SWAP2 CODECOPY SWAP1 POP PUSH1 0x0 PUSH1 0x3 PUSH1 0x2 DUP6 MLOAD PUSH2 0xA52 SWAP2 SWAP1 PUSH2 0x1D5F JUMP JUMPDEST PUSH2 0xA5C SWAP2 SWAP1 PUSH2 0x1DB5 JUMP JUMPDEST PUSH1 0x4 PUSH2 0xA68 SWAP2 SWAP1 PUSH2 0x1DE6 JUMP JUMPDEST PUSH8 0xFFFFFFFFFFFFFFFF DUP2 GT ISZERO PUSH2 0xA81 JUMPI PUSH2 0xA80 PUSH2 0x1485 JUMP JUMPDEST JUMPDEST PUSH1 0x40 MLOAD SWAP1 DUP1 DUP3 MSTORE DUP1 PUSH1 0x1F ADD PUSH1 0x1F NOT AND PUSH1 0x20 ADD DUP3 ADD PUSH1 0x40 MSTORE DUP1 ISZERO PUSH2 0xAB3 JUMPI DUP2 PUSH1 0x20 ADD PUSH1 0x1 DUP3 MUL DUP1 CALLDATASIZE DUP4 CALLDATACOPY DUP1 DUP3 ADD SWAP2 POP POP SWAP1 POP JUMPDEST POP SWAP1 POP PUSH1 0x1 DUP3 ADD PUSH1 0x20 DUP3 ADD DUP6 DUP7 MLOAD DUP8 ADD PUSH1 0x20 DUP2 ADD DUP1 MLOAD PUSH1 0x0 DUP3 MSTORE JUMPDEST DUP3 DUP5 LT ISZERO PUSH2 0xB29 JUMPI PUSH1 0x3 DUP5 ADD SWAP4 POP DUP4 MLOAD PUSH1 0x3F DUP2 PUSH1 0x12 SHR AND DUP8 ADD MLOAD DUP7 MSTORE8 PUSH1 0x1 DUP7 ADD SWAP6 POP PUSH1 0x3F DUP2 PUSH1 0xC SHR AND DUP8 ADD MLOAD DUP7 MSTORE8 PUSH1 0x1 DUP7 ADD SWAP6 POP PUSH1 0x3F DUP2 PUSH1 0x6 SHR AND DUP8 ADD MLOAD DUP7 MSTORE8 PUSH1 0x1 DUP7 ADD SWAP6 POP PUSH1 0x3F DUP2 AND DUP8 ADD MLOAD DUP7 MSTORE8 PUSH1 0x1 DUP7 ADD SWAP6 POP POP PUSH2 0xACE JUMP JUMPDEST DUP1 DUP3 MSTORE PUSH1 0x3 DUP11 MLOAD MOD PUSH1 0x1 DUP2 EQ PUSH2 0xB46 JUMPI PUSH1 0x2 DUP2 EQ PUSH2 0xB59 JUMPI PUSH2 0xB61 JUMP JUMPDEST PUSH1 0x3D PUSH1 0x1 DUP8 SUB MSTORE8 PUSH1 0x3D PUSH1 0x2 DUP8 SUB MSTORE8 PUSH2 0xB61 JUMP JUMPDEST PUSH1 0x3D PUSH1 0x1 DUP8 SUB MSTORE8 JUMPDEST POP POP POP POP POP POP POP DUP1 SWAP3 POP POP POP JUMPDEST SWAP2 SWAP1 POP JUMP JUMPDEST PUSH1 0x60 PUSH2 0xB99 DUP3 PUSH20 0xFFFFFFFFFFFFFFFFFFFFFFFFFFFFFFFFFFFFFFFF AND PUSH1 0x14 PUSH1 0xFF AND PUSH2 0xE35 JUMP JUMPDEST SWAP1 POP SWAP2 SWAP1 POP JUMP JUMPDEST PUSH2 0xBA8 PUSH2 0x1071 JUMP JUMPDEST PUSH20 0xFFFFFFFFFFFFFFFFFFFFFFFFFFFFFFFFFFFFFFFF AND PUSH2 0xBC6 PUSH2 0x74C JUMP JUMPDEST PUSH20 0xFFFFFFFFFFFFFFFFFFFFFFFFFFFFFFFFFFFFFFFF AND EQ PUSH2 0xC1C JUMPI PUSH1 0x40 MLOAD PUSH32 0x8C379A000000000000000000000000000000000000000000000000000000000 DUP2 MSTORE PUSH1 0x4 ADD PUSH2 0xC13 SWAP1 PUSH2 0x1E8C JUMP JUMPDEST PUSH1 0x40 MLOAD DUP1 SWAP2 SUB SWAP1 REVERT JUMPDEST JUMP JUMPDEST PUSH1 0x0 DUP1 PUSH1 0x0 SWAP1 SLOAD SWAP1 PUSH2 0x100 EXP SWAP1 DIV PUSH20 0xFFFFFFFFFFFFFFFFFFFFFFFFFFFFFFFFFFFFFFFF AND SWAP1 POP DUP2 PUSH1 0x0 DUP1 PUSH2 0x100 EXP DUP2 SLOAD DUP2 PUSH20 0xFFFFFFFFFFFFFFFFFFFFFFFFFFFFFFFFFFFFFFFF MUL NOT AND SWAP1 DUP4 PUSH20 0xFFFFFFFFFFFFFFFFFFFFFFFFFFFFFFFFFFFFFFFF AND MUL OR SWAP1 SSTORE POP DUP2 PUSH20 0xFFFFFFFFFFFFFFFFFFFFFFFFFFFFFFFFFFFFFFFF AND DUP2 PUSH20 0xFFFFFFFFFFFFFFFFFFFFFFFFFFFFFFFFFFFFFFFF AND PUSH32 0x8BE0079C531659141344CD1FD0A4F28419497F9722A3DAAFE3B4186F6B6457E0 PUSH1 0x40 MLOAD PUSH1 0x40 MLOAD DUP1 SWAP2 SUB SWAP1 LOG3 POP POP JUMP JUMPDEST PUSH1 0x0 DUP1 PUSH1 0x0 SWAP1 POP PUSH27 0x184F03E93FF9F4DAA797ED6E38ED64BF6A1F010000000000000000 DUP4 LT PUSH2 0xD40 JUMPI PUSH27 0x184F03E93FF9F4DAA797ED6E38ED64BF6A1F010000000000000000 DUP4 DUP2 PUSH2 0xD36 JUMPI PUSH2 0xD35 PUSH2 0x1D01 JUMP JUMPDEST JUMPDEST DIV SWAP3 POP PUSH1 0x40 DUP2 ADD SWAP1 POP JUMPDEST PUSH14 0x4EE2D6D415B85ACEF8100000000 DUP4 LT PUSH2 0xD7D JUMPI PUSH14 0x4EE2D6D415B85ACEF8100000000 DUP4 DUP2 PUSH2 0xD73 JUMPI PUSH2 0xD72 PUSH2 0x1D01 JUMP JUMPDEST JUMPDEST DIV SWAP3 POP PUSH1 0x20 DUP2 ADD SWAP1 POP JUMPDEST PUSH7 0x2386F26FC10000 DUP4 LT PUSH2 0xDAC JUMPI PUSH7 0x2386F26FC10000 DUP4 DUP2 PUSH2 0xDA2 JUMPI PUSH2 0xDA1 PUSH2 0x1D01 JUMP JUMPDEST JUMPDEST DIV SWAP3 POP PUSH1 0x10 DUP2 ADD SWAP1 POP JUMPDEST PUSH4 0x5F5E100 DUP4 LT PUSH2 0xDD5 JUMPI PUSH4 0x5F5E100 DUP4 DUP2 PUSH2 0xDCB JUMPI PUSH2 0xDCA PUSH2 0x1D01 JUMP JUMPDEST JUMPDEST DIV SWAP3 POP PUSH1 0x8 DUP2 ADD SWAP1 POP JUMPDEST PUSH2 0x2710 DUP4 LT PUSH2 0xDFA JUMPI PUSH2 0x2710 DUP4 DUP2 PUSH2 0xDF0 JUMPI PUSH2 0xDEF PUSH2 0x1D01 JUMP JUMPDEST JUMPDEST DIV SWAP3 POP PUSH1 0x4 DUP2 ADD SWAP1 POP JUMPDEST PUSH1 0x64 DUP4 LT PUSH2 0xE1D JUMPI PUSH1 0x64 DUP4 DUP2 PUSH2 0xE13 JUMPI PUSH2 0xE12 PUSH2 0x1D01 JUMP JUMPDEST JUMPDEST DIV SWAP3 POP PUSH1 0x2 DUP2 ADD SWAP1 POP JUMPDEST PUSH1 0xA DUP4 LT PUSH2 0xE2C JUMPI PUSH1 0x1 DUP2 ADD SWAP1 POP JUMPDEST DUP1 SWAP2 POP POP SWAP2 SWAP1 POP JUMP JUMPDEST PUSH1 0x60 PUSH1 0x0 PUSH1 0x2 DUP4 PUSH1 0x2 PUSH2 0xE48 SWAP2 SWAP1 PUSH2 0x1DE6 JUMP JUMPDEST PUSH2 0xE52 SWAP2 SWAP1 PUSH2 0x1D5F JUMP JUMPDEST PUSH8 0xFFFFFFFFFFFFFFFF DUP2 GT ISZERO PUSH2 0xE6B JUMPI PUSH2 0xE6A PUSH2 0x1485 JUMP JUMPDEST JUMPDEST PUSH1 0x40 MLOAD SWAP1 DUP1 DUP3 MSTORE DUP1 PUSH1 0x1F ADD PUSH1 0x1F NOT AND PUSH1 0x20 ADD DUP3 ADD PUSH1 0x40 MSTORE DUP1 ISZERO PUSH2 0xE9D JUMPI DUP2 PUSH1 0x20 ADD PUSH1 0x1 DUP3 MUL DUP1 CALLDATASIZE DUP4 CALLDATACOPY DUP1 DUP3 ADD SWAP2 POP POP SWAP1 POP JUMPDEST POP SWAP1 POP PUSH32 0x3000000000000000000000000000000000000000000000000000000000000000 DUP2 PUSH1 0x0 DUP2 MLOAD DUP2 LT PUSH2 0xED5 JUMPI PUSH2 0xED4 PUSH2 0x1EAC JUMP JUMPDEST JUMPDEST PUSH1 0x20 ADD ADD SWAP1 PUSH31 0xFFFFFFFFFFFFFFFFFFFFFFFFFFFFFFFFFFFFFFFFFFFFFFFFFFFFFFFFFFFFFF NOT AND SWAP1 DUP2 PUSH1 0x0 BYTE SWAP1 MSTORE8 POP PUSH32 0x7800000000000000000000000000000000000000000000000000000000000000 DUP2 PUSH1 0x1 DUP2 MLOAD DUP2 LT PUSH2 0xF39 JUMPI PUSH2 0xF38 PUSH2 0x1EAC JUMP JUMPDEST JUMPDEST PUSH1 0x20 ADD ADD SWAP1 PUSH31 0xFFFFFFFFFFFFFFFFFFFFFFFFFFFFFFFFFFFFFFFFFFFFFFFFFFFFFFFFFFFFFF NOT AND SWAP1 DUP2 PUSH1 0x0 BYTE SWAP1 MSTORE8 POP PUSH1 0x0 PUSH1 0x1 DUP5 PUSH1 0x2 PUSH2 0xF79 SWAP2 SWAP1 PUSH2 0x1DE6 JUMP JUMPDEST PUSH2 0xF83 SWAP2 SWAP1 PUSH2 0x1D5F JUMP JUMPDEST SWAP1 POP JUMPDEST PUSH1 0x1 DUP2 GT ISZERO PUSH2 0x1023 JUMPI PUSH32 0x3031323334353637383961626364656600000000000000000000000000000000 PUSH1 0xF DUP7 AND PUSH1 0x10 DUP2 LT PUSH2 0xFC5 JUMPI PUSH2 0xFC4 PUSH2 0x1EAC JUMP JUMPDEST JUMPDEST BYTE PUSH1 0xF8 SHL DUP3 DUP3 DUP2 MLOAD DUP2 LT PUSH2 0xFDC JUMPI PUSH2 0xFDB PUSH2 0x1EAC JUMP JUMPDEST JUMPDEST PUSH1 0x20 ADD ADD SWAP1 PUSH31 0xFFFFFFFFFFFFFFFFFFFFFFFFFFFFFFFFFFFFFFFFFFFFFFFFFFFFFFFFFFFFFF NOT AND SWAP1 DUP2 PUSH1 0x0 BYTE SWAP1 MSTORE8 POP PUSH1 0x4 DUP6 SWAP1 SHR SWAP5 POP DUP1 PUSH2 0x101C SWAP1 PUSH2 0x1EDB JUMP JUMPDEST SWAP1 POP PUSH2 0xF86 JUMP JUMPDEST POP PUSH1 0x0 DUP5 EQ PUSH2 0x1067 JUMPI PUSH1 0x40 MLOAD PUSH32 0x8C379A000000000000000000000000000000000000000000000000000000000 DUP2 MSTORE PUSH1 0x4 ADD PUSH2 0x105E SWAP1 PUSH2 0x1F51 JUMP JUMPDEST PUSH1 0x40 MLOAD DUP1 SWAP2 SUB SWAP1 REVERT JUMPDEST DUP1 SWAP2 POP POP SWAP3 SWAP2 POP POP JUMP JUMPDEST PUSH1 0x0 CALLER SWAP1 POP SWAP1 JUMP JUMPDEST DUP3 DUP1 SLOAD PUSH2 0x1085 SWAP1 PUSH2 0x1619 JUMP JUMPDEST SWAP1 PUSH1 0x0 MSTORE PUSH1 0x20 PUSH1 0x0 KECCAK256 SWAP1 PUSH1 0x1F ADD PUSH1 0x20 SWAP1 DIV DUP2 ADD SWAP3 DUP3 PUSH2 0x10A7 JUMPI PUSH1 0x0 DUP6 SSTORE PUSH2 0x10EE JUMP JUMPDEST DUP3 PUSH1 0x1F LT PUSH2 0x10C0 JUMPI DUP1 MLOAD PUSH1 0xFF NOT AND DUP4 DUP1 ADD OR DUP6 SSTORE PUSH2 0x10EE JUMP JUMPDEST DUP3 DUP1 ADD PUSH1 0x1 ADD DUP6 SSTORE DUP3 ISZERO PUSH2 0x10EE JUMPI SWAP2 DUP3 ADD JUMPDEST DUP3 DUP2 GT ISZERO PUSH2 0x10ED JUMPI DUP3 MLOAD DUP3 SSTORE SWAP2 PUSH1 0x20 ADD SWAP2 SWAP1 PUSH1 0x1 ADD SWAP1 PUSH2 0x10D2 JUMP JUMPDEST JUMPDEST POP SWAP1 POP PUSH2 0x10FB SWAP2 SWAP1 PUSH2 0x10FF JUMP JUMPDEST POP SWAP1 JUMP JUMPDEST JUMPDEST DUP1 DUP3 GT ISZERO PUSH2 0x1118 JUMPI PUSH1 0x0 DUP2 PUSH1 0x0 SWAP1 SSTORE POP PUSH1 0x1 ADD PUSH2 0x1100 JUMP JUMPDEST POP SWAP1 JUMP JUMPDEST PUSH1 0x0 PUSH20 0xFFFFFFFFFFFFFFFFFFFFFFFFFFFFFFFFFFFFFFFF DUP3 AND SWAP1 POP SWAP2 SWAP1 POP JUMP JUMPDEST PUSH1 0x0 PUSH2 0x1147 DUP3 PUSH2 0x111C JUMP JUMPDEST SWAP1 POP SWAP2 SWAP1 POP JUMP JUMPDEST PUSH2 0x1157 DUP2 PUSH2 0x113C JUMP JUMPDEST DUP3 MSTORE POP POP JUMP JUMPDEST PUSH1 0x0 PUSH1 0x20 DUP3 ADD SWAP1 POP PUSH2 0x1172 PUSH1 0x0 DUP4 ADD DUP5 PUSH2 0x114E JUMP JUMPDEST SWAP3 SWAP2 POP POP JUMP JUMPDEST PUSH1 0x0 PUSH1 0x40 MLOAD SWAP1 POP SWAP1 JUMP JUMPDEST PUSH1 0x0 DUP1 REVERT JUMPDEST PUSH1 0x0 DUP1 REVERT JUMPDEST PUSH1 0x0 DUP2 SWAP1 POP SWAP2 SWAP1 POP JUMP JUMPDEST PUSH2 0x119F DUP2 PUSH2 0x118C JUMP JUMPDEST DUP2 EQ PUSH2 0x11AA JUMPI PUSH1 0x0 DUP1 REVERT JUMPDEST POP JUMP JUMPDEST PUSH1 0x0 DUP2 CALLDATALOAD SWAP1 POP PUSH2 0x11BC DUP2 PUSH2 0x1196 JUMP JUMPDEST SWAP3 SWAP2 POP POP JUMP JUMPDEST PUSH2 0x11CB DUP2 PUSH2 0x113C JUMP JUMPDEST DUP2 EQ PUSH2 0x11D6 JUMPI PUSH1 0x0 DUP1 REVERT JUMPDEST POP JUMP JUMPDEST PUSH1 0x0 DUP2 CALLDATALOAD SWAP1 POP PUSH2 0x11E8 DUP2 PUSH2 0x11C2 JUMP JUMPDEST SWAP3 SWAP2 POP POP JUMP JUMPDEST PUSH1 0x0 DUP1 PUSH1 0x0 DUP1 PUSH1 0x0 DUP1 PUSH1 0xC0 DUP8 DUP10 SUB SLT ISZERO PUSH2 0x120B JUMPI PUSH2 0x120A PUSH2 0x1182 JUMP JUMPDEST JUMPDEST PUSH1 0x0 PUSH2 0x1219 DUP10 DUP3 DUP11 ADD PUSH2 0x11AD JUMP JUMPDEST SWAP7 POP POP PUSH1 0x20 PUSH2 0x122A DUP10 DUP3 DUP11 ADD PUSH2 0x11AD JUMP JUMPDEST SWAP6 POP POP PUSH1 0x40 PUSH2 0x123B DUP10 DUP3 DUP11 ADD PUSH2 0x11AD JUMP JUMPDEST SWAP5 POP POP PUSH1 0x60 PUSH2 0x124C DUP10 DUP3 DUP11 ADD PUSH2 0x11AD JUMP JUMPDEST SWAP4 POP POP PUSH1 0x80 PUSH2 0x125D DUP10 DUP3 DUP11 ADD PUSH2 0x11AD JUMP JUMPDEST SWAP3 POP POP PUSH1 0xA0 PUSH2 0x126E DUP10 DUP3 DUP11 ADD PUSH2 0x11D9 JUMP JUMPDEST SWAP2 POP POP SWAP3 SWAP6 POP SWAP3 SWAP6 POP SWAP3 SWAP6 JUMP JUMPDEST PUSH1 0x0 PUSH1 0x20 DUP3 DUP5 SUB SLT ISZERO PUSH2 0x1291 JUMPI PUSH2 0x1290 PUSH2 0x1182 JUMP JUMPDEST JUMPDEST PUSH1 0x0 PUSH2 0x129F DUP5 DUP3 DUP6 ADD PUSH2 0x11D9 JUMP JUMPDEST SWAP2 POP POP SWAP3 SWAP2 POP POP JUMP JUMPDEST PUSH1 0x0 DUP1 PUSH1 0x40 DUP4 DUP6 SUB SLT ISZERO PUSH2 0x12BF JUMPI PUSH2 0x12BE PUSH2 0x1182 JUMP JUMPDEST JUMPDEST PUSH1 0x0 PUSH2 0x12CD DUP6 DUP3 DUP7 ADD PUSH2 0x11D9 JUMP JUMPDEST SWAP3 POP POP PUSH1 0x20 PUSH2 0x12DE DUP6 DUP3 DUP7 ADD PUSH2 0x11AD JUMP JUMPDEST SWAP2 POP POP SWAP3 POP SWAP3 SWAP1 POP JUMP JUMPDEST PUSH1 0x0 DUP2 MLOAD SWAP1 POP SWAP2 SWAP1 POP JUMP JUMPDEST PUSH1 0x0 DUP3 DUP3 MSTORE PUSH1 0x20 DUP3 ADD SWAP1 POP SWAP3 SWAP2 POP POP JUMP JUMPDEST PUSH1 0x0 JUMPDEST DUP4 DUP2 LT ISZERO PUSH2 0x1322 JUMPI DUP1 DUP3 ADD MLOAD DUP2 DUP5 ADD MSTORE PUSH1 0x20 DUP2 ADD SWAP1 POP PUSH2 0x1307 JUMP JUMPDEST DUP4 DUP2 GT ISZERO PUSH2 0x1331 JUMPI PUSH1 0x0 DUP5 DUP5 ADD MSTORE JUMPDEST POP POP POP POP JUMP JUMPDEST PUSH1 0x0 PUSH1 0x1F NOT PUSH1 0x1F DUP4 ADD AND SWAP1 POP SWAP2 SWAP1 POP JUMP JUMPDEST PUSH1 0x0 PUSH2 0x1353 DUP3 PUSH2 0x12E8 JUMP JUMPDEST PUSH2 0x135D DUP2 DUP6 PUSH2 0x12F3 JUMP JUMPDEST SWAP4 POP PUSH2 0x136D DUP2 DUP6 PUSH1 0x20 DUP7 ADD PUSH2 0x1304 JUMP JUMPDEST PUSH2 0x1376 DUP2 PUSH2 0x1337 JUMP JUMPDEST DUP5 ADD SWAP2 POP POP SWAP3 SWAP2 POP POP JUMP JUMPDEST PUSH1 0x0 PUSH1 0x20 DUP3 ADD SWAP1 POP DUP2 DUP2 SUB PUSH1 0x0 DUP4 ADD MSTORE PUSH2 0x139B DUP2 DUP5 PUSH2 0x1348 JUMP JUMPDEST SWAP1 POP SWAP3 SWAP2 POP POP JUMP JUMPDEST PUSH2 0x13AC DUP2 PUSH2 0x118C JUMP JUMPDEST DUP3 MSTORE POP POP JUMP JUMPDEST PUSH1 0x0 PUSH1 0x20 DUP3 ADD SWAP1 POP PUSH2 0x13C7 PUSH1 0x0 DUP4 ADD DUP5 PUSH2 0x13A3 JUMP JUMPDEST SWAP3 SWAP2 POP POP JUMP JUMPDEST PUSH1 0x0 DUP2 MLOAD SWAP1 POP PUSH2 0x13DC DUP2 PUSH2 0x11C2 JUMP JUMPDEST SWAP3 SWAP2 POP POP JUMP JUMPDEST PUSH1 0x0 PUSH1 0x20 DUP3 DUP5 SUB SLT ISZERO PUSH2 0x13F8 JUMPI PUSH2 0x13F7 PUSH2 0x1182 JUMP JUMPDEST JUMPDEST PUSH1 0x0 PUSH2 0x1406 DUP5 DUP3 DUP6 ADD PUSH2 0x13CD JUMP JUMPDEST SWAP2 POP POP SWAP3 SWAP2 POP POP JUMP JUMPDEST PUSH32 0x4E6F6E206D61726B657400000000000000000000000000000000000000000000 PUSH1 0x0 DUP3 ADD MSTORE POP JUMP JUMPDEST PUSH1 0x0 PUSH2 0x1445 PUSH1 0xA DUP4 PUSH2 0x12F3 JUMP JUMPDEST SWAP2 POP PUSH2 0x1450 DUP3 PUSH2 0x140F JUMP JUMPDEST PUSH1 0x20 DUP3 ADD SWAP1 POP SWAP2 SWAP1 POP JUMP JUMPDEST PUSH1 0x0 PUSH1 0x20 DUP3 ADD SWAP1 POP DUP2 DUP2 SUB PUSH1 0x0 DUP4 ADD MSTORE PUSH2 0x1474 DUP2 PUSH2 0x1438 JUMP JUMPDEST SWAP1 POP SWAP2 SWAP1 POP JUMP JUMPDEST PUSH1 0x0 DUP1 REVERT JUMPDEST PUSH1 0x0 DUP1 REVERT JUMPDEST PUSH32 0x4E487B7100000000000000000000000000000000000000000000000000000000 PUSH1 0x0 MSTORE PUSH1 0x41 PUSH1 0x4 MSTORE PUSH1 0x24 PUSH1 0x0 REVERT JUMPDEST PUSH2 0x14BD DUP3 PUSH2 0x1337 JUMP JUMPDEST DUP2 ADD DUP2 DUP2 LT PUSH8 0xFFFFFFFFFFFFFFFF DUP3 GT OR ISZERO PUSH2 0x14DC JUMPI PUSH2 0x14DB PUSH2 0x1485 JUMP JUMPDEST JUMPDEST DUP1 PUSH1 0x40 MSTORE POP POP POP JUMP JUMPDEST PUSH1 0x0 PUSH2 0x14EF PUSH2 0x1178 JUMP JUMPDEST SWAP1 POP PUSH2 0x14FB DUP3 DUP3 PUSH2 0x14B4 JUMP JUMPDEST SWAP2 SWAP1 POP JUMP JUMPDEST PUSH1 0x0 PUSH8 0xFFFFFFFFFFFFFFFF DUP3 GT ISZERO PUSH2 0x151B JUMPI PUSH2 0x151A PUSH2 0x1485 JUMP JUMPDEST JUMPDEST PUSH2 0x1524 DUP3 PUSH2 0x1337 JUMP JUMPDEST SWAP1 POP PUSH1 0x20 DUP2 ADD SWAP1 POP SWAP2 SWAP1 POP JUMP JUMPDEST PUSH1 0x0 PUSH2 0x1544 PUSH2 0x153F DUP5 PUSH2 0x1500 JUMP JUMPDEST PUSH2 0x14E5 JUMP JUMPDEST SWAP1 POP DUP3 DUP2 MSTORE PUSH1 0x20 DUP2 ADD DUP5 DUP5 DUP5 ADD GT ISZERO PUSH2 0x1560 JUMPI PUSH2 0x155F PUSH2 0x1480 JUMP JUMPDEST JUMPDEST PUSH2 0x156B DUP5 DUP3 DUP6 PUSH2 0x1304 JUMP JUMPDEST POP SWAP4 SWAP3 POP POP POP JUMP JUMPDEST PUSH1 0x0 DUP3 PUSH1 0x1F DUP4 ADD SLT PUSH2 0x1588 JUMPI PUSH2 0x1587 PUSH2 0x147B JUMP JUMPDEST JUMPDEST DUP2 MLOAD PUSH2 0x1598 DUP5 DUP3 PUSH1 0x20 DUP7 ADD PUSH2 0x1531 JUMP JUMPDEST SWAP2 POP POP SWAP3 SWAP2 POP POP JUMP JUMPDEST PUSH1 0x0 PUSH1 0x20 DUP3 DUP5 SUB SLT ISZERO PUSH2 0x15B7 JUMPI PUSH2 0x15B6 PUSH2 0x1182 JUMP JUMPDEST JUMPDEST PUSH1 0x0 DUP3 ADD MLOAD PUSH8 0xFFFFFFFFFFFFFFFF DUP2 GT ISZERO PUSH2 0x15D5 JUMPI PUSH2 0x15D4 PUSH2 0x1187 JUMP JUMPDEST JUMPDEST PUSH2 0x15E1 DUP5 DUP3 DUP6 ADD PUSH2 0x1573 JUMP JUMPDEST SWAP2 POP POP SWAP3 SWAP2 POP POP JUMP JUMPDEST PUSH32 0x4E487B7100000000000000000000000000000000000000000000000000000000 PUSH1 0x0 MSTORE PUSH1 0x22 PUSH1 0x4 MSTORE PUSH1 0x24 PUSH1 0x0 REVERT JUMPDEST PUSH1 0x0 PUSH1 0x2 DUP3 DIV SWAP1 POP PUSH1 0x1 DUP3 AND DUP1 PUSH2 0x1631 JUMPI PUSH1 0x7F DUP3 AND SWAP2 POP JUMPDEST PUSH1 0x20 DUP3 LT DUP2 EQ ISZERO PUSH2 0x1645 JUMPI PUSH2 0x1644 PUSH2 0x15EA JUMP JUMPDEST JUMPDEST POP SWAP2 SWAP1 POP JUMP JUMPDEST PUSH1 0x0 DUP2 SWAP1 POP SWAP3 SWAP2 POP POP JUMP JUMPDEST PUSH1 0x0 DUP2 SWAP1 POP DUP2 PUSH1 0x0 MSTORE PUSH1 0x20 PUSH1 0x0 KECCAK256 SWAP1 POP SWAP2 SWAP1 POP JUMP JUMPDEST PUSH1 0x0 DUP2 SLOAD PUSH2 0x1678 DUP2 PUSH2 0x1619 JUMP JUMPDEST PUSH2 0x1682 DUP2 DUP7 PUSH2 0x164B JUMP JUMPDEST SWAP5 POP PUSH1 0x1 DUP3 AND PUSH1 0x0 DUP2 EQ PUSH2 0x169D JUMPI PUSH1 0x1 DUP2 EQ PUSH2 0x16AE JUMPI PUSH2 0x16E1 JUMP JUMPDEST PUSH1 0xFF NOT DUP4 AND DUP7 MSTORE DUP2 DUP7 ADD SWAP4 POP PUSH2 0x16E1 JUMP JUMPDEST PUSH2 0x16B7 DUP6 PUSH2 0x1656 JUMP JUMPDEST PUSH1 0x0 JUMPDEST DUP4 DUP2 LT ISZERO PUSH2 0x16D9 JUMPI DUP2 SLOAD DUP2 DUP10 ADD MSTORE PUSH1 0x1 DUP3 ADD SWAP2 POP PUSH1 0x20 DUP2 ADD SWAP1 POP PUSH2 0x16BA JUMP JUMPDEST DUP4 DUP9 ADD SWAP6 POP POP POP JUMPDEST POP POP POP SWAP3 SWAP2 POP POP JUMP JUMPDEST PUSH1 0x0 PUSH2 0x16F5 DUP3 PUSH2 0x12E8 JUMP JUMPDEST PUSH2 0x16FF DUP2 DUP6 PUSH2 0x164B JUMP JUMPDEST SWAP4 POP PUSH2 0x170F DUP2 DUP6 PUSH1 0x20 DUP7 ADD PUSH2 0x1304 JUMP JUMPDEST DUP1 DUP5 ADD SWAP2 POP POP SWAP3 SWAP2 POP POP JUMP JUMPDEST PUSH1 0x0 PUSH2 0x1727 DUP3 DUP15 PUSH2 0x166B JUMP JUMPDEST SWAP2 POP PUSH2 0x1733 DUP3 DUP14 PUSH2 0x16EA JUMP JUMPDEST SWAP2 POP PUSH2 0x173F DUP3 DUP13 PUSH2 0x166B JUMP JUMPDEST SWAP2 POP PUSH2 0x174B DUP3 DUP12 PUSH2 0x16EA JUMP JUMPDEST SWAP2 POP PUSH2 0x1757 DUP3 DUP11 PUSH2 0x166B JUMP JUMPDEST SWAP2 POP PUSH2 0x1763 DUP3 DUP10 PUSH2 0x166B JUMP JUMPDEST SWAP2 POP PUSH2 0x176F DUP3 DUP9 PUSH2 0x16EA JUMP JUMPDEST SWAP2 POP PUSH2 0x177B DUP3 DUP8 PUSH2 0x166B JUMP JUMPDEST SWAP2 POP PUSH2 0x1787 DUP3 DUP7 PUSH2 0x166B JUMP JUMPDEST SWAP2 POP PUSH2 0x1793 DUP3 DUP6 PUSH2 0x16EA JUMP JUMPDEST SWAP2 POP PUSH2 0x179F DUP3 DUP5 PUSH2 0x166B JUMP JUMPDEST SWAP2 POP DUP2 SWAP1 POP SWAP13 SWAP12 POP POP POP POP POP POP POP POP POP POP POP POP JUMP JUMPDEST PUSH32 0x7B226E616D65223A202200000000000000000000000000000000000000000000 PUSH1 0x0 DUP3 ADD MSTORE POP JUMP JUMPDEST PUSH1 0x0 PUSH2 0x17EA PUSH1 0xA DUP4 PUSH2 0x164B JUMP JUMPDEST SWAP2 POP PUSH2 0x17F5 DUP3 PUSH2 0x17B4 JUMP JUMPDEST PUSH1 0xA DUP3 ADD SWAP1 POP SWAP2 SWAP1 POP JUMP JUMPDEST PUSH32 0x222C20226465736372697074696F6E223A202257656C636F6D6520746F207468 PUSH1 0x0 DUP3 ADD MSTORE PUSH32 0x65206D61676963616C20776F726C64206F662074696D65666C6F77222C202269 PUSH1 0x20 DUP3 ADD MSTORE PUSH32 0x6D616765223A2022646174613A696D6167652F7376672B786D6C3B6261736536 PUSH1 0x40 DUP3 ADD MSTORE PUSH32 0x342C000000000000000000000000000000000000000000000000000000000000 PUSH1 0x60 DUP3 ADD MSTORE POP JUMP JUMPDEST PUSH1 0x0 PUSH2 0x18A8 PUSH1 0x62 DUP4 PUSH2 0x164B JUMP JUMPDEST SWAP2 POP PUSH2 0x18B3 DUP3 PUSH2 0x1800 JUMP JUMPDEST PUSH1 0x62 DUP3 ADD SWAP1 POP SWAP2 SWAP1 POP JUMP JUMPDEST PUSH32 0x222C226D61726B65744964223A22000000000000000000000000000000000000 PUSH1 0x0 DUP3 ADD MSTORE POP JUMP JUMPDEST PUSH1 0x0 PUSH2 0x18F4 PUSH1 0xE DUP4 PUSH2 0x164B JUMP JUMPDEST SWAP2 POP PUSH2 0x18FF DUP3 PUSH2 0x18BE JUMP JUMPDEST PUSH1 0xE DUP3 ADD SWAP1 POP SWAP2 SWAP1 POP JUMP JUMPDEST PUSH32 0x222C2274617264654964223A2200000000000000000000000000000000000000 PUSH1 0x0 DUP3 ADD MSTORE POP JUMP JUMPDEST PUSH1 0x0 PUSH2 0x1940 PUSH1 0xD DUP4 PUSH2 0x164B JUMP JUMPDEST SWAP2 POP PUSH2 0x194B DUP3 PUSH2 0x190A JUMP JUMPDEST PUSH1 0xD DUP3 ADD SWAP1 POP SWAP2 SWAP1 POP JUMP JUMPDEST PUSH32 0x222C226E66744964223A22000000000000000000000000000000000000000000 PUSH1 0x0 DUP3 ADD MSTORE POP JUMP JUMPDEST PUSH1 0x0 PUSH2 0x198C PUSH1 0xB DUP4 PUSH2 0x164B JUMP JUMPDEST SWAP2 POP PUSH2 0x1997 DUP3 PUSH2 0x1956 JUMP JUMPDEST PUSH1 0xB DUP3 ADD SWAP1 POP SWAP2 SWAP1 POP JUMP JUMPDEST PUSH32 0x222C2276616C7565223A22000000000000000000000000000000000000000000 PUSH1 0x0 DUP3 ADD MSTORE POP JUMP JUMPDEST PUSH1 0x0 PUSH2 0x19D8 PUSH1 0xB DUP4 PUSH2 0x164B JUMP JUMPDEST SWAP2 POP PUSH2 0x19E3 DUP3 PUSH2 0x19A2 JUMP JUMPDEST PUSH1 0xB DUP3 ADD SWAP1 POP SWAP2 SWAP1 POP JUMP JUMPDEST PUSH32 0x222C226E667454797065223A2200000000000000000000000000000000000000 PUSH1 0x0 DUP3 ADD MSTORE POP JUMP JUMPDEST PUSH1 0x0 PUSH2 0x1A24 PUSH1 0xD DUP4 PUSH2 0x164B JUMP JUMPDEST SWAP2 POP PUSH2 0x1A2F DUP3 PUSH2 0x19EE JUMP JUMPDEST PUSH1 0xD DUP3 ADD SWAP1 POP SWAP2 SWAP1 POP JUMP JUMPDEST PUSH32 0x222C22746F6B656E223A22000000000000000000000000000000000000000000 PUSH1 0x0 DUP3 ADD MSTORE POP JUMP JUMPDEST PUSH1 0x0 PUSH2 0x1A70 PUSH1 0xB DUP4 PUSH2 0x164B JUMP JUMPDEST SWAP2 POP PUSH2 0x1A7B DUP3 PUSH2 0x1A3A JUMP JUMPDEST PUSH1 0xB DUP3 ADD SWAP1 POP SWAP2 SWAP1 POP JUMP JUMPDEST PUSH32 0x227D000000000000000000000000000000000000000000000000000000000000 PUSH1 0x0 DUP3 ADD MSTORE POP JUMP JUMPDEST PUSH1 0x0 PUSH2 0x1ABC PUSH1 0x2 DUP4 PUSH2 0x164B JUMP JUMPDEST SWAP2 POP PUSH2 0x1AC7 DUP3 PUSH2 0x1A86 JUMP JUMPDEST PUSH1 0x2 DUP3 ADD SWAP1 POP SWAP2 SWAP1 POP JUMP JUMPDEST PUSH1 0x0 PUSH2 0x1ADD DUP3 PUSH2 0x17DD JUMP JUMPDEST SWAP2 POP PUSH2 0x1AE9 DUP3 DUP12 PUSH2 0x16EA JUMP JUMPDEST SWAP2 POP PUSH2 0x1AF4 DUP3 PUSH2 0x189B JUMP JUMPDEST SWAP2 POP PUSH2 0x1B00 DUP3 DUP11 PUSH2 0x16EA JUMP JUMPDEST SWAP2 POP PUSH2 0x1B0B DUP3 PUSH2 0x18E7 JUMP JUMPDEST SWAP2 POP PUSH2 0x1B17 DUP3 DUP10 PUSH2 0x16EA JUMP JUMPDEST SWAP2 POP PUSH2 0x1B22 DUP3 PUSH2 0x1933 JUMP JUMPDEST SWAP2 POP PUSH2 0x1B2E DUP3 DUP9 PUSH2 0x16EA JUMP JUMPDEST SWAP2 POP PUSH2 0x1B39 DUP3 PUSH2 0x197F JUMP JUMPDEST SWAP2 POP PUSH2 0x1B45 DUP3 DUP8 PUSH2 0x16EA JUMP JUMPDEST SWAP2 POP PUSH2 0x1B50 DUP3 PUSH2 0x19CB JUMP JUMPDEST SWAP2 POP PUSH2 0x1B5C DUP3 DUP7 PUSH2 0x16EA JUMP JUMPDEST SWAP2 POP PUSH2 0x1B67 DUP3 PUSH2 0x1A17 JUMP JUMPDEST SWAP2 POP PUSH2 0x1B73 DUP3 DUP6 PUSH2 0x16EA JUMP JUMPDEST SWAP2 POP PUSH2 0x1B7E DUP3 PUSH2 0x1A63 JUMP JUMPDEST SWAP2 POP PUSH2 0x1B8A DUP3 DUP5 PUSH2 0x16EA JUMP JUMPDEST SWAP2 POP PUSH2 0x1B95 DUP3 PUSH2 0x1AAF JUMP JUMPDEST SWAP2 POP DUP2 SWAP1 POP SWAP10 SWAP9 POP POP POP POP POP POP POP POP POP JUMP JUMPDEST PUSH32 0x646174613A6170706C69636174696F6E2F6A736F6E3B6261736536342C000000 PUSH1 0x0 DUP3 ADD MSTORE POP JUMP JUMPDEST PUSH1 0x0 PUSH2 0x1BDD PUSH1 0x1D DUP4 PUSH2 0x164B JUMP JUMPDEST SWAP2 POP PUSH2 0x1BE8 DUP3 PUSH2 0x1BA7 JUMP JUMPDEST PUSH1 0x1D DUP3 ADD SWAP1 POP SWAP2 SWAP1 POP JUMP JUMPDEST PUSH1 0x0 PUSH2 0x1BFE DUP3 PUSH2 0x1BD0 JUMP JUMPDEST SWAP2 POP PUSH2 0x1C0A DUP3 DUP5 PUSH2 0x16EA JUMP JUMPDEST SWAP2 POP DUP2 SWAP1 POP SWAP3 SWAP2 POP POP JUMP JUMPDEST PUSH1 0x0 PUSH1 0xA0 DUP3 ADD SWAP1 POP PUSH2 0x1C2A PUSH1 0x0 DUP4 ADD DUP9 PUSH2 0x13A3 JUMP JUMPDEST PUSH2 0x1C37 PUSH1 0x20 DUP4 ADD DUP8 PUSH2 0x13A3 JUMP JUMPDEST PUSH2 0x1C44 PUSH1 0x40 DUP4 ADD DUP7 PUSH2 0x13A3 JUMP JUMPDEST PUSH2 0x1C51 PUSH1 0x60 DUP4 ADD DUP6 PUSH2 0x114E JUMP JUMPDEST DUP2 DUP2 SUB PUSH1 0x80 DUP4 ADD MSTORE PUSH2 0x1C63 DUP2 DUP5 PUSH2 0x1348 JUMP JUMPDEST SWAP1 POP SWAP7 SWAP6 POP POP POP POP POP POP JUMP JUMPDEST PUSH32 0x4F776E61626C653A206E6577206F776E657220697320746865207A65726F2061 PUSH1 0x0 DUP3 ADD MSTORE PUSH32 0x6464726573730000000000000000000000000000000000000000000000000000 PUSH1 0x20 DUP3 ADD MSTORE POP JUMP JUMPDEST PUSH1 0x0 PUSH2 0x1CCB PUSH1 0x26 DUP4 PUSH2 0x12F3 JUMP JUMPDEST SWAP2 POP PUSH2 0x1CD6 DUP3 PUSH2 0x1C6F JUMP JUMPDEST PUSH1 0x40 DUP3 ADD SWAP1 POP SWAP2 SWAP1 POP JUMP JUMPDEST PUSH1 0x0 PUSH1 0x20 DUP3 ADD SWAP1 POP DUP2 DUP2 SUB PUSH1 0x0 DUP4 ADD MSTORE PUSH2 0x1CFA DUP2 PUSH2 0x1CBE JUMP JUMPDEST SWAP1 POP SWAP2 SWAP1 POP JUMP JUMPDEST PUSH32 0x4E487B7100000000000000000000000000000000000000000000000000000000 PUSH1 0x0 MSTORE PUSH1 0x12 PUSH1 0x4 MSTORE PUSH1 0x24 PUSH1 0x0 REVERT JUMPDEST PUSH32 0x4E487B7100000000000000000000000000000000000000000000000000000000 PUSH1 0x0 MSTORE PUSH1 0x11 PUSH1 0x4 MSTORE PUSH1 0x24 PUSH1 0x0 REVERT JUMPDEST PUSH1 0x0 PUSH2 0x1D6A DUP3 PUSH2 0x118C JUMP JUMPDEST SWAP2 POP PUSH2 0x1D75 DUP4 PUSH2 0x118C JUMP JUMPDEST SWAP3 POP DUP3 PUSH32 0xFFFFFFFFFFFFFFFFFFFFFFFFFFFFFFFFFFFFFFFFFFFFFFFFFFFFFFFFFFFFFFFF SUB DUP3 GT ISZERO PUSH2 0x1DAA JUMPI PUSH2 0x1DA9 PUSH2 0x1D30 JUMP JUMPDEST JUMPDEST DUP3 DUP3 ADD SWAP1 POP SWAP3 SWAP2 POP POP JUMP JUMPDEST PUSH1 0x0 PUSH2 0x1DC0 DUP3 PUSH2 0x118C JUMP JUMPDEST SWAP2 POP PUSH2 0x1DCB DUP4 PUSH2 0x118C JUMP JUMPDEST SWAP3 POP DUP3 PUSH2 0x1DDB JUMPI PUSH2 0x1DDA PUSH2 0x1D01 JUMP JUMPDEST JUMPDEST DUP3 DUP3 DIV SWAP1 POP SWAP3 SWAP2 POP POP JUMP JUMPDEST PUSH1 0x0 PUSH2 0x1DF1 DUP3 PUSH2 0x118C JUMP JUMPDEST SWAP2 POP PUSH2 0x1DFC DUP4 PUSH2 0x118C JUMP JUMPDEST SWAP3 POP DUP2 PUSH32 0xFFFFFFFFFFFFFFFFFFFFFFFFFFFFFFFFFFFFFFFFFFFFFFFFFFFFFFFFFFFFFFFF DIV DUP4 GT DUP3 ISZERO ISZERO AND ISZERO PUSH2 0x1E35 JUMPI PUSH2 0x1E34 PUSH2 0x1D30 JUMP JUMPDEST JUMPDEST DUP3 DUP3 MUL SWAP1 POP SWAP3 SWAP2 POP POP JUMP JUMPDEST PUSH32 0x4F776E61626C653A2063616C6C6572206973206E6F7420746865206F776E6572 PUSH1 0x0 DUP3 ADD MSTORE POP JUMP JUMPDEST PUSH1 0x0 PUSH2 0x1E76 PUSH1 0x20 DUP4 PUSH2 0x12F3 JUMP JUMPDEST SWAP2 POP PUSH2 0x1E81 DUP3 PUSH2 0x1E40 JUMP JUMPDEST PUSH1 0x20 DUP3 ADD SWAP1 POP SWAP2 SWAP1 POP JUMP JUMPDEST PUSH1 0x0 PUSH1 0x20 DUP3 ADD SWAP1 POP DUP2 DUP2 SUB PUSH1 0x0 DUP4 ADD MSTORE PUSH2 0x1EA5 DUP2 PUSH2 0x1E69 JUMP JUMPDEST SWAP1 POP SWAP2 SWAP1 POP JUMP JUMPDEST PUSH32 0x4E487B7100000000000000000000000000000000000000000000000000000000 PUSH1 0x0 MSTORE PUSH1 0x32 PUSH1 0x4 MSTORE PUSH1 0x24 PUSH1 0x0 REVERT JUMPDEST PUSH1 0x0 PUSH2 0x1EE6 DUP3 PUSH2 0x118C JUMP JUMPDEST SWAP2 POP PUSH1 0x0 DUP3 EQ ISZERO PUSH2 0x1EFA JUMPI PUSH2 0x1EF9 PUSH2 0x1D30 JUMP JUMPDEST JUMPDEST PUSH1 0x1 DUP3 SUB SWAP1 POP SWAP2 SWAP1 POP JUMP JUMPDEST PUSH32 0x537472696E67733A20686578206C656E67746820696E73756666696369656E74 PUSH1 0x0 DUP3 ADD MSTORE POP JUMP JUMPDEST PUSH1 0x0 PUSH2 0x1F3B PUSH1 0x20 DUP4 PUSH2 0x12F3 JUMP JUMPDEST SWAP2 POP PUSH2 0x1F46 DUP3 PUSH2 0x1F05 JUMP JUMPDEST PUSH1 0x20 DUP3 ADD SWAP1 POP SWAP2 SWAP1 POP JUMP JUMPDEST PUSH1 0x0 PUSH1 0x20 DUP3 ADD SWAP1 POP DUP2 DUP2 SUB PUSH1 0x0 DUP4 ADD MSTORE PUSH2 0x1F6A DUP2 PUSH2 0x1F2E JUMP JUMPDEST SWAP1 POP SWAP2 SWAP1 POP JUMP INVALID COINBASE TIMESTAMP NUMBER DIFFICULTY GASLIMIT CHAINID SELFBALANCE BASEFEE 0x49 0x4A 0x4B 0x4C 0x4D 0x4E 0x4F POP MLOAD MSTORE MSTORE8 SLOAD SSTORE JUMP JUMPI PC MSIZE GAS PUSH2 0x6263 PUSH5 0x6566676869 PUSH11 0x6B6C6D6E6F707172737475 PUSH23 0x7778797A303132333435363738392B2FA2646970667358 0x22 SLT KECCAK256 POP 0x1F 0xD STATICCALL MSTORE PUSH27 0x1CCBA1F904BE3514AB6C52E168F797811AE6899D44E3B8AAD10C64 PUSH20 0x6F6C634300080900333C73766720786D6C6E733D 0x22 PUSH9 0x7474703A2F2F777777 0x2E PUSH24 0x332E6F72672F323030302F737667222077696474683D2232 CALLDATACOPY ADDRESS 0x22 KECCAK256 PUSH9 0x65696768743D223237 ADDRESS 0x22 KECCAK256 PUSH7 0x696C6C3D226E6F PUSH15 0x65223E3C706174682066696C6C3D22 PUSH22 0x726C282342292220643D224D30203068323730763237 ADDRESS BASEFEE ADDRESS PUSH27 0x222F3E0A3C646566733E3C66696C7465722069643D22412220636F PUSH13 0x6F722D696E746572706F6C6174 PUSH10 0x6F6E2D66696C74657273 RETURNDATASIZE 0x22 PUSH20 0x524742222066696C746572556E6974733D227573 PUSH6 0x725370616365 0x4F PUSH15 0x55736522206865696768743D223237 ADDRESS 0x22 KECCAK256 PUSH24 0x696474683D22323730223E0A3C666544726F70536861646F PUSH24 0x2064783D2230222064793D22312220737464446576696174 PUSH10 0x6F6E3D22322220666C6F PUSH16 0x642D6F7061636974793D222E32323522 KECCAK256 PUSH24 0x696474683D223230302522206865696768743D2232303025 0x22 0x2F RETURNDATACOPY EXTCODECOPY 0x2F PUSH7 0x696C7465723E3C 0x2F PUSH5 0x6566733E3C PUSH21 0x65787420783D2233322E352220793D223135302220 PUSH7 0x6F6E742D73697A PUSH6 0x3D2232372220 PUSH7 0x696C6C3D222366 PUSH7 0x66222066696C74 PUSH6 0x723D2275726C 0x28 0x23 COINBASE 0x29 0x22 KECCAK256 PUSH7 0x6F6E742D776569 PUSH8 0x68743D22626F6C64 0x22 RETURNDATACOPY PUSH15 0x6674547970653A3C646566733E3C6C PUSH10 0x6E656172477261646965 PUSH15 0x742069643D2242222078313D223022 KECCAK256 PUSH26 0x313D2230222078323D22323730222079323D2232373022206772 PUSH2 0x6469 PUSH6 0x6E74556E6974 PUSH20 0x3D227573657253706163654F6E557365223E3C73 PUSH21 0x6F702073746F702D636F6C6F723D22236662633265 PUSH3 0x222F3E EXP EXTCODECOPY PUSH20 0x746F70206F66667365743D2231222073746F702D PUSH4 0x6F6C6F72 RETURNDATASIZE 0x22 0x23 PUSH2 0x3663 BALANCE PUSH6 0x65222073746F PUSH17 0x2D6F7061636974793D222E3939222F3E3C 0x2F PUSH13 0x696E6561724772616469656E74 RETURNDATACOPY EXTCODECOPY 0x2F PUSH5 0x6566733E3C PUSH5 0x6566733E3C PUSH13 0x696E6561724772616469656E74 KECCAK256 PUSH10 0x643D2242222078313D22 ADDRESS 0x22 KECCAK256 PUSH26 0x313D2230222078323D22323730222079323D2232373022206772 PUSH2 0x6469 PUSH6 0x6E74556E6974 PUSH20 0x3D227573657253706163654F6E557365223E3C73 PUSH21 0x6F702073746F702D636F6C6F723D22236530633366 PUSH4 0x222F3E0A EXTCODECOPY PUSH20 0x746F70206F66667365743D2231222073746F702D PUSH4 0x6F6C6F72 RETURNDATASIZE 0x22 0x23 CODESIZE PUSH6 0x633566632220 PUSH20 0x746F702D6F7061636974793D222E3939222F3E3C 0x2F PUSH13 0x696E6561724772616469656E74 RETURNDATACOPY EXTCODECOPY 0x2F PUSH5 0x6566733E3C PUSH21 0x65787420783D2233322E352220793D223530222066 PUSH16 0x6E742D73697A653D223237222066696C PUSH13 0x3D2223666666222066696C7465 PUSH19 0x3D2275726C282341292220666F6E742D776569 PUSH8 0x68743D22626F6C64 0x22 RETURNDATACOPY PUSH21 0x7261646549643A3C7465787420783D2233322E3522 KECCAK256 PUSH26 0x3D223130302220666F6E742D73697A653D223237222066696C6C RETURNDATASIZE 0x22 0x23 PUSH7 0x6666222066696C PUSH21 0x65723D2275726C282341292220666F6E742D776569 PUSH8 0x68743D22626F6C64 0x22 RETURNDATACOPY PUSH23 0x616C75653A3C646566733E3C6C696E6561724772616469 PUSH6 0x6E742069643D 0x22 TIMESTAMP 0x22 KECCAK256 PUSH25 0x313D2230222079313D2230222078323D22323730222079323D 0x22 ORIGIN CALLDATACOPY ADDRESS 0x22 KECCAK256 PUSH8 0x72616469656E7455 PUSH15 0x6974733D227573657253706163654F PUSH15 0x557365223E3C73746F702073746F70 0x2D PUSH4 0x6F6C6F72 RETURNDATASIZE 0x22 0x23 PUSH2 0x3865 PUSH5 0x6561222F3E EXP EXTCODECOPY PUSH20 0x746F70206F66667365743D2231222073746F702D PUSH4 0x6F6C6F72 RETURNDATASIZE 0x22 0x23 PUSH7 0x65643665332220 PUSH20 0x746F702D6F7061636974793D222E3939222F3E3C 0x2F PUSH13 0x696E6561724772616469656E74 RETURNDATACOPY EXTCODECOPY 0x2F PUSH5 0x6566733E00 "
				},
				"gasEstimates": {
					"creation": {
						"codeDepositCost": "1633400",
						"executionCost": "infinite",
						"totalCost": "infinite"
					},
					"external": {
						"getTokenUri(address,uint256)": "infinite",
						"initialize(address)": "27008",
						"owner()": "2522",
						"renounceOwnership()": "30443",
						"storageImage(uint256,uint256,uint256,uint256,uint256,address)": "infinite",
						"timeCapitalPoolFactory()": "2515",
						"transferOwnership(address)": "30791"
					}
				},
				"methodIdentifiers": {
					"getTokenUri(address,uint256)": "fab95f36",
					"initialize(address)": "c4d66de8",
					"owner()": "8da5cb5b",
					"renounceOwnership()": "715018a6",
					"storageImage(uint256,uint256,uint256,uint256,uint256,address)": "4a49e0ef",
					"timeCapitalPoolFactory()": "44ed5c0a",
					"transferOwnership(address)": "f2fde38b"
				}
			},
			"storageLayout": {
				"storage": [
					{
						"astId": 37,
						"contract": "contracts/TimeERC721Storage.sol:TimeERC721Storage",
						"label": "_owner",
						"offset": 0,
						"slot": "0",
						"type": "t_address"
					},
					{
						"astId": 154,
						"contract": "contracts/TimeERC721Storage.sol:TimeERC721Storage",
						"label": "timeCapitalPoolFactory",
						"offset": 0,
						"slot": "1",
						"type": "t_address"
					},
					{
						"astId": 172,
						"contract": "contracts/TimeERC721Storage.sol:TimeERC721Storage",
						"label": "timeERC721TokenUri",
						"offset": 0,
						"slot": "2",
						"type": "t_mapping(t_address,t_mapping(t_uint256,t_string_storage))"
					},
					{
						"astId": 189,
						"contract": "contracts/TimeERC721Storage.sol:TimeERC721Storage",
						"label": "svgPart1",
						"offset": 0,
						"slot": "3",
						"type": "t_string_storage"
					},
					{
						"astId": 192,
						"contract": "contracts/TimeERC721Storage.sol:TimeERC721Storage",
						"label": "bgColor1",
						"offset": 0,
						"slot": "4",
						"type": "t_string_storage"
					},
					{
						"astId": 195,
						"contract": "contracts/TimeERC721Storage.sol:TimeERC721Storage",
						"label": "bgColor2",
						"offset": 0,
						"slot": "5",
						"type": "t_string_storage"
					},
					{
						"astId": 198,
						"contract": "contracts/TimeERC721Storage.sol:TimeERC721Storage",
						"label": "bgColor3",
						"offset": 0,
						"slot": "6",
						"type": "t_string_storage"
					},
					{
						"astId": 201,
						"contract": "contracts/TimeERC721Storage.sol:TimeERC721Storage",
						"label": "svgPart2",
						"offset": 0,
						"slot": "7",
						"type": "t_string_storage"
					},
					{
						"astId": 204,
						"contract": "contracts/TimeERC721Storage.sol:TimeERC721Storage",
						"label": "svgPart3",
						"offset": 0,
						"slot": "8",
						"type": "t_string_storage"
					},
					{
						"astId": 207,
						"contract": "contracts/TimeERC721Storage.sol:TimeERC721Storage",
						"label": "svgPart4",
						"offset": 0,
						"slot": "9",
						"type": "t_string_storage"
					},
					{
						"astId": 210,
						"contract": "contracts/TimeERC721Storage.sol:TimeERC721Storage",
						"label": "svgPart5",
						"offset": 0,
						"slot": "10",
						"type": "t_string_storage"
					},
					{
						"astId": 213,
						"contract": "contracts/TimeERC721Storage.sol:TimeERC721Storage",
						"label": "svgText",
						"offset": 0,
						"slot": "11",
						"type": "t_string_storage"
					}
				],
				"types": {
					"t_address": {
						"encoding": "inplace",
						"label": "address",
						"numberOfBytes": "20"
					},
					"t_mapping(t_address,t_mapping(t_uint256,t_string_storage))": {
						"encoding": "mapping",
						"key": "t_address",
						"label": "mapping(address => mapping(uint256 => string))",
						"numberOfBytes": "32",
						"value": "t_mapping(t_uint256,t_string_storage)"
					},
					"t_mapping(t_uint256,t_string_storage)": {
						"encoding": "mapping",
						"key": "t_uint256",
						"label": "mapping(uint256 => string)",
						"numberOfBytes": "32",
						"value": "t_string_storage"
					},
					"t_string_storage": {
						"encoding": "bytes",
						"label": "string",
						"numberOfBytes": "32"
					},
					"t_uint256": {
						"encoding": "inplace",
						"label": "uint256",
						"numberOfBytes": "32"
					}
				}
			},
			"userdoc": {
				"kind": "user",
				"methods": {},
				"version": 1
			}
		}
	}
}