{
	"contracts/TimeMarket.sol": {
		"TimeMarket": {
			"abi": [
				{
					"inputs": [
						{
							"internalType": "address",
							"name": "_airdropToken",
							"type": "address"
						}
					],
					"stateMutability": "nonpayable",
					"type": "constructor"
				},
				{
					"inputs": [],
					"name": "AlreadyInjectToken",
					"type": "error"
				},
				{
					"inputs": [],
					"name": "AlreadyWithdraw",
					"type": "error"
				},
				{
					"inputs": [],
					"name": "FailTrade",
					"type": "error"
				},
				{
					"inputs": [],
					"name": "FailTransfer",
					"type": "error"
				},
				{
					"inputs": [],
					"name": "InjectAaveError",
					"type": "error"
				},
				{
					"inputs": [],
					"name": "NorSolder",
					"type": "error"
				},
				{
					"inputs": [],
					"name": "NotBuyer",
					"type": "error"
				},
				{
					"inputs": [],
					"name": "NotEndTime",
					"type": "error"
				},
				{
					"inputs": [],
					"name": "NotEnoughAmount",
					"type": "error"
				},
				{
					"inputs": [],
					"name": "NotInjectToken",
					"type": "error"
				},
				{
					"inputs": [],
					"name": "OverTime",
					"type": "error"
				},
				{
					"inputs": [],
					"name": "TradeSuccess",
					"type": "error"
				},
				{
					"anonymous": false,
					"inputs": [
						{
							"indexed": true,
							"internalType": "address",
							"name": "sender",
							"type": "address"
						},
						{
							"indexed": false,
							"internalType": "uint256",
							"name": "amount0",
							"type": "uint256"
						},
						{
							"indexed": false,
							"internalType": "uint256",
							"name": "amount1",
							"type": "uint256"
						},
						{
							"indexed": true,
							"internalType": "address",
							"name": "to",
							"type": "address"
						}
					],
					"name": "Burn",
					"type": "event"
				},
				{
					"anonymous": false,
					"inputs": [
						{
							"indexed": true,
							"internalType": "address",
							"name": "sender",
							"type": "address"
						},
						{
							"indexed": false,
							"internalType": "uint256",
							"name": "amount0",
							"type": "uint256"
						},
						{
							"indexed": false,
							"internalType": "uint256",
							"name": "amount1",
							"type": "uint256"
						}
					],
					"name": "Mint",
					"type": "event"
				},
				{
					"anonymous": false,
					"inputs": [
						{
							"indexed": false,
							"internalType": "uint256",
							"name": "_amount",
							"type": "uint256"
						},
						{
							"indexed": false,
							"internalType": "uint256",
							"name": "_time",
							"type": "uint256"
						},
						{
							"indexed": false,
							"internalType": "address",
							"name": "_userAddress",
							"type": "address"
						}
					],
					"name": "withdrawAipdrop",
					"type": "event"
				},
				{
					"inputs": [
						{
							"internalType": "uint32",
							"name": "_id",
							"type": "uint32"
						}
					],
					"name": "cancelOrder",
					"outputs": [],
					"stateMutability": "nonpayable",
					"type": "function"
				},
				{
					"inputs": [],
					"name": "getClearTime",
					"outputs": [
						{
							"internalType": "uint56",
							"name": "",
							"type": "uint56"
						}
					],
					"stateMutability": "view",
					"type": "function"
				},
				{
					"inputs": [
						{
							"internalType": "uint32",
							"name": "_id",
							"type": "uint32"
						}
					],
					"name": "getTradeMes",
					"outputs": [
						{
							"components": [
								{
									"internalType": "uint32",
									"name": "tradeId",
									"type": "uint32"
								},
								{
									"internalType": "uint32",
									"name": "price",
									"type": "uint32"
								},
								{
									"internalType": "uint56",
									"name": "time",
									"type": "uint56"
								},
								{
									"internalType": "uint128",
									"name": "amount",
									"type": "uint128"
								},
								{
									"internalType": "uint256",
									"name": "tokenOneAmount",
									"type": "uint256"
								},
								{
									"internalType": "address",
									"name": "tokenAddress",
									"type": "address"
								},
								{
									"internalType": "address",
									"name": "buyerAddress",
									"type": "address"
								},
								{
									"internalType": "address",
									"name": "solderAddress",
									"type": "address"
								},
								{
									"internalType": "enum ITimeMarket.tradeState",
									"name": "_tradeState",
									"type": "uint8"
								}
							],
							"internalType": "struct ITimeMarket.tradeMes",
							"name": "",
							"type": "tuple"
						}
					],
					"stateMutability": "view",
					"type": "function"
				},
				{
					"inputs": [
						{
							"internalType": "uint32",
							"name": "_id",
							"type": "uint32"
						}
					],
					"name": "matchTrade",
					"outputs": [],
					"stateMutability": "nonpayable",
					"type": "function"
				},
				{
					"inputs": [
						{
							"internalType": "address",
							"name": "_tokenAddress",
							"type": "address"
						},
						{
							"internalType": "uint32",
							"name": "_price",
							"type": "uint32"
						},
						{
							"internalType": "uint128",
							"name": "_amount",
							"type": "uint128"
						},
						{
							"internalType": "enum ITimeMarket.doState",
							"name": "_doState",
							"type": "uint8"
						}
					],
					"name": "putTrade",
					"outputs": [],
					"stateMutability": "nonpayable",
					"type": "function"
				},
				{
					"inputs": [
						{
							"internalType": "uint32",
							"name": "_id",
							"type": "uint32"
						}
					],
					"name": "refund",
					"outputs": [],
					"stateMutability": "nonpayable",
					"type": "function"
				},
				{
					"inputs": [],
					"name": "rewardPoolAddress",
					"outputs": [
						{
							"internalType": "address",
							"name": "",
							"type": "address"
						}
					],
					"stateMutability": "view",
					"type": "function"
				},
				{
					"inputs": [
						{
							"internalType": "address",
							"name": "_rewardPool",
							"type": "address"
						},
						{
							"internalType": "uint56",
							"name": "_clearingTime",
							"type": "uint56"
						}
					],
					"name": "setRewardPool",
					"outputs": [],
					"stateMutability": "nonpayable",
					"type": "function"
				}
			],
			"devdoc": {
				"kind": "dev",
				"methods": {},
				"version": 1
			},
			"evm": {
				"assembly": "    /* \"contracts/TimeMarket.sol\":442:6872  contract TimeMarket is ITimeMarket{... */\n  mstore(0x40, 0x80)\n    /* \"contracts/TimeMarket.sol\":867:909  0xaA8E23Fb1079EA71e0a56F48a2aA51851D8433D0 */\n  0xaa8e23fb1079ea71e0a56f48a2aa51851d8433d0\n    /* \"contracts/TimeMarket.sol\":845:909  address private AUSDT=0xaA8E23Fb1079EA71e0a56F48a2aA51851D8433D0 */\n  0x04\n  exp(0x0100, 0x00)\n  dup2\n  sload\n  dup2\n  0xffffffffffffffffffffffffffffffffffffffff\n  mul\n  not\n  and\n  swap1\n  dup4\n  0xffffffffffffffffffffffffffffffffffffffff\n  and\n  mul\n  or\n  swap1\n  sstore\n  pop\n    /* \"contracts/TimeMarket.sol\":998:1040  0xAF0F6e8b0Dc5c913bbF4d14c22B4E78Dd14310B6 */\n  0xaf0f6e8b0dc5c913bbf4d14c22b4e78dd14310b6\n    /* \"contracts/TimeMarket.sol\":973:1040  address private AEthUsdt=0xAF0F6e8b0Dc5c913bbF4d14c22B4E78Dd14310B6 */\n  0x05\n  exp(0x0100, 0x00)\n  dup2\n  sload\n  dup2\n  0xffffffffffffffffffffffffffffffffffffffff\n  mul\n  not\n  and\n  swap1\n  dup4\n  0xffffffffffffffffffffffffffffffffffffffff\n  and\n  mul\n  or\n  swap1\n  sstore\n  pop\n    /* \"contracts/TimeMarket.sol\":1105:1147  0x6Ae43d3271ff6888e7Fc43Fd7321a503ff738951 */\n  0x6ae43d3271ff6888e7fc43fd7321a503ff738951\n    /* \"contracts/TimeMarket.sol\":1074:1148  IPool private AaveV3Pool=IPool(0x6Ae43d3271ff6888e7Fc43Fd7321a503ff738951) */\n  0x06\n  exp(0x0100, 0x00)\n  dup2\n  sload\n  dup2\n  0xffffffffffffffffffffffffffffffffffffffff\n  mul\n  not\n  and\n  swap1\n  dup4\n  0xffffffffffffffffffffffffffffffffffffffff\n  and\n  mul\n  or\n  swap1\n  sstore\n  pop\n    /* \"contracts/TimeMarket.sol\":1157:1270  constructor(address _airdropToken){... */\n  callvalue\n  dup1\n  iszero\n  tag_1\n  jumpi\n  0x00\n  dup1\n  revert\ntag_1:\n  pop\n  mload(0x40)\n  sub(codesize, bytecodeSize)\n  dup1\n  bytecodeSize\n  dup4\n  codecopy\n  dup2\n  dup2\n  add\n  0x40\n  mstore\n  dup2\n  add\n  swap1\n  tag_2\n  swap2\n  swap1\n  tag_3\n  jump\t// in\ntag_2:\n    /* \"contracts/TimeMarket.sol\":1215:1228  _airdropToken */\n  dup1\n    /* \"contracts/TimeMarket.sol\":1202:1214  airdropToken */\n  0x03\n  0x00\n    /* \"contracts/TimeMarket.sol\":1202:1228  airdropToken=_airdropToken */\n  0x0100\n  exp\n  dup2\n  sload\n  dup2\n  0xffffffffffffffffffffffffffffffffffffffff\n  mul\n  not\n  and\n  swap1\n  dup4\n  0xffffffffffffffffffffffffffffffffffffffff\n  and\n  mul\n  or\n  swap1\n  sstore\n  pop\n    /* \"contracts/TimeMarket.sol\":1252:1262  msg.sender */\n  caller\n    /* \"contracts/TimeMarket.sol\":1239:1251  factoryOwner */\n  0x00\n  0x0b\n    /* \"contracts/TimeMarket.sol\":1239:1262  factoryOwner=msg.sender */\n  0x0100\n  exp\n  dup2\n  sload\n  dup2\n  0xffffffffffffffffffffffffffffffffffffffff\n  mul\n  not\n  and\n  swap1\n  dup4\n  0xffffffffffffffffffffffffffffffffffffffff\n  and\n  mul\n  or\n  swap1\n  sstore\n  pop\n    /* \"contracts/TimeMarket.sol\":1157:1270  constructor(address _airdropToken){... */\n  pop\n    /* \"contracts/TimeMarket.sol\":442:6872  contract TimeMarket is ITimeMarket{... */\n  jump(tag_6)\n    /* \"#utility.yul\":88:205   */\ntag_8:\n    /* \"#utility.yul\":197:198   */\n  0x00\n    /* \"#utility.yul\":194:195   */\n  dup1\n    /* \"#utility.yul\":187:199   */\n  revert\n    /* \"#utility.yul\":334:460   */\ntag_10:\n    /* \"#utility.yul\":371:378   */\n  0x00\n    /* \"#utility.yul\":411:453   */\n  0xffffffffffffffffffffffffffffffffffffffff\n    /* \"#utility.yul\":404:409   */\n  dup3\n    /* \"#utility.yul\":400:454   */\n  and\n    /* \"#utility.yul\":389:454   */\n  swap1\n  pop\n    /* \"#utility.yul\":334:460   */\n  swap2\n  swap1\n  pop\n  jump\t// out\n    /* \"#utility.yul\":466:562   */\ntag_11:\n    /* \"#utility.yul\":503:510   */\n  0x00\n    /* \"#utility.yul\":532:556   */\n  tag_20\n    /* \"#utility.yul\":550:555   */\n  dup3\n    /* \"#utility.yul\":532:556   */\n  tag_10\n  jump\t// in\ntag_20:\n    /* \"#utility.yul\":521:556   */\n  swap1\n  pop\n    /* \"#utility.yul\":466:562   */\n  swap2\n  swap1\n  pop\n  jump\t// out\n    /* \"#utility.yul\":568:690   */\ntag_12:\n    /* \"#utility.yul\":641:665   */\n  tag_22\n    /* \"#utility.yul\":659:664   */\n  dup2\n    /* \"#utility.yul\":641:665   */\n  tag_11\n  jump\t// in\ntag_22:\n    /* \"#utility.yul\":634:639   */\n  dup2\n    /* \"#utility.yul\":631:666   */\n  eq\n    /* \"#utility.yul\":621:684   */\n  tag_23\n  jumpi\n    /* \"#utility.yul\":680:681   */\n  0x00\n    /* \"#utility.yul\":677:678   */\n  dup1\n    /* \"#utility.yul\":670:682   */\n  revert\n    /* \"#utility.yul\":621:684   */\ntag_23:\n    /* \"#utility.yul\":568:690   */\n  pop\n  jump\t// out\n    /* \"#utility.yul\":696:839   */\ntag_13:\n    /* \"#utility.yul\":753:758   */\n  0x00\n    /* \"#utility.yul\":784:790   */\n  dup2\n    /* \"#utility.yul\":778:791   */\n  mload\n    /* \"#utility.yul\":769:791   */\n  swap1\n  pop\n    /* \"#utility.yul\":800:833   */\n  tag_25\n    /* \"#utility.yul\":827:832   */\n  dup2\n    /* \"#utility.yul\":800:833   */\n  tag_12\n  jump\t// in\ntag_25:\n    /* \"#utility.yul\":696:839   */\n  swap3\n  swap2\n  pop\n  pop\n  jump\t// out\n    /* \"#utility.yul\":845:1196   */\ntag_3:\n    /* \"#utility.yul\":915:921   */\n  0x00\n    /* \"#utility.yul\":964:966   */\n  0x20\n    /* \"#utility.yul\":952:961   */\n  dup3\n    /* \"#utility.yul\":943:950   */\n  dup5\n    /* \"#utility.yul\":939:962   */\n  sub\n    /* \"#utility.yul\":935:967   */\n  slt\n    /* \"#utility.yul\":932:1051   */\n  iszero\n  tag_27\n  jumpi\n    /* \"#utility.yul\":970:1049   */\n  tag_28\n  tag_8\n  jump\t// in\ntag_28:\n    /* \"#utility.yul\":932:1051   */\ntag_27:\n    /* \"#utility.yul\":1090:1091   */\n  0x00\n    /* \"#utility.yul\":1115:1179   */\n  tag_29\n    /* \"#utility.yul\":1171:1178   */\n  dup5\n    /* \"#utility.yul\":1162:1168   */\n  dup3\n    /* \"#utility.yul\":1151:1160   */\n  dup6\n    /* \"#utility.yul\":1147:1169   */\n  add\n    /* \"#utility.yul\":1115:1179   */\n  tag_13\n  jump\t// in\ntag_29:\n    /* \"#utility.yul\":1105:1179   */\n  swap2\n  pop\n    /* \"#utility.yul\":1061:1189   */\n  pop\n    /* \"#utility.yul\":845:1196   */\n  swap3\n  swap2\n  pop\n  pop\n  jump\t// out\n    /* \"contracts/TimeMarket.sol\":442:6872  contract TimeMarket is ITimeMarket{... */\ntag_6:\n  dataSize(sub_0)\n  dup1\n  dataOffset(sub_0)\n  0x00\n  codecopy\n  0x00\n  return\nstop\n\nsub_0: assembly {\n        /* \"contracts/TimeMarket.sol\":442:6872  contract TimeMarket is ITimeMarket{... */\n      mstore(0x40, 0x80)\n      callvalue\n      dup1\n      iszero\n      tag_1\n      jumpi\n      0x00\n      dup1\n      revert\n    tag_1:\n      pop\n      jumpi(tag_2, lt(calldatasize, 0x04))\n      shr(0xe0, calldataload(0x00))\n      dup1\n      0x8acd6272\n      gt\n      tag_11\n      jumpi\n      dup1\n      0x8acd6272\n      eq\n      tag_7\n      jumpi\n      dup1\n      0xb7252e8f\n      eq\n      tag_8\n      jumpi\n      dup1\n      0xb9eb8992\n      eq\n      tag_9\n      jumpi\n      dup1\n      0xcd83432d\n      eq\n      tag_10\n      jumpi\n      jump(tag_2)\n    tag_11:\n      dup1\n      0x1b92468d\n      eq\n      tag_3\n      jumpi\n      dup1\n      0x1c48c074\n      eq\n      tag_4\n      jumpi\n      dup1\n      0x635b9a0f\n      eq\n      tag_5\n      jumpi\n      dup1\n      0x845a51ec\n      eq\n      tag_6\n      jumpi\n    tag_2:\n      0x00\n      dup1\n      revert\n        /* \"contracts/TimeMarket.sol\":5960:6018  function cancelOrder(uint32 _id)external{... */\n    tag_3:\n      tag_12\n      0x04\n      dup1\n      calldatasize\n      sub\n      dup2\n      add\n      swap1\n      tag_13\n      swap2\n      swap1\n      tag_14\n      jump\t// in\n    tag_13:\n      tag_15\n      jump\t// in\n    tag_12:\n      stop\n        /* \"contracts/TimeMarket.sol\":6072:6125  function refund(uint32 _id)external{... */\n    tag_4:\n      tag_16\n      0x04\n      dup1\n      calldatasize\n      sub\n      dup2\n      add\n      swap1\n      tag_17\n      swap2\n      swap1\n      tag_14\n      jump\t// in\n    tag_17:\n      tag_18\n      jump\t// in\n    tag_16:\n      stop\n        /* \"contracts/TimeMarket.sol\":1764:1924  function setRewardPool(address _rewardPool,uint56 _clearingTime)external onlyOwner{... */\n    tag_5:\n      tag_19\n      0x04\n      dup1\n      calldatasize\n      sub\n      dup2\n      add\n      swap1\n      tag_20\n      swap2\n      swap1\n      tag_21\n      jump\t// in\n    tag_20:\n      tag_22\n      jump\t// in\n    tag_19:\n      stop\n        /* \"contracts/TimeMarket.sol\":6640:6734  function rewardPoolAddress()external view returns(address){... */\n    tag_6:\n      tag_23\n      tag_24\n      jump\t// in\n    tag_23:\n      mload(0x40)\n      tag_25\n      swap2\n      swap1\n      tag_26\n      jump\t// in\n    tag_25:\n      mload(0x40)\n      dup1\n      swap2\n      sub\n      swap1\n      return\n        /* \"contracts/TimeMarket.sol\":1954:4173  function putTrade(address _tokenAddress,uint32 _price,uint128 _amount,doState _doState)external{... */\n    tag_7:\n      tag_27\n      0x04\n      dup1\n      calldatasize\n      sub\n      dup2\n      add\n      swap1\n      tag_28\n      swap2\n      swap1\n      tag_29\n      jump\t// in\n    tag_28:\n      tag_30\n      jump\t// in\n    tag_27:\n      stop\n        /* \"contracts/TimeMarket.sol\":4201:5932  function matchTrade(uint32 _id) external{... */\n    tag_8:\n      tag_31\n      0x04\n      dup1\n      calldatasize\n      sub\n      dup2\n      add\n      swap1\n      tag_32\n      swap2\n      swap1\n      tag_14\n      jump\t// in\n    tag_32:\n      tag_33\n      jump\t// in\n    tag_31:\n      stop\n        /* \"contracts/TimeMarket.sol\":6493:6603  function getTradeMes(uint32 _id)external view returns(tradeMes memory){... */\n    tag_9:\n      tag_34\n      0x04\n      dup1\n      calldatasize\n      sub\n      dup2\n      add\n      swap1\n      tag_35\n      swap2\n      swap1\n      tag_14\n      jump\t// in\n    tag_35:\n      tag_36\n      jump\t// in\n    tag_34:\n      mload(0x40)\n      tag_37\n      swap2\n      swap1\n      tag_38\n      jump\t// in\n    tag_37:\n      mload(0x40)\n      dup1\n      swap2\n      sub\n      swap1\n      return\n        /* \"contracts/TimeMarket.sol\":6777:6867  function getClearTime()external view returns(uint56){... */\n    tag_10:\n      tag_39\n      tag_40\n      jump\t// in\n    tag_39:\n      mload(0x40)\n      tag_41\n      swap2\n      swap1\n      tag_42\n      jump\t// in\n    tag_41:\n      mload(0x40)\n      dup1\n      swap2\n      sub\n      swap1\n      return\n        /* \"contracts/TimeMarket.sol\":5960:6018  function cancelOrder(uint32 _id)external{... */\n    tag_15:\n      pop\n      jump\t// out\n        /* \"contracts/TimeMarket.sol\":6072:6125  function refund(uint32 _id)external{... */\n    tag_18:\n      pop\n      jump\t// out\n        /* \"contracts/TimeMarket.sol\":1764:1924  function setRewardPool(address _rewardPool,uint56 _clearingTime)external onlyOwner{... */\n    tag_22:\n        /* \"contracts/TimeMarket.sol\":1585:1602  address thisOwner */\n      0x00\n        /* \"contracts/TimeMarket.sol\":1616:1628  factoryOwner */\n      dup1\n      0x0b\n      swap1\n      sload\n      swap1\n      0x0100\n      exp\n      swap1\n      div\n      0xffffffffffffffffffffffffffffffffffffffff\n      and\n        /* \"contracts/TimeMarket.sol\":1603:1639  ITimeFactory(factoryOwner).thisOwner */\n      0xffffffffffffffffffffffffffffffffffffffff\n      and\n      0xe7c9922f\n        /* \"contracts/TimeMarket.sol\":1603:1641  ITimeFactory(factoryOwner).thisOwner() */\n      mload(0x40)\n      dup2\n      0xffffffff\n      and\n      0xe0\n      shl\n      dup2\n      mstore\n      0x04\n      add\n      0x20\n      mload(0x40)\n      dup1\n      dup4\n      sub\n      dup2\n      dup7\n      gas\n      staticcall\n      iszero\n      dup1\n      iszero\n      tag_47\n      jumpi\n      returndatasize\n      0x00\n      dup1\n      returndatacopy\n      revert(0x00, returndatasize)\n    tag_47:\n      pop\n      pop\n      pop\n      pop\n      mload(0x40)\n      returndatasize\n      not(0x1f)\n      0x1f\n      dup3\n      add\n      and\n      dup3\n      add\n      dup1\n      0x40\n      mstore\n      pop\n      dup2\n      add\n      swap1\n      tag_48\n      swap2\n      swap1\n      tag_49\n      jump\t// in\n    tag_48:\n        /* \"contracts/TimeMarket.sol\":1585:1641  address thisOwner=ITimeFactory(factoryOwner).thisOwner() */\n      swap1\n      pop\n        /* \"contracts/TimeMarket.sol\":1672:1681  thisOwner */\n      dup1\n        /* \"contracts/TimeMarket.sol\":1660:1681  msg.sender==thisOwner */\n      0xffffffffffffffffffffffffffffffffffffffff\n      and\n        /* \"contracts/TimeMarket.sol\":1660:1670  msg.sender */\n      caller\n        /* \"contracts/TimeMarket.sol\":1660:1681  msg.sender==thisOwner */\n      0xffffffffffffffffffffffffffffffffffffffff\n      and\n      eq\n        /* \"contracts/TimeMarket.sol\":1652:1694  require(msg.sender==thisOwner,\"Not Owner\") */\n      tag_50\n      jumpi\n      mload(0x40)\n      0x08c379a000000000000000000000000000000000000000000000000000000000\n      dup2\n      mstore\n      0x04\n      add\n      tag_51\n      swap1\n      tag_52\n      jump\t// in\n    tag_51:\n      mload(0x40)\n      dup1\n      swap2\n      sub\n      swap1\n      revert\n    tag_50:\n        /* \"contracts/TimeMarket.sol\":1868:1879  _rewardPool */\n      dup3\n        /* \"contracts/TimeMarket.sol\":1857:1867  rewardPool */\n      0x02\n      0x00\n        /* \"contracts/TimeMarket.sol\":1857:1879  rewardPool=_rewardPool */\n      0x0100\n      exp\n      dup2\n      sload\n      dup2\n      0xffffffffffffffffffffffffffffffffffffffff\n      mul\n      not\n      and\n      swap1\n      dup4\n      0xffffffffffffffffffffffffffffffffffffffff\n      and\n      mul\n      or\n      swap1\n      sstore\n      pop\n        /* \"contracts/TimeMarket.sol\":1903:1916  _clearingTime */\n      dup2\n        /* \"contracts/TimeMarket.sol\":1890:1902  clearingTime */\n      0x00\n      0x04\n        /* \"contracts/TimeMarket.sol\":1890:1916  clearingTime=_clearingTime */\n      0x0100\n      exp\n      dup2\n      sload\n      dup2\n      0xffffffffffffff\n      mul\n      not\n      and\n      swap1\n      dup4\n      0xffffffffffffff\n      and\n      mul\n      or\n      swap1\n      sstore\n      pop\n        /* \"contracts/TimeMarket.sol\":1574:1714  {... */\n      pop\n        /* \"contracts/TimeMarket.sol\":1764:1924  function setRewardPool(address _rewardPool,uint56 _clearingTime)external onlyOwner{... */\n      pop\n      pop\n      jump\t// out\n        /* \"contracts/TimeMarket.sol\":6640:6734  function rewardPoolAddress()external view returns(address){... */\n    tag_24:\n        /* \"contracts/TimeMarket.sol\":6690:6697  address */\n      0x00\n        /* \"contracts/TimeMarket.sol\":6716:6726  rewardPool */\n      0x02\n      0x00\n      swap1\n      sload\n      swap1\n      0x0100\n      exp\n      swap1\n      div\n      0xffffffffffffffffffffffffffffffffffffffff\n      and\n        /* \"contracts/TimeMarket.sol\":6709:6726  return rewardPool */\n      swap1\n      pop\n        /* \"contracts/TimeMarket.sol\":6640:6734  function rewardPoolAddress()external view returns(address){... */\n      swap1\n      jump\t// out\n        /* \"contracts/TimeMarket.sol\":1954:4173  function putTrade(address _tokenAddress,uint32 _price,uint128 _amount,doState _doState)external{... */\n    tag_30:\n        /* \"contracts/TimeMarket.sol\":2093:2107  uint8 decimals */\n      0x00\n        /* \"contracts/TimeMarket.sol\":2123:2136  _tokenAddress */\n      dup5\n        /* \"contracts/TimeMarket.sol\":2108:2146  IERC20Metadata(_tokenAddress).decimals */\n      0xffffffffffffffffffffffffffffffffffffffff\n      and\n      0x313ce567\n        /* \"contracts/TimeMarket.sol\":2108:2148  IERC20Metadata(_tokenAddress).decimals() */\n      mload(0x40)\n      dup2\n      0xffffffff\n      and\n      0xe0\n      shl\n      dup2\n      mstore\n      0x04\n      add\n      0x20\n      mload(0x40)\n      dup1\n      dup4\n      sub\n      dup2\n      dup7\n      gas\n      staticcall\n      iszero\n      dup1\n      iszero\n      tag_57\n      jumpi\n      returndatasize\n      0x00\n      dup1\n      returndatacopy\n      revert(0x00, returndatasize)\n    tag_57:\n      pop\n      pop\n      pop\n      pop\n      mload(0x40)\n      returndatasize\n      not(0x1f)\n      0x1f\n      dup3\n      add\n      and\n      dup3\n      add\n      dup1\n      0x40\n      mstore\n      pop\n      dup2\n      add\n      swap1\n      tag_58\n      swap2\n      swap1\n      tag_59\n      jump\t// in\n    tag_58:\n        /* \"contracts/TimeMarket.sol\":2093:2148  uint8 decimals=IERC20Metadata(_tokenAddress).decimals() */\n      swap1\n      pop\n        /* \"contracts/TimeMarket.sol\":2159:2175  uint256 oneToken */\n      0x00\n        /* \"contracts/TimeMarket.sol\":2180:2188  decimals */\n      dup2\n        /* \"contracts/TimeMarket.sol\":2176:2178  10 */\n      0x0a\n        /* \"contracts/TimeMarket.sol\":2176:2188  10**decimals */\n      tag_60\n      swap2\n      swap1\n      tag_61\n      jump\t// in\n    tag_60:\n        /* \"contracts/TimeMarket.sol\":2159:2188  uint256 oneToken=10**decimals */\n      swap1\n      pop\n        /* \"contracts/TimeMarket.sol\":2199:2212  uint256 total */\n      0x00\n        /* \"contracts/TimeMarket.sol\":2215:2266  TimeLibrary.getTotalStable(_price,_amount,oneToken) */\n      tag_62\n        /* \"contracts/TimeMarket.sol\":2242:2248  _price */\n      dup7\n        /* \"contracts/TimeMarket.sol\":2249:2256  _amount */\n      dup7\n        /* \"contracts/TimeMarket.sol\":2257:2265  oneToken */\n      dup5\n        /* \"contracts/TimeMarket.sol\":2215:2241  TimeLibrary.getTotalStable */\n      tag_63\n        /* \"contracts/TimeMarket.sol\":2215:2266  TimeLibrary.getTotalStable(_price,_amount,oneToken) */\n      jump\t// in\n    tag_62:\n        /* \"contracts/TimeMarket.sol\":2199:2266  uint256 total = TimeLibrary.getTotalStable(_price,_amount,oneToken) */\n      swap1\n      pop\n        /* \"contracts/TimeMarket.sol\":2295:2303  oneToken */\n      dup2\n        /* \"contracts/TimeMarket.sol\":2292:2294  10 */\n      0x0a\n        /* \"contracts/TimeMarket.sol\":2292:2303  10*oneToken */\n      tag_64\n      swap2\n      swap1\n      tag_65\n      jump\t// in\n    tag_64:\n        /* \"contracts/TimeMarket.sol\":2285:2290  total */\n      dup2\n        /* \"contracts/TimeMarket.sol\":2285:2303  total>=10*oneToken */\n      lt\n      iszero\n        /* \"contracts/TimeMarket.sol\":2277:2304  require(total>=10*oneToken) */\n      tag_66\n      jumpi\n      0x00\n      dup1\n      revert\n    tag_66:\n        /* \"contracts/TimeMarket.sol\":2317:2330  address buyer */\n      0x00\n        /* \"contracts/TimeMarket.sol\":2341:2355  address seller */\n      dup1\n        /* \"contracts/TimeMarket.sol\":2368:2392  tradeState newTradeState */\n      0x00\n        /* \"contracts/TimeMarket.sol\":2416:2427  doState.buy */\n      dup1\n        /* \"contracts/TimeMarket.sol\":2406:2427  _doState==doState.buy */\n      0x02\n      dup2\n      gt\n      iszero\n      tag_67\n      jumpi\n      tag_68\n      tag_69\n      jump\t// in\n    tag_68:\n    tag_67:\n        /* \"contracts/TimeMarket.sol\":2406:2414  _doState */\n      dup8\n        /* \"contracts/TimeMarket.sol\":2406:2427  _doState==doState.buy */\n      0x02\n      dup2\n      gt\n      iszero\n      tag_70\n      jumpi\n      tag_71\n      tag_69\n      jump\t// in\n    tag_71:\n    tag_70:\n      sub\n        /* \"contracts/TimeMarket.sol\":2403:2678  if(_doState==doState.buy){... */\n      tag_72\n      jumpi\n        /* \"contracts/TimeMarket.sol\":2449:2459  msg.sender */\n      caller\n        /* \"contracts/TimeMarket.sol\":2443:2459  buyer=msg.sender */\n      swap3\n      pop\n        /* \"contracts/TimeMarket.sol\":2488:2505  tradeState.buying */\n      0x00\n        /* \"contracts/TimeMarket.sol\":2474:2505  newTradeState=tradeState.buying */\n      swap1\n      pop\n        /* \"contracts/TimeMarket.sol\":2403:2678  if(_doState==doState.buy){... */\n      jump(tag_73)\n    tag_72:\n        /* \"contracts/TimeMarket.sol\":2535:2547  doState.sell */\n      0x01\n        /* \"contracts/TimeMarket.sol\":2525:2547  _doState==doState.sell */\n      0x02\n      dup2\n      gt\n      iszero\n      tag_74\n      jumpi\n      tag_75\n      tag_69\n      jump\t// in\n    tag_75:\n    tag_74:\n        /* \"contracts/TimeMarket.sol\":2525:2533  _doState */\n      dup8\n        /* \"contracts/TimeMarket.sol\":2525:2547  _doState==doState.sell */\n      0x02\n      dup2\n      gt\n      iszero\n      tag_76\n      jumpi\n      tag_77\n      tag_69\n      jump\t// in\n    tag_77:\n    tag_76:\n      sub\n        /* \"contracts/TimeMarket.sol\":2522:2678  if(_doState==doState.sell){... */\n      tag_78\n      jumpi\n        /* \"contracts/TimeMarket.sol\":2577:2595  tradeState.selling */\n      0x01\n        /* \"contracts/TimeMarket.sol\":2563:2595  newTradeState=tradeState.selling */\n      swap1\n      pop\n        /* \"contracts/TimeMarket.sol\":2617:2627  msg.sender */\n      caller\n        /* \"contracts/TimeMarket.sol\":2610:2627  seller=msg.sender */\n      swap2\n      pop\n        /* \"contracts/TimeMarket.sol\":2522:2678  if(_doState==doState.sell){... */\n      jump(tag_79)\n    tag_78:\n        /* \"contracts/TimeMarket.sol\":2658:2666  revert() */\n      0x00\n      dup1\n      revert\n        /* \"contracts/TimeMarket.sol\":2522:2678  if(_doState==doState.sell){... */\n    tag_79:\n        /* \"contracts/TimeMarket.sol\":2403:2678  if(_doState==doState.buy){... */\n    tag_73:\n        /* \"contracts/TimeMarket.sol\":2764:2770  1 days */\n      0x015180\n        /* \"contracts/TimeMarket.sol\":2751:2763  clearingTime */\n      0x00\n      0x04\n      swap1\n      sload\n      swap1\n      0x0100\n      exp\n      swap1\n      div\n      0xffffffffffffff\n      and\n        /* \"contracts/TimeMarket.sol\":2751:2770  clearingTime-1 days */\n      tag_80\n      swap2\n      swap1\n      tag_81\n      jump\t// in\n    tag_80:\n        /* \"contracts/TimeMarket.sol\":2735:2770  block.timestamp>clearingTime-1 days */\n      0xffffffffffffff\n      and\n        /* \"contracts/TimeMarket.sol\":2735:2750  block.timestamp */\n      timestamp\n        /* \"contracts/TimeMarket.sol\":2735:2770  block.timestamp>clearingTime-1 days */\n      gt\n        /* \"contracts/TimeMarket.sol\":2732:2791  if(block.timestamp>clearingTime-1 days){revert OverTime();} */\n      iszero\n      tag_82\n      jumpi\n        /* \"contracts/TimeMarket.sol\":2779:2789  OverTime() */\n      mload(0x40)\n      0xee1ea89500000000000000000000000000000000000000000000000000000000\n      dup2\n      mstore\n      0x04\n      add\n      mload(0x40)\n      dup1\n      swap2\n      sub\n      swap1\n      revert\n        /* \"contracts/TimeMarket.sol\":2732:2791  if(block.timestamp>clearingTime-1 days){revert OverTime();} */\n    tag_82:\n        /* \"contracts/TimeMarket.sol\":2847:2917  IERC20(_tokenAddress).safeTransferFrom(msg.sender,address(this),total) */\n      tag_83\n        /* \"contracts/TimeMarket.sol\":2886:2896  msg.sender */\n      caller\n        /* \"contracts/TimeMarket.sol\":2905:2909  this */\n      address\n        /* \"contracts/TimeMarket.sol\":2911:2916  total */\n      dup7\n        /* \"contracts/TimeMarket.sol\":2854:2867  _tokenAddress */\n      dup14\n        /* \"contracts/TimeMarket.sol\":2847:2885  IERC20(_tokenAddress).safeTransferFrom */\n      0xffffffffffffffffffffffffffffffffffffffff\n      and\n      tag_84\n      swap1\n        /* \"contracts/TimeMarket.sol\":2847:2917  IERC20(_tokenAddress).safeTransferFrom(msg.sender,address(this),total) */\n      swap4\n      swap3\n      swap2\n      swap1\n      0xffffffff\n      and\n      jump\t// in\n    tag_83:\n        /* \"contracts/TimeMarket.sol\":2970:2983  _tokenAddress */\n      dup10\n        /* \"contracts/TimeMarket.sol\":2963:2992  IERC20(_tokenAddress).approve */\n      0xffffffffffffffffffffffffffffffffffffffff\n      and\n      0x095ea7b3\n        /* \"contracts/TimeMarket.sol\":3001:3011  AaveV3Pool */\n      0x06\n      0x00\n      swap1\n      sload\n      swap1\n      0x0100\n      exp\n      swap1\n      div\n      0xffffffffffffffffffffffffffffffffffffffff\n      and\n        /* \"contracts/TimeMarket.sol\":3013:3018  total */\n      dup7\n        /* \"contracts/TimeMarket.sol\":2963:3019  IERC20(_tokenAddress).approve(address(AaveV3Pool),total) */\n      mload(0x40)\n      dup4\n      0xffffffff\n      and\n      0xe0\n      shl\n      dup2\n      mstore\n      0x04\n      add\n      tag_85\n      swap3\n      swap2\n      swap1\n      tag_86\n      jump\t// in\n    tag_85:\n      0x20\n      mload(0x40)\n      dup1\n      dup4\n      sub\n      dup2\n      0x00\n      dup8\n      gas\n      call\n      iszero\n      dup1\n      iszero\n      tag_88\n      jumpi\n      returndatasize\n      0x00\n      dup1\n      returndatacopy\n      revert(0x00, returndatasize)\n    tag_88:\n      pop\n      pop\n      pop\n      pop\n      mload(0x40)\n      returndatasize\n      not(0x1f)\n      0x1f\n      dup3\n      add\n      and\n      dup3\n      add\n      dup1\n      0x40\n      mstore\n      pop\n      dup2\n      add\n      swap1\n      tag_89\n      swap2\n      swap1\n      tag_90\n      jump\t// in\n    tag_89:\n      pop\n        /* \"contracts/TimeMarket.sol\":3058:3068  AaveV3Pool */\n      0x06\n      0x00\n      swap1\n      sload\n      swap1\n      0x0100\n      exp\n      swap1\n      div\n      0xffffffffffffffffffffffffffffffffffffffff\n      and\n        /* \"contracts/TimeMarket.sol\":3058:3075  AaveV3Pool.supply */\n      0xffffffffffffffffffffffffffffffffffffffff\n      and\n      0x617ba037\n        /* \"contracts/TimeMarket.sol\":3090:3103  _tokenAddress */\n      dup12\n        /* \"contracts/TimeMarket.sol\":3147:3152  total */\n      dup7\n        /* \"contracts/TimeMarket.sol\":3204:3208  this */\n      address\n        /* \"contracts/TimeMarket.sol\":3252:3253  0 */\n      0x00\n        /* \"contracts/TimeMarket.sol\":3058:3306  AaveV3Pool.supply(... */\n      mload(0x40)\n      dup6\n      0xffffffff\n      and\n      0xe0\n      shl\n      dup2\n      mstore\n      0x04\n      add\n      tag_91\n      swap5\n      swap4\n      swap3\n      swap2\n      swap1\n      tag_92\n      jump\t// in\n    tag_91:\n      0x00\n      mload(0x40)\n      dup1\n      dup4\n      sub\n      dup2\n      0x00\n      dup8\n      dup1\n      extcodesize\n      iszero\n      dup1\n      iszero\n      tag_93\n      jumpi\n      0x00\n      dup1\n      revert\n    tag_93:\n      pop\n      gas\n      call\n      iszero\n      dup1\n      iszero\n      tag_95\n      jumpi\n      returndatasize\n      0x00\n      dup1\n      returndatacopy\n      revert(0x00, returndatasize)\n    tag_95:\n      pop\n      pop\n      pop\n      pop\n        /* \"contracts/TimeMarket.sol\":3341:3343  id */\n      0x00\n      dup1\n      sload\n      swap1\n      0x0100\n      exp\n      swap1\n      div\n      0xffffffff\n      and\n        /* \"contracts/TimeMarket.sol\":3319:3328  _tradeMes */\n      0x07\n        /* \"contracts/TimeMarket.sol\":3319:3332  _tradeMes[id] */\n      0x00\n        /* \"contracts/TimeMarket.sol\":3329:3331  id */\n      dup1\n      0x00\n      swap1\n      sload\n      swap1\n      0x0100\n      exp\n      swap1\n      div\n      0xffffffff\n      and\n        /* \"contracts/TimeMarket.sol\":3319:3332  _tradeMes[id] */\n      0xffffffff\n      and\n      0xffffffff\n      and\n      dup2\n      mstore\n      0x20\n      add\n      swap1\n      dup2\n      mstore\n      0x20\n      add\n      0x00\n      keccak256\n        /* \"contracts/TimeMarket.sol\":3319:3340  _tradeMes[id].tradeId */\n      0x00\n      add\n      0x00\n        /* \"contracts/TimeMarket.sol\":3319:3343  _tradeMes[id].tradeId=id */\n      0x0100\n      exp\n      dup2\n      sload\n      dup2\n      0xffffffff\n      mul\n      not\n      and\n      swap1\n      dup4\n      0xffffffff\n      and\n      mul\n      or\n      swap1\n      sstore\n      pop\n        /* \"contracts/TimeMarket.sol\":3374:3380  _price */\n      dup9\n        /* \"contracts/TimeMarket.sol\":3354:3363  _tradeMes */\n      0x07\n        /* \"contracts/TimeMarket.sol\":3354:3367  _tradeMes[id] */\n      0x00\n        /* \"contracts/TimeMarket.sol\":3364:3366  id */\n      dup1\n      0x00\n      swap1\n      sload\n      swap1\n      0x0100\n      exp\n      swap1\n      div\n      0xffffffff\n      and\n        /* \"contracts/TimeMarket.sol\":3354:3367  _tradeMes[id] */\n      0xffffffff\n      and\n      0xffffffff\n      and\n      dup2\n      mstore\n      0x20\n      add\n      swap1\n      dup2\n      mstore\n      0x20\n      add\n      0x00\n      keccak256\n        /* \"contracts/TimeMarket.sol\":3354:3373  _tradeMes[id].price */\n      0x00\n      add\n      0x04\n        /* \"contracts/TimeMarket.sol\":3354:3380  _tradeMes[id].price=_price */\n      0x0100\n      exp\n      dup2\n      sload\n      dup2\n      0xffffffff\n      mul\n      not\n      and\n      swap1\n      dup4\n      0xffffffff\n      and\n      mul\n      or\n      swap1\n      sstore\n      pop\n        /* \"contracts/TimeMarket.sol\":3417:3432  block.timestamp */\n      timestamp\n        /* \"contracts/TimeMarket.sol\":3391:3400  _tradeMes */\n      0x07\n        /* \"contracts/TimeMarket.sol\":3391:3404  _tradeMes[id] */\n      0x00\n        /* \"contracts/TimeMarket.sol\":3401:3403  id */\n      dup1\n      0x00\n      swap1\n      sload\n      swap1\n      0x0100\n      exp\n      swap1\n      div\n      0xffffffff\n      and\n        /* \"contracts/TimeMarket.sol\":3391:3404  _tradeMes[id] */\n      0xffffffff\n      and\n      0xffffffff\n      and\n      dup2\n      mstore\n      0x20\n      add\n      swap1\n      dup2\n      mstore\n      0x20\n      add\n      0x00\n      keccak256\n        /* \"contracts/TimeMarket.sol\":3391:3409  _tradeMes[id].time */\n      0x00\n      add\n      0x08\n        /* \"contracts/TimeMarket.sol\":3391:3433  _tradeMes[id].time=uint56(block.timestamp) */\n      0x0100\n      exp\n      dup2\n      sload\n      dup2\n      0xffffffffffffff\n      mul\n      not\n      and\n      swap1\n      dup4\n      0xffffffffffffff\n      and\n      mul\n      or\n      swap1\n      sstore\n      pop\n        /* \"contracts/TimeMarket.sol\":3465:3472  _amount */\n      dup8\n        /* \"contracts/TimeMarket.sol\":3444:3453  _tradeMes */\n      0x07\n        /* \"contracts/TimeMarket.sol\":3444:3457  _tradeMes[id] */\n      0x00\n        /* \"contracts/TimeMarket.sol\":3454:3456  id */\n      dup1\n      0x00\n      swap1\n      sload\n      swap1\n      0x0100\n      exp\n      swap1\n      div\n      0xffffffff\n      and\n        /* \"contracts/TimeMarket.sol\":3444:3457  _tradeMes[id] */\n      0xffffffff\n      and\n      0xffffffff\n      and\n      dup2\n      mstore\n      0x20\n      add\n      swap1\n      dup2\n      mstore\n      0x20\n      add\n      0x00\n      keccak256\n        /* \"contracts/TimeMarket.sol\":3444:3464  _tradeMes[id].amount */\n      0x00\n      add\n      0x0f\n        /* \"contracts/TimeMarket.sol\":3444:3472  _tradeMes[id].amount=_amount */\n      0x0100\n      exp\n      dup2\n      sload\n      dup2\n      0xffffffffffffffffffffffffffffffff\n      mul\n      not\n      and\n      swap1\n      dup4\n      0xffffffffffffffffffffffffffffffff\n      and\n      mul\n      or\n      swap1\n      sstore\n      pop\n        /* \"contracts/TimeMarket.sol\":3512:3520  oneToken */\n      dup5\n        /* \"contracts/TimeMarket.sol\":3483:3492  _tradeMes */\n      0x07\n        /* \"contracts/TimeMarket.sol\":3483:3496  _tradeMes[id] */\n      0x00\n        /* \"contracts/TimeMarket.sol\":3493:3495  id */\n      dup1\n      0x00\n      swap1\n      sload\n      swap1\n      0x0100\n      exp\n      swap1\n      div\n      0xffffffff\n      and\n        /* \"contracts/TimeMarket.sol\":3483:3496  _tradeMes[id] */\n      0xffffffff\n      and\n      0xffffffff\n      and\n      dup2\n      mstore\n      0x20\n      add\n      swap1\n      dup2\n      mstore\n      0x20\n      add\n      0x00\n      keccak256\n        /* \"contracts/TimeMarket.sol\":3483:3511  _tradeMes[id].tokenOneAmount */\n      0x01\n      add\n        /* \"contracts/TimeMarket.sol\":3483:3520  _tradeMes[id].tokenOneAmount=oneToken */\n      dup2\n      swap1\n      sstore\n      pop\n        /* \"contracts/TimeMarket.sol\":3558:3571  _tokenAddress */\n      dup10\n        /* \"contracts/TimeMarket.sol\":3531:3540  _tradeMes */\n      0x07\n        /* \"contracts/TimeMarket.sol\":3531:3544  _tradeMes[id] */\n      0x00\n        /* \"contracts/TimeMarket.sol\":3541:3543  id */\n      dup1\n      0x00\n      swap1\n      sload\n      swap1\n      0x0100\n      exp\n      swap1\n      div\n      0xffffffff\n      and\n        /* \"contracts/TimeMarket.sol\":3531:3544  _tradeMes[id] */\n      0xffffffff\n      and\n      0xffffffff\n      and\n      dup2\n      mstore\n      0x20\n      add\n      swap1\n      dup2\n      mstore\n      0x20\n      add\n      0x00\n      keccak256\n        /* \"contracts/TimeMarket.sol\":3531:3557  _tradeMes[id].tokenAddress */\n      0x02\n      add\n      0x00\n        /* \"contracts/TimeMarket.sol\":3531:3571  _tradeMes[id].tokenAddress=_tokenAddress */\n      0x0100\n      exp\n      dup2\n      sload\n      dup2\n      0xffffffffffffffffffffffffffffffffffffffff\n      mul\n      not\n      and\n      swap1\n      dup4\n      0xffffffffffffffffffffffffffffffffffffffff\n      and\n      mul\n      or\n      swap1\n      sstore\n      pop\n        /* \"contracts/TimeMarket.sol\":3609:3614  buyer */\n      dup3\n        /* \"contracts/TimeMarket.sol\":3582:3591  _tradeMes */\n      0x07\n        /* \"contracts/TimeMarket.sol\":3582:3595  _tradeMes[id] */\n      0x00\n        /* \"contracts/TimeMarket.sol\":3592:3594  id */\n      dup1\n      0x00\n      swap1\n      sload\n      swap1\n      0x0100\n      exp\n      swap1\n      div\n      0xffffffff\n      and\n        /* \"contracts/TimeMarket.sol\":3582:3595  _tradeMes[id] */\n      0xffffffff\n      and\n      0xffffffff\n      and\n      dup2\n      mstore\n      0x20\n      add\n      swap1\n      dup2\n      mstore\n      0x20\n      add\n      0x00\n      keccak256\n        /* \"contracts/TimeMarket.sol\":3582:3608  _tradeMes[id].buyerAddress */\n      0x03\n      add\n      0x00\n        /* \"contracts/TimeMarket.sol\":3582:3614  _tradeMes[id].buyerAddress=buyer */\n      0x0100\n      exp\n      dup2\n      sload\n      dup2\n      0xffffffffffffffffffffffffffffffffffffffff\n      mul\n      not\n      and\n      swap1\n      dup4\n      0xffffffffffffffffffffffffffffffffffffffff\n      and\n      mul\n      or\n      swap1\n      sstore\n      pop\n        /* \"contracts/TimeMarket.sol\":3653:3659  seller */\n      dup2\n        /* \"contracts/TimeMarket.sol\":3625:3634  _tradeMes */\n      0x07\n        /* \"contracts/TimeMarket.sol\":3625:3638  _tradeMes[id] */\n      0x00\n        /* \"contracts/TimeMarket.sol\":3635:3637  id */\n      dup1\n      0x00\n      swap1\n      sload\n      swap1\n      0x0100\n      exp\n      swap1\n      div\n      0xffffffff\n      and\n        /* \"contracts/TimeMarket.sol\":3625:3638  _tradeMes[id] */\n      0xffffffff\n      and\n      0xffffffff\n      and\n      dup2\n      mstore\n      0x20\n      add\n      swap1\n      dup2\n      mstore\n      0x20\n      add\n      0x00\n      keccak256\n        /* \"contracts/TimeMarket.sol\":3625:3652  _tradeMes[id].solderAddress */\n      0x04\n      add\n      0x00\n        /* \"contracts/TimeMarket.sol\":3625:3659  _tradeMes[id].solderAddress=seller */\n      0x0100\n      exp\n      dup2\n      sload\n      dup2\n      0xffffffffffffffffffffffffffffffffffffffff\n      mul\n      not\n      and\n      swap1\n      dup4\n      0xffffffffffffffffffffffffffffffffffffffff\n      and\n      mul\n      or\n      swap1\n      sstore\n      pop\n        /* \"contracts/TimeMarket.sol\":3696:3709  newTradeState */\n      dup1\n        /* \"contracts/TimeMarket.sol\":3670:3679  _tradeMes */\n      0x07\n        /* \"contracts/TimeMarket.sol\":3670:3683  _tradeMes[id] */\n      0x00\n        /* \"contracts/TimeMarket.sol\":3680:3682  id */\n      dup1\n      0x00\n      swap1\n      sload\n      swap1\n      0x0100\n      exp\n      swap1\n      div\n      0xffffffff\n      and\n        /* \"contracts/TimeMarket.sol\":3670:3683  _tradeMes[id] */\n      0xffffffff\n      and\n      0xffffffff\n      and\n      dup2\n      mstore\n      0x20\n      add\n      swap1\n      dup2\n      mstore\n      0x20\n      add\n      0x00\n      keccak256\n        /* \"contracts/TimeMarket.sol\":3670:3695  _tradeMes[id]._tradeState */\n      0x04\n      add\n      0x14\n        /* \"contracts/TimeMarket.sol\":3670:3709  _tradeMes[id]._tradeState=newTradeState */\n      0x0100\n      exp\n      dup2\n      sload\n      dup2\n      0xff\n      mul\n      not\n      and\n      swap1\n      dup4\n      0x04\n      dup2\n      gt\n      iszero\n      tag_96\n      jumpi\n      tag_97\n      tag_69\n      jump\t// in\n    tag_97:\n    tag_96:\n      mul\n      or\n      swap1\n      sstore\n      pop\n        /* \"contracts/TimeMarket.sol\":3760:3762  id */\n      0x00\n      dup1\n      sload\n      swap1\n      0x0100\n      exp\n      swap1\n      div\n      0xffffffff\n      and\n        /* \"contracts/TimeMarket.sol\":3722:3735  _userDeposite */\n      0x08\n        /* \"contracts/TimeMarket.sol\":3722:3739  _userDeposite[id] */\n      0x00\n        /* \"contracts/TimeMarket.sol\":3736:3738  id */\n      dup1\n      0x00\n      swap1\n      sload\n      swap1\n      0x0100\n      exp\n      swap1\n      div\n      0xffffffff\n      and\n        /* \"contracts/TimeMarket.sol\":3722:3739  _userDeposite[id] */\n      0xffffffff\n      and\n      0xffffffff\n      and\n      dup2\n      mstore\n      0x20\n      add\n      swap1\n      dup2\n      mstore\n      0x20\n      add\n      0x00\n      keccak256\n        /* \"contracts/TimeMarket.sol\":3722:3751  _userDeposite[id][msg.sender] */\n      0x00\n        /* \"contracts/TimeMarket.sol\":3740:3750  msg.sender */\n      caller\n        /* \"contracts/TimeMarket.sol\":3722:3751  _userDeposite[id][msg.sender] */\n      0xffffffffffffffffffffffffffffffffffffffff\n      and\n      0xffffffffffffffffffffffffffffffffffffffff\n      and\n      dup2\n      mstore\n      0x20\n      add\n      swap1\n      dup2\n      mstore\n      0x20\n      add\n      0x00\n      keccak256\n        /* \"contracts/TimeMarket.sol\":3722:3759  _userDeposite[id][msg.sender].tradeId */\n      0x00\n      add\n      0x00\n        /* \"contracts/TimeMarket.sol\":3722:3762  _userDeposite[id][msg.sender].tradeId=id */\n      0x0100\n      exp\n      dup2\n      sload\n      dup2\n      0xffffffff\n      mul\n      not\n      and\n      swap1\n      dup4\n      0xffffffff\n      and\n      mul\n      or\n      swap1\n      sstore\n      pop\n        /* \"contracts/TimeMarket.sol\":3813:3822  _tradeMes */\n      0x07\n        /* \"contracts/TimeMarket.sol\":3813:3826  _tradeMes[id] */\n      0x00\n        /* \"contracts/TimeMarket.sol\":3823:3825  id */\n      dup1\n      0x00\n      swap1\n      sload\n      swap1\n      0x0100\n      exp\n      swap1\n      div\n      0xffffffff\n      and\n        /* \"contracts/TimeMarket.sol\":3813:3826  _tradeMes[id] */\n      0xffffffff\n      and\n      0xffffffff\n      and\n      dup2\n      mstore\n      0x20\n      add\n      swap1\n      dup2\n      mstore\n      0x20\n      add\n      0x00\n      keccak256\n        /* \"contracts/TimeMarket.sol\":3813:3831  _tradeMes[id].time */\n      0x00\n      add\n      0x08\n      swap1\n      sload\n      swap1\n      0x0100\n      exp\n      swap1\n      div\n      0xffffffffffffff\n      and\n        /* \"contracts/TimeMarket.sol\":3773:3786  _userDeposite */\n      0x08\n        /* \"contracts/TimeMarket.sol\":3773:3790  _userDeposite[id] */\n      0x00\n        /* \"contracts/TimeMarket.sol\":3787:3789  id */\n      dup1\n      0x00\n      swap1\n      sload\n      swap1\n      0x0100\n      exp\n      swap1\n      div\n      0xffffffff\n      and\n        /* \"contracts/TimeMarket.sol\":3773:3790  _userDeposite[id] */\n      0xffffffff\n      and\n      0xffffffff\n      and\n      dup2\n      mstore\n      0x20\n      add\n      swap1\n      dup2\n      mstore\n      0x20\n      add\n      0x00\n      keccak256\n        /* \"contracts/TimeMarket.sol\":3773:3802  _userDeposite[id][msg.sender] */\n      0x00\n        /* \"contracts/TimeMarket.sol\":3791:3801  msg.sender */\n      caller\n        /* \"contracts/TimeMarket.sol\":3773:3802  _userDeposite[id][msg.sender] */\n      0xffffffffffffffffffffffffffffffffffffffff\n      and\n      0xffffffffffffffffffffffffffffffffffffffff\n      and\n      dup2\n      mstore\n      0x20\n      add\n      swap1\n      dup2\n      mstore\n      0x20\n      add\n      0x00\n      keccak256\n        /* \"contracts/TimeMarket.sol\":3773:3812  _userDeposite[id][msg.sender].startTime */\n      0x00\n      add\n      0x04\n        /* \"contracts/TimeMarket.sol\":3773:3831  _userDeposite[id][msg.sender].startTime=_tradeMes[id].time */\n      0x0100\n      exp\n      dup2\n      sload\n      dup2\n      0xffffffffffffff\n      mul\n      not\n      and\n      swap1\n      dup4\n      0xffffffffffffff\n      and\n      mul\n      or\n      swap1\n      sstore\n      pop\n        /* \"contracts/TimeMarket.sol\":3880:3881  0 */\n      0x00\n        /* \"contracts/TimeMarket.sol\":3842:3855  _userDeposite */\n      0x08\n        /* \"contracts/TimeMarket.sol\":3842:3859  _userDeposite[id] */\n      0x00\n        /* \"contracts/TimeMarket.sol\":3856:3858  id */\n      dup1\n      0x00\n      swap1\n      sload\n      swap1\n      0x0100\n      exp\n      swap1\n      div\n      0xffffffff\n      and\n        /* \"contracts/TimeMarket.sol\":3842:3859  _userDeposite[id] */\n      0xffffffff\n      and\n      0xffffffff\n      and\n      dup2\n      mstore\n      0x20\n      add\n      swap1\n      dup2\n      mstore\n      0x20\n      add\n      0x00\n      keccak256\n        /* \"contracts/TimeMarket.sol\":3842:3871  _userDeposite[id][msg.sender] */\n      0x00\n        /* \"contracts/TimeMarket.sol\":3860:3870  msg.sender */\n      caller\n        /* \"contracts/TimeMarket.sol\":3842:3871  _userDeposite[id][msg.sender] */\n      0xffffffffffffffffffffffffffffffffffffffff\n      and\n      0xffffffffffffffffffffffffffffffffffffffff\n      and\n      dup2\n      mstore\n      0x20\n      add\n      swap1\n      dup2\n      mstore\n      0x20\n      add\n      0x00\n      keccak256\n        /* \"contracts/TimeMarket.sol\":3842:3879  _userDeposite[id][msg.sender].endTime */\n      0x00\n      add\n      0x0b\n        /* \"contracts/TimeMarket.sol\":3842:3881  _userDeposite[id][msg.sender].endTime=0 */\n      0x0100\n      exp\n      dup2\n      sload\n      dup2\n      0xffffffffffffff\n      mul\n      not\n      and\n      swap1\n      dup4\n      0xffffffffffffff\n      and\n      mul\n      or\n      swap1\n      sstore\n      pop\n        /* \"contracts/TimeMarket.sol\":3937:3942  total */\n      dup4\n        /* \"contracts/TimeMarket.sol\":3892:3905  _userDeposite */\n      0x08\n        /* \"contracts/TimeMarket.sol\":3892:3909  _userDeposite[id] */\n      0x00\n        /* \"contracts/TimeMarket.sol\":3906:3908  id */\n      dup1\n      0x00\n      swap1\n      sload\n      swap1\n      0x0100\n      exp\n      swap1\n      div\n      0xffffffff\n      and\n        /* \"contracts/TimeMarket.sol\":3892:3909  _userDeposite[id] */\n      0xffffffff\n      and\n      0xffffffff\n      and\n      dup2\n      mstore\n      0x20\n      add\n      swap1\n      dup2\n      mstore\n      0x20\n      add\n      0x00\n      keccak256\n        /* \"contracts/TimeMarket.sol\":3892:3921  _userDeposite[id][msg.sender] */\n      0x00\n        /* \"contracts/TimeMarket.sol\":3910:3920  msg.sender */\n      caller\n        /* \"contracts/TimeMarket.sol\":3892:3921  _userDeposite[id][msg.sender] */\n      0xffffffffffffffffffffffffffffffffffffffff\n      and\n      0xffffffffffffffffffffffffffffffffffffffff\n      and\n      dup2\n      mstore\n      0x20\n      add\n      swap1\n      dup2\n      mstore\n      0x20\n      add\n      0x00\n      keccak256\n        /* \"contracts/TimeMarket.sol\":3892:3936  _userDeposite[id][msg.sender].depositeAmount */\n      0x01\n      add\n        /* \"contracts/TimeMarket.sol\":3892:3942  _userDeposite[id][msg.sender].depositeAmount=total */\n      dup2\n      swap1\n      sstore\n      pop\n        /* \"contracts/TimeMarket.sol\":3994:3995  0 */\n      0x00\n        /* \"contracts/TimeMarket.sol\":3953:3966  _userDeposite */\n      0x08\n        /* \"contracts/TimeMarket.sol\":3953:3970  _userDeposite[id] */\n      0x00\n        /* \"contracts/TimeMarket.sol\":3967:3969  id */\n      dup1\n      0x00\n      swap1\n      sload\n      swap1\n      0x0100\n      exp\n      swap1\n      div\n      0xffffffff\n      and\n        /* \"contracts/TimeMarket.sol\":3953:3970  _userDeposite[id] */\n      0xffffffff\n      and\n      0xffffffff\n      and\n      dup2\n      mstore\n      0x20\n      add\n      swap1\n      dup2\n      mstore\n      0x20\n      add\n      0x00\n      keccak256\n        /* \"contracts/TimeMarket.sol\":3953:3982  _userDeposite[id][msg.sender] */\n      0x00\n        /* \"contracts/TimeMarket.sol\":3971:3981  msg.sender */\n      caller\n        /* \"contracts/TimeMarket.sol\":3953:3982  _userDeposite[id][msg.sender] */\n      0xffffffffffffffffffffffffffffffffffffffff\n      and\n      0xffffffffffffffffffffffffffffffffffffffff\n      and\n      dup2\n      mstore\n      0x20\n      add\n      swap1\n      dup2\n      mstore\n      0x20\n      add\n      0x00\n      keccak256\n        /* \"contracts/TimeMarket.sol\":3953:3993  _userDeposite[id][msg.sender].earnAmount */\n      0x02\n      add\n        /* \"contracts/TimeMarket.sol\":3953:3995  _userDeposite[id][msg.sender].earnAmount=0 */\n      dup2\n      swap1\n      sstore\n      pop\n        /* \"contracts/TimeMarket.sol\":4041:4051  msg.sender */\n      caller\n        /* \"contracts/TimeMarket.sol\":4006:4019  _userDeposite */\n      0x08\n        /* \"contracts/TimeMarket.sol\":4006:4023  _userDeposite[id] */\n      0x00\n        /* \"contracts/TimeMarket.sol\":4020:4022  id */\n      dup1\n      0x00\n      swap1\n      sload\n      swap1\n      0x0100\n      exp\n      swap1\n      div\n      0xffffffff\n      and\n        /* \"contracts/TimeMarket.sol\":4006:4023  _userDeposite[id] */\n      0xffffffff\n      and\n      0xffffffff\n      and\n      dup2\n      mstore\n      0x20\n      add\n      swap1\n      dup2\n      mstore\n      0x20\n      add\n      0x00\n      keccak256\n        /* \"contracts/TimeMarket.sol\":4006:4035  _userDeposite[id][msg.sender] */\n      0x00\n        /* \"contracts/TimeMarket.sol\":4024:4034  msg.sender */\n      caller\n        /* \"contracts/TimeMarket.sol\":4006:4035  _userDeposite[id][msg.sender] */\n      0xffffffffffffffffffffffffffffffffffffffff\n      and\n      0xffffffffffffffffffffffffffffffffffffffff\n      and\n      dup2\n      mstore\n      0x20\n      add\n      swap1\n      dup2\n      mstore\n      0x20\n      add\n      0x00\n      keccak256\n        /* \"contracts/TimeMarket.sol\":4006:4040  _userDeposite[id][msg.sender].user */\n      0x03\n      add\n      0x00\n        /* \"contracts/TimeMarket.sol\":4006:4051  _userDeposite[id][msg.sender].user=msg.sender */\n      0x0100\n      exp\n      dup2\n      sload\n      dup2\n      0xffffffffffffffffffffffffffffffffffffffff\n      mul\n      not\n      and\n      swap1\n      dup4\n      0xffffffffffffffffffffffffffffffffffffffff\n      and\n      mul\n      or\n      swap1\n      sstore\n      pop\n        /* \"contracts/TimeMarket.sol\":4145:4150  total */\n      dup4\n        /* \"contracts/TimeMarket.sol\":4132:4143  totalStable */\n      0x01\n      0x00\n        /* \"contracts/TimeMarket.sol\":4132:4150  totalStable+=total */\n      dup3\n      dup3\n      sload\n      tag_98\n      swap2\n      swap1\n      tag_99\n      jump\t// in\n    tag_98:\n      swap3\n      pop\n      pop\n      dup2\n      swap1\n      sstore\n      pop\n        /* \"contracts/TimeMarket.sol\":4161:4163  id */\n      0x00\n      dup1\n        /* \"contracts/TimeMarket.sol\":4161:4165  id++ */\n      dup2\n      dup2\n      swap1\n      sload\n      swap1\n      0x0100\n      exp\n      swap1\n      div\n      0xffffffff\n      and\n      dup1\n      swap3\n      swap2\n      swap1\n      tag_100\n      swap1\n      tag_101\n      jump\t// in\n    tag_100:\n      swap2\n      swap1\n      0x0100\n      exp\n      dup2\n      sload\n      dup2\n      0xffffffff\n      mul\n      not\n      and\n      swap1\n      dup4\n      0xffffffff\n      and\n      mul\n      or\n      swap1\n      sstore\n      pop\n      pop\n        /* \"contracts/TimeMarket.sol\":2049:4173  {... */\n      pop\n      pop\n      pop\n      pop\n      pop\n      pop\n        /* \"contracts/TimeMarket.sol\":1954:4173  function putTrade(address _tokenAddress,uint32 _price,uint128 _amount,doState _doState)external{... */\n      pop\n      pop\n      pop\n      pop\n      jump\t// out\n        /* \"contracts/TimeMarket.sol\":4201:5932  function matchTrade(uint32 _id) external{... */\n    tag_33:\n        /* \"contracts/TimeMarket.sol\":4335:4341  1 days */\n      0x015180\n        /* \"contracts/TimeMarket.sol\":4322:4334  clearingTime */\n      0x00\n      0x04\n      swap1\n      sload\n      swap1\n      0x0100\n      exp\n      swap1\n      div\n      0xffffffffffffff\n      and\n        /* \"contracts/TimeMarket.sol\":4322:4341  clearingTime-1 days */\n      tag_103\n      swap2\n      swap1\n      tag_81\n      jump\t// in\n    tag_103:\n        /* \"contracts/TimeMarket.sol\":4306:4341  block.timestamp>clearingTime-1 days */\n      0xffffffffffffff\n      and\n        /* \"contracts/TimeMarket.sol\":4306:4321  block.timestamp */\n      timestamp\n        /* \"contracts/TimeMarket.sol\":4306:4341  block.timestamp>clearingTime-1 days */\n      gt\n        /* \"contracts/TimeMarket.sol\":4303:4362  if(block.timestamp>clearingTime-1 days){revert OverTime();} */\n      iszero\n      tag_104\n      jumpi\n        /* \"contracts/TimeMarket.sol\":4350:4360  OverTime() */\n      mload(0x40)\n      0xee1ea89500000000000000000000000000000000000000000000000000000000\n      dup2\n      mstore\n      0x04\n      add\n      mload(0x40)\n      dup1\n      swap2\n      sub\n      swap1\n      revert\n        /* \"contracts/TimeMarket.sol\":4303:4362  if(block.timestamp>clearingTime-1 days){revert OverTime();} */\n    tag_104:\n        /* \"contracts/TimeMarket.sol\":4372:4399  tradeMes memory maxTradeMes */\n      0x00\n        /* \"contracts/TimeMarket.sol\":4400:4409  _tradeMes */\n      0x07\n        /* \"contracts/TimeMarket.sol\":4400:4414  _tradeMes[_id] */\n      0x00\n        /* \"contracts/TimeMarket.sol\":4410:4413  _id */\n      dup4\n        /* \"contracts/TimeMarket.sol\":4400:4414  _tradeMes[_id] */\n      0xffffffff\n      and\n      0xffffffff\n      and\n      dup2\n      mstore\n      0x20\n      add\n      swap1\n      dup2\n      mstore\n      0x20\n      add\n      0x00\n      keccak256\n        /* \"contracts/TimeMarket.sol\":4372:4414  tradeMes memory maxTradeMes=_tradeMes[_id] */\n      mload(0x40)\n      dup1\n      0x0120\n      add\n      0x40\n      mstore\n      swap1\n      dup2\n      0x00\n      dup3\n      add\n      0x00\n      swap1\n      sload\n      swap1\n      0x0100\n      exp\n      swap1\n      div\n      0xffffffff\n      and\n      0xffffffff\n      and\n      0xffffffff\n      and\n      dup2\n      mstore\n      0x20\n      add\n      0x00\n      dup3\n      add\n      0x04\n      swap1\n      sload\n      swap1\n      0x0100\n      exp\n      swap1\n      div\n      0xffffffff\n      and\n      0xffffffff\n      and\n      0xffffffff\n      and\n      dup2\n      mstore\n      0x20\n      add\n      0x00\n      dup3\n      add\n      0x08\n      swap1\n      sload\n      swap1\n      0x0100\n      exp\n      swap1\n      div\n      0xffffffffffffff\n      and\n      0xffffffffffffff\n      and\n      0xffffffffffffff\n      and\n      dup2\n      mstore\n      0x20\n      add\n      0x00\n      dup3\n      add\n      0x0f\n      swap1\n      sload\n      swap1\n      0x0100\n      exp\n      swap1\n      div\n      0xffffffffffffffffffffffffffffffff\n      and\n      0xffffffffffffffffffffffffffffffff\n      and\n      0xffffffffffffffffffffffffffffffff\n      and\n      dup2\n      mstore\n      0x20\n      add\n      0x01\n      dup3\n      add\n      sload\n      dup2\n      mstore\n      0x20\n      add\n      0x02\n      dup3\n      add\n      0x00\n      swap1\n      sload\n      swap1\n      0x0100\n      exp\n      swap1\n      div\n      0xffffffffffffffffffffffffffffffffffffffff\n      and\n      0xffffffffffffffffffffffffffffffffffffffff\n      and\n      0xffffffffffffffffffffffffffffffffffffffff\n      and\n      dup2\n      mstore\n      0x20\n      add\n      0x03\n      dup3\n      add\n      0x00\n      swap1\n      sload\n      swap1\n      0x0100\n      exp\n      swap1\n      div\n      0xffffffffffffffffffffffffffffffffffffffff\n      and\n      0xffffffffffffffffffffffffffffffffffffffff\n      and\n      0xffffffffffffffffffffffffffffffffffffffff\n      and\n      dup2\n      mstore\n      0x20\n      add\n      0x04\n      dup3\n      add\n      0x00\n      swap1\n      sload\n      swap1\n      0x0100\n      exp\n      swap1\n      div\n      0xffffffffffffffffffffffffffffffffffffffff\n      and\n      0xffffffffffffffffffffffffffffffffffffffff\n      and\n      0xffffffffffffffffffffffffffffffffffffffff\n      and\n      dup2\n      mstore\n      0x20\n      add\n      0x04\n      dup3\n      add\n      0x14\n      swap1\n      sload\n      swap1\n      0x0100\n      exp\n      swap1\n      div\n      0xff\n      and\n      0x04\n      dup2\n      gt\n      iszero\n      tag_105\n      jumpi\n      tag_106\n      tag_69\n      jump\t// in\n    tag_106:\n    tag_105:\n      0x04\n      dup2\n      gt\n      iszero\n      tag_107\n      jumpi\n      tag_108\n      tag_69\n      jump\t// in\n    tag_108:\n    tag_107:\n      dup2\n      mstore\n      pop\n      pop\n      swap1\n      pop\n        /* \"contracts/TimeMarket.sol\":4425:4446  address _tokenAddress */\n      0x00\n        /* \"contracts/TimeMarket.sol\":4447:4458  maxTradeMes */\n      dup2\n        /* \"contracts/TimeMarket.sol\":4447:4471  maxTradeMes.tokenAddress */\n      0xa0\n      add\n      mload\n        /* \"contracts/TimeMarket.sol\":4425:4471  address _tokenAddress=maxTradeMes.tokenAddress */\n      swap1\n      pop\n        /* \"contracts/TimeMarket.sol\":4482:4505  uint256 _tokenOneAmount */\n      0x00\n        /* \"contracts/TimeMarket.sol\":4506:4517  maxTradeMes */\n      dup3\n        /* \"contracts/TimeMarket.sol\":4506:4532  maxTradeMes.tokenOneAmount */\n      0x80\n      add\n      mload\n        /* \"contracts/TimeMarket.sol\":4482:4532  uint256 _tokenOneAmount=maxTradeMes.tokenOneAmount */\n      swap1\n      pop\n        /* \"contracts/TimeMarket.sol\":4543:4556  uint256 total */\n      0x00\n        /* \"contracts/TimeMarket.sol\":4557:4637  TimeLibrary.getTotalStable(maxTradeMes.price,maxTradeMes.amount,_tokenOneAmount) */\n      tag_109\n        /* \"contracts/TimeMarket.sol\":4584:4595  maxTradeMes */\n      dup5\n        /* \"contracts/TimeMarket.sol\":4584:4601  maxTradeMes.price */\n      0x20\n      add\n      mload\n        /* \"contracts/TimeMarket.sol\":4602:4613  maxTradeMes */\n      dup6\n        /* \"contracts/TimeMarket.sol\":4602:4620  maxTradeMes.amount */\n      0x60\n      add\n      mload\n        /* \"contracts/TimeMarket.sol\":4621:4636  _tokenOneAmount */\n      dup5\n        /* \"contracts/TimeMarket.sol\":4557:4583  TimeLibrary.getTotalStable */\n      tag_63\n        /* \"contracts/TimeMarket.sol\":4557:4637  TimeLibrary.getTotalStable(maxTradeMes.price,maxTradeMes.amount,_tokenOneAmount) */\n      jump\t// in\n    tag_109:\n        /* \"contracts/TimeMarket.sol\":4543:4637  uint256 total=TimeLibrary.getTotalStable(maxTradeMes.price,maxTradeMes.amount,_tokenOneAmount) */\n      swap1\n      pop\n        /* \"contracts/TimeMarket.sol\":4675:4797  IERC20(_tokenAddress).safeTransferFrom(... */\n      tag_110\n        /* \"contracts/TimeMarket.sol\":4728:4738  msg.sender */\n      caller\n        /* \"contracts/TimeMarket.sol\":4761:4765  this */\n      address\n        /* \"contracts/TimeMarket.sol\":4781:4786  total */\n      dup4\n        /* \"contracts/TimeMarket.sol\":4682:4695  _tokenAddress */\n      dup7\n        /* \"contracts/TimeMarket.sol\":4675:4713  IERC20(_tokenAddress).safeTransferFrom */\n      0xffffffffffffffffffffffffffffffffffffffff\n      and\n      tag_84\n      swap1\n        /* \"contracts/TimeMarket.sol\":4675:4797  IERC20(_tokenAddress).safeTransferFrom(... */\n      swap4\n      swap3\n      swap2\n      swap1\n      0xffffffff\n      and\n      jump\t// in\n    tag_110:\n        /* \"contracts/TimeMarket.sol\":4852:4865  _tokenAddress */\n      dup3\n        /* \"contracts/TimeMarket.sol\":4845:4874  IERC20(_tokenAddress).approve */\n      0xffffffffffffffffffffffffffffffffffffffff\n      and\n      0x095ea7b3\n        /* \"contracts/TimeMarket.sol\":4883:4893  AaveV3Pool */\n      0x06\n      0x00\n      swap1\n      sload\n      swap1\n      0x0100\n      exp\n      swap1\n      div\n      0xffffffffffffffffffffffffffffffffffffffff\n      and\n        /* \"contracts/TimeMarket.sol\":4895:4900  total */\n      dup4\n        /* \"contracts/TimeMarket.sol\":4845:4901  IERC20(_tokenAddress).approve(address(AaveV3Pool),total) */\n      mload(0x40)\n      dup4\n      0xffffffff\n      and\n      0xe0\n      shl\n      dup2\n      mstore\n      0x04\n      add\n      tag_111\n      swap3\n      swap2\n      swap1\n      tag_86\n      jump\t// in\n    tag_111:\n      0x20\n      mload(0x40)\n      dup1\n      dup4\n      sub\n      dup2\n      0x00\n      dup8\n      gas\n      call\n      iszero\n      dup1\n      iszero\n      tag_113\n      jumpi\n      returndatasize\n      0x00\n      dup1\n      returndatacopy\n      revert(0x00, returndatasize)\n    tag_113:\n      pop\n      pop\n      pop\n      pop\n      mload(0x40)\n      returndatasize\n      not(0x1f)\n      0x1f\n      dup3\n      add\n      and\n      dup3\n      add\n      dup1\n      0x40\n      mstore\n      pop\n      dup2\n      add\n      swap1\n      tag_114\n      swap2\n      swap1\n      tag_90\n      jump\t// in\n    tag_114:\n      pop\n        /* \"contracts/TimeMarket.sol\":4940:4950  AaveV3Pool */\n      0x06\n      0x00\n      swap1\n      sload\n      swap1\n      0x0100\n      exp\n      swap1\n      div\n      0xffffffffffffffffffffffffffffffffffffffff\n      and\n        /* \"contracts/TimeMarket.sol\":4940:4957  AaveV3Pool.supply */\n      0xffffffffffffffffffffffffffffffffffffffff\n      and\n      0x617ba037\n        /* \"contracts/TimeMarket.sol\":4972:4985  _tokenAddress */\n      dup5\n        /* \"contracts/TimeMarket.sol\":5029:5034  total */\n      dup4\n        /* \"contracts/TimeMarket.sol\":5086:5090  this */\n      address\n        /* \"contracts/TimeMarket.sol\":5134:5135  0 */\n      0x00\n        /* \"contracts/TimeMarket.sol\":4940:5188  AaveV3Pool.supply(... */\n      mload(0x40)\n      dup6\n      0xffffffff\n      and\n      0xe0\n      shl\n      dup2\n      mstore\n      0x04\n      add\n      tag_115\n      swap5\n      swap4\n      swap3\n      swap2\n      swap1\n      tag_92\n      jump\t// in\n    tag_115:\n      0x00\n      mload(0x40)\n      dup1\n      dup4\n      sub\n      dup2\n      0x00\n      dup8\n      dup1\n      extcodesize\n      iszero\n      dup1\n      iszero\n      tag_116\n      jumpi\n      0x00\n      dup1\n      revert\n    tag_116:\n      pop\n      gas\n      call\n      iszero\n      dup1\n      iszero\n      tag_118\n      jumpi\n      returndatasize\n      0x00\n      dup1\n      returndatacopy\n      revert(0x00, returndatasize)\n    tag_118:\n      pop\n      pop\n      pop\n      pop\n        /* \"contracts/TimeMarket.sol\":5227:5244  tradeState.buying */\n      0x00\n        /* \"contracts/TimeMarket.sol\":5202:5244  maxTradeMes._tradeState==tradeState.buying */\n      0x04\n      dup2\n      gt\n      iszero\n      tag_119\n      jumpi\n      tag_120\n      tag_69\n      jump\t// in\n    tag_120:\n    tag_119:\n        /* \"contracts/TimeMarket.sol\":5202:5213  maxTradeMes */\n      dup5\n        /* \"contracts/TimeMarket.sol\":5202:5225  maxTradeMes._tradeState */\n      0x0100\n      add\n      mload\n        /* \"contracts/TimeMarket.sol\":5202:5244  maxTradeMes._tradeState==tradeState.buying */\n      0x04\n      dup2\n      gt\n      iszero\n      tag_121\n      jumpi\n      tag_122\n      tag_69\n      jump\t// in\n    tag_122:\n    tag_121:\n      sub\n        /* \"contracts/TimeMarket.sol\":5199:5480  if(maxTradeMes._tradeState==tradeState.buying){... */\n      tag_123\n      jumpi\n        /* \"contracts/TimeMarket.sol\":5289:5299  msg.sender */\n      caller\n        /* \"contracts/TimeMarket.sol\":5260:5269  _tradeMes */\n      0x07\n        /* \"contracts/TimeMarket.sol\":5260:5274  _tradeMes[_id] */\n      0x00\n        /* \"contracts/TimeMarket.sol\":5270:5273  _id */\n      dup8\n        /* \"contracts/TimeMarket.sol\":5260:5274  _tradeMes[_id] */\n      0xffffffff\n      and\n      0xffffffff\n      and\n      dup2\n      mstore\n      0x20\n      add\n      swap1\n      dup2\n      mstore\n      0x20\n      add\n      0x00\n      keccak256\n        /* \"contracts/TimeMarket.sol\":5260:5288  _tradeMes[_id].solderAddress */\n      0x04\n      add\n      0x00\n        /* \"contracts/TimeMarket.sol\":5260:5299  _tradeMes[_id].solderAddress=msg.sender */\n      0x0100\n      exp\n      dup2\n      sload\n      dup2\n      0xffffffffffffffffffffffffffffffffffffffff\n      mul\n      not\n      and\n      swap1\n      dup4\n      0xffffffffffffffffffffffffffffffffffffffff\n      and\n      mul\n      or\n      swap1\n      sstore\n      pop\n        /* \"contracts/TimeMarket.sol\":5199:5480  if(maxTradeMes._tradeState==tradeState.buying){... */\n      jump(tag_124)\n    tag_123:\n        /* \"contracts/TimeMarket.sol\":5344:5362  tradeState.selling */\n      0x01\n        /* \"contracts/TimeMarket.sol\":5319:5362  maxTradeMes._tradeState==tradeState.selling */\n      0x04\n      dup2\n      gt\n      iszero\n      tag_125\n      jumpi\n      tag_126\n      tag_69\n      jump\t// in\n    tag_126:\n    tag_125:\n        /* \"contracts/TimeMarket.sol\":5319:5330  maxTradeMes */\n      dup5\n        /* \"contracts/TimeMarket.sol\":5319:5342  maxTradeMes._tradeState */\n      0x0100\n      add\n      mload\n        /* \"contracts/TimeMarket.sol\":5319:5362  maxTradeMes._tradeState==tradeState.selling */\n      0x04\n      dup2\n      gt\n      iszero\n      tag_127\n      jumpi\n      tag_128\n      tag_69\n      jump\t// in\n    tag_128:\n    tag_127:\n      sub\n        /* \"contracts/TimeMarket.sol\":5316:5480  if(maxTradeMes._tradeState==tradeState.selling){... */\n      tag_129\n      jumpi\n        /* \"contracts/TimeMarket.sol\":5406:5416  msg.sender */\n      caller\n        /* \"contracts/TimeMarket.sol\":5378:5387  _tradeMes */\n      0x07\n        /* \"contracts/TimeMarket.sol\":5378:5392  _tradeMes[_id] */\n      0x00\n        /* \"contracts/TimeMarket.sol\":5388:5391  _id */\n      dup8\n        /* \"contracts/TimeMarket.sol\":5378:5392  _tradeMes[_id] */\n      0xffffffff\n      and\n      0xffffffff\n      and\n      dup2\n      mstore\n      0x20\n      add\n      swap1\n      dup2\n      mstore\n      0x20\n      add\n      0x00\n      keccak256\n        /* \"contracts/TimeMarket.sol\":5378:5405  _tradeMes[_id].buyerAddress */\n      0x03\n      add\n      0x00\n        /* \"contracts/TimeMarket.sol\":5378:5416  _tradeMes[_id].buyerAddress=msg.sender */\n      0x0100\n      exp\n      dup2\n      sload\n      dup2\n      0xffffffffffffffffffffffffffffffffffffffff\n      mul\n      not\n      and\n      swap1\n      dup4\n      0xffffffffffffffffffffffffffffffffffffffff\n      and\n      mul\n      or\n      swap1\n      sstore\n      pop\n        /* \"contracts/TimeMarket.sol\":5316:5480  if(maxTradeMes._tradeState==tradeState.selling){... */\n      jump(tag_130)\n    tag_129:\n        /* \"contracts/TimeMarket.sol\":5447:5468  revert(\"Trade error\") */\n      mload(0x40)\n      0x08c379a000000000000000000000000000000000000000000000000000000000\n      dup2\n      mstore\n      0x04\n      add\n      tag_131\n      swap1\n      tag_132\n      jump\t// in\n    tag_131:\n      mload(0x40)\n      dup1\n      swap2\n      sub\n      swap1\n      revert\n        /* \"contracts/TimeMarket.sol\":5316:5480  if(maxTradeMes._tradeState==tradeState.selling){... */\n    tag_130:\n        /* \"contracts/TimeMarket.sol\":5199:5480  if(maxTradeMes._tradeState==tradeState.buying){... */\n    tag_124:\n        /* \"contracts/TimeMarket.sol\":5527:5543  tradeState.found */\n      0x02\n        /* \"contracts/TimeMarket.sol\":5500:5509  _tradeMes */\n      0x07\n        /* \"contracts/TimeMarket.sol\":5500:5514  _tradeMes[_id] */\n      0x00\n        /* \"contracts/TimeMarket.sol\":5510:5513  _id */\n      dup8\n        /* \"contracts/TimeMarket.sol\":5500:5514  _tradeMes[_id] */\n      0xffffffff\n      and\n      0xffffffff\n      and\n      dup2\n      mstore\n      0x20\n      add\n      swap1\n      dup2\n      mstore\n      0x20\n      add\n      0x00\n      keccak256\n        /* \"contracts/TimeMarket.sol\":5500:5526  _tradeMes[_id]._tradeState */\n      0x04\n      add\n      0x14\n        /* \"contracts/TimeMarket.sol\":5500:5543  _tradeMes[_id]._tradeState=tradeState.found */\n      0x0100\n      exp\n      dup2\n      sload\n      dup2\n      0xff\n      mul\n      not\n      and\n      swap1\n      dup4\n      0x04\n      dup2\n      gt\n      iszero\n      tag_133\n      jumpi\n      tag_134\n      tag_69\n      jump\t// in\n    tag_134:\n    tag_133:\n      mul\n      or\n      swap1\n      sstore\n      pop\n        /* \"contracts/TimeMarket.sol\":5593:5596  _id */\n      dup5\n        /* \"contracts/TimeMarket.sol\":5554:5567  _userDeposite */\n      0x08\n        /* \"contracts/TimeMarket.sol\":5554:5572  _userDeposite[_id] */\n      0x00\n        /* \"contracts/TimeMarket.sol\":5568:5571  _id */\n      dup8\n        /* \"contracts/TimeMarket.sol\":5554:5572  _userDeposite[_id] */\n      0xffffffff\n      and\n      0xffffffff\n      and\n      dup2\n      mstore\n      0x20\n      add\n      swap1\n      dup2\n      mstore\n      0x20\n      add\n      0x00\n      keccak256\n        /* \"contracts/TimeMarket.sol\":5554:5584  _userDeposite[_id][msg.sender] */\n      0x00\n        /* \"contracts/TimeMarket.sol\":5573:5583  msg.sender */\n      caller\n        /* \"contracts/TimeMarket.sol\":5554:5584  _userDeposite[_id][msg.sender] */\n      0xffffffffffffffffffffffffffffffffffffffff\n      and\n      0xffffffffffffffffffffffffffffffffffffffff\n      and\n      dup2\n      mstore\n      0x20\n      add\n      swap1\n      dup2\n      mstore\n      0x20\n      add\n      0x00\n      keccak256\n        /* \"contracts/TimeMarket.sol\":5554:5592  _userDeposite[_id][msg.sender].tradeId */\n      0x00\n      add\n      0x00\n        /* \"contracts/TimeMarket.sol\":5554:5596  _userDeposite[_id][msg.sender].tradeId=_id */\n      0x0100\n      exp\n      dup2\n      sload\n      dup2\n      0xffffffff\n      mul\n      not\n      and\n      swap1\n      dup4\n      0xffffffff\n      and\n      mul\n      or\n      swap1\n      sstore\n      pop\n        /* \"contracts/TimeMarket.sol\":5655:5670  block.timestamp */\n      timestamp\n        /* \"contracts/TimeMarket.sol\":5607:5620  _userDeposite */\n      0x08\n        /* \"contracts/TimeMarket.sol\":5607:5625  _userDeposite[_id] */\n      0x00\n        /* \"contracts/TimeMarket.sol\":5621:5624  _id */\n      dup8\n        /* \"contracts/TimeMarket.sol\":5607:5625  _userDeposite[_id] */\n      0xffffffff\n      and\n      0xffffffff\n      and\n      dup2\n      mstore\n      0x20\n      add\n      swap1\n      dup2\n      mstore\n      0x20\n      add\n      0x00\n      keccak256\n        /* \"contracts/TimeMarket.sol\":5607:5637  _userDeposite[_id][msg.sender] */\n      0x00\n        /* \"contracts/TimeMarket.sol\":5626:5636  msg.sender */\n      caller\n        /* \"contracts/TimeMarket.sol\":5607:5637  _userDeposite[_id][msg.sender] */\n      0xffffffffffffffffffffffffffffffffffffffff\n      and\n      0xffffffffffffffffffffffffffffffffffffffff\n      and\n      dup2\n      mstore\n      0x20\n      add\n      swap1\n      dup2\n      mstore\n      0x20\n      add\n      0x00\n      keccak256\n        /* \"contracts/TimeMarket.sol\":5607:5647  _userDeposite[_id][msg.sender].startTime */\n      0x00\n      add\n      0x04\n        /* \"contracts/TimeMarket.sol\":5607:5671  _userDeposite[_id][msg.sender].startTime=uint56(block.timestamp) */\n      0x0100\n      exp\n      dup2\n      sload\n      dup2\n      0xffffffffffffff\n      mul\n      not\n      and\n      swap1\n      dup4\n      0xffffffffffffff\n      and\n      mul\n      or\n      swap1\n      sstore\n      pop\n        /* \"contracts/TimeMarket.sol\":5721:5722  0 */\n      0x00\n        /* \"contracts/TimeMarket.sol\":5682:5695  _userDeposite */\n      0x08\n        /* \"contracts/TimeMarket.sol\":5682:5700  _userDeposite[_id] */\n      0x00\n        /* \"contracts/TimeMarket.sol\":5696:5699  _id */\n      dup8\n        /* \"contracts/TimeMarket.sol\":5682:5700  _userDeposite[_id] */\n      0xffffffff\n      and\n      0xffffffff\n      and\n      dup2\n      mstore\n      0x20\n      add\n      swap1\n      dup2\n      mstore\n      0x20\n      add\n      0x00\n      keccak256\n        /* \"contracts/TimeMarket.sol\":5682:5712  _userDeposite[_id][msg.sender] */\n      0x00\n        /* \"contracts/TimeMarket.sol\":5701:5711  msg.sender */\n      caller\n        /* \"contracts/TimeMarket.sol\":5682:5712  _userDeposite[_id][msg.sender] */\n      0xffffffffffffffffffffffffffffffffffffffff\n      and\n      0xffffffffffffffffffffffffffffffffffffffff\n      and\n      dup2\n      mstore\n      0x20\n      add\n      swap1\n      dup2\n      mstore\n      0x20\n      add\n      0x00\n      keccak256\n        /* \"contracts/TimeMarket.sol\":5682:5720  _userDeposite[_id][msg.sender].endTime */\n      0x00\n      add\n      0x0b\n        /* \"contracts/TimeMarket.sol\":5682:5722  _userDeposite[_id][msg.sender].endTime=0 */\n      0x0100\n      exp\n      dup2\n      sload\n      dup2\n      0xffffffffffffff\n      mul\n      not\n      and\n      swap1\n      dup4\n      0xffffffffffffff\n      and\n      mul\n      or\n      swap1\n      sstore\n      pop\n        /* \"contracts/TimeMarket.sol\":5779:5784  total */\n      dup1\n        /* \"contracts/TimeMarket.sol\":5733:5746  _userDeposite */\n      0x08\n        /* \"contracts/TimeMarket.sol\":5733:5751  _userDeposite[_id] */\n      0x00\n        /* \"contracts/TimeMarket.sol\":5747:5750  _id */\n      dup8\n        /* \"contracts/TimeMarket.sol\":5733:5751  _userDeposite[_id] */\n      0xffffffff\n      and\n      0xffffffff\n      and\n      dup2\n      mstore\n      0x20\n      add\n      swap1\n      dup2\n      mstore\n      0x20\n      add\n      0x00\n      keccak256\n        /* \"contracts/TimeMarket.sol\":5733:5763  _userDeposite[_id][msg.sender] */\n      0x00\n        /* \"contracts/TimeMarket.sol\":5752:5762  msg.sender */\n      caller\n        /* \"contracts/TimeMarket.sol\":5733:5763  _userDeposite[_id][msg.sender] */\n      0xffffffffffffffffffffffffffffffffffffffff\n      and\n      0xffffffffffffffffffffffffffffffffffffffff\n      and\n      dup2\n      mstore\n      0x20\n      add\n      swap1\n      dup2\n      mstore\n      0x20\n      add\n      0x00\n      keccak256\n        /* \"contracts/TimeMarket.sol\":5733:5778  _userDeposite[_id][msg.sender].depositeAmount */\n      0x01\n      add\n        /* \"contracts/TimeMarket.sol\":5733:5784  _userDeposite[_id][msg.sender].depositeAmount=total */\n      dup2\n      swap1\n      sstore\n      pop\n        /* \"contracts/TimeMarket.sol\":5837:5838  0 */\n      0x00\n        /* \"contracts/TimeMarket.sol\":5795:5808  _userDeposite */\n      0x08\n        /* \"contracts/TimeMarket.sol\":5795:5813  _userDeposite[_id] */\n      0x00\n        /* \"contracts/TimeMarket.sol\":5809:5812  _id */\n      dup8\n        /* \"contracts/TimeMarket.sol\":5795:5813  _userDeposite[_id] */\n      0xffffffff\n      and\n      0xffffffff\n      and\n      dup2\n      mstore\n      0x20\n      add\n      swap1\n      dup2\n      mstore\n      0x20\n      add\n      0x00\n      keccak256\n        /* \"contracts/TimeMarket.sol\":5795:5825  _userDeposite[_id][msg.sender] */\n      0x00\n        /* \"contracts/TimeMarket.sol\":5814:5824  msg.sender */\n      caller\n        /* \"contracts/TimeMarket.sol\":5795:5825  _userDeposite[_id][msg.sender] */\n      0xffffffffffffffffffffffffffffffffffffffff\n      and\n      0xffffffffffffffffffffffffffffffffffffffff\n      and\n      dup2\n      mstore\n      0x20\n      add\n      swap1\n      dup2\n      mstore\n      0x20\n      add\n      0x00\n      keccak256\n        /* \"contracts/TimeMarket.sol\":5795:5836  _userDeposite[_id][msg.sender].earnAmount */\n      0x02\n      add\n        /* \"contracts/TimeMarket.sol\":5795:5838  _userDeposite[_id][msg.sender].earnAmount=0 */\n      dup2\n      swap1\n      sstore\n      pop\n        /* \"contracts/TimeMarket.sol\":5885:5895  msg.sender */\n      caller\n        /* \"contracts/TimeMarket.sol\":5849:5862  _userDeposite */\n      0x08\n        /* \"contracts/TimeMarket.sol\":5849:5867  _userDeposite[_id] */\n      0x00\n        /* \"contracts/TimeMarket.sol\":5863:5866  _id */\n      dup8\n        /* \"contracts/TimeMarket.sol\":5849:5867  _userDeposite[_id] */\n      0xffffffff\n      and\n      0xffffffff\n      and\n      dup2\n      mstore\n      0x20\n      add\n      swap1\n      dup2\n      mstore\n      0x20\n      add\n      0x00\n      keccak256\n        /* \"contracts/TimeMarket.sol\":5849:5879  _userDeposite[_id][msg.sender] */\n      0x00\n        /* \"contracts/TimeMarket.sol\":5868:5878  msg.sender */\n      caller\n        /* \"contracts/TimeMarket.sol\":5849:5879  _userDeposite[_id][msg.sender] */\n      0xffffffffffffffffffffffffffffffffffffffff\n      and\n      0xffffffffffffffffffffffffffffffffffffffff\n      and\n      dup2\n      mstore\n      0x20\n      add\n      swap1\n      dup2\n      mstore\n      0x20\n      add\n      0x00\n      keccak256\n        /* \"contracts/TimeMarket.sol\":5849:5884  _userDeposite[_id][msg.sender].user */\n      0x03\n      add\n      0x00\n        /* \"contracts/TimeMarket.sol\":5849:5895  _userDeposite[_id][msg.sender].user=msg.sender */\n      0x0100\n      exp\n      dup2\n      sload\n      dup2\n      0xffffffffffffffffffffffffffffffffffffffff\n      mul\n      not\n      and\n      swap1\n      dup4\n      0xffffffffffffffffffffffffffffffffffffffff\n      and\n      mul\n      or\n      swap1\n      sstore\n      pop\n        /* \"contracts/TimeMarket.sol\":5919:5924  total */\n      dup1\n        /* \"contracts/TimeMarket.sol\":5906:5917  totalStable */\n      0x01\n      0x00\n        /* \"contracts/TimeMarket.sol\":5906:5924  totalStable+=total */\n      dup3\n      dup3\n      sload\n      tag_135\n      swap2\n      swap1\n      tag_99\n      jump\t// in\n    tag_135:\n      swap3\n      pop\n      pop\n      dup2\n      swap1\n      sstore\n      pop\n        /* \"contracts/TimeMarket.sol\":4241:5932  {... */\n      pop\n      pop\n      pop\n      pop\n        /* \"contracts/TimeMarket.sol\":4201:5932  function matchTrade(uint32 _id) external{... */\n      pop\n      jump\t// out\n        /* \"contracts/TimeMarket.sol\":6493:6603  function getTradeMes(uint32 _id)external view returns(tradeMes memory){... */\n    tag_36:\n        /* \"contracts/TimeMarket.sol\":6547:6562  tradeMes memory */\n      tag_136\n      tag_137\n      jump\t// in\n    tag_136:\n        /* \"contracts/TimeMarket.sol\":6581:6590  _tradeMes */\n      0x07\n        /* \"contracts/TimeMarket.sol\":6581:6595  _tradeMes[_id] */\n      0x00\n        /* \"contracts/TimeMarket.sol\":6591:6594  _id */\n      dup4\n        /* \"contracts/TimeMarket.sol\":6581:6595  _tradeMes[_id] */\n      0xffffffff\n      and\n      0xffffffff\n      and\n      dup2\n      mstore\n      0x20\n      add\n      swap1\n      dup2\n      mstore\n      0x20\n      add\n      0x00\n      keccak256\n        /* \"contracts/TimeMarket.sol\":6574:6595  return _tradeMes[_id] */\n      mload(0x40)\n      dup1\n      0x0120\n      add\n      0x40\n      mstore\n      swap1\n      dup2\n      0x00\n      dup3\n      add\n      0x00\n      swap1\n      sload\n      swap1\n      0x0100\n      exp\n      swap1\n      div\n      0xffffffff\n      and\n      0xffffffff\n      and\n      0xffffffff\n      and\n      dup2\n      mstore\n      0x20\n      add\n      0x00\n      dup3\n      add\n      0x04\n      swap1\n      sload\n      swap1\n      0x0100\n      exp\n      swap1\n      div\n      0xffffffff\n      and\n      0xffffffff\n      and\n      0xffffffff\n      and\n      dup2\n      mstore\n      0x20\n      add\n      0x00\n      dup3\n      add\n      0x08\n      swap1\n      sload\n      swap1\n      0x0100\n      exp\n      swap1\n      div\n      0xffffffffffffff\n      and\n      0xffffffffffffff\n      and\n      0xffffffffffffff\n      and\n      dup2\n      mstore\n      0x20\n      add\n      0x00\n      dup3\n      add\n      0x0f\n      swap1\n      sload\n      swap1\n      0x0100\n      exp\n      swap1\n      div\n      0xffffffffffffffffffffffffffffffff\n      and\n      0xffffffffffffffffffffffffffffffff\n      and\n      0xffffffffffffffffffffffffffffffff\n      and\n      dup2\n      mstore\n      0x20\n      add\n      0x01\n      dup3\n      add\n      sload\n      dup2\n      mstore\n      0x20\n      add\n      0x02\n      dup3\n      add\n      0x00\n      swap1\n      sload\n      swap1\n      0x0100\n      exp\n      swap1\n      div\n      0xffffffffffffffffffffffffffffffffffffffff\n      and\n      0xffffffffffffffffffffffffffffffffffffffff\n      and\n      0xffffffffffffffffffffffffffffffffffffffff\n      and\n      dup2\n      mstore\n      0x20\n      add\n      0x03\n      dup3\n      add\n      0x00\n      swap1\n      sload\n      swap1\n      0x0100\n      exp\n      swap1\n      div\n      0xffffffffffffffffffffffffffffffffffffffff\n      and\n      0xffffffffffffffffffffffffffffffffffffffff\n      and\n      0xffffffffffffffffffffffffffffffffffffffff\n      and\n      dup2\n      mstore\n      0x20\n      add\n      0x04\n      dup3\n      add\n      0x00\n      swap1\n      sload\n      swap1\n      0x0100\n      exp\n      swap1\n      div\n      0xffffffffffffffffffffffffffffffffffffffff\n      and\n      0xffffffffffffffffffffffffffffffffffffffff\n      and\n      0xffffffffffffffffffffffffffffffffffffffff\n      and\n      dup2\n      mstore\n      0x20\n      add\n      0x04\n      dup3\n      add\n      0x14\n      swap1\n      sload\n      swap1\n      0x0100\n      exp\n      swap1\n      div\n      0xff\n      and\n      0x04\n      dup2\n      gt\n      iszero\n      tag_139\n      jumpi\n      tag_140\n      tag_69\n      jump\t// in\n    tag_140:\n    tag_139:\n      0x04\n      dup2\n      gt\n      iszero\n      tag_141\n      jumpi\n      tag_142\n      tag_69\n      jump\t// in\n    tag_142:\n    tag_141:\n      dup2\n      mstore\n      pop\n      pop\n      swap1\n      pop\n        /* \"contracts/TimeMarket.sol\":6493:6603  function getTradeMes(uint32 _id)external view returns(tradeMes memory){... */\n      swap2\n      swap1\n      pop\n      jump\t// out\n        /* \"contracts/TimeMarket.sol\":6777:6867  function getClearTime()external view returns(uint56){... */\n    tag_40:\n        /* \"contracts/TimeMarket.sol\":6822:6828  uint56 */\n      0x00\n        /* \"contracts/TimeMarket.sol\":6847:6859  clearingTime */\n      dup1\n      0x04\n      swap1\n      sload\n      swap1\n      0x0100\n      exp\n      swap1\n      div\n      0xffffffffffffff\n      and\n        /* \"contracts/TimeMarket.sol\":6840:6859  return clearingTime */\n      swap1\n      pop\n        /* \"contracts/TimeMarket.sol\":6777:6867  function getClearTime()external view returns(uint56){... */\n      swap1\n      jump\t// out\n        /* \"libraries/TimeLibrary.sol\":1521:1707  function getTotalStable(uint32 _soldPrice, uint128 _soldAmount,uint256 _tokenOneAmount)internal pure returns(uint256){... */\n    tag_63:\n        /* \"libraries/TimeLibrary.sol\":1630:1637  uint256 */\n      0x00\n        /* \"libraries/TimeLibrary.sol\":1684:1699  _tokenOneAmount */\n      dup2\n        /* \"libraries/TimeLibrary.sol\":1679:1683  1000 */\n      0x03e8\n        /* \"libraries/TimeLibrary.sol\":1668:1678  _soldPrice */\n      dup6\n        /* \"libraries/TimeLibrary.sol\":1656:1678  _soldAmount*_soldPrice */\n      0xffffffff\n      and\n        /* \"libraries/TimeLibrary.sol\":1656:1667  _soldAmount */\n      dup6\n        /* \"libraries/TimeLibrary.sol\":1656:1678  _soldAmount*_soldPrice */\n      tag_145\n      swap2\n      swap1\n      tag_146\n      jump\t// in\n    tag_145:\n        /* \"libraries/TimeLibrary.sol\":1656:1683  _soldAmount*_soldPrice/1000 */\n      tag_147\n      swap2\n      swap1\n      tag_148\n      jump\t// in\n    tag_147:\n        /* \"libraries/TimeLibrary.sol\":1656:1699  _soldAmount*_soldPrice/1000*_tokenOneAmount */\n      0xffffffffffffffffffffffffffffffff\n      and\n      tag_149\n      swap2\n      swap1\n      tag_65\n      jump\t// in\n    tag_149:\n        /* \"libraries/TimeLibrary.sol\":1649:1699  return _soldAmount*_soldPrice/1000*_tokenOneAmount */\n      swap1\n      pop\n        /* \"libraries/TimeLibrary.sol\":1521:1707  function getTotalStable(uint32 _soldPrice, uint128 _soldAmount,uint256 _tokenOneAmount)internal pure returns(uint256){... */\n      swap4\n      swap3\n      pop\n      pop\n      pop\n      jump\t// out\n        /* \"libraries/SafeERC20.sol\":1447:1652  function safeTransferFrom(IERC20 token, address from, address to, uint256 value) internal {... */\n    tag_84:\n        /* \"libraries/SafeERC20.sol\":1548:1644  _callOptionalReturn(token, abi.encodeWithSelector(token.transferFrom.selector, from, to, value)) */\n      tag_151\n        /* \"libraries/SafeERC20.sol\":1568:1573  token */\n      dup5\n        /* \"libraries/SafeERC20.sol\":1598:1625  token.transferFrom.selector */\n      shl(0xe0, 0x23b872dd)\n        /* \"libraries/SafeERC20.sol\":1627:1631  from */\n      dup6\n        /* \"libraries/SafeERC20.sol\":1633:1635  to */\n      dup6\n        /* \"libraries/SafeERC20.sol\":1637:1642  value */\n      dup6\n        /* \"libraries/SafeERC20.sol\":1575:1643  abi.encodeWithSelector(token.transferFrom.selector, from, to, value) */\n      add(0x24, mload(0x40))\n      tag_152\n      swap4\n      swap3\n      swap2\n      swap1\n      tag_153\n      jump\t// in\n    tag_152:\n      mload(0x40)\n      0x20\n      dup2\n      dup4\n      sub\n      sub\n      dup2\n      mstore\n      swap1\n      0x40\n      mstore\n      swap1\n      not(0xffffffffffffffffffffffffffffffffffffffffffffffffffffffff)\n      and\n      0x20\n      dup3\n      add\n      dup1\n      mload\n      0xffffffffffffffffffffffffffffffffffffffffffffffffffffffff\n      dup4\n      dup2\n      dup4\n      and\n      or\n      dup4\n      mstore\n      pop\n      pop\n      pop\n      pop\n        /* \"libraries/SafeERC20.sol\":1548:1567  _callOptionalReturn */\n      tag_154\n        /* \"libraries/SafeERC20.sol\":1548:1644  _callOptionalReturn(token, abi.encodeWithSelector(token.transferFrom.selector, from, to, value)) */\n      jump\t// in\n    tag_151:\n        /* \"libraries/SafeERC20.sol\":1447:1652  function safeTransferFrom(IERC20 token, address from, address to, uint256 value) internal {... */\n      pop\n      pop\n      pop\n      pop\n      jump\t// out\n        /* \"libraries/SafeERC20.sol\":5371:6020  function _callOptionalReturn(IERC20 token, bytes memory data) private {... */\n    tag_154:\n        /* \"libraries/SafeERC20.sol\":5795:5818  bytes memory returndata */\n      0x00\n        /* \"libraries/SafeERC20.sol\":5821:5890  address(token).functionCall(data, \"SafeERC20: low-level call failed\") */\n      tag_156\n        /* \"libraries/SafeERC20.sol\":5849:5853  data */\n      dup3\n        /* \"libraries/SafeERC20.sol\":5821:5890  address(token).functionCall(data, \"SafeERC20: low-level call failed\") */\n      mload(0x40)\n      dup1\n      0x40\n      add\n      0x40\n      mstore\n      dup1\n      0x20\n      dup2\n      mstore\n      0x20\n      add\n      0x5361666545524332303a206c6f772d6c6576656c2063616c6c206661696c6564\n      dup2\n      mstore\n      pop\n        /* \"libraries/SafeERC20.sol\":5829:5834  token */\n      dup6\n        /* \"libraries/SafeERC20.sol\":5821:5848  address(token).functionCall */\n      0xffffffffffffffffffffffffffffffffffffffff\n      and\n      tag_157\n      swap1\n        /* \"libraries/SafeERC20.sol\":5821:5890  address(token).functionCall(data, \"SafeERC20: low-level call failed\") */\n      swap3\n      swap2\n      swap1\n      0xffffffff\n      and\n      jump\t// in\n    tag_156:\n        /* \"libraries/SafeERC20.sol\":5795:5890  bytes memory returndata = address(token).functionCall(data, \"SafeERC20: low-level call failed\") */\n      swap1\n      pop\n        /* \"libraries/SafeERC20.sol\":5930:5931  0 */\n      0x00\n        /* \"libraries/SafeERC20.sol\":5909:5919  returndata */\n      dup2\n        /* \"libraries/SafeERC20.sol\":5909:5926  returndata.length */\n      mload\n        /* \"libraries/SafeERC20.sol\":5909:5931  returndata.length == 0 */\n      eq\n        /* \"libraries/SafeERC20.sol\":5909:5965  returndata.length == 0 || abi.decode(returndata, (bool)) */\n      dup1\n      tag_158\n      jumpi\n      pop\n        /* \"libraries/SafeERC20.sol\":5946:5956  returndata */\n      dup1\n        /* \"libraries/SafeERC20.sol\":5935:5965  abi.decode(returndata, (bool)) */\n      dup1\n      0x20\n      add\n      swap1\n      mload\n      dup2\n      add\n      swap1\n      tag_159\n      swap2\n      swap1\n      tag_90\n      jump\t// in\n    tag_159:\n        /* \"libraries/SafeERC20.sol\":5909:5965  returndata.length == 0 || abi.decode(returndata, (bool)) */\n    tag_158:\n        /* \"libraries/SafeERC20.sol\":5901:6012  require(returndata.length == 0 || abi.decode(returndata, (bool)), \"SafeERC20: ERC20 operation did not succeed\") */\n      tag_160\n      jumpi\n      mload(0x40)\n      0x08c379a000000000000000000000000000000000000000000000000000000000\n      dup2\n      mstore\n      0x04\n      add\n      tag_161\n      swap1\n      tag_162\n      jump\t// in\n    tag_161:\n      mload(0x40)\n      dup1\n      swap2\n      sub\n      swap1\n      revert\n    tag_160:\n        /* \"libraries/SafeERC20.sol\":5441:6020  {... */\n      pop\n        /* \"libraries/SafeERC20.sol\":5371:6020  function _callOptionalReturn(IERC20 token, bytes memory data) private {... */\n      pop\n      pop\n      jump\t// out\n        /* \"libraries/Address.sol\":4207:4436  function functionCall(... */\n    tag_157:\n        /* \"libraries/Address.sol\":4344:4356  bytes memory */\n      0x60\n        /* \"libraries/Address.sol\":4376:4428  functionCallWithValue(target, data, 0, errorMessage) */\n      tag_164\n        /* \"libraries/Address.sol\":4398:4404  target */\n      dup5\n        /* \"libraries/Address.sol\":4406:4410  data */\n      dup5\n        /* \"libraries/Address.sol\":4412:4413  0 */\n      0x00\n        /* \"libraries/Address.sol\":4415:4427  errorMessage */\n      dup6\n        /* \"libraries/Address.sol\":4376:4397  functionCallWithValue */\n      tag_165\n        /* \"libraries/Address.sol\":4376:4428  functionCallWithValue(target, data, 0, errorMessage) */\n      jump\t// in\n    tag_164:\n        /* \"libraries/Address.sol\":4369:4428  return functionCallWithValue(target, data, 0, errorMessage) */\n      swap1\n      pop\n        /* \"libraries/Address.sol\":4207:4436  function functionCall(... */\n      swap4\n      swap3\n      pop\n      pop\n      pop\n      jump\t// out\n        /* \"libraries/Address.sol\":5293:5748  function functionCallWithValue(... */\n    tag_165:\n        /* \"libraries/Address.sol\":5463:5475  bytes memory */\n      0x60\n        /* \"libraries/Address.sol\":5521:5526  value */\n      dup3\n        /* \"libraries/Address.sol\":5496:5517  address(this).balance */\n      selfbalance\n        /* \"libraries/Address.sol\":5496:5526  address(this).balance >= value */\n      lt\n      iszero\n        /* \"libraries/Address.sol\":5488:5569  require(address(this).balance >= value, \"Address: insufficient balance for call\") */\n      tag_167\n      jumpi\n      mload(0x40)\n      0x08c379a000000000000000000000000000000000000000000000000000000000\n      dup2\n      mstore\n      0x04\n      add\n      tag_168\n      swap1\n      tag_169\n      jump\t// in\n    tag_168:\n      mload(0x40)\n      dup1\n      swap2\n      sub\n      swap1\n      revert\n    tag_167:\n        /* \"libraries/Address.sol\":5581:5593  bool success */\n      0x00\n        /* \"libraries/Address.sol\":5595:5618  bytes memory returndata */\n      dup1\n        /* \"libraries/Address.sol\":5622:5628  target */\n      dup7\n        /* \"libraries/Address.sol\":5622:5633  target.call */\n      0xffffffffffffffffffffffffffffffffffffffff\n      and\n        /* \"libraries/Address.sol\":5641:5646  value */\n      dup6\n        /* \"libraries/Address.sol\":5648:5652  data */\n      dup8\n        /* \"libraries/Address.sol\":5622:5653  target.call{value: value}(data) */\n      mload(0x40)\n      tag_170\n      swap2\n      swap1\n      tag_171\n      jump\t// in\n    tag_170:\n      0x00\n      mload(0x40)\n      dup1\n      dup4\n      sub\n      dup2\n      dup6\n      dup8\n      gas\n      call\n      swap3\n      pop\n      pop\n      pop\n      returndatasize\n      dup1\n      0x00\n      dup2\n      eq\n      tag_174\n      jumpi\n      mload(0x40)\n      swap2\n      pop\n      and(add(returndatasize, 0x3f), not(0x1f))\n      dup3\n      add\n      0x40\n      mstore\n      returndatasize\n      dup3\n      mstore\n      returndatasize\n      0x00\n      0x20\n      dup5\n      add\n      returndatacopy\n      jump(tag_173)\n    tag_174:\n      0x60\n      swap2\n      pop\n    tag_173:\n      pop\n        /* \"libraries/Address.sol\":5580:5653  (bool success, bytes memory returndata) = target.call{value: value}(data) */\n      swap2\n      pop\n      swap2\n      pop\n        /* \"libraries/Address.sol\":5671:5740  verifyCallResultFromTarget(target, success, returndata, errorMessage) */\n      tag_175\n        /* \"libraries/Address.sol\":5698:5704  target */\n      dup8\n        /* \"libraries/Address.sol\":5706:5713  success */\n      dup4\n        /* \"libraries/Address.sol\":5715:5725  returndata */\n      dup4\n        /* \"libraries/Address.sol\":5727:5739  errorMessage */\n      dup8\n        /* \"libraries/Address.sol\":5671:5697  verifyCallResultFromTarget */\n      tag_176\n        /* \"libraries/Address.sol\":5671:5740  verifyCallResultFromTarget(target, success, returndata, errorMessage) */\n      jump\t// in\n    tag_175:\n        /* \"libraries/Address.sol\":5664:5740  return verifyCallResultFromTarget(target, success, returndata, errorMessage) */\n      swap3\n      pop\n      pop\n      pop\n        /* \"libraries/Address.sol\":5293:5748  function functionCallWithValue(... */\n      swap5\n      swap4\n      pop\n      pop\n      pop\n      pop\n      jump\t// out\n        /* \"libraries/Address.sol\":7866:8510  function verifyCallResultFromTarget(... */\n    tag_176:\n        /* \"libraries/Address.sol\":8051:8063  bytes memory */\n      0x60\n        /* \"libraries/Address.sol\":8080:8087  success */\n      dup4\n        /* \"libraries/Address.sol\":8076:8503  if (success) {... */\n      iszero\n      tag_178\n      jumpi\n        /* \"libraries/Address.sol\":8129:8130  0 */\n      0x00\n        /* \"libraries/Address.sol\":8108:8118  returndata */\n      dup4\n        /* \"libraries/Address.sol\":8108:8125  returndata.length */\n      mload\n        /* \"libraries/Address.sol\":8108:8130  returndata.length == 0 */\n      sub\n        /* \"libraries/Address.sol\":8104:8394  if (returndata.length == 0) {... */\n      tag_179\n      jumpi\n        /* \"libraries/Address.sol\":8326:8344  isContract(target) */\n      tag_180\n        /* \"libraries/Address.sol\":8337:8343  target */\n      dup6\n        /* \"libraries/Address.sol\":8326:8336  isContract */\n      tag_181\n        /* \"libraries/Address.sol\":8326:8344  isContract(target) */\n      jump\t// in\n    tag_180:\n        /* \"libraries/Address.sol\":8318:8378  require(isContract(target), \"Address: call to non-contract\") */\n      tag_182\n      jumpi\n      mload(0x40)\n      0x08c379a000000000000000000000000000000000000000000000000000000000\n      dup2\n      mstore\n      0x04\n      add\n      tag_183\n      swap1\n      tag_184\n      jump\t// in\n    tag_183:\n      mload(0x40)\n      dup1\n      swap2\n      sub\n      swap1\n      revert\n    tag_182:\n        /* \"libraries/Address.sol\":8104:8394  if (returndata.length == 0) {... */\n    tag_179:\n        /* \"libraries/Address.sol\":8415:8425  returndata */\n      dup3\n        /* \"libraries/Address.sol\":8408:8425  return returndata */\n      swap1\n      pop\n      jump(tag_177)\n        /* \"libraries/Address.sol\":8076:8503  if (success) {... */\n    tag_178:\n        /* \"libraries/Address.sol\":8458:8491  _revert(returndata, errorMessage) */\n      tag_186\n        /* \"libraries/Address.sol\":8466:8476  returndata */\n      dup4\n        /* \"libraries/Address.sol\":8478:8490  errorMessage */\n      dup4\n        /* \"libraries/Address.sol\":8458:8465  _revert */\n      tag_187\n        /* \"libraries/Address.sol\":8458:8491  _revert(returndata, errorMessage) */\n      jump\t// in\n    tag_186:\n        /* \"libraries/Address.sol\":7866:8510  function verifyCallResultFromTarget(... */\n    tag_177:\n      swap5\n      swap4\n      pop\n      pop\n      pop\n      pop\n      jump\t// out\n        /* \"libraries/Address.sol\":1452:1778  function isContract(address account) internal view returns (bool) {... */\n    tag_181:\n        /* \"libraries/Address.sol\":1512:1516  bool */\n      0x00\n        /* \"libraries/Address.sol\":1769:1770  0 */\n      dup1\n        /* \"libraries/Address.sol\":1747:1754  account */\n      dup3\n        /* \"libraries/Address.sol\":1747:1766  account.code.length */\n      0xffffffffffffffffffffffffffffffffffffffff\n      and\n      extcodesize\n        /* \"libraries/Address.sol\":1747:1770  account.code.length > 0 */\n      gt\n        /* \"libraries/Address.sol\":1740:1770  return account.code.length > 0 */\n      swap1\n      pop\n        /* \"libraries/Address.sol\":1452:1778  function isContract(address account) internal view returns (bool) {... */\n      swap2\n      swap1\n      pop\n      jump\t// out\n        /* \"libraries/Address.sol\":9052:9604  function _revert(bytes memory returndata, string memory errorMessage) private pure {... */\n    tag_187:\n        /* \"libraries/Address.sol\":9233:9234  0 */\n      0x00\n        /* \"libraries/Address.sol\":9213:9223  returndata */\n      dup3\n        /* \"libraries/Address.sol\":9213:9230  returndata.length */\n      mload\n        /* \"libraries/Address.sol\":9213:9234  returndata.length > 0 */\n      gt\n        /* \"libraries/Address.sol\":9209:9597  if (returndata.length > 0) {... */\n      iszero\n      tag_190\n      jumpi\n        /* \"libraries/Address.sol\":9445:9455  returndata */\n      dup2\n        /* \"libraries/Address.sol\":9439:9456  mload(returndata) */\n      mload\n        /* \"libraries/Address.sol\":9502:9517  returndata_size */\n      dup1\n        /* \"libraries/Address.sol\":9489:9499  returndata */\n      dup4\n        /* \"libraries/Address.sol\":9485:9487  32 */\n      0x20\n        /* \"libraries/Address.sol\":9481:9500  add(32, returndata) */\n      add\n        /* \"libraries/Address.sol\":9474:9518  revert(add(32, returndata), returndata_size) */\n      revert\n        /* \"libraries/Address.sol\":9209:9597  if (returndata.length > 0) {... */\n    tag_190:\n        /* \"libraries/Address.sol\":9572:9584  errorMessage */\n      dup1\n        /* \"libraries/Address.sol\":9565:9585  revert(errorMessage) */\n      mload(0x40)\n      0x08c379a000000000000000000000000000000000000000000000000000000000\n      dup2\n      mstore\n      0x04\n      add\n      tag_192\n      swap2\n      swap1\n      tag_193\n      jump\t// in\n    tag_192:\n      mload(0x40)\n      dup1\n      swap2\n      sub\n      swap1\n      revert\n    tag_137:\n      mload(0x40)\n      dup1\n      0x0120\n      add\n      0x40\n      mstore\n      dup1\n      and(0xffffffff, 0x00)\n      dup2\n      mstore\n      0x20\n      add\n      and(0xffffffff, 0x00)\n      dup2\n      mstore\n      0x20\n      add\n      and(0xffffffffffffff, 0x00)\n      dup2\n      mstore\n      0x20\n      add\n      and(0xffffffffffffffffffffffffffffffff, 0x00)\n      dup2\n      mstore\n      0x20\n      add\n      0x00\n      dup2\n      mstore\n      0x20\n      add\n      and(0xffffffffffffffffffffffffffffffffffffffff, 0x00)\n      dup2\n      mstore\n      0x20\n      add\n      and(0xffffffffffffffffffffffffffffffffffffffff, 0x00)\n      dup2\n      mstore\n      0x20\n      add\n      and(0xffffffffffffffffffffffffffffffffffffffff, 0x00)\n      dup2\n      mstore\n      0x20\n      add\n      0x00\n      0x04\n      dup2\n      gt\n      iszero\n      tag_194\n      jumpi\n      tag_195\n      tag_69\n      jump\t// in\n    tag_195:\n    tag_194:\n      dup2\n      mstore\n      pop\n      swap1\n      jump\t// out\n        /* \"#utility.yul\":88:205   */\n    tag_197:\n        /* \"#utility.yul\":197:198   */\n      0x00\n        /* \"#utility.yul\":194:195   */\n      dup1\n        /* \"#utility.yul\":187:199   */\n      revert\n        /* \"#utility.yul\":334:427   */\n    tag_199:\n        /* \"#utility.yul\":370:377   */\n      0x00\n        /* \"#utility.yul\":410:420   */\n      0xffffffff\n        /* \"#utility.yul\":403:408   */\n      dup3\n        /* \"#utility.yul\":399:421   */\n      and\n        /* \"#utility.yul\":388:421   */\n      swap1\n      pop\n        /* \"#utility.yul\":334:427   */\n      swap2\n      swap1\n      pop\n      jump\t// out\n        /* \"#utility.yul\":433:553   */\n    tag_200:\n        /* \"#utility.yul\":505:528   */\n      tag_269\n        /* \"#utility.yul\":522:527   */\n      dup2\n        /* \"#utility.yul\":505:528   */\n      tag_199\n      jump\t// in\n    tag_269:\n        /* \"#utility.yul\":498:503   */\n      dup2\n        /* \"#utility.yul\":495:529   */\n      eq\n        /* \"#utility.yul\":485:547   */\n      tag_270\n      jumpi\n        /* \"#utility.yul\":543:544   */\n      0x00\n        /* \"#utility.yul\":540:541   */\n      dup1\n        /* \"#utility.yul\":533:545   */\n      revert\n        /* \"#utility.yul\":485:547   */\n    tag_270:\n        /* \"#utility.yul\":433:553   */\n      pop\n      jump\t// out\n        /* \"#utility.yul\":559:696   */\n    tag_201:\n        /* \"#utility.yul\":604:609   */\n      0x00\n        /* \"#utility.yul\":642:648   */\n      dup2\n        /* \"#utility.yul\":629:649   */\n      calldataload\n        /* \"#utility.yul\":620:649   */\n      swap1\n      pop\n        /* \"#utility.yul\":658:690   */\n      tag_272\n        /* \"#utility.yul\":684:689   */\n      dup2\n        /* \"#utility.yul\":658:690   */\n      tag_200\n      jump\t// in\n    tag_272:\n        /* \"#utility.yul\":559:696   */\n      swap3\n      swap2\n      pop\n      pop\n      jump\t// out\n        /* \"#utility.yul\":702:1029   */\n    tag_14:\n        /* \"#utility.yul\":760:766   */\n      0x00\n        /* \"#utility.yul\":809:811   */\n      0x20\n        /* \"#utility.yul\":797:806   */\n      dup3\n        /* \"#utility.yul\":788:795   */\n      dup5\n        /* \"#utility.yul\":784:807   */\n      sub\n        /* \"#utility.yul\":780:812   */\n      slt\n        /* \"#utility.yul\":777:896   */\n      iszero\n      tag_274\n      jumpi\n        /* \"#utility.yul\":815:894   */\n      tag_275\n      tag_197\n      jump\t// in\n    tag_275:\n        /* \"#utility.yul\":777:896   */\n    tag_274:\n        /* \"#utility.yul\":935:936   */\n      0x00\n        /* \"#utility.yul\":960:1012   */\n      tag_276\n        /* \"#utility.yul\":1004:1011   */\n      dup5\n        /* \"#utility.yul\":995:1001   */\n      dup3\n        /* \"#utility.yul\":984:993   */\n      dup6\n        /* \"#utility.yul\":980:1002   */\n      add\n        /* \"#utility.yul\":960:1012   */\n      tag_201\n      jump\t// in\n    tag_276:\n        /* \"#utility.yul\":950:1012   */\n      swap2\n      pop\n        /* \"#utility.yul\":906:1022   */\n      pop\n        /* \"#utility.yul\":702:1029   */\n      swap3\n      swap2\n      pop\n      pop\n      jump\t// out\n        /* \"#utility.yul\":1035:1161   */\n    tag_202:\n        /* \"#utility.yul\":1072:1079   */\n      0x00\n        /* \"#utility.yul\":1112:1154   */\n      0xffffffffffffffffffffffffffffffffffffffff\n        /* \"#utility.yul\":1105:1110   */\n      dup3\n        /* \"#utility.yul\":1101:1155   */\n      and\n        /* \"#utility.yul\":1090:1155   */\n      swap1\n      pop\n        /* \"#utility.yul\":1035:1161   */\n      swap2\n      swap1\n      pop\n      jump\t// out\n        /* \"#utility.yul\":1167:1263   */\n    tag_203:\n        /* \"#utility.yul\":1204:1211   */\n      0x00\n        /* \"#utility.yul\":1233:1257   */\n      tag_279\n        /* \"#utility.yul\":1251:1256   */\n      dup3\n        /* \"#utility.yul\":1233:1257   */\n      tag_202\n      jump\t// in\n    tag_279:\n        /* \"#utility.yul\":1222:1257   */\n      swap1\n      pop\n        /* \"#utility.yul\":1167:1263   */\n      swap2\n      swap1\n      pop\n      jump\t// out\n        /* \"#utility.yul\":1269:1391   */\n    tag_204:\n        /* \"#utility.yul\":1342:1366   */\n      tag_281\n        /* \"#utility.yul\":1360:1365   */\n      dup2\n        /* \"#utility.yul\":1342:1366   */\n      tag_203\n      jump\t// in\n    tag_281:\n        /* \"#utility.yul\":1335:1340   */\n      dup2\n        /* \"#utility.yul\":1332:1367   */\n      eq\n        /* \"#utility.yul\":1322:1385   */\n      tag_282\n      jumpi\n        /* \"#utility.yul\":1381:1382   */\n      0x00\n        /* \"#utility.yul\":1378:1379   */\n      dup1\n        /* \"#utility.yul\":1371:1383   */\n      revert\n        /* \"#utility.yul\":1322:1385   */\n    tag_282:\n        /* \"#utility.yul\":1269:1391   */\n      pop\n      jump\t// out\n        /* \"#utility.yul\":1397:1536   */\n    tag_205:\n        /* \"#utility.yul\":1443:1448   */\n      0x00\n        /* \"#utility.yul\":1481:1487   */\n      dup2\n        /* \"#utility.yul\":1468:1488   */\n      calldataload\n        /* \"#utility.yul\":1459:1488   */\n      swap1\n      pop\n        /* \"#utility.yul\":1497:1530   */\n      tag_284\n        /* \"#utility.yul\":1524:1529   */\n      dup2\n        /* \"#utility.yul\":1497:1530   */\n      tag_204\n      jump\t// in\n    tag_284:\n        /* \"#utility.yul\":1397:1536   */\n      swap3\n      swap2\n      pop\n      pop\n      jump\t// out\n        /* \"#utility.yul\":1542:1641   */\n    tag_206:\n        /* \"#utility.yul\":1578:1585   */\n      0x00\n        /* \"#utility.yul\":1618:1634   */\n      0xffffffffffffff\n        /* \"#utility.yul\":1611:1616   */\n      dup3\n        /* \"#utility.yul\":1607:1635   */\n      and\n        /* \"#utility.yul\":1596:1635   */\n      swap1\n      pop\n        /* \"#utility.yul\":1542:1641   */\n      swap2\n      swap1\n      pop\n      jump\t// out\n        /* \"#utility.yul\":1647:1767   */\n    tag_207:\n        /* \"#utility.yul\":1719:1742   */\n      tag_287\n        /* \"#utility.yul\":1736:1741   */\n      dup2\n        /* \"#utility.yul\":1719:1742   */\n      tag_206\n      jump\t// in\n    tag_287:\n        /* \"#utility.yul\":1712:1717   */\n      dup2\n        /* \"#utility.yul\":1709:1743   */\n      eq\n        /* \"#utility.yul\":1699:1761   */\n      tag_288\n      jumpi\n        /* \"#utility.yul\":1757:1758   */\n      0x00\n        /* \"#utility.yul\":1754:1755   */\n      dup1\n        /* \"#utility.yul\":1747:1759   */\n      revert\n        /* \"#utility.yul\":1699:1761   */\n    tag_288:\n        /* \"#utility.yul\":1647:1767   */\n      pop\n      jump\t// out\n        /* \"#utility.yul\":1773:1910   */\n    tag_208:\n        /* \"#utility.yul\":1818:1823   */\n      0x00\n        /* \"#utility.yul\":1856:1862   */\n      dup2\n        /* \"#utility.yul\":1843:1863   */\n      calldataload\n        /* \"#utility.yul\":1834:1863   */\n      swap1\n      pop\n        /* \"#utility.yul\":1872:1904   */\n      tag_290\n        /* \"#utility.yul\":1898:1903   */\n      dup2\n        /* \"#utility.yul\":1872:1904   */\n      tag_207\n      jump\t// in\n    tag_290:\n        /* \"#utility.yul\":1773:1910   */\n      swap3\n      swap2\n      pop\n      pop\n      jump\t// out\n        /* \"#utility.yul\":1916:2388   */\n    tag_21:\n        /* \"#utility.yul\":1983:1989   */\n      0x00\n        /* \"#utility.yul\":1991:1997   */\n      dup1\n        /* \"#utility.yul\":2040:2042   */\n      0x40\n        /* \"#utility.yul\":2028:2037   */\n      dup4\n        /* \"#utility.yul\":2019:2026   */\n      dup6\n        /* \"#utility.yul\":2015:2038   */\n      sub\n        /* \"#utility.yul\":2011:2043   */\n      slt\n        /* \"#utility.yul\":2008:2127   */\n      iszero\n      tag_292\n      jumpi\n        /* \"#utility.yul\":2046:2125   */\n      tag_293\n      tag_197\n      jump\t// in\n    tag_293:\n        /* \"#utility.yul\":2008:2127   */\n    tag_292:\n        /* \"#utility.yul\":2166:2167   */\n      0x00\n        /* \"#utility.yul\":2191:2244   */\n      tag_294\n        /* \"#utility.yul\":2236:2243   */\n      dup6\n        /* \"#utility.yul\":2227:2233   */\n      dup3\n        /* \"#utility.yul\":2216:2225   */\n      dup7\n        /* \"#utility.yul\":2212:2234   */\n      add\n        /* \"#utility.yul\":2191:2244   */\n      tag_205\n      jump\t// in\n    tag_294:\n        /* \"#utility.yul\":2181:2244   */\n      swap3\n      pop\n        /* \"#utility.yul\":2137:2254   */\n      pop\n        /* \"#utility.yul\":2293:2295   */\n      0x20\n        /* \"#utility.yul\":2319:2371   */\n      tag_295\n        /* \"#utility.yul\":2363:2370   */\n      dup6\n        /* \"#utility.yul\":2354:2360   */\n      dup3\n        /* \"#utility.yul\":2343:2352   */\n      dup7\n        /* \"#utility.yul\":2339:2361   */\n      add\n        /* \"#utility.yul\":2319:2371   */\n      tag_208\n      jump\t// in\n    tag_295:\n        /* \"#utility.yul\":2309:2371   */\n      swap2\n      pop\n        /* \"#utility.yul\":2264:2381   */\n      pop\n        /* \"#utility.yul\":1916:2388   */\n      swap3\n      pop\n      swap3\n      swap1\n      pop\n      jump\t// out\n        /* \"#utility.yul\":2394:2512   */\n    tag_209:\n        /* \"#utility.yul\":2481:2505   */\n      tag_297\n        /* \"#utility.yul\":2499:2504   */\n      dup2\n        /* \"#utility.yul\":2481:2505   */\n      tag_203\n      jump\t// in\n    tag_297:\n        /* \"#utility.yul\":2476:2479   */\n      dup3\n        /* \"#utility.yul\":2469:2506   */\n      mstore\n        /* \"#utility.yul\":2394:2512   */\n      pop\n      pop\n      jump\t// out\n        /* \"#utility.yul\":2518:2740   */\n    tag_26:\n        /* \"#utility.yul\":2611:2615   */\n      0x00\n        /* \"#utility.yul\":2649:2651   */\n      0x20\n        /* \"#utility.yul\":2638:2647   */\n      dup3\n        /* \"#utility.yul\":2634:2652   */\n      add\n        /* \"#utility.yul\":2626:2652   */\n      swap1\n      pop\n        /* \"#utility.yul\":2662:2733   */\n      tag_299\n        /* \"#utility.yul\":2730:2731   */\n      0x00\n        /* \"#utility.yul\":2719:2728   */\n      dup4\n        /* \"#utility.yul\":2715:2732   */\n      add\n        /* \"#utility.yul\":2706:2712   */\n      dup5\n        /* \"#utility.yul\":2662:2733   */\n      tag_209\n      jump\t// in\n    tag_299:\n        /* \"#utility.yul\":2518:2740   */\n      swap3\n      swap2\n      pop\n      pop\n      jump\t// out\n        /* \"#utility.yul\":2746:2864   */\n    tag_210:\n        /* \"#utility.yul\":2783:2790   */\n      0x00\n        /* \"#utility.yul\":2823:2857   */\n      0xffffffffffffffffffffffffffffffff\n        /* \"#utility.yul\":2816:2821   */\n      dup3\n        /* \"#utility.yul\":2812:2858   */\n      and\n        /* \"#utility.yul\":2801:2858   */\n      swap1\n      pop\n        /* \"#utility.yul\":2746:2864   */\n      swap2\n      swap1\n      pop\n      jump\t// out\n        /* \"#utility.yul\":2870:2992   */\n    tag_211:\n        /* \"#utility.yul\":2943:2967   */\n      tag_302\n        /* \"#utility.yul\":2961:2966   */\n      dup2\n        /* \"#utility.yul\":2943:2967   */\n      tag_210\n      jump\t// in\n    tag_302:\n        /* \"#utility.yul\":2936:2941   */\n      dup2\n        /* \"#utility.yul\":2933:2968   */\n      eq\n        /* \"#utility.yul\":2923:2986   */\n      tag_303\n      jumpi\n        /* \"#utility.yul\":2982:2983   */\n      0x00\n        /* \"#utility.yul\":2979:2980   */\n      dup1\n        /* \"#utility.yul\":2972:2984   */\n      revert\n        /* \"#utility.yul\":2923:2986   */\n    tag_303:\n        /* \"#utility.yul\":2870:2992   */\n      pop\n      jump\t// out\n        /* \"#utility.yul\":2998:3137   */\n    tag_212:\n        /* \"#utility.yul\":3044:3049   */\n      0x00\n        /* \"#utility.yul\":3082:3088   */\n      dup2\n        /* \"#utility.yul\":3069:3089   */\n      calldataload\n        /* \"#utility.yul\":3060:3089   */\n      swap1\n      pop\n        /* \"#utility.yul\":3098:3131   */\n      tag_305\n        /* \"#utility.yul\":3125:3130   */\n      dup2\n        /* \"#utility.yul\":3098:3131   */\n      tag_211\n      jump\t// in\n    tag_305:\n        /* \"#utility.yul\":2998:3137   */\n      swap3\n      swap2\n      pop\n      pop\n      jump\t// out\n        /* \"#utility.yul\":3143:3254   */\n    tag_213:\n        /* \"#utility.yul\":3228:3229   */\n      0x03\n        /* \"#utility.yul\":3221:3226   */\n      dup2\n        /* \"#utility.yul\":3218:3230   */\n      lt\n        /* \"#utility.yul\":3208:3248   */\n      tag_307\n      jumpi\n        /* \"#utility.yul\":3244:3245   */\n      0x00\n        /* \"#utility.yul\":3241:3242   */\n      dup1\n        /* \"#utility.yul\":3234:3246   */\n      revert\n        /* \"#utility.yul\":3208:3248   */\n    tag_307:\n        /* \"#utility.yul\":3143:3254   */\n      pop\n      jump\t// out\n        /* \"#utility.yul\":3260:3423   */\n    tag_214:\n        /* \"#utility.yul\":3318:3323   */\n      0x00\n        /* \"#utility.yul\":3356:3362   */\n      dup2\n        /* \"#utility.yul\":3343:3363   */\n      calldataload\n        /* \"#utility.yul\":3334:3363   */\n      swap1\n      pop\n        /* \"#utility.yul\":3372:3417   */\n      tag_309\n        /* \"#utility.yul\":3411:3416   */\n      dup2\n        /* \"#utility.yul\":3372:3417   */\n      tag_213\n      jump\t// in\n    tag_309:\n        /* \"#utility.yul\":3260:3423   */\n      swap3\n      swap2\n      pop\n      pop\n      jump\t// out\n        /* \"#utility.yul\":3429:4216   */\n    tag_29:\n        /* \"#utility.yul\":3526:3532   */\n      0x00\n        /* \"#utility.yul\":3534:3540   */\n      dup1\n        /* \"#utility.yul\":3542:3548   */\n      0x00\n        /* \"#utility.yul\":3550:3556   */\n      dup1\n        /* \"#utility.yul\":3599:3602   */\n      0x80\n        /* \"#utility.yul\":3587:3596   */\n      dup6\n        /* \"#utility.yul\":3578:3585   */\n      dup8\n        /* \"#utility.yul\":3574:3597   */\n      sub\n        /* \"#utility.yul\":3570:3603   */\n      slt\n        /* \"#utility.yul\":3567:3687   */\n      iszero\n      tag_311\n      jumpi\n        /* \"#utility.yul\":3606:3685   */\n      tag_312\n      tag_197\n      jump\t// in\n    tag_312:\n        /* \"#utility.yul\":3567:3687   */\n    tag_311:\n        /* \"#utility.yul\":3726:3727   */\n      0x00\n        /* \"#utility.yul\":3751:3804   */\n      tag_313\n        /* \"#utility.yul\":3796:3803   */\n      dup8\n        /* \"#utility.yul\":3787:3793   */\n      dup3\n        /* \"#utility.yul\":3776:3785   */\n      dup9\n        /* \"#utility.yul\":3772:3794   */\n      add\n        /* \"#utility.yul\":3751:3804   */\n      tag_205\n      jump\t// in\n    tag_313:\n        /* \"#utility.yul\":3741:3804   */\n      swap5\n      pop\n        /* \"#utility.yul\":3697:3814   */\n      pop\n        /* \"#utility.yul\":3853:3855   */\n      0x20\n        /* \"#utility.yul\":3879:3931   */\n      tag_314\n        /* \"#utility.yul\":3923:3930   */\n      dup8\n        /* \"#utility.yul\":3914:3920   */\n      dup3\n        /* \"#utility.yul\":3903:3912   */\n      dup9\n        /* \"#utility.yul\":3899:3921   */\n      add\n        /* \"#utility.yul\":3879:3931   */\n      tag_201\n      jump\t// in\n    tag_314:\n        /* \"#utility.yul\":3869:3931   */\n      swap4\n      pop\n        /* \"#utility.yul\":3824:3941   */\n      pop\n        /* \"#utility.yul\":3980:3982   */\n      0x40\n        /* \"#utility.yul\":4006:4059   */\n      tag_315\n        /* \"#utility.yul\":4051:4058   */\n      dup8\n        /* \"#utility.yul\":4042:4048   */\n      dup3\n        /* \"#utility.yul\":4031:4040   */\n      dup9\n        /* \"#utility.yul\":4027:4049   */\n      add\n        /* \"#utility.yul\":4006:4059   */\n      tag_212\n      jump\t// in\n    tag_315:\n        /* \"#utility.yul\":3996:4059   */\n      swap3\n      pop\n        /* \"#utility.yul\":3951:4069   */\n      pop\n        /* \"#utility.yul\":4108:4110   */\n      0x60\n        /* \"#utility.yul\":4134:4199   */\n      tag_316\n        /* \"#utility.yul\":4191:4198   */\n      dup8\n        /* \"#utility.yul\":4182:4188   */\n      dup3\n        /* \"#utility.yul\":4171:4180   */\n      dup9\n        /* \"#utility.yul\":4167:4189   */\n      add\n        /* \"#utility.yul\":4134:4199   */\n      tag_214\n      jump\t// in\n    tag_316:\n        /* \"#utility.yul\":4124:4199   */\n      swap2\n      pop\n        /* \"#utility.yul\":4079:4209   */\n      pop\n        /* \"#utility.yul\":3429:4216   */\n      swap3\n      swap6\n      swap2\n      swap5\n      pop\n      swap3\n      pop\n      jump\t// out\n        /* \"#utility.yul\":4222:4327   */\n    tag_215:\n        /* \"#utility.yul\":4297:4320   */\n      tag_318\n        /* \"#utility.yul\":4314:4319   */\n      dup2\n        /* \"#utility.yul\":4297:4320   */\n      tag_199\n      jump\t// in\n    tag_318:\n        /* \"#utility.yul\":4292:4295   */\n      dup3\n        /* \"#utility.yul\":4285:4321   */\n      mstore\n        /* \"#utility.yul\":4222:4327   */\n      pop\n      pop\n      jump\t// out\n        /* \"#utility.yul\":4333:4438   */\n    tag_216:\n        /* \"#utility.yul\":4408:4431   */\n      tag_320\n        /* \"#utility.yul\":4425:4430   */\n      dup2\n        /* \"#utility.yul\":4408:4431   */\n      tag_206\n      jump\t// in\n    tag_320:\n        /* \"#utility.yul\":4403:4406   */\n      dup3\n        /* \"#utility.yul\":4396:4432   */\n      mstore\n        /* \"#utility.yul\":4333:4438   */\n      pop\n      pop\n      jump\t// out\n        /* \"#utility.yul\":4444:4552   */\n    tag_217:\n        /* \"#utility.yul\":4521:4545   */\n      tag_322\n        /* \"#utility.yul\":4539:4544   */\n      dup2\n        /* \"#utility.yul\":4521:4545   */\n      tag_210\n      jump\t// in\n    tag_322:\n        /* \"#utility.yul\":4516:4519   */\n      dup3\n        /* \"#utility.yul\":4509:4546   */\n      mstore\n        /* \"#utility.yul\":4444:4552   */\n      pop\n      pop\n      jump\t// out\n        /* \"#utility.yul\":4558:4635   */\n    tag_218:\n        /* \"#utility.yul\":4595:4602   */\n      0x00\n        /* \"#utility.yul\":4624:4629   */\n      dup2\n        /* \"#utility.yul\":4613:4629   */\n      swap1\n      pop\n        /* \"#utility.yul\":4558:4635   */\n      swap2\n      swap1\n      pop\n      jump\t// out\n        /* \"#utility.yul\":4641:4749   */\n    tag_219:\n        /* \"#utility.yul\":4718:4742   */\n      tag_325\n        /* \"#utility.yul\":4736:4741   */\n      dup2\n        /* \"#utility.yul\":4718:4742   */\n      tag_218\n      jump\t// in\n    tag_325:\n        /* \"#utility.yul\":4713:4716   */\n      dup3\n        /* \"#utility.yul\":4706:4743   */\n      mstore\n        /* \"#utility.yul\":4641:4749   */\n      pop\n      pop\n      jump\t// out\n        /* \"#utility.yul\":4755:4863   */\n    tag_220:\n        /* \"#utility.yul\":4832:4856   */\n      tag_327\n        /* \"#utility.yul\":4850:4855   */\n      dup2\n        /* \"#utility.yul\":4832:4856   */\n      tag_203\n      jump\t// in\n    tag_327:\n        /* \"#utility.yul\":4827:4830   */\n      dup3\n        /* \"#utility.yul\":4820:4857   */\n      mstore\n        /* \"#utility.yul\":4755:4863   */\n      pop\n      pop\n      jump\t// out\n        /* \"#utility.yul\":4869:5049   */\n    tag_69:\n        /* \"#utility.yul\":4917:4994   */\n      0x4e487b7100000000000000000000000000000000000000000000000000000000\n        /* \"#utility.yul\":4914:4915   */\n      0x00\n        /* \"#utility.yul\":4907:4995   */\n      mstore\n        /* \"#utility.yul\":5014:5018   */\n      0x21\n        /* \"#utility.yul\":5011:5012   */\n      0x04\n        /* \"#utility.yul\":5004:5019   */\n      mstore\n        /* \"#utility.yul\":5038:5042   */\n      0x24\n        /* \"#utility.yul\":5035:5036   */\n      0x00\n        /* \"#utility.yul\":5028:5043   */\n      revert\n        /* \"#utility.yul\":5055:5175   */\n    tag_221:\n        /* \"#utility.yul\":5143:5144   */\n      0x05\n        /* \"#utility.yul\":5136:5141   */\n      dup2\n        /* \"#utility.yul\":5133:5145   */\n      lt\n        /* \"#utility.yul\":5123:5169   */\n      tag_330\n      jumpi\n        /* \"#utility.yul\":5149:5167   */\n      tag_331\n      tag_69\n      jump\t// in\n    tag_331:\n        /* \"#utility.yul\":5123:5169   */\n    tag_330:\n        /* \"#utility.yul\":5055:5175   */\n      pop\n      jump\t// out\n        /* \"#utility.yul\":5181:5322   */\n    tag_222:\n        /* \"#utility.yul\":5233:5240   */\n      0x00\n        /* \"#utility.yul\":5262:5267   */\n      dup2\n        /* \"#utility.yul\":5251:5267   */\n      swap1\n      pop\n        /* \"#utility.yul\":5268:5316   */\n      tag_333\n        /* \"#utility.yul\":5310:5315   */\n      dup3\n        /* \"#utility.yul\":5268:5316   */\n      tag_221\n      jump\t// in\n    tag_333:\n        /* \"#utility.yul\":5181:5322   */\n      swap2\n      swap1\n      pop\n      jump\t// out\n        /* \"#utility.yul\":5328:5469   */\n    tag_223:\n        /* \"#utility.yul\":5391:5400   */\n      0x00\n        /* \"#utility.yul\":5424:5463   */\n      tag_335\n        /* \"#utility.yul\":5457:5462   */\n      dup3\n        /* \"#utility.yul\":5424:5463   */\n      tag_222\n      jump\t// in\n    tag_335:\n        /* \"#utility.yul\":5411:5463   */\n      swap1\n      pop\n        /* \"#utility.yul\":5328:5469   */\n      swap2\n      swap1\n      pop\n      jump\t// out\n        /* \"#utility.yul\":5475:5622   */\n    tag_224:\n        /* \"#utility.yul\":5565:5615   */\n      tag_337\n        /* \"#utility.yul\":5609:5614   */\n      dup2\n        /* \"#utility.yul\":5565:5615   */\n      tag_223\n      jump\t// in\n    tag_337:\n        /* \"#utility.yul\":5560:5563   */\n      dup3\n        /* \"#utility.yul\":5553:5616   */\n      mstore\n        /* \"#utility.yul\":5475:5622   */\n      pop\n      pop\n      jump\t// out\n        /* \"#utility.yul\":5694:7482   */\n    tag_225:\n        /* \"#utility.yul\":5843:5849   */\n      0x0120\n        /* \"#utility.yul\":5838:5841   */\n      dup3\n        /* \"#utility.yul\":5834:5850   */\n      add\n        /* \"#utility.yul\":5935:5939   */\n      0x00\n        /* \"#utility.yul\":5928:5933   */\n      dup3\n        /* \"#utility.yul\":5924:5940   */\n      add\n        /* \"#utility.yul\":5918:5941   */\n      mload\n        /* \"#utility.yul\":5954:6015   */\n      tag_339\n        /* \"#utility.yul\":6009:6013   */\n      0x00\n        /* \"#utility.yul\":6004:6007   */\n      dup6\n        /* \"#utility.yul\":6000:6014   */\n      add\n        /* \"#utility.yul\":5986:5998   */\n      dup3\n        /* \"#utility.yul\":5954:6015   */\n      tag_215\n      jump\t// in\n    tag_339:\n        /* \"#utility.yul\":5860:6025   */\n      pop\n        /* \"#utility.yul\":6108:6112   */\n      0x20\n        /* \"#utility.yul\":6101:6106   */\n      dup3\n        /* \"#utility.yul\":6097:6113   */\n      add\n        /* \"#utility.yul\":6091:6114   */\n      mload\n        /* \"#utility.yul\":6127:6188   */\n      tag_340\n        /* \"#utility.yul\":6182:6186   */\n      0x20\n        /* \"#utility.yul\":6177:6180   */\n      dup6\n        /* \"#utility.yul\":6173:6187   */\n      add\n        /* \"#utility.yul\":6159:6171   */\n      dup3\n        /* \"#utility.yul\":6127:6188   */\n      tag_215\n      jump\t// in\n    tag_340:\n        /* \"#utility.yul\":6035:6198   */\n      pop\n        /* \"#utility.yul\":6280:6284   */\n      0x40\n        /* \"#utility.yul\":6273:6278   */\n      dup3\n        /* \"#utility.yul\":6269:6285   */\n      add\n        /* \"#utility.yul\":6263:6286   */\n      mload\n        /* \"#utility.yul\":6299:6360   */\n      tag_341\n        /* \"#utility.yul\":6354:6358   */\n      0x40\n        /* \"#utility.yul\":6349:6352   */\n      dup6\n        /* \"#utility.yul\":6345:6359   */\n      add\n        /* \"#utility.yul\":6331:6343   */\n      dup3\n        /* \"#utility.yul\":6299:6360   */\n      tag_216\n      jump\t// in\n    tag_341:\n        /* \"#utility.yul\":6208:6370   */\n      pop\n        /* \"#utility.yul\":6454:6458   */\n      0x60\n        /* \"#utility.yul\":6447:6452   */\n      dup3\n        /* \"#utility.yul\":6443:6459   */\n      add\n        /* \"#utility.yul\":6437:6460   */\n      mload\n        /* \"#utility.yul\":6473:6536   */\n      tag_342\n        /* \"#utility.yul\":6530:6534   */\n      0x60\n        /* \"#utility.yul\":6525:6528   */\n      dup6\n        /* \"#utility.yul\":6521:6535   */\n      add\n        /* \"#utility.yul\":6507:6519   */\n      dup3\n        /* \"#utility.yul\":6473:6536   */\n      tag_217\n      jump\t// in\n    tag_342:\n        /* \"#utility.yul\":6380:6546   */\n      pop\n        /* \"#utility.yul\":6638:6642   */\n      0x80\n        /* \"#utility.yul\":6631:6636   */\n      dup3\n        /* \"#utility.yul\":6627:6643   */\n      add\n        /* \"#utility.yul\":6621:6644   */\n      mload\n        /* \"#utility.yul\":6657:6720   */\n      tag_343\n        /* \"#utility.yul\":6714:6718   */\n      0x80\n        /* \"#utility.yul\":6709:6712   */\n      dup6\n        /* \"#utility.yul\":6705:6719   */\n      add\n        /* \"#utility.yul\":6691:6703   */\n      dup3\n        /* \"#utility.yul\":6657:6720   */\n      tag_219\n      jump\t// in\n    tag_343:\n        /* \"#utility.yul\":6556:6730   */\n      pop\n        /* \"#utility.yul\":6820:6824   */\n      0xa0\n        /* \"#utility.yul\":6813:6818   */\n      dup3\n        /* \"#utility.yul\":6809:6825   */\n      add\n        /* \"#utility.yul\":6803:6826   */\n      mload\n        /* \"#utility.yul\":6839:6902   */\n      tag_344\n        /* \"#utility.yul\":6896:6900   */\n      0xa0\n        /* \"#utility.yul\":6891:6894   */\n      dup6\n        /* \"#utility.yul\":6887:6901   */\n      add\n        /* \"#utility.yul\":6873:6885   */\n      dup3\n        /* \"#utility.yul\":6839:6902   */\n      tag_220\n      jump\t// in\n    tag_344:\n        /* \"#utility.yul\":6740:6912   */\n      pop\n        /* \"#utility.yul\":7002:7006   */\n      0xc0\n        /* \"#utility.yul\":6995:7000   */\n      dup3\n        /* \"#utility.yul\":6991:7007   */\n      add\n        /* \"#utility.yul\":6985:7008   */\n      mload\n        /* \"#utility.yul\":7021:7084   */\n      tag_345\n        /* \"#utility.yul\":7078:7082   */\n      0xc0\n        /* \"#utility.yul\":7073:7076   */\n      dup6\n        /* \"#utility.yul\":7069:7083   */\n      add\n        /* \"#utility.yul\":7055:7067   */\n      dup3\n        /* \"#utility.yul\":7021:7084   */\n      tag_220\n      jump\t// in\n    tag_345:\n        /* \"#utility.yul\":6922:7094   */\n      pop\n        /* \"#utility.yul\":7185:7189   */\n      0xe0\n        /* \"#utility.yul\":7178:7183   */\n      dup3\n        /* \"#utility.yul\":7174:7190   */\n      add\n        /* \"#utility.yul\":7168:7191   */\n      mload\n        /* \"#utility.yul\":7204:7267   */\n      tag_346\n        /* \"#utility.yul\":7261:7265   */\n      0xe0\n        /* \"#utility.yul\":7256:7259   */\n      dup6\n        /* \"#utility.yul\":7252:7266   */\n      add\n        /* \"#utility.yul\":7238:7250   */\n      dup3\n        /* \"#utility.yul\":7204:7267   */\n      tag_220\n      jump\t// in\n    tag_346:\n        /* \"#utility.yul\":7104:7277   */\n      pop\n        /* \"#utility.yul\":7366:7372   */\n      0x0100\n        /* \"#utility.yul\":7359:7364   */\n      dup3\n        /* \"#utility.yul\":7355:7373   */\n      add\n        /* \"#utility.yul\":7349:7374   */\n      mload\n        /* \"#utility.yul\":7387:7465   */\n      tag_347\n        /* \"#utility.yul\":7457:7463   */\n      0x0100\n        /* \"#utility.yul\":7452:7455   */\n      dup6\n        /* \"#utility.yul\":7448:7464   */\n      add\n        /* \"#utility.yul\":7434:7446   */\n      dup3\n        /* \"#utility.yul\":7387:7465   */\n      tag_224\n      jump\t// in\n    tag_347:\n        /* \"#utility.yul\":7287:7475   */\n      pop\n        /* \"#utility.yul\":5812:7482   */\n      pop\n        /* \"#utility.yul\":5694:7482   */\n      pop\n      pop\n      jump\t// out\n        /* \"#utility.yul\":7488:7815   */\n    tag_38:\n        /* \"#utility.yul\":7633:7637   */\n      0x00\n        /* \"#utility.yul\":7671:7674   */\n      0x0120\n        /* \"#utility.yul\":7660:7669   */\n      dup3\n        /* \"#utility.yul\":7656:7675   */\n      add\n        /* \"#utility.yul\":7648:7675   */\n      swap1\n      pop\n        /* \"#utility.yul\":7685:7808   */\n      tag_349\n        /* \"#utility.yul\":7805:7806   */\n      0x00\n        /* \"#utility.yul\":7794:7803   */\n      dup4\n        /* \"#utility.yul\":7790:7807   */\n      add\n        /* \"#utility.yul\":7781:7787   */\n      dup5\n        /* \"#utility.yul\":7685:7808   */\n      tag_225\n      jump\t// in\n    tag_349:\n        /* \"#utility.yul\":7488:7815   */\n      swap3\n      swap2\n      pop\n      pop\n      jump\t// out\n        /* \"#utility.yul\":7821:7936   */\n    tag_226:\n        /* \"#utility.yul\":7906:7929   */\n      tag_351\n        /* \"#utility.yul\":7923:7928   */\n      dup2\n        /* \"#utility.yul\":7906:7929   */\n      tag_206\n      jump\t// in\n    tag_351:\n        /* \"#utility.yul\":7901:7904   */\n      dup3\n        /* \"#utility.yul\":7894:7930   */\n      mstore\n        /* \"#utility.yul\":7821:7936   */\n      pop\n      pop\n      jump\t// out\n        /* \"#utility.yul\":7942:8160   */\n    tag_42:\n        /* \"#utility.yul\":8033:8037   */\n      0x00\n        /* \"#utility.yul\":8071:8073   */\n      0x20\n        /* \"#utility.yul\":8060:8069   */\n      dup3\n        /* \"#utility.yul\":8056:8074   */\n      add\n        /* \"#utility.yul\":8048:8074   */\n      swap1\n      pop\n        /* \"#utility.yul\":8084:8153   */\n      tag_353\n        /* \"#utility.yul\":8150:8151   */\n      0x00\n        /* \"#utility.yul\":8139:8148   */\n      dup4\n        /* \"#utility.yul\":8135:8152   */\n      add\n        /* \"#utility.yul\":8126:8132   */\n      dup5\n        /* \"#utility.yul\":8084:8153   */\n      tag_226\n      jump\t// in\n    tag_353:\n        /* \"#utility.yul\":7942:8160   */\n      swap3\n      swap2\n      pop\n      pop\n      jump\t// out\n        /* \"#utility.yul\":8166:8309   */\n    tag_227:\n        /* \"#utility.yul\":8223:8228   */\n      0x00\n        /* \"#utility.yul\":8254:8260   */\n      dup2\n        /* \"#utility.yul\":8248:8261   */\n      mload\n        /* \"#utility.yul\":8239:8261   */\n      swap1\n      pop\n        /* \"#utility.yul\":8270:8303   */\n      tag_355\n        /* \"#utility.yul\":8297:8302   */\n      dup2\n        /* \"#utility.yul\":8270:8303   */\n      tag_204\n      jump\t// in\n    tag_355:\n        /* \"#utility.yul\":8166:8309   */\n      swap3\n      swap2\n      pop\n      pop\n      jump\t// out\n        /* \"#utility.yul\":8315:8666   */\n    tag_49:\n        /* \"#utility.yul\":8385:8391   */\n      0x00\n        /* \"#utility.yul\":8434:8436   */\n      0x20\n        /* \"#utility.yul\":8422:8431   */\n      dup3\n        /* \"#utility.yul\":8413:8420   */\n      dup5\n        /* \"#utility.yul\":8409:8432   */\n      sub\n        /* \"#utility.yul\":8405:8437   */\n      slt\n        /* \"#utility.yul\":8402:8521   */\n      iszero\n      tag_357\n      jumpi\n        /* \"#utility.yul\":8440:8519   */\n      tag_358\n      tag_197\n      jump\t// in\n    tag_358:\n        /* \"#utility.yul\":8402:8521   */\n    tag_357:\n        /* \"#utility.yul\":8560:8561   */\n      0x00\n        /* \"#utility.yul\":8585:8649   */\n      tag_359\n        /* \"#utility.yul\":8641:8648   */\n      dup5\n        /* \"#utility.yul\":8632:8638   */\n      dup3\n        /* \"#utility.yul\":8621:8630   */\n      dup6\n        /* \"#utility.yul\":8617:8639   */\n      add\n        /* \"#utility.yul\":8585:8649   */\n      tag_227\n      jump\t// in\n    tag_359:\n        /* \"#utility.yul\":8575:8649   */\n      swap2\n      pop\n        /* \"#utility.yul\":8531:8659   */\n      pop\n        /* \"#utility.yul\":8315:8666   */\n      swap3\n      swap2\n      pop\n      pop\n      jump\t// out\n        /* \"#utility.yul\":8672:8841   */\n    tag_228:\n        /* \"#utility.yul\":8756:8767   */\n      0x00\n        /* \"#utility.yul\":8790:8796   */\n      dup3\n        /* \"#utility.yul\":8785:8788   */\n      dup3\n        /* \"#utility.yul\":8778:8797   */\n      mstore\n        /* \"#utility.yul\":8830:8834   */\n      0x20\n        /* \"#utility.yul\":8825:8828   */\n      dup3\n        /* \"#utility.yul\":8821:8835   */\n      add\n        /* \"#utility.yul\":8806:8835   */\n      swap1\n      pop\n        /* \"#utility.yul\":8672:8841   */\n      swap3\n      swap2\n      pop\n      pop\n      jump\t// out\n        /* \"#utility.yul\":8847:9006   */\n    tag_229:\n        /* \"#utility.yul\":8987:8998   */\n      0x4e6f74204f776e65720000000000000000000000000000000000000000000000\n        /* \"#utility.yul\":8983:8984   */\n      0x00\n        /* \"#utility.yul\":8975:8981   */\n      dup3\n        /* \"#utility.yul\":8971:8985   */\n      add\n        /* \"#utility.yul\":8964:8999   */\n      mstore\n        /* \"#utility.yul\":8847:9006   */\n      pop\n      jump\t// out\n        /* \"#utility.yul\":9012:9377   */\n    tag_230:\n        /* \"#utility.yul\":9154:9157   */\n      0x00\n        /* \"#utility.yul\":9175:9241   */\n      tag_363\n        /* \"#utility.yul\":9239:9240   */\n      0x09\n        /* \"#utility.yul\":9234:9237   */\n      dup4\n        /* \"#utility.yul\":9175:9241   */\n      tag_228\n      jump\t// in\n    tag_363:\n        /* \"#utility.yul\":9168:9241   */\n      swap2\n      pop\n        /* \"#utility.yul\":9250:9343   */\n      tag_364\n        /* \"#utility.yul\":9339:9342   */\n      dup3\n        /* \"#utility.yul\":9250:9343   */\n      tag_229\n      jump\t// in\n    tag_364:\n        /* \"#utility.yul\":9368:9370   */\n      0x20\n        /* \"#utility.yul\":9363:9366   */\n      dup3\n        /* \"#utility.yul\":9359:9371   */\n      add\n        /* \"#utility.yul\":9352:9371   */\n      swap1\n      pop\n        /* \"#utility.yul\":9012:9377   */\n      swap2\n      swap1\n      pop\n      jump\t// out\n        /* \"#utility.yul\":9383:9802   */\n    tag_52:\n        /* \"#utility.yul\":9549:9553   */\n      0x00\n        /* \"#utility.yul\":9587:9589   */\n      0x20\n        /* \"#utility.yul\":9576:9585   */\n      dup3\n        /* \"#utility.yul\":9572:9590   */\n      add\n        /* \"#utility.yul\":9564:9590   */\n      swap1\n      pop\n        /* \"#utility.yul\":9636:9645   */\n      dup2\n        /* \"#utility.yul\":9630:9634   */\n      dup2\n        /* \"#utility.yul\":9626:9646   */\n      sub\n        /* \"#utility.yul\":9622:9623   */\n      0x00\n        /* \"#utility.yul\":9611:9620   */\n      dup4\n        /* \"#utility.yul\":9607:9624   */\n      add\n        /* \"#utility.yul\":9600:9647   */\n      mstore\n        /* \"#utility.yul\":9664:9795   */\n      tag_366\n        /* \"#utility.yul\":9790:9794   */\n      dup2\n        /* \"#utility.yul\":9664:9795   */\n      tag_230\n      jump\t// in\n    tag_366:\n        /* \"#utility.yul\":9656:9795   */\n      swap1\n      pop\n        /* \"#utility.yul\":9383:9802   */\n      swap2\n      swap1\n      pop\n      jump\t// out\n        /* \"#utility.yul\":9808:9894   */\n    tag_231:\n        /* \"#utility.yul\":9843:9850   */\n      0x00\n        /* \"#utility.yul\":9883:9887   */\n      0xff\n        /* \"#utility.yul\":9876:9881   */\n      dup3\n        /* \"#utility.yul\":9872:9888   */\n      and\n        /* \"#utility.yul\":9861:9888   */\n      swap1\n      pop\n        /* \"#utility.yul\":9808:9894   */\n      swap2\n      swap1\n      pop\n      jump\t// out\n        /* \"#utility.yul\":9900:10018   */\n    tag_232:\n        /* \"#utility.yul\":9971:9993   */\n      tag_369\n        /* \"#utility.yul\":9987:9992   */\n      dup2\n        /* \"#utility.yul\":9971:9993   */\n      tag_231\n      jump\t// in\n    tag_369:\n        /* \"#utility.yul\":9964:9969   */\n      dup2\n        /* \"#utility.yul\":9961:9994   */\n      eq\n        /* \"#utility.yul\":9951:10012   */\n      tag_370\n      jumpi\n        /* \"#utility.yul\":10008:10009   */\n      0x00\n        /* \"#utility.yul\":10005:10006   */\n      dup1\n        /* \"#utility.yul\":9998:10010   */\n      revert\n        /* \"#utility.yul\":9951:10012   */\n    tag_370:\n        /* \"#utility.yul\":9900:10018   */\n      pop\n      jump\t// out\n        /* \"#utility.yul\":10024:10163   */\n    tag_233:\n        /* \"#utility.yul\":10079:10084   */\n      0x00\n        /* \"#utility.yul\":10110:10116   */\n      dup2\n        /* \"#utility.yul\":10104:10117   */\n      mload\n        /* \"#utility.yul\":10095:10117   */\n      swap1\n      pop\n        /* \"#utility.yul\":10126:10157   */\n      tag_372\n        /* \"#utility.yul\":10151:10156   */\n      dup2\n        /* \"#utility.yul\":10126:10157   */\n      tag_232\n      jump\t// in\n    tag_372:\n        /* \"#utility.yul\":10024:10163   */\n      swap3\n      swap2\n      pop\n      pop\n      jump\t// out\n        /* \"#utility.yul\":10169:10516   */\n    tag_59:\n        /* \"#utility.yul\":10237:10243   */\n      0x00\n        /* \"#utility.yul\":10286:10288   */\n      0x20\n        /* \"#utility.yul\":10274:10283   */\n      dup3\n        /* \"#utility.yul\":10265:10272   */\n      dup5\n        /* \"#utility.yul\":10261:10284   */\n      sub\n        /* \"#utility.yul\":10257:10289   */\n      slt\n        /* \"#utility.yul\":10254:10373   */\n      iszero\n      tag_374\n      jumpi\n        /* \"#utility.yul\":10292:10371   */\n      tag_375\n      tag_197\n      jump\t// in\n    tag_375:\n        /* \"#utility.yul\":10254:10373   */\n    tag_374:\n        /* \"#utility.yul\":10412:10413   */\n      0x00\n        /* \"#utility.yul\":10437:10499   */\n      tag_376\n        /* \"#utility.yul\":10491:10498   */\n      dup5\n        /* \"#utility.yul\":10482:10488   */\n      dup3\n        /* \"#utility.yul\":10471:10480   */\n      dup6\n        /* \"#utility.yul\":10467:10489   */\n      add\n        /* \"#utility.yul\":10437:10499   */\n      tag_233\n      jump\t// in\n    tag_376:\n        /* \"#utility.yul\":10427:10499   */\n      swap2\n      pop\n        /* \"#utility.yul\":10383:10509   */\n      pop\n        /* \"#utility.yul\":10169:10516   */\n      swap3\n      swap2\n      pop\n      pop\n      jump\t// out\n        /* \"#utility.yul\":10522:10702   */\n    tag_234:\n        /* \"#utility.yul\":10570:10647   */\n      0x4e487b7100000000000000000000000000000000000000000000000000000000\n        /* \"#utility.yul\":10567:10568   */\n      0x00\n        /* \"#utility.yul\":10560:10648   */\n      mstore\n        /* \"#utility.yul\":10667:10671   */\n      0x11\n        /* \"#utility.yul\":10664:10665   */\n      0x04\n        /* \"#utility.yul\":10657:10672   */\n      mstore\n        /* \"#utility.yul\":10691:10695   */\n      0x24\n        /* \"#utility.yul\":10688:10689   */\n      0x00\n        /* \"#utility.yul\":10681:10696   */\n      revert\n        /* \"#utility.yul\":10708:10810   */\n    tag_235:\n        /* \"#utility.yul\":10750:10758   */\n      0x00\n        /* \"#utility.yul\":10797:10802   */\n      dup2\n        /* \"#utility.yul\":10794:10795   */\n      0x01\n        /* \"#utility.yul\":10790:10803   */\n      shr\n        /* \"#utility.yul\":10769:10803   */\n      swap1\n      pop\n        /* \"#utility.yul\":10708:10810   */\n      swap2\n      swap1\n      pop\n      jump\t// out\n        /* \"#utility.yul\":10816:11664   */\n    tag_236:\n        /* \"#utility.yul\":10877:10882   */\n      0x00\n        /* \"#utility.yul\":10884:10888   */\n      dup1\n        /* \"#utility.yul\":10908:10914   */\n      dup3\n        /* \"#utility.yul\":10899:10914   */\n      swap2\n      pop\n        /* \"#utility.yul\":10932:10937   */\n      dup4\n        /* \"#utility.yul\":10923:10937   */\n      swap1\n      pop\n        /* \"#utility.yul\":10946:11658   */\n    tag_380:\n        /* \"#utility.yul\":10967:10968   */\n      0x01\n        /* \"#utility.yul\":10957:10965   */\n      dup6\n        /* \"#utility.yul\":10954:10969   */\n      gt\n        /* \"#utility.yul\":10946:11658   */\n      iszero\n      tag_382\n      jumpi\n        /* \"#utility.yul\":11062:11066   */\n      dup1\n        /* \"#utility.yul\":11057:11060   */\n      dup7\n        /* \"#utility.yul\":11053:11067   */\n      div\n        /* \"#utility.yul\":11047:11051   */\n      dup2\n        /* \"#utility.yul\":11044:11068   */\n      gt\n        /* \"#utility.yul\":11041:11091   */\n      iszero\n      tag_383\n      jumpi\n        /* \"#utility.yul\":11071:11089   */\n      tag_384\n      tag_234\n      jump\t// in\n    tag_384:\n        /* \"#utility.yul\":11041:11091   */\n    tag_383:\n        /* \"#utility.yul\":11121:11122   */\n      0x01\n        /* \"#utility.yul\":11111:11119   */\n      dup6\n        /* \"#utility.yul\":11107:11123   */\n      and\n        /* \"#utility.yul\":11104:11555   */\n      iszero\n      tag_385\n      jumpi\n        /* \"#utility.yul\":11536:11540   */\n      dup1\n        /* \"#utility.yul\":11529:11534   */\n      dup3\n        /* \"#utility.yul\":11525:11541   */\n      mul\n        /* \"#utility.yul\":11516:11541   */\n      swap2\n      pop\n        /* \"#utility.yul\":11104:11555   */\n    tag_385:\n        /* \"#utility.yul\":11586:11590   */\n      dup1\n        /* \"#utility.yul\":11580:11584   */\n      dup2\n        /* \"#utility.yul\":11576:11591   */\n      mul\n        /* \"#utility.yul\":11568:11591   */\n      swap1\n      pop\n        /* \"#utility.yul\":11616:11648   */\n      tag_386\n        /* \"#utility.yul\":11639:11647   */\n      dup6\n        /* \"#utility.yul\":11616:11648   */\n      tag_235\n      jump\t// in\n    tag_386:\n        /* \"#utility.yul\":11604:11648   */\n      swap5\n      pop\n        /* \"#utility.yul\":10946:11658   */\n      jump(tag_380)\n    tag_382:\n        /* \"#utility.yul\":10816:11664   */\n      swap5\n      pop\n      swap5\n      swap3\n      pop\n      pop\n      pop\n      jump\t// out\n        /* \"#utility.yul\":11670:12743   */\n    tag_237:\n        /* \"#utility.yul\":11724:11729   */\n      0x00\n        /* \"#utility.yul\":11915:11923   */\n      dup3\n        /* \"#utility.yul\":11905:11945   */\n      tag_388\n      jumpi\n        /* \"#utility.yul\":11936:11937   */\n      0x01\n        /* \"#utility.yul\":11927:11937   */\n      swap1\n      pop\n        /* \"#utility.yul\":11938:11943   */\n      jump(tag_387)\n        /* \"#utility.yul\":11905:11945   */\n    tag_388:\n        /* \"#utility.yul\":11964:11968   */\n      dup2\n        /* \"#utility.yul\":11954:11990   */\n      tag_389\n      jumpi\n        /* \"#utility.yul\":11981:11982   */\n      0x00\n        /* \"#utility.yul\":11972:11982   */\n      swap1\n      pop\n        /* \"#utility.yul\":11983:11988   */\n      jump(tag_387)\n        /* \"#utility.yul\":11954:11990   */\n    tag_389:\n        /* \"#utility.yul\":12050:12054   */\n      dup2\n        /* \"#utility.yul\":12098:12099   */\n      0x01\n        /* \"#utility.yul\":12093:12120   */\n      dup2\n      eq\n      tag_391\n      jumpi\n        /* \"#utility.yul\":12134:12135   */\n      0x02\n        /* \"#utility.yul\":12129:12320   */\n      dup2\n      eq\n      tag_392\n      jumpi\n        /* \"#utility.yul\":12043:12320   */\n      jump(tag_390)\n        /* \"#utility.yul\":12093:12120   */\n    tag_391:\n        /* \"#utility.yul\":12111:12112   */\n      0x01\n        /* \"#utility.yul\":12102:12112   */\n      swap2\n      pop\n        /* \"#utility.yul\":12113:12118   */\n      pop\n      jump(tag_387)\n        /* \"#utility.yul\":12129:12320   */\n    tag_392:\n        /* \"#utility.yul\":12174:12177   */\n      0xff\n        /* \"#utility.yul\":12164:12172   */\n      dup5\n        /* \"#utility.yul\":12161:12178   */\n      gt\n        /* \"#utility.yul\":12158:12201   */\n      iszero\n      tag_393\n      jumpi\n        /* \"#utility.yul\":12181:12199   */\n      tag_394\n      tag_234\n      jump\t// in\n    tag_394:\n        /* \"#utility.yul\":12158:12201   */\n    tag_393:\n        /* \"#utility.yul\":12230:12238   */\n      dup4\n        /* \"#utility.yul\":12227:12228   */\n      0x02\n        /* \"#utility.yul\":12223:12239   */\n      exp\n        /* \"#utility.yul\":12214:12239   */\n      swap2\n      pop\n        /* \"#utility.yul\":12265:12268   */\n      dup5\n        /* \"#utility.yul\":12258:12263   */\n      dup3\n        /* \"#utility.yul\":12255:12269   */\n      gt\n        /* \"#utility.yul\":12252:12292   */\n      iszero\n      tag_395\n      jumpi\n        /* \"#utility.yul\":12272:12290   */\n      tag_396\n      tag_234\n      jump\t// in\n    tag_396:\n        /* \"#utility.yul\":12252:12292   */\n    tag_395:\n        /* \"#utility.yul\":12305:12310   */\n      pop\n      jump(tag_387)\n        /* \"#utility.yul\":12043:12320   */\n    tag_390:\n      pop\n        /* \"#utility.yul\":12429:12431   */\n      0x20\n        /* \"#utility.yul\":12419:12427   */\n      dup4\n        /* \"#utility.yul\":12416:12432   */\n      lt\n        /* \"#utility.yul\":12410:12413   */\n      0x0133\n        /* \"#utility.yul\":12404:12408   */\n      dup4\n        /* \"#utility.yul\":12401:12414   */\n      lt\n        /* \"#utility.yul\":12397:12433   */\n      and\n        /* \"#utility.yul\":12379:12381   */\n      0x4e\n        /* \"#utility.yul\":12369:12377   */\n      dup5\n        /* \"#utility.yul\":12366:12382   */\n      lt\n        /* \"#utility.yul\":12361:12363   */\n      0x0b\n        /* \"#utility.yul\":12355:12359   */\n      dup5\n        /* \"#utility.yul\":12352:12364   */\n      lt\n        /* \"#utility.yul\":12348:12383   */\n      and\n        /* \"#utility.yul\":12332:12443   */\n      or\n        /* \"#utility.yul\":12329:12575   */\n      iszero\n      tag_397\n      jumpi\n        /* \"#utility.yul\":12485:12493   */\n      dup3\n        /* \"#utility.yul\":12479:12483   */\n      dup3\n        /* \"#utility.yul\":12475:12494   */\n      exp\n        /* \"#utility.yul\":12466:12494   */\n      swap1\n      pop\n        /* \"#utility.yul\":12520:12523   */\n      dup4\n        /* \"#utility.yul\":12513:12518   */\n      dup2\n        /* \"#utility.yul\":12510:12524   */\n      gt\n        /* \"#utility.yul\":12507:12547   */\n      iszero\n      tag_398\n      jumpi\n        /* \"#utility.yul\":12527:12545   */\n      tag_399\n      tag_234\n      jump\t// in\n    tag_399:\n        /* \"#utility.yul\":12507:12547   */\n    tag_398:\n        /* \"#utility.yul\":12560:12565   */\n      jump(tag_387)\n        /* \"#utility.yul\":12329:12575   */\n    tag_397:\n        /* \"#utility.yul\":12600:12642   */\n      tag_400\n        /* \"#utility.yul\":12638:12641   */\n      dup5\n        /* \"#utility.yul\":12628:12636   */\n      dup5\n        /* \"#utility.yul\":12622:12626   */\n      dup5\n        /* \"#utility.yul\":12619:12620   */\n      0x01\n        /* \"#utility.yul\":12600:12642   */\n      tag_236\n      jump\t// in\n    tag_400:\n        /* \"#utility.yul\":12585:12642   */\n      swap3\n      pop\n      swap1\n      pop\n        /* \"#utility.yul\":12674:12678   */\n      dup2\n        /* \"#utility.yul\":12669:12672   */\n      dup5\n        /* \"#utility.yul\":12665:12679   */\n      div\n        /* \"#utility.yul\":12658:12663   */\n      dup2\n        /* \"#utility.yul\":12655:12680   */\n      gt\n        /* \"#utility.yul\":12652:12703   */\n      iszero\n      tag_401\n      jumpi\n        /* \"#utility.yul\":12683:12701   */\n      tag_402\n      tag_234\n      jump\t// in\n    tag_402:\n        /* \"#utility.yul\":12652:12703   */\n    tag_401:\n        /* \"#utility.yul\":12732:12736   */\n      dup2\n        /* \"#utility.yul\":12725:12730   */\n      dup2\n        /* \"#utility.yul\":12721:12737   */\n      mul\n        /* \"#utility.yul\":12712:12737   */\n      swap1\n      pop\n        /* \"#utility.yul\":11670:12743   */\n    tag_387:\n      swap4\n      swap3\n      pop\n      pop\n      pop\n      jump\t// out\n        /* \"#utility.yul\":12749:13030   */\n    tag_61:\n        /* \"#utility.yul\":12807:12812   */\n      0x00\n        /* \"#utility.yul\":12831:12854   */\n      tag_404\n        /* \"#utility.yul\":12849:12853   */\n      dup3\n        /* \"#utility.yul\":12831:12854   */\n      tag_218\n      jump\t// in\n    tag_404:\n        /* \"#utility.yul\":12823:12854   */\n      swap2\n      pop\n        /* \"#utility.yul\":12875:12900   */\n      tag_405\n        /* \"#utility.yul\":12891:12899   */\n      dup4\n        /* \"#utility.yul\":12875:12900   */\n      tag_231\n      jump\t// in\n    tag_405:\n        /* \"#utility.yul\":12863:12900   */\n      swap3\n      pop\n        /* \"#utility.yul\":12919:13023   */\n      tag_406\n        /* \"#utility.yul\":12956:13022   */\n      0xffffffffffffffffffffffffffffffffffffffffffffffffffffffffffffffff\n        /* \"#utility.yul\":12946:12954   */\n      dup5\n        /* \"#utility.yul\":12940:12944   */\n      dup5\n        /* \"#utility.yul\":12919:13023   */\n      tag_237\n      jump\t// in\n    tag_406:\n        /* \"#utility.yul\":12910:13023   */\n      swap1\n      pop\n        /* \"#utility.yul\":12749:13030   */\n      swap3\n      swap2\n      pop\n      pop\n      jump\t// out\n        /* \"#utility.yul\":13036:13446   */\n    tag_65:\n        /* \"#utility.yul\":13076:13083   */\n      0x00\n        /* \"#utility.yul\":13099:13119   */\n      tag_408\n        /* \"#utility.yul\":13117:13118   */\n      dup3\n        /* \"#utility.yul\":13099:13119   */\n      tag_218\n      jump\t// in\n    tag_408:\n        /* \"#utility.yul\":13094:13119   */\n      swap2\n      pop\n        /* \"#utility.yul\":13133:13153   */\n      tag_409\n        /* \"#utility.yul\":13151:13152   */\n      dup4\n        /* \"#utility.yul\":13133:13153   */\n      tag_218\n      jump\t// in\n    tag_409:\n        /* \"#utility.yul\":13128:13153   */\n      swap3\n      pop\n        /* \"#utility.yul\":13188:13189   */\n      dup3\n        /* \"#utility.yul\":13185:13186   */\n      dup3\n        /* \"#utility.yul\":13181:13190   */\n      mul\n        /* \"#utility.yul\":13210:13240   */\n      tag_410\n        /* \"#utility.yul\":13228:13239   */\n      dup2\n        /* \"#utility.yul\":13210:13240   */\n      tag_218\n      jump\t// in\n    tag_410:\n        /* \"#utility.yul\":13199:13240   */\n      swap2\n      pop\n        /* \"#utility.yul\":13389:13390   */\n      dup3\n        /* \"#utility.yul\":13380:13387   */\n      dup3\n        /* \"#utility.yul\":13376:13391   */\n      div\n        /* \"#utility.yul\":13373:13374   */\n      dup5\n        /* \"#utility.yul\":13370:13392   */\n      eq\n        /* \"#utility.yul\":13350:13351   */\n      dup4\n        /* \"#utility.yul\":13343:13352   */\n      iszero\n        /* \"#utility.yul\":13323:13406   */\n      or\n        /* \"#utility.yul\":13300:13439   */\n      tag_411\n      jumpi\n        /* \"#utility.yul\":13419:13437   */\n      tag_412\n      tag_234\n      jump\t// in\n    tag_412:\n        /* \"#utility.yul\":13300:13439   */\n    tag_411:\n        /* \"#utility.yul\":13084:13446   */\n      pop\n        /* \"#utility.yul\":13036:13446   */\n      swap3\n      swap2\n      pop\n      pop\n      jump\t// out\n        /* \"#utility.yul\":13452:13658   */\n    tag_81:\n        /* \"#utility.yul\":13491:13495   */\n      0x00\n        /* \"#utility.yul\":13511:13530   */\n      tag_414\n        /* \"#utility.yul\":13528:13529   */\n      dup3\n        /* \"#utility.yul\":13511:13530   */\n      tag_206\n      jump\t// in\n    tag_414:\n        /* \"#utility.yul\":13506:13530   */\n      swap2\n      pop\n        /* \"#utility.yul\":13544:13563   */\n      tag_415\n        /* \"#utility.yul\":13561:13562   */\n      dup4\n        /* \"#utility.yul\":13544:13563   */\n      tag_206\n      jump\t// in\n    tag_415:\n        /* \"#utility.yul\":13539:13563   */\n      swap3\n      pop\n        /* \"#utility.yul\":13587:13588   */\n      dup3\n        /* \"#utility.yul\":13584:13585   */\n      dup3\n        /* \"#utility.yul\":13580:13589   */\n      sub\n        /* \"#utility.yul\":13572:13589   */\n      swap1\n      pop\n        /* \"#utility.yul\":13611:13627   */\n      0xffffffffffffff\n        /* \"#utility.yul\":13605:13609   */\n      dup2\n        /* \"#utility.yul\":13602:13628   */\n      gt\n        /* \"#utility.yul\":13599:13651   */\n      iszero\n      tag_416\n      jumpi\n        /* \"#utility.yul\":13631:13649   */\n      tag_417\n      tag_234\n      jump\t// in\n    tag_417:\n        /* \"#utility.yul\":13599:13651   */\n    tag_416:\n        /* \"#utility.yul\":13452:13658   */\n      swap3\n      swap2\n      pop\n      pop\n      jump\t// out\n        /* \"#utility.yul\":13664:13782   */\n    tag_238:\n        /* \"#utility.yul\":13751:13775   */\n      tag_419\n        /* \"#utility.yul\":13769:13774   */\n      dup2\n        /* \"#utility.yul\":13751:13775   */\n      tag_218\n      jump\t// in\n    tag_419:\n        /* \"#utility.yul\":13746:13749   */\n      dup3\n        /* \"#utility.yul\":13739:13776   */\n      mstore\n        /* \"#utility.yul\":13664:13782   */\n      pop\n      pop\n      jump\t// out\n        /* \"#utility.yul\":13788:14120   */\n    tag_86:\n        /* \"#utility.yul\":13909:13913   */\n      0x00\n        /* \"#utility.yul\":13947:13949   */\n      0x40\n        /* \"#utility.yul\":13936:13945   */\n      dup3\n        /* \"#utility.yul\":13932:13950   */\n      add\n        /* \"#utility.yul\":13924:13950   */\n      swap1\n      pop\n        /* \"#utility.yul\":13960:14031   */\n      tag_421\n        /* \"#utility.yul\":14028:14029   */\n      0x00\n        /* \"#utility.yul\":14017:14026   */\n      dup4\n        /* \"#utility.yul\":14013:14030   */\n      add\n        /* \"#utility.yul\":14004:14010   */\n      dup6\n        /* \"#utility.yul\":13960:14031   */\n      tag_209\n      jump\t// in\n    tag_421:\n        /* \"#utility.yul\":14041:14113   */\n      tag_422\n        /* \"#utility.yul\":14109:14111   */\n      0x20\n        /* \"#utility.yul\":14098:14107   */\n      dup4\n        /* \"#utility.yul\":14094:14112   */\n      add\n        /* \"#utility.yul\":14085:14091   */\n      dup5\n        /* \"#utility.yul\":14041:14113   */\n      tag_238\n      jump\t// in\n    tag_422:\n        /* \"#utility.yul\":13788:14120   */\n      swap4\n      swap3\n      pop\n      pop\n      pop\n      jump\t// out\n        /* \"#utility.yul\":14126:14216   */\n    tag_239:\n        /* \"#utility.yul\":14160:14167   */\n      0x00\n        /* \"#utility.yul\":14203:14208   */\n      dup2\n        /* \"#utility.yul\":14196:14209   */\n      iszero\n        /* \"#utility.yul\":14189:14210   */\n      iszero\n        /* \"#utility.yul\":14178:14210   */\n      swap1\n      pop\n        /* \"#utility.yul\":14126:14216   */\n      swap2\n      swap1\n      pop\n      jump\t// out\n        /* \"#utility.yul\":14222:14338   */\n    tag_240:\n        /* \"#utility.yul\":14292:14313   */\n      tag_425\n        /* \"#utility.yul\":14307:14312   */\n      dup2\n        /* \"#utility.yul\":14292:14313   */\n      tag_239\n      jump\t// in\n    tag_425:\n        /* \"#utility.yul\":14285:14290   */\n      dup2\n        /* \"#utility.yul\":14282:14314   */\n      eq\n        /* \"#utility.yul\":14272:14332   */\n      tag_426\n      jumpi\n        /* \"#utility.yul\":14328:14329   */\n      0x00\n        /* \"#utility.yul\":14325:14326   */\n      dup1\n        /* \"#utility.yul\":14318:14330   */\n      revert\n        /* \"#utility.yul\":14272:14332   */\n    tag_426:\n        /* \"#utility.yul\":14222:14338   */\n      pop\n      jump\t// out\n        /* \"#utility.yul\":14344:14481   */\n    tag_241:\n        /* \"#utility.yul\":14398:14403   */\n      0x00\n        /* \"#utility.yul\":14429:14435   */\n      dup2\n        /* \"#utility.yul\":14423:14436   */\n      mload\n        /* \"#utility.yul\":14414:14436   */\n      swap1\n      pop\n        /* \"#utility.yul\":14445:14475   */\n      tag_428\n        /* \"#utility.yul\":14469:14474   */\n      dup2\n        /* \"#utility.yul\":14445:14475   */\n      tag_240\n      jump\t// in\n    tag_428:\n        /* \"#utility.yul\":14344:14481   */\n      swap3\n      swap2\n      pop\n      pop\n      jump\t// out\n        /* \"#utility.yul\":14487:14832   */\n    tag_90:\n        /* \"#utility.yul\":14554:14560   */\n      0x00\n        /* \"#utility.yul\":14603:14605   */\n      0x20\n        /* \"#utility.yul\":14591:14600   */\n      dup3\n        /* \"#utility.yul\":14582:14589   */\n      dup5\n        /* \"#utility.yul\":14578:14601   */\n      sub\n        /* \"#utility.yul\":14574:14606   */\n      slt\n        /* \"#utility.yul\":14571:14690   */\n      iszero\n      tag_430\n      jumpi\n        /* \"#utility.yul\":14609:14688   */\n      tag_431\n      tag_197\n      jump\t// in\n    tag_431:\n        /* \"#utility.yul\":14571:14690   */\n    tag_430:\n        /* \"#utility.yul\":14729:14730   */\n      0x00\n        /* \"#utility.yul\":14754:14815   */\n      tag_432\n        /* \"#utility.yul\":14807:14814   */\n      dup5\n        /* \"#utility.yul\":14798:14804   */\n      dup3\n        /* \"#utility.yul\":14787:14796   */\n      dup6\n        /* \"#utility.yul\":14783:14805   */\n      add\n        /* \"#utility.yul\":14754:14815   */\n      tag_241\n      jump\t// in\n    tag_432:\n        /* \"#utility.yul\":14744:14815   */\n      swap2\n      pop\n        /* \"#utility.yul\":14700:14825   */\n      pop\n        /* \"#utility.yul\":14487:14832   */\n      swap3\n      swap2\n      pop\n      pop\n      jump\t// out\n        /* \"#utility.yul\":14838:14923   */\n    tag_242:\n        /* \"#utility.yul\":14883:14890   */\n      0x00\n        /* \"#utility.yul\":14912:14917   */\n      dup2\n        /* \"#utility.yul\":14901:14917   */\n      swap1\n      pop\n        /* \"#utility.yul\":14838:14923   */\n      swap2\n      swap1\n      pop\n      jump\t// out\n        /* \"#utility.yul\":14929:15018   */\n    tag_243:\n        /* \"#utility.yul\":14965:14972   */\n      0x00\n        /* \"#utility.yul\":15005:15011   */\n      0xffff\n        /* \"#utility.yul\":14998:15003   */\n      dup3\n        /* \"#utility.yul\":14994:15012   */\n      and\n        /* \"#utility.yul\":14983:15012   */\n      swap1\n      pop\n        /* \"#utility.yul\":14929:15018   */\n      swap2\n      swap1\n      pop\n      jump\t// out\n        /* \"#utility.yul\":15024:15084   */\n    tag_244:\n        /* \"#utility.yul\":15052:15055   */\n      0x00\n        /* \"#utility.yul\":15073:15078   */\n      dup2\n        /* \"#utility.yul\":15066:15078   */\n      swap1\n      pop\n        /* \"#utility.yul\":15024:15084   */\n      swap2\n      swap1\n      pop\n      jump\t// out\n        /* \"#utility.yul\":15090:15246   */\n    tag_245:\n        /* \"#utility.yul\":15147:15156   */\n      0x00\n        /* \"#utility.yul\":15180:15240   */\n      tag_437\n        /* \"#utility.yul\":15197:15239   */\n      tag_438\n        /* \"#utility.yul\":15206:15238   */\n      tag_439\n        /* \"#utility.yul\":15232:15237   */\n      dup5\n        /* \"#utility.yul\":15206:15238   */\n      tag_242\n      jump\t// in\n    tag_439:\n        /* \"#utility.yul\":15197:15239   */\n      tag_244\n      jump\t// in\n    tag_438:\n        /* \"#utility.yul\":15180:15240   */\n      tag_243\n      jump\t// in\n    tag_437:\n        /* \"#utility.yul\":15167:15240   */\n      swap1\n      pop\n        /* \"#utility.yul\":15090:15246   */\n      swap2\n      swap1\n      pop\n      jump\t// out\n        /* \"#utility.yul\":15252:15397   */\n    tag_246:\n        /* \"#utility.yul\":15346:15390   */\n      tag_441\n        /* \"#utility.yul\":15384:15389   */\n      dup2\n        /* \"#utility.yul\":15346:15390   */\n      tag_245\n      jump\t// in\n    tag_441:\n        /* \"#utility.yul\":15341:15344   */\n      dup3\n        /* \"#utility.yul\":15334:15391   */\n      mstore\n        /* \"#utility.yul\":15252:15397   */\n      pop\n      pop\n      jump\t// out\n        /* \"#utility.yul\":15403:15970   */\n    tag_92:\n        /* \"#utility.yul\":15587:15591   */\n      0x00\n        /* \"#utility.yul\":15625:15628   */\n      0x80\n        /* \"#utility.yul\":15614:15623   */\n      dup3\n        /* \"#utility.yul\":15610:15629   */\n      add\n        /* \"#utility.yul\":15602:15629   */\n      swap1\n      pop\n        /* \"#utility.yul\":15639:15710   */\n      tag_443\n        /* \"#utility.yul\":15707:15708   */\n      0x00\n        /* \"#utility.yul\":15696:15705   */\n      dup4\n        /* \"#utility.yul\":15692:15709   */\n      add\n        /* \"#utility.yul\":15683:15689   */\n      dup8\n        /* \"#utility.yul\":15639:15710   */\n      tag_209\n      jump\t// in\n    tag_443:\n        /* \"#utility.yul\":15720:15792   */\n      tag_444\n        /* \"#utility.yul\":15788:15790   */\n      0x20\n        /* \"#utility.yul\":15777:15786   */\n      dup4\n        /* \"#utility.yul\":15773:15791   */\n      add\n        /* \"#utility.yul\":15764:15770   */\n      dup7\n        /* \"#utility.yul\":15720:15792   */\n      tag_238\n      jump\t// in\n    tag_444:\n        /* \"#utility.yul\":15802:15874   */\n      tag_445\n        /* \"#utility.yul\":15870:15872   */\n      0x40\n        /* \"#utility.yul\":15859:15868   */\n      dup4\n        /* \"#utility.yul\":15855:15873   */\n      add\n        /* \"#utility.yul\":15846:15852   */\n      dup6\n        /* \"#utility.yul\":15802:15874   */\n      tag_209\n      jump\t// in\n    tag_445:\n        /* \"#utility.yul\":15884:15963   */\n      tag_446\n        /* \"#utility.yul\":15959:15961   */\n      0x60\n        /* \"#utility.yul\":15948:15957   */\n      dup4\n        /* \"#utility.yul\":15944:15962   */\n      add\n        /* \"#utility.yul\":15935:15941   */\n      dup5\n        /* \"#utility.yul\":15884:15963   */\n      tag_246\n      jump\t// in\n    tag_446:\n        /* \"#utility.yul\":15403:15970   */\n      swap6\n      swap5\n      pop\n      pop\n      pop\n      pop\n      pop\n      jump\t// out\n        /* \"#utility.yul\":15976:16167   */\n    tag_99:\n        /* \"#utility.yul\":16016:16019   */\n      0x00\n        /* \"#utility.yul\":16035:16055   */\n      tag_448\n        /* \"#utility.yul\":16053:16054   */\n      dup3\n        /* \"#utility.yul\":16035:16055   */\n      tag_218\n      jump\t// in\n    tag_448:\n        /* \"#utility.yul\":16030:16055   */\n      swap2\n      pop\n        /* \"#utility.yul\":16069:16089   */\n      tag_449\n        /* \"#utility.yul\":16087:16088   */\n      dup4\n        /* \"#utility.yul\":16069:16089   */\n      tag_218\n      jump\t// in\n    tag_449:\n        /* \"#utility.yul\":16064:16089   */\n      swap3\n      pop\n        /* \"#utility.yul\":16112:16113   */\n      dup3\n        /* \"#utility.yul\":16109:16110   */\n      dup3\n        /* \"#utility.yul\":16105:16114   */\n      add\n        /* \"#utility.yul\":16098:16114   */\n      swap1\n      pop\n        /* \"#utility.yul\":16133:16136   */\n      dup1\n        /* \"#utility.yul\":16130:16131   */\n      dup3\n        /* \"#utility.yul\":16127:16137   */\n      gt\n        /* \"#utility.yul\":16124:16160   */\n      iszero\n      tag_450\n      jumpi\n        /* \"#utility.yul\":16140:16158   */\n      tag_451\n      tag_234\n      jump\t// in\n    tag_451:\n        /* \"#utility.yul\":16124:16160   */\n    tag_450:\n        /* \"#utility.yul\":15976:16167   */\n      swap3\n      swap2\n      pop\n      pop\n      jump\t// out\n        /* \"#utility.yul\":16173:16348   */\n    tag_101:\n        /* \"#utility.yul\":16211:16214   */\n      0x00\n        /* \"#utility.yul\":16234:16257   */\n      tag_453\n        /* \"#utility.yul\":16251:16256   */\n      dup3\n        /* \"#utility.yul\":16234:16257   */\n      tag_199\n      jump\t// in\n    tag_453:\n        /* \"#utility.yul\":16225:16257   */\n      swap2\n      pop\n        /* \"#utility.yul\":16279:16289   */\n      0xffffffff\n        /* \"#utility.yul\":16272:16277   */\n      dup3\n        /* \"#utility.yul\":16269:16290   */\n      sub\n        /* \"#utility.yul\":16266:16313   */\n      tag_454\n      jumpi\n        /* \"#utility.yul\":16293:16311   */\n      tag_455\n      tag_234\n      jump\t// in\n    tag_455:\n        /* \"#utility.yul\":16266:16313   */\n    tag_454:\n        /* \"#utility.yul\":16340:16341   */\n      0x01\n        /* \"#utility.yul\":16333:16338   */\n      dup3\n        /* \"#utility.yul\":16329:16342   */\n      add\n        /* \"#utility.yul\":16322:16342   */\n      swap1\n      pop\n        /* \"#utility.yul\":16173:16348   */\n      swap2\n      swap1\n      pop\n      jump\t// out\n        /* \"#utility.yul\":16354:16515   */\n    tag_247:\n        /* \"#utility.yul\":16494:16507   */\n      0x5472616465206572726f72000000000000000000000000000000000000000000\n        /* \"#utility.yul\":16490:16491   */\n      0x00\n        /* \"#utility.yul\":16482:16488   */\n      dup3\n        /* \"#utility.yul\":16478:16492   */\n      add\n        /* \"#utility.yul\":16471:16508   */\n      mstore\n        /* \"#utility.yul\":16354:16515   */\n      pop\n      jump\t// out\n        /* \"#utility.yul\":16521:16887   */\n    tag_248:\n        /* \"#utility.yul\":16663:16666   */\n      0x00\n        /* \"#utility.yul\":16684:16751   */\n      tag_458\n        /* \"#utility.yul\":16748:16750   */\n      0x0b\n        /* \"#utility.yul\":16743:16746   */\n      dup4\n        /* \"#utility.yul\":16684:16751   */\n      tag_228\n      jump\t// in\n    tag_458:\n        /* \"#utility.yul\":16677:16751   */\n      swap2\n      pop\n        /* \"#utility.yul\":16760:16853   */\n      tag_459\n        /* \"#utility.yul\":16849:16852   */\n      dup3\n        /* \"#utility.yul\":16760:16853   */\n      tag_247\n      jump\t// in\n    tag_459:\n        /* \"#utility.yul\":16878:16880   */\n      0x20\n        /* \"#utility.yul\":16873:16876   */\n      dup3\n        /* \"#utility.yul\":16869:16881   */\n      add\n        /* \"#utility.yul\":16862:16881   */\n      swap1\n      pop\n        /* \"#utility.yul\":16521:16887   */\n      swap2\n      swap1\n      pop\n      jump\t// out\n        /* \"#utility.yul\":16893:17312   */\n    tag_132:\n        /* \"#utility.yul\":17059:17063   */\n      0x00\n        /* \"#utility.yul\":17097:17099   */\n      0x20\n        /* \"#utility.yul\":17086:17095   */\n      dup3\n        /* \"#utility.yul\":17082:17100   */\n      add\n        /* \"#utility.yul\":17074:17100   */\n      swap1\n      pop\n        /* \"#utility.yul\":17146:17155   */\n      dup2\n        /* \"#utility.yul\":17140:17144   */\n      dup2\n        /* \"#utility.yul\":17136:17156   */\n      sub\n        /* \"#utility.yul\":17132:17133   */\n      0x00\n        /* \"#utility.yul\":17121:17130   */\n      dup4\n        /* \"#utility.yul\":17117:17134   */\n      add\n        /* \"#utility.yul\":17110:17157   */\n      mstore\n        /* \"#utility.yul\":17174:17305   */\n      tag_461\n        /* \"#utility.yul\":17300:17304   */\n      dup2\n        /* \"#utility.yul\":17174:17305   */\n      tag_248\n      jump\t// in\n    tag_461:\n        /* \"#utility.yul\":17166:17305   */\n      swap1\n      pop\n        /* \"#utility.yul\":16893:17312   */\n      swap2\n      swap1\n      pop\n      jump\t// out\n        /* \"#utility.yul\":17318:17597   */\n    tag_146:\n        /* \"#utility.yul\":17358:17365   */\n      0x00\n        /* \"#utility.yul\":17381:17401   */\n      tag_463\n        /* \"#utility.yul\":17399:17400   */\n      dup3\n        /* \"#utility.yul\":17381:17401   */\n      tag_210\n      jump\t// in\n    tag_463:\n        /* \"#utility.yul\":17376:17401   */\n      swap2\n      pop\n        /* \"#utility.yul\":17415:17435   */\n      tag_464\n        /* \"#utility.yul\":17433:17434   */\n      dup4\n        /* \"#utility.yul\":17415:17435   */\n      tag_210\n      jump\t// in\n    tag_464:\n        /* \"#utility.yul\":17410:17435   */\n      swap3\n      pop\n        /* \"#utility.yul\":17470:17471   */\n      dup3\n        /* \"#utility.yul\":17467:17468   */\n      dup3\n        /* \"#utility.yul\":17463:17472   */\n      mul\n        /* \"#utility.yul\":17492:17522   */\n      tag_465\n        /* \"#utility.yul\":17510:17521   */\n      dup2\n        /* \"#utility.yul\":17492:17522   */\n      tag_210\n      jump\t// in\n    tag_465:\n        /* \"#utility.yul\":17481:17522   */\n      swap2\n      pop\n        /* \"#utility.yul\":17554:17565   */\n      dup1\n        /* \"#utility.yul\":17545:17552   */\n      dup3\n        /* \"#utility.yul\":17542:17566   */\n      eq\n        /* \"#utility.yul\":17532:17590   */\n      tag_466\n      jumpi\n        /* \"#utility.yul\":17570:17588   */\n      tag_467\n      tag_234\n      jump\t// in\n    tag_467:\n        /* \"#utility.yul\":17532:17590   */\n    tag_466:\n        /* \"#utility.yul\":17366:17597   */\n      pop\n        /* \"#utility.yul\":17318:17597   */\n      swap3\n      swap2\n      pop\n      pop\n      jump\t// out\n        /* \"#utility.yul\":17603:17783   */\n    tag_249:\n        /* \"#utility.yul\":17651:17728   */\n      0x4e487b7100000000000000000000000000000000000000000000000000000000\n        /* \"#utility.yul\":17648:17649   */\n      0x00\n        /* \"#utility.yul\":17641:17729   */\n      mstore\n        /* \"#utility.yul\":17748:17752   */\n      0x12\n        /* \"#utility.yul\":17745:17746   */\n      0x04\n        /* \"#utility.yul\":17738:17753   */\n      mstore\n        /* \"#utility.yul\":17772:17776   */\n      0x24\n        /* \"#utility.yul\":17769:17770   */\n      0x00\n        /* \"#utility.yul\":17762:17777   */\n      revert\n        /* \"#utility.yul\":17789:17974   */\n    tag_148:\n        /* \"#utility.yul\":17829:17830   */\n      0x00\n        /* \"#utility.yul\":17846:17866   */\n      tag_470\n        /* \"#utility.yul\":17864:17865   */\n      dup3\n        /* \"#utility.yul\":17846:17866   */\n      tag_210\n      jump\t// in\n    tag_470:\n        /* \"#utility.yul\":17841:17866   */\n      swap2\n      pop\n        /* \"#utility.yul\":17880:17900   */\n      tag_471\n        /* \"#utility.yul\":17898:17899   */\n      dup4\n        /* \"#utility.yul\":17880:17900   */\n      tag_210\n      jump\t// in\n    tag_471:\n        /* \"#utility.yul\":17875:17900   */\n      swap3\n      pop\n        /* \"#utility.yul\":17919:17920   */\n      dup3\n        /* \"#utility.yul\":17909:17944   */\n      tag_472\n      jumpi\n        /* \"#utility.yul\":17924:17942   */\n      tag_473\n      tag_249\n      jump\t// in\n    tag_473:\n        /* \"#utility.yul\":17909:17944   */\n    tag_472:\n        /* \"#utility.yul\":17966:17967   */\n      dup3\n        /* \"#utility.yul\":17963:17964   */\n      dup3\n        /* \"#utility.yul\":17959:17968   */\n      div\n        /* \"#utility.yul\":17954:17968   */\n      swap1\n      pop\n        /* \"#utility.yul\":17789:17974   */\n      swap3\n      swap2\n      pop\n      pop\n      jump\t// out\n        /* \"#utility.yul\":17980:18422   */\n    tag_153:\n        /* \"#utility.yul\":18129:18133   */\n      0x00\n        /* \"#utility.yul\":18167:18169   */\n      0x60\n        /* \"#utility.yul\":18156:18165   */\n      dup3\n        /* \"#utility.yul\":18152:18170   */\n      add\n        /* \"#utility.yul\":18144:18170   */\n      swap1\n      pop\n        /* \"#utility.yul\":18180:18251   */\n      tag_475\n        /* \"#utility.yul\":18248:18249   */\n      0x00\n        /* \"#utility.yul\":18237:18246   */\n      dup4\n        /* \"#utility.yul\":18233:18250   */\n      add\n        /* \"#utility.yul\":18224:18230   */\n      dup7\n        /* \"#utility.yul\":18180:18251   */\n      tag_209\n      jump\t// in\n    tag_475:\n        /* \"#utility.yul\":18261:18333   */\n      tag_476\n        /* \"#utility.yul\":18329:18331   */\n      0x20\n        /* \"#utility.yul\":18318:18327   */\n      dup4\n        /* \"#utility.yul\":18314:18332   */\n      add\n        /* \"#utility.yul\":18305:18311   */\n      dup6\n        /* \"#utility.yul\":18261:18333   */\n      tag_209\n      jump\t// in\n    tag_476:\n        /* \"#utility.yul\":18343:18415   */\n      tag_477\n        /* \"#utility.yul\":18411:18413   */\n      0x40\n        /* \"#utility.yul\":18400:18409   */\n      dup4\n        /* \"#utility.yul\":18396:18414   */\n      add\n        /* \"#utility.yul\":18387:18393   */\n      dup5\n        /* \"#utility.yul\":18343:18415   */\n      tag_238\n      jump\t// in\n    tag_477:\n        /* \"#utility.yul\":17980:18422   */\n      swap5\n      swap4\n      pop\n      pop\n      pop\n      pop\n      jump\t// out\n        /* \"#utility.yul\":18428:18657   */\n    tag_250:\n        /* \"#utility.yul\":18568:18602   */\n      0x5361666545524332303a204552433230206f7065726174696f6e20646964206e\n        /* \"#utility.yul\":18564:18565   */\n      0x00\n        /* \"#utility.yul\":18556:18562   */\n      dup3\n        /* \"#utility.yul\":18552:18566   */\n      add\n        /* \"#utility.yul\":18545:18603   */\n      mstore\n        /* \"#utility.yul\":18637:18649   */\n      0x6f74207375636365656400000000000000000000000000000000000000000000\n        /* \"#utility.yul\":18632:18634   */\n      0x20\n        /* \"#utility.yul\":18624:18630   */\n      dup3\n        /* \"#utility.yul\":18620:18635   */\n      add\n        /* \"#utility.yul\":18613:18650   */\n      mstore\n        /* \"#utility.yul\":18428:18657   */\n      pop\n      jump\t// out\n        /* \"#utility.yul\":18663:19029   */\n    tag_251:\n        /* \"#utility.yul\":18805:18808   */\n      0x00\n        /* \"#utility.yul\":18826:18893   */\n      tag_480\n        /* \"#utility.yul\":18890:18892   */\n      0x2a\n        /* \"#utility.yul\":18885:18888   */\n      dup4\n        /* \"#utility.yul\":18826:18893   */\n      tag_228\n      jump\t// in\n    tag_480:\n        /* \"#utility.yul\":18819:18893   */\n      swap2\n      pop\n        /* \"#utility.yul\":18902:18995   */\n      tag_481\n        /* \"#utility.yul\":18991:18994   */\n      dup3\n        /* \"#utility.yul\":18902:18995   */\n      tag_250\n      jump\t// in\n    tag_481:\n        /* \"#utility.yul\":19020:19022   */\n      0x40\n        /* \"#utility.yul\":19015:19018   */\n      dup3\n        /* \"#utility.yul\":19011:19023   */\n      add\n        /* \"#utility.yul\":19004:19023   */\n      swap1\n      pop\n        /* \"#utility.yul\":18663:19029   */\n      swap2\n      swap1\n      pop\n      jump\t// out\n        /* \"#utility.yul\":19035:19454   */\n    tag_162:\n        /* \"#utility.yul\":19201:19205   */\n      0x00\n        /* \"#utility.yul\":19239:19241   */\n      0x20\n        /* \"#utility.yul\":19228:19237   */\n      dup3\n        /* \"#utility.yul\":19224:19242   */\n      add\n        /* \"#utility.yul\":19216:19242   */\n      swap1\n      pop\n        /* \"#utility.yul\":19288:19297   */\n      dup2\n        /* \"#utility.yul\":19282:19286   */\n      dup2\n        /* \"#utility.yul\":19278:19298   */\n      sub\n        /* \"#utility.yul\":19274:19275   */\n      0x00\n        /* \"#utility.yul\":19263:19272   */\n      dup4\n        /* \"#utility.yul\":19259:19276   */\n      add\n        /* \"#utility.yul\":19252:19299   */\n      mstore\n        /* \"#utility.yul\":19316:19447   */\n      tag_483\n        /* \"#utility.yul\":19442:19446   */\n      dup2\n        /* \"#utility.yul\":19316:19447   */\n      tag_251\n      jump\t// in\n    tag_483:\n        /* \"#utility.yul\":19308:19447   */\n      swap1\n      pop\n        /* \"#utility.yul\":19035:19454   */\n      swap2\n      swap1\n      pop\n      jump\t// out\n        /* \"#utility.yul\":19460:19685   */\n    tag_252:\n        /* \"#utility.yul\":19600:19634   */\n      0x416464726573733a20696e73756666696369656e742062616c616e636520666f\n        /* \"#utility.yul\":19596:19597   */\n      0x00\n        /* \"#utility.yul\":19588:19594   */\n      dup3\n        /* \"#utility.yul\":19584:19598   */\n      add\n        /* \"#utility.yul\":19577:19635   */\n      mstore\n        /* \"#utility.yul\":19669:19677   */\n      0x722063616c6c0000000000000000000000000000000000000000000000000000\n        /* \"#utility.yul\":19664:19666   */\n      0x20\n        /* \"#utility.yul\":19656:19662   */\n      dup3\n        /* \"#utility.yul\":19652:19667   */\n      add\n        /* \"#utility.yul\":19645:19678   */\n      mstore\n        /* \"#utility.yul\":19460:19685   */\n      pop\n      jump\t// out\n        /* \"#utility.yul\":19691:20057   */\n    tag_253:\n        /* \"#utility.yul\":19833:19836   */\n      0x00\n        /* \"#utility.yul\":19854:19921   */\n      tag_486\n        /* \"#utility.yul\":19918:19920   */\n      0x26\n        /* \"#utility.yul\":19913:19916   */\n      dup4\n        /* \"#utility.yul\":19854:19921   */\n      tag_228\n      jump\t// in\n    tag_486:\n        /* \"#utility.yul\":19847:19921   */\n      swap2\n      pop\n        /* \"#utility.yul\":19930:20023   */\n      tag_487\n        /* \"#utility.yul\":20019:20022   */\n      dup3\n        /* \"#utility.yul\":19930:20023   */\n      tag_252\n      jump\t// in\n    tag_487:\n        /* \"#utility.yul\":20048:20050   */\n      0x40\n        /* \"#utility.yul\":20043:20046   */\n      dup3\n        /* \"#utility.yul\":20039:20051   */\n      add\n        /* \"#utility.yul\":20032:20051   */\n      swap1\n      pop\n        /* \"#utility.yul\":19691:20057   */\n      swap2\n      swap1\n      pop\n      jump\t// out\n        /* \"#utility.yul\":20063:20482   */\n    tag_169:\n        /* \"#utility.yul\":20229:20233   */\n      0x00\n        /* \"#utility.yul\":20267:20269   */\n      0x20\n        /* \"#utility.yul\":20256:20265   */\n      dup3\n        /* \"#utility.yul\":20252:20270   */\n      add\n        /* \"#utility.yul\":20244:20270   */\n      swap1\n      pop\n        /* \"#utility.yul\":20316:20325   */\n      dup2\n        /* \"#utility.yul\":20310:20314   */\n      dup2\n        /* \"#utility.yul\":20306:20326   */\n      sub\n        /* \"#utility.yul\":20302:20303   */\n      0x00\n        /* \"#utility.yul\":20291:20300   */\n      dup4\n        /* \"#utility.yul\":20287:20304   */\n      add\n        /* \"#utility.yul\":20280:20327   */\n      mstore\n        /* \"#utility.yul\":20344:20475   */\n      tag_489\n        /* \"#utility.yul\":20470:20474   */\n      dup2\n        /* \"#utility.yul\":20344:20475   */\n      tag_253\n      jump\t// in\n    tag_489:\n        /* \"#utility.yul\":20336:20475   */\n      swap1\n      pop\n        /* \"#utility.yul\":20063:20482   */\n      swap2\n      swap1\n      pop\n      jump\t// out\n        /* \"#utility.yul\":20488:20586   */\n    tag_254:\n        /* \"#utility.yul\":20539:20545   */\n      0x00\n        /* \"#utility.yul\":20573:20578   */\n      dup2\n        /* \"#utility.yul\":20567:20579   */\n      mload\n        /* \"#utility.yul\":20557:20579   */\n      swap1\n      pop\n        /* \"#utility.yul\":20488:20586   */\n      swap2\n      swap1\n      pop\n      jump\t// out\n        /* \"#utility.yul\":20592:20739   */\n    tag_255:\n        /* \"#utility.yul\":20693:20704   */\n      0x00\n        /* \"#utility.yul\":20730:20733   */\n      dup2\n        /* \"#utility.yul\":20715:20733   */\n      swap1\n      pop\n        /* \"#utility.yul\":20592:20739   */\n      swap3\n      swap2\n      pop\n      pop\n      jump\t// out\n        /* \"#utility.yul\":20745:20991   */\n    tag_256:\n        /* \"#utility.yul\":20826:20827   */\n      0x00\n        /* \"#utility.yul\":20836:20949   */\n    tag_493:\n        /* \"#utility.yul\":20850:20856   */\n      dup4\n        /* \"#utility.yul\":20847:20848   */\n      dup2\n        /* \"#utility.yul\":20844:20857   */\n      lt\n        /* \"#utility.yul\":20836:20949   */\n      iszero\n      tag_495\n      jumpi\n        /* \"#utility.yul\":20935:20936   */\n      dup1\n        /* \"#utility.yul\":20930:20933   */\n      dup3\n        /* \"#utility.yul\":20926:20937   */\n      add\n        /* \"#utility.yul\":20920:20938   */\n      mload\n        /* \"#utility.yul\":20916:20917   */\n      dup2\n        /* \"#utility.yul\":20911:20914   */\n      dup5\n        /* \"#utility.yul\":20907:20918   */\n      add\n        /* \"#utility.yul\":20900:20939   */\n      mstore\n        /* \"#utility.yul\":20872:20874   */\n      0x20\n        /* \"#utility.yul\":20869:20870   */\n      dup2\n        /* \"#utility.yul\":20865:20875   */\n      add\n        /* \"#utility.yul\":20860:20875   */\n      swap1\n      pop\n        /* \"#utility.yul\":20836:20949   */\n      jump(tag_493)\n    tag_495:\n        /* \"#utility.yul\":20983:20984   */\n      0x00\n        /* \"#utility.yul\":20974:20980   */\n      dup5\n        /* \"#utility.yul\":20969:20972   */\n      dup5\n        /* \"#utility.yul\":20965:20981   */\n      add\n        /* \"#utility.yul\":20958:20985   */\n      mstore\n        /* \"#utility.yul\":20807:20991   */\n      pop\n        /* \"#utility.yul\":20745:20991   */\n      pop\n      pop\n      pop\n      jump\t// out\n        /* \"#utility.yul\":20997:21383   */\n    tag_257:\n        /* \"#utility.yul\":21101:21104   */\n      0x00\n        /* \"#utility.yul\":21129:21167   */\n      tag_497\n        /* \"#utility.yul\":21161:21166   */\n      dup3\n        /* \"#utility.yul\":21129:21167   */\n      tag_254\n      jump\t// in\n    tag_497:\n        /* \"#utility.yul\":21183:21271   */\n      tag_498\n        /* \"#utility.yul\":21264:21270   */\n      dup2\n        /* \"#utility.yul\":21259:21262   */\n      dup6\n        /* \"#utility.yul\":21183:21271   */\n      tag_255\n      jump\t// in\n    tag_498:\n        /* \"#utility.yul\":21176:21271   */\n      swap4\n      pop\n        /* \"#utility.yul\":21280:21345   */\n      tag_499\n        /* \"#utility.yul\":21338:21344   */\n      dup2\n        /* \"#utility.yul\":21333:21336   */\n      dup6\n        /* \"#utility.yul\":21326:21330   */\n      0x20\n        /* \"#utility.yul\":21319:21324   */\n      dup7\n        /* \"#utility.yul\":21315:21331   */\n      add\n        /* \"#utility.yul\":21280:21345   */\n      tag_256\n      jump\t// in\n    tag_499:\n        /* \"#utility.yul\":21370:21376   */\n      dup1\n        /* \"#utility.yul\":21365:21368   */\n      dup5\n        /* \"#utility.yul\":21361:21377   */\n      add\n        /* \"#utility.yul\":21354:21377   */\n      swap2\n      pop\n        /* \"#utility.yul\":21105:21383   */\n      pop\n        /* \"#utility.yul\":20997:21383   */\n      swap3\n      swap2\n      pop\n      pop\n      jump\t// out\n        /* \"#utility.yul\":21389:21660   */\n    tag_171:\n        /* \"#utility.yul\":21519:21522   */\n      0x00\n        /* \"#utility.yul\":21541:21634   */\n      tag_501\n        /* \"#utility.yul\":21630:21633   */\n      dup3\n        /* \"#utility.yul\":21621:21627   */\n      dup5\n        /* \"#utility.yul\":21541:21634   */\n      tag_257\n      jump\t// in\n    tag_501:\n        /* \"#utility.yul\":21534:21634   */\n      swap2\n      pop\n        /* \"#utility.yul\":21651:21654   */\n      dup2\n        /* \"#utility.yul\":21644:21654   */\n      swap1\n      pop\n        /* \"#utility.yul\":21389:21660   */\n      swap3\n      swap2\n      pop\n      pop\n      jump\t// out\n        /* \"#utility.yul\":21666:21845   */\n    tag_258:\n        /* \"#utility.yul\":21806:21837   */\n      0x416464726573733a2063616c6c20746f206e6f6e2d636f6e7472616374000000\n        /* \"#utility.yul\":21802:21803   */\n      0x00\n        /* \"#utility.yul\":21794:21800   */\n      dup3\n        /* \"#utility.yul\":21790:21804   */\n      add\n        /* \"#utility.yul\":21783:21838   */\n      mstore\n        /* \"#utility.yul\":21666:21845   */\n      pop\n      jump\t// out\n        /* \"#utility.yul\":21851:22217   */\n    tag_259:\n        /* \"#utility.yul\":21993:21996   */\n      0x00\n        /* \"#utility.yul\":22014:22081   */\n      tag_504\n        /* \"#utility.yul\":22078:22080   */\n      0x1d\n        /* \"#utility.yul\":22073:22076   */\n      dup4\n        /* \"#utility.yul\":22014:22081   */\n      tag_228\n      jump\t// in\n    tag_504:\n        /* \"#utility.yul\":22007:22081   */\n      swap2\n      pop\n        /* \"#utility.yul\":22090:22183   */\n      tag_505\n        /* \"#utility.yul\":22179:22182   */\n      dup3\n        /* \"#utility.yul\":22090:22183   */\n      tag_258\n      jump\t// in\n    tag_505:\n        /* \"#utility.yul\":22208:22210   */\n      0x20\n        /* \"#utility.yul\":22203:22206   */\n      dup3\n        /* \"#utility.yul\":22199:22211   */\n      add\n        /* \"#utility.yul\":22192:22211   */\n      swap1\n      pop\n        /* \"#utility.yul\":21851:22217   */\n      swap2\n      swap1\n      pop\n      jump\t// out\n        /* \"#utility.yul\":22223:22642   */\n    tag_184:\n        /* \"#utility.yul\":22389:22393   */\n      0x00\n        /* \"#utility.yul\":22427:22429   */\n      0x20\n        /* \"#utility.yul\":22416:22425   */\n      dup3\n        /* \"#utility.yul\":22412:22430   */\n      add\n        /* \"#utility.yul\":22404:22430   */\n      swap1\n      pop\n        /* \"#utility.yul\":22476:22485   */\n      dup2\n        /* \"#utility.yul\":22470:22474   */\n      dup2\n        /* \"#utility.yul\":22466:22486   */\n      sub\n        /* \"#utility.yul\":22462:22463   */\n      0x00\n        /* \"#utility.yul\":22451:22460   */\n      dup4\n        /* \"#utility.yul\":22447:22464   */\n      add\n        /* \"#utility.yul\":22440:22487   */\n      mstore\n        /* \"#utility.yul\":22504:22635   */\n      tag_507\n        /* \"#utility.yul\":22630:22634   */\n      dup2\n        /* \"#utility.yul\":22504:22635   */\n      tag_259\n      jump\t// in\n    tag_507:\n        /* \"#utility.yul\":22496:22635   */\n      swap1\n      pop\n        /* \"#utility.yul\":22223:22642   */\n      swap2\n      swap1\n      pop\n      jump\t// out\n        /* \"#utility.yul\":22648:22747   */\n    tag_260:\n        /* \"#utility.yul\":22700:22706   */\n      0x00\n        /* \"#utility.yul\":22734:22739   */\n      dup2\n        /* \"#utility.yul\":22728:22740   */\n      mload\n        /* \"#utility.yul\":22718:22740   */\n      swap1\n      pop\n        /* \"#utility.yul\":22648:22747   */\n      swap2\n      swap1\n      pop\n      jump\t// out\n        /* \"#utility.yul\":22753:22855   */\n    tag_261:\n        /* \"#utility.yul\":22794:22800   */\n      0x00\n        /* \"#utility.yul\":22845:22847   */\n      0x1f\n        /* \"#utility.yul\":22841:22848   */\n      not\n        /* \"#utility.yul\":22836:22838   */\n      0x1f\n        /* \"#utility.yul\":22829:22834   */\n      dup4\n        /* \"#utility.yul\":22825:22839   */\n      add\n        /* \"#utility.yul\":22821:22849   */\n      and\n        /* \"#utility.yul\":22811:22849   */\n      swap1\n      pop\n        /* \"#utility.yul\":22753:22855   */\n      swap2\n      swap1\n      pop\n      jump\t// out\n        /* \"#utility.yul\":22861:23238   */\n    tag_262:\n        /* \"#utility.yul\":22949:22952   */\n      0x00\n        /* \"#utility.yul\":22977:23016   */\n      tag_511\n        /* \"#utility.yul\":23010:23015   */\n      dup3\n        /* \"#utility.yul\":22977:23016   */\n      tag_260\n      jump\t// in\n    tag_511:\n        /* \"#utility.yul\":23032:23103   */\n      tag_512\n        /* \"#utility.yul\":23096:23102   */\n      dup2\n        /* \"#utility.yul\":23091:23094   */\n      dup6\n        /* \"#utility.yul\":23032:23103   */\n      tag_228\n      jump\t// in\n    tag_512:\n        /* \"#utility.yul\":23025:23103   */\n      swap4\n      pop\n        /* \"#utility.yul\":23112:23177   */\n      tag_513\n        /* \"#utility.yul\":23170:23176   */\n      dup2\n        /* \"#utility.yul\":23165:23168   */\n      dup6\n        /* \"#utility.yul\":23158:23162   */\n      0x20\n        /* \"#utility.yul\":23151:23156   */\n      dup7\n        /* \"#utility.yul\":23147:23163   */\n      add\n        /* \"#utility.yul\":23112:23177   */\n      tag_256\n      jump\t// in\n    tag_513:\n        /* \"#utility.yul\":23202:23231   */\n      tag_514\n        /* \"#utility.yul\":23224:23230   */\n      dup2\n        /* \"#utility.yul\":23202:23231   */\n      tag_261\n      jump\t// in\n    tag_514:\n        /* \"#utility.yul\":23197:23200   */\n      dup5\n        /* \"#utility.yul\":23193:23232   */\n      add\n        /* \"#utility.yul\":23186:23232   */\n      swap2\n      pop\n        /* \"#utility.yul\":22953:23238   */\n      pop\n        /* \"#utility.yul\":22861:23238   */\n      swap3\n      swap2\n      pop\n      pop\n      jump\t// out\n        /* \"#utility.yul\":23244:23557   */\n    tag_193:\n        /* \"#utility.yul\":23357:23361   */\n      0x00\n        /* \"#utility.yul\":23395:23397   */\n      0x20\n        /* \"#utility.yul\":23384:23393   */\n      dup3\n        /* \"#utility.yul\":23380:23398   */\n      add\n        /* \"#utility.yul\":23372:23398   */\n      swap1\n      pop\n        /* \"#utility.yul\":23444:23453   */\n      dup2\n        /* \"#utility.yul\":23438:23442   */\n      dup2\n        /* \"#utility.yul\":23434:23454   */\n      sub\n        /* \"#utility.yul\":23430:23431   */\n      0x00\n        /* \"#utility.yul\":23419:23428   */\n      dup4\n        /* \"#utility.yul\":23415:23432   */\n      add\n        /* \"#utility.yul\":23408:23455   */\n      mstore\n        /* \"#utility.yul\":23472:23550   */\n      tag_516\n        /* \"#utility.yul\":23545:23549   */\n      dup2\n        /* \"#utility.yul\":23536:23542   */\n      dup5\n        /* \"#utility.yul\":23472:23550   */\n      tag_262\n      jump\t// in\n    tag_516:\n        /* \"#utility.yul\":23464:23550   */\n      swap1\n      pop\n        /* \"#utility.yul\":23244:23557   */\n      swap3\n      swap2\n      pop\n      pop\n      jump\t// out\n\n    auxdata: 0xa26469706673582212201a4abd5f4564cf4c6f2778b331a087bf5e7322c6237a6f33f16117af6c6b74d164736f6c63430008130033\n}\n",
				"bytecode": {
					"linkReferences": {},
					"object": "608060405273aa8e23fb1079ea71e0a56f48a2aa51851d8433d0600460006101000a81548173ffffffffffffffffffffffffffffffffffffffff021916908373ffffffffffffffffffffffffffffffffffffffff16021790555073af0f6e8b0dc5c913bbf4d14c22b4e78dd14310b6600560006101000a81548173ffffffffffffffffffffffffffffffffffffffff021916908373ffffffffffffffffffffffffffffffffffffffff160217905550736ae43d3271ff6888e7fc43fd7321a503ff738951600660006101000a81548173ffffffffffffffffffffffffffffffffffffffff021916908373ffffffffffffffffffffffffffffffffffffffff1602179055503480156200011057600080fd5b5060405162002c6338038062002c63833981810160405281019062000136919062000229565b80600360006101000a81548173ffffffffffffffffffffffffffffffffffffffff021916908373ffffffffffffffffffffffffffffffffffffffff160217905550336000600b6101000a81548173ffffffffffffffffffffffffffffffffffffffff021916908373ffffffffffffffffffffffffffffffffffffffff160217905550506200025b565b600080fd5b600073ffffffffffffffffffffffffffffffffffffffff82169050919050565b6000620001f182620001c4565b9050919050565b6200020381620001e4565b81146200020f57600080fd5b50565b6000815190506200022381620001f8565b92915050565b600060208284031215620002425762000241620001bf565b5b6000620002528482850162000212565b91505092915050565b6129f8806200026b6000396000f3fe608060405234801561001057600080fd5b50600436106100885760003560e01c80638acd62721161005b5780638acd6272146100ff578063b7252e8f1461011b578063b9eb899214610137578063cd83432d1461016757610088565b80631b92468d1461008d5780631c48c074146100a9578063635b9a0f146100c5578063845a51ec146100e1575b600080fd5b6100a760048036038101906100a29190611d3e565b610185565b005b6100c360048036038101906100be9190611d3e565b610188565b005b6100df60048036038101906100da9190611e08565b61018b565b005b6100e96102fa565b6040516100f69190611e57565b60405180910390f35b61011960048036038101906101149190611edf565b610324565b005b61013560048036038101906101309190611d3e565b610d80565b005b610151600480360381019061014c9190611d3e565b61166f565b60405161015e91906120c9565b60405180910390f35b61016f6118b5565b60405161017c91906120f4565b60405180910390f35b50565b50565b600080600b9054906101000a900473ffffffffffffffffffffffffffffffffffffffff1673ffffffffffffffffffffffffffffffffffffffff1663e7c9922f6040518163ffffffff1660e01b8152600401602060405180830381865afa1580156101f9573d6000803e3d6000fd5b505050506040513d601f19601f8201168201806040525081019061021d9190612124565b90508073ffffffffffffffffffffffffffffffffffffffff163373ffffffffffffffffffffffffffffffffffffffff161461028d576040517f08c379a0000000000000000000000000000000000000000000000000000000008152600401610284906121ae565b60405180910390fd5b82600260006101000a81548173ffffffffffffffffffffffffffffffffffffffff021916908373ffffffffffffffffffffffffffffffffffffffff16021790555081600060046101000a81548166ffffffffffffff021916908366ffffffffffffff160217905550505050565b6000600260009054906101000a900473ffffffffffffffffffffffffffffffffffffffff16905090565b60008473ffffffffffffffffffffffffffffffffffffffff1663313ce5676040518163ffffffff1660e01b8152600401602060405180830381865afa158015610371573d6000803e3d6000fd5b505050506040513d601f19601f820116820180604052508101906103959190612207565b9050600081600a6103a69190612396565b905060006103b58686846118d1565b905081600a6103c491906123e1565b8110156103d057600080fd5b60008060008060028111156103e8576103e7611f9b565b5b8760028111156103fb576103fa611f9b565b5b0361040c573392506000905061044a565b600160028111156104205761041f611f9b565b5b87600281111561043357610432611f9b565b5b036104445760019050339150610449565b600080fd5b5b62015180600060049054906101000a900466ffffffffffffff1661046e9190612423565b66ffffffffffffff164211156104b0576040517fee1ea89500000000000000000000000000000000000000000000000000000000815260040160405180910390fd5b6104dd3330868d73ffffffffffffffffffffffffffffffffffffffff16611918909392919063ffffffff16565b8973ffffffffffffffffffffffffffffffffffffffff1663095ea7b3600660009054906101000a900473ffffffffffffffffffffffffffffffffffffffff16866040518363ffffffff1660e01b815260040161053a92919061246d565b6020604051808303816000875af1158015610559573d6000803e3d6000fd5b505050506040513d601f19601f8201168201806040525081019061057d91906124ce565b50600660009054906101000a900473ffffffffffffffffffffffffffffffffffffffff1673ffffffffffffffffffffffffffffffffffffffff1663617ba0378b863060006040518563ffffffff1660e01b81526004016105e0949392919061254e565b600060405180830381600087803b1580156105fa57600080fd5b505af115801561060e573d6000803e3d6000fd5b5050505060008054906101000a900463ffffffff16600760008060009054906101000a900463ffffffff1663ffffffff1663ffffffff16815260200190815260200160002060000160006101000a81548163ffffffff021916908363ffffffff16021790555088600760008060009054906101000a900463ffffffff1663ffffffff1663ffffffff16815260200190815260200160002060000160046101000a81548163ffffffff021916908363ffffffff16021790555042600760008060009054906101000a900463ffffffff1663ffffffff1663ffffffff16815260200190815260200160002060000160086101000a81548166ffffffffffffff021916908366ffffffffffffff16021790555087600760008060009054906101000a900463ffffffff1663ffffffff1663ffffffff168152602001908152602001600020600001600f6101000a8154816fffffffffffffffffffffffffffffffff02191690836fffffffffffffffffffffffffffffffff16021790555084600760008060009054906101000a900463ffffffff1663ffffffff1663ffffffff1681526020019081526020016000206001018190555089600760008060009054906101000a900463ffffffff1663ffffffff1663ffffffff16815260200190815260200160002060020160006101000a81548173ffffffffffffffffffffffffffffffffffffffff021916908373ffffffffffffffffffffffffffffffffffffffff16021790555082600760008060009054906101000a900463ffffffff1663ffffffff1663ffffffff16815260200190815260200160002060030160006101000a81548173ffffffffffffffffffffffffffffffffffffffff021916908373ffffffffffffffffffffffffffffffffffffffff16021790555081600760008060009054906101000a900463ffffffff1663ffffffff1663ffffffff16815260200190815260200160002060040160006101000a81548173ffffffffffffffffffffffffffffffffffffffff021916908373ffffffffffffffffffffffffffffffffffffffff16021790555080600760008060009054906101000a900463ffffffff1663ffffffff1663ffffffff16815260200190815260200160002060040160146101000a81548160ff0219169083600481111561096c5761096b611f9b565b5b021790555060008054906101000a900463ffffffff16600860008060009054906101000a900463ffffffff1663ffffffff1663ffffffff16815260200190815260200160002060003373ffffffffffffffffffffffffffffffffffffffff1673ffffffffffffffffffffffffffffffffffffffff16815260200190815260200160002060000160006101000a81548163ffffffff021916908363ffffffff160217905550600760008060009054906101000a900463ffffffff1663ffffffff1663ffffffff16815260200190815260200160002060000160089054906101000a900466ffffffffffffff16600860008060009054906101000a900463ffffffff1663ffffffff1663ffffffff16815260200190815260200160002060003373ffffffffffffffffffffffffffffffffffffffff1673ffffffffffffffffffffffffffffffffffffffff16815260200190815260200160002060000160046101000a81548166ffffffffffffff021916908366ffffffffffffff1602179055506000600860008060009054906101000a900463ffffffff1663ffffffff1663ffffffff16815260200190815260200160002060003373ffffffffffffffffffffffffffffffffffffffff1673ffffffffffffffffffffffffffffffffffffffff168152602001908152602001600020600001600b6101000a81548166ffffffffffffff021916908366ffffffffffffff16021790555083600860008060009054906101000a900463ffffffff1663ffffffff1663ffffffff16815260200190815260200160002060003373ffffffffffffffffffffffffffffffffffffffff1673ffffffffffffffffffffffffffffffffffffffff168152602001908152602001600020600101819055506000600860008060009054906101000a900463ffffffff1663ffffffff1663ffffffff16815260200190815260200160002060003373ffffffffffffffffffffffffffffffffffffffff1673ffffffffffffffffffffffffffffffffffffffff1681526020019081526020016000206002018190555033600860008060009054906101000a900463ffffffff1663ffffffff1663ffffffff16815260200190815260200160002060003373ffffffffffffffffffffffffffffffffffffffff1673ffffffffffffffffffffffffffffffffffffffff16815260200190815260200160002060030160006101000a81548173ffffffffffffffffffffffffffffffffffffffff021916908373ffffffffffffffffffffffffffffffffffffffff1602179055508360016000828254610d2d9190612593565b9250508190555060008081819054906101000a900463ffffffff1680929190610d55906125c7565b91906101000a81548163ffffffff021916908363ffffffff1602179055505050505050505050505050565b62015180600060049054906101000a900466ffffffffffffff16610da49190612423565b66ffffffffffffff16421115610de6576040517fee1ea89500000000000000000000000000000000000000000000000000000000815260040160405180910390fd5b6000600760008363ffffffff1663ffffffff168152602001908152602001600020604051806101200160405290816000820160009054906101000a900463ffffffff1663ffffffff1663ffffffff1681526020016000820160049054906101000a900463ffffffff1663ffffffff1663ffffffff1681526020016000820160089054906101000a900466ffffffffffffff1666ffffffffffffff1666ffffffffffffff16815260200160008201600f9054906101000a90046fffffffffffffffffffffffffffffffff166fffffffffffffffffffffffffffffffff166fffffffffffffffffffffffffffffffff168152602001600182015481526020016002820160009054906101000a900473ffffffffffffffffffffffffffffffffffffffff1673ffffffffffffffffffffffffffffffffffffffff1673ffffffffffffffffffffffffffffffffffffffff1681526020016003820160009054906101000a900473ffffffffffffffffffffffffffffffffffffffff1673ffffffffffffffffffffffffffffffffffffffff1673ffffffffffffffffffffffffffffffffffffffff1681526020016004820160009054906101000a900473ffffffffffffffffffffffffffffffffffffffff1673ffffffffffffffffffffffffffffffffffffffff1673ffffffffffffffffffffffffffffffffffffffff1681526020016004820160149054906101000a900460ff16600481111561100957611008611f9b565b5b600481111561101b5761101a611f9b565b5b81525050905060008160a001519050600082608001519050600061104884602001518560600151846118d1565b90506110773330838673ffffffffffffffffffffffffffffffffffffffff16611918909392919063ffffffff16565b8273ffffffffffffffffffffffffffffffffffffffff1663095ea7b3600660009054906101000a900473ffffffffffffffffffffffffffffffffffffffff16836040518363ffffffff1660e01b81526004016110d492919061246d565b6020604051808303816000875af11580156110f3573d6000803e3d6000fd5b505050506040513d601f19601f8201168201806040525081019061111791906124ce565b50600660009054906101000a900473ffffffffffffffffffffffffffffffffffffffff1673ffffffffffffffffffffffffffffffffffffffff1663617ba03784833060006040518563ffffffff1660e01b815260040161117a949392919061254e565b600060405180830381600087803b15801561119457600080fd5b505af11580156111a8573d6000803e3d6000fd5b50505050600060048111156111c0576111bf611f9b565b5b84610100015160048111156111d8576111d7611f9b565b5b036112435733600760008763ffffffff1663ffffffff16815260200190815260200160002060040160006101000a81548173ffffffffffffffffffffffffffffffffffffffff021916908373ffffffffffffffffffffffffffffffffffffffff160217905550611316565b6001600481111561125757611256611f9b565b5b846101000151600481111561126f5761126e611f9b565b5b036112da5733600760008763ffffffff1663ffffffff16815260200190815260200160002060030160006101000a81548173ffffffffffffffffffffffffffffffffffffffff021916908373ffffffffffffffffffffffffffffffffffffffff160217905550611315565b6040517f08c379a000000000000000000000000000000000000000000000000000000000815260040161130c9061263f565b60405180910390fd5b5b6002600760008763ffffffff1663ffffffff16815260200190815260200160002060040160146101000a81548160ff0219169083600481111561135c5761135b611f9b565b5b021790555084600860008763ffffffff1663ffffffff16815260200190815260200160002060003373ffffffffffffffffffffffffffffffffffffffff1673ffffffffffffffffffffffffffffffffffffffff16815260200190815260200160002060000160006101000a81548163ffffffff021916908363ffffffff16021790555042600860008763ffffffff1663ffffffff16815260200190815260200160002060003373ffffffffffffffffffffffffffffffffffffffff1673ffffffffffffffffffffffffffffffffffffffff16815260200190815260200160002060000160046101000a81548166ffffffffffffff021916908366ffffffffffffff1602179055506000600860008763ffffffff1663ffffffff16815260200190815260200160002060003373ffffffffffffffffffffffffffffffffffffffff1673ffffffffffffffffffffffffffffffffffffffff168152602001908152602001600020600001600b6101000a81548166ffffffffffffff021916908366ffffffffffffff16021790555080600860008763ffffffff1663ffffffff16815260200190815260200160002060003373ffffffffffffffffffffffffffffffffffffffff1673ffffffffffffffffffffffffffffffffffffffff168152602001908152602001600020600101819055506000600860008763ffffffff1663ffffffff16815260200190815260200160002060003373ffffffffffffffffffffffffffffffffffffffff1673ffffffffffffffffffffffffffffffffffffffff1681526020019081526020016000206002018190555033600860008763ffffffff1663ffffffff16815260200190815260200160002060003373ffffffffffffffffffffffffffffffffffffffff1673ffffffffffffffffffffffffffffffffffffffff16815260200190815260200160002060030160006101000a81548173ffffffffffffffffffffffffffffffffffffffff021916908373ffffffffffffffffffffffffffffffffffffffff16021790555080600160008282546116619190612593565b925050819055505050505050565b611677611c36565b600760008363ffffffff1663ffffffff168152602001908152602001600020604051806101200160405290816000820160009054906101000a900463ffffffff1663ffffffff1663ffffffff1681526020016000820160049054906101000a900463ffffffff1663ffffffff1663ffffffff1681526020016000820160089054906101000a900466ffffffffffffff1666ffffffffffffff1666ffffffffffffff16815260200160008201600f9054906101000a90046fffffffffffffffffffffffffffffffff166fffffffffffffffffffffffffffffffff166fffffffffffffffffffffffffffffffff168152602001600182015481526020016002820160009054906101000a900473ffffffffffffffffffffffffffffffffffffffff1673ffffffffffffffffffffffffffffffffffffffff1673ffffffffffffffffffffffffffffffffffffffff1681526020016003820160009054906101000a900473ffffffffffffffffffffffffffffffffffffffff1673ffffffffffffffffffffffffffffffffffffffff1673ffffffffffffffffffffffffffffffffffffffff1681526020016004820160009054906101000a900473ffffffffffffffffffffffffffffffffffffffff1673ffffffffffffffffffffffffffffffffffffffff1673ffffffffffffffffffffffffffffffffffffffff1681526020016004820160149054906101000a900460ff16600481111561189857611897611f9b565b5b60048111156118aa576118a9611f9b565b5b815250509050919050565b60008060049054906101000a900466ffffffffffffff16905090565b6000816103e88563ffffffff16856118e9919061265f565b6118f391906126cb565b6fffffffffffffffffffffffffffffffff1661190f91906123e1565b90509392505050565b61199b846323b872dd60e01b858585604051602401611939939291906126fc565b604051602081830303815290604052907bffffffffffffffffffffffffffffffffffffffffffffffffffffffff19166020820180517bffffffffffffffffffffffffffffffffffffffffffffffffffffffff83818316178352505050506119a1565b50505050565b6000611a03826040518060400160405280602081526020017f5361666545524332303a206c6f772d6c6576656c2063616c6c206661696c65648152508573ffffffffffffffffffffffffffffffffffffffff16611a699092919063ffffffff16565b9050600081511480611a25575080806020019051810190611a2491906124ce565b5b611a64576040517f08c379a0000000000000000000000000000000000000000000000000000000008152600401611a5b906127a5565b60405180910390fd5b505050565b6060611a788484600085611a81565b90509392505050565b606082471015611ac6576040517f08c379a0000000000000000000000000000000000000000000000000000000008152600401611abd90612837565b60405180910390fd5b6000808673ffffffffffffffffffffffffffffffffffffffff168587604051611aef91906128c8565b60006040518083038185875af1925050503d8060008114611b2c576040519150601f19603f3d011682016040523d82523d6000602084013e611b31565b606091505b5091509150611b4287838387611b4e565b92505050949350505050565b60608315611bb0576000835103611ba857611b6885611bc3565b611ba7576040517f08c379a0000000000000000000000000000000000000000000000000000000008152600401611b9e9061292b565b60405180910390fd5b5b829050611bbb565b611bba8383611be6565b5b949350505050565b6000808273ffffffffffffffffffffffffffffffffffffffff163b119050919050565b600082511115611bf95781518083602001fd5b806040517f08c379a0000000000000000000000000000000000000000000000000000000008152600401611c2d91906129a0565b60405180910390fd5b604051806101200160405280600063ffffffff168152602001600063ffffffff168152602001600066ffffffffffffff16815260200160006fffffffffffffffffffffffffffffffff16815260200160008152602001600073ffffffffffffffffffffffffffffffffffffffff168152602001600073ffffffffffffffffffffffffffffffffffffffff168152602001600073ffffffffffffffffffffffffffffffffffffffff16815260200160006004811115611cf757611cf6611f9b565b5b81525090565b600080fd5b600063ffffffff82169050919050565b611d1b81611d02565b8114611d2657600080fd5b50565b600081359050611d3881611d12565b92915050565b600060208284031215611d5457611d53611cfd565b5b6000611d6284828501611d29565b91505092915050565b600073ffffffffffffffffffffffffffffffffffffffff82169050919050565b6000611d9682611d6b565b9050919050565b611da681611d8b565b8114611db157600080fd5b50565b600081359050611dc381611d9d565b92915050565b600066ffffffffffffff82169050919050565b611de581611dc9565b8114611df057600080fd5b50565b600081359050611e0281611ddc565b92915050565b60008060408385031215611e1f57611e1e611cfd565b5b6000611e2d85828601611db4565b9250506020611e3e85828601611df3565b9150509250929050565b611e5181611d8b565b82525050565b6000602082019050611e6c6000830184611e48565b92915050565b60006fffffffffffffffffffffffffffffffff82169050919050565b611e9781611e72565b8114611ea257600080fd5b50565b600081359050611eb481611e8e565b92915050565b60038110611ec757600080fd5b50565b600081359050611ed981611eba565b92915050565b60008060008060808587031215611ef957611ef8611cfd565b5b6000611f0787828801611db4565b9450506020611f1887828801611d29565b9350506040611f2987828801611ea5565b9250506060611f3a87828801611eca565b91505092959194509250565b611f4f81611d02565b82525050565b611f5e81611dc9565b82525050565b611f6d81611e72565b82525050565b6000819050919050565b611f8681611f73565b82525050565b611f9581611d8b565b82525050565b7f4e487b7100000000000000000000000000000000000000000000000000000000600052602160045260246000fd5b60058110611fdb57611fda611f9b565b5b50565b6000819050611fec82611fca565b919050565b6000611ffc82611fde565b9050919050565b61200c81611ff1565b82525050565b610120820160008201516120296000850182611f46565b50602082015161203c6020850182611f46565b50604082015161204f6040850182611f55565b5060608201516120626060850182611f64565b5060808201516120756080850182611f7d565b5060a082015161208860a0850182611f8c565b5060c082015161209b60c0850182611f8c565b5060e08201516120ae60e0850182611f8c565b506101008201516120c3610100850182612003565b50505050565b6000610120820190506120df6000830184612012565b92915050565b6120ee81611dc9565b82525050565b600060208201905061210960008301846120e5565b92915050565b60008151905061211e81611d9d565b92915050565b60006020828403121561213a57612139611cfd565b5b60006121488482850161210f565b91505092915050565b600082825260208201905092915050565b7f4e6f74204f776e65720000000000000000000000000000000000000000000000600082015250565b6000612198600983612151565b91506121a382612162565b602082019050919050565b600060208201905081810360008301526121c78161218b565b9050919050565b600060ff82169050919050565b6121e4816121ce565b81146121ef57600080fd5b50565b600081519050612201816121db565b92915050565b60006020828403121561221d5761221c611cfd565b5b600061222b848285016121f2565b91505092915050565b7f4e487b7100000000000000000000000000000000000000000000000000000000600052601160045260246000fd5b60008160011c9050919050565b6000808291508390505b60018511156122ba5780860481111561229657612295612234565b5b60018516156122a55780820291505b80810290506122b385612263565b945061227a565b94509492505050565b6000826122d3576001905061238f565b816122e1576000905061238f565b81600181146122f7576002811461230157612330565b600191505061238f565b60ff84111561231357612312612234565b5b8360020a91508482111561232a57612329612234565b5b5061238f565b5060208310610133831016604e8410600b84101617156123655782820a9050838111156123605761235f612234565b5b61238f565b6123728484846001612270565b9250905081840481111561238957612388612234565b5b81810290505b9392505050565b60006123a182611f73565b91506123ac836121ce565b92506123d97fffffffffffffffffffffffffffffffffffffffffffffffffffffffffffffffff84846122c3565b905092915050565b60006123ec82611f73565b91506123f783611f73565b925082820261240581611f73565b9150828204841483151761241c5761241b612234565b5b5092915050565b600061242e82611dc9565b915061243983611dc9565b9250828203905066ffffffffffffff81111561245857612457612234565b5b92915050565b61246781611f73565b82525050565b60006040820190506124826000830185611e48565b61248f602083018461245e565b9392505050565b60008115159050919050565b6124ab81612496565b81146124b657600080fd5b50565b6000815190506124c8816124a2565b92915050565b6000602082840312156124e4576124e3611cfd565b5b60006124f2848285016124b9565b91505092915050565b6000819050919050565b600061ffff82169050919050565b6000819050919050565b600061253861253361252e846124fb565b612513565b612505565b9050919050565b6125488161251d565b82525050565b60006080820190506125636000830187611e48565b612570602083018661245e565b61257d6040830185611e48565b61258a606083018461253f565b95945050505050565b600061259e82611f73565b91506125a983611f73565b92508282019050808211156125c1576125c0612234565b5b92915050565b60006125d282611d02565b915063ffffffff82036125e8576125e7612234565b5b600182019050919050565b7f5472616465206572726f72000000000000000000000000000000000000000000600082015250565b6000612629600b83612151565b9150612634826125f3565b602082019050919050565b600060208201905081810360008301526126588161261c565b9050919050565b600061266a82611e72565b915061267583611e72565b925082820261268381611e72565b915080821461269557612694612234565b5b5092915050565b7f4e487b7100000000000000000000000000000000000000000000000000000000600052601260045260246000fd5b60006126d682611e72565b91506126e183611e72565b9250826126f1576126f061269c565b5b828204905092915050565b60006060820190506127116000830186611e48565b61271e6020830185611e48565b61272b604083018461245e565b949350505050565b7f5361666545524332303a204552433230206f7065726174696f6e20646964206e60008201527f6f74207375636365656400000000000000000000000000000000000000000000602082015250565b600061278f602a83612151565b915061279a82612733565b604082019050919050565b600060208201905081810360008301526127be81612782565b9050919050565b7f416464726573733a20696e73756666696369656e742062616c616e636520666f60008201527f722063616c6c0000000000000000000000000000000000000000000000000000602082015250565b6000612821602683612151565b915061282c826127c5565b604082019050919050565b6000602082019050818103600083015261285081612814565b9050919050565b600081519050919050565b600081905092915050565b60005b8381101561288b578082015181840152602081019050612870565b60008484015250505050565b60006128a282612857565b6128ac8185612862565b93506128bc81856020860161286d565b80840191505092915050565b60006128d48284612897565b915081905092915050565b7f416464726573733a2063616c6c20746f206e6f6e2d636f6e7472616374000000600082015250565b6000612915601d83612151565b9150612920826128df565b602082019050919050565b6000602082019050818103600083015261294481612908565b9050919050565b600081519050919050565b6000601f19601f8301169050919050565b60006129728261294b565b61297c8185612151565b935061298c81856020860161286d565b61299581612956565b840191505092915050565b600060208201905081810360008301526129ba8184612967565b90509291505056fea26469706673582212201a4abd5f4564cf4c6f2778b331a087bf5e7322c6237a6f33f16117af6c6b74d164736f6c63430008130033",
					"opcodes": "PUSH1 0x80 PUSH1 0x40 MSTORE PUSH20 0xAA8E23FB1079EA71E0A56F48A2AA51851D8433D0 PUSH1 0x4 PUSH1 0x0 PUSH2 0x100 EXP DUP2 SLOAD DUP2 PUSH20 0xFFFFFFFFFFFFFFFFFFFFFFFFFFFFFFFFFFFFFFFF MUL NOT AND SWAP1 DUP4 PUSH20 0xFFFFFFFFFFFFFFFFFFFFFFFFFFFFFFFFFFFFFFFF AND MUL OR SWAP1 SSTORE POP PUSH20 0xAF0F6E8B0DC5C913BBF4D14C22B4E78DD14310B6 PUSH1 0x5 PUSH1 0x0 PUSH2 0x100 EXP DUP2 SLOAD DUP2 PUSH20 0xFFFFFFFFFFFFFFFFFFFFFFFFFFFFFFFFFFFFFFFF MUL NOT AND SWAP1 DUP4 PUSH20 0xFFFFFFFFFFFFFFFFFFFFFFFFFFFFFFFFFFFFFFFF AND MUL OR SWAP1 SSTORE POP PUSH20 0x6AE43D3271FF6888E7FC43FD7321A503FF738951 PUSH1 0x6 PUSH1 0x0 PUSH2 0x100 EXP DUP2 SLOAD DUP2 PUSH20 0xFFFFFFFFFFFFFFFFFFFFFFFFFFFFFFFFFFFFFFFF MUL NOT AND SWAP1 DUP4 PUSH20 0xFFFFFFFFFFFFFFFFFFFFFFFFFFFFFFFFFFFFFFFF AND MUL OR SWAP1 SSTORE POP CALLVALUE DUP1 ISZERO PUSH3 0x110 JUMPI PUSH1 0x0 DUP1 REVERT JUMPDEST POP PUSH1 0x40 MLOAD PUSH3 0x2C63 CODESIZE SUB DUP1 PUSH3 0x2C63 DUP4 CODECOPY DUP2 DUP2 ADD PUSH1 0x40 MSTORE DUP2 ADD SWAP1 PUSH3 0x136 SWAP2 SWAP1 PUSH3 0x229 JUMP JUMPDEST DUP1 PUSH1 0x3 PUSH1 0x0 PUSH2 0x100 EXP DUP2 SLOAD DUP2 PUSH20 0xFFFFFFFFFFFFFFFFFFFFFFFFFFFFFFFFFFFFFFFF MUL NOT AND SWAP1 DUP4 PUSH20 0xFFFFFFFFFFFFFFFFFFFFFFFFFFFFFFFFFFFFFFFF AND MUL OR SWAP1 SSTORE POP CALLER PUSH1 0x0 PUSH1 0xB PUSH2 0x100 EXP DUP2 SLOAD DUP2 PUSH20 0xFFFFFFFFFFFFFFFFFFFFFFFFFFFFFFFFFFFFFFFF MUL NOT AND SWAP1 DUP4 PUSH20 0xFFFFFFFFFFFFFFFFFFFFFFFFFFFFFFFFFFFFFFFF AND MUL OR SWAP1 SSTORE POP POP PUSH3 0x25B JUMP JUMPDEST PUSH1 0x0 DUP1 REVERT JUMPDEST PUSH1 0x0 PUSH20 0xFFFFFFFFFFFFFFFFFFFFFFFFFFFFFFFFFFFFFFFF DUP3 AND SWAP1 POP SWAP2 SWAP1 POP JUMP JUMPDEST PUSH1 0x0 PUSH3 0x1F1 DUP3 PUSH3 0x1C4 JUMP JUMPDEST SWAP1 POP SWAP2 SWAP1 POP JUMP JUMPDEST PUSH3 0x203 DUP2 PUSH3 0x1E4 JUMP JUMPDEST DUP2 EQ PUSH3 0x20F JUMPI PUSH1 0x0 DUP1 REVERT JUMPDEST POP JUMP JUMPDEST PUSH1 0x0 DUP2 MLOAD SWAP1 POP PUSH3 0x223 DUP2 PUSH3 0x1F8 JUMP JUMPDEST SWAP3 SWAP2 POP POP JUMP JUMPDEST PUSH1 0x0 PUSH1 0x20 DUP3 DUP5 SUB SLT ISZERO PUSH3 0x242 JUMPI PUSH3 0x241 PUSH3 0x1BF JUMP JUMPDEST JUMPDEST PUSH1 0x0 PUSH3 0x252 DUP5 DUP3 DUP6 ADD PUSH3 0x212 JUMP JUMPDEST SWAP2 POP POP SWAP3 SWAP2 POP POP JUMP JUMPDEST PUSH2 0x29F8 DUP1 PUSH3 0x26B PUSH1 0x0 CODECOPY PUSH1 0x0 RETURN INVALID PUSH1 0x80 PUSH1 0x40 MSTORE CALLVALUE DUP1 ISZERO PUSH2 0x10 JUMPI PUSH1 0x0 DUP1 REVERT JUMPDEST POP PUSH1 0x4 CALLDATASIZE LT PUSH2 0x88 JUMPI PUSH1 0x0 CALLDATALOAD PUSH1 0xE0 SHR DUP1 PUSH4 0x8ACD6272 GT PUSH2 0x5B JUMPI DUP1 PUSH4 0x8ACD6272 EQ PUSH2 0xFF JUMPI DUP1 PUSH4 0xB7252E8F EQ PUSH2 0x11B JUMPI DUP1 PUSH4 0xB9EB8992 EQ PUSH2 0x137 JUMPI DUP1 PUSH4 0xCD83432D EQ PUSH2 0x167 JUMPI PUSH2 0x88 JUMP JUMPDEST DUP1 PUSH4 0x1B92468D EQ PUSH2 0x8D JUMPI DUP1 PUSH4 0x1C48C074 EQ PUSH2 0xA9 JUMPI DUP1 PUSH4 0x635B9A0F EQ PUSH2 0xC5 JUMPI DUP1 PUSH4 0x845A51EC EQ PUSH2 0xE1 JUMPI JUMPDEST PUSH1 0x0 DUP1 REVERT JUMPDEST PUSH2 0xA7 PUSH1 0x4 DUP1 CALLDATASIZE SUB DUP2 ADD SWAP1 PUSH2 0xA2 SWAP2 SWAP1 PUSH2 0x1D3E JUMP JUMPDEST PUSH2 0x185 JUMP JUMPDEST STOP JUMPDEST PUSH2 0xC3 PUSH1 0x4 DUP1 CALLDATASIZE SUB DUP2 ADD SWAP1 PUSH2 0xBE SWAP2 SWAP1 PUSH2 0x1D3E JUMP JUMPDEST PUSH2 0x188 JUMP JUMPDEST STOP JUMPDEST PUSH2 0xDF PUSH1 0x4 DUP1 CALLDATASIZE SUB DUP2 ADD SWAP1 PUSH2 0xDA SWAP2 SWAP1 PUSH2 0x1E08 JUMP JUMPDEST PUSH2 0x18B JUMP JUMPDEST STOP JUMPDEST PUSH2 0xE9 PUSH2 0x2FA JUMP JUMPDEST PUSH1 0x40 MLOAD PUSH2 0xF6 SWAP2 SWAP1 PUSH2 0x1E57 JUMP JUMPDEST PUSH1 0x40 MLOAD DUP1 SWAP2 SUB SWAP1 RETURN JUMPDEST PUSH2 0x119 PUSH1 0x4 DUP1 CALLDATASIZE SUB DUP2 ADD SWAP1 PUSH2 0x114 SWAP2 SWAP1 PUSH2 0x1EDF JUMP JUMPDEST PUSH2 0x324 JUMP JUMPDEST STOP JUMPDEST PUSH2 0x135 PUSH1 0x4 DUP1 CALLDATASIZE SUB DUP2 ADD SWAP1 PUSH2 0x130 SWAP2 SWAP1 PUSH2 0x1D3E JUMP JUMPDEST PUSH2 0xD80 JUMP JUMPDEST STOP JUMPDEST PUSH2 0x151 PUSH1 0x4 DUP1 CALLDATASIZE SUB DUP2 ADD SWAP1 PUSH2 0x14C SWAP2 SWAP1 PUSH2 0x1D3E JUMP JUMPDEST PUSH2 0x166F JUMP JUMPDEST PUSH1 0x40 MLOAD PUSH2 0x15E SWAP2 SWAP1 PUSH2 0x20C9 JUMP JUMPDEST PUSH1 0x40 MLOAD DUP1 SWAP2 SUB SWAP1 RETURN JUMPDEST PUSH2 0x16F PUSH2 0x18B5 JUMP JUMPDEST PUSH1 0x40 MLOAD PUSH2 0x17C SWAP2 SWAP1 PUSH2 0x20F4 JUMP JUMPDEST PUSH1 0x40 MLOAD DUP1 SWAP2 SUB SWAP1 RETURN JUMPDEST POP JUMP JUMPDEST POP JUMP JUMPDEST PUSH1 0x0 DUP1 PUSH1 0xB SWAP1 SLOAD SWAP1 PUSH2 0x100 EXP SWAP1 DIV PUSH20 0xFFFFFFFFFFFFFFFFFFFFFFFFFFFFFFFFFFFFFFFF AND PUSH20 0xFFFFFFFFFFFFFFFFFFFFFFFFFFFFFFFFFFFFFFFF AND PUSH4 0xE7C9922F PUSH1 0x40 MLOAD DUP2 PUSH4 0xFFFFFFFF AND PUSH1 0xE0 SHL DUP2 MSTORE PUSH1 0x4 ADD PUSH1 0x20 PUSH1 0x40 MLOAD DUP1 DUP4 SUB DUP2 DUP7 GAS STATICCALL ISZERO DUP1 ISZERO PUSH2 0x1F9 JUMPI RETURNDATASIZE PUSH1 0x0 DUP1 RETURNDATACOPY RETURNDATASIZE PUSH1 0x0 REVERT JUMPDEST POP POP POP POP PUSH1 0x40 MLOAD RETURNDATASIZE PUSH1 0x1F NOT PUSH1 0x1F DUP3 ADD AND DUP3 ADD DUP1 PUSH1 0x40 MSTORE POP DUP2 ADD SWAP1 PUSH2 0x21D SWAP2 SWAP1 PUSH2 0x2124 JUMP JUMPDEST SWAP1 POP DUP1 PUSH20 0xFFFFFFFFFFFFFFFFFFFFFFFFFFFFFFFFFFFFFFFF AND CALLER PUSH20 0xFFFFFFFFFFFFFFFFFFFFFFFFFFFFFFFFFFFFFFFF AND EQ PUSH2 0x28D JUMPI PUSH1 0x40 MLOAD PUSH32 0x8C379A000000000000000000000000000000000000000000000000000000000 DUP2 MSTORE PUSH1 0x4 ADD PUSH2 0x284 SWAP1 PUSH2 0x21AE JUMP JUMPDEST PUSH1 0x40 MLOAD DUP1 SWAP2 SUB SWAP1 REVERT JUMPDEST DUP3 PUSH1 0x2 PUSH1 0x0 PUSH2 0x100 EXP DUP2 SLOAD DUP2 PUSH20 0xFFFFFFFFFFFFFFFFFFFFFFFFFFFFFFFFFFFFFFFF MUL NOT AND SWAP1 DUP4 PUSH20 0xFFFFFFFFFFFFFFFFFFFFFFFFFFFFFFFFFFFFFFFF AND MUL OR SWAP1 SSTORE POP DUP2 PUSH1 0x0 PUSH1 0x4 PUSH2 0x100 EXP DUP2 SLOAD DUP2 PUSH7 0xFFFFFFFFFFFFFF MUL NOT AND SWAP1 DUP4 PUSH7 0xFFFFFFFFFFFFFF AND MUL OR SWAP1 SSTORE POP POP POP POP JUMP JUMPDEST PUSH1 0x0 PUSH1 0x2 PUSH1 0x0 SWAP1 SLOAD SWAP1 PUSH2 0x100 EXP SWAP1 DIV PUSH20 0xFFFFFFFFFFFFFFFFFFFFFFFFFFFFFFFFFFFFFFFF AND SWAP1 POP SWAP1 JUMP JUMPDEST PUSH1 0x0 DUP5 PUSH20 0xFFFFFFFFFFFFFFFFFFFFFFFFFFFFFFFFFFFFFFFF AND PUSH4 0x313CE567 PUSH1 0x40 MLOAD DUP2 PUSH4 0xFFFFFFFF AND PUSH1 0xE0 SHL DUP2 MSTORE PUSH1 0x4 ADD PUSH1 0x20 PUSH1 0x40 MLOAD DUP1 DUP4 SUB DUP2 DUP7 GAS STATICCALL ISZERO DUP1 ISZERO PUSH2 0x371 JUMPI RETURNDATASIZE PUSH1 0x0 DUP1 RETURNDATACOPY RETURNDATASIZE PUSH1 0x0 REVERT JUMPDEST POP POP POP POP PUSH1 0x40 MLOAD RETURNDATASIZE PUSH1 0x1F NOT PUSH1 0x1F DUP3 ADD AND DUP3 ADD DUP1 PUSH1 0x40 MSTORE POP DUP2 ADD SWAP1 PUSH2 0x395 SWAP2 SWAP1 PUSH2 0x2207 JUMP JUMPDEST SWAP1 POP PUSH1 0x0 DUP2 PUSH1 0xA PUSH2 0x3A6 SWAP2 SWAP1 PUSH2 0x2396 JUMP JUMPDEST SWAP1 POP PUSH1 0x0 PUSH2 0x3B5 DUP7 DUP7 DUP5 PUSH2 0x18D1 JUMP JUMPDEST SWAP1 POP DUP2 PUSH1 0xA PUSH2 0x3C4 SWAP2 SWAP1 PUSH2 0x23E1 JUMP JUMPDEST DUP2 LT ISZERO PUSH2 0x3D0 JUMPI PUSH1 0x0 DUP1 REVERT JUMPDEST PUSH1 0x0 DUP1 PUSH1 0x0 DUP1 PUSH1 0x2 DUP2 GT ISZERO PUSH2 0x3E8 JUMPI PUSH2 0x3E7 PUSH2 0x1F9B JUMP JUMPDEST JUMPDEST DUP8 PUSH1 0x2 DUP2 GT ISZERO PUSH2 0x3FB JUMPI PUSH2 0x3FA PUSH2 0x1F9B JUMP JUMPDEST JUMPDEST SUB PUSH2 0x40C JUMPI CALLER SWAP3 POP PUSH1 0x0 SWAP1 POP PUSH2 0x44A JUMP JUMPDEST PUSH1 0x1 PUSH1 0x2 DUP2 GT ISZERO PUSH2 0x420 JUMPI PUSH2 0x41F PUSH2 0x1F9B JUMP JUMPDEST JUMPDEST DUP8 PUSH1 0x2 DUP2 GT ISZERO PUSH2 0x433 JUMPI PUSH2 0x432 PUSH2 0x1F9B JUMP JUMPDEST JUMPDEST SUB PUSH2 0x444 JUMPI PUSH1 0x1 SWAP1 POP CALLER SWAP2 POP PUSH2 0x449 JUMP JUMPDEST PUSH1 0x0 DUP1 REVERT JUMPDEST JUMPDEST PUSH3 0x15180 PUSH1 0x0 PUSH1 0x4 SWAP1 SLOAD SWAP1 PUSH2 0x100 EXP SWAP1 DIV PUSH7 0xFFFFFFFFFFFFFF AND PUSH2 0x46E SWAP2 SWAP1 PUSH2 0x2423 JUMP JUMPDEST PUSH7 0xFFFFFFFFFFFFFF AND TIMESTAMP GT ISZERO PUSH2 0x4B0 JUMPI PUSH1 0x40 MLOAD PUSH32 0xEE1EA89500000000000000000000000000000000000000000000000000000000 DUP2 MSTORE PUSH1 0x4 ADD PUSH1 0x40 MLOAD DUP1 SWAP2 SUB SWAP1 REVERT JUMPDEST PUSH2 0x4DD CALLER ADDRESS DUP7 DUP14 PUSH20 0xFFFFFFFFFFFFFFFFFFFFFFFFFFFFFFFFFFFFFFFF AND PUSH2 0x1918 SWAP1 SWAP4 SWAP3 SWAP2 SWAP1 PUSH4 0xFFFFFFFF AND JUMP JUMPDEST DUP10 PUSH20 0xFFFFFFFFFFFFFFFFFFFFFFFFFFFFFFFFFFFFFFFF AND PUSH4 0x95EA7B3 PUSH1 0x6 PUSH1 0x0 SWAP1 SLOAD SWAP1 PUSH2 0x100 EXP SWAP1 DIV PUSH20 0xFFFFFFFFFFFFFFFFFFFFFFFFFFFFFFFFFFFFFFFF AND DUP7 PUSH1 0x40 MLOAD DUP4 PUSH4 0xFFFFFFFF AND PUSH1 0xE0 SHL DUP2 MSTORE PUSH1 0x4 ADD PUSH2 0x53A SWAP3 SWAP2 SWAP1 PUSH2 0x246D JUMP JUMPDEST PUSH1 0x20 PUSH1 0x40 MLOAD DUP1 DUP4 SUB DUP2 PUSH1 0x0 DUP8 GAS CALL ISZERO DUP1 ISZERO PUSH2 0x559 JUMPI RETURNDATASIZE PUSH1 0x0 DUP1 RETURNDATACOPY RETURNDATASIZE PUSH1 0x0 REVERT JUMPDEST POP POP POP POP PUSH1 0x40 MLOAD RETURNDATASIZE PUSH1 0x1F NOT PUSH1 0x1F DUP3 ADD AND DUP3 ADD DUP1 PUSH1 0x40 MSTORE POP DUP2 ADD SWAP1 PUSH2 0x57D SWAP2 SWAP1 PUSH2 0x24CE JUMP JUMPDEST POP PUSH1 0x6 PUSH1 0x0 SWAP1 SLOAD SWAP1 PUSH2 0x100 EXP SWAP1 DIV PUSH20 0xFFFFFFFFFFFFFFFFFFFFFFFFFFFFFFFFFFFFFFFF AND PUSH20 0xFFFFFFFFFFFFFFFFFFFFFFFFFFFFFFFFFFFFFFFF AND PUSH4 0x617BA037 DUP12 DUP7 ADDRESS PUSH1 0x0 PUSH1 0x40 MLOAD DUP6 PUSH4 0xFFFFFFFF AND PUSH1 0xE0 SHL DUP2 MSTORE PUSH1 0x4 ADD PUSH2 0x5E0 SWAP5 SWAP4 SWAP3 SWAP2 SWAP1 PUSH2 0x254E JUMP JUMPDEST PUSH1 0x0 PUSH1 0x40 MLOAD DUP1 DUP4 SUB DUP2 PUSH1 0x0 DUP8 DUP1 EXTCODESIZE ISZERO DUP1 ISZERO PUSH2 0x5FA JUMPI PUSH1 0x0 DUP1 REVERT JUMPDEST POP GAS CALL ISZERO DUP1 ISZERO PUSH2 0x60E JUMPI RETURNDATASIZE PUSH1 0x0 DUP1 RETURNDATACOPY RETURNDATASIZE PUSH1 0x0 REVERT JUMPDEST POP POP POP POP PUSH1 0x0 DUP1 SLOAD SWAP1 PUSH2 0x100 EXP SWAP1 DIV PUSH4 0xFFFFFFFF AND PUSH1 0x7 PUSH1 0x0 DUP1 PUSH1 0x0 SWAP1 SLOAD SWAP1 PUSH2 0x100 EXP SWAP1 DIV PUSH4 0xFFFFFFFF AND PUSH4 0xFFFFFFFF AND PUSH4 0xFFFFFFFF AND DUP2 MSTORE PUSH1 0x20 ADD SWAP1 DUP2 MSTORE PUSH1 0x20 ADD PUSH1 0x0 KECCAK256 PUSH1 0x0 ADD PUSH1 0x0 PUSH2 0x100 EXP DUP2 SLOAD DUP2 PUSH4 0xFFFFFFFF MUL NOT AND SWAP1 DUP4 PUSH4 0xFFFFFFFF AND MUL OR SWAP1 SSTORE POP DUP9 PUSH1 0x7 PUSH1 0x0 DUP1 PUSH1 0x0 SWAP1 SLOAD SWAP1 PUSH2 0x100 EXP SWAP1 DIV PUSH4 0xFFFFFFFF AND PUSH4 0xFFFFFFFF AND PUSH4 0xFFFFFFFF AND DUP2 MSTORE PUSH1 0x20 ADD SWAP1 DUP2 MSTORE PUSH1 0x20 ADD PUSH1 0x0 KECCAK256 PUSH1 0x0 ADD PUSH1 0x4 PUSH2 0x100 EXP DUP2 SLOAD DUP2 PUSH4 0xFFFFFFFF MUL NOT AND SWAP1 DUP4 PUSH4 0xFFFFFFFF AND MUL OR SWAP1 SSTORE POP TIMESTAMP PUSH1 0x7 PUSH1 0x0 DUP1 PUSH1 0x0 SWAP1 SLOAD SWAP1 PUSH2 0x100 EXP SWAP1 DIV PUSH4 0xFFFFFFFF AND PUSH4 0xFFFFFFFF AND PUSH4 0xFFFFFFFF AND DUP2 MSTORE PUSH1 0x20 ADD SWAP1 DUP2 MSTORE PUSH1 0x20 ADD PUSH1 0x0 KECCAK256 PUSH1 0x0 ADD PUSH1 0x8 PUSH2 0x100 EXP DUP2 SLOAD DUP2 PUSH7 0xFFFFFFFFFFFFFF MUL NOT AND SWAP1 DUP4 PUSH7 0xFFFFFFFFFFFFFF AND MUL OR SWAP1 SSTORE POP DUP8 PUSH1 0x7 PUSH1 0x0 DUP1 PUSH1 0x0 SWAP1 SLOAD SWAP1 PUSH2 0x100 EXP SWAP1 DIV PUSH4 0xFFFFFFFF AND PUSH4 0xFFFFFFFF AND PUSH4 0xFFFFFFFF AND DUP2 MSTORE PUSH1 0x20 ADD SWAP1 DUP2 MSTORE PUSH1 0x20 ADD PUSH1 0x0 KECCAK256 PUSH1 0x0 ADD PUSH1 0xF PUSH2 0x100 EXP DUP2 SLOAD DUP2 PUSH16 0xFFFFFFFFFFFFFFFFFFFFFFFFFFFFFFFF MUL NOT AND SWAP1 DUP4 PUSH16 0xFFFFFFFFFFFFFFFFFFFFFFFFFFFFFFFF AND MUL OR SWAP1 SSTORE POP DUP5 PUSH1 0x7 PUSH1 0x0 DUP1 PUSH1 0x0 SWAP1 SLOAD SWAP1 PUSH2 0x100 EXP SWAP1 DIV PUSH4 0xFFFFFFFF AND PUSH4 0xFFFFFFFF AND PUSH4 0xFFFFFFFF AND DUP2 MSTORE PUSH1 0x20 ADD SWAP1 DUP2 MSTORE PUSH1 0x20 ADD PUSH1 0x0 KECCAK256 PUSH1 0x1 ADD DUP2 SWAP1 SSTORE POP DUP10 PUSH1 0x7 PUSH1 0x0 DUP1 PUSH1 0x0 SWAP1 SLOAD SWAP1 PUSH2 0x100 EXP SWAP1 DIV PUSH4 0xFFFFFFFF AND PUSH4 0xFFFFFFFF AND PUSH4 0xFFFFFFFF AND DUP2 MSTORE PUSH1 0x20 ADD SWAP1 DUP2 MSTORE PUSH1 0x20 ADD PUSH1 0x0 KECCAK256 PUSH1 0x2 ADD PUSH1 0x0 PUSH2 0x100 EXP DUP2 SLOAD DUP2 PUSH20 0xFFFFFFFFFFFFFFFFFFFFFFFFFFFFFFFFFFFFFFFF MUL NOT AND SWAP1 DUP4 PUSH20 0xFFFFFFFFFFFFFFFFFFFFFFFFFFFFFFFFFFFFFFFF AND MUL OR SWAP1 SSTORE POP DUP3 PUSH1 0x7 PUSH1 0x0 DUP1 PUSH1 0x0 SWAP1 SLOAD SWAP1 PUSH2 0x100 EXP SWAP1 DIV PUSH4 0xFFFFFFFF AND PUSH4 0xFFFFFFFF AND PUSH4 0xFFFFFFFF AND DUP2 MSTORE PUSH1 0x20 ADD SWAP1 DUP2 MSTORE PUSH1 0x20 ADD PUSH1 0x0 KECCAK256 PUSH1 0x3 ADD PUSH1 0x0 PUSH2 0x100 EXP DUP2 SLOAD DUP2 PUSH20 0xFFFFFFFFFFFFFFFFFFFFFFFFFFFFFFFFFFFFFFFF MUL NOT AND SWAP1 DUP4 PUSH20 0xFFFFFFFFFFFFFFFFFFFFFFFFFFFFFFFFFFFFFFFF AND MUL OR SWAP1 SSTORE POP DUP2 PUSH1 0x7 PUSH1 0x0 DUP1 PUSH1 0x0 SWAP1 SLOAD SWAP1 PUSH2 0x100 EXP SWAP1 DIV PUSH4 0xFFFFFFFF AND PUSH4 0xFFFFFFFF AND PUSH4 0xFFFFFFFF AND DUP2 MSTORE PUSH1 0x20 ADD SWAP1 DUP2 MSTORE PUSH1 0x20 ADD PUSH1 0x0 KECCAK256 PUSH1 0x4 ADD PUSH1 0x0 PUSH2 0x100 EXP DUP2 SLOAD DUP2 PUSH20 0xFFFFFFFFFFFFFFFFFFFFFFFFFFFFFFFFFFFFFFFF MUL NOT AND SWAP1 DUP4 PUSH20 0xFFFFFFFFFFFFFFFFFFFFFFFFFFFFFFFFFFFFFFFF AND MUL OR SWAP1 SSTORE POP DUP1 PUSH1 0x7 PUSH1 0x0 DUP1 PUSH1 0x0 SWAP1 SLOAD SWAP1 PUSH2 0x100 EXP SWAP1 DIV PUSH4 0xFFFFFFFF AND PUSH4 0xFFFFFFFF AND PUSH4 0xFFFFFFFF AND DUP2 MSTORE PUSH1 0x20 ADD SWAP1 DUP2 MSTORE PUSH1 0x20 ADD PUSH1 0x0 KECCAK256 PUSH1 0x4 ADD PUSH1 0x14 PUSH2 0x100 EXP DUP2 SLOAD DUP2 PUSH1 0xFF MUL NOT AND SWAP1 DUP4 PUSH1 0x4 DUP2 GT ISZERO PUSH2 0x96C JUMPI PUSH2 0x96B PUSH2 0x1F9B JUMP JUMPDEST JUMPDEST MUL OR SWAP1 SSTORE POP PUSH1 0x0 DUP1 SLOAD SWAP1 PUSH2 0x100 EXP SWAP1 DIV PUSH4 0xFFFFFFFF AND PUSH1 0x8 PUSH1 0x0 DUP1 PUSH1 0x0 SWAP1 SLOAD SWAP1 PUSH2 0x100 EXP SWAP1 DIV PUSH4 0xFFFFFFFF AND PUSH4 0xFFFFFFFF AND PUSH4 0xFFFFFFFF AND DUP2 MSTORE PUSH1 0x20 ADD SWAP1 DUP2 MSTORE PUSH1 0x20 ADD PUSH1 0x0 KECCAK256 PUSH1 0x0 CALLER PUSH20 0xFFFFFFFFFFFFFFFFFFFFFFFFFFFFFFFFFFFFFFFF AND PUSH20 0xFFFFFFFFFFFFFFFFFFFFFFFFFFFFFFFFFFFFFFFF AND DUP2 MSTORE PUSH1 0x20 ADD SWAP1 DUP2 MSTORE PUSH1 0x20 ADD PUSH1 0x0 KECCAK256 PUSH1 0x0 ADD PUSH1 0x0 PUSH2 0x100 EXP DUP2 SLOAD DUP2 PUSH4 0xFFFFFFFF MUL NOT AND SWAP1 DUP4 PUSH4 0xFFFFFFFF AND MUL OR SWAP1 SSTORE POP PUSH1 0x7 PUSH1 0x0 DUP1 PUSH1 0x0 SWAP1 SLOAD SWAP1 PUSH2 0x100 EXP SWAP1 DIV PUSH4 0xFFFFFFFF AND PUSH4 0xFFFFFFFF AND PUSH4 0xFFFFFFFF AND DUP2 MSTORE PUSH1 0x20 ADD SWAP1 DUP2 MSTORE PUSH1 0x20 ADD PUSH1 0x0 KECCAK256 PUSH1 0x0 ADD PUSH1 0x8 SWAP1 SLOAD SWAP1 PUSH2 0x100 EXP SWAP1 DIV PUSH7 0xFFFFFFFFFFFFFF AND PUSH1 0x8 PUSH1 0x0 DUP1 PUSH1 0x0 SWAP1 SLOAD SWAP1 PUSH2 0x100 EXP SWAP1 DIV PUSH4 0xFFFFFFFF AND PUSH4 0xFFFFFFFF AND PUSH4 0xFFFFFFFF AND DUP2 MSTORE PUSH1 0x20 ADD SWAP1 DUP2 MSTORE PUSH1 0x20 ADD PUSH1 0x0 KECCAK256 PUSH1 0x0 CALLER PUSH20 0xFFFFFFFFFFFFFFFFFFFFFFFFFFFFFFFFFFFFFFFF AND PUSH20 0xFFFFFFFFFFFFFFFFFFFFFFFFFFFFFFFFFFFFFFFF AND DUP2 MSTORE PUSH1 0x20 ADD SWAP1 DUP2 MSTORE PUSH1 0x20 ADD PUSH1 0x0 KECCAK256 PUSH1 0x0 ADD PUSH1 0x4 PUSH2 0x100 EXP DUP2 SLOAD DUP2 PUSH7 0xFFFFFFFFFFFFFF MUL NOT AND SWAP1 DUP4 PUSH7 0xFFFFFFFFFFFFFF AND MUL OR SWAP1 SSTORE POP PUSH1 0x0 PUSH1 0x8 PUSH1 0x0 DUP1 PUSH1 0x0 SWAP1 SLOAD SWAP1 PUSH2 0x100 EXP SWAP1 DIV PUSH4 0xFFFFFFFF AND PUSH4 0xFFFFFFFF AND PUSH4 0xFFFFFFFF AND DUP2 MSTORE PUSH1 0x20 ADD SWAP1 DUP2 MSTORE PUSH1 0x20 ADD PUSH1 0x0 KECCAK256 PUSH1 0x0 CALLER PUSH20 0xFFFFFFFFFFFFFFFFFFFFFFFFFFFFFFFFFFFFFFFF AND PUSH20 0xFFFFFFFFFFFFFFFFFFFFFFFFFFFFFFFFFFFFFFFF AND DUP2 MSTORE PUSH1 0x20 ADD SWAP1 DUP2 MSTORE PUSH1 0x20 ADD PUSH1 0x0 KECCAK256 PUSH1 0x0 ADD PUSH1 0xB PUSH2 0x100 EXP DUP2 SLOAD DUP2 PUSH7 0xFFFFFFFFFFFFFF MUL NOT AND SWAP1 DUP4 PUSH7 0xFFFFFFFFFFFFFF AND MUL OR SWAP1 SSTORE POP DUP4 PUSH1 0x8 PUSH1 0x0 DUP1 PUSH1 0x0 SWAP1 SLOAD SWAP1 PUSH2 0x100 EXP SWAP1 DIV PUSH4 0xFFFFFFFF AND PUSH4 0xFFFFFFFF AND PUSH4 0xFFFFFFFF AND DUP2 MSTORE PUSH1 0x20 ADD SWAP1 DUP2 MSTORE PUSH1 0x20 ADD PUSH1 0x0 KECCAK256 PUSH1 0x0 CALLER PUSH20 0xFFFFFFFFFFFFFFFFFFFFFFFFFFFFFFFFFFFFFFFF AND PUSH20 0xFFFFFFFFFFFFFFFFFFFFFFFFFFFFFFFFFFFFFFFF AND DUP2 MSTORE PUSH1 0x20 ADD SWAP1 DUP2 MSTORE PUSH1 0x20 ADD PUSH1 0x0 KECCAK256 PUSH1 0x1 ADD DUP2 SWAP1 SSTORE POP PUSH1 0x0 PUSH1 0x8 PUSH1 0x0 DUP1 PUSH1 0x0 SWAP1 SLOAD SWAP1 PUSH2 0x100 EXP SWAP1 DIV PUSH4 0xFFFFFFFF AND PUSH4 0xFFFFFFFF AND PUSH4 0xFFFFFFFF AND DUP2 MSTORE PUSH1 0x20 ADD SWAP1 DUP2 MSTORE PUSH1 0x20 ADD PUSH1 0x0 KECCAK256 PUSH1 0x0 CALLER PUSH20 0xFFFFFFFFFFFFFFFFFFFFFFFFFFFFFFFFFFFFFFFF AND PUSH20 0xFFFFFFFFFFFFFFFFFFFFFFFFFFFFFFFFFFFFFFFF AND DUP2 MSTORE PUSH1 0x20 ADD SWAP1 DUP2 MSTORE PUSH1 0x20 ADD PUSH1 0x0 KECCAK256 PUSH1 0x2 ADD DUP2 SWAP1 SSTORE POP CALLER PUSH1 0x8 PUSH1 0x0 DUP1 PUSH1 0x0 SWAP1 SLOAD SWAP1 PUSH2 0x100 EXP SWAP1 DIV PUSH4 0xFFFFFFFF AND PUSH4 0xFFFFFFFF AND PUSH4 0xFFFFFFFF AND DUP2 MSTORE PUSH1 0x20 ADD SWAP1 DUP2 MSTORE PUSH1 0x20 ADD PUSH1 0x0 KECCAK256 PUSH1 0x0 CALLER PUSH20 0xFFFFFFFFFFFFFFFFFFFFFFFFFFFFFFFFFFFFFFFF AND PUSH20 0xFFFFFFFFFFFFFFFFFFFFFFFFFFFFFFFFFFFFFFFF AND DUP2 MSTORE PUSH1 0x20 ADD SWAP1 DUP2 MSTORE PUSH1 0x20 ADD PUSH1 0x0 KECCAK256 PUSH1 0x3 ADD PUSH1 0x0 PUSH2 0x100 EXP DUP2 SLOAD DUP2 PUSH20 0xFFFFFFFFFFFFFFFFFFFFFFFFFFFFFFFFFFFFFFFF MUL NOT AND SWAP1 DUP4 PUSH20 0xFFFFFFFFFFFFFFFFFFFFFFFFFFFFFFFFFFFFFFFF AND MUL OR SWAP1 SSTORE POP DUP4 PUSH1 0x1 PUSH1 0x0 DUP3 DUP3 SLOAD PUSH2 0xD2D SWAP2 SWAP1 PUSH2 0x2593 JUMP JUMPDEST SWAP3 POP POP DUP2 SWAP1 SSTORE POP PUSH1 0x0 DUP1 DUP2 DUP2 SWAP1 SLOAD SWAP1 PUSH2 0x100 EXP SWAP1 DIV PUSH4 0xFFFFFFFF AND DUP1 SWAP3 SWAP2 SWAP1 PUSH2 0xD55 SWAP1 PUSH2 0x25C7 JUMP JUMPDEST SWAP2 SWAP1 PUSH2 0x100 EXP DUP2 SLOAD DUP2 PUSH4 0xFFFFFFFF MUL NOT AND SWAP1 DUP4 PUSH4 0xFFFFFFFF AND MUL OR SWAP1 SSTORE POP POP POP POP POP POP POP POP POP POP POP POP JUMP JUMPDEST PUSH3 0x15180 PUSH1 0x0 PUSH1 0x4 SWAP1 SLOAD SWAP1 PUSH2 0x100 EXP SWAP1 DIV PUSH7 0xFFFFFFFFFFFFFF AND PUSH2 0xDA4 SWAP2 SWAP1 PUSH2 0x2423 JUMP JUMPDEST PUSH7 0xFFFFFFFFFFFFFF AND TIMESTAMP GT ISZERO PUSH2 0xDE6 JUMPI PUSH1 0x40 MLOAD PUSH32 0xEE1EA89500000000000000000000000000000000000000000000000000000000 DUP2 MSTORE PUSH1 0x4 ADD PUSH1 0x40 MLOAD DUP1 SWAP2 SUB SWAP1 REVERT JUMPDEST PUSH1 0x0 PUSH1 0x7 PUSH1 0x0 DUP4 PUSH4 0xFFFFFFFF AND PUSH4 0xFFFFFFFF AND DUP2 MSTORE PUSH1 0x20 ADD SWAP1 DUP2 MSTORE PUSH1 0x20 ADD PUSH1 0x0 KECCAK256 PUSH1 0x40 MLOAD DUP1 PUSH2 0x120 ADD PUSH1 0x40 MSTORE SWAP1 DUP2 PUSH1 0x0 DUP3 ADD PUSH1 0x0 SWAP1 SLOAD SWAP1 PUSH2 0x100 EXP SWAP1 DIV PUSH4 0xFFFFFFFF AND PUSH4 0xFFFFFFFF AND PUSH4 0xFFFFFFFF AND DUP2 MSTORE PUSH1 0x20 ADD PUSH1 0x0 DUP3 ADD PUSH1 0x4 SWAP1 SLOAD SWAP1 PUSH2 0x100 EXP SWAP1 DIV PUSH4 0xFFFFFFFF AND PUSH4 0xFFFFFFFF AND PUSH4 0xFFFFFFFF AND DUP2 MSTORE PUSH1 0x20 ADD PUSH1 0x0 DUP3 ADD PUSH1 0x8 SWAP1 SLOAD SWAP1 PUSH2 0x100 EXP SWAP1 DIV PUSH7 0xFFFFFFFFFFFFFF AND PUSH7 0xFFFFFFFFFFFFFF AND PUSH7 0xFFFFFFFFFFFFFF AND DUP2 MSTORE PUSH1 0x20 ADD PUSH1 0x0 DUP3 ADD PUSH1 0xF SWAP1 SLOAD SWAP1 PUSH2 0x100 EXP SWAP1 DIV PUSH16 0xFFFFFFFFFFFFFFFFFFFFFFFFFFFFFFFF AND PUSH16 0xFFFFFFFFFFFFFFFFFFFFFFFFFFFFFFFF AND PUSH16 0xFFFFFFFFFFFFFFFFFFFFFFFFFFFFFFFF AND DUP2 MSTORE PUSH1 0x20 ADD PUSH1 0x1 DUP3 ADD SLOAD DUP2 MSTORE PUSH1 0x20 ADD PUSH1 0x2 DUP3 ADD PUSH1 0x0 SWAP1 SLOAD SWAP1 PUSH2 0x100 EXP SWAP1 DIV PUSH20 0xFFFFFFFFFFFFFFFFFFFFFFFFFFFFFFFFFFFFFFFF AND PUSH20 0xFFFFFFFFFFFFFFFFFFFFFFFFFFFFFFFFFFFFFFFF AND PUSH20 0xFFFFFFFFFFFFFFFFFFFFFFFFFFFFFFFFFFFFFFFF AND DUP2 MSTORE PUSH1 0x20 ADD PUSH1 0x3 DUP3 ADD PUSH1 0x0 SWAP1 SLOAD SWAP1 PUSH2 0x100 EXP SWAP1 DIV PUSH20 0xFFFFFFFFFFFFFFFFFFFFFFFFFFFFFFFFFFFFFFFF AND PUSH20 0xFFFFFFFFFFFFFFFFFFFFFFFFFFFFFFFFFFFFFFFF AND PUSH20 0xFFFFFFFFFFFFFFFFFFFFFFFFFFFFFFFFFFFFFFFF AND DUP2 MSTORE PUSH1 0x20 ADD PUSH1 0x4 DUP3 ADD PUSH1 0x0 SWAP1 SLOAD SWAP1 PUSH2 0x100 EXP SWAP1 DIV PUSH20 0xFFFFFFFFFFFFFFFFFFFFFFFFFFFFFFFFFFFFFFFF AND PUSH20 0xFFFFFFFFFFFFFFFFFFFFFFFFFFFFFFFFFFFFFFFF AND PUSH20 0xFFFFFFFFFFFFFFFFFFFFFFFFFFFFFFFFFFFFFFFF AND DUP2 MSTORE PUSH1 0x20 ADD PUSH1 0x4 DUP3 ADD PUSH1 0x14 SWAP1 SLOAD SWAP1 PUSH2 0x100 EXP SWAP1 DIV PUSH1 0xFF AND PUSH1 0x4 DUP2 GT ISZERO PUSH2 0x1009 JUMPI PUSH2 0x1008 PUSH2 0x1F9B JUMP JUMPDEST JUMPDEST PUSH1 0x4 DUP2 GT ISZERO PUSH2 0x101B JUMPI PUSH2 0x101A PUSH2 0x1F9B JUMP JUMPDEST JUMPDEST DUP2 MSTORE POP POP SWAP1 POP PUSH1 0x0 DUP2 PUSH1 0xA0 ADD MLOAD SWAP1 POP PUSH1 0x0 DUP3 PUSH1 0x80 ADD MLOAD SWAP1 POP PUSH1 0x0 PUSH2 0x1048 DUP5 PUSH1 0x20 ADD MLOAD DUP6 PUSH1 0x60 ADD MLOAD DUP5 PUSH2 0x18D1 JUMP JUMPDEST SWAP1 POP PUSH2 0x1077 CALLER ADDRESS DUP4 DUP7 PUSH20 0xFFFFFFFFFFFFFFFFFFFFFFFFFFFFFFFFFFFFFFFF AND PUSH2 0x1918 SWAP1 SWAP4 SWAP3 SWAP2 SWAP1 PUSH4 0xFFFFFFFF AND JUMP JUMPDEST DUP3 PUSH20 0xFFFFFFFFFFFFFFFFFFFFFFFFFFFFFFFFFFFFFFFF AND PUSH4 0x95EA7B3 PUSH1 0x6 PUSH1 0x0 SWAP1 SLOAD SWAP1 PUSH2 0x100 EXP SWAP1 DIV PUSH20 0xFFFFFFFFFFFFFFFFFFFFFFFFFFFFFFFFFFFFFFFF AND DUP4 PUSH1 0x40 MLOAD DUP4 PUSH4 0xFFFFFFFF AND PUSH1 0xE0 SHL DUP2 MSTORE PUSH1 0x4 ADD PUSH2 0x10D4 SWAP3 SWAP2 SWAP1 PUSH2 0x246D JUMP JUMPDEST PUSH1 0x20 PUSH1 0x40 MLOAD DUP1 DUP4 SUB DUP2 PUSH1 0x0 DUP8 GAS CALL ISZERO DUP1 ISZERO PUSH2 0x10F3 JUMPI RETURNDATASIZE PUSH1 0x0 DUP1 RETURNDATACOPY RETURNDATASIZE PUSH1 0x0 REVERT JUMPDEST POP POP POP POP PUSH1 0x40 MLOAD RETURNDATASIZE PUSH1 0x1F NOT PUSH1 0x1F DUP3 ADD AND DUP3 ADD DUP1 PUSH1 0x40 MSTORE POP DUP2 ADD SWAP1 PUSH2 0x1117 SWAP2 SWAP1 PUSH2 0x24CE JUMP JUMPDEST POP PUSH1 0x6 PUSH1 0x0 SWAP1 SLOAD SWAP1 PUSH2 0x100 EXP SWAP1 DIV PUSH20 0xFFFFFFFFFFFFFFFFFFFFFFFFFFFFFFFFFFFFFFFF AND PUSH20 0xFFFFFFFFFFFFFFFFFFFFFFFFFFFFFFFFFFFFFFFF AND PUSH4 0x617BA037 DUP5 DUP4 ADDRESS PUSH1 0x0 PUSH1 0x40 MLOAD DUP6 PUSH4 0xFFFFFFFF AND PUSH1 0xE0 SHL DUP2 MSTORE PUSH1 0x4 ADD PUSH2 0x117A SWAP5 SWAP4 SWAP3 SWAP2 SWAP1 PUSH2 0x254E JUMP JUMPDEST PUSH1 0x0 PUSH1 0x40 MLOAD DUP1 DUP4 SUB DUP2 PUSH1 0x0 DUP8 DUP1 EXTCODESIZE ISZERO DUP1 ISZERO PUSH2 0x1194 JUMPI PUSH1 0x0 DUP1 REVERT JUMPDEST POP GAS CALL ISZERO DUP1 ISZERO PUSH2 0x11A8 JUMPI RETURNDATASIZE PUSH1 0x0 DUP1 RETURNDATACOPY RETURNDATASIZE PUSH1 0x0 REVERT JUMPDEST POP POP POP POP PUSH1 0x0 PUSH1 0x4 DUP2 GT ISZERO PUSH2 0x11C0 JUMPI PUSH2 0x11BF PUSH2 0x1F9B JUMP JUMPDEST JUMPDEST DUP5 PUSH2 0x100 ADD MLOAD PUSH1 0x4 DUP2 GT ISZERO PUSH2 0x11D8 JUMPI PUSH2 0x11D7 PUSH2 0x1F9B JUMP JUMPDEST JUMPDEST SUB PUSH2 0x1243 JUMPI CALLER PUSH1 0x7 PUSH1 0x0 DUP8 PUSH4 0xFFFFFFFF AND PUSH4 0xFFFFFFFF AND DUP2 MSTORE PUSH1 0x20 ADD SWAP1 DUP2 MSTORE PUSH1 0x20 ADD PUSH1 0x0 KECCAK256 PUSH1 0x4 ADD PUSH1 0x0 PUSH2 0x100 EXP DUP2 SLOAD DUP2 PUSH20 0xFFFFFFFFFFFFFFFFFFFFFFFFFFFFFFFFFFFFFFFF MUL NOT AND SWAP1 DUP4 PUSH20 0xFFFFFFFFFFFFFFFFFFFFFFFFFFFFFFFFFFFFFFFF AND MUL OR SWAP1 SSTORE POP PUSH2 0x1316 JUMP JUMPDEST PUSH1 0x1 PUSH1 0x4 DUP2 GT ISZERO PUSH2 0x1257 JUMPI PUSH2 0x1256 PUSH2 0x1F9B JUMP JUMPDEST JUMPDEST DUP5 PUSH2 0x100 ADD MLOAD PUSH1 0x4 DUP2 GT ISZERO PUSH2 0x126F JUMPI PUSH2 0x126E PUSH2 0x1F9B JUMP JUMPDEST JUMPDEST SUB PUSH2 0x12DA JUMPI CALLER PUSH1 0x7 PUSH1 0x0 DUP8 PUSH4 0xFFFFFFFF AND PUSH4 0xFFFFFFFF AND DUP2 MSTORE PUSH1 0x20 ADD SWAP1 DUP2 MSTORE PUSH1 0x20 ADD PUSH1 0x0 KECCAK256 PUSH1 0x3 ADD PUSH1 0x0 PUSH2 0x100 EXP DUP2 SLOAD DUP2 PUSH20 0xFFFFFFFFFFFFFFFFFFFFFFFFFFFFFFFFFFFFFFFF MUL NOT AND SWAP1 DUP4 PUSH20 0xFFFFFFFFFFFFFFFFFFFFFFFFFFFFFFFFFFFFFFFF AND MUL OR SWAP1 SSTORE POP PUSH2 0x1315 JUMP JUMPDEST PUSH1 0x40 MLOAD PUSH32 0x8C379A000000000000000000000000000000000000000000000000000000000 DUP2 MSTORE PUSH1 0x4 ADD PUSH2 0x130C SWAP1 PUSH2 0x263F JUMP JUMPDEST PUSH1 0x40 MLOAD DUP1 SWAP2 SUB SWAP1 REVERT JUMPDEST JUMPDEST PUSH1 0x2 PUSH1 0x7 PUSH1 0x0 DUP8 PUSH4 0xFFFFFFFF AND PUSH4 0xFFFFFFFF AND DUP2 MSTORE PUSH1 0x20 ADD SWAP1 DUP2 MSTORE PUSH1 0x20 ADD PUSH1 0x0 KECCAK256 PUSH1 0x4 ADD PUSH1 0x14 PUSH2 0x100 EXP DUP2 SLOAD DUP2 PUSH1 0xFF MUL NOT AND SWAP1 DUP4 PUSH1 0x4 DUP2 GT ISZERO PUSH2 0x135C JUMPI PUSH2 0x135B PUSH2 0x1F9B JUMP JUMPDEST JUMPDEST MUL OR SWAP1 SSTORE POP DUP5 PUSH1 0x8 PUSH1 0x0 DUP8 PUSH4 0xFFFFFFFF AND PUSH4 0xFFFFFFFF AND DUP2 MSTORE PUSH1 0x20 ADD SWAP1 DUP2 MSTORE PUSH1 0x20 ADD PUSH1 0x0 KECCAK256 PUSH1 0x0 CALLER PUSH20 0xFFFFFFFFFFFFFFFFFFFFFFFFFFFFFFFFFFFFFFFF AND PUSH20 0xFFFFFFFFFFFFFFFFFFFFFFFFFFFFFFFFFFFFFFFF AND DUP2 MSTORE PUSH1 0x20 ADD SWAP1 DUP2 MSTORE PUSH1 0x20 ADD PUSH1 0x0 KECCAK256 PUSH1 0x0 ADD PUSH1 0x0 PUSH2 0x100 EXP DUP2 SLOAD DUP2 PUSH4 0xFFFFFFFF MUL NOT AND SWAP1 DUP4 PUSH4 0xFFFFFFFF AND MUL OR SWAP1 SSTORE POP TIMESTAMP PUSH1 0x8 PUSH1 0x0 DUP8 PUSH4 0xFFFFFFFF AND PUSH4 0xFFFFFFFF AND DUP2 MSTORE PUSH1 0x20 ADD SWAP1 DUP2 MSTORE PUSH1 0x20 ADD PUSH1 0x0 KECCAK256 PUSH1 0x0 CALLER PUSH20 0xFFFFFFFFFFFFFFFFFFFFFFFFFFFFFFFFFFFFFFFF AND PUSH20 0xFFFFFFFFFFFFFFFFFFFFFFFFFFFFFFFFFFFFFFFF AND DUP2 MSTORE PUSH1 0x20 ADD SWAP1 DUP2 MSTORE PUSH1 0x20 ADD PUSH1 0x0 KECCAK256 PUSH1 0x0 ADD PUSH1 0x4 PUSH2 0x100 EXP DUP2 SLOAD DUP2 PUSH7 0xFFFFFFFFFFFFFF MUL NOT AND SWAP1 DUP4 PUSH7 0xFFFFFFFFFFFFFF AND MUL OR SWAP1 SSTORE POP PUSH1 0x0 PUSH1 0x8 PUSH1 0x0 DUP8 PUSH4 0xFFFFFFFF AND PUSH4 0xFFFFFFFF AND DUP2 MSTORE PUSH1 0x20 ADD SWAP1 DUP2 MSTORE PUSH1 0x20 ADD PUSH1 0x0 KECCAK256 PUSH1 0x0 CALLER PUSH20 0xFFFFFFFFFFFFFFFFFFFFFFFFFFFFFFFFFFFFFFFF AND PUSH20 0xFFFFFFFFFFFFFFFFFFFFFFFFFFFFFFFFFFFFFFFF AND DUP2 MSTORE PUSH1 0x20 ADD SWAP1 DUP2 MSTORE PUSH1 0x20 ADD PUSH1 0x0 KECCAK256 PUSH1 0x0 ADD PUSH1 0xB PUSH2 0x100 EXP DUP2 SLOAD DUP2 PUSH7 0xFFFFFFFFFFFFFF MUL NOT AND SWAP1 DUP4 PUSH7 0xFFFFFFFFFFFFFF AND MUL OR SWAP1 SSTORE POP DUP1 PUSH1 0x8 PUSH1 0x0 DUP8 PUSH4 0xFFFFFFFF AND PUSH4 0xFFFFFFFF AND DUP2 MSTORE PUSH1 0x20 ADD SWAP1 DUP2 MSTORE PUSH1 0x20 ADD PUSH1 0x0 KECCAK256 PUSH1 0x0 CALLER PUSH20 0xFFFFFFFFFFFFFFFFFFFFFFFFFFFFFFFFFFFFFFFF AND PUSH20 0xFFFFFFFFFFFFFFFFFFFFFFFFFFFFFFFFFFFFFFFF AND DUP2 MSTORE PUSH1 0x20 ADD SWAP1 DUP2 MSTORE PUSH1 0x20 ADD PUSH1 0x0 KECCAK256 PUSH1 0x1 ADD DUP2 SWAP1 SSTORE POP PUSH1 0x0 PUSH1 0x8 PUSH1 0x0 DUP8 PUSH4 0xFFFFFFFF AND PUSH4 0xFFFFFFFF AND DUP2 MSTORE PUSH1 0x20 ADD SWAP1 DUP2 MSTORE PUSH1 0x20 ADD PUSH1 0x0 KECCAK256 PUSH1 0x0 CALLER PUSH20 0xFFFFFFFFFFFFFFFFFFFFFFFFFFFFFFFFFFFFFFFF AND PUSH20 0xFFFFFFFFFFFFFFFFFFFFFFFFFFFFFFFFFFFFFFFF AND DUP2 MSTORE PUSH1 0x20 ADD SWAP1 DUP2 MSTORE PUSH1 0x20 ADD PUSH1 0x0 KECCAK256 PUSH1 0x2 ADD DUP2 SWAP1 SSTORE POP CALLER PUSH1 0x8 PUSH1 0x0 DUP8 PUSH4 0xFFFFFFFF AND PUSH4 0xFFFFFFFF AND DUP2 MSTORE PUSH1 0x20 ADD SWAP1 DUP2 MSTORE PUSH1 0x20 ADD PUSH1 0x0 KECCAK256 PUSH1 0x0 CALLER PUSH20 0xFFFFFFFFFFFFFFFFFFFFFFFFFFFFFFFFFFFFFFFF AND PUSH20 0xFFFFFFFFFFFFFFFFFFFFFFFFFFFFFFFFFFFFFFFF AND DUP2 MSTORE PUSH1 0x20 ADD SWAP1 DUP2 MSTORE PUSH1 0x20 ADD PUSH1 0x0 KECCAK256 PUSH1 0x3 ADD PUSH1 0x0 PUSH2 0x100 EXP DUP2 SLOAD DUP2 PUSH20 0xFFFFFFFFFFFFFFFFFFFFFFFFFFFFFFFFFFFFFFFF MUL NOT AND SWAP1 DUP4 PUSH20 0xFFFFFFFFFFFFFFFFFFFFFFFFFFFFFFFFFFFFFFFF AND MUL OR SWAP1 SSTORE POP DUP1 PUSH1 0x1 PUSH1 0x0 DUP3 DUP3 SLOAD PUSH2 0x1661 SWAP2 SWAP1 PUSH2 0x2593 JUMP JUMPDEST SWAP3 POP POP DUP2 SWAP1 SSTORE POP POP POP POP POP POP JUMP JUMPDEST PUSH2 0x1677 PUSH2 0x1C36 JUMP JUMPDEST PUSH1 0x7 PUSH1 0x0 DUP4 PUSH4 0xFFFFFFFF AND PUSH4 0xFFFFFFFF AND DUP2 MSTORE PUSH1 0x20 ADD SWAP1 DUP2 MSTORE PUSH1 0x20 ADD PUSH1 0x0 KECCAK256 PUSH1 0x40 MLOAD DUP1 PUSH2 0x120 ADD PUSH1 0x40 MSTORE SWAP1 DUP2 PUSH1 0x0 DUP3 ADD PUSH1 0x0 SWAP1 SLOAD SWAP1 PUSH2 0x100 EXP SWAP1 DIV PUSH4 0xFFFFFFFF AND PUSH4 0xFFFFFFFF AND PUSH4 0xFFFFFFFF AND DUP2 MSTORE PUSH1 0x20 ADD PUSH1 0x0 DUP3 ADD PUSH1 0x4 SWAP1 SLOAD SWAP1 PUSH2 0x100 EXP SWAP1 DIV PUSH4 0xFFFFFFFF AND PUSH4 0xFFFFFFFF AND PUSH4 0xFFFFFFFF AND DUP2 MSTORE PUSH1 0x20 ADD PUSH1 0x0 DUP3 ADD PUSH1 0x8 SWAP1 SLOAD SWAP1 PUSH2 0x100 EXP SWAP1 DIV PUSH7 0xFFFFFFFFFFFFFF AND PUSH7 0xFFFFFFFFFFFFFF AND PUSH7 0xFFFFFFFFFFFFFF AND DUP2 MSTORE PUSH1 0x20 ADD PUSH1 0x0 DUP3 ADD PUSH1 0xF SWAP1 SLOAD SWAP1 PUSH2 0x100 EXP SWAP1 DIV PUSH16 0xFFFFFFFFFFFFFFFFFFFFFFFFFFFFFFFF AND PUSH16 0xFFFFFFFFFFFFFFFFFFFFFFFFFFFFFFFF AND PUSH16 0xFFFFFFFFFFFFFFFFFFFFFFFFFFFFFFFF AND DUP2 MSTORE PUSH1 0x20 ADD PUSH1 0x1 DUP3 ADD SLOAD DUP2 MSTORE PUSH1 0x20 ADD PUSH1 0x2 DUP3 ADD PUSH1 0x0 SWAP1 SLOAD SWAP1 PUSH2 0x100 EXP SWAP1 DIV PUSH20 0xFFFFFFFFFFFFFFFFFFFFFFFFFFFFFFFFFFFFFFFF AND PUSH20 0xFFFFFFFFFFFFFFFFFFFFFFFFFFFFFFFFFFFFFFFF AND PUSH20 0xFFFFFFFFFFFFFFFFFFFFFFFFFFFFFFFFFFFFFFFF AND DUP2 MSTORE PUSH1 0x20 ADD PUSH1 0x3 DUP3 ADD PUSH1 0x0 SWAP1 SLOAD SWAP1 PUSH2 0x100 EXP SWAP1 DIV PUSH20 0xFFFFFFFFFFFFFFFFFFFFFFFFFFFFFFFFFFFFFFFF AND PUSH20 0xFFFFFFFFFFFFFFFFFFFFFFFFFFFFFFFFFFFFFFFF AND PUSH20 0xFFFFFFFFFFFFFFFFFFFFFFFFFFFFFFFFFFFFFFFF AND DUP2 MSTORE PUSH1 0x20 ADD PUSH1 0x4 DUP3 ADD PUSH1 0x0 SWAP1 SLOAD SWAP1 PUSH2 0x100 EXP SWAP1 DIV PUSH20 0xFFFFFFFFFFFFFFFFFFFFFFFFFFFFFFFFFFFFFFFF AND PUSH20 0xFFFFFFFFFFFFFFFFFFFFFFFFFFFFFFFFFFFFFFFF AND PUSH20 0xFFFFFFFFFFFFFFFFFFFFFFFFFFFFFFFFFFFFFFFF AND DUP2 MSTORE PUSH1 0x20 ADD PUSH1 0x4 DUP3 ADD PUSH1 0x14 SWAP1 SLOAD SWAP1 PUSH2 0x100 EXP SWAP1 DIV PUSH1 0xFF AND PUSH1 0x4 DUP2 GT ISZERO PUSH2 0x1898 JUMPI PUSH2 0x1897 PUSH2 0x1F9B JUMP JUMPDEST JUMPDEST PUSH1 0x4 DUP2 GT ISZERO PUSH2 0x18AA JUMPI PUSH2 0x18A9 PUSH2 0x1F9B JUMP JUMPDEST JUMPDEST DUP2 MSTORE POP POP SWAP1 POP SWAP2 SWAP1 POP JUMP JUMPDEST PUSH1 0x0 DUP1 PUSH1 0x4 SWAP1 SLOAD SWAP1 PUSH2 0x100 EXP SWAP1 DIV PUSH7 0xFFFFFFFFFFFFFF AND SWAP1 POP SWAP1 JUMP JUMPDEST PUSH1 0x0 DUP2 PUSH2 0x3E8 DUP6 PUSH4 0xFFFFFFFF AND DUP6 PUSH2 0x18E9 SWAP2 SWAP1 PUSH2 0x265F JUMP JUMPDEST PUSH2 0x18F3 SWAP2 SWAP1 PUSH2 0x26CB JUMP JUMPDEST PUSH16 0xFFFFFFFFFFFFFFFFFFFFFFFFFFFFFFFF AND PUSH2 0x190F SWAP2 SWAP1 PUSH2 0x23E1 JUMP JUMPDEST SWAP1 POP SWAP4 SWAP3 POP POP POP JUMP JUMPDEST PUSH2 0x199B DUP5 PUSH4 0x23B872DD PUSH1 0xE0 SHL DUP6 DUP6 DUP6 PUSH1 0x40 MLOAD PUSH1 0x24 ADD PUSH2 0x1939 SWAP4 SWAP3 SWAP2 SWAP1 PUSH2 0x26FC JUMP JUMPDEST PUSH1 0x40 MLOAD PUSH1 0x20 DUP2 DUP4 SUB SUB DUP2 MSTORE SWAP1 PUSH1 0x40 MSTORE SWAP1 PUSH28 0xFFFFFFFFFFFFFFFFFFFFFFFFFFFFFFFFFFFFFFFFFFFFFFFFFFFFFFFF NOT AND PUSH1 0x20 DUP3 ADD DUP1 MLOAD PUSH28 0xFFFFFFFFFFFFFFFFFFFFFFFFFFFFFFFFFFFFFFFFFFFFFFFFFFFFFFFF DUP4 DUP2 DUP4 AND OR DUP4 MSTORE POP POP POP POP PUSH2 0x19A1 JUMP JUMPDEST POP POP POP POP JUMP JUMPDEST PUSH1 0x0 PUSH2 0x1A03 DUP3 PUSH1 0x40 MLOAD DUP1 PUSH1 0x40 ADD PUSH1 0x40 MSTORE DUP1 PUSH1 0x20 DUP2 MSTORE PUSH1 0x20 ADD PUSH32 0x5361666545524332303A206C6F772D6C6576656C2063616C6C206661696C6564 DUP2 MSTORE POP DUP6 PUSH20 0xFFFFFFFFFFFFFFFFFFFFFFFFFFFFFFFFFFFFFFFF AND PUSH2 0x1A69 SWAP1 SWAP3 SWAP2 SWAP1 PUSH4 0xFFFFFFFF AND JUMP JUMPDEST SWAP1 POP PUSH1 0x0 DUP2 MLOAD EQ DUP1 PUSH2 0x1A25 JUMPI POP DUP1 DUP1 PUSH1 0x20 ADD SWAP1 MLOAD DUP2 ADD SWAP1 PUSH2 0x1A24 SWAP2 SWAP1 PUSH2 0x24CE JUMP JUMPDEST JUMPDEST PUSH2 0x1A64 JUMPI PUSH1 0x40 MLOAD PUSH32 0x8C379A000000000000000000000000000000000000000000000000000000000 DUP2 MSTORE PUSH1 0x4 ADD PUSH2 0x1A5B SWAP1 PUSH2 0x27A5 JUMP JUMPDEST PUSH1 0x40 MLOAD DUP1 SWAP2 SUB SWAP1 REVERT JUMPDEST POP POP POP JUMP JUMPDEST PUSH1 0x60 PUSH2 0x1A78 DUP5 DUP5 PUSH1 0x0 DUP6 PUSH2 0x1A81 JUMP JUMPDEST SWAP1 POP SWAP4 SWAP3 POP POP POP JUMP JUMPDEST PUSH1 0x60 DUP3 SELFBALANCE LT ISZERO PUSH2 0x1AC6 JUMPI PUSH1 0x40 MLOAD PUSH32 0x8C379A000000000000000000000000000000000000000000000000000000000 DUP2 MSTORE PUSH1 0x4 ADD PUSH2 0x1ABD SWAP1 PUSH2 0x2837 JUMP JUMPDEST PUSH1 0x40 MLOAD DUP1 SWAP2 SUB SWAP1 REVERT JUMPDEST PUSH1 0x0 DUP1 DUP7 PUSH20 0xFFFFFFFFFFFFFFFFFFFFFFFFFFFFFFFFFFFFFFFF AND DUP6 DUP8 PUSH1 0x40 MLOAD PUSH2 0x1AEF SWAP2 SWAP1 PUSH2 0x28C8 JUMP JUMPDEST PUSH1 0x0 PUSH1 0x40 MLOAD DUP1 DUP4 SUB DUP2 DUP6 DUP8 GAS CALL SWAP3 POP POP POP RETURNDATASIZE DUP1 PUSH1 0x0 DUP2 EQ PUSH2 0x1B2C JUMPI PUSH1 0x40 MLOAD SWAP2 POP PUSH1 0x1F NOT PUSH1 0x3F RETURNDATASIZE ADD AND DUP3 ADD PUSH1 0x40 MSTORE RETURNDATASIZE DUP3 MSTORE RETURNDATASIZE PUSH1 0x0 PUSH1 0x20 DUP5 ADD RETURNDATACOPY PUSH2 0x1B31 JUMP JUMPDEST PUSH1 0x60 SWAP2 POP JUMPDEST POP SWAP2 POP SWAP2 POP PUSH2 0x1B42 DUP8 DUP4 DUP4 DUP8 PUSH2 0x1B4E JUMP JUMPDEST SWAP3 POP POP POP SWAP5 SWAP4 POP POP POP POP JUMP JUMPDEST PUSH1 0x60 DUP4 ISZERO PUSH2 0x1BB0 JUMPI PUSH1 0x0 DUP4 MLOAD SUB PUSH2 0x1BA8 JUMPI PUSH2 0x1B68 DUP6 PUSH2 0x1BC3 JUMP JUMPDEST PUSH2 0x1BA7 JUMPI PUSH1 0x40 MLOAD PUSH32 0x8C379A000000000000000000000000000000000000000000000000000000000 DUP2 MSTORE PUSH1 0x4 ADD PUSH2 0x1B9E SWAP1 PUSH2 0x292B JUMP JUMPDEST PUSH1 0x40 MLOAD DUP1 SWAP2 SUB SWAP1 REVERT JUMPDEST JUMPDEST DUP3 SWAP1 POP PUSH2 0x1BBB JUMP JUMPDEST PUSH2 0x1BBA DUP4 DUP4 PUSH2 0x1BE6 JUMP JUMPDEST JUMPDEST SWAP5 SWAP4 POP POP POP POP JUMP JUMPDEST PUSH1 0x0 DUP1 DUP3 PUSH20 0xFFFFFFFFFFFFFFFFFFFFFFFFFFFFFFFFFFFFFFFF AND EXTCODESIZE GT SWAP1 POP SWAP2 SWAP1 POP JUMP JUMPDEST PUSH1 0x0 DUP3 MLOAD GT ISZERO PUSH2 0x1BF9 JUMPI DUP2 MLOAD DUP1 DUP4 PUSH1 0x20 ADD REVERT JUMPDEST DUP1 PUSH1 0x40 MLOAD PUSH32 0x8C379A000000000000000000000000000000000000000000000000000000000 DUP2 MSTORE PUSH1 0x4 ADD PUSH2 0x1C2D SWAP2 SWAP1 PUSH2 0x29A0 JUMP JUMPDEST PUSH1 0x40 MLOAD DUP1 SWAP2 SUB SWAP1 REVERT JUMPDEST PUSH1 0x40 MLOAD DUP1 PUSH2 0x120 ADD PUSH1 0x40 MSTORE DUP1 PUSH1 0x0 PUSH4 0xFFFFFFFF AND DUP2 MSTORE PUSH1 0x20 ADD PUSH1 0x0 PUSH4 0xFFFFFFFF AND DUP2 MSTORE PUSH1 0x20 ADD PUSH1 0x0 PUSH7 0xFFFFFFFFFFFFFF AND DUP2 MSTORE PUSH1 0x20 ADD PUSH1 0x0 PUSH16 0xFFFFFFFFFFFFFFFFFFFFFFFFFFFFFFFF AND DUP2 MSTORE PUSH1 0x20 ADD PUSH1 0x0 DUP2 MSTORE PUSH1 0x20 ADD PUSH1 0x0 PUSH20 0xFFFFFFFFFFFFFFFFFFFFFFFFFFFFFFFFFFFFFFFF AND DUP2 MSTORE PUSH1 0x20 ADD PUSH1 0x0 PUSH20 0xFFFFFFFFFFFFFFFFFFFFFFFFFFFFFFFFFFFFFFFF AND DUP2 MSTORE PUSH1 0x20 ADD PUSH1 0x0 PUSH20 0xFFFFFFFFFFFFFFFFFFFFFFFFFFFFFFFFFFFFFFFF AND DUP2 MSTORE PUSH1 0x20 ADD PUSH1 0x0 PUSH1 0x4 DUP2 GT ISZERO PUSH2 0x1CF7 JUMPI PUSH2 0x1CF6 PUSH2 0x1F9B JUMP JUMPDEST JUMPDEST DUP2 MSTORE POP SWAP1 JUMP JUMPDEST PUSH1 0x0 DUP1 REVERT JUMPDEST PUSH1 0x0 PUSH4 0xFFFFFFFF DUP3 AND SWAP1 POP SWAP2 SWAP1 POP JUMP JUMPDEST PUSH2 0x1D1B DUP2 PUSH2 0x1D02 JUMP JUMPDEST DUP2 EQ PUSH2 0x1D26 JUMPI PUSH1 0x0 DUP1 REVERT JUMPDEST POP JUMP JUMPDEST PUSH1 0x0 DUP2 CALLDATALOAD SWAP1 POP PUSH2 0x1D38 DUP2 PUSH2 0x1D12 JUMP JUMPDEST SWAP3 SWAP2 POP POP JUMP JUMPDEST PUSH1 0x0 PUSH1 0x20 DUP3 DUP5 SUB SLT ISZERO PUSH2 0x1D54 JUMPI PUSH2 0x1D53 PUSH2 0x1CFD JUMP JUMPDEST JUMPDEST PUSH1 0x0 PUSH2 0x1D62 DUP5 DUP3 DUP6 ADD PUSH2 0x1D29 JUMP JUMPDEST SWAP2 POP POP SWAP3 SWAP2 POP POP JUMP JUMPDEST PUSH1 0x0 PUSH20 0xFFFFFFFFFFFFFFFFFFFFFFFFFFFFFFFFFFFFFFFF DUP3 AND SWAP1 POP SWAP2 SWAP1 POP JUMP JUMPDEST PUSH1 0x0 PUSH2 0x1D96 DUP3 PUSH2 0x1D6B JUMP JUMPDEST SWAP1 POP SWAP2 SWAP1 POP JUMP JUMPDEST PUSH2 0x1DA6 DUP2 PUSH2 0x1D8B JUMP JUMPDEST DUP2 EQ PUSH2 0x1DB1 JUMPI PUSH1 0x0 DUP1 REVERT JUMPDEST POP JUMP JUMPDEST PUSH1 0x0 DUP2 CALLDATALOAD SWAP1 POP PUSH2 0x1DC3 DUP2 PUSH2 0x1D9D JUMP JUMPDEST SWAP3 SWAP2 POP POP JUMP JUMPDEST PUSH1 0x0 PUSH7 0xFFFFFFFFFFFFFF DUP3 AND SWAP1 POP SWAP2 SWAP1 POP JUMP JUMPDEST PUSH2 0x1DE5 DUP2 PUSH2 0x1DC9 JUMP JUMPDEST DUP2 EQ PUSH2 0x1DF0 JUMPI PUSH1 0x0 DUP1 REVERT JUMPDEST POP JUMP JUMPDEST PUSH1 0x0 DUP2 CALLDATALOAD SWAP1 POP PUSH2 0x1E02 DUP2 PUSH2 0x1DDC JUMP JUMPDEST SWAP3 SWAP2 POP POP JUMP JUMPDEST PUSH1 0x0 DUP1 PUSH1 0x40 DUP4 DUP6 SUB SLT ISZERO PUSH2 0x1E1F JUMPI PUSH2 0x1E1E PUSH2 0x1CFD JUMP JUMPDEST JUMPDEST PUSH1 0x0 PUSH2 0x1E2D DUP6 DUP3 DUP7 ADD PUSH2 0x1DB4 JUMP JUMPDEST SWAP3 POP POP PUSH1 0x20 PUSH2 0x1E3E DUP6 DUP3 DUP7 ADD PUSH2 0x1DF3 JUMP JUMPDEST SWAP2 POP POP SWAP3 POP SWAP3 SWAP1 POP JUMP JUMPDEST PUSH2 0x1E51 DUP2 PUSH2 0x1D8B JUMP JUMPDEST DUP3 MSTORE POP POP JUMP JUMPDEST PUSH1 0x0 PUSH1 0x20 DUP3 ADD SWAP1 POP PUSH2 0x1E6C PUSH1 0x0 DUP4 ADD DUP5 PUSH2 0x1E48 JUMP JUMPDEST SWAP3 SWAP2 POP POP JUMP JUMPDEST PUSH1 0x0 PUSH16 0xFFFFFFFFFFFFFFFFFFFFFFFFFFFFFFFF DUP3 AND SWAP1 POP SWAP2 SWAP1 POP JUMP JUMPDEST PUSH2 0x1E97 DUP2 PUSH2 0x1E72 JUMP JUMPDEST DUP2 EQ PUSH2 0x1EA2 JUMPI PUSH1 0x0 DUP1 REVERT JUMPDEST POP JUMP JUMPDEST PUSH1 0x0 DUP2 CALLDATALOAD SWAP1 POP PUSH2 0x1EB4 DUP2 PUSH2 0x1E8E JUMP JUMPDEST SWAP3 SWAP2 POP POP JUMP JUMPDEST PUSH1 0x3 DUP2 LT PUSH2 0x1EC7 JUMPI PUSH1 0x0 DUP1 REVERT JUMPDEST POP JUMP JUMPDEST PUSH1 0x0 DUP2 CALLDATALOAD SWAP1 POP PUSH2 0x1ED9 DUP2 PUSH2 0x1EBA JUMP JUMPDEST SWAP3 SWAP2 POP POP JUMP JUMPDEST PUSH1 0x0 DUP1 PUSH1 0x0 DUP1 PUSH1 0x80 DUP6 DUP8 SUB SLT ISZERO PUSH2 0x1EF9 JUMPI PUSH2 0x1EF8 PUSH2 0x1CFD JUMP JUMPDEST JUMPDEST PUSH1 0x0 PUSH2 0x1F07 DUP8 DUP3 DUP9 ADD PUSH2 0x1DB4 JUMP JUMPDEST SWAP5 POP POP PUSH1 0x20 PUSH2 0x1F18 DUP8 DUP3 DUP9 ADD PUSH2 0x1D29 JUMP JUMPDEST SWAP4 POP POP PUSH1 0x40 PUSH2 0x1F29 DUP8 DUP3 DUP9 ADD PUSH2 0x1EA5 JUMP JUMPDEST SWAP3 POP POP PUSH1 0x60 PUSH2 0x1F3A DUP8 DUP3 DUP9 ADD PUSH2 0x1ECA JUMP JUMPDEST SWAP2 POP POP SWAP3 SWAP6 SWAP2 SWAP5 POP SWAP3 POP JUMP JUMPDEST PUSH2 0x1F4F DUP2 PUSH2 0x1D02 JUMP JUMPDEST DUP3 MSTORE POP POP JUMP JUMPDEST PUSH2 0x1F5E DUP2 PUSH2 0x1DC9 JUMP JUMPDEST DUP3 MSTORE POP POP JUMP JUMPDEST PUSH2 0x1F6D DUP2 PUSH2 0x1E72 JUMP JUMPDEST DUP3 MSTORE POP POP JUMP JUMPDEST PUSH1 0x0 DUP2 SWAP1 POP SWAP2 SWAP1 POP JUMP JUMPDEST PUSH2 0x1F86 DUP2 PUSH2 0x1F73 JUMP JUMPDEST DUP3 MSTORE POP POP JUMP JUMPDEST PUSH2 0x1F95 DUP2 PUSH2 0x1D8B JUMP JUMPDEST DUP3 MSTORE POP POP JUMP JUMPDEST PUSH32 0x4E487B7100000000000000000000000000000000000000000000000000000000 PUSH1 0x0 MSTORE PUSH1 0x21 PUSH1 0x4 MSTORE PUSH1 0x24 PUSH1 0x0 REVERT JUMPDEST PUSH1 0x5 DUP2 LT PUSH2 0x1FDB JUMPI PUSH2 0x1FDA PUSH2 0x1F9B JUMP JUMPDEST JUMPDEST POP JUMP JUMPDEST PUSH1 0x0 DUP2 SWAP1 POP PUSH2 0x1FEC DUP3 PUSH2 0x1FCA JUMP JUMPDEST SWAP2 SWAP1 POP JUMP JUMPDEST PUSH1 0x0 PUSH2 0x1FFC DUP3 PUSH2 0x1FDE JUMP JUMPDEST SWAP1 POP SWAP2 SWAP1 POP JUMP JUMPDEST PUSH2 0x200C DUP2 PUSH2 0x1FF1 JUMP JUMPDEST DUP3 MSTORE POP POP JUMP JUMPDEST PUSH2 0x120 DUP3 ADD PUSH1 0x0 DUP3 ADD MLOAD PUSH2 0x2029 PUSH1 0x0 DUP6 ADD DUP3 PUSH2 0x1F46 JUMP JUMPDEST POP PUSH1 0x20 DUP3 ADD MLOAD PUSH2 0x203C PUSH1 0x20 DUP6 ADD DUP3 PUSH2 0x1F46 JUMP JUMPDEST POP PUSH1 0x40 DUP3 ADD MLOAD PUSH2 0x204F PUSH1 0x40 DUP6 ADD DUP3 PUSH2 0x1F55 JUMP JUMPDEST POP PUSH1 0x60 DUP3 ADD MLOAD PUSH2 0x2062 PUSH1 0x60 DUP6 ADD DUP3 PUSH2 0x1F64 JUMP JUMPDEST POP PUSH1 0x80 DUP3 ADD MLOAD PUSH2 0x2075 PUSH1 0x80 DUP6 ADD DUP3 PUSH2 0x1F7D JUMP JUMPDEST POP PUSH1 0xA0 DUP3 ADD MLOAD PUSH2 0x2088 PUSH1 0xA0 DUP6 ADD DUP3 PUSH2 0x1F8C JUMP JUMPDEST POP PUSH1 0xC0 DUP3 ADD MLOAD PUSH2 0x209B PUSH1 0xC0 DUP6 ADD DUP3 PUSH2 0x1F8C JUMP JUMPDEST POP PUSH1 0xE0 DUP3 ADD MLOAD PUSH2 0x20AE PUSH1 0xE0 DUP6 ADD DUP3 PUSH2 0x1F8C JUMP JUMPDEST POP PUSH2 0x100 DUP3 ADD MLOAD PUSH2 0x20C3 PUSH2 0x100 DUP6 ADD DUP3 PUSH2 0x2003 JUMP JUMPDEST POP POP POP POP JUMP JUMPDEST PUSH1 0x0 PUSH2 0x120 DUP3 ADD SWAP1 POP PUSH2 0x20DF PUSH1 0x0 DUP4 ADD DUP5 PUSH2 0x2012 JUMP JUMPDEST SWAP3 SWAP2 POP POP JUMP JUMPDEST PUSH2 0x20EE DUP2 PUSH2 0x1DC9 JUMP JUMPDEST DUP3 MSTORE POP POP JUMP JUMPDEST PUSH1 0x0 PUSH1 0x20 DUP3 ADD SWAP1 POP PUSH2 0x2109 PUSH1 0x0 DUP4 ADD DUP5 PUSH2 0x20E5 JUMP JUMPDEST SWAP3 SWAP2 POP POP JUMP JUMPDEST PUSH1 0x0 DUP2 MLOAD SWAP1 POP PUSH2 0x211E DUP2 PUSH2 0x1D9D JUMP JUMPDEST SWAP3 SWAP2 POP POP JUMP JUMPDEST PUSH1 0x0 PUSH1 0x20 DUP3 DUP5 SUB SLT ISZERO PUSH2 0x213A JUMPI PUSH2 0x2139 PUSH2 0x1CFD JUMP JUMPDEST JUMPDEST PUSH1 0x0 PUSH2 0x2148 DUP5 DUP3 DUP6 ADD PUSH2 0x210F JUMP JUMPDEST SWAP2 POP POP SWAP3 SWAP2 POP POP JUMP JUMPDEST PUSH1 0x0 DUP3 DUP3 MSTORE PUSH1 0x20 DUP3 ADD SWAP1 POP SWAP3 SWAP2 POP POP JUMP JUMPDEST PUSH32 0x4E6F74204F776E65720000000000000000000000000000000000000000000000 PUSH1 0x0 DUP3 ADD MSTORE POP JUMP JUMPDEST PUSH1 0x0 PUSH2 0x2198 PUSH1 0x9 DUP4 PUSH2 0x2151 JUMP JUMPDEST SWAP2 POP PUSH2 0x21A3 DUP3 PUSH2 0x2162 JUMP JUMPDEST PUSH1 0x20 DUP3 ADD SWAP1 POP SWAP2 SWAP1 POP JUMP JUMPDEST PUSH1 0x0 PUSH1 0x20 DUP3 ADD SWAP1 POP DUP2 DUP2 SUB PUSH1 0x0 DUP4 ADD MSTORE PUSH2 0x21C7 DUP2 PUSH2 0x218B JUMP JUMPDEST SWAP1 POP SWAP2 SWAP1 POP JUMP JUMPDEST PUSH1 0x0 PUSH1 0xFF DUP3 AND SWAP1 POP SWAP2 SWAP1 POP JUMP JUMPDEST PUSH2 0x21E4 DUP2 PUSH2 0x21CE JUMP JUMPDEST DUP2 EQ PUSH2 0x21EF JUMPI PUSH1 0x0 DUP1 REVERT JUMPDEST POP JUMP JUMPDEST PUSH1 0x0 DUP2 MLOAD SWAP1 POP PUSH2 0x2201 DUP2 PUSH2 0x21DB JUMP JUMPDEST SWAP3 SWAP2 POP POP JUMP JUMPDEST PUSH1 0x0 PUSH1 0x20 DUP3 DUP5 SUB SLT ISZERO PUSH2 0x221D JUMPI PUSH2 0x221C PUSH2 0x1CFD JUMP JUMPDEST JUMPDEST PUSH1 0x0 PUSH2 0x222B DUP5 DUP3 DUP6 ADD PUSH2 0x21F2 JUMP JUMPDEST SWAP2 POP POP SWAP3 SWAP2 POP POP JUMP JUMPDEST PUSH32 0x4E487B7100000000000000000000000000000000000000000000000000000000 PUSH1 0x0 MSTORE PUSH1 0x11 PUSH1 0x4 MSTORE PUSH1 0x24 PUSH1 0x0 REVERT JUMPDEST PUSH1 0x0 DUP2 PUSH1 0x1 SHR SWAP1 POP SWAP2 SWAP1 POP JUMP JUMPDEST PUSH1 0x0 DUP1 DUP3 SWAP2 POP DUP4 SWAP1 POP JUMPDEST PUSH1 0x1 DUP6 GT ISZERO PUSH2 0x22BA JUMPI DUP1 DUP7 DIV DUP2 GT ISZERO PUSH2 0x2296 JUMPI PUSH2 0x2295 PUSH2 0x2234 JUMP JUMPDEST JUMPDEST PUSH1 0x1 DUP6 AND ISZERO PUSH2 0x22A5 JUMPI DUP1 DUP3 MUL SWAP2 POP JUMPDEST DUP1 DUP2 MUL SWAP1 POP PUSH2 0x22B3 DUP6 PUSH2 0x2263 JUMP JUMPDEST SWAP5 POP PUSH2 0x227A JUMP JUMPDEST SWAP5 POP SWAP5 SWAP3 POP POP POP JUMP JUMPDEST PUSH1 0x0 DUP3 PUSH2 0x22D3 JUMPI PUSH1 0x1 SWAP1 POP PUSH2 0x238F JUMP JUMPDEST DUP2 PUSH2 0x22E1 JUMPI PUSH1 0x0 SWAP1 POP PUSH2 0x238F JUMP JUMPDEST DUP2 PUSH1 0x1 DUP2 EQ PUSH2 0x22F7 JUMPI PUSH1 0x2 DUP2 EQ PUSH2 0x2301 JUMPI PUSH2 0x2330 JUMP JUMPDEST PUSH1 0x1 SWAP2 POP POP PUSH2 0x238F JUMP JUMPDEST PUSH1 0xFF DUP5 GT ISZERO PUSH2 0x2313 JUMPI PUSH2 0x2312 PUSH2 0x2234 JUMP JUMPDEST JUMPDEST DUP4 PUSH1 0x2 EXP SWAP2 POP DUP5 DUP3 GT ISZERO PUSH2 0x232A JUMPI PUSH2 0x2329 PUSH2 0x2234 JUMP JUMPDEST JUMPDEST POP PUSH2 0x238F JUMP JUMPDEST POP PUSH1 0x20 DUP4 LT PUSH2 0x133 DUP4 LT AND PUSH1 0x4E DUP5 LT PUSH1 0xB DUP5 LT AND OR ISZERO PUSH2 0x2365 JUMPI DUP3 DUP3 EXP SWAP1 POP DUP4 DUP2 GT ISZERO PUSH2 0x2360 JUMPI PUSH2 0x235F PUSH2 0x2234 JUMP JUMPDEST JUMPDEST PUSH2 0x238F JUMP JUMPDEST PUSH2 0x2372 DUP5 DUP5 DUP5 PUSH1 0x1 PUSH2 0x2270 JUMP JUMPDEST SWAP3 POP SWAP1 POP DUP2 DUP5 DIV DUP2 GT ISZERO PUSH2 0x2389 JUMPI PUSH2 0x2388 PUSH2 0x2234 JUMP JUMPDEST JUMPDEST DUP2 DUP2 MUL SWAP1 POP JUMPDEST SWAP4 SWAP3 POP POP POP JUMP JUMPDEST PUSH1 0x0 PUSH2 0x23A1 DUP3 PUSH2 0x1F73 JUMP JUMPDEST SWAP2 POP PUSH2 0x23AC DUP4 PUSH2 0x21CE JUMP JUMPDEST SWAP3 POP PUSH2 0x23D9 PUSH32 0xFFFFFFFFFFFFFFFFFFFFFFFFFFFFFFFFFFFFFFFFFFFFFFFFFFFFFFFFFFFFFFFF DUP5 DUP5 PUSH2 0x22C3 JUMP JUMPDEST SWAP1 POP SWAP3 SWAP2 POP POP JUMP JUMPDEST PUSH1 0x0 PUSH2 0x23EC DUP3 PUSH2 0x1F73 JUMP JUMPDEST SWAP2 POP PUSH2 0x23F7 DUP4 PUSH2 0x1F73 JUMP JUMPDEST SWAP3 POP DUP3 DUP3 MUL PUSH2 0x2405 DUP2 PUSH2 0x1F73 JUMP JUMPDEST SWAP2 POP DUP3 DUP3 DIV DUP5 EQ DUP4 ISZERO OR PUSH2 0x241C JUMPI PUSH2 0x241B PUSH2 0x2234 JUMP JUMPDEST JUMPDEST POP SWAP3 SWAP2 POP POP JUMP JUMPDEST PUSH1 0x0 PUSH2 0x242E DUP3 PUSH2 0x1DC9 JUMP JUMPDEST SWAP2 POP PUSH2 0x2439 DUP4 PUSH2 0x1DC9 JUMP JUMPDEST SWAP3 POP DUP3 DUP3 SUB SWAP1 POP PUSH7 0xFFFFFFFFFFFFFF DUP2 GT ISZERO PUSH2 0x2458 JUMPI PUSH2 0x2457 PUSH2 0x2234 JUMP JUMPDEST JUMPDEST SWAP3 SWAP2 POP POP JUMP JUMPDEST PUSH2 0x2467 DUP2 PUSH2 0x1F73 JUMP JUMPDEST DUP3 MSTORE POP POP JUMP JUMPDEST PUSH1 0x0 PUSH1 0x40 DUP3 ADD SWAP1 POP PUSH2 0x2482 PUSH1 0x0 DUP4 ADD DUP6 PUSH2 0x1E48 JUMP JUMPDEST PUSH2 0x248F PUSH1 0x20 DUP4 ADD DUP5 PUSH2 0x245E JUMP JUMPDEST SWAP4 SWAP3 POP POP POP JUMP JUMPDEST PUSH1 0x0 DUP2 ISZERO ISZERO SWAP1 POP SWAP2 SWAP1 POP JUMP JUMPDEST PUSH2 0x24AB DUP2 PUSH2 0x2496 JUMP JUMPDEST DUP2 EQ PUSH2 0x24B6 JUMPI PUSH1 0x0 DUP1 REVERT JUMPDEST POP JUMP JUMPDEST PUSH1 0x0 DUP2 MLOAD SWAP1 POP PUSH2 0x24C8 DUP2 PUSH2 0x24A2 JUMP JUMPDEST SWAP3 SWAP2 POP POP JUMP JUMPDEST PUSH1 0x0 PUSH1 0x20 DUP3 DUP5 SUB SLT ISZERO PUSH2 0x24E4 JUMPI PUSH2 0x24E3 PUSH2 0x1CFD JUMP JUMPDEST JUMPDEST PUSH1 0x0 PUSH2 0x24F2 DUP5 DUP3 DUP6 ADD PUSH2 0x24B9 JUMP JUMPDEST SWAP2 POP POP SWAP3 SWAP2 POP POP JUMP JUMPDEST PUSH1 0x0 DUP2 SWAP1 POP SWAP2 SWAP1 POP JUMP JUMPDEST PUSH1 0x0 PUSH2 0xFFFF DUP3 AND SWAP1 POP SWAP2 SWAP1 POP JUMP JUMPDEST PUSH1 0x0 DUP2 SWAP1 POP SWAP2 SWAP1 POP JUMP JUMPDEST PUSH1 0x0 PUSH2 0x2538 PUSH2 0x2533 PUSH2 0x252E DUP5 PUSH2 0x24FB JUMP JUMPDEST PUSH2 0x2513 JUMP JUMPDEST PUSH2 0x2505 JUMP JUMPDEST SWAP1 POP SWAP2 SWAP1 POP JUMP JUMPDEST PUSH2 0x2548 DUP2 PUSH2 0x251D JUMP JUMPDEST DUP3 MSTORE POP POP JUMP JUMPDEST PUSH1 0x0 PUSH1 0x80 DUP3 ADD SWAP1 POP PUSH2 0x2563 PUSH1 0x0 DUP4 ADD DUP8 PUSH2 0x1E48 JUMP JUMPDEST PUSH2 0x2570 PUSH1 0x20 DUP4 ADD DUP7 PUSH2 0x245E JUMP JUMPDEST PUSH2 0x257D PUSH1 0x40 DUP4 ADD DUP6 PUSH2 0x1E48 JUMP JUMPDEST PUSH2 0x258A PUSH1 0x60 DUP4 ADD DUP5 PUSH2 0x253F JUMP JUMPDEST SWAP6 SWAP5 POP POP POP POP POP JUMP JUMPDEST PUSH1 0x0 PUSH2 0x259E DUP3 PUSH2 0x1F73 JUMP JUMPDEST SWAP2 POP PUSH2 0x25A9 DUP4 PUSH2 0x1F73 JUMP JUMPDEST SWAP3 POP DUP3 DUP3 ADD SWAP1 POP DUP1 DUP3 GT ISZERO PUSH2 0x25C1 JUMPI PUSH2 0x25C0 PUSH2 0x2234 JUMP JUMPDEST JUMPDEST SWAP3 SWAP2 POP POP JUMP JUMPDEST PUSH1 0x0 PUSH2 0x25D2 DUP3 PUSH2 0x1D02 JUMP JUMPDEST SWAP2 POP PUSH4 0xFFFFFFFF DUP3 SUB PUSH2 0x25E8 JUMPI PUSH2 0x25E7 PUSH2 0x2234 JUMP JUMPDEST JUMPDEST PUSH1 0x1 DUP3 ADD SWAP1 POP SWAP2 SWAP1 POP JUMP JUMPDEST PUSH32 0x5472616465206572726F72000000000000000000000000000000000000000000 PUSH1 0x0 DUP3 ADD MSTORE POP JUMP JUMPDEST PUSH1 0x0 PUSH2 0x2629 PUSH1 0xB DUP4 PUSH2 0x2151 JUMP JUMPDEST SWAP2 POP PUSH2 0x2634 DUP3 PUSH2 0x25F3 JUMP JUMPDEST PUSH1 0x20 DUP3 ADD SWAP1 POP SWAP2 SWAP1 POP JUMP JUMPDEST PUSH1 0x0 PUSH1 0x20 DUP3 ADD SWAP1 POP DUP2 DUP2 SUB PUSH1 0x0 DUP4 ADD MSTORE PUSH2 0x2658 DUP2 PUSH2 0x261C JUMP JUMPDEST SWAP1 POP SWAP2 SWAP1 POP JUMP JUMPDEST PUSH1 0x0 PUSH2 0x266A DUP3 PUSH2 0x1E72 JUMP JUMPDEST SWAP2 POP PUSH2 0x2675 DUP4 PUSH2 0x1E72 JUMP JUMPDEST SWAP3 POP DUP3 DUP3 MUL PUSH2 0x2683 DUP2 PUSH2 0x1E72 JUMP JUMPDEST SWAP2 POP DUP1 DUP3 EQ PUSH2 0x2695 JUMPI PUSH2 0x2694 PUSH2 0x2234 JUMP JUMPDEST JUMPDEST POP SWAP3 SWAP2 POP POP JUMP JUMPDEST PUSH32 0x4E487B7100000000000000000000000000000000000000000000000000000000 PUSH1 0x0 MSTORE PUSH1 0x12 PUSH1 0x4 MSTORE PUSH1 0x24 PUSH1 0x0 REVERT JUMPDEST PUSH1 0x0 PUSH2 0x26D6 DUP3 PUSH2 0x1E72 JUMP JUMPDEST SWAP2 POP PUSH2 0x26E1 DUP4 PUSH2 0x1E72 JUMP JUMPDEST SWAP3 POP DUP3 PUSH2 0x26F1 JUMPI PUSH2 0x26F0 PUSH2 0x269C JUMP JUMPDEST JUMPDEST DUP3 DUP3 DIV SWAP1 POP SWAP3 SWAP2 POP POP JUMP JUMPDEST PUSH1 0x0 PUSH1 0x60 DUP3 ADD SWAP1 POP PUSH2 0x2711 PUSH1 0x0 DUP4 ADD DUP7 PUSH2 0x1E48 JUMP JUMPDEST PUSH2 0x271E PUSH1 0x20 DUP4 ADD DUP6 PUSH2 0x1E48 JUMP JUMPDEST PUSH2 0x272B PUSH1 0x40 DUP4 ADD DUP5 PUSH2 0x245E JUMP JUMPDEST SWAP5 SWAP4 POP POP POP POP JUMP JUMPDEST PUSH32 0x5361666545524332303A204552433230206F7065726174696F6E20646964206E PUSH1 0x0 DUP3 ADD MSTORE PUSH32 0x6F74207375636365656400000000000000000000000000000000000000000000 PUSH1 0x20 DUP3 ADD MSTORE POP JUMP JUMPDEST PUSH1 0x0 PUSH2 0x278F PUSH1 0x2A DUP4 PUSH2 0x2151 JUMP JUMPDEST SWAP2 POP PUSH2 0x279A DUP3 PUSH2 0x2733 JUMP JUMPDEST PUSH1 0x40 DUP3 ADD SWAP1 POP SWAP2 SWAP1 POP JUMP JUMPDEST PUSH1 0x0 PUSH1 0x20 DUP3 ADD SWAP1 POP DUP2 DUP2 SUB PUSH1 0x0 DUP4 ADD MSTORE PUSH2 0x27BE DUP2 PUSH2 0x2782 JUMP JUMPDEST SWAP1 POP SWAP2 SWAP1 POP JUMP JUMPDEST PUSH32 0x416464726573733A20696E73756666696369656E742062616C616E636520666F PUSH1 0x0 DUP3 ADD MSTORE PUSH32 0x722063616C6C0000000000000000000000000000000000000000000000000000 PUSH1 0x20 DUP3 ADD MSTORE POP JUMP JUMPDEST PUSH1 0x0 PUSH2 0x2821 PUSH1 0x26 DUP4 PUSH2 0x2151 JUMP JUMPDEST SWAP2 POP PUSH2 0x282C DUP3 PUSH2 0x27C5 JUMP JUMPDEST PUSH1 0x40 DUP3 ADD SWAP1 POP SWAP2 SWAP1 POP JUMP JUMPDEST PUSH1 0x0 PUSH1 0x20 DUP3 ADD SWAP1 POP DUP2 DUP2 SUB PUSH1 0x0 DUP4 ADD MSTORE PUSH2 0x2850 DUP2 PUSH2 0x2814 JUMP JUMPDEST SWAP1 POP SWAP2 SWAP1 POP JUMP JUMPDEST PUSH1 0x0 DUP2 MLOAD SWAP1 POP SWAP2 SWAP1 POP JUMP JUMPDEST PUSH1 0x0 DUP2 SWAP1 POP SWAP3 SWAP2 POP POP JUMP JUMPDEST PUSH1 0x0 JUMPDEST DUP4 DUP2 LT ISZERO PUSH2 0x288B JUMPI DUP1 DUP3 ADD MLOAD DUP2 DUP5 ADD MSTORE PUSH1 0x20 DUP2 ADD SWAP1 POP PUSH2 0x2870 JUMP JUMPDEST PUSH1 0x0 DUP5 DUP5 ADD MSTORE POP POP POP POP JUMP JUMPDEST PUSH1 0x0 PUSH2 0x28A2 DUP3 PUSH2 0x2857 JUMP JUMPDEST PUSH2 0x28AC DUP2 DUP6 PUSH2 0x2862 JUMP JUMPDEST SWAP4 POP PUSH2 0x28BC DUP2 DUP6 PUSH1 0x20 DUP7 ADD PUSH2 0x286D JUMP JUMPDEST DUP1 DUP5 ADD SWAP2 POP POP SWAP3 SWAP2 POP POP JUMP JUMPDEST PUSH1 0x0 PUSH2 0x28D4 DUP3 DUP5 PUSH2 0x2897 JUMP JUMPDEST SWAP2 POP DUP2 SWAP1 POP SWAP3 SWAP2 POP POP JUMP JUMPDEST PUSH32 0x416464726573733A2063616C6C20746F206E6F6E2D636F6E7472616374000000 PUSH1 0x0 DUP3 ADD MSTORE POP JUMP JUMPDEST PUSH1 0x0 PUSH2 0x2915 PUSH1 0x1D DUP4 PUSH2 0x2151 JUMP JUMPDEST SWAP2 POP PUSH2 0x2920 DUP3 PUSH2 0x28DF JUMP JUMPDEST PUSH1 0x20 DUP3 ADD SWAP1 POP SWAP2 SWAP1 POP JUMP JUMPDEST PUSH1 0x0 PUSH1 0x20 DUP3 ADD SWAP1 POP DUP2 DUP2 SUB PUSH1 0x0 DUP4 ADD MSTORE PUSH2 0x2944 DUP2 PUSH2 0x2908 JUMP JUMPDEST SWAP1 POP SWAP2 SWAP1 POP JUMP JUMPDEST PUSH1 0x0 DUP2 MLOAD SWAP1 POP SWAP2 SWAP1 POP JUMP JUMPDEST PUSH1 0x0 PUSH1 0x1F NOT PUSH1 0x1F DUP4 ADD AND SWAP1 POP SWAP2 SWAP1 POP JUMP JUMPDEST PUSH1 0x0 PUSH2 0x2972 DUP3 PUSH2 0x294B JUMP JUMPDEST PUSH2 0x297C DUP2 DUP6 PUSH2 0x2151 JUMP JUMPDEST SWAP4 POP PUSH2 0x298C DUP2 DUP6 PUSH1 0x20 DUP7 ADD PUSH2 0x286D JUMP JUMPDEST PUSH2 0x2995 DUP2 PUSH2 0x2956 JUMP JUMPDEST DUP5 ADD SWAP2 POP POP SWAP3 SWAP2 POP POP JUMP JUMPDEST PUSH1 0x0 PUSH1 0x20 DUP3 ADD SWAP1 POP DUP2 DUP2 SUB PUSH1 0x0 DUP4 ADD MSTORE PUSH2 0x29BA DUP2 DUP5 PUSH2 0x2967 JUMP JUMPDEST SWAP1 POP SWAP3 SWAP2 POP POP JUMP INVALID LOG2 PUSH5 0x6970667358 0x22 SLT KECCAK256 BYTE 0x4A 0xBD 0x5F GASLIMIT PUSH5 0xCF4C6F2778 0xB3 BALANCE LOG0 DUP8 0xBF 0x5E PUSH20 0x22C6237A6F33F16117AF6C6B74D164736F6C6343 STOP ADDMOD SGT STOP CALLER "
				},
				"gasEstimates": {
					"creation": {
						"codeDepositCost": "2148800",
						"executionCost": "infinite",
						"totalCost": "infinite"
					},
					"external": {
						"cancelOrder(uint32)": "413",
						"getClearTime()": "2595",
						"getTradeMes(uint32)": "infinite",
						"matchTrade(uint32)": "infinite",
						"putTrade(address,uint32,uint128,uint8)": "infinite",
						"refund(uint32)": "435",
						"rewardPoolAddress()": "2589",
						"setRewardPool(address,uint56)": "infinite"
					},
					"internal": {
						"getBuyer(uint32)": "infinite",
						"getSolder(uint32)": "infinite"
					}
				},
				"methodIdentifiers": {
					"cancelOrder(uint32)": "1b92468d",
					"getClearTime()": "cd83432d",
					"getTradeMes(uint32)": "b9eb8992",
					"matchTrade(uint32)": "b7252e8f",
					"putTrade(address,uint32,uint128,uint8)": "8acd6272",
					"refund(uint32)": "1c48c074",
					"rewardPoolAddress()": "845a51ec",
					"setRewardPool(address,uint56)": "635b9a0f"
				}
			},
			"storageLayout": {
				"storage": [
					{
						"astId": 16,
						"contract": "contracts/TimeMarket.sol:TimeMarket",
						"label": "id",
						"offset": 0,
						"slot": "0",
						"type": "t_uint32"
					},
					{
						"astId": 18,
						"contract": "contracts/TimeMarket.sol:TimeMarket",
						"label": "clearingTime",
						"offset": 4,
						"slot": "0",
						"type": "t_uint56"
					},
					{
						"astId": 20,
						"contract": "contracts/TimeMarket.sol:TimeMarket",
						"label": "factoryOwner",
						"offset": 11,
						"slot": "0",
						"type": "t_address"
					},
					{
						"astId": 22,
						"contract": "contracts/TimeMarket.sol:TimeMarket",
						"label": "totalStable",
						"offset": 0,
						"slot": "1",
						"type": "t_uint256"
					},
					{
						"astId": 24,
						"contract": "contracts/TimeMarket.sol:TimeMarket",
						"label": "rewardPool",
						"offset": 0,
						"slot": "2",
						"type": "t_address"
					},
					{
						"astId": 26,
						"contract": "contracts/TimeMarket.sol:TimeMarket",
						"label": "airdropToken",
						"offset": 0,
						"slot": "3",
						"type": "t_address"
					},
					{
						"astId": 29,
						"contract": "contracts/TimeMarket.sol:TimeMarket",
						"label": "AUSDT",
						"offset": 0,
						"slot": "4",
						"type": "t_address"
					},
					{
						"astId": 32,
						"contract": "contracts/TimeMarket.sol:TimeMarket",
						"label": "AEthUsdt",
						"offset": 0,
						"slot": "5",
						"type": "t_address"
					},
					{
						"astId": 38,
						"contract": "contracts/TimeMarket.sol:TimeMarket",
						"label": "AaveV3Pool",
						"offset": 0,
						"slot": "6",
						"type": "t_contract(IPool)1284"
					},
					{
						"astId": 58,
						"contract": "contracts/TimeMarket.sol:TimeMarket",
						"label": "_tradeMes",
						"offset": 0,
						"slot": "7",
						"type": "t_mapping(t_uint32,t_struct(tradeMes)1689_storage)"
					},
					{
						"astId": 65,
						"contract": "contracts/TimeMarket.sol:TimeMarket",
						"label": "_userDeposite",
						"offset": 0,
						"slot": "8",
						"type": "t_mapping(t_uint32,t_mapping(t_address,t_struct(userDeposite)1702_storage))"
					},
					{
						"astId": 71,
						"contract": "contracts/TimeMarket.sol:TimeMarket",
						"label": "userLiquidity",
						"offset": 0,
						"slot": "9",
						"type": "t_mapping(t_address,t_mapping(t_uint64,t_uint256))"
					}
				],
				"types": {
					"t_address": {
						"encoding": "inplace",
						"label": "address",
						"numberOfBytes": "20"
					},
					"t_contract(IPool)1284": {
						"encoding": "inplace",
						"label": "contract IPool",
						"numberOfBytes": "20"
					},
					"t_enum(tradeState)1669": {
						"encoding": "inplace",
						"label": "enum ITimeMarket.tradeState",
						"numberOfBytes": "1"
					},
					"t_mapping(t_address,t_mapping(t_uint64,t_uint256))": {
						"encoding": "mapping",
						"key": "t_address",
						"label": "mapping(address => mapping(uint64 => uint256))",
						"numberOfBytes": "32",
						"value": "t_mapping(t_uint64,t_uint256)"
					},
					"t_mapping(t_address,t_struct(userDeposite)1702_storage)": {
						"encoding": "mapping",
						"key": "t_address",
						"label": "mapping(address => struct ITimeMarket.userDeposite)",
						"numberOfBytes": "32",
						"value": "t_struct(userDeposite)1702_storage"
					},
					"t_mapping(t_uint32,t_mapping(t_address,t_struct(userDeposite)1702_storage))": {
						"encoding": "mapping",
						"key": "t_uint32",
						"label": "mapping(uint32 => mapping(address => struct ITimeMarket.userDeposite))",
						"numberOfBytes": "32",
						"value": "t_mapping(t_address,t_struct(userDeposite)1702_storage)"
					},
					"t_mapping(t_uint32,t_struct(tradeMes)1689_storage)": {
						"encoding": "mapping",
						"key": "t_uint32",
						"label": "mapping(uint32 => struct ITimeMarket.tradeMes)",
						"numberOfBytes": "32",
						"value": "t_struct(tradeMes)1689_storage"
					},
					"t_mapping(t_uint64,t_uint256)": {
						"encoding": "mapping",
						"key": "t_uint64",
						"label": "mapping(uint64 => uint256)",
						"numberOfBytes": "32",
						"value": "t_uint256"
					},
					"t_struct(tradeMes)1689_storage": {
						"encoding": "inplace",
						"label": "struct ITimeMarket.tradeMes",
						"members": [
							{
								"astId": 1671,
								"contract": "contracts/TimeMarket.sol:TimeMarket",
								"label": "tradeId",
								"offset": 0,
								"slot": "0",
								"type": "t_uint32"
							},
							{
								"astId": 1673,
								"contract": "contracts/TimeMarket.sol:TimeMarket",
								"label": "price",
								"offset": 4,
								"slot": "0",
								"type": "t_uint32"
							},
							{
								"astId": 1675,
								"contract": "contracts/TimeMarket.sol:TimeMarket",
								"label": "time",
								"offset": 8,
								"slot": "0",
								"type": "t_uint56"
							},
							{
								"astId": 1677,
								"contract": "contracts/TimeMarket.sol:TimeMarket",
								"label": "amount",
								"offset": 15,
								"slot": "0",
								"type": "t_uint128"
							},
							{
								"astId": 1679,
								"contract": "contracts/TimeMarket.sol:TimeMarket",
								"label": "tokenOneAmount",
								"offset": 0,
								"slot": "1",
								"type": "t_uint256"
							},
							{
								"astId": 1681,
								"contract": "contracts/TimeMarket.sol:TimeMarket",
								"label": "tokenAddress",
								"offset": 0,
								"slot": "2",
								"type": "t_address"
							},
							{
								"astId": 1683,
								"contract": "contracts/TimeMarket.sol:TimeMarket",
								"label": "buyerAddress",
								"offset": 0,
								"slot": "3",
								"type": "t_address"
							},
							{
								"astId": 1685,
								"contract": "contracts/TimeMarket.sol:TimeMarket",
								"label": "solderAddress",
								"offset": 0,
								"slot": "4",
								"type": "t_address"
							},
							{
								"astId": 1688,
								"contract": "contracts/TimeMarket.sol:TimeMarket",
								"label": "_tradeState",
								"offset": 20,
								"slot": "4",
								"type": "t_enum(tradeState)1669"
							}
						],
						"numberOfBytes": "160"
					},
					"t_struct(userDeposite)1702_storage": {
						"encoding": "inplace",
						"label": "struct ITimeMarket.userDeposite",
						"members": [
							{
								"astId": 1691,
								"contract": "contracts/TimeMarket.sol:TimeMarket",
								"label": "tradeId",
								"offset": 0,
								"slot": "0",
								"type": "t_uint32"
							},
							{
								"astId": 1693,
								"contract": "contracts/TimeMarket.sol:TimeMarket",
								"label": "startTime",
								"offset": 4,
								"slot": "0",
								"type": "t_uint56"
							},
							{
								"astId": 1695,
								"contract": "contracts/TimeMarket.sol:TimeMarket",
								"label": "endTime",
								"offset": 11,
								"slot": "0",
								"type": "t_uint56"
							},
							{
								"astId": 1697,
								"contract": "contracts/TimeMarket.sol:TimeMarket",
								"label": "depositeAmount",
								"offset": 0,
								"slot": "1",
								"type": "t_uint256"
							},
							{
								"astId": 1699,
								"contract": "contracts/TimeMarket.sol:TimeMarket",
								"label": "earnAmount",
								"offset": 0,
								"slot": "2",
								"type": "t_uint256"
							},
							{
								"astId": 1701,
								"contract": "contracts/TimeMarket.sol:TimeMarket",
								"label": "user",
								"offset": 0,
								"slot": "3",
								"type": "t_address"
							}
						],
						"numberOfBytes": "128"
					},
					"t_uint128": {
						"encoding": "inplace",
						"label": "uint128",
						"numberOfBytes": "16"
					},
					"t_uint256": {
						"encoding": "inplace",
						"label": "uint256",
						"numberOfBytes": "32"
					},
					"t_uint32": {
						"encoding": "inplace",
						"label": "uint32",
						"numberOfBytes": "4"
					},
					"t_uint56": {
						"encoding": "inplace",
						"label": "uint56",
						"numberOfBytes": "7"
					},
					"t_uint64": {
						"encoding": "inplace",
						"label": "uint64",
						"numberOfBytes": "8"
					}
				}
			},
			"userdoc": {
				"kind": "user",
				"methods": {},
				"version": 1
			}
		}
	}
}